{"abi":[{"inputs":[{"internalType":"uint256","name":"postIdx","type":"uint256"}],"name":"approvePost","outputs":[],"stateMutability":"nonpayable","type":"function"},{"inputs":[{"internalType":"bool","name":"requestedPosts","type":"bool"}],"name":"getAllPosts","outputs":[{"components":[{"internalType":"string","name":"postHash","type":"string"},{"internalType":"address","name":"postCreator","type":"address"},{"internalType":"bool","name":"isRequest","type":"bool"}],"internalType":"struct PostNewsContract.PostStructure[]","name":"","type":"tuple[]"}],"stateMutability":"view","type":"function"},{"inputs":[{"internalType":"address","name":"_userAddress","type":"address"}],"name":"getPostsByUser","outputs":[{"components":[{"internalType":"string","name":"postHash","type":"string"},{"internalType":"address","name":"postCreator","type":"address"},{"internalType":"bool","name":"isRequest","type":"bool"}],"internalType":"struct PostNewsContract.PostStructure[]","name":"","type":"tuple[]"}],"stateMutability":"view","type":"function"},{"inputs":[{"internalType":"string","name":"_postHash","type":"string"},{"internalType":"address","name":"_postCreator","type":"address"},{"internalType":"bool","name":"_isRequest","type":"bool"}],"name":"postNews","outputs":[],"stateMutability":"nonpayable","type":"function"}],"devdoc":{"kind":"dev","methods":{},"version":1},"evm":{"assembly":"    /* \"PostNewsContract.sol\":64:3946  contract PostNewsContract {... */\n  mstore(0x40, 0x80)\n    /* \"PostNewsContract.sol\":1054:1055  0 */\n  0x00\n    /* \"PostNewsContract.sol\":1027:1055  uint256 requestPostIndex = 0 */\n  0x07\n  sstore\n    /* \"PostNewsContract.sol\":1090:1091  0 */\n  0x00\n    /* \"PostNewsContract.sol\":1062:1091  uint256 approvedPostIndex = 0 */\n  0x08\n  sstore\n    /* \"PostNewsContract.sol\":64:3946  contract PostNewsContract {... */\n  callvalue\n  dup1\n  iszero\n  tag_1\n  jumpi\n  0x00\n  dup1\n  revert\ntag_1:\n  pop\n  dataSize(sub_0)\n  dup1\n  dataOffset(sub_0)\n  0x00\n  codecopy\n  0x00\n  return\nstop\n\nsub_0: assembly {\n        /* \"PostNewsContract.sol\":64:3946  contract PostNewsContract {... */\n      mstore(0x40, 0x80)\n      callvalue\n      dup1\n      iszero\n      tag_1\n      jumpi\n      0x00\n      dup1\n      revert\n    tag_1:\n      pop\n      jumpi(tag_2, lt(calldatasize, 0x04))\n      shr(0xe0, calldataload(0x00))\n      dup1\n      0x1e0f71fe\n      eq\n      tag_3\n      jumpi\n      dup1\n      0x28538949\n      eq\n      tag_4\n      jumpi\n      dup1\n      0x39fec887\n      eq\n      tag_5\n      jumpi\n      dup1\n      0x95caa166\n      eq\n      tag_6\n      jumpi\n    tag_2:\n      0x00\n      dup1\n      revert\n        /* \"PostNewsContract.sol\":2862:3124  function getAllPosts(bool requestedPosts)... */\n    tag_3:\n      tag_7\n      0x04\n      dup1\n      calldatasize\n      sub\n      dup2\n      add\n      swap1\n      tag_8\n      swap2\n      swap1\n      tag_9\n      jump\t// in\n    tag_8:\n      tag_10\n      jump\t// in\n    tag_7:\n      mload(0x40)\n      tag_11\n      swap2\n      swap1\n      tag_12\n      jump\t// in\n    tag_11:\n      mload(0x40)\n      dup1\n      swap2\n      sub\n      swap1\n      return\n        /* \"PostNewsContract.sol\":3770:3943  function getPostsByUser(address _userAddress)... */\n    tag_4:\n      tag_13\n      0x04\n      dup1\n      calldatasize\n      sub\n      dup2\n      add\n      swap1\n      tag_14\n      swap2\n      swap1\n      tag_15\n      jump\t// in\n    tag_14:\n      tag_16\n      jump\t// in\n    tag_13:\n      mload(0x40)\n      tag_17\n      swap2\n      swap1\n      tag_12\n      jump\t// in\n    tag_17:\n      mload(0x40)\n      dup1\n      swap2\n      sub\n      swap1\n      return\n        /* \"PostNewsContract.sol\":1100:2824  function postNews(... */\n    tag_5:\n      tag_18\n      0x04\n      dup1\n      calldatasize\n      sub\n      dup2\n      add\n      swap1\n      tag_19\n      swap2\n      swap1\n      tag_20\n      jump\t// in\n    tag_19:\n      tag_21\n      jump\t// in\n    tag_18:\n      stop\n        /* \"PostNewsContract.sol\":3132:3762  function approvePost(uint256 postIdx) public {... */\n    tag_6:\n      tag_22\n      0x04\n      dup1\n      calldatasize\n      sub\n      dup2\n      add\n      swap1\n      tag_23\n      swap2\n      swap1\n      tag_24\n      jump\t// in\n    tag_23:\n      tag_25\n      jump\t// in\n    tag_22:\n      stop\n        /* \"PostNewsContract.sol\":2862:3124  function getAllPosts(bool requestedPosts)... */\n    tag_10:\n        /* \"PostNewsContract.sol\":2952:2974  PostStructure[] memory */\n      0x60\n        /* \"PostNewsContract.sol\":2996:3010  requestedPosts */\n      dup2\n        /* \"PostNewsContract.sol\":2992:3117  if (requestedPosts) {... */\n      iszero\n      tag_27\n      jumpi\n        /* \"PostNewsContract.sol\":3034:3054  allTheRequestedPosts */\n      0x04\n        /* \"PostNewsContract.sol\":3027:3054  return allTheRequestedPosts */\n      dup1\n      sload\n      dup1\n      0x20\n      mul\n      0x20\n      add\n      mload(0x40)\n      swap1\n      dup2\n      add\n      0x40\n      mstore\n      dup1\n      swap3\n      swap2\n      swap1\n      dup2\n      dup2\n      mstore\n      0x20\n      add\n      0x00\n      swap1\n    tag_28:\n      dup3\n      dup3\n      lt\n      iszero\n      tag_29\n      jumpi\n      dup4\n      dup3\n      swap1\n      0x00\n      mstore\n      keccak256(0x00, 0x20)\n      swap1\n      0x02\n      mul\n      add\n      mload(0x40)\n      dup1\n      0x60\n      add\n      0x40\n      mstore\n      swap1\n      dup2\n      0x00\n      dup3\n      add\n      dup1\n      sload\n      tag_31\n      swap1\n      tag_32\n      jump\t// in\n    tag_31:\n      dup1\n      0x1f\n      add\n      0x20\n      dup1\n      swap2\n      div\n      mul\n      0x20\n      add\n      mload(0x40)\n      swap1\n      dup2\n      add\n      0x40\n      mstore\n      dup1\n      swap3\n      swap2\n      swap1\n      dup2\n      dup2\n      mstore\n      0x20\n      add\n      dup3\n      dup1\n      sload\n      tag_33\n      swap1\n      tag_32\n      jump\t// in\n    tag_33:\n      dup1\n      iszero\n      tag_34\n      jumpi\n      dup1\n      0x1f\n      lt\n      tag_35\n      jumpi\n      0x0100\n      dup1\n      dup4\n      sload\n      div\n      mul\n      dup4\n      mstore\n      swap2\n      0x20\n      add\n      swap2\n      jump(tag_34)\n    tag_35:\n      dup3\n      add\n      swap2\n      swap1\n      0x00\n      mstore\n      keccak256(0x00, 0x20)\n      swap1\n    tag_36:\n      dup2\n      sload\n      dup2\n      mstore\n      swap1\n      0x01\n      add\n      swap1\n      0x20\n      add\n      dup1\n      dup4\n      gt\n      tag_36\n      jumpi\n      dup3\n      swap1\n      sub\n      0x1f\n      and\n      dup3\n      add\n      swap2\n    tag_34:\n      pop\n      pop\n      pop\n      pop\n      pop\n      dup2\n      mstore\n      0x20\n      add\n      0x01\n      dup3\n      add\n      0x00\n      swap1\n      sload\n      swap1\n      0x0100\n      exp\n      swap1\n      div\n      0xffffffffffffffffffffffffffffffffffffffff\n      and\n      0xffffffffffffffffffffffffffffffffffffffff\n      and\n      0xffffffffffffffffffffffffffffffffffffffff\n      and\n      dup2\n      mstore\n      0x20\n      add\n      0x01\n      dup3\n      add\n      0x14\n      swap1\n      sload\n      swap1\n      0x0100\n      exp\n      swap1\n      div\n      0xff\n      and\n      iszero\n      iszero\n      iszero\n      iszero\n      dup2\n      mstore\n      pop\n      pop\n      dup2\n      mstore\n      0x20\n      add\n      swap1\n      0x01\n      add\n      swap1\n      jump(tag_28)\n    tag_29:\n      pop\n      pop\n      pop\n      pop\n      swap1\n      pop\n      jump(tag_26)\n        /* \"PostNewsContract.sol\":2992:3117  if (requestedPosts) {... */\n    tag_27:\n        /* \"PostNewsContract.sol\":3094:3105  allThePosts */\n      0x02\n        /* \"PostNewsContract.sol\":3087:3105  return allThePosts */\n      dup1\n      sload\n      dup1\n      0x20\n      mul\n      0x20\n      add\n      mload(0x40)\n      swap1\n      dup2\n      add\n      0x40\n      mstore\n      dup1\n      swap3\n      swap2\n      swap1\n      dup2\n      dup2\n      mstore\n      0x20\n      add\n      0x00\n      swap1\n    tag_38:\n      dup3\n      dup3\n      lt\n      iszero\n      tag_39\n      jumpi\n      dup4\n      dup3\n      swap1\n      0x00\n      mstore\n      keccak256(0x00, 0x20)\n      swap1\n      0x02\n      mul\n      add\n      mload(0x40)\n      dup1\n      0x60\n      add\n      0x40\n      mstore\n      swap1\n      dup2\n      0x00\n      dup3\n      add\n      dup1\n      sload\n      tag_41\n      swap1\n      tag_32\n      jump\t// in\n    tag_41:\n      dup1\n      0x1f\n      add\n      0x20\n      dup1\n      swap2\n      div\n      mul\n      0x20\n      add\n      mload(0x40)\n      swap1\n      dup2\n      add\n      0x40\n      mstore\n      dup1\n      swap3\n      swap2\n      swap1\n      dup2\n      dup2\n      mstore\n      0x20\n      add\n      dup3\n      dup1\n      sload\n      tag_42\n      swap1\n      tag_32\n      jump\t// in\n    tag_42:\n      dup1\n      iszero\n      tag_43\n      jumpi\n      dup1\n      0x1f\n      lt\n      tag_44\n      jumpi\n      0x0100\n      dup1\n      dup4\n      sload\n      div\n      mul\n      dup4\n      mstore\n      swap2\n      0x20\n      add\n      swap2\n      jump(tag_43)\n    tag_44:\n      dup3\n      add\n      swap2\n      swap1\n      0x00\n      mstore\n      keccak256(0x00, 0x20)\n      swap1\n    tag_45:\n      dup2\n      sload\n      dup2\n      mstore\n      swap1\n      0x01\n      add\n      swap1\n      0x20\n      add\n      dup1\n      dup4\n      gt\n      tag_45\n      jumpi\n      dup3\n      swap1\n      sub\n      0x1f\n      and\n      dup3\n      add\n      swap2\n    tag_43:\n      pop\n      pop\n      pop\n      pop\n      pop\n      dup2\n      mstore\n      0x20\n      add\n      0x01\n      dup3\n      add\n      0x00\n      swap1\n      sload\n      swap1\n      0x0100\n      exp\n      swap1\n      div\n      0xffffffffffffffffffffffffffffffffffffffff\n      and\n      0xffffffffffffffffffffffffffffffffffffffff\n      and\n      0xffffffffffffffffffffffffffffffffffffffff\n      and\n      dup2\n      mstore\n      0x20\n      add\n      0x01\n      dup3\n      add\n      0x14\n      swap1\n      sload\n      swap1\n      0x0100\n      exp\n      swap1\n      div\n      0xff\n      and\n      iszero\n      iszero\n      iszero\n      iszero\n      dup2\n      mstore\n      pop\n      pop\n      dup2\n      mstore\n      0x20\n      add\n      swap1\n      0x01\n      add\n      swap1\n      jump(tag_38)\n    tag_39:\n      pop\n      pop\n      pop\n      pop\n      swap1\n      pop\n        /* \"PostNewsContract.sol\":2862:3124  function getAllPosts(bool requestedPosts)... */\n    tag_26:\n      swap2\n      swap1\n      pop\n      jump\t// out\n        /* \"PostNewsContract.sol\":3770:3943  function getPostsByUser(address _userAddress)... */\n    tag_16:\n        /* \"PostNewsContract.sol\":3864:3886  PostStructure[] memory */\n      0x60\n        /* \"PostNewsContract.sol\":3911:3921  postOfUser */\n      0x03\n        /* \"PostNewsContract.sol\":3911:3935  postOfUser[_userAddress] */\n      0x00\n        /* \"PostNewsContract.sol\":3922:3934  _userAddress */\n      dup4\n        /* \"PostNewsContract.sol\":3911:3935  postOfUser[_userAddress] */\n      0xffffffffffffffffffffffffffffffffffffffff\n      and\n      0xffffffffffffffffffffffffffffffffffffffff\n      and\n      dup2\n      mstore\n      0x20\n      add\n      swap1\n      dup2\n      mstore\n      0x20\n      add\n      0x00\n      keccak256\n        /* \"PostNewsContract.sol\":3904:3935  return postOfUser[_userAddress] */\n      dup1\n      sload\n      dup1\n      0x20\n      mul\n      0x20\n      add\n      mload(0x40)\n      swap1\n      dup2\n      add\n      0x40\n      mstore\n      dup1\n      swap3\n      swap2\n      swap1\n      dup2\n      dup2\n      mstore\n      0x20\n      add\n      0x00\n      swap1\n    tag_47:\n      dup3\n      dup3\n      lt\n      iszero\n      tag_48\n      jumpi\n      dup4\n      dup3\n      swap1\n      0x00\n      mstore\n      keccak256(0x00, 0x20)\n      swap1\n      0x02\n      mul\n      add\n      mload(0x40)\n      dup1\n      0x60\n      add\n      0x40\n      mstore\n      swap1\n      dup2\n      0x00\n      dup3\n      add\n      dup1\n      sload\n      tag_50\n      swap1\n      tag_32\n      jump\t// in\n    tag_50:\n      dup1\n      0x1f\n      add\n      0x20\n      dup1\n      swap2\n      div\n      mul\n      0x20\n      add\n      mload(0x40)\n      swap1\n      dup2\n      add\n      0x40\n      mstore\n      dup1\n      swap3\n      swap2\n      swap1\n      dup2\n      dup2\n      mstore\n      0x20\n      add\n      dup3\n      dup1\n      sload\n      tag_51\n      swap1\n      tag_32\n      jump\t// in\n    tag_51:\n      dup1\n      iszero\n      tag_52\n      jumpi\n      dup1\n      0x1f\n      lt\n      tag_53\n      jumpi\n      0x0100\n      dup1\n      dup4\n      sload\n      div\n      mul\n      dup4\n      mstore\n      swap2\n      0x20\n      add\n      swap2\n      jump(tag_52)\n    tag_53:\n      dup3\n      add\n      swap2\n      swap1\n      0x00\n      mstore\n      keccak256(0x00, 0x20)\n      swap1\n    tag_54:\n      dup2\n      sload\n      dup2\n      mstore\n      swap1\n      0x01\n      add\n      swap1\n      0x20\n      add\n      dup1\n      dup4\n      gt\n      tag_54\n      jumpi\n      dup3\n      swap1\n      sub\n      0x1f\n      and\n      dup3\n      add\n      swap2\n    tag_52:\n      pop\n      pop\n      pop\n      pop\n      pop\n      dup2\n      mstore\n      0x20\n      add\n      0x01\n      dup3\n      add\n      0x00\n      swap1\n      sload\n      swap1\n      0x0100\n      exp\n      swap1\n      div\n      0xffffffffffffffffffffffffffffffffffffffff\n      and\n      0xffffffffffffffffffffffffffffffffffffffff\n      and\n      0xffffffffffffffffffffffffffffffffffffffff\n      and\n      dup2\n      mstore\n      0x20\n      add\n      0x01\n      dup3\n      add\n      0x14\n      swap1\n      sload\n      swap1\n      0x0100\n      exp\n      swap1\n      div\n      0xff\n      and\n      iszero\n      iszero\n      iszero\n      iszero\n      dup2\n      mstore\n      pop\n      pop\n      dup2\n      mstore\n      0x20\n      add\n      swap1\n      0x01\n      add\n      swap1\n      jump(tag_47)\n    tag_48:\n      pop\n      pop\n      pop\n      pop\n      swap1\n      pop\n        /* \"PostNewsContract.sol\":3770:3943  function getPostsByUser(address _userAddress)... */\n      swap2\n      swap1\n      pop\n      jump\t// out\n        /* \"PostNewsContract.sol\":1100:2824  function postNews(... */\n    tag_21:\n        /* \"PostNewsContract.sol\":1563:1572  _postHash */\n      dup3\n        /* \"PostNewsContract.sol\":1537:1551  instanceOfPost */\n      0x00\n        /* \"PostNewsContract.sol\":1537:1560  instanceOfPost.postHash */\n      dup1\n      add\n        /* \"PostNewsContract.sol\":1537:1572  instanceOfPost.postHash = _postHash */\n      swap1\n      dup2\n      tag_56\n      swap2\n      swap1\n      tag_57\n      jump\t// in\n    tag_56:\n      pop\n        /* \"PostNewsContract.sol\":1612:1624  _postCreator */\n      dup2\n        /* \"PostNewsContract.sol\":1583:1597  instanceOfPost */\n      0x00\n        /* \"PostNewsContract.sol\":1583:1609  instanceOfPost.postCreator */\n      0x01\n      add\n      0x00\n        /* \"PostNewsContract.sol\":1583:1624  instanceOfPost.postCreator = _postCreator */\n      0x0100\n      exp\n      dup2\n      sload\n      dup2\n      0xffffffffffffffffffffffffffffffffffffffff\n      mul\n      not\n      and\n      swap1\n      dup4\n      0xffffffffffffffffffffffffffffffffffffffff\n      and\n      mul\n      or\n      swap1\n      sstore\n      pop\n        /* \"PostNewsContract.sol\":1715:1725  _isRequest */\n      dup1\n        /* \"PostNewsContract.sol\":1688:1702  instanceOfPost */\n      0x00\n        /* \"PostNewsContract.sol\":1688:1712  instanceOfPost.isRequest */\n      0x01\n      add\n      0x14\n        /* \"PostNewsContract.sol\":1688:1725  instanceOfPost.isRequest = _isRequest */\n      0x0100\n      exp\n      dup2\n      sload\n      dup2\n      0xff\n      mul\n      not\n      and\n      swap1\n      dup4\n      iszero\n      iszero\n      mul\n      or\n      swap1\n      sstore\n      pop\n        /* \"PostNewsContract.sol\":1798:1802  true */\n      0x01\n        /* \"PostNewsContract.sol\":1784:1802  _isRequest != true */\n      iszero\n      iszero\n        /* \"PostNewsContract.sol\":1784:1794  _isRequest */\n      dup2\n        /* \"PostNewsContract.sol\":1784:1802  _isRequest != true */\n      iszero\n      iszero\n      eq\n        /* \"PostNewsContract.sol\":1780:2817  if (_isRequest != true) {... */\n      tag_58\n      jumpi\n        /* \"PostNewsContract.sol\":1873:1884  allThePosts */\n      0x02\n        /* \"PostNewsContract.sol\":1890:1904  instanceOfPost */\n      0x00\n        /* \"PostNewsContract.sol\":1873:1905  allThePosts.push(instanceOfPost) */\n      swap1\n      dup1\n      0x01\n      dup2\n      sload\n      add\n      dup1\n      dup3\n      sstore\n      dup1\n      swap2\n      pop\n      pop\n      0x01\n      swap1\n      sub\n      swap1\n      0x00\n      mstore\n      keccak256(0x00, 0x20)\n      swap1\n      0x02\n      mul\n      add\n      0x00\n      swap1\n      swap2\n      swap1\n      swap2\n      swap1\n      swap2\n      pop\n      0x00\n      dup3\n      add\n      dup2\n      0x00\n      add\n      swap1\n      dup2\n      tag_60\n      swap2\n      swap1\n      tag_61\n      jump\t// in\n    tag_60:\n      pop\n      0x01\n      dup3\n      add\n      0x00\n      swap1\n      sload\n      swap1\n      0x0100\n      exp\n      swap1\n      div\n      0xffffffffffffffffffffffffffffffffffffffff\n      and\n      dup2\n      0x01\n      add\n      exp(0x0100, 0x00)\n      dup2\n      sload\n      dup2\n      0xffffffffffffffffffffffffffffffffffffffff\n      mul\n      not\n      and\n      swap1\n      dup4\n      0xffffffffffffffffffffffffffffffffffffffff\n      and\n      mul\n      or\n      swap1\n      sstore\n      pop\n      0x01\n      dup3\n      add\n      0x14\n      swap1\n      sload\n      swap1\n      0x0100\n      exp\n      swap1\n      div\n      0xff\n      and\n      dup2\n      0x01\n      add\n      exp(0x0100, 0x14)\n      dup2\n      sload\n      dup2\n      0xff\n      mul\n      not\n      and\n      swap1\n      dup4\n      iszero\n      iszero\n      mul\n      or\n      swap1\n      sstore\n      pop\n      pop\n      pop\n        /* \"PostNewsContract.sol\":1998:2008  postOfUser */\n      0x03\n        /* \"PostNewsContract.sol\":1998:2022  postOfUser[_postCreator] */\n      0x00\n        /* \"PostNewsContract.sol\":2009:2021  _postCreator */\n      dup4\n        /* \"PostNewsContract.sol\":1998:2022  postOfUser[_postCreator] */\n      0xffffffffffffffffffffffffffffffffffffffff\n      and\n      0xffffffffffffffffffffffffffffffffffffffff\n      and\n      dup2\n      mstore\n      0x20\n      add\n      swap1\n      dup2\n      mstore\n      0x20\n      add\n      0x00\n      keccak256\n        /* \"PostNewsContract.sol\":2028:2042  instanceOfPost */\n      0x00\n        /* \"PostNewsContract.sol\":1998:2043  postOfUser[_postCreator].push(instanceOfPost) */\n      swap1\n      dup1\n      0x01\n      dup2\n      sload\n      add\n      dup1\n      dup3\n      sstore\n      dup1\n      swap2\n      pop\n      pop\n      0x01\n      swap1\n      sub\n      swap1\n      0x00\n      mstore\n      keccak256(0x00, 0x20)\n      swap1\n      0x02\n      mul\n      add\n      0x00\n      swap1\n      swap2\n      swap1\n      swap2\n      swap1\n      swap2\n      pop\n      0x00\n      dup3\n      add\n      dup2\n      0x00\n      add\n      swap1\n      dup2\n      tag_63\n      swap2\n      swap1\n      tag_61\n      jump\t// in\n    tag_63:\n      pop\n      0x01\n      dup3\n      add\n      0x00\n      swap1\n      sload\n      swap1\n      0x0100\n      exp\n      swap1\n      div\n      0xffffffffffffffffffffffffffffffffffffffff\n      and\n      dup2\n      0x01\n      add\n      exp(0x0100, 0x00)\n      dup2\n      sload\n      dup2\n      0xffffffffffffffffffffffffffffffffffffffff\n      mul\n      not\n      and\n      swap1\n      dup4\n      0xffffffffffffffffffffffffffffffffffffffff\n      and\n      mul\n      or\n      swap1\n      sstore\n      pop\n      0x01\n      dup3\n      add\n      0x14\n      swap1\n      sload\n      swap1\n      0x0100\n      exp\n      swap1\n      div\n      0xff\n      and\n      dup2\n      0x01\n      add\n      exp(0x0100, 0x14)\n      dup2\n      sload\n      dup2\n      0xff\n      mul\n      not\n      and\n      swap1\n      dup4\n      iszero\n      iszero\n      mul\n      or\n      swap1\n      sstore\n      pop\n      pop\n      pop\n        /* \"PostNewsContract.sol\":2138:2152  instanceOfPost */\n      0x00\n        /* \"PostNewsContract.sol\":2105:2116  postFromIdx */\n      0x06\n        /* \"PostNewsContract.sol\":2105:2135  postFromIdx[approvedPostIndex] */\n      0x00\n        /* \"PostNewsContract.sol\":2117:2134  approvedPostIndex */\n      sload(0x08)\n        /* \"PostNewsContract.sol\":2105:2135  postFromIdx[approvedPostIndex] */\n      dup2\n      mstore\n      0x20\n      add\n      swap1\n      dup2\n      mstore\n      0x20\n      add\n      0x00\n      keccak256\n        /* \"PostNewsContract.sol\":2105:2152  postFromIdx[approvedPostIndex] = instanceOfPost */\n      0x00\n      dup3\n      add\n      dup2\n      0x00\n      add\n      swap1\n      dup2\n      tag_64\n      swap2\n      swap1\n      tag_61\n      jump\t// in\n    tag_64:\n      pop\n      0x01\n      dup3\n      add\n      0x00\n      swap1\n      sload\n      swap1\n      0x0100\n      exp\n      swap1\n      div\n      0xffffffffffffffffffffffffffffffffffffffff\n      and\n      dup2\n      0x01\n      add\n      exp(0x0100, 0x00)\n      dup2\n      sload\n      dup2\n      0xffffffffffffffffffffffffffffffffffffffff\n      mul\n      not\n      and\n      swap1\n      dup4\n      0xffffffffffffffffffffffffffffffffffffffff\n      and\n      mul\n      or\n      swap1\n      sstore\n      pop\n      0x01\n      dup3\n      add\n      0x14\n      swap1\n      sload\n      swap1\n      0x0100\n      exp\n      swap1\n      div\n      0xff\n      and\n      dup2\n      0x01\n      add\n      exp(0x0100, 0x14)\n      dup2\n      sload\n      dup2\n      0xff\n      mul\n      not\n      and\n      swap1\n      dup4\n      iszero\n      iszero\n      mul\n      or\n      swap1\n      sstore\n      pop\n      swap1\n      pop\n      pop\n        /* \"PostNewsContract.sol\":2228:2245  approvedPostIndex */\n      0x08\n      0x00\n        /* \"PostNewsContract.sol\":2228:2247  approvedPostIndex++ */\n      dup2\n      sload\n      dup1\n      swap3\n      swap2\n      swap1\n      tag_65\n      swap1\n      tag_66\n      jump\t// in\n    tag_65:\n      swap2\n      swap1\n      pop\n      sstore\n      pop\n        /* \"PostNewsContract.sol\":1780:2817  if (_isRequest != true) {... */\n      jump(tag_67)\n    tag_58:\n        /* \"PostNewsContract.sol\":2392:2412  allTheRequestedPosts */\n      0x04\n        /* \"PostNewsContract.sol\":2418:2432  instanceOfPost */\n      0x00\n        /* \"PostNewsContract.sol\":2392:2433  allTheRequestedPosts.push(instanceOfPost) */\n      swap1\n      dup1\n      0x01\n      dup2\n      sload\n      add\n      dup1\n      dup3\n      sstore\n      dup1\n      swap2\n      pop\n      pop\n      0x01\n      swap1\n      sub\n      swap1\n      0x00\n      mstore\n      keccak256(0x00, 0x20)\n      swap1\n      0x02\n      mul\n      add\n      0x00\n      swap1\n      swap2\n      swap1\n      swap2\n      swap1\n      swap2\n      pop\n      0x00\n      dup3\n      add\n      dup2\n      0x00\n      add\n      swap1\n      dup2\n      tag_69\n      swap2\n      swap1\n      tag_61\n      jump\t// in\n    tag_69:\n      pop\n      0x01\n      dup3\n      add\n      0x00\n      swap1\n      sload\n      swap1\n      0x0100\n      exp\n      swap1\n      div\n      0xffffffffffffffffffffffffffffffffffffffff\n      and\n      dup2\n      0x01\n      add\n      exp(0x0100, 0x00)\n      dup2\n      sload\n      dup2\n      0xffffffffffffffffffffffffffffffffffffffff\n      mul\n      not\n      and\n      swap1\n      dup4\n      0xffffffffffffffffffffffffffffffffffffffff\n      and\n      mul\n      or\n      swap1\n      sstore\n      pop\n      0x01\n      dup3\n      add\n      0x14\n      swap1\n      sload\n      swap1\n      0x0100\n      exp\n      swap1\n      div\n      0xff\n      and\n      dup2\n      0x01\n      add\n      exp(0x0100, 0x14)\n      dup2\n      sload\n      dup2\n      0xff\n      mul\n      not\n      and\n      swap1\n      dup4\n      iszero\n      iszero\n      mul\n      or\n      swap1\n      sstore\n      pop\n      pop\n      pop\n        /* \"PostNewsContract.sol\":2536:2556  postOfRequestingUser */\n      0x05\n        /* \"PostNewsContract.sol\":2536:2570  postOfRequestingUser[_postCreator] */\n      0x00\n        /* \"PostNewsContract.sol\":2557:2569  _postCreator */\n      dup4\n        /* \"PostNewsContract.sol\":2536:2570  postOfRequestingUser[_postCreator] */\n      0xffffffffffffffffffffffffffffffffffffffff\n      and\n      0xffffffffffffffffffffffffffffffffffffffff\n      and\n      dup2\n      mstore\n      0x20\n      add\n      swap1\n      dup2\n      mstore\n      0x20\n      add\n      0x00\n      keccak256\n        /* \"PostNewsContract.sol\":2576:2590  instanceOfPost */\n      0x00\n        /* \"PostNewsContract.sol\":2536:2591  postOfRequestingUser[_postCreator].push(instanceOfPost) */\n      swap1\n      dup1\n      0x01\n      dup2\n      sload\n      add\n      dup1\n      dup3\n      sstore\n      dup1\n      swap2\n      pop\n      pop\n      0x01\n      swap1\n      sub\n      swap1\n      0x00\n      mstore\n      keccak256(0x00, 0x20)\n      swap1\n      0x02\n      mul\n      add\n      0x00\n      swap1\n      swap2\n      swap1\n      swap2\n      swap1\n      swap2\n      pop\n      0x00\n      dup3\n      add\n      dup2\n      0x00\n      add\n      swap1\n      dup2\n      tag_71\n      swap2\n      swap1\n      tag_61\n      jump\t// in\n    tag_71:\n      pop\n      0x01\n      dup3\n      add\n      0x00\n      swap1\n      sload\n      swap1\n      0x0100\n      exp\n      swap1\n      div\n      0xffffffffffffffffffffffffffffffffffffffff\n      and\n      dup2\n      0x01\n      add\n      exp(0x0100, 0x00)\n      dup2\n      sload\n      dup2\n      0xffffffffffffffffffffffffffffffffffffffff\n      mul\n      not\n      and\n      swap1\n      dup4\n      0xffffffffffffffffffffffffffffffffffffffff\n      and\n      mul\n      or\n      swap1\n      sstore\n      pop\n      0x01\n      dup3\n      add\n      0x14\n      swap1\n      sload\n      swap1\n      0x0100\n      exp\n      swap1\n      div\n      0xff\n      and\n      dup2\n      0x01\n      add\n      exp(0x0100, 0x14)\n      dup2\n      sload\n      dup2\n      0xff\n      mul\n      not\n      and\n      swap1\n      dup4\n      iszero\n      iszero\n      mul\n      or\n      swap1\n      sstore\n      pop\n      pop\n      pop\n        /* \"PostNewsContract.sol\":2695:2709  instanceOfPost */\n      0x00\n        /* \"PostNewsContract.sol\":2663:2674  postFromIdx */\n      0x06\n        /* \"PostNewsContract.sol\":2663:2692  postFromIdx[requestPostIndex] */\n      0x00\n        /* \"PostNewsContract.sol\":2675:2691  requestPostIndex */\n      sload(0x07)\n        /* \"PostNewsContract.sol\":2663:2692  postFromIdx[requestPostIndex] */\n      dup2\n      mstore\n      0x20\n      add\n      swap1\n      dup2\n      mstore\n      0x20\n      add\n      0x00\n      keccak256\n        /* \"PostNewsContract.sol\":2663:2709  postFromIdx[requestPostIndex] = instanceOfPost */\n      0x00\n      dup3\n      add\n      dup2\n      0x00\n      add\n      swap1\n      dup2\n      tag_72\n      swap2\n      swap1\n      tag_61\n      jump\t// in\n    tag_72:\n      pop\n      0x01\n      dup3\n      add\n      0x00\n      swap1\n      sload\n      swap1\n      0x0100\n      exp\n      swap1\n      div\n      0xffffffffffffffffffffffffffffffffffffffff\n      and\n      dup2\n      0x01\n      add\n      exp(0x0100, 0x00)\n      dup2\n      sload\n      dup2\n      0xffffffffffffffffffffffffffffffffffffffff\n      mul\n      not\n      and\n      swap1\n      dup4\n      0xffffffffffffffffffffffffffffffffffffffff\n      and\n      mul\n      or\n      swap1\n      sstore\n      pop\n      0x01\n      dup3\n      add\n      0x14\n      swap1\n      sload\n      swap1\n      0x0100\n      exp\n      swap1\n      div\n      0xff\n      and\n      dup2\n      0x01\n      add\n      exp(0x0100, 0x14)\n      dup2\n      sload\n      dup2\n      0xff\n      mul\n      not\n      and\n      swap1\n      dup4\n      iszero\n      iszero\n      mul\n      or\n      swap1\n      sstore\n      pop\n      swap1\n      pop\n      pop\n        /* \"PostNewsContract.sol\":2787:2803  requestPostIndex */\n      0x07\n      0x00\n        /* \"PostNewsContract.sol\":2787:2805  requestPostIndex++ */\n      dup2\n      sload\n      dup1\n      swap3\n      swap2\n      swap1\n      tag_73\n      swap1\n      tag_66\n      jump\t// in\n    tag_73:\n      swap2\n      swap1\n      pop\n      sstore\n      pop\n        /* \"PostNewsContract.sol\":1780:2817  if (_isRequest != true) {... */\n    tag_67:\n        /* \"PostNewsContract.sol\":1100:2824  function postNews(... */\n      pop\n      pop\n      pop\n      jump\t// out\n        /* \"PostNewsContract.sol\":3132:3762  function approvePost(uint256 postIdx) public {... */\n    tag_25:\n        /* \"PostNewsContract.sol\":3214:3239  PostStructure memory post */\n      0x00\n        /* \"PostNewsContract.sol\":3242:3262  allTheRequestedPosts */\n      0x04\n        /* \"PostNewsContract.sol\":3263:3270  postIdx */\n      dup3\n        /* \"PostNewsContract.sol\":3242:3271  allTheRequestedPosts[postIdx] */\n      dup2\n      sload\n      dup2\n      lt\n      tag_75\n      jumpi\n      tag_76\n      tag_77\n      jump\t// in\n    tag_76:\n    tag_75:\n      swap1\n      0x00\n      mstore\n      keccak256(0x00, 0x20)\n      swap1\n      0x02\n      mul\n      add\n        /* \"PostNewsContract.sol\":3214:3271  PostStructure memory post = allTheRequestedPosts[postIdx] */\n      mload(0x40)\n      dup1\n      0x60\n      add\n      0x40\n      mstore\n      swap1\n      dup2\n      0x00\n      dup3\n      add\n      dup1\n      sload\n      tag_79\n      swap1\n      tag_32\n      jump\t// in\n    tag_79:\n      dup1\n      0x1f\n      add\n      0x20\n      dup1\n      swap2\n      div\n      mul\n      0x20\n      add\n      mload(0x40)\n      swap1\n      dup2\n      add\n      0x40\n      mstore\n      dup1\n      swap3\n      swap2\n      swap1\n      dup2\n      dup2\n      mstore\n      0x20\n      add\n      dup3\n      dup1\n      sload\n      tag_80\n      swap1\n      tag_32\n      jump\t// in\n    tag_80:\n      dup1\n      iszero\n      tag_81\n      jumpi\n      dup1\n      0x1f\n      lt\n      tag_82\n      jumpi\n      0x0100\n      dup1\n      dup4\n      sload\n      div\n      mul\n      dup4\n      mstore\n      swap2\n      0x20\n      add\n      swap2\n      jump(tag_81)\n    tag_82:\n      dup3\n      add\n      swap2\n      swap1\n      0x00\n      mstore\n      keccak256(0x00, 0x20)\n      swap1\n    tag_83:\n      dup2\n      sload\n      dup2\n      mstore\n      swap1\n      0x01\n      add\n      swap1\n      0x20\n      add\n      dup1\n      dup4\n      gt\n      tag_83\n      jumpi\n      dup3\n      swap1\n      sub\n      0x1f\n      and\n      dup3\n      add\n      swap2\n    tag_81:\n      pop\n      pop\n      pop\n      pop\n      pop\n      dup2\n      mstore\n      0x20\n      add\n      0x01\n      dup3\n      add\n      0x00\n      swap1\n      sload\n      swap1\n      0x0100\n      exp\n      swap1\n      div\n      0xffffffffffffffffffffffffffffffffffffffff\n      and\n      0xffffffffffffffffffffffffffffffffffffffff\n      and\n      0xffffffffffffffffffffffffffffffffffffffff\n      and\n      dup2\n      mstore\n      0x20\n      add\n      0x01\n      dup3\n      add\n      0x14\n      swap1\n      sload\n      swap1\n      0x0100\n      exp\n      swap1\n      div\n      0xff\n      and\n      iszero\n      iszero\n      iszero\n      iszero\n      dup2\n      mstore\n      pop\n      pop\n      swap1\n      pop\n        /* \"PostNewsContract.sol\":3345:3350  false */\n      0x00\n        /* \"PostNewsContract.sol\":3328:3332  post */\n      dup2\n        /* \"PostNewsContract.sol\":3328:3342  post.isRequest */\n      0x40\n      add\n        /* \"PostNewsContract.sol\":3328:3350  post.isRequest = false */\n      swap1\n      iszero\n      iszero\n      swap1\n      dup2\n      iszero\n      iszero\n      dup2\n      mstore\n      pop\n      pop\n        /* \"PostNewsContract.sol\":3400:3411  allThePosts */\n      0x02\n        /* \"PostNewsContract.sol\":3417:3421  post */\n      dup2\n        /* \"PostNewsContract.sol\":3400:3422  allThePosts.push(post) */\n      swap1\n      dup1\n      0x01\n      dup2\n      sload\n      add\n      dup1\n      dup3\n      sstore\n      dup1\n      swap2\n      pop\n      pop\n      0x01\n      swap1\n      sub\n      swap1\n      0x00\n      mstore\n      keccak256(0x00, 0x20)\n      swap1\n      0x02\n      mul\n      add\n      0x00\n      swap1\n      swap2\n      swap1\n      swap2\n      swap1\n      swap2\n      pop\n      0x00\n      dup3\n      add\n      mload\n      dup2\n      0x00\n      add\n      swap1\n      dup2\n      tag_85\n      swap2\n      swap1\n      tag_57\n      jump\t// in\n    tag_85:\n      pop\n      0x20\n      dup3\n      add\n      mload\n      dup2\n      0x01\n      add\n      exp(0x0100, 0x00)\n      dup2\n      sload\n      dup2\n      0xffffffffffffffffffffffffffffffffffffffff\n      mul\n      not\n      and\n      swap1\n      dup4\n      0xffffffffffffffffffffffffffffffffffffffff\n      and\n      mul\n      or\n      swap1\n      sstore\n      pop\n      0x40\n      dup3\n      add\n      mload\n      dup2\n      0x01\n      add\n      exp(0x0100, 0x14)\n      dup2\n      sload\n      dup2\n      0xff\n      mul\n      not\n      and\n      swap1\n      dup4\n      iszero\n      iszero\n      mul\n      or\n      swap1\n      sstore\n      pop\n      pop\n      pop\n        /* \"PostNewsContract.sol\":3433:3450  approvedPostIndex */\n      0x08\n      0x00\n        /* \"PostNewsContract.sol\":3433:3452  approvedPostIndex++ */\n      dup2\n      sload\n      dup1\n      swap3\n      swap2\n      swap1\n      tag_86\n      swap1\n      tag_66\n      jump\t// in\n    tag_86:\n      swap2\n      swap1\n      pop\n      sstore\n      pop\n        /* \"PostNewsContract.sol\":3511:3521  postOfUser */\n      0x03\n        /* \"PostNewsContract.sol\":3511:3539  postOfUser[post.postCreator] */\n      0x00\n        /* \"PostNewsContract.sol\":3522:3526  post */\n      dup3\n        /* \"PostNewsContract.sol\":3522:3538  post.postCreator */\n      0x20\n      add\n      mload\n        /* \"PostNewsContract.sol\":3511:3539  postOfUser[post.postCreator] */\n      0xffffffffffffffffffffffffffffffffffffffff\n      and\n      0xffffffffffffffffffffffffffffffffffffffff\n      and\n      dup2\n      mstore\n      0x20\n      add\n      swap1\n      dup2\n      mstore\n      0x20\n      add\n      0x00\n      keccak256\n        /* \"PostNewsContract.sol\":3545:3549  post */\n      dup2\n        /* \"PostNewsContract.sol\":3511:3550  postOfUser[post.postCreator].push(post) */\n      swap1\n      dup1\n      0x01\n      dup2\n      sload\n      add\n      dup1\n      dup3\n      sstore\n      dup1\n      swap2\n      pop\n      pop\n      0x01\n      swap1\n      sub\n      swap1\n      0x00\n      mstore\n      keccak256(0x00, 0x20)\n      swap1\n      0x02\n      mul\n      add\n      0x00\n      swap1\n      swap2\n      swap1\n      swap2\n      swap1\n      swap2\n      pop\n      0x00\n      dup3\n      add\n      mload\n      dup2\n      0x00\n      add\n      swap1\n      dup2\n      tag_88\n      swap2\n      swap1\n      tag_57\n      jump\t// in\n    tag_88:\n      pop\n      0x20\n      dup3\n      add\n      mload\n      dup2\n      0x01\n      add\n      exp(0x0100, 0x00)\n      dup2\n      sload\n      dup2\n      0xffffffffffffffffffffffffffffffffffffffff\n      mul\n      not\n      and\n      swap1\n      dup4\n      0xffffffffffffffffffffffffffffffffffffffff\n      and\n      mul\n      or\n      swap1\n      sstore\n      pop\n      0x40\n      dup3\n      add\n      mload\n      dup2\n      0x01\n      add\n      exp(0x0100, 0x14)\n      dup2\n      sload\n      dup2\n      0xff\n      mul\n      not\n      and\n      swap1\n      dup4\n      iszero\n      iszero\n      mul\n      or\n      swap1\n      sstore\n      pop\n      pop\n      pop\n        /* \"PostNewsContract.sol\":3640:3660  allTheRequestedPosts */\n      0x04\n        /* \"PostNewsContract.sol\":3705:3706  1 */\n      0x01\n        /* \"PostNewsContract.sol\":3675:3695  allTheRequestedPosts */\n      0x04\n        /* \"PostNewsContract.sol\":3675:3702  allTheRequestedPosts.length */\n      dup1\n      sload\n      swap1\n      pop\n        /* \"PostNewsContract.sol\":3675:3706  allTheRequestedPosts.length - 1 */\n      tag_89\n      swap2\n      swap1\n      tag_90\n      jump\t// in\n    tag_89:\n        /* \"PostNewsContract.sol\":3640:3717  allTheRequestedPosts[... */\n      dup2\n      sload\n      dup2\n      lt\n      tag_91\n      jumpi\n      tag_92\n      tag_77\n      jump\t// in\n    tag_92:\n    tag_91:\n      swap1\n      0x00\n      mstore\n      keccak256(0x00, 0x20)\n      swap1\n      0x02\n      mul\n      add\n        /* \"PostNewsContract.sol\":3608:3628  allTheRequestedPosts */\n      0x04\n        /* \"PostNewsContract.sol\":3629:3636  postIdx */\n      dup4\n        /* \"PostNewsContract.sol\":3608:3637  allTheRequestedPosts[postIdx] */\n      dup2\n      sload\n      dup2\n      lt\n      tag_94\n      jumpi\n      tag_95\n      tag_77\n      jump\t// in\n    tag_95:\n    tag_94:\n      swap1\n      0x00\n      mstore\n      keccak256(0x00, 0x20)\n      swap1\n      0x02\n      mul\n      add\n        /* \"PostNewsContract.sol\":3608:3717  allTheRequestedPosts[postIdx] = allTheRequestedPosts[... */\n      0x00\n      dup3\n      add\n      dup2\n      0x00\n      add\n      swap1\n      dup2\n      tag_97\n      swap2\n      swap1\n      tag_61\n      jump\t// in\n    tag_97:\n      pop\n      0x01\n      dup3\n      add\n      0x00\n      swap1\n      sload\n      swap1\n      0x0100\n      exp\n      swap1\n      div\n      0xffffffffffffffffffffffffffffffffffffffff\n      and\n      dup2\n      0x01\n      add\n      exp(0x0100, 0x00)\n      dup2\n      sload\n      dup2\n      0xffffffffffffffffffffffffffffffffffffffff\n      mul\n      not\n      and\n      swap1\n      dup4\n      0xffffffffffffffffffffffffffffffffffffffff\n      and\n      mul\n      or\n      swap1\n      sstore\n      pop\n      0x01\n      dup3\n      add\n      0x14\n      swap1\n      sload\n      swap1\n      0x0100\n      exp\n      swap1\n      div\n      0xff\n      and\n      dup2\n      0x01\n      add\n      exp(0x0100, 0x14)\n      dup2\n      sload\n      dup2\n      0xff\n      mul\n      not\n      and\n      swap1\n      dup4\n      iszero\n      iszero\n      mul\n      or\n      swap1\n      sstore\n      pop\n      swap1\n      pop\n      pop\n        /* \"PostNewsContract.sol\":3728:3748  allTheRequestedPosts */\n      0x04\n        /* \"PostNewsContract.sol\":3728:3754  allTheRequestedPosts.pop() */\n      dup1\n      sload\n      dup1\n      tag_98\n      jumpi\n      tag_99\n      tag_100\n      jump\t// in\n    tag_99:\n    tag_98:\n      0x01\n      swap1\n      sub\n      dup2\n      dup2\n      swap1\n      0x00\n      mstore\n      keccak256(0x00, 0x20)\n      swap1\n      0x02\n      mul\n      add\n      0x00\n      dup1\n      dup3\n      add\n      0x00\n      tag_102\n      swap2\n      swap1\n      tag_103\n      jump\t// in\n    tag_102:\n      0x01\n      dup3\n      add\n      exp(0x0100, 0x00)\n      dup2\n      sload\n      swap1\n      0xffffffffffffffffffffffffffffffffffffffff\n      mul\n      not\n      and\n      swap1\n      sstore\n      0x01\n      dup3\n      add\n      exp(0x0100, 0x14)\n      dup2\n      sload\n      swap1\n      0xff\n      mul\n      not\n      and\n      swap1\n      sstore\n      pop\n      pop\n      swap1\n      sstore\n        /* \"PostNewsContract.sol\":3177:3762  {... */\n      pop\n        /* \"PostNewsContract.sol\":3132:3762  function approvePost(uint256 postIdx) public {... */\n      pop\n      jump\t// out\n    tag_103:\n      pop\n      dup1\n      sload\n      tag_104\n      swap1\n      tag_32\n      jump\t// in\n    tag_104:\n      0x00\n      dup3\n      sstore\n      dup1\n      0x1f\n      lt\n      tag_106\n      jumpi\n      pop\n      jump(tag_105)\n    tag_106:\n      0x1f\n      add\n      0x20\n      swap1\n      div\n      swap1\n      0x00\n      mstore\n      keccak256(0x00, 0x20)\n      swap1\n      dup2\n      add\n      swap1\n      tag_107\n      swap2\n      swap1\n      tag_108\n      jump\t// in\n    tag_107:\n    tag_105:\n      pop\n      jump\t// out\n    tag_108:\n    tag_109:\n      dup1\n      dup3\n      gt\n      iszero\n      tag_110\n      jumpi\n      0x00\n      dup2\n      0x00\n      swap1\n      sstore\n      pop\n      0x01\n      add\n      jump(tag_109)\n    tag_110:\n      pop\n      swap1\n      jump\t// out\n        /* \"#utility.yul\":7:82   */\n    tag_111:\n        /* \"#utility.yul\":40:46   */\n      0x00\n        /* \"#utility.yul\":73:75   */\n      0x40\n        /* \"#utility.yul\":67:76   */\n      mload\n        /* \"#utility.yul\":57:76   */\n      swap1\n      pop\n        /* \"#utility.yul\":7:82   */\n      swap1\n      jump\t// out\n        /* \"#utility.yul\":88:205   */\n    tag_112:\n        /* \"#utility.yul\":197:198   */\n      0x00\n        /* \"#utility.yul\":194:195   */\n      dup1\n        /* \"#utility.yul\":187:199   */\n      revert\n        /* \"#utility.yul\":211:328   */\n    tag_113:\n        /* \"#utility.yul\":320:321   */\n      0x00\n        /* \"#utility.yul\":317:318   */\n      dup1\n        /* \"#utility.yul\":310:322   */\n      revert\n        /* \"#utility.yul\":334:424   */\n    tag_114:\n        /* \"#utility.yul\":368:375   */\n      0x00\n        /* \"#utility.yul\":411:416   */\n      dup2\n        /* \"#utility.yul\":404:417   */\n      iszero\n        /* \"#utility.yul\":397:418   */\n      iszero\n        /* \"#utility.yul\":386:418   */\n      swap1\n      pop\n        /* \"#utility.yul\":334:424   */\n      swap2\n      swap1\n      pop\n      jump\t// out\n        /* \"#utility.yul\":430:546   */\n    tag_115:\n        /* \"#utility.yul\":500:521   */\n      tag_171\n        /* \"#utility.yul\":515:520   */\n      dup2\n        /* \"#utility.yul\":500:521   */\n      tag_114\n      jump\t// in\n    tag_171:\n        /* \"#utility.yul\":493:498   */\n      dup2\n        /* \"#utility.yul\":490:522   */\n      eq\n        /* \"#utility.yul\":480:540   */\n      tag_172\n      jumpi\n        /* \"#utility.yul\":536:537   */\n      0x00\n        /* \"#utility.yul\":533:534   */\n      dup1\n        /* \"#utility.yul\":526:538   */\n      revert\n        /* \"#utility.yul\":480:540   */\n    tag_172:\n        /* \"#utility.yul\":430:546   */\n      pop\n      jump\t// out\n        /* \"#utility.yul\":552:685   */\n    tag_116:\n        /* \"#utility.yul\":595:600   */\n      0x00\n        /* \"#utility.yul\":633:639   */\n      dup2\n        /* \"#utility.yul\":620:640   */\n      calldataload\n        /* \"#utility.yul\":611:640   */\n      swap1\n      pop\n        /* \"#utility.yul\":649:679   */\n      tag_174\n        /* \"#utility.yul\":673:678   */\n      dup2\n        /* \"#utility.yul\":649:679   */\n      tag_115\n      jump\t// in\n    tag_174:\n        /* \"#utility.yul\":552:685   */\n      swap3\n      swap2\n      pop\n      pop\n      jump\t// out\n        /* \"#utility.yul\":691:1014   */\n    tag_9:\n        /* \"#utility.yul\":747:753   */\n      0x00\n        /* \"#utility.yul\":796:798   */\n      0x20\n        /* \"#utility.yul\":784:793   */\n      dup3\n        /* \"#utility.yul\":775:782   */\n      dup5\n        /* \"#utility.yul\":771:794   */\n      sub\n        /* \"#utility.yul\":767:799   */\n      slt\n        /* \"#utility.yul\":764:883   */\n      iszero\n      tag_176\n      jumpi\n        /* \"#utility.yul\":802:881   */\n      tag_177\n      tag_112\n      jump\t// in\n    tag_177:\n        /* \"#utility.yul\":764:883   */\n    tag_176:\n        /* \"#utility.yul\":922:923   */\n      0x00\n        /* \"#utility.yul\":947:997   */\n      tag_178\n        /* \"#utility.yul\":989:996   */\n      dup5\n        /* \"#utility.yul\":980:986   */\n      dup3\n        /* \"#utility.yul\":969:978   */\n      dup6\n        /* \"#utility.yul\":965:987   */\n      add\n        /* \"#utility.yul\":947:997   */\n      tag_116\n      jump\t// in\n    tag_178:\n        /* \"#utility.yul\":937:997   */\n      swap2\n      pop\n        /* \"#utility.yul\":893:1007   */\n      pop\n        /* \"#utility.yul\":691:1014   */\n      swap3\n      swap2\n      pop\n      pop\n      jump\t// out\n        /* \"#utility.yul\":1020:1162   */\n    tag_117:\n        /* \"#utility.yul\":1115:1121   */\n      0x00\n        /* \"#utility.yul\":1149:1154   */\n      dup2\n        /* \"#utility.yul\":1143:1155   */\n      mload\n        /* \"#utility.yul\":1133:1155   */\n      swap1\n      pop\n        /* \"#utility.yul\":1020:1162   */\n      swap2\n      swap1\n      pop\n      jump\t// out\n        /* \"#utility.yul\":1168:1380   */\n    tag_118:\n        /* \"#utility.yul\":1295:1306   */\n      0x00\n        /* \"#utility.yul\":1329:1335   */\n      dup3\n        /* \"#utility.yul\":1324:1327   */\n      dup3\n        /* \"#utility.yul\":1317:1336   */\n      mstore\n        /* \"#utility.yul\":1369:1373   */\n      0x20\n        /* \"#utility.yul\":1364:1367   */\n      dup3\n        /* \"#utility.yul\":1360:1374   */\n      add\n        /* \"#utility.yul\":1345:1374   */\n      swap1\n      pop\n        /* \"#utility.yul\":1168:1380   */\n      swap3\n      swap2\n      pop\n      pop\n      jump\t// out\n        /* \"#utility.yul\":1386:1546   */\n    tag_119:\n        /* \"#utility.yul\":1481:1485   */\n      0x00\n        /* \"#utility.yul\":1504:1507   */\n      dup2\n        /* \"#utility.yul\":1496:1507   */\n      swap1\n      pop\n        /* \"#utility.yul\":1534:1538   */\n      0x20\n        /* \"#utility.yul\":1529:1532   */\n      dup3\n        /* \"#utility.yul\":1525:1539   */\n      add\n        /* \"#utility.yul\":1517:1539   */\n      swap1\n      pop\n        /* \"#utility.yul\":1386:1546   */\n      swap2\n      swap1\n      pop\n      jump\t// out\n        /* \"#utility.yul\":1552:1651   */\n    tag_120:\n        /* \"#utility.yul\":1604:1610   */\n      0x00\n        /* \"#utility.yul\":1638:1643   */\n      dup2\n        /* \"#utility.yul\":1632:1644   */\n      mload\n        /* \"#utility.yul\":1622:1644   */\n      swap1\n      pop\n        /* \"#utility.yul\":1552:1651   */\n      swap2\n      swap1\n      pop\n      jump\t// out\n        /* \"#utility.yul\":1657:1816   */\n    tag_121:\n        /* \"#utility.yul\":1731:1742   */\n      0x00\n        /* \"#utility.yul\":1765:1771   */\n      dup3\n        /* \"#utility.yul\":1760:1763   */\n      dup3\n        /* \"#utility.yul\":1753:1772   */\n      mstore\n        /* \"#utility.yul\":1805:1809   */\n      0x20\n        /* \"#utility.yul\":1800:1803   */\n      dup3\n        /* \"#utility.yul\":1796:1810   */\n      add\n        /* \"#utility.yul\":1781:1810   */\n      swap1\n      pop\n        /* \"#utility.yul\":1657:1816   */\n      swap3\n      swap2\n      pop\n      pop\n      jump\t// out\n        /* \"#utility.yul\":1822:2068   */\n    tag_122:\n        /* \"#utility.yul\":1903:1904   */\n      0x00\n        /* \"#utility.yul\":1913:2026   */\n    tag_185:\n        /* \"#utility.yul\":1927:1933   */\n      dup4\n        /* \"#utility.yul\":1924:1925   */\n      dup2\n        /* \"#utility.yul\":1921:1934   */\n      lt\n        /* \"#utility.yul\":1913:2026   */\n      iszero\n      tag_187\n      jumpi\n        /* \"#utility.yul\":2012:2013   */\n      dup1\n        /* \"#utility.yul\":2007:2010   */\n      dup3\n        /* \"#utility.yul\":2003:2014   */\n      add\n        /* \"#utility.yul\":1997:2015   */\n      mload\n        /* \"#utility.yul\":1993:1994   */\n      dup2\n        /* \"#utility.yul\":1988:1991   */\n      dup5\n        /* \"#utility.yul\":1984:1995   */\n      add\n        /* \"#utility.yul\":1977:2016   */\n      mstore\n        /* \"#utility.yul\":1949:1951   */\n      0x20\n        /* \"#utility.yul\":1946:1947   */\n      dup2\n        /* \"#utility.yul\":1942:1952   */\n      add\n        /* \"#utility.yul\":1937:1952   */\n      swap1\n      pop\n        /* \"#utility.yul\":1913:2026   */\n      jump(tag_185)\n    tag_187:\n        /* \"#utility.yul\":2060:2061   */\n      0x00\n        /* \"#utility.yul\":2051:2057   */\n      dup5\n        /* \"#utility.yul\":2046:2049   */\n      dup5\n        /* \"#utility.yul\":2042:2058   */\n      add\n        /* \"#utility.yul\":2035:2062   */\n      mstore\n        /* \"#utility.yul\":1884:2068   */\n      pop\n        /* \"#utility.yul\":1822:2068   */\n      pop\n      pop\n      pop\n      jump\t// out\n        /* \"#utility.yul\":2074:2176   */\n    tag_123:\n        /* \"#utility.yul\":2115:2121   */\n      0x00\n        /* \"#utility.yul\":2166:2168   */\n      0x1f\n        /* \"#utility.yul\":2162:2169   */\n      not\n        /* \"#utility.yul\":2157:2159   */\n      0x1f\n        /* \"#utility.yul\":2150:2155   */\n      dup4\n        /* \"#utility.yul\":2146:2160   */\n      add\n        /* \"#utility.yul\":2142:2170   */\n      and\n        /* \"#utility.yul\":2132:2170   */\n      swap1\n      pop\n        /* \"#utility.yul\":2074:2176   */\n      swap2\n      swap1\n      pop\n      jump\t// out\n        /* \"#utility.yul\":2182:2539   */\n    tag_124:\n        /* \"#utility.yul\":2260:2263   */\n      0x00\n        /* \"#utility.yul\":2288:2327   */\n      tag_190\n        /* \"#utility.yul\":2321:2326   */\n      dup3\n        /* \"#utility.yul\":2288:2327   */\n      tag_120\n      jump\t// in\n    tag_190:\n        /* \"#utility.yul\":2343:2404   */\n      tag_191\n        /* \"#utility.yul\":2397:2403   */\n      dup2\n        /* \"#utility.yul\":2392:2395   */\n      dup6\n        /* \"#utility.yul\":2343:2404   */\n      tag_121\n      jump\t// in\n    tag_191:\n        /* \"#utility.yul\":2336:2404   */\n      swap4\n      pop\n        /* \"#utility.yul\":2413:2478   */\n      tag_192\n        /* \"#utility.yul\":2471:2477   */\n      dup2\n        /* \"#utility.yul\":2466:2469   */\n      dup6\n        /* \"#utility.yul\":2459:2463   */\n      0x20\n        /* \"#utility.yul\":2452:2457   */\n      dup7\n        /* \"#utility.yul\":2448:2464   */\n      add\n        /* \"#utility.yul\":2413:2478   */\n      tag_122\n      jump\t// in\n    tag_192:\n        /* \"#utility.yul\":2503:2532   */\n      tag_193\n        /* \"#utility.yul\":2525:2531   */\n      dup2\n        /* \"#utility.yul\":2503:2532   */\n      tag_123\n      jump\t// in\n    tag_193:\n        /* \"#utility.yul\":2498:2501   */\n      dup5\n        /* \"#utility.yul\":2494:2533   */\n      add\n        /* \"#utility.yul\":2487:2533   */\n      swap2\n      pop\n        /* \"#utility.yul\":2264:2539   */\n      pop\n        /* \"#utility.yul\":2182:2539   */\n      swap3\n      swap2\n      pop\n      pop\n      jump\t// out\n        /* \"#utility.yul\":2545:2671   */\n    tag_125:\n        /* \"#utility.yul\":2582:2589   */\n      0x00\n        /* \"#utility.yul\":2622:2664   */\n      0xffffffffffffffffffffffffffffffffffffffff\n        /* \"#utility.yul\":2615:2620   */\n      dup3\n        /* \"#utility.yul\":2611:2665   */\n      and\n        /* \"#utility.yul\":2600:2665   */\n      swap1\n      pop\n        /* \"#utility.yul\":2545:2671   */\n      swap2\n      swap1\n      pop\n      jump\t// out\n        /* \"#utility.yul\":2677:2773   */\n    tag_126:\n        /* \"#utility.yul\":2714:2721   */\n      0x00\n        /* \"#utility.yul\":2743:2767   */\n      tag_196\n        /* \"#utility.yul\":2761:2766   */\n      dup3\n        /* \"#utility.yul\":2743:2767   */\n      tag_125\n      jump\t// in\n    tag_196:\n        /* \"#utility.yul\":2732:2767   */\n      swap1\n      pop\n        /* \"#utility.yul\":2677:2773   */\n      swap2\n      swap1\n      pop\n      jump\t// out\n        /* \"#utility.yul\":2779:2887   */\n    tag_127:\n        /* \"#utility.yul\":2856:2880   */\n      tag_198\n        /* \"#utility.yul\":2874:2879   */\n      dup2\n        /* \"#utility.yul\":2856:2880   */\n      tag_126\n      jump\t// in\n    tag_198:\n        /* \"#utility.yul\":2851:2854   */\n      dup3\n        /* \"#utility.yul\":2844:2881   */\n      mstore\n        /* \"#utility.yul\":2779:2887   */\n      pop\n      pop\n      jump\t// out\n        /* \"#utility.yul\":2893:2992   */\n    tag_128:\n        /* \"#utility.yul\":2964:2985   */\n      tag_200\n        /* \"#utility.yul\":2979:2984   */\n      dup2\n        /* \"#utility.yul\":2964:2985   */\n      tag_114\n      jump\t// in\n    tag_200:\n        /* \"#utility.yul\":2959:2962   */\n      dup3\n        /* \"#utility.yul\":2952:2986   */\n      mstore\n        /* \"#utility.yul\":2893:2992   */\n      pop\n      pop\n      jump\t// out\n        /* \"#utility.yul\":3084:3870   */\n    tag_129:\n        /* \"#utility.yul\":3199:3202   */\n      0x00\n        /* \"#utility.yul\":3235:3239   */\n      0x60\n        /* \"#utility.yul\":3230:3233   */\n      dup4\n        /* \"#utility.yul\":3226:3240   */\n      add\n        /* \"#utility.yul\":3326:3330   */\n      0x00\n        /* \"#utility.yul\":3319:3324   */\n      dup4\n        /* \"#utility.yul\":3315:3331   */\n      add\n        /* \"#utility.yul\":3309:3332   */\n      mload\n        /* \"#utility.yul\":3379:3382   */\n      dup5\n        /* \"#utility.yul\":3373:3377   */\n      dup3\n        /* \"#utility.yul\":3369:3383   */\n      sub\n        /* \"#utility.yul\":3362:3366   */\n      0x00\n        /* \"#utility.yul\":3357:3360   */\n      dup7\n        /* \"#utility.yul\":3353:3367   */\n      add\n        /* \"#utility.yul\":3346:3384   */\n      mstore\n        /* \"#utility.yul\":3405:3478   */\n      tag_202\n        /* \"#utility.yul\":3473:3477   */\n      dup3\n        /* \"#utility.yul\":3459:3471   */\n      dup3\n        /* \"#utility.yul\":3405:3478   */\n      tag_124\n      jump\t// in\n    tag_202:\n        /* \"#utility.yul\":3397:3478   */\n      swap2\n      pop\n        /* \"#utility.yul\":3250:3489   */\n      pop\n        /* \"#utility.yul\":3578:3582   */\n      0x20\n        /* \"#utility.yul\":3571:3576   */\n      dup4\n        /* \"#utility.yul\":3567:3583   */\n      add\n        /* \"#utility.yul\":3561:3584   */\n      mload\n        /* \"#utility.yul\":3597:3660   */\n      tag_203\n        /* \"#utility.yul\":3654:3658   */\n      0x20\n        /* \"#utility.yul\":3649:3652   */\n      dup7\n        /* \"#utility.yul\":3645:3659   */\n      add\n        /* \"#utility.yul\":3631:3643   */\n      dup3\n        /* \"#utility.yul\":3597:3660   */\n      tag_127\n      jump\t// in\n    tag_203:\n        /* \"#utility.yul\":3499:3670   */\n      pop\n        /* \"#utility.yul\":3757:3761   */\n      0x40\n        /* \"#utility.yul\":3750:3755   */\n      dup4\n        /* \"#utility.yul\":3746:3762   */\n      add\n        /* \"#utility.yul\":3740:3763   */\n      mload\n        /* \"#utility.yul\":3776:3833   */\n      tag_204\n        /* \"#utility.yul\":3827:3831   */\n      0x40\n        /* \"#utility.yul\":3822:3825   */\n      dup7\n        /* \"#utility.yul\":3818:3832   */\n      add\n        /* \"#utility.yul\":3804:3816   */\n      dup3\n        /* \"#utility.yul\":3776:3833   */\n      tag_128\n      jump\t// in\n    tag_204:\n        /* \"#utility.yul\":3680:3843   */\n      pop\n        /* \"#utility.yul\":3860:3864   */\n      dup1\n        /* \"#utility.yul\":3853:3864   */\n      swap2\n      pop\n        /* \"#utility.yul\":3204:3870   */\n      pop\n        /* \"#utility.yul\":3084:3870   */\n      swap3\n      swap2\n      pop\n      pop\n      jump\t// out\n        /* \"#utility.yul\":3876:4144   */\n    tag_130:\n        /* \"#utility.yul\":4001:4011   */\n      0x00\n        /* \"#utility.yul\":4036:4138   */\n      tag_206\n        /* \"#utility.yul\":4134:4137   */\n      dup4\n        /* \"#utility.yul\":4126:4132   */\n      dup4\n        /* \"#utility.yul\":4036:4138   */\n      tag_129\n      jump\t// in\n    tag_206:\n        /* \"#utility.yul\":4022:4138   */\n      swap1\n      pop\n        /* \"#utility.yul\":3876:4144   */\n      swap3\n      swap2\n      pop\n      pop\n      jump\t// out\n        /* \"#utility.yul\":4150:4291   */\n    tag_131:\n        /* \"#utility.yul\":4248:4252   */\n      0x00\n        /* \"#utility.yul\":4280:4284   */\n      0x20\n        /* \"#utility.yul\":4275:4278   */\n      dup3\n        /* \"#utility.yul\":4271:4285   */\n      add\n        /* \"#utility.yul\":4263:4285   */\n      swap1\n      pop\n        /* \"#utility.yul\":4150:4291   */\n      swap2\n      swap1\n      pop\n      jump\t// out\n        /* \"#utility.yul\":4387:5522   */\n    tag_132:\n        /* \"#utility.yul\":4562:4565   */\n      0x00\n        /* \"#utility.yul\":4591:4673   */\n      tag_209\n        /* \"#utility.yul\":4667:4672   */\n      dup3\n        /* \"#utility.yul\":4591:4673   */\n      tag_117\n      jump\t// in\n    tag_209:\n        /* \"#utility.yul\":4689:4803   */\n      tag_210\n        /* \"#utility.yul\":4796:4802   */\n      dup2\n        /* \"#utility.yul\":4791:4794   */\n      dup6\n        /* \"#utility.yul\":4689:4803   */\n      tag_118\n      jump\t// in\n    tag_210:\n        /* \"#utility.yul\":4682:4803   */\n      swap4\n      pop\n        /* \"#utility.yul\":4829:4832   */\n      dup4\n        /* \"#utility.yul\":4874:4878   */\n      0x20\n        /* \"#utility.yul\":4866:4872   */\n      dup3\n        /* \"#utility.yul\":4862:4879   */\n      mul\n        /* \"#utility.yul\":4857:4860   */\n      dup6\n        /* \"#utility.yul\":4853:4880   */\n      add\n        /* \"#utility.yul\":4904:4988   */\n      tag_211\n        /* \"#utility.yul\":4982:4987   */\n      dup6\n        /* \"#utility.yul\":4904:4988   */\n      tag_119\n      jump\t// in\n    tag_211:\n        /* \"#utility.yul\":5011:5018   */\n      dup1\n        /* \"#utility.yul\":5042:5043   */\n      0x00\n        /* \"#utility.yul\":5027:5477   */\n    tag_212:\n        /* \"#utility.yul\":5052:5058   */\n      dup6\n        /* \"#utility.yul\":5049:5050   */\n      dup2\n        /* \"#utility.yul\":5046:5059   */\n      lt\n        /* \"#utility.yul\":5027:5477   */\n      iszero\n      tag_214\n      jumpi\n        /* \"#utility.yul\":5123:5132   */\n      dup5\n        /* \"#utility.yul\":5117:5121   */\n      dup5\n        /* \"#utility.yul\":5113:5133   */\n      sub\n        /* \"#utility.yul\":5108:5111   */\n      dup10\n        /* \"#utility.yul\":5101:5134   */\n      mstore\n        /* \"#utility.yul\":5174:5180   */\n      dup2\n        /* \"#utility.yul\":5168:5181   */\n      mload\n        /* \"#utility.yul\":5202:5322   */\n      tag_215\n        /* \"#utility.yul\":5317:5321   */\n      dup6\n        /* \"#utility.yul\":5302:5315   */\n      dup3\n        /* \"#utility.yul\":5202:5322   */\n      tag_130\n      jump\t// in\n    tag_215:\n        /* \"#utility.yul\":5194:5322   */\n      swap5\n      pop\n        /* \"#utility.yul\":5345:5433   */\n      tag_216\n        /* \"#utility.yul\":5426:5432   */\n      dup4\n        /* \"#utility.yul\":5345:5433   */\n      tag_131\n      jump\t// in\n    tag_216:\n        /* \"#utility.yul\":5335:5433   */\n      swap3\n      pop\n        /* \"#utility.yul\":5462:5466   */\n      0x20\n        /* \"#utility.yul\":5457:5460   */\n      dup11\n        /* \"#utility.yul\":5453:5467   */\n      add\n        /* \"#utility.yul\":5446:5467   */\n      swap10\n      pop\n        /* \"#utility.yul\":5087:5477   */\n      pop\n        /* \"#utility.yul\":5074:5075   */\n      0x01\n        /* \"#utility.yul\":5071:5072   */\n      dup2\n        /* \"#utility.yul\":5067:5076   */\n      add\n        /* \"#utility.yul\":5062:5076   */\n      swap1\n      pop\n        /* \"#utility.yul\":5027:5477   */\n      jump(tag_212)\n    tag_214:\n        /* \"#utility.yul\":5031:5045   */\n      pop\n        /* \"#utility.yul\":5493:5497   */\n      dup3\n        /* \"#utility.yul\":5486:5497   */\n      swap8\n      pop\n        /* \"#utility.yul\":5513:5516   */\n      dup8\n        /* \"#utility.yul\":5506:5516   */\n      swap6\n      pop\n        /* \"#utility.yul\":4567:5522   */\n      pop\n      pop\n      pop\n      pop\n      pop\n        /* \"#utility.yul\":4387:5522   */\n      swap3\n      swap2\n      pop\n      pop\n      jump\t// out\n        /* \"#utility.yul\":5528:6013   */\n    tag_12:\n        /* \"#utility.yul\":5727:5731   */\n      0x00\n        /* \"#utility.yul\":5765:5767   */\n      0x20\n        /* \"#utility.yul\":5754:5763   */\n      dup3\n        /* \"#utility.yul\":5750:5768   */\n      add\n        /* \"#utility.yul\":5742:5768   */\n      swap1\n      pop\n        /* \"#utility.yul\":5814:5823   */\n      dup2\n        /* \"#utility.yul\":5808:5812   */\n      dup2\n        /* \"#utility.yul\":5804:5824   */\n      sub\n        /* \"#utility.yul\":5800:5801   */\n      0x00\n        /* \"#utility.yul\":5789:5798   */\n      dup4\n        /* \"#utility.yul\":5785:5802   */\n      add\n        /* \"#utility.yul\":5778:5825   */\n      mstore\n        /* \"#utility.yul\":5842:6006   */\n      tag_218\n        /* \"#utility.yul\":6001:6005   */\n      dup2\n        /* \"#utility.yul\":5992:5998   */\n      dup5\n        /* \"#utility.yul\":5842:6006   */\n      tag_132\n      jump\t// in\n    tag_218:\n        /* \"#utility.yul\":5834:6006   */\n      swap1\n      pop\n        /* \"#utility.yul\":5528:6013   */\n      swap3\n      swap2\n      pop\n      pop\n      jump\t// out\n        /* \"#utility.yul\":6019:6141   */\n    tag_133:\n        /* \"#utility.yul\":6092:6116   */\n      tag_220\n        /* \"#utility.yul\":6110:6115   */\n      dup2\n        /* \"#utility.yul\":6092:6116   */\n      tag_126\n      jump\t// in\n    tag_220:\n        /* \"#utility.yul\":6085:6090   */\n      dup2\n        /* \"#utility.yul\":6082:6117   */\n      eq\n        /* \"#utility.yul\":6072:6135   */\n      tag_221\n      jumpi\n        /* \"#utility.yul\":6131:6132   */\n      0x00\n        /* \"#utility.yul\":6128:6129   */\n      dup1\n        /* \"#utility.yul\":6121:6133   */\n      revert\n        /* \"#utility.yul\":6072:6135   */\n    tag_221:\n        /* \"#utility.yul\":6019:6141   */\n      pop\n      jump\t// out\n        /* \"#utility.yul\":6147:6286   */\n    tag_134:\n        /* \"#utility.yul\":6193:6198   */\n      0x00\n        /* \"#utility.yul\":6231:6237   */\n      dup2\n        /* \"#utility.yul\":6218:6238   */\n      calldataload\n        /* \"#utility.yul\":6209:6238   */\n      swap1\n      pop\n        /* \"#utility.yul\":6247:6280   */\n      tag_223\n        /* \"#utility.yul\":6274:6279   */\n      dup2\n        /* \"#utility.yul\":6247:6280   */\n      tag_133\n      jump\t// in\n    tag_223:\n        /* \"#utility.yul\":6147:6286   */\n      swap3\n      swap2\n      pop\n      pop\n      jump\t// out\n        /* \"#utility.yul\":6292:6621   */\n    tag_15:\n        /* \"#utility.yul\":6351:6357   */\n      0x00\n        /* \"#utility.yul\":6400:6402   */\n      0x20\n        /* \"#utility.yul\":6388:6397   */\n      dup3\n        /* \"#utility.yul\":6379:6386   */\n      dup5\n        /* \"#utility.yul\":6375:6398   */\n      sub\n        /* \"#utility.yul\":6371:6403   */\n      slt\n        /* \"#utility.yul\":6368:6487   */\n      iszero\n      tag_225\n      jumpi\n        /* \"#utility.yul\":6406:6485   */\n      tag_226\n      tag_112\n      jump\t// in\n    tag_226:\n        /* \"#utility.yul\":6368:6487   */\n    tag_225:\n        /* \"#utility.yul\":6526:6527   */\n      0x00\n        /* \"#utility.yul\":6551:6604   */\n      tag_227\n        /* \"#utility.yul\":6596:6603   */\n      dup5\n        /* \"#utility.yul\":6587:6593   */\n      dup3\n        /* \"#utility.yul\":6576:6585   */\n      dup6\n        /* \"#utility.yul\":6572:6594   */\n      add\n        /* \"#utility.yul\":6551:6604   */\n      tag_134\n      jump\t// in\n    tag_227:\n        /* \"#utility.yul\":6541:6604   */\n      swap2\n      pop\n        /* \"#utility.yul\":6497:6614   */\n      pop\n        /* \"#utility.yul\":6292:6621   */\n      swap3\n      swap2\n      pop\n      pop\n      jump\t// out\n        /* \"#utility.yul\":6627:6744   */\n    tag_135:\n        /* \"#utility.yul\":6736:6737   */\n      0x00\n        /* \"#utility.yul\":6733:6734   */\n      dup1\n        /* \"#utility.yul\":6726:6738   */\n      revert\n        /* \"#utility.yul\":6750:6867   */\n    tag_136:\n        /* \"#utility.yul\":6859:6860   */\n      0x00\n        /* \"#utility.yul\":6856:6857   */\n      dup1\n        /* \"#utility.yul\":6849:6861   */\n      revert\n        /* \"#utility.yul\":6873:7053   */\n    tag_137:\n        /* \"#utility.yul\":6921:6998   */\n      0x4e487b7100000000000000000000000000000000000000000000000000000000\n        /* \"#utility.yul\":6918:6919   */\n      0x00\n        /* \"#utility.yul\":6911:6999   */\n      mstore\n        /* \"#utility.yul\":7018:7022   */\n      0x41\n        /* \"#utility.yul\":7015:7016   */\n      0x04\n        /* \"#utility.yul\":7008:7023   */\n      mstore\n        /* \"#utility.yul\":7042:7046   */\n      0x24\n        /* \"#utility.yul\":7039:7040   */\n      0x00\n        /* \"#utility.yul\":7032:7047   */\n      revert\n        /* \"#utility.yul\":7059:7340   */\n    tag_138:\n        /* \"#utility.yul\":7142:7169   */\n      tag_232\n        /* \"#utility.yul\":7164:7168   */\n      dup3\n        /* \"#utility.yul\":7142:7169   */\n      tag_123\n      jump\t// in\n    tag_232:\n        /* \"#utility.yul\":7134:7140   */\n      dup2\n        /* \"#utility.yul\":7130:7170   */\n      add\n        /* \"#utility.yul\":7272:7278   */\n      dup2\n        /* \"#utility.yul\":7260:7270   */\n      dup2\n        /* \"#utility.yul\":7257:7279   */\n      lt\n        /* \"#utility.yul\":7236:7254   */\n      0xffffffffffffffff\n        /* \"#utility.yul\":7224:7234   */\n      dup3\n        /* \"#utility.yul\":7221:7255   */\n      gt\n        /* \"#utility.yul\":7218:7280   */\n      or\n        /* \"#utility.yul\":7215:7303   */\n      iszero\n      tag_233\n      jumpi\n        /* \"#utility.yul\":7283:7301   */\n      tag_234\n      tag_137\n      jump\t// in\n    tag_234:\n        /* \"#utility.yul\":7215:7303   */\n    tag_233:\n        /* \"#utility.yul\":7323:7333   */\n      dup1\n        /* \"#utility.yul\":7319:7321   */\n      0x40\n        /* \"#utility.yul\":7312:7334   */\n      mstore\n        /* \"#utility.yul\":7102:7340   */\n      pop\n        /* \"#utility.yul\":7059:7340   */\n      pop\n      pop\n      jump\t// out\n        /* \"#utility.yul\":7346:7475   */\n    tag_139:\n        /* \"#utility.yul\":7380:7386   */\n      0x00\n        /* \"#utility.yul\":7407:7427   */\n      tag_236\n      tag_111\n      jump\t// in\n    tag_236:\n        /* \"#utility.yul\":7397:7427   */\n      swap1\n      pop\n        /* \"#utility.yul\":7436:7469   */\n      tag_237\n        /* \"#utility.yul\":7464:7468   */\n      dup3\n        /* \"#utility.yul\":7456:7462   */\n      dup3\n        /* \"#utility.yul\":7436:7469   */\n      tag_138\n      jump\t// in\n    tag_237:\n        /* \"#utility.yul\":7346:7475   */\n      swap2\n      swap1\n      pop\n      jump\t// out\n        /* \"#utility.yul\":7481:7789   */\n    tag_140:\n        /* \"#utility.yul\":7543:7547   */\n      0x00\n        /* \"#utility.yul\":7633:7651   */\n      0xffffffffffffffff\n        /* \"#utility.yul\":7625:7631   */\n      dup3\n        /* \"#utility.yul\":7622:7652   */\n      gt\n        /* \"#utility.yul\":7619:7675   */\n      iszero\n      tag_239\n      jumpi\n        /* \"#utility.yul\":7655:7673   */\n      tag_240\n      tag_137\n      jump\t// in\n    tag_240:\n        /* \"#utility.yul\":7619:7675   */\n    tag_239:\n        /* \"#utility.yul\":7693:7722   */\n      tag_241\n        /* \"#utility.yul\":7715:7721   */\n      dup3\n        /* \"#utility.yul\":7693:7722   */\n      tag_123\n      jump\t// in\n    tag_241:\n        /* \"#utility.yul\":7685:7722   */\n      swap1\n      pop\n        /* \"#utility.yul\":7777:7781   */\n      0x20\n        /* \"#utility.yul\":7771:7775   */\n      dup2\n        /* \"#utility.yul\":7767:7782   */\n      add\n        /* \"#utility.yul\":7759:7782   */\n      swap1\n      pop\n        /* \"#utility.yul\":7481:7789   */\n      swap2\n      swap1\n      pop\n      jump\t// out\n        /* \"#utility.yul\":7795:7941   */\n    tag_141:\n        /* \"#utility.yul\":7892:7898   */\n      dup3\n        /* \"#utility.yul\":7887:7890   */\n      dup2\n        /* \"#utility.yul\":7882:7885   */\n      dup4\n        /* \"#utility.yul\":7869:7899   */\n      calldatacopy\n        /* \"#utility.yul\":7933:7934   */\n      0x00\n        /* \"#utility.yul\":7924:7930   */\n      dup4\n        /* \"#utility.yul\":7919:7922   */\n      dup4\n        /* \"#utility.yul\":7915:7931   */\n      add\n        /* \"#utility.yul\":7908:7935   */\n      mstore\n        /* \"#utility.yul\":7795:7941   */\n      pop\n      pop\n      pop\n      jump\t// out\n        /* \"#utility.yul\":7947:8372   */\n    tag_142:\n        /* \"#utility.yul\":8025:8030   */\n      0x00\n        /* \"#utility.yul\":8050:8116   */\n      tag_244\n        /* \"#utility.yul\":8066:8115   */\n      tag_245\n        /* \"#utility.yul\":8108:8114   */\n      dup5\n        /* \"#utility.yul\":8066:8115   */\n      tag_140\n      jump\t// in\n    tag_245:\n        /* \"#utility.yul\":8050:8116   */\n      tag_139\n      jump\t// in\n    tag_244:\n        /* \"#utility.yul\":8041:8116   */\n      swap1\n      pop\n        /* \"#utility.yul\":8139:8145   */\n      dup3\n        /* \"#utility.yul\":8132:8137   */\n      dup2\n        /* \"#utility.yul\":8125:8146   */\n      mstore\n        /* \"#utility.yul\":8177:8181   */\n      0x20\n        /* \"#utility.yul\":8170:8175   */\n      dup2\n        /* \"#utility.yul\":8166:8182   */\n      add\n        /* \"#utility.yul\":8215:8218   */\n      dup5\n        /* \"#utility.yul\":8206:8212   */\n      dup5\n        /* \"#utility.yul\":8201:8204   */\n      dup5\n        /* \"#utility.yul\":8197:8213   */\n      add\n        /* \"#utility.yul\":8194:8219   */\n      gt\n        /* \"#utility.yul\":8191:8303   */\n      iszero\n      tag_246\n      jumpi\n        /* \"#utility.yul\":8222:8301   */\n      tag_247\n      tag_136\n      jump\t// in\n    tag_247:\n        /* \"#utility.yul\":8191:8303   */\n    tag_246:\n        /* \"#utility.yul\":8312:8366   */\n      tag_248\n        /* \"#utility.yul\":8359:8365   */\n      dup5\n        /* \"#utility.yul\":8354:8357   */\n      dup3\n        /* \"#utility.yul\":8349:8352   */\n      dup6\n        /* \"#utility.yul\":8312:8366   */\n      tag_141\n      jump\t// in\n    tag_248:\n        /* \"#utility.yul\":8031:8372   */\n      pop\n        /* \"#utility.yul\":7947:8372   */\n      swap4\n      swap3\n      pop\n      pop\n      pop\n      jump\t// out\n        /* \"#utility.yul\":8392:8732   */\n    tag_143:\n        /* \"#utility.yul\":8448:8453   */\n      0x00\n        /* \"#utility.yul\":8497:8500   */\n      dup3\n        /* \"#utility.yul\":8490:8494   */\n      0x1f\n        /* \"#utility.yul\":8482:8488   */\n      dup4\n        /* \"#utility.yul\":8478:8495   */\n      add\n        /* \"#utility.yul\":8474:8501   */\n      slt\n        /* \"#utility.yul\":8464:8586   */\n      tag_250\n      jumpi\n        /* \"#utility.yul\":8505:8584   */\n      tag_251\n      tag_135\n      jump\t// in\n    tag_251:\n        /* \"#utility.yul\":8464:8586   */\n    tag_250:\n        /* \"#utility.yul\":8622:8628   */\n      dup2\n        /* \"#utility.yul\":8609:8629   */\n      calldataload\n        /* \"#utility.yul\":8647:8726   */\n      tag_252\n        /* \"#utility.yul\":8722:8725   */\n      dup5\n        /* \"#utility.yul\":8714:8720   */\n      dup3\n        /* \"#utility.yul\":8707:8711   */\n      0x20\n        /* \"#utility.yul\":8699:8705   */\n      dup7\n        /* \"#utility.yul\":8695:8712   */\n      add\n        /* \"#utility.yul\":8647:8726   */\n      tag_142\n      jump\t// in\n    tag_252:\n        /* \"#utility.yul\":8638:8726   */\n      swap2\n      pop\n        /* \"#utility.yul\":8454:8732   */\n      pop\n        /* \"#utility.yul\":8392:8732   */\n      swap3\n      swap2\n      pop\n      pop\n      jump\t// out\n        /* \"#utility.yul\":8738:9531   */\n    tag_20:\n        /* \"#utility.yul\":8822:8828   */\n      0x00\n        /* \"#utility.yul\":8830:8836   */\n      dup1\n        /* \"#utility.yul\":8838:8844   */\n      0x00\n        /* \"#utility.yul\":8887:8889   */\n      0x60\n        /* \"#utility.yul\":8875:8884   */\n      dup5\n        /* \"#utility.yul\":8866:8873   */\n      dup7\n        /* \"#utility.yul\":8862:8885   */\n      sub\n        /* \"#utility.yul\":8858:8890   */\n      slt\n        /* \"#utility.yul\":8855:8974   */\n      iszero\n      tag_254\n      jumpi\n        /* \"#utility.yul\":8893:8972   */\n      tag_255\n      tag_112\n      jump\t// in\n    tag_255:\n        /* \"#utility.yul\":8855:8974   */\n    tag_254:\n        /* \"#utility.yul\":9041:9042   */\n      0x00\n        /* \"#utility.yul\":9030:9039   */\n      dup5\n        /* \"#utility.yul\":9026:9043   */\n      add\n        /* \"#utility.yul\":9013:9044   */\n      calldataload\n        /* \"#utility.yul\":9071:9089   */\n      0xffffffffffffffff\n        /* \"#utility.yul\":9063:9069   */\n      dup2\n        /* \"#utility.yul\":9060:9090   */\n      gt\n        /* \"#utility.yul\":9057:9174   */\n      iszero\n      tag_256\n      jumpi\n        /* \"#utility.yul\":9093:9172   */\n      tag_257\n      tag_113\n      jump\t// in\n    tag_257:\n        /* \"#utility.yul\":9057:9174   */\n    tag_256:\n        /* \"#utility.yul\":9198:9261   */\n      tag_258\n        /* \"#utility.yul\":9253:9260   */\n      dup7\n        /* \"#utility.yul\":9244:9250   */\n      dup3\n        /* \"#utility.yul\":9233:9242   */\n      dup8\n        /* \"#utility.yul\":9229:9251   */\n      add\n        /* \"#utility.yul\":9198:9261   */\n      tag_143\n      jump\t// in\n    tag_258:\n        /* \"#utility.yul\":9188:9261   */\n      swap4\n      pop\n        /* \"#utility.yul\":8984:9271   */\n      pop\n        /* \"#utility.yul\":9310:9312   */\n      0x20\n        /* \"#utility.yul\":9336:9389   */\n      tag_259\n        /* \"#utility.yul\":9381:9388   */\n      dup7\n        /* \"#utility.yul\":9372:9378   */\n      dup3\n        /* \"#utility.yul\":9361:9370   */\n      dup8\n        /* \"#utility.yul\":9357:9379   */\n      add\n        /* \"#utility.yul\":9336:9389   */\n      tag_134\n      jump\t// in\n    tag_259:\n        /* \"#utility.yul\":9326:9389   */\n      swap3\n      pop\n        /* \"#utility.yul\":9281:9399   */\n      pop\n        /* \"#utility.yul\":9438:9440   */\n      0x40\n        /* \"#utility.yul\":9464:9514   */\n      tag_260\n        /* \"#utility.yul\":9506:9513   */\n      dup7\n        /* \"#utility.yul\":9497:9503   */\n      dup3\n        /* \"#utility.yul\":9486:9495   */\n      dup8\n        /* \"#utility.yul\":9482:9504   */\n      add\n        /* \"#utility.yul\":9464:9514   */\n      tag_116\n      jump\t// in\n    tag_260:\n        /* \"#utility.yul\":9454:9514   */\n      swap2\n      pop\n        /* \"#utility.yul\":9409:9524   */\n      pop\n        /* \"#utility.yul\":8738:9531   */\n      swap3\n      pop\n      swap3\n      pop\n      swap3\n      jump\t// out\n        /* \"#utility.yul\":9537:9614   */\n    tag_144:\n        /* \"#utility.yul\":9574:9581   */\n      0x00\n        /* \"#utility.yul\":9603:9608   */\n      dup2\n        /* \"#utility.yul\":9592:9608   */\n      swap1\n      pop\n        /* \"#utility.yul\":9537:9614   */\n      swap2\n      swap1\n      pop\n      jump\t// out\n        /* \"#utility.yul\":9620:9742   */\n    tag_145:\n        /* \"#utility.yul\":9693:9717   */\n      tag_263\n        /* \"#utility.yul\":9711:9716   */\n      dup2\n        /* \"#utility.yul\":9693:9717   */\n      tag_144\n      jump\t// in\n    tag_263:\n        /* \"#utility.yul\":9686:9691   */\n      dup2\n        /* \"#utility.yul\":9683:9718   */\n      eq\n        /* \"#utility.yul\":9673:9736   */\n      tag_264\n      jumpi\n        /* \"#utility.yul\":9732:9733   */\n      0x00\n        /* \"#utility.yul\":9729:9730   */\n      dup1\n        /* \"#utility.yul\":9722:9734   */\n      revert\n        /* \"#utility.yul\":9673:9736   */\n    tag_264:\n        /* \"#utility.yul\":9620:9742   */\n      pop\n      jump\t// out\n        /* \"#utility.yul\":9748:9887   */\n    tag_146:\n        /* \"#utility.yul\":9794:9799   */\n      0x00\n        /* \"#utility.yul\":9832:9838   */\n      dup2\n        /* \"#utility.yul\":9819:9839   */\n      calldataload\n        /* \"#utility.yul\":9810:9839   */\n      swap1\n      pop\n        /* \"#utility.yul\":9848:9881   */\n      tag_266\n        /* \"#utility.yul\":9875:9880   */\n      dup2\n        /* \"#utility.yul\":9848:9881   */\n      tag_145\n      jump\t// in\n    tag_266:\n        /* \"#utility.yul\":9748:9887   */\n      swap3\n      swap2\n      pop\n      pop\n      jump\t// out\n        /* \"#utility.yul\":9893:10222   */\n    tag_24:\n        /* \"#utility.yul\":9952:9958   */\n      0x00\n        /* \"#utility.yul\":10001:10003   */\n      0x20\n        /* \"#utility.yul\":9989:9998   */\n      dup3\n        /* \"#utility.yul\":9980:9987   */\n      dup5\n        /* \"#utility.yul\":9976:9999   */\n      sub\n        /* \"#utility.yul\":9972:10004   */\n      slt\n        /* \"#utility.yul\":9969:10088   */\n      iszero\n      tag_268\n      jumpi\n        /* \"#utility.yul\":10007:10086   */\n      tag_269\n      tag_112\n      jump\t// in\n    tag_269:\n        /* \"#utility.yul\":9969:10088   */\n    tag_268:\n        /* \"#utility.yul\":10127:10128   */\n      0x00\n        /* \"#utility.yul\":10152:10205   */\n      tag_270\n        /* \"#utility.yul\":10197:10204   */\n      dup5\n        /* \"#utility.yul\":10188:10194   */\n      dup3\n        /* \"#utility.yul\":10177:10186   */\n      dup6\n        /* \"#utility.yul\":10173:10195   */\n      add\n        /* \"#utility.yul\":10152:10205   */\n      tag_146\n      jump\t// in\n    tag_270:\n        /* \"#utility.yul\":10142:10205   */\n      swap2\n      pop\n        /* \"#utility.yul\":10098:10215   */\n      pop\n        /* \"#utility.yul\":9893:10222   */\n      swap3\n      swap2\n      pop\n      pop\n      jump\t// out\n        /* \"#utility.yul\":10228:10408   */\n    tag_147:\n        /* \"#utility.yul\":10276:10353   */\n      0x4e487b7100000000000000000000000000000000000000000000000000000000\n        /* \"#utility.yul\":10273:10274   */\n      0x00\n        /* \"#utility.yul\":10266:10354   */\n      mstore\n        /* \"#utility.yul\":10373:10377   */\n      0x22\n        /* \"#utility.yul\":10370:10371   */\n      0x04\n        /* \"#utility.yul\":10363:10378   */\n      mstore\n        /* \"#utility.yul\":10397:10401   */\n      0x24\n        /* \"#utility.yul\":10394:10395   */\n      0x00\n        /* \"#utility.yul\":10387:10402   */\n      revert\n        /* \"#utility.yul\":10414:10734   */\n    tag_32:\n        /* \"#utility.yul\":10458:10464   */\n      0x00\n        /* \"#utility.yul\":10495:10496   */\n      0x02\n        /* \"#utility.yul\":10489:10493   */\n      dup3\n        /* \"#utility.yul\":10485:10497   */\n      div\n        /* \"#utility.yul\":10475:10497   */\n      swap1\n      pop\n        /* \"#utility.yul\":10542:10543   */\n      0x01\n        /* \"#utility.yul\":10536:10540   */\n      dup3\n        /* \"#utility.yul\":10532:10544   */\n      and\n        /* \"#utility.yul\":10563:10581   */\n      dup1\n        /* \"#utility.yul\":10553:10634   */\n      tag_273\n      jumpi\n        /* \"#utility.yul\":10619:10623   */\n      0x7f\n        /* \"#utility.yul\":10611:10617   */\n      dup3\n        /* \"#utility.yul\":10607:10624   */\n      and\n        /* \"#utility.yul\":10597:10624   */\n      swap2\n      pop\n        /* \"#utility.yul\":10553:10634   */\n    tag_273:\n        /* \"#utility.yul\":10681:10683   */\n      0x20\n        /* \"#utility.yul\":10673:10679   */\n      dup3\n        /* \"#utility.yul\":10670:10684   */\n      lt\n        /* \"#utility.yul\":10650:10668   */\n      dup2\n        /* \"#utility.yul\":10647:10685   */\n      sub\n        /* \"#utility.yul\":10644:10728   */\n      tag_274\n      jumpi\n        /* \"#utility.yul\":10700:10718   */\n      tag_275\n      tag_147\n      jump\t// in\n    tag_275:\n        /* \"#utility.yul\":10644:10728   */\n    tag_274:\n        /* \"#utility.yul\":10465:10734   */\n      pop\n        /* \"#utility.yul\":10414:10734   */\n      swap2\n      swap1\n      pop\n      jump\t// out\n        /* \"#utility.yul\":10740:10881   */\n    tag_148:\n        /* \"#utility.yul\":10789:10793   */\n      0x00\n        /* \"#utility.yul\":10812:10815   */\n      dup2\n        /* \"#utility.yul\":10804:10815   */\n      swap1\n      pop\n        /* \"#utility.yul\":10835:10838   */\n      dup2\n        /* \"#utility.yul\":10832:10833   */\n      0x00\n        /* \"#utility.yul\":10825:10839   */\n      mstore\n        /* \"#utility.yul\":10869:10873   */\n      0x20\n        /* \"#utility.yul\":10866:10867   */\n      0x00\n        /* \"#utility.yul\":10856:10874   */\n      keccak256\n        /* \"#utility.yul\":10848:10874   */\n      swap1\n      pop\n        /* \"#utility.yul\":10740:10881   */\n      swap2\n      swap1\n      pop\n      jump\t// out\n        /* \"#utility.yul\":10887:10980   */\n    tag_149:\n        /* \"#utility.yul\":10924:10930   */\n      0x00\n        /* \"#utility.yul\":10971:10973   */\n      0x20\n        /* \"#utility.yul\":10966:10968   */\n      0x1f\n        /* \"#utility.yul\":10959:10964   */\n      dup4\n        /* \"#utility.yul\":10955:10969   */\n      add\n        /* \"#utility.yul\":10951:10974   */\n      div\n        /* \"#utility.yul\":10941:10974   */\n      swap1\n      pop\n        /* \"#utility.yul\":10887:10980   */\n      swap2\n      swap1\n      pop\n      jump\t// out\n        /* \"#utility.yul\":10986:11093   */\n    tag_150:\n        /* \"#utility.yul\":11030:11038   */\n      0x00\n        /* \"#utility.yul\":11080:11085   */\n      dup3\n        /* \"#utility.yul\":11074:11078   */\n      dup3\n        /* \"#utility.yul\":11070:11086   */\n      shl\n        /* \"#utility.yul\":11049:11086   */\n      swap1\n      pop\n        /* \"#utility.yul\":10986:11093   */\n      swap3\n      swap2\n      pop\n      pop\n      jump\t// out\n        /* \"#utility.yul\":11099:11492   */\n    tag_151:\n        /* \"#utility.yul\":11168:11174   */\n      0x00\n        /* \"#utility.yul\":11218:11219   */\n      0x08\n        /* \"#utility.yul\":11206:11216   */\n      dup4\n        /* \"#utility.yul\":11202:11220   */\n      mul\n        /* \"#utility.yul\":11241:11338   */\n      tag_280\n        /* \"#utility.yul\":11271:11337   */\n      0xffffffffffffffffffffffffffffffffffffffffffffffffffffffffffffffff\n        /* \"#utility.yul\":11260:11269   */\n      dup3\n        /* \"#utility.yul\":11241:11338   */\n      tag_150\n      jump\t// in\n    tag_280:\n        /* \"#utility.yul\":11359:11398   */\n      tag_281\n        /* \"#utility.yul\":11389:11397   */\n      dup7\n        /* \"#utility.yul\":11378:11387   */\n      dup4\n        /* \"#utility.yul\":11359:11398   */\n      tag_150\n      jump\t// in\n    tag_281:\n        /* \"#utility.yul\":11347:11398   */\n      swap6\n      pop\n        /* \"#utility.yul\":11431:11435   */\n      dup1\n        /* \"#utility.yul\":11427:11436   */\n      not\n        /* \"#utility.yul\":11420:11425   */\n      dup5\n        /* \"#utility.yul\":11416:11437   */\n      and\n        /* \"#utility.yul\":11407:11437   */\n      swap4\n      pop\n        /* \"#utility.yul\":11480:11484   */\n      dup1\n        /* \"#utility.yul\":11470:11478   */\n      dup7\n        /* \"#utility.yul\":11466:11485   */\n      and\n        /* \"#utility.yul\":11459:11464   */\n      dup5\n        /* \"#utility.yul\":11456:11486   */\n      or\n        /* \"#utility.yul\":11446:11486   */\n      swap3\n      pop\n        /* \"#utility.yul\":11175:11492   */\n      pop\n      pop\n        /* \"#utility.yul\":11099:11492   */\n      swap4\n      swap3\n      pop\n      pop\n      pop\n      jump\t// out\n        /* \"#utility.yul\":11498:11558   */\n    tag_152:\n        /* \"#utility.yul\":11526:11529   */\n      0x00\n        /* \"#utility.yul\":11547:11552   */\n      dup2\n        /* \"#utility.yul\":11540:11552   */\n      swap1\n      pop\n        /* \"#utility.yul\":11498:11558   */\n      swap2\n      swap1\n      pop\n      jump\t// out\n        /* \"#utility.yul\":11564:11706   */\n    tag_153:\n        /* \"#utility.yul\":11614:11623   */\n      0x00\n        /* \"#utility.yul\":11647:11700   */\n      tag_284\n        /* \"#utility.yul\":11665:11699   */\n      tag_285\n        /* \"#utility.yul\":11674:11698   */\n      tag_286\n        /* \"#utility.yul\":11692:11697   */\n      dup5\n        /* \"#utility.yul\":11674:11698   */\n      tag_144\n      jump\t// in\n    tag_286:\n        /* \"#utility.yul\":11665:11699   */\n      tag_152\n      jump\t// in\n    tag_285:\n        /* \"#utility.yul\":11647:11700   */\n      tag_144\n      jump\t// in\n    tag_284:\n        /* \"#utility.yul\":11634:11700   */\n      swap1\n      pop\n        /* \"#utility.yul\":11564:11706   */\n      swap2\n      swap1\n      pop\n      jump\t// out\n        /* \"#utility.yul\":11712:11787   */\n    tag_154:\n        /* \"#utility.yul\":11755:11758   */\n      0x00\n        /* \"#utility.yul\":11776:11781   */\n      dup2\n        /* \"#utility.yul\":11769:11781   */\n      swap1\n      pop\n        /* \"#utility.yul\":11712:11787   */\n      swap2\n      swap1\n      pop\n      jump\t// out\n        /* \"#utility.yul\":11793:12062   */\n    tag_155:\n        /* \"#utility.yul\":11903:11942   */\n      tag_289\n        /* \"#utility.yul\":11934:11941   */\n      dup4\n        /* \"#utility.yul\":11903:11942   */\n      tag_153\n      jump\t// in\n    tag_289:\n        /* \"#utility.yul\":11964:12055   */\n      tag_290\n        /* \"#utility.yul\":12013:12054   */\n      tag_291\n        /* \"#utility.yul\":12037:12053   */\n      dup3\n        /* \"#utility.yul\":12013:12054   */\n      tag_154\n      jump\t// in\n    tag_291:\n        /* \"#utility.yul\":12005:12011   */\n      dup5\n        /* \"#utility.yul\":11998:12002   */\n      dup5\n        /* \"#utility.yul\":11992:12003   */\n      sload\n        /* \"#utility.yul\":11964:12055   */\n      tag_151\n      jump\t// in\n    tag_290:\n        /* \"#utility.yul\":11958:11962   */\n      dup3\n        /* \"#utility.yul\":11951:12056   */\n      sstore\n        /* \"#utility.yul\":11869:12062   */\n      pop\n        /* \"#utility.yul\":11793:12062   */\n      pop\n      pop\n      pop\n      jump\t// out\n        /* \"#utility.yul\":12068:12141   */\n    tag_156:\n        /* \"#utility.yul\":12113:12116   */\n      0x00\n        /* \"#utility.yul\":12068:12141   */\n      swap1\n      jump\t// out\n        /* \"#utility.yul\":12147:12336   */\n    tag_157:\n        /* \"#utility.yul\":12224:12256   */\n      tag_294\n      tag_156\n      jump\t// in\n    tag_294:\n        /* \"#utility.yul\":12265:12330   */\n      tag_295\n        /* \"#utility.yul\":12323:12329   */\n      dup2\n        /* \"#utility.yul\":12315:12321   */\n      dup5\n        /* \"#utility.yul\":12309:12313   */\n      dup5\n        /* \"#utility.yul\":12265:12330   */\n      tag_155\n      jump\t// in\n    tag_295:\n        /* \"#utility.yul\":12200:12336   */\n      pop\n        /* \"#utility.yul\":12147:12336   */\n      pop\n      pop\n      jump\t// out\n        /* \"#utility.yul\":12342:12528   */\n    tag_158:\n        /* \"#utility.yul\":12402:12522   */\n    tag_297:\n        /* \"#utility.yul\":12419:12422   */\n      dup2\n        /* \"#utility.yul\":12412:12417   */\n      dup2\n        /* \"#utility.yul\":12409:12423   */\n      lt\n        /* \"#utility.yul\":12402:12522   */\n      iszero\n      tag_299\n      jumpi\n        /* \"#utility.yul\":12473:12512   */\n      tag_300\n        /* \"#utility.yul\":12510:12511   */\n      0x00\n        /* \"#utility.yul\":12503:12508   */\n      dup3\n        /* \"#utility.yul\":12473:12512   */\n      tag_157\n      jump\t// in\n    tag_300:\n        /* \"#utility.yul\":12446:12447   */\n      0x01\n        /* \"#utility.yul\":12439:12444   */\n      dup2\n        /* \"#utility.yul\":12435:12448   */\n      add\n        /* \"#utility.yul\":12426:12448   */\n      swap1\n      pop\n        /* \"#utility.yul\":12402:12522   */\n      jump(tag_297)\n    tag_299:\n        /* \"#utility.yul\":12342:12528   */\n      pop\n      pop\n      jump\t// out\n        /* \"#utility.yul\":12534:13077   */\n    tag_159:\n        /* \"#utility.yul\":12635:12637   */\n      0x1f\n        /* \"#utility.yul\":12630:12633   */\n      dup3\n        /* \"#utility.yul\":12627:12638   */\n      gt\n        /* \"#utility.yul\":12624:13070   */\n      iszero\n      tag_302\n      jumpi\n        /* \"#utility.yul\":12669:12707   */\n      tag_303\n        /* \"#utility.yul\":12701:12706   */\n      dup2\n        /* \"#utility.yul\":12669:12707   */\n      tag_148\n      jump\t// in\n    tag_303:\n        /* \"#utility.yul\":12753:12782   */\n      tag_304\n        /* \"#utility.yul\":12771:12781   */\n      dup5\n        /* \"#utility.yul\":12753:12782   */\n      tag_149\n      jump\t// in\n    tag_304:\n        /* \"#utility.yul\":12743:12751   */\n      dup2\n        /* \"#utility.yul\":12739:12783   */\n      add\n        /* \"#utility.yul\":12936:12938   */\n      0x20\n        /* \"#utility.yul\":12924:12934   */\n      dup6\n        /* \"#utility.yul\":12921:12939   */\n      lt\n        /* \"#utility.yul\":12918:12967   */\n      iszero\n      tag_305\n      jumpi\n        /* \"#utility.yul\":12957:12965   */\n      dup2\n        /* \"#utility.yul\":12942:12965   */\n      swap1\n      pop\n        /* \"#utility.yul\":12918:12967   */\n    tag_305:\n        /* \"#utility.yul\":12980:13060   */\n      tag_306\n        /* \"#utility.yul\":13036:13058   */\n      tag_307\n        /* \"#utility.yul\":13054:13057   */\n      dup6\n        /* \"#utility.yul\":13036:13058   */\n      tag_149\n      jump\t// in\n    tag_307:\n        /* \"#utility.yul\":13026:13034   */\n      dup4\n        /* \"#utility.yul\":13022:13059   */\n      add\n        /* \"#utility.yul\":13009:13020   */\n      dup3\n        /* \"#utility.yul\":12980:13060   */\n      tag_158\n      jump\t// in\n    tag_306:\n        /* \"#utility.yul\":12639:13070   */\n      pop\n      pop\n        /* \"#utility.yul\":12624:13070   */\n    tag_302:\n        /* \"#utility.yul\":12534:13077   */\n      pop\n      pop\n      pop\n      jump\t// out\n        /* \"#utility.yul\":13083:13200   */\n    tag_160:\n        /* \"#utility.yul\":13137:13145   */\n      0x00\n        /* \"#utility.yul\":13187:13192   */\n      dup3\n        /* \"#utility.yul\":13181:13185   */\n      dup3\n        /* \"#utility.yul\":13177:13193   */\n      shr\n        /* \"#utility.yul\":13156:13193   */\n      swap1\n      pop\n        /* \"#utility.yul\":13083:13200   */\n      swap3\n      swap2\n      pop\n      pop\n      jump\t// out\n        /* \"#utility.yul\":13206:13375   */\n    tag_161:\n        /* \"#utility.yul\":13250:13256   */\n      0x00\n        /* \"#utility.yul\":13283:13334   */\n      tag_310\n        /* \"#utility.yul\":13331:13332   */\n      0x00\n        /* \"#utility.yul\":13327:13333   */\n      not\n        /* \"#utility.yul\":13319:13324   */\n      dup5\n        /* \"#utility.yul\":13316:13317   */\n      0x08\n        /* \"#utility.yul\":13312:13325   */\n      mul\n        /* \"#utility.yul\":13283:13334   */\n      tag_160\n      jump\t// in\n    tag_310:\n        /* \"#utility.yul\":13279:13335   */\n      not\n        /* \"#utility.yul\":13364:13368   */\n      dup1\n        /* \"#utility.yul\":13358:13362   */\n      dup4\n        /* \"#utility.yul\":13354:13369   */\n      and\n        /* \"#utility.yul\":13344:13369   */\n      swap2\n      pop\n        /* \"#utility.yul\":13257:13375   */\n      pop\n        /* \"#utility.yul\":13206:13375   */\n      swap3\n      swap2\n      pop\n      pop\n      jump\t// out\n        /* \"#utility.yul\":13380:13675   */\n    tag_162:\n        /* \"#utility.yul\":13456:13460   */\n      0x00\n        /* \"#utility.yul\":13602:13631   */\n      tag_312\n        /* \"#utility.yul\":13627:13630   */\n      dup4\n        /* \"#utility.yul\":13621:13625   */\n      dup4\n        /* \"#utility.yul\":13602:13631   */\n      tag_161\n      jump\t// in\n    tag_312:\n        /* \"#utility.yul\":13594:13631   */\n      swap2\n      pop\n        /* \"#utility.yul\":13664:13667   */\n      dup3\n        /* \"#utility.yul\":13661:13662   */\n      0x02\n        /* \"#utility.yul\":13657:13668   */\n      mul\n        /* \"#utility.yul\":13651:13655   */\n      dup3\n        /* \"#utility.yul\":13648:13669   */\n      or\n        /* \"#utility.yul\":13640:13669   */\n      swap1\n      pop\n        /* \"#utility.yul\":13380:13675   */\n      swap3\n      swap2\n      pop\n      pop\n      jump\t// out\n        /* \"#utility.yul\":13680:15075   */\n    tag_57:\n        /* \"#utility.yul\":13797:13834   */\n      tag_314\n        /* \"#utility.yul\":13830:13833   */\n      dup3\n        /* \"#utility.yul\":13797:13834   */\n      tag_120\n      jump\t// in\n    tag_314:\n        /* \"#utility.yul\":13899:13917   */\n      0xffffffffffffffff\n        /* \"#utility.yul\":13891:13897   */\n      dup2\n        /* \"#utility.yul\":13888:13918   */\n      gt\n        /* \"#utility.yul\":13885:13941   */\n      iszero\n      tag_315\n      jumpi\n        /* \"#utility.yul\":13921:13939   */\n      tag_316\n      tag_137\n      jump\t// in\n    tag_316:\n        /* \"#utility.yul\":13885:13941   */\n    tag_315:\n        /* \"#utility.yul\":13965:14003   */\n      tag_317\n        /* \"#utility.yul\":13997:14001   */\n      dup3\n        /* \"#utility.yul\":13991:14002   */\n      sload\n        /* \"#utility.yul\":13965:14003   */\n      tag_32\n      jump\t// in\n    tag_317:\n        /* \"#utility.yul\":14050:14117   */\n      tag_318\n        /* \"#utility.yul\":14110:14116   */\n      dup3\n        /* \"#utility.yul\":14102:14108   */\n      dup3\n        /* \"#utility.yul\":14096:14100   */\n      dup6\n        /* \"#utility.yul\":14050:14117   */\n      tag_159\n      jump\t// in\n    tag_318:\n        /* \"#utility.yul\":14144:14145   */\n      0x00\n        /* \"#utility.yul\":14168:14172   */\n      0x20\n        /* \"#utility.yul\":14155:14172   */\n      swap1\n      pop\n        /* \"#utility.yul\":14200:14202   */\n      0x1f\n        /* \"#utility.yul\":14192:14198   */\n      dup4\n        /* \"#utility.yul\":14189:14203   */\n      gt\n        /* \"#utility.yul\":14217:14218   */\n      0x01\n        /* \"#utility.yul\":14212:14830   */\n      dup2\n      eq\n      tag_320\n      jumpi\n        /* \"#utility.yul\":14874:14875   */\n      0x00\n        /* \"#utility.yul\":14891:14897   */\n      dup5\n        /* \"#utility.yul\":14888:14965   */\n      iszero\n      tag_321\n      jumpi\n        /* \"#utility.yul\":14940:14949   */\n      dup3\n        /* \"#utility.yul\":14935:14938   */\n      dup8\n        /* \"#utility.yul\":14931:14950   */\n      add\n        /* \"#utility.yul\":14925:14951   */\n      mload\n        /* \"#utility.yul\":14916:14951   */\n      swap1\n      pop\n        /* \"#utility.yul\":14888:14965   */\n    tag_321:\n        /* \"#utility.yul\":14991:15058   */\n      tag_322\n        /* \"#utility.yul\":15051:15057   */\n      dup6\n        /* \"#utility.yul\":15044:15049   */\n      dup3\n        /* \"#utility.yul\":14991:15058   */\n      tag_162\n      jump\t// in\n    tag_322:\n        /* \"#utility.yul\":14985:14989   */\n      dup7\n        /* \"#utility.yul\":14978:15059   */\n      sstore\n        /* \"#utility.yul\":14847:15069   */\n      pop\n        /* \"#utility.yul\":14182:15069   */\n      jump(tag_319)\n        /* \"#utility.yul\":14212:14830   */\n    tag_320:\n        /* \"#utility.yul\":14264:14268   */\n      0x1f\n        /* \"#utility.yul\":14260:14269   */\n      not\n        /* \"#utility.yul\":14252:14258   */\n      dup5\n        /* \"#utility.yul\":14248:14270   */\n      and\n        /* \"#utility.yul\":14298:14335   */\n      tag_323\n        /* \"#utility.yul\":14330:14334   */\n      dup7\n        /* \"#utility.yul\":14298:14335   */\n      tag_148\n      jump\t// in\n    tag_323:\n        /* \"#utility.yul\":14357:14358   */\n      0x00\n        /* \"#utility.yul\":14371:14579   */\n    tag_324:\n        /* \"#utility.yul\":14385:14392   */\n      dup3\n        /* \"#utility.yul\":14382:14383   */\n      dup2\n        /* \"#utility.yul\":14379:14393   */\n      lt\n        /* \"#utility.yul\":14371:14579   */\n      iszero\n      tag_326\n      jumpi\n        /* \"#utility.yul\":14464:14473   */\n      dup5\n        /* \"#utility.yul\":14459:14462   */\n      dup10\n        /* \"#utility.yul\":14455:14474   */\n      add\n        /* \"#utility.yul\":14449:14475   */\n      mload\n        /* \"#utility.yul\":14441:14447   */\n      dup3\n        /* \"#utility.yul\":14434:14476   */\n      sstore\n        /* \"#utility.yul\":14515:14516   */\n      0x01\n        /* \"#utility.yul\":14507:14513   */\n      dup3\n        /* \"#utility.yul\":14503:14517   */\n      add\n        /* \"#utility.yul\":14493:14517   */\n      swap2\n      pop\n        /* \"#utility.yul\":14562:14564   */\n      0x20\n        /* \"#utility.yul\":14551:14560   */\n      dup6\n        /* \"#utility.yul\":14547:14565   */\n      add\n        /* \"#utility.yul\":14534:14565   */\n      swap5\n      pop\n        /* \"#utility.yul\":14408:14412   */\n      0x20\n        /* \"#utility.yul\":14405:14406   */\n      dup2\n        /* \"#utility.yul\":14401:14413   */\n      add\n        /* \"#utility.yul\":14396:14413   */\n      swap1\n      pop\n        /* \"#utility.yul\":14371:14579   */\n      jump(tag_324)\n    tag_326:\n        /* \"#utility.yul\":14607:14613   */\n      dup7\n        /* \"#utility.yul\":14598:14605   */\n      dup4\n        /* \"#utility.yul\":14595:14614   */\n      lt\n        /* \"#utility.yul\":14592:14771   */\n      iszero\n      tag_327\n      jumpi\n        /* \"#utility.yul\":14665:14674   */\n      dup5\n        /* \"#utility.yul\":14660:14663   */\n      dup10\n        /* \"#utility.yul\":14656:14675   */\n      add\n        /* \"#utility.yul\":14650:14676   */\n      mload\n        /* \"#utility.yul\":14708:14756   */\n      tag_328\n        /* \"#utility.yul\":14750:14754   */\n      0x1f\n        /* \"#utility.yul\":14742:14748   */\n      dup10\n        /* \"#utility.yul\":14738:14755   */\n      and\n        /* \"#utility.yul\":14727:14736   */\n      dup3\n        /* \"#utility.yul\":14708:14756   */\n      tag_161\n      jump\t// in\n    tag_328:\n        /* \"#utility.yul\":14700:14706   */\n      dup4\n        /* \"#utility.yul\":14693:14757   */\n      sstore\n        /* \"#utility.yul\":14615:14771   */\n      pop\n        /* \"#utility.yul\":14592:14771   */\n    tag_327:\n        /* \"#utility.yul\":14817:14818   */\n      0x01\n        /* \"#utility.yul\":14813:14814   */\n      0x02\n        /* \"#utility.yul\":14805:14811   */\n      dup9\n        /* \"#utility.yul\":14801:14815   */\n      mul\n        /* \"#utility.yul\":14797:14819   */\n      add\n        /* \"#utility.yul\":14791:14795   */\n      dup9\n        /* \"#utility.yul\":14784:14820   */\n      sstore\n        /* \"#utility.yul\":14219:14830   */\n      pop\n      pop\n      pop\n        /* \"#utility.yul\":14182:15069   */\n    tag_319:\n      pop\n        /* \"#utility.yul\":13772:15075   */\n      pop\n      pop\n      pop\n        /* \"#utility.yul\":13680:15075   */\n      pop\n      pop\n      jump\t// out\n        /* \"#utility.yul\":15081:15230   */\n    tag_163:\n        /* \"#utility.yul\":15130:15136   */\n      0x00\n        /* \"#utility.yul\":15164:15169   */\n      dup2\n        /* \"#utility.yul\":15158:15170   */\n      sload\n        /* \"#utility.yul\":15148:15170   */\n      swap1\n      pop\n        /* \"#utility.yul\":15190:15223   */\n      tag_330\n        /* \"#utility.yul\":15216:15222   */\n      dup2\n        /* \"#utility.yul\":15190:15223   */\n      tag_32\n      jump\t// in\n    tag_330:\n        /* \"#utility.yul\":15180:15223   */\n      swap1\n      pop\n        /* \"#utility.yul\":15081:15230   */\n      swap2\n      swap1\n      pop\n      jump\t// out\n        /* \"#utility.yul\":15236:16687   */\n    tag_61:\n        /* \"#utility.yul\":15347:15350   */\n      dup2\n        /* \"#utility.yul\":15341:15345   */\n      dup2\n        /* \"#utility.yul\":15338:15351   */\n      sub\n        /* \"#utility.yul\":15335:15361   */\n      tag_332\n      jumpi\n        /* \"#utility.yul\":15354:15359   */\n      pop\n      pop\n      jump(tag_331)\n        /* \"#utility.yul\":15335:15361   */\n    tag_332:\n        /* \"#utility.yul\":15385:15419   */\n      tag_333\n        /* \"#utility.yul\":15415:15418   */\n      dup3\n        /* \"#utility.yul\":15385:15419   */\n      tag_163\n      jump\t// in\n    tag_333:\n        /* \"#utility.yul\":15484:15502   */\n      0xffffffffffffffff\n        /* \"#utility.yul\":15476:15482   */\n      dup2\n        /* \"#utility.yul\":15473:15503   */\n      gt\n        /* \"#utility.yul\":15470:15526   */\n      iszero\n      tag_334\n      jumpi\n        /* \"#utility.yul\":15506:15524   */\n      tag_335\n      tag_137\n      jump\t// in\n    tag_335:\n        /* \"#utility.yul\":15470:15526   */\n    tag_334:\n        /* \"#utility.yul\":15550:15588   */\n      tag_336\n        /* \"#utility.yul\":15582:15586   */\n      dup3\n        /* \"#utility.yul\":15576:15587   */\n      sload\n        /* \"#utility.yul\":15550:15588   */\n      tag_32\n      jump\t// in\n    tag_336:\n        /* \"#utility.yul\":15635:15702   */\n      tag_337\n        /* \"#utility.yul\":15695:15701   */\n      dup3\n        /* \"#utility.yul\":15687:15693   */\n      dup3\n        /* \"#utility.yul\":15681:15685   */\n      dup6\n        /* \"#utility.yul\":15635:15702   */\n      tag_159\n      jump\t// in\n    tag_337:\n        /* \"#utility.yul\":15729:15730   */\n      0x00\n        /* \"#utility.yul\":15758:15760   */\n      0x1f\n        /* \"#utility.yul\":15750:15756   */\n      dup4\n        /* \"#utility.yul\":15747:15761   */\n      gt\n        /* \"#utility.yul\":15775:15776   */\n      0x01\n        /* \"#utility.yul\":15770:16442   */\n      dup2\n      eq\n      tag_339\n      jumpi\n        /* \"#utility.yul\":16486:16487   */\n      0x00\n        /* \"#utility.yul\":16503:16509   */\n      dup5\n        /* \"#utility.yul\":16500:16577   */\n      iszero\n      tag_340\n      jumpi\n        /* \"#utility.yul\":16552:16561   */\n      dup3\n        /* \"#utility.yul\":16547:16550   */\n      dup8\n        /* \"#utility.yul\":16543:16562   */\n      add\n        /* \"#utility.yul\":16537:16563   */\n      sload\n        /* \"#utility.yul\":16528:16563   */\n      swap1\n      pop\n        /* \"#utility.yul\":16500:16577   */\n    tag_340:\n        /* \"#utility.yul\":16603:16670   */\n      tag_341\n        /* \"#utility.yul\":16663:16669   */\n      dup6\n        /* \"#utility.yul\":16656:16661   */\n      dup3\n        /* \"#utility.yul\":16603:16670   */\n      tag_162\n      jump\t// in\n    tag_341:\n        /* \"#utility.yul\":16597:16601   */\n      dup7\n        /* \"#utility.yul\":16590:16671   */\n      sstore\n        /* \"#utility.yul\":16459:16681   */\n      pop\n        /* \"#utility.yul\":15740:16681   */\n      jump(tag_338)\n        /* \"#utility.yul\":15770:16442   */\n    tag_339:\n        /* \"#utility.yul\":15822:15826   */\n      0x1f\n        /* \"#utility.yul\":15818:15827   */\n      not\n        /* \"#utility.yul\":15810:15816   */\n      dup5\n        /* \"#utility.yul\":15806:15828   */\n      and\n        /* \"#utility.yul\":15848:15884   */\n      tag_342\n        /* \"#utility.yul\":15880:15883   */\n      dup8\n        /* \"#utility.yul\":15848:15884   */\n      tag_148\n      jump\t// in\n    tag_342:\n        /* \"#utility.yul\":15841:15884   */\n      swap7\n      pop\n        /* \"#utility.yul\":15911:15948   */\n      tag_343\n        /* \"#utility.yul\":15943:15947   */\n      dup7\n        /* \"#utility.yul\":15911:15948   */\n      tag_148\n      jump\t// in\n    tag_343:\n        /* \"#utility.yul\":15970:15971   */\n      0x00\n        /* \"#utility.yul\":15984:16191   */\n    tag_344:\n        /* \"#utility.yul\":15998:16005   */\n      dup3\n        /* \"#utility.yul\":15995:15996   */\n      dup2\n        /* \"#utility.yul\":15992:16006   */\n      lt\n        /* \"#utility.yul\":15984:16191   */\n      iszero\n      tag_346\n      jumpi\n        /* \"#utility.yul\":16077:16086   */\n      dup5\n        /* \"#utility.yul\":16072:16075   */\n      dup10\n        /* \"#utility.yul\":16068:16087   */\n      add\n        /* \"#utility.yul\":16062:16088   */\n      sload\n        /* \"#utility.yul\":16054:16060   */\n      dup3\n        /* \"#utility.yul\":16047:16089   */\n      sstore\n        /* \"#utility.yul\":16128:16129   */\n      0x01\n        /* \"#utility.yul\":16120:16126   */\n      dup3\n        /* \"#utility.yul\":16116:16130   */\n      add\n        /* \"#utility.yul\":16106:16130   */\n      swap2\n      pop\n        /* \"#utility.yul\":16175:16176   */\n      0x01\n        /* \"#utility.yul\":16164:16173   */\n      dup6\n        /* \"#utility.yul\":16160:16177   */\n      add\n        /* \"#utility.yul\":16147:16177   */\n      swap5\n      pop\n        /* \"#utility.yul\":16021:16025   */\n      0x20\n        /* \"#utility.yul\":16018:16019   */\n      dup2\n        /* \"#utility.yul\":16014:16026   */\n      add\n        /* \"#utility.yul\":16009:16026   */\n      swap1\n      pop\n        /* \"#utility.yul\":15984:16191   */\n      jump(tag_344)\n    tag_346:\n        /* \"#utility.yul\":16219:16225   */\n      dup7\n        /* \"#utility.yul\":16210:16217   */\n      dup4\n        /* \"#utility.yul\":16207:16226   */\n      lt\n        /* \"#utility.yul\":16204:16383   */\n      iszero\n      tag_347\n      jumpi\n        /* \"#utility.yul\":16277:16286   */\n      dup5\n        /* \"#utility.yul\":16272:16275   */\n      dup10\n        /* \"#utility.yul\":16268:16287   */\n      add\n        /* \"#utility.yul\":16262:16288   */\n      sload\n        /* \"#utility.yul\":16320:16368   */\n      tag_348\n        /* \"#utility.yul\":16362:16366   */\n      0x1f\n        /* \"#utility.yul\":16354:16360   */\n      dup10\n        /* \"#utility.yul\":16350:16367   */\n      and\n        /* \"#utility.yul\":16339:16348   */\n      dup3\n        /* \"#utility.yul\":16320:16368   */\n      tag_161\n      jump\t// in\n    tag_348:\n        /* \"#utility.yul\":16312:16318   */\n      dup4\n        /* \"#utility.yul\":16305:16369   */\n      sstore\n        /* \"#utility.yul\":16227:16383   */\n      pop\n        /* \"#utility.yul\":16204:16383   */\n    tag_347:\n        /* \"#utility.yul\":16429:16430   */\n      0x01\n        /* \"#utility.yul\":16425:16426   */\n      0x02\n        /* \"#utility.yul\":16417:16423   */\n      dup9\n        /* \"#utility.yul\":16413:16427   */\n      mul\n        /* \"#utility.yul\":16409:16431   */\n      add\n        /* \"#utility.yul\":16403:16407   */\n      dup9\n        /* \"#utility.yul\":16396:16432   */\n      sstore\n        /* \"#utility.yul\":15777:16442   */\n      pop\n      pop\n      pop\n        /* \"#utility.yul\":15740:16681   */\n    tag_338:\n      pop\n        /* \"#utility.yul\":15325:16687   */\n      pop\n      pop\n      pop\n        /* \"#utility.yul\":15236:16687   */\n      pop\n      pop\n    tag_331:\n      jump\t// out\n        /* \"#utility.yul\":16693:16873   */\n    tag_164:\n        /* \"#utility.yul\":16741:16818   */\n      0x4e487b7100000000000000000000000000000000000000000000000000000000\n        /* \"#utility.yul\":16738:16739   */\n      0x00\n        /* \"#utility.yul\":16731:16819   */\n      mstore\n        /* \"#utility.yul\":16838:16842   */\n      0x11\n        /* \"#utility.yul\":16835:16836   */\n      0x04\n        /* \"#utility.yul\":16828:16843   */\n      mstore\n        /* \"#utility.yul\":16862:16866   */\n      0x24\n        /* \"#utility.yul\":16859:16860   */\n      0x00\n        /* \"#utility.yul\":16852:16867   */\n      revert\n        /* \"#utility.yul\":16879:17112   */\n    tag_66:\n        /* \"#utility.yul\":16918:16921   */\n      0x00\n        /* \"#utility.yul\":16941:16965   */\n      tag_351\n        /* \"#utility.yul\":16959:16964   */\n      dup3\n        /* \"#utility.yul\":16941:16965   */\n      tag_144\n      jump\t// in\n    tag_351:\n        /* \"#utility.yul\":16932:16965   */\n      swap2\n      pop\n        /* \"#utility.yul\":16987:17053   */\n      0xffffffffffffffffffffffffffffffffffffffffffffffffffffffffffffffff\n        /* \"#utility.yul\":16980:16985   */\n      dup3\n        /* \"#utility.yul\":16977:17054   */\n      sub\n        /* \"#utility.yul\":16974:17077   */\n      tag_352\n      jumpi\n        /* \"#utility.yul\":17057:17075   */\n      tag_353\n      tag_164\n      jump\t// in\n    tag_353:\n        /* \"#utility.yul\":16974:17077   */\n    tag_352:\n        /* \"#utility.yul\":17104:17105   */\n      0x01\n        /* \"#utility.yul\":17097:17102   */\n      dup3\n        /* \"#utility.yul\":17093:17106   */\n      add\n        /* \"#utility.yul\":17086:17106   */\n      swap1\n      pop\n        /* \"#utility.yul\":16879:17112   */\n      swap2\n      swap1\n      pop\n      jump\t// out\n        /* \"#utility.yul\":17118:17298   */\n    tag_77:\n        /* \"#utility.yul\":17166:17243   */\n      0x4e487b7100000000000000000000000000000000000000000000000000000000\n        /* \"#utility.yul\":17163:17164   */\n      0x00\n        /* \"#utility.yul\":17156:17244   */\n      mstore\n        /* \"#utility.yul\":17263:17267   */\n      0x32\n        /* \"#utility.yul\":17260:17261   */\n      0x04\n        /* \"#utility.yul\":17253:17268   */\n      mstore\n        /* \"#utility.yul\":17287:17291   */\n      0x24\n        /* \"#utility.yul\":17284:17285   */\n      0x00\n        /* \"#utility.yul\":17277:17292   */\n      revert\n        /* \"#utility.yul\":17304:17498   */\n    tag_90:\n        /* \"#utility.yul\":17344:17348   */\n      0x00\n        /* \"#utility.yul\":17364:17384   */\n      tag_356\n        /* \"#utility.yul\":17382:17383   */\n      dup3\n        /* \"#utility.yul\":17364:17384   */\n      tag_144\n      jump\t// in\n    tag_356:\n        /* \"#utility.yul\":17359:17384   */\n      swap2\n      pop\n        /* \"#utility.yul\":17398:17418   */\n      tag_357\n        /* \"#utility.yul\":17416:17417   */\n      dup4\n        /* \"#utility.yul\":17398:17418   */\n      tag_144\n      jump\t// in\n    tag_357:\n        /* \"#utility.yul\":17393:17418   */\n      swap3\n      pop\n        /* \"#utility.yul\":17442:17443   */\n      dup3\n        /* \"#utility.yul\":17439:17440   */\n      dup3\n        /* \"#utility.yul\":17435:17444   */\n      sub\n        /* \"#utility.yul\":17427:17444   */\n      swap1\n      pop\n        /* \"#utility.yul\":17466:17467   */\n      dup2\n        /* \"#utility.yul\":17460:17464   */\n      dup2\n        /* \"#utility.yul\":17457:17468   */\n      gt\n        /* \"#utility.yul\":17454:17491   */\n      iszero\n      tag_358\n      jumpi\n        /* \"#utility.yul\":17471:17489   */\n      tag_359\n      tag_164\n      jump\t// in\n    tag_359:\n        /* \"#utility.yul\":17454:17491   */\n    tag_358:\n        /* \"#utility.yul\":17304:17498   */\n      swap3\n      swap2\n      pop\n      pop\n      jump\t// out\n        /* \"#utility.yul\":17504:17684   */\n    tag_100:\n        /* \"#utility.yul\":17552:17629   */\n      0x4e487b7100000000000000000000000000000000000000000000000000000000\n        /* \"#utility.yul\":17549:17550   */\n      0x00\n        /* \"#utility.yul\":17542:17630   */\n      mstore\n        /* \"#utility.yul\":17649:17653   */\n      0x31\n        /* \"#utility.yul\":17646:17647   */\n      0x04\n        /* \"#utility.yul\":17639:17654   */\n      mstore\n        /* \"#utility.yul\":17673:17677   */\n      0x24\n        /* \"#utility.yul\":17670:17671   */\n      0x00\n        /* \"#utility.yul\":17663:17678   */\n      revert\n\n    auxdata: 0xa264697066735822122053dae20b3500fe4f1f9b7b77ed1d6584aaf4a9aaf46069ed25971b206c226f5f64736f6c63430008100033\n}\n","bytecode":{"linkReferences":{},"object":"60806040526000600755600060085534801561001a57600080fd5b50611a458061002a6000396000f3fe608060405234801561001057600080fd5b506004361061004c5760003560e01c80631e0f71fe14610051578063285389491461008157806339fec887146100b157806395caa166146100cd575b600080fd5b61006b60048036038101906100669190611089565b6100e9565b60405161007891906112a8565b60405180910390f35b61009b600480360381019061009691906112f6565b6103b6565b6040516100a891906112a8565b60405180910390f35b6100cb60048036038101906100c69190611458565b610557565b005b6100e760048036038101906100e291906114fd565b610b71565b005b60608115610253576004805480602002602001604051908101604052809291908181526020016000905b82821015610248578382906000526020600020906002020160405180606001604052908160008201805461014690611559565b80601f016020809104026020016040519081016040528092919081815260200182805461017290611559565b80156101bf5780601f10610194576101008083540402835291602001916101bf565b820191906000526020600020905b8154815290600101906020018083116101a257829003601f168201915b505050505081526020016001820160009054906101000a900473ffffffffffffffffffffffffffffffffffffffff1673ffffffffffffffffffffffffffffffffffffffff1673ffffffffffffffffffffffffffffffffffffffff1681526020016001820160149054906101000a900460ff16151515158152505081526020019060010190610113565b5050505090506103b1565b6002805480602002602001604051908101604052809291908181526020016000905b828210156103aa57838290600052602060002090600202016040518060600160405290816000820180546102a890611559565b80601f01602080910402602001604051908101604052809291908181526020018280546102d490611559565b80156103215780601f106102f657610100808354040283529160200191610321565b820191906000526020600020905b81548152906001019060200180831161030457829003601f168201915b505050505081526020016001820160009054906101000a900473ffffffffffffffffffffffffffffffffffffffff1673ffffffffffffffffffffffffffffffffffffffff1673ffffffffffffffffffffffffffffffffffffffff1681526020016001820160149054906101000a900460ff16151515158152505081526020019060010190610275565b5050505090505b919050565b6060600360008373ffffffffffffffffffffffffffffffffffffffff1673ffffffffffffffffffffffffffffffffffffffff168152602001908152602001600020805480602002602001604051908101604052809291908181526020016000905b8282101561054c578382906000526020600020906002020160405180606001604052908160008201805461044a90611559565b80601f016020809104026020016040519081016040528092919081815260200182805461047690611559565b80156104c35780601f10610498576101008083540402835291602001916104c3565b820191906000526020600020905b8154815290600101906020018083116104a657829003601f168201915b505050505081526020016001820160009054906101000a900473ffffffffffffffffffffffffffffffffffffffff1673ffffffffffffffffffffffffffffffffffffffff1673ffffffffffffffffffffffffffffffffffffffff1681526020016001820160149054906101000a900460ff16151515158152505081526020019060010190610417565b505050509050919050565b826000800190816105689190611736565b5081600060010160006101000a81548173ffffffffffffffffffffffffffffffffffffffff021916908373ffffffffffffffffffffffffffffffffffffffff16021790555080600060010160146101000a81548160ff02191690831515021790555060011515811515146108a35760026000908060018154018082558091505060019003906000526020600020906002020160009091909190915060008201816000019081610617919061181e565b506001820160009054906101000a900473ffffffffffffffffffffffffffffffffffffffff168160010160006101000a81548173ffffffffffffffffffffffffffffffffffffffff021916908373ffffffffffffffffffffffffffffffffffffffff1602179055506001820160149054906101000a900460ff168160010160146101000a81548160ff0219169083151502179055505050600360008373ffffffffffffffffffffffffffffffffffffffff1673ffffffffffffffffffffffffffffffffffffffff168152602001908152602001600020600090806001815401808255809150506001900390600052602060002090600202016000909190919091506000820181600001908161072c919061181e565b506001820160009054906101000a900473ffffffffffffffffffffffffffffffffffffffff168160010160006101000a81548173ffffffffffffffffffffffffffffffffffffffff021916908373ffffffffffffffffffffffffffffffffffffffff1602179055506001820160149054906101000a900460ff168160010160146101000a81548160ff02191690831515021790555050506000600660006008548152602001908152602001600020600082018160000190816107ee919061181e565b506001820160009054906101000a900473ffffffffffffffffffffffffffffffffffffffff168160010160006101000a81548173ffffffffffffffffffffffffffffffffffffffff021916908373ffffffffffffffffffffffffffffffffffffffff1602179055506001820160149054906101000a900460ff168160010160146101000a81548160ff0219169083151502179055509050506008600081548092919061089990611935565b9190505550610b6c565b600460009080600181540180825580915050600190039060005260206000209060020201600090919091909150600082018160000190816108e4919061181e565b506001820160009054906101000a900473ffffffffffffffffffffffffffffffffffffffff168160010160006101000a81548173ffffffffffffffffffffffffffffffffffffffff021916908373ffffffffffffffffffffffffffffffffffffffff1602179055506001820160149054906101000a900460ff168160010160146101000a81548160ff0219169083151502179055505050600560008373ffffffffffffffffffffffffffffffffffffffff1673ffffffffffffffffffffffffffffffffffffffff16815260200190815260200160002060009080600181540180825580915050600190039060005260206000209060020201600090919091909150600082018160000190816109f9919061181e565b506001820160009054906101000a900473ffffffffffffffffffffffffffffffffffffffff168160010160006101000a81548173ffffffffffffffffffffffffffffffffffffffff021916908373ffffffffffffffffffffffffffffffffffffffff1602179055506001820160149054906101000a900460ff168160010160146101000a81548160ff0219169083151502179055505050600060066000600754815260200190815260200160002060008201816000019081610abb919061181e565b506001820160009054906101000a900473ffffffffffffffffffffffffffffffffffffffff168160010160006101000a81548173ffffffffffffffffffffffffffffffffffffffff021916908373ffffffffffffffffffffffffffffffffffffffff1602179055506001820160149054906101000a900460ff168160010160146101000a81548160ff02191690831515021790555090505060076000815480929190610b6690611935565b91905055505b505050565b600060048281548110610b8757610b8661197d565b5b9060005260206000209060020201604051806060016040529081600082018054610bb090611559565b80601f0160208091040260200160405190810160405280929190818152602001828054610bdc90611559565b8015610c295780601f10610bfe57610100808354040283529160200191610c29565b820191906000526020600020905b815481529060010190602001808311610c0c57829003601f168201915b505050505081526020016001820160009054906101000a900473ffffffffffffffffffffffffffffffffffffffff1673ffffffffffffffffffffffffffffffffffffffff1673ffffffffffffffffffffffffffffffffffffffff1681526020016001820160149054906101000a900460ff1615151515815250509050600081604001901515908115158152505060028190806001815401808255809150506001900390600052602060002090600202016000909190919091506000820151816000019081610cf79190611736565b5060208201518160010160006101000a81548173ffffffffffffffffffffffffffffffffffffffff021916908373ffffffffffffffffffffffffffffffffffffffff16021790555060408201518160010160146101000a81548160ff021916908315150217905550505060086000815480929190610d7490611935565b919050555060036000826020015173ffffffffffffffffffffffffffffffffffffffff1673ffffffffffffffffffffffffffffffffffffffff1681526020019081526020016000208190806001815401808255809150506001900390600052602060002090600202016000909190919091506000820151816000019081610dfb9190611736565b5060208201518160010160006101000a81548173ffffffffffffffffffffffffffffffffffffffff021916908373ffffffffffffffffffffffffffffffffffffffff16021790555060408201518160010160146101000a81548160ff021916908315150217905550505060046001600480549050610e7991906119ac565b81548110610e8a57610e8961197d565b5b906000526020600020906002020160048381548110610eac57610eab61197d565b5b906000526020600020906002020160008201816000019081610ece919061181e565b506001820160009054906101000a900473ffffffffffffffffffffffffffffffffffffffff168160010160006101000a81548173ffffffffffffffffffffffffffffffffffffffff021916908373ffffffffffffffffffffffffffffffffffffffff1602179055506001820160149054906101000a900460ff168160010160146101000a81548160ff0219169083151502179055509050506004805480610f7857610f776119e0565b5b600190038181906000526020600020906002020160008082016000610f9d9190610fe0565b6001820160006101000a81549073ffffffffffffffffffffffffffffffffffffffff02191690556001820160146101000a81549060ff0219169055505090555050565b508054610fec90611559565b6000825580601f10610ffe575061101d565b601f01602090049060005260206000209081019061101c9190611020565b5b50565b5b80821115611039576000816000905550600101611021565b5090565b6000604051905090565b600080fd5b600080fd5b60008115159050919050565b61106681611051565b811461107157600080fd5b50565b6000813590506110838161105d565b92915050565b60006020828403121561109f5761109e611047565b5b60006110ad84828501611074565b91505092915050565b600081519050919050565b600082825260208201905092915050565b6000819050602082019050919050565b600081519050919050565b600082825260208201905092915050565b60005b8381101561111c578082015181840152602081019050611101565b60008484015250505050565b6000601f19601f8301169050919050565b6000611144826110e2565b61114e81856110ed565b935061115e8185602086016110fe565b61116781611128565b840191505092915050565b600073ffffffffffffffffffffffffffffffffffffffff82169050919050565b600061119d82611172565b9050919050565b6111ad81611192565b82525050565b6111bc81611051565b82525050565b600060608301600083015184820360008601526111df8282611139565b91505060208301516111f460208601826111a4565b50604083015161120760408601826111b3565b508091505092915050565b600061121e83836111c2565b905092915050565b6000602082019050919050565b600061123e826110b6565b61124881856110c1565b93508360208202850161125a856110d2565b8060005b8581101561129657848403895281516112778582611212565b945061128283611226565b925060208a0199505060018101905061125e565b50829750879550505050505092915050565b600060208201905081810360008301526112c28184611233565b905092915050565b6112d381611192565b81146112de57600080fd5b50565b6000813590506112f0816112ca565b92915050565b60006020828403121561130c5761130b611047565b5b600061131a848285016112e1565b91505092915050565b600080fd5b600080fd5b7f4e487b7100000000000000000000000000000000000000000000000000000000600052604160045260246000fd5b61136582611128565b810181811067ffffffffffffffff821117156113845761138361132d565b5b80604052505050565b600061139761103d565b90506113a3828261135c565b919050565b600067ffffffffffffffff8211156113c3576113c261132d565b5b6113cc82611128565b9050602081019050919050565b82818337600083830152505050565b60006113fb6113f6846113a8565b61138d565b90508281526020810184848401111561141757611416611328565b5b6114228482856113d9565b509392505050565b600082601f83011261143f5761143e611323565b5b813561144f8482602086016113e8565b91505092915050565b60008060006060848603121561147157611470611047565b5b600084013567ffffffffffffffff81111561148f5761148e61104c565b5b61149b8682870161142a565b93505060206114ac868287016112e1565b92505060406114bd86828701611074565b9150509250925092565b6000819050919050565b6114da816114c7565b81146114e557600080fd5b50565b6000813590506114f7816114d1565b92915050565b60006020828403121561151357611512611047565b5b6000611521848285016114e8565b91505092915050565b7f4e487b7100000000000000000000000000000000000000000000000000000000600052602260045260246000fd5b6000600282049050600182168061157157607f821691505b6020821081036115845761158361152a565b5b50919050565b60008190508160005260206000209050919050565b60006020601f8301049050919050565b600082821b905092915050565b6000600883026115ec7fffffffffffffffffffffffffffffffffffffffffffffffffffffffffffffffff826115af565b6115f686836115af565b95508019841693508086168417925050509392505050565b6000819050919050565b600061163361162e611629846114c7565b61160e565b6114c7565b9050919050565b6000819050919050565b61164d83611618565b6116616116598261163a565b8484546115bc565b825550505050565b600090565b611676611669565b611681818484611644565b505050565b5b818110156116a55761169a60008261166e565b600181019050611687565b5050565b601f8211156116ea576116bb8161158a565b6116c48461159f565b810160208510156116d3578190505b6116e76116df8561159f565b830182611686565b50505b505050565b600082821c905092915050565b600061170d600019846008026116ef565b1980831691505092915050565b600061172683836116fc565b9150826002028217905092915050565b61173f826110e2565b67ffffffffffffffff8111156117585761175761132d565b5b6117628254611559565b61176d8282856116a9565b600060209050601f8311600181146117a0576000841561178e578287015190505b611798858261171a565b865550611800565b601f1984166117ae8661158a565b60005b828110156117d6578489015182556001820191506020850194506020810190506117b1565b868310156117f357848901516117ef601f8916826116fc565b8355505b6001600288020188555050505b505050505050565b60008154905061181781611559565b9050919050565b81810361182c575050611904565b61183582611808565b67ffffffffffffffff81111561184e5761184d61132d565b5b6118588254611559565b6118638282856116a9565b6000601f8311600181146118925760008415611880578287015490505b61188a858261171a565b8655506118fd565b601f1984166118a08761158a565b96506118ab8661158a565b60005b828110156118d3578489015482556001820191506001850194506020810190506118ae565b868310156118f057848901546118ec601f8916826116fc565b8355505b6001600288020188555050505b5050505050505b565b7f4e487b7100000000000000000000000000000000000000000000000000000000600052601160045260246000fd5b6000611940826114c7565b91507fffffffffffffffffffffffffffffffffffffffffffffffffffffffffffffffff820361197257611971611906565b5b600182019050919050565b7f4e487b7100000000000000000000000000000000000000000000000000000000600052603260045260246000fd5b60006119b7826114c7565b91506119c2836114c7565b92508282039050818111156119da576119d9611906565b5b92915050565b7f4e487b7100000000000000000000000000000000000000000000000000000000600052603160045260246000fdfea264697066735822122053dae20b3500fe4f1f9b7b77ed1d6584aaf4a9aaf46069ed25971b206c226f5f64736f6c63430008100033","opcodes":"PUSH1 0x80 PUSH1 0x40 MSTORE PUSH1 0x0 PUSH1 0x7 SSTORE PUSH1 0x0 PUSH1 0x8 SSTORE CALLVALUE DUP1 ISZERO PUSH2 0x1A JUMPI PUSH1 0x0 DUP1 REVERT JUMPDEST POP PUSH2 0x1A45 DUP1 PUSH2 0x2A PUSH1 0x0 CODECOPY PUSH1 0x0 RETURN INVALID PUSH1 0x80 PUSH1 0x40 MSTORE CALLVALUE DUP1 ISZERO PUSH2 0x10 JUMPI PUSH1 0x0 DUP1 REVERT JUMPDEST POP PUSH1 0x4 CALLDATASIZE LT PUSH2 0x4C JUMPI PUSH1 0x0 CALLDATALOAD PUSH1 0xE0 SHR DUP1 PUSH4 0x1E0F71FE EQ PUSH2 0x51 JUMPI DUP1 PUSH4 0x28538949 EQ PUSH2 0x81 JUMPI DUP1 PUSH4 0x39FEC887 EQ PUSH2 0xB1 JUMPI DUP1 PUSH4 0x95CAA166 EQ PUSH2 0xCD JUMPI JUMPDEST PUSH1 0x0 DUP1 REVERT JUMPDEST PUSH2 0x6B PUSH1 0x4 DUP1 CALLDATASIZE SUB DUP2 ADD SWAP1 PUSH2 0x66 SWAP2 SWAP1 PUSH2 0x1089 JUMP JUMPDEST PUSH2 0xE9 JUMP JUMPDEST PUSH1 0x40 MLOAD PUSH2 0x78 SWAP2 SWAP1 PUSH2 0x12A8 JUMP JUMPDEST PUSH1 0x40 MLOAD DUP1 SWAP2 SUB SWAP1 RETURN JUMPDEST PUSH2 0x9B PUSH1 0x4 DUP1 CALLDATASIZE SUB DUP2 ADD SWAP1 PUSH2 0x96 SWAP2 SWAP1 PUSH2 0x12F6 JUMP JUMPDEST PUSH2 0x3B6 JUMP JUMPDEST PUSH1 0x40 MLOAD PUSH2 0xA8 SWAP2 SWAP1 PUSH2 0x12A8 JUMP JUMPDEST PUSH1 0x40 MLOAD DUP1 SWAP2 SUB SWAP1 RETURN JUMPDEST PUSH2 0xCB PUSH1 0x4 DUP1 CALLDATASIZE SUB DUP2 ADD SWAP1 PUSH2 0xC6 SWAP2 SWAP1 PUSH2 0x1458 JUMP JUMPDEST PUSH2 0x557 JUMP JUMPDEST STOP JUMPDEST PUSH2 0xE7 PUSH1 0x4 DUP1 CALLDATASIZE SUB DUP2 ADD SWAP1 PUSH2 0xE2 SWAP2 SWAP1 PUSH2 0x14FD JUMP JUMPDEST PUSH2 0xB71 JUMP JUMPDEST STOP JUMPDEST PUSH1 0x60 DUP2 ISZERO PUSH2 0x253 JUMPI PUSH1 0x4 DUP1 SLOAD DUP1 PUSH1 0x20 MUL PUSH1 0x20 ADD PUSH1 0x40 MLOAD SWAP1 DUP2 ADD PUSH1 0x40 MSTORE DUP1 SWAP3 SWAP2 SWAP1 DUP2 DUP2 MSTORE PUSH1 0x20 ADD PUSH1 0x0 SWAP1 JUMPDEST DUP3 DUP3 LT ISZERO PUSH2 0x248 JUMPI DUP4 DUP3 SWAP1 PUSH1 0x0 MSTORE PUSH1 0x20 PUSH1 0x0 KECCAK256 SWAP1 PUSH1 0x2 MUL ADD PUSH1 0x40 MLOAD DUP1 PUSH1 0x60 ADD PUSH1 0x40 MSTORE SWAP1 DUP2 PUSH1 0x0 DUP3 ADD DUP1 SLOAD PUSH2 0x146 SWAP1 PUSH2 0x1559 JUMP JUMPDEST DUP1 PUSH1 0x1F ADD PUSH1 0x20 DUP1 SWAP2 DIV MUL PUSH1 0x20 ADD PUSH1 0x40 MLOAD SWAP1 DUP2 ADD PUSH1 0x40 MSTORE DUP1 SWAP3 SWAP2 SWAP1 DUP2 DUP2 MSTORE PUSH1 0x20 ADD DUP3 DUP1 SLOAD PUSH2 0x172 SWAP1 PUSH2 0x1559 JUMP JUMPDEST DUP1 ISZERO PUSH2 0x1BF JUMPI DUP1 PUSH1 0x1F LT PUSH2 0x194 JUMPI PUSH2 0x100 DUP1 DUP4 SLOAD DIV MUL DUP4 MSTORE SWAP2 PUSH1 0x20 ADD SWAP2 PUSH2 0x1BF JUMP JUMPDEST DUP3 ADD SWAP2 SWAP1 PUSH1 0x0 MSTORE PUSH1 0x20 PUSH1 0x0 KECCAK256 SWAP1 JUMPDEST DUP2 SLOAD DUP2 MSTORE SWAP1 PUSH1 0x1 ADD SWAP1 PUSH1 0x20 ADD DUP1 DUP4 GT PUSH2 0x1A2 JUMPI DUP3 SWAP1 SUB PUSH1 0x1F AND DUP3 ADD SWAP2 JUMPDEST POP POP POP POP POP DUP2 MSTORE PUSH1 0x20 ADD PUSH1 0x1 DUP3 ADD PUSH1 0x0 SWAP1 SLOAD SWAP1 PUSH2 0x100 EXP SWAP1 DIV PUSH20 0xFFFFFFFFFFFFFFFFFFFFFFFFFFFFFFFFFFFFFFFF AND PUSH20 0xFFFFFFFFFFFFFFFFFFFFFFFFFFFFFFFFFFFFFFFF AND PUSH20 0xFFFFFFFFFFFFFFFFFFFFFFFFFFFFFFFFFFFFFFFF AND DUP2 MSTORE PUSH1 0x20 ADD PUSH1 0x1 DUP3 ADD PUSH1 0x14 SWAP1 SLOAD SWAP1 PUSH2 0x100 EXP SWAP1 DIV PUSH1 0xFF AND ISZERO ISZERO ISZERO ISZERO DUP2 MSTORE POP POP DUP2 MSTORE PUSH1 0x20 ADD SWAP1 PUSH1 0x1 ADD SWAP1 PUSH2 0x113 JUMP JUMPDEST POP POP POP POP SWAP1 POP PUSH2 0x3B1 JUMP JUMPDEST PUSH1 0x2 DUP1 SLOAD DUP1 PUSH1 0x20 MUL PUSH1 0x20 ADD PUSH1 0x40 MLOAD SWAP1 DUP2 ADD PUSH1 0x40 MSTORE DUP1 SWAP3 SWAP2 SWAP1 DUP2 DUP2 MSTORE PUSH1 0x20 ADD PUSH1 0x0 SWAP1 JUMPDEST DUP3 DUP3 LT ISZERO PUSH2 0x3AA JUMPI DUP4 DUP3 SWAP1 PUSH1 0x0 MSTORE PUSH1 0x20 PUSH1 0x0 KECCAK256 SWAP1 PUSH1 0x2 MUL ADD PUSH1 0x40 MLOAD DUP1 PUSH1 0x60 ADD PUSH1 0x40 MSTORE SWAP1 DUP2 PUSH1 0x0 DUP3 ADD DUP1 SLOAD PUSH2 0x2A8 SWAP1 PUSH2 0x1559 JUMP JUMPDEST DUP1 PUSH1 0x1F ADD PUSH1 0x20 DUP1 SWAP2 DIV MUL PUSH1 0x20 ADD PUSH1 0x40 MLOAD SWAP1 DUP2 ADD PUSH1 0x40 MSTORE DUP1 SWAP3 SWAP2 SWAP1 DUP2 DUP2 MSTORE PUSH1 0x20 ADD DUP3 DUP1 SLOAD PUSH2 0x2D4 SWAP1 PUSH2 0x1559 JUMP JUMPDEST DUP1 ISZERO PUSH2 0x321 JUMPI DUP1 PUSH1 0x1F LT PUSH2 0x2F6 JUMPI PUSH2 0x100 DUP1 DUP4 SLOAD DIV MUL DUP4 MSTORE SWAP2 PUSH1 0x20 ADD SWAP2 PUSH2 0x321 JUMP JUMPDEST DUP3 ADD SWAP2 SWAP1 PUSH1 0x0 MSTORE PUSH1 0x20 PUSH1 0x0 KECCAK256 SWAP1 JUMPDEST DUP2 SLOAD DUP2 MSTORE SWAP1 PUSH1 0x1 ADD SWAP1 PUSH1 0x20 ADD DUP1 DUP4 GT PUSH2 0x304 JUMPI DUP3 SWAP1 SUB PUSH1 0x1F AND DUP3 ADD SWAP2 JUMPDEST POP POP POP POP POP DUP2 MSTORE PUSH1 0x20 ADD PUSH1 0x1 DUP3 ADD PUSH1 0x0 SWAP1 SLOAD SWAP1 PUSH2 0x100 EXP SWAP1 DIV PUSH20 0xFFFFFFFFFFFFFFFFFFFFFFFFFFFFFFFFFFFFFFFF AND PUSH20 0xFFFFFFFFFFFFFFFFFFFFFFFFFFFFFFFFFFFFFFFF AND PUSH20 0xFFFFFFFFFFFFFFFFFFFFFFFFFFFFFFFFFFFFFFFF AND DUP2 MSTORE PUSH1 0x20 ADD PUSH1 0x1 DUP3 ADD PUSH1 0x14 SWAP1 SLOAD SWAP1 PUSH2 0x100 EXP SWAP1 DIV PUSH1 0xFF AND ISZERO ISZERO ISZERO ISZERO DUP2 MSTORE POP POP DUP2 MSTORE PUSH1 0x20 ADD SWAP1 PUSH1 0x1 ADD SWAP1 PUSH2 0x275 JUMP JUMPDEST POP POP POP POP SWAP1 POP JUMPDEST SWAP2 SWAP1 POP JUMP JUMPDEST PUSH1 0x60 PUSH1 0x3 PUSH1 0x0 DUP4 PUSH20 0xFFFFFFFFFFFFFFFFFFFFFFFFFFFFFFFFFFFFFFFF AND PUSH20 0xFFFFFFFFFFFFFFFFFFFFFFFFFFFFFFFFFFFFFFFF AND DUP2 MSTORE PUSH1 0x20 ADD SWAP1 DUP2 MSTORE PUSH1 0x20 ADD PUSH1 0x0 KECCAK256 DUP1 SLOAD DUP1 PUSH1 0x20 MUL PUSH1 0x20 ADD PUSH1 0x40 MLOAD SWAP1 DUP2 ADD PUSH1 0x40 MSTORE DUP1 SWAP3 SWAP2 SWAP1 DUP2 DUP2 MSTORE PUSH1 0x20 ADD PUSH1 0x0 SWAP1 JUMPDEST DUP3 DUP3 LT ISZERO PUSH2 0x54C JUMPI DUP4 DUP3 SWAP1 PUSH1 0x0 MSTORE PUSH1 0x20 PUSH1 0x0 KECCAK256 SWAP1 PUSH1 0x2 MUL ADD PUSH1 0x40 MLOAD DUP1 PUSH1 0x60 ADD PUSH1 0x40 MSTORE SWAP1 DUP2 PUSH1 0x0 DUP3 ADD DUP1 SLOAD PUSH2 0x44A SWAP1 PUSH2 0x1559 JUMP JUMPDEST DUP1 PUSH1 0x1F ADD PUSH1 0x20 DUP1 SWAP2 DIV MUL PUSH1 0x20 ADD PUSH1 0x40 MLOAD SWAP1 DUP2 ADD PUSH1 0x40 MSTORE DUP1 SWAP3 SWAP2 SWAP1 DUP2 DUP2 MSTORE PUSH1 0x20 ADD DUP3 DUP1 SLOAD PUSH2 0x476 SWAP1 PUSH2 0x1559 JUMP JUMPDEST DUP1 ISZERO PUSH2 0x4C3 JUMPI DUP1 PUSH1 0x1F LT PUSH2 0x498 JUMPI PUSH2 0x100 DUP1 DUP4 SLOAD DIV MUL DUP4 MSTORE SWAP2 PUSH1 0x20 ADD SWAP2 PUSH2 0x4C3 JUMP JUMPDEST DUP3 ADD SWAP2 SWAP1 PUSH1 0x0 MSTORE PUSH1 0x20 PUSH1 0x0 KECCAK256 SWAP1 JUMPDEST DUP2 SLOAD DUP2 MSTORE SWAP1 PUSH1 0x1 ADD SWAP1 PUSH1 0x20 ADD DUP1 DUP4 GT PUSH2 0x4A6 JUMPI DUP3 SWAP1 SUB PUSH1 0x1F AND DUP3 ADD SWAP2 JUMPDEST POP POP POP POP POP DUP2 MSTORE PUSH1 0x20 ADD PUSH1 0x1 DUP3 ADD PUSH1 0x0 SWAP1 SLOAD SWAP1 PUSH2 0x100 EXP SWAP1 DIV PUSH20 0xFFFFFFFFFFFFFFFFFFFFFFFFFFFFFFFFFFFFFFFF AND PUSH20 0xFFFFFFFFFFFFFFFFFFFFFFFFFFFFFFFFFFFFFFFF AND PUSH20 0xFFFFFFFFFFFFFFFFFFFFFFFFFFFFFFFFFFFFFFFF AND DUP2 MSTORE PUSH1 0x20 ADD PUSH1 0x1 DUP3 ADD PUSH1 0x14 SWAP1 SLOAD SWAP1 PUSH2 0x100 EXP SWAP1 DIV PUSH1 0xFF AND ISZERO ISZERO ISZERO ISZERO DUP2 MSTORE POP POP DUP2 MSTORE PUSH1 0x20 ADD SWAP1 PUSH1 0x1 ADD SWAP1 PUSH2 0x417 JUMP JUMPDEST POP POP POP POP SWAP1 POP SWAP2 SWAP1 POP JUMP JUMPDEST DUP3 PUSH1 0x0 DUP1 ADD SWAP1 DUP2 PUSH2 0x568 SWAP2 SWAP1 PUSH2 0x1736 JUMP JUMPDEST POP DUP2 PUSH1 0x0 PUSH1 0x1 ADD PUSH1 0x0 PUSH2 0x100 EXP DUP2 SLOAD DUP2 PUSH20 0xFFFFFFFFFFFFFFFFFFFFFFFFFFFFFFFFFFFFFFFF MUL NOT AND SWAP1 DUP4 PUSH20 0xFFFFFFFFFFFFFFFFFFFFFFFFFFFFFFFFFFFFFFFF AND MUL OR SWAP1 SSTORE POP DUP1 PUSH1 0x0 PUSH1 0x1 ADD PUSH1 0x14 PUSH2 0x100 EXP DUP2 SLOAD DUP2 PUSH1 0xFF MUL NOT AND SWAP1 DUP4 ISZERO ISZERO MUL OR SWAP1 SSTORE POP PUSH1 0x1 ISZERO ISZERO DUP2 ISZERO ISZERO EQ PUSH2 0x8A3 JUMPI PUSH1 0x2 PUSH1 0x0 SWAP1 DUP1 PUSH1 0x1 DUP2 SLOAD ADD DUP1 DUP3 SSTORE DUP1 SWAP2 POP POP PUSH1 0x1 SWAP1 SUB SWAP1 PUSH1 0x0 MSTORE PUSH1 0x20 PUSH1 0x0 KECCAK256 SWAP1 PUSH1 0x2 MUL ADD PUSH1 0x0 SWAP1 SWAP2 SWAP1 SWAP2 SWAP1 SWAP2 POP PUSH1 0x0 DUP3 ADD DUP2 PUSH1 0x0 ADD SWAP1 DUP2 PUSH2 0x617 SWAP2 SWAP1 PUSH2 0x181E JUMP JUMPDEST POP PUSH1 0x1 DUP3 ADD PUSH1 0x0 SWAP1 SLOAD SWAP1 PUSH2 0x100 EXP SWAP1 DIV PUSH20 0xFFFFFFFFFFFFFFFFFFFFFFFFFFFFFFFFFFFFFFFF AND DUP2 PUSH1 0x1 ADD PUSH1 0x0 PUSH2 0x100 EXP DUP2 SLOAD DUP2 PUSH20 0xFFFFFFFFFFFFFFFFFFFFFFFFFFFFFFFFFFFFFFFF MUL NOT AND SWAP1 DUP4 PUSH20 0xFFFFFFFFFFFFFFFFFFFFFFFFFFFFFFFFFFFFFFFF AND MUL OR SWAP1 SSTORE POP PUSH1 0x1 DUP3 ADD PUSH1 0x14 SWAP1 SLOAD SWAP1 PUSH2 0x100 EXP SWAP1 DIV PUSH1 0xFF AND DUP2 PUSH1 0x1 ADD PUSH1 0x14 PUSH2 0x100 EXP DUP2 SLOAD DUP2 PUSH1 0xFF MUL NOT AND SWAP1 DUP4 ISZERO ISZERO MUL OR SWAP1 SSTORE POP POP POP PUSH1 0x3 PUSH1 0x0 DUP4 PUSH20 0xFFFFFFFFFFFFFFFFFFFFFFFFFFFFFFFFFFFFFFFF AND PUSH20 0xFFFFFFFFFFFFFFFFFFFFFFFFFFFFFFFFFFFFFFFF AND DUP2 MSTORE PUSH1 0x20 ADD SWAP1 DUP2 MSTORE PUSH1 0x20 ADD PUSH1 0x0 KECCAK256 PUSH1 0x0 SWAP1 DUP1 PUSH1 0x1 DUP2 SLOAD ADD DUP1 DUP3 SSTORE DUP1 SWAP2 POP POP PUSH1 0x1 SWAP1 SUB SWAP1 PUSH1 0x0 MSTORE PUSH1 0x20 PUSH1 0x0 KECCAK256 SWAP1 PUSH1 0x2 MUL ADD PUSH1 0x0 SWAP1 SWAP2 SWAP1 SWAP2 SWAP1 SWAP2 POP PUSH1 0x0 DUP3 ADD DUP2 PUSH1 0x0 ADD SWAP1 DUP2 PUSH2 0x72C SWAP2 SWAP1 PUSH2 0x181E JUMP JUMPDEST POP PUSH1 0x1 DUP3 ADD PUSH1 0x0 SWAP1 SLOAD SWAP1 PUSH2 0x100 EXP SWAP1 DIV PUSH20 0xFFFFFFFFFFFFFFFFFFFFFFFFFFFFFFFFFFFFFFFF AND DUP2 PUSH1 0x1 ADD PUSH1 0x0 PUSH2 0x100 EXP DUP2 SLOAD DUP2 PUSH20 0xFFFFFFFFFFFFFFFFFFFFFFFFFFFFFFFFFFFFFFFF MUL NOT AND SWAP1 DUP4 PUSH20 0xFFFFFFFFFFFFFFFFFFFFFFFFFFFFFFFFFFFFFFFF AND MUL OR SWAP1 SSTORE POP PUSH1 0x1 DUP3 ADD PUSH1 0x14 SWAP1 SLOAD SWAP1 PUSH2 0x100 EXP SWAP1 DIV PUSH1 0xFF AND DUP2 PUSH1 0x1 ADD PUSH1 0x14 PUSH2 0x100 EXP DUP2 SLOAD DUP2 PUSH1 0xFF MUL NOT AND SWAP1 DUP4 ISZERO ISZERO MUL OR SWAP1 SSTORE POP POP POP PUSH1 0x0 PUSH1 0x6 PUSH1 0x0 PUSH1 0x8 SLOAD DUP2 MSTORE PUSH1 0x20 ADD SWAP1 DUP2 MSTORE PUSH1 0x20 ADD PUSH1 0x0 KECCAK256 PUSH1 0x0 DUP3 ADD DUP2 PUSH1 0x0 ADD SWAP1 DUP2 PUSH2 0x7EE SWAP2 SWAP1 PUSH2 0x181E JUMP JUMPDEST POP PUSH1 0x1 DUP3 ADD PUSH1 0x0 SWAP1 SLOAD SWAP1 PUSH2 0x100 EXP SWAP1 DIV PUSH20 0xFFFFFFFFFFFFFFFFFFFFFFFFFFFFFFFFFFFFFFFF AND DUP2 PUSH1 0x1 ADD PUSH1 0x0 PUSH2 0x100 EXP DUP2 SLOAD DUP2 PUSH20 0xFFFFFFFFFFFFFFFFFFFFFFFFFFFFFFFFFFFFFFFF MUL NOT AND SWAP1 DUP4 PUSH20 0xFFFFFFFFFFFFFFFFFFFFFFFFFFFFFFFFFFFFFFFF AND MUL OR SWAP1 SSTORE POP PUSH1 0x1 DUP3 ADD PUSH1 0x14 SWAP1 SLOAD SWAP1 PUSH2 0x100 EXP SWAP1 DIV PUSH1 0xFF AND DUP2 PUSH1 0x1 ADD PUSH1 0x14 PUSH2 0x100 EXP DUP2 SLOAD DUP2 PUSH1 0xFF MUL NOT AND SWAP1 DUP4 ISZERO ISZERO MUL OR SWAP1 SSTORE POP SWAP1 POP POP PUSH1 0x8 PUSH1 0x0 DUP2 SLOAD DUP1 SWAP3 SWAP2 SWAP1 PUSH2 0x899 SWAP1 PUSH2 0x1935 JUMP JUMPDEST SWAP2 SWAP1 POP SSTORE POP PUSH2 0xB6C JUMP JUMPDEST PUSH1 0x4 PUSH1 0x0 SWAP1 DUP1 PUSH1 0x1 DUP2 SLOAD ADD DUP1 DUP3 SSTORE DUP1 SWAP2 POP POP PUSH1 0x1 SWAP1 SUB SWAP1 PUSH1 0x0 MSTORE PUSH1 0x20 PUSH1 0x0 KECCAK256 SWAP1 PUSH1 0x2 MUL ADD PUSH1 0x0 SWAP1 SWAP2 SWAP1 SWAP2 SWAP1 SWAP2 POP PUSH1 0x0 DUP3 ADD DUP2 PUSH1 0x0 ADD SWAP1 DUP2 PUSH2 0x8E4 SWAP2 SWAP1 PUSH2 0x181E JUMP JUMPDEST POP PUSH1 0x1 DUP3 ADD PUSH1 0x0 SWAP1 SLOAD SWAP1 PUSH2 0x100 EXP SWAP1 DIV PUSH20 0xFFFFFFFFFFFFFFFFFFFFFFFFFFFFFFFFFFFFFFFF AND DUP2 PUSH1 0x1 ADD PUSH1 0x0 PUSH2 0x100 EXP DUP2 SLOAD DUP2 PUSH20 0xFFFFFFFFFFFFFFFFFFFFFFFFFFFFFFFFFFFFFFFF MUL NOT AND SWAP1 DUP4 PUSH20 0xFFFFFFFFFFFFFFFFFFFFFFFFFFFFFFFFFFFFFFFF AND MUL OR SWAP1 SSTORE POP PUSH1 0x1 DUP3 ADD PUSH1 0x14 SWAP1 SLOAD SWAP1 PUSH2 0x100 EXP SWAP1 DIV PUSH1 0xFF AND DUP2 PUSH1 0x1 ADD PUSH1 0x14 PUSH2 0x100 EXP DUP2 SLOAD DUP2 PUSH1 0xFF MUL NOT AND SWAP1 DUP4 ISZERO ISZERO MUL OR SWAP1 SSTORE POP POP POP PUSH1 0x5 PUSH1 0x0 DUP4 PUSH20 0xFFFFFFFFFFFFFFFFFFFFFFFFFFFFFFFFFFFFFFFF AND PUSH20 0xFFFFFFFFFFFFFFFFFFFFFFFFFFFFFFFFFFFFFFFF AND DUP2 MSTORE PUSH1 0x20 ADD SWAP1 DUP2 MSTORE PUSH1 0x20 ADD PUSH1 0x0 KECCAK256 PUSH1 0x0 SWAP1 DUP1 PUSH1 0x1 DUP2 SLOAD ADD DUP1 DUP3 SSTORE DUP1 SWAP2 POP POP PUSH1 0x1 SWAP1 SUB SWAP1 PUSH1 0x0 MSTORE PUSH1 0x20 PUSH1 0x0 KECCAK256 SWAP1 PUSH1 0x2 MUL ADD PUSH1 0x0 SWAP1 SWAP2 SWAP1 SWAP2 SWAP1 SWAP2 POP PUSH1 0x0 DUP3 ADD DUP2 PUSH1 0x0 ADD SWAP1 DUP2 PUSH2 0x9F9 SWAP2 SWAP1 PUSH2 0x181E JUMP JUMPDEST POP PUSH1 0x1 DUP3 ADD PUSH1 0x0 SWAP1 SLOAD SWAP1 PUSH2 0x100 EXP SWAP1 DIV PUSH20 0xFFFFFFFFFFFFFFFFFFFFFFFFFFFFFFFFFFFFFFFF AND DUP2 PUSH1 0x1 ADD PUSH1 0x0 PUSH2 0x100 EXP DUP2 SLOAD DUP2 PUSH20 0xFFFFFFFFFFFFFFFFFFFFFFFFFFFFFFFFFFFFFFFF MUL NOT AND SWAP1 DUP4 PUSH20 0xFFFFFFFFFFFFFFFFFFFFFFFFFFFFFFFFFFFFFFFF AND MUL OR SWAP1 SSTORE POP PUSH1 0x1 DUP3 ADD PUSH1 0x14 SWAP1 SLOAD SWAP1 PUSH2 0x100 EXP SWAP1 DIV PUSH1 0xFF AND DUP2 PUSH1 0x1 ADD PUSH1 0x14 PUSH2 0x100 EXP DUP2 SLOAD DUP2 PUSH1 0xFF MUL NOT AND SWAP1 DUP4 ISZERO ISZERO MUL OR SWAP1 SSTORE POP POP POP PUSH1 0x0 PUSH1 0x6 PUSH1 0x0 PUSH1 0x7 SLOAD DUP2 MSTORE PUSH1 0x20 ADD SWAP1 DUP2 MSTORE PUSH1 0x20 ADD PUSH1 0x0 KECCAK256 PUSH1 0x0 DUP3 ADD DUP2 PUSH1 0x0 ADD SWAP1 DUP2 PUSH2 0xABB SWAP2 SWAP1 PUSH2 0x181E JUMP JUMPDEST POP PUSH1 0x1 DUP3 ADD PUSH1 0x0 SWAP1 SLOAD SWAP1 PUSH2 0x100 EXP SWAP1 DIV PUSH20 0xFFFFFFFFFFFFFFFFFFFFFFFFFFFFFFFFFFFFFFFF AND DUP2 PUSH1 0x1 ADD PUSH1 0x0 PUSH2 0x100 EXP DUP2 SLOAD DUP2 PUSH20 0xFFFFFFFFFFFFFFFFFFFFFFFFFFFFFFFFFFFFFFFF MUL NOT AND SWAP1 DUP4 PUSH20 0xFFFFFFFFFFFFFFFFFFFFFFFFFFFFFFFFFFFFFFFF AND MUL OR SWAP1 SSTORE POP PUSH1 0x1 DUP3 ADD PUSH1 0x14 SWAP1 SLOAD SWAP1 PUSH2 0x100 EXP SWAP1 DIV PUSH1 0xFF AND DUP2 PUSH1 0x1 ADD PUSH1 0x14 PUSH2 0x100 EXP DUP2 SLOAD DUP2 PUSH1 0xFF MUL NOT AND SWAP1 DUP4 ISZERO ISZERO MUL OR SWAP1 SSTORE POP SWAP1 POP POP PUSH1 0x7 PUSH1 0x0 DUP2 SLOAD DUP1 SWAP3 SWAP2 SWAP1 PUSH2 0xB66 SWAP1 PUSH2 0x1935 JUMP JUMPDEST SWAP2 SWAP1 POP SSTORE POP JUMPDEST POP POP POP JUMP JUMPDEST PUSH1 0x0 PUSH1 0x4 DUP3 DUP2 SLOAD DUP2 LT PUSH2 0xB87 JUMPI PUSH2 0xB86 PUSH2 0x197D JUMP JUMPDEST JUMPDEST SWAP1 PUSH1 0x0 MSTORE PUSH1 0x20 PUSH1 0x0 KECCAK256 SWAP1 PUSH1 0x2 MUL ADD PUSH1 0x40 MLOAD DUP1 PUSH1 0x60 ADD PUSH1 0x40 MSTORE SWAP1 DUP2 PUSH1 0x0 DUP3 ADD DUP1 SLOAD PUSH2 0xBB0 SWAP1 PUSH2 0x1559 JUMP JUMPDEST DUP1 PUSH1 0x1F ADD PUSH1 0x20 DUP1 SWAP2 DIV MUL PUSH1 0x20 ADD PUSH1 0x40 MLOAD SWAP1 DUP2 ADD PUSH1 0x40 MSTORE DUP1 SWAP3 SWAP2 SWAP1 DUP2 DUP2 MSTORE PUSH1 0x20 ADD DUP3 DUP1 SLOAD PUSH2 0xBDC SWAP1 PUSH2 0x1559 JUMP JUMPDEST DUP1 ISZERO PUSH2 0xC29 JUMPI DUP1 PUSH1 0x1F LT PUSH2 0xBFE JUMPI PUSH2 0x100 DUP1 DUP4 SLOAD DIV MUL DUP4 MSTORE SWAP2 PUSH1 0x20 ADD SWAP2 PUSH2 0xC29 JUMP JUMPDEST DUP3 ADD SWAP2 SWAP1 PUSH1 0x0 MSTORE PUSH1 0x20 PUSH1 0x0 KECCAK256 SWAP1 JUMPDEST DUP2 SLOAD DUP2 MSTORE SWAP1 PUSH1 0x1 ADD SWAP1 PUSH1 0x20 ADD DUP1 DUP4 GT PUSH2 0xC0C JUMPI DUP3 SWAP1 SUB PUSH1 0x1F AND DUP3 ADD SWAP2 JUMPDEST POP POP POP POP POP DUP2 MSTORE PUSH1 0x20 ADD PUSH1 0x1 DUP3 ADD PUSH1 0x0 SWAP1 SLOAD SWAP1 PUSH2 0x100 EXP SWAP1 DIV PUSH20 0xFFFFFFFFFFFFFFFFFFFFFFFFFFFFFFFFFFFFFFFF AND PUSH20 0xFFFFFFFFFFFFFFFFFFFFFFFFFFFFFFFFFFFFFFFF AND PUSH20 0xFFFFFFFFFFFFFFFFFFFFFFFFFFFFFFFFFFFFFFFF AND DUP2 MSTORE PUSH1 0x20 ADD PUSH1 0x1 DUP3 ADD PUSH1 0x14 SWAP1 SLOAD SWAP1 PUSH2 0x100 EXP SWAP1 DIV PUSH1 0xFF AND ISZERO ISZERO ISZERO ISZERO DUP2 MSTORE POP POP SWAP1 POP PUSH1 0x0 DUP2 PUSH1 0x40 ADD SWAP1 ISZERO ISZERO SWAP1 DUP2 ISZERO ISZERO DUP2 MSTORE POP POP PUSH1 0x2 DUP2 SWAP1 DUP1 PUSH1 0x1 DUP2 SLOAD ADD DUP1 DUP3 SSTORE DUP1 SWAP2 POP POP PUSH1 0x1 SWAP1 SUB SWAP1 PUSH1 0x0 MSTORE PUSH1 0x20 PUSH1 0x0 KECCAK256 SWAP1 PUSH1 0x2 MUL ADD PUSH1 0x0 SWAP1 SWAP2 SWAP1 SWAP2 SWAP1 SWAP2 POP PUSH1 0x0 DUP3 ADD MLOAD DUP2 PUSH1 0x0 ADD SWAP1 DUP2 PUSH2 0xCF7 SWAP2 SWAP1 PUSH2 0x1736 JUMP JUMPDEST POP PUSH1 0x20 DUP3 ADD MLOAD DUP2 PUSH1 0x1 ADD PUSH1 0x0 PUSH2 0x100 EXP DUP2 SLOAD DUP2 PUSH20 0xFFFFFFFFFFFFFFFFFFFFFFFFFFFFFFFFFFFFFFFF MUL NOT AND SWAP1 DUP4 PUSH20 0xFFFFFFFFFFFFFFFFFFFFFFFFFFFFFFFFFFFFFFFF AND MUL OR SWAP1 SSTORE POP PUSH1 0x40 DUP3 ADD MLOAD DUP2 PUSH1 0x1 ADD PUSH1 0x14 PUSH2 0x100 EXP DUP2 SLOAD DUP2 PUSH1 0xFF MUL NOT AND SWAP1 DUP4 ISZERO ISZERO MUL OR SWAP1 SSTORE POP POP POP PUSH1 0x8 PUSH1 0x0 DUP2 SLOAD DUP1 SWAP3 SWAP2 SWAP1 PUSH2 0xD74 SWAP1 PUSH2 0x1935 JUMP JUMPDEST SWAP2 SWAP1 POP SSTORE POP PUSH1 0x3 PUSH1 0x0 DUP3 PUSH1 0x20 ADD MLOAD PUSH20 0xFFFFFFFFFFFFFFFFFFFFFFFFFFFFFFFFFFFFFFFF AND PUSH20 0xFFFFFFFFFFFFFFFFFFFFFFFFFFFFFFFFFFFFFFFF AND DUP2 MSTORE PUSH1 0x20 ADD SWAP1 DUP2 MSTORE PUSH1 0x20 ADD PUSH1 0x0 KECCAK256 DUP2 SWAP1 DUP1 PUSH1 0x1 DUP2 SLOAD ADD DUP1 DUP3 SSTORE DUP1 SWAP2 POP POP PUSH1 0x1 SWAP1 SUB SWAP1 PUSH1 0x0 MSTORE PUSH1 0x20 PUSH1 0x0 KECCAK256 SWAP1 PUSH1 0x2 MUL ADD PUSH1 0x0 SWAP1 SWAP2 SWAP1 SWAP2 SWAP1 SWAP2 POP PUSH1 0x0 DUP3 ADD MLOAD DUP2 PUSH1 0x0 ADD SWAP1 DUP2 PUSH2 0xDFB SWAP2 SWAP1 PUSH2 0x1736 JUMP JUMPDEST POP PUSH1 0x20 DUP3 ADD MLOAD DUP2 PUSH1 0x1 ADD PUSH1 0x0 PUSH2 0x100 EXP DUP2 SLOAD DUP2 PUSH20 0xFFFFFFFFFFFFFFFFFFFFFFFFFFFFFFFFFFFFFFFF MUL NOT AND SWAP1 DUP4 PUSH20 0xFFFFFFFFFFFFFFFFFFFFFFFFFFFFFFFFFFFFFFFF AND MUL OR SWAP1 SSTORE POP PUSH1 0x40 DUP3 ADD MLOAD DUP2 PUSH1 0x1 ADD PUSH1 0x14 PUSH2 0x100 EXP DUP2 SLOAD DUP2 PUSH1 0xFF MUL NOT AND SWAP1 DUP4 ISZERO ISZERO MUL OR SWAP1 SSTORE POP POP POP PUSH1 0x4 PUSH1 0x1 PUSH1 0x4 DUP1 SLOAD SWAP1 POP PUSH2 0xE79 SWAP2 SWAP1 PUSH2 0x19AC JUMP JUMPDEST DUP2 SLOAD DUP2 LT PUSH2 0xE8A JUMPI PUSH2 0xE89 PUSH2 0x197D JUMP JUMPDEST JUMPDEST SWAP1 PUSH1 0x0 MSTORE PUSH1 0x20 PUSH1 0x0 KECCAK256 SWAP1 PUSH1 0x2 MUL ADD PUSH1 0x4 DUP4 DUP2 SLOAD DUP2 LT PUSH2 0xEAC JUMPI PUSH2 0xEAB PUSH2 0x197D JUMP JUMPDEST JUMPDEST SWAP1 PUSH1 0x0 MSTORE PUSH1 0x20 PUSH1 0x0 KECCAK256 SWAP1 PUSH1 0x2 MUL ADD PUSH1 0x0 DUP3 ADD DUP2 PUSH1 0x0 ADD SWAP1 DUP2 PUSH2 0xECE SWAP2 SWAP1 PUSH2 0x181E JUMP JUMPDEST POP PUSH1 0x1 DUP3 ADD PUSH1 0x0 SWAP1 SLOAD SWAP1 PUSH2 0x100 EXP SWAP1 DIV PUSH20 0xFFFFFFFFFFFFFFFFFFFFFFFFFFFFFFFFFFFFFFFF AND DUP2 PUSH1 0x1 ADD PUSH1 0x0 PUSH2 0x100 EXP DUP2 SLOAD DUP2 PUSH20 0xFFFFFFFFFFFFFFFFFFFFFFFFFFFFFFFFFFFFFFFF MUL NOT AND SWAP1 DUP4 PUSH20 0xFFFFFFFFFFFFFFFFFFFFFFFFFFFFFFFFFFFFFFFF AND MUL OR SWAP1 SSTORE POP PUSH1 0x1 DUP3 ADD PUSH1 0x14 SWAP1 SLOAD SWAP1 PUSH2 0x100 EXP SWAP1 DIV PUSH1 0xFF AND DUP2 PUSH1 0x1 ADD PUSH1 0x14 PUSH2 0x100 EXP DUP2 SLOAD DUP2 PUSH1 0xFF MUL NOT AND SWAP1 DUP4 ISZERO ISZERO MUL OR SWAP1 SSTORE POP SWAP1 POP POP PUSH1 0x4 DUP1 SLOAD DUP1 PUSH2 0xF78 JUMPI PUSH2 0xF77 PUSH2 0x19E0 JUMP JUMPDEST JUMPDEST PUSH1 0x1 SWAP1 SUB DUP2 DUP2 SWAP1 PUSH1 0x0 MSTORE PUSH1 0x20 PUSH1 0x0 KECCAK256 SWAP1 PUSH1 0x2 MUL ADD PUSH1 0x0 DUP1 DUP3 ADD PUSH1 0x0 PUSH2 0xF9D SWAP2 SWAP1 PUSH2 0xFE0 JUMP JUMPDEST PUSH1 0x1 DUP3 ADD PUSH1 0x0 PUSH2 0x100 EXP DUP2 SLOAD SWAP1 PUSH20 0xFFFFFFFFFFFFFFFFFFFFFFFFFFFFFFFFFFFFFFFF MUL NOT AND SWAP1 SSTORE PUSH1 0x1 DUP3 ADD PUSH1 0x14 PUSH2 0x100 EXP DUP2 SLOAD SWAP1 PUSH1 0xFF MUL NOT AND SWAP1 SSTORE POP POP SWAP1 SSTORE POP POP JUMP JUMPDEST POP DUP1 SLOAD PUSH2 0xFEC SWAP1 PUSH2 0x1559 JUMP JUMPDEST PUSH1 0x0 DUP3 SSTORE DUP1 PUSH1 0x1F LT PUSH2 0xFFE JUMPI POP PUSH2 0x101D JUMP JUMPDEST PUSH1 0x1F ADD PUSH1 0x20 SWAP1 DIV SWAP1 PUSH1 0x0 MSTORE PUSH1 0x20 PUSH1 0x0 KECCAK256 SWAP1 DUP2 ADD SWAP1 PUSH2 0x101C SWAP2 SWAP1 PUSH2 0x1020 JUMP JUMPDEST JUMPDEST POP JUMP JUMPDEST JUMPDEST DUP1 DUP3 GT ISZERO PUSH2 0x1039 JUMPI PUSH1 0x0 DUP2 PUSH1 0x0 SWAP1 SSTORE POP PUSH1 0x1 ADD PUSH2 0x1021 JUMP JUMPDEST POP SWAP1 JUMP JUMPDEST PUSH1 0x0 PUSH1 0x40 MLOAD SWAP1 POP SWAP1 JUMP JUMPDEST PUSH1 0x0 DUP1 REVERT JUMPDEST PUSH1 0x0 DUP1 REVERT JUMPDEST PUSH1 0x0 DUP2 ISZERO ISZERO SWAP1 POP SWAP2 SWAP1 POP JUMP JUMPDEST PUSH2 0x1066 DUP2 PUSH2 0x1051 JUMP JUMPDEST DUP2 EQ PUSH2 0x1071 JUMPI PUSH1 0x0 DUP1 REVERT JUMPDEST POP JUMP JUMPDEST PUSH1 0x0 DUP2 CALLDATALOAD SWAP1 POP PUSH2 0x1083 DUP2 PUSH2 0x105D JUMP JUMPDEST SWAP3 SWAP2 POP POP JUMP JUMPDEST PUSH1 0x0 PUSH1 0x20 DUP3 DUP5 SUB SLT ISZERO PUSH2 0x109F JUMPI PUSH2 0x109E PUSH2 0x1047 JUMP JUMPDEST JUMPDEST PUSH1 0x0 PUSH2 0x10AD DUP5 DUP3 DUP6 ADD PUSH2 0x1074 JUMP JUMPDEST SWAP2 POP POP SWAP3 SWAP2 POP POP JUMP JUMPDEST PUSH1 0x0 DUP2 MLOAD SWAP1 POP SWAP2 SWAP1 POP JUMP JUMPDEST PUSH1 0x0 DUP3 DUP3 MSTORE PUSH1 0x20 DUP3 ADD SWAP1 POP SWAP3 SWAP2 POP POP JUMP JUMPDEST PUSH1 0x0 DUP2 SWAP1 POP PUSH1 0x20 DUP3 ADD SWAP1 POP SWAP2 SWAP1 POP JUMP JUMPDEST PUSH1 0x0 DUP2 MLOAD SWAP1 POP SWAP2 SWAP1 POP JUMP JUMPDEST PUSH1 0x0 DUP3 DUP3 MSTORE PUSH1 0x20 DUP3 ADD SWAP1 POP SWAP3 SWAP2 POP POP JUMP JUMPDEST PUSH1 0x0 JUMPDEST DUP4 DUP2 LT ISZERO PUSH2 0x111C JUMPI DUP1 DUP3 ADD MLOAD DUP2 DUP5 ADD MSTORE PUSH1 0x20 DUP2 ADD SWAP1 POP PUSH2 0x1101 JUMP JUMPDEST PUSH1 0x0 DUP5 DUP5 ADD MSTORE POP POP POP POP JUMP JUMPDEST PUSH1 0x0 PUSH1 0x1F NOT PUSH1 0x1F DUP4 ADD AND SWAP1 POP SWAP2 SWAP1 POP JUMP JUMPDEST PUSH1 0x0 PUSH2 0x1144 DUP3 PUSH2 0x10E2 JUMP JUMPDEST PUSH2 0x114E DUP2 DUP6 PUSH2 0x10ED JUMP JUMPDEST SWAP4 POP PUSH2 0x115E DUP2 DUP6 PUSH1 0x20 DUP7 ADD PUSH2 0x10FE JUMP JUMPDEST PUSH2 0x1167 DUP2 PUSH2 0x1128 JUMP JUMPDEST DUP5 ADD SWAP2 POP POP SWAP3 SWAP2 POP POP JUMP JUMPDEST PUSH1 0x0 PUSH20 0xFFFFFFFFFFFFFFFFFFFFFFFFFFFFFFFFFFFFFFFF DUP3 AND SWAP1 POP SWAP2 SWAP1 POP JUMP JUMPDEST PUSH1 0x0 PUSH2 0x119D DUP3 PUSH2 0x1172 JUMP JUMPDEST SWAP1 POP SWAP2 SWAP1 POP JUMP JUMPDEST PUSH2 0x11AD DUP2 PUSH2 0x1192 JUMP JUMPDEST DUP3 MSTORE POP POP JUMP JUMPDEST PUSH2 0x11BC DUP2 PUSH2 0x1051 JUMP JUMPDEST DUP3 MSTORE POP POP JUMP JUMPDEST PUSH1 0x0 PUSH1 0x60 DUP4 ADD PUSH1 0x0 DUP4 ADD MLOAD DUP5 DUP3 SUB PUSH1 0x0 DUP7 ADD MSTORE PUSH2 0x11DF DUP3 DUP3 PUSH2 0x1139 JUMP JUMPDEST SWAP2 POP POP PUSH1 0x20 DUP4 ADD MLOAD PUSH2 0x11F4 PUSH1 0x20 DUP7 ADD DUP3 PUSH2 0x11A4 JUMP JUMPDEST POP PUSH1 0x40 DUP4 ADD MLOAD PUSH2 0x1207 PUSH1 0x40 DUP7 ADD DUP3 PUSH2 0x11B3 JUMP JUMPDEST POP DUP1 SWAP2 POP POP SWAP3 SWAP2 POP POP JUMP JUMPDEST PUSH1 0x0 PUSH2 0x121E DUP4 DUP4 PUSH2 0x11C2 JUMP JUMPDEST SWAP1 POP SWAP3 SWAP2 POP POP JUMP JUMPDEST PUSH1 0x0 PUSH1 0x20 DUP3 ADD SWAP1 POP SWAP2 SWAP1 POP JUMP JUMPDEST PUSH1 0x0 PUSH2 0x123E DUP3 PUSH2 0x10B6 JUMP JUMPDEST PUSH2 0x1248 DUP2 DUP6 PUSH2 0x10C1 JUMP JUMPDEST SWAP4 POP DUP4 PUSH1 0x20 DUP3 MUL DUP6 ADD PUSH2 0x125A DUP6 PUSH2 0x10D2 JUMP JUMPDEST DUP1 PUSH1 0x0 JUMPDEST DUP6 DUP2 LT ISZERO PUSH2 0x1296 JUMPI DUP5 DUP5 SUB DUP10 MSTORE DUP2 MLOAD PUSH2 0x1277 DUP6 DUP3 PUSH2 0x1212 JUMP JUMPDEST SWAP5 POP PUSH2 0x1282 DUP4 PUSH2 0x1226 JUMP JUMPDEST SWAP3 POP PUSH1 0x20 DUP11 ADD SWAP10 POP POP PUSH1 0x1 DUP2 ADD SWAP1 POP PUSH2 0x125E JUMP JUMPDEST POP DUP3 SWAP8 POP DUP8 SWAP6 POP POP POP POP POP POP SWAP3 SWAP2 POP POP JUMP JUMPDEST PUSH1 0x0 PUSH1 0x20 DUP3 ADD SWAP1 POP DUP2 DUP2 SUB PUSH1 0x0 DUP4 ADD MSTORE PUSH2 0x12C2 DUP2 DUP5 PUSH2 0x1233 JUMP JUMPDEST SWAP1 POP SWAP3 SWAP2 POP POP JUMP JUMPDEST PUSH2 0x12D3 DUP2 PUSH2 0x1192 JUMP JUMPDEST DUP2 EQ PUSH2 0x12DE JUMPI PUSH1 0x0 DUP1 REVERT JUMPDEST POP JUMP JUMPDEST PUSH1 0x0 DUP2 CALLDATALOAD SWAP1 POP PUSH2 0x12F0 DUP2 PUSH2 0x12CA JUMP JUMPDEST SWAP3 SWAP2 POP POP JUMP JUMPDEST PUSH1 0x0 PUSH1 0x20 DUP3 DUP5 SUB SLT ISZERO PUSH2 0x130C JUMPI PUSH2 0x130B PUSH2 0x1047 JUMP JUMPDEST JUMPDEST PUSH1 0x0 PUSH2 0x131A DUP5 DUP3 DUP6 ADD PUSH2 0x12E1 JUMP JUMPDEST SWAP2 POP POP SWAP3 SWAP2 POP POP JUMP JUMPDEST PUSH1 0x0 DUP1 REVERT JUMPDEST PUSH1 0x0 DUP1 REVERT JUMPDEST PUSH32 0x4E487B7100000000000000000000000000000000000000000000000000000000 PUSH1 0x0 MSTORE PUSH1 0x41 PUSH1 0x4 MSTORE PUSH1 0x24 PUSH1 0x0 REVERT JUMPDEST PUSH2 0x1365 DUP3 PUSH2 0x1128 JUMP JUMPDEST DUP2 ADD DUP2 DUP2 LT PUSH8 0xFFFFFFFFFFFFFFFF DUP3 GT OR ISZERO PUSH2 0x1384 JUMPI PUSH2 0x1383 PUSH2 0x132D JUMP JUMPDEST JUMPDEST DUP1 PUSH1 0x40 MSTORE POP POP POP JUMP JUMPDEST PUSH1 0x0 PUSH2 0x1397 PUSH2 0x103D JUMP JUMPDEST SWAP1 POP PUSH2 0x13A3 DUP3 DUP3 PUSH2 0x135C JUMP JUMPDEST SWAP2 SWAP1 POP JUMP JUMPDEST PUSH1 0x0 PUSH8 0xFFFFFFFFFFFFFFFF DUP3 GT ISZERO PUSH2 0x13C3 JUMPI PUSH2 0x13C2 PUSH2 0x132D JUMP JUMPDEST JUMPDEST PUSH2 0x13CC DUP3 PUSH2 0x1128 JUMP JUMPDEST SWAP1 POP PUSH1 0x20 DUP2 ADD SWAP1 POP SWAP2 SWAP1 POP JUMP JUMPDEST DUP3 DUP2 DUP4 CALLDATACOPY PUSH1 0x0 DUP4 DUP4 ADD MSTORE POP POP POP JUMP JUMPDEST PUSH1 0x0 PUSH2 0x13FB PUSH2 0x13F6 DUP5 PUSH2 0x13A8 JUMP JUMPDEST PUSH2 0x138D JUMP JUMPDEST SWAP1 POP DUP3 DUP2 MSTORE PUSH1 0x20 DUP2 ADD DUP5 DUP5 DUP5 ADD GT ISZERO PUSH2 0x1417 JUMPI PUSH2 0x1416 PUSH2 0x1328 JUMP JUMPDEST JUMPDEST PUSH2 0x1422 DUP5 DUP3 DUP6 PUSH2 0x13D9 JUMP JUMPDEST POP SWAP4 SWAP3 POP POP POP JUMP JUMPDEST PUSH1 0x0 DUP3 PUSH1 0x1F DUP4 ADD SLT PUSH2 0x143F JUMPI PUSH2 0x143E PUSH2 0x1323 JUMP JUMPDEST JUMPDEST DUP2 CALLDATALOAD PUSH2 0x144F DUP5 DUP3 PUSH1 0x20 DUP7 ADD PUSH2 0x13E8 JUMP JUMPDEST SWAP2 POP POP SWAP3 SWAP2 POP POP JUMP JUMPDEST PUSH1 0x0 DUP1 PUSH1 0x0 PUSH1 0x60 DUP5 DUP7 SUB SLT ISZERO PUSH2 0x1471 JUMPI PUSH2 0x1470 PUSH2 0x1047 JUMP JUMPDEST JUMPDEST PUSH1 0x0 DUP5 ADD CALLDATALOAD PUSH8 0xFFFFFFFFFFFFFFFF DUP2 GT ISZERO PUSH2 0x148F JUMPI PUSH2 0x148E PUSH2 0x104C JUMP JUMPDEST JUMPDEST PUSH2 0x149B DUP7 DUP3 DUP8 ADD PUSH2 0x142A JUMP JUMPDEST SWAP4 POP POP PUSH1 0x20 PUSH2 0x14AC DUP7 DUP3 DUP8 ADD PUSH2 0x12E1 JUMP JUMPDEST SWAP3 POP POP PUSH1 0x40 PUSH2 0x14BD DUP7 DUP3 DUP8 ADD PUSH2 0x1074 JUMP JUMPDEST SWAP2 POP POP SWAP3 POP SWAP3 POP SWAP3 JUMP JUMPDEST PUSH1 0x0 DUP2 SWAP1 POP SWAP2 SWAP1 POP JUMP JUMPDEST PUSH2 0x14DA DUP2 PUSH2 0x14C7 JUMP JUMPDEST DUP2 EQ PUSH2 0x14E5 JUMPI PUSH1 0x0 DUP1 REVERT JUMPDEST POP JUMP JUMPDEST PUSH1 0x0 DUP2 CALLDATALOAD SWAP1 POP PUSH2 0x14F7 DUP2 PUSH2 0x14D1 JUMP JUMPDEST SWAP3 SWAP2 POP POP JUMP JUMPDEST PUSH1 0x0 PUSH1 0x20 DUP3 DUP5 SUB SLT ISZERO PUSH2 0x1513 JUMPI PUSH2 0x1512 PUSH2 0x1047 JUMP JUMPDEST JUMPDEST PUSH1 0x0 PUSH2 0x1521 DUP5 DUP3 DUP6 ADD PUSH2 0x14E8 JUMP JUMPDEST SWAP2 POP POP SWAP3 SWAP2 POP POP JUMP JUMPDEST PUSH32 0x4E487B7100000000000000000000000000000000000000000000000000000000 PUSH1 0x0 MSTORE PUSH1 0x22 PUSH1 0x4 MSTORE PUSH1 0x24 PUSH1 0x0 REVERT JUMPDEST PUSH1 0x0 PUSH1 0x2 DUP3 DIV SWAP1 POP PUSH1 0x1 DUP3 AND DUP1 PUSH2 0x1571 JUMPI PUSH1 0x7F DUP3 AND SWAP2 POP JUMPDEST PUSH1 0x20 DUP3 LT DUP2 SUB PUSH2 0x1584 JUMPI PUSH2 0x1583 PUSH2 0x152A JUMP JUMPDEST JUMPDEST POP SWAP2 SWAP1 POP JUMP JUMPDEST PUSH1 0x0 DUP2 SWAP1 POP DUP2 PUSH1 0x0 MSTORE PUSH1 0x20 PUSH1 0x0 KECCAK256 SWAP1 POP SWAP2 SWAP1 POP JUMP JUMPDEST PUSH1 0x0 PUSH1 0x20 PUSH1 0x1F DUP4 ADD DIV SWAP1 POP SWAP2 SWAP1 POP JUMP JUMPDEST PUSH1 0x0 DUP3 DUP3 SHL SWAP1 POP SWAP3 SWAP2 POP POP JUMP JUMPDEST PUSH1 0x0 PUSH1 0x8 DUP4 MUL PUSH2 0x15EC PUSH32 0xFFFFFFFFFFFFFFFFFFFFFFFFFFFFFFFFFFFFFFFFFFFFFFFFFFFFFFFFFFFFFFFF DUP3 PUSH2 0x15AF JUMP JUMPDEST PUSH2 0x15F6 DUP7 DUP4 PUSH2 0x15AF JUMP JUMPDEST SWAP6 POP DUP1 NOT DUP5 AND SWAP4 POP DUP1 DUP7 AND DUP5 OR SWAP3 POP POP POP SWAP4 SWAP3 POP POP POP JUMP JUMPDEST PUSH1 0x0 DUP2 SWAP1 POP SWAP2 SWAP1 POP JUMP JUMPDEST PUSH1 0x0 PUSH2 0x1633 PUSH2 0x162E PUSH2 0x1629 DUP5 PUSH2 0x14C7 JUMP JUMPDEST PUSH2 0x160E JUMP JUMPDEST PUSH2 0x14C7 JUMP JUMPDEST SWAP1 POP SWAP2 SWAP1 POP JUMP JUMPDEST PUSH1 0x0 DUP2 SWAP1 POP SWAP2 SWAP1 POP JUMP JUMPDEST PUSH2 0x164D DUP4 PUSH2 0x1618 JUMP JUMPDEST PUSH2 0x1661 PUSH2 0x1659 DUP3 PUSH2 0x163A JUMP JUMPDEST DUP5 DUP5 SLOAD PUSH2 0x15BC JUMP JUMPDEST DUP3 SSTORE POP POP POP POP JUMP JUMPDEST PUSH1 0x0 SWAP1 JUMP JUMPDEST PUSH2 0x1676 PUSH2 0x1669 JUMP JUMPDEST PUSH2 0x1681 DUP2 DUP5 DUP5 PUSH2 0x1644 JUMP JUMPDEST POP POP POP JUMP JUMPDEST JUMPDEST DUP2 DUP2 LT ISZERO PUSH2 0x16A5 JUMPI PUSH2 0x169A PUSH1 0x0 DUP3 PUSH2 0x166E JUMP JUMPDEST PUSH1 0x1 DUP2 ADD SWAP1 POP PUSH2 0x1687 JUMP JUMPDEST POP POP JUMP JUMPDEST PUSH1 0x1F DUP3 GT ISZERO PUSH2 0x16EA JUMPI PUSH2 0x16BB DUP2 PUSH2 0x158A JUMP JUMPDEST PUSH2 0x16C4 DUP5 PUSH2 0x159F JUMP JUMPDEST DUP2 ADD PUSH1 0x20 DUP6 LT ISZERO PUSH2 0x16D3 JUMPI DUP2 SWAP1 POP JUMPDEST PUSH2 0x16E7 PUSH2 0x16DF DUP6 PUSH2 0x159F JUMP JUMPDEST DUP4 ADD DUP3 PUSH2 0x1686 JUMP JUMPDEST POP POP JUMPDEST POP POP POP JUMP JUMPDEST PUSH1 0x0 DUP3 DUP3 SHR SWAP1 POP SWAP3 SWAP2 POP POP JUMP JUMPDEST PUSH1 0x0 PUSH2 0x170D PUSH1 0x0 NOT DUP5 PUSH1 0x8 MUL PUSH2 0x16EF JUMP JUMPDEST NOT DUP1 DUP4 AND SWAP2 POP POP SWAP3 SWAP2 POP POP JUMP JUMPDEST PUSH1 0x0 PUSH2 0x1726 DUP4 DUP4 PUSH2 0x16FC JUMP JUMPDEST SWAP2 POP DUP3 PUSH1 0x2 MUL DUP3 OR SWAP1 POP SWAP3 SWAP2 POP POP JUMP JUMPDEST PUSH2 0x173F DUP3 PUSH2 0x10E2 JUMP JUMPDEST PUSH8 0xFFFFFFFFFFFFFFFF DUP2 GT ISZERO PUSH2 0x1758 JUMPI PUSH2 0x1757 PUSH2 0x132D JUMP JUMPDEST JUMPDEST PUSH2 0x1762 DUP3 SLOAD PUSH2 0x1559 JUMP JUMPDEST PUSH2 0x176D DUP3 DUP3 DUP6 PUSH2 0x16A9 JUMP JUMPDEST PUSH1 0x0 PUSH1 0x20 SWAP1 POP PUSH1 0x1F DUP4 GT PUSH1 0x1 DUP2 EQ PUSH2 0x17A0 JUMPI PUSH1 0x0 DUP5 ISZERO PUSH2 0x178E JUMPI DUP3 DUP8 ADD MLOAD SWAP1 POP JUMPDEST PUSH2 0x1798 DUP6 DUP3 PUSH2 0x171A JUMP JUMPDEST DUP7 SSTORE POP PUSH2 0x1800 JUMP JUMPDEST PUSH1 0x1F NOT DUP5 AND PUSH2 0x17AE DUP7 PUSH2 0x158A JUMP JUMPDEST PUSH1 0x0 JUMPDEST DUP3 DUP2 LT ISZERO PUSH2 0x17D6 JUMPI DUP5 DUP10 ADD MLOAD DUP3 SSTORE PUSH1 0x1 DUP3 ADD SWAP2 POP PUSH1 0x20 DUP6 ADD SWAP5 POP PUSH1 0x20 DUP2 ADD SWAP1 POP PUSH2 0x17B1 JUMP JUMPDEST DUP7 DUP4 LT ISZERO PUSH2 0x17F3 JUMPI DUP5 DUP10 ADD MLOAD PUSH2 0x17EF PUSH1 0x1F DUP10 AND DUP3 PUSH2 0x16FC JUMP JUMPDEST DUP4 SSTORE POP JUMPDEST PUSH1 0x1 PUSH1 0x2 DUP9 MUL ADD DUP9 SSTORE POP POP POP JUMPDEST POP POP POP POP POP POP JUMP JUMPDEST PUSH1 0x0 DUP2 SLOAD SWAP1 POP PUSH2 0x1817 DUP2 PUSH2 0x1559 JUMP JUMPDEST SWAP1 POP SWAP2 SWAP1 POP JUMP JUMPDEST DUP2 DUP2 SUB PUSH2 0x182C JUMPI POP POP PUSH2 0x1904 JUMP JUMPDEST PUSH2 0x1835 DUP3 PUSH2 0x1808 JUMP JUMPDEST PUSH8 0xFFFFFFFFFFFFFFFF DUP2 GT ISZERO PUSH2 0x184E JUMPI PUSH2 0x184D PUSH2 0x132D JUMP JUMPDEST JUMPDEST PUSH2 0x1858 DUP3 SLOAD PUSH2 0x1559 JUMP JUMPDEST PUSH2 0x1863 DUP3 DUP3 DUP6 PUSH2 0x16A9 JUMP JUMPDEST PUSH1 0x0 PUSH1 0x1F DUP4 GT PUSH1 0x1 DUP2 EQ PUSH2 0x1892 JUMPI PUSH1 0x0 DUP5 ISZERO PUSH2 0x1880 JUMPI DUP3 DUP8 ADD SLOAD SWAP1 POP JUMPDEST PUSH2 0x188A DUP6 DUP3 PUSH2 0x171A JUMP JUMPDEST DUP7 SSTORE POP PUSH2 0x18FD JUMP JUMPDEST PUSH1 0x1F NOT DUP5 AND PUSH2 0x18A0 DUP8 PUSH2 0x158A JUMP JUMPDEST SWAP7 POP PUSH2 0x18AB DUP7 PUSH2 0x158A JUMP JUMPDEST PUSH1 0x0 JUMPDEST DUP3 DUP2 LT ISZERO PUSH2 0x18D3 JUMPI DUP5 DUP10 ADD SLOAD DUP3 SSTORE PUSH1 0x1 DUP3 ADD SWAP2 POP PUSH1 0x1 DUP6 ADD SWAP5 POP PUSH1 0x20 DUP2 ADD SWAP1 POP PUSH2 0x18AE JUMP JUMPDEST DUP7 DUP4 LT ISZERO PUSH2 0x18F0 JUMPI DUP5 DUP10 ADD SLOAD PUSH2 0x18EC PUSH1 0x1F DUP10 AND DUP3 PUSH2 0x16FC JUMP JUMPDEST DUP4 SSTORE POP JUMPDEST PUSH1 0x1 PUSH1 0x2 DUP9 MUL ADD DUP9 SSTORE POP POP POP JUMPDEST POP POP POP POP POP POP JUMPDEST JUMP JUMPDEST PUSH32 0x4E487B7100000000000000000000000000000000000000000000000000000000 PUSH1 0x0 MSTORE PUSH1 0x11 PUSH1 0x4 MSTORE PUSH1 0x24 PUSH1 0x0 REVERT JUMPDEST PUSH1 0x0 PUSH2 0x1940 DUP3 PUSH2 0x14C7 JUMP JUMPDEST SWAP2 POP PUSH32 0xFFFFFFFFFFFFFFFFFFFFFFFFFFFFFFFFFFFFFFFFFFFFFFFFFFFFFFFFFFFFFFFF DUP3 SUB PUSH2 0x1972 JUMPI PUSH2 0x1971 PUSH2 0x1906 JUMP JUMPDEST JUMPDEST PUSH1 0x1 DUP3 ADD SWAP1 POP SWAP2 SWAP1 POP JUMP JUMPDEST PUSH32 0x4E487B7100000000000000000000000000000000000000000000000000000000 PUSH1 0x0 MSTORE PUSH1 0x32 PUSH1 0x4 MSTORE PUSH1 0x24 PUSH1 0x0 REVERT JUMPDEST PUSH1 0x0 PUSH2 0x19B7 DUP3 PUSH2 0x14C7 JUMP JUMPDEST SWAP2 POP PUSH2 0x19C2 DUP4 PUSH2 0x14C7 JUMP JUMPDEST SWAP3 POP DUP3 DUP3 SUB SWAP1 POP DUP2 DUP2 GT ISZERO PUSH2 0x19DA JUMPI PUSH2 0x19D9 PUSH2 0x1906 JUMP JUMPDEST JUMPDEST SWAP3 SWAP2 POP POP JUMP JUMPDEST PUSH32 0x4E487B7100000000000000000000000000000000000000000000000000000000 PUSH1 0x0 MSTORE PUSH1 0x31 PUSH1 0x4 MSTORE PUSH1 0x24 PUSH1 0x0 REVERT INVALID LOG2 PUSH5 0x6970667358 0x22 SLT KECCAK256 MSTORE8 0xDA 0xE2 SIGNEXTEND CALLDATALOAD STOP INVALID 0x4F 0x1F SWAP12 PUSH28 0x77ED1D6584AAF4A9AAF46069ED25971B206C226F5F64736F6C634300 ADDMOD LT STOP CALLER "},"gasEstimates":{"creation":{"codeDepositCost":"1345000","executionCost":"11415","totalCost":"1356415"},"external":{"approvePost(uint256)":"infinite","getAllPosts(bool)":"infinite","getPostsByUser(address)":"infinite","postNews(string,address,bool)":"infinite"}},"methodIdentifiers":{"approvePost(uint256)":"95caa166","getAllPosts(bool)":"1e0f71fe","getPostsByUser(address)":"28538949","postNews(string,address,bool)":"39fec887"}},"storageLayout":{"storage":[{"astId":11,"contract":"PostNewsContract.sol:PostNewsContract","label":"instanceOfPost","offset":0,"slot":"0","type":"t_struct(PostStructure)8_storage"},{"astId":15,"contract":"PostNewsContract.sol:PostNewsContract","label":"allThePosts","offset":0,"slot":"2","type":"t_array(t_struct(PostStructure)8_storage)dyn_storage"},{"astId":21,"contract":"PostNewsContract.sol:PostNewsContract","label":"postOfUser","offset":0,"slot":"3","type":"t_mapping(t_address,t_array(t_struct(PostStructure)8_storage)dyn_storage)"},{"astId":25,"contract":"PostNewsContract.sol:PostNewsContract","label":"allTheRequestedPosts","offset":0,"slot":"4","type":"t_array(t_struct(PostStructure)8_storage)dyn_storage"},{"astId":31,"contract":"PostNewsContract.sol:PostNewsContract","label":"postOfRequestingUser","offset":0,"slot":"5","type":"t_mapping(t_address,t_array(t_struct(PostStructure)8_storage)dyn_storage)"},{"astId":36,"contract":"PostNewsContract.sol:PostNewsContract","label":"postFromIdx","offset":0,"slot":"6","type":"t_mapping(t_uint256,t_struct(PostStructure)8_storage)"},{"astId":39,"contract":"PostNewsContract.sol:PostNewsContract","label":"requestPostIndex","offset":0,"slot":"7","type":"t_uint256"},{"astId":42,"contract":"PostNewsContract.sol:PostNewsContract","label":"approvedPostIndex","offset":0,"slot":"8","type":"t_uint256"}],"types":{"t_address":{"encoding":"inplace","label":"address","numberOfBytes":"20"},"t_array(t_struct(PostStructure)8_storage)dyn_storage":{"base":"t_struct(PostStructure)8_storage","encoding":"dynamic_array","label":"struct PostNewsContract.PostStructure[]","numberOfBytes":"32"},"t_bool":{"encoding":"inplace","label":"bool","numberOfBytes":"1"},"t_mapping(t_address,t_array(t_struct(PostStructure)8_storage)dyn_storage)":{"encoding":"mapping","key":"t_address","label":"mapping(address => struct PostNewsContract.PostStructure[])","numberOfBytes":"32","value":"t_array(t_struct(PostStructure)8_storage)dyn_storage"},"t_mapping(t_uint256,t_struct(PostStructure)8_storage)":{"encoding":"mapping","key":"t_uint256","label":"mapping(uint256 => struct PostNewsContract.PostStructure)","numberOfBytes":"32","value":"t_struct(PostStructure)8_storage"},"t_string_storage":{"encoding":"bytes","label":"string","numberOfBytes":"32"},"t_struct(PostStructure)8_storage":{"encoding":"inplace","label":"struct PostNewsContract.PostStructure","members":[{"astId":3,"contract":"PostNewsContract.sol:PostNewsContract","label":"postHash","offset":0,"slot":"0","type":"t_string_storage"},{"astId":5,"contract":"PostNewsContract.sol:PostNewsContract","label":"postCreator","offset":0,"slot":"1","type":"t_address"},{"astId":7,"contract":"PostNewsContract.sol:PostNewsContract","label":"isRequest","offset":20,"slot":"1","type":"t_bool"}],"numberOfBytes":"64"},"t_uint256":{"encoding":"inplace","label":"uint256","numberOfBytes":"32"}}},"userdoc":{"kind":"user","methods":{},"version":1}}