{"abi":[{"inputs":[{"internalType":"string","name":"_post","type":"string"},{"internalType":"string","name":"_dept","type":"string"},{"internalType":"string","name":"_name","type":"string"},{"internalType":"address","name":"_userAddress","type":"address"},{"internalType":"bool","name":"request","type":"bool"}],"name":"addOrRequestMember","outputs":[],"stateMutability":"nonpayable","type":"function"},{"inputs":[{"internalType":"address","name":"_userAddress","type":"address"},{"internalType":"address","name":"approvingUserAddress","type":"address"}],"name":"approoveRequest","outputs":[],"stateMutability":"nonpayable","type":"function"},{"inputs":[{"internalType":"address","name":"_requestedBy","type":"address"},{"internalType":"address","name":"_approvedBy","type":"address"}],"name":"approvePost","outputs":[],"stateMutability":"nonpayable","type":"function"},{"inputs":[{"internalType":"address","name":"_userAddress","type":"address"},{"internalType":"bool","name":"requestedMember","type":"bool"}],"name":"findMember","outputs":[{"components":[{"internalType":"string","name":"post","type":"string"},{"internalType":"string","name":"dept","type":"string"},{"internalType":"string","name":"name","type":"string"},{"internalType":"address","name":"userAddress","type":"address"},{"internalType":"uint256","name":"power","type":"uint256"},{"components":[{"internalType":"string","name":"postHash","type":"string"},{"internalType":"address","name":"postCreator","type":"address"},{"internalType":"bool","name":"isRequest","type":"bool"}],"internalType":"struct Contract.PostStructure[]","name":"allPostsByUser","type":"tuple[]"}],"internalType":"struct Contract.MemberStruct","name":"","type":"tuple"}],"stateMutability":"view","type":"function"},{"inputs":[{"internalType":"bool","name":"requestedPosts","type":"bool"}],"name":"getAllPosts","outputs":[{"components":[{"internalType":"string","name":"postHash","type":"string"},{"internalType":"address","name":"postCreator","type":"address"},{"internalType":"bool","name":"isRequest","type":"bool"}],"internalType":"struct Contract.PostStructure[]","name":"","type":"tuple[]"}],"stateMutability":"view","type":"function"},{"inputs":[{"internalType":"bool","name":"request","type":"bool"}],"name":"getApprovedOrRequestedMember","outputs":[{"components":[{"internalType":"string","name":"post","type":"string"},{"internalType":"string","name":"dept","type":"string"},{"internalType":"string","name":"name","type":"string"},{"internalType":"address","name":"userAddress","type":"address"},{"internalType":"uint256","name":"power","type":"uint256"},{"components":[{"internalType":"string","name":"postHash","type":"string"},{"internalType":"address","name":"postCreator","type":"address"},{"internalType":"bool","name":"isRequest","type":"bool"}],"internalType":"struct Contract.PostStructure[]","name":"allPostsByUser","type":"tuple[]"}],"internalType":"struct Contract.MemberStruct[]","name":"","type":"tuple[]"}],"stateMutability":"view","type":"function"},{"inputs":[{"internalType":"address","name":"_userAddress","type":"address"}],"name":"getPostsByUser","outputs":[{"components":[{"internalType":"string","name":"postHash","type":"string"},{"internalType":"address","name":"postCreator","type":"address"},{"internalType":"bool","name":"isRequest","type":"bool"}],"internalType":"struct Contract.PostStructure[]","name":"","type":"tuple[]"}],"stateMutability":"view","type":"function"},{"inputs":[{"internalType":"address","name":"userAddress","type":"address"}],"name":"login","outputs":[{"internalType":"bool","name":"","type":"bool"}],"stateMutability":"view","type":"function"},{"inputs":[{"internalType":"address","name":"_userAddress","type":"address"}],"name":"memberExistOrNot","outputs":[{"internalType":"bool","name":"","type":"bool"}],"stateMutability":"view","type":"function"},{"inputs":[{"internalType":"string","name":"_postHash","type":"string"},{"internalType":"address","name":"_postCreator","type":"address"},{"internalType":"bool","name":"_isRequest","type":"bool"}],"name":"postNews","outputs":[],"stateMutability":"nonpayable","type":"function"},{"inputs":[],"name":"recieve","outputs":[],"stateMutability":"payable","type":"function"}],"devdoc":{"kind":"dev","methods":{},"version":1},"evm":{"assembly":"    /* \"Contract.sol\":642:11383  contract Contract {... */\n  mstore(0x40, 0x80)\n    /* \"Contract.sol\":1155:1156  0 */\n  0x00\n    /* \"Contract.sol\":1132:1156  uint256 requestIndex = 0 */\n  dup1\n  sstore\n    /* \"Contract.sol\":1185:1186  0 */\n  0x00\n    /* \"Contract.sol\":1163:1186  uint256 memberIndex = 0 */\n  0x01\n  sstore\n    /* \"Contract.sol\":642:11383  contract Contract {... */\n  callvalue\n  dup1\n  iszero\n  tag_1\n  jumpi\n  0x00\n  dup1\n  revert\ntag_1:\n  pop\n  dataSize(sub_0)\n  dup1\n  dataOffset(sub_0)\n  0x00\n  codecopy\n  0x00\n  return\nstop\n\nsub_0: assembly {\n        /* \"Contract.sol\":642:11383  contract Contract {... */\n      mstore(0x40, 0x80)\n      jumpi(tag_1, lt(calldatasize, 0x04))\n      shr(0xe0, calldataload(0x00))\n      dup1\n      0x529d3797\n      gt\n      tag_13\n      jumpi\n      dup1\n      0x529d3797\n      eq\n      tag_7\n      jumpi\n      dup1\n      0x64e47536\n      eq\n      tag_8\n      jumpi\n      dup1\n      0xa9e10bf2\n      eq\n      tag_9\n      jumpi\n      dup1\n      0xbafa08c1\n      eq\n      tag_10\n      jumpi\n      dup1\n      0xe070dd12\n      eq\n      tag_11\n      jumpi\n      dup1\n      0xe473f6cd\n      eq\n      tag_12\n      jumpi\n      jump(tag_1)\n    tag_13:\n      dup1\n      0x1e0f71fe\n      eq\n      tag_2\n      jumpi\n      dup1\n      0x28538949\n      eq\n      tag_3\n      jumpi\n      dup1\n      0x35a6861a\n      eq\n      tag_4\n      jumpi\n      dup1\n      0x39fec887\n      eq\n      tag_5\n      jumpi\n      dup1\n      0x4cd6f25e\n      eq\n      tag_6\n      jumpi\n    tag_1:\n      0x00\n      dup1\n      revert\n        /* \"Contract.sol\":9460:9722  function getAllPosts(bool requestedPosts)... */\n    tag_2:\n      callvalue\n      dup1\n      iszero\n      tag_14\n      jumpi\n      0x00\n      dup1\n      revert\n    tag_14:\n      pop\n      tag_15\n      0x04\n      dup1\n      calldatasize\n      sub\n      dup2\n      add\n      swap1\n      tag_16\n      swap2\n      swap1\n      tag_17\n      jump\t// in\n    tag_16:\n      tag_18\n      jump\t// in\n    tag_15:\n      mload(0x40)\n      tag_19\n      swap2\n      swap1\n      tag_20\n      jump\t// in\n    tag_19:\n      mload(0x40)\n      dup1\n      swap2\n      sub\n      swap1\n      return\n        /* \"Contract.sol\":11051:11249  function getPostsByUser(address _userAddress)... */\n    tag_3:\n      callvalue\n      dup1\n      iszero\n      tag_21\n      jumpi\n      0x00\n      dup1\n      revert\n    tag_21:\n      pop\n      tag_22\n      0x04\n      dup1\n      calldatasize\n      sub\n      dup2\n      add\n      swap1\n      tag_23\n      swap2\n      swap1\n      tag_24\n      jump\t// in\n    tag_23:\n      tag_25\n      jump\t// in\n    tag_22:\n      mload(0x40)\n      tag_26\n      swap2\n      swap1\n      tag_20\n      jump\t// in\n    tag_26:\n      mload(0x40)\n      dup1\n      swap2\n      sub\n      swap1\n      return\n        /* \"Contract.sol\":7175:7293  function login(address userAddress) public view returns (bool) {... */\n    tag_4:\n      callvalue\n      dup1\n      iszero\n      tag_27\n      jumpi\n      0x00\n      dup1\n      revert\n    tag_27:\n      pop\n      tag_28\n      0x04\n      dup1\n      calldatasize\n      sub\n      dup2\n      add\n      swap1\n      tag_29\n      swap2\n      swap1\n      tag_24\n      jump\t// in\n    tag_29:\n      tag_30\n      jump\t// in\n    tag_28:\n      mload(0x40)\n      tag_31\n      swap2\n      swap1\n      tag_32\n      jump\t// in\n    tag_31:\n      mload(0x40)\n      dup1\n      swap2\n      sub\n      swap1\n      return\n        /* \"Contract.sol\":8314:9452  function postNews(... */\n    tag_5:\n      callvalue\n      dup1\n      iszero\n      tag_33\n      jumpi\n      0x00\n      dup1\n      revert\n    tag_33:\n      pop\n      tag_34\n      0x04\n      dup1\n      calldatasize\n      sub\n      dup2\n      add\n      swap1\n      tag_35\n      swap2\n      swap1\n      tag_36\n      jump\t// in\n    tag_35:\n      tag_37\n      jump\t// in\n    tag_34:\n      stop\n        /* \"Contract.sol\":2296:4956  function addOrRequestMember(... */\n    tag_6:\n      callvalue\n      dup1\n      iszero\n      tag_38\n      jumpi\n      0x00\n      dup1\n      revert\n    tag_38:\n      pop\n      tag_39\n      0x04\n      dup1\n      calldatasize\n      sub\n      dup2\n      add\n      swap1\n      tag_40\n      swap2\n      swap1\n      tag_41\n      jump\t// in\n    tag_40:\n      tag_42\n      jump\t// in\n    tag_39:\n      stop\n        /* \"Contract.sol\":9730:11043  function approvePost(address _requestedBy, address _approvedBy) public {... */\n    tag_7:\n      callvalue\n      dup1\n      iszero\n      tag_43\n      jumpi\n      0x00\n      dup1\n      revert\n    tag_43:\n      pop\n      tag_44\n      0x04\n      dup1\n      calldatasize\n      sub\n      dup2\n      add\n      swap1\n      tag_45\n      swap2\n      swap1\n      tag_46\n      jump\t// in\n    tag_45:\n      tag_47\n      jump\t// in\n    tag_44:\n      stop\n        /* \"Contract.sol\":6700:6917  function memberExistOrNot(address _userAddress) public view returns (bool) {... */\n    tag_8:\n      callvalue\n      dup1\n      iszero\n      tag_48\n      jumpi\n      0x00\n      dup1\n      revert\n    tag_48:\n      pop\n      tag_49\n      0x04\n      dup1\n      calldatasize\n      sub\n      dup2\n      add\n      swap1\n      tag_50\n      swap2\n      swap1\n      tag_24\n      jump\t// in\n    tag_50:\n      tag_51\n      jump\t// in\n    tag_49:\n      mload(0x40)\n      tag_52\n      swap2\n      swap1\n      tag_32\n      jump\t// in\n    tag_52:\n      mload(0x40)\n      dup1\n      swap2\n      sub\n      swap1\n      return\n        /* \"Contract.sol\":667:705  function recieve() external payable {} */\n    tag_9:\n      tag_53\n      tag_54\n      jump\t// in\n    tag_53:\n      stop\n        /* \"Contract.sol\":5076:5412  function findMember(address _userAddress, bool requestedMember)... */\n    tag_10:\n      callvalue\n      dup1\n      iszero\n      tag_55\n      jumpi\n      0x00\n      dup1\n      revert\n    tag_55:\n      pop\n      tag_56\n      0x04\n      dup1\n      calldatasize\n      sub\n      dup2\n      add\n      swap1\n      tag_57\n      swap2\n      swap1\n      tag_58\n      jump\t// in\n    tag_57:\n      tag_59\n      jump\t// in\n    tag_56:\n      mload(0x40)\n      tag_60\n      swap2\n      swap1\n      tag_61\n      jump\t// in\n    tag_60:\n      mload(0x40)\n      dup1\n      swap2\n      sub\n      swap1\n      return\n        /* \"Contract.sol\":5457:6644  function approoveRequest(address _userAddress, address approvingUserAddress)... */\n    tag_11:\n      callvalue\n      dup1\n      iszero\n      tag_62\n      jumpi\n      0x00\n      dup1\n      revert\n    tag_62:\n      pop\n      tag_63\n      0x04\n      dup1\n      calldatasize\n      sub\n      dup2\n      add\n      swap1\n      tag_64\n      swap2\n      swap1\n      tag_46\n      jump\t// in\n    tag_64:\n      tag_65\n      jump\t// in\n    tag_63:\n      stop\n        /* \"Contract.sol\":1821:2099  function getApprovedOrRequestedMember(bool request)... */\n    tag_12:\n      callvalue\n      dup1\n      iszero\n      tag_66\n      jumpi\n      0x00\n      dup1\n      revert\n    tag_66:\n      pop\n      tag_67\n      0x04\n      dup1\n      calldatasize\n      sub\n      dup2\n      add\n      swap1\n      tag_68\n      swap2\n      swap1\n      tag_17\n      jump\t// in\n    tag_68:\n      tag_69\n      jump\t// in\n    tag_67:\n      mload(0x40)\n      tag_70\n      swap2\n      swap1\n      tag_71\n      jump\t// in\n    tag_70:\n      mload(0x40)\n      dup1\n      swap2\n      sub\n      swap1\n      return\n        /* \"Contract.sol\":9460:9722  function getAllPosts(bool requestedPosts)... */\n    tag_18:\n        /* \"Contract.sol\":9550:9572  PostStructure[] memory */\n      0x60\n        /* \"Contract.sol\":9594:9608  requestedPosts */\n      dup2\n        /* \"Contract.sol\":9590:9715  if (requestedPosts) {... */\n      iszero\n      tag_73\n      jumpi\n        /* \"Contract.sol\":9632:9652  allTheRequestedPosts */\n      0x14\n        /* \"Contract.sol\":9625:9652  return allTheRequestedPosts */\n      dup1\n      sload\n      dup1\n      0x20\n      mul\n      0x20\n      add\n      mload(0x40)\n      swap1\n      dup2\n      add\n      0x40\n      mstore\n      dup1\n      swap3\n      swap2\n      swap1\n      dup2\n      dup2\n      mstore\n      0x20\n      add\n      0x00\n      swap1\n    tag_74:\n      dup3\n      dup3\n      lt\n      iszero\n      tag_75\n      jumpi\n      dup4\n      dup3\n      swap1\n      0x00\n      mstore\n      keccak256(0x00, 0x20)\n      swap1\n      0x02\n      mul\n      add\n      mload(0x40)\n      dup1\n      0x60\n      add\n      0x40\n      mstore\n      swap1\n      dup2\n      0x00\n      dup3\n      add\n      dup1\n      sload\n      tag_77\n      swap1\n      tag_78\n      jump\t// in\n    tag_77:\n      dup1\n      0x1f\n      add\n      0x20\n      dup1\n      swap2\n      div\n      mul\n      0x20\n      add\n      mload(0x40)\n      swap1\n      dup2\n      add\n      0x40\n      mstore\n      dup1\n      swap3\n      swap2\n      swap1\n      dup2\n      dup2\n      mstore\n      0x20\n      add\n      dup3\n      dup1\n      sload\n      tag_79\n      swap1\n      tag_78\n      jump\t// in\n    tag_79:\n      dup1\n      iszero\n      tag_80\n      jumpi\n      dup1\n      0x1f\n      lt\n      tag_81\n      jumpi\n      0x0100\n      dup1\n      dup4\n      sload\n      div\n      mul\n      dup4\n      mstore\n      swap2\n      0x20\n      add\n      swap2\n      jump(tag_80)\n    tag_81:\n      dup3\n      add\n      swap2\n      swap1\n      0x00\n      mstore\n      keccak256(0x00, 0x20)\n      swap1\n    tag_82:\n      dup2\n      sload\n      dup2\n      mstore\n      swap1\n      0x01\n      add\n      swap1\n      0x20\n      add\n      dup1\n      dup4\n      gt\n      tag_82\n      jumpi\n      dup3\n      swap1\n      sub\n      0x1f\n      and\n      dup3\n      add\n      swap2\n    tag_80:\n      pop\n      pop\n      pop\n      pop\n      pop\n      dup2\n      mstore\n      0x20\n      add\n      0x01\n      dup3\n      add\n      0x00\n      swap1\n      sload\n      swap1\n      0x0100\n      exp\n      swap1\n      div\n      0xffffffffffffffffffffffffffffffffffffffff\n      and\n      0xffffffffffffffffffffffffffffffffffffffff\n      and\n      0xffffffffffffffffffffffffffffffffffffffff\n      and\n      dup2\n      mstore\n      0x20\n      add\n      0x01\n      dup3\n      add\n      0x14\n      swap1\n      sload\n      swap1\n      0x0100\n      exp\n      swap1\n      div\n      0xff\n      and\n      iszero\n      iszero\n      iszero\n      iszero\n      dup2\n      mstore\n      pop\n      pop\n      dup2\n      mstore\n      0x20\n      add\n      swap1\n      0x01\n      add\n      swap1\n      jump(tag_74)\n    tag_75:\n      pop\n      pop\n      pop\n      pop\n      swap1\n      pop\n      jump(tag_72)\n        /* \"Contract.sol\":9590:9715  if (requestedPosts) {... */\n    tag_73:\n        /* \"Contract.sol\":9692:9703  allThePosts */\n      0x12\n        /* \"Contract.sol\":9685:9703  return allThePosts */\n      dup1\n      sload\n      dup1\n      0x20\n      mul\n      0x20\n      add\n      mload(0x40)\n      swap1\n      dup2\n      add\n      0x40\n      mstore\n      dup1\n      swap3\n      swap2\n      swap1\n      dup2\n      dup2\n      mstore\n      0x20\n      add\n      0x00\n      swap1\n    tag_84:\n      dup3\n      dup3\n      lt\n      iszero\n      tag_85\n      jumpi\n      dup4\n      dup3\n      swap1\n      0x00\n      mstore\n      keccak256(0x00, 0x20)\n      swap1\n      0x02\n      mul\n      add\n      mload(0x40)\n      dup1\n      0x60\n      add\n      0x40\n      mstore\n      swap1\n      dup2\n      0x00\n      dup3\n      add\n      dup1\n      sload\n      tag_87\n      swap1\n      tag_78\n      jump\t// in\n    tag_87:\n      dup1\n      0x1f\n      add\n      0x20\n      dup1\n      swap2\n      div\n      mul\n      0x20\n      add\n      mload(0x40)\n      swap1\n      dup2\n      add\n      0x40\n      mstore\n      dup1\n      swap3\n      swap2\n      swap1\n      dup2\n      dup2\n      mstore\n      0x20\n      add\n      dup3\n      dup1\n      sload\n      tag_88\n      swap1\n      tag_78\n      jump\t// in\n    tag_88:\n      dup1\n      iszero\n      tag_89\n      jumpi\n      dup1\n      0x1f\n      lt\n      tag_90\n      jumpi\n      0x0100\n      dup1\n      dup4\n      sload\n      div\n      mul\n      dup4\n      mstore\n      swap2\n      0x20\n      add\n      swap2\n      jump(tag_89)\n    tag_90:\n      dup3\n      add\n      swap2\n      swap1\n      0x00\n      mstore\n      keccak256(0x00, 0x20)\n      swap1\n    tag_91:\n      dup2\n      sload\n      dup2\n      mstore\n      swap1\n      0x01\n      add\n      swap1\n      0x20\n      add\n      dup1\n      dup4\n      gt\n      tag_91\n      jumpi\n      dup3\n      swap1\n      sub\n      0x1f\n      and\n      dup3\n      add\n      swap2\n    tag_89:\n      pop\n      pop\n      pop\n      pop\n      pop\n      dup2\n      mstore\n      0x20\n      add\n      0x01\n      dup3\n      add\n      0x00\n      swap1\n      sload\n      swap1\n      0x0100\n      exp\n      swap1\n      div\n      0xffffffffffffffffffffffffffffffffffffffff\n      and\n      0xffffffffffffffffffffffffffffffffffffffff\n      and\n      0xffffffffffffffffffffffffffffffffffffffff\n      and\n      dup2\n      mstore\n      0x20\n      add\n      0x01\n      dup3\n      add\n      0x14\n      swap1\n      sload\n      swap1\n      0x0100\n      exp\n      swap1\n      div\n      0xff\n      and\n      iszero\n      iszero\n      iszero\n      iszero\n      dup2\n      mstore\n      pop\n      pop\n      dup2\n      mstore\n      0x20\n      add\n      swap1\n      0x01\n      add\n      swap1\n      jump(tag_84)\n    tag_85:\n      pop\n      pop\n      pop\n      pop\n      swap1\n      pop\n        /* \"Contract.sol\":9460:9722  function getAllPosts(bool requestedPosts)... */\n    tag_72:\n      swap2\n      swap1\n      pop\n      jump\t// out\n        /* \"Contract.sol\":11051:11249  function getPostsByUser(address _userAddress)... */\n    tag_25:\n        /* \"Contract.sol\":11145:11167  PostStructure[] memory */\n      0x60\n        /* \"Contract.sol\":11192:11212  getMemberWithAddress */\n      0x04\n        /* \"Contract.sol\":11192:11226  getMemberWithAddress[_userAddress] */\n      0x00\n        /* \"Contract.sol\":11213:11225  _userAddress */\n      dup4\n        /* \"Contract.sol\":11192:11226  getMemberWithAddress[_userAddress] */\n      0xffffffffffffffffffffffffffffffffffffffff\n      and\n      0xffffffffffffffffffffffffffffffffffffffff\n      and\n      dup2\n      mstore\n      0x20\n      add\n      swap1\n      dup2\n      mstore\n      0x20\n      add\n      0x00\n      keccak256\n        /* \"Contract.sol\":11192:11241  getMemberWithAddress[_userAddress].allPostsByUser */\n      0x05\n      add\n        /* \"Contract.sol\":11185:11241  return getMemberWithAddress[_userAddress].allPostsByUser */\n      dup1\n      sload\n      dup1\n      0x20\n      mul\n      0x20\n      add\n      mload(0x40)\n      swap1\n      dup2\n      add\n      0x40\n      mstore\n      dup1\n      swap3\n      swap2\n      swap1\n      dup2\n      dup2\n      mstore\n      0x20\n      add\n      0x00\n      swap1\n    tag_93:\n      dup3\n      dup3\n      lt\n      iszero\n      tag_94\n      jumpi\n      dup4\n      dup3\n      swap1\n      0x00\n      mstore\n      keccak256(0x00, 0x20)\n      swap1\n      0x02\n      mul\n      add\n      mload(0x40)\n      dup1\n      0x60\n      add\n      0x40\n      mstore\n      swap1\n      dup2\n      0x00\n      dup3\n      add\n      dup1\n      sload\n      tag_96\n      swap1\n      tag_78\n      jump\t// in\n    tag_96:\n      dup1\n      0x1f\n      add\n      0x20\n      dup1\n      swap2\n      div\n      mul\n      0x20\n      add\n      mload(0x40)\n      swap1\n      dup2\n      add\n      0x40\n      mstore\n      dup1\n      swap3\n      swap2\n      swap1\n      dup2\n      dup2\n      mstore\n      0x20\n      add\n      dup3\n      dup1\n      sload\n      tag_97\n      swap1\n      tag_78\n      jump\t// in\n    tag_97:\n      dup1\n      iszero\n      tag_98\n      jumpi\n      dup1\n      0x1f\n      lt\n      tag_99\n      jumpi\n      0x0100\n      dup1\n      dup4\n      sload\n      div\n      mul\n      dup4\n      mstore\n      swap2\n      0x20\n      add\n      swap2\n      jump(tag_98)\n    tag_99:\n      dup3\n      add\n      swap2\n      swap1\n      0x00\n      mstore\n      keccak256(0x00, 0x20)\n      swap1\n    tag_100:\n      dup2\n      sload\n      dup2\n      mstore\n      swap1\n      0x01\n      add\n      swap1\n      0x20\n      add\n      dup1\n      dup4\n      gt\n      tag_100\n      jumpi\n      dup3\n      swap1\n      sub\n      0x1f\n      and\n      dup3\n      add\n      swap2\n    tag_98:\n      pop\n      pop\n      pop\n      pop\n      pop\n      dup2\n      mstore\n      0x20\n      add\n      0x01\n      dup3\n      add\n      0x00\n      swap1\n      sload\n      swap1\n      0x0100\n      exp\n      swap1\n      div\n      0xffffffffffffffffffffffffffffffffffffffff\n      and\n      0xffffffffffffffffffffffffffffffffffffffff\n      and\n      0xffffffffffffffffffffffffffffffffffffffff\n      and\n      dup2\n      mstore\n      0x20\n      add\n      0x01\n      dup3\n      add\n      0x14\n      swap1\n      sload\n      swap1\n      0x0100\n      exp\n      swap1\n      div\n      0xff\n      and\n      iszero\n      iszero\n      iszero\n      iszero\n      dup2\n      mstore\n      pop\n      pop\n      dup2\n      mstore\n      0x20\n      add\n      swap1\n      0x01\n      add\n      swap1\n      jump(tag_93)\n    tag_94:\n      pop\n      pop\n      pop\n      pop\n      swap1\n      pop\n        /* \"Contract.sol\":11051:11249  function getPostsByUser(address _userAddress)... */\n      swap2\n      swap1\n      pop\n      jump\t// out\n        /* \"Contract.sol\":7175:7293  function login(address userAddress) public view returns (bool) {... */\n    tag_30:\n        /* \"Contract.sol\":7232:7236  bool */\n      0x00\n        /* \"Contract.sol\":7256:7285  memberExistOrNot(userAddress) */\n      tag_102\n        /* \"Contract.sol\":7273:7284  userAddress */\n      dup3\n        /* \"Contract.sol\":7256:7272  memberExistOrNot */\n      tag_51\n        /* \"Contract.sol\":7256:7285  memberExistOrNot(userAddress) */\n      jump\t// in\n    tag_102:\n        /* \"Contract.sol\":7249:7285  return memberExistOrNot(userAddress) */\n      swap1\n      pop\n        /* \"Contract.sol\":7175:7293  function login(address userAddress) public view returns (bool) {... */\n      swap2\n      swap1\n      pop\n      jump\t// out\n        /* \"Contract.sol\":8314:9452  function postNews(... */\n    tag_37:\n        /* \"Contract.sol\":8777:8786  _postHash */\n      dup3\n        /* \"Contract.sol\":8751:8765  instanceOfPost */\n      0x10\n        /* \"Contract.sol\":8751:8774  instanceOfPost.postHash */\n      0x00\n      add\n        /* \"Contract.sol\":8751:8786  instanceOfPost.postHash = _postHash */\n      swap1\n      dup2\n      tag_104\n      swap2\n      swap1\n      tag_105\n      jump\t// in\n    tag_104:\n      pop\n        /* \"Contract.sol\":8826:8838  _postCreator */\n      dup2\n        /* \"Contract.sol\":8797:8811  instanceOfPost */\n      0x10\n        /* \"Contract.sol\":8797:8823  instanceOfPost.postCreator */\n      0x01\n      add\n      0x00\n        /* \"Contract.sol\":8797:8838  instanceOfPost.postCreator = _postCreator */\n      0x0100\n      exp\n      dup2\n      sload\n      dup2\n      0xffffffffffffffffffffffffffffffffffffffff\n      mul\n      not\n      and\n      swap1\n      dup4\n      0xffffffffffffffffffffffffffffffffffffffff\n      and\n      mul\n      or\n      swap1\n      sstore\n      pop\n        /* \"Contract.sol\":8929:8939  _isRequest */\n      dup1\n        /* \"Contract.sol\":8902:8916  instanceOfPost */\n      0x10\n        /* \"Contract.sol\":8902:8926  instanceOfPost.isRequest */\n      0x01\n      add\n      0x14\n        /* \"Contract.sol\":8902:8939  instanceOfPost.isRequest = _isRequest */\n      0x0100\n      exp\n      dup2\n      sload\n      dup2\n      0xff\n      mul\n      not\n      and\n      swap1\n      dup4\n      iszero\n      iszero\n      mul\n      or\n      swap1\n      sstore\n      pop\n        /* \"Contract.sol\":8970:8974  true */\n      0x01\n        /* \"Contract.sol\":8956:8974  _isRequest != true */\n      iszero\n      iszero\n        /* \"Contract.sol\":8956:8966  _isRequest */\n      dup2\n        /* \"Contract.sol\":8956:8974  _isRequest != true */\n      iszero\n      iszero\n      eq\n        /* \"Contract.sol\":8952:9445  if (_isRequest != true) {... */\n      tag_106\n      jumpi\n        /* \"Contract.sol\":8991:9002  allThePosts */\n      0x12\n        /* \"Contract.sol\":9008:9022  instanceOfPost */\n      0x10\n        /* \"Contract.sol\":8991:9023  allThePosts.push(instanceOfPost) */\n      swap1\n      dup1\n      0x01\n      dup2\n      sload\n      add\n      dup1\n      dup3\n      sstore\n      dup1\n      swap2\n      pop\n      pop\n      0x01\n      swap1\n      sub\n      swap1\n      0x00\n      mstore\n      keccak256(0x00, 0x20)\n      swap1\n      0x02\n      mul\n      add\n      0x00\n      swap1\n      swap2\n      swap1\n      swap2\n      swap1\n      swap2\n      pop\n      0x00\n      dup3\n      add\n      dup2\n      0x00\n      add\n      swap1\n      dup2\n      tag_108\n      swap2\n      swap1\n      tag_109\n      jump\t// in\n    tag_108:\n      pop\n      0x01\n      dup3\n      add\n      0x00\n      swap1\n      sload\n      swap1\n      0x0100\n      exp\n      swap1\n      div\n      0xffffffffffffffffffffffffffffffffffffffff\n      and\n      dup2\n      0x01\n      add\n      exp(0x0100, 0x00)\n      dup2\n      sload\n      dup2\n      0xffffffffffffffffffffffffffffffffffffffff\n      mul\n      not\n      and\n      swap1\n      dup4\n      0xffffffffffffffffffffffffffffffffffffffff\n      and\n      mul\n      or\n      swap1\n      sstore\n      pop\n      0x01\n      dup3\n      add\n      0x14\n      swap1\n      sload\n      swap1\n      0x0100\n      exp\n      swap1\n      div\n      0xff\n      and\n      dup2\n      0x01\n      add\n      exp(0x0100, 0x14)\n      dup2\n      sload\n      dup2\n      0xff\n      mul\n      not\n      and\n      swap1\n      dup4\n      iszero\n      iszero\n      mul\n      or\n      swap1\n      sstore\n      pop\n      pop\n      pop\n        /* \"Contract.sol\":9065:9079  instanceOfPost */\n      0x10\n        /* \"Contract.sol\":9038:9048  postOfUser */\n      0x13\n        /* \"Contract.sol\":9038:9062  postOfUser[_postCreator] */\n      0x00\n        /* \"Contract.sol\":9049:9061  _postCreator */\n      dup5\n        /* \"Contract.sol\":9038:9062  postOfUser[_postCreator] */\n      0xffffffffffffffffffffffffffffffffffffffff\n      and\n      0xffffffffffffffffffffffffffffffffffffffff\n      and\n      dup2\n      mstore\n      0x20\n      add\n      swap1\n      dup2\n      mstore\n      0x20\n      add\n      0x00\n      keccak256\n        /* \"Contract.sol\":9038:9079  postOfUser[_postCreator] = instanceOfPost */\n      0x00\n      dup3\n      add\n      dup2\n      0x00\n      add\n      swap1\n      dup2\n      tag_110\n      swap2\n      swap1\n      tag_109\n      jump\t// in\n    tag_110:\n      pop\n      0x01\n      dup3\n      add\n      0x00\n      swap1\n      sload\n      swap1\n      0x0100\n      exp\n      swap1\n      div\n      0xffffffffffffffffffffffffffffffffffffffff\n      and\n      dup2\n      0x01\n      add\n      exp(0x0100, 0x00)\n      dup2\n      sload\n      dup2\n      0xffffffffffffffffffffffffffffffffffffffff\n      mul\n      not\n      and\n      swap1\n      dup4\n      0xffffffffffffffffffffffffffffffffffffffff\n      and\n      mul\n      or\n      swap1\n      sstore\n      pop\n      0x01\n      dup3\n      add\n      0x14\n      swap1\n      sload\n      swap1\n      0x0100\n      exp\n      swap1\n      div\n      0xff\n      and\n      dup2\n      0x01\n      add\n      exp(0x0100, 0x14)\n      dup2\n      sload\n      dup2\n      0xff\n      mul\n      not\n      and\n      swap1\n      dup4\n      iszero\n      iszero\n      mul\n      or\n      swap1\n      sstore\n      pop\n      swap1\n      pop\n      pop\n        /* \"Contract.sol\":8952:9445  if (_isRequest != true) {... */\n      jump(tag_111)\n    tag_106:\n        /* \"Contract.sol\":9220:9240  allTheRequestedPosts */\n      0x14\n        /* \"Contract.sol\":9246:9260  instanceOfPost */\n      0x10\n        /* \"Contract.sol\":9220:9261  allTheRequestedPosts.push(instanceOfPost) */\n      swap1\n      dup1\n      0x01\n      dup2\n      sload\n      add\n      dup1\n      dup3\n      sstore\n      dup1\n      swap2\n      pop\n      pop\n      0x01\n      swap1\n      sub\n      swap1\n      0x00\n      mstore\n      keccak256(0x00, 0x20)\n      swap1\n      0x02\n      mul\n      add\n      0x00\n      swap1\n      swap2\n      swap1\n      swap2\n      swap1\n      swap2\n      pop\n      0x00\n      dup3\n      add\n      dup2\n      0x00\n      add\n      swap1\n      dup2\n      tag_113\n      swap2\n      swap1\n      tag_109\n      jump\t// in\n    tag_113:\n      pop\n      0x01\n      dup3\n      add\n      0x00\n      swap1\n      sload\n      swap1\n      0x0100\n      exp\n      swap1\n      div\n      0xffffffffffffffffffffffffffffffffffffffff\n      and\n      dup2\n      0x01\n      add\n      exp(0x0100, 0x00)\n      dup2\n      sload\n      dup2\n      0xffffffffffffffffffffffffffffffffffffffff\n      mul\n      not\n      and\n      swap1\n      dup4\n      0xffffffffffffffffffffffffffffffffffffffff\n      and\n      mul\n      or\n      swap1\n      sstore\n      pop\n      0x01\n      dup3\n      add\n      0x14\n      swap1\n      sload\n      swap1\n      0x0100\n      exp\n      swap1\n      div\n      0xff\n      and\n      dup2\n      0x01\n      add\n      exp(0x0100, 0x14)\n      dup2\n      sload\n      dup2\n      0xff\n      mul\n      not\n      and\n      swap1\n      dup4\n      iszero\n      iszero\n      mul\n      or\n      swap1\n      sstore\n      pop\n      pop\n      pop\n        /* \"Contract.sol\":9313:9327  instanceOfPost */\n      0x10\n        /* \"Contract.sol\":9276:9296  postOfRequestingUser */\n      0x15\n        /* \"Contract.sol\":9276:9310  postOfRequestingUser[_postCreator] */\n      0x00\n        /* \"Contract.sol\":9297:9309  _postCreator */\n      dup5\n        /* \"Contract.sol\":9276:9310  postOfRequestingUser[_postCreator] */\n      0xffffffffffffffffffffffffffffffffffffffff\n      and\n      0xffffffffffffffffffffffffffffffffffffffff\n      and\n      dup2\n      mstore\n      0x20\n      add\n      swap1\n      dup2\n      mstore\n      0x20\n      add\n      0x00\n      keccak256\n        /* \"Contract.sol\":9276:9327  postOfRequestingUser[_postCreator] = instanceOfPost */\n      0x00\n      dup3\n      add\n      dup2\n      0x00\n      add\n      swap1\n      dup2\n      tag_114\n      swap2\n      swap1\n      tag_109\n      jump\t// in\n    tag_114:\n      pop\n      0x01\n      dup3\n      add\n      0x00\n      swap1\n      sload\n      swap1\n      0x0100\n      exp\n      swap1\n      div\n      0xffffffffffffffffffffffffffffffffffffffff\n      and\n      dup2\n      0x01\n      add\n      exp(0x0100, 0x00)\n      dup2\n      sload\n      dup2\n      0xffffffffffffffffffffffffffffffffffffffff\n      mul\n      not\n      and\n      swap1\n      dup4\n      0xffffffffffffffffffffffffffffffffffffffff\n      and\n      mul\n      or\n      swap1\n      sstore\n      pop\n      0x01\n      dup3\n      add\n      0x14\n      swap1\n      sload\n      swap1\n      0x0100\n      exp\n      swap1\n      div\n      0xff\n      and\n      dup2\n      0x01\n      add\n      exp(0x0100, 0x14)\n      dup2\n      sload\n      dup2\n      0xff\n      mul\n      not\n      and\n      swap1\n      dup4\n      iszero\n      iszero\n      mul\n      or\n      swap1\n      sstore\n      pop\n      swap1\n      pop\n      pop\n        /* \"Contract.sol\":8952:9445  if (_isRequest != true) {... */\n    tag_111:\n        /* \"Contract.sol\":8314:9452  function postNews(... */\n      pop\n      pop\n      pop\n      jump\t// out\n        /* \"Contract.sol\":2296:4956  function addOrRequestMember(... */\n    tag_42:\n        /* \"Contract.sol\":2578:2583  _post */\n      dup5\n        /* \"Contract.sol\":2548:2570  instanceOfMemberStruct */\n      0x0a\n        /* \"Contract.sol\":2548:2575  instanceOfMemberStruct.post */\n      0x00\n      add\n        /* \"Contract.sol\":2548:2583  instanceOfMemberStruct.post = _post */\n      swap1\n      dup2\n      tag_116\n      swap2\n      swap1\n      tag_105\n      jump\t// in\n    tag_116:\n      pop\n        /* \"Contract.sol\":2624:2629  _dept */\n      dup4\n        /* \"Contract.sol\":2594:2616  instanceOfMemberStruct */\n      0x0a\n        /* \"Contract.sol\":2594:2621  instanceOfMemberStruct.dept */\n      0x01\n      add\n        /* \"Contract.sol\":2594:2629  instanceOfMemberStruct.dept = _dept */\n      swap1\n      dup2\n      tag_117\n      swap2\n      swap1\n      tag_105\n      jump\t// in\n    tag_117:\n      pop\n        /* \"Contract.sol\":2670:2675  _name */\n      dup3\n        /* \"Contract.sol\":2640:2662  instanceOfMemberStruct */\n      0x0a\n        /* \"Contract.sol\":2640:2667  instanceOfMemberStruct.name */\n      0x02\n      add\n        /* \"Contract.sol\":2640:2675  instanceOfMemberStruct.name = _name */\n      swap1\n      dup2\n      tag_118\n      swap2\n      swap1\n      tag_105\n      jump\t// in\n    tag_118:\n      pop\n        /* \"Contract.sol\":2723:2735  _userAddress */\n      dup2\n        /* \"Contract.sol\":2686:2708  instanceOfMemberStruct */\n      0x0a\n        /* \"Contract.sol\":2686:2720  instanceOfMemberStruct.userAddress */\n      0x03\n      add\n      0x00\n        /* \"Contract.sol\":2686:2735  instanceOfMemberStruct.userAddress = _userAddress */\n      0x0100\n      exp\n      dup2\n      sload\n      dup2\n      0xffffffffffffffffffffffffffffffffffffffff\n      mul\n      not\n      and\n      swap1\n      dup4\n      0xffffffffffffffffffffffffffffffffffffffff\n      and\n      mul\n      or\n      swap1\n      sstore\n      pop\n        /* \"Contract.sol\":2827:2851  abi.encodePacked(\"DEAN\") */\n      add(0x20, mload(0x40))\n      tag_119\n      swap1\n      tag_120\n      jump\t// in\n    tag_119:\n      mload(0x40)\n      0x20\n      dup2\n      dup4\n      sub\n      sub\n      dup2\n      mstore\n      swap1\n      0x40\n      mstore\n        /* \"Contract.sol\":2817:2852  keccak256(abi.encodePacked(\"DEAN\")) */\n      dup1\n      mload\n      swap1\n      0x20\n      add\n      keccak256\n        /* \"Contract.sol\":2793:2798  _post */\n      dup6\n        /* \"Contract.sol\":2776:2799  abi.encodePacked(_post) */\n      add(0x20, mload(0x40))\n      tag_121\n      swap2\n      swap1\n      tag_122\n      jump\t// in\n    tag_121:\n      mload(0x40)\n      0x20\n      dup2\n      dup4\n      sub\n      sub\n      dup2\n      mstore\n      swap1\n      0x40\n      mstore\n        /* \"Contract.sol\":2766:2800  keccak256(abi.encodePacked(_post)) */\n      dup1\n      mload\n      swap1\n      0x20\n      add\n      keccak256\n        /* \"Contract.sol\":2766:2852  keccak256(abi.encodePacked(_post)) ==... */\n      sub\n        /* \"Contract.sol\":2748:3534  if (... */\n      tag_123\n      jumpi\n        /* \"Contract.sol\":2910:2911  1 */\n      0x01\n        /* \"Contract.sol\":2879:2901  instanceOfMemberStruct */\n      0x0a\n        /* \"Contract.sol\":2879:2907  instanceOfMemberStruct.power */\n      0x04\n      add\n        /* \"Contract.sol\":2879:2911  instanceOfMemberStruct.power = 1 */\n      dup2\n      swap1\n      sstore\n      pop\n        /* \"Contract.sol\":2748:3534  if (... */\n      jump(tag_124)\n    tag_123:\n        /* \"Contract.sol\":3008:3031  abi.encodePacked(\"HOD\") */\n      add(0x20, mload(0x40))\n      tag_125\n      swap1\n      tag_126\n      jump\t// in\n    tag_125:\n      mload(0x40)\n      0x20\n      dup2\n      dup4\n      sub\n      sub\n      dup2\n      mstore\n      swap1\n      0x40\n      mstore\n        /* \"Contract.sol\":2998:3032  keccak256(abi.encodePacked(\"HOD\")) */\n      dup1\n      mload\n      swap1\n      0x20\n      add\n      keccak256\n        /* \"Contract.sol\":2974:2979  _post */\n      dup6\n        /* \"Contract.sol\":2957:2980  abi.encodePacked(_post) */\n      add(0x20, mload(0x40))\n      tag_127\n      swap2\n      swap1\n      tag_122\n      jump\t// in\n    tag_127:\n      mload(0x40)\n      0x20\n      dup2\n      dup4\n      sub\n      sub\n      dup2\n      mstore\n      swap1\n      0x40\n      mstore\n        /* \"Contract.sol\":2947:2981  keccak256(abi.encodePacked(_post)) */\n      dup1\n      mload\n      swap1\n      0x20\n      add\n      keccak256\n        /* \"Contract.sol\":2947:3032  keccak256(abi.encodePacked(_post)) ==... */\n      sub\n        /* \"Contract.sol\":2929:3534  if (... */\n      tag_128\n      jumpi\n        /* \"Contract.sol\":3090:3091  2 */\n      0x02\n        /* \"Contract.sol\":3059:3081  instanceOfMemberStruct */\n      0x0a\n        /* \"Contract.sol\":3059:3087  instanceOfMemberStruct.power */\n      0x04\n      add\n        /* \"Contract.sol\":3059:3091  instanceOfMemberStruct.power = 2 */\n      dup2\n      swap1\n      sstore\n      pop\n        /* \"Contract.sol\":2929:3534  if (... */\n      jump(tag_129)\n    tag_128:\n        /* \"Contract.sol\":3188:3213  abi.encodePacked(\"STAFF\") */\n      add(0x20, mload(0x40))\n      tag_130\n      swap1\n      tag_131\n      jump\t// in\n    tag_130:\n      mload(0x40)\n      0x20\n      dup2\n      dup4\n      sub\n      sub\n      dup2\n      mstore\n      swap1\n      0x40\n      mstore\n        /* \"Contract.sol\":3178:3214  keccak256(abi.encodePacked(\"STAFF\")) */\n      dup1\n      mload\n      swap1\n      0x20\n      add\n      keccak256\n        /* \"Contract.sol\":3154:3159  _post */\n      dup6\n        /* \"Contract.sol\":3137:3160  abi.encodePacked(_post) */\n      add(0x20, mload(0x40))\n      tag_132\n      swap2\n      swap1\n      tag_122\n      jump\t// in\n    tag_132:\n      mload(0x40)\n      0x20\n      dup2\n      dup4\n      sub\n      sub\n      dup2\n      mstore\n      swap1\n      0x40\n      mstore\n        /* \"Contract.sol\":3127:3161  keccak256(abi.encodePacked(_post)) */\n      dup1\n      mload\n      swap1\n      0x20\n      add\n      keccak256\n        /* \"Contract.sol\":3127:3214  keccak256(abi.encodePacked(_post)) ==... */\n      sub\n        /* \"Contract.sol\":3109:3534  if (... */\n      tag_133\n      jumpi\n        /* \"Contract.sol\":3272:3273  3 */\n      0x03\n        /* \"Contract.sol\":3241:3263  instanceOfMemberStruct */\n      0x0a\n        /* \"Contract.sol\":3241:3269  instanceOfMemberStruct.power */\n      0x04\n      add\n        /* \"Contract.sol\":3241:3273  instanceOfMemberStruct.power = 3 */\n      dup2\n      swap1\n      sstore\n      pop\n        /* \"Contract.sol\":3109:3534  if (... */\n      jump(tag_134)\n    tag_133:\n        /* \"Contract.sol\":3370:3397  abi.encodePacked(\"STUDENT\") */\n      add(0x20, mload(0x40))\n      tag_135\n      swap1\n      tag_136\n      jump\t// in\n    tag_135:\n      mload(0x40)\n      0x20\n      dup2\n      dup4\n      sub\n      sub\n      dup2\n      mstore\n      swap1\n      0x40\n      mstore\n        /* \"Contract.sol\":3360:3398  keccak256(abi.encodePacked(\"STUDENT\")) */\n      dup1\n      mload\n      swap1\n      0x20\n      add\n      keccak256\n        /* \"Contract.sol\":3336:3341  _post */\n      dup6\n        /* \"Contract.sol\":3319:3342  abi.encodePacked(_post) */\n      add(0x20, mload(0x40))\n      tag_137\n      swap2\n      swap1\n      tag_122\n      jump\t// in\n    tag_137:\n      mload(0x40)\n      0x20\n      dup2\n      dup4\n      sub\n      sub\n      dup2\n      mstore\n      swap1\n      0x40\n      mstore\n        /* \"Contract.sol\":3309:3343  keccak256(abi.encodePacked(_post)) */\n      dup1\n      mload\n      swap1\n      0x20\n      add\n      keccak256\n        /* \"Contract.sol\":3309:3398  keccak256(abi.encodePacked(_post)) ==... */\n      sub\n        /* \"Contract.sol\":3291:3534  if (... */\n      tag_138\n      jumpi\n        /* \"Contract.sol\":3456:3457  4 */\n      0x04\n        /* \"Contract.sol\":3425:3447  instanceOfMemberStruct */\n      0x0a\n        /* \"Contract.sol\":3425:3453  instanceOfMemberStruct.power */\n      0x04\n      add\n        /* \"Contract.sol\":3425:3457  instanceOfMemberStruct.power = 4 */\n      dup2\n      swap1\n      sstore\n      pop\n        /* \"Contract.sol\":3291:3534  if (... */\n      jump(tag_139)\n    tag_138:\n        /* \"Contract.sol\":3521:3522  5 */\n      0x05\n        /* \"Contract.sol\":3490:3512  instanceOfMemberStruct */\n      0x0a\n        /* \"Contract.sol\":3490:3518  instanceOfMemberStruct.power */\n      0x04\n      add\n        /* \"Contract.sol\":3490:3522  instanceOfMemberStruct.power = 5 */\n      dup2\n      swap1\n      sstore\n      pop\n        /* \"Contract.sol\":3291:3534  if (... */\n    tag_139:\n        /* \"Contract.sol\":3109:3534  if (... */\n    tag_134:\n        /* \"Contract.sol\":2929:3534  if (... */\n    tag_129:\n        /* \"Contract.sol\":2748:3534  if (... */\n    tag_124:\n        /* \"Contract.sol\":3601:3605  true */\n      0x01\n        /* \"Contract.sol\":3590:3605  request == true */\n      iszero\n      iszero\n        /* \"Contract.sol\":3590:3597  request */\n      dup2\n        /* \"Contract.sol\":3590:3605  request == true */\n      iszero\n      iszero\n      eq\n        /* \"Contract.sol\":3590:3708  request == true &&... */\n      dup1\n      iszero\n      tag_140\n      jumpi\n      pop\n        /* \"Contract.sol\":3683:3707  abi.encodePacked(\"DEAN\") */\n      add(0x20, mload(0x40))\n      tag_141\n      swap1\n      tag_120\n      jump\t// in\n    tag_141:\n      mload(0x40)\n      0x20\n      dup2\n      dup4\n      sub\n      sub\n      dup2\n      mstore\n      swap1\n      0x40\n      mstore\n        /* \"Contract.sol\":3673:3708  keccak256(abi.encodePacked(\"DEAN\")) */\n      dup1\n      mload\n      swap1\n      0x20\n      add\n      keccak256\n        /* \"Contract.sol\":3649:3654  _post */\n      dup6\n        /* \"Contract.sol\":3632:3655  abi.encodePacked(_post) */\n      add(0x20, mload(0x40))\n      tag_142\n      swap2\n      swap1\n      tag_122\n      jump\t// in\n    tag_142:\n      mload(0x40)\n      0x20\n      dup2\n      dup4\n      sub\n      sub\n      dup2\n      mstore\n      swap1\n      0x40\n      mstore\n        /* \"Contract.sol\":3622:3656  keccak256(abi.encodePacked(_post)) */\n      dup1\n      mload\n      swap1\n      0x20\n      add\n      keccak256\n        /* \"Contract.sol\":3622:3708  keccak256(abi.encodePacked(_post)) !=... */\n      eq\n      iszero\n        /* \"Contract.sol\":3590:3708  request == true &&... */\n    tag_140:\n        /* \"Contract.sol\":3572:4949  if (... */\n      iszero\n      tag_143\n      jumpi\n        /* \"Contract.sol\":3817:3822  false */\n      0x00\n        /* \"Contract.sol\":3784:3822  memberRequested[_userAddress] == false */\n      iszero\n      iszero\n        /* \"Contract.sol\":3784:3799  memberRequested */\n      0x09\n        /* \"Contract.sol\":3784:3813  memberRequested[_userAddress] */\n      0x00\n        /* \"Contract.sol\":3800:3812  _userAddress */\n      dup5\n        /* \"Contract.sol\":3784:3813  memberRequested[_userAddress] */\n      0xffffffffffffffffffffffffffffffffffffffff\n      and\n      0xffffffffffffffffffffffffffffffffffffffff\n      and\n      dup2\n      mstore\n      0x20\n      add\n      swap1\n      dup2\n      mstore\n      0x20\n      add\n      0x00\n      keccak256\n      0x00\n      swap1\n      sload\n      swap1\n      0x0100\n      exp\n      swap1\n      div\n      0xff\n      and\n        /* \"Contract.sol\":3784:3822  memberRequested[_userAddress] == false */\n      iszero\n      iszero\n      eq\n        /* \"Contract.sol\":3776:3843  require(memberRequested[_userAddress] == false, \"Member Requested\") */\n      tag_144\n      jumpi\n      mload(0x40)\n      0x08c379a000000000000000000000000000000000000000000000000000000000\n      dup2\n      mstore\n      0x04\n      add\n      tag_145\n      swap1\n      tag_146\n      jump\t// in\n    tag_145:\n      mload(0x40)\n      dup1\n      swap2\n      sub\n      swap1\n      revert\n    tag_144:\n        /* \"Contract.sol\":3895:3900  false */\n      0x00\n        /* \"Contract.sol\":3866:3900  memberExist[_userAddress] == false */\n      iszero\n      iszero\n        /* \"Contract.sol\":3866:3877  memberExist */\n      0x06\n        /* \"Contract.sol\":3866:3891  memberExist[_userAddress] */\n      0x00\n        /* \"Contract.sol\":3878:3890  _userAddress */\n      dup5\n        /* \"Contract.sol\":3866:3891  memberExist[_userAddress] */\n      0xffffffffffffffffffffffffffffffffffffffff\n      and\n      0xffffffffffffffffffffffffffffffffffffffff\n      and\n      dup2\n      mstore\n      0x20\n      add\n      swap1\n      dup2\n      mstore\n      0x20\n      add\n      0x00\n      keccak256\n      0x00\n      swap1\n      sload\n      swap1\n      0x0100\n      exp\n      swap1\n      div\n      0xff\n      and\n        /* \"Contract.sol\":3866:3900  memberExist[_userAddress] == false */\n      iszero\n      iszero\n      eq\n        /* \"Contract.sol\":3858:3917  require(memberExist[_userAddress] == false, \"Member Exist\") */\n      tag_147\n      jumpi\n      mload(0x40)\n      0x08c379a000000000000000000000000000000000000000000000000000000000\n      dup2\n      mstore\n      0x04\n      add\n      tag_148\n      swap1\n      tag_149\n      jump\t// in\n    tag_148:\n      mload(0x40)\n      dup1\n      swap2\n      sub\n      swap1\n      revert\n    tag_147:\n        /* \"Contract.sol\":3996:4019  arrayOfRequestedMembers */\n      0x08\n        /* \"Contract.sol\":4025:4047  instanceOfMemberStruct */\n      0x0a\n        /* \"Contract.sol\":3996:4048  arrayOfRequestedMembers.push(instanceOfMemberStruct) */\n      swap1\n      dup1\n      0x01\n      dup2\n      sload\n      add\n      dup1\n      dup3\n      sstore\n      dup1\n      swap2\n      pop\n      pop\n      0x01\n      swap1\n      sub\n      swap1\n      0x00\n      mstore\n      keccak256(0x00, 0x20)\n      swap1\n      0x06\n      mul\n      add\n      0x00\n      swap1\n      swap2\n      swap1\n      swap2\n      swap1\n      swap2\n      pop\n      0x00\n      dup3\n      add\n      dup2\n      0x00\n      add\n      swap1\n      dup2\n      tag_151\n      swap2\n      swap1\n      tag_109\n      jump\t// in\n    tag_151:\n      pop\n      0x01\n      dup3\n      add\n      dup2\n      0x01\n      add\n      swap1\n      dup2\n      tag_152\n      swap2\n      swap1\n      tag_109\n      jump\t// in\n    tag_152:\n      pop\n      0x02\n      dup3\n      add\n      dup2\n      0x02\n      add\n      swap1\n      dup2\n      tag_153\n      swap2\n      swap1\n      tag_109\n      jump\t// in\n    tag_153:\n      pop\n      0x03\n      dup3\n      add\n      0x00\n      swap1\n      sload\n      swap1\n      0x0100\n      exp\n      swap1\n      div\n      0xffffffffffffffffffffffffffffffffffffffff\n      and\n      dup2\n      0x03\n      add\n      exp(0x0100, 0x00)\n      dup2\n      sload\n      dup2\n      0xffffffffffffffffffffffffffffffffffffffff\n      mul\n      not\n      and\n      swap1\n      dup4\n      0xffffffffffffffffffffffffffffffffffffffff\n      and\n      mul\n      or\n      swap1\n      sstore\n      pop\n      0x04\n      dup3\n      add\n      sload\n      dup2\n      0x04\n      add\n      sstore\n      0x05\n      dup3\n      add\n      dup2\n      0x05\n      add\n      swap1\n      dup1\n      sload\n      tag_154\n      swap3\n      swap2\n      swap1\n      tag_155\n      jump\t// in\n    tag_154:\n      pop\n      pop\n      pop\n        /* \"Contract.sol\":4141:4163  instanceOfMemberStruct */\n      0x0a\n        /* \"Contract.sol\":4063:4092  getRequestedMemberWithAddress */\n      0x07\n        /* \"Contract.sol\":4063:4138  getRequestedMemberWithAddress[... */\n      0x00\n        /* \"Contract.sol\":4111:4123  _userAddress */\n      dup5\n        /* \"Contract.sol\":4063:4138  getRequestedMemberWithAddress[... */\n      0xffffffffffffffffffffffffffffffffffffffff\n      and\n      0xffffffffffffffffffffffffffffffffffffffff\n      and\n      dup2\n      mstore\n      0x20\n      add\n      swap1\n      dup2\n      mstore\n      0x20\n      add\n      0x00\n      keccak256\n        /* \"Contract.sol\":4063:4163  getRequestedMemberWithAddress[... */\n      0x00\n      dup3\n      add\n      dup2\n      0x00\n      add\n      swap1\n      dup2\n      tag_156\n      swap2\n      swap1\n      tag_109\n      jump\t// in\n    tag_156:\n      pop\n      0x01\n      dup3\n      add\n      dup2\n      0x01\n      add\n      swap1\n      dup2\n      tag_157\n      swap2\n      swap1\n      tag_109\n      jump\t// in\n    tag_157:\n      pop\n      0x02\n      dup3\n      add\n      dup2\n      0x02\n      add\n      swap1\n      dup2\n      tag_158\n      swap2\n      swap1\n      tag_109\n      jump\t// in\n    tag_158:\n      pop\n      0x03\n      dup3\n      add\n      0x00\n      swap1\n      sload\n      swap1\n      0x0100\n      exp\n      swap1\n      div\n      0xffffffffffffffffffffffffffffffffffffffff\n      and\n      dup2\n      0x03\n      add\n      exp(0x0100, 0x00)\n      dup2\n      sload\n      dup2\n      0xffffffffffffffffffffffffffffffffffffffff\n      mul\n      not\n      and\n      swap1\n      dup4\n      0xffffffffffffffffffffffffffffffffffffffff\n      and\n      mul\n      or\n      swap1\n      sstore\n      pop\n      0x04\n      dup3\n      add\n      sload\n      dup2\n      0x04\n      add\n      sstore\n      0x05\n      dup3\n      add\n      dup2\n      0x05\n      add\n      swap1\n      dup1\n      sload\n      tag_159\n      swap3\n      swap2\n      swap1\n      tag_155\n      jump\t// in\n    tag_159:\n      pop\n      swap1\n      pop\n      pop\n        /* \"Contract.sol\":4210:4214  true */\n      0x01\n        /* \"Contract.sol\":4178:4193  memberRequested */\n      0x09\n        /* \"Contract.sol\":4178:4207  memberRequested[_userAddress] */\n      0x00\n        /* \"Contract.sol\":4194:4206  _userAddress */\n      dup5\n        /* \"Contract.sol\":4178:4207  memberRequested[_userAddress] */\n      0xffffffffffffffffffffffffffffffffffffffff\n      and\n      0xffffffffffffffffffffffffffffffffffffffff\n      and\n      dup2\n      mstore\n      0x20\n      add\n      swap1\n      dup2\n      mstore\n      0x20\n      add\n      0x00\n      keccak256\n      0x00\n        /* \"Contract.sol\":4178:4214  memberRequested[_userAddress] = true */\n      0x0100\n      exp\n      dup2\n      sload\n      dup2\n      0xff\n      mul\n      not\n      and\n      swap1\n      dup4\n      iszero\n      iszero\n      mul\n      or\n      swap1\n      sstore\n      pop\n        /* \"Contract.sol\":3572:4949  if (... */\n      jump(tag_160)\n    tag_143:\n        /* \"Contract.sol\":4363:4387  abi.encodePacked(\"DEAN\") */\n      add(0x20, mload(0x40))\n      tag_161\n      swap1\n      tag_120\n      jump\t// in\n    tag_161:\n      mload(0x40)\n      0x20\n      dup2\n      dup4\n      sub\n      sub\n      dup2\n      mstore\n      swap1\n      0x40\n      mstore\n        /* \"Contract.sol\":4353:4388  keccak256(abi.encodePacked(\"DEAN\")) */\n      dup1\n      mload\n      swap1\n      0x20\n      add\n      keccak256\n        /* \"Contract.sol\":4325:4330  _post */\n      dup6\n        /* \"Contract.sol\":4308:4331  abi.encodePacked(_post) */\n      add(0x20, mload(0x40))\n      tag_162\n      swap2\n      swap1\n      tag_122\n      jump\t// in\n    tag_162:\n      mload(0x40)\n      0x20\n      dup2\n      dup4\n      sub\n      sub\n      dup2\n      mstore\n      swap1\n      0x40\n      mstore\n        /* \"Contract.sol\":4298:4332  keccak256(abi.encodePacked(_post)) */\n      dup1\n      mload\n      swap1\n      0x20\n      add\n      keccak256\n        /* \"Contract.sol\":4298:4388  keccak256(abi.encodePacked(_post)) !=... */\n      eq\n        /* \"Contract.sol\":4276:4620  if (... */\n      tag_163\n      jumpi\n        /* \"Contract.sol\":4531:4535  true */\n      0x01\n        /* \"Contract.sol\":4498:4535  memberRequested[_userAddress] == true */\n      iszero\n      iszero\n        /* \"Contract.sol\":4498:4513  memberRequested */\n      0x09\n        /* \"Contract.sol\":4498:4527  memberRequested[_userAddress] */\n      0x00\n        /* \"Contract.sol\":4514:4526  _userAddress */\n      dup5\n        /* \"Contract.sol\":4498:4527  memberRequested[_userAddress] */\n      0xffffffffffffffffffffffffffffffffffffffff\n      and\n      0xffffffffffffffffffffffffffffffffffffffff\n      and\n      dup2\n      mstore\n      0x20\n      add\n      swap1\n      dup2\n      mstore\n      0x20\n      add\n      0x00\n      keccak256\n      0x00\n      swap1\n      sload\n      swap1\n      0x0100\n      exp\n      swap1\n      div\n      0xff\n      and\n        /* \"Contract.sol\":4498:4535  memberRequested[_userAddress] == true */\n      iszero\n      iszero\n      eq\n        /* \"Contract.sol\":4468:4604  require(... */\n      tag_164\n      jumpi\n      mload(0x40)\n      0x08c379a000000000000000000000000000000000000000000000000000000000\n      dup2\n      mstore\n      0x04\n      add\n      tag_165\n      swap1\n      tag_166\n      jump\t// in\n    tag_165:\n      mload(0x40)\n      dup1\n      swap2\n      sub\n      swap1\n      revert\n    tag_164:\n        /* \"Contract.sol\":4276:4620  if (... */\n    tag_163:\n        /* \"Contract.sol\":4673:4678  false */\n      0x00\n        /* \"Contract.sol\":4644:4678  memberExist[_userAddress] == false */\n      iszero\n      iszero\n        /* \"Contract.sol\":4644:4655  memberExist */\n      0x06\n        /* \"Contract.sol\":4644:4669  memberExist[_userAddress] */\n      0x00\n        /* \"Contract.sol\":4656:4668  _userAddress */\n      dup5\n        /* \"Contract.sol\":4644:4669  memberExist[_userAddress] */\n      0xffffffffffffffffffffffffffffffffffffffff\n      and\n      0xffffffffffffffffffffffffffffffffffffffff\n      and\n      dup2\n      mstore\n      0x20\n      add\n      swap1\n      dup2\n      mstore\n      0x20\n      add\n      0x00\n      keccak256\n      0x00\n      swap1\n      sload\n      swap1\n      0x0100\n      exp\n      swap1\n      div\n      0xff\n      and\n        /* \"Contract.sol\":4644:4678  memberExist[_userAddress] == false */\n      iszero\n      iszero\n      eq\n        /* \"Contract.sol\":4636:4695  require(memberExist[_userAddress] == false, \"Member Exist\") */\n      tag_167\n      jumpi\n      mload(0x40)\n      0x08c379a000000000000000000000000000000000000000000000000000000000\n      dup2\n      mstore\n      0x04\n      add\n      tag_168\n      swap1\n      tag_149\n      jump\t// in\n    tag_168:\n      mload(0x40)\n      dup1\n      swap2\n      sub\n      swap1\n      revert\n    tag_167:\n        /* \"Contract.sol\":4773:4787  arrayOfMembers */\n      0x05\n        /* \"Contract.sol\":4793:4815  instanceOfMemberStruct */\n      0x0a\n        /* \"Contract.sol\":4773:4816  arrayOfMembers.push(instanceOfMemberStruct) */\n      swap1\n      dup1\n      0x01\n      dup2\n      sload\n      add\n      dup1\n      dup3\n      sstore\n      dup1\n      swap2\n      pop\n      pop\n      0x01\n      swap1\n      sub\n      swap1\n      0x00\n      mstore\n      keccak256(0x00, 0x20)\n      swap1\n      0x06\n      mul\n      add\n      0x00\n      swap1\n      swap2\n      swap1\n      swap2\n      swap1\n      swap2\n      pop\n      0x00\n      dup3\n      add\n      dup2\n      0x00\n      add\n      swap1\n      dup2\n      tag_170\n      swap2\n      swap1\n      tag_109\n      jump\t// in\n    tag_170:\n      pop\n      0x01\n      dup3\n      add\n      dup2\n      0x01\n      add\n      swap1\n      dup2\n      tag_171\n      swap2\n      swap1\n      tag_109\n      jump\t// in\n    tag_171:\n      pop\n      0x02\n      dup3\n      add\n      dup2\n      0x02\n      add\n      swap1\n      dup2\n      tag_172\n      swap2\n      swap1\n      tag_109\n      jump\t// in\n    tag_172:\n      pop\n      0x03\n      dup3\n      add\n      0x00\n      swap1\n      sload\n      swap1\n      0x0100\n      exp\n      swap1\n      div\n      0xffffffffffffffffffffffffffffffffffffffff\n      and\n      dup2\n      0x03\n      add\n      exp(0x0100, 0x00)\n      dup2\n      sload\n      dup2\n      0xffffffffffffffffffffffffffffffffffffffff\n      mul\n      not\n      and\n      swap1\n      dup4\n      0xffffffffffffffffffffffffffffffffffffffff\n      and\n      mul\n      or\n      swap1\n      sstore\n      pop\n      0x04\n      dup3\n      add\n      sload\n      dup2\n      0x04\n      add\n      sstore\n      0x05\n      dup3\n      add\n      dup2\n      0x05\n      add\n      swap1\n      dup1\n      sload\n      tag_173\n      swap3\n      swap2\n      swap1\n      tag_155\n      jump\t// in\n    tag_173:\n      pop\n      pop\n      pop\n        /* \"Contract.sol\":4868:4890  instanceOfMemberStruct */\n      0x0a\n        /* \"Contract.sol\":4831:4851  getMemberWithAddress */\n      0x04\n        /* \"Contract.sol\":4831:4865  getMemberWithAddress[_userAddress] */\n      0x00\n        /* \"Contract.sol\":4852:4864  _userAddress */\n      dup5\n        /* \"Contract.sol\":4831:4865  getMemberWithAddress[_userAddress] */\n      0xffffffffffffffffffffffffffffffffffffffff\n      and\n      0xffffffffffffffffffffffffffffffffffffffff\n      and\n      dup2\n      mstore\n      0x20\n      add\n      swap1\n      dup2\n      mstore\n      0x20\n      add\n      0x00\n      keccak256\n        /* \"Contract.sol\":4831:4890  getMemberWithAddress[_userAddress] = instanceOfMemberStruct */\n      0x00\n      dup3\n      add\n      dup2\n      0x00\n      add\n      swap1\n      dup2\n      tag_174\n      swap2\n      swap1\n      tag_109\n      jump\t// in\n    tag_174:\n      pop\n      0x01\n      dup3\n      add\n      dup2\n      0x01\n      add\n      swap1\n      dup2\n      tag_175\n      swap2\n      swap1\n      tag_109\n      jump\t// in\n    tag_175:\n      pop\n      0x02\n      dup3\n      add\n      dup2\n      0x02\n      add\n      swap1\n      dup2\n      tag_176\n      swap2\n      swap1\n      tag_109\n      jump\t// in\n    tag_176:\n      pop\n      0x03\n      dup3\n      add\n      0x00\n      swap1\n      sload\n      swap1\n      0x0100\n      exp\n      swap1\n      div\n      0xffffffffffffffffffffffffffffffffffffffff\n      and\n      dup2\n      0x03\n      add\n      exp(0x0100, 0x00)\n      dup2\n      sload\n      dup2\n      0xffffffffffffffffffffffffffffffffffffffff\n      mul\n      not\n      and\n      swap1\n      dup4\n      0xffffffffffffffffffffffffffffffffffffffff\n      and\n      mul\n      or\n      swap1\n      sstore\n      pop\n      0x04\n      dup3\n      add\n      sload\n      dup2\n      0x04\n      add\n      sstore\n      0x05\n      dup3\n      add\n      dup2\n      0x05\n      add\n      swap1\n      dup1\n      sload\n      tag_177\n      swap3\n      swap2\n      swap1\n      tag_155\n      jump\t// in\n    tag_177:\n      pop\n      swap1\n      pop\n      pop\n        /* \"Contract.sol\":4933:4937  true */\n      0x01\n        /* \"Contract.sol\":4905:4916  memberExist */\n      0x06\n        /* \"Contract.sol\":4905:4930  memberExist[_userAddress] */\n      0x00\n        /* \"Contract.sol\":4917:4929  _userAddress */\n      dup5\n        /* \"Contract.sol\":4905:4930  memberExist[_userAddress] */\n      0xffffffffffffffffffffffffffffffffffffffff\n      and\n      0xffffffffffffffffffffffffffffffffffffffff\n      and\n      dup2\n      mstore\n      0x20\n      add\n      swap1\n      dup2\n      mstore\n      0x20\n      add\n      0x00\n      keccak256\n      0x00\n        /* \"Contract.sol\":4905:4937  memberExist[_userAddress] = true */\n      0x0100\n      exp\n      dup2\n      sload\n      dup2\n      0xff\n      mul\n      not\n      and\n      swap1\n      dup4\n      iszero\n      iszero\n      mul\n      or\n      swap1\n      sstore\n      pop\n        /* \"Contract.sol\":3572:4949  if (... */\n    tag_160:\n        /* \"Contract.sol\":2296:4956  function addOrRequestMember(... */\n      pop\n      pop\n      pop\n      pop\n      pop\n      jump\t// out\n        /* \"Contract.sol\":9730:11043  function approvePost(address _requestedBy, address _approvedBy) public {... */\n    tag_47:\n        /* \"Contract.sol\":9838:9863  PostStructure memory post */\n      0x00\n        /* \"Contract.sol\":9866:9886  postOfRequestingUser */\n      0x15\n        /* \"Contract.sol\":9866:9900  postOfRequestingUser[_requestedBy] */\n      0x00\n        /* \"Contract.sol\":9887:9899  _requestedBy */\n      dup5\n        /* \"Contract.sol\":9866:9900  postOfRequestingUser[_requestedBy] */\n      0xffffffffffffffffffffffffffffffffffffffff\n      and\n      0xffffffffffffffffffffffffffffffffffffffff\n      and\n      dup2\n      mstore\n      0x20\n      add\n      swap1\n      dup2\n      mstore\n      0x20\n      add\n      0x00\n      keccak256\n        /* \"Contract.sol\":9838:9900  PostStructure memory post = postOfRequestingUser[_requestedBy] */\n      mload(0x40)\n      dup1\n      0x60\n      add\n      0x40\n      mstore\n      swap1\n      dup2\n      0x00\n      dup3\n      add\n      dup1\n      sload\n      tag_179\n      swap1\n      tag_78\n      jump\t// in\n    tag_179:\n      dup1\n      0x1f\n      add\n      0x20\n      dup1\n      swap2\n      div\n      mul\n      0x20\n      add\n      mload(0x40)\n      swap1\n      dup2\n      add\n      0x40\n      mstore\n      dup1\n      swap3\n      swap2\n      swap1\n      dup2\n      dup2\n      mstore\n      0x20\n      add\n      dup3\n      dup1\n      sload\n      tag_180\n      swap1\n      tag_78\n      jump\t// in\n    tag_180:\n      dup1\n      iszero\n      tag_181\n      jumpi\n      dup1\n      0x1f\n      lt\n      tag_182\n      jumpi\n      0x0100\n      dup1\n      dup4\n      sload\n      div\n      mul\n      dup4\n      mstore\n      swap2\n      0x20\n      add\n      swap2\n      jump(tag_181)\n    tag_182:\n      dup3\n      add\n      swap2\n      swap1\n      0x00\n      mstore\n      keccak256(0x00, 0x20)\n      swap1\n    tag_183:\n      dup2\n      sload\n      dup2\n      mstore\n      swap1\n      0x01\n      add\n      swap1\n      0x20\n      add\n      dup1\n      dup4\n      gt\n      tag_183\n      jumpi\n      dup3\n      swap1\n      sub\n      0x1f\n      and\n      dup3\n      add\n      swap2\n    tag_181:\n      pop\n      pop\n      pop\n      pop\n      pop\n      dup2\n      mstore\n      0x20\n      add\n      0x01\n      dup3\n      add\n      0x00\n      swap1\n      sload\n      swap1\n      0x0100\n      exp\n      swap1\n      div\n      0xffffffffffffffffffffffffffffffffffffffff\n      and\n      0xffffffffffffffffffffffffffffffffffffffff\n      and\n      0xffffffffffffffffffffffffffffffffffffffff\n      and\n      dup2\n      mstore\n      0x20\n      add\n      0x01\n      dup3\n      add\n      0x14\n      swap1\n      sload\n      swap1\n      0x0100\n      exp\n      swap1\n      div\n      0xff\n      and\n      iszero\n      iszero\n      iszero\n      iszero\n      dup2\n      mstore\n      pop\n      pop\n      swap1\n      pop\n        /* \"Contract.sol\":10581:10586  false */\n      0x00\n        /* \"Contract.sol\":10564:10568  post */\n      dup2\n        /* \"Contract.sol\":10564:10578  post.isRequest */\n      0x40\n      add\n        /* \"Contract.sol\":10564:10586  post.isRequest = false */\n      swap1\n      iszero\n      iszero\n      swap1\n      dup2\n      iszero\n      iszero\n      dup2\n      mstore\n      pop\n      pop\n        /* \"Contract.sol\":10636:10647  allThePosts */\n      0x12\n        /* \"Contract.sol\":10653:10657  post */\n      dup2\n        /* \"Contract.sol\":10636:10658  allThePosts.push(post) */\n      swap1\n      dup1\n      0x01\n      dup2\n      sload\n      add\n      dup1\n      dup3\n      sstore\n      dup1\n      swap2\n      pop\n      pop\n      0x01\n      swap1\n      sub\n      swap1\n      0x00\n      mstore\n      keccak256(0x00, 0x20)\n      swap1\n      0x02\n      mul\n      add\n      0x00\n      swap1\n      swap2\n      swap1\n      swap2\n      swap1\n      swap2\n      pop\n      0x00\n      dup3\n      add\n      mload\n      dup2\n      0x00\n      add\n      swap1\n      dup2\n      tag_185\n      swap2\n      swap1\n      tag_105\n      jump\t// in\n    tag_185:\n      pop\n      0x20\n      dup3\n      add\n      mload\n      dup2\n      0x01\n      add\n      exp(0x0100, 0x00)\n      dup2\n      sload\n      dup2\n      0xffffffffffffffffffffffffffffffffffffffff\n      mul\n      not\n      and\n      swap1\n      dup4\n      0xffffffffffffffffffffffffffffffffffffffff\n      and\n      mul\n      or\n      swap1\n      sstore\n      pop\n      0x40\n      dup3\n      add\n      mload\n      dup2\n      0x01\n      add\n      exp(0x0100, 0x14)\n      dup2\n      sload\n      dup2\n      0xff\n      mul\n      not\n      and\n      swap1\n      dup4\n      iszero\n      iszero\n      mul\n      or\n      swap1\n      sstore\n      pop\n      pop\n      pop\n        /* \"Contract.sol\":10744:10748  post */\n      dup1\n        /* \"Contract.sol\":10717:10727  postOfUser */\n      0x13\n        /* \"Contract.sol\":10717:10741  postOfUser[_requestedBy] */\n      0x00\n        /* \"Contract.sol\":10728:10740  _requestedBy */\n      dup6\n        /* \"Contract.sol\":10717:10741  postOfUser[_requestedBy] */\n      0xffffffffffffffffffffffffffffffffffffffff\n      and\n      0xffffffffffffffffffffffffffffffffffffffff\n      and\n      dup2\n      mstore\n      0x20\n      add\n      swap1\n      dup2\n      mstore\n      0x20\n      add\n      0x00\n      keccak256\n        /* \"Contract.sol\":10717:10748  postOfUser[_requestedBy] = post */\n      0x00\n      dup3\n      add\n      mload\n      dup2\n      0x00\n      add\n      swap1\n      dup2\n      tag_186\n      swap2\n      swap1\n      tag_105\n      jump\t// in\n    tag_186:\n      pop\n      0x20\n      dup3\n      add\n      mload\n      dup2\n      0x01\n      add\n      exp(0x0100, 0x00)\n      dup2\n      sload\n      dup2\n      0xffffffffffffffffffffffffffffffffffffffff\n      mul\n      not\n      and\n      swap1\n      dup4\n      0xffffffffffffffffffffffffffffffffffffffff\n      and\n      mul\n      or\n      swap1\n      sstore\n      pop\n      0x40\n      dup3\n      add\n      mload\n      dup2\n      0x01\n      add\n      exp(0x0100, 0x14)\n      dup2\n      sload\n      dup2\n      0xff\n      mul\n      not\n      and\n      swap1\n      dup4\n      iszero\n      iszero\n      mul\n      or\n      swap1\n      sstore\n      pop\n      swap1\n      pop\n      pop\n        /* \"Contract.sol\":9801:11043  {... */\n      pop\n        /* \"Contract.sol\":9730:11043  function approvePost(address _requestedBy, address _approvedBy) public {... */\n      pop\n      pop\n      jump\t// out\n        /* \"Contract.sol\":6700:6917  function memberExistOrNot(address _userAddress) public view returns (bool) {... */\n    tag_51:\n        /* \"Contract.sol\":6769:6773  bool */\n      0x00\n        /* \"Contract.sol\":6820:6824  true */\n      0x01\n        /* \"Contract.sol\":6791:6824  memberExist[_userAddress] == true */\n      iszero\n      iszero\n        /* \"Contract.sol\":6791:6802  memberExist */\n      0x06\n        /* \"Contract.sol\":6791:6816  memberExist[_userAddress] */\n      0x00\n        /* \"Contract.sol\":6803:6815  _userAddress */\n      dup5\n        /* \"Contract.sol\":6791:6816  memberExist[_userAddress] */\n      0xffffffffffffffffffffffffffffffffffffffff\n      and\n      0xffffffffffffffffffffffffffffffffffffffff\n      and\n      dup2\n      mstore\n      0x20\n      add\n      swap1\n      dup2\n      mstore\n      0x20\n      add\n      0x00\n      keccak256\n      0x00\n      swap1\n      sload\n      swap1\n      0x0100\n      exp\n      swap1\n      div\n      0xff\n      and\n        /* \"Contract.sol\":6791:6824  memberExist[_userAddress] == true */\n      iszero\n      iszero\n      sub\n        /* \"Contract.sol\":6786:6910  if ((memberExist[_userAddress] == true)) {... */\n      tag_188\n      jumpi\n        /* \"Contract.sol\":6849:6853  true */\n      0x01\n        /* \"Contract.sol\":6842:6853  return true */\n      swap1\n      pop\n      jump(tag_187)\n        /* \"Contract.sol\":6786:6910  if ((memberExist[_userAddress] == true)) {... */\n    tag_188:\n        /* \"Contract.sol\":6893:6898  false */\n      0x00\n        /* \"Contract.sol\":6886:6898  return false */\n      swap1\n      pop\n        /* \"Contract.sol\":6700:6917  function memberExistOrNot(address _userAddress) public view returns (bool) {... */\n    tag_187:\n      swap2\n      swap1\n      pop\n      jump\t// out\n        /* \"Contract.sol\":667:705  function recieve() external payable {} */\n    tag_54:\n      jump\t// out\n        /* \"Contract.sol\":5076:5412  function findMember(address _userAddress, bool requestedMember)... */\n    tag_59:\n        /* \"Contract.sol\":5188:5207  MemberStruct memory */\n      tag_191\n      tag_192\n      jump\t// in\n    tag_191:\n        /* \"Contract.sol\":5248:5252  true */\n      0x01\n        /* \"Contract.sol\":5229:5252  requestedMember == true */\n      iszero\n      iszero\n        /* \"Contract.sol\":5229:5244  requestedMember */\n      dup3\n        /* \"Contract.sol\":5229:5252  requestedMember == true */\n      iszero\n      iszero\n      sub\n        /* \"Contract.sol\":5225:5405  if (requestedMember == true) {... */\n      tag_194\n      jumpi\n        /* \"Contract.sol\":5276:5305  getRequestedMemberWithAddress */\n      0x07\n        /* \"Contract.sol\":5276:5319  getRequestedMemberWithAddress[_userAddress] */\n      0x00\n        /* \"Contract.sol\":5306:5318  _userAddress */\n      dup5\n        /* \"Contract.sol\":5276:5319  getRequestedMemberWithAddress[_userAddress] */\n      0xffffffffffffffffffffffffffffffffffffffff\n      and\n      0xffffffffffffffffffffffffffffffffffffffff\n      and\n      dup2\n      mstore\n      0x20\n      add\n      swap1\n      dup2\n      mstore\n      0x20\n      add\n      0x00\n      keccak256\n        /* \"Contract.sol\":5269:5319  return getRequestedMemberWithAddress[_userAddress] */\n      mload(0x40)\n      dup1\n      0xc0\n      add\n      0x40\n      mstore\n      swap1\n      dup2\n      0x00\n      dup3\n      add\n      dup1\n      sload\n      tag_195\n      swap1\n      tag_78\n      jump\t// in\n    tag_195:\n      dup1\n      0x1f\n      add\n      0x20\n      dup1\n      swap2\n      div\n      mul\n      0x20\n      add\n      mload(0x40)\n      swap1\n      dup2\n      add\n      0x40\n      mstore\n      dup1\n      swap3\n      swap2\n      swap1\n      dup2\n      dup2\n      mstore\n      0x20\n      add\n      dup3\n      dup1\n      sload\n      tag_196\n      swap1\n      tag_78\n      jump\t// in\n    tag_196:\n      dup1\n      iszero\n      tag_197\n      jumpi\n      dup1\n      0x1f\n      lt\n      tag_198\n      jumpi\n      0x0100\n      dup1\n      dup4\n      sload\n      div\n      mul\n      dup4\n      mstore\n      swap2\n      0x20\n      add\n      swap2\n      jump(tag_197)\n    tag_198:\n      dup3\n      add\n      swap2\n      swap1\n      0x00\n      mstore\n      keccak256(0x00, 0x20)\n      swap1\n    tag_199:\n      dup2\n      sload\n      dup2\n      mstore\n      swap1\n      0x01\n      add\n      swap1\n      0x20\n      add\n      dup1\n      dup4\n      gt\n      tag_199\n      jumpi\n      dup3\n      swap1\n      sub\n      0x1f\n      and\n      dup3\n      add\n      swap2\n    tag_197:\n      pop\n      pop\n      pop\n      pop\n      pop\n      dup2\n      mstore\n      0x20\n      add\n      0x01\n      dup3\n      add\n      dup1\n      sload\n      tag_200\n      swap1\n      tag_78\n      jump\t// in\n    tag_200:\n      dup1\n      0x1f\n      add\n      0x20\n      dup1\n      swap2\n      div\n      mul\n      0x20\n      add\n      mload(0x40)\n      swap1\n      dup2\n      add\n      0x40\n      mstore\n      dup1\n      swap3\n      swap2\n      swap1\n      dup2\n      dup2\n      mstore\n      0x20\n      add\n      dup3\n      dup1\n      sload\n      tag_201\n      swap1\n      tag_78\n      jump\t// in\n    tag_201:\n      dup1\n      iszero\n      tag_202\n      jumpi\n      dup1\n      0x1f\n      lt\n      tag_203\n      jumpi\n      0x0100\n      dup1\n      dup4\n      sload\n      div\n      mul\n      dup4\n      mstore\n      swap2\n      0x20\n      add\n      swap2\n      jump(tag_202)\n    tag_203:\n      dup3\n      add\n      swap2\n      swap1\n      0x00\n      mstore\n      keccak256(0x00, 0x20)\n      swap1\n    tag_204:\n      dup2\n      sload\n      dup2\n      mstore\n      swap1\n      0x01\n      add\n      swap1\n      0x20\n      add\n      dup1\n      dup4\n      gt\n      tag_204\n      jumpi\n      dup3\n      swap1\n      sub\n      0x1f\n      and\n      dup3\n      add\n      swap2\n    tag_202:\n      pop\n      pop\n      pop\n      pop\n      pop\n      dup2\n      mstore\n      0x20\n      add\n      0x02\n      dup3\n      add\n      dup1\n      sload\n      tag_205\n      swap1\n      tag_78\n      jump\t// in\n    tag_205:\n      dup1\n      0x1f\n      add\n      0x20\n      dup1\n      swap2\n      div\n      mul\n      0x20\n      add\n      mload(0x40)\n      swap1\n      dup2\n      add\n      0x40\n      mstore\n      dup1\n      swap3\n      swap2\n      swap1\n      dup2\n      dup2\n      mstore\n      0x20\n      add\n      dup3\n      dup1\n      sload\n      tag_206\n      swap1\n      tag_78\n      jump\t// in\n    tag_206:\n      dup1\n      iszero\n      tag_207\n      jumpi\n      dup1\n      0x1f\n      lt\n      tag_208\n      jumpi\n      0x0100\n      dup1\n      dup4\n      sload\n      div\n      mul\n      dup4\n      mstore\n      swap2\n      0x20\n      add\n      swap2\n      jump(tag_207)\n    tag_208:\n      dup3\n      add\n      swap2\n      swap1\n      0x00\n      mstore\n      keccak256(0x00, 0x20)\n      swap1\n    tag_209:\n      dup2\n      sload\n      dup2\n      mstore\n      swap1\n      0x01\n      add\n      swap1\n      0x20\n      add\n      dup1\n      dup4\n      gt\n      tag_209\n      jumpi\n      dup3\n      swap1\n      sub\n      0x1f\n      and\n      dup3\n      add\n      swap2\n    tag_207:\n      pop\n      pop\n      pop\n      pop\n      pop\n      dup2\n      mstore\n      0x20\n      add\n      0x03\n      dup3\n      add\n      0x00\n      swap1\n      sload\n      swap1\n      0x0100\n      exp\n      swap1\n      div\n      0xffffffffffffffffffffffffffffffffffffffff\n      and\n      0xffffffffffffffffffffffffffffffffffffffff\n      and\n      0xffffffffffffffffffffffffffffffffffffffff\n      and\n      dup2\n      mstore\n      0x20\n      add\n      0x04\n      dup3\n      add\n      sload\n      dup2\n      mstore\n      0x20\n      add\n      0x05\n      dup3\n      add\n      dup1\n      sload\n      dup1\n      0x20\n      mul\n      0x20\n      add\n      mload(0x40)\n      swap1\n      dup2\n      add\n      0x40\n      mstore\n      dup1\n      swap3\n      swap2\n      swap1\n      dup2\n      dup2\n      mstore\n      0x20\n      add\n      0x00\n      swap1\n    tag_210:\n      dup3\n      dup3\n      lt\n      iszero\n      tag_211\n      jumpi\n      dup4\n      dup3\n      swap1\n      0x00\n      mstore\n      keccak256(0x00, 0x20)\n      swap1\n      0x02\n      mul\n      add\n      mload(0x40)\n      dup1\n      0x60\n      add\n      0x40\n      mstore\n      swap1\n      dup2\n      0x00\n      dup3\n      add\n      dup1\n      sload\n      tag_213\n      swap1\n      tag_78\n      jump\t// in\n    tag_213:\n      dup1\n      0x1f\n      add\n      0x20\n      dup1\n      swap2\n      div\n      mul\n      0x20\n      add\n      mload(0x40)\n      swap1\n      dup2\n      add\n      0x40\n      mstore\n      dup1\n      swap3\n      swap2\n      swap1\n      dup2\n      dup2\n      mstore\n      0x20\n      add\n      dup3\n      dup1\n      sload\n      tag_214\n      swap1\n      tag_78\n      jump\t// in\n    tag_214:\n      dup1\n      iszero\n      tag_215\n      jumpi\n      dup1\n      0x1f\n      lt\n      tag_216\n      jumpi\n      0x0100\n      dup1\n      dup4\n      sload\n      div\n      mul\n      dup4\n      mstore\n      swap2\n      0x20\n      add\n      swap2\n      jump(tag_215)\n    tag_216:\n      dup3\n      add\n      swap2\n      swap1\n      0x00\n      mstore\n      keccak256(0x00, 0x20)\n      swap1\n    tag_217:\n      dup2\n      sload\n      dup2\n      mstore\n      swap1\n      0x01\n      add\n      swap1\n      0x20\n      add\n      dup1\n      dup4\n      gt\n      tag_217\n      jumpi\n      dup3\n      swap1\n      sub\n      0x1f\n      and\n      dup3\n      add\n      swap2\n    tag_215:\n      pop\n      pop\n      pop\n      pop\n      pop\n      dup2\n      mstore\n      0x20\n      add\n      0x01\n      dup3\n      add\n      0x00\n      swap1\n      sload\n      swap1\n      0x0100\n      exp\n      swap1\n      div\n      0xffffffffffffffffffffffffffffffffffffffff\n      and\n      0xffffffffffffffffffffffffffffffffffffffff\n      and\n      0xffffffffffffffffffffffffffffffffffffffff\n      and\n      dup2\n      mstore\n      0x20\n      add\n      0x01\n      dup3\n      add\n      0x14\n      swap1\n      sload\n      swap1\n      0x0100\n      exp\n      swap1\n      div\n      0xff\n      and\n      iszero\n      iszero\n      iszero\n      iszero\n      dup2\n      mstore\n      pop\n      pop\n      dup2\n      mstore\n      0x20\n      add\n      swap1\n      0x01\n      add\n      swap1\n      jump(tag_210)\n    tag_211:\n      pop\n      pop\n      pop\n      pop\n      dup2\n      mstore\n      pop\n      pop\n      swap1\n      pop\n      jump(tag_193)\n        /* \"Contract.sol\":5225:5405  if (requestedMember == true) {... */\n    tag_194:\n        /* \"Contract.sol\":5359:5379  getMemberWithAddress */\n      0x04\n        /* \"Contract.sol\":5359:5393  getMemberWithAddress[_userAddress] */\n      0x00\n        /* \"Contract.sol\":5380:5392  _userAddress */\n      dup5\n        /* \"Contract.sol\":5359:5393  getMemberWithAddress[_userAddress] */\n      0xffffffffffffffffffffffffffffffffffffffff\n      and\n      0xffffffffffffffffffffffffffffffffffffffff\n      and\n      dup2\n      mstore\n      0x20\n      add\n      swap1\n      dup2\n      mstore\n      0x20\n      add\n      0x00\n      keccak256\n        /* \"Contract.sol\":5352:5393  return getMemberWithAddress[_userAddress] */\n      mload(0x40)\n      dup1\n      0xc0\n      add\n      0x40\n      mstore\n      swap1\n      dup2\n      0x00\n      dup3\n      add\n      dup1\n      sload\n      tag_219\n      swap1\n      tag_78\n      jump\t// in\n    tag_219:\n      dup1\n      0x1f\n      add\n      0x20\n      dup1\n      swap2\n      div\n      mul\n      0x20\n      add\n      mload(0x40)\n      swap1\n      dup2\n      add\n      0x40\n      mstore\n      dup1\n      swap3\n      swap2\n      swap1\n      dup2\n      dup2\n      mstore\n      0x20\n      add\n      dup3\n      dup1\n      sload\n      tag_220\n      swap1\n      tag_78\n      jump\t// in\n    tag_220:\n      dup1\n      iszero\n      tag_221\n      jumpi\n      dup1\n      0x1f\n      lt\n      tag_222\n      jumpi\n      0x0100\n      dup1\n      dup4\n      sload\n      div\n      mul\n      dup4\n      mstore\n      swap2\n      0x20\n      add\n      swap2\n      jump(tag_221)\n    tag_222:\n      dup3\n      add\n      swap2\n      swap1\n      0x00\n      mstore\n      keccak256(0x00, 0x20)\n      swap1\n    tag_223:\n      dup2\n      sload\n      dup2\n      mstore\n      swap1\n      0x01\n      add\n      swap1\n      0x20\n      add\n      dup1\n      dup4\n      gt\n      tag_223\n      jumpi\n      dup3\n      swap1\n      sub\n      0x1f\n      and\n      dup3\n      add\n      swap2\n    tag_221:\n      pop\n      pop\n      pop\n      pop\n      pop\n      dup2\n      mstore\n      0x20\n      add\n      0x01\n      dup3\n      add\n      dup1\n      sload\n      tag_224\n      swap1\n      tag_78\n      jump\t// in\n    tag_224:\n      dup1\n      0x1f\n      add\n      0x20\n      dup1\n      swap2\n      div\n      mul\n      0x20\n      add\n      mload(0x40)\n      swap1\n      dup2\n      add\n      0x40\n      mstore\n      dup1\n      swap3\n      swap2\n      swap1\n      dup2\n      dup2\n      mstore\n      0x20\n      add\n      dup3\n      dup1\n      sload\n      tag_225\n      swap1\n      tag_78\n      jump\t// in\n    tag_225:\n      dup1\n      iszero\n      tag_226\n      jumpi\n      dup1\n      0x1f\n      lt\n      tag_227\n      jumpi\n      0x0100\n      dup1\n      dup4\n      sload\n      div\n      mul\n      dup4\n      mstore\n      swap2\n      0x20\n      add\n      swap2\n      jump(tag_226)\n    tag_227:\n      dup3\n      add\n      swap2\n      swap1\n      0x00\n      mstore\n      keccak256(0x00, 0x20)\n      swap1\n    tag_228:\n      dup2\n      sload\n      dup2\n      mstore\n      swap1\n      0x01\n      add\n      swap1\n      0x20\n      add\n      dup1\n      dup4\n      gt\n      tag_228\n      jumpi\n      dup3\n      swap1\n      sub\n      0x1f\n      and\n      dup3\n      add\n      swap2\n    tag_226:\n      pop\n      pop\n      pop\n      pop\n      pop\n      dup2\n      mstore\n      0x20\n      add\n      0x02\n      dup3\n      add\n      dup1\n      sload\n      tag_229\n      swap1\n      tag_78\n      jump\t// in\n    tag_229:\n      dup1\n      0x1f\n      add\n      0x20\n      dup1\n      swap2\n      div\n      mul\n      0x20\n      add\n      mload(0x40)\n      swap1\n      dup2\n      add\n      0x40\n      mstore\n      dup1\n      swap3\n      swap2\n      swap1\n      dup2\n      dup2\n      mstore\n      0x20\n      add\n      dup3\n      dup1\n      sload\n      tag_230\n      swap1\n      tag_78\n      jump\t// in\n    tag_230:\n      dup1\n      iszero\n      tag_231\n      jumpi\n      dup1\n      0x1f\n      lt\n      tag_232\n      jumpi\n      0x0100\n      dup1\n      dup4\n      sload\n      div\n      mul\n      dup4\n      mstore\n      swap2\n      0x20\n      add\n      swap2\n      jump(tag_231)\n    tag_232:\n      dup3\n      add\n      swap2\n      swap1\n      0x00\n      mstore\n      keccak256(0x00, 0x20)\n      swap1\n    tag_233:\n      dup2\n      sload\n      dup2\n      mstore\n      swap1\n      0x01\n      add\n      swap1\n      0x20\n      add\n      dup1\n      dup4\n      gt\n      tag_233\n      jumpi\n      dup3\n      swap1\n      sub\n      0x1f\n      and\n      dup3\n      add\n      swap2\n    tag_231:\n      pop\n      pop\n      pop\n      pop\n      pop\n      dup2\n      mstore\n      0x20\n      add\n      0x03\n      dup3\n      add\n      0x00\n      swap1\n      sload\n      swap1\n      0x0100\n      exp\n      swap1\n      div\n      0xffffffffffffffffffffffffffffffffffffffff\n      and\n      0xffffffffffffffffffffffffffffffffffffffff\n      and\n      0xffffffffffffffffffffffffffffffffffffffff\n      and\n      dup2\n      mstore\n      0x20\n      add\n      0x04\n      dup3\n      add\n      sload\n      dup2\n      mstore\n      0x20\n      add\n      0x05\n      dup3\n      add\n      dup1\n      sload\n      dup1\n      0x20\n      mul\n      0x20\n      add\n      mload(0x40)\n      swap1\n      dup2\n      add\n      0x40\n      mstore\n      dup1\n      swap3\n      swap2\n      swap1\n      dup2\n      dup2\n      mstore\n      0x20\n      add\n      0x00\n      swap1\n    tag_234:\n      dup3\n      dup3\n      lt\n      iszero\n      tag_235\n      jumpi\n      dup4\n      dup3\n      swap1\n      0x00\n      mstore\n      keccak256(0x00, 0x20)\n      swap1\n      0x02\n      mul\n      add\n      mload(0x40)\n      dup1\n      0x60\n      add\n      0x40\n      mstore\n      swap1\n      dup2\n      0x00\n      dup3\n      add\n      dup1\n      sload\n      tag_237\n      swap1\n      tag_78\n      jump\t// in\n    tag_237:\n      dup1\n      0x1f\n      add\n      0x20\n      dup1\n      swap2\n      div\n      mul\n      0x20\n      add\n      mload(0x40)\n      swap1\n      dup2\n      add\n      0x40\n      mstore\n      dup1\n      swap3\n      swap2\n      swap1\n      dup2\n      dup2\n      mstore\n      0x20\n      add\n      dup3\n      dup1\n      sload\n      tag_238\n      swap1\n      tag_78\n      jump\t// in\n    tag_238:\n      dup1\n      iszero\n      tag_239\n      jumpi\n      dup1\n      0x1f\n      lt\n      tag_240\n      jumpi\n      0x0100\n      dup1\n      dup4\n      sload\n      div\n      mul\n      dup4\n      mstore\n      swap2\n      0x20\n      add\n      swap2\n      jump(tag_239)\n    tag_240:\n      dup3\n      add\n      swap2\n      swap1\n      0x00\n      mstore\n      keccak256(0x00, 0x20)\n      swap1\n    tag_241:\n      dup2\n      sload\n      dup2\n      mstore\n      swap1\n      0x01\n      add\n      swap1\n      0x20\n      add\n      dup1\n      dup4\n      gt\n      tag_241\n      jumpi\n      dup3\n      swap1\n      sub\n      0x1f\n      and\n      dup3\n      add\n      swap2\n    tag_239:\n      pop\n      pop\n      pop\n      pop\n      pop\n      dup2\n      mstore\n      0x20\n      add\n      0x01\n      dup3\n      add\n      0x00\n      swap1\n      sload\n      swap1\n      0x0100\n      exp\n      swap1\n      div\n      0xffffffffffffffffffffffffffffffffffffffff\n      and\n      0xffffffffffffffffffffffffffffffffffffffff\n      and\n      0xffffffffffffffffffffffffffffffffffffffff\n      and\n      dup2\n      mstore\n      0x20\n      add\n      0x01\n      dup3\n      add\n      0x14\n      swap1\n      sload\n      swap1\n      0x0100\n      exp\n      swap1\n      div\n      0xff\n      and\n      iszero\n      iszero\n      iszero\n      iszero\n      dup2\n      mstore\n      pop\n      pop\n      dup2\n      mstore\n      0x20\n      add\n      swap1\n      0x01\n      add\n      swap1\n      jump(tag_234)\n    tag_235:\n      pop\n      pop\n      pop\n      pop\n      dup2\n      mstore\n      pop\n      pop\n      swap1\n      pop\n        /* \"Contract.sol\":5076:5412  function findMember(address _userAddress, bool requestedMember)... */\n    tag_193:\n      swap3\n      swap2\n      pop\n      pop\n      jump\t// out\n        /* \"Contract.sol\":5457:6644  function approoveRequest(address _userAddress, address approvingUserAddress)... */\n    tag_65:\n        /* \"Contract.sol\":5566:5604  MemberStruct memory memberTobeApproved */\n      0x00\n        /* \"Contract.sol\":5607:5636  getRequestedMemberWithAddress */\n      0x07\n        /* \"Contract.sol\":5607:5674  getRequestedMemberWithAddress[... */\n      0x00\n        /* \"Contract.sol\":5651:5663  _userAddress */\n      dup5\n        /* \"Contract.sol\":5607:5674  getRequestedMemberWithAddress[... */\n      0xffffffffffffffffffffffffffffffffffffffff\n      and\n      0xffffffffffffffffffffffffffffffffffffffff\n      and\n      dup2\n      mstore\n      0x20\n      add\n      swap1\n      dup2\n      mstore\n      0x20\n      add\n      0x00\n      keccak256\n        /* \"Contract.sol\":5566:5674  MemberStruct memory memberTobeApproved = getRequestedMemberWithAddress[... */\n      mload(0x40)\n      dup1\n      0xc0\n      add\n      0x40\n      mstore\n      swap1\n      dup2\n      0x00\n      dup3\n      add\n      dup1\n      sload\n      tag_243\n      swap1\n      tag_78\n      jump\t// in\n    tag_243:\n      dup1\n      0x1f\n      add\n      0x20\n      dup1\n      swap2\n      div\n      mul\n      0x20\n      add\n      mload(0x40)\n      swap1\n      dup2\n      add\n      0x40\n      mstore\n      dup1\n      swap3\n      swap2\n      swap1\n      dup2\n      dup2\n      mstore\n      0x20\n      add\n      dup3\n      dup1\n      sload\n      tag_244\n      swap1\n      tag_78\n      jump\t// in\n    tag_244:\n      dup1\n      iszero\n      tag_245\n      jumpi\n      dup1\n      0x1f\n      lt\n      tag_246\n      jumpi\n      0x0100\n      dup1\n      dup4\n      sload\n      div\n      mul\n      dup4\n      mstore\n      swap2\n      0x20\n      add\n      swap2\n      jump(tag_245)\n    tag_246:\n      dup3\n      add\n      swap2\n      swap1\n      0x00\n      mstore\n      keccak256(0x00, 0x20)\n      swap1\n    tag_247:\n      dup2\n      sload\n      dup2\n      mstore\n      swap1\n      0x01\n      add\n      swap1\n      0x20\n      add\n      dup1\n      dup4\n      gt\n      tag_247\n      jumpi\n      dup3\n      swap1\n      sub\n      0x1f\n      and\n      dup3\n      add\n      swap2\n    tag_245:\n      pop\n      pop\n      pop\n      pop\n      pop\n      dup2\n      mstore\n      0x20\n      add\n      0x01\n      dup3\n      add\n      dup1\n      sload\n      tag_248\n      swap1\n      tag_78\n      jump\t// in\n    tag_248:\n      dup1\n      0x1f\n      add\n      0x20\n      dup1\n      swap2\n      div\n      mul\n      0x20\n      add\n      mload(0x40)\n      swap1\n      dup2\n      add\n      0x40\n      mstore\n      dup1\n      swap3\n      swap2\n      swap1\n      dup2\n      dup2\n      mstore\n      0x20\n      add\n      dup3\n      dup1\n      sload\n      tag_249\n      swap1\n      tag_78\n      jump\t// in\n    tag_249:\n      dup1\n      iszero\n      tag_250\n      jumpi\n      dup1\n      0x1f\n      lt\n      tag_251\n      jumpi\n      0x0100\n      dup1\n      dup4\n      sload\n      div\n      mul\n      dup4\n      mstore\n      swap2\n      0x20\n      add\n      swap2\n      jump(tag_250)\n    tag_251:\n      dup3\n      add\n      swap2\n      swap1\n      0x00\n      mstore\n      keccak256(0x00, 0x20)\n      swap1\n    tag_252:\n      dup2\n      sload\n      dup2\n      mstore\n      swap1\n      0x01\n      add\n      swap1\n      0x20\n      add\n      dup1\n      dup4\n      gt\n      tag_252\n      jumpi\n      dup3\n      swap1\n      sub\n      0x1f\n      and\n      dup3\n      add\n      swap2\n    tag_250:\n      pop\n      pop\n      pop\n      pop\n      pop\n      dup2\n      mstore\n      0x20\n      add\n      0x02\n      dup3\n      add\n      dup1\n      sload\n      tag_253\n      swap1\n      tag_78\n      jump\t// in\n    tag_253:\n      dup1\n      0x1f\n      add\n      0x20\n      dup1\n      swap2\n      div\n      mul\n      0x20\n      add\n      mload(0x40)\n      swap1\n      dup2\n      add\n      0x40\n      mstore\n      dup1\n      swap3\n      swap2\n      swap1\n      dup2\n      dup2\n      mstore\n      0x20\n      add\n      dup3\n      dup1\n      sload\n      tag_254\n      swap1\n      tag_78\n      jump\t// in\n    tag_254:\n      dup1\n      iszero\n      tag_255\n      jumpi\n      dup1\n      0x1f\n      lt\n      tag_256\n      jumpi\n      0x0100\n      dup1\n      dup4\n      sload\n      div\n      mul\n      dup4\n      mstore\n      swap2\n      0x20\n      add\n      swap2\n      jump(tag_255)\n    tag_256:\n      dup3\n      add\n      swap2\n      swap1\n      0x00\n      mstore\n      keccak256(0x00, 0x20)\n      swap1\n    tag_257:\n      dup2\n      sload\n      dup2\n      mstore\n      swap1\n      0x01\n      add\n      swap1\n      0x20\n      add\n      dup1\n      dup4\n      gt\n      tag_257\n      jumpi\n      dup3\n      swap1\n      sub\n      0x1f\n      and\n      dup3\n      add\n      swap2\n    tag_255:\n      pop\n      pop\n      pop\n      pop\n      pop\n      dup2\n      mstore\n      0x20\n      add\n      0x03\n      dup3\n      add\n      0x00\n      swap1\n      sload\n      swap1\n      0x0100\n      exp\n      swap1\n      div\n      0xffffffffffffffffffffffffffffffffffffffff\n      and\n      0xffffffffffffffffffffffffffffffffffffffff\n      and\n      0xffffffffffffffffffffffffffffffffffffffff\n      and\n      dup2\n      mstore\n      0x20\n      add\n      0x04\n      dup3\n      add\n      sload\n      dup2\n      mstore\n      0x20\n      add\n      0x05\n      dup3\n      add\n      dup1\n      sload\n      dup1\n      0x20\n      mul\n      0x20\n      add\n      mload(0x40)\n      swap1\n      dup2\n      add\n      0x40\n      mstore\n      dup1\n      swap3\n      swap2\n      swap1\n      dup2\n      dup2\n      mstore\n      0x20\n      add\n      0x00\n      swap1\n    tag_258:\n      dup3\n      dup3\n      lt\n      iszero\n      tag_259\n      jumpi\n      dup4\n      dup3\n      swap1\n      0x00\n      mstore\n      keccak256(0x00, 0x20)\n      swap1\n      0x02\n      mul\n      add\n      mload(0x40)\n      dup1\n      0x60\n      add\n      0x40\n      mstore\n      swap1\n      dup2\n      0x00\n      dup3\n      add\n      dup1\n      sload\n      tag_261\n      swap1\n      tag_78\n      jump\t// in\n    tag_261:\n      dup1\n      0x1f\n      add\n      0x20\n      dup1\n      swap2\n      div\n      mul\n      0x20\n      add\n      mload(0x40)\n      swap1\n      dup2\n      add\n      0x40\n      mstore\n      dup1\n      swap3\n      swap2\n      swap1\n      dup2\n      dup2\n      mstore\n      0x20\n      add\n      dup3\n      dup1\n      sload\n      tag_262\n      swap1\n      tag_78\n      jump\t// in\n    tag_262:\n      dup1\n      iszero\n      tag_263\n      jumpi\n      dup1\n      0x1f\n      lt\n      tag_264\n      jumpi\n      0x0100\n      dup1\n      dup4\n      sload\n      div\n      mul\n      dup4\n      mstore\n      swap2\n      0x20\n      add\n      swap2\n      jump(tag_263)\n    tag_264:\n      dup3\n      add\n      swap2\n      swap1\n      0x00\n      mstore\n      keccak256(0x00, 0x20)\n      swap1\n    tag_265:\n      dup2\n      sload\n      dup2\n      mstore\n      swap1\n      0x01\n      add\n      swap1\n      0x20\n      add\n      dup1\n      dup4\n      gt\n      tag_265\n      jumpi\n      dup3\n      swap1\n      sub\n      0x1f\n      and\n      dup3\n      add\n      swap2\n    tag_263:\n      pop\n      pop\n      pop\n      pop\n      pop\n      dup2\n      mstore\n      0x20\n      add\n      0x01\n      dup3\n      add\n      0x00\n      swap1\n      sload\n      swap1\n      0x0100\n      exp\n      swap1\n      div\n      0xffffffffffffffffffffffffffffffffffffffff\n      and\n      0xffffffffffffffffffffffffffffffffffffffff\n      and\n      0xffffffffffffffffffffffffffffffffffffffff\n      and\n      dup2\n      mstore\n      0x20\n      add\n      0x01\n      dup3\n      add\n      0x14\n      swap1\n      sload\n      swap1\n      0x0100\n      exp\n      swap1\n      div\n      0xff\n      and\n      iszero\n      iszero\n      iszero\n      iszero\n      dup2\n      mstore\n      pop\n      pop\n      dup2\n      mstore\n      0x20\n      add\n      swap1\n      0x01\n      add\n      swap1\n      jump(tag_258)\n    tag_259:\n      pop\n      pop\n      pop\n      pop\n      dup2\n      mstore\n      pop\n      pop\n      swap1\n      pop\n        /* \"Contract.sol\":5685:5720  MemberStruct memory apprivongMember */\n      0x00\n        /* \"Contract.sol\":5723:5743  getMemberWithAddress */\n      0x04\n        /* \"Contract.sol\":5723:5789  getMemberWithAddress[... */\n      0x00\n        /* \"Contract.sol\":5758:5778  approvingUserAddress */\n      dup5\n        /* \"Contract.sol\":5723:5789  getMemberWithAddress[... */\n      0xffffffffffffffffffffffffffffffffffffffff\n      and\n      0xffffffffffffffffffffffffffffffffffffffff\n      and\n      dup2\n      mstore\n      0x20\n      add\n      swap1\n      dup2\n      mstore\n      0x20\n      add\n      0x00\n      keccak256\n        /* \"Contract.sol\":5685:5789  MemberStruct memory apprivongMember = getMemberWithAddress[... */\n      mload(0x40)\n      dup1\n      0xc0\n      add\n      0x40\n      mstore\n      swap1\n      dup2\n      0x00\n      dup3\n      add\n      dup1\n      sload\n      tag_266\n      swap1\n      tag_78\n      jump\t// in\n    tag_266:\n      dup1\n      0x1f\n      add\n      0x20\n      dup1\n      swap2\n      div\n      mul\n      0x20\n      add\n      mload(0x40)\n      swap1\n      dup2\n      add\n      0x40\n      mstore\n      dup1\n      swap3\n      swap2\n      swap1\n      dup2\n      dup2\n      mstore\n      0x20\n      add\n      dup3\n      dup1\n      sload\n      tag_267\n      swap1\n      tag_78\n      jump\t// in\n    tag_267:\n      dup1\n      iszero\n      tag_268\n      jumpi\n      dup1\n      0x1f\n      lt\n      tag_269\n      jumpi\n      0x0100\n      dup1\n      dup4\n      sload\n      div\n      mul\n      dup4\n      mstore\n      swap2\n      0x20\n      add\n      swap2\n      jump(tag_268)\n    tag_269:\n      dup3\n      add\n      swap2\n      swap1\n      0x00\n      mstore\n      keccak256(0x00, 0x20)\n      swap1\n    tag_270:\n      dup2\n      sload\n      dup2\n      mstore\n      swap1\n      0x01\n      add\n      swap1\n      0x20\n      add\n      dup1\n      dup4\n      gt\n      tag_270\n      jumpi\n      dup3\n      swap1\n      sub\n      0x1f\n      and\n      dup3\n      add\n      swap2\n    tag_268:\n      pop\n      pop\n      pop\n      pop\n      pop\n      dup2\n      mstore\n      0x20\n      add\n      0x01\n      dup3\n      add\n      dup1\n      sload\n      tag_271\n      swap1\n      tag_78\n      jump\t// in\n    tag_271:\n      dup1\n      0x1f\n      add\n      0x20\n      dup1\n      swap2\n      div\n      mul\n      0x20\n      add\n      mload(0x40)\n      swap1\n      dup2\n      add\n      0x40\n      mstore\n      dup1\n      swap3\n      swap2\n      swap1\n      dup2\n      dup2\n      mstore\n      0x20\n      add\n      dup3\n      dup1\n      sload\n      tag_272\n      swap1\n      tag_78\n      jump\t// in\n    tag_272:\n      dup1\n      iszero\n      tag_273\n      jumpi\n      dup1\n      0x1f\n      lt\n      tag_274\n      jumpi\n      0x0100\n      dup1\n      dup4\n      sload\n      div\n      mul\n      dup4\n      mstore\n      swap2\n      0x20\n      add\n      swap2\n      jump(tag_273)\n    tag_274:\n      dup3\n      add\n      swap2\n      swap1\n      0x00\n      mstore\n      keccak256(0x00, 0x20)\n      swap1\n    tag_275:\n      dup2\n      sload\n      dup2\n      mstore\n      swap1\n      0x01\n      add\n      swap1\n      0x20\n      add\n      dup1\n      dup4\n      gt\n      tag_275\n      jumpi\n      dup3\n      swap1\n      sub\n      0x1f\n      and\n      dup3\n      add\n      swap2\n    tag_273:\n      pop\n      pop\n      pop\n      pop\n      pop\n      dup2\n      mstore\n      0x20\n      add\n      0x02\n      dup3\n      add\n      dup1\n      sload\n      tag_276\n      swap1\n      tag_78\n      jump\t// in\n    tag_276:\n      dup1\n      0x1f\n      add\n      0x20\n      dup1\n      swap2\n      div\n      mul\n      0x20\n      add\n      mload(0x40)\n      swap1\n      dup2\n      add\n      0x40\n      mstore\n      dup1\n      swap3\n      swap2\n      swap1\n      dup2\n      dup2\n      mstore\n      0x20\n      add\n      dup3\n      dup1\n      sload\n      tag_277\n      swap1\n      tag_78\n      jump\t// in\n    tag_277:\n      dup1\n      iszero\n      tag_278\n      jumpi\n      dup1\n      0x1f\n      lt\n      tag_279\n      jumpi\n      0x0100\n      dup1\n      dup4\n      sload\n      div\n      mul\n      dup4\n      mstore\n      swap2\n      0x20\n      add\n      swap2\n      jump(tag_278)\n    tag_279:\n      dup3\n      add\n      swap2\n      swap1\n      0x00\n      mstore\n      keccak256(0x00, 0x20)\n      swap1\n    tag_280:\n      dup2\n      sload\n      dup2\n      mstore\n      swap1\n      0x01\n      add\n      swap1\n      0x20\n      add\n      dup1\n      dup4\n      gt\n      tag_280\n      jumpi\n      dup3\n      swap1\n      sub\n      0x1f\n      and\n      dup3\n      add\n      swap2\n    tag_278:\n      pop\n      pop\n      pop\n      pop\n      pop\n      dup2\n      mstore\n      0x20\n      add\n      0x03\n      dup3\n      add\n      0x00\n      swap1\n      sload\n      swap1\n      0x0100\n      exp\n      swap1\n      div\n      0xffffffffffffffffffffffffffffffffffffffff\n      and\n      0xffffffffffffffffffffffffffffffffffffffff\n      and\n      0xffffffffffffffffffffffffffffffffffffffff\n      and\n      dup2\n      mstore\n      0x20\n      add\n      0x04\n      dup3\n      add\n      sload\n      dup2\n      mstore\n      0x20\n      add\n      0x05\n      dup3\n      add\n      dup1\n      sload\n      dup1\n      0x20\n      mul\n      0x20\n      add\n      mload(0x40)\n      swap1\n      dup2\n      add\n      0x40\n      mstore\n      dup1\n      swap3\n      swap2\n      swap1\n      dup2\n      dup2\n      mstore\n      0x20\n      add\n      0x00\n      swap1\n    tag_281:\n      dup3\n      dup3\n      lt\n      iszero\n      tag_282\n      jumpi\n      dup4\n      dup3\n      swap1\n      0x00\n      mstore\n      keccak256(0x00, 0x20)\n      swap1\n      0x02\n      mul\n      add\n      mload(0x40)\n      dup1\n      0x60\n      add\n      0x40\n      mstore\n      swap1\n      dup2\n      0x00\n      dup3\n      add\n      dup1\n      sload\n      tag_284\n      swap1\n      tag_78\n      jump\t// in\n    tag_284:\n      dup1\n      0x1f\n      add\n      0x20\n      dup1\n      swap2\n      div\n      mul\n      0x20\n      add\n      mload(0x40)\n      swap1\n      dup2\n      add\n      0x40\n      mstore\n      dup1\n      swap3\n      swap2\n      swap1\n      dup2\n      dup2\n      mstore\n      0x20\n      add\n      dup3\n      dup1\n      sload\n      tag_285\n      swap1\n      tag_78\n      jump\t// in\n    tag_285:\n      dup1\n      iszero\n      tag_286\n      jumpi\n      dup1\n      0x1f\n      lt\n      tag_287\n      jumpi\n      0x0100\n      dup1\n      dup4\n      sload\n      div\n      mul\n      dup4\n      mstore\n      swap2\n      0x20\n      add\n      swap2\n      jump(tag_286)\n    tag_287:\n      dup3\n      add\n      swap2\n      swap1\n      0x00\n      mstore\n      keccak256(0x00, 0x20)\n      swap1\n    tag_288:\n      dup2\n      sload\n      dup2\n      mstore\n      swap1\n      0x01\n      add\n      swap1\n      0x20\n      add\n      dup1\n      dup4\n      gt\n      tag_288\n      jumpi\n      dup3\n      swap1\n      sub\n      0x1f\n      and\n      dup3\n      add\n      swap2\n    tag_286:\n      pop\n      pop\n      pop\n      pop\n      pop\n      dup2\n      mstore\n      0x20\n      add\n      0x01\n      dup3\n      add\n      0x00\n      swap1\n      sload\n      swap1\n      0x0100\n      exp\n      swap1\n      div\n      0xffffffffffffffffffffffffffffffffffffffff\n      and\n      0xffffffffffffffffffffffffffffffffffffffff\n      and\n      0xffffffffffffffffffffffffffffffffffffffff\n      and\n      dup2\n      mstore\n      0x20\n      add\n      0x01\n      dup3\n      add\n      0x14\n      swap1\n      sload\n      swap1\n      0x0100\n      exp\n      swap1\n      div\n      0xff\n      and\n      iszero\n      iszero\n      iszero\n      iszero\n      dup2\n      mstore\n      pop\n      pop\n      dup2\n      mstore\n      0x20\n      add\n      swap1\n      0x01\n      add\n      swap1\n      jump(tag_281)\n    tag_282:\n      pop\n      pop\n      pop\n      pop\n      dup2\n      mstore\n      pop\n      pop\n      swap1\n      pop\n        /* \"Contract.sol\":5800:5818  string memory post */\n      0x00\n        /* \"Contract.sol\":5821:5839  memberTobeApproved */\n      dup3\n        /* \"Contract.sol\":5821:5844  memberTobeApproved.post */\n      0x00\n      add\n      mload\n        /* \"Contract.sol\":5800:5844  string memory post = memberTobeApproved.post */\n      swap1\n      pop\n        /* \"Contract.sol\":5855:5873  string memory dept */\n      0x00\n        /* \"Contract.sol\":5876:5894  memberTobeApproved */\n      dup4\n        /* \"Contract.sol\":5876:5899  memberTobeApproved.dept */\n      0x20\n      add\n      mload\n        /* \"Contract.sol\":5855:5899  string memory dept = memberTobeApproved.dept */\n      swap1\n      pop\n        /* \"Contract.sol\":5910:5928  string memory name */\n      0x00\n        /* \"Contract.sol\":5931:5949  memberTobeApproved */\n      dup5\n        /* \"Contract.sol\":5931:5954  memberTobeApproved.name */\n      0x40\n      add\n      mload\n        /* \"Contract.sol\":5910:5954  string memory name = memberTobeApproved.name */\n      swap1\n      pop\n        /* \"Contract.sol\":5965:5984  address userAddress */\n      0x00\n        /* \"Contract.sol\":5987:6005  memberTobeApproved */\n      dup6\n        /* \"Contract.sol\":5987:6017  memberTobeApproved.userAddress */\n      0x60\n      add\n      mload\n        /* \"Contract.sol\":5965:6017  address userAddress = memberTobeApproved.userAddress */\n      swap1\n      pop\n        /* \"Contract.sol\":6028:6055  uint256 requestingUserPower */\n      0x00\n        /* \"Contract.sol\":6058:6076  memberTobeApproved */\n      dup7\n        /* \"Contract.sol\":6058:6082  memberTobeApproved.power */\n      0x80\n      add\n      mload\n        /* \"Contract.sol\":6028:6082  uint256 requestingUserPower = memberTobeApproved.power */\n      swap1\n      pop\n        /* \"Contract.sol\":6093:6119  uint256 approvongUserPower */\n      0x00\n        /* \"Contract.sol\":6122:6137  apprivongMember */\n      dup7\n        /* \"Contract.sol\":6122:6143  apprivongMember.power */\n      0x80\n      add\n      mload\n        /* \"Contract.sol\":6093:6143  uint256 approvongUserPower = apprivongMember.power */\n      swap1\n      pop\n        /* \"Contract.sol\":6200:6219  requestingUserPower */\n      dup2\n        /* \"Contract.sol\":6178:6196  approvongUserPower */\n      dup2\n        /* \"Contract.sol\":6178:6219  approvongUserPower <= requestingUserPower */\n      gt\n      iszero\n        /* \"Contract.sol\":6156:6289  require(... */\n      tag_289\n      jumpi\n      mload(0x40)\n      0x08c379a000000000000000000000000000000000000000000000000000000000\n      dup2\n      mstore\n      0x04\n      add\n      tag_290\n      swap1\n      tag_291\n      jump\t// in\n    tag_290:\n      mload(0x40)\n      dup1\n      swap2\n      sub\n      swap1\n      revert\n    tag_289:\n        /* \"Contract.sol\":6302:6358  addOrRequestMember(post, dept, name, userAddress, false) */\n      tag_292\n        /* \"Contract.sol\":6321:6325  post */\n      dup7\n        /* \"Contract.sol\":6327:6331  dept */\n      dup7\n        /* \"Contract.sol\":6333:6337  name */\n      dup7\n        /* \"Contract.sol\":6339:6350  userAddress */\n      dup7\n        /* \"Contract.sol\":6352:6357  false */\n      0x00\n        /* \"Contract.sol\":6302:6320  addOrRequestMember */\n      tag_42\n        /* \"Contract.sol\":6302:6358  addOrRequestMember(post, dept, name, userAddress, false) */\n      jump\t// in\n    tag_292:\n        /* \"Contract.sol\":6423:6436  uint256 index */\n      0x00\n        /* \"Contract.sol\":6439:6455  indexFromRequest */\n      0x02\n        /* \"Contract.sol\":6439:6469  indexFromRequest[_userAddress] */\n      0x00\n        /* \"Contract.sol\":6456:6468  _userAddress */\n      dup13\n        /* \"Contract.sol\":6439:6469  indexFromRequest[_userAddress] */\n      0xffffffffffffffffffffffffffffffffffffffff\n      and\n      0xffffffffffffffffffffffffffffffffffffffff\n      and\n      dup2\n      mstore\n      0x20\n      add\n      swap1\n      dup2\n      mstore\n      0x20\n      add\n      0x00\n      keccak256\n      sload\n        /* \"Contract.sol\":6423:6469  uint256 index = indexFromRequest[_userAddress] */\n      swap1\n      pop\n        /* \"Contract.sol\":6513:6536  arrayOfRequestedMembers */\n      0x08\n        /* \"Contract.sol\":6584:6585  1 */\n      0x01\n        /* \"Contract.sol\":6551:6574  arrayOfRequestedMembers */\n      0x08\n        /* \"Contract.sol\":6551:6581  arrayOfRequestedMembers.length */\n      dup1\n      sload\n      swap1\n      pop\n        /* \"Contract.sol\":6551:6585  arrayOfRequestedMembers.length - 1 */\n      tag_293\n      swap2\n      swap1\n      tag_294\n      jump\t// in\n    tag_293:\n        /* \"Contract.sol\":6513:6596  arrayOfRequestedMembers[... */\n      dup2\n      sload\n      dup2\n      lt\n      tag_295\n      jumpi\n      tag_296\n      tag_297\n      jump\t// in\n    tag_296:\n    tag_295:\n      swap1\n      0x00\n      mstore\n      keccak256(0x00, 0x20)\n      swap1\n      0x06\n      mul\n      add\n        /* \"Contract.sol\":6480:6503  arrayOfRequestedMembers */\n      0x08\n        /* \"Contract.sol\":6504:6509  index */\n      dup3\n        /* \"Contract.sol\":6480:6510  arrayOfRequestedMembers[index] */\n      dup2\n      sload\n      dup2\n      lt\n      tag_299\n      jumpi\n      tag_300\n      tag_297\n      jump\t// in\n    tag_300:\n    tag_299:\n      swap1\n      0x00\n      mstore\n      keccak256(0x00, 0x20)\n      swap1\n      0x06\n      mul\n      add\n        /* \"Contract.sol\":6480:6596  arrayOfRequestedMembers[index] = arrayOfRequestedMembers[... */\n      0x00\n      dup3\n      add\n      dup2\n      0x00\n      add\n      swap1\n      dup2\n      tag_302\n      swap2\n      swap1\n      tag_109\n      jump\t// in\n    tag_302:\n      pop\n      0x01\n      dup3\n      add\n      dup2\n      0x01\n      add\n      swap1\n      dup2\n      tag_303\n      swap2\n      swap1\n      tag_109\n      jump\t// in\n    tag_303:\n      pop\n      0x02\n      dup3\n      add\n      dup2\n      0x02\n      add\n      swap1\n      dup2\n      tag_304\n      swap2\n      swap1\n      tag_109\n      jump\t// in\n    tag_304:\n      pop\n      0x03\n      dup3\n      add\n      0x00\n      swap1\n      sload\n      swap1\n      0x0100\n      exp\n      swap1\n      div\n      0xffffffffffffffffffffffffffffffffffffffff\n      and\n      dup2\n      0x03\n      add\n      exp(0x0100, 0x00)\n      dup2\n      sload\n      dup2\n      0xffffffffffffffffffffffffffffffffffffffff\n      mul\n      not\n      and\n      swap1\n      dup4\n      0xffffffffffffffffffffffffffffffffffffffff\n      and\n      mul\n      or\n      swap1\n      sstore\n      pop\n      0x04\n      dup3\n      add\n      sload\n      dup2\n      0x04\n      add\n      sstore\n      0x05\n      dup3\n      add\n      dup2\n      0x05\n      add\n      swap1\n      dup1\n      sload\n      tag_305\n      swap3\n      swap2\n      swap1\n      tag_155\n      jump\t// in\n    tag_305:\n      pop\n      swap1\n      pop\n      pop\n        /* \"Contract.sol\":6607:6630  arrayOfRequestedMembers */\n      0x08\n        /* \"Contract.sol\":6607:6636  arrayOfRequestedMembers.pop() */\n      dup1\n      sload\n      dup1\n      tag_306\n      jumpi\n      tag_307\n      tag_308\n      jump\t// in\n    tag_307:\n    tag_306:\n      0x01\n      swap1\n      sub\n      dup2\n      dup2\n      swap1\n      0x00\n      mstore\n      keccak256(0x00, 0x20)\n      swap1\n      0x06\n      mul\n      add\n      0x00\n      dup1\n      dup3\n      add\n      0x00\n      tag_310\n      swap2\n      swap1\n      tag_311\n      jump\t// in\n    tag_310:\n      0x01\n      dup3\n      add\n      0x00\n      tag_312\n      swap2\n      swap1\n      tag_311\n      jump\t// in\n    tag_312:\n      0x02\n      dup3\n      add\n      0x00\n      tag_313\n      swap2\n      swap1\n      tag_311\n      jump\t// in\n    tag_313:\n      0x03\n      dup3\n      add\n      exp(0x0100, 0x00)\n      dup2\n      sload\n      swap1\n      0xffffffffffffffffffffffffffffffffffffffff\n      mul\n      not\n      and\n      swap1\n      sstore\n      0x04\n      dup3\n      add\n      0x00\n      swap1\n      sstore\n      0x05\n      dup3\n      add\n      0x00\n      tag_314\n      swap2\n      swap1\n      tag_315\n      jump\t// in\n    tag_314:\n      pop\n      pop\n      swap1\n      sstore\n        /* \"Contract.sol\":5555:6644  {... */\n      pop\n      pop\n      pop\n      pop\n      pop\n      pop\n      pop\n      pop\n      pop\n        /* \"Contract.sol\":5457:6644  function approoveRequest(address _userAddress, address approvingUserAddress)... */\n      pop\n      pop\n      jump\t// out\n        /* \"Contract.sol\":1821:2099  function getApprovedOrRequestedMember(bool request)... */\n    tag_69:\n        /* \"Contract.sol\":1921:1942  MemberStruct[] memory */\n      0x60\n        /* \"Contract.sol\":1975:1979  true */\n      0x01\n        /* \"Contract.sol\":1964:1979  request == true */\n      iszero\n      iszero\n        /* \"Contract.sol\":1964:1971  request */\n      dup3\n        /* \"Contract.sol\":1964:1979  request == true */\n      iszero\n      iszero\n      sub\n        /* \"Contract.sol\":1960:2092  if (request == true) {... */\n      tag_317\n      jumpi\n        /* \"Contract.sol\":2003:2026  arrayOfRequestedMembers */\n      0x08\n        /* \"Contract.sol\":1996:2026  return arrayOfRequestedMembers */\n      dup1\n      sload\n      dup1\n      0x20\n      mul\n      0x20\n      add\n      mload(0x40)\n      swap1\n      dup2\n      add\n      0x40\n      mstore\n      dup1\n      swap3\n      swap2\n      swap1\n      dup2\n      dup2\n      mstore\n      0x20\n      add\n      0x00\n      swap1\n    tag_318:\n      dup3\n      dup3\n      lt\n      iszero\n      tag_319\n      jumpi\n      dup4\n      dup3\n      swap1\n      0x00\n      mstore\n      keccak256(0x00, 0x20)\n      swap1\n      0x06\n      mul\n      add\n      mload(0x40)\n      dup1\n      0xc0\n      add\n      0x40\n      mstore\n      swap1\n      dup2\n      0x00\n      dup3\n      add\n      dup1\n      sload\n      tag_321\n      swap1\n      tag_78\n      jump\t// in\n    tag_321:\n      dup1\n      0x1f\n      add\n      0x20\n      dup1\n      swap2\n      div\n      mul\n      0x20\n      add\n      mload(0x40)\n      swap1\n      dup2\n      add\n      0x40\n      mstore\n      dup1\n      swap3\n      swap2\n      swap1\n      dup2\n      dup2\n      mstore\n      0x20\n      add\n      dup3\n      dup1\n      sload\n      tag_322\n      swap1\n      tag_78\n      jump\t// in\n    tag_322:\n      dup1\n      iszero\n      tag_323\n      jumpi\n      dup1\n      0x1f\n      lt\n      tag_324\n      jumpi\n      0x0100\n      dup1\n      dup4\n      sload\n      div\n      mul\n      dup4\n      mstore\n      swap2\n      0x20\n      add\n      swap2\n      jump(tag_323)\n    tag_324:\n      dup3\n      add\n      swap2\n      swap1\n      0x00\n      mstore\n      keccak256(0x00, 0x20)\n      swap1\n    tag_325:\n      dup2\n      sload\n      dup2\n      mstore\n      swap1\n      0x01\n      add\n      swap1\n      0x20\n      add\n      dup1\n      dup4\n      gt\n      tag_325\n      jumpi\n      dup3\n      swap1\n      sub\n      0x1f\n      and\n      dup3\n      add\n      swap2\n    tag_323:\n      pop\n      pop\n      pop\n      pop\n      pop\n      dup2\n      mstore\n      0x20\n      add\n      0x01\n      dup3\n      add\n      dup1\n      sload\n      tag_326\n      swap1\n      tag_78\n      jump\t// in\n    tag_326:\n      dup1\n      0x1f\n      add\n      0x20\n      dup1\n      swap2\n      div\n      mul\n      0x20\n      add\n      mload(0x40)\n      swap1\n      dup2\n      add\n      0x40\n      mstore\n      dup1\n      swap3\n      swap2\n      swap1\n      dup2\n      dup2\n      mstore\n      0x20\n      add\n      dup3\n      dup1\n      sload\n      tag_327\n      swap1\n      tag_78\n      jump\t// in\n    tag_327:\n      dup1\n      iszero\n      tag_328\n      jumpi\n      dup1\n      0x1f\n      lt\n      tag_329\n      jumpi\n      0x0100\n      dup1\n      dup4\n      sload\n      div\n      mul\n      dup4\n      mstore\n      swap2\n      0x20\n      add\n      swap2\n      jump(tag_328)\n    tag_329:\n      dup3\n      add\n      swap2\n      swap1\n      0x00\n      mstore\n      keccak256(0x00, 0x20)\n      swap1\n    tag_330:\n      dup2\n      sload\n      dup2\n      mstore\n      swap1\n      0x01\n      add\n      swap1\n      0x20\n      add\n      dup1\n      dup4\n      gt\n      tag_330\n      jumpi\n      dup3\n      swap1\n      sub\n      0x1f\n      and\n      dup3\n      add\n      swap2\n    tag_328:\n      pop\n      pop\n      pop\n      pop\n      pop\n      dup2\n      mstore\n      0x20\n      add\n      0x02\n      dup3\n      add\n      dup1\n      sload\n      tag_331\n      swap1\n      tag_78\n      jump\t// in\n    tag_331:\n      dup1\n      0x1f\n      add\n      0x20\n      dup1\n      swap2\n      div\n      mul\n      0x20\n      add\n      mload(0x40)\n      swap1\n      dup2\n      add\n      0x40\n      mstore\n      dup1\n      swap3\n      swap2\n      swap1\n      dup2\n      dup2\n      mstore\n      0x20\n      add\n      dup3\n      dup1\n      sload\n      tag_332\n      swap1\n      tag_78\n      jump\t// in\n    tag_332:\n      dup1\n      iszero\n      tag_333\n      jumpi\n      dup1\n      0x1f\n      lt\n      tag_334\n      jumpi\n      0x0100\n      dup1\n      dup4\n      sload\n      div\n      mul\n      dup4\n      mstore\n      swap2\n      0x20\n      add\n      swap2\n      jump(tag_333)\n    tag_334:\n      dup3\n      add\n      swap2\n      swap1\n      0x00\n      mstore\n      keccak256(0x00, 0x20)\n      swap1\n    tag_335:\n      dup2\n      sload\n      dup2\n      mstore\n      swap1\n      0x01\n      add\n      swap1\n      0x20\n      add\n      dup1\n      dup4\n      gt\n      tag_335\n      jumpi\n      dup3\n      swap1\n      sub\n      0x1f\n      and\n      dup3\n      add\n      swap2\n    tag_333:\n      pop\n      pop\n      pop\n      pop\n      pop\n      dup2\n      mstore\n      0x20\n      add\n      0x03\n      dup3\n      add\n      0x00\n      swap1\n      sload\n      swap1\n      0x0100\n      exp\n      swap1\n      div\n      0xffffffffffffffffffffffffffffffffffffffff\n      and\n      0xffffffffffffffffffffffffffffffffffffffff\n      and\n      0xffffffffffffffffffffffffffffffffffffffff\n      and\n      dup2\n      mstore\n      0x20\n      add\n      0x04\n      dup3\n      add\n      sload\n      dup2\n      mstore\n      0x20\n      add\n      0x05\n      dup3\n      add\n      dup1\n      sload\n      dup1\n      0x20\n      mul\n      0x20\n      add\n      mload(0x40)\n      swap1\n      dup2\n      add\n      0x40\n      mstore\n      dup1\n      swap3\n      swap2\n      swap1\n      dup2\n      dup2\n      mstore\n      0x20\n      add\n      0x00\n      swap1\n    tag_336:\n      dup3\n      dup3\n      lt\n      iszero\n      tag_337\n      jumpi\n      dup4\n      dup3\n      swap1\n      0x00\n      mstore\n      keccak256(0x00, 0x20)\n      swap1\n      0x02\n      mul\n      add\n      mload(0x40)\n      dup1\n      0x60\n      add\n      0x40\n      mstore\n      swap1\n      dup2\n      0x00\n      dup3\n      add\n      dup1\n      sload\n      tag_339\n      swap1\n      tag_78\n      jump\t// in\n    tag_339:\n      dup1\n      0x1f\n      add\n      0x20\n      dup1\n      swap2\n      div\n      mul\n      0x20\n      add\n      mload(0x40)\n      swap1\n      dup2\n      add\n      0x40\n      mstore\n      dup1\n      swap3\n      swap2\n      swap1\n      dup2\n      dup2\n      mstore\n      0x20\n      add\n      dup3\n      dup1\n      sload\n      tag_340\n      swap1\n      tag_78\n      jump\t// in\n    tag_340:\n      dup1\n      iszero\n      tag_341\n      jumpi\n      dup1\n      0x1f\n      lt\n      tag_342\n      jumpi\n      0x0100\n      dup1\n      dup4\n      sload\n      div\n      mul\n      dup4\n      mstore\n      swap2\n      0x20\n      add\n      swap2\n      jump(tag_341)\n    tag_342:\n      dup3\n      add\n      swap2\n      swap1\n      0x00\n      mstore\n      keccak256(0x00, 0x20)\n      swap1\n    tag_343:\n      dup2\n      sload\n      dup2\n      mstore\n      swap1\n      0x01\n      add\n      swap1\n      0x20\n      add\n      dup1\n      dup4\n      gt\n      tag_343\n      jumpi\n      dup3\n      swap1\n      sub\n      0x1f\n      and\n      dup3\n      add\n      swap2\n    tag_341:\n      pop\n      pop\n      pop\n      pop\n      pop\n      dup2\n      mstore\n      0x20\n      add\n      0x01\n      dup3\n      add\n      0x00\n      swap1\n      sload\n      swap1\n      0x0100\n      exp\n      swap1\n      div\n      0xffffffffffffffffffffffffffffffffffffffff\n      and\n      0xffffffffffffffffffffffffffffffffffffffff\n      and\n      0xffffffffffffffffffffffffffffffffffffffff\n      and\n      dup2\n      mstore\n      0x20\n      add\n      0x01\n      dup3\n      add\n      0x14\n      swap1\n      sload\n      swap1\n      0x0100\n      exp\n      swap1\n      div\n      0xff\n      and\n      iszero\n      iszero\n      iszero\n      iszero\n      dup2\n      mstore\n      pop\n      pop\n      dup2\n      mstore\n      0x20\n      add\n      swap1\n      0x01\n      add\n      swap1\n      jump(tag_336)\n    tag_337:\n      pop\n      pop\n      pop\n      pop\n      dup2\n      mstore\n      pop\n      pop\n      dup2\n      mstore\n      0x20\n      add\n      swap1\n      0x01\n      add\n      swap1\n      jump(tag_318)\n    tag_319:\n      pop\n      pop\n      pop\n      pop\n      swap1\n      pop\n      jump(tag_316)\n        /* \"Contract.sol\":1960:2092  if (request == true) {... */\n    tag_317:\n        /* \"Contract.sol\":2066:2080  arrayOfMembers */\n      0x05\n        /* \"Contract.sol\":2059:2080  return arrayOfMembers */\n      dup1\n      sload\n      dup1\n      0x20\n      mul\n      0x20\n      add\n      mload(0x40)\n      swap1\n      dup2\n      add\n      0x40\n      mstore\n      dup1\n      swap3\n      swap2\n      swap1\n      dup2\n      dup2\n      mstore\n      0x20\n      add\n      0x00\n      swap1\n    tag_345:\n      dup3\n      dup3\n      lt\n      iszero\n      tag_346\n      jumpi\n      dup4\n      dup3\n      swap1\n      0x00\n      mstore\n      keccak256(0x00, 0x20)\n      swap1\n      0x06\n      mul\n      add\n      mload(0x40)\n      dup1\n      0xc0\n      add\n      0x40\n      mstore\n      swap1\n      dup2\n      0x00\n      dup3\n      add\n      dup1\n      sload\n      tag_348\n      swap1\n      tag_78\n      jump\t// in\n    tag_348:\n      dup1\n      0x1f\n      add\n      0x20\n      dup1\n      swap2\n      div\n      mul\n      0x20\n      add\n      mload(0x40)\n      swap1\n      dup2\n      add\n      0x40\n      mstore\n      dup1\n      swap3\n      swap2\n      swap1\n      dup2\n      dup2\n      mstore\n      0x20\n      add\n      dup3\n      dup1\n      sload\n      tag_349\n      swap1\n      tag_78\n      jump\t// in\n    tag_349:\n      dup1\n      iszero\n      tag_350\n      jumpi\n      dup1\n      0x1f\n      lt\n      tag_351\n      jumpi\n      0x0100\n      dup1\n      dup4\n      sload\n      div\n      mul\n      dup4\n      mstore\n      swap2\n      0x20\n      add\n      swap2\n      jump(tag_350)\n    tag_351:\n      dup3\n      add\n      swap2\n      swap1\n      0x00\n      mstore\n      keccak256(0x00, 0x20)\n      swap1\n    tag_352:\n      dup2\n      sload\n      dup2\n      mstore\n      swap1\n      0x01\n      add\n      swap1\n      0x20\n      add\n      dup1\n      dup4\n      gt\n      tag_352\n      jumpi\n      dup3\n      swap1\n      sub\n      0x1f\n      and\n      dup3\n      add\n      swap2\n    tag_350:\n      pop\n      pop\n      pop\n      pop\n      pop\n      dup2\n      mstore\n      0x20\n      add\n      0x01\n      dup3\n      add\n      dup1\n      sload\n      tag_353\n      swap1\n      tag_78\n      jump\t// in\n    tag_353:\n      dup1\n      0x1f\n      add\n      0x20\n      dup1\n      swap2\n      div\n      mul\n      0x20\n      add\n      mload(0x40)\n      swap1\n      dup2\n      add\n      0x40\n      mstore\n      dup1\n      swap3\n      swap2\n      swap1\n      dup2\n      dup2\n      mstore\n      0x20\n      add\n      dup3\n      dup1\n      sload\n      tag_354\n      swap1\n      tag_78\n      jump\t// in\n    tag_354:\n      dup1\n      iszero\n      tag_355\n      jumpi\n      dup1\n      0x1f\n      lt\n      tag_356\n      jumpi\n      0x0100\n      dup1\n      dup4\n      sload\n      div\n      mul\n      dup4\n      mstore\n      swap2\n      0x20\n      add\n      swap2\n      jump(tag_355)\n    tag_356:\n      dup3\n      add\n      swap2\n      swap1\n      0x00\n      mstore\n      keccak256(0x00, 0x20)\n      swap1\n    tag_357:\n      dup2\n      sload\n      dup2\n      mstore\n      swap1\n      0x01\n      add\n      swap1\n      0x20\n      add\n      dup1\n      dup4\n      gt\n      tag_357\n      jumpi\n      dup3\n      swap1\n      sub\n      0x1f\n      and\n      dup3\n      add\n      swap2\n    tag_355:\n      pop\n      pop\n      pop\n      pop\n      pop\n      dup2\n      mstore\n      0x20\n      add\n      0x02\n      dup3\n      add\n      dup1\n      sload\n      tag_358\n      swap1\n      tag_78\n      jump\t// in\n    tag_358:\n      dup1\n      0x1f\n      add\n      0x20\n      dup1\n      swap2\n      div\n      mul\n      0x20\n      add\n      mload(0x40)\n      swap1\n      dup2\n      add\n      0x40\n      mstore\n      dup1\n      swap3\n      swap2\n      swap1\n      dup2\n      dup2\n      mstore\n      0x20\n      add\n      dup3\n      dup1\n      sload\n      tag_359\n      swap1\n      tag_78\n      jump\t// in\n    tag_359:\n      dup1\n      iszero\n      tag_360\n      jumpi\n      dup1\n      0x1f\n      lt\n      tag_361\n      jumpi\n      0x0100\n      dup1\n      dup4\n      sload\n      div\n      mul\n      dup4\n      mstore\n      swap2\n      0x20\n      add\n      swap2\n      jump(tag_360)\n    tag_361:\n      dup3\n      add\n      swap2\n      swap1\n      0x00\n      mstore\n      keccak256(0x00, 0x20)\n      swap1\n    tag_362:\n      dup2\n      sload\n      dup2\n      mstore\n      swap1\n      0x01\n      add\n      swap1\n      0x20\n      add\n      dup1\n      dup4\n      gt\n      tag_362\n      jumpi\n      dup3\n      swap1\n      sub\n      0x1f\n      and\n      dup3\n      add\n      swap2\n    tag_360:\n      pop\n      pop\n      pop\n      pop\n      pop\n      dup2\n      mstore\n      0x20\n      add\n      0x03\n      dup3\n      add\n      0x00\n      swap1\n      sload\n      swap1\n      0x0100\n      exp\n      swap1\n      div\n      0xffffffffffffffffffffffffffffffffffffffff\n      and\n      0xffffffffffffffffffffffffffffffffffffffff\n      and\n      0xffffffffffffffffffffffffffffffffffffffff\n      and\n      dup2\n      mstore\n      0x20\n      add\n      0x04\n      dup3\n      add\n      sload\n      dup2\n      mstore\n      0x20\n      add\n      0x05\n      dup3\n      add\n      dup1\n      sload\n      dup1\n      0x20\n      mul\n      0x20\n      add\n      mload(0x40)\n      swap1\n      dup2\n      add\n      0x40\n      mstore\n      dup1\n      swap3\n      swap2\n      swap1\n      dup2\n      dup2\n      mstore\n      0x20\n      add\n      0x00\n      swap1\n    tag_363:\n      dup3\n      dup3\n      lt\n      iszero\n      tag_364\n      jumpi\n      dup4\n      dup3\n      swap1\n      0x00\n      mstore\n      keccak256(0x00, 0x20)\n      swap1\n      0x02\n      mul\n      add\n      mload(0x40)\n      dup1\n      0x60\n      add\n      0x40\n      mstore\n      swap1\n      dup2\n      0x00\n      dup3\n      add\n      dup1\n      sload\n      tag_366\n      swap1\n      tag_78\n      jump\t// in\n    tag_366:\n      dup1\n      0x1f\n      add\n      0x20\n      dup1\n      swap2\n      div\n      mul\n      0x20\n      add\n      mload(0x40)\n      swap1\n      dup2\n      add\n      0x40\n      mstore\n      dup1\n      swap3\n      swap2\n      swap1\n      dup2\n      dup2\n      mstore\n      0x20\n      add\n      dup3\n      dup1\n      sload\n      tag_367\n      swap1\n      tag_78\n      jump\t// in\n    tag_367:\n      dup1\n      iszero\n      tag_368\n      jumpi\n      dup1\n      0x1f\n      lt\n      tag_369\n      jumpi\n      0x0100\n      dup1\n      dup4\n      sload\n      div\n      mul\n      dup4\n      mstore\n      swap2\n      0x20\n      add\n      swap2\n      jump(tag_368)\n    tag_369:\n      dup3\n      add\n      swap2\n      swap1\n      0x00\n      mstore\n      keccak256(0x00, 0x20)\n      swap1\n    tag_370:\n      dup2\n      sload\n      dup2\n      mstore\n      swap1\n      0x01\n      add\n      swap1\n      0x20\n      add\n      dup1\n      dup4\n      gt\n      tag_370\n      jumpi\n      dup3\n      swap1\n      sub\n      0x1f\n      and\n      dup3\n      add\n      swap2\n    tag_368:\n      pop\n      pop\n      pop\n      pop\n      pop\n      dup2\n      mstore\n      0x20\n      add\n      0x01\n      dup3\n      add\n      0x00\n      swap1\n      sload\n      swap1\n      0x0100\n      exp\n      swap1\n      div\n      0xffffffffffffffffffffffffffffffffffffffff\n      and\n      0xffffffffffffffffffffffffffffffffffffffff\n      and\n      0xffffffffffffffffffffffffffffffffffffffff\n      and\n      dup2\n      mstore\n      0x20\n      add\n      0x01\n      dup3\n      add\n      0x14\n      swap1\n      sload\n      swap1\n      0x0100\n      exp\n      swap1\n      div\n      0xff\n      and\n      iszero\n      iszero\n      iszero\n      iszero\n      dup2\n      mstore\n      pop\n      pop\n      dup2\n      mstore\n      0x20\n      add\n      swap1\n      0x01\n      add\n      swap1\n      jump(tag_363)\n    tag_364:\n      pop\n      pop\n      pop\n      pop\n      dup2\n      mstore\n      pop\n      pop\n      dup2\n      mstore\n      0x20\n      add\n      swap1\n      0x01\n      add\n      swap1\n      jump(tag_345)\n    tag_346:\n      pop\n      pop\n      pop\n      pop\n      swap1\n      pop\n        /* \"Contract.sol\":1821:2099  function getApprovedOrRequestedMember(bool request)... */\n    tag_316:\n      swap2\n      swap1\n      pop\n      jump\t// out\n    tag_155:\n      dup3\n      dup1\n      sload\n      dup3\n      dup3\n      sstore\n      swap1\n      0x00\n      mstore\n      keccak256(0x00, 0x20)\n      swap1\n      0x02\n      mul\n      dup2\n      add\n      swap3\n      dup3\n      iszero\n      tag_371\n      jumpi\n      0x00\n      mstore\n      keccak256(0x00, 0x20)\n      swap2\n      0x02\n      mul\n      dup3\n      add\n    tag_372:\n      dup3\n      dup2\n      gt\n      iszero\n      tag_373\n      jumpi\n      dup3\n      dup3\n      0x00\n      dup3\n      add\n      dup2\n      0x00\n      add\n      swap1\n      dup2\n      tag_374\n      swap2\n      swap1\n      tag_109\n      jump\t// in\n    tag_374:\n      pop\n      0x01\n      dup3\n      add\n      0x00\n      swap1\n      sload\n      swap1\n      0x0100\n      exp\n      swap1\n      div\n      0xffffffffffffffffffffffffffffffffffffffff\n      and\n      dup2\n      0x01\n      add\n      exp(0x0100, 0x00)\n      dup2\n      sload\n      dup2\n      0xffffffffffffffffffffffffffffffffffffffff\n      mul\n      not\n      and\n      swap1\n      dup4\n      0xffffffffffffffffffffffffffffffffffffffff\n      and\n      mul\n      or\n      swap1\n      sstore\n      pop\n      0x01\n      dup3\n      add\n      0x14\n      swap1\n      sload\n      swap1\n      0x0100\n      exp\n      swap1\n      div\n      0xff\n      and\n      dup2\n      0x01\n      add\n      exp(0x0100, 0x14)\n      dup2\n      sload\n      dup2\n      0xff\n      mul\n      not\n      and\n      swap1\n      dup4\n      iszero\n      iszero\n      mul\n      or\n      swap1\n      sstore\n      pop\n      pop\n      pop\n      swap2\n      0x02\n      add\n      swap2\n      swap1\n      0x02\n      add\n      swap1\n      jump(tag_372)\n    tag_373:\n    tag_371:\n      pop\n      swap1\n      pop\n      tag_375\n      swap2\n      swap1\n      tag_376\n      jump\t// in\n    tag_375:\n      pop\n      swap1\n      jump\t// out\n    tag_192:\n      mload(0x40)\n      dup1\n      0xc0\n      add\n      0x40\n      mstore\n      dup1\n      0x60\n      dup2\n      mstore\n      0x20\n      add\n      0x60\n      dup2\n      mstore\n      0x20\n      add\n      0x60\n      dup2\n      mstore\n      0x20\n      add\n      and(0xffffffffffffffffffffffffffffffffffffffff, 0x00)\n      dup2\n      mstore\n      0x20\n      add\n      0x00\n      dup2\n      mstore\n      0x20\n      add\n      0x60\n      dup2\n      mstore\n      pop\n      swap1\n      jump\t// out\n    tag_311:\n      pop\n      dup1\n      sload\n      tag_377\n      swap1\n      tag_78\n      jump\t// in\n    tag_377:\n      0x00\n      dup3\n      sstore\n      dup1\n      0x1f\n      lt\n      tag_379\n      jumpi\n      pop\n      jump(tag_378)\n    tag_379:\n      0x1f\n      add\n      0x20\n      swap1\n      div\n      swap1\n      0x00\n      mstore\n      keccak256(0x00, 0x20)\n      swap1\n      dup2\n      add\n      swap1\n      tag_380\n      swap2\n      swap1\n      tag_381\n      jump\t// in\n    tag_380:\n    tag_378:\n      pop\n      jump\t// out\n    tag_315:\n      pop\n      dup1\n      sload\n      0x00\n      dup3\n      sstore\n      0x02\n      mul\n      swap1\n      0x00\n      mstore\n      keccak256(0x00, 0x20)\n      swap1\n      dup2\n      add\n      swap1\n      tag_383\n      swap2\n      swap1\n      tag_376\n      jump\t// in\n    tag_383:\n      pop\n      jump\t// out\n    tag_376:\n    tag_384:\n      dup1\n      dup3\n      gt\n      iszero\n      tag_385\n      jumpi\n      0x00\n      dup1\n      dup3\n      add\n      0x00\n      tag_386\n      swap2\n      swap1\n      tag_311\n      jump\t// in\n    tag_386:\n      0x01\n      dup3\n      add\n      exp(0x0100, 0x00)\n      dup2\n      sload\n      swap1\n      0xffffffffffffffffffffffffffffffffffffffff\n      mul\n      not\n      and\n      swap1\n      sstore\n      0x01\n      dup3\n      add\n      exp(0x0100, 0x14)\n      dup2\n      sload\n      swap1\n      0xff\n      mul\n      not\n      and\n      swap1\n      sstore\n      pop\n      0x02\n      add\n      jump(tag_384)\n    tag_385:\n      pop\n      swap1\n      jump\t// out\n    tag_381:\n    tag_387:\n      dup1\n      dup3\n      gt\n      iszero\n      tag_388\n      jumpi\n      0x00\n      dup2\n      0x00\n      swap1\n      sstore\n      pop\n      0x01\n      add\n      jump(tag_387)\n    tag_388:\n      pop\n      swap1\n      jump\t// out\n        /* \"#utility.yul\":7:82   */\n    tag_389:\n        /* \"#utility.yul\":40:46   */\n      0x00\n        /* \"#utility.yul\":73:75   */\n      0x40\n        /* \"#utility.yul\":67:76   */\n      mload\n        /* \"#utility.yul\":57:76   */\n      swap1\n      pop\n        /* \"#utility.yul\":7:82   */\n      swap1\n      jump\t// out\n        /* \"#utility.yul\":88:205   */\n    tag_390:\n        /* \"#utility.yul\":197:198   */\n      0x00\n        /* \"#utility.yul\":194:195   */\n      dup1\n        /* \"#utility.yul\":187:199   */\n      revert\n        /* \"#utility.yul\":211:328   */\n    tag_391:\n        /* \"#utility.yul\":320:321   */\n      0x00\n        /* \"#utility.yul\":317:318   */\n      dup1\n        /* \"#utility.yul\":310:322   */\n      revert\n        /* \"#utility.yul\":334:424   */\n    tag_392:\n        /* \"#utility.yul\":368:375   */\n      0x00\n        /* \"#utility.yul\":411:416   */\n      dup2\n        /* \"#utility.yul\":404:417   */\n      iszero\n        /* \"#utility.yul\":397:418   */\n      iszero\n        /* \"#utility.yul\":386:418   */\n      swap1\n      pop\n        /* \"#utility.yul\":334:424   */\n      swap2\n      swap1\n      pop\n      jump\t// out\n        /* \"#utility.yul\":430:546   */\n    tag_393:\n        /* \"#utility.yul\":500:521   */\n      tag_478\n        /* \"#utility.yul\":515:520   */\n      dup2\n        /* \"#utility.yul\":500:521   */\n      tag_392\n      jump\t// in\n    tag_478:\n        /* \"#utility.yul\":493:498   */\n      dup2\n        /* \"#utility.yul\":490:522   */\n      eq\n        /* \"#utility.yul\":480:540   */\n      tag_479\n      jumpi\n        /* \"#utility.yul\":536:537   */\n      0x00\n        /* \"#utility.yul\":533:534   */\n      dup1\n        /* \"#utility.yul\":526:538   */\n      revert\n        /* \"#utility.yul\":480:540   */\n    tag_479:\n        /* \"#utility.yul\":430:546   */\n      pop\n      jump\t// out\n        /* \"#utility.yul\":552:685   */\n    tag_394:\n        /* \"#utility.yul\":595:600   */\n      0x00\n        /* \"#utility.yul\":633:639   */\n      dup2\n        /* \"#utility.yul\":620:640   */\n      calldataload\n        /* \"#utility.yul\":611:640   */\n      swap1\n      pop\n        /* \"#utility.yul\":649:679   */\n      tag_481\n        /* \"#utility.yul\":673:678   */\n      dup2\n        /* \"#utility.yul\":649:679   */\n      tag_393\n      jump\t// in\n    tag_481:\n        /* \"#utility.yul\":552:685   */\n      swap3\n      swap2\n      pop\n      pop\n      jump\t// out\n        /* \"#utility.yul\":691:1014   */\n    tag_17:\n        /* \"#utility.yul\":747:753   */\n      0x00\n        /* \"#utility.yul\":796:798   */\n      0x20\n        /* \"#utility.yul\":784:793   */\n      dup3\n        /* \"#utility.yul\":775:782   */\n      dup5\n        /* \"#utility.yul\":771:794   */\n      sub\n        /* \"#utility.yul\":767:799   */\n      slt\n        /* \"#utility.yul\":764:883   */\n      iszero\n      tag_483\n      jumpi\n        /* \"#utility.yul\":802:881   */\n      tag_484\n      tag_390\n      jump\t// in\n    tag_484:\n        /* \"#utility.yul\":764:883   */\n    tag_483:\n        /* \"#utility.yul\":922:923   */\n      0x00\n        /* \"#utility.yul\":947:997   */\n      tag_485\n        /* \"#utility.yul\":989:996   */\n      dup5\n        /* \"#utility.yul\":980:986   */\n      dup3\n        /* \"#utility.yul\":969:978   */\n      dup6\n        /* \"#utility.yul\":965:987   */\n      add\n        /* \"#utility.yul\":947:997   */\n      tag_394\n      jump\t// in\n    tag_485:\n        /* \"#utility.yul\":937:997   */\n      swap2\n      pop\n        /* \"#utility.yul\":893:1007   */\n      pop\n        /* \"#utility.yul\":691:1014   */\n      swap3\n      swap2\n      pop\n      pop\n      jump\t// out\n        /* \"#utility.yul\":1020:1164   */\n    tag_395:\n        /* \"#utility.yul\":1117:1123   */\n      0x00\n        /* \"#utility.yul\":1151:1156   */\n      dup2\n        /* \"#utility.yul\":1145:1157   */\n      mload\n        /* \"#utility.yul\":1135:1157   */\n      swap1\n      pop\n        /* \"#utility.yul\":1020:1164   */\n      swap2\n      swap1\n      pop\n      jump\t// out\n        /* \"#utility.yul\":1170:1384   */\n    tag_396:\n        /* \"#utility.yul\":1299:1310   */\n      0x00\n        /* \"#utility.yul\":1333:1339   */\n      dup3\n        /* \"#utility.yul\":1328:1331   */\n      dup3\n        /* \"#utility.yul\":1321:1340   */\n      mstore\n        /* \"#utility.yul\":1373:1377   */\n      0x20\n        /* \"#utility.yul\":1368:1371   */\n      dup3\n        /* \"#utility.yul\":1364:1378   */\n      add\n        /* \"#utility.yul\":1349:1378   */\n      swap1\n      pop\n        /* \"#utility.yul\":1170:1384   */\n      swap3\n      swap2\n      pop\n      pop\n      jump\t// out\n        /* \"#utility.yul\":1390:1552   */\n    tag_397:\n        /* \"#utility.yul\":1487:1491   */\n      0x00\n        /* \"#utility.yul\":1510:1513   */\n      dup2\n        /* \"#utility.yul\":1502:1513   */\n      swap1\n      pop\n        /* \"#utility.yul\":1540:1544   */\n      0x20\n        /* \"#utility.yul\":1535:1538   */\n      dup3\n        /* \"#utility.yul\":1531:1545   */\n      add\n        /* \"#utility.yul\":1523:1545   */\n      swap1\n      pop\n        /* \"#utility.yul\":1390:1552   */\n      swap2\n      swap1\n      pop\n      jump\t// out\n        /* \"#utility.yul\":1558:1657   */\n    tag_398:\n        /* \"#utility.yul\":1610:1616   */\n      0x00\n        /* \"#utility.yul\":1644:1649   */\n      dup2\n        /* \"#utility.yul\":1638:1650   */\n      mload\n        /* \"#utility.yul\":1628:1650   */\n      swap1\n      pop\n        /* \"#utility.yul\":1558:1657   */\n      swap2\n      swap1\n      pop\n      jump\t// out\n        /* \"#utility.yul\":1663:1822   */\n    tag_399:\n        /* \"#utility.yul\":1737:1748   */\n      0x00\n        /* \"#utility.yul\":1771:1777   */\n      dup3\n        /* \"#utility.yul\":1766:1769   */\n      dup3\n        /* \"#utility.yul\":1759:1778   */\n      mstore\n        /* \"#utility.yul\":1811:1815   */\n      0x20\n        /* \"#utility.yul\":1806:1809   */\n      dup3\n        /* \"#utility.yul\":1802:1816   */\n      add\n        /* \"#utility.yul\":1787:1816   */\n      swap1\n      pop\n        /* \"#utility.yul\":1663:1822   */\n      swap3\n      swap2\n      pop\n      pop\n      jump\t// out\n        /* \"#utility.yul\":1828:2074   */\n    tag_400:\n        /* \"#utility.yul\":1909:1910   */\n      0x00\n        /* \"#utility.yul\":1919:2032   */\n    tag_492:\n        /* \"#utility.yul\":1933:1939   */\n      dup4\n        /* \"#utility.yul\":1930:1931   */\n      dup2\n        /* \"#utility.yul\":1927:1940   */\n      lt\n        /* \"#utility.yul\":1919:2032   */\n      iszero\n      tag_494\n      jumpi\n        /* \"#utility.yul\":2018:2019   */\n      dup1\n        /* \"#utility.yul\":2013:2016   */\n      dup3\n        /* \"#utility.yul\":2009:2020   */\n      add\n        /* \"#utility.yul\":2003:2021   */\n      mload\n        /* \"#utility.yul\":1999:2000   */\n      dup2\n        /* \"#utility.yul\":1994:1997   */\n      dup5\n        /* \"#utility.yul\":1990:2001   */\n      add\n        /* \"#utility.yul\":1983:2022   */\n      mstore\n        /* \"#utility.yul\":1955:1957   */\n      0x20\n        /* \"#utility.yul\":1952:1953   */\n      dup2\n        /* \"#utility.yul\":1948:1958   */\n      add\n        /* \"#utility.yul\":1943:1958   */\n      swap1\n      pop\n        /* \"#utility.yul\":1919:2032   */\n      jump(tag_492)\n    tag_494:\n        /* \"#utility.yul\":2066:2067   */\n      0x00\n        /* \"#utility.yul\":2057:2063   */\n      dup5\n        /* \"#utility.yul\":2052:2055   */\n      dup5\n        /* \"#utility.yul\":2048:2064   */\n      add\n        /* \"#utility.yul\":2041:2068   */\n      mstore\n        /* \"#utility.yul\":1890:2074   */\n      pop\n        /* \"#utility.yul\":1828:2074   */\n      pop\n      pop\n      pop\n      jump\t// out\n        /* \"#utility.yul\":2080:2182   */\n    tag_401:\n        /* \"#utility.yul\":2121:2127   */\n      0x00\n        /* \"#utility.yul\":2172:2174   */\n      0x1f\n        /* \"#utility.yul\":2168:2175   */\n      not\n        /* \"#utility.yul\":2163:2165   */\n      0x1f\n        /* \"#utility.yul\":2156:2161   */\n      dup4\n        /* \"#utility.yul\":2152:2166   */\n      add\n        /* \"#utility.yul\":2148:2176   */\n      and\n        /* \"#utility.yul\":2138:2176   */\n      swap1\n      pop\n        /* \"#utility.yul\":2080:2182   */\n      swap2\n      swap1\n      pop\n      jump\t// out\n        /* \"#utility.yul\":2188:2545   */\n    tag_402:\n        /* \"#utility.yul\":2266:2269   */\n      0x00\n        /* \"#utility.yul\":2294:2333   */\n      tag_497\n        /* \"#utility.yul\":2327:2332   */\n      dup3\n        /* \"#utility.yul\":2294:2333   */\n      tag_398\n      jump\t// in\n    tag_497:\n        /* \"#utility.yul\":2349:2410   */\n      tag_498\n        /* \"#utility.yul\":2403:2409   */\n      dup2\n        /* \"#utility.yul\":2398:2401   */\n      dup6\n        /* \"#utility.yul\":2349:2410   */\n      tag_399\n      jump\t// in\n    tag_498:\n        /* \"#utility.yul\":2342:2410   */\n      swap4\n      pop\n        /* \"#utility.yul\":2419:2484   */\n      tag_499\n        /* \"#utility.yul\":2477:2483   */\n      dup2\n        /* \"#utility.yul\":2472:2475   */\n      dup6\n        /* \"#utility.yul\":2465:2469   */\n      0x20\n        /* \"#utility.yul\":2458:2463   */\n      dup7\n        /* \"#utility.yul\":2454:2470   */\n      add\n        /* \"#utility.yul\":2419:2484   */\n      tag_400\n      jump\t// in\n    tag_499:\n        /* \"#utility.yul\":2509:2538   */\n      tag_500\n        /* \"#utility.yul\":2531:2537   */\n      dup2\n        /* \"#utility.yul\":2509:2538   */\n      tag_401\n      jump\t// in\n    tag_500:\n        /* \"#utility.yul\":2504:2507   */\n      dup5\n        /* \"#utility.yul\":2500:2539   */\n      add\n        /* \"#utility.yul\":2493:2539   */\n      swap2\n      pop\n        /* \"#utility.yul\":2270:2545   */\n      pop\n        /* \"#utility.yul\":2188:2545   */\n      swap3\n      swap2\n      pop\n      pop\n      jump\t// out\n        /* \"#utility.yul\":2551:2677   */\n    tag_403:\n        /* \"#utility.yul\":2588:2595   */\n      0x00\n        /* \"#utility.yul\":2628:2670   */\n      0xffffffffffffffffffffffffffffffffffffffff\n        /* \"#utility.yul\":2621:2626   */\n      dup3\n        /* \"#utility.yul\":2617:2671   */\n      and\n        /* \"#utility.yul\":2606:2671   */\n      swap1\n      pop\n        /* \"#utility.yul\":2551:2677   */\n      swap2\n      swap1\n      pop\n      jump\t// out\n        /* \"#utility.yul\":2683:2779   */\n    tag_404:\n        /* \"#utility.yul\":2720:2727   */\n      0x00\n        /* \"#utility.yul\":2749:2773   */\n      tag_503\n        /* \"#utility.yul\":2767:2772   */\n      dup3\n        /* \"#utility.yul\":2749:2773   */\n      tag_403\n      jump\t// in\n    tag_503:\n        /* \"#utility.yul\":2738:2773   */\n      swap1\n      pop\n        /* \"#utility.yul\":2683:2779   */\n      swap2\n      swap1\n      pop\n      jump\t// out\n        /* \"#utility.yul\":2785:2893   */\n    tag_405:\n        /* \"#utility.yul\":2862:2886   */\n      tag_505\n        /* \"#utility.yul\":2880:2885   */\n      dup2\n        /* \"#utility.yul\":2862:2886   */\n      tag_404\n      jump\t// in\n    tag_505:\n        /* \"#utility.yul\":2857:2860   */\n      dup3\n        /* \"#utility.yul\":2850:2887   */\n      mstore\n        /* \"#utility.yul\":2785:2893   */\n      pop\n      pop\n      jump\t// out\n        /* \"#utility.yul\":2899:2998   */\n    tag_406:\n        /* \"#utility.yul\":2970:2991   */\n      tag_507\n        /* \"#utility.yul\":2985:2990   */\n      dup2\n        /* \"#utility.yul\":2970:2991   */\n      tag_392\n      jump\t// in\n    tag_507:\n        /* \"#utility.yul\":2965:2968   */\n      dup3\n        /* \"#utility.yul\":2958:2992   */\n      mstore\n        /* \"#utility.yul\":2899:2998   */\n      pop\n      pop\n      jump\t// out\n        /* \"#utility.yul\":3074:3864   */\n    tag_407:\n        /* \"#utility.yul\":3193:3196   */\n      0x00\n        /* \"#utility.yul\":3229:3233   */\n      0x60\n        /* \"#utility.yul\":3224:3227   */\n      dup4\n        /* \"#utility.yul\":3220:3234   */\n      add\n        /* \"#utility.yul\":3320:3324   */\n      0x00\n        /* \"#utility.yul\":3313:3318   */\n      dup4\n        /* \"#utility.yul\":3309:3325   */\n      add\n        /* \"#utility.yul\":3303:3326   */\n      mload\n        /* \"#utility.yul\":3373:3376   */\n      dup5\n        /* \"#utility.yul\":3367:3371   */\n      dup3\n        /* \"#utility.yul\":3363:3377   */\n      sub\n        /* \"#utility.yul\":3356:3360   */\n      0x00\n        /* \"#utility.yul\":3351:3354   */\n      dup7\n        /* \"#utility.yul\":3347:3361   */\n      add\n        /* \"#utility.yul\":3340:3378   */\n      mstore\n        /* \"#utility.yul\":3399:3472   */\n      tag_509\n        /* \"#utility.yul\":3467:3471   */\n      dup3\n        /* \"#utility.yul\":3453:3465   */\n      dup3\n        /* \"#utility.yul\":3399:3472   */\n      tag_402\n      jump\t// in\n    tag_509:\n        /* \"#utility.yul\":3391:3472   */\n      swap2\n      pop\n        /* \"#utility.yul\":3244:3483   */\n      pop\n        /* \"#utility.yul\":3572:3576   */\n      0x20\n        /* \"#utility.yul\":3565:3570   */\n      dup4\n        /* \"#utility.yul\":3561:3577   */\n      add\n        /* \"#utility.yul\":3555:3578   */\n      mload\n        /* \"#utility.yul\":3591:3654   */\n      tag_510\n        /* \"#utility.yul\":3648:3652   */\n      0x20\n        /* \"#utility.yul\":3643:3646   */\n      dup7\n        /* \"#utility.yul\":3639:3653   */\n      add\n        /* \"#utility.yul\":3625:3637   */\n      dup3\n        /* \"#utility.yul\":3591:3654   */\n      tag_405\n      jump\t// in\n    tag_510:\n        /* \"#utility.yul\":3493:3664   */\n      pop\n        /* \"#utility.yul\":3751:3755   */\n      0x40\n        /* \"#utility.yul\":3744:3749   */\n      dup4\n        /* \"#utility.yul\":3740:3756   */\n      add\n        /* \"#utility.yul\":3734:3757   */\n      mload\n        /* \"#utility.yul\":3770:3827   */\n      tag_511\n        /* \"#utility.yul\":3821:3825   */\n      0x40\n        /* \"#utility.yul\":3816:3819   */\n      dup7\n        /* \"#utility.yul\":3812:3826   */\n      add\n        /* \"#utility.yul\":3798:3810   */\n      dup3\n        /* \"#utility.yul\":3770:3827   */\n      tag_406\n      jump\t// in\n    tag_511:\n        /* \"#utility.yul\":3674:3837   */\n      pop\n        /* \"#utility.yul\":3854:3858   */\n      dup1\n        /* \"#utility.yul\":3847:3858   */\n      swap2\n      pop\n        /* \"#utility.yul\":3198:3864   */\n      pop\n        /* \"#utility.yul\":3074:3864   */\n      swap3\n      swap2\n      pop\n      pop\n      jump\t// out\n        /* \"#utility.yul\":3870:4146   */\n    tag_408:\n        /* \"#utility.yul\":3999:4009   */\n      0x00\n        /* \"#utility.yul\":4034:4140   */\n      tag_513\n        /* \"#utility.yul\":4136:4139   */\n      dup4\n        /* \"#utility.yul\":4128:4134   */\n      dup4\n        /* \"#utility.yul\":4034:4140   */\n      tag_407\n      jump\t// in\n    tag_513:\n        /* \"#utility.yul\":4020:4140   */\n      swap1\n      pop\n        /* \"#utility.yul\":3870:4146   */\n      swap3\n      swap2\n      pop\n      pop\n      jump\t// out\n        /* \"#utility.yul\":4152:4295   */\n    tag_409:\n        /* \"#utility.yul\":4252:4256   */\n      0x00\n        /* \"#utility.yul\":4284:4288   */\n      0x20\n        /* \"#utility.yul\":4279:4282   */\n      dup3\n        /* \"#utility.yul\":4275:4289   */\n      add\n        /* \"#utility.yul\":4267:4289   */\n      swap1\n      pop\n        /* \"#utility.yul\":4152:4295   */\n      swap2\n      swap1\n      pop\n      jump\t// out\n        /* \"#utility.yul\":4375:5526   */\n    tag_410:\n        /* \"#utility.yul\":4554:4557   */\n      0x00\n        /* \"#utility.yul\":4583:4667   */\n      tag_516\n        /* \"#utility.yul\":4661:4666   */\n      dup3\n        /* \"#utility.yul\":4583:4667   */\n      tag_395\n      jump\t// in\n    tag_516:\n        /* \"#utility.yul\":4683:4799   */\n      tag_517\n        /* \"#utility.yul\":4792:4798   */\n      dup2\n        /* \"#utility.yul\":4787:4790   */\n      dup6\n        /* \"#utility.yul\":4683:4799   */\n      tag_396\n      jump\t// in\n    tag_517:\n        /* \"#utility.yul\":4676:4799   */\n      swap4\n      pop\n        /* \"#utility.yul\":4825:4828   */\n      dup4\n        /* \"#utility.yul\":4870:4874   */\n      0x20\n        /* \"#utility.yul\":4862:4868   */\n      dup3\n        /* \"#utility.yul\":4858:4875   */\n      mul\n        /* \"#utility.yul\":4853:4856   */\n      dup6\n        /* \"#utility.yul\":4849:4876   */\n      add\n        /* \"#utility.yul\":4900:4986   */\n      tag_518\n        /* \"#utility.yul\":4980:4985   */\n      dup6\n        /* \"#utility.yul\":4900:4986   */\n      tag_397\n      jump\t// in\n    tag_518:\n        /* \"#utility.yul\":5009:5016   */\n      dup1\n        /* \"#utility.yul\":5040:5041   */\n      0x00\n        /* \"#utility.yul\":5025:5481   */\n    tag_519:\n        /* \"#utility.yul\":5050:5056   */\n      dup6\n        /* \"#utility.yul\":5047:5048   */\n      dup2\n        /* \"#utility.yul\":5044:5057   */\n      lt\n        /* \"#utility.yul\":5025:5481   */\n      iszero\n      tag_521\n      jumpi\n        /* \"#utility.yul\":5121:5130   */\n      dup5\n        /* \"#utility.yul\":5115:5119   */\n      dup5\n        /* \"#utility.yul\":5111:5131   */\n      sub\n        /* \"#utility.yul\":5106:5109   */\n      dup10\n        /* \"#utility.yul\":5099:5132   */\n      mstore\n        /* \"#utility.yul\":5172:5178   */\n      dup2\n        /* \"#utility.yul\":5166:5179   */\n      mload\n        /* \"#utility.yul\":5200:5324   */\n      tag_522\n        /* \"#utility.yul\":5319:5323   */\n      dup6\n        /* \"#utility.yul\":5304:5317   */\n      dup3\n        /* \"#utility.yul\":5200:5324   */\n      tag_408\n      jump\t// in\n    tag_522:\n        /* \"#utility.yul\":5192:5324   */\n      swap5\n      pop\n        /* \"#utility.yul\":5347:5437   */\n      tag_523\n        /* \"#utility.yul\":5430:5436   */\n      dup4\n        /* \"#utility.yul\":5347:5437   */\n      tag_409\n      jump\t// in\n    tag_523:\n        /* \"#utility.yul\":5337:5437   */\n      swap3\n      pop\n        /* \"#utility.yul\":5466:5470   */\n      0x20\n        /* \"#utility.yul\":5461:5464   */\n      dup11\n        /* \"#utility.yul\":5457:5471   */\n      add\n        /* \"#utility.yul\":5450:5471   */\n      swap10\n      pop\n        /* \"#utility.yul\":5085:5481   */\n      pop\n        /* \"#utility.yul\":5072:5073   */\n      0x01\n        /* \"#utility.yul\":5069:5070   */\n      dup2\n        /* \"#utility.yul\":5065:5074   */\n      add\n        /* \"#utility.yul\":5060:5074   */\n      swap1\n      pop\n        /* \"#utility.yul\":5025:5481   */\n      jump(tag_519)\n    tag_521:\n        /* \"#utility.yul\":5029:5043   */\n      pop\n        /* \"#utility.yul\":5497:5501   */\n      dup3\n        /* \"#utility.yul\":5490:5501   */\n      swap8\n      pop\n        /* \"#utility.yul\":5517:5520   */\n      dup8\n        /* \"#utility.yul\":5510:5520   */\n      swap6\n      pop\n        /* \"#utility.yul\":4559:5526   */\n      pop\n      pop\n      pop\n      pop\n      pop\n        /* \"#utility.yul\":4375:5526   */\n      swap3\n      swap2\n      pop\n      pop\n      jump\t// out\n        /* \"#utility.yul\":5532:6025   */\n    tag_20:\n        /* \"#utility.yul\":5735:5739   */\n      0x00\n        /* \"#utility.yul\":5773:5775   */\n      0x20\n        /* \"#utility.yul\":5762:5771   */\n      dup3\n        /* \"#utility.yul\":5758:5776   */\n      add\n        /* \"#utility.yul\":5750:5776   */\n      swap1\n      pop\n        /* \"#utility.yul\":5822:5831   */\n      dup2\n        /* \"#utility.yul\":5816:5820   */\n      dup2\n        /* \"#utility.yul\":5812:5832   */\n      sub\n        /* \"#utility.yul\":5808:5809   */\n      0x00\n        /* \"#utility.yul\":5797:5806   */\n      dup4\n        /* \"#utility.yul\":5793:5810   */\n      add\n        /* \"#utility.yul\":5786:5833   */\n      mstore\n        /* \"#utility.yul\":5850:6018   */\n      tag_525\n        /* \"#utility.yul\":6013:6017   */\n      dup2\n        /* \"#utility.yul\":6004:6010   */\n      dup5\n        /* \"#utility.yul\":5850:6018   */\n      tag_410\n      jump\t// in\n    tag_525:\n        /* \"#utility.yul\":5842:6018   */\n      swap1\n      pop\n        /* \"#utility.yul\":5532:6025   */\n      swap3\n      swap2\n      pop\n      pop\n      jump\t// out\n        /* \"#utility.yul\":6031:6153   */\n    tag_411:\n        /* \"#utility.yul\":6104:6128   */\n      tag_527\n        /* \"#utility.yul\":6122:6127   */\n      dup2\n        /* \"#utility.yul\":6104:6128   */\n      tag_404\n      jump\t// in\n    tag_527:\n        /* \"#utility.yul\":6097:6102   */\n      dup2\n        /* \"#utility.yul\":6094:6129   */\n      eq\n        /* \"#utility.yul\":6084:6147   */\n      tag_528\n      jumpi\n        /* \"#utility.yul\":6143:6144   */\n      0x00\n        /* \"#utility.yul\":6140:6141   */\n      dup1\n        /* \"#utility.yul\":6133:6145   */\n      revert\n        /* \"#utility.yul\":6084:6147   */\n    tag_528:\n        /* \"#utility.yul\":6031:6153   */\n      pop\n      jump\t// out\n        /* \"#utility.yul\":6159:6298   */\n    tag_412:\n        /* \"#utility.yul\":6205:6210   */\n      0x00\n        /* \"#utility.yul\":6243:6249   */\n      dup2\n        /* \"#utility.yul\":6230:6250   */\n      calldataload\n        /* \"#utility.yul\":6221:6250   */\n      swap1\n      pop\n        /* \"#utility.yul\":6259:6292   */\n      tag_530\n        /* \"#utility.yul\":6286:6291   */\n      dup2\n        /* \"#utility.yul\":6259:6292   */\n      tag_411\n      jump\t// in\n    tag_530:\n        /* \"#utility.yul\":6159:6298   */\n      swap3\n      swap2\n      pop\n      pop\n      jump\t// out\n        /* \"#utility.yul\":6304:6633   */\n    tag_24:\n        /* \"#utility.yul\":6363:6369   */\n      0x00\n        /* \"#utility.yul\":6412:6414   */\n      0x20\n        /* \"#utility.yul\":6400:6409   */\n      dup3\n        /* \"#utility.yul\":6391:6398   */\n      dup5\n        /* \"#utility.yul\":6387:6410   */\n      sub\n        /* \"#utility.yul\":6383:6415   */\n      slt\n        /* \"#utility.yul\":6380:6499   */\n      iszero\n      tag_532\n      jumpi\n        /* \"#utility.yul\":6418:6497   */\n      tag_533\n      tag_390\n      jump\t// in\n    tag_533:\n        /* \"#utility.yul\":6380:6499   */\n    tag_532:\n        /* \"#utility.yul\":6538:6539   */\n      0x00\n        /* \"#utility.yul\":6563:6616   */\n      tag_534\n        /* \"#utility.yul\":6608:6615   */\n      dup5\n        /* \"#utility.yul\":6599:6605   */\n      dup3\n        /* \"#utility.yul\":6588:6597   */\n      dup6\n        /* \"#utility.yul\":6584:6606   */\n      add\n        /* \"#utility.yul\":6563:6616   */\n      tag_412\n      jump\t// in\n    tag_534:\n        /* \"#utility.yul\":6553:6616   */\n      swap2\n      pop\n        /* \"#utility.yul\":6509:6626   */\n      pop\n        /* \"#utility.yul\":6304:6633   */\n      swap3\n      swap2\n      pop\n      pop\n      jump\t// out\n        /* \"#utility.yul\":6639:6748   */\n    tag_413:\n        /* \"#utility.yul\":6720:6741   */\n      tag_536\n        /* \"#utility.yul\":6735:6740   */\n      dup2\n        /* \"#utility.yul\":6720:6741   */\n      tag_392\n      jump\t// in\n    tag_536:\n        /* \"#utility.yul\":6715:6718   */\n      dup3\n        /* \"#utility.yul\":6708:6742   */\n      mstore\n        /* \"#utility.yul\":6639:6748   */\n      pop\n      pop\n      jump\t// out\n        /* \"#utility.yul\":6754:6964   */\n    tag_32:\n        /* \"#utility.yul\":6841:6845   */\n      0x00\n        /* \"#utility.yul\":6879:6881   */\n      0x20\n        /* \"#utility.yul\":6868:6877   */\n      dup3\n        /* \"#utility.yul\":6864:6882   */\n      add\n        /* \"#utility.yul\":6856:6882   */\n      swap1\n      pop\n        /* \"#utility.yul\":6892:6957   */\n      tag_538\n        /* \"#utility.yul\":6954:6955   */\n      0x00\n        /* \"#utility.yul\":6943:6952   */\n      dup4\n        /* \"#utility.yul\":6939:6956   */\n      add\n        /* \"#utility.yul\":6930:6936   */\n      dup5\n        /* \"#utility.yul\":6892:6957   */\n      tag_413\n      jump\t// in\n    tag_538:\n        /* \"#utility.yul\":6754:6964   */\n      swap3\n      swap2\n      pop\n      pop\n      jump\t// out\n        /* \"#utility.yul\":6970:7087   */\n    tag_414:\n        /* \"#utility.yul\":7079:7080   */\n      0x00\n        /* \"#utility.yul\":7076:7077   */\n      dup1\n        /* \"#utility.yul\":7069:7081   */\n      revert\n        /* \"#utility.yul\":7093:7210   */\n    tag_415:\n        /* \"#utility.yul\":7202:7203   */\n      0x00\n        /* \"#utility.yul\":7199:7200   */\n      dup1\n        /* \"#utility.yul\":7192:7204   */\n      revert\n        /* \"#utility.yul\":7216:7396   */\n    tag_416:\n        /* \"#utility.yul\":7264:7341   */\n      0x4e487b7100000000000000000000000000000000000000000000000000000000\n        /* \"#utility.yul\":7261:7262   */\n      0x00\n        /* \"#utility.yul\":7254:7342   */\n      mstore\n        /* \"#utility.yul\":7361:7365   */\n      0x41\n        /* \"#utility.yul\":7358:7359   */\n      0x04\n        /* \"#utility.yul\":7351:7366   */\n      mstore\n        /* \"#utility.yul\":7385:7389   */\n      0x24\n        /* \"#utility.yul\":7382:7383   */\n      0x00\n        /* \"#utility.yul\":7375:7390   */\n      revert\n        /* \"#utility.yul\":7402:7683   */\n    tag_417:\n        /* \"#utility.yul\":7485:7512   */\n      tag_543\n        /* \"#utility.yul\":7507:7511   */\n      dup3\n        /* \"#utility.yul\":7485:7512   */\n      tag_401\n      jump\t// in\n    tag_543:\n        /* \"#utility.yul\":7477:7483   */\n      dup2\n        /* \"#utility.yul\":7473:7513   */\n      add\n        /* \"#utility.yul\":7615:7621   */\n      dup2\n        /* \"#utility.yul\":7603:7613   */\n      dup2\n        /* \"#utility.yul\":7600:7622   */\n      lt\n        /* \"#utility.yul\":7579:7597   */\n      0xffffffffffffffff\n        /* \"#utility.yul\":7567:7577   */\n      dup3\n        /* \"#utility.yul\":7564:7598   */\n      gt\n        /* \"#utility.yul\":7561:7623   */\n      or\n        /* \"#utility.yul\":7558:7646   */\n      iszero\n      tag_544\n      jumpi\n        /* \"#utility.yul\":7626:7644   */\n      tag_545\n      tag_416\n      jump\t// in\n    tag_545:\n        /* \"#utility.yul\":7558:7646   */\n    tag_544:\n        /* \"#utility.yul\":7666:7676   */\n      dup1\n        /* \"#utility.yul\":7662:7664   */\n      0x40\n        /* \"#utility.yul\":7655:7677   */\n      mstore\n        /* \"#utility.yul\":7445:7683   */\n      pop\n        /* \"#utility.yul\":7402:7683   */\n      pop\n      pop\n      jump\t// out\n        /* \"#utility.yul\":7689:7818   */\n    tag_418:\n        /* \"#utility.yul\":7723:7729   */\n      0x00\n        /* \"#utility.yul\":7750:7770   */\n      tag_547\n      tag_389\n      jump\t// in\n    tag_547:\n        /* \"#utility.yul\":7740:7770   */\n      swap1\n      pop\n        /* \"#utility.yul\":7779:7812   */\n      tag_548\n        /* \"#utility.yul\":7807:7811   */\n      dup3\n        /* \"#utility.yul\":7799:7805   */\n      dup3\n        /* \"#utility.yul\":7779:7812   */\n      tag_417\n      jump\t// in\n    tag_548:\n        /* \"#utility.yul\":7689:7818   */\n      swap2\n      swap1\n      pop\n      jump\t// out\n        /* \"#utility.yul\":7824:8132   */\n    tag_419:\n        /* \"#utility.yul\":7886:7890   */\n      0x00\n        /* \"#utility.yul\":7976:7994   */\n      0xffffffffffffffff\n        /* \"#utility.yul\":7968:7974   */\n      dup3\n        /* \"#utility.yul\":7965:7995   */\n      gt\n        /* \"#utility.yul\":7962:8018   */\n      iszero\n      tag_550\n      jumpi\n        /* \"#utility.yul\":7998:8016   */\n      tag_551\n      tag_416\n      jump\t// in\n    tag_551:\n        /* \"#utility.yul\":7962:8018   */\n    tag_550:\n        /* \"#utility.yul\":8036:8065   */\n      tag_552\n        /* \"#utility.yul\":8058:8064   */\n      dup3\n        /* \"#utility.yul\":8036:8065   */\n      tag_401\n      jump\t// in\n    tag_552:\n        /* \"#utility.yul\":8028:8065   */\n      swap1\n      pop\n        /* \"#utility.yul\":8120:8124   */\n      0x20\n        /* \"#utility.yul\":8114:8118   */\n      dup2\n        /* \"#utility.yul\":8110:8125   */\n      add\n        /* \"#utility.yul\":8102:8125   */\n      swap1\n      pop\n        /* \"#utility.yul\":7824:8132   */\n      swap2\n      swap1\n      pop\n      jump\t// out\n        /* \"#utility.yul\":8138:8284   */\n    tag_420:\n        /* \"#utility.yul\":8235:8241   */\n      dup3\n        /* \"#utility.yul\":8230:8233   */\n      dup2\n        /* \"#utility.yul\":8225:8228   */\n      dup4\n        /* \"#utility.yul\":8212:8242   */\n      calldatacopy\n        /* \"#utility.yul\":8276:8277   */\n      0x00\n        /* \"#utility.yul\":8267:8273   */\n      dup4\n        /* \"#utility.yul\":8262:8265   */\n      dup4\n        /* \"#utility.yul\":8258:8274   */\n      add\n        /* \"#utility.yul\":8251:8278   */\n      mstore\n        /* \"#utility.yul\":8138:8284   */\n      pop\n      pop\n      pop\n      jump\t// out\n        /* \"#utility.yul\":8290:8715   */\n    tag_421:\n        /* \"#utility.yul\":8368:8373   */\n      0x00\n        /* \"#utility.yul\":8393:8459   */\n      tag_555\n        /* \"#utility.yul\":8409:8458   */\n      tag_556\n        /* \"#utility.yul\":8451:8457   */\n      dup5\n        /* \"#utility.yul\":8409:8458   */\n      tag_419\n      jump\t// in\n    tag_556:\n        /* \"#utility.yul\":8393:8459   */\n      tag_418\n      jump\t// in\n    tag_555:\n        /* \"#utility.yul\":8384:8459   */\n      swap1\n      pop\n        /* \"#utility.yul\":8482:8488   */\n      dup3\n        /* \"#utility.yul\":8475:8480   */\n      dup2\n        /* \"#utility.yul\":8468:8489   */\n      mstore\n        /* \"#utility.yul\":8520:8524   */\n      0x20\n        /* \"#utility.yul\":8513:8518   */\n      dup2\n        /* \"#utility.yul\":8509:8525   */\n      add\n        /* \"#utility.yul\":8558:8561   */\n      dup5\n        /* \"#utility.yul\":8549:8555   */\n      dup5\n        /* \"#utility.yul\":8544:8547   */\n      dup5\n        /* \"#utility.yul\":8540:8556   */\n      add\n        /* \"#utility.yul\":8537:8562   */\n      gt\n        /* \"#utility.yul\":8534:8646   */\n      iszero\n      tag_557\n      jumpi\n        /* \"#utility.yul\":8565:8644   */\n      tag_558\n      tag_415\n      jump\t// in\n    tag_558:\n        /* \"#utility.yul\":8534:8646   */\n    tag_557:\n        /* \"#utility.yul\":8655:8709   */\n      tag_559\n        /* \"#utility.yul\":8702:8708   */\n      dup5\n        /* \"#utility.yul\":8697:8700   */\n      dup3\n        /* \"#utility.yul\":8692:8695   */\n      dup6\n        /* \"#utility.yul\":8655:8709   */\n      tag_420\n      jump\t// in\n    tag_559:\n        /* \"#utility.yul\":8374:8715   */\n      pop\n        /* \"#utility.yul\":8290:8715   */\n      swap4\n      swap3\n      pop\n      pop\n      pop\n      jump\t// out\n        /* \"#utility.yul\":8735:9075   */\n    tag_422:\n        /* \"#utility.yul\":8791:8796   */\n      0x00\n        /* \"#utility.yul\":8840:8843   */\n      dup3\n        /* \"#utility.yul\":8833:8837   */\n      0x1f\n        /* \"#utility.yul\":8825:8831   */\n      dup4\n        /* \"#utility.yul\":8821:8838   */\n      add\n        /* \"#utility.yul\":8817:8844   */\n      slt\n        /* \"#utility.yul\":8807:8929   */\n      tag_561\n      jumpi\n        /* \"#utility.yul\":8848:8927   */\n      tag_562\n      tag_414\n      jump\t// in\n    tag_562:\n        /* \"#utility.yul\":8807:8929   */\n    tag_561:\n        /* \"#utility.yul\":8965:8971   */\n      dup2\n        /* \"#utility.yul\":8952:8972   */\n      calldataload\n        /* \"#utility.yul\":8990:9069   */\n      tag_563\n        /* \"#utility.yul\":9065:9068   */\n      dup5\n        /* \"#utility.yul\":9057:9063   */\n      dup3\n        /* \"#utility.yul\":9050:9054   */\n      0x20\n        /* \"#utility.yul\":9042:9048   */\n      dup7\n        /* \"#utility.yul\":9038:9055   */\n      add\n        /* \"#utility.yul\":8990:9069   */\n      tag_421\n      jump\t// in\n    tag_563:\n        /* \"#utility.yul\":8981:9069   */\n      swap2\n      pop\n        /* \"#utility.yul\":8797:9075   */\n      pop\n        /* \"#utility.yul\":8735:9075   */\n      swap3\n      swap2\n      pop\n      pop\n      jump\t// out\n        /* \"#utility.yul\":9081:9874   */\n    tag_36:\n        /* \"#utility.yul\":9165:9171   */\n      0x00\n        /* \"#utility.yul\":9173:9179   */\n      dup1\n        /* \"#utility.yul\":9181:9187   */\n      0x00\n        /* \"#utility.yul\":9230:9232   */\n      0x60\n        /* \"#utility.yul\":9218:9227   */\n      dup5\n        /* \"#utility.yul\":9209:9216   */\n      dup7\n        /* \"#utility.yul\":9205:9228   */\n      sub\n        /* \"#utility.yul\":9201:9233   */\n      slt\n        /* \"#utility.yul\":9198:9317   */\n      iszero\n      tag_565\n      jumpi\n        /* \"#utility.yul\":9236:9315   */\n      tag_566\n      tag_390\n      jump\t// in\n    tag_566:\n        /* \"#utility.yul\":9198:9317   */\n    tag_565:\n        /* \"#utility.yul\":9384:9385   */\n      0x00\n        /* \"#utility.yul\":9373:9382   */\n      dup5\n        /* \"#utility.yul\":9369:9386   */\n      add\n        /* \"#utility.yul\":9356:9387   */\n      calldataload\n        /* \"#utility.yul\":9414:9432   */\n      0xffffffffffffffff\n        /* \"#utility.yul\":9406:9412   */\n      dup2\n        /* \"#utility.yul\":9403:9433   */\n      gt\n        /* \"#utility.yul\":9400:9517   */\n      iszero\n      tag_567\n      jumpi\n        /* \"#utility.yul\":9436:9515   */\n      tag_568\n      tag_391\n      jump\t// in\n    tag_568:\n        /* \"#utility.yul\":9400:9517   */\n    tag_567:\n        /* \"#utility.yul\":9541:9604   */\n      tag_569\n        /* \"#utility.yul\":9596:9603   */\n      dup7\n        /* \"#utility.yul\":9587:9593   */\n      dup3\n        /* \"#utility.yul\":9576:9585   */\n      dup8\n        /* \"#utility.yul\":9572:9594   */\n      add\n        /* \"#utility.yul\":9541:9604   */\n      tag_422\n      jump\t// in\n    tag_569:\n        /* \"#utility.yul\":9531:9604   */\n      swap4\n      pop\n        /* \"#utility.yul\":9327:9614   */\n      pop\n        /* \"#utility.yul\":9653:9655   */\n      0x20\n        /* \"#utility.yul\":9679:9732   */\n      tag_570\n        /* \"#utility.yul\":9724:9731   */\n      dup7\n        /* \"#utility.yul\":9715:9721   */\n      dup3\n        /* \"#utility.yul\":9704:9713   */\n      dup8\n        /* \"#utility.yul\":9700:9722   */\n      add\n        /* \"#utility.yul\":9679:9732   */\n      tag_412\n      jump\t// in\n    tag_570:\n        /* \"#utility.yul\":9669:9732   */\n      swap3\n      pop\n        /* \"#utility.yul\":9624:9742   */\n      pop\n        /* \"#utility.yul\":9781:9783   */\n      0x40\n        /* \"#utility.yul\":9807:9857   */\n      tag_571\n        /* \"#utility.yul\":9849:9856   */\n      dup7\n        /* \"#utility.yul\":9840:9846   */\n      dup3\n        /* \"#utility.yul\":9829:9838   */\n      dup8\n        /* \"#utility.yul\":9825:9847   */\n      add\n        /* \"#utility.yul\":9807:9857   */\n      tag_394\n      jump\t// in\n    tag_571:\n        /* \"#utility.yul\":9797:9857   */\n      swap2\n      pop\n        /* \"#utility.yul\":9752:9867   */\n      pop\n        /* \"#utility.yul\":9081:9874   */\n      swap3\n      pop\n      swap3\n      pop\n      swap3\n      jump\t// out\n        /* \"#utility.yul\":9880:11325   */\n    tag_41:\n        /* \"#utility.yul\":10002:10008   */\n      0x00\n        /* \"#utility.yul\":10010:10016   */\n      dup1\n        /* \"#utility.yul\":10018:10024   */\n      0x00\n        /* \"#utility.yul\":10026:10032   */\n      dup1\n        /* \"#utility.yul\":10034:10040   */\n      0x00\n        /* \"#utility.yul\":10083:10086   */\n      0xa0\n        /* \"#utility.yul\":10071:10080   */\n      dup7\n        /* \"#utility.yul\":10062:10069   */\n      dup9\n        /* \"#utility.yul\":10058:10081   */\n      sub\n        /* \"#utility.yul\":10054:10087   */\n      slt\n        /* \"#utility.yul\":10051:10171   */\n      iszero\n      tag_573\n      jumpi\n        /* \"#utility.yul\":10090:10169   */\n      tag_574\n      tag_390\n      jump\t// in\n    tag_574:\n        /* \"#utility.yul\":10051:10171   */\n    tag_573:\n        /* \"#utility.yul\":10238:10239   */\n      0x00\n        /* \"#utility.yul\":10227:10236   */\n      dup7\n        /* \"#utility.yul\":10223:10240   */\n      add\n        /* \"#utility.yul\":10210:10241   */\n      calldataload\n        /* \"#utility.yul\":10268:10286   */\n      0xffffffffffffffff\n        /* \"#utility.yul\":10260:10266   */\n      dup2\n        /* \"#utility.yul\":10257:10287   */\n      gt\n        /* \"#utility.yul\":10254:10371   */\n      iszero\n      tag_575\n      jumpi\n        /* \"#utility.yul\":10290:10369   */\n      tag_576\n      tag_391\n      jump\t// in\n    tag_576:\n        /* \"#utility.yul\":10254:10371   */\n    tag_575:\n        /* \"#utility.yul\":10395:10458   */\n      tag_577\n        /* \"#utility.yul\":10450:10457   */\n      dup9\n        /* \"#utility.yul\":10441:10447   */\n      dup3\n        /* \"#utility.yul\":10430:10439   */\n      dup10\n        /* \"#utility.yul\":10426:10448   */\n      add\n        /* \"#utility.yul\":10395:10458   */\n      tag_422\n      jump\t// in\n    tag_577:\n        /* \"#utility.yul\":10385:10458   */\n      swap6\n      pop\n        /* \"#utility.yul\":10181:10468   */\n      pop\n        /* \"#utility.yul\":10535:10537   */\n      0x20\n        /* \"#utility.yul\":10524:10533   */\n      dup7\n        /* \"#utility.yul\":10520:10538   */\n      add\n        /* \"#utility.yul\":10507:10539   */\n      calldataload\n        /* \"#utility.yul\":10566:10584   */\n      0xffffffffffffffff\n        /* \"#utility.yul\":10558:10564   */\n      dup2\n        /* \"#utility.yul\":10555:10585   */\n      gt\n        /* \"#utility.yul\":10552:10669   */\n      iszero\n      tag_578\n      jumpi\n        /* \"#utility.yul\":10588:10667   */\n      tag_579\n      tag_391\n      jump\t// in\n    tag_579:\n        /* \"#utility.yul\":10552:10669   */\n    tag_578:\n        /* \"#utility.yul\":10693:10756   */\n      tag_580\n        /* \"#utility.yul\":10748:10755   */\n      dup9\n        /* \"#utility.yul\":10739:10745   */\n      dup3\n        /* \"#utility.yul\":10728:10737   */\n      dup10\n        /* \"#utility.yul\":10724:10746   */\n      add\n        /* \"#utility.yul\":10693:10756   */\n      tag_422\n      jump\t// in\n    tag_580:\n        /* \"#utility.yul\":10683:10756   */\n      swap5\n      pop\n        /* \"#utility.yul\":10478:10766   */\n      pop\n        /* \"#utility.yul\":10833:10835   */\n      0x40\n        /* \"#utility.yul\":10822:10831   */\n      dup7\n        /* \"#utility.yul\":10818:10836   */\n      add\n        /* \"#utility.yul\":10805:10837   */\n      calldataload\n        /* \"#utility.yul\":10864:10882   */\n      0xffffffffffffffff\n        /* \"#utility.yul\":10856:10862   */\n      dup2\n        /* \"#utility.yul\":10853:10883   */\n      gt\n        /* \"#utility.yul\":10850:10967   */\n      iszero\n      tag_581\n      jumpi\n        /* \"#utility.yul\":10886:10965   */\n      tag_582\n      tag_391\n      jump\t// in\n    tag_582:\n        /* \"#utility.yul\":10850:10967   */\n    tag_581:\n        /* \"#utility.yul\":10991:11054   */\n      tag_583\n        /* \"#utility.yul\":11046:11053   */\n      dup9\n        /* \"#utility.yul\":11037:11043   */\n      dup3\n        /* \"#utility.yul\":11026:11035   */\n      dup10\n        /* \"#utility.yul\":11022:11044   */\n      add\n        /* \"#utility.yul\":10991:11054   */\n      tag_422\n      jump\t// in\n    tag_583:\n        /* \"#utility.yul\":10981:11054   */\n      swap4\n      pop\n        /* \"#utility.yul\":10776:11064   */\n      pop\n        /* \"#utility.yul\":11103:11105   */\n      0x60\n        /* \"#utility.yul\":11129:11182   */\n      tag_584\n        /* \"#utility.yul\":11174:11181   */\n      dup9\n        /* \"#utility.yul\":11165:11171   */\n      dup3\n        /* \"#utility.yul\":11154:11163   */\n      dup10\n        /* \"#utility.yul\":11150:11172   */\n      add\n        /* \"#utility.yul\":11129:11182   */\n      tag_412\n      jump\t// in\n    tag_584:\n        /* \"#utility.yul\":11119:11182   */\n      swap3\n      pop\n        /* \"#utility.yul\":11074:11192   */\n      pop\n        /* \"#utility.yul\":11231:11234   */\n      0x80\n        /* \"#utility.yul\":11258:11308   */\n      tag_585\n        /* \"#utility.yul\":11300:11307   */\n      dup9\n        /* \"#utility.yul\":11291:11297   */\n      dup3\n        /* \"#utility.yul\":11280:11289   */\n      dup10\n        /* \"#utility.yul\":11276:11298   */\n      add\n        /* \"#utility.yul\":11258:11308   */\n      tag_394\n      jump\t// in\n    tag_585:\n        /* \"#utility.yul\":11248:11308   */\n      swap2\n      pop\n        /* \"#utility.yul\":11202:11318   */\n      pop\n        /* \"#utility.yul\":9880:11325   */\n      swap3\n      swap6\n      pop\n      swap3\n      swap6\n      swap1\n      swap4\n      pop\n      jump\t// out\n        /* \"#utility.yul\":11331:11805   */\n    tag_46:\n        /* \"#utility.yul\":11399:11405   */\n      0x00\n        /* \"#utility.yul\":11407:11413   */\n      dup1\n        /* \"#utility.yul\":11456:11458   */\n      0x40\n        /* \"#utility.yul\":11444:11453   */\n      dup4\n        /* \"#utility.yul\":11435:11442   */\n      dup6\n        /* \"#utility.yul\":11431:11454   */\n      sub\n        /* \"#utility.yul\":11427:11459   */\n      slt\n        /* \"#utility.yul\":11424:11543   */\n      iszero\n      tag_587\n      jumpi\n        /* \"#utility.yul\":11462:11541   */\n      tag_588\n      tag_390\n      jump\t// in\n    tag_588:\n        /* \"#utility.yul\":11424:11543   */\n    tag_587:\n        /* \"#utility.yul\":11582:11583   */\n      0x00\n        /* \"#utility.yul\":11607:11660   */\n      tag_589\n        /* \"#utility.yul\":11652:11659   */\n      dup6\n        /* \"#utility.yul\":11643:11649   */\n      dup3\n        /* \"#utility.yul\":11632:11641   */\n      dup7\n        /* \"#utility.yul\":11628:11650   */\n      add\n        /* \"#utility.yul\":11607:11660   */\n      tag_412\n      jump\t// in\n    tag_589:\n        /* \"#utility.yul\":11597:11660   */\n      swap3\n      pop\n        /* \"#utility.yul\":11553:11670   */\n      pop\n        /* \"#utility.yul\":11709:11711   */\n      0x20\n        /* \"#utility.yul\":11735:11788   */\n      tag_590\n        /* \"#utility.yul\":11780:11787   */\n      dup6\n        /* \"#utility.yul\":11771:11777   */\n      dup3\n        /* \"#utility.yul\":11760:11769   */\n      dup7\n        /* \"#utility.yul\":11756:11778   */\n      add\n        /* \"#utility.yul\":11735:11788   */\n      tag_412\n      jump\t// in\n    tag_590:\n        /* \"#utility.yul\":11725:11788   */\n      swap2\n      pop\n        /* \"#utility.yul\":11680:11798   */\n      pop\n        /* \"#utility.yul\":11331:11805   */\n      swap3\n      pop\n      swap3\n      swap1\n      pop\n      jump\t// out\n        /* \"#utility.yul\":11811:12279   */\n    tag_58:\n        /* \"#utility.yul\":11876:11882   */\n      0x00\n        /* \"#utility.yul\":11884:11890   */\n      dup1\n        /* \"#utility.yul\":11933:11935   */\n      0x40\n        /* \"#utility.yul\":11921:11930   */\n      dup4\n        /* \"#utility.yul\":11912:11919   */\n      dup6\n        /* \"#utility.yul\":11908:11931   */\n      sub\n        /* \"#utility.yul\":11904:11936   */\n      slt\n        /* \"#utility.yul\":11901:12020   */\n      iszero\n      tag_592\n      jumpi\n        /* \"#utility.yul\":11939:12018   */\n      tag_593\n      tag_390\n      jump\t// in\n    tag_593:\n        /* \"#utility.yul\":11901:12020   */\n    tag_592:\n        /* \"#utility.yul\":12059:12060   */\n      0x00\n        /* \"#utility.yul\":12084:12137   */\n      tag_594\n        /* \"#utility.yul\":12129:12136   */\n      dup6\n        /* \"#utility.yul\":12120:12126   */\n      dup3\n        /* \"#utility.yul\":12109:12118   */\n      dup7\n        /* \"#utility.yul\":12105:12127   */\n      add\n        /* \"#utility.yul\":12084:12137   */\n      tag_412\n      jump\t// in\n    tag_594:\n        /* \"#utility.yul\":12074:12137   */\n      swap3\n      pop\n        /* \"#utility.yul\":12030:12147   */\n      pop\n        /* \"#utility.yul\":12186:12188   */\n      0x20\n        /* \"#utility.yul\":12212:12262   */\n      tag_595\n        /* \"#utility.yul\":12254:12261   */\n      dup6\n        /* \"#utility.yul\":12245:12251   */\n      dup3\n        /* \"#utility.yul\":12234:12243   */\n      dup7\n        /* \"#utility.yul\":12230:12252   */\n      add\n        /* \"#utility.yul\":12212:12262   */\n      tag_394\n      jump\t// in\n    tag_595:\n        /* \"#utility.yul\":12202:12262   */\n      swap2\n      pop\n        /* \"#utility.yul\":12157:12272   */\n      pop\n        /* \"#utility.yul\":11811:12279   */\n      swap3\n      pop\n      swap3\n      swap1\n      pop\n      jump\t// out\n        /* \"#utility.yul\":12285:12362   */\n    tag_423:\n        /* \"#utility.yul\":12322:12329   */\n      0x00\n        /* \"#utility.yul\":12351:12356   */\n      dup2\n        /* \"#utility.yul\":12340:12356   */\n      swap1\n      pop\n        /* \"#utility.yul\":12285:12362   */\n      swap2\n      swap1\n      pop\n      jump\t// out\n        /* \"#utility.yul\":12368:12476   */\n    tag_424:\n        /* \"#utility.yul\":12445:12469   */\n      tag_598\n        /* \"#utility.yul\":12463:12468   */\n      dup2\n        /* \"#utility.yul\":12445:12469   */\n      tag_423\n      jump\t// in\n    tag_598:\n        /* \"#utility.yul\":12440:12443   */\n      dup3\n        /* \"#utility.yul\":12433:12470   */\n      mstore\n        /* \"#utility.yul\":12368:12476   */\n      pop\n      pop\n      jump\t// out\n        /* \"#utility.yul\":12482:12686   */\n    tag_425:\n        /* \"#utility.yul\":12601:12612   */\n      0x00\n        /* \"#utility.yul\":12635:12641   */\n      dup3\n        /* \"#utility.yul\":12630:12633   */\n      dup3\n        /* \"#utility.yul\":12623:12642   */\n      mstore\n        /* \"#utility.yul\":12675:12679   */\n      0x20\n        /* \"#utility.yul\":12670:12673   */\n      dup3\n        /* \"#utility.yul\":12666:12680   */\n      add\n        /* \"#utility.yul\":12651:12680   */\n      swap1\n      pop\n        /* \"#utility.yul\":12482:12686   */\n      swap3\n      swap2\n      pop\n      pop\n      jump\t// out\n        /* \"#utility.yul\":12766:13897   */\n    tag_426:\n        /* \"#utility.yul\":12935:12938   */\n      0x00\n        /* \"#utility.yul\":12964:13048   */\n      tag_601\n        /* \"#utility.yul\":13042:13047   */\n      dup3\n        /* \"#utility.yul\":12964:13048   */\n      tag_395\n      jump\t// in\n    tag_601:\n        /* \"#utility.yul\":13064:13170   */\n      tag_602\n        /* \"#utility.yul\":13163:13169   */\n      dup2\n        /* \"#utility.yul\":13158:13161   */\n      dup6\n        /* \"#utility.yul\":13064:13170   */\n      tag_425\n      jump\t// in\n    tag_602:\n        /* \"#utility.yul\":13057:13170   */\n      swap4\n      pop\n        /* \"#utility.yul\":13196:13199   */\n      dup4\n        /* \"#utility.yul\":13241:13245   */\n      0x20\n        /* \"#utility.yul\":13233:13239   */\n      dup3\n        /* \"#utility.yul\":13229:13246   */\n      mul\n        /* \"#utility.yul\":13224:13227   */\n      dup6\n        /* \"#utility.yul\":13220:13247   */\n      add\n        /* \"#utility.yul\":13271:13357   */\n      tag_603\n        /* \"#utility.yul\":13351:13356   */\n      dup6\n        /* \"#utility.yul\":13271:13357   */\n      tag_397\n      jump\t// in\n    tag_603:\n        /* \"#utility.yul\":13380:13387   */\n      dup1\n        /* \"#utility.yul\":13411:13412   */\n      0x00\n        /* \"#utility.yul\":13396:13852   */\n    tag_604:\n        /* \"#utility.yul\":13421:13427   */\n      dup6\n        /* \"#utility.yul\":13418:13419   */\n      dup2\n        /* \"#utility.yul\":13415:13428   */\n      lt\n        /* \"#utility.yul\":13396:13852   */\n      iszero\n      tag_606\n      jumpi\n        /* \"#utility.yul\":13492:13501   */\n      dup5\n        /* \"#utility.yul\":13486:13490   */\n      dup5\n        /* \"#utility.yul\":13482:13502   */\n      sub\n        /* \"#utility.yul\":13477:13480   */\n      dup10\n        /* \"#utility.yul\":13470:13503   */\n      mstore\n        /* \"#utility.yul\":13543:13549   */\n      dup2\n        /* \"#utility.yul\":13537:13550   */\n      mload\n        /* \"#utility.yul\":13571:13695   */\n      tag_607\n        /* \"#utility.yul\":13690:13694   */\n      dup6\n        /* \"#utility.yul\":13675:13688   */\n      dup3\n        /* \"#utility.yul\":13571:13695   */\n      tag_408\n      jump\t// in\n    tag_607:\n        /* \"#utility.yul\":13563:13695   */\n      swap5\n      pop\n        /* \"#utility.yul\":13718:13808   */\n      tag_608\n        /* \"#utility.yul\":13801:13807   */\n      dup4\n        /* \"#utility.yul\":13718:13808   */\n      tag_409\n      jump\t// in\n    tag_608:\n        /* \"#utility.yul\":13708:13808   */\n      swap3\n      pop\n        /* \"#utility.yul\":13837:13841   */\n      0x20\n        /* \"#utility.yul\":13832:13835   */\n      dup11\n        /* \"#utility.yul\":13828:13842   */\n      add\n        /* \"#utility.yul\":13821:13842   */\n      swap10\n      pop\n        /* \"#utility.yul\":13456:13852   */\n      pop\n        /* \"#utility.yul\":13443:13444   */\n      0x01\n        /* \"#utility.yul\":13440:13441   */\n      dup2\n        /* \"#utility.yul\":13436:13445   */\n      add\n        /* \"#utility.yul\":13431:13445   */\n      swap1\n      pop\n        /* \"#utility.yul\":13396:13852   */\n      jump(tag_604)\n    tag_606:\n        /* \"#utility.yul\":13400:13414   */\n      pop\n        /* \"#utility.yul\":13868:13872   */\n      dup3\n        /* \"#utility.yul\":13861:13872   */\n      swap8\n      pop\n        /* \"#utility.yul\":13888:13891   */\n      dup8\n        /* \"#utility.yul\":13881:13891   */\n      swap6\n      pop\n        /* \"#utility.yul\":12940:13897   */\n      pop\n      pop\n      pop\n      pop\n      pop\n        /* \"#utility.yul\":12766:13897   */\n      swap3\n      swap2\n      pop\n      pop\n      jump\t// out\n        /* \"#utility.yul\":13971:15600   */\n    tag_427:\n        /* \"#utility.yul\":14096:14099   */\n      0x00\n        /* \"#utility.yul\":14132:14136   */\n      0xc0\n        /* \"#utility.yul\":14127:14130   */\n      dup4\n        /* \"#utility.yul\":14123:14137   */\n      add\n        /* \"#utility.yul\":14219:14223   */\n      0x00\n        /* \"#utility.yul\":14212:14217   */\n      dup4\n        /* \"#utility.yul\":14208:14224   */\n      add\n        /* \"#utility.yul\":14202:14225   */\n      mload\n        /* \"#utility.yul\":14272:14275   */\n      dup5\n        /* \"#utility.yul\":14266:14270   */\n      dup3\n        /* \"#utility.yul\":14262:14276   */\n      sub\n        /* \"#utility.yul\":14255:14259   */\n      0x00\n        /* \"#utility.yul\":14250:14253   */\n      dup7\n        /* \"#utility.yul\":14246:14260   */\n      add\n        /* \"#utility.yul\":14239:14277   */\n      mstore\n        /* \"#utility.yul\":14298:14371   */\n      tag_610\n        /* \"#utility.yul\":14366:14370   */\n      dup3\n        /* \"#utility.yul\":14352:14364   */\n      dup3\n        /* \"#utility.yul\":14298:14371   */\n      tag_402\n      jump\t// in\n    tag_610:\n        /* \"#utility.yul\":14290:14371   */\n      swap2\n      pop\n        /* \"#utility.yul\":14147:14382   */\n      pop\n        /* \"#utility.yul\":14464:14468   */\n      0x20\n        /* \"#utility.yul\":14457:14462   */\n      dup4\n        /* \"#utility.yul\":14453:14469   */\n      add\n        /* \"#utility.yul\":14447:14470   */\n      mload\n        /* \"#utility.yul\":14517:14520   */\n      dup5\n        /* \"#utility.yul\":14511:14515   */\n      dup3\n        /* \"#utility.yul\":14507:14521   */\n      sub\n        /* \"#utility.yul\":14500:14504   */\n      0x20\n        /* \"#utility.yul\":14495:14498   */\n      dup7\n        /* \"#utility.yul\":14491:14505   */\n      add\n        /* \"#utility.yul\":14484:14522   */\n      mstore\n        /* \"#utility.yul\":14543:14616   */\n      tag_611\n        /* \"#utility.yul\":14611:14615   */\n      dup3\n        /* \"#utility.yul\":14597:14609   */\n      dup3\n        /* \"#utility.yul\":14543:14616   */\n      tag_402\n      jump\t// in\n    tag_611:\n        /* \"#utility.yul\":14535:14616   */\n      swap2\n      pop\n        /* \"#utility.yul\":14392:14627   */\n      pop\n        /* \"#utility.yul\":14709:14713   */\n      0x40\n        /* \"#utility.yul\":14702:14707   */\n      dup4\n        /* \"#utility.yul\":14698:14714   */\n      add\n        /* \"#utility.yul\":14692:14715   */\n      mload\n        /* \"#utility.yul\":14762:14765   */\n      dup5\n        /* \"#utility.yul\":14756:14760   */\n      dup3\n        /* \"#utility.yul\":14752:14766   */\n      sub\n        /* \"#utility.yul\":14745:14749   */\n      0x40\n        /* \"#utility.yul\":14740:14743   */\n      dup7\n        /* \"#utility.yul\":14736:14750   */\n      add\n        /* \"#utility.yul\":14729:14767   */\n      mstore\n        /* \"#utility.yul\":14788:14861   */\n      tag_612\n        /* \"#utility.yul\":14856:14860   */\n      dup3\n        /* \"#utility.yul\":14842:14854   */\n      dup3\n        /* \"#utility.yul\":14788:14861   */\n      tag_402\n      jump\t// in\n    tag_612:\n        /* \"#utility.yul\":14780:14861   */\n      swap2\n      pop\n        /* \"#utility.yul\":14637:14872   */\n      pop\n        /* \"#utility.yul\":14961:14965   */\n      0x60\n        /* \"#utility.yul\":14954:14959   */\n      dup4\n        /* \"#utility.yul\":14950:14966   */\n      add\n        /* \"#utility.yul\":14944:14967   */\n      mload\n        /* \"#utility.yul\":14980:15043   */\n      tag_613\n        /* \"#utility.yul\":15037:15041   */\n      0x60\n        /* \"#utility.yul\":15032:15035   */\n      dup7\n        /* \"#utility.yul\":15028:15042   */\n      add\n        /* \"#utility.yul\":15014:15026   */\n      dup3\n        /* \"#utility.yul\":14980:15043   */\n      tag_405\n      jump\t// in\n    tag_613:\n        /* \"#utility.yul\":14882:15053   */\n      pop\n        /* \"#utility.yul\":15136:15140   */\n      0x80\n        /* \"#utility.yul\":15129:15134   */\n      dup4\n        /* \"#utility.yul\":15125:15141   */\n      add\n        /* \"#utility.yul\":15119:15142   */\n      mload\n        /* \"#utility.yul\":15155:15218   */\n      tag_614\n        /* \"#utility.yul\":15212:15216   */\n      0x80\n        /* \"#utility.yul\":15207:15210   */\n      dup7\n        /* \"#utility.yul\":15203:15217   */\n      add\n        /* \"#utility.yul\":15189:15201   */\n      dup3\n        /* \"#utility.yul\":15155:15218   */\n      tag_424\n      jump\t// in\n    tag_614:\n        /* \"#utility.yul\":15063:15228   */\n      pop\n        /* \"#utility.yul\":15320:15324   */\n      0xa0\n        /* \"#utility.yul\":15313:15318   */\n      dup4\n        /* \"#utility.yul\":15309:15325   */\n      add\n        /* \"#utility.yul\":15303:15326   */\n      mload\n        /* \"#utility.yul\":15373:15376   */\n      dup5\n        /* \"#utility.yul\":15367:15371   */\n      dup3\n        /* \"#utility.yul\":15363:15377   */\n      sub\n        /* \"#utility.yul\":15356:15360   */\n      0xa0\n        /* \"#utility.yul\":15351:15354   */\n      dup7\n        /* \"#utility.yul\":15347:15361   */\n      add\n        /* \"#utility.yul\":15340:15378   */\n      mstore\n        /* \"#utility.yul\":15399:15562   */\n      tag_615\n        /* \"#utility.yul\":15557:15561   */\n      dup3\n        /* \"#utility.yul\":15543:15555   */\n      dup3\n        /* \"#utility.yul\":15399:15562   */\n      tag_426\n      jump\t// in\n    tag_615:\n        /* \"#utility.yul\":15391:15562   */\n      swap2\n      pop\n        /* \"#utility.yul\":15238:15573   */\n      pop\n        /* \"#utility.yul\":15590:15594   */\n      dup1\n        /* \"#utility.yul\":15583:15594   */\n      swap2\n      pop\n        /* \"#utility.yul\":14101:15600   */\n      pop\n        /* \"#utility.yul\":13971:15600   */\n      swap3\n      swap2\n      pop\n      pop\n      jump\t// out\n        /* \"#utility.yul\":15606:15991   */\n    tag_61:\n        /* \"#utility.yul\":15755:15759   */\n      0x00\n        /* \"#utility.yul\":15793:15795   */\n      0x20\n        /* \"#utility.yul\":15782:15791   */\n      dup3\n        /* \"#utility.yul\":15778:15796   */\n      add\n        /* \"#utility.yul\":15770:15796   */\n      swap1\n      pop\n        /* \"#utility.yul\":15842:15851   */\n      dup2\n        /* \"#utility.yul\":15836:15840   */\n      dup2\n        /* \"#utility.yul\":15832:15852   */\n      sub\n        /* \"#utility.yul\":15828:15829   */\n      0x00\n        /* \"#utility.yul\":15817:15826   */\n      dup4\n        /* \"#utility.yul\":15813:15830   */\n      add\n        /* \"#utility.yul\":15806:15853   */\n      mstore\n        /* \"#utility.yul\":15870:15984   */\n      tag_617\n        /* \"#utility.yul\":15979:15983   */\n      dup2\n        /* \"#utility.yul\":15970:15976   */\n      dup5\n        /* \"#utility.yul\":15870:15984   */\n      tag_427\n      jump\t// in\n    tag_617:\n        /* \"#utility.yul\":15862:15984   */\n      swap1\n      pop\n        /* \"#utility.yul\":15606:15991   */\n      swap3\n      swap2\n      pop\n      pop\n      jump\t// out\n        /* \"#utility.yul\":15997:16139   */\n    tag_428:\n        /* \"#utility.yul\":16092:16098   */\n      0x00\n        /* \"#utility.yul\":16126:16131   */\n      dup2\n        /* \"#utility.yul\":16120:16132   */\n      mload\n        /* \"#utility.yul\":16110:16132   */\n      swap1\n      pop\n        /* \"#utility.yul\":15997:16139   */\n      swap2\n      swap1\n      pop\n      jump\t// out\n        /* \"#utility.yul\":16145:16357   */\n    tag_429:\n        /* \"#utility.yul\":16272:16283   */\n      0x00\n        /* \"#utility.yul\":16306:16312   */\n      dup3\n        /* \"#utility.yul\":16301:16304   */\n      dup3\n        /* \"#utility.yul\":16294:16313   */\n      mstore\n        /* \"#utility.yul\":16346:16350   */\n      0x20\n        /* \"#utility.yul\":16341:16344   */\n      dup3\n        /* \"#utility.yul\":16337:16351   */\n      add\n        /* \"#utility.yul\":16322:16351   */\n      swap1\n      pop\n        /* \"#utility.yul\":16145:16357   */\n      swap3\n      swap2\n      pop\n      pop\n      jump\t// out\n        /* \"#utility.yul\":16363:16523   */\n    tag_430:\n        /* \"#utility.yul\":16458:16462   */\n      0x00\n        /* \"#utility.yul\":16481:16484   */\n      dup2\n        /* \"#utility.yul\":16473:16484   */\n      swap1\n      pop\n        /* \"#utility.yul\":16511:16515   */\n      0x20\n        /* \"#utility.yul\":16506:16509   */\n      dup3\n        /* \"#utility.yul\":16502:16516   */\n      add\n        /* \"#utility.yul\":16494:16516   */\n      swap1\n      pop\n        /* \"#utility.yul\":16363:16523   */\n      swap2\n      swap1\n      pop\n      jump\t// out\n        /* \"#utility.yul\":16597:18216   */\n    tag_431:\n        /* \"#utility.yul\":16712:16715   */\n      0x00\n        /* \"#utility.yul\":16748:16752   */\n      0xc0\n        /* \"#utility.yul\":16743:16746   */\n      dup4\n        /* \"#utility.yul\":16739:16753   */\n      add\n        /* \"#utility.yul\":16835:16839   */\n      0x00\n        /* \"#utility.yul\":16828:16833   */\n      dup4\n        /* \"#utility.yul\":16824:16840   */\n      add\n        /* \"#utility.yul\":16818:16841   */\n      mload\n        /* \"#utility.yul\":16888:16891   */\n      dup5\n        /* \"#utility.yul\":16882:16886   */\n      dup3\n        /* \"#utility.yul\":16878:16892   */\n      sub\n        /* \"#utility.yul\":16871:16875   */\n      0x00\n        /* \"#utility.yul\":16866:16869   */\n      dup7\n        /* \"#utility.yul\":16862:16876   */\n      add\n        /* \"#utility.yul\":16855:16893   */\n      mstore\n        /* \"#utility.yul\":16914:16987   */\n      tag_622\n        /* \"#utility.yul\":16982:16986   */\n      dup3\n        /* \"#utility.yul\":16968:16980   */\n      dup3\n        /* \"#utility.yul\":16914:16987   */\n      tag_402\n      jump\t// in\n    tag_622:\n        /* \"#utility.yul\":16906:16987   */\n      swap2\n      pop\n        /* \"#utility.yul\":16763:16998   */\n      pop\n        /* \"#utility.yul\":17080:17084   */\n      0x20\n        /* \"#utility.yul\":17073:17078   */\n      dup4\n        /* \"#utility.yul\":17069:17085   */\n      add\n        /* \"#utility.yul\":17063:17086   */\n      mload\n        /* \"#utility.yul\":17133:17136   */\n      dup5\n        /* \"#utility.yul\":17127:17131   */\n      dup3\n        /* \"#utility.yul\":17123:17137   */\n      sub\n        /* \"#utility.yul\":17116:17120   */\n      0x20\n        /* \"#utility.yul\":17111:17114   */\n      dup7\n        /* \"#utility.yul\":17107:17121   */\n      add\n        /* \"#utility.yul\":17100:17138   */\n      mstore\n        /* \"#utility.yul\":17159:17232   */\n      tag_623\n        /* \"#utility.yul\":17227:17231   */\n      dup3\n        /* \"#utility.yul\":17213:17225   */\n      dup3\n        /* \"#utility.yul\":17159:17232   */\n      tag_402\n      jump\t// in\n    tag_623:\n        /* \"#utility.yul\":17151:17232   */\n      swap2\n      pop\n        /* \"#utility.yul\":17008:17243   */\n      pop\n        /* \"#utility.yul\":17325:17329   */\n      0x40\n        /* \"#utility.yul\":17318:17323   */\n      dup4\n        /* \"#utility.yul\":17314:17330   */\n      add\n        /* \"#utility.yul\":17308:17331   */\n      mload\n        /* \"#utility.yul\":17378:17381   */\n      dup5\n        /* \"#utility.yul\":17372:17376   */\n      dup3\n        /* \"#utility.yul\":17368:17382   */\n      sub\n        /* \"#utility.yul\":17361:17365   */\n      0x40\n        /* \"#utility.yul\":17356:17359   */\n      dup7\n        /* \"#utility.yul\":17352:17366   */\n      add\n        /* \"#utility.yul\":17345:17383   */\n      mstore\n        /* \"#utility.yul\":17404:17477   */\n      tag_624\n        /* \"#utility.yul\":17472:17476   */\n      dup3\n        /* \"#utility.yul\":17458:17470   */\n      dup3\n        /* \"#utility.yul\":17404:17477   */\n      tag_402\n      jump\t// in\n    tag_624:\n        /* \"#utility.yul\":17396:17477   */\n      swap2\n      pop\n        /* \"#utility.yul\":17253:17488   */\n      pop\n        /* \"#utility.yul\":17577:17581   */\n      0x60\n        /* \"#utility.yul\":17570:17575   */\n      dup4\n        /* \"#utility.yul\":17566:17582   */\n      add\n        /* \"#utility.yul\":17560:17583   */\n      mload\n        /* \"#utility.yul\":17596:17659   */\n      tag_625\n        /* \"#utility.yul\":17653:17657   */\n      0x60\n        /* \"#utility.yul\":17648:17651   */\n      dup7\n        /* \"#utility.yul\":17644:17658   */\n      add\n        /* \"#utility.yul\":17630:17642   */\n      dup3\n        /* \"#utility.yul\":17596:17659   */\n      tag_405\n      jump\t// in\n    tag_625:\n        /* \"#utility.yul\":17498:17669   */\n      pop\n        /* \"#utility.yul\":17752:17756   */\n      0x80\n        /* \"#utility.yul\":17745:17750   */\n      dup4\n        /* \"#utility.yul\":17741:17757   */\n      add\n        /* \"#utility.yul\":17735:17758   */\n      mload\n        /* \"#utility.yul\":17771:17834   */\n      tag_626\n        /* \"#utility.yul\":17828:17832   */\n      0x80\n        /* \"#utility.yul\":17823:17826   */\n      dup7\n        /* \"#utility.yul\":17819:17833   */\n      add\n        /* \"#utility.yul\":17805:17817   */\n      dup3\n        /* \"#utility.yul\":17771:17834   */\n      tag_424\n      jump\t// in\n    tag_626:\n        /* \"#utility.yul\":17679:17844   */\n      pop\n        /* \"#utility.yul\":17936:17940   */\n      0xa0\n        /* \"#utility.yul\":17929:17934   */\n      dup4\n        /* \"#utility.yul\":17925:17941   */\n      add\n        /* \"#utility.yul\":17919:17942   */\n      mload\n        /* \"#utility.yul\":17989:17992   */\n      dup5\n        /* \"#utility.yul\":17983:17987   */\n      dup3\n        /* \"#utility.yul\":17979:17993   */\n      sub\n        /* \"#utility.yul\":17972:17976   */\n      0xa0\n        /* \"#utility.yul\":17967:17970   */\n      dup7\n        /* \"#utility.yul\":17963:17977   */\n      add\n        /* \"#utility.yul\":17956:17994   */\n      mstore\n        /* \"#utility.yul\":18015:18178   */\n      tag_627\n        /* \"#utility.yul\":18173:18177   */\n      dup3\n        /* \"#utility.yul\":18159:18171   */\n      dup3\n        /* \"#utility.yul\":18015:18178   */\n      tag_426\n      jump\t// in\n    tag_627:\n        /* \"#utility.yul\":18007:18178   */\n      swap2\n      pop\n        /* \"#utility.yul\":17854:18189   */\n      pop\n        /* \"#utility.yul\":18206:18210   */\n      dup1\n        /* \"#utility.yul\":18199:18210   */\n      swap2\n      pop\n        /* \"#utility.yul\":16717:18216   */\n      pop\n        /* \"#utility.yul\":16597:18216   */\n      swap3\n      swap2\n      pop\n      pop\n      jump\t// out\n        /* \"#utility.yul\":18222:18490   */\n    tag_432:\n        /* \"#utility.yul\":18347:18357   */\n      0x00\n        /* \"#utility.yul\":18382:18484   */\n      tag_629\n        /* \"#utility.yul\":18480:18483   */\n      dup4\n        /* \"#utility.yul\":18472:18478   */\n      dup4\n        /* \"#utility.yul\":18382:18484   */\n      tag_431\n      jump\t// in\n    tag_629:\n        /* \"#utility.yul\":18368:18484   */\n      swap1\n      pop\n        /* \"#utility.yul\":18222:18490   */\n      swap3\n      swap2\n      pop\n      pop\n      jump\t// out\n        /* \"#utility.yul\":18496:18637   */\n    tag_433:\n        /* \"#utility.yul\":18594:18598   */\n      0x00\n        /* \"#utility.yul\":18626:18630   */\n      0x20\n        /* \"#utility.yul\":18621:18624   */\n      dup3\n        /* \"#utility.yul\":18617:18631   */\n      add\n        /* \"#utility.yul\":18609:18631   */\n      swap1\n      pop\n        /* \"#utility.yul\":18496:18637   */\n      swap2\n      swap1\n      pop\n      jump\t// out\n        /* \"#utility.yul\":18715:19850   */\n    tag_434:\n        /* \"#utility.yul\":18890:18893   */\n      0x00\n        /* \"#utility.yul\":18919:19001   */\n      tag_632\n        /* \"#utility.yul\":18995:19000   */\n      dup3\n        /* \"#utility.yul\":18919:19001   */\n      tag_428\n      jump\t// in\n    tag_632:\n        /* \"#utility.yul\":19017:19131   */\n      tag_633\n        /* \"#utility.yul\":19124:19130   */\n      dup2\n        /* \"#utility.yul\":19119:19122   */\n      dup6\n        /* \"#utility.yul\":19017:19131   */\n      tag_429\n      jump\t// in\n    tag_633:\n        /* \"#utility.yul\":19010:19131   */\n      swap4\n      pop\n        /* \"#utility.yul\":19157:19160   */\n      dup4\n        /* \"#utility.yul\":19202:19206   */\n      0x20\n        /* \"#utility.yul\":19194:19200   */\n      dup3\n        /* \"#utility.yul\":19190:19207   */\n      mul\n        /* \"#utility.yul\":19185:19188   */\n      dup6\n        /* \"#utility.yul\":19181:19208   */\n      add\n        /* \"#utility.yul\":19232:19316   */\n      tag_634\n        /* \"#utility.yul\":19310:19315   */\n      dup6\n        /* \"#utility.yul\":19232:19316   */\n      tag_430\n      jump\t// in\n    tag_634:\n        /* \"#utility.yul\":19339:19346   */\n      dup1\n        /* \"#utility.yul\":19370:19371   */\n      0x00\n        /* \"#utility.yul\":19355:19805   */\n    tag_635:\n        /* \"#utility.yul\":19380:19386   */\n      dup6\n        /* \"#utility.yul\":19377:19378   */\n      dup2\n        /* \"#utility.yul\":19374:19387   */\n      lt\n        /* \"#utility.yul\":19355:19805   */\n      iszero\n      tag_637\n      jumpi\n        /* \"#utility.yul\":19451:19460   */\n      dup5\n        /* \"#utility.yul\":19445:19449   */\n      dup5\n        /* \"#utility.yul\":19441:19461   */\n      sub\n        /* \"#utility.yul\":19436:19439   */\n      dup10\n        /* \"#utility.yul\":19429:19462   */\n      mstore\n        /* \"#utility.yul\":19502:19508   */\n      dup2\n        /* \"#utility.yul\":19496:19509   */\n      mload\n        /* \"#utility.yul\":19530:19650   */\n      tag_638\n        /* \"#utility.yul\":19645:19649   */\n      dup6\n        /* \"#utility.yul\":19630:19643   */\n      dup3\n        /* \"#utility.yul\":19530:19650   */\n      tag_432\n      jump\t// in\n    tag_638:\n        /* \"#utility.yul\":19522:19650   */\n      swap5\n      pop\n        /* \"#utility.yul\":19673:19761   */\n      tag_639\n        /* \"#utility.yul\":19754:19760   */\n      dup4\n        /* \"#utility.yul\":19673:19761   */\n      tag_433\n      jump\t// in\n    tag_639:\n        /* \"#utility.yul\":19663:19761   */\n      swap3\n      pop\n        /* \"#utility.yul\":19790:19794   */\n      0x20\n        /* \"#utility.yul\":19785:19788   */\n      dup11\n        /* \"#utility.yul\":19781:19795   */\n      add\n        /* \"#utility.yul\":19774:19795   */\n      swap10\n      pop\n        /* \"#utility.yul\":19415:19805   */\n      pop\n        /* \"#utility.yul\":19402:19403   */\n      0x01\n        /* \"#utility.yul\":19399:19400   */\n      dup2\n        /* \"#utility.yul\":19395:19404   */\n      add\n        /* \"#utility.yul\":19390:19404   */\n      swap1\n      pop\n        /* \"#utility.yul\":19355:19805   */\n      jump(tag_635)\n    tag_637:\n        /* \"#utility.yul\":19359:19373   */\n      pop\n        /* \"#utility.yul\":19821:19825   */\n      dup3\n        /* \"#utility.yul\":19814:19825   */\n      swap8\n      pop\n        /* \"#utility.yul\":19841:19844   */\n      dup8\n        /* \"#utility.yul\":19834:19844   */\n      swap6\n      pop\n        /* \"#utility.yul\":18895:19850   */\n      pop\n      pop\n      pop\n      pop\n      pop\n        /* \"#utility.yul\":18715:19850   */\n      swap3\n      swap2\n      pop\n      pop\n      jump\t// out\n        /* \"#utility.yul\":19856:20341   */\n    tag_71:\n        /* \"#utility.yul\":20055:20059   */\n      0x00\n        /* \"#utility.yul\":20093:20095   */\n      0x20\n        /* \"#utility.yul\":20082:20091   */\n      dup3\n        /* \"#utility.yul\":20078:20096   */\n      add\n        /* \"#utility.yul\":20070:20096   */\n      swap1\n      pop\n        /* \"#utility.yul\":20142:20151   */\n      dup2\n        /* \"#utility.yul\":20136:20140   */\n      dup2\n        /* \"#utility.yul\":20132:20152   */\n      sub\n        /* \"#utility.yul\":20128:20129   */\n      0x00\n        /* \"#utility.yul\":20117:20126   */\n      dup4\n        /* \"#utility.yul\":20113:20130   */\n      add\n        /* \"#utility.yul\":20106:20153   */\n      mstore\n        /* \"#utility.yul\":20170:20334   */\n      tag_641\n        /* \"#utility.yul\":20329:20333   */\n      dup2\n        /* \"#utility.yul\":20320:20326   */\n      dup5\n        /* \"#utility.yul\":20170:20334   */\n      tag_434\n      jump\t// in\n    tag_641:\n        /* \"#utility.yul\":20162:20334   */\n      swap1\n      pop\n        /* \"#utility.yul\":19856:20341   */\n      swap3\n      swap2\n      pop\n      pop\n      jump\t// out\n        /* \"#utility.yul\":20347:20527   */\n    tag_435:\n        /* \"#utility.yul\":20395:20472   */\n      0x4e487b7100000000000000000000000000000000000000000000000000000000\n        /* \"#utility.yul\":20392:20393   */\n      0x00\n        /* \"#utility.yul\":20385:20473   */\n      mstore\n        /* \"#utility.yul\":20492:20496   */\n      0x22\n        /* \"#utility.yul\":20489:20490   */\n      0x04\n        /* \"#utility.yul\":20482:20497   */\n      mstore\n        /* \"#utility.yul\":20516:20520   */\n      0x24\n        /* \"#utility.yul\":20513:20514   */\n      0x00\n        /* \"#utility.yul\":20506:20521   */\n      revert\n        /* \"#utility.yul\":20533:20853   */\n    tag_78:\n        /* \"#utility.yul\":20577:20583   */\n      0x00\n        /* \"#utility.yul\":20614:20615   */\n      0x02\n        /* \"#utility.yul\":20608:20612   */\n      dup3\n        /* \"#utility.yul\":20604:20616   */\n      div\n        /* \"#utility.yul\":20594:20616   */\n      swap1\n      pop\n        /* \"#utility.yul\":20661:20662   */\n      0x01\n        /* \"#utility.yul\":20655:20659   */\n      dup3\n        /* \"#utility.yul\":20651:20663   */\n      and\n        /* \"#utility.yul\":20682:20700   */\n      dup1\n        /* \"#utility.yul\":20672:20753   */\n      tag_644\n      jumpi\n        /* \"#utility.yul\":20738:20742   */\n      0x7f\n        /* \"#utility.yul\":20730:20736   */\n      dup3\n        /* \"#utility.yul\":20726:20743   */\n      and\n        /* \"#utility.yul\":20716:20743   */\n      swap2\n      pop\n        /* \"#utility.yul\":20672:20753   */\n    tag_644:\n        /* \"#utility.yul\":20800:20802   */\n      0x20\n        /* \"#utility.yul\":20792:20798   */\n      dup3\n        /* \"#utility.yul\":20789:20803   */\n      lt\n        /* \"#utility.yul\":20769:20787   */\n      dup2\n        /* \"#utility.yul\":20766:20804   */\n      sub\n        /* \"#utility.yul\":20763:20847   */\n      tag_645\n      jumpi\n        /* \"#utility.yul\":20819:20837   */\n      tag_646\n      tag_435\n      jump\t// in\n    tag_646:\n        /* \"#utility.yul\":20763:20847   */\n    tag_645:\n        /* \"#utility.yul\":20584:20853   */\n      pop\n        /* \"#utility.yul\":20533:20853   */\n      swap2\n      swap1\n      pop\n      jump\t// out\n        /* \"#utility.yul\":20859:21000   */\n    tag_436:\n        /* \"#utility.yul\":20908:20912   */\n      0x00\n        /* \"#utility.yul\":20931:20934   */\n      dup2\n        /* \"#utility.yul\":20923:20934   */\n      swap1\n      pop\n        /* \"#utility.yul\":20954:20957   */\n      dup2\n        /* \"#utility.yul\":20951:20952   */\n      0x00\n        /* \"#utility.yul\":20944:20958   */\n      mstore\n        /* \"#utility.yul\":20988:20992   */\n      0x20\n        /* \"#utility.yul\":20985:20986   */\n      0x00\n        /* \"#utility.yul\":20975:20993   */\n      keccak256\n        /* \"#utility.yul\":20967:20993   */\n      swap1\n      pop\n        /* \"#utility.yul\":20859:21000   */\n      swap2\n      swap1\n      pop\n      jump\t// out\n        /* \"#utility.yul\":21006:21099   */\n    tag_437:\n        /* \"#utility.yul\":21043:21049   */\n      0x00\n        /* \"#utility.yul\":21090:21092   */\n      0x20\n        /* \"#utility.yul\":21085:21087   */\n      0x1f\n        /* \"#utility.yul\":21078:21083   */\n      dup4\n        /* \"#utility.yul\":21074:21088   */\n      add\n        /* \"#utility.yul\":21070:21093   */\n      div\n        /* \"#utility.yul\":21060:21093   */\n      swap1\n      pop\n        /* \"#utility.yul\":21006:21099   */\n      swap2\n      swap1\n      pop\n      jump\t// out\n        /* \"#utility.yul\":21105:21212   */\n    tag_438:\n        /* \"#utility.yul\":21149:21157   */\n      0x00\n        /* \"#utility.yul\":21199:21204   */\n      dup3\n        /* \"#utility.yul\":21193:21197   */\n      dup3\n        /* \"#utility.yul\":21189:21205   */\n      shl\n        /* \"#utility.yul\":21168:21205   */\n      swap1\n      pop\n        /* \"#utility.yul\":21105:21212   */\n      swap3\n      swap2\n      pop\n      pop\n      jump\t// out\n        /* \"#utility.yul\":21218:21611   */\n    tag_439:\n        /* \"#utility.yul\":21287:21293   */\n      0x00\n        /* \"#utility.yul\":21337:21338   */\n      0x08\n        /* \"#utility.yul\":21325:21335   */\n      dup4\n        /* \"#utility.yul\":21321:21339   */\n      mul\n        /* \"#utility.yul\":21360:21457   */\n      tag_651\n        /* \"#utility.yul\":21390:21456   */\n      0xffffffffffffffffffffffffffffffffffffffffffffffffffffffffffffffff\n        /* \"#utility.yul\":21379:21388   */\n      dup3\n        /* \"#utility.yul\":21360:21457   */\n      tag_438\n      jump\t// in\n    tag_651:\n        /* \"#utility.yul\":21478:21517   */\n      tag_652\n        /* \"#utility.yul\":21508:21516   */\n      dup7\n        /* \"#utility.yul\":21497:21506   */\n      dup4\n        /* \"#utility.yul\":21478:21517   */\n      tag_438\n      jump\t// in\n    tag_652:\n        /* \"#utility.yul\":21466:21517   */\n      swap6\n      pop\n        /* \"#utility.yul\":21550:21554   */\n      dup1\n        /* \"#utility.yul\":21546:21555   */\n      not\n        /* \"#utility.yul\":21539:21544   */\n      dup5\n        /* \"#utility.yul\":21535:21556   */\n      and\n        /* \"#utility.yul\":21526:21556   */\n      swap4\n      pop\n        /* \"#utility.yul\":21599:21603   */\n      dup1\n        /* \"#utility.yul\":21589:21597   */\n      dup7\n        /* \"#utility.yul\":21585:21604   */\n      and\n        /* \"#utility.yul\":21578:21583   */\n      dup5\n        /* \"#utility.yul\":21575:21605   */\n      or\n        /* \"#utility.yul\":21565:21605   */\n      swap3\n      pop\n        /* \"#utility.yul\":21294:21611   */\n      pop\n      pop\n        /* \"#utility.yul\":21218:21611   */\n      swap4\n      swap3\n      pop\n      pop\n      pop\n      jump\t// out\n        /* \"#utility.yul\":21617:21677   */\n    tag_440:\n        /* \"#utility.yul\":21645:21648   */\n      0x00\n        /* \"#utility.yul\":21666:21671   */\n      dup2\n        /* \"#utility.yul\":21659:21671   */\n      swap1\n      pop\n        /* \"#utility.yul\":21617:21677   */\n      swap2\n      swap1\n      pop\n      jump\t// out\n        /* \"#utility.yul\":21683:21825   */\n    tag_441:\n        /* \"#utility.yul\":21733:21742   */\n      0x00\n        /* \"#utility.yul\":21766:21819   */\n      tag_655\n        /* \"#utility.yul\":21784:21818   */\n      tag_656\n        /* \"#utility.yul\":21793:21817   */\n      tag_657\n        /* \"#utility.yul\":21811:21816   */\n      dup5\n        /* \"#utility.yul\":21793:21817   */\n      tag_423\n      jump\t// in\n    tag_657:\n        /* \"#utility.yul\":21784:21818   */\n      tag_440\n      jump\t// in\n    tag_656:\n        /* \"#utility.yul\":21766:21819   */\n      tag_423\n      jump\t// in\n    tag_655:\n        /* \"#utility.yul\":21753:21819   */\n      swap1\n      pop\n        /* \"#utility.yul\":21683:21825   */\n      swap2\n      swap1\n      pop\n      jump\t// out\n        /* \"#utility.yul\":21831:21906   */\n    tag_442:\n        /* \"#utility.yul\":21874:21877   */\n      0x00\n        /* \"#utility.yul\":21895:21900   */\n      dup2\n        /* \"#utility.yul\":21888:21900   */\n      swap1\n      pop\n        /* \"#utility.yul\":21831:21906   */\n      swap2\n      swap1\n      pop\n      jump\t// out\n        /* \"#utility.yul\":21912:22181   */\n    tag_443:\n        /* \"#utility.yul\":22022:22061   */\n      tag_660\n        /* \"#utility.yul\":22053:22060   */\n      dup4\n        /* \"#utility.yul\":22022:22061   */\n      tag_441\n      jump\t// in\n    tag_660:\n        /* \"#utility.yul\":22083:22174   */\n      tag_661\n        /* \"#utility.yul\":22132:22173   */\n      tag_662\n        /* \"#utility.yul\":22156:22172   */\n      dup3\n        /* \"#utility.yul\":22132:22173   */\n      tag_442\n      jump\t// in\n    tag_662:\n        /* \"#utility.yul\":22124:22130   */\n      dup5\n        /* \"#utility.yul\":22117:22121   */\n      dup5\n        /* \"#utility.yul\":22111:22122   */\n      sload\n        /* \"#utility.yul\":22083:22174   */\n      tag_439\n      jump\t// in\n    tag_661:\n        /* \"#utility.yul\":22077:22081   */\n      dup3\n        /* \"#utility.yul\":22070:22175   */\n      sstore\n        /* \"#utility.yul\":21988:22181   */\n      pop\n        /* \"#utility.yul\":21912:22181   */\n      pop\n      pop\n      pop\n      jump\t// out\n        /* \"#utility.yul\":22187:22260   */\n    tag_444:\n        /* \"#utility.yul\":22232:22235   */\n      0x00\n        /* \"#utility.yul\":22187:22260   */\n      swap1\n      jump\t// out\n        /* \"#utility.yul\":22266:22455   */\n    tag_445:\n        /* \"#utility.yul\":22343:22375   */\n      tag_665\n      tag_444\n      jump\t// in\n    tag_665:\n        /* \"#utility.yul\":22384:22449   */\n      tag_666\n        /* \"#utility.yul\":22442:22448   */\n      dup2\n        /* \"#utility.yul\":22434:22440   */\n      dup5\n        /* \"#utility.yul\":22428:22432   */\n      dup5\n        /* \"#utility.yul\":22384:22449   */\n      tag_443\n      jump\t// in\n    tag_666:\n        /* \"#utility.yul\":22319:22455   */\n      pop\n        /* \"#utility.yul\":22266:22455   */\n      pop\n      pop\n      jump\t// out\n        /* \"#utility.yul\":22461:22647   */\n    tag_446:\n        /* \"#utility.yul\":22521:22641   */\n    tag_668:\n        /* \"#utility.yul\":22538:22541   */\n      dup2\n        /* \"#utility.yul\":22531:22536   */\n      dup2\n        /* \"#utility.yul\":22528:22542   */\n      lt\n        /* \"#utility.yul\":22521:22641   */\n      iszero\n      tag_670\n      jumpi\n        /* \"#utility.yul\":22592:22631   */\n      tag_671\n        /* \"#utility.yul\":22629:22630   */\n      0x00\n        /* \"#utility.yul\":22622:22627   */\n      dup3\n        /* \"#utility.yul\":22592:22631   */\n      tag_445\n      jump\t// in\n    tag_671:\n        /* \"#utility.yul\":22565:22566   */\n      0x01\n        /* \"#utility.yul\":22558:22563   */\n      dup2\n        /* \"#utility.yul\":22554:22567   */\n      add\n        /* \"#utility.yul\":22545:22567   */\n      swap1\n      pop\n        /* \"#utility.yul\":22521:22641   */\n      jump(tag_668)\n    tag_670:\n        /* \"#utility.yul\":22461:22647   */\n      pop\n      pop\n      jump\t// out\n        /* \"#utility.yul\":22653:23196   */\n    tag_447:\n        /* \"#utility.yul\":22754:22756   */\n      0x1f\n        /* \"#utility.yul\":22749:22752   */\n      dup3\n        /* \"#utility.yul\":22746:22757   */\n      gt\n        /* \"#utility.yul\":22743:23189   */\n      iszero\n      tag_673\n      jumpi\n        /* \"#utility.yul\":22788:22826   */\n      tag_674\n        /* \"#utility.yul\":22820:22825   */\n      dup2\n        /* \"#utility.yul\":22788:22826   */\n      tag_436\n      jump\t// in\n    tag_674:\n        /* \"#utility.yul\":22872:22901   */\n      tag_675\n        /* \"#utility.yul\":22890:22900   */\n      dup5\n        /* \"#utility.yul\":22872:22901   */\n      tag_437\n      jump\t// in\n    tag_675:\n        /* \"#utility.yul\":22862:22870   */\n      dup2\n        /* \"#utility.yul\":22858:22902   */\n      add\n        /* \"#utility.yul\":23055:23057   */\n      0x20\n        /* \"#utility.yul\":23043:23053   */\n      dup6\n        /* \"#utility.yul\":23040:23058   */\n      lt\n        /* \"#utility.yul\":23037:23086   */\n      iszero\n      tag_676\n      jumpi\n        /* \"#utility.yul\":23076:23084   */\n      dup2\n        /* \"#utility.yul\":23061:23084   */\n      swap1\n      pop\n        /* \"#utility.yul\":23037:23086   */\n    tag_676:\n        /* \"#utility.yul\":23099:23179   */\n      tag_677\n        /* \"#utility.yul\":23155:23177   */\n      tag_678\n        /* \"#utility.yul\":23173:23176   */\n      dup6\n        /* \"#utility.yul\":23155:23177   */\n      tag_437\n      jump\t// in\n    tag_678:\n        /* \"#utility.yul\":23145:23153   */\n      dup4\n        /* \"#utility.yul\":23141:23178   */\n      add\n        /* \"#utility.yul\":23128:23139   */\n      dup3\n        /* \"#utility.yul\":23099:23179   */\n      tag_446\n      jump\t// in\n    tag_677:\n        /* \"#utility.yul\":22758:23189   */\n      pop\n      pop\n        /* \"#utility.yul\":22743:23189   */\n    tag_673:\n        /* \"#utility.yul\":22653:23196   */\n      pop\n      pop\n      pop\n      jump\t// out\n        /* \"#utility.yul\":23202:23319   */\n    tag_448:\n        /* \"#utility.yul\":23256:23264   */\n      0x00\n        /* \"#utility.yul\":23306:23311   */\n      dup3\n        /* \"#utility.yul\":23300:23304   */\n      dup3\n        /* \"#utility.yul\":23296:23312   */\n      shr\n        /* \"#utility.yul\":23275:23312   */\n      swap1\n      pop\n        /* \"#utility.yul\":23202:23319   */\n      swap3\n      swap2\n      pop\n      pop\n      jump\t// out\n        /* \"#utility.yul\":23325:23494   */\n    tag_449:\n        /* \"#utility.yul\":23369:23375   */\n      0x00\n        /* \"#utility.yul\":23402:23453   */\n      tag_681\n        /* \"#utility.yul\":23450:23451   */\n      0x00\n        /* \"#utility.yul\":23446:23452   */\n      not\n        /* \"#utility.yul\":23438:23443   */\n      dup5\n        /* \"#utility.yul\":23435:23436   */\n      0x08\n        /* \"#utility.yul\":23431:23444   */\n      mul\n        /* \"#utility.yul\":23402:23453   */\n      tag_448\n      jump\t// in\n    tag_681:\n        /* \"#utility.yul\":23398:23454   */\n      not\n        /* \"#utility.yul\":23483:23487   */\n      dup1\n        /* \"#utility.yul\":23477:23481   */\n      dup4\n        /* \"#utility.yul\":23473:23488   */\n      and\n        /* \"#utility.yul\":23463:23488   */\n      swap2\n      pop\n        /* \"#utility.yul\":23376:23494   */\n      pop\n        /* \"#utility.yul\":23325:23494   */\n      swap3\n      swap2\n      pop\n      pop\n      jump\t// out\n        /* \"#utility.yul\":23499:23794   */\n    tag_450:\n        /* \"#utility.yul\":23575:23579   */\n      0x00\n        /* \"#utility.yul\":23721:23750   */\n      tag_683\n        /* \"#utility.yul\":23746:23749   */\n      dup4\n        /* \"#utility.yul\":23740:23744   */\n      dup4\n        /* \"#utility.yul\":23721:23750   */\n      tag_449\n      jump\t// in\n    tag_683:\n        /* \"#utility.yul\":23713:23750   */\n      swap2\n      pop\n        /* \"#utility.yul\":23783:23786   */\n      dup3\n        /* \"#utility.yul\":23780:23781   */\n      0x02\n        /* \"#utility.yul\":23776:23787   */\n      mul\n        /* \"#utility.yul\":23770:23774   */\n      dup3\n        /* \"#utility.yul\":23767:23788   */\n      or\n        /* \"#utility.yul\":23759:23788   */\n      swap1\n      pop\n        /* \"#utility.yul\":23499:23794   */\n      swap3\n      swap2\n      pop\n      pop\n      jump\t// out\n        /* \"#utility.yul\":23799:25194   */\n    tag_105:\n        /* \"#utility.yul\":23916:23953   */\n      tag_685\n        /* \"#utility.yul\":23949:23952   */\n      dup3\n        /* \"#utility.yul\":23916:23953   */\n      tag_398\n      jump\t// in\n    tag_685:\n        /* \"#utility.yul\":24018:24036   */\n      0xffffffffffffffff\n        /* \"#utility.yul\":24010:24016   */\n      dup2\n        /* \"#utility.yul\":24007:24037   */\n      gt\n        /* \"#utility.yul\":24004:24060   */\n      iszero\n      tag_686\n      jumpi\n        /* \"#utility.yul\":24040:24058   */\n      tag_687\n      tag_416\n      jump\t// in\n    tag_687:\n        /* \"#utility.yul\":24004:24060   */\n    tag_686:\n        /* \"#utility.yul\":24084:24122   */\n      tag_688\n        /* \"#utility.yul\":24116:24120   */\n      dup3\n        /* \"#utility.yul\":24110:24121   */\n      sload\n        /* \"#utility.yul\":24084:24122   */\n      tag_78\n      jump\t// in\n    tag_688:\n        /* \"#utility.yul\":24169:24236   */\n      tag_689\n        /* \"#utility.yul\":24229:24235   */\n      dup3\n        /* \"#utility.yul\":24221:24227   */\n      dup3\n        /* \"#utility.yul\":24215:24219   */\n      dup6\n        /* \"#utility.yul\":24169:24236   */\n      tag_447\n      jump\t// in\n    tag_689:\n        /* \"#utility.yul\":24263:24264   */\n      0x00\n        /* \"#utility.yul\":24287:24291   */\n      0x20\n        /* \"#utility.yul\":24274:24291   */\n      swap1\n      pop\n        /* \"#utility.yul\":24319:24321   */\n      0x1f\n        /* \"#utility.yul\":24311:24317   */\n      dup4\n        /* \"#utility.yul\":24308:24322   */\n      gt\n        /* \"#utility.yul\":24336:24337   */\n      0x01\n        /* \"#utility.yul\":24331:24949   */\n      dup2\n      eq\n      tag_691\n      jumpi\n        /* \"#utility.yul\":24993:24994   */\n      0x00\n        /* \"#utility.yul\":25010:25016   */\n      dup5\n        /* \"#utility.yul\":25007:25084   */\n      iszero\n      tag_692\n      jumpi\n        /* \"#utility.yul\":25059:25068   */\n      dup3\n        /* \"#utility.yul\":25054:25057   */\n      dup8\n        /* \"#utility.yul\":25050:25069   */\n      add\n        /* \"#utility.yul\":25044:25070   */\n      mload\n        /* \"#utility.yul\":25035:25070   */\n      swap1\n      pop\n        /* \"#utility.yul\":25007:25084   */\n    tag_692:\n        /* \"#utility.yul\":25110:25177   */\n      tag_693\n        /* \"#utility.yul\":25170:25176   */\n      dup6\n        /* \"#utility.yul\":25163:25168   */\n      dup3\n        /* \"#utility.yul\":25110:25177   */\n      tag_450\n      jump\t// in\n    tag_693:\n        /* \"#utility.yul\":25104:25108   */\n      dup7\n        /* \"#utility.yul\":25097:25178   */\n      sstore\n        /* \"#utility.yul\":24966:25188   */\n      pop\n        /* \"#utility.yul\":24301:25188   */\n      jump(tag_690)\n        /* \"#utility.yul\":24331:24949   */\n    tag_691:\n        /* \"#utility.yul\":24383:24387   */\n      0x1f\n        /* \"#utility.yul\":24379:24388   */\n      not\n        /* \"#utility.yul\":24371:24377   */\n      dup5\n        /* \"#utility.yul\":24367:24389   */\n      and\n        /* \"#utility.yul\":24417:24454   */\n      tag_694\n        /* \"#utility.yul\":24449:24453   */\n      dup7\n        /* \"#utility.yul\":24417:24454   */\n      tag_436\n      jump\t// in\n    tag_694:\n        /* \"#utility.yul\":24476:24477   */\n      0x00\n        /* \"#utility.yul\":24490:24698   */\n    tag_695:\n        /* \"#utility.yul\":24504:24511   */\n      dup3\n        /* \"#utility.yul\":24501:24502   */\n      dup2\n        /* \"#utility.yul\":24498:24512   */\n      lt\n        /* \"#utility.yul\":24490:24698   */\n      iszero\n      tag_697\n      jumpi\n        /* \"#utility.yul\":24583:24592   */\n      dup5\n        /* \"#utility.yul\":24578:24581   */\n      dup10\n        /* \"#utility.yul\":24574:24593   */\n      add\n        /* \"#utility.yul\":24568:24594   */\n      mload\n        /* \"#utility.yul\":24560:24566   */\n      dup3\n        /* \"#utility.yul\":24553:24595   */\n      sstore\n        /* \"#utility.yul\":24634:24635   */\n      0x01\n        /* \"#utility.yul\":24626:24632   */\n      dup3\n        /* \"#utility.yul\":24622:24636   */\n      add\n        /* \"#utility.yul\":24612:24636   */\n      swap2\n      pop\n        /* \"#utility.yul\":24681:24683   */\n      0x20\n        /* \"#utility.yul\":24670:24679   */\n      dup6\n        /* \"#utility.yul\":24666:24684   */\n      add\n        /* \"#utility.yul\":24653:24684   */\n      swap5\n      pop\n        /* \"#utility.yul\":24527:24531   */\n      0x20\n        /* \"#utility.yul\":24524:24525   */\n      dup2\n        /* \"#utility.yul\":24520:24532   */\n      add\n        /* \"#utility.yul\":24515:24532   */\n      swap1\n      pop\n        /* \"#utility.yul\":24490:24698   */\n      jump(tag_695)\n    tag_697:\n        /* \"#utility.yul\":24726:24732   */\n      dup7\n        /* \"#utility.yul\":24717:24724   */\n      dup4\n        /* \"#utility.yul\":24714:24733   */\n      lt\n        /* \"#utility.yul\":24711:24890   */\n      iszero\n      tag_698\n      jumpi\n        /* \"#utility.yul\":24784:24793   */\n      dup5\n        /* \"#utility.yul\":24779:24782   */\n      dup10\n        /* \"#utility.yul\":24775:24794   */\n      add\n        /* \"#utility.yul\":24769:24795   */\n      mload\n        /* \"#utility.yul\":24827:24875   */\n      tag_699\n        /* \"#utility.yul\":24869:24873   */\n      0x1f\n        /* \"#utility.yul\":24861:24867   */\n      dup10\n        /* \"#utility.yul\":24857:24874   */\n      and\n        /* \"#utility.yul\":24846:24855   */\n      dup3\n        /* \"#utility.yul\":24827:24875   */\n      tag_449\n      jump\t// in\n    tag_699:\n        /* \"#utility.yul\":24819:24825   */\n      dup4\n        /* \"#utility.yul\":24812:24876   */\n      sstore\n        /* \"#utility.yul\":24734:24890   */\n      pop\n        /* \"#utility.yul\":24711:24890   */\n    tag_698:\n        /* \"#utility.yul\":24936:24937   */\n      0x01\n        /* \"#utility.yul\":24932:24933   */\n      0x02\n        /* \"#utility.yul\":24924:24930   */\n      dup9\n        /* \"#utility.yul\":24920:24934   */\n      mul\n        /* \"#utility.yul\":24916:24938   */\n      add\n        /* \"#utility.yul\":24910:24914   */\n      dup9\n        /* \"#utility.yul\":24903:24939   */\n      sstore\n        /* \"#utility.yul\":24338:24949   */\n      pop\n      pop\n      pop\n        /* \"#utility.yul\":24301:25188   */\n    tag_690:\n      pop\n        /* \"#utility.yul\":23891:25194   */\n      pop\n      pop\n      pop\n        /* \"#utility.yul\":23799:25194   */\n      pop\n      pop\n      jump\t// out\n        /* \"#utility.yul\":25200:25349   */\n    tag_451:\n        /* \"#utility.yul\":25249:25255   */\n      0x00\n        /* \"#utility.yul\":25283:25288   */\n      dup2\n        /* \"#utility.yul\":25277:25289   */\n      sload\n        /* \"#utility.yul\":25267:25289   */\n      swap1\n      pop\n        /* \"#utility.yul\":25309:25342   */\n      tag_701\n        /* \"#utility.yul\":25335:25341   */\n      dup2\n        /* \"#utility.yul\":25309:25342   */\n      tag_78\n      jump\t// in\n    tag_701:\n        /* \"#utility.yul\":25299:25342   */\n      swap1\n      pop\n        /* \"#utility.yul\":25200:25349   */\n      swap2\n      swap1\n      pop\n      jump\t// out\n        /* \"#utility.yul\":25355:26806   */\n    tag_109:\n        /* \"#utility.yul\":25466:25469   */\n      dup2\n        /* \"#utility.yul\":25460:25464   */\n      dup2\n        /* \"#utility.yul\":25457:25470   */\n      sub\n        /* \"#utility.yul\":25454:25480   */\n      tag_703\n      jumpi\n        /* \"#utility.yul\":25473:25478   */\n      pop\n      pop\n      jump(tag_702)\n        /* \"#utility.yul\":25454:25480   */\n    tag_703:\n        /* \"#utility.yul\":25504:25538   */\n      tag_704\n        /* \"#utility.yul\":25534:25537   */\n      dup3\n        /* \"#utility.yul\":25504:25538   */\n      tag_451\n      jump\t// in\n    tag_704:\n        /* \"#utility.yul\":25603:25621   */\n      0xffffffffffffffff\n        /* \"#utility.yul\":25595:25601   */\n      dup2\n        /* \"#utility.yul\":25592:25622   */\n      gt\n        /* \"#utility.yul\":25589:25645   */\n      iszero\n      tag_705\n      jumpi\n        /* \"#utility.yul\":25625:25643   */\n      tag_706\n      tag_416\n      jump\t// in\n    tag_706:\n        /* \"#utility.yul\":25589:25645   */\n    tag_705:\n        /* \"#utility.yul\":25669:25707   */\n      tag_707\n        /* \"#utility.yul\":25701:25705   */\n      dup3\n        /* \"#utility.yul\":25695:25706   */\n      sload\n        /* \"#utility.yul\":25669:25707   */\n      tag_78\n      jump\t// in\n    tag_707:\n        /* \"#utility.yul\":25754:25821   */\n      tag_708\n        /* \"#utility.yul\":25814:25820   */\n      dup3\n        /* \"#utility.yul\":25806:25812   */\n      dup3\n        /* \"#utility.yul\":25800:25804   */\n      dup6\n        /* \"#utility.yul\":25754:25821   */\n      tag_447\n      jump\t// in\n    tag_708:\n        /* \"#utility.yul\":25848:25849   */\n      0x00\n        /* \"#utility.yul\":25877:25879   */\n      0x1f\n        /* \"#utility.yul\":25869:25875   */\n      dup4\n        /* \"#utility.yul\":25866:25880   */\n      gt\n        /* \"#utility.yul\":25894:25895   */\n      0x01\n        /* \"#utility.yul\":25889:26561   */\n      dup2\n      eq\n      tag_710\n      jumpi\n        /* \"#utility.yul\":26605:26606   */\n      0x00\n        /* \"#utility.yul\":26622:26628   */\n      dup5\n        /* \"#utility.yul\":26619:26696   */\n      iszero\n      tag_711\n      jumpi\n        /* \"#utility.yul\":26671:26680   */\n      dup3\n        /* \"#utility.yul\":26666:26669   */\n      dup8\n        /* \"#utility.yul\":26662:26681   */\n      add\n        /* \"#utility.yul\":26656:26682   */\n      sload\n        /* \"#utility.yul\":26647:26682   */\n      swap1\n      pop\n        /* \"#utility.yul\":26619:26696   */\n    tag_711:\n        /* \"#utility.yul\":26722:26789   */\n      tag_712\n        /* \"#utility.yul\":26782:26788   */\n      dup6\n        /* \"#utility.yul\":26775:26780   */\n      dup3\n        /* \"#utility.yul\":26722:26789   */\n      tag_450\n      jump\t// in\n    tag_712:\n        /* \"#utility.yul\":26716:26720   */\n      dup7\n        /* \"#utility.yul\":26709:26790   */\n      sstore\n        /* \"#utility.yul\":26578:26800   */\n      pop\n        /* \"#utility.yul\":25859:26800   */\n      jump(tag_709)\n        /* \"#utility.yul\":25889:26561   */\n    tag_710:\n        /* \"#utility.yul\":25941:25945   */\n      0x1f\n        /* \"#utility.yul\":25937:25946   */\n      not\n        /* \"#utility.yul\":25929:25935   */\n      dup5\n        /* \"#utility.yul\":25925:25947   */\n      and\n        /* \"#utility.yul\":25967:26003   */\n      tag_713\n        /* \"#utility.yul\":25999:26002   */\n      dup8\n        /* \"#utility.yul\":25967:26003   */\n      tag_436\n      jump\t// in\n    tag_713:\n        /* \"#utility.yul\":25960:26003   */\n      swap7\n      pop\n        /* \"#utility.yul\":26030:26067   */\n      tag_714\n        /* \"#utility.yul\":26062:26066   */\n      dup7\n        /* \"#utility.yul\":26030:26067   */\n      tag_436\n      jump\t// in\n    tag_714:\n        /* \"#utility.yul\":26089:26090   */\n      0x00\n        /* \"#utility.yul\":26103:26310   */\n    tag_715:\n        /* \"#utility.yul\":26117:26124   */\n      dup3\n        /* \"#utility.yul\":26114:26115   */\n      dup2\n        /* \"#utility.yul\":26111:26125   */\n      lt\n        /* \"#utility.yul\":26103:26310   */\n      iszero\n      tag_717\n      jumpi\n        /* \"#utility.yul\":26196:26205   */\n      dup5\n        /* \"#utility.yul\":26191:26194   */\n      dup10\n        /* \"#utility.yul\":26187:26206   */\n      add\n        /* \"#utility.yul\":26181:26207   */\n      sload\n        /* \"#utility.yul\":26173:26179   */\n      dup3\n        /* \"#utility.yul\":26166:26208   */\n      sstore\n        /* \"#utility.yul\":26247:26248   */\n      0x01\n        /* \"#utility.yul\":26239:26245   */\n      dup3\n        /* \"#utility.yul\":26235:26249   */\n      add\n        /* \"#utility.yul\":26225:26249   */\n      swap2\n      pop\n        /* \"#utility.yul\":26294:26295   */\n      0x01\n        /* \"#utility.yul\":26283:26292   */\n      dup6\n        /* \"#utility.yul\":26279:26296   */\n      add\n        /* \"#utility.yul\":26266:26296   */\n      swap5\n      pop\n        /* \"#utility.yul\":26140:26144   */\n      0x20\n        /* \"#utility.yul\":26137:26138   */\n      dup2\n        /* \"#utility.yul\":26133:26145   */\n      add\n        /* \"#utility.yul\":26128:26145   */\n      swap1\n      pop\n        /* \"#utility.yul\":26103:26310   */\n      jump(tag_715)\n    tag_717:\n        /* \"#utility.yul\":26338:26344   */\n      dup7\n        /* \"#utility.yul\":26329:26336   */\n      dup4\n        /* \"#utility.yul\":26326:26345   */\n      lt\n        /* \"#utility.yul\":26323:26502   */\n      iszero\n      tag_718\n      jumpi\n        /* \"#utility.yul\":26396:26405   */\n      dup5\n        /* \"#utility.yul\":26391:26394   */\n      dup10\n        /* \"#utility.yul\":26387:26406   */\n      add\n        /* \"#utility.yul\":26381:26407   */\n      sload\n        /* \"#utility.yul\":26439:26487   */\n      tag_719\n        /* \"#utility.yul\":26481:26485   */\n      0x1f\n        /* \"#utility.yul\":26473:26479   */\n      dup10\n        /* \"#utility.yul\":26469:26486   */\n      and\n        /* \"#utility.yul\":26458:26467   */\n      dup3\n        /* \"#utility.yul\":26439:26487   */\n      tag_449\n      jump\t// in\n    tag_719:\n        /* \"#utility.yul\":26431:26437   */\n      dup4\n        /* \"#utility.yul\":26424:26488   */\n      sstore\n        /* \"#utility.yul\":26346:26502   */\n      pop\n        /* \"#utility.yul\":26323:26502   */\n    tag_718:\n        /* \"#utility.yul\":26548:26549   */\n      0x01\n        /* \"#utility.yul\":26544:26545   */\n      0x02\n        /* \"#utility.yul\":26536:26542   */\n      dup9\n        /* \"#utility.yul\":26532:26546   */\n      mul\n        /* \"#utility.yul\":26528:26550   */\n      add\n        /* \"#utility.yul\":26522:26526   */\n      dup9\n        /* \"#utility.yul\":26515:26551   */\n      sstore\n        /* \"#utility.yul\":25896:26561   */\n      pop\n      pop\n      pop\n        /* \"#utility.yul\":25859:26800   */\n    tag_709:\n      pop\n        /* \"#utility.yul\":25444:26806   */\n      pop\n      pop\n      pop\n        /* \"#utility.yul\":25355:26806   */\n      pop\n      pop\n    tag_702:\n      jump\t// out\n        /* \"#utility.yul\":26812:26960   */\n    tag_452:\n        /* \"#utility.yul\":26914:26925   */\n      0x00\n        /* \"#utility.yul\":26951:26954   */\n      dup2\n        /* \"#utility.yul\":26936:26954   */\n      swap1\n      pop\n        /* \"#utility.yul\":26812:26960   */\n      swap3\n      swap2\n      pop\n      pop\n      jump\t// out\n        /* \"#utility.yul\":26966:27120   */\n    tag_453:\n        /* \"#utility.yul\":27106:27112   */\n      0x4445414e00000000000000000000000000000000000000000000000000000000\n        /* \"#utility.yul\":27102:27103   */\n      0x00\n        /* \"#utility.yul\":27094:27100   */\n      dup3\n        /* \"#utility.yul\":27090:27104   */\n      add\n        /* \"#utility.yul\":27083:27113   */\n      mstore\n        /* \"#utility.yul\":26966:27120   */\n      pop\n      jump\t// out\n        /* \"#utility.yul\":27126:27526   */\n    tag_454:\n        /* \"#utility.yul\":27286:27289   */\n      0x00\n        /* \"#utility.yul\":27307:27391   */\n      tag_723\n        /* \"#utility.yul\":27389:27390   */\n      0x04\n        /* \"#utility.yul\":27384:27387   */\n      dup4\n        /* \"#utility.yul\":27307:27391   */\n      tag_452\n      jump\t// in\n    tag_723:\n        /* \"#utility.yul\":27300:27391   */\n      swap2\n      pop\n        /* \"#utility.yul\":27400:27493   */\n      tag_724\n        /* \"#utility.yul\":27489:27492   */\n      dup3\n        /* \"#utility.yul\":27400:27493   */\n      tag_453\n      jump\t// in\n    tag_724:\n        /* \"#utility.yul\":27518:27519   */\n      0x04\n        /* \"#utility.yul\":27513:27516   */\n      dup3\n        /* \"#utility.yul\":27509:27520   */\n      add\n        /* \"#utility.yul\":27502:27520   */\n      swap1\n      pop\n        /* \"#utility.yul\":27126:27526   */\n      swap2\n      swap1\n      pop\n      jump\t// out\n        /* \"#utility.yul\":27532:27913   */\n    tag_120:\n        /* \"#utility.yul\":27717:27720   */\n      0x00\n        /* \"#utility.yul\":27739:27887   */\n      tag_726\n        /* \"#utility.yul\":27883:27886   */\n      dup3\n        /* \"#utility.yul\":27739:27887   */\n      tag_454\n      jump\t// in\n    tag_726:\n        /* \"#utility.yul\":27732:27887   */\n      swap2\n      pop\n        /* \"#utility.yul\":27904:27907   */\n      dup2\n        /* \"#utility.yul\":27897:27907   */\n      swap1\n      pop\n        /* \"#utility.yul\":27532:27913   */\n      swap2\n      swap1\n      pop\n      jump\t// out\n        /* \"#utility.yul\":27919:28309   */\n    tag_455:\n        /* \"#utility.yul\":28025:28028   */\n      0x00\n        /* \"#utility.yul\":28053:28092   */\n      tag_728\n        /* \"#utility.yul\":28086:28091   */\n      dup3\n        /* \"#utility.yul\":28053:28092   */\n      tag_398\n      jump\t// in\n    tag_728:\n        /* \"#utility.yul\":28108:28197   */\n      tag_729\n        /* \"#utility.yul\":28190:28196   */\n      dup2\n        /* \"#utility.yul\":28185:28188   */\n      dup6\n        /* \"#utility.yul\":28108:28197   */\n      tag_452\n      jump\t// in\n    tag_729:\n        /* \"#utility.yul\":28101:28197   */\n      swap4\n      pop\n        /* \"#utility.yul\":28206:28271   */\n      tag_730\n        /* \"#utility.yul\":28264:28270   */\n      dup2\n        /* \"#utility.yul\":28259:28262   */\n      dup6\n        /* \"#utility.yul\":28252:28256   */\n      0x20\n        /* \"#utility.yul\":28245:28250   */\n      dup7\n        /* \"#utility.yul\":28241:28257   */\n      add\n        /* \"#utility.yul\":28206:28271   */\n      tag_400\n      jump\t// in\n    tag_730:\n        /* \"#utility.yul\":28296:28302   */\n      dup1\n        /* \"#utility.yul\":28291:28294   */\n      dup5\n        /* \"#utility.yul\":28287:28303   */\n      add\n        /* \"#utility.yul\":28280:28303   */\n      swap2\n      pop\n        /* \"#utility.yul\":28029:28309   */\n      pop\n        /* \"#utility.yul\":27919:28309   */\n      swap3\n      swap2\n      pop\n      pop\n      jump\t// out\n        /* \"#utility.yul\":28315:28590   */\n    tag_122:\n        /* \"#utility.yul\":28447:28450   */\n      0x00\n        /* \"#utility.yul\":28469:28564   */\n      tag_732\n        /* \"#utility.yul\":28560:28563   */\n      dup3\n        /* \"#utility.yul\":28551:28557   */\n      dup5\n        /* \"#utility.yul\":28469:28564   */\n      tag_455\n      jump\t// in\n    tag_732:\n        /* \"#utility.yul\":28462:28564   */\n      swap2\n      pop\n        /* \"#utility.yul\":28581:28584   */\n      dup2\n        /* \"#utility.yul\":28574:28584   */\n      swap1\n      pop\n        /* \"#utility.yul\":28315:28590   */\n      swap3\n      swap2\n      pop\n      pop\n      jump\t// out\n        /* \"#utility.yul\":28596:28749   */\n    tag_456:\n        /* \"#utility.yul\":28736:28741   */\n      0x484f440000000000000000000000000000000000000000000000000000000000\n        /* \"#utility.yul\":28732:28733   */\n      0x00\n        /* \"#utility.yul\":28724:28730   */\n      dup3\n        /* \"#utility.yul\":28720:28734   */\n      add\n        /* \"#utility.yul\":28713:28742   */\n      mstore\n        /* \"#utility.yul\":28596:28749   */\n      pop\n      jump\t// out\n        /* \"#utility.yul\":28755:29155   */\n    tag_457:\n        /* \"#utility.yul\":28915:28918   */\n      0x00\n        /* \"#utility.yul\":28936:29020   */\n      tag_735\n        /* \"#utility.yul\":29018:29019   */\n      0x03\n        /* \"#utility.yul\":29013:29016   */\n      dup4\n        /* \"#utility.yul\":28936:29020   */\n      tag_452\n      jump\t// in\n    tag_735:\n        /* \"#utility.yul\":28929:29020   */\n      swap2\n      pop\n        /* \"#utility.yul\":29029:29122   */\n      tag_736\n        /* \"#utility.yul\":29118:29121   */\n      dup3\n        /* \"#utility.yul\":29029:29122   */\n      tag_456\n      jump\t// in\n    tag_736:\n        /* \"#utility.yul\":29147:29148   */\n      0x03\n        /* \"#utility.yul\":29142:29145   */\n      dup3\n        /* \"#utility.yul\":29138:29149   */\n      add\n        /* \"#utility.yul\":29131:29149   */\n      swap1\n      pop\n        /* \"#utility.yul\":28755:29155   */\n      swap2\n      swap1\n      pop\n      jump\t// out\n        /* \"#utility.yul\":29161:29542   */\n    tag_126:\n        /* \"#utility.yul\":29346:29349   */\n      0x00\n        /* \"#utility.yul\":29368:29516   */\n      tag_738\n        /* \"#utility.yul\":29512:29515   */\n      dup3\n        /* \"#utility.yul\":29368:29516   */\n      tag_457\n      jump\t// in\n    tag_738:\n        /* \"#utility.yul\":29361:29516   */\n      swap2\n      pop\n        /* \"#utility.yul\":29533:29536   */\n      dup2\n        /* \"#utility.yul\":29526:29536   */\n      swap1\n      pop\n        /* \"#utility.yul\":29161:29542   */\n      swap2\n      swap1\n      pop\n      jump\t// out\n        /* \"#utility.yul\":29548:29703   */\n    tag_458:\n        /* \"#utility.yul\":29688:29695   */\n      0x5354414646000000000000000000000000000000000000000000000000000000\n        /* \"#utility.yul\":29684:29685   */\n      0x00\n        /* \"#utility.yul\":29676:29682   */\n      dup3\n        /* \"#utility.yul\":29672:29686   */\n      add\n        /* \"#utility.yul\":29665:29696   */\n      mstore\n        /* \"#utility.yul\":29548:29703   */\n      pop\n      jump\t// out\n        /* \"#utility.yul\":29709:30109   */\n    tag_459:\n        /* \"#utility.yul\":29869:29872   */\n      0x00\n        /* \"#utility.yul\":29890:29974   */\n      tag_741\n        /* \"#utility.yul\":29972:29973   */\n      0x05\n        /* \"#utility.yul\":29967:29970   */\n      dup4\n        /* \"#utility.yul\":29890:29974   */\n      tag_452\n      jump\t// in\n    tag_741:\n        /* \"#utility.yul\":29883:29974   */\n      swap2\n      pop\n        /* \"#utility.yul\":29983:30076   */\n      tag_742\n        /* \"#utility.yul\":30072:30075   */\n      dup3\n        /* \"#utility.yul\":29983:30076   */\n      tag_458\n      jump\t// in\n    tag_742:\n        /* \"#utility.yul\":30101:30102   */\n      0x05\n        /* \"#utility.yul\":30096:30099   */\n      dup3\n        /* \"#utility.yul\":30092:30103   */\n      add\n        /* \"#utility.yul\":30085:30103   */\n      swap1\n      pop\n        /* \"#utility.yul\":29709:30109   */\n      swap2\n      swap1\n      pop\n      jump\t// out\n        /* \"#utility.yul\":30115:30496   */\n    tag_131:\n        /* \"#utility.yul\":30300:30303   */\n      0x00\n        /* \"#utility.yul\":30322:30470   */\n      tag_744\n        /* \"#utility.yul\":30466:30469   */\n      dup3\n        /* \"#utility.yul\":30322:30470   */\n      tag_459\n      jump\t// in\n    tag_744:\n        /* \"#utility.yul\":30315:30470   */\n      swap2\n      pop\n        /* \"#utility.yul\":30487:30490   */\n      dup2\n        /* \"#utility.yul\":30480:30490   */\n      swap1\n      pop\n        /* \"#utility.yul\":30115:30496   */\n      swap2\n      swap1\n      pop\n      jump\t// out\n        /* \"#utility.yul\":30502:30659   */\n    tag_460:\n        /* \"#utility.yul\":30642:30651   */\n      0x53545544454e5400000000000000000000000000000000000000000000000000\n        /* \"#utility.yul\":30638:30639   */\n      0x00\n        /* \"#utility.yul\":30630:30636   */\n      dup3\n        /* \"#utility.yul\":30626:30640   */\n      add\n        /* \"#utility.yul\":30619:30652   */\n      mstore\n        /* \"#utility.yul\":30502:30659   */\n      pop\n      jump\t// out\n        /* \"#utility.yul\":30665:31065   */\n    tag_461:\n        /* \"#utility.yul\":30825:30828   */\n      0x00\n        /* \"#utility.yul\":30846:30930   */\n      tag_747\n        /* \"#utility.yul\":30928:30929   */\n      0x07\n        /* \"#utility.yul\":30923:30926   */\n      dup4\n        /* \"#utility.yul\":30846:30930   */\n      tag_452\n      jump\t// in\n    tag_747:\n        /* \"#utility.yul\":30839:30930   */\n      swap2\n      pop\n        /* \"#utility.yul\":30939:31032   */\n      tag_748\n        /* \"#utility.yul\":31028:31031   */\n      dup3\n        /* \"#utility.yul\":30939:31032   */\n      tag_460\n      jump\t// in\n    tag_748:\n        /* \"#utility.yul\":31057:31058   */\n      0x07\n        /* \"#utility.yul\":31052:31055   */\n      dup3\n        /* \"#utility.yul\":31048:31059   */\n      add\n        /* \"#utility.yul\":31041:31059   */\n      swap1\n      pop\n        /* \"#utility.yul\":30665:31065   */\n      swap2\n      swap1\n      pop\n      jump\t// out\n        /* \"#utility.yul\":31071:31452   */\n    tag_136:\n        /* \"#utility.yul\":31256:31259   */\n      0x00\n        /* \"#utility.yul\":31278:31426   */\n      tag_750\n        /* \"#utility.yul\":31422:31425   */\n      dup3\n        /* \"#utility.yul\":31278:31426   */\n      tag_461\n      jump\t// in\n    tag_750:\n        /* \"#utility.yul\":31271:31426   */\n      swap2\n      pop\n        /* \"#utility.yul\":31443:31446   */\n      dup2\n        /* \"#utility.yul\":31436:31446   */\n      swap1\n      pop\n        /* \"#utility.yul\":31071:31452   */\n      swap2\n      swap1\n      pop\n      jump\t// out\n        /* \"#utility.yul\":31458:31627   */\n    tag_462:\n        /* \"#utility.yul\":31542:31553   */\n      0x00\n        /* \"#utility.yul\":31576:31582   */\n      dup3\n        /* \"#utility.yul\":31571:31574   */\n      dup3\n        /* \"#utility.yul\":31564:31583   */\n      mstore\n        /* \"#utility.yul\":31616:31620   */\n      0x20\n        /* \"#utility.yul\":31611:31614   */\n      dup3\n        /* \"#utility.yul\":31607:31621   */\n      add\n        /* \"#utility.yul\":31592:31621   */\n      swap1\n      pop\n        /* \"#utility.yul\":31458:31627   */\n      swap3\n      swap2\n      pop\n      pop\n      jump\t// out\n        /* \"#utility.yul\":31633:31799   */\n    tag_463:\n        /* \"#utility.yul\":31773:31791   */\n      0x4d656d6265722052657175657374656400000000000000000000000000000000\n        /* \"#utility.yul\":31769:31770   */\n      0x00\n        /* \"#utility.yul\":31761:31767   */\n      dup3\n        /* \"#utility.yul\":31757:31771   */\n      add\n        /* \"#utility.yul\":31750:31792   */\n      mstore\n        /* \"#utility.yul\":31633:31799   */\n      pop\n      jump\t// out\n        /* \"#utility.yul\":31805:32171   */\n    tag_464:\n        /* \"#utility.yul\":31947:31950   */\n      0x00\n        /* \"#utility.yul\":31968:32035   */\n      tag_754\n        /* \"#utility.yul\":32032:32034   */\n      0x10\n        /* \"#utility.yul\":32027:32030   */\n      dup4\n        /* \"#utility.yul\":31968:32035   */\n      tag_462\n      jump\t// in\n    tag_754:\n        /* \"#utility.yul\":31961:32035   */\n      swap2\n      pop\n        /* \"#utility.yul\":32044:32137   */\n      tag_755\n        /* \"#utility.yul\":32133:32136   */\n      dup3\n        /* \"#utility.yul\":32044:32137   */\n      tag_463\n      jump\t// in\n    tag_755:\n        /* \"#utility.yul\":32162:32164   */\n      0x20\n        /* \"#utility.yul\":32157:32160   */\n      dup3\n        /* \"#utility.yul\":32153:32165   */\n      add\n        /* \"#utility.yul\":32146:32165   */\n      swap1\n      pop\n        /* \"#utility.yul\":31805:32171   */\n      swap2\n      swap1\n      pop\n      jump\t// out\n        /* \"#utility.yul\":32177:32596   */\n    tag_146:\n        /* \"#utility.yul\":32343:32347   */\n      0x00\n        /* \"#utility.yul\":32381:32383   */\n      0x20\n        /* \"#utility.yul\":32370:32379   */\n      dup3\n        /* \"#utility.yul\":32366:32384   */\n      add\n        /* \"#utility.yul\":32358:32384   */\n      swap1\n      pop\n        /* \"#utility.yul\":32430:32439   */\n      dup2\n        /* \"#utility.yul\":32424:32428   */\n      dup2\n        /* \"#utility.yul\":32420:32440   */\n      sub\n        /* \"#utility.yul\":32416:32417   */\n      0x00\n        /* \"#utility.yul\":32405:32414   */\n      dup4\n        /* \"#utility.yul\":32401:32418   */\n      add\n        /* \"#utility.yul\":32394:32441   */\n      mstore\n        /* \"#utility.yul\":32458:32589   */\n      tag_757\n        /* \"#utility.yul\":32584:32588   */\n      dup2\n        /* \"#utility.yul\":32458:32589   */\n      tag_464\n      jump\t// in\n    tag_757:\n        /* \"#utility.yul\":32450:32589   */\n      swap1\n      pop\n        /* \"#utility.yul\":32177:32596   */\n      swap2\n      swap1\n      pop\n      jump\t// out\n        /* \"#utility.yul\":32602:32764   */\n    tag_465:\n        /* \"#utility.yul\":32742:32756   */\n      0x4d656d6265722045786973740000000000000000000000000000000000000000\n        /* \"#utility.yul\":32738:32739   */\n      0x00\n        /* \"#utility.yul\":32730:32736   */\n      dup3\n        /* \"#utility.yul\":32726:32740   */\n      add\n        /* \"#utility.yul\":32719:32757   */\n      mstore\n        /* \"#utility.yul\":32602:32764   */\n      pop\n      jump\t// out\n        /* \"#utility.yul\":32770:33136   */\n    tag_466:\n        /* \"#utility.yul\":32912:32915   */\n      0x00\n        /* \"#utility.yul\":32933:33000   */\n      tag_760\n        /* \"#utility.yul\":32997:32999   */\n      0x0c\n        /* \"#utility.yul\":32992:32995   */\n      dup4\n        /* \"#utility.yul\":32933:33000   */\n      tag_462\n      jump\t// in\n    tag_760:\n        /* \"#utility.yul\":32926:33000   */\n      swap2\n      pop\n        /* \"#utility.yul\":33009:33102   */\n      tag_761\n        /* \"#utility.yul\":33098:33101   */\n      dup3\n        /* \"#utility.yul\":33009:33102   */\n      tag_465\n      jump\t// in\n    tag_761:\n        /* \"#utility.yul\":33127:33129   */\n      0x20\n        /* \"#utility.yul\":33122:33125   */\n      dup3\n        /* \"#utility.yul\":33118:33130   */\n      add\n        /* \"#utility.yul\":33111:33130   */\n      swap1\n      pop\n        /* \"#utility.yul\":32770:33136   */\n      swap2\n      swap1\n      pop\n      jump\t// out\n        /* \"#utility.yul\":33142:33561   */\n    tag_149:\n        /* \"#utility.yul\":33308:33312   */\n      0x00\n        /* \"#utility.yul\":33346:33348   */\n      0x20\n        /* \"#utility.yul\":33335:33344   */\n      dup3\n        /* \"#utility.yul\":33331:33349   */\n      add\n        /* \"#utility.yul\":33323:33349   */\n      swap1\n      pop\n        /* \"#utility.yul\":33395:33404   */\n      dup2\n        /* \"#utility.yul\":33389:33393   */\n      dup2\n        /* \"#utility.yul\":33385:33405   */\n      sub\n        /* \"#utility.yul\":33381:33382   */\n      0x00\n        /* \"#utility.yul\":33370:33379   */\n      dup4\n        /* \"#utility.yul\":33366:33383   */\n      add\n        /* \"#utility.yul\":33359:33406   */\n      mstore\n        /* \"#utility.yul\":33423:33554   */\n      tag_763\n        /* \"#utility.yul\":33549:33553   */\n      dup2\n        /* \"#utility.yul\":33423:33554   */\n      tag_466\n      jump\t// in\n    tag_763:\n        /* \"#utility.yul\":33415:33554   */\n      swap1\n      pop\n        /* \"#utility.yul\":33142:33561   */\n      swap2\n      swap1\n      pop\n      jump\t// out\n        /* \"#utility.yul\":33567:33742   */\n    tag_467:\n        /* \"#utility.yul\":33707:33734   */\n      0x596f75206e65656420746f205265717565737420466972737400000000000000\n        /* \"#utility.yul\":33703:33704   */\n      0x00\n        /* \"#utility.yul\":33695:33701   */\n      dup3\n        /* \"#utility.yul\":33691:33705   */\n      add\n        /* \"#utility.yul\":33684:33735   */\n      mstore\n        /* \"#utility.yul\":33567:33742   */\n      pop\n      jump\t// out\n        /* \"#utility.yul\":33748:34114   */\n    tag_468:\n        /* \"#utility.yul\":33890:33893   */\n      0x00\n        /* \"#utility.yul\":33911:33978   */\n      tag_766\n        /* \"#utility.yul\":33975:33977   */\n      0x19\n        /* \"#utility.yul\":33970:33973   */\n      dup4\n        /* \"#utility.yul\":33911:33978   */\n      tag_462\n      jump\t// in\n    tag_766:\n        /* \"#utility.yul\":33904:33978   */\n      swap2\n      pop\n        /* \"#utility.yul\":33987:34080   */\n      tag_767\n        /* \"#utility.yul\":34076:34079   */\n      dup3\n        /* \"#utility.yul\":33987:34080   */\n      tag_467\n      jump\t// in\n    tag_767:\n        /* \"#utility.yul\":34105:34107   */\n      0x20\n        /* \"#utility.yul\":34100:34103   */\n      dup3\n        /* \"#utility.yul\":34096:34108   */\n      add\n        /* \"#utility.yul\":34089:34108   */\n      swap1\n      pop\n        /* \"#utility.yul\":33748:34114   */\n      swap2\n      swap1\n      pop\n      jump\t// out\n        /* \"#utility.yul\":34120:34539   */\n    tag_166:\n        /* \"#utility.yul\":34286:34290   */\n      0x00\n        /* \"#utility.yul\":34324:34326   */\n      0x20\n        /* \"#utility.yul\":34313:34322   */\n      dup3\n        /* \"#utility.yul\":34309:34327   */\n      add\n        /* \"#utility.yul\":34301:34327   */\n      swap1\n      pop\n        /* \"#utility.yul\":34373:34382   */\n      dup2\n        /* \"#utility.yul\":34367:34371   */\n      dup2\n        /* \"#utility.yul\":34363:34383   */\n      sub\n        /* \"#utility.yul\":34359:34360   */\n      0x00\n        /* \"#utility.yul\":34348:34357   */\n      dup4\n        /* \"#utility.yul\":34344:34361   */\n      add\n        /* \"#utility.yul\":34337:34384   */\n      mstore\n        /* \"#utility.yul\":34401:34532   */\n      tag_769\n        /* \"#utility.yul\":34527:34531   */\n      dup2\n        /* \"#utility.yul\":34401:34532   */\n      tag_468\n      jump\t// in\n    tag_769:\n        /* \"#utility.yul\":34393:34532   */\n      swap1\n      pop\n        /* \"#utility.yul\":34120:34539   */\n      swap2\n      swap1\n      pop\n      jump\t// out\n        /* \"#utility.yul\":34545:34774   */\n    tag_469:\n        /* \"#utility.yul\":34685:34719   */\n      0x596f752063616e277420617070726f6f766520736f6d656f6e652061626f7665\n        /* \"#utility.yul\":34681:34682   */\n      0x00\n        /* \"#utility.yul\":34673:34679   */\n      dup3\n        /* \"#utility.yul\":34669:34683   */\n      add\n        /* \"#utility.yul\":34662:34720   */\n      mstore\n        /* \"#utility.yul\":34754:34766   */\n      0x207468616e20796f752e00000000000000000000000000000000000000000000\n        /* \"#utility.yul\":34749:34751   */\n      0x20\n        /* \"#utility.yul\":34741:34747   */\n      dup3\n        /* \"#utility.yul\":34737:34752   */\n      add\n        /* \"#utility.yul\":34730:34767   */\n      mstore\n        /* \"#utility.yul\":34545:34774   */\n      pop\n      jump\t// out\n        /* \"#utility.yul\":34780:35146   */\n    tag_470:\n        /* \"#utility.yul\":34922:34925   */\n      0x00\n        /* \"#utility.yul\":34943:35010   */\n      tag_772\n        /* \"#utility.yul\":35007:35009   */\n      0x2a\n        /* \"#utility.yul\":35002:35005   */\n      dup4\n        /* \"#utility.yul\":34943:35010   */\n      tag_462\n      jump\t// in\n    tag_772:\n        /* \"#utility.yul\":34936:35010   */\n      swap2\n      pop\n        /* \"#utility.yul\":35019:35112   */\n      tag_773\n        /* \"#utility.yul\":35108:35111   */\n      dup3\n        /* \"#utility.yul\":35019:35112   */\n      tag_469\n      jump\t// in\n    tag_773:\n        /* \"#utility.yul\":35137:35139   */\n      0x40\n        /* \"#utility.yul\":35132:35135   */\n      dup3\n        /* \"#utility.yul\":35128:35140   */\n      add\n        /* \"#utility.yul\":35121:35140   */\n      swap1\n      pop\n        /* \"#utility.yul\":34780:35146   */\n      swap2\n      swap1\n      pop\n      jump\t// out\n        /* \"#utility.yul\":35152:35571   */\n    tag_291:\n        /* \"#utility.yul\":35318:35322   */\n      0x00\n        /* \"#utility.yul\":35356:35358   */\n      0x20\n        /* \"#utility.yul\":35345:35354   */\n      dup3\n        /* \"#utility.yul\":35341:35359   */\n      add\n        /* \"#utility.yul\":35333:35359   */\n      swap1\n      pop\n        /* \"#utility.yul\":35405:35414   */\n      dup2\n        /* \"#utility.yul\":35399:35403   */\n      dup2\n        /* \"#utility.yul\":35395:35415   */\n      sub\n        /* \"#utility.yul\":35391:35392   */\n      0x00\n        /* \"#utility.yul\":35380:35389   */\n      dup4\n        /* \"#utility.yul\":35376:35393   */\n      add\n        /* \"#utility.yul\":35369:35416   */\n      mstore\n        /* \"#utility.yul\":35433:35564   */\n      tag_775\n        /* \"#utility.yul\":35559:35563   */\n      dup2\n        /* \"#utility.yul\":35433:35564   */\n      tag_470\n      jump\t// in\n    tag_775:\n        /* \"#utility.yul\":35425:35564   */\n      swap1\n      pop\n        /* \"#utility.yul\":35152:35571   */\n      swap2\n      swap1\n      pop\n      jump\t// out\n        /* \"#utility.yul\":35577:35757   */\n    tag_471:\n        /* \"#utility.yul\":35625:35702   */\n      0x4e487b7100000000000000000000000000000000000000000000000000000000\n        /* \"#utility.yul\":35622:35623   */\n      0x00\n        /* \"#utility.yul\":35615:35703   */\n      mstore\n        /* \"#utility.yul\":35722:35726   */\n      0x11\n        /* \"#utility.yul\":35719:35720   */\n      0x04\n        /* \"#utility.yul\":35712:35727   */\n      mstore\n        /* \"#utility.yul\":35746:35750   */\n      0x24\n        /* \"#utility.yul\":35743:35744   */\n      0x00\n        /* \"#utility.yul\":35736:35751   */\n      revert\n        /* \"#utility.yul\":35763:35957   */\n    tag_294:\n        /* \"#utility.yul\":35803:35807   */\n      0x00\n        /* \"#utility.yul\":35823:35843   */\n      tag_778\n        /* \"#utility.yul\":35841:35842   */\n      dup3\n        /* \"#utility.yul\":35823:35843   */\n      tag_423\n      jump\t// in\n    tag_778:\n        /* \"#utility.yul\":35818:35843   */\n      swap2\n      pop\n        /* \"#utility.yul\":35857:35877   */\n      tag_779\n        /* \"#utility.yul\":35875:35876   */\n      dup4\n        /* \"#utility.yul\":35857:35877   */\n      tag_423\n      jump\t// in\n    tag_779:\n        /* \"#utility.yul\":35852:35877   */\n      swap3\n      pop\n        /* \"#utility.yul\":35901:35902   */\n      dup3\n        /* \"#utility.yul\":35898:35899   */\n      dup3\n        /* \"#utility.yul\":35894:35903   */\n      sub\n        /* \"#utility.yul\":35886:35903   */\n      swap1\n      pop\n        /* \"#utility.yul\":35925:35926   */\n      dup2\n        /* \"#utility.yul\":35919:35923   */\n      dup2\n        /* \"#utility.yul\":35916:35927   */\n      gt\n        /* \"#utility.yul\":35913:35950   */\n      iszero\n      tag_780\n      jumpi\n        /* \"#utility.yul\":35930:35948   */\n      tag_781\n      tag_471\n      jump\t// in\n    tag_781:\n        /* \"#utility.yul\":35913:35950   */\n    tag_780:\n        /* \"#utility.yul\":35763:35957   */\n      swap3\n      swap2\n      pop\n      pop\n      jump\t// out\n        /* \"#utility.yul\":35963:36143   */\n    tag_297:\n        /* \"#utility.yul\":36011:36088   */\n      0x4e487b7100000000000000000000000000000000000000000000000000000000\n        /* \"#utility.yul\":36008:36009   */\n      0x00\n        /* \"#utility.yul\":36001:36089   */\n      mstore\n        /* \"#utility.yul\":36108:36112   */\n      0x32\n        /* \"#utility.yul\":36105:36106   */\n      0x04\n        /* \"#utility.yul\":36098:36113   */\n      mstore\n        /* \"#utility.yul\":36132:36136   */\n      0x24\n        /* \"#utility.yul\":36129:36130   */\n      0x00\n        /* \"#utility.yul\":36122:36137   */\n      revert\n        /* \"#utility.yul\":36149:36329   */\n    tag_308:\n        /* \"#utility.yul\":36197:36274   */\n      0x4e487b7100000000000000000000000000000000000000000000000000000000\n        /* \"#utility.yul\":36194:36195   */\n      0x00\n        /* \"#utility.yul\":36187:36275   */\n      mstore\n        /* \"#utility.yul\":36294:36298   */\n      0x31\n        /* \"#utility.yul\":36291:36292   */\n      0x04\n        /* \"#utility.yul\":36284:36299   */\n      mstore\n        /* \"#utility.yul\":36318:36322   */\n      0x24\n        /* \"#utility.yul\":36315:36316   */\n      0x00\n        /* \"#utility.yul\":36308:36323   */\n      revert\n\n    auxdata: 0xa26469706673582212201d830ad05d2e3397e6e3dfd581e802a606d3ef24c427f8d323764ad8ffb864c464736f6c63430008100033\n}\n","bytecode":{"linkReferences":{},"object":"608060405260008055600060015534801561001957600080fd5b5061458d806100296000396000f3fe60806040526004361061009c5760003560e01c8063529d379711610064578063529d3797146101aa57806364e47536146101d3578063a9e10bf214610210578063bafa08c11461021a578063e070dd1214610257578063e473f6cd146102805761009c565b80631e0f71fe146100a157806328538949146100de57806335a6861a1461011b57806339fec887146101585780634cd6f25e14610181575b600080fd5b3480156100ad57600080fd5b506100c860048036038101906100c39190613464565b6102bd565b6040516100d59190613683565b60405180910390f35b3480156100ea57600080fd5b50610105600480360381019061010091906136d1565b61058a565b6040516101129190613683565b60405180910390f35b34801561012757600080fd5b50610142600480360381019061013d91906136d1565b61072e565b60405161014f919061370d565b60405180910390f35b34801561016457600080fd5b5061017f600480360381019061017a919061385d565b610740565b005b34801561018d57600080fd5b506101a860048036038101906101a391906138cc565b610b55565b005b3480156101b657600080fd5b506101d160048036038101906101cc919061399b565b611525565b005b3480156101df57600080fd5b506101fa60048036038101906101f591906136d1565b6117f7565b604051610207919061370d565b60405180910390f35b610218611864565b005b34801561022657600080fd5b50610241600480360381019061023c91906139db565b611866565b60405161024e9190613b58565b60405180910390f35b34801561026357600080fd5b5061027e6004803603810190610279919061399b565b61200e565b005b34801561028c57600080fd5b506102a760048036038101906102a29190613464565b612a2b565b6040516102b49190613cda565b60405180910390f35b60608115610427576014805480602002602001604051908101604052809291908181526020016000905b8282101561041c578382906000526020600020906002020160405180606001604052908160008201805461031a90613d2b565b80601f016020809104026020016040519081016040528092919081815260200182805461034690613d2b565b80156103935780601f1061036857610100808354040283529160200191610393565b820191906000526020600020905b81548152906001019060200180831161037657829003601f168201915b505050505081526020016001820160009054906101000a900473ffffffffffffffffffffffffffffffffffffffff1673ffffffffffffffffffffffffffffffffffffffff1673ffffffffffffffffffffffffffffffffffffffff1681526020016001820160149054906101000a900460ff161515151581525050815260200190600101906102e7565b505050509050610585565b6012805480602002602001604051908101604052809291908181526020016000905b8282101561057e578382906000526020600020906002020160405180606001604052908160008201805461047c90613d2b565b80601f01602080910402602001604051908101604052809291908181526020018280546104a890613d2b565b80156104f55780601f106104ca576101008083540402835291602001916104f5565b820191906000526020600020905b8154815290600101906020018083116104d857829003601f168201915b505050505081526020016001820160009054906101000a900473ffffffffffffffffffffffffffffffffffffffff1673ffffffffffffffffffffffffffffffffffffffff1673ffffffffffffffffffffffffffffffffffffffff1681526020016001820160149054906101000a900460ff16151515158152505081526020019060010190610449565b5050505090505b919050565b6060600460008373ffffffffffffffffffffffffffffffffffffffff1673ffffffffffffffffffffffffffffffffffffffff168152602001908152602001600020600501805480602002602001604051908101604052809291908181526020016000905b82821015610723578382906000526020600020906002020160405180606001604052908160008201805461062190613d2b565b80601f016020809104026020016040519081016040528092919081815260200182805461064d90613d2b565b801561069a5780601f1061066f5761010080835404028352916020019161069a565b820191906000526020600020905b81548152906001019060200180831161067d57829003601f168201915b505050505081526020016001820160009054906101000a900473ffffffffffffffffffffffffffffffffffffffff1673ffffffffffffffffffffffffffffffffffffffff1673ffffffffffffffffffffffffffffffffffffffff1681526020016001820160149054906101000a900460ff161515151581525050815260200190600101906105ee565b505050509050919050565b6000610739826117f7565b9050919050565b82601060000190816107529190613f08565b5081601060010160006101000a81548173ffffffffffffffffffffffffffffffffffffffff021916908373ffffffffffffffffffffffffffffffffffffffff16021790555080601060010160146101000a81548160ff021916908315150217905550600115158115151461098a57601260109080600181540180825580915050600190039060005260206000209060020201600090919091909150600082018160000190816108019190613ff0565b506001820160009054906101000a900473ffffffffffffffffffffffffffffffffffffffff168160010160006101000a81548173ffffffffffffffffffffffffffffffffffffffff021916908373ffffffffffffffffffffffffffffffffffffffff1602179055506001820160149054906101000a900460ff168160010160146101000a81548160ff02191690831515021790555050506010601360008473ffffffffffffffffffffffffffffffffffffffff1673ffffffffffffffffffffffffffffffffffffffff168152602001908152602001600020600082018160000190816108ed9190613ff0565b506001820160009054906101000a900473ffffffffffffffffffffffffffffffffffffffff168160010160006101000a81548173ffffffffffffffffffffffffffffffffffffffff021916908373ffffffffffffffffffffffffffffffffffffffff1602179055506001820160149054906101000a900460ff168160010160146101000a81548160ff021916908315150217905550905050610b50565b601460109080600181540180825580915050600190039060005260206000209060020201600090919091909150600082018160000190816109cb9190613ff0565b506001820160009054906101000a900473ffffffffffffffffffffffffffffffffffffffff168160010160006101000a81548173ffffffffffffffffffffffffffffffffffffffff021916908373ffffffffffffffffffffffffffffffffffffffff1602179055506001820160149054906101000a900460ff168160010160146101000a81548160ff02191690831515021790555050506010601560008473ffffffffffffffffffffffffffffffffffffffff1673ffffffffffffffffffffffffffffffffffffffff16815260200190815260200160002060008201816000019081610ab79190613ff0565b506001820160009054906101000a900473ffffffffffffffffffffffffffffffffffffffff168160010160006101000a81548173ffffffffffffffffffffffffffffffffffffffff021916908373ffffffffffffffffffffffffffffffffffffffff1602179055506001820160149054906101000a900460ff168160010160146101000a81548160ff0219169083151502179055509050505b505050565b84600a6000019081610b679190613f08565b5083600a6001019081610b7a9190613f08565b5082600a6002019081610b8d9190613f08565b5081600a60030160006101000a81548173ffffffffffffffffffffffffffffffffffffffff021916908373ffffffffffffffffffffffffffffffffffffffff160217905550604051602001610be19061412f565b6040516020818303038152906040528051906020012085604051602001610c089190614175565b6040516020818303038152906040528051906020012003610c33576001600a60040181905550610d65565b604051602001610c42906141d8565b6040516020818303038152906040528051906020012085604051602001610c699190614175565b6040516020818303038152906040528051906020012003610c94576002600a60040181905550610d64565b604051602001610ca390614239565b6040516020818303038152906040528051906020012085604051602001610cca9190614175565b6040516020818303038152906040528051906020012003610cf5576003600a60040181905550610d63565b604051602001610d049061429a565b6040516020818303038152906040528051906020012085604051602001610d2b9190614175565b6040516020818303038152906040528051906020012003610d56576004600a60040181905550610d62565b6005600a600401819055505b5b5b5b60011515811515148015610dc35750604051602001610d839061412f565b6040516020818303038152906040528051906020012085604051602001610daa9190614175565b6040516020818303038152906040528051906020012014155b1561114c5760001515600960008473ffffffffffffffffffffffffffffffffffffffff1673ffffffffffffffffffffffffffffffffffffffff16815260200190815260200160002060009054906101000a900460ff16151514610e5b576040517f08c379a0000000000000000000000000000000000000000000000000000000008152600401610e529061430c565b60405180910390fd5b60001515600660008473ffffffffffffffffffffffffffffffffffffffff1673ffffffffffffffffffffffffffffffffffffffff16815260200190815260200160002060009054906101000a900460ff16151514610eee576040517f08c379a0000000000000000000000000000000000000000000000000000000008152600401610ee590614378565b60405180910390fd5b6008600a908060018154018082558091505060019003906000526020600020906006020160009091909190915060008201816000019081610f2f9190613ff0565b5060018201816001019081610f449190613ff0565b5060028201816002019081610f599190613ff0565b506003820160009054906101000a900473ffffffffffffffffffffffffffffffffffffffff168160030160006101000a81548173ffffffffffffffffffffffffffffffffffffffff021916908373ffffffffffffffffffffffffffffffffffffffff160217905550600482015481600401556005820181600501908054610fe19291906131e8565b505050600a600760008473ffffffffffffffffffffffffffffffffffffffff1673ffffffffffffffffffffffffffffffffffffffff168152602001908152602001600020600082018160000190816110399190613ff0565b506001820181600101908161104e9190613ff0565b50600282018160020190816110639190613ff0565b506003820160009054906101000a900473ffffffffffffffffffffffffffffffffffffffff168160030160006101000a81548173ffffffffffffffffffffffffffffffffffffffff021916908373ffffffffffffffffffffffffffffffffffffffff1602179055506004820154816004015560058201816005019080546110eb9291906131e8565b509050506001600960008473ffffffffffffffffffffffffffffffffffffffff1673ffffffffffffffffffffffffffffffffffffffff16815260200190815260200160002060006101000a81548160ff02191690831515021790555061151e565b60405160200161115b9061412f565b60405160208183030381529060405280519060200120856040516020016111829190614175565b60405160208183030381529060405280519060200120146112315760011515600960008473ffffffffffffffffffffffffffffffffffffffff1673ffffffffffffffffffffffffffffffffffffffff16815260200190815260200160002060009054906101000a900460ff16151514611230576040517f08c379a0000000000000000000000000000000000000000000000000000000008152600401611227906143e4565b60405180910390fd5b5b60001515600660008473ffffffffffffffffffffffffffffffffffffffff1673ffffffffffffffffffffffffffffffffffffffff16815260200190815260200160002060009054906101000a900460ff161515146112c4576040517f08c379a00000000000000000000000000000000000000000000000000000000081526004016112bb90614378565b60405180910390fd5b6005600a9080600181540180825580915050600190039060005260206000209060060201600090919091909150600082018160000190816113059190613ff0565b506001820181600101908161131a9190613ff0565b506002820181600201908161132f9190613ff0565b506003820160009054906101000a900473ffffffffffffffffffffffffffffffffffffffff168160030160006101000a81548173ffffffffffffffffffffffffffffffffffffffff021916908373ffffffffffffffffffffffffffffffffffffffff1602179055506004820154816004015560058201816005019080546113b79291906131e8565b505050600a600460008473ffffffffffffffffffffffffffffffffffffffff1673ffffffffffffffffffffffffffffffffffffffff1681526020019081526020016000206000820181600001908161140f9190613ff0565b50600182018160010190816114249190613ff0565b50600282018160020190816114399190613ff0565b506003820160009054906101000a900473ffffffffffffffffffffffffffffffffffffffff168160030160006101000a81548173ffffffffffffffffffffffffffffffffffffffff021916908373ffffffffffffffffffffffffffffffffffffffff1602179055506004820154816004015560058201816005019080546114c19291906131e8565b509050506001600660008473ffffffffffffffffffffffffffffffffffffffff1673ffffffffffffffffffffffffffffffffffffffff16815260200190815260200160002060006101000a81548160ff0219169083151502179055505b5050505050565b6000601560008473ffffffffffffffffffffffffffffffffffffffff1673ffffffffffffffffffffffffffffffffffffffff16815260200190815260200160002060405180606001604052908160008201805461158190613d2b565b80601f01602080910402602001604051908101604052809291908181526020018280546115ad90613d2b565b80156115fa5780601f106115cf576101008083540402835291602001916115fa565b820191906000526020600020905b8154815290600101906020018083116115dd57829003601f168201915b505050505081526020016001820160009054906101000a900473ffffffffffffffffffffffffffffffffffffffff1673ffffffffffffffffffffffffffffffffffffffff1673ffffffffffffffffffffffffffffffffffffffff1681526020016001820160149054906101000a900460ff16151515158152505090506000816040019015159081151581525050601281908060018154018082558091505060019003906000526020600020906002020160009091909190915060008201518160000190816116c89190613f08565b5060208201518160010160006101000a81548173ffffffffffffffffffffffffffffffffffffffff021916908373ffffffffffffffffffffffffffffffffffffffff16021790555060408201518160010160146101000a81548160ff021916908315150217905550505080601360008573ffffffffffffffffffffffffffffffffffffffff1673ffffffffffffffffffffffffffffffffffffffff16815260200190815260200160002060008201518160000190816117879190613f08565b5060208201518160010160006101000a81548173ffffffffffffffffffffffffffffffffffffffff021916908373ffffffffffffffffffffffffffffffffffffffff16021790555060408201518160010160146101000a81548160ff021916908315150217905550905050505050565b600060011515600660008473ffffffffffffffffffffffffffffffffffffffff1673ffffffffffffffffffffffffffffffffffffffff16815260200190815260200160002060009054906101000a900460ff1615150361185a576001905061185f565b600090505b919050565b565b61186e6132e9565b6001151582151503611c4357600760008473ffffffffffffffffffffffffffffffffffffffff1673ffffffffffffffffffffffffffffffffffffffff1681526020019081526020016000206040518060c00160405290816000820180546118d490613d2b565b80601f016020809104026020016040519081016040528092919081815260200182805461190090613d2b565b801561194d5780601f106119225761010080835404028352916020019161194d565b820191906000526020600020905b81548152906001019060200180831161193057829003601f168201915b5050505050815260200160018201805461196690613d2b565b80601f016020809104026020016040519081016040528092919081815260200182805461199290613d2b565b80156119df5780601f106119b4576101008083540402835291602001916119df565b820191906000526020600020905b8154815290600101906020018083116119c257829003601f168201915b505050505081526020016002820180546119f890613d2b565b80601f0160208091040260200160405190810160405280929190818152602001828054611a2490613d2b565b8015611a715780601f10611a4657610100808354040283529160200191611a71565b820191906000526020600020905b815481529060010190602001808311611a5457829003601f168201915b505050505081526020016003820160009054906101000a900473ffffffffffffffffffffffffffffffffffffffff1673ffffffffffffffffffffffffffffffffffffffff1673ffffffffffffffffffffffffffffffffffffffff1681526020016004820154815260200160058201805480602002602001604051908101604052809291908181526020016000905b82821015611c345783829060005260206000209060020201604051806060016040529081600082018054611b3290613d2b565b80601f0160208091040260200160405190810160405280929190818152602001828054611b5e90613d2b565b8015611bab5780601f10611b8057610100808354040283529160200191611bab565b820191906000526020600020905b815481529060010190602001808311611b8e57829003601f168201915b505050505081526020016001820160009054906101000a900473ffffffffffffffffffffffffffffffffffffffff1673ffffffffffffffffffffffffffffffffffffffff1673ffffffffffffffffffffffffffffffffffffffff1681526020016001820160149054906101000a900460ff16151515158152505081526020019060010190611aff565b50505050815250509050612008565b600460008473ffffffffffffffffffffffffffffffffffffffff1673ffffffffffffffffffffffffffffffffffffffff1681526020019081526020016000206040518060c0016040529081600082018054611c9d90613d2b565b80601f0160208091040260200160405190810160405280929190818152602001828054611cc990613d2b565b8015611d165780601f10611ceb57610100808354040283529160200191611d16565b820191906000526020600020905b815481529060010190602001808311611cf957829003601f168201915b50505050508152602001600182018054611d2f90613d2b565b80601f0160208091040260200160405190810160405280929190818152602001828054611d5b90613d2b565b8015611da85780601f10611d7d57610100808354040283529160200191611da8565b820191906000526020600020905b815481529060010190602001808311611d8b57829003601f168201915b50505050508152602001600282018054611dc190613d2b565b80601f0160208091040260200160405190810160405280929190818152602001828054611ded90613d2b565b8015611e3a5780601f10611e0f57610100808354040283529160200191611e3a565b820191906000526020600020905b815481529060010190602001808311611e1d57829003601f168201915b505050505081526020016003820160009054906101000a900473ffffffffffffffffffffffffffffffffffffffff1673ffffffffffffffffffffffffffffffffffffffff1673ffffffffffffffffffffffffffffffffffffffff1681526020016004820154815260200160058201805480602002602001604051908101604052809291908181526020016000905b82821015611ffd5783829060005260206000209060020201604051806060016040529081600082018054611efb90613d2b565b80601f0160208091040260200160405190810160405280929190818152602001828054611f2790613d2b565b8015611f745780601f10611f4957610100808354040283529160200191611f74565b820191906000526020600020905b815481529060010190602001808311611f5757829003601f168201915b505050505081526020016001820160009054906101000a900473ffffffffffffffffffffffffffffffffffffffff1673ffffffffffffffffffffffffffffffffffffffff1673ffffffffffffffffffffffffffffffffffffffff1681526020016001820160149054906101000a900460ff16151515158152505081526020019060010190611ec8565b505050508152505090505b92915050565b6000600760008473ffffffffffffffffffffffffffffffffffffffff1673ffffffffffffffffffffffffffffffffffffffff1681526020019081526020016000206040518060c001604052908160008201805461206a90613d2b565b80601f016020809104026020016040519081016040528092919081815260200182805461209690613d2b565b80156120e35780601f106120b8576101008083540402835291602001916120e3565b820191906000526020600020905b8154815290600101906020018083116120c657829003601f168201915b505050505081526020016001820180546120fc90613d2b565b80601f016020809104026020016040519081016040528092919081815260200182805461212890613d2b565b80156121755780601f1061214a57610100808354040283529160200191612175565b820191906000526020600020905b81548152906001019060200180831161215857829003601f168201915b5050505050815260200160028201805461218e90613d2b565b80601f01602080910402602001604051908101604052809291908181526020018280546121ba90613d2b565b80156122075780601f106121dc57610100808354040283529160200191612207565b820191906000526020600020905b8154815290600101906020018083116121ea57829003601f168201915b505050505081526020016003820160009054906101000a900473ffffffffffffffffffffffffffffffffffffffff1673ffffffffffffffffffffffffffffffffffffffff1673ffffffffffffffffffffffffffffffffffffffff1681526020016004820154815260200160058201805480602002602001604051908101604052809291908181526020016000905b828210156123ca57838290600052602060002090600202016040518060600160405290816000820180546122c890613d2b565b80601f01602080910402602001604051908101604052809291908181526020018280546122f490613d2b565b80156123415780601f1061231657610100808354040283529160200191612341565b820191906000526020600020905b81548152906001019060200180831161232457829003601f168201915b505050505081526020016001820160009054906101000a900473ffffffffffffffffffffffffffffffffffffffff1673ffffffffffffffffffffffffffffffffffffffff1673ffffffffffffffffffffffffffffffffffffffff1681526020016001820160149054906101000a900460ff16151515158152505081526020019060010190612295565b505050508152505090506000600460008473ffffffffffffffffffffffffffffffffffffffff1673ffffffffffffffffffffffffffffffffffffffff1681526020019081526020016000206040518060c001604052908160008201805461243090613d2b565b80601f016020809104026020016040519081016040528092919081815260200182805461245c90613d2b565b80156124a95780601f1061247e576101008083540402835291602001916124a9565b820191906000526020600020905b81548152906001019060200180831161248c57829003601f168201915b505050505081526020016001820180546124c290613d2b565b80601f01602080910402602001604051908101604052809291908181526020018280546124ee90613d2b565b801561253b5780601f106125105761010080835404028352916020019161253b565b820191906000526020600020905b81548152906001019060200180831161251e57829003601f168201915b5050505050815260200160028201805461255490613d2b565b80601f016020809104026020016040519081016040528092919081815260200182805461258090613d2b565b80156125cd5780601f106125a2576101008083540402835291602001916125cd565b820191906000526020600020905b8154815290600101906020018083116125b057829003601f168201915b505050505081526020016003820160009054906101000a900473ffffffffffffffffffffffffffffffffffffffff1673ffffffffffffffffffffffffffffffffffffffff1673ffffffffffffffffffffffffffffffffffffffff1681526020016004820154815260200160058201805480602002602001604051908101604052809291908181526020016000905b82821015612790578382906000526020600020906002020160405180606001604052908160008201805461268e90613d2b565b80601f01602080910402602001604051908101604052809291908181526020018280546126ba90613d2b565b80156127075780601f106126dc57610100808354040283529160200191612707565b820191906000526020600020905b8154815290600101906020018083116126ea57829003601f168201915b505050505081526020016001820160009054906101000a900473ffffffffffffffffffffffffffffffffffffffff1673ffffffffffffffffffffffffffffffffffffffff1673ffffffffffffffffffffffffffffffffffffffff1681526020016001820160149054906101000a900460ff1615151515815250508152602001906001019061265b565b5050505081525050905060008260000151905060008360200151905060008460400151905060008560600151905060008660800151905060008660800151905081811115612813576040517f08c379a000000000000000000000000000000000000000000000000000000000815260040161280a90614476565b60405180910390fd5b612821868686866000610b55565b6000600260008c73ffffffffffffffffffffffffffffffffffffffff1673ffffffffffffffffffffffffffffffffffffffff1681526020019081526020016000205490506008600160088054905061287991906144c5565b8154811061288a576128896144f9565b5b9060005260206000209060060201600882815481106128ac576128ab6144f9565b5b9060005260206000209060060201600082018160000190816128ce9190613ff0565b50600182018160010190816128e39190613ff0565b50600282018160020190816128f89190613ff0565b506003820160009054906101000a900473ffffffffffffffffffffffffffffffffffffffff168160030160006101000a81548173ffffffffffffffffffffffffffffffffffffffff021916908373ffffffffffffffffffffffffffffffffffffffff1602179055506004820154816004015560058201816005019080546129809291906131e8565b50905050600880548061299657612995614528565b5b6001900381819060005260206000209060060201600080820160006129bb9190613335565b6001820160006129cb9190613335565b6002820160006129db9190613335565b6003820160006101000a81549073ffffffffffffffffffffffffffffffffffffffff02191690556004820160009055600582016000612a1a9190613375565b505090555050505050505050505050565b60606001151582151503612e10576008805480602002602001604051908101604052809291908181526020016000905b82821015612e0557838290600052602060002090600602016040518060c0016040529081600082018054612a8e90613d2b565b80601f0160208091040260200160405190810160405280929190818152602001828054612aba90613d2b565b8015612b075780601f10612adc57610100808354040283529160200191612b07565b820191906000526020600020905b815481529060010190602001808311612aea57829003601f168201915b50505050508152602001600182018054612b2090613d2b565b80601f0160208091040260200160405190810160405280929190818152602001828054612b4c90613d2b565b8015612b995780601f10612b6e57610100808354040283529160200191612b99565b820191906000526020600020905b815481529060010190602001808311612b7c57829003601f168201915b50505050508152602001600282018054612bb290613d2b565b80601f0160208091040260200160405190810160405280929190818152602001828054612bde90613d2b565b8015612c2b5780601f10612c0057610100808354040283529160200191612c2b565b820191906000526020600020905b815481529060010190602001808311612c0e57829003601f168201915b505050505081526020016003820160009054906101000a900473ffffffffffffffffffffffffffffffffffffffff1673ffffffffffffffffffffffffffffffffffffffff1673ffffffffffffffffffffffffffffffffffffffff1681526020016004820154815260200160058201805480602002602001604051908101604052809291908181526020016000905b82821015612dee5783829060005260206000209060020201604051806060016040529081600082018054612cec90613d2b565b80601f0160208091040260200160405190810160405280929190818152602001828054612d1890613d2b565b8015612d655780601f10612d3a57610100808354040283529160200191612d65565b820191906000526020600020905b815481529060010190602001808311612d4857829003601f168201915b505050505081526020016001820160009054906101000a900473ffffffffffffffffffffffffffffffffffffffff1673ffffffffffffffffffffffffffffffffffffffff1673ffffffffffffffffffffffffffffffffffffffff1681526020016001820160149054906101000a900460ff16151515158152505081526020019060010190612cb9565b505050508152505081526020019060010190612a5b565b5050505090506131e3565b6005805480602002602001604051908101604052809291908181526020016000905b828210156131dc57838290600052602060002090600602016040518060c0016040529081600082018054612e6590613d2b565b80601f0160208091040260200160405190810160405280929190818152602001828054612e9190613d2b565b8015612ede5780601f10612eb357610100808354040283529160200191612ede565b820191906000526020600020905b815481529060010190602001808311612ec157829003601f168201915b50505050508152602001600182018054612ef790613d2b565b80601f0160208091040260200160405190810160405280929190818152602001828054612f2390613d2b565b8015612f705780601f10612f4557610100808354040283529160200191612f70565b820191906000526020600020905b815481529060010190602001808311612f5357829003601f168201915b50505050508152602001600282018054612f8990613d2b565b80601f0160208091040260200160405190810160405280929190818152602001828054612fb590613d2b565b80156130025780601f10612fd757610100808354040283529160200191613002565b820191906000526020600020905b815481529060010190602001808311612fe557829003601f168201915b505050505081526020016003820160009054906101000a900473ffffffffffffffffffffffffffffffffffffffff1673ffffffffffffffffffffffffffffffffffffffff1673ffffffffffffffffffffffffffffffffffffffff1681526020016004820154815260200160058201805480602002602001604051908101604052809291908181526020016000905b828210156131c557838290600052602060002090600202016040518060600160405290816000820180546130c390613d2b565b80601f01602080910402602001604051908101604052809291908181526020018280546130ef90613d2b565b801561313c5780601f106131115761010080835404028352916020019161313c565b820191906000526020600020905b81548152906001019060200180831161311f57829003601f168201915b505050505081526020016001820160009054906101000a900473ffffffffffffffffffffffffffffffffffffffff1673ffffffffffffffffffffffffffffffffffffffff1673ffffffffffffffffffffffffffffffffffffffff1681526020016001820160149054906101000a900460ff16151515158152505081526020019060010190613090565b505050508152505081526020019060010190612e32565b5050505090505b919050565b8280548282559060005260206000209060020281019282156132d85760005260206000209160020282015b828111156132d7578282600082018160000190816132319190613ff0565b506001820160009054906101000a900473ffffffffffffffffffffffffffffffffffffffff168160010160006101000a81548173ffffffffffffffffffffffffffffffffffffffff021916908373ffffffffffffffffffffffffffffffffffffffff1602179055506001820160149054906101000a900460ff168160010160146101000a81548160ff021916908315150217905550505091600201919060020190613213565b5b5090506132e59190613399565b5090565b6040518060c00160405280606081526020016060815260200160608152602001600073ffffffffffffffffffffffffffffffffffffffff16815260200160008152602001606081525090565b50805461334190613d2b565b6000825580601f106133535750613372565b601f01602090049060005260206000209081019061337191906133fb565b5b50565b50805460008255600202906000526020600020908101906133969190613399565b50565b5b808211156133f757600080820160006133b39190613335565b6001820160006101000a81549073ffffffffffffffffffffffffffffffffffffffff02191690556001820160146101000a81549060ff02191690555060020161339a565b5090565b5b808211156134145760008160009055506001016133fc565b5090565b6000604051905090565b600080fd5b600080fd5b60008115159050919050565b6134418161342c565b811461344c57600080fd5b50565b60008135905061345e81613438565b92915050565b60006020828403121561347a57613479613422565b5b60006134888482850161344f565b91505092915050565b600081519050919050565b600082825260208201905092915050565b6000819050602082019050919050565b600081519050919050565b600082825260208201905092915050565b60005b838110156134f75780820151818401526020810190506134dc565b60008484015250505050565b6000601f19601f8301169050919050565b600061351f826134bd565b61352981856134c8565b93506135398185602086016134d9565b61354281613503565b840191505092915050565b600073ffffffffffffffffffffffffffffffffffffffff82169050919050565b60006135788261354d565b9050919050565b6135888161356d565b82525050565b6135978161342c565b82525050565b600060608301600083015184820360008601526135ba8282613514565b91505060208301516135cf602086018261357f565b5060408301516135e2604086018261358e565b508091505092915050565b60006135f9838361359d565b905092915050565b6000602082019050919050565b600061361982613491565b613623818561349c565b935083602082028501613635856134ad565b8060005b85811015613671578484038952815161365285826135ed565b945061365d83613601565b925060208a01995050600181019050613639565b50829750879550505050505092915050565b6000602082019050818103600083015261369d818461360e565b905092915050565b6136ae8161356d565b81146136b957600080fd5b50565b6000813590506136cb816136a5565b92915050565b6000602082840312156136e7576136e6613422565b5b60006136f5848285016136bc565b91505092915050565b6137078161342c565b82525050565b600060208201905061372260008301846136fe565b92915050565b600080fd5b600080fd5b7f4e487b7100000000000000000000000000000000000000000000000000000000600052604160045260246000fd5b61376a82613503565b810181811067ffffffffffffffff8211171561378957613788613732565b5b80604052505050565b600061379c613418565b90506137a88282613761565b919050565b600067ffffffffffffffff8211156137c8576137c7613732565b5b6137d182613503565b9050602081019050919050565b82818337600083830152505050565b60006138006137fb846137ad565b613792565b90508281526020810184848401111561381c5761381b61372d565b5b6138278482856137de565b509392505050565b600082601f83011261384457613843613728565b5b81356138548482602086016137ed565b91505092915050565b60008060006060848603121561387657613875613422565b5b600084013567ffffffffffffffff81111561389457613893613427565b5b6138a08682870161382f565b93505060206138b1868287016136bc565b92505060406138c28682870161344f565b9150509250925092565b600080600080600060a086880312156138e8576138e7613422565b5b600086013567ffffffffffffffff81111561390657613905613427565b5b6139128882890161382f565b955050602086013567ffffffffffffffff81111561393357613932613427565b5b61393f8882890161382f565b945050604086013567ffffffffffffffff8111156139605761395f613427565b5b61396c8882890161382f565b935050606061397d888289016136bc565b925050608061398e8882890161344f565b9150509295509295909350565b600080604083850312156139b2576139b1613422565b5b60006139c0858286016136bc565b92505060206139d1858286016136bc565b9150509250929050565b600080604083850312156139f2576139f1613422565b5b6000613a00858286016136bc565b9250506020613a118582860161344f565b9150509250929050565b6000819050919050565b613a2e81613a1b565b82525050565b600082825260208201905092915050565b6000613a5082613491565b613a5a8185613a34565b935083602082028501613a6c856134ad565b8060005b85811015613aa85784840389528151613a8985826135ed565b9450613a9483613601565b925060208a01995050600181019050613a70565b50829750879550505050505092915050565b600060c0830160008301518482036000860152613ad78282613514565b91505060208301518482036020860152613af18282613514565b91505060408301518482036040860152613b0b8282613514565b9150506060830151613b20606086018261357f565b506080830151613b336080860182613a25565b5060a083015184820360a0860152613b4b8282613a45565b9150508091505092915050565b60006020820190508181036000830152613b728184613aba565b905092915050565b600081519050919050565b600082825260208201905092915050565b6000819050602082019050919050565b600060c0830160008301518482036000860152613bc38282613514565b91505060208301518482036020860152613bdd8282613514565b91505060408301518482036040860152613bf78282613514565b9150506060830151613c0c606086018261357f565b506080830151613c1f6080860182613a25565b5060a083015184820360a0860152613c378282613a45565b9150508091505092915050565b6000613c508383613ba6565b905092915050565b6000602082019050919050565b6000613c7082613b7a565b613c7a8185613b85565b935083602082028501613c8c85613b96565b8060005b85811015613cc85784840389528151613ca98582613c44565b9450613cb483613c58565b925060208a01995050600181019050613c90565b50829750879550505050505092915050565b60006020820190508181036000830152613cf48184613c65565b905092915050565b7f4e487b7100000000000000000000000000000000000000000000000000000000600052602260045260246000fd5b60006002820490506001821680613d4357607f821691505b602082108103613d5657613d55613cfc565b5b50919050565b60008190508160005260206000209050919050565b60006020601f8301049050919050565b600082821b905092915050565b600060088302613dbe7fffffffffffffffffffffffffffffffffffffffffffffffffffffffffffffffff82613d81565b613dc88683613d81565b95508019841693508086168417925050509392505050565b6000819050919050565b6000613e05613e00613dfb84613a1b565b613de0565b613a1b565b9050919050565b6000819050919050565b613e1f83613dea565b613e33613e2b82613e0c565b848454613d8e565b825550505050565b600090565b613e48613e3b565b613e53818484613e16565b505050565b5b81811015613e7757613e6c600082613e40565b600181019050613e59565b5050565b601f821115613ebc57613e8d81613d5c565b613e9684613d71565b81016020851015613ea5578190505b613eb9613eb185613d71565b830182613e58565b50505b505050565b600082821c905092915050565b6000613edf60001984600802613ec1565b1980831691505092915050565b6000613ef88383613ece565b9150826002028217905092915050565b613f11826134bd565b67ffffffffffffffff811115613f2a57613f29613732565b5b613f348254613d2b565b613f3f828285613e7b565b600060209050601f831160018114613f725760008415613f60578287015190505b613f6a8582613eec565b865550613fd2565b601f198416613f8086613d5c565b60005b82811015613fa857848901518255600182019150602085019450602081019050613f83565b86831015613fc55784890151613fc1601f891682613ece565b8355505b6001600288020188555050505b505050505050565b600081549050613fe981613d2b565b9050919050565b818103613ffe5750506140d6565b61400782613fda565b67ffffffffffffffff8111156140205761401f613732565b5b61402a8254613d2b565b614035828285613e7b565b6000601f8311600181146140645760008415614052578287015490505b61405c8582613eec565b8655506140cf565b601f19841661407287613d5c565b965061407d86613d5c565b60005b828110156140a557848901548255600182019150600185019450602081019050614080565b868310156140c257848901546140be601f891682613ece565b8355505b6001600288020188555050505b5050505050505b565b600081905092915050565b7f4445414e00000000000000000000000000000000000000000000000000000000600082015250565b60006141196004836140d8565b9150614124826140e3565b600482019050919050565b600061413a8261410c565b9150819050919050565b600061414f826134bd565b61415981856140d8565b93506141698185602086016134d9565b80840191505092915050565b60006141818284614144565b915081905092915050565b7f484f440000000000000000000000000000000000000000000000000000000000600082015250565b60006141c26003836140d8565b91506141cd8261418c565b600382019050919050565b60006141e3826141b5565b9150819050919050565b7f5354414646000000000000000000000000000000000000000000000000000000600082015250565b60006142236005836140d8565b915061422e826141ed565b600582019050919050565b600061424482614216565b9150819050919050565b7f53545544454e5400000000000000000000000000000000000000000000000000600082015250565b60006142846007836140d8565b915061428f8261424e565b600782019050919050565b60006142a582614277565b9150819050919050565b600082825260208201905092915050565b7f4d656d6265722052657175657374656400000000000000000000000000000000600082015250565b60006142f66010836142af565b9150614301826142c0565b602082019050919050565b60006020820190508181036000830152614325816142e9565b9050919050565b7f4d656d6265722045786973740000000000000000000000000000000000000000600082015250565b6000614362600c836142af565b915061436d8261432c565b602082019050919050565b6000602082019050818103600083015261439181614355565b9050919050565b7f596f75206e65656420746f205265717565737420466972737400000000000000600082015250565b60006143ce6019836142af565b91506143d982614398565b602082019050919050565b600060208201905081810360008301526143fd816143c1565b9050919050565b7f596f752063616e277420617070726f6f766520736f6d656f6e652061626f766560008201527f207468616e20796f752e00000000000000000000000000000000000000000000602082015250565b6000614460602a836142af565b915061446b82614404565b604082019050919050565b6000602082019050818103600083015261448f81614453565b9050919050565b7f4e487b7100000000000000000000000000000000000000000000000000000000600052601160045260246000fd5b60006144d082613a1b565b91506144db83613a1b565b92508282039050818111156144f3576144f2614496565b5b92915050565b7f4e487b7100000000000000000000000000000000000000000000000000000000600052603260045260246000fd5b7f4e487b7100000000000000000000000000000000000000000000000000000000600052603160045260246000fdfea26469706673582212201d830ad05d2e3397e6e3dfd581e802a606d3ef24c427f8d323764ad8ffb864c464736f6c63430008100033","opcodes":"PUSH1 0x80 PUSH1 0x40 MSTORE PUSH1 0x0 DUP1 SSTORE PUSH1 0x0 PUSH1 0x1 SSTORE CALLVALUE DUP1 ISZERO PUSH2 0x19 JUMPI PUSH1 0x0 DUP1 REVERT JUMPDEST POP PUSH2 0x458D DUP1 PUSH2 0x29 PUSH1 0x0 CODECOPY PUSH1 0x0 RETURN INVALID PUSH1 0x80 PUSH1 0x40 MSTORE PUSH1 0x4 CALLDATASIZE LT PUSH2 0x9C JUMPI PUSH1 0x0 CALLDATALOAD PUSH1 0xE0 SHR DUP1 PUSH4 0x529D3797 GT PUSH2 0x64 JUMPI DUP1 PUSH4 0x529D3797 EQ PUSH2 0x1AA JUMPI DUP1 PUSH4 0x64E47536 EQ PUSH2 0x1D3 JUMPI DUP1 PUSH4 0xA9E10BF2 EQ PUSH2 0x210 JUMPI DUP1 PUSH4 0xBAFA08C1 EQ PUSH2 0x21A JUMPI DUP1 PUSH4 0xE070DD12 EQ PUSH2 0x257 JUMPI DUP1 PUSH4 0xE473F6CD EQ PUSH2 0x280 JUMPI PUSH2 0x9C JUMP JUMPDEST DUP1 PUSH4 0x1E0F71FE EQ PUSH2 0xA1 JUMPI DUP1 PUSH4 0x28538949 EQ PUSH2 0xDE JUMPI DUP1 PUSH4 0x35A6861A EQ PUSH2 0x11B JUMPI DUP1 PUSH4 0x39FEC887 EQ PUSH2 0x158 JUMPI DUP1 PUSH4 0x4CD6F25E EQ PUSH2 0x181 JUMPI JUMPDEST PUSH1 0x0 DUP1 REVERT JUMPDEST CALLVALUE DUP1 ISZERO PUSH2 0xAD JUMPI PUSH1 0x0 DUP1 REVERT JUMPDEST POP PUSH2 0xC8 PUSH1 0x4 DUP1 CALLDATASIZE SUB DUP2 ADD SWAP1 PUSH2 0xC3 SWAP2 SWAP1 PUSH2 0x3464 JUMP JUMPDEST PUSH2 0x2BD JUMP JUMPDEST PUSH1 0x40 MLOAD PUSH2 0xD5 SWAP2 SWAP1 PUSH2 0x3683 JUMP JUMPDEST PUSH1 0x40 MLOAD DUP1 SWAP2 SUB SWAP1 RETURN JUMPDEST CALLVALUE DUP1 ISZERO PUSH2 0xEA JUMPI PUSH1 0x0 DUP1 REVERT JUMPDEST POP PUSH2 0x105 PUSH1 0x4 DUP1 CALLDATASIZE SUB DUP2 ADD SWAP1 PUSH2 0x100 SWAP2 SWAP1 PUSH2 0x36D1 JUMP JUMPDEST PUSH2 0x58A JUMP JUMPDEST PUSH1 0x40 MLOAD PUSH2 0x112 SWAP2 SWAP1 PUSH2 0x3683 JUMP JUMPDEST PUSH1 0x40 MLOAD DUP1 SWAP2 SUB SWAP1 RETURN JUMPDEST CALLVALUE DUP1 ISZERO PUSH2 0x127 JUMPI PUSH1 0x0 DUP1 REVERT JUMPDEST POP PUSH2 0x142 PUSH1 0x4 DUP1 CALLDATASIZE SUB DUP2 ADD SWAP1 PUSH2 0x13D SWAP2 SWAP1 PUSH2 0x36D1 JUMP JUMPDEST PUSH2 0x72E JUMP JUMPDEST PUSH1 0x40 MLOAD PUSH2 0x14F SWAP2 SWAP1 PUSH2 0x370D JUMP JUMPDEST PUSH1 0x40 MLOAD DUP1 SWAP2 SUB SWAP1 RETURN JUMPDEST CALLVALUE DUP1 ISZERO PUSH2 0x164 JUMPI PUSH1 0x0 DUP1 REVERT JUMPDEST POP PUSH2 0x17F PUSH1 0x4 DUP1 CALLDATASIZE SUB DUP2 ADD SWAP1 PUSH2 0x17A SWAP2 SWAP1 PUSH2 0x385D JUMP JUMPDEST PUSH2 0x740 JUMP JUMPDEST STOP JUMPDEST CALLVALUE DUP1 ISZERO PUSH2 0x18D JUMPI PUSH1 0x0 DUP1 REVERT JUMPDEST POP PUSH2 0x1A8 PUSH1 0x4 DUP1 CALLDATASIZE SUB DUP2 ADD SWAP1 PUSH2 0x1A3 SWAP2 SWAP1 PUSH2 0x38CC JUMP JUMPDEST PUSH2 0xB55 JUMP JUMPDEST STOP JUMPDEST CALLVALUE DUP1 ISZERO PUSH2 0x1B6 JUMPI PUSH1 0x0 DUP1 REVERT JUMPDEST POP PUSH2 0x1D1 PUSH1 0x4 DUP1 CALLDATASIZE SUB DUP2 ADD SWAP1 PUSH2 0x1CC SWAP2 SWAP1 PUSH2 0x399B JUMP JUMPDEST PUSH2 0x1525 JUMP JUMPDEST STOP JUMPDEST CALLVALUE DUP1 ISZERO PUSH2 0x1DF JUMPI PUSH1 0x0 DUP1 REVERT JUMPDEST POP PUSH2 0x1FA PUSH1 0x4 DUP1 CALLDATASIZE SUB DUP2 ADD SWAP1 PUSH2 0x1F5 SWAP2 SWAP1 PUSH2 0x36D1 JUMP JUMPDEST PUSH2 0x17F7 JUMP JUMPDEST PUSH1 0x40 MLOAD PUSH2 0x207 SWAP2 SWAP1 PUSH2 0x370D JUMP JUMPDEST PUSH1 0x40 MLOAD DUP1 SWAP2 SUB SWAP1 RETURN JUMPDEST PUSH2 0x218 PUSH2 0x1864 JUMP JUMPDEST STOP JUMPDEST CALLVALUE DUP1 ISZERO PUSH2 0x226 JUMPI PUSH1 0x0 DUP1 REVERT JUMPDEST POP PUSH2 0x241 PUSH1 0x4 DUP1 CALLDATASIZE SUB DUP2 ADD SWAP1 PUSH2 0x23C SWAP2 SWAP1 PUSH2 0x39DB JUMP JUMPDEST PUSH2 0x1866 JUMP JUMPDEST PUSH1 0x40 MLOAD PUSH2 0x24E SWAP2 SWAP1 PUSH2 0x3B58 JUMP JUMPDEST PUSH1 0x40 MLOAD DUP1 SWAP2 SUB SWAP1 RETURN JUMPDEST CALLVALUE DUP1 ISZERO PUSH2 0x263 JUMPI PUSH1 0x0 DUP1 REVERT JUMPDEST POP PUSH2 0x27E PUSH1 0x4 DUP1 CALLDATASIZE SUB DUP2 ADD SWAP1 PUSH2 0x279 SWAP2 SWAP1 PUSH2 0x399B JUMP JUMPDEST PUSH2 0x200E JUMP JUMPDEST STOP JUMPDEST CALLVALUE DUP1 ISZERO PUSH2 0x28C JUMPI PUSH1 0x0 DUP1 REVERT JUMPDEST POP PUSH2 0x2A7 PUSH1 0x4 DUP1 CALLDATASIZE SUB DUP2 ADD SWAP1 PUSH2 0x2A2 SWAP2 SWAP1 PUSH2 0x3464 JUMP JUMPDEST PUSH2 0x2A2B JUMP JUMPDEST PUSH1 0x40 MLOAD PUSH2 0x2B4 SWAP2 SWAP1 PUSH2 0x3CDA JUMP JUMPDEST PUSH1 0x40 MLOAD DUP1 SWAP2 SUB SWAP1 RETURN JUMPDEST PUSH1 0x60 DUP2 ISZERO PUSH2 0x427 JUMPI PUSH1 0x14 DUP1 SLOAD DUP1 PUSH1 0x20 MUL PUSH1 0x20 ADD PUSH1 0x40 MLOAD SWAP1 DUP2 ADD PUSH1 0x40 MSTORE DUP1 SWAP3 SWAP2 SWAP1 DUP2 DUP2 MSTORE PUSH1 0x20 ADD PUSH1 0x0 SWAP1 JUMPDEST DUP3 DUP3 LT ISZERO PUSH2 0x41C JUMPI DUP4 DUP3 SWAP1 PUSH1 0x0 MSTORE PUSH1 0x20 PUSH1 0x0 KECCAK256 SWAP1 PUSH1 0x2 MUL ADD PUSH1 0x40 MLOAD DUP1 PUSH1 0x60 ADD PUSH1 0x40 MSTORE SWAP1 DUP2 PUSH1 0x0 DUP3 ADD DUP1 SLOAD PUSH2 0x31A SWAP1 PUSH2 0x3D2B JUMP JUMPDEST DUP1 PUSH1 0x1F ADD PUSH1 0x20 DUP1 SWAP2 DIV MUL PUSH1 0x20 ADD PUSH1 0x40 MLOAD SWAP1 DUP2 ADD PUSH1 0x40 MSTORE DUP1 SWAP3 SWAP2 SWAP1 DUP2 DUP2 MSTORE PUSH1 0x20 ADD DUP3 DUP1 SLOAD PUSH2 0x346 SWAP1 PUSH2 0x3D2B JUMP JUMPDEST DUP1 ISZERO PUSH2 0x393 JUMPI DUP1 PUSH1 0x1F LT PUSH2 0x368 JUMPI PUSH2 0x100 DUP1 DUP4 SLOAD DIV MUL DUP4 MSTORE SWAP2 PUSH1 0x20 ADD SWAP2 PUSH2 0x393 JUMP JUMPDEST DUP3 ADD SWAP2 SWAP1 PUSH1 0x0 MSTORE PUSH1 0x20 PUSH1 0x0 KECCAK256 SWAP1 JUMPDEST DUP2 SLOAD DUP2 MSTORE SWAP1 PUSH1 0x1 ADD SWAP1 PUSH1 0x20 ADD DUP1 DUP4 GT PUSH2 0x376 JUMPI DUP3 SWAP1 SUB PUSH1 0x1F AND DUP3 ADD SWAP2 JUMPDEST POP POP POP POP POP DUP2 MSTORE PUSH1 0x20 ADD PUSH1 0x1 DUP3 ADD PUSH1 0x0 SWAP1 SLOAD SWAP1 PUSH2 0x100 EXP SWAP1 DIV PUSH20 0xFFFFFFFFFFFFFFFFFFFFFFFFFFFFFFFFFFFFFFFF AND PUSH20 0xFFFFFFFFFFFFFFFFFFFFFFFFFFFFFFFFFFFFFFFF AND PUSH20 0xFFFFFFFFFFFFFFFFFFFFFFFFFFFFFFFFFFFFFFFF AND DUP2 MSTORE PUSH1 0x20 ADD PUSH1 0x1 DUP3 ADD PUSH1 0x14 SWAP1 SLOAD SWAP1 PUSH2 0x100 EXP SWAP1 DIV PUSH1 0xFF AND ISZERO ISZERO ISZERO ISZERO DUP2 MSTORE POP POP DUP2 MSTORE PUSH1 0x20 ADD SWAP1 PUSH1 0x1 ADD SWAP1 PUSH2 0x2E7 JUMP JUMPDEST POP POP POP POP SWAP1 POP PUSH2 0x585 JUMP JUMPDEST PUSH1 0x12 DUP1 SLOAD DUP1 PUSH1 0x20 MUL PUSH1 0x20 ADD PUSH1 0x40 MLOAD SWAP1 DUP2 ADD PUSH1 0x40 MSTORE DUP1 SWAP3 SWAP2 SWAP1 DUP2 DUP2 MSTORE PUSH1 0x20 ADD PUSH1 0x0 SWAP1 JUMPDEST DUP3 DUP3 LT ISZERO PUSH2 0x57E JUMPI DUP4 DUP3 SWAP1 PUSH1 0x0 MSTORE PUSH1 0x20 PUSH1 0x0 KECCAK256 SWAP1 PUSH1 0x2 MUL ADD PUSH1 0x40 MLOAD DUP1 PUSH1 0x60 ADD PUSH1 0x40 MSTORE SWAP1 DUP2 PUSH1 0x0 DUP3 ADD DUP1 SLOAD PUSH2 0x47C SWAP1 PUSH2 0x3D2B JUMP JUMPDEST DUP1 PUSH1 0x1F ADD PUSH1 0x20 DUP1 SWAP2 DIV MUL PUSH1 0x20 ADD PUSH1 0x40 MLOAD SWAP1 DUP2 ADD PUSH1 0x40 MSTORE DUP1 SWAP3 SWAP2 SWAP1 DUP2 DUP2 MSTORE PUSH1 0x20 ADD DUP3 DUP1 SLOAD PUSH2 0x4A8 SWAP1 PUSH2 0x3D2B JUMP JUMPDEST DUP1 ISZERO PUSH2 0x4F5 JUMPI DUP1 PUSH1 0x1F LT PUSH2 0x4CA JUMPI PUSH2 0x100 DUP1 DUP4 SLOAD DIV MUL DUP4 MSTORE SWAP2 PUSH1 0x20 ADD SWAP2 PUSH2 0x4F5 JUMP JUMPDEST DUP3 ADD SWAP2 SWAP1 PUSH1 0x0 MSTORE PUSH1 0x20 PUSH1 0x0 KECCAK256 SWAP1 JUMPDEST DUP2 SLOAD DUP2 MSTORE SWAP1 PUSH1 0x1 ADD SWAP1 PUSH1 0x20 ADD DUP1 DUP4 GT PUSH2 0x4D8 JUMPI DUP3 SWAP1 SUB PUSH1 0x1F AND DUP3 ADD SWAP2 JUMPDEST POP POP POP POP POP DUP2 MSTORE PUSH1 0x20 ADD PUSH1 0x1 DUP3 ADD PUSH1 0x0 SWAP1 SLOAD SWAP1 PUSH2 0x100 EXP SWAP1 DIV PUSH20 0xFFFFFFFFFFFFFFFFFFFFFFFFFFFFFFFFFFFFFFFF AND PUSH20 0xFFFFFFFFFFFFFFFFFFFFFFFFFFFFFFFFFFFFFFFF AND PUSH20 0xFFFFFFFFFFFFFFFFFFFFFFFFFFFFFFFFFFFFFFFF AND DUP2 MSTORE PUSH1 0x20 ADD PUSH1 0x1 DUP3 ADD PUSH1 0x14 SWAP1 SLOAD SWAP1 PUSH2 0x100 EXP SWAP1 DIV PUSH1 0xFF AND ISZERO ISZERO ISZERO ISZERO DUP2 MSTORE POP POP DUP2 MSTORE PUSH1 0x20 ADD SWAP1 PUSH1 0x1 ADD SWAP1 PUSH2 0x449 JUMP JUMPDEST POP POP POP POP SWAP1 POP JUMPDEST SWAP2 SWAP1 POP JUMP JUMPDEST PUSH1 0x60 PUSH1 0x4 PUSH1 0x0 DUP4 PUSH20 0xFFFFFFFFFFFFFFFFFFFFFFFFFFFFFFFFFFFFFFFF AND PUSH20 0xFFFFFFFFFFFFFFFFFFFFFFFFFFFFFFFFFFFFFFFF AND DUP2 MSTORE PUSH1 0x20 ADD SWAP1 DUP2 MSTORE PUSH1 0x20 ADD PUSH1 0x0 KECCAK256 PUSH1 0x5 ADD DUP1 SLOAD DUP1 PUSH1 0x20 MUL PUSH1 0x20 ADD PUSH1 0x40 MLOAD SWAP1 DUP2 ADD PUSH1 0x40 MSTORE DUP1 SWAP3 SWAP2 SWAP1 DUP2 DUP2 MSTORE PUSH1 0x20 ADD PUSH1 0x0 SWAP1 JUMPDEST DUP3 DUP3 LT ISZERO PUSH2 0x723 JUMPI DUP4 DUP3 SWAP1 PUSH1 0x0 MSTORE PUSH1 0x20 PUSH1 0x0 KECCAK256 SWAP1 PUSH1 0x2 MUL ADD PUSH1 0x40 MLOAD DUP1 PUSH1 0x60 ADD PUSH1 0x40 MSTORE SWAP1 DUP2 PUSH1 0x0 DUP3 ADD DUP1 SLOAD PUSH2 0x621 SWAP1 PUSH2 0x3D2B JUMP JUMPDEST DUP1 PUSH1 0x1F ADD PUSH1 0x20 DUP1 SWAP2 DIV MUL PUSH1 0x20 ADD PUSH1 0x40 MLOAD SWAP1 DUP2 ADD PUSH1 0x40 MSTORE DUP1 SWAP3 SWAP2 SWAP1 DUP2 DUP2 MSTORE PUSH1 0x20 ADD DUP3 DUP1 SLOAD PUSH2 0x64D SWAP1 PUSH2 0x3D2B JUMP JUMPDEST DUP1 ISZERO PUSH2 0x69A JUMPI DUP1 PUSH1 0x1F LT PUSH2 0x66F JUMPI PUSH2 0x100 DUP1 DUP4 SLOAD DIV MUL DUP4 MSTORE SWAP2 PUSH1 0x20 ADD SWAP2 PUSH2 0x69A JUMP JUMPDEST DUP3 ADD SWAP2 SWAP1 PUSH1 0x0 MSTORE PUSH1 0x20 PUSH1 0x0 KECCAK256 SWAP1 JUMPDEST DUP2 SLOAD DUP2 MSTORE SWAP1 PUSH1 0x1 ADD SWAP1 PUSH1 0x20 ADD DUP1 DUP4 GT PUSH2 0x67D JUMPI DUP3 SWAP1 SUB PUSH1 0x1F AND DUP3 ADD SWAP2 JUMPDEST POP POP POP POP POP DUP2 MSTORE PUSH1 0x20 ADD PUSH1 0x1 DUP3 ADD PUSH1 0x0 SWAP1 SLOAD SWAP1 PUSH2 0x100 EXP SWAP1 DIV PUSH20 0xFFFFFFFFFFFFFFFFFFFFFFFFFFFFFFFFFFFFFFFF AND PUSH20 0xFFFFFFFFFFFFFFFFFFFFFFFFFFFFFFFFFFFFFFFF AND PUSH20 0xFFFFFFFFFFFFFFFFFFFFFFFFFFFFFFFFFFFFFFFF AND DUP2 MSTORE PUSH1 0x20 ADD PUSH1 0x1 DUP3 ADD PUSH1 0x14 SWAP1 SLOAD SWAP1 PUSH2 0x100 EXP SWAP1 DIV PUSH1 0xFF AND ISZERO ISZERO ISZERO ISZERO DUP2 MSTORE POP POP DUP2 MSTORE PUSH1 0x20 ADD SWAP1 PUSH1 0x1 ADD SWAP1 PUSH2 0x5EE JUMP JUMPDEST POP POP POP POP SWAP1 POP SWAP2 SWAP1 POP JUMP JUMPDEST PUSH1 0x0 PUSH2 0x739 DUP3 PUSH2 0x17F7 JUMP JUMPDEST SWAP1 POP SWAP2 SWAP1 POP JUMP JUMPDEST DUP3 PUSH1 0x10 PUSH1 0x0 ADD SWAP1 DUP2 PUSH2 0x752 SWAP2 SWAP1 PUSH2 0x3F08 JUMP JUMPDEST POP DUP2 PUSH1 0x10 PUSH1 0x1 ADD PUSH1 0x0 PUSH2 0x100 EXP DUP2 SLOAD DUP2 PUSH20 0xFFFFFFFFFFFFFFFFFFFFFFFFFFFFFFFFFFFFFFFF MUL NOT AND SWAP1 DUP4 PUSH20 0xFFFFFFFFFFFFFFFFFFFFFFFFFFFFFFFFFFFFFFFF AND MUL OR SWAP1 SSTORE POP DUP1 PUSH1 0x10 PUSH1 0x1 ADD PUSH1 0x14 PUSH2 0x100 EXP DUP2 SLOAD DUP2 PUSH1 0xFF MUL NOT AND SWAP1 DUP4 ISZERO ISZERO MUL OR SWAP1 SSTORE POP PUSH1 0x1 ISZERO ISZERO DUP2 ISZERO ISZERO EQ PUSH2 0x98A JUMPI PUSH1 0x12 PUSH1 0x10 SWAP1 DUP1 PUSH1 0x1 DUP2 SLOAD ADD DUP1 DUP3 SSTORE DUP1 SWAP2 POP POP PUSH1 0x1 SWAP1 SUB SWAP1 PUSH1 0x0 MSTORE PUSH1 0x20 PUSH1 0x0 KECCAK256 SWAP1 PUSH1 0x2 MUL ADD PUSH1 0x0 SWAP1 SWAP2 SWAP1 SWAP2 SWAP1 SWAP2 POP PUSH1 0x0 DUP3 ADD DUP2 PUSH1 0x0 ADD SWAP1 DUP2 PUSH2 0x801 SWAP2 SWAP1 PUSH2 0x3FF0 JUMP JUMPDEST POP PUSH1 0x1 DUP3 ADD PUSH1 0x0 SWAP1 SLOAD SWAP1 PUSH2 0x100 EXP SWAP1 DIV PUSH20 0xFFFFFFFFFFFFFFFFFFFFFFFFFFFFFFFFFFFFFFFF AND DUP2 PUSH1 0x1 ADD PUSH1 0x0 PUSH2 0x100 EXP DUP2 SLOAD DUP2 PUSH20 0xFFFFFFFFFFFFFFFFFFFFFFFFFFFFFFFFFFFFFFFF MUL NOT AND SWAP1 DUP4 PUSH20 0xFFFFFFFFFFFFFFFFFFFFFFFFFFFFFFFFFFFFFFFF AND MUL OR SWAP1 SSTORE POP PUSH1 0x1 DUP3 ADD PUSH1 0x14 SWAP1 SLOAD SWAP1 PUSH2 0x100 EXP SWAP1 DIV PUSH1 0xFF AND DUP2 PUSH1 0x1 ADD PUSH1 0x14 PUSH2 0x100 EXP DUP2 SLOAD DUP2 PUSH1 0xFF MUL NOT AND SWAP1 DUP4 ISZERO ISZERO MUL OR SWAP1 SSTORE POP POP POP PUSH1 0x10 PUSH1 0x13 PUSH1 0x0 DUP5 PUSH20 0xFFFFFFFFFFFFFFFFFFFFFFFFFFFFFFFFFFFFFFFF AND PUSH20 0xFFFFFFFFFFFFFFFFFFFFFFFFFFFFFFFFFFFFFFFF AND DUP2 MSTORE PUSH1 0x20 ADD SWAP1 DUP2 MSTORE PUSH1 0x20 ADD PUSH1 0x0 KECCAK256 PUSH1 0x0 DUP3 ADD DUP2 PUSH1 0x0 ADD SWAP1 DUP2 PUSH2 0x8ED SWAP2 SWAP1 PUSH2 0x3FF0 JUMP JUMPDEST POP PUSH1 0x1 DUP3 ADD PUSH1 0x0 SWAP1 SLOAD SWAP1 PUSH2 0x100 EXP SWAP1 DIV PUSH20 0xFFFFFFFFFFFFFFFFFFFFFFFFFFFFFFFFFFFFFFFF AND DUP2 PUSH1 0x1 ADD PUSH1 0x0 PUSH2 0x100 EXP DUP2 SLOAD DUP2 PUSH20 0xFFFFFFFFFFFFFFFFFFFFFFFFFFFFFFFFFFFFFFFF MUL NOT AND SWAP1 DUP4 PUSH20 0xFFFFFFFFFFFFFFFFFFFFFFFFFFFFFFFFFFFFFFFF AND MUL OR SWAP1 SSTORE POP PUSH1 0x1 DUP3 ADD PUSH1 0x14 SWAP1 SLOAD SWAP1 PUSH2 0x100 EXP SWAP1 DIV PUSH1 0xFF AND DUP2 PUSH1 0x1 ADD PUSH1 0x14 PUSH2 0x100 EXP DUP2 SLOAD DUP2 PUSH1 0xFF MUL NOT AND SWAP1 DUP4 ISZERO ISZERO MUL OR SWAP1 SSTORE POP SWAP1 POP POP PUSH2 0xB50 JUMP JUMPDEST PUSH1 0x14 PUSH1 0x10 SWAP1 DUP1 PUSH1 0x1 DUP2 SLOAD ADD DUP1 DUP3 SSTORE DUP1 SWAP2 POP POP PUSH1 0x1 SWAP1 SUB SWAP1 PUSH1 0x0 MSTORE PUSH1 0x20 PUSH1 0x0 KECCAK256 SWAP1 PUSH1 0x2 MUL ADD PUSH1 0x0 SWAP1 SWAP2 SWAP1 SWAP2 SWAP1 SWAP2 POP PUSH1 0x0 DUP3 ADD DUP2 PUSH1 0x0 ADD SWAP1 DUP2 PUSH2 0x9CB SWAP2 SWAP1 PUSH2 0x3FF0 JUMP JUMPDEST POP PUSH1 0x1 DUP3 ADD PUSH1 0x0 SWAP1 SLOAD SWAP1 PUSH2 0x100 EXP SWAP1 DIV PUSH20 0xFFFFFFFFFFFFFFFFFFFFFFFFFFFFFFFFFFFFFFFF AND DUP2 PUSH1 0x1 ADD PUSH1 0x0 PUSH2 0x100 EXP DUP2 SLOAD DUP2 PUSH20 0xFFFFFFFFFFFFFFFFFFFFFFFFFFFFFFFFFFFFFFFF MUL NOT AND SWAP1 DUP4 PUSH20 0xFFFFFFFFFFFFFFFFFFFFFFFFFFFFFFFFFFFFFFFF AND MUL OR SWAP1 SSTORE POP PUSH1 0x1 DUP3 ADD PUSH1 0x14 SWAP1 SLOAD SWAP1 PUSH2 0x100 EXP SWAP1 DIV PUSH1 0xFF AND DUP2 PUSH1 0x1 ADD PUSH1 0x14 PUSH2 0x100 EXP DUP2 SLOAD DUP2 PUSH1 0xFF MUL NOT AND SWAP1 DUP4 ISZERO ISZERO MUL OR SWAP1 SSTORE POP POP POP PUSH1 0x10 PUSH1 0x15 PUSH1 0x0 DUP5 PUSH20 0xFFFFFFFFFFFFFFFFFFFFFFFFFFFFFFFFFFFFFFFF AND PUSH20 0xFFFFFFFFFFFFFFFFFFFFFFFFFFFFFFFFFFFFFFFF AND DUP2 MSTORE PUSH1 0x20 ADD SWAP1 DUP2 MSTORE PUSH1 0x20 ADD PUSH1 0x0 KECCAK256 PUSH1 0x0 DUP3 ADD DUP2 PUSH1 0x0 ADD SWAP1 DUP2 PUSH2 0xAB7 SWAP2 SWAP1 PUSH2 0x3FF0 JUMP JUMPDEST POP PUSH1 0x1 DUP3 ADD PUSH1 0x0 SWAP1 SLOAD SWAP1 PUSH2 0x100 EXP SWAP1 DIV PUSH20 0xFFFFFFFFFFFFFFFFFFFFFFFFFFFFFFFFFFFFFFFF AND DUP2 PUSH1 0x1 ADD PUSH1 0x0 PUSH2 0x100 EXP DUP2 SLOAD DUP2 PUSH20 0xFFFFFFFFFFFFFFFFFFFFFFFFFFFFFFFFFFFFFFFF MUL NOT AND SWAP1 DUP4 PUSH20 0xFFFFFFFFFFFFFFFFFFFFFFFFFFFFFFFFFFFFFFFF AND MUL OR SWAP1 SSTORE POP PUSH1 0x1 DUP3 ADD PUSH1 0x14 SWAP1 SLOAD SWAP1 PUSH2 0x100 EXP SWAP1 DIV PUSH1 0xFF AND DUP2 PUSH1 0x1 ADD PUSH1 0x14 PUSH2 0x100 EXP DUP2 SLOAD DUP2 PUSH1 0xFF MUL NOT AND SWAP1 DUP4 ISZERO ISZERO MUL OR SWAP1 SSTORE POP SWAP1 POP POP JUMPDEST POP POP POP JUMP JUMPDEST DUP5 PUSH1 0xA PUSH1 0x0 ADD SWAP1 DUP2 PUSH2 0xB67 SWAP2 SWAP1 PUSH2 0x3F08 JUMP JUMPDEST POP DUP4 PUSH1 0xA PUSH1 0x1 ADD SWAP1 DUP2 PUSH2 0xB7A SWAP2 SWAP1 PUSH2 0x3F08 JUMP JUMPDEST POP DUP3 PUSH1 0xA PUSH1 0x2 ADD SWAP1 DUP2 PUSH2 0xB8D SWAP2 SWAP1 PUSH2 0x3F08 JUMP JUMPDEST POP DUP2 PUSH1 0xA PUSH1 0x3 ADD PUSH1 0x0 PUSH2 0x100 EXP DUP2 SLOAD DUP2 PUSH20 0xFFFFFFFFFFFFFFFFFFFFFFFFFFFFFFFFFFFFFFFF MUL NOT AND SWAP1 DUP4 PUSH20 0xFFFFFFFFFFFFFFFFFFFFFFFFFFFFFFFFFFFFFFFF AND MUL OR SWAP1 SSTORE POP PUSH1 0x40 MLOAD PUSH1 0x20 ADD PUSH2 0xBE1 SWAP1 PUSH2 0x412F JUMP JUMPDEST PUSH1 0x40 MLOAD PUSH1 0x20 DUP2 DUP4 SUB SUB DUP2 MSTORE SWAP1 PUSH1 0x40 MSTORE DUP1 MLOAD SWAP1 PUSH1 0x20 ADD KECCAK256 DUP6 PUSH1 0x40 MLOAD PUSH1 0x20 ADD PUSH2 0xC08 SWAP2 SWAP1 PUSH2 0x4175 JUMP JUMPDEST PUSH1 0x40 MLOAD PUSH1 0x20 DUP2 DUP4 SUB SUB DUP2 MSTORE SWAP1 PUSH1 0x40 MSTORE DUP1 MLOAD SWAP1 PUSH1 0x20 ADD KECCAK256 SUB PUSH2 0xC33 JUMPI PUSH1 0x1 PUSH1 0xA PUSH1 0x4 ADD DUP2 SWAP1 SSTORE POP PUSH2 0xD65 JUMP JUMPDEST PUSH1 0x40 MLOAD PUSH1 0x20 ADD PUSH2 0xC42 SWAP1 PUSH2 0x41D8 JUMP JUMPDEST PUSH1 0x40 MLOAD PUSH1 0x20 DUP2 DUP4 SUB SUB DUP2 MSTORE SWAP1 PUSH1 0x40 MSTORE DUP1 MLOAD SWAP1 PUSH1 0x20 ADD KECCAK256 DUP6 PUSH1 0x40 MLOAD PUSH1 0x20 ADD PUSH2 0xC69 SWAP2 SWAP1 PUSH2 0x4175 JUMP JUMPDEST PUSH1 0x40 MLOAD PUSH1 0x20 DUP2 DUP4 SUB SUB DUP2 MSTORE SWAP1 PUSH1 0x40 MSTORE DUP1 MLOAD SWAP1 PUSH1 0x20 ADD KECCAK256 SUB PUSH2 0xC94 JUMPI PUSH1 0x2 PUSH1 0xA PUSH1 0x4 ADD DUP2 SWAP1 SSTORE POP PUSH2 0xD64 JUMP JUMPDEST PUSH1 0x40 MLOAD PUSH1 0x20 ADD PUSH2 0xCA3 SWAP1 PUSH2 0x4239 JUMP JUMPDEST PUSH1 0x40 MLOAD PUSH1 0x20 DUP2 DUP4 SUB SUB DUP2 MSTORE SWAP1 PUSH1 0x40 MSTORE DUP1 MLOAD SWAP1 PUSH1 0x20 ADD KECCAK256 DUP6 PUSH1 0x40 MLOAD PUSH1 0x20 ADD PUSH2 0xCCA SWAP2 SWAP1 PUSH2 0x4175 JUMP JUMPDEST PUSH1 0x40 MLOAD PUSH1 0x20 DUP2 DUP4 SUB SUB DUP2 MSTORE SWAP1 PUSH1 0x40 MSTORE DUP1 MLOAD SWAP1 PUSH1 0x20 ADD KECCAK256 SUB PUSH2 0xCF5 JUMPI PUSH1 0x3 PUSH1 0xA PUSH1 0x4 ADD DUP2 SWAP1 SSTORE POP PUSH2 0xD63 JUMP JUMPDEST PUSH1 0x40 MLOAD PUSH1 0x20 ADD PUSH2 0xD04 SWAP1 PUSH2 0x429A JUMP JUMPDEST PUSH1 0x40 MLOAD PUSH1 0x20 DUP2 DUP4 SUB SUB DUP2 MSTORE SWAP1 PUSH1 0x40 MSTORE DUP1 MLOAD SWAP1 PUSH1 0x20 ADD KECCAK256 DUP6 PUSH1 0x40 MLOAD PUSH1 0x20 ADD PUSH2 0xD2B SWAP2 SWAP1 PUSH2 0x4175 JUMP JUMPDEST PUSH1 0x40 MLOAD PUSH1 0x20 DUP2 DUP4 SUB SUB DUP2 MSTORE SWAP1 PUSH1 0x40 MSTORE DUP1 MLOAD SWAP1 PUSH1 0x20 ADD KECCAK256 SUB PUSH2 0xD56 JUMPI PUSH1 0x4 PUSH1 0xA PUSH1 0x4 ADD DUP2 SWAP1 SSTORE POP PUSH2 0xD62 JUMP JUMPDEST PUSH1 0x5 PUSH1 0xA PUSH1 0x4 ADD DUP2 SWAP1 SSTORE POP JUMPDEST JUMPDEST JUMPDEST JUMPDEST PUSH1 0x1 ISZERO ISZERO DUP2 ISZERO ISZERO EQ DUP1 ISZERO PUSH2 0xDC3 JUMPI POP PUSH1 0x40 MLOAD PUSH1 0x20 ADD PUSH2 0xD83 SWAP1 PUSH2 0x412F JUMP JUMPDEST PUSH1 0x40 MLOAD PUSH1 0x20 DUP2 DUP4 SUB SUB DUP2 MSTORE SWAP1 PUSH1 0x40 MSTORE DUP1 MLOAD SWAP1 PUSH1 0x20 ADD KECCAK256 DUP6 PUSH1 0x40 MLOAD PUSH1 0x20 ADD PUSH2 0xDAA SWAP2 SWAP1 PUSH2 0x4175 JUMP JUMPDEST PUSH1 0x40 MLOAD PUSH1 0x20 DUP2 DUP4 SUB SUB DUP2 MSTORE SWAP1 PUSH1 0x40 MSTORE DUP1 MLOAD SWAP1 PUSH1 0x20 ADD KECCAK256 EQ ISZERO JUMPDEST ISZERO PUSH2 0x114C JUMPI PUSH1 0x0 ISZERO ISZERO PUSH1 0x9 PUSH1 0x0 DUP5 PUSH20 0xFFFFFFFFFFFFFFFFFFFFFFFFFFFFFFFFFFFFFFFF AND PUSH20 0xFFFFFFFFFFFFFFFFFFFFFFFFFFFFFFFFFFFFFFFF AND DUP2 MSTORE PUSH1 0x20 ADD SWAP1 DUP2 MSTORE PUSH1 0x20 ADD PUSH1 0x0 KECCAK256 PUSH1 0x0 SWAP1 SLOAD SWAP1 PUSH2 0x100 EXP SWAP1 DIV PUSH1 0xFF AND ISZERO ISZERO EQ PUSH2 0xE5B JUMPI PUSH1 0x40 MLOAD PUSH32 0x8C379A000000000000000000000000000000000000000000000000000000000 DUP2 MSTORE PUSH1 0x4 ADD PUSH2 0xE52 SWAP1 PUSH2 0x430C JUMP JUMPDEST PUSH1 0x40 MLOAD DUP1 SWAP2 SUB SWAP1 REVERT JUMPDEST PUSH1 0x0 ISZERO ISZERO PUSH1 0x6 PUSH1 0x0 DUP5 PUSH20 0xFFFFFFFFFFFFFFFFFFFFFFFFFFFFFFFFFFFFFFFF AND PUSH20 0xFFFFFFFFFFFFFFFFFFFFFFFFFFFFFFFFFFFFFFFF AND DUP2 MSTORE PUSH1 0x20 ADD SWAP1 DUP2 MSTORE PUSH1 0x20 ADD PUSH1 0x0 KECCAK256 PUSH1 0x0 SWAP1 SLOAD SWAP1 PUSH2 0x100 EXP SWAP1 DIV PUSH1 0xFF AND ISZERO ISZERO EQ PUSH2 0xEEE JUMPI PUSH1 0x40 MLOAD PUSH32 0x8C379A000000000000000000000000000000000000000000000000000000000 DUP2 MSTORE PUSH1 0x4 ADD PUSH2 0xEE5 SWAP1 PUSH2 0x4378 JUMP JUMPDEST PUSH1 0x40 MLOAD DUP1 SWAP2 SUB SWAP1 REVERT JUMPDEST PUSH1 0x8 PUSH1 0xA SWAP1 DUP1 PUSH1 0x1 DUP2 SLOAD ADD DUP1 DUP3 SSTORE DUP1 SWAP2 POP POP PUSH1 0x1 SWAP1 SUB SWAP1 PUSH1 0x0 MSTORE PUSH1 0x20 PUSH1 0x0 KECCAK256 SWAP1 PUSH1 0x6 MUL ADD PUSH1 0x0 SWAP1 SWAP2 SWAP1 SWAP2 SWAP1 SWAP2 POP PUSH1 0x0 DUP3 ADD DUP2 PUSH1 0x0 ADD SWAP1 DUP2 PUSH2 0xF2F SWAP2 SWAP1 PUSH2 0x3FF0 JUMP JUMPDEST POP PUSH1 0x1 DUP3 ADD DUP2 PUSH1 0x1 ADD SWAP1 DUP2 PUSH2 0xF44 SWAP2 SWAP1 PUSH2 0x3FF0 JUMP JUMPDEST POP PUSH1 0x2 DUP3 ADD DUP2 PUSH1 0x2 ADD SWAP1 DUP2 PUSH2 0xF59 SWAP2 SWAP1 PUSH2 0x3FF0 JUMP JUMPDEST POP PUSH1 0x3 DUP3 ADD PUSH1 0x0 SWAP1 SLOAD SWAP1 PUSH2 0x100 EXP SWAP1 DIV PUSH20 0xFFFFFFFFFFFFFFFFFFFFFFFFFFFFFFFFFFFFFFFF AND DUP2 PUSH1 0x3 ADD PUSH1 0x0 PUSH2 0x100 EXP DUP2 SLOAD DUP2 PUSH20 0xFFFFFFFFFFFFFFFFFFFFFFFFFFFFFFFFFFFFFFFF MUL NOT AND SWAP1 DUP4 PUSH20 0xFFFFFFFFFFFFFFFFFFFFFFFFFFFFFFFFFFFFFFFF AND MUL OR SWAP1 SSTORE POP PUSH1 0x4 DUP3 ADD SLOAD DUP2 PUSH1 0x4 ADD SSTORE PUSH1 0x5 DUP3 ADD DUP2 PUSH1 0x5 ADD SWAP1 DUP1 SLOAD PUSH2 0xFE1 SWAP3 SWAP2 SWAP1 PUSH2 0x31E8 JUMP JUMPDEST POP POP POP PUSH1 0xA PUSH1 0x7 PUSH1 0x0 DUP5 PUSH20 0xFFFFFFFFFFFFFFFFFFFFFFFFFFFFFFFFFFFFFFFF AND PUSH20 0xFFFFFFFFFFFFFFFFFFFFFFFFFFFFFFFFFFFFFFFF AND DUP2 MSTORE PUSH1 0x20 ADD SWAP1 DUP2 MSTORE PUSH1 0x20 ADD PUSH1 0x0 KECCAK256 PUSH1 0x0 DUP3 ADD DUP2 PUSH1 0x0 ADD SWAP1 DUP2 PUSH2 0x1039 SWAP2 SWAP1 PUSH2 0x3FF0 JUMP JUMPDEST POP PUSH1 0x1 DUP3 ADD DUP2 PUSH1 0x1 ADD SWAP1 DUP2 PUSH2 0x104E SWAP2 SWAP1 PUSH2 0x3FF0 JUMP JUMPDEST POP PUSH1 0x2 DUP3 ADD DUP2 PUSH1 0x2 ADD SWAP1 DUP2 PUSH2 0x1063 SWAP2 SWAP1 PUSH2 0x3FF0 JUMP JUMPDEST POP PUSH1 0x3 DUP3 ADD PUSH1 0x0 SWAP1 SLOAD SWAP1 PUSH2 0x100 EXP SWAP1 DIV PUSH20 0xFFFFFFFFFFFFFFFFFFFFFFFFFFFFFFFFFFFFFFFF AND DUP2 PUSH1 0x3 ADD PUSH1 0x0 PUSH2 0x100 EXP DUP2 SLOAD DUP2 PUSH20 0xFFFFFFFFFFFFFFFFFFFFFFFFFFFFFFFFFFFFFFFF MUL NOT AND SWAP1 DUP4 PUSH20 0xFFFFFFFFFFFFFFFFFFFFFFFFFFFFFFFFFFFFFFFF AND MUL OR SWAP1 SSTORE POP PUSH1 0x4 DUP3 ADD SLOAD DUP2 PUSH1 0x4 ADD SSTORE PUSH1 0x5 DUP3 ADD DUP2 PUSH1 0x5 ADD SWAP1 DUP1 SLOAD PUSH2 0x10EB SWAP3 SWAP2 SWAP1 PUSH2 0x31E8 JUMP JUMPDEST POP SWAP1 POP POP PUSH1 0x1 PUSH1 0x9 PUSH1 0x0 DUP5 PUSH20 0xFFFFFFFFFFFFFFFFFFFFFFFFFFFFFFFFFFFFFFFF AND PUSH20 0xFFFFFFFFFFFFFFFFFFFFFFFFFFFFFFFFFFFFFFFF AND DUP2 MSTORE PUSH1 0x20 ADD SWAP1 DUP2 MSTORE PUSH1 0x20 ADD PUSH1 0x0 KECCAK256 PUSH1 0x0 PUSH2 0x100 EXP DUP2 SLOAD DUP2 PUSH1 0xFF MUL NOT AND SWAP1 DUP4 ISZERO ISZERO MUL OR SWAP1 SSTORE POP PUSH2 0x151E JUMP JUMPDEST PUSH1 0x40 MLOAD PUSH1 0x20 ADD PUSH2 0x115B SWAP1 PUSH2 0x412F JUMP JUMPDEST PUSH1 0x40 MLOAD PUSH1 0x20 DUP2 DUP4 SUB SUB DUP2 MSTORE SWAP1 PUSH1 0x40 MSTORE DUP1 MLOAD SWAP1 PUSH1 0x20 ADD KECCAK256 DUP6 PUSH1 0x40 MLOAD PUSH1 0x20 ADD PUSH2 0x1182 SWAP2 SWAP1 PUSH2 0x4175 JUMP JUMPDEST PUSH1 0x40 MLOAD PUSH1 0x20 DUP2 DUP4 SUB SUB DUP2 MSTORE SWAP1 PUSH1 0x40 MSTORE DUP1 MLOAD SWAP1 PUSH1 0x20 ADD KECCAK256 EQ PUSH2 0x1231 JUMPI PUSH1 0x1 ISZERO ISZERO PUSH1 0x9 PUSH1 0x0 DUP5 PUSH20 0xFFFFFFFFFFFFFFFFFFFFFFFFFFFFFFFFFFFFFFFF AND PUSH20 0xFFFFFFFFFFFFFFFFFFFFFFFFFFFFFFFFFFFFFFFF AND DUP2 MSTORE PUSH1 0x20 ADD SWAP1 DUP2 MSTORE PUSH1 0x20 ADD PUSH1 0x0 KECCAK256 PUSH1 0x0 SWAP1 SLOAD SWAP1 PUSH2 0x100 EXP SWAP1 DIV PUSH1 0xFF AND ISZERO ISZERO EQ PUSH2 0x1230 JUMPI PUSH1 0x40 MLOAD PUSH32 0x8C379A000000000000000000000000000000000000000000000000000000000 DUP2 MSTORE PUSH1 0x4 ADD PUSH2 0x1227 SWAP1 PUSH2 0x43E4 JUMP JUMPDEST PUSH1 0x40 MLOAD DUP1 SWAP2 SUB SWAP1 REVERT JUMPDEST JUMPDEST PUSH1 0x0 ISZERO ISZERO PUSH1 0x6 PUSH1 0x0 DUP5 PUSH20 0xFFFFFFFFFFFFFFFFFFFFFFFFFFFFFFFFFFFFFFFF AND PUSH20 0xFFFFFFFFFFFFFFFFFFFFFFFFFFFFFFFFFFFFFFFF AND DUP2 MSTORE PUSH1 0x20 ADD SWAP1 DUP2 MSTORE PUSH1 0x20 ADD PUSH1 0x0 KECCAK256 PUSH1 0x0 SWAP1 SLOAD SWAP1 PUSH2 0x100 EXP SWAP1 DIV PUSH1 0xFF AND ISZERO ISZERO EQ PUSH2 0x12C4 JUMPI PUSH1 0x40 MLOAD PUSH32 0x8C379A000000000000000000000000000000000000000000000000000000000 DUP2 MSTORE PUSH1 0x4 ADD PUSH2 0x12BB SWAP1 PUSH2 0x4378 JUMP JUMPDEST PUSH1 0x40 MLOAD DUP1 SWAP2 SUB SWAP1 REVERT JUMPDEST PUSH1 0x5 PUSH1 0xA SWAP1 DUP1 PUSH1 0x1 DUP2 SLOAD ADD DUP1 DUP3 SSTORE DUP1 SWAP2 POP POP PUSH1 0x1 SWAP1 SUB SWAP1 PUSH1 0x0 MSTORE PUSH1 0x20 PUSH1 0x0 KECCAK256 SWAP1 PUSH1 0x6 MUL ADD PUSH1 0x0 SWAP1 SWAP2 SWAP1 SWAP2 SWAP1 SWAP2 POP PUSH1 0x0 DUP3 ADD DUP2 PUSH1 0x0 ADD SWAP1 DUP2 PUSH2 0x1305 SWAP2 SWAP1 PUSH2 0x3FF0 JUMP JUMPDEST POP PUSH1 0x1 DUP3 ADD DUP2 PUSH1 0x1 ADD SWAP1 DUP2 PUSH2 0x131A SWAP2 SWAP1 PUSH2 0x3FF0 JUMP JUMPDEST POP PUSH1 0x2 DUP3 ADD DUP2 PUSH1 0x2 ADD SWAP1 DUP2 PUSH2 0x132F SWAP2 SWAP1 PUSH2 0x3FF0 JUMP JUMPDEST POP PUSH1 0x3 DUP3 ADD PUSH1 0x0 SWAP1 SLOAD SWAP1 PUSH2 0x100 EXP SWAP1 DIV PUSH20 0xFFFFFFFFFFFFFFFFFFFFFFFFFFFFFFFFFFFFFFFF AND DUP2 PUSH1 0x3 ADD PUSH1 0x0 PUSH2 0x100 EXP DUP2 SLOAD DUP2 PUSH20 0xFFFFFFFFFFFFFFFFFFFFFFFFFFFFFFFFFFFFFFFF MUL NOT AND SWAP1 DUP4 PUSH20 0xFFFFFFFFFFFFFFFFFFFFFFFFFFFFFFFFFFFFFFFF AND MUL OR SWAP1 SSTORE POP PUSH1 0x4 DUP3 ADD SLOAD DUP2 PUSH1 0x4 ADD SSTORE PUSH1 0x5 DUP3 ADD DUP2 PUSH1 0x5 ADD SWAP1 DUP1 SLOAD PUSH2 0x13B7 SWAP3 SWAP2 SWAP1 PUSH2 0x31E8 JUMP JUMPDEST POP POP POP PUSH1 0xA PUSH1 0x4 PUSH1 0x0 DUP5 PUSH20 0xFFFFFFFFFFFFFFFFFFFFFFFFFFFFFFFFFFFFFFFF AND PUSH20 0xFFFFFFFFFFFFFFFFFFFFFFFFFFFFFFFFFFFFFFFF AND DUP2 MSTORE PUSH1 0x20 ADD SWAP1 DUP2 MSTORE PUSH1 0x20 ADD PUSH1 0x0 KECCAK256 PUSH1 0x0 DUP3 ADD DUP2 PUSH1 0x0 ADD SWAP1 DUP2 PUSH2 0x140F SWAP2 SWAP1 PUSH2 0x3FF0 JUMP JUMPDEST POP PUSH1 0x1 DUP3 ADD DUP2 PUSH1 0x1 ADD SWAP1 DUP2 PUSH2 0x1424 SWAP2 SWAP1 PUSH2 0x3FF0 JUMP JUMPDEST POP PUSH1 0x2 DUP3 ADD DUP2 PUSH1 0x2 ADD SWAP1 DUP2 PUSH2 0x1439 SWAP2 SWAP1 PUSH2 0x3FF0 JUMP JUMPDEST POP PUSH1 0x3 DUP3 ADD PUSH1 0x0 SWAP1 SLOAD SWAP1 PUSH2 0x100 EXP SWAP1 DIV PUSH20 0xFFFFFFFFFFFFFFFFFFFFFFFFFFFFFFFFFFFFFFFF AND DUP2 PUSH1 0x3 ADD PUSH1 0x0 PUSH2 0x100 EXP DUP2 SLOAD DUP2 PUSH20 0xFFFFFFFFFFFFFFFFFFFFFFFFFFFFFFFFFFFFFFFF MUL NOT AND SWAP1 DUP4 PUSH20 0xFFFFFFFFFFFFFFFFFFFFFFFFFFFFFFFFFFFFFFFF AND MUL OR SWAP1 SSTORE POP PUSH1 0x4 DUP3 ADD SLOAD DUP2 PUSH1 0x4 ADD SSTORE PUSH1 0x5 DUP3 ADD DUP2 PUSH1 0x5 ADD SWAP1 DUP1 SLOAD PUSH2 0x14C1 SWAP3 SWAP2 SWAP1 PUSH2 0x31E8 JUMP JUMPDEST POP SWAP1 POP POP PUSH1 0x1 PUSH1 0x6 PUSH1 0x0 DUP5 PUSH20 0xFFFFFFFFFFFFFFFFFFFFFFFFFFFFFFFFFFFFFFFF AND PUSH20 0xFFFFFFFFFFFFFFFFFFFFFFFFFFFFFFFFFFFFFFFF AND DUP2 MSTORE PUSH1 0x20 ADD SWAP1 DUP2 MSTORE PUSH1 0x20 ADD PUSH1 0x0 KECCAK256 PUSH1 0x0 PUSH2 0x100 EXP DUP2 SLOAD DUP2 PUSH1 0xFF MUL NOT AND SWAP1 DUP4 ISZERO ISZERO MUL OR SWAP1 SSTORE POP JUMPDEST POP POP POP POP POP JUMP JUMPDEST PUSH1 0x0 PUSH1 0x15 PUSH1 0x0 DUP5 PUSH20 0xFFFFFFFFFFFFFFFFFFFFFFFFFFFFFFFFFFFFFFFF AND PUSH20 0xFFFFFFFFFFFFFFFFFFFFFFFFFFFFFFFFFFFFFFFF AND DUP2 MSTORE PUSH1 0x20 ADD SWAP1 DUP2 MSTORE PUSH1 0x20 ADD PUSH1 0x0 KECCAK256 PUSH1 0x40 MLOAD DUP1 PUSH1 0x60 ADD PUSH1 0x40 MSTORE SWAP1 DUP2 PUSH1 0x0 DUP3 ADD DUP1 SLOAD PUSH2 0x1581 SWAP1 PUSH2 0x3D2B JUMP JUMPDEST DUP1 PUSH1 0x1F ADD PUSH1 0x20 DUP1 SWAP2 DIV MUL PUSH1 0x20 ADD PUSH1 0x40 MLOAD SWAP1 DUP2 ADD PUSH1 0x40 MSTORE DUP1 SWAP3 SWAP2 SWAP1 DUP2 DUP2 MSTORE PUSH1 0x20 ADD DUP3 DUP1 SLOAD PUSH2 0x15AD SWAP1 PUSH2 0x3D2B JUMP JUMPDEST DUP1 ISZERO PUSH2 0x15FA JUMPI DUP1 PUSH1 0x1F LT PUSH2 0x15CF JUMPI PUSH2 0x100 DUP1 DUP4 SLOAD DIV MUL DUP4 MSTORE SWAP2 PUSH1 0x20 ADD SWAP2 PUSH2 0x15FA JUMP JUMPDEST DUP3 ADD SWAP2 SWAP1 PUSH1 0x0 MSTORE PUSH1 0x20 PUSH1 0x0 KECCAK256 SWAP1 JUMPDEST DUP2 SLOAD DUP2 MSTORE SWAP1 PUSH1 0x1 ADD SWAP1 PUSH1 0x20 ADD DUP1 DUP4 GT PUSH2 0x15DD JUMPI DUP3 SWAP1 SUB PUSH1 0x1F AND DUP3 ADD SWAP2 JUMPDEST POP POP POP POP POP DUP2 MSTORE PUSH1 0x20 ADD PUSH1 0x1 DUP3 ADD PUSH1 0x0 SWAP1 SLOAD SWAP1 PUSH2 0x100 EXP SWAP1 DIV PUSH20 0xFFFFFFFFFFFFFFFFFFFFFFFFFFFFFFFFFFFFFFFF AND PUSH20 0xFFFFFFFFFFFFFFFFFFFFFFFFFFFFFFFFFFFFFFFF AND PUSH20 0xFFFFFFFFFFFFFFFFFFFFFFFFFFFFFFFFFFFFFFFF AND DUP2 MSTORE PUSH1 0x20 ADD PUSH1 0x1 DUP3 ADD PUSH1 0x14 SWAP1 SLOAD SWAP1 PUSH2 0x100 EXP SWAP1 DIV PUSH1 0xFF AND ISZERO ISZERO ISZERO ISZERO DUP2 MSTORE POP POP SWAP1 POP PUSH1 0x0 DUP2 PUSH1 0x40 ADD SWAP1 ISZERO ISZERO SWAP1 DUP2 ISZERO ISZERO DUP2 MSTORE POP POP PUSH1 0x12 DUP2 SWAP1 DUP1 PUSH1 0x1 DUP2 SLOAD ADD DUP1 DUP3 SSTORE DUP1 SWAP2 POP POP PUSH1 0x1 SWAP1 SUB SWAP1 PUSH1 0x0 MSTORE PUSH1 0x20 PUSH1 0x0 KECCAK256 SWAP1 PUSH1 0x2 MUL ADD PUSH1 0x0 SWAP1 SWAP2 SWAP1 SWAP2 SWAP1 SWAP2 POP PUSH1 0x0 DUP3 ADD MLOAD DUP2 PUSH1 0x0 ADD SWAP1 DUP2 PUSH2 0x16C8 SWAP2 SWAP1 PUSH2 0x3F08 JUMP JUMPDEST POP PUSH1 0x20 DUP3 ADD MLOAD DUP2 PUSH1 0x1 ADD PUSH1 0x0 PUSH2 0x100 EXP DUP2 SLOAD DUP2 PUSH20 0xFFFFFFFFFFFFFFFFFFFFFFFFFFFFFFFFFFFFFFFF MUL NOT AND SWAP1 DUP4 PUSH20 0xFFFFFFFFFFFFFFFFFFFFFFFFFFFFFFFFFFFFFFFF AND MUL OR SWAP1 SSTORE POP PUSH1 0x40 DUP3 ADD MLOAD DUP2 PUSH1 0x1 ADD PUSH1 0x14 PUSH2 0x100 EXP DUP2 SLOAD DUP2 PUSH1 0xFF MUL NOT AND SWAP1 DUP4 ISZERO ISZERO MUL OR SWAP1 SSTORE POP POP POP DUP1 PUSH1 0x13 PUSH1 0x0 DUP6 PUSH20 0xFFFFFFFFFFFFFFFFFFFFFFFFFFFFFFFFFFFFFFFF AND PUSH20 0xFFFFFFFFFFFFFFFFFFFFFFFFFFFFFFFFFFFFFFFF AND DUP2 MSTORE PUSH1 0x20 ADD SWAP1 DUP2 MSTORE PUSH1 0x20 ADD PUSH1 0x0 KECCAK256 PUSH1 0x0 DUP3 ADD MLOAD DUP2 PUSH1 0x0 ADD SWAP1 DUP2 PUSH2 0x1787 SWAP2 SWAP1 PUSH2 0x3F08 JUMP JUMPDEST POP PUSH1 0x20 DUP3 ADD MLOAD DUP2 PUSH1 0x1 ADD PUSH1 0x0 PUSH2 0x100 EXP DUP2 SLOAD DUP2 PUSH20 0xFFFFFFFFFFFFFFFFFFFFFFFFFFFFFFFFFFFFFFFF MUL NOT AND SWAP1 DUP4 PUSH20 0xFFFFFFFFFFFFFFFFFFFFFFFFFFFFFFFFFFFFFFFF AND MUL OR SWAP1 SSTORE POP PUSH1 0x40 DUP3 ADD MLOAD DUP2 PUSH1 0x1 ADD PUSH1 0x14 PUSH2 0x100 EXP DUP2 SLOAD DUP2 PUSH1 0xFF MUL NOT AND SWAP1 DUP4 ISZERO ISZERO MUL OR SWAP1 SSTORE POP SWAP1 POP POP POP POP POP JUMP JUMPDEST PUSH1 0x0 PUSH1 0x1 ISZERO ISZERO PUSH1 0x6 PUSH1 0x0 DUP5 PUSH20 0xFFFFFFFFFFFFFFFFFFFFFFFFFFFFFFFFFFFFFFFF AND PUSH20 0xFFFFFFFFFFFFFFFFFFFFFFFFFFFFFFFFFFFFFFFF AND DUP2 MSTORE PUSH1 0x20 ADD SWAP1 DUP2 MSTORE PUSH1 0x20 ADD PUSH1 0x0 KECCAK256 PUSH1 0x0 SWAP1 SLOAD SWAP1 PUSH2 0x100 EXP SWAP1 DIV PUSH1 0xFF AND ISZERO ISZERO SUB PUSH2 0x185A JUMPI PUSH1 0x1 SWAP1 POP PUSH2 0x185F JUMP JUMPDEST PUSH1 0x0 SWAP1 POP JUMPDEST SWAP2 SWAP1 POP JUMP JUMPDEST JUMP JUMPDEST PUSH2 0x186E PUSH2 0x32E9 JUMP JUMPDEST PUSH1 0x1 ISZERO ISZERO DUP3 ISZERO ISZERO SUB PUSH2 0x1C43 JUMPI PUSH1 0x7 PUSH1 0x0 DUP5 PUSH20 0xFFFFFFFFFFFFFFFFFFFFFFFFFFFFFFFFFFFFFFFF AND PUSH20 0xFFFFFFFFFFFFFFFFFFFFFFFFFFFFFFFFFFFFFFFF AND DUP2 MSTORE PUSH1 0x20 ADD SWAP1 DUP2 MSTORE PUSH1 0x20 ADD PUSH1 0x0 KECCAK256 PUSH1 0x40 MLOAD DUP1 PUSH1 0xC0 ADD PUSH1 0x40 MSTORE SWAP1 DUP2 PUSH1 0x0 DUP3 ADD DUP1 SLOAD PUSH2 0x18D4 SWAP1 PUSH2 0x3D2B JUMP JUMPDEST DUP1 PUSH1 0x1F ADD PUSH1 0x20 DUP1 SWAP2 DIV MUL PUSH1 0x20 ADD PUSH1 0x40 MLOAD SWAP1 DUP2 ADD PUSH1 0x40 MSTORE DUP1 SWAP3 SWAP2 SWAP1 DUP2 DUP2 MSTORE PUSH1 0x20 ADD DUP3 DUP1 SLOAD PUSH2 0x1900 SWAP1 PUSH2 0x3D2B JUMP JUMPDEST DUP1 ISZERO PUSH2 0x194D JUMPI DUP1 PUSH1 0x1F LT PUSH2 0x1922 JUMPI PUSH2 0x100 DUP1 DUP4 SLOAD DIV MUL DUP4 MSTORE SWAP2 PUSH1 0x20 ADD SWAP2 PUSH2 0x194D JUMP JUMPDEST DUP3 ADD SWAP2 SWAP1 PUSH1 0x0 MSTORE PUSH1 0x20 PUSH1 0x0 KECCAK256 SWAP1 JUMPDEST DUP2 SLOAD DUP2 MSTORE SWAP1 PUSH1 0x1 ADD SWAP1 PUSH1 0x20 ADD DUP1 DUP4 GT PUSH2 0x1930 JUMPI DUP3 SWAP1 SUB PUSH1 0x1F AND DUP3 ADD SWAP2 JUMPDEST POP POP POP POP POP DUP2 MSTORE PUSH1 0x20 ADD PUSH1 0x1 DUP3 ADD DUP1 SLOAD PUSH2 0x1966 SWAP1 PUSH2 0x3D2B JUMP JUMPDEST DUP1 PUSH1 0x1F ADD PUSH1 0x20 DUP1 SWAP2 DIV MUL PUSH1 0x20 ADD PUSH1 0x40 MLOAD SWAP1 DUP2 ADD PUSH1 0x40 MSTORE DUP1 SWAP3 SWAP2 SWAP1 DUP2 DUP2 MSTORE PUSH1 0x20 ADD DUP3 DUP1 SLOAD PUSH2 0x1992 SWAP1 PUSH2 0x3D2B JUMP JUMPDEST DUP1 ISZERO PUSH2 0x19DF JUMPI DUP1 PUSH1 0x1F LT PUSH2 0x19B4 JUMPI PUSH2 0x100 DUP1 DUP4 SLOAD DIV MUL DUP4 MSTORE SWAP2 PUSH1 0x20 ADD SWAP2 PUSH2 0x19DF JUMP JUMPDEST DUP3 ADD SWAP2 SWAP1 PUSH1 0x0 MSTORE PUSH1 0x20 PUSH1 0x0 KECCAK256 SWAP1 JUMPDEST DUP2 SLOAD DUP2 MSTORE SWAP1 PUSH1 0x1 ADD SWAP1 PUSH1 0x20 ADD DUP1 DUP4 GT PUSH2 0x19C2 JUMPI DUP3 SWAP1 SUB PUSH1 0x1F AND DUP3 ADD SWAP2 JUMPDEST POP POP POP POP POP DUP2 MSTORE PUSH1 0x20 ADD PUSH1 0x2 DUP3 ADD DUP1 SLOAD PUSH2 0x19F8 SWAP1 PUSH2 0x3D2B JUMP JUMPDEST DUP1 PUSH1 0x1F ADD PUSH1 0x20 DUP1 SWAP2 DIV MUL PUSH1 0x20 ADD PUSH1 0x40 MLOAD SWAP1 DUP2 ADD PUSH1 0x40 MSTORE DUP1 SWAP3 SWAP2 SWAP1 DUP2 DUP2 MSTORE PUSH1 0x20 ADD DUP3 DUP1 SLOAD PUSH2 0x1A24 SWAP1 PUSH2 0x3D2B JUMP JUMPDEST DUP1 ISZERO PUSH2 0x1A71 JUMPI DUP1 PUSH1 0x1F LT PUSH2 0x1A46 JUMPI PUSH2 0x100 DUP1 DUP4 SLOAD DIV MUL DUP4 MSTORE SWAP2 PUSH1 0x20 ADD SWAP2 PUSH2 0x1A71 JUMP JUMPDEST DUP3 ADD SWAP2 SWAP1 PUSH1 0x0 MSTORE PUSH1 0x20 PUSH1 0x0 KECCAK256 SWAP1 JUMPDEST DUP2 SLOAD DUP2 MSTORE SWAP1 PUSH1 0x1 ADD SWAP1 PUSH1 0x20 ADD DUP1 DUP4 GT PUSH2 0x1A54 JUMPI DUP3 SWAP1 SUB PUSH1 0x1F AND DUP3 ADD SWAP2 JUMPDEST POP POP POP POP POP DUP2 MSTORE PUSH1 0x20 ADD PUSH1 0x3 DUP3 ADD PUSH1 0x0 SWAP1 SLOAD SWAP1 PUSH2 0x100 EXP SWAP1 DIV PUSH20 0xFFFFFFFFFFFFFFFFFFFFFFFFFFFFFFFFFFFFFFFF AND PUSH20 0xFFFFFFFFFFFFFFFFFFFFFFFFFFFFFFFFFFFFFFFF AND PUSH20 0xFFFFFFFFFFFFFFFFFFFFFFFFFFFFFFFFFFFFFFFF AND DUP2 MSTORE PUSH1 0x20 ADD PUSH1 0x4 DUP3 ADD SLOAD DUP2 MSTORE PUSH1 0x20 ADD PUSH1 0x5 DUP3 ADD DUP1 SLOAD DUP1 PUSH1 0x20 MUL PUSH1 0x20 ADD PUSH1 0x40 MLOAD SWAP1 DUP2 ADD PUSH1 0x40 MSTORE DUP1 SWAP3 SWAP2 SWAP1 DUP2 DUP2 MSTORE PUSH1 0x20 ADD PUSH1 0x0 SWAP1 JUMPDEST DUP3 DUP3 LT ISZERO PUSH2 0x1C34 JUMPI DUP4 DUP3 SWAP1 PUSH1 0x0 MSTORE PUSH1 0x20 PUSH1 0x0 KECCAK256 SWAP1 PUSH1 0x2 MUL ADD PUSH1 0x40 MLOAD DUP1 PUSH1 0x60 ADD PUSH1 0x40 MSTORE SWAP1 DUP2 PUSH1 0x0 DUP3 ADD DUP1 SLOAD PUSH2 0x1B32 SWAP1 PUSH2 0x3D2B JUMP JUMPDEST DUP1 PUSH1 0x1F ADD PUSH1 0x20 DUP1 SWAP2 DIV MUL PUSH1 0x20 ADD PUSH1 0x40 MLOAD SWAP1 DUP2 ADD PUSH1 0x40 MSTORE DUP1 SWAP3 SWAP2 SWAP1 DUP2 DUP2 MSTORE PUSH1 0x20 ADD DUP3 DUP1 SLOAD PUSH2 0x1B5E SWAP1 PUSH2 0x3D2B JUMP JUMPDEST DUP1 ISZERO PUSH2 0x1BAB JUMPI DUP1 PUSH1 0x1F LT PUSH2 0x1B80 JUMPI PUSH2 0x100 DUP1 DUP4 SLOAD DIV MUL DUP4 MSTORE SWAP2 PUSH1 0x20 ADD SWAP2 PUSH2 0x1BAB JUMP JUMPDEST DUP3 ADD SWAP2 SWAP1 PUSH1 0x0 MSTORE PUSH1 0x20 PUSH1 0x0 KECCAK256 SWAP1 JUMPDEST DUP2 SLOAD DUP2 MSTORE SWAP1 PUSH1 0x1 ADD SWAP1 PUSH1 0x20 ADD DUP1 DUP4 GT PUSH2 0x1B8E JUMPI DUP3 SWAP1 SUB PUSH1 0x1F AND DUP3 ADD SWAP2 JUMPDEST POP POP POP POP POP DUP2 MSTORE PUSH1 0x20 ADD PUSH1 0x1 DUP3 ADD PUSH1 0x0 SWAP1 SLOAD SWAP1 PUSH2 0x100 EXP SWAP1 DIV PUSH20 0xFFFFFFFFFFFFFFFFFFFFFFFFFFFFFFFFFFFFFFFF AND PUSH20 0xFFFFFFFFFFFFFFFFFFFFFFFFFFFFFFFFFFFFFFFF AND PUSH20 0xFFFFFFFFFFFFFFFFFFFFFFFFFFFFFFFFFFFFFFFF AND DUP2 MSTORE PUSH1 0x20 ADD PUSH1 0x1 DUP3 ADD PUSH1 0x14 SWAP1 SLOAD SWAP1 PUSH2 0x100 EXP SWAP1 DIV PUSH1 0xFF AND ISZERO ISZERO ISZERO ISZERO DUP2 MSTORE POP POP DUP2 MSTORE PUSH1 0x20 ADD SWAP1 PUSH1 0x1 ADD SWAP1 PUSH2 0x1AFF JUMP JUMPDEST POP POP POP POP DUP2 MSTORE POP POP SWAP1 POP PUSH2 0x2008 JUMP JUMPDEST PUSH1 0x4 PUSH1 0x0 DUP5 PUSH20 0xFFFFFFFFFFFFFFFFFFFFFFFFFFFFFFFFFFFFFFFF AND PUSH20 0xFFFFFFFFFFFFFFFFFFFFFFFFFFFFFFFFFFFFFFFF AND DUP2 MSTORE PUSH1 0x20 ADD SWAP1 DUP2 MSTORE PUSH1 0x20 ADD PUSH1 0x0 KECCAK256 PUSH1 0x40 MLOAD DUP1 PUSH1 0xC0 ADD PUSH1 0x40 MSTORE SWAP1 DUP2 PUSH1 0x0 DUP3 ADD DUP1 SLOAD PUSH2 0x1C9D SWAP1 PUSH2 0x3D2B JUMP JUMPDEST DUP1 PUSH1 0x1F ADD PUSH1 0x20 DUP1 SWAP2 DIV MUL PUSH1 0x20 ADD PUSH1 0x40 MLOAD SWAP1 DUP2 ADD PUSH1 0x40 MSTORE DUP1 SWAP3 SWAP2 SWAP1 DUP2 DUP2 MSTORE PUSH1 0x20 ADD DUP3 DUP1 SLOAD PUSH2 0x1CC9 SWAP1 PUSH2 0x3D2B JUMP JUMPDEST DUP1 ISZERO PUSH2 0x1D16 JUMPI DUP1 PUSH1 0x1F LT PUSH2 0x1CEB JUMPI PUSH2 0x100 DUP1 DUP4 SLOAD DIV MUL DUP4 MSTORE SWAP2 PUSH1 0x20 ADD SWAP2 PUSH2 0x1D16 JUMP JUMPDEST DUP3 ADD SWAP2 SWAP1 PUSH1 0x0 MSTORE PUSH1 0x20 PUSH1 0x0 KECCAK256 SWAP1 JUMPDEST DUP2 SLOAD DUP2 MSTORE SWAP1 PUSH1 0x1 ADD SWAP1 PUSH1 0x20 ADD DUP1 DUP4 GT PUSH2 0x1CF9 JUMPI DUP3 SWAP1 SUB PUSH1 0x1F AND DUP3 ADD SWAP2 JUMPDEST POP POP POP POP POP DUP2 MSTORE PUSH1 0x20 ADD PUSH1 0x1 DUP3 ADD DUP1 SLOAD PUSH2 0x1D2F SWAP1 PUSH2 0x3D2B JUMP JUMPDEST DUP1 PUSH1 0x1F ADD PUSH1 0x20 DUP1 SWAP2 DIV MUL PUSH1 0x20 ADD PUSH1 0x40 MLOAD SWAP1 DUP2 ADD PUSH1 0x40 MSTORE DUP1 SWAP3 SWAP2 SWAP1 DUP2 DUP2 MSTORE PUSH1 0x20 ADD DUP3 DUP1 SLOAD PUSH2 0x1D5B SWAP1 PUSH2 0x3D2B JUMP JUMPDEST DUP1 ISZERO PUSH2 0x1DA8 JUMPI DUP1 PUSH1 0x1F LT PUSH2 0x1D7D JUMPI PUSH2 0x100 DUP1 DUP4 SLOAD DIV MUL DUP4 MSTORE SWAP2 PUSH1 0x20 ADD SWAP2 PUSH2 0x1DA8 JUMP JUMPDEST DUP3 ADD SWAP2 SWAP1 PUSH1 0x0 MSTORE PUSH1 0x20 PUSH1 0x0 KECCAK256 SWAP1 JUMPDEST DUP2 SLOAD DUP2 MSTORE SWAP1 PUSH1 0x1 ADD SWAP1 PUSH1 0x20 ADD DUP1 DUP4 GT PUSH2 0x1D8B JUMPI DUP3 SWAP1 SUB PUSH1 0x1F AND DUP3 ADD SWAP2 JUMPDEST POP POP POP POP POP DUP2 MSTORE PUSH1 0x20 ADD PUSH1 0x2 DUP3 ADD DUP1 SLOAD PUSH2 0x1DC1 SWAP1 PUSH2 0x3D2B JUMP JUMPDEST DUP1 PUSH1 0x1F ADD PUSH1 0x20 DUP1 SWAP2 DIV MUL PUSH1 0x20 ADD PUSH1 0x40 MLOAD SWAP1 DUP2 ADD PUSH1 0x40 MSTORE DUP1 SWAP3 SWAP2 SWAP1 DUP2 DUP2 MSTORE PUSH1 0x20 ADD DUP3 DUP1 SLOAD PUSH2 0x1DED SWAP1 PUSH2 0x3D2B JUMP JUMPDEST DUP1 ISZERO PUSH2 0x1E3A JUMPI DUP1 PUSH1 0x1F LT PUSH2 0x1E0F JUMPI PUSH2 0x100 DUP1 DUP4 SLOAD DIV MUL DUP4 MSTORE SWAP2 PUSH1 0x20 ADD SWAP2 PUSH2 0x1E3A JUMP JUMPDEST DUP3 ADD SWAP2 SWAP1 PUSH1 0x0 MSTORE PUSH1 0x20 PUSH1 0x0 KECCAK256 SWAP1 JUMPDEST DUP2 SLOAD DUP2 MSTORE SWAP1 PUSH1 0x1 ADD SWAP1 PUSH1 0x20 ADD DUP1 DUP4 GT PUSH2 0x1E1D JUMPI DUP3 SWAP1 SUB PUSH1 0x1F AND DUP3 ADD SWAP2 JUMPDEST POP POP POP POP POP DUP2 MSTORE PUSH1 0x20 ADD PUSH1 0x3 DUP3 ADD PUSH1 0x0 SWAP1 SLOAD SWAP1 PUSH2 0x100 EXP SWAP1 DIV PUSH20 0xFFFFFFFFFFFFFFFFFFFFFFFFFFFFFFFFFFFFFFFF AND PUSH20 0xFFFFFFFFFFFFFFFFFFFFFFFFFFFFFFFFFFFFFFFF AND PUSH20 0xFFFFFFFFFFFFFFFFFFFFFFFFFFFFFFFFFFFFFFFF AND DUP2 MSTORE PUSH1 0x20 ADD PUSH1 0x4 DUP3 ADD SLOAD DUP2 MSTORE PUSH1 0x20 ADD PUSH1 0x5 DUP3 ADD DUP1 SLOAD DUP1 PUSH1 0x20 MUL PUSH1 0x20 ADD PUSH1 0x40 MLOAD SWAP1 DUP2 ADD PUSH1 0x40 MSTORE DUP1 SWAP3 SWAP2 SWAP1 DUP2 DUP2 MSTORE PUSH1 0x20 ADD PUSH1 0x0 SWAP1 JUMPDEST DUP3 DUP3 LT ISZERO PUSH2 0x1FFD JUMPI DUP4 DUP3 SWAP1 PUSH1 0x0 MSTORE PUSH1 0x20 PUSH1 0x0 KECCAK256 SWAP1 PUSH1 0x2 MUL ADD PUSH1 0x40 MLOAD DUP1 PUSH1 0x60 ADD PUSH1 0x40 MSTORE SWAP1 DUP2 PUSH1 0x0 DUP3 ADD DUP1 SLOAD PUSH2 0x1EFB SWAP1 PUSH2 0x3D2B JUMP JUMPDEST DUP1 PUSH1 0x1F ADD PUSH1 0x20 DUP1 SWAP2 DIV MUL PUSH1 0x20 ADD PUSH1 0x40 MLOAD SWAP1 DUP2 ADD PUSH1 0x40 MSTORE DUP1 SWAP3 SWAP2 SWAP1 DUP2 DUP2 MSTORE PUSH1 0x20 ADD DUP3 DUP1 SLOAD PUSH2 0x1F27 SWAP1 PUSH2 0x3D2B JUMP JUMPDEST DUP1 ISZERO PUSH2 0x1F74 JUMPI DUP1 PUSH1 0x1F LT PUSH2 0x1F49 JUMPI PUSH2 0x100 DUP1 DUP4 SLOAD DIV MUL DUP4 MSTORE SWAP2 PUSH1 0x20 ADD SWAP2 PUSH2 0x1F74 JUMP JUMPDEST DUP3 ADD SWAP2 SWAP1 PUSH1 0x0 MSTORE PUSH1 0x20 PUSH1 0x0 KECCAK256 SWAP1 JUMPDEST DUP2 SLOAD DUP2 MSTORE SWAP1 PUSH1 0x1 ADD SWAP1 PUSH1 0x20 ADD DUP1 DUP4 GT PUSH2 0x1F57 JUMPI DUP3 SWAP1 SUB PUSH1 0x1F AND DUP3 ADD SWAP2 JUMPDEST POP POP POP POP POP DUP2 MSTORE PUSH1 0x20 ADD PUSH1 0x1 DUP3 ADD PUSH1 0x0 SWAP1 SLOAD SWAP1 PUSH2 0x100 EXP SWAP1 DIV PUSH20 0xFFFFFFFFFFFFFFFFFFFFFFFFFFFFFFFFFFFFFFFF AND PUSH20 0xFFFFFFFFFFFFFFFFFFFFFFFFFFFFFFFFFFFFFFFF AND PUSH20 0xFFFFFFFFFFFFFFFFFFFFFFFFFFFFFFFFFFFFFFFF AND DUP2 MSTORE PUSH1 0x20 ADD PUSH1 0x1 DUP3 ADD PUSH1 0x14 SWAP1 SLOAD SWAP1 PUSH2 0x100 EXP SWAP1 DIV PUSH1 0xFF AND ISZERO ISZERO ISZERO ISZERO DUP2 MSTORE POP POP DUP2 MSTORE PUSH1 0x20 ADD SWAP1 PUSH1 0x1 ADD SWAP1 PUSH2 0x1EC8 JUMP JUMPDEST POP POP POP POP DUP2 MSTORE POP POP SWAP1 POP JUMPDEST SWAP3 SWAP2 POP POP JUMP JUMPDEST PUSH1 0x0 PUSH1 0x7 PUSH1 0x0 DUP5 PUSH20 0xFFFFFFFFFFFFFFFFFFFFFFFFFFFFFFFFFFFFFFFF AND PUSH20 0xFFFFFFFFFFFFFFFFFFFFFFFFFFFFFFFFFFFFFFFF AND DUP2 MSTORE PUSH1 0x20 ADD SWAP1 DUP2 MSTORE PUSH1 0x20 ADD PUSH1 0x0 KECCAK256 PUSH1 0x40 MLOAD DUP1 PUSH1 0xC0 ADD PUSH1 0x40 MSTORE SWAP1 DUP2 PUSH1 0x0 DUP3 ADD DUP1 SLOAD PUSH2 0x206A SWAP1 PUSH2 0x3D2B JUMP JUMPDEST DUP1 PUSH1 0x1F ADD PUSH1 0x20 DUP1 SWAP2 DIV MUL PUSH1 0x20 ADD PUSH1 0x40 MLOAD SWAP1 DUP2 ADD PUSH1 0x40 MSTORE DUP1 SWAP3 SWAP2 SWAP1 DUP2 DUP2 MSTORE PUSH1 0x20 ADD DUP3 DUP1 SLOAD PUSH2 0x2096 SWAP1 PUSH2 0x3D2B JUMP JUMPDEST DUP1 ISZERO PUSH2 0x20E3 JUMPI DUP1 PUSH1 0x1F LT PUSH2 0x20B8 JUMPI PUSH2 0x100 DUP1 DUP4 SLOAD DIV MUL DUP4 MSTORE SWAP2 PUSH1 0x20 ADD SWAP2 PUSH2 0x20E3 JUMP JUMPDEST DUP3 ADD SWAP2 SWAP1 PUSH1 0x0 MSTORE PUSH1 0x20 PUSH1 0x0 KECCAK256 SWAP1 JUMPDEST DUP2 SLOAD DUP2 MSTORE SWAP1 PUSH1 0x1 ADD SWAP1 PUSH1 0x20 ADD DUP1 DUP4 GT PUSH2 0x20C6 JUMPI DUP3 SWAP1 SUB PUSH1 0x1F AND DUP3 ADD SWAP2 JUMPDEST POP POP POP POP POP DUP2 MSTORE PUSH1 0x20 ADD PUSH1 0x1 DUP3 ADD DUP1 SLOAD PUSH2 0x20FC SWAP1 PUSH2 0x3D2B JUMP JUMPDEST DUP1 PUSH1 0x1F ADD PUSH1 0x20 DUP1 SWAP2 DIV MUL PUSH1 0x20 ADD PUSH1 0x40 MLOAD SWAP1 DUP2 ADD PUSH1 0x40 MSTORE DUP1 SWAP3 SWAP2 SWAP1 DUP2 DUP2 MSTORE PUSH1 0x20 ADD DUP3 DUP1 SLOAD PUSH2 0x2128 SWAP1 PUSH2 0x3D2B JUMP JUMPDEST DUP1 ISZERO PUSH2 0x2175 JUMPI DUP1 PUSH1 0x1F LT PUSH2 0x214A JUMPI PUSH2 0x100 DUP1 DUP4 SLOAD DIV MUL DUP4 MSTORE SWAP2 PUSH1 0x20 ADD SWAP2 PUSH2 0x2175 JUMP JUMPDEST DUP3 ADD SWAP2 SWAP1 PUSH1 0x0 MSTORE PUSH1 0x20 PUSH1 0x0 KECCAK256 SWAP1 JUMPDEST DUP2 SLOAD DUP2 MSTORE SWAP1 PUSH1 0x1 ADD SWAP1 PUSH1 0x20 ADD DUP1 DUP4 GT PUSH2 0x2158 JUMPI DUP3 SWAP1 SUB PUSH1 0x1F AND DUP3 ADD SWAP2 JUMPDEST POP POP POP POP POP DUP2 MSTORE PUSH1 0x20 ADD PUSH1 0x2 DUP3 ADD DUP1 SLOAD PUSH2 0x218E SWAP1 PUSH2 0x3D2B JUMP JUMPDEST DUP1 PUSH1 0x1F ADD PUSH1 0x20 DUP1 SWAP2 DIV MUL PUSH1 0x20 ADD PUSH1 0x40 MLOAD SWAP1 DUP2 ADD PUSH1 0x40 MSTORE DUP1 SWAP3 SWAP2 SWAP1 DUP2 DUP2 MSTORE PUSH1 0x20 ADD DUP3 DUP1 SLOAD PUSH2 0x21BA SWAP1 PUSH2 0x3D2B JUMP JUMPDEST DUP1 ISZERO PUSH2 0x2207 JUMPI DUP1 PUSH1 0x1F LT PUSH2 0x21DC JUMPI PUSH2 0x100 DUP1 DUP4 SLOAD DIV MUL DUP4 MSTORE SWAP2 PUSH1 0x20 ADD SWAP2 PUSH2 0x2207 JUMP JUMPDEST DUP3 ADD SWAP2 SWAP1 PUSH1 0x0 MSTORE PUSH1 0x20 PUSH1 0x0 KECCAK256 SWAP1 JUMPDEST DUP2 SLOAD DUP2 MSTORE SWAP1 PUSH1 0x1 ADD SWAP1 PUSH1 0x20 ADD DUP1 DUP4 GT PUSH2 0x21EA JUMPI DUP3 SWAP1 SUB PUSH1 0x1F AND DUP3 ADD SWAP2 JUMPDEST POP POP POP POP POP DUP2 MSTORE PUSH1 0x20 ADD PUSH1 0x3 DUP3 ADD PUSH1 0x0 SWAP1 SLOAD SWAP1 PUSH2 0x100 EXP SWAP1 DIV PUSH20 0xFFFFFFFFFFFFFFFFFFFFFFFFFFFFFFFFFFFFFFFF AND PUSH20 0xFFFFFFFFFFFFFFFFFFFFFFFFFFFFFFFFFFFFFFFF AND PUSH20 0xFFFFFFFFFFFFFFFFFFFFFFFFFFFFFFFFFFFFFFFF AND DUP2 MSTORE PUSH1 0x20 ADD PUSH1 0x4 DUP3 ADD SLOAD DUP2 MSTORE PUSH1 0x20 ADD PUSH1 0x5 DUP3 ADD DUP1 SLOAD DUP1 PUSH1 0x20 MUL PUSH1 0x20 ADD PUSH1 0x40 MLOAD SWAP1 DUP2 ADD PUSH1 0x40 MSTORE DUP1 SWAP3 SWAP2 SWAP1 DUP2 DUP2 MSTORE PUSH1 0x20 ADD PUSH1 0x0 SWAP1 JUMPDEST DUP3 DUP3 LT ISZERO PUSH2 0x23CA JUMPI DUP4 DUP3 SWAP1 PUSH1 0x0 MSTORE PUSH1 0x20 PUSH1 0x0 KECCAK256 SWAP1 PUSH1 0x2 MUL ADD PUSH1 0x40 MLOAD DUP1 PUSH1 0x60 ADD PUSH1 0x40 MSTORE SWAP1 DUP2 PUSH1 0x0 DUP3 ADD DUP1 SLOAD PUSH2 0x22C8 SWAP1 PUSH2 0x3D2B JUMP JUMPDEST DUP1 PUSH1 0x1F ADD PUSH1 0x20 DUP1 SWAP2 DIV MUL PUSH1 0x20 ADD PUSH1 0x40 MLOAD SWAP1 DUP2 ADD PUSH1 0x40 MSTORE DUP1 SWAP3 SWAP2 SWAP1 DUP2 DUP2 MSTORE PUSH1 0x20 ADD DUP3 DUP1 SLOAD PUSH2 0x22F4 SWAP1 PUSH2 0x3D2B JUMP JUMPDEST DUP1 ISZERO PUSH2 0x2341 JUMPI DUP1 PUSH1 0x1F LT PUSH2 0x2316 JUMPI PUSH2 0x100 DUP1 DUP4 SLOAD DIV MUL DUP4 MSTORE SWAP2 PUSH1 0x20 ADD SWAP2 PUSH2 0x2341 JUMP JUMPDEST DUP3 ADD SWAP2 SWAP1 PUSH1 0x0 MSTORE PUSH1 0x20 PUSH1 0x0 KECCAK256 SWAP1 JUMPDEST DUP2 SLOAD DUP2 MSTORE SWAP1 PUSH1 0x1 ADD SWAP1 PUSH1 0x20 ADD DUP1 DUP4 GT PUSH2 0x2324 JUMPI DUP3 SWAP1 SUB PUSH1 0x1F AND DUP3 ADD SWAP2 JUMPDEST POP POP POP POP POP DUP2 MSTORE PUSH1 0x20 ADD PUSH1 0x1 DUP3 ADD PUSH1 0x0 SWAP1 SLOAD SWAP1 PUSH2 0x100 EXP SWAP1 DIV PUSH20 0xFFFFFFFFFFFFFFFFFFFFFFFFFFFFFFFFFFFFFFFF AND PUSH20 0xFFFFFFFFFFFFFFFFFFFFFFFFFFFFFFFFFFFFFFFF AND PUSH20 0xFFFFFFFFFFFFFFFFFFFFFFFFFFFFFFFFFFFFFFFF AND DUP2 MSTORE PUSH1 0x20 ADD PUSH1 0x1 DUP3 ADD PUSH1 0x14 SWAP1 SLOAD SWAP1 PUSH2 0x100 EXP SWAP1 DIV PUSH1 0xFF AND ISZERO ISZERO ISZERO ISZERO DUP2 MSTORE POP POP DUP2 MSTORE PUSH1 0x20 ADD SWAP1 PUSH1 0x1 ADD SWAP1 PUSH2 0x2295 JUMP JUMPDEST POP POP POP POP DUP2 MSTORE POP POP SWAP1 POP PUSH1 0x0 PUSH1 0x4 PUSH1 0x0 DUP5 PUSH20 0xFFFFFFFFFFFFFFFFFFFFFFFFFFFFFFFFFFFFFFFF AND PUSH20 0xFFFFFFFFFFFFFFFFFFFFFFFFFFFFFFFFFFFFFFFF AND DUP2 MSTORE PUSH1 0x20 ADD SWAP1 DUP2 MSTORE PUSH1 0x20 ADD PUSH1 0x0 KECCAK256 PUSH1 0x40 MLOAD DUP1 PUSH1 0xC0 ADD PUSH1 0x40 MSTORE SWAP1 DUP2 PUSH1 0x0 DUP3 ADD DUP1 SLOAD PUSH2 0x2430 SWAP1 PUSH2 0x3D2B JUMP JUMPDEST DUP1 PUSH1 0x1F ADD PUSH1 0x20 DUP1 SWAP2 DIV MUL PUSH1 0x20 ADD PUSH1 0x40 MLOAD SWAP1 DUP2 ADD PUSH1 0x40 MSTORE DUP1 SWAP3 SWAP2 SWAP1 DUP2 DUP2 MSTORE PUSH1 0x20 ADD DUP3 DUP1 SLOAD PUSH2 0x245C SWAP1 PUSH2 0x3D2B JUMP JUMPDEST DUP1 ISZERO PUSH2 0x24A9 JUMPI DUP1 PUSH1 0x1F LT PUSH2 0x247E JUMPI PUSH2 0x100 DUP1 DUP4 SLOAD DIV MUL DUP4 MSTORE SWAP2 PUSH1 0x20 ADD SWAP2 PUSH2 0x24A9 JUMP JUMPDEST DUP3 ADD SWAP2 SWAP1 PUSH1 0x0 MSTORE PUSH1 0x20 PUSH1 0x0 KECCAK256 SWAP1 JUMPDEST DUP2 SLOAD DUP2 MSTORE SWAP1 PUSH1 0x1 ADD SWAP1 PUSH1 0x20 ADD DUP1 DUP4 GT PUSH2 0x248C JUMPI DUP3 SWAP1 SUB PUSH1 0x1F AND DUP3 ADD SWAP2 JUMPDEST POP POP POP POP POP DUP2 MSTORE PUSH1 0x20 ADD PUSH1 0x1 DUP3 ADD DUP1 SLOAD PUSH2 0x24C2 SWAP1 PUSH2 0x3D2B JUMP JUMPDEST DUP1 PUSH1 0x1F ADD PUSH1 0x20 DUP1 SWAP2 DIV MUL PUSH1 0x20 ADD PUSH1 0x40 MLOAD SWAP1 DUP2 ADD PUSH1 0x40 MSTORE DUP1 SWAP3 SWAP2 SWAP1 DUP2 DUP2 MSTORE PUSH1 0x20 ADD DUP3 DUP1 SLOAD PUSH2 0x24EE SWAP1 PUSH2 0x3D2B JUMP JUMPDEST DUP1 ISZERO PUSH2 0x253B JUMPI DUP1 PUSH1 0x1F LT PUSH2 0x2510 JUMPI PUSH2 0x100 DUP1 DUP4 SLOAD DIV MUL DUP4 MSTORE SWAP2 PUSH1 0x20 ADD SWAP2 PUSH2 0x253B JUMP JUMPDEST DUP3 ADD SWAP2 SWAP1 PUSH1 0x0 MSTORE PUSH1 0x20 PUSH1 0x0 KECCAK256 SWAP1 JUMPDEST DUP2 SLOAD DUP2 MSTORE SWAP1 PUSH1 0x1 ADD SWAP1 PUSH1 0x20 ADD DUP1 DUP4 GT PUSH2 0x251E JUMPI DUP3 SWAP1 SUB PUSH1 0x1F AND DUP3 ADD SWAP2 JUMPDEST POP POP POP POP POP DUP2 MSTORE PUSH1 0x20 ADD PUSH1 0x2 DUP3 ADD DUP1 SLOAD PUSH2 0x2554 SWAP1 PUSH2 0x3D2B JUMP JUMPDEST DUP1 PUSH1 0x1F ADD PUSH1 0x20 DUP1 SWAP2 DIV MUL PUSH1 0x20 ADD PUSH1 0x40 MLOAD SWAP1 DUP2 ADD PUSH1 0x40 MSTORE DUP1 SWAP3 SWAP2 SWAP1 DUP2 DUP2 MSTORE PUSH1 0x20 ADD DUP3 DUP1 SLOAD PUSH2 0x2580 SWAP1 PUSH2 0x3D2B JUMP JUMPDEST DUP1 ISZERO PUSH2 0x25CD JUMPI DUP1 PUSH1 0x1F LT PUSH2 0x25A2 JUMPI PUSH2 0x100 DUP1 DUP4 SLOAD DIV MUL DUP4 MSTORE SWAP2 PUSH1 0x20 ADD SWAP2 PUSH2 0x25CD JUMP JUMPDEST DUP3 ADD SWAP2 SWAP1 PUSH1 0x0 MSTORE PUSH1 0x20 PUSH1 0x0 KECCAK256 SWAP1 JUMPDEST DUP2 SLOAD DUP2 MSTORE SWAP1 PUSH1 0x1 ADD SWAP1 PUSH1 0x20 ADD DUP1 DUP4 GT PUSH2 0x25B0 JUMPI DUP3 SWAP1 SUB PUSH1 0x1F AND DUP3 ADD SWAP2 JUMPDEST POP POP POP POP POP DUP2 MSTORE PUSH1 0x20 ADD PUSH1 0x3 DUP3 ADD PUSH1 0x0 SWAP1 SLOAD SWAP1 PUSH2 0x100 EXP SWAP1 DIV PUSH20 0xFFFFFFFFFFFFFFFFFFFFFFFFFFFFFFFFFFFFFFFF AND PUSH20 0xFFFFFFFFFFFFFFFFFFFFFFFFFFFFFFFFFFFFFFFF AND PUSH20 0xFFFFFFFFFFFFFFFFFFFFFFFFFFFFFFFFFFFFFFFF AND DUP2 MSTORE PUSH1 0x20 ADD PUSH1 0x4 DUP3 ADD SLOAD DUP2 MSTORE PUSH1 0x20 ADD PUSH1 0x5 DUP3 ADD DUP1 SLOAD DUP1 PUSH1 0x20 MUL PUSH1 0x20 ADD PUSH1 0x40 MLOAD SWAP1 DUP2 ADD PUSH1 0x40 MSTORE DUP1 SWAP3 SWAP2 SWAP1 DUP2 DUP2 MSTORE PUSH1 0x20 ADD PUSH1 0x0 SWAP1 JUMPDEST DUP3 DUP3 LT ISZERO PUSH2 0x2790 JUMPI DUP4 DUP3 SWAP1 PUSH1 0x0 MSTORE PUSH1 0x20 PUSH1 0x0 KECCAK256 SWAP1 PUSH1 0x2 MUL ADD PUSH1 0x40 MLOAD DUP1 PUSH1 0x60 ADD PUSH1 0x40 MSTORE SWAP1 DUP2 PUSH1 0x0 DUP3 ADD DUP1 SLOAD PUSH2 0x268E SWAP1 PUSH2 0x3D2B JUMP JUMPDEST DUP1 PUSH1 0x1F ADD PUSH1 0x20 DUP1 SWAP2 DIV MUL PUSH1 0x20 ADD PUSH1 0x40 MLOAD SWAP1 DUP2 ADD PUSH1 0x40 MSTORE DUP1 SWAP3 SWAP2 SWAP1 DUP2 DUP2 MSTORE PUSH1 0x20 ADD DUP3 DUP1 SLOAD PUSH2 0x26BA SWAP1 PUSH2 0x3D2B JUMP JUMPDEST DUP1 ISZERO PUSH2 0x2707 JUMPI DUP1 PUSH1 0x1F LT PUSH2 0x26DC JUMPI PUSH2 0x100 DUP1 DUP4 SLOAD DIV MUL DUP4 MSTORE SWAP2 PUSH1 0x20 ADD SWAP2 PUSH2 0x2707 JUMP JUMPDEST DUP3 ADD SWAP2 SWAP1 PUSH1 0x0 MSTORE PUSH1 0x20 PUSH1 0x0 KECCAK256 SWAP1 JUMPDEST DUP2 SLOAD DUP2 MSTORE SWAP1 PUSH1 0x1 ADD SWAP1 PUSH1 0x20 ADD DUP1 DUP4 GT PUSH2 0x26EA JUMPI DUP3 SWAP1 SUB PUSH1 0x1F AND DUP3 ADD SWAP2 JUMPDEST POP POP POP POP POP DUP2 MSTORE PUSH1 0x20 ADD PUSH1 0x1 DUP3 ADD PUSH1 0x0 SWAP1 SLOAD SWAP1 PUSH2 0x100 EXP SWAP1 DIV PUSH20 0xFFFFFFFFFFFFFFFFFFFFFFFFFFFFFFFFFFFFFFFF AND PUSH20 0xFFFFFFFFFFFFFFFFFFFFFFFFFFFFFFFFFFFFFFFF AND PUSH20 0xFFFFFFFFFFFFFFFFFFFFFFFFFFFFFFFFFFFFFFFF AND DUP2 MSTORE PUSH1 0x20 ADD PUSH1 0x1 DUP3 ADD PUSH1 0x14 SWAP1 SLOAD SWAP1 PUSH2 0x100 EXP SWAP1 DIV PUSH1 0xFF AND ISZERO ISZERO ISZERO ISZERO DUP2 MSTORE POP POP DUP2 MSTORE PUSH1 0x20 ADD SWAP1 PUSH1 0x1 ADD SWAP1 PUSH2 0x265B JUMP JUMPDEST POP POP POP POP DUP2 MSTORE POP POP SWAP1 POP PUSH1 0x0 DUP3 PUSH1 0x0 ADD MLOAD SWAP1 POP PUSH1 0x0 DUP4 PUSH1 0x20 ADD MLOAD SWAP1 POP PUSH1 0x0 DUP5 PUSH1 0x40 ADD MLOAD SWAP1 POP PUSH1 0x0 DUP6 PUSH1 0x60 ADD MLOAD SWAP1 POP PUSH1 0x0 DUP7 PUSH1 0x80 ADD MLOAD SWAP1 POP PUSH1 0x0 DUP7 PUSH1 0x80 ADD MLOAD SWAP1 POP DUP2 DUP2 GT ISZERO PUSH2 0x2813 JUMPI PUSH1 0x40 MLOAD PUSH32 0x8C379A000000000000000000000000000000000000000000000000000000000 DUP2 MSTORE PUSH1 0x4 ADD PUSH2 0x280A SWAP1 PUSH2 0x4476 JUMP JUMPDEST PUSH1 0x40 MLOAD DUP1 SWAP2 SUB SWAP1 REVERT JUMPDEST PUSH2 0x2821 DUP7 DUP7 DUP7 DUP7 PUSH1 0x0 PUSH2 0xB55 JUMP JUMPDEST PUSH1 0x0 PUSH1 0x2 PUSH1 0x0 DUP13 PUSH20 0xFFFFFFFFFFFFFFFFFFFFFFFFFFFFFFFFFFFFFFFF AND PUSH20 0xFFFFFFFFFFFFFFFFFFFFFFFFFFFFFFFFFFFFFFFF AND DUP2 MSTORE PUSH1 0x20 ADD SWAP1 DUP2 MSTORE PUSH1 0x20 ADD PUSH1 0x0 KECCAK256 SLOAD SWAP1 POP PUSH1 0x8 PUSH1 0x1 PUSH1 0x8 DUP1 SLOAD SWAP1 POP PUSH2 0x2879 SWAP2 SWAP1 PUSH2 0x44C5 JUMP JUMPDEST DUP2 SLOAD DUP2 LT PUSH2 0x288A JUMPI PUSH2 0x2889 PUSH2 0x44F9 JUMP JUMPDEST JUMPDEST SWAP1 PUSH1 0x0 MSTORE PUSH1 0x20 PUSH1 0x0 KECCAK256 SWAP1 PUSH1 0x6 MUL ADD PUSH1 0x8 DUP3 DUP2 SLOAD DUP2 LT PUSH2 0x28AC JUMPI PUSH2 0x28AB PUSH2 0x44F9 JUMP JUMPDEST JUMPDEST SWAP1 PUSH1 0x0 MSTORE PUSH1 0x20 PUSH1 0x0 KECCAK256 SWAP1 PUSH1 0x6 MUL ADD PUSH1 0x0 DUP3 ADD DUP2 PUSH1 0x0 ADD SWAP1 DUP2 PUSH2 0x28CE SWAP2 SWAP1 PUSH2 0x3FF0 JUMP JUMPDEST POP PUSH1 0x1 DUP3 ADD DUP2 PUSH1 0x1 ADD SWAP1 DUP2 PUSH2 0x28E3 SWAP2 SWAP1 PUSH2 0x3FF0 JUMP JUMPDEST POP PUSH1 0x2 DUP3 ADD DUP2 PUSH1 0x2 ADD SWAP1 DUP2 PUSH2 0x28F8 SWAP2 SWAP1 PUSH2 0x3FF0 JUMP JUMPDEST POP PUSH1 0x3 DUP3 ADD PUSH1 0x0 SWAP1 SLOAD SWAP1 PUSH2 0x100 EXP SWAP1 DIV PUSH20 0xFFFFFFFFFFFFFFFFFFFFFFFFFFFFFFFFFFFFFFFF AND DUP2 PUSH1 0x3 ADD PUSH1 0x0 PUSH2 0x100 EXP DUP2 SLOAD DUP2 PUSH20 0xFFFFFFFFFFFFFFFFFFFFFFFFFFFFFFFFFFFFFFFF MUL NOT AND SWAP1 DUP4 PUSH20 0xFFFFFFFFFFFFFFFFFFFFFFFFFFFFFFFFFFFFFFFF AND MUL OR SWAP1 SSTORE POP PUSH1 0x4 DUP3 ADD SLOAD DUP2 PUSH1 0x4 ADD SSTORE PUSH1 0x5 DUP3 ADD DUP2 PUSH1 0x5 ADD SWAP1 DUP1 SLOAD PUSH2 0x2980 SWAP3 SWAP2 SWAP1 PUSH2 0x31E8 JUMP JUMPDEST POP SWAP1 POP POP PUSH1 0x8 DUP1 SLOAD DUP1 PUSH2 0x2996 JUMPI PUSH2 0x2995 PUSH2 0x4528 JUMP JUMPDEST JUMPDEST PUSH1 0x1 SWAP1 SUB DUP2 DUP2 SWAP1 PUSH1 0x0 MSTORE PUSH1 0x20 PUSH1 0x0 KECCAK256 SWAP1 PUSH1 0x6 MUL ADD PUSH1 0x0 DUP1 DUP3 ADD PUSH1 0x0 PUSH2 0x29BB SWAP2 SWAP1 PUSH2 0x3335 JUMP JUMPDEST PUSH1 0x1 DUP3 ADD PUSH1 0x0 PUSH2 0x29CB SWAP2 SWAP1 PUSH2 0x3335 JUMP JUMPDEST PUSH1 0x2 DUP3 ADD PUSH1 0x0 PUSH2 0x29DB SWAP2 SWAP1 PUSH2 0x3335 JUMP JUMPDEST PUSH1 0x3 DUP3 ADD PUSH1 0x0 PUSH2 0x100 EXP DUP2 SLOAD SWAP1 PUSH20 0xFFFFFFFFFFFFFFFFFFFFFFFFFFFFFFFFFFFFFFFF MUL NOT AND SWAP1 SSTORE PUSH1 0x4 DUP3 ADD PUSH1 0x0 SWAP1 SSTORE PUSH1 0x5 DUP3 ADD PUSH1 0x0 PUSH2 0x2A1A SWAP2 SWAP1 PUSH2 0x3375 JUMP JUMPDEST POP POP SWAP1 SSTORE POP POP POP POP POP POP POP POP POP POP POP JUMP JUMPDEST PUSH1 0x60 PUSH1 0x1 ISZERO ISZERO DUP3 ISZERO ISZERO SUB PUSH2 0x2E10 JUMPI PUSH1 0x8 DUP1 SLOAD DUP1 PUSH1 0x20 MUL PUSH1 0x20 ADD PUSH1 0x40 MLOAD SWAP1 DUP2 ADD PUSH1 0x40 MSTORE DUP1 SWAP3 SWAP2 SWAP1 DUP2 DUP2 MSTORE PUSH1 0x20 ADD PUSH1 0x0 SWAP1 JUMPDEST DUP3 DUP3 LT ISZERO PUSH2 0x2E05 JUMPI DUP4 DUP3 SWAP1 PUSH1 0x0 MSTORE PUSH1 0x20 PUSH1 0x0 KECCAK256 SWAP1 PUSH1 0x6 MUL ADD PUSH1 0x40 MLOAD DUP1 PUSH1 0xC0 ADD PUSH1 0x40 MSTORE SWAP1 DUP2 PUSH1 0x0 DUP3 ADD DUP1 SLOAD PUSH2 0x2A8E SWAP1 PUSH2 0x3D2B JUMP JUMPDEST DUP1 PUSH1 0x1F ADD PUSH1 0x20 DUP1 SWAP2 DIV MUL PUSH1 0x20 ADD PUSH1 0x40 MLOAD SWAP1 DUP2 ADD PUSH1 0x40 MSTORE DUP1 SWAP3 SWAP2 SWAP1 DUP2 DUP2 MSTORE PUSH1 0x20 ADD DUP3 DUP1 SLOAD PUSH2 0x2ABA SWAP1 PUSH2 0x3D2B JUMP JUMPDEST DUP1 ISZERO PUSH2 0x2B07 JUMPI DUP1 PUSH1 0x1F LT PUSH2 0x2ADC JUMPI PUSH2 0x100 DUP1 DUP4 SLOAD DIV MUL DUP4 MSTORE SWAP2 PUSH1 0x20 ADD SWAP2 PUSH2 0x2B07 JUMP JUMPDEST DUP3 ADD SWAP2 SWAP1 PUSH1 0x0 MSTORE PUSH1 0x20 PUSH1 0x0 KECCAK256 SWAP1 JUMPDEST DUP2 SLOAD DUP2 MSTORE SWAP1 PUSH1 0x1 ADD SWAP1 PUSH1 0x20 ADD DUP1 DUP4 GT PUSH2 0x2AEA JUMPI DUP3 SWAP1 SUB PUSH1 0x1F AND DUP3 ADD SWAP2 JUMPDEST POP POP POP POP POP DUP2 MSTORE PUSH1 0x20 ADD PUSH1 0x1 DUP3 ADD DUP1 SLOAD PUSH2 0x2B20 SWAP1 PUSH2 0x3D2B JUMP JUMPDEST DUP1 PUSH1 0x1F ADD PUSH1 0x20 DUP1 SWAP2 DIV MUL PUSH1 0x20 ADD PUSH1 0x40 MLOAD SWAP1 DUP2 ADD PUSH1 0x40 MSTORE DUP1 SWAP3 SWAP2 SWAP1 DUP2 DUP2 MSTORE PUSH1 0x20 ADD DUP3 DUP1 SLOAD PUSH2 0x2B4C SWAP1 PUSH2 0x3D2B JUMP JUMPDEST DUP1 ISZERO PUSH2 0x2B99 JUMPI DUP1 PUSH1 0x1F LT PUSH2 0x2B6E JUMPI PUSH2 0x100 DUP1 DUP4 SLOAD DIV MUL DUP4 MSTORE SWAP2 PUSH1 0x20 ADD SWAP2 PUSH2 0x2B99 JUMP JUMPDEST DUP3 ADD SWAP2 SWAP1 PUSH1 0x0 MSTORE PUSH1 0x20 PUSH1 0x0 KECCAK256 SWAP1 JUMPDEST DUP2 SLOAD DUP2 MSTORE SWAP1 PUSH1 0x1 ADD SWAP1 PUSH1 0x20 ADD DUP1 DUP4 GT PUSH2 0x2B7C JUMPI DUP3 SWAP1 SUB PUSH1 0x1F AND DUP3 ADD SWAP2 JUMPDEST POP POP POP POP POP DUP2 MSTORE PUSH1 0x20 ADD PUSH1 0x2 DUP3 ADD DUP1 SLOAD PUSH2 0x2BB2 SWAP1 PUSH2 0x3D2B JUMP JUMPDEST DUP1 PUSH1 0x1F ADD PUSH1 0x20 DUP1 SWAP2 DIV MUL PUSH1 0x20 ADD PUSH1 0x40 MLOAD SWAP1 DUP2 ADD PUSH1 0x40 MSTORE DUP1 SWAP3 SWAP2 SWAP1 DUP2 DUP2 MSTORE PUSH1 0x20 ADD DUP3 DUP1 SLOAD PUSH2 0x2BDE SWAP1 PUSH2 0x3D2B JUMP JUMPDEST DUP1 ISZERO PUSH2 0x2C2B JUMPI DUP1 PUSH1 0x1F LT PUSH2 0x2C00 JUMPI PUSH2 0x100 DUP1 DUP4 SLOAD DIV MUL DUP4 MSTORE SWAP2 PUSH1 0x20 ADD SWAP2 PUSH2 0x2C2B JUMP JUMPDEST DUP3 ADD SWAP2 SWAP1 PUSH1 0x0 MSTORE PUSH1 0x20 PUSH1 0x0 KECCAK256 SWAP1 JUMPDEST DUP2 SLOAD DUP2 MSTORE SWAP1 PUSH1 0x1 ADD SWAP1 PUSH1 0x20 ADD DUP1 DUP4 GT PUSH2 0x2C0E JUMPI DUP3 SWAP1 SUB PUSH1 0x1F AND DUP3 ADD SWAP2 JUMPDEST POP POP POP POP POP DUP2 MSTORE PUSH1 0x20 ADD PUSH1 0x3 DUP3 ADD PUSH1 0x0 SWAP1 SLOAD SWAP1 PUSH2 0x100 EXP SWAP1 DIV PUSH20 0xFFFFFFFFFFFFFFFFFFFFFFFFFFFFFFFFFFFFFFFF AND PUSH20 0xFFFFFFFFFFFFFFFFFFFFFFFFFFFFFFFFFFFFFFFF AND PUSH20 0xFFFFFFFFFFFFFFFFFFFFFFFFFFFFFFFFFFFFFFFF AND DUP2 MSTORE PUSH1 0x20 ADD PUSH1 0x4 DUP3 ADD SLOAD DUP2 MSTORE PUSH1 0x20 ADD PUSH1 0x5 DUP3 ADD DUP1 SLOAD DUP1 PUSH1 0x20 MUL PUSH1 0x20 ADD PUSH1 0x40 MLOAD SWAP1 DUP2 ADD PUSH1 0x40 MSTORE DUP1 SWAP3 SWAP2 SWAP1 DUP2 DUP2 MSTORE PUSH1 0x20 ADD PUSH1 0x0 SWAP1 JUMPDEST DUP3 DUP3 LT ISZERO PUSH2 0x2DEE JUMPI DUP4 DUP3 SWAP1 PUSH1 0x0 MSTORE PUSH1 0x20 PUSH1 0x0 KECCAK256 SWAP1 PUSH1 0x2 MUL ADD PUSH1 0x40 MLOAD DUP1 PUSH1 0x60 ADD PUSH1 0x40 MSTORE SWAP1 DUP2 PUSH1 0x0 DUP3 ADD DUP1 SLOAD PUSH2 0x2CEC SWAP1 PUSH2 0x3D2B JUMP JUMPDEST DUP1 PUSH1 0x1F ADD PUSH1 0x20 DUP1 SWAP2 DIV MUL PUSH1 0x20 ADD PUSH1 0x40 MLOAD SWAP1 DUP2 ADD PUSH1 0x40 MSTORE DUP1 SWAP3 SWAP2 SWAP1 DUP2 DUP2 MSTORE PUSH1 0x20 ADD DUP3 DUP1 SLOAD PUSH2 0x2D18 SWAP1 PUSH2 0x3D2B JUMP JUMPDEST DUP1 ISZERO PUSH2 0x2D65 JUMPI DUP1 PUSH1 0x1F LT PUSH2 0x2D3A JUMPI PUSH2 0x100 DUP1 DUP4 SLOAD DIV MUL DUP4 MSTORE SWAP2 PUSH1 0x20 ADD SWAP2 PUSH2 0x2D65 JUMP JUMPDEST DUP3 ADD SWAP2 SWAP1 PUSH1 0x0 MSTORE PUSH1 0x20 PUSH1 0x0 KECCAK256 SWAP1 JUMPDEST DUP2 SLOAD DUP2 MSTORE SWAP1 PUSH1 0x1 ADD SWAP1 PUSH1 0x20 ADD DUP1 DUP4 GT PUSH2 0x2D48 JUMPI DUP3 SWAP1 SUB PUSH1 0x1F AND DUP3 ADD SWAP2 JUMPDEST POP POP POP POP POP DUP2 MSTORE PUSH1 0x20 ADD PUSH1 0x1 DUP3 ADD PUSH1 0x0 SWAP1 SLOAD SWAP1 PUSH2 0x100 EXP SWAP1 DIV PUSH20 0xFFFFFFFFFFFFFFFFFFFFFFFFFFFFFFFFFFFFFFFF AND PUSH20 0xFFFFFFFFFFFFFFFFFFFFFFFFFFFFFFFFFFFFFFFF AND PUSH20 0xFFFFFFFFFFFFFFFFFFFFFFFFFFFFFFFFFFFFFFFF AND DUP2 MSTORE PUSH1 0x20 ADD PUSH1 0x1 DUP3 ADD PUSH1 0x14 SWAP1 SLOAD SWAP1 PUSH2 0x100 EXP SWAP1 DIV PUSH1 0xFF AND ISZERO ISZERO ISZERO ISZERO DUP2 MSTORE POP POP DUP2 MSTORE PUSH1 0x20 ADD SWAP1 PUSH1 0x1 ADD SWAP1 PUSH2 0x2CB9 JUMP JUMPDEST POP POP POP POP DUP2 MSTORE POP POP DUP2 MSTORE PUSH1 0x20 ADD SWAP1 PUSH1 0x1 ADD SWAP1 PUSH2 0x2A5B JUMP JUMPDEST POP POP POP POP SWAP1 POP PUSH2 0x31E3 JUMP JUMPDEST PUSH1 0x5 DUP1 SLOAD DUP1 PUSH1 0x20 MUL PUSH1 0x20 ADD PUSH1 0x40 MLOAD SWAP1 DUP2 ADD PUSH1 0x40 MSTORE DUP1 SWAP3 SWAP2 SWAP1 DUP2 DUP2 MSTORE PUSH1 0x20 ADD PUSH1 0x0 SWAP1 JUMPDEST DUP3 DUP3 LT ISZERO PUSH2 0x31DC JUMPI DUP4 DUP3 SWAP1 PUSH1 0x0 MSTORE PUSH1 0x20 PUSH1 0x0 KECCAK256 SWAP1 PUSH1 0x6 MUL ADD PUSH1 0x40 MLOAD DUP1 PUSH1 0xC0 ADD PUSH1 0x40 MSTORE SWAP1 DUP2 PUSH1 0x0 DUP3 ADD DUP1 SLOAD PUSH2 0x2E65 SWAP1 PUSH2 0x3D2B JUMP JUMPDEST DUP1 PUSH1 0x1F ADD PUSH1 0x20 DUP1 SWAP2 DIV MUL PUSH1 0x20 ADD PUSH1 0x40 MLOAD SWAP1 DUP2 ADD PUSH1 0x40 MSTORE DUP1 SWAP3 SWAP2 SWAP1 DUP2 DUP2 MSTORE PUSH1 0x20 ADD DUP3 DUP1 SLOAD PUSH2 0x2E91 SWAP1 PUSH2 0x3D2B JUMP JUMPDEST DUP1 ISZERO PUSH2 0x2EDE JUMPI DUP1 PUSH1 0x1F LT PUSH2 0x2EB3 JUMPI PUSH2 0x100 DUP1 DUP4 SLOAD DIV MUL DUP4 MSTORE SWAP2 PUSH1 0x20 ADD SWAP2 PUSH2 0x2EDE JUMP JUMPDEST DUP3 ADD SWAP2 SWAP1 PUSH1 0x0 MSTORE PUSH1 0x20 PUSH1 0x0 KECCAK256 SWAP1 JUMPDEST DUP2 SLOAD DUP2 MSTORE SWAP1 PUSH1 0x1 ADD SWAP1 PUSH1 0x20 ADD DUP1 DUP4 GT PUSH2 0x2EC1 JUMPI DUP3 SWAP1 SUB PUSH1 0x1F AND DUP3 ADD SWAP2 JUMPDEST POP POP POP POP POP DUP2 MSTORE PUSH1 0x20 ADD PUSH1 0x1 DUP3 ADD DUP1 SLOAD PUSH2 0x2EF7 SWAP1 PUSH2 0x3D2B JUMP JUMPDEST DUP1 PUSH1 0x1F ADD PUSH1 0x20 DUP1 SWAP2 DIV MUL PUSH1 0x20 ADD PUSH1 0x40 MLOAD SWAP1 DUP2 ADD PUSH1 0x40 MSTORE DUP1 SWAP3 SWAP2 SWAP1 DUP2 DUP2 MSTORE PUSH1 0x20 ADD DUP3 DUP1 SLOAD PUSH2 0x2F23 SWAP1 PUSH2 0x3D2B JUMP JUMPDEST DUP1 ISZERO PUSH2 0x2F70 JUMPI DUP1 PUSH1 0x1F LT PUSH2 0x2F45 JUMPI PUSH2 0x100 DUP1 DUP4 SLOAD DIV MUL DUP4 MSTORE SWAP2 PUSH1 0x20 ADD SWAP2 PUSH2 0x2F70 JUMP JUMPDEST DUP3 ADD SWAP2 SWAP1 PUSH1 0x0 MSTORE PUSH1 0x20 PUSH1 0x0 KECCAK256 SWAP1 JUMPDEST DUP2 SLOAD DUP2 MSTORE SWAP1 PUSH1 0x1 ADD SWAP1 PUSH1 0x20 ADD DUP1 DUP4 GT PUSH2 0x2F53 JUMPI DUP3 SWAP1 SUB PUSH1 0x1F AND DUP3 ADD SWAP2 JUMPDEST POP POP POP POP POP DUP2 MSTORE PUSH1 0x20 ADD PUSH1 0x2 DUP3 ADD DUP1 SLOAD PUSH2 0x2F89 SWAP1 PUSH2 0x3D2B JUMP JUMPDEST DUP1 PUSH1 0x1F ADD PUSH1 0x20 DUP1 SWAP2 DIV MUL PUSH1 0x20 ADD PUSH1 0x40 MLOAD SWAP1 DUP2 ADD PUSH1 0x40 MSTORE DUP1 SWAP3 SWAP2 SWAP1 DUP2 DUP2 MSTORE PUSH1 0x20 ADD DUP3 DUP1 SLOAD PUSH2 0x2FB5 SWAP1 PUSH2 0x3D2B JUMP JUMPDEST DUP1 ISZERO PUSH2 0x3002 JUMPI DUP1 PUSH1 0x1F LT PUSH2 0x2FD7 JUMPI PUSH2 0x100 DUP1 DUP4 SLOAD DIV MUL DUP4 MSTORE SWAP2 PUSH1 0x20 ADD SWAP2 PUSH2 0x3002 JUMP JUMPDEST DUP3 ADD SWAP2 SWAP1 PUSH1 0x0 MSTORE PUSH1 0x20 PUSH1 0x0 KECCAK256 SWAP1 JUMPDEST DUP2 SLOAD DUP2 MSTORE SWAP1 PUSH1 0x1 ADD SWAP1 PUSH1 0x20 ADD DUP1 DUP4 GT PUSH2 0x2FE5 JUMPI DUP3 SWAP1 SUB PUSH1 0x1F AND DUP3 ADD SWAP2 JUMPDEST POP POP POP POP POP DUP2 MSTORE PUSH1 0x20 ADD PUSH1 0x3 DUP3 ADD PUSH1 0x0 SWAP1 SLOAD SWAP1 PUSH2 0x100 EXP SWAP1 DIV PUSH20 0xFFFFFFFFFFFFFFFFFFFFFFFFFFFFFFFFFFFFFFFF AND PUSH20 0xFFFFFFFFFFFFFFFFFFFFFFFFFFFFFFFFFFFFFFFF AND PUSH20 0xFFFFFFFFFFFFFFFFFFFFFFFFFFFFFFFFFFFFFFFF AND DUP2 MSTORE PUSH1 0x20 ADD PUSH1 0x4 DUP3 ADD SLOAD DUP2 MSTORE PUSH1 0x20 ADD PUSH1 0x5 DUP3 ADD DUP1 SLOAD DUP1 PUSH1 0x20 MUL PUSH1 0x20 ADD PUSH1 0x40 MLOAD SWAP1 DUP2 ADD PUSH1 0x40 MSTORE DUP1 SWAP3 SWAP2 SWAP1 DUP2 DUP2 MSTORE PUSH1 0x20 ADD PUSH1 0x0 SWAP1 JUMPDEST DUP3 DUP3 LT ISZERO PUSH2 0x31C5 JUMPI DUP4 DUP3 SWAP1 PUSH1 0x0 MSTORE PUSH1 0x20 PUSH1 0x0 KECCAK256 SWAP1 PUSH1 0x2 MUL ADD PUSH1 0x40 MLOAD DUP1 PUSH1 0x60 ADD PUSH1 0x40 MSTORE SWAP1 DUP2 PUSH1 0x0 DUP3 ADD DUP1 SLOAD PUSH2 0x30C3 SWAP1 PUSH2 0x3D2B JUMP JUMPDEST DUP1 PUSH1 0x1F ADD PUSH1 0x20 DUP1 SWAP2 DIV MUL PUSH1 0x20 ADD PUSH1 0x40 MLOAD SWAP1 DUP2 ADD PUSH1 0x40 MSTORE DUP1 SWAP3 SWAP2 SWAP1 DUP2 DUP2 MSTORE PUSH1 0x20 ADD DUP3 DUP1 SLOAD PUSH2 0x30EF SWAP1 PUSH2 0x3D2B JUMP JUMPDEST DUP1 ISZERO PUSH2 0x313C JUMPI DUP1 PUSH1 0x1F LT PUSH2 0x3111 JUMPI PUSH2 0x100 DUP1 DUP4 SLOAD DIV MUL DUP4 MSTORE SWAP2 PUSH1 0x20 ADD SWAP2 PUSH2 0x313C JUMP JUMPDEST DUP3 ADD SWAP2 SWAP1 PUSH1 0x0 MSTORE PUSH1 0x20 PUSH1 0x0 KECCAK256 SWAP1 JUMPDEST DUP2 SLOAD DUP2 MSTORE SWAP1 PUSH1 0x1 ADD SWAP1 PUSH1 0x20 ADD DUP1 DUP4 GT PUSH2 0x311F JUMPI DUP3 SWAP1 SUB PUSH1 0x1F AND DUP3 ADD SWAP2 JUMPDEST POP POP POP POP POP DUP2 MSTORE PUSH1 0x20 ADD PUSH1 0x1 DUP3 ADD PUSH1 0x0 SWAP1 SLOAD SWAP1 PUSH2 0x100 EXP SWAP1 DIV PUSH20 0xFFFFFFFFFFFFFFFFFFFFFFFFFFFFFFFFFFFFFFFF AND PUSH20 0xFFFFFFFFFFFFFFFFFFFFFFFFFFFFFFFFFFFFFFFF AND PUSH20 0xFFFFFFFFFFFFFFFFFFFFFFFFFFFFFFFFFFFFFFFF AND DUP2 MSTORE PUSH1 0x20 ADD PUSH1 0x1 DUP3 ADD PUSH1 0x14 SWAP1 SLOAD SWAP1 PUSH2 0x100 EXP SWAP1 DIV PUSH1 0xFF AND ISZERO ISZERO ISZERO ISZERO DUP2 MSTORE POP POP DUP2 MSTORE PUSH1 0x20 ADD SWAP1 PUSH1 0x1 ADD SWAP1 PUSH2 0x3090 JUMP JUMPDEST POP POP POP POP DUP2 MSTORE POP POP DUP2 MSTORE PUSH1 0x20 ADD SWAP1 PUSH1 0x1 ADD SWAP1 PUSH2 0x2E32 JUMP JUMPDEST POP POP POP POP SWAP1 POP JUMPDEST SWAP2 SWAP1 POP JUMP JUMPDEST DUP3 DUP1 SLOAD DUP3 DUP3 SSTORE SWAP1 PUSH1 0x0 MSTORE PUSH1 0x20 PUSH1 0x0 KECCAK256 SWAP1 PUSH1 0x2 MUL DUP2 ADD SWAP3 DUP3 ISZERO PUSH2 0x32D8 JUMPI PUSH1 0x0 MSTORE PUSH1 0x20 PUSH1 0x0 KECCAK256 SWAP2 PUSH1 0x2 MUL DUP3 ADD JUMPDEST DUP3 DUP2 GT ISZERO PUSH2 0x32D7 JUMPI DUP3 DUP3 PUSH1 0x0 DUP3 ADD DUP2 PUSH1 0x0 ADD SWAP1 DUP2 PUSH2 0x3231 SWAP2 SWAP1 PUSH2 0x3FF0 JUMP JUMPDEST POP PUSH1 0x1 DUP3 ADD PUSH1 0x0 SWAP1 SLOAD SWAP1 PUSH2 0x100 EXP SWAP1 DIV PUSH20 0xFFFFFFFFFFFFFFFFFFFFFFFFFFFFFFFFFFFFFFFF AND DUP2 PUSH1 0x1 ADD PUSH1 0x0 PUSH2 0x100 EXP DUP2 SLOAD DUP2 PUSH20 0xFFFFFFFFFFFFFFFFFFFFFFFFFFFFFFFFFFFFFFFF MUL NOT AND SWAP1 DUP4 PUSH20 0xFFFFFFFFFFFFFFFFFFFFFFFFFFFFFFFFFFFFFFFF AND MUL OR SWAP1 SSTORE POP PUSH1 0x1 DUP3 ADD PUSH1 0x14 SWAP1 SLOAD SWAP1 PUSH2 0x100 EXP SWAP1 DIV PUSH1 0xFF AND DUP2 PUSH1 0x1 ADD PUSH1 0x14 PUSH2 0x100 EXP DUP2 SLOAD DUP2 PUSH1 0xFF MUL NOT AND SWAP1 DUP4 ISZERO ISZERO MUL OR SWAP1 SSTORE POP POP POP SWAP2 PUSH1 0x2 ADD SWAP2 SWAP1 PUSH1 0x2 ADD SWAP1 PUSH2 0x3213 JUMP JUMPDEST JUMPDEST POP SWAP1 POP PUSH2 0x32E5 SWAP2 SWAP1 PUSH2 0x3399 JUMP JUMPDEST POP SWAP1 JUMP JUMPDEST PUSH1 0x40 MLOAD DUP1 PUSH1 0xC0 ADD PUSH1 0x40 MSTORE DUP1 PUSH1 0x60 DUP2 MSTORE PUSH1 0x20 ADD PUSH1 0x60 DUP2 MSTORE PUSH1 0x20 ADD PUSH1 0x60 DUP2 MSTORE PUSH1 0x20 ADD PUSH1 0x0 PUSH20 0xFFFFFFFFFFFFFFFFFFFFFFFFFFFFFFFFFFFFFFFF AND DUP2 MSTORE PUSH1 0x20 ADD PUSH1 0x0 DUP2 MSTORE PUSH1 0x20 ADD PUSH1 0x60 DUP2 MSTORE POP SWAP1 JUMP JUMPDEST POP DUP1 SLOAD PUSH2 0x3341 SWAP1 PUSH2 0x3D2B JUMP JUMPDEST PUSH1 0x0 DUP3 SSTORE DUP1 PUSH1 0x1F LT PUSH2 0x3353 JUMPI POP PUSH2 0x3372 JUMP JUMPDEST PUSH1 0x1F ADD PUSH1 0x20 SWAP1 DIV SWAP1 PUSH1 0x0 MSTORE PUSH1 0x20 PUSH1 0x0 KECCAK256 SWAP1 DUP2 ADD SWAP1 PUSH2 0x3371 SWAP2 SWAP1 PUSH2 0x33FB JUMP JUMPDEST JUMPDEST POP JUMP JUMPDEST POP DUP1 SLOAD PUSH1 0x0 DUP3 SSTORE PUSH1 0x2 MUL SWAP1 PUSH1 0x0 MSTORE PUSH1 0x20 PUSH1 0x0 KECCAK256 SWAP1 DUP2 ADD SWAP1 PUSH2 0x3396 SWAP2 SWAP1 PUSH2 0x3399 JUMP JUMPDEST POP JUMP JUMPDEST JUMPDEST DUP1 DUP3 GT ISZERO PUSH2 0x33F7 JUMPI PUSH1 0x0 DUP1 DUP3 ADD PUSH1 0x0 PUSH2 0x33B3 SWAP2 SWAP1 PUSH2 0x3335 JUMP JUMPDEST PUSH1 0x1 DUP3 ADD PUSH1 0x0 PUSH2 0x100 EXP DUP2 SLOAD SWAP1 PUSH20 0xFFFFFFFFFFFFFFFFFFFFFFFFFFFFFFFFFFFFFFFF MUL NOT AND SWAP1 SSTORE PUSH1 0x1 DUP3 ADD PUSH1 0x14 PUSH2 0x100 EXP DUP2 SLOAD SWAP1 PUSH1 0xFF MUL NOT AND SWAP1 SSTORE POP PUSH1 0x2 ADD PUSH2 0x339A JUMP JUMPDEST POP SWAP1 JUMP JUMPDEST JUMPDEST DUP1 DUP3 GT ISZERO PUSH2 0x3414 JUMPI PUSH1 0x0 DUP2 PUSH1 0x0 SWAP1 SSTORE POP PUSH1 0x1 ADD PUSH2 0x33FC JUMP JUMPDEST POP SWAP1 JUMP JUMPDEST PUSH1 0x0 PUSH1 0x40 MLOAD SWAP1 POP SWAP1 JUMP JUMPDEST PUSH1 0x0 DUP1 REVERT JUMPDEST PUSH1 0x0 DUP1 REVERT JUMPDEST PUSH1 0x0 DUP2 ISZERO ISZERO SWAP1 POP SWAP2 SWAP1 POP JUMP JUMPDEST PUSH2 0x3441 DUP2 PUSH2 0x342C JUMP JUMPDEST DUP2 EQ PUSH2 0x344C JUMPI PUSH1 0x0 DUP1 REVERT JUMPDEST POP JUMP JUMPDEST PUSH1 0x0 DUP2 CALLDATALOAD SWAP1 POP PUSH2 0x345E DUP2 PUSH2 0x3438 JUMP JUMPDEST SWAP3 SWAP2 POP POP JUMP JUMPDEST PUSH1 0x0 PUSH1 0x20 DUP3 DUP5 SUB SLT ISZERO PUSH2 0x347A JUMPI PUSH2 0x3479 PUSH2 0x3422 JUMP JUMPDEST JUMPDEST PUSH1 0x0 PUSH2 0x3488 DUP5 DUP3 DUP6 ADD PUSH2 0x344F JUMP JUMPDEST SWAP2 POP POP SWAP3 SWAP2 POP POP JUMP JUMPDEST PUSH1 0x0 DUP2 MLOAD SWAP1 POP SWAP2 SWAP1 POP JUMP JUMPDEST PUSH1 0x0 DUP3 DUP3 MSTORE PUSH1 0x20 DUP3 ADD SWAP1 POP SWAP3 SWAP2 POP POP JUMP JUMPDEST PUSH1 0x0 DUP2 SWAP1 POP PUSH1 0x20 DUP3 ADD SWAP1 POP SWAP2 SWAP1 POP JUMP JUMPDEST PUSH1 0x0 DUP2 MLOAD SWAP1 POP SWAP2 SWAP1 POP JUMP JUMPDEST PUSH1 0x0 DUP3 DUP3 MSTORE PUSH1 0x20 DUP3 ADD SWAP1 POP SWAP3 SWAP2 POP POP JUMP JUMPDEST PUSH1 0x0 JUMPDEST DUP4 DUP2 LT ISZERO PUSH2 0x34F7 JUMPI DUP1 DUP3 ADD MLOAD DUP2 DUP5 ADD MSTORE PUSH1 0x20 DUP2 ADD SWAP1 POP PUSH2 0x34DC JUMP JUMPDEST PUSH1 0x0 DUP5 DUP5 ADD MSTORE POP POP POP POP JUMP JUMPDEST PUSH1 0x0 PUSH1 0x1F NOT PUSH1 0x1F DUP4 ADD AND SWAP1 POP SWAP2 SWAP1 POP JUMP JUMPDEST PUSH1 0x0 PUSH2 0x351F DUP3 PUSH2 0x34BD JUMP JUMPDEST PUSH2 0x3529 DUP2 DUP6 PUSH2 0x34C8 JUMP JUMPDEST SWAP4 POP PUSH2 0x3539 DUP2 DUP6 PUSH1 0x20 DUP7 ADD PUSH2 0x34D9 JUMP JUMPDEST PUSH2 0x3542 DUP2 PUSH2 0x3503 JUMP JUMPDEST DUP5 ADD SWAP2 POP POP SWAP3 SWAP2 POP POP JUMP JUMPDEST PUSH1 0x0 PUSH20 0xFFFFFFFFFFFFFFFFFFFFFFFFFFFFFFFFFFFFFFFF DUP3 AND SWAP1 POP SWAP2 SWAP1 POP JUMP JUMPDEST PUSH1 0x0 PUSH2 0x3578 DUP3 PUSH2 0x354D JUMP JUMPDEST SWAP1 POP SWAP2 SWAP1 POP JUMP JUMPDEST PUSH2 0x3588 DUP2 PUSH2 0x356D JUMP JUMPDEST DUP3 MSTORE POP POP JUMP JUMPDEST PUSH2 0x3597 DUP2 PUSH2 0x342C JUMP JUMPDEST DUP3 MSTORE POP POP JUMP JUMPDEST PUSH1 0x0 PUSH1 0x60 DUP4 ADD PUSH1 0x0 DUP4 ADD MLOAD DUP5 DUP3 SUB PUSH1 0x0 DUP7 ADD MSTORE PUSH2 0x35BA DUP3 DUP3 PUSH2 0x3514 JUMP JUMPDEST SWAP2 POP POP PUSH1 0x20 DUP4 ADD MLOAD PUSH2 0x35CF PUSH1 0x20 DUP7 ADD DUP3 PUSH2 0x357F JUMP JUMPDEST POP PUSH1 0x40 DUP4 ADD MLOAD PUSH2 0x35E2 PUSH1 0x40 DUP7 ADD DUP3 PUSH2 0x358E JUMP JUMPDEST POP DUP1 SWAP2 POP POP SWAP3 SWAP2 POP POP JUMP JUMPDEST PUSH1 0x0 PUSH2 0x35F9 DUP4 DUP4 PUSH2 0x359D JUMP JUMPDEST SWAP1 POP SWAP3 SWAP2 POP POP JUMP JUMPDEST PUSH1 0x0 PUSH1 0x20 DUP3 ADD SWAP1 POP SWAP2 SWAP1 POP JUMP JUMPDEST PUSH1 0x0 PUSH2 0x3619 DUP3 PUSH2 0x3491 JUMP JUMPDEST PUSH2 0x3623 DUP2 DUP6 PUSH2 0x349C JUMP JUMPDEST SWAP4 POP DUP4 PUSH1 0x20 DUP3 MUL DUP6 ADD PUSH2 0x3635 DUP6 PUSH2 0x34AD JUMP JUMPDEST DUP1 PUSH1 0x0 JUMPDEST DUP6 DUP2 LT ISZERO PUSH2 0x3671 JUMPI DUP5 DUP5 SUB DUP10 MSTORE DUP2 MLOAD PUSH2 0x3652 DUP6 DUP3 PUSH2 0x35ED JUMP JUMPDEST SWAP5 POP PUSH2 0x365D DUP4 PUSH2 0x3601 JUMP JUMPDEST SWAP3 POP PUSH1 0x20 DUP11 ADD SWAP10 POP POP PUSH1 0x1 DUP2 ADD SWAP1 POP PUSH2 0x3639 JUMP JUMPDEST POP DUP3 SWAP8 POP DUP8 SWAP6 POP POP POP POP POP POP SWAP3 SWAP2 POP POP JUMP JUMPDEST PUSH1 0x0 PUSH1 0x20 DUP3 ADD SWAP1 POP DUP2 DUP2 SUB PUSH1 0x0 DUP4 ADD MSTORE PUSH2 0x369D DUP2 DUP5 PUSH2 0x360E JUMP JUMPDEST SWAP1 POP SWAP3 SWAP2 POP POP JUMP JUMPDEST PUSH2 0x36AE DUP2 PUSH2 0x356D JUMP JUMPDEST DUP2 EQ PUSH2 0x36B9 JUMPI PUSH1 0x0 DUP1 REVERT JUMPDEST POP JUMP JUMPDEST PUSH1 0x0 DUP2 CALLDATALOAD SWAP1 POP PUSH2 0x36CB DUP2 PUSH2 0x36A5 JUMP JUMPDEST SWAP3 SWAP2 POP POP JUMP JUMPDEST PUSH1 0x0 PUSH1 0x20 DUP3 DUP5 SUB SLT ISZERO PUSH2 0x36E7 JUMPI PUSH2 0x36E6 PUSH2 0x3422 JUMP JUMPDEST JUMPDEST PUSH1 0x0 PUSH2 0x36F5 DUP5 DUP3 DUP6 ADD PUSH2 0x36BC JUMP JUMPDEST SWAP2 POP POP SWAP3 SWAP2 POP POP JUMP JUMPDEST PUSH2 0x3707 DUP2 PUSH2 0x342C JUMP JUMPDEST DUP3 MSTORE POP POP JUMP JUMPDEST PUSH1 0x0 PUSH1 0x20 DUP3 ADD SWAP1 POP PUSH2 0x3722 PUSH1 0x0 DUP4 ADD DUP5 PUSH2 0x36FE JUMP JUMPDEST SWAP3 SWAP2 POP POP JUMP JUMPDEST PUSH1 0x0 DUP1 REVERT JUMPDEST PUSH1 0x0 DUP1 REVERT JUMPDEST PUSH32 0x4E487B7100000000000000000000000000000000000000000000000000000000 PUSH1 0x0 MSTORE PUSH1 0x41 PUSH1 0x4 MSTORE PUSH1 0x24 PUSH1 0x0 REVERT JUMPDEST PUSH2 0x376A DUP3 PUSH2 0x3503 JUMP JUMPDEST DUP2 ADD DUP2 DUP2 LT PUSH8 0xFFFFFFFFFFFFFFFF DUP3 GT OR ISZERO PUSH2 0x3789 JUMPI PUSH2 0x3788 PUSH2 0x3732 JUMP JUMPDEST JUMPDEST DUP1 PUSH1 0x40 MSTORE POP POP POP JUMP JUMPDEST PUSH1 0x0 PUSH2 0x379C PUSH2 0x3418 JUMP JUMPDEST SWAP1 POP PUSH2 0x37A8 DUP3 DUP3 PUSH2 0x3761 JUMP JUMPDEST SWAP2 SWAP1 POP JUMP JUMPDEST PUSH1 0x0 PUSH8 0xFFFFFFFFFFFFFFFF DUP3 GT ISZERO PUSH2 0x37C8 JUMPI PUSH2 0x37C7 PUSH2 0x3732 JUMP JUMPDEST JUMPDEST PUSH2 0x37D1 DUP3 PUSH2 0x3503 JUMP JUMPDEST SWAP1 POP PUSH1 0x20 DUP2 ADD SWAP1 POP SWAP2 SWAP1 POP JUMP JUMPDEST DUP3 DUP2 DUP4 CALLDATACOPY PUSH1 0x0 DUP4 DUP4 ADD MSTORE POP POP POP JUMP JUMPDEST PUSH1 0x0 PUSH2 0x3800 PUSH2 0x37FB DUP5 PUSH2 0x37AD JUMP JUMPDEST PUSH2 0x3792 JUMP JUMPDEST SWAP1 POP DUP3 DUP2 MSTORE PUSH1 0x20 DUP2 ADD DUP5 DUP5 DUP5 ADD GT ISZERO PUSH2 0x381C JUMPI PUSH2 0x381B PUSH2 0x372D JUMP JUMPDEST JUMPDEST PUSH2 0x3827 DUP5 DUP3 DUP6 PUSH2 0x37DE JUMP JUMPDEST POP SWAP4 SWAP3 POP POP POP JUMP JUMPDEST PUSH1 0x0 DUP3 PUSH1 0x1F DUP4 ADD SLT PUSH2 0x3844 JUMPI PUSH2 0x3843 PUSH2 0x3728 JUMP JUMPDEST JUMPDEST DUP2 CALLDATALOAD PUSH2 0x3854 DUP5 DUP3 PUSH1 0x20 DUP7 ADD PUSH2 0x37ED JUMP JUMPDEST SWAP2 POP POP SWAP3 SWAP2 POP POP JUMP JUMPDEST PUSH1 0x0 DUP1 PUSH1 0x0 PUSH1 0x60 DUP5 DUP7 SUB SLT ISZERO PUSH2 0x3876 JUMPI PUSH2 0x3875 PUSH2 0x3422 JUMP JUMPDEST JUMPDEST PUSH1 0x0 DUP5 ADD CALLDATALOAD PUSH8 0xFFFFFFFFFFFFFFFF DUP2 GT ISZERO PUSH2 0x3894 JUMPI PUSH2 0x3893 PUSH2 0x3427 JUMP JUMPDEST JUMPDEST PUSH2 0x38A0 DUP7 DUP3 DUP8 ADD PUSH2 0x382F JUMP JUMPDEST SWAP4 POP POP PUSH1 0x20 PUSH2 0x38B1 DUP7 DUP3 DUP8 ADD PUSH2 0x36BC JUMP JUMPDEST SWAP3 POP POP PUSH1 0x40 PUSH2 0x38C2 DUP7 DUP3 DUP8 ADD PUSH2 0x344F JUMP JUMPDEST SWAP2 POP POP SWAP3 POP SWAP3 POP SWAP3 JUMP JUMPDEST PUSH1 0x0 DUP1 PUSH1 0x0 DUP1 PUSH1 0x0 PUSH1 0xA0 DUP7 DUP9 SUB SLT ISZERO PUSH2 0x38E8 JUMPI PUSH2 0x38E7 PUSH2 0x3422 JUMP JUMPDEST JUMPDEST PUSH1 0x0 DUP7 ADD CALLDATALOAD PUSH8 0xFFFFFFFFFFFFFFFF DUP2 GT ISZERO PUSH2 0x3906 JUMPI PUSH2 0x3905 PUSH2 0x3427 JUMP JUMPDEST JUMPDEST PUSH2 0x3912 DUP9 DUP3 DUP10 ADD PUSH2 0x382F JUMP JUMPDEST SWAP6 POP POP PUSH1 0x20 DUP7 ADD CALLDATALOAD PUSH8 0xFFFFFFFFFFFFFFFF DUP2 GT ISZERO PUSH2 0x3933 JUMPI PUSH2 0x3932 PUSH2 0x3427 JUMP JUMPDEST JUMPDEST PUSH2 0x393F DUP9 DUP3 DUP10 ADD PUSH2 0x382F JUMP JUMPDEST SWAP5 POP POP PUSH1 0x40 DUP7 ADD CALLDATALOAD PUSH8 0xFFFFFFFFFFFFFFFF DUP2 GT ISZERO PUSH2 0x3960 JUMPI PUSH2 0x395F PUSH2 0x3427 JUMP JUMPDEST JUMPDEST PUSH2 0x396C DUP9 DUP3 DUP10 ADD PUSH2 0x382F JUMP JUMPDEST SWAP4 POP POP PUSH1 0x60 PUSH2 0x397D DUP9 DUP3 DUP10 ADD PUSH2 0x36BC JUMP JUMPDEST SWAP3 POP POP PUSH1 0x80 PUSH2 0x398E DUP9 DUP3 DUP10 ADD PUSH2 0x344F JUMP JUMPDEST SWAP2 POP POP SWAP3 SWAP6 POP SWAP3 SWAP6 SWAP1 SWAP4 POP JUMP JUMPDEST PUSH1 0x0 DUP1 PUSH1 0x40 DUP4 DUP6 SUB SLT ISZERO PUSH2 0x39B2 JUMPI PUSH2 0x39B1 PUSH2 0x3422 JUMP JUMPDEST JUMPDEST PUSH1 0x0 PUSH2 0x39C0 DUP6 DUP3 DUP7 ADD PUSH2 0x36BC JUMP JUMPDEST SWAP3 POP POP PUSH1 0x20 PUSH2 0x39D1 DUP6 DUP3 DUP7 ADD PUSH2 0x36BC JUMP JUMPDEST SWAP2 POP POP SWAP3 POP SWAP3 SWAP1 POP JUMP JUMPDEST PUSH1 0x0 DUP1 PUSH1 0x40 DUP4 DUP6 SUB SLT ISZERO PUSH2 0x39F2 JUMPI PUSH2 0x39F1 PUSH2 0x3422 JUMP JUMPDEST JUMPDEST PUSH1 0x0 PUSH2 0x3A00 DUP6 DUP3 DUP7 ADD PUSH2 0x36BC JUMP JUMPDEST SWAP3 POP POP PUSH1 0x20 PUSH2 0x3A11 DUP6 DUP3 DUP7 ADD PUSH2 0x344F JUMP JUMPDEST SWAP2 POP POP SWAP3 POP SWAP3 SWAP1 POP JUMP JUMPDEST PUSH1 0x0 DUP2 SWAP1 POP SWAP2 SWAP1 POP JUMP JUMPDEST PUSH2 0x3A2E DUP2 PUSH2 0x3A1B JUMP JUMPDEST DUP3 MSTORE POP POP JUMP JUMPDEST PUSH1 0x0 DUP3 DUP3 MSTORE PUSH1 0x20 DUP3 ADD SWAP1 POP SWAP3 SWAP2 POP POP JUMP JUMPDEST PUSH1 0x0 PUSH2 0x3A50 DUP3 PUSH2 0x3491 JUMP JUMPDEST PUSH2 0x3A5A DUP2 DUP6 PUSH2 0x3A34 JUMP JUMPDEST SWAP4 POP DUP4 PUSH1 0x20 DUP3 MUL DUP6 ADD PUSH2 0x3A6C DUP6 PUSH2 0x34AD JUMP JUMPDEST DUP1 PUSH1 0x0 JUMPDEST DUP6 DUP2 LT ISZERO PUSH2 0x3AA8 JUMPI DUP5 DUP5 SUB DUP10 MSTORE DUP2 MLOAD PUSH2 0x3A89 DUP6 DUP3 PUSH2 0x35ED JUMP JUMPDEST SWAP5 POP PUSH2 0x3A94 DUP4 PUSH2 0x3601 JUMP JUMPDEST SWAP3 POP PUSH1 0x20 DUP11 ADD SWAP10 POP POP PUSH1 0x1 DUP2 ADD SWAP1 POP PUSH2 0x3A70 JUMP JUMPDEST POP DUP3 SWAP8 POP DUP8 SWAP6 POP POP POP POP POP POP SWAP3 SWAP2 POP POP JUMP JUMPDEST PUSH1 0x0 PUSH1 0xC0 DUP4 ADD PUSH1 0x0 DUP4 ADD MLOAD DUP5 DUP3 SUB PUSH1 0x0 DUP7 ADD MSTORE PUSH2 0x3AD7 DUP3 DUP3 PUSH2 0x3514 JUMP JUMPDEST SWAP2 POP POP PUSH1 0x20 DUP4 ADD MLOAD DUP5 DUP3 SUB PUSH1 0x20 DUP7 ADD MSTORE PUSH2 0x3AF1 DUP3 DUP3 PUSH2 0x3514 JUMP JUMPDEST SWAP2 POP POP PUSH1 0x40 DUP4 ADD MLOAD DUP5 DUP3 SUB PUSH1 0x40 DUP7 ADD MSTORE PUSH2 0x3B0B DUP3 DUP3 PUSH2 0x3514 JUMP JUMPDEST SWAP2 POP POP PUSH1 0x60 DUP4 ADD MLOAD PUSH2 0x3B20 PUSH1 0x60 DUP7 ADD DUP3 PUSH2 0x357F JUMP JUMPDEST POP PUSH1 0x80 DUP4 ADD MLOAD PUSH2 0x3B33 PUSH1 0x80 DUP7 ADD DUP3 PUSH2 0x3A25 JUMP JUMPDEST POP PUSH1 0xA0 DUP4 ADD MLOAD DUP5 DUP3 SUB PUSH1 0xA0 DUP7 ADD MSTORE PUSH2 0x3B4B DUP3 DUP3 PUSH2 0x3A45 JUMP JUMPDEST SWAP2 POP POP DUP1 SWAP2 POP POP SWAP3 SWAP2 POP POP JUMP JUMPDEST PUSH1 0x0 PUSH1 0x20 DUP3 ADD SWAP1 POP DUP2 DUP2 SUB PUSH1 0x0 DUP4 ADD MSTORE PUSH2 0x3B72 DUP2 DUP5 PUSH2 0x3ABA JUMP JUMPDEST SWAP1 POP SWAP3 SWAP2 POP POP JUMP JUMPDEST PUSH1 0x0 DUP2 MLOAD SWAP1 POP SWAP2 SWAP1 POP JUMP JUMPDEST PUSH1 0x0 DUP3 DUP3 MSTORE PUSH1 0x20 DUP3 ADD SWAP1 POP SWAP3 SWAP2 POP POP JUMP JUMPDEST PUSH1 0x0 DUP2 SWAP1 POP PUSH1 0x20 DUP3 ADD SWAP1 POP SWAP2 SWAP1 POP JUMP JUMPDEST PUSH1 0x0 PUSH1 0xC0 DUP4 ADD PUSH1 0x0 DUP4 ADD MLOAD DUP5 DUP3 SUB PUSH1 0x0 DUP7 ADD MSTORE PUSH2 0x3BC3 DUP3 DUP3 PUSH2 0x3514 JUMP JUMPDEST SWAP2 POP POP PUSH1 0x20 DUP4 ADD MLOAD DUP5 DUP3 SUB PUSH1 0x20 DUP7 ADD MSTORE PUSH2 0x3BDD DUP3 DUP3 PUSH2 0x3514 JUMP JUMPDEST SWAP2 POP POP PUSH1 0x40 DUP4 ADD MLOAD DUP5 DUP3 SUB PUSH1 0x40 DUP7 ADD MSTORE PUSH2 0x3BF7 DUP3 DUP3 PUSH2 0x3514 JUMP JUMPDEST SWAP2 POP POP PUSH1 0x60 DUP4 ADD MLOAD PUSH2 0x3C0C PUSH1 0x60 DUP7 ADD DUP3 PUSH2 0x357F JUMP JUMPDEST POP PUSH1 0x80 DUP4 ADD MLOAD PUSH2 0x3C1F PUSH1 0x80 DUP7 ADD DUP3 PUSH2 0x3A25 JUMP JUMPDEST POP PUSH1 0xA0 DUP4 ADD MLOAD DUP5 DUP3 SUB PUSH1 0xA0 DUP7 ADD MSTORE PUSH2 0x3C37 DUP3 DUP3 PUSH2 0x3A45 JUMP JUMPDEST SWAP2 POP POP DUP1 SWAP2 POP POP SWAP3 SWAP2 POP POP JUMP JUMPDEST PUSH1 0x0 PUSH2 0x3C50 DUP4 DUP4 PUSH2 0x3BA6 JUMP JUMPDEST SWAP1 POP SWAP3 SWAP2 POP POP JUMP JUMPDEST PUSH1 0x0 PUSH1 0x20 DUP3 ADD SWAP1 POP SWAP2 SWAP1 POP JUMP JUMPDEST PUSH1 0x0 PUSH2 0x3C70 DUP3 PUSH2 0x3B7A JUMP JUMPDEST PUSH2 0x3C7A DUP2 DUP6 PUSH2 0x3B85 JUMP JUMPDEST SWAP4 POP DUP4 PUSH1 0x20 DUP3 MUL DUP6 ADD PUSH2 0x3C8C DUP6 PUSH2 0x3B96 JUMP JUMPDEST DUP1 PUSH1 0x0 JUMPDEST DUP6 DUP2 LT ISZERO PUSH2 0x3CC8 JUMPI DUP5 DUP5 SUB DUP10 MSTORE DUP2 MLOAD PUSH2 0x3CA9 DUP6 DUP3 PUSH2 0x3C44 JUMP JUMPDEST SWAP5 POP PUSH2 0x3CB4 DUP4 PUSH2 0x3C58 JUMP JUMPDEST SWAP3 POP PUSH1 0x20 DUP11 ADD SWAP10 POP POP PUSH1 0x1 DUP2 ADD SWAP1 POP PUSH2 0x3C90 JUMP JUMPDEST POP DUP3 SWAP8 POP DUP8 SWAP6 POP POP POP POP POP POP SWAP3 SWAP2 POP POP JUMP JUMPDEST PUSH1 0x0 PUSH1 0x20 DUP3 ADD SWAP1 POP DUP2 DUP2 SUB PUSH1 0x0 DUP4 ADD MSTORE PUSH2 0x3CF4 DUP2 DUP5 PUSH2 0x3C65 JUMP JUMPDEST SWAP1 POP SWAP3 SWAP2 POP POP JUMP JUMPDEST PUSH32 0x4E487B7100000000000000000000000000000000000000000000000000000000 PUSH1 0x0 MSTORE PUSH1 0x22 PUSH1 0x4 MSTORE PUSH1 0x24 PUSH1 0x0 REVERT JUMPDEST PUSH1 0x0 PUSH1 0x2 DUP3 DIV SWAP1 POP PUSH1 0x1 DUP3 AND DUP1 PUSH2 0x3D43 JUMPI PUSH1 0x7F DUP3 AND SWAP2 POP JUMPDEST PUSH1 0x20 DUP3 LT DUP2 SUB PUSH2 0x3D56 JUMPI PUSH2 0x3D55 PUSH2 0x3CFC JUMP JUMPDEST JUMPDEST POP SWAP2 SWAP1 POP JUMP JUMPDEST PUSH1 0x0 DUP2 SWAP1 POP DUP2 PUSH1 0x0 MSTORE PUSH1 0x20 PUSH1 0x0 KECCAK256 SWAP1 POP SWAP2 SWAP1 POP JUMP JUMPDEST PUSH1 0x0 PUSH1 0x20 PUSH1 0x1F DUP4 ADD DIV SWAP1 POP SWAP2 SWAP1 POP JUMP JUMPDEST PUSH1 0x0 DUP3 DUP3 SHL SWAP1 POP SWAP3 SWAP2 POP POP JUMP JUMPDEST PUSH1 0x0 PUSH1 0x8 DUP4 MUL PUSH2 0x3DBE PUSH32 0xFFFFFFFFFFFFFFFFFFFFFFFFFFFFFFFFFFFFFFFFFFFFFFFFFFFFFFFFFFFFFFFF DUP3 PUSH2 0x3D81 JUMP JUMPDEST PUSH2 0x3DC8 DUP7 DUP4 PUSH2 0x3D81 JUMP JUMPDEST SWAP6 POP DUP1 NOT DUP5 AND SWAP4 POP DUP1 DUP7 AND DUP5 OR SWAP3 POP POP POP SWAP4 SWAP3 POP POP POP JUMP JUMPDEST PUSH1 0x0 DUP2 SWAP1 POP SWAP2 SWAP1 POP JUMP JUMPDEST PUSH1 0x0 PUSH2 0x3E05 PUSH2 0x3E00 PUSH2 0x3DFB DUP5 PUSH2 0x3A1B JUMP JUMPDEST PUSH2 0x3DE0 JUMP JUMPDEST PUSH2 0x3A1B JUMP JUMPDEST SWAP1 POP SWAP2 SWAP1 POP JUMP JUMPDEST PUSH1 0x0 DUP2 SWAP1 POP SWAP2 SWAP1 POP JUMP JUMPDEST PUSH2 0x3E1F DUP4 PUSH2 0x3DEA JUMP JUMPDEST PUSH2 0x3E33 PUSH2 0x3E2B DUP3 PUSH2 0x3E0C JUMP JUMPDEST DUP5 DUP5 SLOAD PUSH2 0x3D8E JUMP JUMPDEST DUP3 SSTORE POP POP POP POP JUMP JUMPDEST PUSH1 0x0 SWAP1 JUMP JUMPDEST PUSH2 0x3E48 PUSH2 0x3E3B JUMP JUMPDEST PUSH2 0x3E53 DUP2 DUP5 DUP5 PUSH2 0x3E16 JUMP JUMPDEST POP POP POP JUMP JUMPDEST JUMPDEST DUP2 DUP2 LT ISZERO PUSH2 0x3E77 JUMPI PUSH2 0x3E6C PUSH1 0x0 DUP3 PUSH2 0x3E40 JUMP JUMPDEST PUSH1 0x1 DUP2 ADD SWAP1 POP PUSH2 0x3E59 JUMP JUMPDEST POP POP JUMP JUMPDEST PUSH1 0x1F DUP3 GT ISZERO PUSH2 0x3EBC JUMPI PUSH2 0x3E8D DUP2 PUSH2 0x3D5C JUMP JUMPDEST PUSH2 0x3E96 DUP5 PUSH2 0x3D71 JUMP JUMPDEST DUP2 ADD PUSH1 0x20 DUP6 LT ISZERO PUSH2 0x3EA5 JUMPI DUP2 SWAP1 POP JUMPDEST PUSH2 0x3EB9 PUSH2 0x3EB1 DUP6 PUSH2 0x3D71 JUMP JUMPDEST DUP4 ADD DUP3 PUSH2 0x3E58 JUMP JUMPDEST POP POP JUMPDEST POP POP POP JUMP JUMPDEST PUSH1 0x0 DUP3 DUP3 SHR SWAP1 POP SWAP3 SWAP2 POP POP JUMP JUMPDEST PUSH1 0x0 PUSH2 0x3EDF PUSH1 0x0 NOT DUP5 PUSH1 0x8 MUL PUSH2 0x3EC1 JUMP JUMPDEST NOT DUP1 DUP4 AND SWAP2 POP POP SWAP3 SWAP2 POP POP JUMP JUMPDEST PUSH1 0x0 PUSH2 0x3EF8 DUP4 DUP4 PUSH2 0x3ECE JUMP JUMPDEST SWAP2 POP DUP3 PUSH1 0x2 MUL DUP3 OR SWAP1 POP SWAP3 SWAP2 POP POP JUMP JUMPDEST PUSH2 0x3F11 DUP3 PUSH2 0x34BD JUMP JUMPDEST PUSH8 0xFFFFFFFFFFFFFFFF DUP2 GT ISZERO PUSH2 0x3F2A JUMPI PUSH2 0x3F29 PUSH2 0x3732 JUMP JUMPDEST JUMPDEST PUSH2 0x3F34 DUP3 SLOAD PUSH2 0x3D2B JUMP JUMPDEST PUSH2 0x3F3F DUP3 DUP3 DUP6 PUSH2 0x3E7B JUMP JUMPDEST PUSH1 0x0 PUSH1 0x20 SWAP1 POP PUSH1 0x1F DUP4 GT PUSH1 0x1 DUP2 EQ PUSH2 0x3F72 JUMPI PUSH1 0x0 DUP5 ISZERO PUSH2 0x3F60 JUMPI DUP3 DUP8 ADD MLOAD SWAP1 POP JUMPDEST PUSH2 0x3F6A DUP6 DUP3 PUSH2 0x3EEC JUMP JUMPDEST DUP7 SSTORE POP PUSH2 0x3FD2 JUMP JUMPDEST PUSH1 0x1F NOT DUP5 AND PUSH2 0x3F80 DUP7 PUSH2 0x3D5C JUMP JUMPDEST PUSH1 0x0 JUMPDEST DUP3 DUP2 LT ISZERO PUSH2 0x3FA8 JUMPI DUP5 DUP10 ADD MLOAD DUP3 SSTORE PUSH1 0x1 DUP3 ADD SWAP2 POP PUSH1 0x20 DUP6 ADD SWAP5 POP PUSH1 0x20 DUP2 ADD SWAP1 POP PUSH2 0x3F83 JUMP JUMPDEST DUP7 DUP4 LT ISZERO PUSH2 0x3FC5 JUMPI DUP5 DUP10 ADD MLOAD PUSH2 0x3FC1 PUSH1 0x1F DUP10 AND DUP3 PUSH2 0x3ECE JUMP JUMPDEST DUP4 SSTORE POP JUMPDEST PUSH1 0x1 PUSH1 0x2 DUP9 MUL ADD DUP9 SSTORE POP POP POP JUMPDEST POP POP POP POP POP POP JUMP JUMPDEST PUSH1 0x0 DUP2 SLOAD SWAP1 POP PUSH2 0x3FE9 DUP2 PUSH2 0x3D2B JUMP JUMPDEST SWAP1 POP SWAP2 SWAP1 POP JUMP JUMPDEST DUP2 DUP2 SUB PUSH2 0x3FFE JUMPI POP POP PUSH2 0x40D6 JUMP JUMPDEST PUSH2 0x4007 DUP3 PUSH2 0x3FDA JUMP JUMPDEST PUSH8 0xFFFFFFFFFFFFFFFF DUP2 GT ISZERO PUSH2 0x4020 JUMPI PUSH2 0x401F PUSH2 0x3732 JUMP JUMPDEST JUMPDEST PUSH2 0x402A DUP3 SLOAD PUSH2 0x3D2B JUMP JUMPDEST PUSH2 0x4035 DUP3 DUP3 DUP6 PUSH2 0x3E7B JUMP JUMPDEST PUSH1 0x0 PUSH1 0x1F DUP4 GT PUSH1 0x1 DUP2 EQ PUSH2 0x4064 JUMPI PUSH1 0x0 DUP5 ISZERO PUSH2 0x4052 JUMPI DUP3 DUP8 ADD SLOAD SWAP1 POP JUMPDEST PUSH2 0x405C DUP6 DUP3 PUSH2 0x3EEC JUMP JUMPDEST DUP7 SSTORE POP PUSH2 0x40CF JUMP JUMPDEST PUSH1 0x1F NOT DUP5 AND PUSH2 0x4072 DUP8 PUSH2 0x3D5C JUMP JUMPDEST SWAP7 POP PUSH2 0x407D DUP7 PUSH2 0x3D5C JUMP JUMPDEST PUSH1 0x0 JUMPDEST DUP3 DUP2 LT ISZERO PUSH2 0x40A5 JUMPI DUP5 DUP10 ADD SLOAD DUP3 SSTORE PUSH1 0x1 DUP3 ADD SWAP2 POP PUSH1 0x1 DUP6 ADD SWAP5 POP PUSH1 0x20 DUP2 ADD SWAP1 POP PUSH2 0x4080 JUMP JUMPDEST DUP7 DUP4 LT ISZERO PUSH2 0x40C2 JUMPI DUP5 DUP10 ADD SLOAD PUSH2 0x40BE PUSH1 0x1F DUP10 AND DUP3 PUSH2 0x3ECE JUMP JUMPDEST DUP4 SSTORE POP JUMPDEST PUSH1 0x1 PUSH1 0x2 DUP9 MUL ADD DUP9 SSTORE POP POP POP JUMPDEST POP POP POP POP POP POP JUMPDEST JUMP JUMPDEST PUSH1 0x0 DUP2 SWAP1 POP SWAP3 SWAP2 POP POP JUMP JUMPDEST PUSH32 0x4445414E00000000000000000000000000000000000000000000000000000000 PUSH1 0x0 DUP3 ADD MSTORE POP JUMP JUMPDEST PUSH1 0x0 PUSH2 0x4119 PUSH1 0x4 DUP4 PUSH2 0x40D8 JUMP JUMPDEST SWAP2 POP PUSH2 0x4124 DUP3 PUSH2 0x40E3 JUMP JUMPDEST PUSH1 0x4 DUP3 ADD SWAP1 POP SWAP2 SWAP1 POP JUMP JUMPDEST PUSH1 0x0 PUSH2 0x413A DUP3 PUSH2 0x410C JUMP JUMPDEST SWAP2 POP DUP2 SWAP1 POP SWAP2 SWAP1 POP JUMP JUMPDEST PUSH1 0x0 PUSH2 0x414F DUP3 PUSH2 0x34BD JUMP JUMPDEST PUSH2 0x4159 DUP2 DUP6 PUSH2 0x40D8 JUMP JUMPDEST SWAP4 POP PUSH2 0x4169 DUP2 DUP6 PUSH1 0x20 DUP7 ADD PUSH2 0x34D9 JUMP JUMPDEST DUP1 DUP5 ADD SWAP2 POP POP SWAP3 SWAP2 POP POP JUMP JUMPDEST PUSH1 0x0 PUSH2 0x4181 DUP3 DUP5 PUSH2 0x4144 JUMP JUMPDEST SWAP2 POP DUP2 SWAP1 POP SWAP3 SWAP2 POP POP JUMP JUMPDEST PUSH32 0x484F440000000000000000000000000000000000000000000000000000000000 PUSH1 0x0 DUP3 ADD MSTORE POP JUMP JUMPDEST PUSH1 0x0 PUSH2 0x41C2 PUSH1 0x3 DUP4 PUSH2 0x40D8 JUMP JUMPDEST SWAP2 POP PUSH2 0x41CD DUP3 PUSH2 0x418C JUMP JUMPDEST PUSH1 0x3 DUP3 ADD SWAP1 POP SWAP2 SWAP1 POP JUMP JUMPDEST PUSH1 0x0 PUSH2 0x41E3 DUP3 PUSH2 0x41B5 JUMP JUMPDEST SWAP2 POP DUP2 SWAP1 POP SWAP2 SWAP1 POP JUMP JUMPDEST PUSH32 0x5354414646000000000000000000000000000000000000000000000000000000 PUSH1 0x0 DUP3 ADD MSTORE POP JUMP JUMPDEST PUSH1 0x0 PUSH2 0x4223 PUSH1 0x5 DUP4 PUSH2 0x40D8 JUMP JUMPDEST SWAP2 POP PUSH2 0x422E DUP3 PUSH2 0x41ED JUMP JUMPDEST PUSH1 0x5 DUP3 ADD SWAP1 POP SWAP2 SWAP1 POP JUMP JUMPDEST PUSH1 0x0 PUSH2 0x4244 DUP3 PUSH2 0x4216 JUMP JUMPDEST SWAP2 POP DUP2 SWAP1 POP SWAP2 SWAP1 POP JUMP JUMPDEST PUSH32 0x53545544454E5400000000000000000000000000000000000000000000000000 PUSH1 0x0 DUP3 ADD MSTORE POP JUMP JUMPDEST PUSH1 0x0 PUSH2 0x4284 PUSH1 0x7 DUP4 PUSH2 0x40D8 JUMP JUMPDEST SWAP2 POP PUSH2 0x428F DUP3 PUSH2 0x424E JUMP JUMPDEST PUSH1 0x7 DUP3 ADD SWAP1 POP SWAP2 SWAP1 POP JUMP JUMPDEST PUSH1 0x0 PUSH2 0x42A5 DUP3 PUSH2 0x4277 JUMP JUMPDEST SWAP2 POP DUP2 SWAP1 POP SWAP2 SWAP1 POP JUMP JUMPDEST PUSH1 0x0 DUP3 DUP3 MSTORE PUSH1 0x20 DUP3 ADD SWAP1 POP SWAP3 SWAP2 POP POP JUMP JUMPDEST PUSH32 0x4D656D6265722052657175657374656400000000000000000000000000000000 PUSH1 0x0 DUP3 ADD MSTORE POP JUMP JUMPDEST PUSH1 0x0 PUSH2 0x42F6 PUSH1 0x10 DUP4 PUSH2 0x42AF JUMP JUMPDEST SWAP2 POP PUSH2 0x4301 DUP3 PUSH2 0x42C0 JUMP JUMPDEST PUSH1 0x20 DUP3 ADD SWAP1 POP SWAP2 SWAP1 POP JUMP JUMPDEST PUSH1 0x0 PUSH1 0x20 DUP3 ADD SWAP1 POP DUP2 DUP2 SUB PUSH1 0x0 DUP4 ADD MSTORE PUSH2 0x4325 DUP2 PUSH2 0x42E9 JUMP JUMPDEST SWAP1 POP SWAP2 SWAP1 POP JUMP JUMPDEST PUSH32 0x4D656D6265722045786973740000000000000000000000000000000000000000 PUSH1 0x0 DUP3 ADD MSTORE POP JUMP JUMPDEST PUSH1 0x0 PUSH2 0x4362 PUSH1 0xC DUP4 PUSH2 0x42AF JUMP JUMPDEST SWAP2 POP PUSH2 0x436D DUP3 PUSH2 0x432C JUMP JUMPDEST PUSH1 0x20 DUP3 ADD SWAP1 POP SWAP2 SWAP1 POP JUMP JUMPDEST PUSH1 0x0 PUSH1 0x20 DUP3 ADD SWAP1 POP DUP2 DUP2 SUB PUSH1 0x0 DUP4 ADD MSTORE PUSH2 0x4391 DUP2 PUSH2 0x4355 JUMP JUMPDEST SWAP1 POP SWAP2 SWAP1 POP JUMP JUMPDEST PUSH32 0x596F75206E65656420746F205265717565737420466972737400000000000000 PUSH1 0x0 DUP3 ADD MSTORE POP JUMP JUMPDEST PUSH1 0x0 PUSH2 0x43CE PUSH1 0x19 DUP4 PUSH2 0x42AF JUMP JUMPDEST SWAP2 POP PUSH2 0x43D9 DUP3 PUSH2 0x4398 JUMP JUMPDEST PUSH1 0x20 DUP3 ADD SWAP1 POP SWAP2 SWAP1 POP JUMP JUMPDEST PUSH1 0x0 PUSH1 0x20 DUP3 ADD SWAP1 POP DUP2 DUP2 SUB PUSH1 0x0 DUP4 ADD MSTORE PUSH2 0x43FD DUP2 PUSH2 0x43C1 JUMP JUMPDEST SWAP1 POP SWAP2 SWAP1 POP JUMP JUMPDEST PUSH32 0x596F752063616E277420617070726F6F766520736F6D656F6E652061626F7665 PUSH1 0x0 DUP3 ADD MSTORE PUSH32 0x207468616E20796F752E00000000000000000000000000000000000000000000 PUSH1 0x20 DUP3 ADD MSTORE POP JUMP JUMPDEST PUSH1 0x0 PUSH2 0x4460 PUSH1 0x2A DUP4 PUSH2 0x42AF JUMP JUMPDEST SWAP2 POP PUSH2 0x446B DUP3 PUSH2 0x4404 JUMP JUMPDEST PUSH1 0x40 DUP3 ADD SWAP1 POP SWAP2 SWAP1 POP JUMP JUMPDEST PUSH1 0x0 PUSH1 0x20 DUP3 ADD SWAP1 POP DUP2 DUP2 SUB PUSH1 0x0 DUP4 ADD MSTORE PUSH2 0x448F DUP2 PUSH2 0x4453 JUMP JUMPDEST SWAP1 POP SWAP2 SWAP1 POP JUMP JUMPDEST PUSH32 0x4E487B7100000000000000000000000000000000000000000000000000000000 PUSH1 0x0 MSTORE PUSH1 0x11 PUSH1 0x4 MSTORE PUSH1 0x24 PUSH1 0x0 REVERT JUMPDEST PUSH1 0x0 PUSH2 0x44D0 DUP3 PUSH2 0x3A1B JUMP JUMPDEST SWAP2 POP PUSH2 0x44DB DUP4 PUSH2 0x3A1B JUMP JUMPDEST SWAP3 POP DUP3 DUP3 SUB SWAP1 POP DUP2 DUP2 GT ISZERO PUSH2 0x44F3 JUMPI PUSH2 0x44F2 PUSH2 0x4496 JUMP JUMPDEST JUMPDEST SWAP3 SWAP2 POP POP JUMP JUMPDEST PUSH32 0x4E487B7100000000000000000000000000000000000000000000000000000000 PUSH1 0x0 MSTORE PUSH1 0x32 PUSH1 0x4 MSTORE PUSH1 0x24 PUSH1 0x0 REVERT JUMPDEST PUSH32 0x4E487B7100000000000000000000000000000000000000000000000000000000 PUSH1 0x0 MSTORE PUSH1 0x31 PUSH1 0x4 MSTORE PUSH1 0x24 PUSH1 0x0 REVERT INVALID LOG2 PUSH5 0x6970667358 0x22 SLT KECCAK256 SAR DUP4 EXP 0xD0 0x5D 0x2E CALLER SWAP8 0xE6 0xE3 0xDF 0xD5 DUP2 0xE8 MUL 0xA6 MOD 0xD3 0xEF 0x24 0xC4 0x27 0xF8 0xD3 0x23 PUSH23 0x4AD8FFB864C464736F6C63430008100033000000000000 "},"gasEstimates":{"creation":{"codeDepositCost":"3561000","executionCost":"14010","totalCost":"3575010"},"external":{"addOrRequestMember(string,string,string,address,bool)":"infinite","approoveRequest(address,address)":"infinite","approvePost(address,address)":"infinite","findMember(address,bool)":"infinite","getAllPosts(bool)":"infinite","getApprovedOrRequestedMember(bool)":"infinite","getPostsByUser(address)":"infinite","login(address)":"3017","memberExistOrNot(address)":"2951","postNews(string,address,bool)":"infinite","recieve()":"164"}},"methodIdentifiers":{"addOrRequestMember(string,string,string,address,bool)":"4cd6f25e","approoveRequest(address,address)":"e070dd12","approvePost(address,address)":"529d3797","findMember(address,bool)":"bafa08c1","getAllPosts(bool)":"1e0f71fe","getApprovedOrRequestedMember(bool)":"e473f6cd","getPostsByUser(address)":"28538949","login(address)":"35a6861a","memberExistOrNot(address)":"64e47536","postNews(string,address,bool)":"39fec887","recieve()":"a9e10bf2"}},"storageLayout":{"storage":[{"astId":23,"contract":"Contract.sol:Contract","label":"requestIndex","offset":0,"slot":"0","type":"t_uint256"},{"astId":26,"contract":"Contract.sol:Contract","label":"memberIndex","offset":0,"slot":"1","type":"t_uint256"},{"astId":30,"contract":"Contract.sol:Contract","label":"indexFromRequest","offset":0,"slot":"2","type":"t_mapping(t_address,t_uint256)"},{"astId":34,"contract":"Contract.sol:Contract","label":"indexFromApproove","offset":0,"slot":"3","type":"t_mapping(t_address,t_uint256)"},{"astId":39,"contract":"Contract.sol:Contract","label":"getMemberWithAddress","offset":0,"slot":"4","type":"t_mapping(t_address,t_struct(MemberStruct)20_storage)"},{"astId":43,"contract":"Contract.sol:Contract","label":"arrayOfMembers","offset":0,"slot":"5","type":"t_array(t_struct(MemberStruct)20_storage)dyn_storage"},{"astId":47,"contract":"Contract.sol:Contract","label":"memberExist","offset":0,"slot":"6","type":"t_mapping(t_address,t_bool)"},{"astId":52,"contract":"Contract.sol:Contract","label":"getRequestedMemberWithAddress","offset":0,"slot":"7","type":"t_mapping(t_address,t_struct(MemberStruct)20_storage)"},{"astId":56,"contract":"Contract.sol:Contract","label":"arrayOfRequestedMembers","offset":0,"slot":"8","type":"t_array(t_struct(MemberStruct)20_storage)dyn_storage"},{"astId":60,"contract":"Contract.sol:Contract","label":"memberRequested","offset":0,"slot":"9","type":"t_mapping(t_address,t_bool)"},{"astId":83,"contract":"Contract.sol:Contract","label":"instanceOfMemberStruct","offset":0,"slot":"10","type":"t_struct(MemberStruct)20_storage"},{"astId":476,"contract":"Contract.sol:Contract","label":"instanceOfPost","offset":0,"slot":"16","type":"t_struct(PostStructure)473_storage"},{"astId":480,"contract":"Contract.sol:Contract","label":"allThePosts","offset":0,"slot":"18","type":"t_array(t_struct(PostStructure)473_storage)dyn_storage"},{"astId":485,"contract":"Contract.sol:Contract","label":"postOfUser","offset":0,"slot":"19","type":"t_mapping(t_address,t_struct(PostStructure)473_storage)"},{"astId":489,"contract":"Contract.sol:Contract","label":"allTheRequestedPosts","offset":0,"slot":"20","type":"t_array(t_struct(PostStructure)473_storage)dyn_storage"},{"astId":494,"contract":"Contract.sol:Contract","label":"postOfRequestingUser","offset":0,"slot":"21","type":"t_mapping(t_address,t_struct(PostStructure)473_storage)"}],"types":{"t_address":{"encoding":"inplace","label":"address","numberOfBytes":"20"},"t_array(t_struct(MemberStruct)20_storage)dyn_storage":{"base":"t_struct(MemberStruct)20_storage","encoding":"dynamic_array","label":"struct Contract.MemberStruct[]","numberOfBytes":"32"},"t_array(t_struct(PostStructure)473_storage)dyn_storage":{"base":"t_struct(PostStructure)473_storage","encoding":"dynamic_array","label":"struct Contract.PostStructure[]","numberOfBytes":"32"},"t_bool":{"encoding":"inplace","label":"bool","numberOfBytes":"1"},"t_mapping(t_address,t_bool)":{"encoding":"mapping","key":"t_address","label":"mapping(address => bool)","numberOfBytes":"32","value":"t_bool"},"t_mapping(t_address,t_struct(MemberStruct)20_storage)":{"encoding":"mapping","key":"t_address","label":"mapping(address => struct Contract.MemberStruct)","numberOfBytes":"32","value":"t_struct(MemberStruct)20_storage"},"t_mapping(t_address,t_struct(PostStructure)473_storage)":{"encoding":"mapping","key":"t_address","label":"mapping(address => struct Contract.PostStructure)","numberOfBytes":"32","value":"t_struct(PostStructure)473_storage"},"t_mapping(t_address,t_uint256)":{"encoding":"mapping","key":"t_address","label":"mapping(address => uint256)","numberOfBytes":"32","value":"t_uint256"},"t_string_storage":{"encoding":"bytes","label":"string","numberOfBytes":"32"},"t_struct(MemberStruct)20_storage":{"encoding":"inplace","label":"struct Contract.MemberStruct","members":[{"astId":7,"contract":"Contract.sol:Contract","label":"post","offset":0,"slot":"0","type":"t_string_storage"},{"astId":9,"contract":"Contract.sol:Contract","label":"dept","offset":0,"slot":"1","type":"t_string_storage"},{"astId":11,"contract":"Contract.sol:Contract","label":"name","offset":0,"slot":"2","type":"t_string_storage"},{"astId":13,"contract":"Contract.sol:Contract","label":"userAddress","offset":0,"slot":"3","type":"t_address"},{"astId":15,"contract":"Contract.sol:Contract","label":"power","offset":0,"slot":"4","type":"t_uint256"},{"astId":19,"contract":"Contract.sol:Contract","label":"allPostsByUser","offset":0,"slot":"5","type":"t_array(t_struct(PostStructure)473_storage)dyn_storage"}],"numberOfBytes":"192"},"t_struct(PostStructure)473_storage":{"encoding":"inplace","label":"struct Contract.PostStructure","members":[{"astId":468,"contract":"Contract.sol:Contract","label":"postHash","offset":0,"slot":"0","type":"t_string_storage"},{"astId":470,"contract":"Contract.sol:Contract","label":"postCreator","offset":0,"slot":"1","type":"t_address"},{"astId":472,"contract":"Contract.sol:Contract","label":"isRequest","offset":20,"slot":"1","type":"t_bool"}],"numberOfBytes":"64"},"t_uint256":{"encoding":"inplace","label":"uint256","numberOfBytes":"32"}}},"userdoc":{"kind":"user","methods":{},"version":1}}