{"abi":[{"inputs":[{"internalType":"string","name":"_post","type":"string"},{"internalType":"string","name":"_dept","type":"string"},{"internalType":"string","name":"_name","type":"string"},{"internalType":"address","name":"_userAddress","type":"address"},{"internalType":"bool","name":"request","type":"bool"}],"name":"addOrRequestMember","outputs":[],"stateMutability":"nonpayable","type":"function"},{"inputs":[{"internalType":"address","name":"_userAddress","type":"address"},{"internalType":"address","name":"approvingUserAddress","type":"address"}],"name":"approoveRequest","outputs":[],"stateMutability":"nonpayable","type":"function"},{"inputs":[{"internalType":"address","name":"_requestedBy","type":"address"},{"internalType":"address","name":"_approvedBy","type":"address"}],"name":"approvePost","outputs":[],"stateMutability":"nonpayable","type":"function"},{"inputs":[{"internalType":"address","name":"_userAddress","type":"address"},{"internalType":"bool","name":"requestedMember","type":"bool"}],"name":"findMember","outputs":[{"components":[{"internalType":"string","name":"post","type":"string"},{"internalType":"string","name":"dept","type":"string"},{"internalType":"string","name":"name","type":"string"},{"internalType":"address","name":"userAddress","type":"address"},{"internalType":"uint256","name":"power","type":"uint256"},{"components":[{"internalType":"string","name":"postHash","type":"string"},{"internalType":"address","name":"postCreator","type":"address"},{"internalType":"bool","name":"isRequest","type":"bool"}],"internalType":"struct Contract.PostStructure[]","name":"allPostsByUser","type":"tuple[]"}],"internalType":"struct Contract.MemberStruct","name":"","type":"tuple"}],"stateMutability":"view","type":"function"},{"inputs":[{"internalType":"bool","name":"requestedPosts","type":"bool"}],"name":"getAllPosts","outputs":[{"components":[{"internalType":"string","name":"postHash","type":"string"},{"internalType":"address","name":"postCreator","type":"address"},{"internalType":"bool","name":"isRequest","type":"bool"}],"internalType":"struct Contract.PostStructure[]","name":"","type":"tuple[]"}],"stateMutability":"view","type":"function"},{"inputs":[{"internalType":"bool","name":"request","type":"bool"}],"name":"getApprovedOrRequestedMember","outputs":[{"components":[{"internalType":"string","name":"post","type":"string"},{"internalType":"string","name":"dept","type":"string"},{"internalType":"string","name":"name","type":"string"},{"internalType":"address","name":"userAddress","type":"address"},{"internalType":"uint256","name":"power","type":"uint256"},{"components":[{"internalType":"string","name":"postHash","type":"string"},{"internalType":"address","name":"postCreator","type":"address"},{"internalType":"bool","name":"isRequest","type":"bool"}],"internalType":"struct Contract.PostStructure[]","name":"allPostsByUser","type":"tuple[]"}],"internalType":"struct Contract.MemberStruct[]","name":"","type":"tuple[]"}],"stateMutability":"view","type":"function"},{"inputs":[{"internalType":"address","name":"_userAddress","type":"address"}],"name":"getPostsByUser","outputs":[{"components":[{"internalType":"string","name":"postHash","type":"string"},{"internalType":"address","name":"postCreator","type":"address"},{"internalType":"bool","name":"isRequest","type":"bool"}],"internalType":"struct Contract.PostStructure[]","name":"","type":"tuple[]"}],"stateMutability":"view","type":"function"},{"inputs":[{"internalType":"address","name":"userAddress","type":"address"}],"name":"login","outputs":[{"internalType":"bool","name":"","type":"bool"}],"stateMutability":"view","type":"function"},{"inputs":[{"internalType":"string","name":"_postHash","type":"string"},{"internalType":"address","name":"_postCreator","type":"address"},{"internalType":"bool","name":"_isRequest","type":"bool"}],"name":"postNews","outputs":[],"stateMutability":"nonpayable","type":"function"},{"inputs":[],"name":"recieve","outputs":[],"stateMutability":"payable","type":"function"}],"devdoc":{"kind":"dev","methods":{},"version":1},"evm":{"assembly":"    /* \"Contract.sol\":642:9909  contract Contract {... */\n  mstore(0x40, 0x80)\n    /* \"Contract.sol\":3830:3831  0 */\n  0x00\n    /* \"Contract.sol\":3807:3831  uint256 requestIndex = 0 */\n  0x06\n  sstore\n    /* \"Contract.sol\":3860:3861  0 */\n  0x00\n    /* \"Contract.sol\":3838:3861  uint256 memberIndex = 0 */\n  0x07\n  sstore\n    /* \"Contract.sol\":642:9909  contract Contract {... */\n  callvalue\n  dup1\n  iszero\n  tag_1\n  jumpi\n  0x00\n  dup1\n  revert\ntag_1:\n  pop\n  dataSize(sub_0)\n  dup1\n  dataOffset(sub_0)\n  0x00\n  codecopy\n  0x00\n  return\nstop\n\nsub_0: assembly {\n        /* \"Contract.sol\":642:9909  contract Contract {... */\n      mstore(0x40, 0x80)\n      jumpi(tag_1, lt(calldatasize, 0x04))\n      shr(0xe0, calldataload(0x00))\n      dup1\n      0x529d3797\n      gt\n      tag_12\n      jumpi\n      dup1\n      0x529d3797\n      eq\n      tag_7\n      jumpi\n      dup1\n      0xa9e10bf2\n      eq\n      tag_8\n      jumpi\n      dup1\n      0xbafa08c1\n      eq\n      tag_9\n      jumpi\n      dup1\n      0xe070dd12\n      eq\n      tag_10\n      jumpi\n      dup1\n      0xe473f6cd\n      eq\n      tag_11\n      jumpi\n      jump(tag_1)\n    tag_12:\n      dup1\n      0x1e0f71fe\n      eq\n      tag_2\n      jumpi\n      dup1\n      0x28538949\n      eq\n      tag_3\n      jumpi\n      dup1\n      0x35a6861a\n      eq\n      tag_4\n      jumpi\n      dup1\n      0x39fec887\n      eq\n      tag_5\n      jumpi\n      dup1\n      0x4cd6f25e\n      eq\n      tag_6\n      jumpi\n    tag_1:\n      0x00\n      dup1\n      revert\n        /* \"Contract.sol\":2179:2441  function getAllPosts(bool requestedPosts)... */\n    tag_2:\n      callvalue\n      dup1\n      iszero\n      tag_13\n      jumpi\n      0x00\n      dup1\n      revert\n    tag_13:\n      pop\n      tag_14\n      0x04\n      dup1\n      calldatasize\n      sub\n      dup2\n      add\n      swap1\n      tag_15\n      swap2\n      swap1\n      tag_16\n      jump\t// in\n    tag_15:\n      tag_17\n      jump\t// in\n    tag_14:\n      mload(0x40)\n      tag_18\n      swap2\n      swap1\n      tag_19\n      jump\t// in\n    tag_18:\n      mload(0x40)\n      dup1\n      swap2\n      sub\n      swap1\n      return\n        /* \"Contract.sol\":3247:3445  function getPostsByUser(address _userAddress)... */\n    tag_3:\n      callvalue\n      dup1\n      iszero\n      tag_20\n      jumpi\n      0x00\n      dup1\n      revert\n    tag_20:\n      pop\n      tag_21\n      0x04\n      dup1\n      calldatasize\n      sub\n      dup2\n      add\n      swap1\n      tag_22\n      swap2\n      swap1\n      tag_23\n      jump\t// in\n    tag_22:\n      tag_24\n      jump\t// in\n    tag_21:\n      mload(0x40)\n      tag_25\n      swap2\n      swap1\n      tag_19\n      jump\t// in\n    tag_25:\n      mload(0x40)\n      dup1\n      swap2\n      sub\n      swap1\n      return\n        /* \"Contract.sol\":9260:9464  function login(address userAddress) public view returns (bool) {... */\n    tag_4:\n      callvalue\n      dup1\n      iszero\n      tag_26\n      jumpi\n      0x00\n      dup1\n      revert\n    tag_26:\n      pop\n      tag_27\n      0x04\n      dup1\n      calldatasize\n      sub\n      dup2\n      add\n      swap1\n      tag_28\n      swap2\n      swap1\n      tag_23\n      jump\t// in\n    tag_28:\n      tag_29\n      jump\t// in\n    tag_27:\n      mload(0x40)\n      tag_30\n      swap2\n      swap1\n      tag_31\n      jump\t// in\n    tag_30:\n      mload(0x40)\n      dup1\n      swap2\n      sub\n      swap1\n      return\n        /* \"Contract.sol\":1247:2171  function postNews(... */\n    tag_5:\n      callvalue\n      dup1\n      iszero\n      tag_32\n      jumpi\n      0x00\n      dup1\n      revert\n    tag_32:\n      pop\n      tag_33\n      0x04\n      dup1\n      calldatasize\n      sub\n      dup2\n      add\n      swap1\n      tag_34\n      swap2\n      swap1\n      tag_35\n      jump\t// in\n    tag_34:\n      tag_36\n      jump\t// in\n    tag_33:\n      stop\n        /* \"Contract.sol\":4971:7631  function addOrRequestMember(... */\n    tag_6:\n      callvalue\n      dup1\n      iszero\n      tag_37\n      jumpi\n      0x00\n      dup1\n      revert\n    tag_37:\n      pop\n      tag_38\n      0x04\n      dup1\n      calldatasize\n      sub\n      dup2\n      add\n      swap1\n      tag_39\n      swap2\n      swap1\n      tag_40\n      jump\t// in\n    tag_39:\n      tag_41\n      jump\t// in\n    tag_38:\n      stop\n        /* \"Contract.sol\":2449:3239  function approvePost(address _requestedBy, address _approvedBy) public {... */\n    tag_7:\n      callvalue\n      dup1\n      iszero\n      tag_42\n      jumpi\n      0x00\n      dup1\n      revert\n    tag_42:\n      pop\n      tag_43\n      0x04\n      dup1\n      calldatasize\n      sub\n      dup2\n      add\n      swap1\n      tag_44\n      swap2\n      swap1\n      tag_45\n      jump\t// in\n    tag_44:\n      tag_46\n      jump\t// in\n    tag_43:\n      stop\n        /* \"Contract.sol\":667:705  function recieve() external payable {} */\n    tag_8:\n      tag_47\n      tag_48\n      jump\t// in\n    tag_47:\n      stop\n        /* \"Contract.sol\":7751:8087  function findMember(address _userAddress, bool requestedMember)... */\n    tag_9:\n      callvalue\n      dup1\n      iszero\n      tag_49\n      jumpi\n      0x00\n      dup1\n      revert\n    tag_49:\n      pop\n      tag_50\n      0x04\n      dup1\n      calldatasize\n      sub\n      dup2\n      add\n      swap1\n      tag_51\n      swap2\n      swap1\n      tag_52\n      jump\t// in\n    tag_51:\n      tag_53\n      jump\t// in\n    tag_50:\n      mload(0x40)\n      tag_54\n      swap2\n      swap1\n      tag_55\n      jump\t// in\n    tag_54:\n      mload(0x40)\n      dup1\n      swap2\n      sub\n      swap1\n      return\n        /* \"Contract.sol\":8132:9133  function approoveRequest(address _userAddress, address approvingUserAddress)... */\n    tag_10:\n      callvalue\n      dup1\n      iszero\n      tag_56\n      jumpi\n      0x00\n      dup1\n      revert\n    tag_56:\n      pop\n      tag_57\n      0x04\n      dup1\n      calldatasize\n      sub\n      dup2\n      add\n      swap1\n      tag_58\n      swap2\n      swap1\n      tag_45\n      jump\t// in\n    tag_58:\n      tag_59\n      jump\t// in\n    tag_57:\n      stop\n        /* \"Contract.sol\":4496:4774  function getApprovedOrRequestedMember(bool request)... */\n    tag_11:\n      callvalue\n      dup1\n      iszero\n      tag_60\n      jumpi\n      0x00\n      dup1\n      revert\n    tag_60:\n      pop\n      tag_61\n      0x04\n      dup1\n      calldatasize\n      sub\n      dup2\n      add\n      swap1\n      tag_62\n      swap2\n      swap1\n      tag_16\n      jump\t// in\n    tag_62:\n      tag_63\n      jump\t// in\n    tag_61:\n      mload(0x40)\n      tag_64\n      swap2\n      swap1\n      tag_65\n      jump\t// in\n    tag_64:\n      mload(0x40)\n      dup1\n      swap2\n      sub\n      swap1\n      return\n        /* \"Contract.sol\":2179:2441  function getAllPosts(bool requestedPosts)... */\n    tag_17:\n        /* \"Contract.sol\":2269:2291  PostStructure[] memory */\n      0x60\n        /* \"Contract.sol\":2313:2327  requestedPosts */\n      dup2\n        /* \"Contract.sol\":2309:2434  if (requestedPosts) {... */\n      iszero\n      tag_67\n      jumpi\n        /* \"Contract.sol\":2351:2371  allTheRequestedPosts */\n      0x04\n        /* \"Contract.sol\":2344:2371  return allTheRequestedPosts */\n      dup1\n      sload\n      dup1\n      0x20\n      mul\n      0x20\n      add\n      mload(0x40)\n      swap1\n      dup2\n      add\n      0x40\n      mstore\n      dup1\n      swap3\n      swap2\n      swap1\n      dup2\n      dup2\n      mstore\n      0x20\n      add\n      0x00\n      swap1\n    tag_68:\n      dup3\n      dup3\n      lt\n      iszero\n      tag_69\n      jumpi\n      dup4\n      dup3\n      swap1\n      0x00\n      mstore\n      keccak256(0x00, 0x20)\n      swap1\n      0x02\n      mul\n      add\n      mload(0x40)\n      dup1\n      0x60\n      add\n      0x40\n      mstore\n      swap1\n      dup2\n      0x00\n      dup3\n      add\n      dup1\n      sload\n      tag_71\n      swap1\n      tag_72\n      jump\t// in\n    tag_71:\n      dup1\n      0x1f\n      add\n      0x20\n      dup1\n      swap2\n      div\n      mul\n      0x20\n      add\n      mload(0x40)\n      swap1\n      dup2\n      add\n      0x40\n      mstore\n      dup1\n      swap3\n      swap2\n      swap1\n      dup2\n      dup2\n      mstore\n      0x20\n      add\n      dup3\n      dup1\n      sload\n      tag_73\n      swap1\n      tag_72\n      jump\t// in\n    tag_73:\n      dup1\n      iszero\n      tag_74\n      jumpi\n      dup1\n      0x1f\n      lt\n      tag_75\n      jumpi\n      0x0100\n      dup1\n      dup4\n      sload\n      div\n      mul\n      dup4\n      mstore\n      swap2\n      0x20\n      add\n      swap2\n      jump(tag_74)\n    tag_75:\n      dup3\n      add\n      swap2\n      swap1\n      0x00\n      mstore\n      keccak256(0x00, 0x20)\n      swap1\n    tag_76:\n      dup2\n      sload\n      dup2\n      mstore\n      swap1\n      0x01\n      add\n      swap1\n      0x20\n      add\n      dup1\n      dup4\n      gt\n      tag_76\n      jumpi\n      dup3\n      swap1\n      sub\n      0x1f\n      and\n      dup3\n      add\n      swap2\n    tag_74:\n      pop\n      pop\n      pop\n      pop\n      pop\n      dup2\n      mstore\n      0x20\n      add\n      0x01\n      dup3\n      add\n      0x00\n      swap1\n      sload\n      swap1\n      0x0100\n      exp\n      swap1\n      div\n      0xffffffffffffffffffffffffffffffffffffffff\n      and\n      0xffffffffffffffffffffffffffffffffffffffff\n      and\n      0xffffffffffffffffffffffffffffffffffffffff\n      and\n      dup2\n      mstore\n      0x20\n      add\n      0x01\n      dup3\n      add\n      0x14\n      swap1\n      sload\n      swap1\n      0x0100\n      exp\n      swap1\n      div\n      0xff\n      and\n      iszero\n      iszero\n      iszero\n      iszero\n      dup2\n      mstore\n      pop\n      pop\n      dup2\n      mstore\n      0x20\n      add\n      swap1\n      0x01\n      add\n      swap1\n      jump(tag_68)\n    tag_69:\n      pop\n      pop\n      pop\n      pop\n      swap1\n      pop\n      jump(tag_66)\n        /* \"Contract.sol\":2309:2434  if (requestedPosts) {... */\n    tag_67:\n        /* \"Contract.sol\":2411:2422  allThePosts */\n      0x02\n        /* \"Contract.sol\":2404:2422  return allThePosts */\n      dup1\n      sload\n      dup1\n      0x20\n      mul\n      0x20\n      add\n      mload(0x40)\n      swap1\n      dup2\n      add\n      0x40\n      mstore\n      dup1\n      swap3\n      swap2\n      swap1\n      dup2\n      dup2\n      mstore\n      0x20\n      add\n      0x00\n      swap1\n    tag_78:\n      dup3\n      dup3\n      lt\n      iszero\n      tag_79\n      jumpi\n      dup4\n      dup3\n      swap1\n      0x00\n      mstore\n      keccak256(0x00, 0x20)\n      swap1\n      0x02\n      mul\n      add\n      mload(0x40)\n      dup1\n      0x60\n      add\n      0x40\n      mstore\n      swap1\n      dup2\n      0x00\n      dup3\n      add\n      dup1\n      sload\n      tag_81\n      swap1\n      tag_72\n      jump\t// in\n    tag_81:\n      dup1\n      0x1f\n      add\n      0x20\n      dup1\n      swap2\n      div\n      mul\n      0x20\n      add\n      mload(0x40)\n      swap1\n      dup2\n      add\n      0x40\n      mstore\n      dup1\n      swap3\n      swap2\n      swap1\n      dup2\n      dup2\n      mstore\n      0x20\n      add\n      dup3\n      dup1\n      sload\n      tag_82\n      swap1\n      tag_72\n      jump\t// in\n    tag_82:\n      dup1\n      iszero\n      tag_83\n      jumpi\n      dup1\n      0x1f\n      lt\n      tag_84\n      jumpi\n      0x0100\n      dup1\n      dup4\n      sload\n      div\n      mul\n      dup4\n      mstore\n      swap2\n      0x20\n      add\n      swap2\n      jump(tag_83)\n    tag_84:\n      dup3\n      add\n      swap2\n      swap1\n      0x00\n      mstore\n      keccak256(0x00, 0x20)\n      swap1\n    tag_85:\n      dup2\n      sload\n      dup2\n      mstore\n      swap1\n      0x01\n      add\n      swap1\n      0x20\n      add\n      dup1\n      dup4\n      gt\n      tag_85\n      jumpi\n      dup3\n      swap1\n      sub\n      0x1f\n      and\n      dup3\n      add\n      swap2\n    tag_83:\n      pop\n      pop\n      pop\n      pop\n      pop\n      dup2\n      mstore\n      0x20\n      add\n      0x01\n      dup3\n      add\n      0x00\n      swap1\n      sload\n      swap1\n      0x0100\n      exp\n      swap1\n      div\n      0xffffffffffffffffffffffffffffffffffffffff\n      and\n      0xffffffffffffffffffffffffffffffffffffffff\n      and\n      0xffffffffffffffffffffffffffffffffffffffff\n      and\n      dup2\n      mstore\n      0x20\n      add\n      0x01\n      dup3\n      add\n      0x14\n      swap1\n      sload\n      swap1\n      0x0100\n      exp\n      swap1\n      div\n      0xff\n      and\n      iszero\n      iszero\n      iszero\n      iszero\n      dup2\n      mstore\n      pop\n      pop\n      dup2\n      mstore\n      0x20\n      add\n      swap1\n      0x01\n      add\n      swap1\n      jump(tag_78)\n    tag_79:\n      pop\n      pop\n      pop\n      pop\n      swap1\n      pop\n        /* \"Contract.sol\":2179:2441  function getAllPosts(bool requestedPosts)... */\n    tag_66:\n      swap2\n      swap1\n      pop\n      jump\t// out\n        /* \"Contract.sol\":3247:3445  function getPostsByUser(address _userAddress)... */\n    tag_24:\n        /* \"Contract.sol\":3341:3363  PostStructure[] memory */\n      0x60\n        /* \"Contract.sol\":3388:3408  getMemberWithAddress */\n      0x0a\n        /* \"Contract.sol\":3388:3422  getMemberWithAddress[_userAddress] */\n      0x00\n        /* \"Contract.sol\":3409:3421  _userAddress */\n      dup4\n        /* \"Contract.sol\":3388:3422  getMemberWithAddress[_userAddress] */\n      0xffffffffffffffffffffffffffffffffffffffff\n      and\n      0xffffffffffffffffffffffffffffffffffffffff\n      and\n      dup2\n      mstore\n      0x20\n      add\n      swap1\n      dup2\n      mstore\n      0x20\n      add\n      0x00\n      keccak256\n        /* \"Contract.sol\":3388:3437  getMemberWithAddress[_userAddress].allPostsByUser */\n      0x05\n      add\n        /* \"Contract.sol\":3381:3437  return getMemberWithAddress[_userAddress].allPostsByUser */\n      dup1\n      sload\n      dup1\n      0x20\n      mul\n      0x20\n      add\n      mload(0x40)\n      swap1\n      dup2\n      add\n      0x40\n      mstore\n      dup1\n      swap3\n      swap2\n      swap1\n      dup2\n      dup2\n      mstore\n      0x20\n      add\n      0x00\n      swap1\n    tag_87:\n      dup3\n      dup3\n      lt\n      iszero\n      tag_88\n      jumpi\n      dup4\n      dup3\n      swap1\n      0x00\n      mstore\n      keccak256(0x00, 0x20)\n      swap1\n      0x02\n      mul\n      add\n      mload(0x40)\n      dup1\n      0x60\n      add\n      0x40\n      mstore\n      swap1\n      dup2\n      0x00\n      dup3\n      add\n      dup1\n      sload\n      tag_90\n      swap1\n      tag_72\n      jump\t// in\n    tag_90:\n      dup1\n      0x1f\n      add\n      0x20\n      dup1\n      swap2\n      div\n      mul\n      0x20\n      add\n      mload(0x40)\n      swap1\n      dup2\n      add\n      0x40\n      mstore\n      dup1\n      swap3\n      swap2\n      swap1\n      dup2\n      dup2\n      mstore\n      0x20\n      add\n      dup3\n      dup1\n      sload\n      tag_91\n      swap1\n      tag_72\n      jump\t// in\n    tag_91:\n      dup1\n      iszero\n      tag_92\n      jumpi\n      dup1\n      0x1f\n      lt\n      tag_93\n      jumpi\n      0x0100\n      dup1\n      dup4\n      sload\n      div\n      mul\n      dup4\n      mstore\n      swap2\n      0x20\n      add\n      swap2\n      jump(tag_92)\n    tag_93:\n      dup3\n      add\n      swap2\n      swap1\n      0x00\n      mstore\n      keccak256(0x00, 0x20)\n      swap1\n    tag_94:\n      dup2\n      sload\n      dup2\n      mstore\n      swap1\n      0x01\n      add\n      swap1\n      0x20\n      add\n      dup1\n      dup4\n      gt\n      tag_94\n      jumpi\n      dup3\n      swap1\n      sub\n      0x1f\n      and\n      dup3\n      add\n      swap2\n    tag_92:\n      pop\n      pop\n      pop\n      pop\n      pop\n      dup2\n      mstore\n      0x20\n      add\n      0x01\n      dup3\n      add\n      0x00\n      swap1\n      sload\n      swap1\n      0x0100\n      exp\n      swap1\n      div\n      0xffffffffffffffffffffffffffffffffffffffff\n      and\n      0xffffffffffffffffffffffffffffffffffffffff\n      and\n      0xffffffffffffffffffffffffffffffffffffffff\n      and\n      dup2\n      mstore\n      0x20\n      add\n      0x01\n      dup3\n      add\n      0x14\n      swap1\n      sload\n      swap1\n      0x0100\n      exp\n      swap1\n      div\n      0xff\n      and\n      iszero\n      iszero\n      iszero\n      iszero\n      dup2\n      mstore\n      pop\n      pop\n      dup2\n      mstore\n      0x20\n      add\n      swap1\n      0x01\n      add\n      swap1\n      jump(tag_87)\n    tag_88:\n      pop\n      pop\n      pop\n      pop\n      swap1\n      pop\n        /* \"Contract.sol\":3247:3445  function getPostsByUser(address _userAddress)... */\n      swap2\n      swap1\n      pop\n      jump\t// out\n        /* \"Contract.sol\":9260:9464  function login(address userAddress) public view returns (bool) {... */\n    tag_29:\n        /* \"Contract.sol\":9317:9321  bool */\n      0x00\n        /* \"Contract.sol\":9367:9371  true */\n      0x01\n        /* \"Contract.sol\":9339:9371  memberExist[userAddress] == true */\n      iszero\n      iszero\n        /* \"Contract.sol\":9339:9350  memberExist */\n      0x0c\n        /* \"Contract.sol\":9339:9363  memberExist[userAddress] */\n      0x00\n        /* \"Contract.sol\":9351:9362  userAddress */\n      dup5\n        /* \"Contract.sol\":9339:9363  memberExist[userAddress] */\n      0xffffffffffffffffffffffffffffffffffffffff\n      and\n      0xffffffffffffffffffffffffffffffffffffffff\n      and\n      dup2\n      mstore\n      0x20\n      add\n      swap1\n      dup2\n      mstore\n      0x20\n      add\n      0x00\n      keccak256\n      0x00\n      swap1\n      sload\n      swap1\n      0x0100\n      exp\n      swap1\n      div\n      0xff\n      and\n        /* \"Contract.sol\":9339:9371  memberExist[userAddress] == true */\n      iszero\n      iszero\n      sub\n        /* \"Contract.sol\":9334:9457  if ((memberExist[userAddress] == true)) {... */\n      tag_96\n      jumpi\n        /* \"Contract.sol\":9396:9400  true */\n      0x01\n        /* \"Contract.sol\":9389:9400  return true */\n      swap1\n      pop\n      jump(tag_95)\n        /* \"Contract.sol\":9334:9457  if ((memberExist[userAddress] == true)) {... */\n    tag_96:\n        /* \"Contract.sol\":9440:9445  false */\n      0x00\n        /* \"Contract.sol\":9433:9445  return false */\n      swap1\n      pop\n        /* \"Contract.sol\":9260:9464  function login(address userAddress) public view returns (bool) {... */\n    tag_95:\n      swap2\n      swap1\n      pop\n      jump\t// out\n        /* \"Contract.sol\":1247:2171  function postNews(... */\n    tag_36:\n        /* \"Contract.sol\":1710:1719  _postHash */\n      dup3\n        /* \"Contract.sol\":1684:1698  instanceOfPost */\n      0x00\n        /* \"Contract.sol\":1684:1707  instanceOfPost.postHash */\n      dup1\n      add\n        /* \"Contract.sol\":1684:1719  instanceOfPost.postHash = _postHash */\n      swap1\n      dup2\n      tag_99\n      swap2\n      swap1\n      tag_100\n      jump\t// in\n    tag_99:\n      pop\n        /* \"Contract.sol\":1759:1771  _postCreator */\n      dup2\n        /* \"Contract.sol\":1730:1744  instanceOfPost */\n      0x00\n        /* \"Contract.sol\":1730:1756  instanceOfPost.postCreator */\n      0x01\n      add\n      0x00\n        /* \"Contract.sol\":1730:1771  instanceOfPost.postCreator = _postCreator */\n      0x0100\n      exp\n      dup2\n      sload\n      dup2\n      0xffffffffffffffffffffffffffffffffffffffff\n      mul\n      not\n      and\n      swap1\n      dup4\n      0xffffffffffffffffffffffffffffffffffffffff\n      and\n      mul\n      or\n      swap1\n      sstore\n      pop\n        /* \"Contract.sol\":1862:1872  _isRequest */\n      dup1\n        /* \"Contract.sol\":1835:1849  instanceOfPost */\n      0x00\n        /* \"Contract.sol\":1835:1859  instanceOfPost.isRequest */\n      0x01\n      add\n      0x14\n        /* \"Contract.sol\":1835:1872  instanceOfPost.isRequest = _isRequest */\n      0x0100\n      exp\n      dup2\n      sload\n      dup2\n      0xff\n      mul\n      not\n      and\n      swap1\n      dup4\n      iszero\n      iszero\n      mul\n      or\n      swap1\n      sstore\n      pop\n        /* \"Contract.sol\":1903:1907  true */\n      0x01\n        /* \"Contract.sol\":1889:1907  _isRequest != true */\n      iszero\n      iszero\n        /* \"Contract.sol\":1889:1899  _isRequest */\n      dup2\n        /* \"Contract.sol\":1889:1907  _isRequest != true */\n      iszero\n      iszero\n      eq\n        /* \"Contract.sol\":1885:2164  if (_isRequest != true) {... */\n      tag_101\n      jumpi\n        /* \"Contract.sol\":1924:1935  allThePosts */\n      0x02\n        /* \"Contract.sol\":1941:1955  instanceOfPost */\n      0x00\n        /* \"Contract.sol\":1924:1956  allThePosts.push(instanceOfPost) */\n      swap1\n      dup1\n      0x01\n      dup2\n      sload\n      add\n      dup1\n      dup3\n      sstore\n      dup1\n      swap2\n      pop\n      pop\n      0x01\n      swap1\n      sub\n      swap1\n      0x00\n      mstore\n      keccak256(0x00, 0x20)\n      swap1\n      0x02\n      mul\n      add\n      0x00\n      swap1\n      swap2\n      swap1\n      swap2\n      swap1\n      swap2\n      pop\n      0x00\n      dup3\n      add\n      dup2\n      0x00\n      add\n      swap1\n      dup2\n      tag_103\n      swap2\n      swap1\n      tag_104\n      jump\t// in\n    tag_103:\n      pop\n      0x01\n      dup3\n      add\n      0x00\n      swap1\n      sload\n      swap1\n      0x0100\n      exp\n      swap1\n      div\n      0xffffffffffffffffffffffffffffffffffffffff\n      and\n      dup2\n      0x01\n      add\n      exp(0x0100, 0x00)\n      dup2\n      sload\n      dup2\n      0xffffffffffffffffffffffffffffffffffffffff\n      mul\n      not\n      and\n      swap1\n      dup4\n      0xffffffffffffffffffffffffffffffffffffffff\n      and\n      mul\n      or\n      swap1\n      sstore\n      pop\n      0x01\n      dup3\n      add\n      0x14\n      swap1\n      sload\n      swap1\n      0x0100\n      exp\n      swap1\n      div\n      0xff\n      and\n      dup2\n      0x01\n      add\n      exp(0x0100, 0x14)\n      dup2\n      sload\n      dup2\n      0xff\n      mul\n      not\n      and\n      swap1\n      dup4\n      iszero\n      iszero\n      mul\n      or\n      swap1\n      sstore\n      pop\n      pop\n      pop\n        /* \"Contract.sol\":1998:2012  instanceOfPost */\n      0x00\n        /* \"Contract.sol\":1971:1981  postOfUser */\n      0x03\n        /* \"Contract.sol\":1971:1995  postOfUser[_postCreator] */\n      0x00\n        /* \"Contract.sol\":1982:1994  _postCreator */\n      dup5\n        /* \"Contract.sol\":1971:1995  postOfUser[_postCreator] */\n      0xffffffffffffffffffffffffffffffffffffffff\n      and\n      0xffffffffffffffffffffffffffffffffffffffff\n      and\n      dup2\n      mstore\n      0x20\n      add\n      swap1\n      dup2\n      mstore\n      0x20\n      add\n      0x00\n      keccak256\n        /* \"Contract.sol\":1971:2012  postOfUser[_postCreator] = instanceOfPost */\n      0x00\n      dup3\n      add\n      dup2\n      0x00\n      add\n      swap1\n      dup2\n      tag_105\n      swap2\n      swap1\n      tag_104\n      jump\t// in\n    tag_105:\n      pop\n      0x01\n      dup3\n      add\n      0x00\n      swap1\n      sload\n      swap1\n      0x0100\n      exp\n      swap1\n      div\n      0xffffffffffffffffffffffffffffffffffffffff\n      and\n      dup2\n      0x01\n      add\n      exp(0x0100, 0x00)\n      dup2\n      sload\n      dup2\n      0xffffffffffffffffffffffffffffffffffffffff\n      mul\n      not\n      and\n      swap1\n      dup4\n      0xffffffffffffffffffffffffffffffffffffffff\n      and\n      mul\n      or\n      swap1\n      sstore\n      pop\n      0x01\n      dup3\n      add\n      0x14\n      swap1\n      sload\n      swap1\n      0x0100\n      exp\n      swap1\n      div\n      0xff\n      and\n      dup2\n      0x01\n      add\n      exp(0x0100, 0x14)\n      dup2\n      sload\n      dup2\n      0xff\n      mul\n      not\n      and\n      swap1\n      dup4\n      iszero\n      iszero\n      mul\n      or\n      swap1\n      sstore\n      pop\n      swap1\n      pop\n      pop\n        /* \"Contract.sol\":1885:2164  if (_isRequest != true) {... */\n      jump(tag_106)\n    tag_101:\n        /* \"Contract.sol\":2045:2065  allTheRequestedPosts */\n      0x04\n        /* \"Contract.sol\":2071:2085  instanceOfPost */\n      0x00\n        /* \"Contract.sol\":2045:2086  allTheRequestedPosts.push(instanceOfPost) */\n      swap1\n      dup1\n      0x01\n      dup2\n      sload\n      add\n      dup1\n      dup3\n      sstore\n      dup1\n      swap2\n      pop\n      pop\n      0x01\n      swap1\n      sub\n      swap1\n      0x00\n      mstore\n      keccak256(0x00, 0x20)\n      swap1\n      0x02\n      mul\n      add\n      0x00\n      swap1\n      swap2\n      swap1\n      swap2\n      swap1\n      swap2\n      pop\n      0x00\n      dup3\n      add\n      dup2\n      0x00\n      add\n      swap1\n      dup2\n      tag_108\n      swap2\n      swap1\n      tag_104\n      jump\t// in\n    tag_108:\n      pop\n      0x01\n      dup3\n      add\n      0x00\n      swap1\n      sload\n      swap1\n      0x0100\n      exp\n      swap1\n      div\n      0xffffffffffffffffffffffffffffffffffffffff\n      and\n      dup2\n      0x01\n      add\n      exp(0x0100, 0x00)\n      dup2\n      sload\n      dup2\n      0xffffffffffffffffffffffffffffffffffffffff\n      mul\n      not\n      and\n      swap1\n      dup4\n      0xffffffffffffffffffffffffffffffffffffffff\n      and\n      mul\n      or\n      swap1\n      sstore\n      pop\n      0x01\n      dup3\n      add\n      0x14\n      swap1\n      sload\n      swap1\n      0x0100\n      exp\n      swap1\n      div\n      0xff\n      and\n      dup2\n      0x01\n      add\n      exp(0x0100, 0x14)\n      dup2\n      sload\n      dup2\n      0xff\n      mul\n      not\n      and\n      swap1\n      dup4\n      iszero\n      iszero\n      mul\n      or\n      swap1\n      sstore\n      pop\n      pop\n      pop\n        /* \"Contract.sol\":2138:2152  instanceOfPost */\n      0x00\n        /* \"Contract.sol\":2101:2121  postOfRequestingUser */\n      0x05\n        /* \"Contract.sol\":2101:2135  postOfRequestingUser[_postCreator] */\n      0x00\n        /* \"Contract.sol\":2122:2134  _postCreator */\n      dup5\n        /* \"Contract.sol\":2101:2135  postOfRequestingUser[_postCreator] */\n      0xffffffffffffffffffffffffffffffffffffffff\n      and\n      0xffffffffffffffffffffffffffffffffffffffff\n      and\n      dup2\n      mstore\n      0x20\n      add\n      swap1\n      dup2\n      mstore\n      0x20\n      add\n      0x00\n      keccak256\n        /* \"Contract.sol\":2101:2152  postOfRequestingUser[_postCreator] = instanceOfPost */\n      0x00\n      dup3\n      add\n      dup2\n      0x00\n      add\n      swap1\n      dup2\n      tag_109\n      swap2\n      swap1\n      tag_104\n      jump\t// in\n    tag_109:\n      pop\n      0x01\n      dup3\n      add\n      0x00\n      swap1\n      sload\n      swap1\n      0x0100\n      exp\n      swap1\n      div\n      0xffffffffffffffffffffffffffffffffffffffff\n      and\n      dup2\n      0x01\n      add\n      exp(0x0100, 0x00)\n      dup2\n      sload\n      dup2\n      0xffffffffffffffffffffffffffffffffffffffff\n      mul\n      not\n      and\n      swap1\n      dup4\n      0xffffffffffffffffffffffffffffffffffffffff\n      and\n      mul\n      or\n      swap1\n      sstore\n      pop\n      0x01\n      dup3\n      add\n      0x14\n      swap1\n      sload\n      swap1\n      0x0100\n      exp\n      swap1\n      div\n      0xff\n      and\n      dup2\n      0x01\n      add\n      exp(0x0100, 0x14)\n      dup2\n      sload\n      dup2\n      0xff\n      mul\n      not\n      and\n      swap1\n      dup4\n      iszero\n      iszero\n      mul\n      or\n      swap1\n      sstore\n      pop\n      swap1\n      pop\n      pop\n        /* \"Contract.sol\":1885:2164  if (_isRequest != true) {... */\n    tag_106:\n        /* \"Contract.sol\":1247:2171  function postNews(... */\n      pop\n      pop\n      pop\n      jump\t// out\n        /* \"Contract.sol\":4971:7631  function addOrRequestMember(... */\n    tag_41:\n        /* \"Contract.sol\":5253:5258  _post */\n      dup5\n        /* \"Contract.sol\":5223:5245  instanceOfMemberStruct */\n      0x10\n        /* \"Contract.sol\":5223:5250  instanceOfMemberStruct.post */\n      0x00\n      add\n        /* \"Contract.sol\":5223:5258  instanceOfMemberStruct.post = _post */\n      swap1\n      dup2\n      tag_111\n      swap2\n      swap1\n      tag_100\n      jump\t// in\n    tag_111:\n      pop\n        /* \"Contract.sol\":5299:5304  _dept */\n      dup4\n        /* \"Contract.sol\":5269:5291  instanceOfMemberStruct */\n      0x10\n        /* \"Contract.sol\":5269:5296  instanceOfMemberStruct.dept */\n      0x01\n      add\n        /* \"Contract.sol\":5269:5304  instanceOfMemberStruct.dept = _dept */\n      swap1\n      dup2\n      tag_112\n      swap2\n      swap1\n      tag_100\n      jump\t// in\n    tag_112:\n      pop\n        /* \"Contract.sol\":5345:5350  _name */\n      dup3\n        /* \"Contract.sol\":5315:5337  instanceOfMemberStruct */\n      0x10\n        /* \"Contract.sol\":5315:5342  instanceOfMemberStruct.name */\n      0x02\n      add\n        /* \"Contract.sol\":5315:5350  instanceOfMemberStruct.name = _name */\n      swap1\n      dup2\n      tag_113\n      swap2\n      swap1\n      tag_100\n      jump\t// in\n    tag_113:\n      pop\n        /* \"Contract.sol\":5398:5410  _userAddress */\n      dup2\n        /* \"Contract.sol\":5361:5383  instanceOfMemberStruct */\n      0x10\n        /* \"Contract.sol\":5361:5395  instanceOfMemberStruct.userAddress */\n      0x03\n      add\n      0x00\n        /* \"Contract.sol\":5361:5410  instanceOfMemberStruct.userAddress = _userAddress */\n      0x0100\n      exp\n      dup2\n      sload\n      dup2\n      0xffffffffffffffffffffffffffffffffffffffff\n      mul\n      not\n      and\n      swap1\n      dup4\n      0xffffffffffffffffffffffffffffffffffffffff\n      and\n      mul\n      or\n      swap1\n      sstore\n      pop\n        /* \"Contract.sol\":5502:5526  abi.encodePacked(\"DEAN\") */\n      add(0x20, mload(0x40))\n      tag_114\n      swap1\n      tag_115\n      jump\t// in\n    tag_114:\n      mload(0x40)\n      0x20\n      dup2\n      dup4\n      sub\n      sub\n      dup2\n      mstore\n      swap1\n      0x40\n      mstore\n        /* \"Contract.sol\":5492:5527  keccak256(abi.encodePacked(\"DEAN\")) */\n      dup1\n      mload\n      swap1\n      0x20\n      add\n      keccak256\n        /* \"Contract.sol\":5468:5473  _post */\n      dup6\n        /* \"Contract.sol\":5451:5474  abi.encodePacked(_post) */\n      add(0x20, mload(0x40))\n      tag_116\n      swap2\n      swap1\n      tag_117\n      jump\t// in\n    tag_116:\n      mload(0x40)\n      0x20\n      dup2\n      dup4\n      sub\n      sub\n      dup2\n      mstore\n      swap1\n      0x40\n      mstore\n        /* \"Contract.sol\":5441:5475  keccak256(abi.encodePacked(_post)) */\n      dup1\n      mload\n      swap1\n      0x20\n      add\n      keccak256\n        /* \"Contract.sol\":5441:5527  keccak256(abi.encodePacked(_post)) ==... */\n      sub\n        /* \"Contract.sol\":5423:6209  if (... */\n      tag_118\n      jumpi\n        /* \"Contract.sol\":5585:5586  1 */\n      0x01\n        /* \"Contract.sol\":5554:5576  instanceOfMemberStruct */\n      0x10\n        /* \"Contract.sol\":5554:5582  instanceOfMemberStruct.power */\n      0x04\n      add\n        /* \"Contract.sol\":5554:5586  instanceOfMemberStruct.power = 1 */\n      dup2\n      swap1\n      sstore\n      pop\n        /* \"Contract.sol\":5423:6209  if (... */\n      jump(tag_119)\n    tag_118:\n        /* \"Contract.sol\":5683:5706  abi.encodePacked(\"HOD\") */\n      add(0x20, mload(0x40))\n      tag_120\n      swap1\n      tag_121\n      jump\t// in\n    tag_120:\n      mload(0x40)\n      0x20\n      dup2\n      dup4\n      sub\n      sub\n      dup2\n      mstore\n      swap1\n      0x40\n      mstore\n        /* \"Contract.sol\":5673:5707  keccak256(abi.encodePacked(\"HOD\")) */\n      dup1\n      mload\n      swap1\n      0x20\n      add\n      keccak256\n        /* \"Contract.sol\":5649:5654  _post */\n      dup6\n        /* \"Contract.sol\":5632:5655  abi.encodePacked(_post) */\n      add(0x20, mload(0x40))\n      tag_122\n      swap2\n      swap1\n      tag_117\n      jump\t// in\n    tag_122:\n      mload(0x40)\n      0x20\n      dup2\n      dup4\n      sub\n      sub\n      dup2\n      mstore\n      swap1\n      0x40\n      mstore\n        /* \"Contract.sol\":5622:5656  keccak256(abi.encodePacked(_post)) */\n      dup1\n      mload\n      swap1\n      0x20\n      add\n      keccak256\n        /* \"Contract.sol\":5622:5707  keccak256(abi.encodePacked(_post)) ==... */\n      sub\n        /* \"Contract.sol\":5604:6209  if (... */\n      tag_123\n      jumpi\n        /* \"Contract.sol\":5765:5766  2 */\n      0x02\n        /* \"Contract.sol\":5734:5756  instanceOfMemberStruct */\n      0x10\n        /* \"Contract.sol\":5734:5762  instanceOfMemberStruct.power */\n      0x04\n      add\n        /* \"Contract.sol\":5734:5766  instanceOfMemberStruct.power = 2 */\n      dup2\n      swap1\n      sstore\n      pop\n        /* \"Contract.sol\":5604:6209  if (... */\n      jump(tag_124)\n    tag_123:\n        /* \"Contract.sol\":5863:5888  abi.encodePacked(\"STAFF\") */\n      add(0x20, mload(0x40))\n      tag_125\n      swap1\n      tag_126\n      jump\t// in\n    tag_125:\n      mload(0x40)\n      0x20\n      dup2\n      dup4\n      sub\n      sub\n      dup2\n      mstore\n      swap1\n      0x40\n      mstore\n        /* \"Contract.sol\":5853:5889  keccak256(abi.encodePacked(\"STAFF\")) */\n      dup1\n      mload\n      swap1\n      0x20\n      add\n      keccak256\n        /* \"Contract.sol\":5829:5834  _post */\n      dup6\n        /* \"Contract.sol\":5812:5835  abi.encodePacked(_post) */\n      add(0x20, mload(0x40))\n      tag_127\n      swap2\n      swap1\n      tag_117\n      jump\t// in\n    tag_127:\n      mload(0x40)\n      0x20\n      dup2\n      dup4\n      sub\n      sub\n      dup2\n      mstore\n      swap1\n      0x40\n      mstore\n        /* \"Contract.sol\":5802:5836  keccak256(abi.encodePacked(_post)) */\n      dup1\n      mload\n      swap1\n      0x20\n      add\n      keccak256\n        /* \"Contract.sol\":5802:5889  keccak256(abi.encodePacked(_post)) ==... */\n      sub\n        /* \"Contract.sol\":5784:6209  if (... */\n      tag_128\n      jumpi\n        /* \"Contract.sol\":5947:5948  3 */\n      0x03\n        /* \"Contract.sol\":5916:5938  instanceOfMemberStruct */\n      0x10\n        /* \"Contract.sol\":5916:5944  instanceOfMemberStruct.power */\n      0x04\n      add\n        /* \"Contract.sol\":5916:5948  instanceOfMemberStruct.power = 3 */\n      dup2\n      swap1\n      sstore\n      pop\n        /* \"Contract.sol\":5784:6209  if (... */\n      jump(tag_129)\n    tag_128:\n        /* \"Contract.sol\":6045:6072  abi.encodePacked(\"STUDENT\") */\n      add(0x20, mload(0x40))\n      tag_130\n      swap1\n      tag_131\n      jump\t// in\n    tag_130:\n      mload(0x40)\n      0x20\n      dup2\n      dup4\n      sub\n      sub\n      dup2\n      mstore\n      swap1\n      0x40\n      mstore\n        /* \"Contract.sol\":6035:6073  keccak256(abi.encodePacked(\"STUDENT\")) */\n      dup1\n      mload\n      swap1\n      0x20\n      add\n      keccak256\n        /* \"Contract.sol\":6011:6016  _post */\n      dup6\n        /* \"Contract.sol\":5994:6017  abi.encodePacked(_post) */\n      add(0x20, mload(0x40))\n      tag_132\n      swap2\n      swap1\n      tag_117\n      jump\t// in\n    tag_132:\n      mload(0x40)\n      0x20\n      dup2\n      dup4\n      sub\n      sub\n      dup2\n      mstore\n      swap1\n      0x40\n      mstore\n        /* \"Contract.sol\":5984:6018  keccak256(abi.encodePacked(_post)) */\n      dup1\n      mload\n      swap1\n      0x20\n      add\n      keccak256\n        /* \"Contract.sol\":5984:6073  keccak256(abi.encodePacked(_post)) ==... */\n      sub\n        /* \"Contract.sol\":5966:6209  if (... */\n      tag_133\n      jumpi\n        /* \"Contract.sol\":6131:6132  4 */\n      0x04\n        /* \"Contract.sol\":6100:6122  instanceOfMemberStruct */\n      0x10\n        /* \"Contract.sol\":6100:6128  instanceOfMemberStruct.power */\n      0x04\n      add\n        /* \"Contract.sol\":6100:6132  instanceOfMemberStruct.power = 4 */\n      dup2\n      swap1\n      sstore\n      pop\n        /* \"Contract.sol\":5966:6209  if (... */\n      jump(tag_134)\n    tag_133:\n        /* \"Contract.sol\":6196:6197  5 */\n      0x05\n        /* \"Contract.sol\":6165:6187  instanceOfMemberStruct */\n      0x10\n        /* \"Contract.sol\":6165:6193  instanceOfMemberStruct.power */\n      0x04\n      add\n        /* \"Contract.sol\":6165:6197  instanceOfMemberStruct.power = 5 */\n      dup2\n      swap1\n      sstore\n      pop\n        /* \"Contract.sol\":5966:6209  if (... */\n    tag_134:\n        /* \"Contract.sol\":5784:6209  if (... */\n    tag_129:\n        /* \"Contract.sol\":5604:6209  if (... */\n    tag_124:\n        /* \"Contract.sol\":5423:6209  if (... */\n    tag_119:\n        /* \"Contract.sol\":6276:6280  true */\n      0x01\n        /* \"Contract.sol\":6265:6280  request == true */\n      iszero\n      iszero\n        /* \"Contract.sol\":6265:6272  request */\n      dup2\n        /* \"Contract.sol\":6265:6280  request == true */\n      iszero\n      iszero\n      eq\n        /* \"Contract.sol\":6265:6383  request == true &&... */\n      dup1\n      iszero\n      tag_135\n      jumpi\n      pop\n        /* \"Contract.sol\":6358:6382  abi.encodePacked(\"DEAN\") */\n      add(0x20, mload(0x40))\n      tag_136\n      swap1\n      tag_115\n      jump\t// in\n    tag_136:\n      mload(0x40)\n      0x20\n      dup2\n      dup4\n      sub\n      sub\n      dup2\n      mstore\n      swap1\n      0x40\n      mstore\n        /* \"Contract.sol\":6348:6383  keccak256(abi.encodePacked(\"DEAN\")) */\n      dup1\n      mload\n      swap1\n      0x20\n      add\n      keccak256\n        /* \"Contract.sol\":6324:6329  _post */\n      dup6\n        /* \"Contract.sol\":6307:6330  abi.encodePacked(_post) */\n      add(0x20, mload(0x40))\n      tag_137\n      swap2\n      swap1\n      tag_117\n      jump\t// in\n    tag_137:\n      mload(0x40)\n      0x20\n      dup2\n      dup4\n      sub\n      sub\n      dup2\n      mstore\n      swap1\n      0x40\n      mstore\n        /* \"Contract.sol\":6297:6331  keccak256(abi.encodePacked(_post)) */\n      dup1\n      mload\n      swap1\n      0x20\n      add\n      keccak256\n        /* \"Contract.sol\":6297:6383  keccak256(abi.encodePacked(_post)) !=... */\n      eq\n      iszero\n        /* \"Contract.sol\":6265:6383  request == true &&... */\n    tag_135:\n        /* \"Contract.sol\":6247:7624  if (... */\n      iszero\n      tag_138\n      jumpi\n        /* \"Contract.sol\":6492:6497  false */\n      0x00\n        /* \"Contract.sol\":6459:6497  memberRequested[_userAddress] == false */\n      iszero\n      iszero\n        /* \"Contract.sol\":6459:6474  memberRequested */\n      0x0f\n        /* \"Contract.sol\":6459:6488  memberRequested[_userAddress] */\n      0x00\n        /* \"Contract.sol\":6475:6487  _userAddress */\n      dup5\n        /* \"Contract.sol\":6459:6488  memberRequested[_userAddress] */\n      0xffffffffffffffffffffffffffffffffffffffff\n      and\n      0xffffffffffffffffffffffffffffffffffffffff\n      and\n      dup2\n      mstore\n      0x20\n      add\n      swap1\n      dup2\n      mstore\n      0x20\n      add\n      0x00\n      keccak256\n      0x00\n      swap1\n      sload\n      swap1\n      0x0100\n      exp\n      swap1\n      div\n      0xff\n      and\n        /* \"Contract.sol\":6459:6497  memberRequested[_userAddress] == false */\n      iszero\n      iszero\n      eq\n        /* \"Contract.sol\":6451:6518  require(memberRequested[_userAddress] == false, \"Member Requested\") */\n      tag_139\n      jumpi\n      mload(0x40)\n      0x08c379a000000000000000000000000000000000000000000000000000000000\n      dup2\n      mstore\n      0x04\n      add\n      tag_140\n      swap1\n      tag_141\n      jump\t// in\n    tag_140:\n      mload(0x40)\n      dup1\n      swap2\n      sub\n      swap1\n      revert\n    tag_139:\n        /* \"Contract.sol\":6570:6575  false */\n      0x00\n        /* \"Contract.sol\":6541:6575  memberExist[_userAddress] == false */\n      iszero\n      iszero\n        /* \"Contract.sol\":6541:6552  memberExist */\n      0x0c\n        /* \"Contract.sol\":6541:6566  memberExist[_userAddress] */\n      0x00\n        /* \"Contract.sol\":6553:6565  _userAddress */\n      dup5\n        /* \"Contract.sol\":6541:6566  memberExist[_userAddress] */\n      0xffffffffffffffffffffffffffffffffffffffff\n      and\n      0xffffffffffffffffffffffffffffffffffffffff\n      and\n      dup2\n      mstore\n      0x20\n      add\n      swap1\n      dup2\n      mstore\n      0x20\n      add\n      0x00\n      keccak256\n      0x00\n      swap1\n      sload\n      swap1\n      0x0100\n      exp\n      swap1\n      div\n      0xff\n      and\n        /* \"Contract.sol\":6541:6575  memberExist[_userAddress] == false */\n      iszero\n      iszero\n      eq\n        /* \"Contract.sol\":6533:6592  require(memberExist[_userAddress] == false, \"Member Exist\") */\n      tag_142\n      jumpi\n      mload(0x40)\n      0x08c379a000000000000000000000000000000000000000000000000000000000\n      dup2\n      mstore\n      0x04\n      add\n      tag_143\n      swap1\n      tag_144\n      jump\t// in\n    tag_143:\n      mload(0x40)\n      dup1\n      swap2\n      sub\n      swap1\n      revert\n    tag_142:\n        /* \"Contract.sol\":6671:6694  arrayOfRequestedMembers */\n      0x0e\n        /* \"Contract.sol\":6700:6722  instanceOfMemberStruct */\n      0x10\n        /* \"Contract.sol\":6671:6723  arrayOfRequestedMembers.push(instanceOfMemberStruct) */\n      swap1\n      dup1\n      0x01\n      dup2\n      sload\n      add\n      dup1\n      dup3\n      sstore\n      dup1\n      swap2\n      pop\n      pop\n      0x01\n      swap1\n      sub\n      swap1\n      0x00\n      mstore\n      keccak256(0x00, 0x20)\n      swap1\n      0x06\n      mul\n      add\n      0x00\n      swap1\n      swap2\n      swap1\n      swap2\n      swap1\n      swap2\n      pop\n      0x00\n      dup3\n      add\n      dup2\n      0x00\n      add\n      swap1\n      dup2\n      tag_146\n      swap2\n      swap1\n      tag_104\n      jump\t// in\n    tag_146:\n      pop\n      0x01\n      dup3\n      add\n      dup2\n      0x01\n      add\n      swap1\n      dup2\n      tag_147\n      swap2\n      swap1\n      tag_104\n      jump\t// in\n    tag_147:\n      pop\n      0x02\n      dup3\n      add\n      dup2\n      0x02\n      add\n      swap1\n      dup2\n      tag_148\n      swap2\n      swap1\n      tag_104\n      jump\t// in\n    tag_148:\n      pop\n      0x03\n      dup3\n      add\n      0x00\n      swap1\n      sload\n      swap1\n      0x0100\n      exp\n      swap1\n      div\n      0xffffffffffffffffffffffffffffffffffffffff\n      and\n      dup2\n      0x03\n      add\n      exp(0x0100, 0x00)\n      dup2\n      sload\n      dup2\n      0xffffffffffffffffffffffffffffffffffffffff\n      mul\n      not\n      and\n      swap1\n      dup4\n      0xffffffffffffffffffffffffffffffffffffffff\n      and\n      mul\n      or\n      swap1\n      sstore\n      pop\n      0x04\n      dup3\n      add\n      sload\n      dup2\n      0x04\n      add\n      sstore\n      0x05\n      dup3\n      add\n      dup2\n      0x05\n      add\n      swap1\n      dup1\n      sload\n      tag_149\n      swap3\n      swap2\n      swap1\n      tag_150\n      jump\t// in\n    tag_149:\n      pop\n      pop\n      pop\n        /* \"Contract.sol\":6816:6838  instanceOfMemberStruct */\n      0x10\n        /* \"Contract.sol\":6738:6767  getRequestedMemberWithAddress */\n      0x0d\n        /* \"Contract.sol\":6738:6813  getRequestedMemberWithAddress[... */\n      0x00\n        /* \"Contract.sol\":6786:6798  _userAddress */\n      dup5\n        /* \"Contract.sol\":6738:6813  getRequestedMemberWithAddress[... */\n      0xffffffffffffffffffffffffffffffffffffffff\n      and\n      0xffffffffffffffffffffffffffffffffffffffff\n      and\n      dup2\n      mstore\n      0x20\n      add\n      swap1\n      dup2\n      mstore\n      0x20\n      add\n      0x00\n      keccak256\n        /* \"Contract.sol\":6738:6838  getRequestedMemberWithAddress[... */\n      0x00\n      dup3\n      add\n      dup2\n      0x00\n      add\n      swap1\n      dup2\n      tag_151\n      swap2\n      swap1\n      tag_104\n      jump\t// in\n    tag_151:\n      pop\n      0x01\n      dup3\n      add\n      dup2\n      0x01\n      add\n      swap1\n      dup2\n      tag_152\n      swap2\n      swap1\n      tag_104\n      jump\t// in\n    tag_152:\n      pop\n      0x02\n      dup3\n      add\n      dup2\n      0x02\n      add\n      swap1\n      dup2\n      tag_153\n      swap2\n      swap1\n      tag_104\n      jump\t// in\n    tag_153:\n      pop\n      0x03\n      dup3\n      add\n      0x00\n      swap1\n      sload\n      swap1\n      0x0100\n      exp\n      swap1\n      div\n      0xffffffffffffffffffffffffffffffffffffffff\n      and\n      dup2\n      0x03\n      add\n      exp(0x0100, 0x00)\n      dup2\n      sload\n      dup2\n      0xffffffffffffffffffffffffffffffffffffffff\n      mul\n      not\n      and\n      swap1\n      dup4\n      0xffffffffffffffffffffffffffffffffffffffff\n      and\n      mul\n      or\n      swap1\n      sstore\n      pop\n      0x04\n      dup3\n      add\n      sload\n      dup2\n      0x04\n      add\n      sstore\n      0x05\n      dup3\n      add\n      dup2\n      0x05\n      add\n      swap1\n      dup1\n      sload\n      tag_154\n      swap3\n      swap2\n      swap1\n      tag_150\n      jump\t// in\n    tag_154:\n      pop\n      swap1\n      pop\n      pop\n        /* \"Contract.sol\":6885:6889  true */\n      0x01\n        /* \"Contract.sol\":6853:6868  memberRequested */\n      0x0f\n        /* \"Contract.sol\":6853:6882  memberRequested[_userAddress] */\n      0x00\n        /* \"Contract.sol\":6869:6881  _userAddress */\n      dup5\n        /* \"Contract.sol\":6853:6882  memberRequested[_userAddress] */\n      0xffffffffffffffffffffffffffffffffffffffff\n      and\n      0xffffffffffffffffffffffffffffffffffffffff\n      and\n      dup2\n      mstore\n      0x20\n      add\n      swap1\n      dup2\n      mstore\n      0x20\n      add\n      0x00\n      keccak256\n      0x00\n        /* \"Contract.sol\":6853:6889  memberRequested[_userAddress] = true */\n      0x0100\n      exp\n      dup2\n      sload\n      dup2\n      0xff\n      mul\n      not\n      and\n      swap1\n      dup4\n      iszero\n      iszero\n      mul\n      or\n      swap1\n      sstore\n      pop\n        /* \"Contract.sol\":6247:7624  if (... */\n      jump(tag_155)\n    tag_138:\n        /* \"Contract.sol\":7038:7062  abi.encodePacked(\"DEAN\") */\n      add(0x20, mload(0x40))\n      tag_156\n      swap1\n      tag_115\n      jump\t// in\n    tag_156:\n      mload(0x40)\n      0x20\n      dup2\n      dup4\n      sub\n      sub\n      dup2\n      mstore\n      swap1\n      0x40\n      mstore\n        /* \"Contract.sol\":7028:7063  keccak256(abi.encodePacked(\"DEAN\")) */\n      dup1\n      mload\n      swap1\n      0x20\n      add\n      keccak256\n        /* \"Contract.sol\":7000:7005  _post */\n      dup6\n        /* \"Contract.sol\":6983:7006  abi.encodePacked(_post) */\n      add(0x20, mload(0x40))\n      tag_157\n      swap2\n      swap1\n      tag_117\n      jump\t// in\n    tag_157:\n      mload(0x40)\n      0x20\n      dup2\n      dup4\n      sub\n      sub\n      dup2\n      mstore\n      swap1\n      0x40\n      mstore\n        /* \"Contract.sol\":6973:7007  keccak256(abi.encodePacked(_post)) */\n      dup1\n      mload\n      swap1\n      0x20\n      add\n      keccak256\n        /* \"Contract.sol\":6973:7063  keccak256(abi.encodePacked(_post)) !=... */\n      eq\n        /* \"Contract.sol\":6951:7295  if (... */\n      tag_158\n      jumpi\n        /* \"Contract.sol\":7206:7210  true */\n      0x01\n        /* \"Contract.sol\":7173:7210  memberRequested[_userAddress] == true */\n      iszero\n      iszero\n        /* \"Contract.sol\":7173:7188  memberRequested */\n      0x0f\n        /* \"Contract.sol\":7173:7202  memberRequested[_userAddress] */\n      0x00\n        /* \"Contract.sol\":7189:7201  _userAddress */\n      dup5\n        /* \"Contract.sol\":7173:7202  memberRequested[_userAddress] */\n      0xffffffffffffffffffffffffffffffffffffffff\n      and\n      0xffffffffffffffffffffffffffffffffffffffff\n      and\n      dup2\n      mstore\n      0x20\n      add\n      swap1\n      dup2\n      mstore\n      0x20\n      add\n      0x00\n      keccak256\n      0x00\n      swap1\n      sload\n      swap1\n      0x0100\n      exp\n      swap1\n      div\n      0xff\n      and\n        /* \"Contract.sol\":7173:7210  memberRequested[_userAddress] == true */\n      iszero\n      iszero\n      eq\n        /* \"Contract.sol\":7143:7279  require(... */\n      tag_159\n      jumpi\n      mload(0x40)\n      0x08c379a000000000000000000000000000000000000000000000000000000000\n      dup2\n      mstore\n      0x04\n      add\n      tag_160\n      swap1\n      tag_161\n      jump\t// in\n    tag_160:\n      mload(0x40)\n      dup1\n      swap2\n      sub\n      swap1\n      revert\n    tag_159:\n        /* \"Contract.sol\":6951:7295  if (... */\n    tag_158:\n        /* \"Contract.sol\":7348:7353  false */\n      0x00\n        /* \"Contract.sol\":7319:7353  memberExist[_userAddress] == false */\n      iszero\n      iszero\n        /* \"Contract.sol\":7319:7330  memberExist */\n      0x0c\n        /* \"Contract.sol\":7319:7344  memberExist[_userAddress] */\n      0x00\n        /* \"Contract.sol\":7331:7343  _userAddress */\n      dup5\n        /* \"Contract.sol\":7319:7344  memberExist[_userAddress] */\n      0xffffffffffffffffffffffffffffffffffffffff\n      and\n      0xffffffffffffffffffffffffffffffffffffffff\n      and\n      dup2\n      mstore\n      0x20\n      add\n      swap1\n      dup2\n      mstore\n      0x20\n      add\n      0x00\n      keccak256\n      0x00\n      swap1\n      sload\n      swap1\n      0x0100\n      exp\n      swap1\n      div\n      0xff\n      and\n        /* \"Contract.sol\":7319:7353  memberExist[_userAddress] == false */\n      iszero\n      iszero\n      eq\n        /* \"Contract.sol\":7311:7370  require(memberExist[_userAddress] == false, \"Member Exist\") */\n      tag_162\n      jumpi\n      mload(0x40)\n      0x08c379a000000000000000000000000000000000000000000000000000000000\n      dup2\n      mstore\n      0x04\n      add\n      tag_163\n      swap1\n      tag_144\n      jump\t// in\n    tag_163:\n      mload(0x40)\n      dup1\n      swap2\n      sub\n      swap1\n      revert\n    tag_162:\n        /* \"Contract.sol\":7448:7462  arrayOfMembers */\n      0x0b\n        /* \"Contract.sol\":7468:7490  instanceOfMemberStruct */\n      0x10\n        /* \"Contract.sol\":7448:7491  arrayOfMembers.push(instanceOfMemberStruct) */\n      swap1\n      dup1\n      0x01\n      dup2\n      sload\n      add\n      dup1\n      dup3\n      sstore\n      dup1\n      swap2\n      pop\n      pop\n      0x01\n      swap1\n      sub\n      swap1\n      0x00\n      mstore\n      keccak256(0x00, 0x20)\n      swap1\n      0x06\n      mul\n      add\n      0x00\n      swap1\n      swap2\n      swap1\n      swap2\n      swap1\n      swap2\n      pop\n      0x00\n      dup3\n      add\n      dup2\n      0x00\n      add\n      swap1\n      dup2\n      tag_165\n      swap2\n      swap1\n      tag_104\n      jump\t// in\n    tag_165:\n      pop\n      0x01\n      dup3\n      add\n      dup2\n      0x01\n      add\n      swap1\n      dup2\n      tag_166\n      swap2\n      swap1\n      tag_104\n      jump\t// in\n    tag_166:\n      pop\n      0x02\n      dup3\n      add\n      dup2\n      0x02\n      add\n      swap1\n      dup2\n      tag_167\n      swap2\n      swap1\n      tag_104\n      jump\t// in\n    tag_167:\n      pop\n      0x03\n      dup3\n      add\n      0x00\n      swap1\n      sload\n      swap1\n      0x0100\n      exp\n      swap1\n      div\n      0xffffffffffffffffffffffffffffffffffffffff\n      and\n      dup2\n      0x03\n      add\n      exp(0x0100, 0x00)\n      dup2\n      sload\n      dup2\n      0xffffffffffffffffffffffffffffffffffffffff\n      mul\n      not\n      and\n      swap1\n      dup4\n      0xffffffffffffffffffffffffffffffffffffffff\n      and\n      mul\n      or\n      swap1\n      sstore\n      pop\n      0x04\n      dup3\n      add\n      sload\n      dup2\n      0x04\n      add\n      sstore\n      0x05\n      dup3\n      add\n      dup2\n      0x05\n      add\n      swap1\n      dup1\n      sload\n      tag_168\n      swap3\n      swap2\n      swap1\n      tag_150\n      jump\t// in\n    tag_168:\n      pop\n      pop\n      pop\n        /* \"Contract.sol\":7543:7565  instanceOfMemberStruct */\n      0x10\n        /* \"Contract.sol\":7506:7526  getMemberWithAddress */\n      0x0a\n        /* \"Contract.sol\":7506:7540  getMemberWithAddress[_userAddress] */\n      0x00\n        /* \"Contract.sol\":7527:7539  _userAddress */\n      dup5\n        /* \"Contract.sol\":7506:7540  getMemberWithAddress[_userAddress] */\n      0xffffffffffffffffffffffffffffffffffffffff\n      and\n      0xffffffffffffffffffffffffffffffffffffffff\n      and\n      dup2\n      mstore\n      0x20\n      add\n      swap1\n      dup2\n      mstore\n      0x20\n      add\n      0x00\n      keccak256\n        /* \"Contract.sol\":7506:7565  getMemberWithAddress[_userAddress] = instanceOfMemberStruct */\n      0x00\n      dup3\n      add\n      dup2\n      0x00\n      add\n      swap1\n      dup2\n      tag_169\n      swap2\n      swap1\n      tag_104\n      jump\t// in\n    tag_169:\n      pop\n      0x01\n      dup3\n      add\n      dup2\n      0x01\n      add\n      swap1\n      dup2\n      tag_170\n      swap2\n      swap1\n      tag_104\n      jump\t// in\n    tag_170:\n      pop\n      0x02\n      dup3\n      add\n      dup2\n      0x02\n      add\n      swap1\n      dup2\n      tag_171\n      swap2\n      swap1\n      tag_104\n      jump\t// in\n    tag_171:\n      pop\n      0x03\n      dup3\n      add\n      0x00\n      swap1\n      sload\n      swap1\n      0x0100\n      exp\n      swap1\n      div\n      0xffffffffffffffffffffffffffffffffffffffff\n      and\n      dup2\n      0x03\n      add\n      exp(0x0100, 0x00)\n      dup2\n      sload\n      dup2\n      0xffffffffffffffffffffffffffffffffffffffff\n      mul\n      not\n      and\n      swap1\n      dup4\n      0xffffffffffffffffffffffffffffffffffffffff\n      and\n      mul\n      or\n      swap1\n      sstore\n      pop\n      0x04\n      dup3\n      add\n      sload\n      dup2\n      0x04\n      add\n      sstore\n      0x05\n      dup3\n      add\n      dup2\n      0x05\n      add\n      swap1\n      dup1\n      sload\n      tag_172\n      swap3\n      swap2\n      swap1\n      tag_150\n      jump\t// in\n    tag_172:\n      pop\n      swap1\n      pop\n      pop\n        /* \"Contract.sol\":7608:7612  true */\n      0x01\n        /* \"Contract.sol\":7580:7591  memberExist */\n      0x0c\n        /* \"Contract.sol\":7580:7605  memberExist[_userAddress] */\n      0x00\n        /* \"Contract.sol\":7592:7604  _userAddress */\n      dup5\n        /* \"Contract.sol\":7580:7605  memberExist[_userAddress] */\n      0xffffffffffffffffffffffffffffffffffffffff\n      and\n      0xffffffffffffffffffffffffffffffffffffffff\n      and\n      dup2\n      mstore\n      0x20\n      add\n      swap1\n      dup2\n      mstore\n      0x20\n      add\n      0x00\n      keccak256\n      0x00\n        /* \"Contract.sol\":7580:7612  memberExist[_userAddress] = true */\n      0x0100\n      exp\n      dup2\n      sload\n      dup2\n      0xff\n      mul\n      not\n      and\n      swap1\n      dup4\n      iszero\n      iszero\n      mul\n      or\n      swap1\n      sstore\n      pop\n        /* \"Contract.sol\":6247:7624  if (... */\n    tag_155:\n        /* \"Contract.sol\":4971:7631  function addOrRequestMember(... */\n      pop\n      pop\n      pop\n      pop\n      pop\n      jump\t// out\n        /* \"Contract.sol\":2449:3239  function approvePost(address _requestedBy, address _approvedBy) public {... */\n    tag_46:\n        /* \"Contract.sol\":2557:2582  PostStructure memory post */\n      0x00\n        /* \"Contract.sol\":2585:2605  postOfRequestingUser */\n      0x05\n        /* \"Contract.sol\":2585:2619  postOfRequestingUser[_requestedBy] */\n      0x00\n        /* \"Contract.sol\":2606:2618  _requestedBy */\n      dup5\n        /* \"Contract.sol\":2585:2619  postOfRequestingUser[_requestedBy] */\n      0xffffffffffffffffffffffffffffffffffffffff\n      and\n      0xffffffffffffffffffffffffffffffffffffffff\n      and\n      dup2\n      mstore\n      0x20\n      add\n      swap1\n      dup2\n      mstore\n      0x20\n      add\n      0x00\n      keccak256\n        /* \"Contract.sol\":2557:2619  PostStructure memory post = postOfRequestingUser[_requestedBy] */\n      mload(0x40)\n      dup1\n      0x60\n      add\n      0x40\n      mstore\n      swap1\n      dup2\n      0x00\n      dup3\n      add\n      dup1\n      sload\n      tag_174\n      swap1\n      tag_72\n      jump\t// in\n    tag_174:\n      dup1\n      0x1f\n      add\n      0x20\n      dup1\n      swap2\n      div\n      mul\n      0x20\n      add\n      mload(0x40)\n      swap1\n      dup2\n      add\n      0x40\n      mstore\n      dup1\n      swap3\n      swap2\n      swap1\n      dup2\n      dup2\n      mstore\n      0x20\n      add\n      dup3\n      dup1\n      sload\n      tag_175\n      swap1\n      tag_72\n      jump\t// in\n    tag_175:\n      dup1\n      iszero\n      tag_176\n      jumpi\n      dup1\n      0x1f\n      lt\n      tag_177\n      jumpi\n      0x0100\n      dup1\n      dup4\n      sload\n      div\n      mul\n      dup4\n      mstore\n      swap2\n      0x20\n      add\n      swap2\n      jump(tag_176)\n    tag_177:\n      dup3\n      add\n      swap2\n      swap1\n      0x00\n      mstore\n      keccak256(0x00, 0x20)\n      swap1\n    tag_178:\n      dup2\n      sload\n      dup2\n      mstore\n      swap1\n      0x01\n      add\n      swap1\n      0x20\n      add\n      dup1\n      dup4\n      gt\n      tag_178\n      jumpi\n      dup3\n      swap1\n      sub\n      0x1f\n      and\n      dup3\n      add\n      swap2\n    tag_176:\n      pop\n      pop\n      pop\n      pop\n      pop\n      dup2\n      mstore\n      0x20\n      add\n      0x01\n      dup3\n      add\n      0x00\n      swap1\n      sload\n      swap1\n      0x0100\n      exp\n      swap1\n      div\n      0xffffffffffffffffffffffffffffffffffffffff\n      and\n      0xffffffffffffffffffffffffffffffffffffffff\n      and\n      0xffffffffffffffffffffffffffffffffffffffff\n      and\n      dup2\n      mstore\n      0x20\n      add\n      0x01\n      dup3\n      add\n      0x14\n      swap1\n      sload\n      swap1\n      0x0100\n      exp\n      swap1\n      div\n      0xff\n      and\n      iszero\n      iszero\n      iszero\n      iszero\n      dup2\n      mstore\n      pop\n      pop\n      swap1\n      pop\n        /* \"Contract.sol\":2689:2716  uint256 requestingUserPower */\n      0x00\n        /* \"Contract.sol\":2719:2748  getRequestedMemberWithAddress */\n      0x0d\n        /* \"Contract.sol\":2719:2786  getRequestedMemberWithAddress[... */\n      0x00\n        /* \"Contract.sol\":2763:2775  _requestedBy */\n      dup6\n        /* \"Contract.sol\":2719:2786  getRequestedMemberWithAddress[... */\n      0xffffffffffffffffffffffffffffffffffffffff\n      and\n      0xffffffffffffffffffffffffffffffffffffffff\n      and\n      dup2\n      mstore\n      0x20\n      add\n      swap1\n      dup2\n      mstore\n      0x20\n      add\n      0x00\n      keccak256\n        /* \"Contract.sol\":2719:2792  getRequestedMemberWithAddress[... */\n      0x04\n      add\n      sload\n        /* \"Contract.sol\":2689:2792  uint256 requestingUserPower = getRequestedMemberWithAddress[... */\n      swap1\n      pop\n        /* \"Contract.sol\":2803:2829  uint256 approvongUserPower */\n      0x00\n        /* \"Contract.sol\":2832:2852  getMemberWithAddress */\n      0x0a\n        /* \"Contract.sol\":2832:2865  getMemberWithAddress[_approvedBy] */\n      0x00\n        /* \"Contract.sol\":2853:2864  _approvedBy */\n      dup6\n        /* \"Contract.sol\":2832:2865  getMemberWithAddress[_approvedBy] */\n      0xffffffffffffffffffffffffffffffffffffffff\n      and\n      0xffffffffffffffffffffffffffffffffffffffff\n      and\n      dup2\n      mstore\n      0x20\n      add\n      swap1\n      dup2\n      mstore\n      0x20\n      add\n      0x00\n      keccak256\n        /* \"Contract.sol\":2832:2871  getMemberWithAddress[_approvedBy].power */\n      0x04\n      add\n      sload\n        /* \"Contract.sol\":2803:2871  uint256 approvongUserPower = getMemberWithAddress[_approvedBy].power */\n      swap1\n      pop\n        /* \"Contract.sol\":2927:2946  requestingUserPower */\n      dup2\n        /* \"Contract.sol\":2906:2924  approvongUserPower */\n      dup2\n        /* \"Contract.sol\":2906:2946  approvongUserPower < requestingUserPower */\n      lt\n        /* \"Contract.sol\":2884:3024  require(... */\n      tag_179\n      jumpi\n      mload(0x40)\n      0x08c379a000000000000000000000000000000000000000000000000000000000\n      dup2\n      mstore\n      0x04\n      add\n      tag_180\n      swap1\n      tag_181\n      jump\t// in\n    tag_180:\n      mload(0x40)\n      dup1\n      swap2\n      sub\n      swap1\n      revert\n    tag_179:\n        /* \"Contract.sol\":3074:3085  allThePosts */\n      0x02\n        /* \"Contract.sol\":3091:3095  post */\n      dup4\n        /* \"Contract.sol\":3074:3096  allThePosts.push(post) */\n      swap1\n      dup1\n      0x01\n      dup2\n      sload\n      add\n      dup1\n      dup3\n      sstore\n      dup1\n      swap2\n      pop\n      pop\n      0x01\n      swap1\n      sub\n      swap1\n      0x00\n      mstore\n      keccak256(0x00, 0x20)\n      swap1\n      0x02\n      mul\n      add\n      0x00\n      swap1\n      swap2\n      swap1\n      swap2\n      swap1\n      swap2\n      pop\n      0x00\n      dup3\n      add\n      mload\n      dup2\n      0x00\n      add\n      swap1\n      dup2\n      tag_183\n      swap2\n      swap1\n      tag_100\n      jump\t// in\n    tag_183:\n      pop\n      0x20\n      dup3\n      add\n      mload\n      dup2\n      0x01\n      add\n      exp(0x0100, 0x00)\n      dup2\n      sload\n      dup2\n      0xffffffffffffffffffffffffffffffffffffffff\n      mul\n      not\n      and\n      swap1\n      dup4\n      0xffffffffffffffffffffffffffffffffffffffff\n      and\n      mul\n      or\n      swap1\n      sstore\n      pop\n      0x40\n      dup3\n      add\n      mload\n      dup2\n      0x01\n      add\n      exp(0x0100, 0x14)\n      dup2\n      sload\n      dup2\n      0xff\n      mul\n      not\n      and\n      swap1\n      dup4\n      iszero\n      iszero\n      mul\n      or\n      swap1\n      sstore\n      pop\n      pop\n      pop\n        /* \"Contract.sol\":3182:3186  post */\n      dup3\n        /* \"Contract.sol\":3155:3165  postOfUser */\n      0x03\n        /* \"Contract.sol\":3155:3179  postOfUser[_requestedBy] */\n      0x00\n        /* \"Contract.sol\":3166:3178  _requestedBy */\n      dup8\n        /* \"Contract.sol\":3155:3179  postOfUser[_requestedBy] */\n      0xffffffffffffffffffffffffffffffffffffffff\n      and\n      0xffffffffffffffffffffffffffffffffffffffff\n      and\n      dup2\n      mstore\n      0x20\n      add\n      swap1\n      dup2\n      mstore\n      0x20\n      add\n      0x00\n      keccak256\n        /* \"Contract.sol\":3155:3186  postOfUser[_requestedBy] = post */\n      0x00\n      dup3\n      add\n      mload\n      dup2\n      0x00\n      add\n      swap1\n      dup2\n      tag_184\n      swap2\n      swap1\n      tag_100\n      jump\t// in\n    tag_184:\n      pop\n      0x20\n      dup3\n      add\n      mload\n      dup2\n      0x01\n      add\n      exp(0x0100, 0x00)\n      dup2\n      sload\n      dup2\n      0xffffffffffffffffffffffffffffffffffffffff\n      mul\n      not\n      and\n      swap1\n      dup4\n      0xffffffffffffffffffffffffffffffffffffffff\n      and\n      mul\n      or\n      swap1\n      sstore\n      pop\n      0x40\n      dup3\n      add\n      mload\n      dup2\n      0x01\n      add\n      exp(0x0100, 0x14)\n      dup2\n      sload\n      dup2\n      0xff\n      mul\n      not\n      and\n      swap1\n      dup4\n      iszero\n      iszero\n      mul\n      or\n      swap1\n      sstore\n      pop\n      swap1\n      pop\n      pop\n        /* \"Contract.sol\":2520:3239  {... */\n      pop\n      pop\n      pop\n        /* \"Contract.sol\":2449:3239  function approvePost(address _requestedBy, address _approvedBy) public {... */\n      pop\n      pop\n      jump\t// out\n        /* \"Contract.sol\":667:705  function recieve() external payable {} */\n    tag_48:\n      jump\t// out\n        /* \"Contract.sol\":7751:8087  function findMember(address _userAddress, bool requestedMember)... */\n    tag_53:\n        /* \"Contract.sol\":7863:7882  MemberStruct memory */\n      tag_186\n      tag_187\n      jump\t// in\n    tag_186:\n        /* \"Contract.sol\":7923:7927  true */\n      0x01\n        /* \"Contract.sol\":7904:7927  requestedMember == true */\n      iszero\n      iszero\n        /* \"Contract.sol\":7904:7919  requestedMember */\n      dup3\n        /* \"Contract.sol\":7904:7927  requestedMember == true */\n      iszero\n      iszero\n      sub\n        /* \"Contract.sol\":7900:8080  if (requestedMember == true) {... */\n      tag_189\n      jumpi\n        /* \"Contract.sol\":7951:7980  getRequestedMemberWithAddress */\n      0x0d\n        /* \"Contract.sol\":7951:7994  getRequestedMemberWithAddress[_userAddress] */\n      0x00\n        /* \"Contract.sol\":7981:7993  _userAddress */\n      dup5\n        /* \"Contract.sol\":7951:7994  getRequestedMemberWithAddress[_userAddress] */\n      0xffffffffffffffffffffffffffffffffffffffff\n      and\n      0xffffffffffffffffffffffffffffffffffffffff\n      and\n      dup2\n      mstore\n      0x20\n      add\n      swap1\n      dup2\n      mstore\n      0x20\n      add\n      0x00\n      keccak256\n        /* \"Contract.sol\":7944:7994  return getRequestedMemberWithAddress[_userAddress] */\n      mload(0x40)\n      dup1\n      0xc0\n      add\n      0x40\n      mstore\n      swap1\n      dup2\n      0x00\n      dup3\n      add\n      dup1\n      sload\n      tag_190\n      swap1\n      tag_72\n      jump\t// in\n    tag_190:\n      dup1\n      0x1f\n      add\n      0x20\n      dup1\n      swap2\n      div\n      mul\n      0x20\n      add\n      mload(0x40)\n      swap1\n      dup2\n      add\n      0x40\n      mstore\n      dup1\n      swap3\n      swap2\n      swap1\n      dup2\n      dup2\n      mstore\n      0x20\n      add\n      dup3\n      dup1\n      sload\n      tag_191\n      swap1\n      tag_72\n      jump\t// in\n    tag_191:\n      dup1\n      iszero\n      tag_192\n      jumpi\n      dup1\n      0x1f\n      lt\n      tag_193\n      jumpi\n      0x0100\n      dup1\n      dup4\n      sload\n      div\n      mul\n      dup4\n      mstore\n      swap2\n      0x20\n      add\n      swap2\n      jump(tag_192)\n    tag_193:\n      dup3\n      add\n      swap2\n      swap1\n      0x00\n      mstore\n      keccak256(0x00, 0x20)\n      swap1\n    tag_194:\n      dup2\n      sload\n      dup2\n      mstore\n      swap1\n      0x01\n      add\n      swap1\n      0x20\n      add\n      dup1\n      dup4\n      gt\n      tag_194\n      jumpi\n      dup3\n      swap1\n      sub\n      0x1f\n      and\n      dup3\n      add\n      swap2\n    tag_192:\n      pop\n      pop\n      pop\n      pop\n      pop\n      dup2\n      mstore\n      0x20\n      add\n      0x01\n      dup3\n      add\n      dup1\n      sload\n      tag_195\n      swap1\n      tag_72\n      jump\t// in\n    tag_195:\n      dup1\n      0x1f\n      add\n      0x20\n      dup1\n      swap2\n      div\n      mul\n      0x20\n      add\n      mload(0x40)\n      swap1\n      dup2\n      add\n      0x40\n      mstore\n      dup1\n      swap3\n      swap2\n      swap1\n      dup2\n      dup2\n      mstore\n      0x20\n      add\n      dup3\n      dup1\n      sload\n      tag_196\n      swap1\n      tag_72\n      jump\t// in\n    tag_196:\n      dup1\n      iszero\n      tag_197\n      jumpi\n      dup1\n      0x1f\n      lt\n      tag_198\n      jumpi\n      0x0100\n      dup1\n      dup4\n      sload\n      div\n      mul\n      dup4\n      mstore\n      swap2\n      0x20\n      add\n      swap2\n      jump(tag_197)\n    tag_198:\n      dup3\n      add\n      swap2\n      swap1\n      0x00\n      mstore\n      keccak256(0x00, 0x20)\n      swap1\n    tag_199:\n      dup2\n      sload\n      dup2\n      mstore\n      swap1\n      0x01\n      add\n      swap1\n      0x20\n      add\n      dup1\n      dup4\n      gt\n      tag_199\n      jumpi\n      dup3\n      swap1\n      sub\n      0x1f\n      and\n      dup3\n      add\n      swap2\n    tag_197:\n      pop\n      pop\n      pop\n      pop\n      pop\n      dup2\n      mstore\n      0x20\n      add\n      0x02\n      dup3\n      add\n      dup1\n      sload\n      tag_200\n      swap1\n      tag_72\n      jump\t// in\n    tag_200:\n      dup1\n      0x1f\n      add\n      0x20\n      dup1\n      swap2\n      div\n      mul\n      0x20\n      add\n      mload(0x40)\n      swap1\n      dup2\n      add\n      0x40\n      mstore\n      dup1\n      swap3\n      swap2\n      swap1\n      dup2\n      dup2\n      mstore\n      0x20\n      add\n      dup3\n      dup1\n      sload\n      tag_201\n      swap1\n      tag_72\n      jump\t// in\n    tag_201:\n      dup1\n      iszero\n      tag_202\n      jumpi\n      dup1\n      0x1f\n      lt\n      tag_203\n      jumpi\n      0x0100\n      dup1\n      dup4\n      sload\n      div\n      mul\n      dup4\n      mstore\n      swap2\n      0x20\n      add\n      swap2\n      jump(tag_202)\n    tag_203:\n      dup3\n      add\n      swap2\n      swap1\n      0x00\n      mstore\n      keccak256(0x00, 0x20)\n      swap1\n    tag_204:\n      dup2\n      sload\n      dup2\n      mstore\n      swap1\n      0x01\n      add\n      swap1\n      0x20\n      add\n      dup1\n      dup4\n      gt\n      tag_204\n      jumpi\n      dup3\n      swap1\n      sub\n      0x1f\n      and\n      dup3\n      add\n      swap2\n    tag_202:\n      pop\n      pop\n      pop\n      pop\n      pop\n      dup2\n      mstore\n      0x20\n      add\n      0x03\n      dup3\n      add\n      0x00\n      swap1\n      sload\n      swap1\n      0x0100\n      exp\n      swap1\n      div\n      0xffffffffffffffffffffffffffffffffffffffff\n      and\n      0xffffffffffffffffffffffffffffffffffffffff\n      and\n      0xffffffffffffffffffffffffffffffffffffffff\n      and\n      dup2\n      mstore\n      0x20\n      add\n      0x04\n      dup3\n      add\n      sload\n      dup2\n      mstore\n      0x20\n      add\n      0x05\n      dup3\n      add\n      dup1\n      sload\n      dup1\n      0x20\n      mul\n      0x20\n      add\n      mload(0x40)\n      swap1\n      dup2\n      add\n      0x40\n      mstore\n      dup1\n      swap3\n      swap2\n      swap1\n      dup2\n      dup2\n      mstore\n      0x20\n      add\n      0x00\n      swap1\n    tag_205:\n      dup3\n      dup3\n      lt\n      iszero\n      tag_206\n      jumpi\n      dup4\n      dup3\n      swap1\n      0x00\n      mstore\n      keccak256(0x00, 0x20)\n      swap1\n      0x02\n      mul\n      add\n      mload(0x40)\n      dup1\n      0x60\n      add\n      0x40\n      mstore\n      swap1\n      dup2\n      0x00\n      dup3\n      add\n      dup1\n      sload\n      tag_208\n      swap1\n      tag_72\n      jump\t// in\n    tag_208:\n      dup1\n      0x1f\n      add\n      0x20\n      dup1\n      swap2\n      div\n      mul\n      0x20\n      add\n      mload(0x40)\n      swap1\n      dup2\n      add\n      0x40\n      mstore\n      dup1\n      swap3\n      swap2\n      swap1\n      dup2\n      dup2\n      mstore\n      0x20\n      add\n      dup3\n      dup1\n      sload\n      tag_209\n      swap1\n      tag_72\n      jump\t// in\n    tag_209:\n      dup1\n      iszero\n      tag_210\n      jumpi\n      dup1\n      0x1f\n      lt\n      tag_211\n      jumpi\n      0x0100\n      dup1\n      dup4\n      sload\n      div\n      mul\n      dup4\n      mstore\n      swap2\n      0x20\n      add\n      swap2\n      jump(tag_210)\n    tag_211:\n      dup3\n      add\n      swap2\n      swap1\n      0x00\n      mstore\n      keccak256(0x00, 0x20)\n      swap1\n    tag_212:\n      dup2\n      sload\n      dup2\n      mstore\n      swap1\n      0x01\n      add\n      swap1\n      0x20\n      add\n      dup1\n      dup4\n      gt\n      tag_212\n      jumpi\n      dup3\n      swap1\n      sub\n      0x1f\n      and\n      dup3\n      add\n      swap2\n    tag_210:\n      pop\n      pop\n      pop\n      pop\n      pop\n      dup2\n      mstore\n      0x20\n      add\n      0x01\n      dup3\n      add\n      0x00\n      swap1\n      sload\n      swap1\n      0x0100\n      exp\n      swap1\n      div\n      0xffffffffffffffffffffffffffffffffffffffff\n      and\n      0xffffffffffffffffffffffffffffffffffffffff\n      and\n      0xffffffffffffffffffffffffffffffffffffffff\n      and\n      dup2\n      mstore\n      0x20\n      add\n      0x01\n      dup3\n      add\n      0x14\n      swap1\n      sload\n      swap1\n      0x0100\n      exp\n      swap1\n      div\n      0xff\n      and\n      iszero\n      iszero\n      iszero\n      iszero\n      dup2\n      mstore\n      pop\n      pop\n      dup2\n      mstore\n      0x20\n      add\n      swap1\n      0x01\n      add\n      swap1\n      jump(tag_205)\n    tag_206:\n      pop\n      pop\n      pop\n      pop\n      dup2\n      mstore\n      pop\n      pop\n      swap1\n      pop\n      jump(tag_188)\n        /* \"Contract.sol\":7900:8080  if (requestedMember == true) {... */\n    tag_189:\n        /* \"Contract.sol\":8034:8054  getMemberWithAddress */\n      0x0a\n        /* \"Contract.sol\":8034:8068  getMemberWithAddress[_userAddress] */\n      0x00\n        /* \"Contract.sol\":8055:8067  _userAddress */\n      dup5\n        /* \"Contract.sol\":8034:8068  getMemberWithAddress[_userAddress] */\n      0xffffffffffffffffffffffffffffffffffffffff\n      and\n      0xffffffffffffffffffffffffffffffffffffffff\n      and\n      dup2\n      mstore\n      0x20\n      add\n      swap1\n      dup2\n      mstore\n      0x20\n      add\n      0x00\n      keccak256\n        /* \"Contract.sol\":8027:8068  return getMemberWithAddress[_userAddress] */\n      mload(0x40)\n      dup1\n      0xc0\n      add\n      0x40\n      mstore\n      swap1\n      dup2\n      0x00\n      dup3\n      add\n      dup1\n      sload\n      tag_214\n      swap1\n      tag_72\n      jump\t// in\n    tag_214:\n      dup1\n      0x1f\n      add\n      0x20\n      dup1\n      swap2\n      div\n      mul\n      0x20\n      add\n      mload(0x40)\n      swap1\n      dup2\n      add\n      0x40\n      mstore\n      dup1\n      swap3\n      swap2\n      swap1\n      dup2\n      dup2\n      mstore\n      0x20\n      add\n      dup3\n      dup1\n      sload\n      tag_215\n      swap1\n      tag_72\n      jump\t// in\n    tag_215:\n      dup1\n      iszero\n      tag_216\n      jumpi\n      dup1\n      0x1f\n      lt\n      tag_217\n      jumpi\n      0x0100\n      dup1\n      dup4\n      sload\n      div\n      mul\n      dup4\n      mstore\n      swap2\n      0x20\n      add\n      swap2\n      jump(tag_216)\n    tag_217:\n      dup3\n      add\n      swap2\n      swap1\n      0x00\n      mstore\n      keccak256(0x00, 0x20)\n      swap1\n    tag_218:\n      dup2\n      sload\n      dup2\n      mstore\n      swap1\n      0x01\n      add\n      swap1\n      0x20\n      add\n      dup1\n      dup4\n      gt\n      tag_218\n      jumpi\n      dup3\n      swap1\n      sub\n      0x1f\n      and\n      dup3\n      add\n      swap2\n    tag_216:\n      pop\n      pop\n      pop\n      pop\n      pop\n      dup2\n      mstore\n      0x20\n      add\n      0x01\n      dup3\n      add\n      dup1\n      sload\n      tag_219\n      swap1\n      tag_72\n      jump\t// in\n    tag_219:\n      dup1\n      0x1f\n      add\n      0x20\n      dup1\n      swap2\n      div\n      mul\n      0x20\n      add\n      mload(0x40)\n      swap1\n      dup2\n      add\n      0x40\n      mstore\n      dup1\n      swap3\n      swap2\n      swap1\n      dup2\n      dup2\n      mstore\n      0x20\n      add\n      dup3\n      dup1\n      sload\n      tag_220\n      swap1\n      tag_72\n      jump\t// in\n    tag_220:\n      dup1\n      iszero\n      tag_221\n      jumpi\n      dup1\n      0x1f\n      lt\n      tag_222\n      jumpi\n      0x0100\n      dup1\n      dup4\n      sload\n      div\n      mul\n      dup4\n      mstore\n      swap2\n      0x20\n      add\n      swap2\n      jump(tag_221)\n    tag_222:\n      dup3\n      add\n      swap2\n      swap1\n      0x00\n      mstore\n      keccak256(0x00, 0x20)\n      swap1\n    tag_223:\n      dup2\n      sload\n      dup2\n      mstore\n      swap1\n      0x01\n      add\n      swap1\n      0x20\n      add\n      dup1\n      dup4\n      gt\n      tag_223\n      jumpi\n      dup3\n      swap1\n      sub\n      0x1f\n      and\n      dup3\n      add\n      swap2\n    tag_221:\n      pop\n      pop\n      pop\n      pop\n      pop\n      dup2\n      mstore\n      0x20\n      add\n      0x02\n      dup3\n      add\n      dup1\n      sload\n      tag_224\n      swap1\n      tag_72\n      jump\t// in\n    tag_224:\n      dup1\n      0x1f\n      add\n      0x20\n      dup1\n      swap2\n      div\n      mul\n      0x20\n      add\n      mload(0x40)\n      swap1\n      dup2\n      add\n      0x40\n      mstore\n      dup1\n      swap3\n      swap2\n      swap1\n      dup2\n      dup2\n      mstore\n      0x20\n      add\n      dup3\n      dup1\n      sload\n      tag_225\n      swap1\n      tag_72\n      jump\t// in\n    tag_225:\n      dup1\n      iszero\n      tag_226\n      jumpi\n      dup1\n      0x1f\n      lt\n      tag_227\n      jumpi\n      0x0100\n      dup1\n      dup4\n      sload\n      div\n      mul\n      dup4\n      mstore\n      swap2\n      0x20\n      add\n      swap2\n      jump(tag_226)\n    tag_227:\n      dup3\n      add\n      swap2\n      swap1\n      0x00\n      mstore\n      keccak256(0x00, 0x20)\n      swap1\n    tag_228:\n      dup2\n      sload\n      dup2\n      mstore\n      swap1\n      0x01\n      add\n      swap1\n      0x20\n      add\n      dup1\n      dup4\n      gt\n      tag_228\n      jumpi\n      dup3\n      swap1\n      sub\n      0x1f\n      and\n      dup3\n      add\n      swap2\n    tag_226:\n      pop\n      pop\n      pop\n      pop\n      pop\n      dup2\n      mstore\n      0x20\n      add\n      0x03\n      dup3\n      add\n      0x00\n      swap1\n      sload\n      swap1\n      0x0100\n      exp\n      swap1\n      div\n      0xffffffffffffffffffffffffffffffffffffffff\n      and\n      0xffffffffffffffffffffffffffffffffffffffff\n      and\n      0xffffffffffffffffffffffffffffffffffffffff\n      and\n      dup2\n      mstore\n      0x20\n      add\n      0x04\n      dup3\n      add\n      sload\n      dup2\n      mstore\n      0x20\n      add\n      0x05\n      dup3\n      add\n      dup1\n      sload\n      dup1\n      0x20\n      mul\n      0x20\n      add\n      mload(0x40)\n      swap1\n      dup2\n      add\n      0x40\n      mstore\n      dup1\n      swap3\n      swap2\n      swap1\n      dup2\n      dup2\n      mstore\n      0x20\n      add\n      0x00\n      swap1\n    tag_229:\n      dup3\n      dup3\n      lt\n      iszero\n      tag_230\n      jumpi\n      dup4\n      dup3\n      swap1\n      0x00\n      mstore\n      keccak256(0x00, 0x20)\n      swap1\n      0x02\n      mul\n      add\n      mload(0x40)\n      dup1\n      0x60\n      add\n      0x40\n      mstore\n      swap1\n      dup2\n      0x00\n      dup3\n      add\n      dup1\n      sload\n      tag_232\n      swap1\n      tag_72\n      jump\t// in\n    tag_232:\n      dup1\n      0x1f\n      add\n      0x20\n      dup1\n      swap2\n      div\n      mul\n      0x20\n      add\n      mload(0x40)\n      swap1\n      dup2\n      add\n      0x40\n      mstore\n      dup1\n      swap3\n      swap2\n      swap1\n      dup2\n      dup2\n      mstore\n      0x20\n      add\n      dup3\n      dup1\n      sload\n      tag_233\n      swap1\n      tag_72\n      jump\t// in\n    tag_233:\n      dup1\n      iszero\n      tag_234\n      jumpi\n      dup1\n      0x1f\n      lt\n      tag_235\n      jumpi\n      0x0100\n      dup1\n      dup4\n      sload\n      div\n      mul\n      dup4\n      mstore\n      swap2\n      0x20\n      add\n      swap2\n      jump(tag_234)\n    tag_235:\n      dup3\n      add\n      swap2\n      swap1\n      0x00\n      mstore\n      keccak256(0x00, 0x20)\n      swap1\n    tag_236:\n      dup2\n      sload\n      dup2\n      mstore\n      swap1\n      0x01\n      add\n      swap1\n      0x20\n      add\n      dup1\n      dup4\n      gt\n      tag_236\n      jumpi\n      dup3\n      swap1\n      sub\n      0x1f\n      and\n      dup3\n      add\n      swap2\n    tag_234:\n      pop\n      pop\n      pop\n      pop\n      pop\n      dup2\n      mstore\n      0x20\n      add\n      0x01\n      dup3\n      add\n      0x00\n      swap1\n      sload\n      swap1\n      0x0100\n      exp\n      swap1\n      div\n      0xffffffffffffffffffffffffffffffffffffffff\n      and\n      0xffffffffffffffffffffffffffffffffffffffff\n      and\n      0xffffffffffffffffffffffffffffffffffffffff\n      and\n      dup2\n      mstore\n      0x20\n      add\n      0x01\n      dup3\n      add\n      0x14\n      swap1\n      sload\n      swap1\n      0x0100\n      exp\n      swap1\n      div\n      0xff\n      and\n      iszero\n      iszero\n      iszero\n      iszero\n      dup2\n      mstore\n      pop\n      pop\n      dup2\n      mstore\n      0x20\n      add\n      swap1\n      0x01\n      add\n      swap1\n      jump(tag_229)\n    tag_230:\n      pop\n      pop\n      pop\n      pop\n      dup2\n      mstore\n      pop\n      pop\n      swap1\n      pop\n        /* \"Contract.sol\":7751:8087  function findMember(address _userAddress, bool requestedMember)... */\n    tag_188:\n      swap3\n      swap2\n      pop\n      pop\n      jump\t// out\n        /* \"Contract.sol\":8132:9133  function approoveRequest(address _userAddress, address approvingUserAddress)... */\n    tag_59:\n        /* \"Contract.sol\":8241:8279  MemberStruct memory memberTobeApproved */\n      0x00\n        /* \"Contract.sol\":8282:8311  getRequestedMemberWithAddress */\n      0x0d\n        /* \"Contract.sol\":8282:8349  getRequestedMemberWithAddress[... */\n      0x00\n        /* \"Contract.sol\":8326:8338  _userAddress */\n      dup5\n        /* \"Contract.sol\":8282:8349  getRequestedMemberWithAddress[... */\n      0xffffffffffffffffffffffffffffffffffffffff\n      and\n      0xffffffffffffffffffffffffffffffffffffffff\n      and\n      dup2\n      mstore\n      0x20\n      add\n      swap1\n      dup2\n      mstore\n      0x20\n      add\n      0x00\n      keccak256\n        /* \"Contract.sol\":8241:8349  MemberStruct memory memberTobeApproved = getRequestedMemberWithAddress[... */\n      mload(0x40)\n      dup1\n      0xc0\n      add\n      0x40\n      mstore\n      swap1\n      dup2\n      0x00\n      dup3\n      add\n      dup1\n      sload\n      tag_238\n      swap1\n      tag_72\n      jump\t// in\n    tag_238:\n      dup1\n      0x1f\n      add\n      0x20\n      dup1\n      swap2\n      div\n      mul\n      0x20\n      add\n      mload(0x40)\n      swap1\n      dup2\n      add\n      0x40\n      mstore\n      dup1\n      swap3\n      swap2\n      swap1\n      dup2\n      dup2\n      mstore\n      0x20\n      add\n      dup3\n      dup1\n      sload\n      tag_239\n      swap1\n      tag_72\n      jump\t// in\n    tag_239:\n      dup1\n      iszero\n      tag_240\n      jumpi\n      dup1\n      0x1f\n      lt\n      tag_241\n      jumpi\n      0x0100\n      dup1\n      dup4\n      sload\n      div\n      mul\n      dup4\n      mstore\n      swap2\n      0x20\n      add\n      swap2\n      jump(tag_240)\n    tag_241:\n      dup3\n      add\n      swap2\n      swap1\n      0x00\n      mstore\n      keccak256(0x00, 0x20)\n      swap1\n    tag_242:\n      dup2\n      sload\n      dup2\n      mstore\n      swap1\n      0x01\n      add\n      swap1\n      0x20\n      add\n      dup1\n      dup4\n      gt\n      tag_242\n      jumpi\n      dup3\n      swap1\n      sub\n      0x1f\n      and\n      dup3\n      add\n      swap2\n    tag_240:\n      pop\n      pop\n      pop\n      pop\n      pop\n      dup2\n      mstore\n      0x20\n      add\n      0x01\n      dup3\n      add\n      dup1\n      sload\n      tag_243\n      swap1\n      tag_72\n      jump\t// in\n    tag_243:\n      dup1\n      0x1f\n      add\n      0x20\n      dup1\n      swap2\n      div\n      mul\n      0x20\n      add\n      mload(0x40)\n      swap1\n      dup2\n      add\n      0x40\n      mstore\n      dup1\n      swap3\n      swap2\n      swap1\n      dup2\n      dup2\n      mstore\n      0x20\n      add\n      dup3\n      dup1\n      sload\n      tag_244\n      swap1\n      tag_72\n      jump\t// in\n    tag_244:\n      dup1\n      iszero\n      tag_245\n      jumpi\n      dup1\n      0x1f\n      lt\n      tag_246\n      jumpi\n      0x0100\n      dup1\n      dup4\n      sload\n      div\n      mul\n      dup4\n      mstore\n      swap2\n      0x20\n      add\n      swap2\n      jump(tag_245)\n    tag_246:\n      dup3\n      add\n      swap2\n      swap1\n      0x00\n      mstore\n      keccak256(0x00, 0x20)\n      swap1\n    tag_247:\n      dup2\n      sload\n      dup2\n      mstore\n      swap1\n      0x01\n      add\n      swap1\n      0x20\n      add\n      dup1\n      dup4\n      gt\n      tag_247\n      jumpi\n      dup3\n      swap1\n      sub\n      0x1f\n      and\n      dup3\n      add\n      swap2\n    tag_245:\n      pop\n      pop\n      pop\n      pop\n      pop\n      dup2\n      mstore\n      0x20\n      add\n      0x02\n      dup3\n      add\n      dup1\n      sload\n      tag_248\n      swap1\n      tag_72\n      jump\t// in\n    tag_248:\n      dup1\n      0x1f\n      add\n      0x20\n      dup1\n      swap2\n      div\n      mul\n      0x20\n      add\n      mload(0x40)\n      swap1\n      dup2\n      add\n      0x40\n      mstore\n      dup1\n      swap3\n      swap2\n      swap1\n      dup2\n      dup2\n      mstore\n      0x20\n      add\n      dup3\n      dup1\n      sload\n      tag_249\n      swap1\n      tag_72\n      jump\t// in\n    tag_249:\n      dup1\n      iszero\n      tag_250\n      jumpi\n      dup1\n      0x1f\n      lt\n      tag_251\n      jumpi\n      0x0100\n      dup1\n      dup4\n      sload\n      div\n      mul\n      dup4\n      mstore\n      swap2\n      0x20\n      add\n      swap2\n      jump(tag_250)\n    tag_251:\n      dup3\n      add\n      swap2\n      swap1\n      0x00\n      mstore\n      keccak256(0x00, 0x20)\n      swap1\n    tag_252:\n      dup2\n      sload\n      dup2\n      mstore\n      swap1\n      0x01\n      add\n      swap1\n      0x20\n      add\n      dup1\n      dup4\n      gt\n      tag_252\n      jumpi\n      dup3\n      swap1\n      sub\n      0x1f\n      and\n      dup3\n      add\n      swap2\n    tag_250:\n      pop\n      pop\n      pop\n      pop\n      pop\n      dup2\n      mstore\n      0x20\n      add\n      0x03\n      dup3\n      add\n      0x00\n      swap1\n      sload\n      swap1\n      0x0100\n      exp\n      swap1\n      div\n      0xffffffffffffffffffffffffffffffffffffffff\n      and\n      0xffffffffffffffffffffffffffffffffffffffff\n      and\n      0xffffffffffffffffffffffffffffffffffffffff\n      and\n      dup2\n      mstore\n      0x20\n      add\n      0x04\n      dup3\n      add\n      sload\n      dup2\n      mstore\n      0x20\n      add\n      0x05\n      dup3\n      add\n      dup1\n      sload\n      dup1\n      0x20\n      mul\n      0x20\n      add\n      mload(0x40)\n      swap1\n      dup2\n      add\n      0x40\n      mstore\n      dup1\n      swap3\n      swap2\n      swap1\n      dup2\n      dup2\n      mstore\n      0x20\n      add\n      0x00\n      swap1\n    tag_253:\n      dup3\n      dup3\n      lt\n      iszero\n      tag_254\n      jumpi\n      dup4\n      dup3\n      swap1\n      0x00\n      mstore\n      keccak256(0x00, 0x20)\n      swap1\n      0x02\n      mul\n      add\n      mload(0x40)\n      dup1\n      0x60\n      add\n      0x40\n      mstore\n      swap1\n      dup2\n      0x00\n      dup3\n      add\n      dup1\n      sload\n      tag_256\n      swap1\n      tag_72\n      jump\t// in\n    tag_256:\n      dup1\n      0x1f\n      add\n      0x20\n      dup1\n      swap2\n      div\n      mul\n      0x20\n      add\n      mload(0x40)\n      swap1\n      dup2\n      add\n      0x40\n      mstore\n      dup1\n      swap3\n      swap2\n      swap1\n      dup2\n      dup2\n      mstore\n      0x20\n      add\n      dup3\n      dup1\n      sload\n      tag_257\n      swap1\n      tag_72\n      jump\t// in\n    tag_257:\n      dup1\n      iszero\n      tag_258\n      jumpi\n      dup1\n      0x1f\n      lt\n      tag_259\n      jumpi\n      0x0100\n      dup1\n      dup4\n      sload\n      div\n      mul\n      dup4\n      mstore\n      swap2\n      0x20\n      add\n      swap2\n      jump(tag_258)\n    tag_259:\n      dup3\n      add\n      swap2\n      swap1\n      0x00\n      mstore\n      keccak256(0x00, 0x20)\n      swap1\n    tag_260:\n      dup2\n      sload\n      dup2\n      mstore\n      swap1\n      0x01\n      add\n      swap1\n      0x20\n      add\n      dup1\n      dup4\n      gt\n      tag_260\n      jumpi\n      dup3\n      swap1\n      sub\n      0x1f\n      and\n      dup3\n      add\n      swap2\n    tag_258:\n      pop\n      pop\n      pop\n      pop\n      pop\n      dup2\n      mstore\n      0x20\n      add\n      0x01\n      dup3\n      add\n      0x00\n      swap1\n      sload\n      swap1\n      0x0100\n      exp\n      swap1\n      div\n      0xffffffffffffffffffffffffffffffffffffffff\n      and\n      0xffffffffffffffffffffffffffffffffffffffff\n      and\n      0xffffffffffffffffffffffffffffffffffffffff\n      and\n      dup2\n      mstore\n      0x20\n      add\n      0x01\n      dup3\n      add\n      0x14\n      swap1\n      sload\n      swap1\n      0x0100\n      exp\n      swap1\n      div\n      0xff\n      and\n      iszero\n      iszero\n      iszero\n      iszero\n      dup2\n      mstore\n      pop\n      pop\n      dup2\n      mstore\n      0x20\n      add\n      swap1\n      0x01\n      add\n      swap1\n      jump(tag_253)\n    tag_254:\n      pop\n      pop\n      pop\n      pop\n      dup2\n      mstore\n      pop\n      pop\n      swap1\n      pop\n        /* \"Contract.sol\":8360:8395  MemberStruct memory apprivongMember */\n      0x00\n        /* \"Contract.sol\":8398:8418  getMemberWithAddress */\n      0x0a\n        /* \"Contract.sol\":8398:8464  getMemberWithAddress[... */\n      0x00\n        /* \"Contract.sol\":8433:8453  approvingUserAddress */\n      dup5\n        /* \"Contract.sol\":8398:8464  getMemberWithAddress[... */\n      0xffffffffffffffffffffffffffffffffffffffff\n      and\n      0xffffffffffffffffffffffffffffffffffffffff\n      and\n      dup2\n      mstore\n      0x20\n      add\n      swap1\n      dup2\n      mstore\n      0x20\n      add\n      0x00\n      keccak256\n        /* \"Contract.sol\":8360:8464  MemberStruct memory apprivongMember = getMemberWithAddress[... */\n      mload(0x40)\n      dup1\n      0xc0\n      add\n      0x40\n      mstore\n      swap1\n      dup2\n      0x00\n      dup3\n      add\n      dup1\n      sload\n      tag_261\n      swap1\n      tag_72\n      jump\t// in\n    tag_261:\n      dup1\n      0x1f\n      add\n      0x20\n      dup1\n      swap2\n      div\n      mul\n      0x20\n      add\n      mload(0x40)\n      swap1\n      dup2\n      add\n      0x40\n      mstore\n      dup1\n      swap3\n      swap2\n      swap1\n      dup2\n      dup2\n      mstore\n      0x20\n      add\n      dup3\n      dup1\n      sload\n      tag_262\n      swap1\n      tag_72\n      jump\t// in\n    tag_262:\n      dup1\n      iszero\n      tag_263\n      jumpi\n      dup1\n      0x1f\n      lt\n      tag_264\n      jumpi\n      0x0100\n      dup1\n      dup4\n      sload\n      div\n      mul\n      dup4\n      mstore\n      swap2\n      0x20\n      add\n      swap2\n      jump(tag_263)\n    tag_264:\n      dup3\n      add\n      swap2\n      swap1\n      0x00\n      mstore\n      keccak256(0x00, 0x20)\n      swap1\n    tag_265:\n      dup2\n      sload\n      dup2\n      mstore\n      swap1\n      0x01\n      add\n      swap1\n      0x20\n      add\n      dup1\n      dup4\n      gt\n      tag_265\n      jumpi\n      dup3\n      swap1\n      sub\n      0x1f\n      and\n      dup3\n      add\n      swap2\n    tag_263:\n      pop\n      pop\n      pop\n      pop\n      pop\n      dup2\n      mstore\n      0x20\n      add\n      0x01\n      dup3\n      add\n      dup1\n      sload\n      tag_266\n      swap1\n      tag_72\n      jump\t// in\n    tag_266:\n      dup1\n      0x1f\n      add\n      0x20\n      dup1\n      swap2\n      div\n      mul\n      0x20\n      add\n      mload(0x40)\n      swap1\n      dup2\n      add\n      0x40\n      mstore\n      dup1\n      swap3\n      swap2\n      swap1\n      dup2\n      dup2\n      mstore\n      0x20\n      add\n      dup3\n      dup1\n      sload\n      tag_267\n      swap1\n      tag_72\n      jump\t// in\n    tag_267:\n      dup1\n      iszero\n      tag_268\n      jumpi\n      dup1\n      0x1f\n      lt\n      tag_269\n      jumpi\n      0x0100\n      dup1\n      dup4\n      sload\n      div\n      mul\n      dup4\n      mstore\n      swap2\n      0x20\n      add\n      swap2\n      jump(tag_268)\n    tag_269:\n      dup3\n      add\n      swap2\n      swap1\n      0x00\n      mstore\n      keccak256(0x00, 0x20)\n      swap1\n    tag_270:\n      dup2\n      sload\n      dup2\n      mstore\n      swap1\n      0x01\n      add\n      swap1\n      0x20\n      add\n      dup1\n      dup4\n      gt\n      tag_270\n      jumpi\n      dup3\n      swap1\n      sub\n      0x1f\n      and\n      dup3\n      add\n      swap2\n    tag_268:\n      pop\n      pop\n      pop\n      pop\n      pop\n      dup2\n      mstore\n      0x20\n      add\n      0x02\n      dup3\n      add\n      dup1\n      sload\n      tag_271\n      swap1\n      tag_72\n      jump\t// in\n    tag_271:\n      dup1\n      0x1f\n      add\n      0x20\n      dup1\n      swap2\n      div\n      mul\n      0x20\n      add\n      mload(0x40)\n      swap1\n      dup2\n      add\n      0x40\n      mstore\n      dup1\n      swap3\n      swap2\n      swap1\n      dup2\n      dup2\n      mstore\n      0x20\n      add\n      dup3\n      dup1\n      sload\n      tag_272\n      swap1\n      tag_72\n      jump\t// in\n    tag_272:\n      dup1\n      iszero\n      tag_273\n      jumpi\n      dup1\n      0x1f\n      lt\n      tag_274\n      jumpi\n      0x0100\n      dup1\n      dup4\n      sload\n      div\n      mul\n      dup4\n      mstore\n      swap2\n      0x20\n      add\n      swap2\n      jump(tag_273)\n    tag_274:\n      dup3\n      add\n      swap2\n      swap1\n      0x00\n      mstore\n      keccak256(0x00, 0x20)\n      swap1\n    tag_275:\n      dup2\n      sload\n      dup2\n      mstore\n      swap1\n      0x01\n      add\n      swap1\n      0x20\n      add\n      dup1\n      dup4\n      gt\n      tag_275\n      jumpi\n      dup3\n      swap1\n      sub\n      0x1f\n      and\n      dup3\n      add\n      swap2\n    tag_273:\n      pop\n      pop\n      pop\n      pop\n      pop\n      dup2\n      mstore\n      0x20\n      add\n      0x03\n      dup3\n      add\n      0x00\n      swap1\n      sload\n      swap1\n      0x0100\n      exp\n      swap1\n      div\n      0xffffffffffffffffffffffffffffffffffffffff\n      and\n      0xffffffffffffffffffffffffffffffffffffffff\n      and\n      0xffffffffffffffffffffffffffffffffffffffff\n      and\n      dup2\n      mstore\n      0x20\n      add\n      0x04\n      dup3\n      add\n      sload\n      dup2\n      mstore\n      0x20\n      add\n      0x05\n      dup3\n      add\n      dup1\n      sload\n      dup1\n      0x20\n      mul\n      0x20\n      add\n      mload(0x40)\n      swap1\n      dup2\n      add\n      0x40\n      mstore\n      dup1\n      swap3\n      swap2\n      swap1\n      dup2\n      dup2\n      mstore\n      0x20\n      add\n      0x00\n      swap1\n    tag_276:\n      dup3\n      dup3\n      lt\n      iszero\n      tag_277\n      jumpi\n      dup4\n      dup3\n      swap1\n      0x00\n      mstore\n      keccak256(0x00, 0x20)\n      swap1\n      0x02\n      mul\n      add\n      mload(0x40)\n      dup1\n      0x60\n      add\n      0x40\n      mstore\n      swap1\n      dup2\n      0x00\n      dup3\n      add\n      dup1\n      sload\n      tag_279\n      swap1\n      tag_72\n      jump\t// in\n    tag_279:\n      dup1\n      0x1f\n      add\n      0x20\n      dup1\n      swap2\n      div\n      mul\n      0x20\n      add\n      mload(0x40)\n      swap1\n      dup2\n      add\n      0x40\n      mstore\n      dup1\n      swap3\n      swap2\n      swap1\n      dup2\n      dup2\n      mstore\n      0x20\n      add\n      dup3\n      dup1\n      sload\n      tag_280\n      swap1\n      tag_72\n      jump\t// in\n    tag_280:\n      dup1\n      iszero\n      tag_281\n      jumpi\n      dup1\n      0x1f\n      lt\n      tag_282\n      jumpi\n      0x0100\n      dup1\n      dup4\n      sload\n      div\n      mul\n      dup4\n      mstore\n      swap2\n      0x20\n      add\n      swap2\n      jump(tag_281)\n    tag_282:\n      dup3\n      add\n      swap2\n      swap1\n      0x00\n      mstore\n      keccak256(0x00, 0x20)\n      swap1\n    tag_283:\n      dup2\n      sload\n      dup2\n      mstore\n      swap1\n      0x01\n      add\n      swap1\n      0x20\n      add\n      dup1\n      dup4\n      gt\n      tag_283\n      jumpi\n      dup3\n      swap1\n      sub\n      0x1f\n      and\n      dup3\n      add\n      swap2\n    tag_281:\n      pop\n      pop\n      pop\n      pop\n      pop\n      dup2\n      mstore\n      0x20\n      add\n      0x01\n      dup3\n      add\n      0x00\n      swap1\n      sload\n      swap1\n      0x0100\n      exp\n      swap1\n      div\n      0xffffffffffffffffffffffffffffffffffffffff\n      and\n      0xffffffffffffffffffffffffffffffffffffffff\n      and\n      0xffffffffffffffffffffffffffffffffffffffff\n      and\n      dup2\n      mstore\n      0x20\n      add\n      0x01\n      dup3\n      add\n      0x14\n      swap1\n      sload\n      swap1\n      0x0100\n      exp\n      swap1\n      div\n      0xff\n      and\n      iszero\n      iszero\n      iszero\n      iszero\n      dup2\n      mstore\n      pop\n      pop\n      dup2\n      mstore\n      0x20\n      add\n      swap1\n      0x01\n      add\n      swap1\n      jump(tag_276)\n    tag_277:\n      pop\n      pop\n      pop\n      pop\n      dup2\n      mstore\n      pop\n      pop\n      swap1\n      pop\n        /* \"Contract.sol\":8475:8493  string memory post */\n      0x00\n        /* \"Contract.sol\":8496:8514  memberTobeApproved */\n      dup3\n        /* \"Contract.sol\":8496:8519  memberTobeApproved.post */\n      0x00\n      add\n      mload\n        /* \"Contract.sol\":8475:8519  string memory post = memberTobeApproved.post */\n      swap1\n      pop\n        /* \"Contract.sol\":8530:8548  string memory dept */\n      0x00\n        /* \"Contract.sol\":8551:8569  memberTobeApproved */\n      dup4\n        /* \"Contract.sol\":8551:8574  memberTobeApproved.dept */\n      0x20\n      add\n      mload\n        /* \"Contract.sol\":8530:8574  string memory dept = memberTobeApproved.dept */\n      swap1\n      pop\n        /* \"Contract.sol\":8585:8603  string memory name */\n      0x00\n        /* \"Contract.sol\":8606:8624  memberTobeApproved */\n      dup5\n        /* \"Contract.sol\":8606:8629  memberTobeApproved.name */\n      0x40\n      add\n      mload\n        /* \"Contract.sol\":8585:8629  string memory name = memberTobeApproved.name */\n      swap1\n      pop\n        /* \"Contract.sol\":8640:8659  address userAddress */\n      0x00\n        /* \"Contract.sol\":8662:8680  memberTobeApproved */\n      dup6\n        /* \"Contract.sol\":8662:8692  memberTobeApproved.userAddress */\n      0x60\n      add\n      mload\n        /* \"Contract.sol\":8640:8692  address userAddress = memberTobeApproved.userAddress */\n      swap1\n      pop\n        /* \"Contract.sol\":8703:8730  uint256 requestingUserPower */\n      0x00\n        /* \"Contract.sol\":8733:8751  memberTobeApproved */\n      dup7\n        /* \"Contract.sol\":8733:8757  memberTobeApproved.power */\n      0x80\n      add\n      mload\n        /* \"Contract.sol\":8703:8757  uint256 requestingUserPower = memberTobeApproved.power */\n      swap1\n      pop\n        /* \"Contract.sol\":8768:8794  uint256 approvongUserPower */\n      0x00\n        /* \"Contract.sol\":8797:8812  apprivongMember */\n      dup7\n        /* \"Contract.sol\":8797:8818  apprivongMember.power */\n      0x80\n      add\n      mload\n        /* \"Contract.sol\":8768:8818  uint256 approvongUserPower = apprivongMember.power */\n      swap1\n      pop\n        /* \"Contract.sol\":8875:8894  requestingUserPower */\n      dup2\n        /* \"Contract.sol\":8853:8871  approvongUserPower */\n      dup2\n        /* \"Contract.sol\":8853:8894  approvongUserPower <= requestingUserPower */\n      gt\n      iszero\n        /* \"Contract.sol\":8831:8964  require(... */\n      tag_284\n      jumpi\n      mload(0x40)\n      0x08c379a000000000000000000000000000000000000000000000000000000000\n      dup2\n      mstore\n      0x04\n      add\n      tag_285\n      swap1\n      tag_286\n      jump\t// in\n    tag_285:\n      mload(0x40)\n      dup1\n      swap2\n      sub\n      swap1\n      revert\n    tag_284:\n        /* \"Contract.sol\":8977:9033  addOrRequestMember(post, dept, name, userAddress, false) */\n      tag_287\n        /* \"Contract.sol\":8996:9000  post */\n      dup7\n        /* \"Contract.sol\":9002:9006  dept */\n      dup7\n        /* \"Contract.sol\":9008:9012  name */\n      dup7\n        /* \"Contract.sol\":9014:9025  userAddress */\n      dup7\n        /* \"Contract.sol\":9027:9032  false */\n      0x00\n        /* \"Contract.sol\":8977:8995  addOrRequestMember */\n      tag_41\n        /* \"Contract.sol\":8977:9033  addOrRequestMember(post, dept, name, userAddress, false) */\n      jump\t// in\n    tag_287:\n        /* \"Contract.sol\":9098:9125  removeRequest(_userAddress) */\n      tag_288\n        /* \"Contract.sol\":9112:9124  _userAddress */\n      dup11\n        /* \"Contract.sol\":9098:9111  removeRequest */\n      tag_289\n        /* \"Contract.sol\":9098:9125  removeRequest(_userAddress) */\n      jump\t// in\n    tag_288:\n        /* \"Contract.sol\":8230:9133  {... */\n      pop\n      pop\n      pop\n      pop\n      pop\n      pop\n      pop\n      pop\n        /* \"Contract.sol\":8132:9133  function approoveRequest(address _userAddress, address approvingUserAddress)... */\n      pop\n      pop\n      jump\t// out\n        /* \"Contract.sol\":4496:4774  function getApprovedOrRequestedMember(bool request)... */\n    tag_63:\n        /* \"Contract.sol\":4596:4617  MemberStruct[] memory */\n      0x60\n        /* \"Contract.sol\":4650:4654  true */\n      0x01\n        /* \"Contract.sol\":4639:4654  request == true */\n      iszero\n      iszero\n        /* \"Contract.sol\":4639:4646  request */\n      dup3\n        /* \"Contract.sol\":4639:4654  request == true */\n      iszero\n      iszero\n      sub\n        /* \"Contract.sol\":4635:4767  if (request == true) {... */\n      tag_291\n      jumpi\n        /* \"Contract.sol\":4678:4701  arrayOfRequestedMembers */\n      0x0e\n        /* \"Contract.sol\":4671:4701  return arrayOfRequestedMembers */\n      dup1\n      sload\n      dup1\n      0x20\n      mul\n      0x20\n      add\n      mload(0x40)\n      swap1\n      dup2\n      add\n      0x40\n      mstore\n      dup1\n      swap3\n      swap2\n      swap1\n      dup2\n      dup2\n      mstore\n      0x20\n      add\n      0x00\n      swap1\n    tag_292:\n      dup3\n      dup3\n      lt\n      iszero\n      tag_293\n      jumpi\n      dup4\n      dup3\n      swap1\n      0x00\n      mstore\n      keccak256(0x00, 0x20)\n      swap1\n      0x06\n      mul\n      add\n      mload(0x40)\n      dup1\n      0xc0\n      add\n      0x40\n      mstore\n      swap1\n      dup2\n      0x00\n      dup3\n      add\n      dup1\n      sload\n      tag_295\n      swap1\n      tag_72\n      jump\t// in\n    tag_295:\n      dup1\n      0x1f\n      add\n      0x20\n      dup1\n      swap2\n      div\n      mul\n      0x20\n      add\n      mload(0x40)\n      swap1\n      dup2\n      add\n      0x40\n      mstore\n      dup1\n      swap3\n      swap2\n      swap1\n      dup2\n      dup2\n      mstore\n      0x20\n      add\n      dup3\n      dup1\n      sload\n      tag_296\n      swap1\n      tag_72\n      jump\t// in\n    tag_296:\n      dup1\n      iszero\n      tag_297\n      jumpi\n      dup1\n      0x1f\n      lt\n      tag_298\n      jumpi\n      0x0100\n      dup1\n      dup4\n      sload\n      div\n      mul\n      dup4\n      mstore\n      swap2\n      0x20\n      add\n      swap2\n      jump(tag_297)\n    tag_298:\n      dup3\n      add\n      swap2\n      swap1\n      0x00\n      mstore\n      keccak256(0x00, 0x20)\n      swap1\n    tag_299:\n      dup2\n      sload\n      dup2\n      mstore\n      swap1\n      0x01\n      add\n      swap1\n      0x20\n      add\n      dup1\n      dup4\n      gt\n      tag_299\n      jumpi\n      dup3\n      swap1\n      sub\n      0x1f\n      and\n      dup3\n      add\n      swap2\n    tag_297:\n      pop\n      pop\n      pop\n      pop\n      pop\n      dup2\n      mstore\n      0x20\n      add\n      0x01\n      dup3\n      add\n      dup1\n      sload\n      tag_300\n      swap1\n      tag_72\n      jump\t// in\n    tag_300:\n      dup1\n      0x1f\n      add\n      0x20\n      dup1\n      swap2\n      div\n      mul\n      0x20\n      add\n      mload(0x40)\n      swap1\n      dup2\n      add\n      0x40\n      mstore\n      dup1\n      swap3\n      swap2\n      swap1\n      dup2\n      dup2\n      mstore\n      0x20\n      add\n      dup3\n      dup1\n      sload\n      tag_301\n      swap1\n      tag_72\n      jump\t// in\n    tag_301:\n      dup1\n      iszero\n      tag_302\n      jumpi\n      dup1\n      0x1f\n      lt\n      tag_303\n      jumpi\n      0x0100\n      dup1\n      dup4\n      sload\n      div\n      mul\n      dup4\n      mstore\n      swap2\n      0x20\n      add\n      swap2\n      jump(tag_302)\n    tag_303:\n      dup3\n      add\n      swap2\n      swap1\n      0x00\n      mstore\n      keccak256(0x00, 0x20)\n      swap1\n    tag_304:\n      dup2\n      sload\n      dup2\n      mstore\n      swap1\n      0x01\n      add\n      swap1\n      0x20\n      add\n      dup1\n      dup4\n      gt\n      tag_304\n      jumpi\n      dup3\n      swap1\n      sub\n      0x1f\n      and\n      dup3\n      add\n      swap2\n    tag_302:\n      pop\n      pop\n      pop\n      pop\n      pop\n      dup2\n      mstore\n      0x20\n      add\n      0x02\n      dup3\n      add\n      dup1\n      sload\n      tag_305\n      swap1\n      tag_72\n      jump\t// in\n    tag_305:\n      dup1\n      0x1f\n      add\n      0x20\n      dup1\n      swap2\n      div\n      mul\n      0x20\n      add\n      mload(0x40)\n      swap1\n      dup2\n      add\n      0x40\n      mstore\n      dup1\n      swap3\n      swap2\n      swap1\n      dup2\n      dup2\n      mstore\n      0x20\n      add\n      dup3\n      dup1\n      sload\n      tag_306\n      swap1\n      tag_72\n      jump\t// in\n    tag_306:\n      dup1\n      iszero\n      tag_307\n      jumpi\n      dup1\n      0x1f\n      lt\n      tag_308\n      jumpi\n      0x0100\n      dup1\n      dup4\n      sload\n      div\n      mul\n      dup4\n      mstore\n      swap2\n      0x20\n      add\n      swap2\n      jump(tag_307)\n    tag_308:\n      dup3\n      add\n      swap2\n      swap1\n      0x00\n      mstore\n      keccak256(0x00, 0x20)\n      swap1\n    tag_309:\n      dup2\n      sload\n      dup2\n      mstore\n      swap1\n      0x01\n      add\n      swap1\n      0x20\n      add\n      dup1\n      dup4\n      gt\n      tag_309\n      jumpi\n      dup3\n      swap1\n      sub\n      0x1f\n      and\n      dup3\n      add\n      swap2\n    tag_307:\n      pop\n      pop\n      pop\n      pop\n      pop\n      dup2\n      mstore\n      0x20\n      add\n      0x03\n      dup3\n      add\n      0x00\n      swap1\n      sload\n      swap1\n      0x0100\n      exp\n      swap1\n      div\n      0xffffffffffffffffffffffffffffffffffffffff\n      and\n      0xffffffffffffffffffffffffffffffffffffffff\n      and\n      0xffffffffffffffffffffffffffffffffffffffff\n      and\n      dup2\n      mstore\n      0x20\n      add\n      0x04\n      dup3\n      add\n      sload\n      dup2\n      mstore\n      0x20\n      add\n      0x05\n      dup3\n      add\n      dup1\n      sload\n      dup1\n      0x20\n      mul\n      0x20\n      add\n      mload(0x40)\n      swap1\n      dup2\n      add\n      0x40\n      mstore\n      dup1\n      swap3\n      swap2\n      swap1\n      dup2\n      dup2\n      mstore\n      0x20\n      add\n      0x00\n      swap1\n    tag_310:\n      dup3\n      dup3\n      lt\n      iszero\n      tag_311\n      jumpi\n      dup4\n      dup3\n      swap1\n      0x00\n      mstore\n      keccak256(0x00, 0x20)\n      swap1\n      0x02\n      mul\n      add\n      mload(0x40)\n      dup1\n      0x60\n      add\n      0x40\n      mstore\n      swap1\n      dup2\n      0x00\n      dup3\n      add\n      dup1\n      sload\n      tag_313\n      swap1\n      tag_72\n      jump\t// in\n    tag_313:\n      dup1\n      0x1f\n      add\n      0x20\n      dup1\n      swap2\n      div\n      mul\n      0x20\n      add\n      mload(0x40)\n      swap1\n      dup2\n      add\n      0x40\n      mstore\n      dup1\n      swap3\n      swap2\n      swap1\n      dup2\n      dup2\n      mstore\n      0x20\n      add\n      dup3\n      dup1\n      sload\n      tag_314\n      swap1\n      tag_72\n      jump\t// in\n    tag_314:\n      dup1\n      iszero\n      tag_315\n      jumpi\n      dup1\n      0x1f\n      lt\n      tag_316\n      jumpi\n      0x0100\n      dup1\n      dup4\n      sload\n      div\n      mul\n      dup4\n      mstore\n      swap2\n      0x20\n      add\n      swap2\n      jump(tag_315)\n    tag_316:\n      dup3\n      add\n      swap2\n      swap1\n      0x00\n      mstore\n      keccak256(0x00, 0x20)\n      swap1\n    tag_317:\n      dup2\n      sload\n      dup2\n      mstore\n      swap1\n      0x01\n      add\n      swap1\n      0x20\n      add\n      dup1\n      dup4\n      gt\n      tag_317\n      jumpi\n      dup3\n      swap1\n      sub\n      0x1f\n      and\n      dup3\n      add\n      swap2\n    tag_315:\n      pop\n      pop\n      pop\n      pop\n      pop\n      dup2\n      mstore\n      0x20\n      add\n      0x01\n      dup3\n      add\n      0x00\n      swap1\n      sload\n      swap1\n      0x0100\n      exp\n      swap1\n      div\n      0xffffffffffffffffffffffffffffffffffffffff\n      and\n      0xffffffffffffffffffffffffffffffffffffffff\n      and\n      0xffffffffffffffffffffffffffffffffffffffff\n      and\n      dup2\n      mstore\n      0x20\n      add\n      0x01\n      dup3\n      add\n      0x14\n      swap1\n      sload\n      swap1\n      0x0100\n      exp\n      swap1\n      div\n      0xff\n      and\n      iszero\n      iszero\n      iszero\n      iszero\n      dup2\n      mstore\n      pop\n      pop\n      dup2\n      mstore\n      0x20\n      add\n      swap1\n      0x01\n      add\n      swap1\n      jump(tag_310)\n    tag_311:\n      pop\n      pop\n      pop\n      pop\n      dup2\n      mstore\n      pop\n      pop\n      dup2\n      mstore\n      0x20\n      add\n      swap1\n      0x01\n      add\n      swap1\n      jump(tag_292)\n    tag_293:\n      pop\n      pop\n      pop\n      pop\n      swap1\n      pop\n      jump(tag_290)\n        /* \"Contract.sol\":4635:4767  if (request == true) {... */\n    tag_291:\n        /* \"Contract.sol\":4741:4755  arrayOfMembers */\n      0x0b\n        /* \"Contract.sol\":4734:4755  return arrayOfMembers */\n      dup1\n      sload\n      dup1\n      0x20\n      mul\n      0x20\n      add\n      mload(0x40)\n      swap1\n      dup2\n      add\n      0x40\n      mstore\n      dup1\n      swap3\n      swap2\n      swap1\n      dup2\n      dup2\n      mstore\n      0x20\n      add\n      0x00\n      swap1\n    tag_319:\n      dup3\n      dup3\n      lt\n      iszero\n      tag_320\n      jumpi\n      dup4\n      dup3\n      swap1\n      0x00\n      mstore\n      keccak256(0x00, 0x20)\n      swap1\n      0x06\n      mul\n      add\n      mload(0x40)\n      dup1\n      0xc0\n      add\n      0x40\n      mstore\n      swap1\n      dup2\n      0x00\n      dup3\n      add\n      dup1\n      sload\n      tag_322\n      swap1\n      tag_72\n      jump\t// in\n    tag_322:\n      dup1\n      0x1f\n      add\n      0x20\n      dup1\n      swap2\n      div\n      mul\n      0x20\n      add\n      mload(0x40)\n      swap1\n      dup2\n      add\n      0x40\n      mstore\n      dup1\n      swap3\n      swap2\n      swap1\n      dup2\n      dup2\n      mstore\n      0x20\n      add\n      dup3\n      dup1\n      sload\n      tag_323\n      swap1\n      tag_72\n      jump\t// in\n    tag_323:\n      dup1\n      iszero\n      tag_324\n      jumpi\n      dup1\n      0x1f\n      lt\n      tag_325\n      jumpi\n      0x0100\n      dup1\n      dup4\n      sload\n      div\n      mul\n      dup4\n      mstore\n      swap2\n      0x20\n      add\n      swap2\n      jump(tag_324)\n    tag_325:\n      dup3\n      add\n      swap2\n      swap1\n      0x00\n      mstore\n      keccak256(0x00, 0x20)\n      swap1\n    tag_326:\n      dup2\n      sload\n      dup2\n      mstore\n      swap1\n      0x01\n      add\n      swap1\n      0x20\n      add\n      dup1\n      dup4\n      gt\n      tag_326\n      jumpi\n      dup3\n      swap1\n      sub\n      0x1f\n      and\n      dup3\n      add\n      swap2\n    tag_324:\n      pop\n      pop\n      pop\n      pop\n      pop\n      dup2\n      mstore\n      0x20\n      add\n      0x01\n      dup3\n      add\n      dup1\n      sload\n      tag_327\n      swap1\n      tag_72\n      jump\t// in\n    tag_327:\n      dup1\n      0x1f\n      add\n      0x20\n      dup1\n      swap2\n      div\n      mul\n      0x20\n      add\n      mload(0x40)\n      swap1\n      dup2\n      add\n      0x40\n      mstore\n      dup1\n      swap3\n      swap2\n      swap1\n      dup2\n      dup2\n      mstore\n      0x20\n      add\n      dup3\n      dup1\n      sload\n      tag_328\n      swap1\n      tag_72\n      jump\t// in\n    tag_328:\n      dup1\n      iszero\n      tag_329\n      jumpi\n      dup1\n      0x1f\n      lt\n      tag_330\n      jumpi\n      0x0100\n      dup1\n      dup4\n      sload\n      div\n      mul\n      dup4\n      mstore\n      swap2\n      0x20\n      add\n      swap2\n      jump(tag_329)\n    tag_330:\n      dup3\n      add\n      swap2\n      swap1\n      0x00\n      mstore\n      keccak256(0x00, 0x20)\n      swap1\n    tag_331:\n      dup2\n      sload\n      dup2\n      mstore\n      swap1\n      0x01\n      add\n      swap1\n      0x20\n      add\n      dup1\n      dup4\n      gt\n      tag_331\n      jumpi\n      dup3\n      swap1\n      sub\n      0x1f\n      and\n      dup3\n      add\n      swap2\n    tag_329:\n      pop\n      pop\n      pop\n      pop\n      pop\n      dup2\n      mstore\n      0x20\n      add\n      0x02\n      dup3\n      add\n      dup1\n      sload\n      tag_332\n      swap1\n      tag_72\n      jump\t// in\n    tag_332:\n      dup1\n      0x1f\n      add\n      0x20\n      dup1\n      swap2\n      div\n      mul\n      0x20\n      add\n      mload(0x40)\n      swap1\n      dup2\n      add\n      0x40\n      mstore\n      dup1\n      swap3\n      swap2\n      swap1\n      dup2\n      dup2\n      mstore\n      0x20\n      add\n      dup3\n      dup1\n      sload\n      tag_333\n      swap1\n      tag_72\n      jump\t// in\n    tag_333:\n      dup1\n      iszero\n      tag_334\n      jumpi\n      dup1\n      0x1f\n      lt\n      tag_335\n      jumpi\n      0x0100\n      dup1\n      dup4\n      sload\n      div\n      mul\n      dup4\n      mstore\n      swap2\n      0x20\n      add\n      swap2\n      jump(tag_334)\n    tag_335:\n      dup3\n      add\n      swap2\n      swap1\n      0x00\n      mstore\n      keccak256(0x00, 0x20)\n      swap1\n    tag_336:\n      dup2\n      sload\n      dup2\n      mstore\n      swap1\n      0x01\n      add\n      swap1\n      0x20\n      add\n      dup1\n      dup4\n      gt\n      tag_336\n      jumpi\n      dup3\n      swap1\n      sub\n      0x1f\n      and\n      dup3\n      add\n      swap2\n    tag_334:\n      pop\n      pop\n      pop\n      pop\n      pop\n      dup2\n      mstore\n      0x20\n      add\n      0x03\n      dup3\n      add\n      0x00\n      swap1\n      sload\n      swap1\n      0x0100\n      exp\n      swap1\n      div\n      0xffffffffffffffffffffffffffffffffffffffff\n      and\n      0xffffffffffffffffffffffffffffffffffffffff\n      and\n      0xffffffffffffffffffffffffffffffffffffffff\n      and\n      dup2\n      mstore\n      0x20\n      add\n      0x04\n      dup3\n      add\n      sload\n      dup2\n      mstore\n      0x20\n      add\n      0x05\n      dup3\n      add\n      dup1\n      sload\n      dup1\n      0x20\n      mul\n      0x20\n      add\n      mload(0x40)\n      swap1\n      dup2\n      add\n      0x40\n      mstore\n      dup1\n      swap3\n      swap2\n      swap1\n      dup2\n      dup2\n      mstore\n      0x20\n      add\n      0x00\n      swap1\n    tag_337:\n      dup3\n      dup3\n      lt\n      iszero\n      tag_338\n      jumpi\n      dup4\n      dup3\n      swap1\n      0x00\n      mstore\n      keccak256(0x00, 0x20)\n      swap1\n      0x02\n      mul\n      add\n      mload(0x40)\n      dup1\n      0x60\n      add\n      0x40\n      mstore\n      swap1\n      dup2\n      0x00\n      dup3\n      add\n      dup1\n      sload\n      tag_340\n      swap1\n      tag_72\n      jump\t// in\n    tag_340:\n      dup1\n      0x1f\n      add\n      0x20\n      dup1\n      swap2\n      div\n      mul\n      0x20\n      add\n      mload(0x40)\n      swap1\n      dup2\n      add\n      0x40\n      mstore\n      dup1\n      swap3\n      swap2\n      swap1\n      dup2\n      dup2\n      mstore\n      0x20\n      add\n      dup3\n      dup1\n      sload\n      tag_341\n      swap1\n      tag_72\n      jump\t// in\n    tag_341:\n      dup1\n      iszero\n      tag_342\n      jumpi\n      dup1\n      0x1f\n      lt\n      tag_343\n      jumpi\n      0x0100\n      dup1\n      dup4\n      sload\n      div\n      mul\n      dup4\n      mstore\n      swap2\n      0x20\n      add\n      swap2\n      jump(tag_342)\n    tag_343:\n      dup3\n      add\n      swap2\n      swap1\n      0x00\n      mstore\n      keccak256(0x00, 0x20)\n      swap1\n    tag_344:\n      dup2\n      sload\n      dup2\n      mstore\n      swap1\n      0x01\n      add\n      swap1\n      0x20\n      add\n      dup1\n      dup4\n      gt\n      tag_344\n      jumpi\n      dup3\n      swap1\n      sub\n      0x1f\n      and\n      dup3\n      add\n      swap2\n    tag_342:\n      pop\n      pop\n      pop\n      pop\n      pop\n      dup2\n      mstore\n      0x20\n      add\n      0x01\n      dup3\n      add\n      0x00\n      swap1\n      sload\n      swap1\n      0x0100\n      exp\n      swap1\n      div\n      0xffffffffffffffffffffffffffffffffffffffff\n      and\n      0xffffffffffffffffffffffffffffffffffffffff\n      and\n      0xffffffffffffffffffffffffffffffffffffffff\n      and\n      dup2\n      mstore\n      0x20\n      add\n      0x01\n      dup3\n      add\n      0x14\n      swap1\n      sload\n      swap1\n      0x0100\n      exp\n      swap1\n      div\n      0xff\n      and\n      iszero\n      iszero\n      iszero\n      iszero\n      dup2\n      mstore\n      pop\n      pop\n      dup2\n      mstore\n      0x20\n      add\n      swap1\n      0x01\n      add\n      swap1\n      jump(tag_337)\n    tag_338:\n      pop\n      pop\n      pop\n      pop\n      dup2\n      mstore\n      pop\n      pop\n      dup2\n      mstore\n      0x20\n      add\n      swap1\n      0x01\n      add\n      swap1\n      jump(tag_319)\n    tag_320:\n      pop\n      pop\n      pop\n      pop\n      swap1\n      pop\n        /* \"Contract.sol\":4496:4774  function getApprovedOrRequestedMember(bool request)... */\n    tag_290:\n      swap2\n      swap1\n      pop\n      jump\t// out\n        /* \"Contract.sol\":9620:9906  function removeRequest(address _userAddress) internal {... */\n    tag_289:\n        /* \"Contract.sol\":9685:9698  uint256 index */\n      0x00\n        /* \"Contract.sol\":9701:9717  indexFromRequest */\n      0x08\n        /* \"Contract.sol\":9701:9731  indexFromRequest[_userAddress] */\n      0x00\n        /* \"Contract.sol\":9718:9730  _userAddress */\n      dup4\n        /* \"Contract.sol\":9701:9731  indexFromRequest[_userAddress] */\n      0xffffffffffffffffffffffffffffffffffffffff\n      and\n      0xffffffffffffffffffffffffffffffffffffffff\n      and\n      dup2\n      mstore\n      0x20\n      add\n      swap1\n      dup2\n      mstore\n      0x20\n      add\n      0x00\n      keccak256\n      sload\n        /* \"Contract.sol\":9685:9731  uint256 index = indexFromRequest[_userAddress] */\n      swap1\n      pop\n        /* \"Contract.sol\":9775:9798  arrayOfRequestedMembers */\n      0x0e\n        /* \"Contract.sol\":9846:9847  1 */\n      0x01\n        /* \"Contract.sol\":9813:9836  arrayOfRequestedMembers */\n      0x0e\n        /* \"Contract.sol\":9813:9843  arrayOfRequestedMembers.length */\n      dup1\n      sload\n      swap1\n      pop\n        /* \"Contract.sol\":9813:9847  arrayOfRequestedMembers.length - 1 */\n      tag_346\n      swap2\n      swap1\n      tag_347\n      jump\t// in\n    tag_346:\n        /* \"Contract.sol\":9775:9858  arrayOfRequestedMembers[... */\n      dup2\n      sload\n      dup2\n      lt\n      tag_348\n      jumpi\n      tag_349\n      tag_350\n      jump\t// in\n    tag_349:\n    tag_348:\n      swap1\n      0x00\n      mstore\n      keccak256(0x00, 0x20)\n      swap1\n      0x06\n      mul\n      add\n        /* \"Contract.sol\":9742:9765  arrayOfRequestedMembers */\n      0x0e\n        /* \"Contract.sol\":9766:9771  index */\n      dup3\n        /* \"Contract.sol\":9742:9772  arrayOfRequestedMembers[index] */\n      dup2\n      sload\n      dup2\n      lt\n      tag_352\n      jumpi\n      tag_353\n      tag_350\n      jump\t// in\n    tag_353:\n    tag_352:\n      swap1\n      0x00\n      mstore\n      keccak256(0x00, 0x20)\n      swap1\n      0x06\n      mul\n      add\n        /* \"Contract.sol\":9742:9858  arrayOfRequestedMembers[index] = arrayOfRequestedMembers[... */\n      0x00\n      dup3\n      add\n      dup2\n      0x00\n      add\n      swap1\n      dup2\n      tag_355\n      swap2\n      swap1\n      tag_104\n      jump\t// in\n    tag_355:\n      pop\n      0x01\n      dup3\n      add\n      dup2\n      0x01\n      add\n      swap1\n      dup2\n      tag_356\n      swap2\n      swap1\n      tag_104\n      jump\t// in\n    tag_356:\n      pop\n      0x02\n      dup3\n      add\n      dup2\n      0x02\n      add\n      swap1\n      dup2\n      tag_357\n      swap2\n      swap1\n      tag_104\n      jump\t// in\n    tag_357:\n      pop\n      0x03\n      dup3\n      add\n      0x00\n      swap1\n      sload\n      swap1\n      0x0100\n      exp\n      swap1\n      div\n      0xffffffffffffffffffffffffffffffffffffffff\n      and\n      dup2\n      0x03\n      add\n      exp(0x0100, 0x00)\n      dup2\n      sload\n      dup2\n      0xffffffffffffffffffffffffffffffffffffffff\n      mul\n      not\n      and\n      swap1\n      dup4\n      0xffffffffffffffffffffffffffffffffffffffff\n      and\n      mul\n      or\n      swap1\n      sstore\n      pop\n      0x04\n      dup3\n      add\n      sload\n      dup2\n      0x04\n      add\n      sstore\n      0x05\n      dup3\n      add\n      dup2\n      0x05\n      add\n      swap1\n      dup1\n      sload\n      tag_358\n      swap3\n      swap2\n      swap1\n      tag_150\n      jump\t// in\n    tag_358:\n      pop\n      swap1\n      pop\n      pop\n        /* \"Contract.sol\":9869:9892  arrayOfRequestedMembers */\n      0x0e\n        /* \"Contract.sol\":9869:9898  arrayOfRequestedMembers.pop() */\n      dup1\n      sload\n      dup1\n      tag_359\n      jumpi\n      tag_360\n      tag_361\n      jump\t// in\n    tag_360:\n    tag_359:\n      0x01\n      swap1\n      sub\n      dup2\n      dup2\n      swap1\n      0x00\n      mstore\n      keccak256(0x00, 0x20)\n      swap1\n      0x06\n      mul\n      add\n      0x00\n      dup1\n      dup3\n      add\n      0x00\n      tag_363\n      swap2\n      swap1\n      tag_364\n      jump\t// in\n    tag_363:\n      0x01\n      dup3\n      add\n      0x00\n      tag_365\n      swap2\n      swap1\n      tag_364\n      jump\t// in\n    tag_365:\n      0x02\n      dup3\n      add\n      0x00\n      tag_366\n      swap2\n      swap1\n      tag_364\n      jump\t// in\n    tag_366:\n      0x03\n      dup3\n      add\n      exp(0x0100, 0x00)\n      dup2\n      sload\n      swap1\n      0xffffffffffffffffffffffffffffffffffffffff\n      mul\n      not\n      and\n      swap1\n      sstore\n      0x04\n      dup3\n      add\n      0x00\n      swap1\n      sstore\n      0x05\n      dup3\n      add\n      0x00\n      tag_367\n      swap2\n      swap1\n      tag_368\n      jump\t// in\n    tag_367:\n      pop\n      pop\n      swap1\n      sstore\n        /* \"Contract.sol\":9674:9906  {... */\n      pop\n        /* \"Contract.sol\":9620:9906  function removeRequest(address _userAddress) internal {... */\n      pop\n      jump\t// out\n    tag_150:\n      dup3\n      dup1\n      sload\n      dup3\n      dup3\n      sstore\n      swap1\n      0x00\n      mstore\n      keccak256(0x00, 0x20)\n      swap1\n      0x02\n      mul\n      dup2\n      add\n      swap3\n      dup3\n      iszero\n      tag_369\n      jumpi\n      0x00\n      mstore\n      keccak256(0x00, 0x20)\n      swap2\n      0x02\n      mul\n      dup3\n      add\n    tag_370:\n      dup3\n      dup2\n      gt\n      iszero\n      tag_371\n      jumpi\n      dup3\n      dup3\n      0x00\n      dup3\n      add\n      dup2\n      0x00\n      add\n      swap1\n      dup2\n      tag_372\n      swap2\n      swap1\n      tag_104\n      jump\t// in\n    tag_372:\n      pop\n      0x01\n      dup3\n      add\n      0x00\n      swap1\n      sload\n      swap1\n      0x0100\n      exp\n      swap1\n      div\n      0xffffffffffffffffffffffffffffffffffffffff\n      and\n      dup2\n      0x01\n      add\n      exp(0x0100, 0x00)\n      dup2\n      sload\n      dup2\n      0xffffffffffffffffffffffffffffffffffffffff\n      mul\n      not\n      and\n      swap1\n      dup4\n      0xffffffffffffffffffffffffffffffffffffffff\n      and\n      mul\n      or\n      swap1\n      sstore\n      pop\n      0x01\n      dup3\n      add\n      0x14\n      swap1\n      sload\n      swap1\n      0x0100\n      exp\n      swap1\n      div\n      0xff\n      and\n      dup2\n      0x01\n      add\n      exp(0x0100, 0x14)\n      dup2\n      sload\n      dup2\n      0xff\n      mul\n      not\n      and\n      swap1\n      dup4\n      iszero\n      iszero\n      mul\n      or\n      swap1\n      sstore\n      pop\n      pop\n      pop\n      swap2\n      0x02\n      add\n      swap2\n      swap1\n      0x02\n      add\n      swap1\n      jump(tag_370)\n    tag_371:\n    tag_369:\n      pop\n      swap1\n      pop\n      tag_373\n      swap2\n      swap1\n      tag_374\n      jump\t// in\n    tag_373:\n      pop\n      swap1\n      jump\t// out\n    tag_187:\n      mload(0x40)\n      dup1\n      0xc0\n      add\n      0x40\n      mstore\n      dup1\n      0x60\n      dup2\n      mstore\n      0x20\n      add\n      0x60\n      dup2\n      mstore\n      0x20\n      add\n      0x60\n      dup2\n      mstore\n      0x20\n      add\n      and(0xffffffffffffffffffffffffffffffffffffffff, 0x00)\n      dup2\n      mstore\n      0x20\n      add\n      0x00\n      dup2\n      mstore\n      0x20\n      add\n      0x60\n      dup2\n      mstore\n      pop\n      swap1\n      jump\t// out\n    tag_364:\n      pop\n      dup1\n      sload\n      tag_375\n      swap1\n      tag_72\n      jump\t// in\n    tag_375:\n      0x00\n      dup3\n      sstore\n      dup1\n      0x1f\n      lt\n      tag_377\n      jumpi\n      pop\n      jump(tag_376)\n    tag_377:\n      0x1f\n      add\n      0x20\n      swap1\n      div\n      swap1\n      0x00\n      mstore\n      keccak256(0x00, 0x20)\n      swap1\n      dup2\n      add\n      swap1\n      tag_378\n      swap2\n      swap1\n      tag_379\n      jump\t// in\n    tag_378:\n    tag_376:\n      pop\n      jump\t// out\n    tag_368:\n      pop\n      dup1\n      sload\n      0x00\n      dup3\n      sstore\n      0x02\n      mul\n      swap1\n      0x00\n      mstore\n      keccak256(0x00, 0x20)\n      swap1\n      dup2\n      add\n      swap1\n      tag_381\n      swap2\n      swap1\n      tag_374\n      jump\t// in\n    tag_381:\n      pop\n      jump\t// out\n    tag_374:\n    tag_382:\n      dup1\n      dup3\n      gt\n      iszero\n      tag_383\n      jumpi\n      0x00\n      dup1\n      dup3\n      add\n      0x00\n      tag_384\n      swap2\n      swap1\n      tag_364\n      jump\t// in\n    tag_384:\n      0x01\n      dup3\n      add\n      exp(0x0100, 0x00)\n      dup2\n      sload\n      swap1\n      0xffffffffffffffffffffffffffffffffffffffff\n      mul\n      not\n      and\n      swap1\n      sstore\n      0x01\n      dup3\n      add\n      exp(0x0100, 0x14)\n      dup2\n      sload\n      swap1\n      0xff\n      mul\n      not\n      and\n      swap1\n      sstore\n      pop\n      0x02\n      add\n      jump(tag_382)\n    tag_383:\n      pop\n      swap1\n      jump\t// out\n    tag_379:\n    tag_385:\n      dup1\n      dup3\n      gt\n      iszero\n      tag_386\n      jumpi\n      0x00\n      dup2\n      0x00\n      swap1\n      sstore\n      pop\n      0x01\n      add\n      jump(tag_385)\n    tag_386:\n      pop\n      swap1\n      jump\t// out\n        /* \"#utility.yul\":7:82   */\n    tag_387:\n        /* \"#utility.yul\":40:46   */\n      0x00\n        /* \"#utility.yul\":73:75   */\n      0x40\n        /* \"#utility.yul\":67:76   */\n      mload\n        /* \"#utility.yul\":57:76   */\n      swap1\n      pop\n        /* \"#utility.yul\":7:82   */\n      swap1\n      jump\t// out\n        /* \"#utility.yul\":88:205   */\n    tag_388:\n        /* \"#utility.yul\":197:198   */\n      0x00\n        /* \"#utility.yul\":194:195   */\n      dup1\n        /* \"#utility.yul\":187:199   */\n      revert\n        /* \"#utility.yul\":211:328   */\n    tag_389:\n        /* \"#utility.yul\":320:321   */\n      0x00\n        /* \"#utility.yul\":317:318   */\n      dup1\n        /* \"#utility.yul\":310:322   */\n      revert\n        /* \"#utility.yul\":334:424   */\n    tag_390:\n        /* \"#utility.yul\":368:375   */\n      0x00\n        /* \"#utility.yul\":411:416   */\n      dup2\n        /* \"#utility.yul\":404:417   */\n      iszero\n        /* \"#utility.yul\":397:418   */\n      iszero\n        /* \"#utility.yul\":386:418   */\n      swap1\n      pop\n        /* \"#utility.yul\":334:424   */\n      swap2\n      swap1\n      pop\n      jump\t// out\n        /* \"#utility.yul\":430:546   */\n    tag_391:\n        /* \"#utility.yul\":500:521   */\n      tag_478\n        /* \"#utility.yul\":515:520   */\n      dup2\n        /* \"#utility.yul\":500:521   */\n      tag_390\n      jump\t// in\n    tag_478:\n        /* \"#utility.yul\":493:498   */\n      dup2\n        /* \"#utility.yul\":490:522   */\n      eq\n        /* \"#utility.yul\":480:540   */\n      tag_479\n      jumpi\n        /* \"#utility.yul\":536:537   */\n      0x00\n        /* \"#utility.yul\":533:534   */\n      dup1\n        /* \"#utility.yul\":526:538   */\n      revert\n        /* \"#utility.yul\":480:540   */\n    tag_479:\n        /* \"#utility.yul\":430:546   */\n      pop\n      jump\t// out\n        /* \"#utility.yul\":552:685   */\n    tag_392:\n        /* \"#utility.yul\":595:600   */\n      0x00\n        /* \"#utility.yul\":633:639   */\n      dup2\n        /* \"#utility.yul\":620:640   */\n      calldataload\n        /* \"#utility.yul\":611:640   */\n      swap1\n      pop\n        /* \"#utility.yul\":649:679   */\n      tag_481\n        /* \"#utility.yul\":673:678   */\n      dup2\n        /* \"#utility.yul\":649:679   */\n      tag_391\n      jump\t// in\n    tag_481:\n        /* \"#utility.yul\":552:685   */\n      swap3\n      swap2\n      pop\n      pop\n      jump\t// out\n        /* \"#utility.yul\":691:1014   */\n    tag_16:\n        /* \"#utility.yul\":747:753   */\n      0x00\n        /* \"#utility.yul\":796:798   */\n      0x20\n        /* \"#utility.yul\":784:793   */\n      dup3\n        /* \"#utility.yul\":775:782   */\n      dup5\n        /* \"#utility.yul\":771:794   */\n      sub\n        /* \"#utility.yul\":767:799   */\n      slt\n        /* \"#utility.yul\":764:883   */\n      iszero\n      tag_483\n      jumpi\n        /* \"#utility.yul\":802:881   */\n      tag_484\n      tag_388\n      jump\t// in\n    tag_484:\n        /* \"#utility.yul\":764:883   */\n    tag_483:\n        /* \"#utility.yul\":922:923   */\n      0x00\n        /* \"#utility.yul\":947:997   */\n      tag_485\n        /* \"#utility.yul\":989:996   */\n      dup5\n        /* \"#utility.yul\":980:986   */\n      dup3\n        /* \"#utility.yul\":969:978   */\n      dup6\n        /* \"#utility.yul\":965:987   */\n      add\n        /* \"#utility.yul\":947:997   */\n      tag_392\n      jump\t// in\n    tag_485:\n        /* \"#utility.yul\":937:997   */\n      swap2\n      pop\n        /* \"#utility.yul\":893:1007   */\n      pop\n        /* \"#utility.yul\":691:1014   */\n      swap3\n      swap2\n      pop\n      pop\n      jump\t// out\n        /* \"#utility.yul\":1020:1163   */\n    tag_393:\n        /* \"#utility.yul\":1116:1122   */\n      0x00\n        /* \"#utility.yul\":1150:1155   */\n      dup2\n        /* \"#utility.yul\":1144:1156   */\n      mload\n        /* \"#utility.yul\":1134:1156   */\n      swap1\n      pop\n        /* \"#utility.yul\":1020:1163   */\n      swap2\n      swap1\n      pop\n      jump\t// out\n        /* \"#utility.yul\":1169:1382   */\n    tag_394:\n        /* \"#utility.yul\":1297:1308   */\n      0x00\n        /* \"#utility.yul\":1331:1337   */\n      dup3\n        /* \"#utility.yul\":1326:1329   */\n      dup3\n        /* \"#utility.yul\":1319:1338   */\n      mstore\n        /* \"#utility.yul\":1371:1375   */\n      0x20\n        /* \"#utility.yul\":1366:1369   */\n      dup3\n        /* \"#utility.yul\":1362:1376   */\n      add\n        /* \"#utility.yul\":1347:1376   */\n      swap1\n      pop\n        /* \"#utility.yul\":1169:1382   */\n      swap3\n      swap2\n      pop\n      pop\n      jump\t// out\n        /* \"#utility.yul\":1388:1549   */\n    tag_395:\n        /* \"#utility.yul\":1484:1488   */\n      0x00\n        /* \"#utility.yul\":1507:1510   */\n      dup2\n        /* \"#utility.yul\":1499:1510   */\n      swap1\n      pop\n        /* \"#utility.yul\":1537:1541   */\n      0x20\n        /* \"#utility.yul\":1532:1535   */\n      dup3\n        /* \"#utility.yul\":1528:1542   */\n      add\n        /* \"#utility.yul\":1520:1542   */\n      swap1\n      pop\n        /* \"#utility.yul\":1388:1549   */\n      swap2\n      swap1\n      pop\n      jump\t// out\n        /* \"#utility.yul\":1555:1654   */\n    tag_396:\n        /* \"#utility.yul\":1607:1613   */\n      0x00\n        /* \"#utility.yul\":1641:1646   */\n      dup2\n        /* \"#utility.yul\":1635:1647   */\n      mload\n        /* \"#utility.yul\":1625:1647   */\n      swap1\n      pop\n        /* \"#utility.yul\":1555:1654   */\n      swap2\n      swap1\n      pop\n      jump\t// out\n        /* \"#utility.yul\":1660:1819   */\n    tag_397:\n        /* \"#utility.yul\":1734:1745   */\n      0x00\n        /* \"#utility.yul\":1768:1774   */\n      dup3\n        /* \"#utility.yul\":1763:1766   */\n      dup3\n        /* \"#utility.yul\":1756:1775   */\n      mstore\n        /* \"#utility.yul\":1808:1812   */\n      0x20\n        /* \"#utility.yul\":1803:1806   */\n      dup3\n        /* \"#utility.yul\":1799:1813   */\n      add\n        /* \"#utility.yul\":1784:1813   */\n      swap1\n      pop\n        /* \"#utility.yul\":1660:1819   */\n      swap3\n      swap2\n      pop\n      pop\n      jump\t// out\n        /* \"#utility.yul\":1825:2071   */\n    tag_398:\n        /* \"#utility.yul\":1906:1907   */\n      0x00\n        /* \"#utility.yul\":1916:2029   */\n    tag_492:\n        /* \"#utility.yul\":1930:1936   */\n      dup4\n        /* \"#utility.yul\":1927:1928   */\n      dup2\n        /* \"#utility.yul\":1924:1937   */\n      lt\n        /* \"#utility.yul\":1916:2029   */\n      iszero\n      tag_494\n      jumpi\n        /* \"#utility.yul\":2015:2016   */\n      dup1\n        /* \"#utility.yul\":2010:2013   */\n      dup3\n        /* \"#utility.yul\":2006:2017   */\n      add\n        /* \"#utility.yul\":2000:2018   */\n      mload\n        /* \"#utility.yul\":1996:1997   */\n      dup2\n        /* \"#utility.yul\":1991:1994   */\n      dup5\n        /* \"#utility.yul\":1987:1998   */\n      add\n        /* \"#utility.yul\":1980:2019   */\n      mstore\n        /* \"#utility.yul\":1952:1954   */\n      0x20\n        /* \"#utility.yul\":1949:1950   */\n      dup2\n        /* \"#utility.yul\":1945:1955   */\n      add\n        /* \"#utility.yul\":1940:1955   */\n      swap1\n      pop\n        /* \"#utility.yul\":1916:2029   */\n      jump(tag_492)\n    tag_494:\n        /* \"#utility.yul\":2063:2064   */\n      0x00\n        /* \"#utility.yul\":2054:2060   */\n      dup5\n        /* \"#utility.yul\":2049:2052   */\n      dup5\n        /* \"#utility.yul\":2045:2061   */\n      add\n        /* \"#utility.yul\":2038:2065   */\n      mstore\n        /* \"#utility.yul\":1887:2071   */\n      pop\n        /* \"#utility.yul\":1825:2071   */\n      pop\n      pop\n      pop\n      jump\t// out\n        /* \"#utility.yul\":2077:2179   */\n    tag_399:\n        /* \"#utility.yul\":2118:2124   */\n      0x00\n        /* \"#utility.yul\":2169:2171   */\n      0x1f\n        /* \"#utility.yul\":2165:2172   */\n      not\n        /* \"#utility.yul\":2160:2162   */\n      0x1f\n        /* \"#utility.yul\":2153:2158   */\n      dup4\n        /* \"#utility.yul\":2149:2163   */\n      add\n        /* \"#utility.yul\":2145:2173   */\n      and\n        /* \"#utility.yul\":2135:2173   */\n      swap1\n      pop\n        /* \"#utility.yul\":2077:2179   */\n      swap2\n      swap1\n      pop\n      jump\t// out\n        /* \"#utility.yul\":2185:2542   */\n    tag_400:\n        /* \"#utility.yul\":2263:2266   */\n      0x00\n        /* \"#utility.yul\":2291:2330   */\n      tag_497\n        /* \"#utility.yul\":2324:2329   */\n      dup3\n        /* \"#utility.yul\":2291:2330   */\n      tag_396\n      jump\t// in\n    tag_497:\n        /* \"#utility.yul\":2346:2407   */\n      tag_498\n        /* \"#utility.yul\":2400:2406   */\n      dup2\n        /* \"#utility.yul\":2395:2398   */\n      dup6\n        /* \"#utility.yul\":2346:2407   */\n      tag_397\n      jump\t// in\n    tag_498:\n        /* \"#utility.yul\":2339:2407   */\n      swap4\n      pop\n        /* \"#utility.yul\":2416:2481   */\n      tag_499\n        /* \"#utility.yul\":2474:2480   */\n      dup2\n        /* \"#utility.yul\":2469:2472   */\n      dup6\n        /* \"#utility.yul\":2462:2466   */\n      0x20\n        /* \"#utility.yul\":2455:2460   */\n      dup7\n        /* \"#utility.yul\":2451:2467   */\n      add\n        /* \"#utility.yul\":2416:2481   */\n      tag_398\n      jump\t// in\n    tag_499:\n        /* \"#utility.yul\":2506:2535   */\n      tag_500\n        /* \"#utility.yul\":2528:2534   */\n      dup2\n        /* \"#utility.yul\":2506:2535   */\n      tag_399\n      jump\t// in\n    tag_500:\n        /* \"#utility.yul\":2501:2504   */\n      dup5\n        /* \"#utility.yul\":2497:2536   */\n      add\n        /* \"#utility.yul\":2490:2536   */\n      swap2\n      pop\n        /* \"#utility.yul\":2267:2542   */\n      pop\n        /* \"#utility.yul\":2185:2542   */\n      swap3\n      swap2\n      pop\n      pop\n      jump\t// out\n        /* \"#utility.yul\":2548:2674   */\n    tag_401:\n        /* \"#utility.yul\":2585:2592   */\n      0x00\n        /* \"#utility.yul\":2625:2667   */\n      0xffffffffffffffffffffffffffffffffffffffff\n        /* \"#utility.yul\":2618:2623   */\n      dup3\n        /* \"#utility.yul\":2614:2668   */\n      and\n        /* \"#utility.yul\":2603:2668   */\n      swap1\n      pop\n        /* \"#utility.yul\":2548:2674   */\n      swap2\n      swap1\n      pop\n      jump\t// out\n        /* \"#utility.yul\":2680:2776   */\n    tag_402:\n        /* \"#utility.yul\":2717:2724   */\n      0x00\n        /* \"#utility.yul\":2746:2770   */\n      tag_503\n        /* \"#utility.yul\":2764:2769   */\n      dup3\n        /* \"#utility.yul\":2746:2770   */\n      tag_401\n      jump\t// in\n    tag_503:\n        /* \"#utility.yul\":2735:2770   */\n      swap1\n      pop\n        /* \"#utility.yul\":2680:2776   */\n      swap2\n      swap1\n      pop\n      jump\t// out\n        /* \"#utility.yul\":2782:2890   */\n    tag_403:\n        /* \"#utility.yul\":2859:2883   */\n      tag_505\n        /* \"#utility.yul\":2877:2882   */\n      dup2\n        /* \"#utility.yul\":2859:2883   */\n      tag_402\n      jump\t// in\n    tag_505:\n        /* \"#utility.yul\":2854:2857   */\n      dup3\n        /* \"#utility.yul\":2847:2884   */\n      mstore\n        /* \"#utility.yul\":2782:2890   */\n      pop\n      pop\n      jump\t// out\n        /* \"#utility.yul\":2896:2995   */\n    tag_404:\n        /* \"#utility.yul\":2967:2988   */\n      tag_507\n        /* \"#utility.yul\":2982:2987   */\n      dup2\n        /* \"#utility.yul\":2967:2988   */\n      tag_390\n      jump\t// in\n    tag_507:\n        /* \"#utility.yul\":2962:2965   */\n      dup3\n        /* \"#utility.yul\":2955:2989   */\n      mstore\n        /* \"#utility.yul\":2896:2995   */\n      pop\n      pop\n      jump\t// out\n        /* \"#utility.yul\":3071:3859   */\n    tag_405:\n        /* \"#utility.yul\":3188:3191   */\n      0x00\n        /* \"#utility.yul\":3224:3228   */\n      0x60\n        /* \"#utility.yul\":3219:3222   */\n      dup4\n        /* \"#utility.yul\":3215:3229   */\n      add\n        /* \"#utility.yul\":3315:3319   */\n      0x00\n        /* \"#utility.yul\":3308:3313   */\n      dup4\n        /* \"#utility.yul\":3304:3320   */\n      add\n        /* \"#utility.yul\":3298:3321   */\n      mload\n        /* \"#utility.yul\":3368:3371   */\n      dup5\n        /* \"#utility.yul\":3362:3366   */\n      dup3\n        /* \"#utility.yul\":3358:3372   */\n      sub\n        /* \"#utility.yul\":3351:3355   */\n      0x00\n        /* \"#utility.yul\":3346:3349   */\n      dup7\n        /* \"#utility.yul\":3342:3356   */\n      add\n        /* \"#utility.yul\":3335:3373   */\n      mstore\n        /* \"#utility.yul\":3394:3467   */\n      tag_509\n        /* \"#utility.yul\":3462:3466   */\n      dup3\n        /* \"#utility.yul\":3448:3460   */\n      dup3\n        /* \"#utility.yul\":3394:3467   */\n      tag_400\n      jump\t// in\n    tag_509:\n        /* \"#utility.yul\":3386:3467   */\n      swap2\n      pop\n        /* \"#utility.yul\":3239:3478   */\n      pop\n        /* \"#utility.yul\":3567:3571   */\n      0x20\n        /* \"#utility.yul\":3560:3565   */\n      dup4\n        /* \"#utility.yul\":3556:3572   */\n      add\n        /* \"#utility.yul\":3550:3573   */\n      mload\n        /* \"#utility.yul\":3586:3649   */\n      tag_510\n        /* \"#utility.yul\":3643:3647   */\n      0x20\n        /* \"#utility.yul\":3638:3641   */\n      dup7\n        /* \"#utility.yul\":3634:3648   */\n      add\n        /* \"#utility.yul\":3620:3632   */\n      dup3\n        /* \"#utility.yul\":3586:3649   */\n      tag_403\n      jump\t// in\n    tag_510:\n        /* \"#utility.yul\":3488:3659   */\n      pop\n        /* \"#utility.yul\":3746:3750   */\n      0x40\n        /* \"#utility.yul\":3739:3744   */\n      dup4\n        /* \"#utility.yul\":3735:3751   */\n      add\n        /* \"#utility.yul\":3729:3752   */\n      mload\n        /* \"#utility.yul\":3765:3822   */\n      tag_511\n        /* \"#utility.yul\":3816:3820   */\n      0x40\n        /* \"#utility.yul\":3811:3814   */\n      dup7\n        /* \"#utility.yul\":3807:3821   */\n      add\n        /* \"#utility.yul\":3793:3805   */\n      dup3\n        /* \"#utility.yul\":3765:3822   */\n      tag_404\n      jump\t// in\n    tag_511:\n        /* \"#utility.yul\":3669:3832   */\n      pop\n        /* \"#utility.yul\":3849:3853   */\n      dup1\n        /* \"#utility.yul\":3842:3853   */\n      swap2\n      pop\n        /* \"#utility.yul\":3193:3859   */\n      pop\n        /* \"#utility.yul\":3071:3859   */\n      swap3\n      swap2\n      pop\n      pop\n      jump\t// out\n        /* \"#utility.yul\":3865:4137   */\n    tag_406:\n        /* \"#utility.yul\":3992:4002   */\n      0x00\n        /* \"#utility.yul\":4027:4131   */\n      tag_513\n        /* \"#utility.yul\":4127:4130   */\n      dup4\n        /* \"#utility.yul\":4119:4125   */\n      dup4\n        /* \"#utility.yul\":4027:4131   */\n      tag_405\n      jump\t// in\n    tag_513:\n        /* \"#utility.yul\":4013:4131   */\n      swap1\n      pop\n        /* \"#utility.yul\":3865:4137   */\n      swap3\n      swap2\n      pop\n      pop\n      jump\t// out\n        /* \"#utility.yul\":4143:4285   */\n    tag_407:\n        /* \"#utility.yul\":4242:4246   */\n      0x00\n        /* \"#utility.yul\":4274:4278   */\n      0x20\n        /* \"#utility.yul\":4269:4272   */\n      dup3\n        /* \"#utility.yul\":4265:4279   */\n      add\n        /* \"#utility.yul\":4257:4279   */\n      swap1\n      pop\n        /* \"#utility.yul\":4143:4285   */\n      swap2\n      swap1\n      pop\n      jump\t// out\n        /* \"#utility.yul\":4365:5508   */\n    tag_408:\n        /* \"#utility.yul\":4542:4545   */\n      0x00\n        /* \"#utility.yul\":4571:4654   */\n      tag_516\n        /* \"#utility.yul\":4648:4653   */\n      dup3\n        /* \"#utility.yul\":4571:4654   */\n      tag_393\n      jump\t// in\n    tag_516:\n        /* \"#utility.yul\":4670:4785   */\n      tag_517\n        /* \"#utility.yul\":4778:4784   */\n      dup2\n        /* \"#utility.yul\":4773:4776   */\n      dup6\n        /* \"#utility.yul\":4670:4785   */\n      tag_394\n      jump\t// in\n    tag_517:\n        /* \"#utility.yul\":4663:4785   */\n      swap4\n      pop\n        /* \"#utility.yul\":4811:4814   */\n      dup4\n        /* \"#utility.yul\":4856:4860   */\n      0x20\n        /* \"#utility.yul\":4848:4854   */\n      dup3\n        /* \"#utility.yul\":4844:4861   */\n      mul\n        /* \"#utility.yul\":4839:4842   */\n      dup6\n        /* \"#utility.yul\":4835:4862   */\n      add\n        /* \"#utility.yul\":4886:4971   */\n      tag_518\n        /* \"#utility.yul\":4965:4970   */\n      dup6\n        /* \"#utility.yul\":4886:4971   */\n      tag_395\n      jump\t// in\n    tag_518:\n        /* \"#utility.yul\":4994:5001   */\n      dup1\n        /* \"#utility.yul\":5025:5026   */\n      0x00\n        /* \"#utility.yul\":5010:5463   */\n    tag_519:\n        /* \"#utility.yul\":5035:5041   */\n      dup6\n        /* \"#utility.yul\":5032:5033   */\n      dup2\n        /* \"#utility.yul\":5029:5042   */\n      lt\n        /* \"#utility.yul\":5010:5463   */\n      iszero\n      tag_521\n      jumpi\n        /* \"#utility.yul\":5106:5115   */\n      dup5\n        /* \"#utility.yul\":5100:5104   */\n      dup5\n        /* \"#utility.yul\":5096:5116   */\n      sub\n        /* \"#utility.yul\":5091:5094   */\n      dup10\n        /* \"#utility.yul\":5084:5117   */\n      mstore\n        /* \"#utility.yul\":5157:5163   */\n      dup2\n        /* \"#utility.yul\":5151:5164   */\n      mload\n        /* \"#utility.yul\":5185:5307   */\n      tag_522\n        /* \"#utility.yul\":5302:5306   */\n      dup6\n        /* \"#utility.yul\":5287:5300   */\n      dup3\n        /* \"#utility.yul\":5185:5307   */\n      tag_406\n      jump\t// in\n    tag_522:\n        /* \"#utility.yul\":5177:5307   */\n      swap5\n      pop\n        /* \"#utility.yul\":5330:5419   */\n      tag_523\n        /* \"#utility.yul\":5412:5418   */\n      dup4\n        /* \"#utility.yul\":5330:5419   */\n      tag_407\n      jump\t// in\n    tag_523:\n        /* \"#utility.yul\":5320:5419   */\n      swap3\n      pop\n        /* \"#utility.yul\":5448:5452   */\n      0x20\n        /* \"#utility.yul\":5443:5446   */\n      dup11\n        /* \"#utility.yul\":5439:5453   */\n      add\n        /* \"#utility.yul\":5432:5453   */\n      swap10\n      pop\n        /* \"#utility.yul\":5070:5463   */\n      pop\n        /* \"#utility.yul\":5057:5058   */\n      0x01\n        /* \"#utility.yul\":5054:5055   */\n      dup2\n        /* \"#utility.yul\":5050:5059   */\n      add\n        /* \"#utility.yul\":5045:5059   */\n      swap1\n      pop\n        /* \"#utility.yul\":5010:5463   */\n      jump(tag_519)\n    tag_521:\n        /* \"#utility.yul\":5014:5028   */\n      pop\n        /* \"#utility.yul\":5479:5483   */\n      dup3\n        /* \"#utility.yul\":5472:5483   */\n      swap8\n      pop\n        /* \"#utility.yul\":5499:5502   */\n      dup8\n        /* \"#utility.yul\":5492:5502   */\n      swap6\n      pop\n        /* \"#utility.yul\":4547:5508   */\n      pop\n      pop\n      pop\n      pop\n      pop\n        /* \"#utility.yul\":4365:5508   */\n      swap3\n      swap2\n      pop\n      pop\n      jump\t// out\n        /* \"#utility.yul\":5514:6003   */\n    tag_19:\n        /* \"#utility.yul\":5715:5719   */\n      0x00\n        /* \"#utility.yul\":5753:5755   */\n      0x20\n        /* \"#utility.yul\":5742:5751   */\n      dup3\n        /* \"#utility.yul\":5738:5756   */\n      add\n        /* \"#utility.yul\":5730:5756   */\n      swap1\n      pop\n        /* \"#utility.yul\":5802:5811   */\n      dup2\n        /* \"#utility.yul\":5796:5800   */\n      dup2\n        /* \"#utility.yul\":5792:5812   */\n      sub\n        /* \"#utility.yul\":5788:5789   */\n      0x00\n        /* \"#utility.yul\":5777:5786   */\n      dup4\n        /* \"#utility.yul\":5773:5790   */\n      add\n        /* \"#utility.yul\":5766:5813   */\n      mstore\n        /* \"#utility.yul\":5830:5996   */\n      tag_525\n        /* \"#utility.yul\":5991:5995   */\n      dup2\n        /* \"#utility.yul\":5982:5988   */\n      dup5\n        /* \"#utility.yul\":5830:5996   */\n      tag_408\n      jump\t// in\n    tag_525:\n        /* \"#utility.yul\":5822:5996   */\n      swap1\n      pop\n        /* \"#utility.yul\":5514:6003   */\n      swap3\n      swap2\n      pop\n      pop\n      jump\t// out\n        /* \"#utility.yul\":6009:6131   */\n    tag_409:\n        /* \"#utility.yul\":6082:6106   */\n      tag_527\n        /* \"#utility.yul\":6100:6105   */\n      dup2\n        /* \"#utility.yul\":6082:6106   */\n      tag_402\n      jump\t// in\n    tag_527:\n        /* \"#utility.yul\":6075:6080   */\n      dup2\n        /* \"#utility.yul\":6072:6107   */\n      eq\n        /* \"#utility.yul\":6062:6125   */\n      tag_528\n      jumpi\n        /* \"#utility.yul\":6121:6122   */\n      0x00\n        /* \"#utility.yul\":6118:6119   */\n      dup1\n        /* \"#utility.yul\":6111:6123   */\n      revert\n        /* \"#utility.yul\":6062:6125   */\n    tag_528:\n        /* \"#utility.yul\":6009:6131   */\n      pop\n      jump\t// out\n        /* \"#utility.yul\":6137:6276   */\n    tag_410:\n        /* \"#utility.yul\":6183:6188   */\n      0x00\n        /* \"#utility.yul\":6221:6227   */\n      dup2\n        /* \"#utility.yul\":6208:6228   */\n      calldataload\n        /* \"#utility.yul\":6199:6228   */\n      swap1\n      pop\n        /* \"#utility.yul\":6237:6270   */\n      tag_530\n        /* \"#utility.yul\":6264:6269   */\n      dup2\n        /* \"#utility.yul\":6237:6270   */\n      tag_409\n      jump\t// in\n    tag_530:\n        /* \"#utility.yul\":6137:6276   */\n      swap3\n      swap2\n      pop\n      pop\n      jump\t// out\n        /* \"#utility.yul\":6282:6611   */\n    tag_23:\n        /* \"#utility.yul\":6341:6347   */\n      0x00\n        /* \"#utility.yul\":6390:6392   */\n      0x20\n        /* \"#utility.yul\":6378:6387   */\n      dup3\n        /* \"#utility.yul\":6369:6376   */\n      dup5\n        /* \"#utility.yul\":6365:6388   */\n      sub\n        /* \"#utility.yul\":6361:6393   */\n      slt\n        /* \"#utility.yul\":6358:6477   */\n      iszero\n      tag_532\n      jumpi\n        /* \"#utility.yul\":6396:6475   */\n      tag_533\n      tag_388\n      jump\t// in\n    tag_533:\n        /* \"#utility.yul\":6358:6477   */\n    tag_532:\n        /* \"#utility.yul\":6516:6517   */\n      0x00\n        /* \"#utility.yul\":6541:6594   */\n      tag_534\n        /* \"#utility.yul\":6586:6593   */\n      dup5\n        /* \"#utility.yul\":6577:6583   */\n      dup3\n        /* \"#utility.yul\":6566:6575   */\n      dup6\n        /* \"#utility.yul\":6562:6584   */\n      add\n        /* \"#utility.yul\":6541:6594   */\n      tag_410\n      jump\t// in\n    tag_534:\n        /* \"#utility.yul\":6531:6594   */\n      swap2\n      pop\n        /* \"#utility.yul\":6487:6604   */\n      pop\n        /* \"#utility.yul\":6282:6611   */\n      swap3\n      swap2\n      pop\n      pop\n      jump\t// out\n        /* \"#utility.yul\":6617:6726   */\n    tag_411:\n        /* \"#utility.yul\":6698:6719   */\n      tag_536\n        /* \"#utility.yul\":6713:6718   */\n      dup2\n        /* \"#utility.yul\":6698:6719   */\n      tag_390\n      jump\t// in\n    tag_536:\n        /* \"#utility.yul\":6693:6696   */\n      dup3\n        /* \"#utility.yul\":6686:6720   */\n      mstore\n        /* \"#utility.yul\":6617:6726   */\n      pop\n      pop\n      jump\t// out\n        /* \"#utility.yul\":6732:6942   */\n    tag_31:\n        /* \"#utility.yul\":6819:6823   */\n      0x00\n        /* \"#utility.yul\":6857:6859   */\n      0x20\n        /* \"#utility.yul\":6846:6855   */\n      dup3\n        /* \"#utility.yul\":6842:6860   */\n      add\n        /* \"#utility.yul\":6834:6860   */\n      swap1\n      pop\n        /* \"#utility.yul\":6870:6935   */\n      tag_538\n        /* \"#utility.yul\":6932:6933   */\n      0x00\n        /* \"#utility.yul\":6921:6930   */\n      dup4\n        /* \"#utility.yul\":6917:6934   */\n      add\n        /* \"#utility.yul\":6908:6914   */\n      dup5\n        /* \"#utility.yul\":6870:6935   */\n      tag_411\n      jump\t// in\n    tag_538:\n        /* \"#utility.yul\":6732:6942   */\n      swap3\n      swap2\n      pop\n      pop\n      jump\t// out\n        /* \"#utility.yul\":6948:7065   */\n    tag_412:\n        /* \"#utility.yul\":7057:7058   */\n      0x00\n        /* \"#utility.yul\":7054:7055   */\n      dup1\n        /* \"#utility.yul\":7047:7059   */\n      revert\n        /* \"#utility.yul\":7071:7188   */\n    tag_413:\n        /* \"#utility.yul\":7180:7181   */\n      0x00\n        /* \"#utility.yul\":7177:7178   */\n      dup1\n        /* \"#utility.yul\":7170:7182   */\n      revert\n        /* \"#utility.yul\":7194:7374   */\n    tag_414:\n        /* \"#utility.yul\":7242:7319   */\n      0x4e487b7100000000000000000000000000000000000000000000000000000000\n        /* \"#utility.yul\":7239:7240   */\n      0x00\n        /* \"#utility.yul\":7232:7320   */\n      mstore\n        /* \"#utility.yul\":7339:7343   */\n      0x41\n        /* \"#utility.yul\":7336:7337   */\n      0x04\n        /* \"#utility.yul\":7329:7344   */\n      mstore\n        /* \"#utility.yul\":7363:7367   */\n      0x24\n        /* \"#utility.yul\":7360:7361   */\n      0x00\n        /* \"#utility.yul\":7353:7368   */\n      revert\n        /* \"#utility.yul\":7380:7661   */\n    tag_415:\n        /* \"#utility.yul\":7463:7490   */\n      tag_543\n        /* \"#utility.yul\":7485:7489   */\n      dup3\n        /* \"#utility.yul\":7463:7490   */\n      tag_399\n      jump\t// in\n    tag_543:\n        /* \"#utility.yul\":7455:7461   */\n      dup2\n        /* \"#utility.yul\":7451:7491   */\n      add\n        /* \"#utility.yul\":7593:7599   */\n      dup2\n        /* \"#utility.yul\":7581:7591   */\n      dup2\n        /* \"#utility.yul\":7578:7600   */\n      lt\n        /* \"#utility.yul\":7557:7575   */\n      0xffffffffffffffff\n        /* \"#utility.yul\":7545:7555   */\n      dup3\n        /* \"#utility.yul\":7542:7576   */\n      gt\n        /* \"#utility.yul\":7539:7601   */\n      or\n        /* \"#utility.yul\":7536:7624   */\n      iszero\n      tag_544\n      jumpi\n        /* \"#utility.yul\":7604:7622   */\n      tag_545\n      tag_414\n      jump\t// in\n    tag_545:\n        /* \"#utility.yul\":7536:7624   */\n    tag_544:\n        /* \"#utility.yul\":7644:7654   */\n      dup1\n        /* \"#utility.yul\":7640:7642   */\n      0x40\n        /* \"#utility.yul\":7633:7655   */\n      mstore\n        /* \"#utility.yul\":7423:7661   */\n      pop\n        /* \"#utility.yul\":7380:7661   */\n      pop\n      pop\n      jump\t// out\n        /* \"#utility.yul\":7667:7796   */\n    tag_416:\n        /* \"#utility.yul\":7701:7707   */\n      0x00\n        /* \"#utility.yul\":7728:7748   */\n      tag_547\n      tag_387\n      jump\t// in\n    tag_547:\n        /* \"#utility.yul\":7718:7748   */\n      swap1\n      pop\n        /* \"#utility.yul\":7757:7790   */\n      tag_548\n        /* \"#utility.yul\":7785:7789   */\n      dup3\n        /* \"#utility.yul\":7777:7783   */\n      dup3\n        /* \"#utility.yul\":7757:7790   */\n      tag_415\n      jump\t// in\n    tag_548:\n        /* \"#utility.yul\":7667:7796   */\n      swap2\n      swap1\n      pop\n      jump\t// out\n        /* \"#utility.yul\":7802:8110   */\n    tag_417:\n        /* \"#utility.yul\":7864:7868   */\n      0x00\n        /* \"#utility.yul\":7954:7972   */\n      0xffffffffffffffff\n        /* \"#utility.yul\":7946:7952   */\n      dup3\n        /* \"#utility.yul\":7943:7973   */\n      gt\n        /* \"#utility.yul\":7940:7996   */\n      iszero\n      tag_550\n      jumpi\n        /* \"#utility.yul\":7976:7994   */\n      tag_551\n      tag_414\n      jump\t// in\n    tag_551:\n        /* \"#utility.yul\":7940:7996   */\n    tag_550:\n        /* \"#utility.yul\":8014:8043   */\n      tag_552\n        /* \"#utility.yul\":8036:8042   */\n      dup3\n        /* \"#utility.yul\":8014:8043   */\n      tag_399\n      jump\t// in\n    tag_552:\n        /* \"#utility.yul\":8006:8043   */\n      swap1\n      pop\n        /* \"#utility.yul\":8098:8102   */\n      0x20\n        /* \"#utility.yul\":8092:8096   */\n      dup2\n        /* \"#utility.yul\":8088:8103   */\n      add\n        /* \"#utility.yul\":8080:8103   */\n      swap1\n      pop\n        /* \"#utility.yul\":7802:8110   */\n      swap2\n      swap1\n      pop\n      jump\t// out\n        /* \"#utility.yul\":8116:8262   */\n    tag_418:\n        /* \"#utility.yul\":8213:8219   */\n      dup3\n        /* \"#utility.yul\":8208:8211   */\n      dup2\n        /* \"#utility.yul\":8203:8206   */\n      dup4\n        /* \"#utility.yul\":8190:8220   */\n      calldatacopy\n        /* \"#utility.yul\":8254:8255   */\n      0x00\n        /* \"#utility.yul\":8245:8251   */\n      dup4\n        /* \"#utility.yul\":8240:8243   */\n      dup4\n        /* \"#utility.yul\":8236:8252   */\n      add\n        /* \"#utility.yul\":8229:8256   */\n      mstore\n        /* \"#utility.yul\":8116:8262   */\n      pop\n      pop\n      pop\n      jump\t// out\n        /* \"#utility.yul\":8268:8693   */\n    tag_419:\n        /* \"#utility.yul\":8346:8351   */\n      0x00\n        /* \"#utility.yul\":8371:8437   */\n      tag_555\n        /* \"#utility.yul\":8387:8436   */\n      tag_556\n        /* \"#utility.yul\":8429:8435   */\n      dup5\n        /* \"#utility.yul\":8387:8436   */\n      tag_417\n      jump\t// in\n    tag_556:\n        /* \"#utility.yul\":8371:8437   */\n      tag_416\n      jump\t// in\n    tag_555:\n        /* \"#utility.yul\":8362:8437   */\n      swap1\n      pop\n        /* \"#utility.yul\":8460:8466   */\n      dup3\n        /* \"#utility.yul\":8453:8458   */\n      dup2\n        /* \"#utility.yul\":8446:8467   */\n      mstore\n        /* \"#utility.yul\":8498:8502   */\n      0x20\n        /* \"#utility.yul\":8491:8496   */\n      dup2\n        /* \"#utility.yul\":8487:8503   */\n      add\n        /* \"#utility.yul\":8536:8539   */\n      dup5\n        /* \"#utility.yul\":8527:8533   */\n      dup5\n        /* \"#utility.yul\":8522:8525   */\n      dup5\n        /* \"#utility.yul\":8518:8534   */\n      add\n        /* \"#utility.yul\":8515:8540   */\n      gt\n        /* \"#utility.yul\":8512:8624   */\n      iszero\n      tag_557\n      jumpi\n        /* \"#utility.yul\":8543:8622   */\n      tag_558\n      tag_413\n      jump\t// in\n    tag_558:\n        /* \"#utility.yul\":8512:8624   */\n    tag_557:\n        /* \"#utility.yul\":8633:8687   */\n      tag_559\n        /* \"#utility.yul\":8680:8686   */\n      dup5\n        /* \"#utility.yul\":8675:8678   */\n      dup3\n        /* \"#utility.yul\":8670:8673   */\n      dup6\n        /* \"#utility.yul\":8633:8687   */\n      tag_418\n      jump\t// in\n    tag_559:\n        /* \"#utility.yul\":8352:8693   */\n      pop\n        /* \"#utility.yul\":8268:8693   */\n      swap4\n      swap3\n      pop\n      pop\n      pop\n      jump\t// out\n        /* \"#utility.yul\":8713:9053   */\n    tag_420:\n        /* \"#utility.yul\":8769:8774   */\n      0x00\n        /* \"#utility.yul\":8818:8821   */\n      dup3\n        /* \"#utility.yul\":8811:8815   */\n      0x1f\n        /* \"#utility.yul\":8803:8809   */\n      dup4\n        /* \"#utility.yul\":8799:8816   */\n      add\n        /* \"#utility.yul\":8795:8822   */\n      slt\n        /* \"#utility.yul\":8785:8907   */\n      tag_561\n      jumpi\n        /* \"#utility.yul\":8826:8905   */\n      tag_562\n      tag_412\n      jump\t// in\n    tag_562:\n        /* \"#utility.yul\":8785:8907   */\n    tag_561:\n        /* \"#utility.yul\":8943:8949   */\n      dup2\n        /* \"#utility.yul\":8930:8950   */\n      calldataload\n        /* \"#utility.yul\":8968:9047   */\n      tag_563\n        /* \"#utility.yul\":9043:9046   */\n      dup5\n        /* \"#utility.yul\":9035:9041   */\n      dup3\n        /* \"#utility.yul\":9028:9032   */\n      0x20\n        /* \"#utility.yul\":9020:9026   */\n      dup7\n        /* \"#utility.yul\":9016:9033   */\n      add\n        /* \"#utility.yul\":8968:9047   */\n      tag_419\n      jump\t// in\n    tag_563:\n        /* \"#utility.yul\":8959:9047   */\n      swap2\n      pop\n        /* \"#utility.yul\":8775:9053   */\n      pop\n        /* \"#utility.yul\":8713:9053   */\n      swap3\n      swap2\n      pop\n      pop\n      jump\t// out\n        /* \"#utility.yul\":9059:9852   */\n    tag_35:\n        /* \"#utility.yul\":9143:9149   */\n      0x00\n        /* \"#utility.yul\":9151:9157   */\n      dup1\n        /* \"#utility.yul\":9159:9165   */\n      0x00\n        /* \"#utility.yul\":9208:9210   */\n      0x60\n        /* \"#utility.yul\":9196:9205   */\n      dup5\n        /* \"#utility.yul\":9187:9194   */\n      dup7\n        /* \"#utility.yul\":9183:9206   */\n      sub\n        /* \"#utility.yul\":9179:9211   */\n      slt\n        /* \"#utility.yul\":9176:9295   */\n      iszero\n      tag_565\n      jumpi\n        /* \"#utility.yul\":9214:9293   */\n      tag_566\n      tag_388\n      jump\t// in\n    tag_566:\n        /* \"#utility.yul\":9176:9295   */\n    tag_565:\n        /* \"#utility.yul\":9362:9363   */\n      0x00\n        /* \"#utility.yul\":9351:9360   */\n      dup5\n        /* \"#utility.yul\":9347:9364   */\n      add\n        /* \"#utility.yul\":9334:9365   */\n      calldataload\n        /* \"#utility.yul\":9392:9410   */\n      0xffffffffffffffff\n        /* \"#utility.yul\":9384:9390   */\n      dup2\n        /* \"#utility.yul\":9381:9411   */\n      gt\n        /* \"#utility.yul\":9378:9495   */\n      iszero\n      tag_567\n      jumpi\n        /* \"#utility.yul\":9414:9493   */\n      tag_568\n      tag_389\n      jump\t// in\n    tag_568:\n        /* \"#utility.yul\":9378:9495   */\n    tag_567:\n        /* \"#utility.yul\":9519:9582   */\n      tag_569\n        /* \"#utility.yul\":9574:9581   */\n      dup7\n        /* \"#utility.yul\":9565:9571   */\n      dup3\n        /* \"#utility.yul\":9554:9563   */\n      dup8\n        /* \"#utility.yul\":9550:9572   */\n      add\n        /* \"#utility.yul\":9519:9582   */\n      tag_420\n      jump\t// in\n    tag_569:\n        /* \"#utility.yul\":9509:9582   */\n      swap4\n      pop\n        /* \"#utility.yul\":9305:9592   */\n      pop\n        /* \"#utility.yul\":9631:9633   */\n      0x20\n        /* \"#utility.yul\":9657:9710   */\n      tag_570\n        /* \"#utility.yul\":9702:9709   */\n      dup7\n        /* \"#utility.yul\":9693:9699   */\n      dup3\n        /* \"#utility.yul\":9682:9691   */\n      dup8\n        /* \"#utility.yul\":9678:9700   */\n      add\n        /* \"#utility.yul\":9657:9710   */\n      tag_410\n      jump\t// in\n    tag_570:\n        /* \"#utility.yul\":9647:9710   */\n      swap3\n      pop\n        /* \"#utility.yul\":9602:9720   */\n      pop\n        /* \"#utility.yul\":9759:9761   */\n      0x40\n        /* \"#utility.yul\":9785:9835   */\n      tag_571\n        /* \"#utility.yul\":9827:9834   */\n      dup7\n        /* \"#utility.yul\":9818:9824   */\n      dup3\n        /* \"#utility.yul\":9807:9816   */\n      dup8\n        /* \"#utility.yul\":9803:9825   */\n      add\n        /* \"#utility.yul\":9785:9835   */\n      tag_392\n      jump\t// in\n    tag_571:\n        /* \"#utility.yul\":9775:9835   */\n      swap2\n      pop\n        /* \"#utility.yul\":9730:9845   */\n      pop\n        /* \"#utility.yul\":9059:9852   */\n      swap3\n      pop\n      swap3\n      pop\n      swap3\n      jump\t// out\n        /* \"#utility.yul\":9858:11303   */\n    tag_40:\n        /* \"#utility.yul\":9980:9986   */\n      0x00\n        /* \"#utility.yul\":9988:9994   */\n      dup1\n        /* \"#utility.yul\":9996:10002   */\n      0x00\n        /* \"#utility.yul\":10004:10010   */\n      dup1\n        /* \"#utility.yul\":10012:10018   */\n      0x00\n        /* \"#utility.yul\":10061:10064   */\n      0xa0\n        /* \"#utility.yul\":10049:10058   */\n      dup7\n        /* \"#utility.yul\":10040:10047   */\n      dup9\n        /* \"#utility.yul\":10036:10059   */\n      sub\n        /* \"#utility.yul\":10032:10065   */\n      slt\n        /* \"#utility.yul\":10029:10149   */\n      iszero\n      tag_573\n      jumpi\n        /* \"#utility.yul\":10068:10147   */\n      tag_574\n      tag_388\n      jump\t// in\n    tag_574:\n        /* \"#utility.yul\":10029:10149   */\n    tag_573:\n        /* \"#utility.yul\":10216:10217   */\n      0x00\n        /* \"#utility.yul\":10205:10214   */\n      dup7\n        /* \"#utility.yul\":10201:10218   */\n      add\n        /* \"#utility.yul\":10188:10219   */\n      calldataload\n        /* \"#utility.yul\":10246:10264   */\n      0xffffffffffffffff\n        /* \"#utility.yul\":10238:10244   */\n      dup2\n        /* \"#utility.yul\":10235:10265   */\n      gt\n        /* \"#utility.yul\":10232:10349   */\n      iszero\n      tag_575\n      jumpi\n        /* \"#utility.yul\":10268:10347   */\n      tag_576\n      tag_389\n      jump\t// in\n    tag_576:\n        /* \"#utility.yul\":10232:10349   */\n    tag_575:\n        /* \"#utility.yul\":10373:10436   */\n      tag_577\n        /* \"#utility.yul\":10428:10435   */\n      dup9\n        /* \"#utility.yul\":10419:10425   */\n      dup3\n        /* \"#utility.yul\":10408:10417   */\n      dup10\n        /* \"#utility.yul\":10404:10426   */\n      add\n        /* \"#utility.yul\":10373:10436   */\n      tag_420\n      jump\t// in\n    tag_577:\n        /* \"#utility.yul\":10363:10436   */\n      swap6\n      pop\n        /* \"#utility.yul\":10159:10446   */\n      pop\n        /* \"#utility.yul\":10513:10515   */\n      0x20\n        /* \"#utility.yul\":10502:10511   */\n      dup7\n        /* \"#utility.yul\":10498:10516   */\n      add\n        /* \"#utility.yul\":10485:10517   */\n      calldataload\n        /* \"#utility.yul\":10544:10562   */\n      0xffffffffffffffff\n        /* \"#utility.yul\":10536:10542   */\n      dup2\n        /* \"#utility.yul\":10533:10563   */\n      gt\n        /* \"#utility.yul\":10530:10647   */\n      iszero\n      tag_578\n      jumpi\n        /* \"#utility.yul\":10566:10645   */\n      tag_579\n      tag_389\n      jump\t// in\n    tag_579:\n        /* \"#utility.yul\":10530:10647   */\n    tag_578:\n        /* \"#utility.yul\":10671:10734   */\n      tag_580\n        /* \"#utility.yul\":10726:10733   */\n      dup9\n        /* \"#utility.yul\":10717:10723   */\n      dup3\n        /* \"#utility.yul\":10706:10715   */\n      dup10\n        /* \"#utility.yul\":10702:10724   */\n      add\n        /* \"#utility.yul\":10671:10734   */\n      tag_420\n      jump\t// in\n    tag_580:\n        /* \"#utility.yul\":10661:10734   */\n      swap5\n      pop\n        /* \"#utility.yul\":10456:10744   */\n      pop\n        /* \"#utility.yul\":10811:10813   */\n      0x40\n        /* \"#utility.yul\":10800:10809   */\n      dup7\n        /* \"#utility.yul\":10796:10814   */\n      add\n        /* \"#utility.yul\":10783:10815   */\n      calldataload\n        /* \"#utility.yul\":10842:10860   */\n      0xffffffffffffffff\n        /* \"#utility.yul\":10834:10840   */\n      dup2\n        /* \"#utility.yul\":10831:10861   */\n      gt\n        /* \"#utility.yul\":10828:10945   */\n      iszero\n      tag_581\n      jumpi\n        /* \"#utility.yul\":10864:10943   */\n      tag_582\n      tag_389\n      jump\t// in\n    tag_582:\n        /* \"#utility.yul\":10828:10945   */\n    tag_581:\n        /* \"#utility.yul\":10969:11032   */\n      tag_583\n        /* \"#utility.yul\":11024:11031   */\n      dup9\n        /* \"#utility.yul\":11015:11021   */\n      dup3\n        /* \"#utility.yul\":11004:11013   */\n      dup10\n        /* \"#utility.yul\":11000:11022   */\n      add\n        /* \"#utility.yul\":10969:11032   */\n      tag_420\n      jump\t// in\n    tag_583:\n        /* \"#utility.yul\":10959:11032   */\n      swap4\n      pop\n        /* \"#utility.yul\":10754:11042   */\n      pop\n        /* \"#utility.yul\":11081:11083   */\n      0x60\n        /* \"#utility.yul\":11107:11160   */\n      tag_584\n        /* \"#utility.yul\":11152:11159   */\n      dup9\n        /* \"#utility.yul\":11143:11149   */\n      dup3\n        /* \"#utility.yul\":11132:11141   */\n      dup10\n        /* \"#utility.yul\":11128:11150   */\n      add\n        /* \"#utility.yul\":11107:11160   */\n      tag_410\n      jump\t// in\n    tag_584:\n        /* \"#utility.yul\":11097:11160   */\n      swap3\n      pop\n        /* \"#utility.yul\":11052:11170   */\n      pop\n        /* \"#utility.yul\":11209:11212   */\n      0x80\n        /* \"#utility.yul\":11236:11286   */\n      tag_585\n        /* \"#utility.yul\":11278:11285   */\n      dup9\n        /* \"#utility.yul\":11269:11275   */\n      dup3\n        /* \"#utility.yul\":11258:11267   */\n      dup10\n        /* \"#utility.yul\":11254:11276   */\n      add\n        /* \"#utility.yul\":11236:11286   */\n      tag_392\n      jump\t// in\n    tag_585:\n        /* \"#utility.yul\":11226:11286   */\n      swap2\n      pop\n        /* \"#utility.yul\":11180:11296   */\n      pop\n        /* \"#utility.yul\":9858:11303   */\n      swap3\n      swap6\n      pop\n      swap3\n      swap6\n      swap1\n      swap4\n      pop\n      jump\t// out\n        /* \"#utility.yul\":11309:11783   */\n    tag_45:\n        /* \"#utility.yul\":11377:11383   */\n      0x00\n        /* \"#utility.yul\":11385:11391   */\n      dup1\n        /* \"#utility.yul\":11434:11436   */\n      0x40\n        /* \"#utility.yul\":11422:11431   */\n      dup4\n        /* \"#utility.yul\":11413:11420   */\n      dup6\n        /* \"#utility.yul\":11409:11432   */\n      sub\n        /* \"#utility.yul\":11405:11437   */\n      slt\n        /* \"#utility.yul\":11402:11521   */\n      iszero\n      tag_587\n      jumpi\n        /* \"#utility.yul\":11440:11519   */\n      tag_588\n      tag_388\n      jump\t// in\n    tag_588:\n        /* \"#utility.yul\":11402:11521   */\n    tag_587:\n        /* \"#utility.yul\":11560:11561   */\n      0x00\n        /* \"#utility.yul\":11585:11638   */\n      tag_589\n        /* \"#utility.yul\":11630:11637   */\n      dup6\n        /* \"#utility.yul\":11621:11627   */\n      dup3\n        /* \"#utility.yul\":11610:11619   */\n      dup7\n        /* \"#utility.yul\":11606:11628   */\n      add\n        /* \"#utility.yul\":11585:11638   */\n      tag_410\n      jump\t// in\n    tag_589:\n        /* \"#utility.yul\":11575:11638   */\n      swap3\n      pop\n        /* \"#utility.yul\":11531:11648   */\n      pop\n        /* \"#utility.yul\":11687:11689   */\n      0x20\n        /* \"#utility.yul\":11713:11766   */\n      tag_590\n        /* \"#utility.yul\":11758:11765   */\n      dup6\n        /* \"#utility.yul\":11749:11755   */\n      dup3\n        /* \"#utility.yul\":11738:11747   */\n      dup7\n        /* \"#utility.yul\":11734:11756   */\n      add\n        /* \"#utility.yul\":11713:11766   */\n      tag_410\n      jump\t// in\n    tag_590:\n        /* \"#utility.yul\":11703:11766   */\n      swap2\n      pop\n        /* \"#utility.yul\":11658:11776   */\n      pop\n        /* \"#utility.yul\":11309:11783   */\n      swap3\n      pop\n      swap3\n      swap1\n      pop\n      jump\t// out\n        /* \"#utility.yul\":11789:12257   */\n    tag_52:\n        /* \"#utility.yul\":11854:11860   */\n      0x00\n        /* \"#utility.yul\":11862:11868   */\n      dup1\n        /* \"#utility.yul\":11911:11913   */\n      0x40\n        /* \"#utility.yul\":11899:11908   */\n      dup4\n        /* \"#utility.yul\":11890:11897   */\n      dup6\n        /* \"#utility.yul\":11886:11909   */\n      sub\n        /* \"#utility.yul\":11882:11914   */\n      slt\n        /* \"#utility.yul\":11879:11998   */\n      iszero\n      tag_592\n      jumpi\n        /* \"#utility.yul\":11917:11996   */\n      tag_593\n      tag_388\n      jump\t// in\n    tag_593:\n        /* \"#utility.yul\":11879:11998   */\n    tag_592:\n        /* \"#utility.yul\":12037:12038   */\n      0x00\n        /* \"#utility.yul\":12062:12115   */\n      tag_594\n        /* \"#utility.yul\":12107:12114   */\n      dup6\n        /* \"#utility.yul\":12098:12104   */\n      dup3\n        /* \"#utility.yul\":12087:12096   */\n      dup7\n        /* \"#utility.yul\":12083:12105   */\n      add\n        /* \"#utility.yul\":12062:12115   */\n      tag_410\n      jump\t// in\n    tag_594:\n        /* \"#utility.yul\":12052:12115   */\n      swap3\n      pop\n        /* \"#utility.yul\":12008:12125   */\n      pop\n        /* \"#utility.yul\":12164:12166   */\n      0x20\n        /* \"#utility.yul\":12190:12240   */\n      tag_595\n        /* \"#utility.yul\":12232:12239   */\n      dup6\n        /* \"#utility.yul\":12223:12229   */\n      dup3\n        /* \"#utility.yul\":12212:12221   */\n      dup7\n        /* \"#utility.yul\":12208:12230   */\n      add\n        /* \"#utility.yul\":12190:12240   */\n      tag_392\n      jump\t// in\n    tag_595:\n        /* \"#utility.yul\":12180:12240   */\n      swap2\n      pop\n        /* \"#utility.yul\":12135:12250   */\n      pop\n        /* \"#utility.yul\":11789:12257   */\n      swap3\n      pop\n      swap3\n      swap1\n      pop\n      jump\t// out\n        /* \"#utility.yul\":12263:12340   */\n    tag_421:\n        /* \"#utility.yul\":12300:12307   */\n      0x00\n        /* \"#utility.yul\":12329:12334   */\n      dup2\n        /* \"#utility.yul\":12318:12334   */\n      swap1\n      pop\n        /* \"#utility.yul\":12263:12340   */\n      swap2\n      swap1\n      pop\n      jump\t// out\n        /* \"#utility.yul\":12346:12454   */\n    tag_422:\n        /* \"#utility.yul\":12423:12447   */\n      tag_598\n        /* \"#utility.yul\":12441:12446   */\n      dup2\n        /* \"#utility.yul\":12423:12447   */\n      tag_421\n      jump\t// in\n    tag_598:\n        /* \"#utility.yul\":12418:12421   */\n      dup3\n        /* \"#utility.yul\":12411:12448   */\n      mstore\n        /* \"#utility.yul\":12346:12454   */\n      pop\n      pop\n      jump\t// out\n        /* \"#utility.yul\":12460:12663   */\n    tag_423:\n        /* \"#utility.yul\":12578:12589   */\n      0x00\n        /* \"#utility.yul\":12612:12618   */\n      dup3\n        /* \"#utility.yul\":12607:12610   */\n      dup3\n        /* \"#utility.yul\":12600:12619   */\n      mstore\n        /* \"#utility.yul\":12652:12656   */\n      0x20\n        /* \"#utility.yul\":12647:12650   */\n      dup3\n        /* \"#utility.yul\":12643:12657   */\n      add\n        /* \"#utility.yul\":12628:12657   */\n      swap1\n      pop\n        /* \"#utility.yul\":12460:12663   */\n      swap3\n      swap2\n      pop\n      pop\n      jump\t// out\n        /* \"#utility.yul\":12743:13866   */\n    tag_424:\n        /* \"#utility.yul\":12910:12913   */\n      0x00\n        /* \"#utility.yul\":12939:13022   */\n      tag_601\n        /* \"#utility.yul\":13016:13021   */\n      dup3\n        /* \"#utility.yul\":12939:13022   */\n      tag_393\n      jump\t// in\n    tag_601:\n        /* \"#utility.yul\":13038:13143   */\n      tag_602\n        /* \"#utility.yul\":13136:13142   */\n      dup2\n        /* \"#utility.yul\":13131:13134   */\n      dup6\n        /* \"#utility.yul\":13038:13143   */\n      tag_423\n      jump\t// in\n    tag_602:\n        /* \"#utility.yul\":13031:13143   */\n      swap4\n      pop\n        /* \"#utility.yul\":13169:13172   */\n      dup4\n        /* \"#utility.yul\":13214:13218   */\n      0x20\n        /* \"#utility.yul\":13206:13212   */\n      dup3\n        /* \"#utility.yul\":13202:13219   */\n      mul\n        /* \"#utility.yul\":13197:13200   */\n      dup6\n        /* \"#utility.yul\":13193:13220   */\n      add\n        /* \"#utility.yul\":13244:13329   */\n      tag_603\n        /* \"#utility.yul\":13323:13328   */\n      dup6\n        /* \"#utility.yul\":13244:13329   */\n      tag_395\n      jump\t// in\n    tag_603:\n        /* \"#utility.yul\":13352:13359   */\n      dup1\n        /* \"#utility.yul\":13383:13384   */\n      0x00\n        /* \"#utility.yul\":13368:13821   */\n    tag_604:\n        /* \"#utility.yul\":13393:13399   */\n      dup6\n        /* \"#utility.yul\":13390:13391   */\n      dup2\n        /* \"#utility.yul\":13387:13400   */\n      lt\n        /* \"#utility.yul\":13368:13821   */\n      iszero\n      tag_606\n      jumpi\n        /* \"#utility.yul\":13464:13473   */\n      dup5\n        /* \"#utility.yul\":13458:13462   */\n      dup5\n        /* \"#utility.yul\":13454:13474   */\n      sub\n        /* \"#utility.yul\":13449:13452   */\n      dup10\n        /* \"#utility.yul\":13442:13475   */\n      mstore\n        /* \"#utility.yul\":13515:13521   */\n      dup2\n        /* \"#utility.yul\":13509:13522   */\n      mload\n        /* \"#utility.yul\":13543:13665   */\n      tag_607\n        /* \"#utility.yul\":13660:13664   */\n      dup6\n        /* \"#utility.yul\":13645:13658   */\n      dup3\n        /* \"#utility.yul\":13543:13665   */\n      tag_406\n      jump\t// in\n    tag_607:\n        /* \"#utility.yul\":13535:13665   */\n      swap5\n      pop\n        /* \"#utility.yul\":13688:13777   */\n      tag_608\n        /* \"#utility.yul\":13770:13776   */\n      dup4\n        /* \"#utility.yul\":13688:13777   */\n      tag_407\n      jump\t// in\n    tag_608:\n        /* \"#utility.yul\":13678:13777   */\n      swap3\n      pop\n        /* \"#utility.yul\":13806:13810   */\n      0x20\n        /* \"#utility.yul\":13801:13804   */\n      dup11\n        /* \"#utility.yul\":13797:13811   */\n      add\n        /* \"#utility.yul\":13790:13811   */\n      swap10\n      pop\n        /* \"#utility.yul\":13428:13821   */\n      pop\n        /* \"#utility.yul\":13415:13416   */\n      0x01\n        /* \"#utility.yul\":13412:13413   */\n      dup2\n        /* \"#utility.yul\":13408:13417   */\n      add\n        /* \"#utility.yul\":13403:13417   */\n      swap1\n      pop\n        /* \"#utility.yul\":13368:13821   */\n      jump(tag_604)\n    tag_606:\n        /* \"#utility.yul\":13372:13386   */\n      pop\n        /* \"#utility.yul\":13837:13841   */\n      dup3\n        /* \"#utility.yul\":13830:13841   */\n      swap8\n      pop\n        /* \"#utility.yul\":13857:13860   */\n      dup8\n        /* \"#utility.yul\":13850:13860   */\n      swap6\n      pop\n        /* \"#utility.yul\":12915:13866   */\n      pop\n      pop\n      pop\n      pop\n      pop\n        /* \"#utility.yul\":12743:13866   */\n      swap3\n      swap2\n      pop\n      pop\n      jump\t// out\n        /* \"#utility.yul\":13940:15569   */\n    tag_425:\n        /* \"#utility.yul\":14067:14070   */\n      0x00\n        /* \"#utility.yul\":14103:14107   */\n      0xc0\n        /* \"#utility.yul\":14098:14101   */\n      dup4\n        /* \"#utility.yul\":14094:14108   */\n      add\n        /* \"#utility.yul\":14190:14194   */\n      0x00\n        /* \"#utility.yul\":14183:14188   */\n      dup4\n        /* \"#utility.yul\":14179:14195   */\n      add\n        /* \"#utility.yul\":14173:14196   */\n      mload\n        /* \"#utility.yul\":14243:14246   */\n      dup5\n        /* \"#utility.yul\":14237:14241   */\n      dup3\n        /* \"#utility.yul\":14233:14247   */\n      sub\n        /* \"#utility.yul\":14226:14230   */\n      0x00\n        /* \"#utility.yul\":14221:14224   */\n      dup7\n        /* \"#utility.yul\":14217:14231   */\n      add\n        /* \"#utility.yul\":14210:14248   */\n      mstore\n        /* \"#utility.yul\":14269:14342   */\n      tag_610\n        /* \"#utility.yul\":14337:14341   */\n      dup3\n        /* \"#utility.yul\":14323:14335   */\n      dup3\n        /* \"#utility.yul\":14269:14342   */\n      tag_400\n      jump\t// in\n    tag_610:\n        /* \"#utility.yul\":14261:14342   */\n      swap2\n      pop\n        /* \"#utility.yul\":14118:14353   */\n      pop\n        /* \"#utility.yul\":14435:14439   */\n      0x20\n        /* \"#utility.yul\":14428:14433   */\n      dup4\n        /* \"#utility.yul\":14424:14440   */\n      add\n        /* \"#utility.yul\":14418:14441   */\n      mload\n        /* \"#utility.yul\":14488:14491   */\n      dup5\n        /* \"#utility.yul\":14482:14486   */\n      dup3\n        /* \"#utility.yul\":14478:14492   */\n      sub\n        /* \"#utility.yul\":14471:14475   */\n      0x20\n        /* \"#utility.yul\":14466:14469   */\n      dup7\n        /* \"#utility.yul\":14462:14476   */\n      add\n        /* \"#utility.yul\":14455:14493   */\n      mstore\n        /* \"#utility.yul\":14514:14587   */\n      tag_611\n        /* \"#utility.yul\":14582:14586   */\n      dup3\n        /* \"#utility.yul\":14568:14580   */\n      dup3\n        /* \"#utility.yul\":14514:14587   */\n      tag_400\n      jump\t// in\n    tag_611:\n        /* \"#utility.yul\":14506:14587   */\n      swap2\n      pop\n        /* \"#utility.yul\":14363:14598   */\n      pop\n        /* \"#utility.yul\":14680:14684   */\n      0x40\n        /* \"#utility.yul\":14673:14678   */\n      dup4\n        /* \"#utility.yul\":14669:14685   */\n      add\n        /* \"#utility.yul\":14663:14686   */\n      mload\n        /* \"#utility.yul\":14733:14736   */\n      dup5\n        /* \"#utility.yul\":14727:14731   */\n      dup3\n        /* \"#utility.yul\":14723:14737   */\n      sub\n        /* \"#utility.yul\":14716:14720   */\n      0x40\n        /* \"#utility.yul\":14711:14714   */\n      dup7\n        /* \"#utility.yul\":14707:14721   */\n      add\n        /* \"#utility.yul\":14700:14738   */\n      mstore\n        /* \"#utility.yul\":14759:14832   */\n      tag_612\n        /* \"#utility.yul\":14827:14831   */\n      dup3\n        /* \"#utility.yul\":14813:14825   */\n      dup3\n        /* \"#utility.yul\":14759:14832   */\n      tag_400\n      jump\t// in\n    tag_612:\n        /* \"#utility.yul\":14751:14832   */\n      swap2\n      pop\n        /* \"#utility.yul\":14608:14843   */\n      pop\n        /* \"#utility.yul\":14932:14936   */\n      0x60\n        /* \"#utility.yul\":14925:14930   */\n      dup4\n        /* \"#utility.yul\":14921:14937   */\n      add\n        /* \"#utility.yul\":14915:14938   */\n      mload\n        /* \"#utility.yul\":14951:15014   */\n      tag_613\n        /* \"#utility.yul\":15008:15012   */\n      0x60\n        /* \"#utility.yul\":15003:15006   */\n      dup7\n        /* \"#utility.yul\":14999:15013   */\n      add\n        /* \"#utility.yul\":14985:14997   */\n      dup3\n        /* \"#utility.yul\":14951:15014   */\n      tag_403\n      jump\t// in\n    tag_613:\n        /* \"#utility.yul\":14853:15024   */\n      pop\n        /* \"#utility.yul\":15107:15111   */\n      0x80\n        /* \"#utility.yul\":15100:15105   */\n      dup4\n        /* \"#utility.yul\":15096:15112   */\n      add\n        /* \"#utility.yul\":15090:15113   */\n      mload\n        /* \"#utility.yul\":15126:15189   */\n      tag_614\n        /* \"#utility.yul\":15183:15187   */\n      0x80\n        /* \"#utility.yul\":15178:15181   */\n      dup7\n        /* \"#utility.yul\":15174:15188   */\n      add\n        /* \"#utility.yul\":15160:15172   */\n      dup3\n        /* \"#utility.yul\":15126:15189   */\n      tag_422\n      jump\t// in\n    tag_614:\n        /* \"#utility.yul\":15034:15199   */\n      pop\n        /* \"#utility.yul\":15291:15295   */\n      0xa0\n        /* \"#utility.yul\":15284:15289   */\n      dup4\n        /* \"#utility.yul\":15280:15296   */\n      add\n        /* \"#utility.yul\":15274:15297   */\n      mload\n        /* \"#utility.yul\":15344:15347   */\n      dup5\n        /* \"#utility.yul\":15338:15342   */\n      dup3\n        /* \"#utility.yul\":15334:15348   */\n      sub\n        /* \"#utility.yul\":15327:15331   */\n      0xa0\n        /* \"#utility.yul\":15322:15325   */\n      dup7\n        /* \"#utility.yul\":15318:15332   */\n      add\n        /* \"#utility.yul\":15311:15349   */\n      mstore\n        /* \"#utility.yul\":15370:15531   */\n      tag_615\n        /* \"#utility.yul\":15526:15530   */\n      dup3\n        /* \"#utility.yul\":15512:15524   */\n      dup3\n        /* \"#utility.yul\":15370:15531   */\n      tag_424\n      jump\t// in\n    tag_615:\n        /* \"#utility.yul\":15362:15531   */\n      swap2\n      pop\n        /* \"#utility.yul\":15209:15542   */\n      pop\n        /* \"#utility.yul\":15559:15563   */\n      dup1\n        /* \"#utility.yul\":15552:15563   */\n      swap2\n      pop\n        /* \"#utility.yul\":14072:15569   */\n      pop\n        /* \"#utility.yul\":13940:15569   */\n      swap3\n      swap2\n      pop\n      pop\n      jump\t// out\n        /* \"#utility.yul\":15575:15964   */\n    tag_55:\n        /* \"#utility.yul\":15726:15730   */\n      0x00\n        /* \"#utility.yul\":15764:15766   */\n      0x20\n        /* \"#utility.yul\":15753:15762   */\n      dup3\n        /* \"#utility.yul\":15749:15767   */\n      add\n        /* \"#utility.yul\":15741:15767   */\n      swap1\n      pop\n        /* \"#utility.yul\":15813:15822   */\n      dup2\n        /* \"#utility.yul\":15807:15811   */\n      dup2\n        /* \"#utility.yul\":15803:15823   */\n      sub\n        /* \"#utility.yul\":15799:15800   */\n      0x00\n        /* \"#utility.yul\":15788:15797   */\n      dup4\n        /* \"#utility.yul\":15784:15801   */\n      add\n        /* \"#utility.yul\":15777:15824   */\n      mstore\n        /* \"#utility.yul\":15841:15957   */\n      tag_617\n        /* \"#utility.yul\":15952:15956   */\n      dup2\n        /* \"#utility.yul\":15943:15949   */\n      dup5\n        /* \"#utility.yul\":15841:15957   */\n      tag_425\n      jump\t// in\n    tag_617:\n        /* \"#utility.yul\":15833:15957   */\n      swap1\n      pop\n        /* \"#utility.yul\":15575:15964   */\n      swap3\n      swap2\n      pop\n      pop\n      jump\t// out\n        /* \"#utility.yul\":15970:16113   */\n    tag_426:\n        /* \"#utility.yul\":16066:16072   */\n      0x00\n        /* \"#utility.yul\":16100:16105   */\n      dup2\n        /* \"#utility.yul\":16094:16106   */\n      mload\n        /* \"#utility.yul\":16084:16106   */\n      swap1\n      pop\n        /* \"#utility.yul\":15970:16113   */\n      swap2\n      swap1\n      pop\n      jump\t// out\n        /* \"#utility.yul\":16119:16332   */\n    tag_427:\n        /* \"#utility.yul\":16247:16258   */\n      0x00\n        /* \"#utility.yul\":16281:16287   */\n      dup3\n        /* \"#utility.yul\":16276:16279   */\n      dup3\n        /* \"#utility.yul\":16269:16288   */\n      mstore\n        /* \"#utility.yul\":16321:16325   */\n      0x20\n        /* \"#utility.yul\":16316:16319   */\n      dup3\n        /* \"#utility.yul\":16312:16326   */\n      add\n        /* \"#utility.yul\":16297:16326   */\n      swap1\n      pop\n        /* \"#utility.yul\":16119:16332   */\n      swap3\n      swap2\n      pop\n      pop\n      jump\t// out\n        /* \"#utility.yul\":16338:16499   */\n    tag_428:\n        /* \"#utility.yul\":16434:16438   */\n      0x00\n        /* \"#utility.yul\":16457:16460   */\n      dup2\n        /* \"#utility.yul\":16449:16460   */\n      swap1\n      pop\n        /* \"#utility.yul\":16487:16491   */\n      0x20\n        /* \"#utility.yul\":16482:16485   */\n      dup3\n        /* \"#utility.yul\":16478:16492   */\n      add\n        /* \"#utility.yul\":16470:16492   */\n      swap1\n      pop\n        /* \"#utility.yul\":16338:16499   */\n      swap2\n      swap1\n      pop\n      jump\t// out\n        /* \"#utility.yul\":16573:18192   */\n    tag_429:\n        /* \"#utility.yul\":16690:16693   */\n      0x00\n        /* \"#utility.yul\":16726:16730   */\n      0xc0\n        /* \"#utility.yul\":16721:16724   */\n      dup4\n        /* \"#utility.yul\":16717:16731   */\n      add\n        /* \"#utility.yul\":16813:16817   */\n      0x00\n        /* \"#utility.yul\":16806:16811   */\n      dup4\n        /* \"#utility.yul\":16802:16818   */\n      add\n        /* \"#utility.yul\":16796:16819   */\n      mload\n        /* \"#utility.yul\":16866:16869   */\n      dup5\n        /* \"#utility.yul\":16860:16864   */\n      dup3\n        /* \"#utility.yul\":16856:16870   */\n      sub\n        /* \"#utility.yul\":16849:16853   */\n      0x00\n        /* \"#utility.yul\":16844:16847   */\n      dup7\n        /* \"#utility.yul\":16840:16854   */\n      add\n        /* \"#utility.yul\":16833:16871   */\n      mstore\n        /* \"#utility.yul\":16892:16965   */\n      tag_622\n        /* \"#utility.yul\":16960:16964   */\n      dup3\n        /* \"#utility.yul\":16946:16958   */\n      dup3\n        /* \"#utility.yul\":16892:16965   */\n      tag_400\n      jump\t// in\n    tag_622:\n        /* \"#utility.yul\":16884:16965   */\n      swap2\n      pop\n        /* \"#utility.yul\":16741:16976   */\n      pop\n        /* \"#utility.yul\":17058:17062   */\n      0x20\n        /* \"#utility.yul\":17051:17056   */\n      dup4\n        /* \"#utility.yul\":17047:17063   */\n      add\n        /* \"#utility.yul\":17041:17064   */\n      mload\n        /* \"#utility.yul\":17111:17114   */\n      dup5\n        /* \"#utility.yul\":17105:17109   */\n      dup3\n        /* \"#utility.yul\":17101:17115   */\n      sub\n        /* \"#utility.yul\":17094:17098   */\n      0x20\n        /* \"#utility.yul\":17089:17092   */\n      dup7\n        /* \"#utility.yul\":17085:17099   */\n      add\n        /* \"#utility.yul\":17078:17116   */\n      mstore\n        /* \"#utility.yul\":17137:17210   */\n      tag_623\n        /* \"#utility.yul\":17205:17209   */\n      dup3\n        /* \"#utility.yul\":17191:17203   */\n      dup3\n        /* \"#utility.yul\":17137:17210   */\n      tag_400\n      jump\t// in\n    tag_623:\n        /* \"#utility.yul\":17129:17210   */\n      swap2\n      pop\n        /* \"#utility.yul\":16986:17221   */\n      pop\n        /* \"#utility.yul\":17303:17307   */\n      0x40\n        /* \"#utility.yul\":17296:17301   */\n      dup4\n        /* \"#utility.yul\":17292:17308   */\n      add\n        /* \"#utility.yul\":17286:17309   */\n      mload\n        /* \"#utility.yul\":17356:17359   */\n      dup5\n        /* \"#utility.yul\":17350:17354   */\n      dup3\n        /* \"#utility.yul\":17346:17360   */\n      sub\n        /* \"#utility.yul\":17339:17343   */\n      0x40\n        /* \"#utility.yul\":17334:17337   */\n      dup7\n        /* \"#utility.yul\":17330:17344   */\n      add\n        /* \"#utility.yul\":17323:17361   */\n      mstore\n        /* \"#utility.yul\":17382:17455   */\n      tag_624\n        /* \"#utility.yul\":17450:17454   */\n      dup3\n        /* \"#utility.yul\":17436:17448   */\n      dup3\n        /* \"#utility.yul\":17382:17455   */\n      tag_400\n      jump\t// in\n    tag_624:\n        /* \"#utility.yul\":17374:17455   */\n      swap2\n      pop\n        /* \"#utility.yul\":17231:17466   */\n      pop\n        /* \"#utility.yul\":17555:17559   */\n      0x60\n        /* \"#utility.yul\":17548:17553   */\n      dup4\n        /* \"#utility.yul\":17544:17560   */\n      add\n        /* \"#utility.yul\":17538:17561   */\n      mload\n        /* \"#utility.yul\":17574:17637   */\n      tag_625\n        /* \"#utility.yul\":17631:17635   */\n      0x60\n        /* \"#utility.yul\":17626:17629   */\n      dup7\n        /* \"#utility.yul\":17622:17636   */\n      add\n        /* \"#utility.yul\":17608:17620   */\n      dup3\n        /* \"#utility.yul\":17574:17637   */\n      tag_403\n      jump\t// in\n    tag_625:\n        /* \"#utility.yul\":17476:17647   */\n      pop\n        /* \"#utility.yul\":17730:17734   */\n      0x80\n        /* \"#utility.yul\":17723:17728   */\n      dup4\n        /* \"#utility.yul\":17719:17735   */\n      add\n        /* \"#utility.yul\":17713:17736   */\n      mload\n        /* \"#utility.yul\":17749:17812   */\n      tag_626\n        /* \"#utility.yul\":17806:17810   */\n      0x80\n        /* \"#utility.yul\":17801:17804   */\n      dup7\n        /* \"#utility.yul\":17797:17811   */\n      add\n        /* \"#utility.yul\":17783:17795   */\n      dup3\n        /* \"#utility.yul\":17749:17812   */\n      tag_422\n      jump\t// in\n    tag_626:\n        /* \"#utility.yul\":17657:17822   */\n      pop\n        /* \"#utility.yul\":17914:17918   */\n      0xa0\n        /* \"#utility.yul\":17907:17912   */\n      dup4\n        /* \"#utility.yul\":17903:17919   */\n      add\n        /* \"#utility.yul\":17897:17920   */\n      mload\n        /* \"#utility.yul\":17967:17970   */\n      dup5\n        /* \"#utility.yul\":17961:17965   */\n      dup3\n        /* \"#utility.yul\":17957:17971   */\n      sub\n        /* \"#utility.yul\":17950:17954   */\n      0xa0\n        /* \"#utility.yul\":17945:17948   */\n      dup7\n        /* \"#utility.yul\":17941:17955   */\n      add\n        /* \"#utility.yul\":17934:17972   */\n      mstore\n        /* \"#utility.yul\":17993:18154   */\n      tag_627\n        /* \"#utility.yul\":18149:18153   */\n      dup3\n        /* \"#utility.yul\":18135:18147   */\n      dup3\n        /* \"#utility.yul\":17993:18154   */\n      tag_424\n      jump\t// in\n    tag_627:\n        /* \"#utility.yul\":17985:18154   */\n      swap2\n      pop\n        /* \"#utility.yul\":17832:18165   */\n      pop\n        /* \"#utility.yul\":18182:18186   */\n      dup1\n        /* \"#utility.yul\":18175:18186   */\n      swap2\n      pop\n        /* \"#utility.yul\":16695:18192   */\n      pop\n        /* \"#utility.yul\":16573:18192   */\n      swap3\n      swap2\n      pop\n      pop\n      jump\t// out\n        /* \"#utility.yul\":18198:18470   */\n    tag_430:\n        /* \"#utility.yul\":18325:18335   */\n      0x00\n        /* \"#utility.yul\":18360:18464   */\n      tag_629\n        /* \"#utility.yul\":18460:18463   */\n      dup4\n        /* \"#utility.yul\":18452:18458   */\n      dup4\n        /* \"#utility.yul\":18360:18464   */\n      tag_429\n      jump\t// in\n    tag_629:\n        /* \"#utility.yul\":18346:18464   */\n      swap1\n      pop\n        /* \"#utility.yul\":18198:18470   */\n      swap3\n      swap2\n      pop\n      pop\n      jump\t// out\n        /* \"#utility.yul\":18476:18618   */\n    tag_431:\n        /* \"#utility.yul\":18575:18579   */\n      0x00\n        /* \"#utility.yul\":18607:18611   */\n      0x20\n        /* \"#utility.yul\":18602:18605   */\n      dup3\n        /* \"#utility.yul\":18598:18612   */\n      add\n        /* \"#utility.yul\":18590:18612   */\n      swap1\n      pop\n        /* \"#utility.yul\":18476:18618   */\n      swap2\n      swap1\n      pop\n      jump\t// out\n        /* \"#utility.yul\":18696:19839   */\n    tag_432:\n        /* \"#utility.yul\":18873:18876   */\n      0x00\n        /* \"#utility.yul\":18902:18985   */\n      tag_632\n        /* \"#utility.yul\":18979:18984   */\n      dup3\n        /* \"#utility.yul\":18902:18985   */\n      tag_426\n      jump\t// in\n    tag_632:\n        /* \"#utility.yul\":19001:19116   */\n      tag_633\n        /* \"#utility.yul\":19109:19115   */\n      dup2\n        /* \"#utility.yul\":19104:19107   */\n      dup6\n        /* \"#utility.yul\":19001:19116   */\n      tag_427\n      jump\t// in\n    tag_633:\n        /* \"#utility.yul\":18994:19116   */\n      swap4\n      pop\n        /* \"#utility.yul\":19142:19145   */\n      dup4\n        /* \"#utility.yul\":19187:19191   */\n      0x20\n        /* \"#utility.yul\":19179:19185   */\n      dup3\n        /* \"#utility.yul\":19175:19192   */\n      mul\n        /* \"#utility.yul\":19170:19173   */\n      dup6\n        /* \"#utility.yul\":19166:19193   */\n      add\n        /* \"#utility.yul\":19217:19302   */\n      tag_634\n        /* \"#utility.yul\":19296:19301   */\n      dup6\n        /* \"#utility.yul\":19217:19302   */\n      tag_428\n      jump\t// in\n    tag_634:\n        /* \"#utility.yul\":19325:19332   */\n      dup1\n        /* \"#utility.yul\":19356:19357   */\n      0x00\n        /* \"#utility.yul\":19341:19794   */\n    tag_635:\n        /* \"#utility.yul\":19366:19372   */\n      dup6\n        /* \"#utility.yul\":19363:19364   */\n      dup2\n        /* \"#utility.yul\":19360:19373   */\n      lt\n        /* \"#utility.yul\":19341:19794   */\n      iszero\n      tag_637\n      jumpi\n        /* \"#utility.yul\":19437:19446   */\n      dup5\n        /* \"#utility.yul\":19431:19435   */\n      dup5\n        /* \"#utility.yul\":19427:19447   */\n      sub\n        /* \"#utility.yul\":19422:19425   */\n      dup10\n        /* \"#utility.yul\":19415:19448   */\n      mstore\n        /* \"#utility.yul\":19488:19494   */\n      dup2\n        /* \"#utility.yul\":19482:19495   */\n      mload\n        /* \"#utility.yul\":19516:19638   */\n      tag_638\n        /* \"#utility.yul\":19633:19637   */\n      dup6\n        /* \"#utility.yul\":19618:19631   */\n      dup3\n        /* \"#utility.yul\":19516:19638   */\n      tag_430\n      jump\t// in\n    tag_638:\n        /* \"#utility.yul\":19508:19638   */\n      swap5\n      pop\n        /* \"#utility.yul\":19661:19750   */\n      tag_639\n        /* \"#utility.yul\":19743:19749   */\n      dup4\n        /* \"#utility.yul\":19661:19750   */\n      tag_431\n      jump\t// in\n    tag_639:\n        /* \"#utility.yul\":19651:19750   */\n      swap3\n      pop\n        /* \"#utility.yul\":19779:19783   */\n      0x20\n        /* \"#utility.yul\":19774:19777   */\n      dup11\n        /* \"#utility.yul\":19770:19784   */\n      add\n        /* \"#utility.yul\":19763:19784   */\n      swap10\n      pop\n        /* \"#utility.yul\":19401:19794   */\n      pop\n        /* \"#utility.yul\":19388:19389   */\n      0x01\n        /* \"#utility.yul\":19385:19386   */\n      dup2\n        /* \"#utility.yul\":19381:19390   */\n      add\n        /* \"#utility.yul\":19376:19390   */\n      swap1\n      pop\n        /* \"#utility.yul\":19341:19794   */\n      jump(tag_635)\n    tag_637:\n        /* \"#utility.yul\":19345:19359   */\n      pop\n        /* \"#utility.yul\":19810:19814   */\n      dup3\n        /* \"#utility.yul\":19803:19814   */\n      swap8\n      pop\n        /* \"#utility.yul\":19830:19833   */\n      dup8\n        /* \"#utility.yul\":19823:19833   */\n      swap6\n      pop\n        /* \"#utility.yul\":18878:19839   */\n      pop\n      pop\n      pop\n      pop\n      pop\n        /* \"#utility.yul\":18696:19839   */\n      swap3\n      swap2\n      pop\n      pop\n      jump\t// out\n        /* \"#utility.yul\":19845:20334   */\n    tag_65:\n        /* \"#utility.yul\":20046:20050   */\n      0x00\n        /* \"#utility.yul\":20084:20086   */\n      0x20\n        /* \"#utility.yul\":20073:20082   */\n      dup3\n        /* \"#utility.yul\":20069:20087   */\n      add\n        /* \"#utility.yul\":20061:20087   */\n      swap1\n      pop\n        /* \"#utility.yul\":20133:20142   */\n      dup2\n        /* \"#utility.yul\":20127:20131   */\n      dup2\n        /* \"#utility.yul\":20123:20143   */\n      sub\n        /* \"#utility.yul\":20119:20120   */\n      0x00\n        /* \"#utility.yul\":20108:20117   */\n      dup4\n        /* \"#utility.yul\":20104:20121   */\n      add\n        /* \"#utility.yul\":20097:20144   */\n      mstore\n        /* \"#utility.yul\":20161:20327   */\n      tag_641\n        /* \"#utility.yul\":20322:20326   */\n      dup2\n        /* \"#utility.yul\":20313:20319   */\n      dup5\n        /* \"#utility.yul\":20161:20327   */\n      tag_432\n      jump\t// in\n    tag_641:\n        /* \"#utility.yul\":20153:20327   */\n      swap1\n      pop\n        /* \"#utility.yul\":19845:20334   */\n      swap3\n      swap2\n      pop\n      pop\n      jump\t// out\n        /* \"#utility.yul\":20340:20520   */\n    tag_433:\n        /* \"#utility.yul\":20388:20465   */\n      0x4e487b7100000000000000000000000000000000000000000000000000000000\n        /* \"#utility.yul\":20385:20386   */\n      0x00\n        /* \"#utility.yul\":20378:20466   */\n      mstore\n        /* \"#utility.yul\":20485:20489   */\n      0x22\n        /* \"#utility.yul\":20482:20483   */\n      0x04\n        /* \"#utility.yul\":20475:20490   */\n      mstore\n        /* \"#utility.yul\":20509:20513   */\n      0x24\n        /* \"#utility.yul\":20506:20507   */\n      0x00\n        /* \"#utility.yul\":20499:20514   */\n      revert\n        /* \"#utility.yul\":20526:20846   */\n    tag_72:\n        /* \"#utility.yul\":20570:20576   */\n      0x00\n        /* \"#utility.yul\":20607:20608   */\n      0x02\n        /* \"#utility.yul\":20601:20605   */\n      dup3\n        /* \"#utility.yul\":20597:20609   */\n      div\n        /* \"#utility.yul\":20587:20609   */\n      swap1\n      pop\n        /* \"#utility.yul\":20654:20655   */\n      0x01\n        /* \"#utility.yul\":20648:20652   */\n      dup3\n        /* \"#utility.yul\":20644:20656   */\n      and\n        /* \"#utility.yul\":20675:20693   */\n      dup1\n        /* \"#utility.yul\":20665:20746   */\n      tag_644\n      jumpi\n        /* \"#utility.yul\":20731:20735   */\n      0x7f\n        /* \"#utility.yul\":20723:20729   */\n      dup3\n        /* \"#utility.yul\":20719:20736   */\n      and\n        /* \"#utility.yul\":20709:20736   */\n      swap2\n      pop\n        /* \"#utility.yul\":20665:20746   */\n    tag_644:\n        /* \"#utility.yul\":20793:20795   */\n      0x20\n        /* \"#utility.yul\":20785:20791   */\n      dup3\n        /* \"#utility.yul\":20782:20796   */\n      lt\n        /* \"#utility.yul\":20762:20780   */\n      dup2\n        /* \"#utility.yul\":20759:20797   */\n      sub\n        /* \"#utility.yul\":20756:20840   */\n      tag_645\n      jumpi\n        /* \"#utility.yul\":20812:20830   */\n      tag_646\n      tag_433\n      jump\t// in\n    tag_646:\n        /* \"#utility.yul\":20756:20840   */\n    tag_645:\n        /* \"#utility.yul\":20577:20846   */\n      pop\n        /* \"#utility.yul\":20526:20846   */\n      swap2\n      swap1\n      pop\n      jump\t// out\n        /* \"#utility.yul\":20852:20993   */\n    tag_434:\n        /* \"#utility.yul\":20901:20905   */\n      0x00\n        /* \"#utility.yul\":20924:20927   */\n      dup2\n        /* \"#utility.yul\":20916:20927   */\n      swap1\n      pop\n        /* \"#utility.yul\":20947:20950   */\n      dup2\n        /* \"#utility.yul\":20944:20945   */\n      0x00\n        /* \"#utility.yul\":20937:20951   */\n      mstore\n        /* \"#utility.yul\":20981:20985   */\n      0x20\n        /* \"#utility.yul\":20978:20979   */\n      0x00\n        /* \"#utility.yul\":20968:20986   */\n      keccak256\n        /* \"#utility.yul\":20960:20986   */\n      swap1\n      pop\n        /* \"#utility.yul\":20852:20993   */\n      swap2\n      swap1\n      pop\n      jump\t// out\n        /* \"#utility.yul\":20999:21092   */\n    tag_435:\n        /* \"#utility.yul\":21036:21042   */\n      0x00\n        /* \"#utility.yul\":21083:21085   */\n      0x20\n        /* \"#utility.yul\":21078:21080   */\n      0x1f\n        /* \"#utility.yul\":21071:21076   */\n      dup4\n        /* \"#utility.yul\":21067:21081   */\n      add\n        /* \"#utility.yul\":21063:21086   */\n      div\n        /* \"#utility.yul\":21053:21086   */\n      swap1\n      pop\n        /* \"#utility.yul\":20999:21092   */\n      swap2\n      swap1\n      pop\n      jump\t// out\n        /* \"#utility.yul\":21098:21205   */\n    tag_436:\n        /* \"#utility.yul\":21142:21150   */\n      0x00\n        /* \"#utility.yul\":21192:21197   */\n      dup3\n        /* \"#utility.yul\":21186:21190   */\n      dup3\n        /* \"#utility.yul\":21182:21198   */\n      shl\n        /* \"#utility.yul\":21161:21198   */\n      swap1\n      pop\n        /* \"#utility.yul\":21098:21205   */\n      swap3\n      swap2\n      pop\n      pop\n      jump\t// out\n        /* \"#utility.yul\":21211:21604   */\n    tag_437:\n        /* \"#utility.yul\":21280:21286   */\n      0x00\n        /* \"#utility.yul\":21330:21331   */\n      0x08\n        /* \"#utility.yul\":21318:21328   */\n      dup4\n        /* \"#utility.yul\":21314:21332   */\n      mul\n        /* \"#utility.yul\":21353:21450   */\n      tag_651\n        /* \"#utility.yul\":21383:21449   */\n      0xffffffffffffffffffffffffffffffffffffffffffffffffffffffffffffffff\n        /* \"#utility.yul\":21372:21381   */\n      dup3\n        /* \"#utility.yul\":21353:21450   */\n      tag_436\n      jump\t// in\n    tag_651:\n        /* \"#utility.yul\":21471:21510   */\n      tag_652\n        /* \"#utility.yul\":21501:21509   */\n      dup7\n        /* \"#utility.yul\":21490:21499   */\n      dup4\n        /* \"#utility.yul\":21471:21510   */\n      tag_436\n      jump\t// in\n    tag_652:\n        /* \"#utility.yul\":21459:21510   */\n      swap6\n      pop\n        /* \"#utility.yul\":21543:21547   */\n      dup1\n        /* \"#utility.yul\":21539:21548   */\n      not\n        /* \"#utility.yul\":21532:21537   */\n      dup5\n        /* \"#utility.yul\":21528:21549   */\n      and\n        /* \"#utility.yul\":21519:21549   */\n      swap4\n      pop\n        /* \"#utility.yul\":21592:21596   */\n      dup1\n        /* \"#utility.yul\":21582:21590   */\n      dup7\n        /* \"#utility.yul\":21578:21597   */\n      and\n        /* \"#utility.yul\":21571:21576   */\n      dup5\n        /* \"#utility.yul\":21568:21598   */\n      or\n        /* \"#utility.yul\":21558:21598   */\n      swap3\n      pop\n        /* \"#utility.yul\":21287:21604   */\n      pop\n      pop\n        /* \"#utility.yul\":21211:21604   */\n      swap4\n      swap3\n      pop\n      pop\n      pop\n      jump\t// out\n        /* \"#utility.yul\":21610:21670   */\n    tag_438:\n        /* \"#utility.yul\":21638:21641   */\n      0x00\n        /* \"#utility.yul\":21659:21664   */\n      dup2\n        /* \"#utility.yul\":21652:21664   */\n      swap1\n      pop\n        /* \"#utility.yul\":21610:21670   */\n      swap2\n      swap1\n      pop\n      jump\t// out\n        /* \"#utility.yul\":21676:21818   */\n    tag_439:\n        /* \"#utility.yul\":21726:21735   */\n      0x00\n        /* \"#utility.yul\":21759:21812   */\n      tag_655\n        /* \"#utility.yul\":21777:21811   */\n      tag_656\n        /* \"#utility.yul\":21786:21810   */\n      tag_657\n        /* \"#utility.yul\":21804:21809   */\n      dup5\n        /* \"#utility.yul\":21786:21810   */\n      tag_421\n      jump\t// in\n    tag_657:\n        /* \"#utility.yul\":21777:21811   */\n      tag_438\n      jump\t// in\n    tag_656:\n        /* \"#utility.yul\":21759:21812   */\n      tag_421\n      jump\t// in\n    tag_655:\n        /* \"#utility.yul\":21746:21812   */\n      swap1\n      pop\n        /* \"#utility.yul\":21676:21818   */\n      swap2\n      swap1\n      pop\n      jump\t// out\n        /* \"#utility.yul\":21824:21899   */\n    tag_440:\n        /* \"#utility.yul\":21867:21870   */\n      0x00\n        /* \"#utility.yul\":21888:21893   */\n      dup2\n        /* \"#utility.yul\":21881:21893   */\n      swap1\n      pop\n        /* \"#utility.yul\":21824:21899   */\n      swap2\n      swap1\n      pop\n      jump\t// out\n        /* \"#utility.yul\":21905:22174   */\n    tag_441:\n        /* \"#utility.yul\":22015:22054   */\n      tag_660\n        /* \"#utility.yul\":22046:22053   */\n      dup4\n        /* \"#utility.yul\":22015:22054   */\n      tag_439\n      jump\t// in\n    tag_660:\n        /* \"#utility.yul\":22076:22167   */\n      tag_661\n        /* \"#utility.yul\":22125:22166   */\n      tag_662\n        /* \"#utility.yul\":22149:22165   */\n      dup3\n        /* \"#utility.yul\":22125:22166   */\n      tag_440\n      jump\t// in\n    tag_662:\n        /* \"#utility.yul\":22117:22123   */\n      dup5\n        /* \"#utility.yul\":22110:22114   */\n      dup5\n        /* \"#utility.yul\":22104:22115   */\n      sload\n        /* \"#utility.yul\":22076:22167   */\n      tag_437\n      jump\t// in\n    tag_661:\n        /* \"#utility.yul\":22070:22074   */\n      dup3\n        /* \"#utility.yul\":22063:22168   */\n      sstore\n        /* \"#utility.yul\":21981:22174   */\n      pop\n        /* \"#utility.yul\":21905:22174   */\n      pop\n      pop\n      pop\n      jump\t// out\n        /* \"#utility.yul\":22180:22253   */\n    tag_442:\n        /* \"#utility.yul\":22225:22228   */\n      0x00\n        /* \"#utility.yul\":22180:22253   */\n      swap1\n      jump\t// out\n        /* \"#utility.yul\":22259:22448   */\n    tag_443:\n        /* \"#utility.yul\":22336:22368   */\n      tag_665\n      tag_442\n      jump\t// in\n    tag_665:\n        /* \"#utility.yul\":22377:22442   */\n      tag_666\n        /* \"#utility.yul\":22435:22441   */\n      dup2\n        /* \"#utility.yul\":22427:22433   */\n      dup5\n        /* \"#utility.yul\":22421:22425   */\n      dup5\n        /* \"#utility.yul\":22377:22442   */\n      tag_441\n      jump\t// in\n    tag_666:\n        /* \"#utility.yul\":22312:22448   */\n      pop\n        /* \"#utility.yul\":22259:22448   */\n      pop\n      pop\n      jump\t// out\n        /* \"#utility.yul\":22454:22640   */\n    tag_444:\n        /* \"#utility.yul\":22514:22634   */\n    tag_668:\n        /* \"#utility.yul\":22531:22534   */\n      dup2\n        /* \"#utility.yul\":22524:22529   */\n      dup2\n        /* \"#utility.yul\":22521:22535   */\n      lt\n        /* \"#utility.yul\":22514:22634   */\n      iszero\n      tag_670\n      jumpi\n        /* \"#utility.yul\":22585:22624   */\n      tag_671\n        /* \"#utility.yul\":22622:22623   */\n      0x00\n        /* \"#utility.yul\":22615:22620   */\n      dup3\n        /* \"#utility.yul\":22585:22624   */\n      tag_443\n      jump\t// in\n    tag_671:\n        /* \"#utility.yul\":22558:22559   */\n      0x01\n        /* \"#utility.yul\":22551:22556   */\n      dup2\n        /* \"#utility.yul\":22547:22560   */\n      add\n        /* \"#utility.yul\":22538:22560   */\n      swap1\n      pop\n        /* \"#utility.yul\":22514:22634   */\n      jump(tag_668)\n    tag_670:\n        /* \"#utility.yul\":22454:22640   */\n      pop\n      pop\n      jump\t// out\n        /* \"#utility.yul\":22646:23189   */\n    tag_445:\n        /* \"#utility.yul\":22747:22749   */\n      0x1f\n        /* \"#utility.yul\":22742:22745   */\n      dup3\n        /* \"#utility.yul\":22739:22750   */\n      gt\n        /* \"#utility.yul\":22736:23182   */\n      iszero\n      tag_673\n      jumpi\n        /* \"#utility.yul\":22781:22819   */\n      tag_674\n        /* \"#utility.yul\":22813:22818   */\n      dup2\n        /* \"#utility.yul\":22781:22819   */\n      tag_434\n      jump\t// in\n    tag_674:\n        /* \"#utility.yul\":22865:22894   */\n      tag_675\n        /* \"#utility.yul\":22883:22893   */\n      dup5\n        /* \"#utility.yul\":22865:22894   */\n      tag_435\n      jump\t// in\n    tag_675:\n        /* \"#utility.yul\":22855:22863   */\n      dup2\n        /* \"#utility.yul\":22851:22895   */\n      add\n        /* \"#utility.yul\":23048:23050   */\n      0x20\n        /* \"#utility.yul\":23036:23046   */\n      dup6\n        /* \"#utility.yul\":23033:23051   */\n      lt\n        /* \"#utility.yul\":23030:23079   */\n      iszero\n      tag_676\n      jumpi\n        /* \"#utility.yul\":23069:23077   */\n      dup2\n        /* \"#utility.yul\":23054:23077   */\n      swap1\n      pop\n        /* \"#utility.yul\":23030:23079   */\n    tag_676:\n        /* \"#utility.yul\":23092:23172   */\n      tag_677\n        /* \"#utility.yul\":23148:23170   */\n      tag_678\n        /* \"#utility.yul\":23166:23169   */\n      dup6\n        /* \"#utility.yul\":23148:23170   */\n      tag_435\n      jump\t// in\n    tag_678:\n        /* \"#utility.yul\":23138:23146   */\n      dup4\n        /* \"#utility.yul\":23134:23171   */\n      add\n        /* \"#utility.yul\":23121:23132   */\n      dup3\n        /* \"#utility.yul\":23092:23172   */\n      tag_444\n      jump\t// in\n    tag_677:\n        /* \"#utility.yul\":22751:23182   */\n      pop\n      pop\n        /* \"#utility.yul\":22736:23182   */\n    tag_673:\n        /* \"#utility.yul\":22646:23189   */\n      pop\n      pop\n      pop\n      jump\t// out\n        /* \"#utility.yul\":23195:23312   */\n    tag_446:\n        /* \"#utility.yul\":23249:23257   */\n      0x00\n        /* \"#utility.yul\":23299:23304   */\n      dup3\n        /* \"#utility.yul\":23293:23297   */\n      dup3\n        /* \"#utility.yul\":23289:23305   */\n      shr\n        /* \"#utility.yul\":23268:23305   */\n      swap1\n      pop\n        /* \"#utility.yul\":23195:23312   */\n      swap3\n      swap2\n      pop\n      pop\n      jump\t// out\n        /* \"#utility.yul\":23318:23487   */\n    tag_447:\n        /* \"#utility.yul\":23362:23368   */\n      0x00\n        /* \"#utility.yul\":23395:23446   */\n      tag_681\n        /* \"#utility.yul\":23443:23444   */\n      0x00\n        /* \"#utility.yul\":23439:23445   */\n      not\n        /* \"#utility.yul\":23431:23436   */\n      dup5\n        /* \"#utility.yul\":23428:23429   */\n      0x08\n        /* \"#utility.yul\":23424:23437   */\n      mul\n        /* \"#utility.yul\":23395:23446   */\n      tag_446\n      jump\t// in\n    tag_681:\n        /* \"#utility.yul\":23391:23447   */\n      not\n        /* \"#utility.yul\":23476:23480   */\n      dup1\n        /* \"#utility.yul\":23470:23474   */\n      dup4\n        /* \"#utility.yul\":23466:23481   */\n      and\n        /* \"#utility.yul\":23456:23481   */\n      swap2\n      pop\n        /* \"#utility.yul\":23369:23487   */\n      pop\n        /* \"#utility.yul\":23318:23487   */\n      swap3\n      swap2\n      pop\n      pop\n      jump\t// out\n        /* \"#utility.yul\":23492:23787   */\n    tag_448:\n        /* \"#utility.yul\":23568:23572   */\n      0x00\n        /* \"#utility.yul\":23714:23743   */\n      tag_683\n        /* \"#utility.yul\":23739:23742   */\n      dup4\n        /* \"#utility.yul\":23733:23737   */\n      dup4\n        /* \"#utility.yul\":23714:23743   */\n      tag_447\n      jump\t// in\n    tag_683:\n        /* \"#utility.yul\":23706:23743   */\n      swap2\n      pop\n        /* \"#utility.yul\":23776:23779   */\n      dup3\n        /* \"#utility.yul\":23773:23774   */\n      0x02\n        /* \"#utility.yul\":23769:23780   */\n      mul\n        /* \"#utility.yul\":23763:23767   */\n      dup3\n        /* \"#utility.yul\":23760:23781   */\n      or\n        /* \"#utility.yul\":23752:23781   */\n      swap1\n      pop\n        /* \"#utility.yul\":23492:23787   */\n      swap3\n      swap2\n      pop\n      pop\n      jump\t// out\n        /* \"#utility.yul\":23792:25187   */\n    tag_100:\n        /* \"#utility.yul\":23909:23946   */\n      tag_685\n        /* \"#utility.yul\":23942:23945   */\n      dup3\n        /* \"#utility.yul\":23909:23946   */\n      tag_396\n      jump\t// in\n    tag_685:\n        /* \"#utility.yul\":24011:24029   */\n      0xffffffffffffffff\n        /* \"#utility.yul\":24003:24009   */\n      dup2\n        /* \"#utility.yul\":24000:24030   */\n      gt\n        /* \"#utility.yul\":23997:24053   */\n      iszero\n      tag_686\n      jumpi\n        /* \"#utility.yul\":24033:24051   */\n      tag_687\n      tag_414\n      jump\t// in\n    tag_687:\n        /* \"#utility.yul\":23997:24053   */\n    tag_686:\n        /* \"#utility.yul\":24077:24115   */\n      tag_688\n        /* \"#utility.yul\":24109:24113   */\n      dup3\n        /* \"#utility.yul\":24103:24114   */\n      sload\n        /* \"#utility.yul\":24077:24115   */\n      tag_72\n      jump\t// in\n    tag_688:\n        /* \"#utility.yul\":24162:24229   */\n      tag_689\n        /* \"#utility.yul\":24222:24228   */\n      dup3\n        /* \"#utility.yul\":24214:24220   */\n      dup3\n        /* \"#utility.yul\":24208:24212   */\n      dup6\n        /* \"#utility.yul\":24162:24229   */\n      tag_445\n      jump\t// in\n    tag_689:\n        /* \"#utility.yul\":24256:24257   */\n      0x00\n        /* \"#utility.yul\":24280:24284   */\n      0x20\n        /* \"#utility.yul\":24267:24284   */\n      swap1\n      pop\n        /* \"#utility.yul\":24312:24314   */\n      0x1f\n        /* \"#utility.yul\":24304:24310   */\n      dup4\n        /* \"#utility.yul\":24301:24315   */\n      gt\n        /* \"#utility.yul\":24329:24330   */\n      0x01\n        /* \"#utility.yul\":24324:24942   */\n      dup2\n      eq\n      tag_691\n      jumpi\n        /* \"#utility.yul\":24986:24987   */\n      0x00\n        /* \"#utility.yul\":25003:25009   */\n      dup5\n        /* \"#utility.yul\":25000:25077   */\n      iszero\n      tag_692\n      jumpi\n        /* \"#utility.yul\":25052:25061   */\n      dup3\n        /* \"#utility.yul\":25047:25050   */\n      dup8\n        /* \"#utility.yul\":25043:25062   */\n      add\n        /* \"#utility.yul\":25037:25063   */\n      mload\n        /* \"#utility.yul\":25028:25063   */\n      swap1\n      pop\n        /* \"#utility.yul\":25000:25077   */\n    tag_692:\n        /* \"#utility.yul\":25103:25170   */\n      tag_693\n        /* \"#utility.yul\":25163:25169   */\n      dup6\n        /* \"#utility.yul\":25156:25161   */\n      dup3\n        /* \"#utility.yul\":25103:25170   */\n      tag_448\n      jump\t// in\n    tag_693:\n        /* \"#utility.yul\":25097:25101   */\n      dup7\n        /* \"#utility.yul\":25090:25171   */\n      sstore\n        /* \"#utility.yul\":24959:25181   */\n      pop\n        /* \"#utility.yul\":24294:25181   */\n      jump(tag_690)\n        /* \"#utility.yul\":24324:24942   */\n    tag_691:\n        /* \"#utility.yul\":24376:24380   */\n      0x1f\n        /* \"#utility.yul\":24372:24381   */\n      not\n        /* \"#utility.yul\":24364:24370   */\n      dup5\n        /* \"#utility.yul\":24360:24382   */\n      and\n        /* \"#utility.yul\":24410:24447   */\n      tag_694\n        /* \"#utility.yul\":24442:24446   */\n      dup7\n        /* \"#utility.yul\":24410:24447   */\n      tag_434\n      jump\t// in\n    tag_694:\n        /* \"#utility.yul\":24469:24470   */\n      0x00\n        /* \"#utility.yul\":24483:24691   */\n    tag_695:\n        /* \"#utility.yul\":24497:24504   */\n      dup3\n        /* \"#utility.yul\":24494:24495   */\n      dup2\n        /* \"#utility.yul\":24491:24505   */\n      lt\n        /* \"#utility.yul\":24483:24691   */\n      iszero\n      tag_697\n      jumpi\n        /* \"#utility.yul\":24576:24585   */\n      dup5\n        /* \"#utility.yul\":24571:24574   */\n      dup10\n        /* \"#utility.yul\":24567:24586   */\n      add\n        /* \"#utility.yul\":24561:24587   */\n      mload\n        /* \"#utility.yul\":24553:24559   */\n      dup3\n        /* \"#utility.yul\":24546:24588   */\n      sstore\n        /* \"#utility.yul\":24627:24628   */\n      0x01\n        /* \"#utility.yul\":24619:24625   */\n      dup3\n        /* \"#utility.yul\":24615:24629   */\n      add\n        /* \"#utility.yul\":24605:24629   */\n      swap2\n      pop\n        /* \"#utility.yul\":24674:24676   */\n      0x20\n        /* \"#utility.yul\":24663:24672   */\n      dup6\n        /* \"#utility.yul\":24659:24677   */\n      add\n        /* \"#utility.yul\":24646:24677   */\n      swap5\n      pop\n        /* \"#utility.yul\":24520:24524   */\n      0x20\n        /* \"#utility.yul\":24517:24518   */\n      dup2\n        /* \"#utility.yul\":24513:24525   */\n      add\n        /* \"#utility.yul\":24508:24525   */\n      swap1\n      pop\n        /* \"#utility.yul\":24483:24691   */\n      jump(tag_695)\n    tag_697:\n        /* \"#utility.yul\":24719:24725   */\n      dup7\n        /* \"#utility.yul\":24710:24717   */\n      dup4\n        /* \"#utility.yul\":24707:24726   */\n      lt\n        /* \"#utility.yul\":24704:24883   */\n      iszero\n      tag_698\n      jumpi\n        /* \"#utility.yul\":24777:24786   */\n      dup5\n        /* \"#utility.yul\":24772:24775   */\n      dup10\n        /* \"#utility.yul\":24768:24787   */\n      add\n        /* \"#utility.yul\":24762:24788   */\n      mload\n        /* \"#utility.yul\":24820:24868   */\n      tag_699\n        /* \"#utility.yul\":24862:24866   */\n      0x1f\n        /* \"#utility.yul\":24854:24860   */\n      dup10\n        /* \"#utility.yul\":24850:24867   */\n      and\n        /* \"#utility.yul\":24839:24848   */\n      dup3\n        /* \"#utility.yul\":24820:24868   */\n      tag_447\n      jump\t// in\n    tag_699:\n        /* \"#utility.yul\":24812:24818   */\n      dup4\n        /* \"#utility.yul\":24805:24869   */\n      sstore\n        /* \"#utility.yul\":24727:24883   */\n      pop\n        /* \"#utility.yul\":24704:24883   */\n    tag_698:\n        /* \"#utility.yul\":24929:24930   */\n      0x01\n        /* \"#utility.yul\":24925:24926   */\n      0x02\n        /* \"#utility.yul\":24917:24923   */\n      dup9\n        /* \"#utility.yul\":24913:24927   */\n      mul\n        /* \"#utility.yul\":24909:24931   */\n      add\n        /* \"#utility.yul\":24903:24907   */\n      dup9\n        /* \"#utility.yul\":24896:24932   */\n      sstore\n        /* \"#utility.yul\":24331:24942   */\n      pop\n      pop\n      pop\n        /* \"#utility.yul\":24294:25181   */\n    tag_690:\n      pop\n        /* \"#utility.yul\":23884:25187   */\n      pop\n      pop\n      pop\n        /* \"#utility.yul\":23792:25187   */\n      pop\n      pop\n      jump\t// out\n        /* \"#utility.yul\":25193:25342   */\n    tag_449:\n        /* \"#utility.yul\":25242:25248   */\n      0x00\n        /* \"#utility.yul\":25276:25281   */\n      dup2\n        /* \"#utility.yul\":25270:25282   */\n      sload\n        /* \"#utility.yul\":25260:25282   */\n      swap1\n      pop\n        /* \"#utility.yul\":25302:25335   */\n      tag_701\n        /* \"#utility.yul\":25328:25334   */\n      dup2\n        /* \"#utility.yul\":25302:25335   */\n      tag_72\n      jump\t// in\n    tag_701:\n        /* \"#utility.yul\":25292:25335   */\n      swap1\n      pop\n        /* \"#utility.yul\":25193:25342   */\n      swap2\n      swap1\n      pop\n      jump\t// out\n        /* \"#utility.yul\":25348:26799   */\n    tag_104:\n        /* \"#utility.yul\":25459:25462   */\n      dup2\n        /* \"#utility.yul\":25453:25457   */\n      dup2\n        /* \"#utility.yul\":25450:25463   */\n      sub\n        /* \"#utility.yul\":25447:25473   */\n      tag_703\n      jumpi\n        /* \"#utility.yul\":25466:25471   */\n      pop\n      pop\n      jump(tag_702)\n        /* \"#utility.yul\":25447:25473   */\n    tag_703:\n        /* \"#utility.yul\":25497:25531   */\n      tag_704\n        /* \"#utility.yul\":25527:25530   */\n      dup3\n        /* \"#utility.yul\":25497:25531   */\n      tag_449\n      jump\t// in\n    tag_704:\n        /* \"#utility.yul\":25596:25614   */\n      0xffffffffffffffff\n        /* \"#utility.yul\":25588:25594   */\n      dup2\n        /* \"#utility.yul\":25585:25615   */\n      gt\n        /* \"#utility.yul\":25582:25638   */\n      iszero\n      tag_705\n      jumpi\n        /* \"#utility.yul\":25618:25636   */\n      tag_706\n      tag_414\n      jump\t// in\n    tag_706:\n        /* \"#utility.yul\":25582:25638   */\n    tag_705:\n        /* \"#utility.yul\":25662:25700   */\n      tag_707\n        /* \"#utility.yul\":25694:25698   */\n      dup3\n        /* \"#utility.yul\":25688:25699   */\n      sload\n        /* \"#utility.yul\":25662:25700   */\n      tag_72\n      jump\t// in\n    tag_707:\n        /* \"#utility.yul\":25747:25814   */\n      tag_708\n        /* \"#utility.yul\":25807:25813   */\n      dup3\n        /* \"#utility.yul\":25799:25805   */\n      dup3\n        /* \"#utility.yul\":25793:25797   */\n      dup6\n        /* \"#utility.yul\":25747:25814   */\n      tag_445\n      jump\t// in\n    tag_708:\n        /* \"#utility.yul\":25841:25842   */\n      0x00\n        /* \"#utility.yul\":25870:25872   */\n      0x1f\n        /* \"#utility.yul\":25862:25868   */\n      dup4\n        /* \"#utility.yul\":25859:25873   */\n      gt\n        /* \"#utility.yul\":25887:25888   */\n      0x01\n        /* \"#utility.yul\":25882:26554   */\n      dup2\n      eq\n      tag_710\n      jumpi\n        /* \"#utility.yul\":26598:26599   */\n      0x00\n        /* \"#utility.yul\":26615:26621   */\n      dup5\n        /* \"#utility.yul\":26612:26689   */\n      iszero\n      tag_711\n      jumpi\n        /* \"#utility.yul\":26664:26673   */\n      dup3\n        /* \"#utility.yul\":26659:26662   */\n      dup8\n        /* \"#utility.yul\":26655:26674   */\n      add\n        /* \"#utility.yul\":26649:26675   */\n      sload\n        /* \"#utility.yul\":26640:26675   */\n      swap1\n      pop\n        /* \"#utility.yul\":26612:26689   */\n    tag_711:\n        /* \"#utility.yul\":26715:26782   */\n      tag_712\n        /* \"#utility.yul\":26775:26781   */\n      dup6\n        /* \"#utility.yul\":26768:26773   */\n      dup3\n        /* \"#utility.yul\":26715:26782   */\n      tag_448\n      jump\t// in\n    tag_712:\n        /* \"#utility.yul\":26709:26713   */\n      dup7\n        /* \"#utility.yul\":26702:26783   */\n      sstore\n        /* \"#utility.yul\":26571:26793   */\n      pop\n        /* \"#utility.yul\":25852:26793   */\n      jump(tag_709)\n        /* \"#utility.yul\":25882:26554   */\n    tag_710:\n        /* \"#utility.yul\":25934:25938   */\n      0x1f\n        /* \"#utility.yul\":25930:25939   */\n      not\n        /* \"#utility.yul\":25922:25928   */\n      dup5\n        /* \"#utility.yul\":25918:25940   */\n      and\n        /* \"#utility.yul\":25960:25996   */\n      tag_713\n        /* \"#utility.yul\":25992:25995   */\n      dup8\n        /* \"#utility.yul\":25960:25996   */\n      tag_434\n      jump\t// in\n    tag_713:\n        /* \"#utility.yul\":25953:25996   */\n      swap7\n      pop\n        /* \"#utility.yul\":26023:26060   */\n      tag_714\n        /* \"#utility.yul\":26055:26059   */\n      dup7\n        /* \"#utility.yul\":26023:26060   */\n      tag_434\n      jump\t// in\n    tag_714:\n        /* \"#utility.yul\":26082:26083   */\n      0x00\n        /* \"#utility.yul\":26096:26303   */\n    tag_715:\n        /* \"#utility.yul\":26110:26117   */\n      dup3\n        /* \"#utility.yul\":26107:26108   */\n      dup2\n        /* \"#utility.yul\":26104:26118   */\n      lt\n        /* \"#utility.yul\":26096:26303   */\n      iszero\n      tag_717\n      jumpi\n        /* \"#utility.yul\":26189:26198   */\n      dup5\n        /* \"#utility.yul\":26184:26187   */\n      dup10\n        /* \"#utility.yul\":26180:26199   */\n      add\n        /* \"#utility.yul\":26174:26200   */\n      sload\n        /* \"#utility.yul\":26166:26172   */\n      dup3\n        /* \"#utility.yul\":26159:26201   */\n      sstore\n        /* \"#utility.yul\":26240:26241   */\n      0x01\n        /* \"#utility.yul\":26232:26238   */\n      dup3\n        /* \"#utility.yul\":26228:26242   */\n      add\n        /* \"#utility.yul\":26218:26242   */\n      swap2\n      pop\n        /* \"#utility.yul\":26287:26288   */\n      0x01\n        /* \"#utility.yul\":26276:26285   */\n      dup6\n        /* \"#utility.yul\":26272:26289   */\n      add\n        /* \"#utility.yul\":26259:26289   */\n      swap5\n      pop\n        /* \"#utility.yul\":26133:26137   */\n      0x20\n        /* \"#utility.yul\":26130:26131   */\n      dup2\n        /* \"#utility.yul\":26126:26138   */\n      add\n        /* \"#utility.yul\":26121:26138   */\n      swap1\n      pop\n        /* \"#utility.yul\":26096:26303   */\n      jump(tag_715)\n    tag_717:\n        /* \"#utility.yul\":26331:26337   */\n      dup7\n        /* \"#utility.yul\":26322:26329   */\n      dup4\n        /* \"#utility.yul\":26319:26338   */\n      lt\n        /* \"#utility.yul\":26316:26495   */\n      iszero\n      tag_718\n      jumpi\n        /* \"#utility.yul\":26389:26398   */\n      dup5\n        /* \"#utility.yul\":26384:26387   */\n      dup10\n        /* \"#utility.yul\":26380:26399   */\n      add\n        /* \"#utility.yul\":26374:26400   */\n      sload\n        /* \"#utility.yul\":26432:26480   */\n      tag_719\n        /* \"#utility.yul\":26474:26478   */\n      0x1f\n        /* \"#utility.yul\":26466:26472   */\n      dup10\n        /* \"#utility.yul\":26462:26479   */\n      and\n        /* \"#utility.yul\":26451:26460   */\n      dup3\n        /* \"#utility.yul\":26432:26480   */\n      tag_447\n      jump\t// in\n    tag_719:\n        /* \"#utility.yul\":26424:26430   */\n      dup4\n        /* \"#utility.yul\":26417:26481   */\n      sstore\n        /* \"#utility.yul\":26339:26495   */\n      pop\n        /* \"#utility.yul\":26316:26495   */\n    tag_718:\n        /* \"#utility.yul\":26541:26542   */\n      0x01\n        /* \"#utility.yul\":26537:26538   */\n      0x02\n        /* \"#utility.yul\":26529:26535   */\n      dup9\n        /* \"#utility.yul\":26525:26539   */\n      mul\n        /* \"#utility.yul\":26521:26543   */\n      add\n        /* \"#utility.yul\":26515:26519   */\n      dup9\n        /* \"#utility.yul\":26508:26544   */\n      sstore\n        /* \"#utility.yul\":25889:26554   */\n      pop\n      pop\n      pop\n        /* \"#utility.yul\":25852:26793   */\n    tag_709:\n      pop\n        /* \"#utility.yul\":25437:26799   */\n      pop\n      pop\n      pop\n        /* \"#utility.yul\":25348:26799   */\n      pop\n      pop\n    tag_702:\n      jump\t// out\n        /* \"#utility.yul\":26805:26953   */\n    tag_450:\n        /* \"#utility.yul\":26907:26918   */\n      0x00\n        /* \"#utility.yul\":26944:26947   */\n      dup2\n        /* \"#utility.yul\":26929:26947   */\n      swap1\n      pop\n        /* \"#utility.yul\":26805:26953   */\n      swap3\n      swap2\n      pop\n      pop\n      jump\t// out\n        /* \"#utility.yul\":26959:27113   */\n    tag_451:\n        /* \"#utility.yul\":27099:27105   */\n      0x4445414e00000000000000000000000000000000000000000000000000000000\n        /* \"#utility.yul\":27095:27096   */\n      0x00\n        /* \"#utility.yul\":27087:27093   */\n      dup3\n        /* \"#utility.yul\":27083:27097   */\n      add\n        /* \"#utility.yul\":27076:27106   */\n      mstore\n        /* \"#utility.yul\":26959:27113   */\n      pop\n      jump\t// out\n        /* \"#utility.yul\":27119:27519   */\n    tag_452:\n        /* \"#utility.yul\":27279:27282   */\n      0x00\n        /* \"#utility.yul\":27300:27384   */\n      tag_723\n        /* \"#utility.yul\":27382:27383   */\n      0x04\n        /* \"#utility.yul\":27377:27380   */\n      dup4\n        /* \"#utility.yul\":27300:27384   */\n      tag_450\n      jump\t// in\n    tag_723:\n        /* \"#utility.yul\":27293:27384   */\n      swap2\n      pop\n        /* \"#utility.yul\":27393:27486   */\n      tag_724\n        /* \"#utility.yul\":27482:27485   */\n      dup3\n        /* \"#utility.yul\":27393:27486   */\n      tag_451\n      jump\t// in\n    tag_724:\n        /* \"#utility.yul\":27511:27512   */\n      0x04\n        /* \"#utility.yul\":27506:27509   */\n      dup3\n        /* \"#utility.yul\":27502:27513   */\n      add\n        /* \"#utility.yul\":27495:27513   */\n      swap1\n      pop\n        /* \"#utility.yul\":27119:27519   */\n      swap2\n      swap1\n      pop\n      jump\t// out\n        /* \"#utility.yul\":27525:27906   */\n    tag_115:\n        /* \"#utility.yul\":27710:27713   */\n      0x00\n        /* \"#utility.yul\":27732:27880   */\n      tag_726\n        /* \"#utility.yul\":27876:27879   */\n      dup3\n        /* \"#utility.yul\":27732:27880   */\n      tag_452\n      jump\t// in\n    tag_726:\n        /* \"#utility.yul\":27725:27880   */\n      swap2\n      pop\n        /* \"#utility.yul\":27897:27900   */\n      dup2\n        /* \"#utility.yul\":27890:27900   */\n      swap1\n      pop\n        /* \"#utility.yul\":27525:27906   */\n      swap2\n      swap1\n      pop\n      jump\t// out\n        /* \"#utility.yul\":27912:28302   */\n    tag_453:\n        /* \"#utility.yul\":28018:28021   */\n      0x00\n        /* \"#utility.yul\":28046:28085   */\n      tag_728\n        /* \"#utility.yul\":28079:28084   */\n      dup3\n        /* \"#utility.yul\":28046:28085   */\n      tag_396\n      jump\t// in\n    tag_728:\n        /* \"#utility.yul\":28101:28190   */\n      tag_729\n        /* \"#utility.yul\":28183:28189   */\n      dup2\n        /* \"#utility.yul\":28178:28181   */\n      dup6\n        /* \"#utility.yul\":28101:28190   */\n      tag_450\n      jump\t// in\n    tag_729:\n        /* \"#utility.yul\":28094:28190   */\n      swap4\n      pop\n        /* \"#utility.yul\":28199:28264   */\n      tag_730\n        /* \"#utility.yul\":28257:28263   */\n      dup2\n        /* \"#utility.yul\":28252:28255   */\n      dup6\n        /* \"#utility.yul\":28245:28249   */\n      0x20\n        /* \"#utility.yul\":28238:28243   */\n      dup7\n        /* \"#utility.yul\":28234:28250   */\n      add\n        /* \"#utility.yul\":28199:28264   */\n      tag_398\n      jump\t// in\n    tag_730:\n        /* \"#utility.yul\":28289:28295   */\n      dup1\n        /* \"#utility.yul\":28284:28287   */\n      dup5\n        /* \"#utility.yul\":28280:28296   */\n      add\n        /* \"#utility.yul\":28273:28296   */\n      swap2\n      pop\n        /* \"#utility.yul\":28022:28302   */\n      pop\n        /* \"#utility.yul\":27912:28302   */\n      swap3\n      swap2\n      pop\n      pop\n      jump\t// out\n        /* \"#utility.yul\":28308:28583   */\n    tag_117:\n        /* \"#utility.yul\":28440:28443   */\n      0x00\n        /* \"#utility.yul\":28462:28557   */\n      tag_732\n        /* \"#utility.yul\":28553:28556   */\n      dup3\n        /* \"#utility.yul\":28544:28550   */\n      dup5\n        /* \"#utility.yul\":28462:28557   */\n      tag_453\n      jump\t// in\n    tag_732:\n        /* \"#utility.yul\":28455:28557   */\n      swap2\n      pop\n        /* \"#utility.yul\":28574:28577   */\n      dup2\n        /* \"#utility.yul\":28567:28577   */\n      swap1\n      pop\n        /* \"#utility.yul\":28308:28583   */\n      swap3\n      swap2\n      pop\n      pop\n      jump\t// out\n        /* \"#utility.yul\":28589:28742   */\n    tag_454:\n        /* \"#utility.yul\":28729:28734   */\n      0x484f440000000000000000000000000000000000000000000000000000000000\n        /* \"#utility.yul\":28725:28726   */\n      0x00\n        /* \"#utility.yul\":28717:28723   */\n      dup3\n        /* \"#utility.yul\":28713:28727   */\n      add\n        /* \"#utility.yul\":28706:28735   */\n      mstore\n        /* \"#utility.yul\":28589:28742   */\n      pop\n      jump\t// out\n        /* \"#utility.yul\":28748:29148   */\n    tag_455:\n        /* \"#utility.yul\":28908:28911   */\n      0x00\n        /* \"#utility.yul\":28929:29013   */\n      tag_735\n        /* \"#utility.yul\":29011:29012   */\n      0x03\n        /* \"#utility.yul\":29006:29009   */\n      dup4\n        /* \"#utility.yul\":28929:29013   */\n      tag_450\n      jump\t// in\n    tag_735:\n        /* \"#utility.yul\":28922:29013   */\n      swap2\n      pop\n        /* \"#utility.yul\":29022:29115   */\n      tag_736\n        /* \"#utility.yul\":29111:29114   */\n      dup3\n        /* \"#utility.yul\":29022:29115   */\n      tag_454\n      jump\t// in\n    tag_736:\n        /* \"#utility.yul\":29140:29141   */\n      0x03\n        /* \"#utility.yul\":29135:29138   */\n      dup3\n        /* \"#utility.yul\":29131:29142   */\n      add\n        /* \"#utility.yul\":29124:29142   */\n      swap1\n      pop\n        /* \"#utility.yul\":28748:29148   */\n      swap2\n      swap1\n      pop\n      jump\t// out\n        /* \"#utility.yul\":29154:29535   */\n    tag_121:\n        /* \"#utility.yul\":29339:29342   */\n      0x00\n        /* \"#utility.yul\":29361:29509   */\n      tag_738\n        /* \"#utility.yul\":29505:29508   */\n      dup3\n        /* \"#utility.yul\":29361:29509   */\n      tag_455\n      jump\t// in\n    tag_738:\n        /* \"#utility.yul\":29354:29509   */\n      swap2\n      pop\n        /* \"#utility.yul\":29526:29529   */\n      dup2\n        /* \"#utility.yul\":29519:29529   */\n      swap1\n      pop\n        /* \"#utility.yul\":29154:29535   */\n      swap2\n      swap1\n      pop\n      jump\t// out\n        /* \"#utility.yul\":29541:29696   */\n    tag_456:\n        /* \"#utility.yul\":29681:29688   */\n      0x5354414646000000000000000000000000000000000000000000000000000000\n        /* \"#utility.yul\":29677:29678   */\n      0x00\n        /* \"#utility.yul\":29669:29675   */\n      dup3\n        /* \"#utility.yul\":29665:29679   */\n      add\n        /* \"#utility.yul\":29658:29689   */\n      mstore\n        /* \"#utility.yul\":29541:29696   */\n      pop\n      jump\t// out\n        /* \"#utility.yul\":29702:30102   */\n    tag_457:\n        /* \"#utility.yul\":29862:29865   */\n      0x00\n        /* \"#utility.yul\":29883:29967   */\n      tag_741\n        /* \"#utility.yul\":29965:29966   */\n      0x05\n        /* \"#utility.yul\":29960:29963   */\n      dup4\n        /* \"#utility.yul\":29883:29967   */\n      tag_450\n      jump\t// in\n    tag_741:\n        /* \"#utility.yul\":29876:29967   */\n      swap2\n      pop\n        /* \"#utility.yul\":29976:30069   */\n      tag_742\n        /* \"#utility.yul\":30065:30068   */\n      dup3\n        /* \"#utility.yul\":29976:30069   */\n      tag_456\n      jump\t// in\n    tag_742:\n        /* \"#utility.yul\":30094:30095   */\n      0x05\n        /* \"#utility.yul\":30089:30092   */\n      dup3\n        /* \"#utility.yul\":30085:30096   */\n      add\n        /* \"#utility.yul\":30078:30096   */\n      swap1\n      pop\n        /* \"#utility.yul\":29702:30102   */\n      swap2\n      swap1\n      pop\n      jump\t// out\n        /* \"#utility.yul\":30108:30489   */\n    tag_126:\n        /* \"#utility.yul\":30293:30296   */\n      0x00\n        /* \"#utility.yul\":30315:30463   */\n      tag_744\n        /* \"#utility.yul\":30459:30462   */\n      dup3\n        /* \"#utility.yul\":30315:30463   */\n      tag_457\n      jump\t// in\n    tag_744:\n        /* \"#utility.yul\":30308:30463   */\n      swap2\n      pop\n        /* \"#utility.yul\":30480:30483   */\n      dup2\n        /* \"#utility.yul\":30473:30483   */\n      swap1\n      pop\n        /* \"#utility.yul\":30108:30489   */\n      swap2\n      swap1\n      pop\n      jump\t// out\n        /* \"#utility.yul\":30495:30652   */\n    tag_458:\n        /* \"#utility.yul\":30635:30644   */\n      0x53545544454e5400000000000000000000000000000000000000000000000000\n        /* \"#utility.yul\":30631:30632   */\n      0x00\n        /* \"#utility.yul\":30623:30629   */\n      dup3\n        /* \"#utility.yul\":30619:30633   */\n      add\n        /* \"#utility.yul\":30612:30645   */\n      mstore\n        /* \"#utility.yul\":30495:30652   */\n      pop\n      jump\t// out\n        /* \"#utility.yul\":30658:31058   */\n    tag_459:\n        /* \"#utility.yul\":30818:30821   */\n      0x00\n        /* \"#utility.yul\":30839:30923   */\n      tag_747\n        /* \"#utility.yul\":30921:30922   */\n      0x07\n        /* \"#utility.yul\":30916:30919   */\n      dup4\n        /* \"#utility.yul\":30839:30923   */\n      tag_450\n      jump\t// in\n    tag_747:\n        /* \"#utility.yul\":30832:30923   */\n      swap2\n      pop\n        /* \"#utility.yul\":30932:31025   */\n      tag_748\n        /* \"#utility.yul\":31021:31024   */\n      dup3\n        /* \"#utility.yul\":30932:31025   */\n      tag_458\n      jump\t// in\n    tag_748:\n        /* \"#utility.yul\":31050:31051   */\n      0x07\n        /* \"#utility.yul\":31045:31048   */\n      dup3\n        /* \"#utility.yul\":31041:31052   */\n      add\n        /* \"#utility.yul\":31034:31052   */\n      swap1\n      pop\n        /* \"#utility.yul\":30658:31058   */\n      swap2\n      swap1\n      pop\n      jump\t// out\n        /* \"#utility.yul\":31064:31445   */\n    tag_131:\n        /* \"#utility.yul\":31249:31252   */\n      0x00\n        /* \"#utility.yul\":31271:31419   */\n      tag_750\n        /* \"#utility.yul\":31415:31418   */\n      dup3\n        /* \"#utility.yul\":31271:31419   */\n      tag_459\n      jump\t// in\n    tag_750:\n        /* \"#utility.yul\":31264:31419   */\n      swap2\n      pop\n        /* \"#utility.yul\":31436:31439   */\n      dup2\n        /* \"#utility.yul\":31429:31439   */\n      swap1\n      pop\n        /* \"#utility.yul\":31064:31445   */\n      swap2\n      swap1\n      pop\n      jump\t// out\n        /* \"#utility.yul\":31451:31620   */\n    tag_460:\n        /* \"#utility.yul\":31535:31546   */\n      0x00\n        /* \"#utility.yul\":31569:31575   */\n      dup3\n        /* \"#utility.yul\":31564:31567   */\n      dup3\n        /* \"#utility.yul\":31557:31576   */\n      mstore\n        /* \"#utility.yul\":31609:31613   */\n      0x20\n        /* \"#utility.yul\":31604:31607   */\n      dup3\n        /* \"#utility.yul\":31600:31614   */\n      add\n        /* \"#utility.yul\":31585:31614   */\n      swap1\n      pop\n        /* \"#utility.yul\":31451:31620   */\n      swap3\n      swap2\n      pop\n      pop\n      jump\t// out\n        /* \"#utility.yul\":31626:31792   */\n    tag_461:\n        /* \"#utility.yul\":31766:31784   */\n      0x4d656d6265722052657175657374656400000000000000000000000000000000\n        /* \"#utility.yul\":31762:31763   */\n      0x00\n        /* \"#utility.yul\":31754:31760   */\n      dup3\n        /* \"#utility.yul\":31750:31764   */\n      add\n        /* \"#utility.yul\":31743:31785   */\n      mstore\n        /* \"#utility.yul\":31626:31792   */\n      pop\n      jump\t// out\n        /* \"#utility.yul\":31798:32164   */\n    tag_462:\n        /* \"#utility.yul\":31940:31943   */\n      0x00\n        /* \"#utility.yul\":31961:32028   */\n      tag_754\n        /* \"#utility.yul\":32025:32027   */\n      0x10\n        /* \"#utility.yul\":32020:32023   */\n      dup4\n        /* \"#utility.yul\":31961:32028   */\n      tag_460\n      jump\t// in\n    tag_754:\n        /* \"#utility.yul\":31954:32028   */\n      swap2\n      pop\n        /* \"#utility.yul\":32037:32130   */\n      tag_755\n        /* \"#utility.yul\":32126:32129   */\n      dup3\n        /* \"#utility.yul\":32037:32130   */\n      tag_461\n      jump\t// in\n    tag_755:\n        /* \"#utility.yul\":32155:32157   */\n      0x20\n        /* \"#utility.yul\":32150:32153   */\n      dup3\n        /* \"#utility.yul\":32146:32158   */\n      add\n        /* \"#utility.yul\":32139:32158   */\n      swap1\n      pop\n        /* \"#utility.yul\":31798:32164   */\n      swap2\n      swap1\n      pop\n      jump\t// out\n        /* \"#utility.yul\":32170:32589   */\n    tag_141:\n        /* \"#utility.yul\":32336:32340   */\n      0x00\n        /* \"#utility.yul\":32374:32376   */\n      0x20\n        /* \"#utility.yul\":32363:32372   */\n      dup3\n        /* \"#utility.yul\":32359:32377   */\n      add\n        /* \"#utility.yul\":32351:32377   */\n      swap1\n      pop\n        /* \"#utility.yul\":32423:32432   */\n      dup2\n        /* \"#utility.yul\":32417:32421   */\n      dup2\n        /* \"#utility.yul\":32413:32433   */\n      sub\n        /* \"#utility.yul\":32409:32410   */\n      0x00\n        /* \"#utility.yul\":32398:32407   */\n      dup4\n        /* \"#utility.yul\":32394:32411   */\n      add\n        /* \"#utility.yul\":32387:32434   */\n      mstore\n        /* \"#utility.yul\":32451:32582   */\n      tag_757\n        /* \"#utility.yul\":32577:32581   */\n      dup2\n        /* \"#utility.yul\":32451:32582   */\n      tag_462\n      jump\t// in\n    tag_757:\n        /* \"#utility.yul\":32443:32582   */\n      swap1\n      pop\n        /* \"#utility.yul\":32170:32589   */\n      swap2\n      swap1\n      pop\n      jump\t// out\n        /* \"#utility.yul\":32595:32757   */\n    tag_463:\n        /* \"#utility.yul\":32735:32749   */\n      0x4d656d6265722045786973740000000000000000000000000000000000000000\n        /* \"#utility.yul\":32731:32732   */\n      0x00\n        /* \"#utility.yul\":32723:32729   */\n      dup3\n        /* \"#utility.yul\":32719:32733   */\n      add\n        /* \"#utility.yul\":32712:32750   */\n      mstore\n        /* \"#utility.yul\":32595:32757   */\n      pop\n      jump\t// out\n        /* \"#utility.yul\":32763:33129   */\n    tag_464:\n        /* \"#utility.yul\":32905:32908   */\n      0x00\n        /* \"#utility.yul\":32926:32993   */\n      tag_760\n        /* \"#utility.yul\":32990:32992   */\n      0x0c\n        /* \"#utility.yul\":32985:32988   */\n      dup4\n        /* \"#utility.yul\":32926:32993   */\n      tag_460\n      jump\t// in\n    tag_760:\n        /* \"#utility.yul\":32919:32993   */\n      swap2\n      pop\n        /* \"#utility.yul\":33002:33095   */\n      tag_761\n        /* \"#utility.yul\":33091:33094   */\n      dup3\n        /* \"#utility.yul\":33002:33095   */\n      tag_463\n      jump\t// in\n    tag_761:\n        /* \"#utility.yul\":33120:33122   */\n      0x20\n        /* \"#utility.yul\":33115:33118   */\n      dup3\n        /* \"#utility.yul\":33111:33123   */\n      add\n        /* \"#utility.yul\":33104:33123   */\n      swap1\n      pop\n        /* \"#utility.yul\":32763:33129   */\n      swap2\n      swap1\n      pop\n      jump\t// out\n        /* \"#utility.yul\":33135:33554   */\n    tag_144:\n        /* \"#utility.yul\":33301:33305   */\n      0x00\n        /* \"#utility.yul\":33339:33341   */\n      0x20\n        /* \"#utility.yul\":33328:33337   */\n      dup3\n        /* \"#utility.yul\":33324:33342   */\n      add\n        /* \"#utility.yul\":33316:33342   */\n      swap1\n      pop\n        /* \"#utility.yul\":33388:33397   */\n      dup2\n        /* \"#utility.yul\":33382:33386   */\n      dup2\n        /* \"#utility.yul\":33378:33398   */\n      sub\n        /* \"#utility.yul\":33374:33375   */\n      0x00\n        /* \"#utility.yul\":33363:33372   */\n      dup4\n        /* \"#utility.yul\":33359:33376   */\n      add\n        /* \"#utility.yul\":33352:33399   */\n      mstore\n        /* \"#utility.yul\":33416:33547   */\n      tag_763\n        /* \"#utility.yul\":33542:33546   */\n      dup2\n        /* \"#utility.yul\":33416:33547   */\n      tag_464\n      jump\t// in\n    tag_763:\n        /* \"#utility.yul\":33408:33547   */\n      swap1\n      pop\n        /* \"#utility.yul\":33135:33554   */\n      swap2\n      swap1\n      pop\n      jump\t// out\n        /* \"#utility.yul\":33560:33735   */\n    tag_465:\n        /* \"#utility.yul\":33700:33727   */\n      0x596f75206e65656420746f205265717565737420466972737400000000000000\n        /* \"#utility.yul\":33696:33697   */\n      0x00\n        /* \"#utility.yul\":33688:33694   */\n      dup3\n        /* \"#utility.yul\":33684:33698   */\n      add\n        /* \"#utility.yul\":33677:33728   */\n      mstore\n        /* \"#utility.yul\":33560:33735   */\n      pop\n      jump\t// out\n        /* \"#utility.yul\":33741:34107   */\n    tag_466:\n        /* \"#utility.yul\":33883:33886   */\n      0x00\n        /* \"#utility.yul\":33904:33971   */\n      tag_766\n        /* \"#utility.yul\":33968:33970   */\n      0x19\n        /* \"#utility.yul\":33963:33966   */\n      dup4\n        /* \"#utility.yul\":33904:33971   */\n      tag_460\n      jump\t// in\n    tag_766:\n        /* \"#utility.yul\":33897:33971   */\n      swap2\n      pop\n        /* \"#utility.yul\":33980:34073   */\n      tag_767\n        /* \"#utility.yul\":34069:34072   */\n      dup3\n        /* \"#utility.yul\":33980:34073   */\n      tag_465\n      jump\t// in\n    tag_767:\n        /* \"#utility.yul\":34098:34100   */\n      0x20\n        /* \"#utility.yul\":34093:34096   */\n      dup3\n        /* \"#utility.yul\":34089:34101   */\n      add\n        /* \"#utility.yul\":34082:34101   */\n      swap1\n      pop\n        /* \"#utility.yul\":33741:34107   */\n      swap2\n      swap1\n      pop\n      jump\t// out\n        /* \"#utility.yul\":34113:34532   */\n    tag_161:\n        /* \"#utility.yul\":34279:34283   */\n      0x00\n        /* \"#utility.yul\":34317:34319   */\n      0x20\n        /* \"#utility.yul\":34306:34315   */\n      dup3\n        /* \"#utility.yul\":34302:34320   */\n      add\n        /* \"#utility.yul\":34294:34320   */\n      swap1\n      pop\n        /* \"#utility.yul\":34366:34375   */\n      dup2\n        /* \"#utility.yul\":34360:34364   */\n      dup2\n        /* \"#utility.yul\":34356:34376   */\n      sub\n        /* \"#utility.yul\":34352:34353   */\n      0x00\n        /* \"#utility.yul\":34341:34350   */\n      dup4\n        /* \"#utility.yul\":34337:34354   */\n      add\n        /* \"#utility.yul\":34330:34377   */\n      mstore\n        /* \"#utility.yul\":34394:34525   */\n      tag_769\n        /* \"#utility.yul\":34520:34524   */\n      dup2\n        /* \"#utility.yul\":34394:34525   */\n      tag_466\n      jump\t// in\n    tag_769:\n        /* \"#utility.yul\":34386:34525   */\n      swap1\n      pop\n        /* \"#utility.yul\":34113:34532   */\n      swap2\n      swap1\n      pop\n      jump\t// out\n        /* \"#utility.yul\":34538:34775   */\n    tag_467:\n        /* \"#utility.yul\":34678:34712   */\n      0x596f752063616e277420617070726f6f766520706f7374206f6620736f6d656f\n        /* \"#utility.yul\":34674:34675   */\n      0x00\n        /* \"#utility.yul\":34666:34672   */\n      dup3\n        /* \"#utility.yul\":34662:34676   */\n      add\n        /* \"#utility.yul\":34655:34713   */\n      mstore\n        /* \"#utility.yul\":34747:34767   */\n      0x6e652061626f7665207468616e20796f752e0000000000000000000000000000\n        /* \"#utility.yul\":34742:34744   */\n      0x20\n        /* \"#utility.yul\":34734:34740   */\n      dup3\n        /* \"#utility.yul\":34730:34745   */\n      add\n        /* \"#utility.yul\":34723:34768   */\n      mstore\n        /* \"#utility.yul\":34538:34775   */\n      pop\n      jump\t// out\n        /* \"#utility.yul\":34781:35147   */\n    tag_468:\n        /* \"#utility.yul\":34923:34926   */\n      0x00\n        /* \"#utility.yul\":34944:35011   */\n      tag_772\n        /* \"#utility.yul\":35008:35010   */\n      0x32\n        /* \"#utility.yul\":35003:35006   */\n      dup4\n        /* \"#utility.yul\":34944:35011   */\n      tag_460\n      jump\t// in\n    tag_772:\n        /* \"#utility.yul\":34937:35011   */\n      swap2\n      pop\n        /* \"#utility.yul\":35020:35113   */\n      tag_773\n        /* \"#utility.yul\":35109:35112   */\n      dup3\n        /* \"#utility.yul\":35020:35113   */\n      tag_467\n      jump\t// in\n    tag_773:\n        /* \"#utility.yul\":35138:35140   */\n      0x40\n        /* \"#utility.yul\":35133:35136   */\n      dup3\n        /* \"#utility.yul\":35129:35141   */\n      add\n        /* \"#utility.yul\":35122:35141   */\n      swap1\n      pop\n        /* \"#utility.yul\":34781:35147   */\n      swap2\n      swap1\n      pop\n      jump\t// out\n        /* \"#utility.yul\":35153:35572   */\n    tag_181:\n        /* \"#utility.yul\":35319:35323   */\n      0x00\n        /* \"#utility.yul\":35357:35359   */\n      0x20\n        /* \"#utility.yul\":35346:35355   */\n      dup3\n        /* \"#utility.yul\":35342:35360   */\n      add\n        /* \"#utility.yul\":35334:35360   */\n      swap1\n      pop\n        /* \"#utility.yul\":35406:35415   */\n      dup2\n        /* \"#utility.yul\":35400:35404   */\n      dup2\n        /* \"#utility.yul\":35396:35416   */\n      sub\n        /* \"#utility.yul\":35392:35393   */\n      0x00\n        /* \"#utility.yul\":35381:35390   */\n      dup4\n        /* \"#utility.yul\":35377:35394   */\n      add\n        /* \"#utility.yul\":35370:35417   */\n      mstore\n        /* \"#utility.yul\":35434:35565   */\n      tag_775\n        /* \"#utility.yul\":35560:35564   */\n      dup2\n        /* \"#utility.yul\":35434:35565   */\n      tag_468\n      jump\t// in\n    tag_775:\n        /* \"#utility.yul\":35426:35565   */\n      swap1\n      pop\n        /* \"#utility.yul\":35153:35572   */\n      swap2\n      swap1\n      pop\n      jump\t// out\n        /* \"#utility.yul\":35578:35807   */\n    tag_469:\n        /* \"#utility.yul\":35718:35752   */\n      0x596f752063616e277420617070726f6f766520736f6d656f6e652061626f7665\n        /* \"#utility.yul\":35714:35715   */\n      0x00\n        /* \"#utility.yul\":35706:35712   */\n      dup3\n        /* \"#utility.yul\":35702:35716   */\n      add\n        /* \"#utility.yul\":35695:35753   */\n      mstore\n        /* \"#utility.yul\":35787:35799   */\n      0x207468616e20796f752e00000000000000000000000000000000000000000000\n        /* \"#utility.yul\":35782:35784   */\n      0x20\n        /* \"#utility.yul\":35774:35780   */\n      dup3\n        /* \"#utility.yul\":35770:35785   */\n      add\n        /* \"#utility.yul\":35763:35800   */\n      mstore\n        /* \"#utility.yul\":35578:35807   */\n      pop\n      jump\t// out\n        /* \"#utility.yul\":35813:36179   */\n    tag_470:\n        /* \"#utility.yul\":35955:35958   */\n      0x00\n        /* \"#utility.yul\":35976:36043   */\n      tag_778\n        /* \"#utility.yul\":36040:36042   */\n      0x2a\n        /* \"#utility.yul\":36035:36038   */\n      dup4\n        /* \"#utility.yul\":35976:36043   */\n      tag_460\n      jump\t// in\n    tag_778:\n        /* \"#utility.yul\":35969:36043   */\n      swap2\n      pop\n        /* \"#utility.yul\":36052:36145   */\n      tag_779\n        /* \"#utility.yul\":36141:36144   */\n      dup3\n        /* \"#utility.yul\":36052:36145   */\n      tag_469\n      jump\t// in\n    tag_779:\n        /* \"#utility.yul\":36170:36172   */\n      0x40\n        /* \"#utility.yul\":36165:36168   */\n      dup3\n        /* \"#utility.yul\":36161:36173   */\n      add\n        /* \"#utility.yul\":36154:36173   */\n      swap1\n      pop\n        /* \"#utility.yul\":35813:36179   */\n      swap2\n      swap1\n      pop\n      jump\t// out\n        /* \"#utility.yul\":36185:36604   */\n    tag_286:\n        /* \"#utility.yul\":36351:36355   */\n      0x00\n        /* \"#utility.yul\":36389:36391   */\n      0x20\n        /* \"#utility.yul\":36378:36387   */\n      dup3\n        /* \"#utility.yul\":36374:36392   */\n      add\n        /* \"#utility.yul\":36366:36392   */\n      swap1\n      pop\n        /* \"#utility.yul\":36438:36447   */\n      dup2\n        /* \"#utility.yul\":36432:36436   */\n      dup2\n        /* \"#utility.yul\":36428:36448   */\n      sub\n        /* \"#utility.yul\":36424:36425   */\n      0x00\n        /* \"#utility.yul\":36413:36422   */\n      dup4\n        /* \"#utility.yul\":36409:36426   */\n      add\n        /* \"#utility.yul\":36402:36449   */\n      mstore\n        /* \"#utility.yul\":36466:36597   */\n      tag_781\n        /* \"#utility.yul\":36592:36596   */\n      dup2\n        /* \"#utility.yul\":36466:36597   */\n      tag_470\n      jump\t// in\n    tag_781:\n        /* \"#utility.yul\":36458:36597   */\n      swap1\n      pop\n        /* \"#utility.yul\":36185:36604   */\n      swap2\n      swap1\n      pop\n      jump\t// out\n        /* \"#utility.yul\":36610:36790   */\n    tag_471:\n        /* \"#utility.yul\":36658:36735   */\n      0x4e487b7100000000000000000000000000000000000000000000000000000000\n        /* \"#utility.yul\":36655:36656   */\n      0x00\n        /* \"#utility.yul\":36648:36736   */\n      mstore\n        /* \"#utility.yul\":36755:36759   */\n      0x11\n        /* \"#utility.yul\":36752:36753   */\n      0x04\n        /* \"#utility.yul\":36745:36760   */\n      mstore\n        /* \"#utility.yul\":36779:36783   */\n      0x24\n        /* \"#utility.yul\":36776:36777   */\n      0x00\n        /* \"#utility.yul\":36769:36784   */\n      revert\n        /* \"#utility.yul\":36796:36990   */\n    tag_347:\n        /* \"#utility.yul\":36836:36840   */\n      0x00\n        /* \"#utility.yul\":36856:36876   */\n      tag_784\n        /* \"#utility.yul\":36874:36875   */\n      dup3\n        /* \"#utility.yul\":36856:36876   */\n      tag_421\n      jump\t// in\n    tag_784:\n        /* \"#utility.yul\":36851:36876   */\n      swap2\n      pop\n        /* \"#utility.yul\":36890:36910   */\n      tag_785\n        /* \"#utility.yul\":36908:36909   */\n      dup4\n        /* \"#utility.yul\":36890:36910   */\n      tag_421\n      jump\t// in\n    tag_785:\n        /* \"#utility.yul\":36885:36910   */\n      swap3\n      pop\n        /* \"#utility.yul\":36934:36935   */\n      dup3\n        /* \"#utility.yul\":36931:36932   */\n      dup3\n        /* \"#utility.yul\":36927:36936   */\n      sub\n        /* \"#utility.yul\":36919:36936   */\n      swap1\n      pop\n        /* \"#utility.yul\":36958:36959   */\n      dup2\n        /* \"#utility.yul\":36952:36956   */\n      dup2\n        /* \"#utility.yul\":36949:36960   */\n      gt\n        /* \"#utility.yul\":36946:36983   */\n      iszero\n      tag_786\n      jumpi\n        /* \"#utility.yul\":36963:36981   */\n      tag_787\n      tag_471\n      jump\t// in\n    tag_787:\n        /* \"#utility.yul\":36946:36983   */\n    tag_786:\n        /* \"#utility.yul\":36796:36990   */\n      swap3\n      swap2\n      pop\n      pop\n      jump\t// out\n        /* \"#utility.yul\":36996:37176   */\n    tag_350:\n        /* \"#utility.yul\":37044:37121   */\n      0x4e487b7100000000000000000000000000000000000000000000000000000000\n        /* \"#utility.yul\":37041:37042   */\n      0x00\n        /* \"#utility.yul\":37034:37122   */\n      mstore\n        /* \"#utility.yul\":37141:37145   */\n      0x32\n        /* \"#utility.yul\":37138:37139   */\n      0x04\n        /* \"#utility.yul\":37131:37146   */\n      mstore\n        /* \"#utility.yul\":37165:37169   */\n      0x24\n        /* \"#utility.yul\":37162:37163   */\n      0x00\n        /* \"#utility.yul\":37155:37170   */\n      revert\n        /* \"#utility.yul\":37182:37362   */\n    tag_361:\n        /* \"#utility.yul\":37230:37307   */\n      0x4e487b7100000000000000000000000000000000000000000000000000000000\n        /* \"#utility.yul\":37227:37228   */\n      0x00\n        /* \"#utility.yul\":37220:37308   */\n      mstore\n        /* \"#utility.yul\":37327:37331   */\n      0x31\n        /* \"#utility.yul\":37324:37325   */\n      0x04\n        /* \"#utility.yul\":37317:37332   */\n      mstore\n        /* \"#utility.yul\":37351:37355   */\n      0x24\n        /* \"#utility.yul\":37348:37349   */\n      0x00\n        /* \"#utility.yul\":37341:37356   */\n      revert\n\n    auxdata: 0xa26469706673582212202d5bf8e7e456563b9076099e359059db9ea147b13c4d6c9d53781ca623a2665464736f6c63430008100033\n}\n","bytecode":{"linkReferences":{},"object":"60806040526000600655600060075534801561001a57600080fd5b506146918061002a6000396000f3fe6080604052600436106100915760003560e01c8063529d379711610059578063529d37971461019f578063a9e10bf2146101c8578063bafa08c1146101d2578063e070dd121461020f578063e473f6cd1461023857610091565b80631e0f71fe1461009657806328538949146100d357806335a6861a1461011057806339fec8871461014d5780634cd6f25e14610176575b600080fd5b3480156100a257600080fd5b506100bd60048036038101906100b891906134d6565b610275565b6040516100ca91906136f5565b60405180910390f35b3480156100df57600080fd5b506100fa60048036038101906100f59190613743565b610542565b60405161010791906136f5565b60405180910390f35b34801561011c57600080fd5b5061013760048036038101906101329190613743565b6106e6565b604051610144919061377f565b60405180910390f35b34801561015957600080fd5b50610174600480360381019061016f91906138cf565b610753565b005b34801561018257600080fd5b5061019d6004803603810190610198919061393e565b610b67565b005b3480156101ab57600080fd5b506101c660048036038101906101c19190613a0d565b611537565b005b6101d06118ca565b005b3480156101de57600080fd5b506101f960048036038101906101f49190613a4d565b6118cc565b6040516102069190613bca565b60405180910390f35b34801561021b57600080fd5b5061023660048036038101906102319190613a0d565b612074565b005b34801561024457600080fd5b5061025f600480360381019061025a91906134d6565b61289c565b60405161026c9190613d4c565b60405180910390f35b606081156103df576004805480602002602001604051908101604052809291908181526020016000905b828210156103d457838290600052602060002090600202016040518060600160405290816000820180546102d290613d9d565b80601f01602080910402602001604051908101604052809291908181526020018280546102fe90613d9d565b801561034b5780601f106103205761010080835404028352916020019161034b565b820191906000526020600020905b81548152906001019060200180831161032e57829003601f168201915b505050505081526020016001820160009054906101000a900473ffffffffffffffffffffffffffffffffffffffff1673ffffffffffffffffffffffffffffffffffffffff1673ffffffffffffffffffffffffffffffffffffffff1681526020016001820160149054906101000a900460ff1615151515815250508152602001906001019061029f565b50505050905061053d565b6002805480602002602001604051908101604052809291908181526020016000905b82821015610536578382906000526020600020906002020160405180606001604052908160008201805461043490613d9d565b80601f016020809104026020016040519081016040528092919081815260200182805461046090613d9d565b80156104ad5780601f10610482576101008083540402835291602001916104ad565b820191906000526020600020905b81548152906001019060200180831161049057829003601f168201915b505050505081526020016001820160009054906101000a900473ffffffffffffffffffffffffffffffffffffffff1673ffffffffffffffffffffffffffffffffffffffff1673ffffffffffffffffffffffffffffffffffffffff1681526020016001820160149054906101000a900460ff16151515158152505081526020019060010190610401565b5050505090505b919050565b6060600a60008373ffffffffffffffffffffffffffffffffffffffff1673ffffffffffffffffffffffffffffffffffffffff168152602001908152602001600020600501805480602002602001604051908101604052809291908181526020016000905b828210156106db57838290600052602060002090600202016040518060600160405290816000820180546105d990613d9d565b80601f016020809104026020016040519081016040528092919081815260200182805461060590613d9d565b80156106525780601f1061062757610100808354040283529160200191610652565b820191906000526020600020905b81548152906001019060200180831161063557829003601f168201915b505050505081526020016001820160009054906101000a900473ffffffffffffffffffffffffffffffffffffffff1673ffffffffffffffffffffffffffffffffffffffff1673ffffffffffffffffffffffffffffffffffffffff1681526020016001820160149054906101000a900460ff161515151581525050815260200190600101906105a6565b505050509050919050565b600060011515600c60008473ffffffffffffffffffffffffffffffffffffffff1673ffffffffffffffffffffffffffffffffffffffff16815260200190815260200160002060009054906101000a900460ff16151503610749576001905061074e565b600090505b919050565b826000800190816107649190613f7a565b5081600060010160006101000a81548173ffffffffffffffffffffffffffffffffffffffff021916908373ffffffffffffffffffffffffffffffffffffffff16021790555080600060010160146101000a81548160ff021916908315150217905550600115158115151461099c57600260009080600181540180825580915050600190039060005260206000209060020201600090919091909150600082018160000190816108139190614062565b506001820160009054906101000a900473ffffffffffffffffffffffffffffffffffffffff168160010160006101000a81548173ffffffffffffffffffffffffffffffffffffffff021916908373ffffffffffffffffffffffffffffffffffffffff1602179055506001820160149054906101000a900460ff168160010160146101000a81548160ff02191690831515021790555050506000600360008473ffffffffffffffffffffffffffffffffffffffff1673ffffffffffffffffffffffffffffffffffffffff168152602001908152602001600020600082018160000190816108ff9190614062565b506001820160009054906101000a900473ffffffffffffffffffffffffffffffffffffffff168160010160006101000a81548173ffffffffffffffffffffffffffffffffffffffff021916908373ffffffffffffffffffffffffffffffffffffffff1602179055506001820160149054906101000a900460ff168160010160146101000a81548160ff021916908315150217905550905050610b62565b600460009080600181540180825580915050600190039060005260206000209060020201600090919091909150600082018160000190816109dd9190614062565b506001820160009054906101000a900473ffffffffffffffffffffffffffffffffffffffff168160010160006101000a81548173ffffffffffffffffffffffffffffffffffffffff021916908373ffffffffffffffffffffffffffffffffffffffff1602179055506001820160149054906101000a900460ff168160010160146101000a81548160ff02191690831515021790555050506000600560008473ffffffffffffffffffffffffffffffffffffffff1673ffffffffffffffffffffffffffffffffffffffff16815260200190815260200160002060008201816000019081610ac99190614062565b506001820160009054906101000a900473ffffffffffffffffffffffffffffffffffffffff168160010160006101000a81548173ffffffffffffffffffffffffffffffffffffffff021916908373ffffffffffffffffffffffffffffffffffffffff1602179055506001820160149054906101000a900460ff168160010160146101000a81548160ff0219169083151502179055509050505b505050565b8460106000019081610b799190613f7a565b508360106001019081610b8c9190613f7a565b508260106002019081610b9f9190613f7a565b5081601060030160006101000a81548173ffffffffffffffffffffffffffffffffffffffff021916908373ffffffffffffffffffffffffffffffffffffffff160217905550604051602001610bf3906141a1565b6040516020818303038152906040528051906020012085604051602001610c1a91906141e7565b6040516020818303038152906040528051906020012003610c45576001601060040181905550610d77565b604051602001610c549061424a565b6040516020818303038152906040528051906020012085604051602001610c7b91906141e7565b6040516020818303038152906040528051906020012003610ca6576002601060040181905550610d76565b604051602001610cb5906142ab565b6040516020818303038152906040528051906020012085604051602001610cdc91906141e7565b6040516020818303038152906040528051906020012003610d07576003601060040181905550610d75565b604051602001610d169061430c565b6040516020818303038152906040528051906020012085604051602001610d3d91906141e7565b6040516020818303038152906040528051906020012003610d68576004601060040181905550610d74565b60056010600401819055505b5b5b5b60011515811515148015610dd55750604051602001610d95906141a1565b6040516020818303038152906040528051906020012085604051602001610dbc91906141e7565b6040516020818303038152906040528051906020012014155b1561115e5760001515600f60008473ffffffffffffffffffffffffffffffffffffffff1673ffffffffffffffffffffffffffffffffffffffff16815260200190815260200160002060009054906101000a900460ff16151514610e6d576040517f08c379a0000000000000000000000000000000000000000000000000000000008152600401610e649061437e565b60405180910390fd5b60001515600c60008473ffffffffffffffffffffffffffffffffffffffff1673ffffffffffffffffffffffffffffffffffffffff16815260200190815260200160002060009054906101000a900460ff16151514610f00576040517f08c379a0000000000000000000000000000000000000000000000000000000008152600401610ef7906143ea565b60405180910390fd5b600e6010908060018154018082558091505060019003906000526020600020906006020160009091909190915060008201816000019081610f419190614062565b5060018201816001019081610f569190614062565b5060028201816002019081610f6b9190614062565b506003820160009054906101000a900473ffffffffffffffffffffffffffffffffffffffff168160030160006101000a81548173ffffffffffffffffffffffffffffffffffffffff021916908373ffffffffffffffffffffffffffffffffffffffff160217905550600482015481600401556005820181600501908054610ff392919061325a565b5050506010600d60008473ffffffffffffffffffffffffffffffffffffffff1673ffffffffffffffffffffffffffffffffffffffff1681526020019081526020016000206000820181600001908161104b9190614062565b50600182018160010190816110609190614062565b50600282018160020190816110759190614062565b506003820160009054906101000a900473ffffffffffffffffffffffffffffffffffffffff168160030160006101000a81548173ffffffffffffffffffffffffffffffffffffffff021916908373ffffffffffffffffffffffffffffffffffffffff1602179055506004820154816004015560058201816005019080546110fd92919061325a565b509050506001600f60008473ffffffffffffffffffffffffffffffffffffffff1673ffffffffffffffffffffffffffffffffffffffff16815260200190815260200160002060006101000a81548160ff021916908315150217905550611530565b60405160200161116d906141a1565b604051602081830303815290604052805190602001208560405160200161119491906141e7565b60405160208183030381529060405280519060200120146112435760011515600f60008473ffffffffffffffffffffffffffffffffffffffff1673ffffffffffffffffffffffffffffffffffffffff16815260200190815260200160002060009054906101000a900460ff16151514611242576040517f08c379a000000000000000000000000000000000000000000000000000000000815260040161123990614456565b60405180910390fd5b5b60001515600c60008473ffffffffffffffffffffffffffffffffffffffff1673ffffffffffffffffffffffffffffffffffffffff16815260200190815260200160002060009054906101000a900460ff161515146112d6576040517f08c379a00000000000000000000000000000000000000000000000000000000081526004016112cd906143ea565b60405180910390fd5b600b60109080600181540180825580915050600190039060005260206000209060060201600090919091909150600082018160000190816113179190614062565b506001820181600101908161132c9190614062565b50600282018160020190816113419190614062565b506003820160009054906101000a900473ffffffffffffffffffffffffffffffffffffffff168160030160006101000a81548173ffffffffffffffffffffffffffffffffffffffff021916908373ffffffffffffffffffffffffffffffffffffffff1602179055506004820154816004015560058201816005019080546113c992919061325a565b5050506010600a60008473ffffffffffffffffffffffffffffffffffffffff1673ffffffffffffffffffffffffffffffffffffffff168152602001908152602001600020600082018160000190816114219190614062565b50600182018160010190816114369190614062565b506002820181600201908161144b9190614062565b506003820160009054906101000a900473ffffffffffffffffffffffffffffffffffffffff168160030160006101000a81548173ffffffffffffffffffffffffffffffffffffffff021916908373ffffffffffffffffffffffffffffffffffffffff1602179055506004820154816004015560058201816005019080546114d392919061325a565b509050506001600c60008473ffffffffffffffffffffffffffffffffffffffff1673ffffffffffffffffffffffffffffffffffffffff16815260200190815260200160002060006101000a81548160ff0219169083151502179055505b5050505050565b6000600560008473ffffffffffffffffffffffffffffffffffffffff1673ffffffffffffffffffffffffffffffffffffffff16815260200190815260200160002060405180606001604052908160008201805461159390613d9d565b80601f01602080910402602001604051908101604052809291908181526020018280546115bf90613d9d565b801561160c5780601f106115e15761010080835404028352916020019161160c565b820191906000526020600020905b8154815290600101906020018083116115ef57829003601f168201915b505050505081526020016001820160009054906101000a900473ffffffffffffffffffffffffffffffffffffffff1673ffffffffffffffffffffffffffffffffffffffff1673ffffffffffffffffffffffffffffffffffffffff1681526020016001820160149054906101000a900460ff16151515158152505090506000600d60008573ffffffffffffffffffffffffffffffffffffffff1673ffffffffffffffffffffffffffffffffffffffff1681526020019081526020016000206004015490506000600a60008573ffffffffffffffffffffffffffffffffffffffff1673ffffffffffffffffffffffffffffffffffffffff168152602001908152602001600020600401549050818110611758576040517f08c379a000000000000000000000000000000000000000000000000000000000815260040161174f906144e8565b60405180910390fd5b600283908060018154018082558091505060019003906000526020600020906002020160009091909190915060008201518160000190816117999190613f7a565b5060208201518160010160006101000a81548173ffffffffffffffffffffffffffffffffffffffff021916908373ffffffffffffffffffffffffffffffffffffffff16021790555060408201518160010160146101000a81548160ff021916908315150217905550505082600360008773ffffffffffffffffffffffffffffffffffffffff1673ffffffffffffffffffffffffffffffffffffffff16815260200190815260200160002060008201518160000190816118589190613f7a565b5060208201518160010160006101000a81548173ffffffffffffffffffffffffffffffffffffffff021916908373ffffffffffffffffffffffffffffffffffffffff16021790555060408201518160010160146101000a81548160ff0219169083151502179055509050505050505050565b565b6118d461335b565b6001151582151503611ca957600d60008473ffffffffffffffffffffffffffffffffffffffff1673ffffffffffffffffffffffffffffffffffffffff1681526020019081526020016000206040518060c001604052908160008201805461193a90613d9d565b80601f016020809104026020016040519081016040528092919081815260200182805461196690613d9d565b80156119b35780601f10611988576101008083540402835291602001916119b3565b820191906000526020600020905b81548152906001019060200180831161199657829003601f168201915b505050505081526020016001820180546119cc90613d9d565b80601f01602080910402602001604051908101604052809291908181526020018280546119f890613d9d565b8015611a455780601f10611a1a57610100808354040283529160200191611a45565b820191906000526020600020905b815481529060010190602001808311611a2857829003601f168201915b50505050508152602001600282018054611a5e90613d9d565b80601f0160208091040260200160405190810160405280929190818152602001828054611a8a90613d9d565b8015611ad75780601f10611aac57610100808354040283529160200191611ad7565b820191906000526020600020905b815481529060010190602001808311611aba57829003601f168201915b505050505081526020016003820160009054906101000a900473ffffffffffffffffffffffffffffffffffffffff1673ffffffffffffffffffffffffffffffffffffffff1673ffffffffffffffffffffffffffffffffffffffff1681526020016004820154815260200160058201805480602002602001604051908101604052809291908181526020016000905b82821015611c9a5783829060005260206000209060020201604051806060016040529081600082018054611b9890613d9d565b80601f0160208091040260200160405190810160405280929190818152602001828054611bc490613d9d565b8015611c115780601f10611be657610100808354040283529160200191611c11565b820191906000526020600020905b815481529060010190602001808311611bf457829003601f168201915b505050505081526020016001820160009054906101000a900473ffffffffffffffffffffffffffffffffffffffff1673ffffffffffffffffffffffffffffffffffffffff1673ffffffffffffffffffffffffffffffffffffffff1681526020016001820160149054906101000a900460ff16151515158152505081526020019060010190611b65565b5050505081525050905061206e565b600a60008473ffffffffffffffffffffffffffffffffffffffff1673ffffffffffffffffffffffffffffffffffffffff1681526020019081526020016000206040518060c0016040529081600082018054611d0390613d9d565b80601f0160208091040260200160405190810160405280929190818152602001828054611d2f90613d9d565b8015611d7c5780601f10611d5157610100808354040283529160200191611d7c565b820191906000526020600020905b815481529060010190602001808311611d5f57829003601f168201915b50505050508152602001600182018054611d9590613d9d565b80601f0160208091040260200160405190810160405280929190818152602001828054611dc190613d9d565b8015611e0e5780601f10611de357610100808354040283529160200191611e0e565b820191906000526020600020905b815481529060010190602001808311611df157829003601f168201915b50505050508152602001600282018054611e2790613d9d565b80601f0160208091040260200160405190810160405280929190818152602001828054611e5390613d9d565b8015611ea05780601f10611e7557610100808354040283529160200191611ea0565b820191906000526020600020905b815481529060010190602001808311611e8357829003601f168201915b505050505081526020016003820160009054906101000a900473ffffffffffffffffffffffffffffffffffffffff1673ffffffffffffffffffffffffffffffffffffffff1673ffffffffffffffffffffffffffffffffffffffff1681526020016004820154815260200160058201805480602002602001604051908101604052809291908181526020016000905b828210156120635783829060005260206000209060020201604051806060016040529081600082018054611f6190613d9d565b80601f0160208091040260200160405190810160405280929190818152602001828054611f8d90613d9d565b8015611fda5780601f10611faf57610100808354040283529160200191611fda565b820191906000526020600020905b815481529060010190602001808311611fbd57829003601f168201915b505050505081526020016001820160009054906101000a900473ffffffffffffffffffffffffffffffffffffffff1673ffffffffffffffffffffffffffffffffffffffff1673ffffffffffffffffffffffffffffffffffffffff1681526020016001820160149054906101000a900460ff16151515158152505081526020019060010190611f2e565b505050508152505090505b92915050565b6000600d60008473ffffffffffffffffffffffffffffffffffffffff1673ffffffffffffffffffffffffffffffffffffffff1681526020019081526020016000206040518060c00160405290816000820180546120d090613d9d565b80601f01602080910402602001604051908101604052809291908181526020018280546120fc90613d9d565b80156121495780601f1061211e57610100808354040283529160200191612149565b820191906000526020600020905b81548152906001019060200180831161212c57829003601f168201915b5050505050815260200160018201805461216290613d9d565b80601f016020809104026020016040519081016040528092919081815260200182805461218e90613d9d565b80156121db5780601f106121b0576101008083540402835291602001916121db565b820191906000526020600020905b8154815290600101906020018083116121be57829003601f168201915b505050505081526020016002820180546121f490613d9d565b80601f016020809104026020016040519081016040528092919081815260200182805461222090613d9d565b801561226d5780601f106122425761010080835404028352916020019161226d565b820191906000526020600020905b81548152906001019060200180831161225057829003601f168201915b505050505081526020016003820160009054906101000a900473ffffffffffffffffffffffffffffffffffffffff1673ffffffffffffffffffffffffffffffffffffffff1673ffffffffffffffffffffffffffffffffffffffff1681526020016004820154815260200160058201805480602002602001604051908101604052809291908181526020016000905b82821015612430578382906000526020600020906002020160405180606001604052908160008201805461232e90613d9d565b80601f016020809104026020016040519081016040528092919081815260200182805461235a90613d9d565b80156123a75780601f1061237c576101008083540402835291602001916123a7565b820191906000526020600020905b81548152906001019060200180831161238a57829003601f168201915b505050505081526020016001820160009054906101000a900473ffffffffffffffffffffffffffffffffffffffff1673ffffffffffffffffffffffffffffffffffffffff1673ffffffffffffffffffffffffffffffffffffffff1681526020016001820160149054906101000a900460ff161515151581525050815260200190600101906122fb565b505050508152505090506000600a60008473ffffffffffffffffffffffffffffffffffffffff1673ffffffffffffffffffffffffffffffffffffffff1681526020019081526020016000206040518060c001604052908160008201805461249690613d9d565b80601f01602080910402602001604051908101604052809291908181526020018280546124c290613d9d565b801561250f5780601f106124e45761010080835404028352916020019161250f565b820191906000526020600020905b8154815290600101906020018083116124f257829003601f168201915b5050505050815260200160018201805461252890613d9d565b80601f016020809104026020016040519081016040528092919081815260200182805461255490613d9d565b80156125a15780601f10612576576101008083540402835291602001916125a1565b820191906000526020600020905b81548152906001019060200180831161258457829003601f168201915b505050505081526020016002820180546125ba90613d9d565b80601f01602080910402602001604051908101604052809291908181526020018280546125e690613d9d565b80156126335780601f1061260857610100808354040283529160200191612633565b820191906000526020600020905b81548152906001019060200180831161261657829003601f168201915b505050505081526020016003820160009054906101000a900473ffffffffffffffffffffffffffffffffffffffff1673ffffffffffffffffffffffffffffffffffffffff1673ffffffffffffffffffffffffffffffffffffffff1681526020016004820154815260200160058201805480602002602001604051908101604052809291908181526020016000905b828210156127f657838290600052602060002090600202016040518060600160405290816000820180546126f490613d9d565b80601f016020809104026020016040519081016040528092919081815260200182805461272090613d9d565b801561276d5780601f106127425761010080835404028352916020019161276d565b820191906000526020600020905b81548152906001019060200180831161275057829003601f168201915b505050505081526020016001820160009054906101000a900473ffffffffffffffffffffffffffffffffffffffff1673ffffffffffffffffffffffffffffffffffffffff1673ffffffffffffffffffffffffffffffffffffffff1681526020016001820160149054906101000a900460ff161515151581525050815260200190600101906126c1565b5050505081525050905060008260000151905060008360200151905060008460400151905060008560600151905060008660800151905060008660800151905081811115612879576040517f08c379a00000000000000000000000000000000000000000000000000000000081526004016128709061457a565b60405180910390fd5b612887868686866000610b67565b6128908a613059565b50505050505050505050565b60606001151582151503612c8157600e805480602002602001604051908101604052809291908181526020016000905b82821015612c7657838290600052602060002090600602016040518060c00160405290816000820180546128ff90613d9d565b80601f016020809104026020016040519081016040528092919081815260200182805461292b90613d9d565b80156129785780601f1061294d57610100808354040283529160200191612978565b820191906000526020600020905b81548152906001019060200180831161295b57829003601f168201915b5050505050815260200160018201805461299190613d9d565b80601f01602080910402602001604051908101604052809291908181526020018280546129bd90613d9d565b8015612a0a5780601f106129df57610100808354040283529160200191612a0a565b820191906000526020600020905b8154815290600101906020018083116129ed57829003601f168201915b50505050508152602001600282018054612a2390613d9d565b80601f0160208091040260200160405190810160405280929190818152602001828054612a4f90613d9d565b8015612a9c5780601f10612a7157610100808354040283529160200191612a9c565b820191906000526020600020905b815481529060010190602001808311612a7f57829003601f168201915b505050505081526020016003820160009054906101000a900473ffffffffffffffffffffffffffffffffffffffff1673ffffffffffffffffffffffffffffffffffffffff1673ffffffffffffffffffffffffffffffffffffffff1681526020016004820154815260200160058201805480602002602001604051908101604052809291908181526020016000905b82821015612c5f5783829060005260206000209060020201604051806060016040529081600082018054612b5d90613d9d565b80601f0160208091040260200160405190810160405280929190818152602001828054612b8990613d9d565b8015612bd65780601f10612bab57610100808354040283529160200191612bd6565b820191906000526020600020905b815481529060010190602001808311612bb957829003601f168201915b505050505081526020016001820160009054906101000a900473ffffffffffffffffffffffffffffffffffffffff1673ffffffffffffffffffffffffffffffffffffffff1673ffffffffffffffffffffffffffffffffffffffff1681526020016001820160149054906101000a900460ff16151515158152505081526020019060010190612b2a565b5050505081525050815260200190600101906128cc565b505050509050613054565b600b805480602002602001604051908101604052809291908181526020016000905b8282101561304d57838290600052602060002090600602016040518060c0016040529081600082018054612cd690613d9d565b80601f0160208091040260200160405190810160405280929190818152602001828054612d0290613d9d565b8015612d4f5780601f10612d2457610100808354040283529160200191612d4f565b820191906000526020600020905b815481529060010190602001808311612d3257829003601f168201915b50505050508152602001600182018054612d6890613d9d565b80601f0160208091040260200160405190810160405280929190818152602001828054612d9490613d9d565b8015612de15780601f10612db657610100808354040283529160200191612de1565b820191906000526020600020905b815481529060010190602001808311612dc457829003601f168201915b50505050508152602001600282018054612dfa90613d9d565b80601f0160208091040260200160405190810160405280929190818152602001828054612e2690613d9d565b8015612e735780601f10612e4857610100808354040283529160200191612e73565b820191906000526020600020905b815481529060010190602001808311612e5657829003601f168201915b505050505081526020016003820160009054906101000a900473ffffffffffffffffffffffffffffffffffffffff1673ffffffffffffffffffffffffffffffffffffffff1673ffffffffffffffffffffffffffffffffffffffff1681526020016004820154815260200160058201805480602002602001604051908101604052809291908181526020016000905b828210156130365783829060005260206000209060020201604051806060016040529081600082018054612f3490613d9d565b80601f0160208091040260200160405190810160405280929190818152602001828054612f6090613d9d565b8015612fad5780601f10612f8257610100808354040283529160200191612fad565b820191906000526020600020905b815481529060010190602001808311612f9057829003601f168201915b505050505081526020016001820160009054906101000a900473ffffffffffffffffffffffffffffffffffffffff1673ffffffffffffffffffffffffffffffffffffffff1673ffffffffffffffffffffffffffffffffffffffff1681526020016001820160149054906101000a900460ff16151515158152505081526020019060010190612f01565b505050508152505081526020019060010190612ca3565b5050505090505b919050565b6000600860008373ffffffffffffffffffffffffffffffffffffffff1673ffffffffffffffffffffffffffffffffffffffff168152602001908152602001600020549050600e6001600e805490506130b191906145c9565b815481106130c2576130c16145fd565b5b9060005260206000209060060201600e82815481106130e4576130e36145fd565b5b9060005260206000209060060201600082018160000190816131069190614062565b506001820181600101908161311b9190614062565b50600282018160020190816131309190614062565b506003820160009054906101000a900473ffffffffffffffffffffffffffffffffffffffff168160030160006101000a81548173ffffffffffffffffffffffffffffffffffffffff021916908373ffffffffffffffffffffffffffffffffffffffff1602179055506004820154816004015560058201816005019080546131b892919061325a565b50905050600e8054806131ce576131cd61462c565b5b6001900381819060005260206000209060060201600080820160006131f391906133a7565b60018201600061320391906133a7565b60028201600061321391906133a7565b6003820160006101000a81549073ffffffffffffffffffffffffffffffffffffffff0219169055600482016000905560058201600061325291906133e7565b505090555050565b82805482825590600052602060002090600202810192821561334a5760005260206000209160020282015b82811115613349578282600082018160000190816132a39190614062565b506001820160009054906101000a900473ffffffffffffffffffffffffffffffffffffffff168160010160006101000a81548173ffffffffffffffffffffffffffffffffffffffff021916908373ffffffffffffffffffffffffffffffffffffffff1602179055506001820160149054906101000a900460ff168160010160146101000a81548160ff021916908315150217905550505091600201919060020190613285565b5b509050613357919061340b565b5090565b6040518060c00160405280606081526020016060815260200160608152602001600073ffffffffffffffffffffffffffffffffffffffff16815260200160008152602001606081525090565b5080546133b390613d9d565b6000825580601f106133c557506133e4565b601f0160209004906000526020600020908101906133e3919061346d565b5b50565b5080546000825560020290600052602060002090810190613408919061340b565b50565b5b80821115613469576000808201600061342591906133a7565b6001820160006101000a81549073ffffffffffffffffffffffffffffffffffffffff02191690556001820160146101000a81549060ff02191690555060020161340c565b5090565b5b8082111561348657600081600090555060010161346e565b5090565b6000604051905090565b600080fd5b600080fd5b60008115159050919050565b6134b38161349e565b81146134be57600080fd5b50565b6000813590506134d0816134aa565b92915050565b6000602082840312156134ec576134eb613494565b5b60006134fa848285016134c1565b91505092915050565b600081519050919050565b600082825260208201905092915050565b6000819050602082019050919050565b600081519050919050565b600082825260208201905092915050565b60005b8381101561356957808201518184015260208101905061354e565b60008484015250505050565b6000601f19601f8301169050919050565b60006135918261352f565b61359b818561353a565b93506135ab81856020860161354b565b6135b481613575565b840191505092915050565b600073ffffffffffffffffffffffffffffffffffffffff82169050919050565b60006135ea826135bf565b9050919050565b6135fa816135df565b82525050565b6136098161349e565b82525050565b6000606083016000830151848203600086015261362c8282613586565b915050602083015161364160208601826135f1565b5060408301516136546040860182613600565b508091505092915050565b600061366b838361360f565b905092915050565b6000602082019050919050565b600061368b82613503565b613695818561350e565b9350836020820285016136a78561351f565b8060005b858110156136e357848403895281516136c4858261365f565b94506136cf83613673565b925060208a019950506001810190506136ab565b50829750879550505050505092915050565b6000602082019050818103600083015261370f8184613680565b905092915050565b613720816135df565b811461372b57600080fd5b50565b60008135905061373d81613717565b92915050565b60006020828403121561375957613758613494565b5b60006137678482850161372e565b91505092915050565b6137798161349e565b82525050565b60006020820190506137946000830184613770565b92915050565b600080fd5b600080fd5b7f4e487b7100000000000000000000000000000000000000000000000000000000600052604160045260246000fd5b6137dc82613575565b810181811067ffffffffffffffff821117156137fb576137fa6137a4565b5b80604052505050565b600061380e61348a565b905061381a82826137d3565b919050565b600067ffffffffffffffff82111561383a576138396137a4565b5b61384382613575565b9050602081019050919050565b82818337600083830152505050565b600061387261386d8461381f565b613804565b90508281526020810184848401111561388e5761388d61379f565b5b613899848285613850565b509392505050565b600082601f8301126138b6576138b561379a565b5b81356138c684826020860161385f565b91505092915050565b6000806000606084860312156138e8576138e7613494565b5b600084013567ffffffffffffffff81111561390657613905613499565b5b613912868287016138a1565b93505060206139238682870161372e565b9250506040613934868287016134c1565b9150509250925092565b600080600080600060a0868803121561395a57613959613494565b5b600086013567ffffffffffffffff81111561397857613977613499565b5b613984888289016138a1565b955050602086013567ffffffffffffffff8111156139a5576139a4613499565b5b6139b1888289016138a1565b945050604086013567ffffffffffffffff8111156139d2576139d1613499565b5b6139de888289016138a1565b93505060606139ef8882890161372e565b9250506080613a00888289016134c1565b9150509295509295909350565b60008060408385031215613a2457613a23613494565b5b6000613a328582860161372e565b9250506020613a438582860161372e565b9150509250929050565b60008060408385031215613a6457613a63613494565b5b6000613a728582860161372e565b9250506020613a83858286016134c1565b9150509250929050565b6000819050919050565b613aa081613a8d565b82525050565b600082825260208201905092915050565b6000613ac282613503565b613acc8185613aa6565b935083602082028501613ade8561351f565b8060005b85811015613b1a5784840389528151613afb858261365f565b9450613b0683613673565b925060208a01995050600181019050613ae2565b50829750879550505050505092915050565b600060c0830160008301518482036000860152613b498282613586565b91505060208301518482036020860152613b638282613586565b91505060408301518482036040860152613b7d8282613586565b9150506060830151613b9260608601826135f1565b506080830151613ba56080860182613a97565b5060a083015184820360a0860152613bbd8282613ab7565b9150508091505092915050565b60006020820190508181036000830152613be48184613b2c565b905092915050565b600081519050919050565b600082825260208201905092915050565b6000819050602082019050919050565b600060c0830160008301518482036000860152613c358282613586565b91505060208301518482036020860152613c4f8282613586565b91505060408301518482036040860152613c698282613586565b9150506060830151613c7e60608601826135f1565b506080830151613c916080860182613a97565b5060a083015184820360a0860152613ca98282613ab7565b9150508091505092915050565b6000613cc28383613c18565b905092915050565b6000602082019050919050565b6000613ce282613bec565b613cec8185613bf7565b935083602082028501613cfe85613c08565b8060005b85811015613d3a5784840389528151613d1b8582613cb6565b9450613d2683613cca565b925060208a01995050600181019050613d02565b50829750879550505050505092915050565b60006020820190508181036000830152613d668184613cd7565b905092915050565b7f4e487b7100000000000000000000000000000000000000000000000000000000600052602260045260246000fd5b60006002820490506001821680613db557607f821691505b602082108103613dc857613dc7613d6e565b5b50919050565b60008190508160005260206000209050919050565b60006020601f8301049050919050565b600082821b905092915050565b600060088302613e307fffffffffffffffffffffffffffffffffffffffffffffffffffffffffffffffff82613df3565b613e3a8683613df3565b95508019841693508086168417925050509392505050565b6000819050919050565b6000613e77613e72613e6d84613a8d565b613e52565b613a8d565b9050919050565b6000819050919050565b613e9183613e5c565b613ea5613e9d82613e7e565b848454613e00565b825550505050565b600090565b613eba613ead565b613ec5818484613e88565b505050565b5b81811015613ee957613ede600082613eb2565b600181019050613ecb565b5050565b601f821115613f2e57613eff81613dce565b613f0884613de3565b81016020851015613f17578190505b613f2b613f2385613de3565b830182613eca565b50505b505050565b600082821c905092915050565b6000613f5160001984600802613f33565b1980831691505092915050565b6000613f6a8383613f40565b9150826002028217905092915050565b613f838261352f565b67ffffffffffffffff811115613f9c57613f9b6137a4565b5b613fa68254613d9d565b613fb1828285613eed565b600060209050601f831160018114613fe45760008415613fd2578287015190505b613fdc8582613f5e565b865550614044565b601f198416613ff286613dce565b60005b8281101561401a57848901518255600182019150602085019450602081019050613ff5565b868310156140375784890151614033601f891682613f40565b8355505b6001600288020188555050505b505050505050565b60008154905061405b81613d9d565b9050919050565b818103614070575050614148565b6140798261404c565b67ffffffffffffffff811115614092576140916137a4565b5b61409c8254613d9d565b6140a7828285613eed565b6000601f8311600181146140d657600084156140c4578287015490505b6140ce8582613f5e565b865550614141565b601f1984166140e487613dce565b96506140ef86613dce565b60005b82811015614117578489015482556001820191506001850194506020810190506140f2565b868310156141345784890154614130601f891682613f40565b8355505b6001600288020188555050505b5050505050505b565b600081905092915050565b7f4445414e00000000000000000000000000000000000000000000000000000000600082015250565b600061418b60048361414a565b915061419682614155565b600482019050919050565b60006141ac8261417e565b9150819050919050565b60006141c18261352f565b6141cb818561414a565b93506141db81856020860161354b565b80840191505092915050565b60006141f382846141b6565b915081905092915050565b7f484f440000000000000000000000000000000000000000000000000000000000600082015250565b600061423460038361414a565b915061423f826141fe565b600382019050919050565b600061425582614227565b9150819050919050565b7f5354414646000000000000000000000000000000000000000000000000000000600082015250565b600061429560058361414a565b91506142a08261425f565b600582019050919050565b60006142b682614288565b9150819050919050565b7f53545544454e5400000000000000000000000000000000000000000000000000600082015250565b60006142f660078361414a565b9150614301826142c0565b600782019050919050565b6000614317826142e9565b9150819050919050565b600082825260208201905092915050565b7f4d656d6265722052657175657374656400000000000000000000000000000000600082015250565b6000614368601083614321565b915061437382614332565b602082019050919050565b600060208201905081810360008301526143978161435b565b9050919050565b7f4d656d6265722045786973740000000000000000000000000000000000000000600082015250565b60006143d4600c83614321565b91506143df8261439e565b602082019050919050565b60006020820190508181036000830152614403816143c7565b9050919050565b7f596f75206e65656420746f205265717565737420466972737400000000000000600082015250565b6000614440601983614321565b915061444b8261440a565b602082019050919050565b6000602082019050818103600083015261446f81614433565b9050919050565b7f596f752063616e277420617070726f6f766520706f7374206f6620736f6d656f60008201527f6e652061626f7665207468616e20796f752e0000000000000000000000000000602082015250565b60006144d2603283614321565b91506144dd82614476565b604082019050919050565b60006020820190508181036000830152614501816144c5565b9050919050565b7f596f752063616e277420617070726f6f766520736f6d656f6e652061626f766560008201527f207468616e20796f752e00000000000000000000000000000000000000000000602082015250565b6000614564602a83614321565b915061456f82614508565b604082019050919050565b6000602082019050818103600083015261459381614557565b9050919050565b7f4e487b7100000000000000000000000000000000000000000000000000000000600052601160045260246000fd5b60006145d482613a8d565b91506145df83613a8d565b92508282039050818111156145f7576145f661459a565b5b92915050565b7f4e487b7100000000000000000000000000000000000000000000000000000000600052603260045260246000fd5b7f4e487b7100000000000000000000000000000000000000000000000000000000600052603160045260246000fdfea26469706673582212202d5bf8e7e456563b9076099e359059db9ea147b13c4d6c9d53781ca623a2665464736f6c63430008100033","opcodes":"PUSH1 0x80 PUSH1 0x40 MSTORE PUSH1 0x0 PUSH1 0x6 SSTORE PUSH1 0x0 PUSH1 0x7 SSTORE CALLVALUE DUP1 ISZERO PUSH2 0x1A JUMPI PUSH1 0x0 DUP1 REVERT JUMPDEST POP PUSH2 0x4691 DUP1 PUSH2 0x2A PUSH1 0x0 CODECOPY PUSH1 0x0 RETURN INVALID PUSH1 0x80 PUSH1 0x40 MSTORE PUSH1 0x4 CALLDATASIZE LT PUSH2 0x91 JUMPI PUSH1 0x0 CALLDATALOAD PUSH1 0xE0 SHR DUP1 PUSH4 0x529D3797 GT PUSH2 0x59 JUMPI DUP1 PUSH4 0x529D3797 EQ PUSH2 0x19F JUMPI DUP1 PUSH4 0xA9E10BF2 EQ PUSH2 0x1C8 JUMPI DUP1 PUSH4 0xBAFA08C1 EQ PUSH2 0x1D2 JUMPI DUP1 PUSH4 0xE070DD12 EQ PUSH2 0x20F JUMPI DUP1 PUSH4 0xE473F6CD EQ PUSH2 0x238 JUMPI PUSH2 0x91 JUMP JUMPDEST DUP1 PUSH4 0x1E0F71FE EQ PUSH2 0x96 JUMPI DUP1 PUSH4 0x28538949 EQ PUSH2 0xD3 JUMPI DUP1 PUSH4 0x35A6861A EQ PUSH2 0x110 JUMPI DUP1 PUSH4 0x39FEC887 EQ PUSH2 0x14D JUMPI DUP1 PUSH4 0x4CD6F25E EQ PUSH2 0x176 JUMPI JUMPDEST PUSH1 0x0 DUP1 REVERT JUMPDEST CALLVALUE DUP1 ISZERO PUSH2 0xA2 JUMPI PUSH1 0x0 DUP1 REVERT JUMPDEST POP PUSH2 0xBD PUSH1 0x4 DUP1 CALLDATASIZE SUB DUP2 ADD SWAP1 PUSH2 0xB8 SWAP2 SWAP1 PUSH2 0x34D6 JUMP JUMPDEST PUSH2 0x275 JUMP JUMPDEST PUSH1 0x40 MLOAD PUSH2 0xCA SWAP2 SWAP1 PUSH2 0x36F5 JUMP JUMPDEST PUSH1 0x40 MLOAD DUP1 SWAP2 SUB SWAP1 RETURN JUMPDEST CALLVALUE DUP1 ISZERO PUSH2 0xDF JUMPI PUSH1 0x0 DUP1 REVERT JUMPDEST POP PUSH2 0xFA PUSH1 0x4 DUP1 CALLDATASIZE SUB DUP2 ADD SWAP1 PUSH2 0xF5 SWAP2 SWAP1 PUSH2 0x3743 JUMP JUMPDEST PUSH2 0x542 JUMP JUMPDEST PUSH1 0x40 MLOAD PUSH2 0x107 SWAP2 SWAP1 PUSH2 0x36F5 JUMP JUMPDEST PUSH1 0x40 MLOAD DUP1 SWAP2 SUB SWAP1 RETURN JUMPDEST CALLVALUE DUP1 ISZERO PUSH2 0x11C JUMPI PUSH1 0x0 DUP1 REVERT JUMPDEST POP PUSH2 0x137 PUSH1 0x4 DUP1 CALLDATASIZE SUB DUP2 ADD SWAP1 PUSH2 0x132 SWAP2 SWAP1 PUSH2 0x3743 JUMP JUMPDEST PUSH2 0x6E6 JUMP JUMPDEST PUSH1 0x40 MLOAD PUSH2 0x144 SWAP2 SWAP1 PUSH2 0x377F JUMP JUMPDEST PUSH1 0x40 MLOAD DUP1 SWAP2 SUB SWAP1 RETURN JUMPDEST CALLVALUE DUP1 ISZERO PUSH2 0x159 JUMPI PUSH1 0x0 DUP1 REVERT JUMPDEST POP PUSH2 0x174 PUSH1 0x4 DUP1 CALLDATASIZE SUB DUP2 ADD SWAP1 PUSH2 0x16F SWAP2 SWAP1 PUSH2 0x38CF JUMP JUMPDEST PUSH2 0x753 JUMP JUMPDEST STOP JUMPDEST CALLVALUE DUP1 ISZERO PUSH2 0x182 JUMPI PUSH1 0x0 DUP1 REVERT JUMPDEST POP PUSH2 0x19D PUSH1 0x4 DUP1 CALLDATASIZE SUB DUP2 ADD SWAP1 PUSH2 0x198 SWAP2 SWAP1 PUSH2 0x393E JUMP JUMPDEST PUSH2 0xB67 JUMP JUMPDEST STOP JUMPDEST CALLVALUE DUP1 ISZERO PUSH2 0x1AB JUMPI PUSH1 0x0 DUP1 REVERT JUMPDEST POP PUSH2 0x1C6 PUSH1 0x4 DUP1 CALLDATASIZE SUB DUP2 ADD SWAP1 PUSH2 0x1C1 SWAP2 SWAP1 PUSH2 0x3A0D JUMP JUMPDEST PUSH2 0x1537 JUMP JUMPDEST STOP JUMPDEST PUSH2 0x1D0 PUSH2 0x18CA JUMP JUMPDEST STOP JUMPDEST CALLVALUE DUP1 ISZERO PUSH2 0x1DE JUMPI PUSH1 0x0 DUP1 REVERT JUMPDEST POP PUSH2 0x1F9 PUSH1 0x4 DUP1 CALLDATASIZE SUB DUP2 ADD SWAP1 PUSH2 0x1F4 SWAP2 SWAP1 PUSH2 0x3A4D JUMP JUMPDEST PUSH2 0x18CC JUMP JUMPDEST PUSH1 0x40 MLOAD PUSH2 0x206 SWAP2 SWAP1 PUSH2 0x3BCA JUMP JUMPDEST PUSH1 0x40 MLOAD DUP1 SWAP2 SUB SWAP1 RETURN JUMPDEST CALLVALUE DUP1 ISZERO PUSH2 0x21B JUMPI PUSH1 0x0 DUP1 REVERT JUMPDEST POP PUSH2 0x236 PUSH1 0x4 DUP1 CALLDATASIZE SUB DUP2 ADD SWAP1 PUSH2 0x231 SWAP2 SWAP1 PUSH2 0x3A0D JUMP JUMPDEST PUSH2 0x2074 JUMP JUMPDEST STOP JUMPDEST CALLVALUE DUP1 ISZERO PUSH2 0x244 JUMPI PUSH1 0x0 DUP1 REVERT JUMPDEST POP PUSH2 0x25F PUSH1 0x4 DUP1 CALLDATASIZE SUB DUP2 ADD SWAP1 PUSH2 0x25A SWAP2 SWAP1 PUSH2 0x34D6 JUMP JUMPDEST PUSH2 0x289C JUMP JUMPDEST PUSH1 0x40 MLOAD PUSH2 0x26C SWAP2 SWAP1 PUSH2 0x3D4C JUMP JUMPDEST PUSH1 0x40 MLOAD DUP1 SWAP2 SUB SWAP1 RETURN JUMPDEST PUSH1 0x60 DUP2 ISZERO PUSH2 0x3DF JUMPI PUSH1 0x4 DUP1 SLOAD DUP1 PUSH1 0x20 MUL PUSH1 0x20 ADD PUSH1 0x40 MLOAD SWAP1 DUP2 ADD PUSH1 0x40 MSTORE DUP1 SWAP3 SWAP2 SWAP1 DUP2 DUP2 MSTORE PUSH1 0x20 ADD PUSH1 0x0 SWAP1 JUMPDEST DUP3 DUP3 LT ISZERO PUSH2 0x3D4 JUMPI DUP4 DUP3 SWAP1 PUSH1 0x0 MSTORE PUSH1 0x20 PUSH1 0x0 KECCAK256 SWAP1 PUSH1 0x2 MUL ADD PUSH1 0x40 MLOAD DUP1 PUSH1 0x60 ADD PUSH1 0x40 MSTORE SWAP1 DUP2 PUSH1 0x0 DUP3 ADD DUP1 SLOAD PUSH2 0x2D2 SWAP1 PUSH2 0x3D9D JUMP JUMPDEST DUP1 PUSH1 0x1F ADD PUSH1 0x20 DUP1 SWAP2 DIV MUL PUSH1 0x20 ADD PUSH1 0x40 MLOAD SWAP1 DUP2 ADD PUSH1 0x40 MSTORE DUP1 SWAP3 SWAP2 SWAP1 DUP2 DUP2 MSTORE PUSH1 0x20 ADD DUP3 DUP1 SLOAD PUSH2 0x2FE SWAP1 PUSH2 0x3D9D JUMP JUMPDEST DUP1 ISZERO PUSH2 0x34B JUMPI DUP1 PUSH1 0x1F LT PUSH2 0x320 JUMPI PUSH2 0x100 DUP1 DUP4 SLOAD DIV MUL DUP4 MSTORE SWAP2 PUSH1 0x20 ADD SWAP2 PUSH2 0x34B JUMP JUMPDEST DUP3 ADD SWAP2 SWAP1 PUSH1 0x0 MSTORE PUSH1 0x20 PUSH1 0x0 KECCAK256 SWAP1 JUMPDEST DUP2 SLOAD DUP2 MSTORE SWAP1 PUSH1 0x1 ADD SWAP1 PUSH1 0x20 ADD DUP1 DUP4 GT PUSH2 0x32E JUMPI DUP3 SWAP1 SUB PUSH1 0x1F AND DUP3 ADD SWAP2 JUMPDEST POP POP POP POP POP DUP2 MSTORE PUSH1 0x20 ADD PUSH1 0x1 DUP3 ADD PUSH1 0x0 SWAP1 SLOAD SWAP1 PUSH2 0x100 EXP SWAP1 DIV PUSH20 0xFFFFFFFFFFFFFFFFFFFFFFFFFFFFFFFFFFFFFFFF AND PUSH20 0xFFFFFFFFFFFFFFFFFFFFFFFFFFFFFFFFFFFFFFFF AND PUSH20 0xFFFFFFFFFFFFFFFFFFFFFFFFFFFFFFFFFFFFFFFF AND DUP2 MSTORE PUSH1 0x20 ADD PUSH1 0x1 DUP3 ADD PUSH1 0x14 SWAP1 SLOAD SWAP1 PUSH2 0x100 EXP SWAP1 DIV PUSH1 0xFF AND ISZERO ISZERO ISZERO ISZERO DUP2 MSTORE POP POP DUP2 MSTORE PUSH1 0x20 ADD SWAP1 PUSH1 0x1 ADD SWAP1 PUSH2 0x29F JUMP JUMPDEST POP POP POP POP SWAP1 POP PUSH2 0x53D JUMP JUMPDEST PUSH1 0x2 DUP1 SLOAD DUP1 PUSH1 0x20 MUL PUSH1 0x20 ADD PUSH1 0x40 MLOAD SWAP1 DUP2 ADD PUSH1 0x40 MSTORE DUP1 SWAP3 SWAP2 SWAP1 DUP2 DUP2 MSTORE PUSH1 0x20 ADD PUSH1 0x0 SWAP1 JUMPDEST DUP3 DUP3 LT ISZERO PUSH2 0x536 JUMPI DUP4 DUP3 SWAP1 PUSH1 0x0 MSTORE PUSH1 0x20 PUSH1 0x0 KECCAK256 SWAP1 PUSH1 0x2 MUL ADD PUSH1 0x40 MLOAD DUP1 PUSH1 0x60 ADD PUSH1 0x40 MSTORE SWAP1 DUP2 PUSH1 0x0 DUP3 ADD DUP1 SLOAD PUSH2 0x434 SWAP1 PUSH2 0x3D9D JUMP JUMPDEST DUP1 PUSH1 0x1F ADD PUSH1 0x20 DUP1 SWAP2 DIV MUL PUSH1 0x20 ADD PUSH1 0x40 MLOAD SWAP1 DUP2 ADD PUSH1 0x40 MSTORE DUP1 SWAP3 SWAP2 SWAP1 DUP2 DUP2 MSTORE PUSH1 0x20 ADD DUP3 DUP1 SLOAD PUSH2 0x460 SWAP1 PUSH2 0x3D9D JUMP JUMPDEST DUP1 ISZERO PUSH2 0x4AD JUMPI DUP1 PUSH1 0x1F LT PUSH2 0x482 JUMPI PUSH2 0x100 DUP1 DUP4 SLOAD DIV MUL DUP4 MSTORE SWAP2 PUSH1 0x20 ADD SWAP2 PUSH2 0x4AD JUMP JUMPDEST DUP3 ADD SWAP2 SWAP1 PUSH1 0x0 MSTORE PUSH1 0x20 PUSH1 0x0 KECCAK256 SWAP1 JUMPDEST DUP2 SLOAD DUP2 MSTORE SWAP1 PUSH1 0x1 ADD SWAP1 PUSH1 0x20 ADD DUP1 DUP4 GT PUSH2 0x490 JUMPI DUP3 SWAP1 SUB PUSH1 0x1F AND DUP3 ADD SWAP2 JUMPDEST POP POP POP POP POP DUP2 MSTORE PUSH1 0x20 ADD PUSH1 0x1 DUP3 ADD PUSH1 0x0 SWAP1 SLOAD SWAP1 PUSH2 0x100 EXP SWAP1 DIV PUSH20 0xFFFFFFFFFFFFFFFFFFFFFFFFFFFFFFFFFFFFFFFF AND PUSH20 0xFFFFFFFFFFFFFFFFFFFFFFFFFFFFFFFFFFFFFFFF AND PUSH20 0xFFFFFFFFFFFFFFFFFFFFFFFFFFFFFFFFFFFFFFFF AND DUP2 MSTORE PUSH1 0x20 ADD PUSH1 0x1 DUP3 ADD PUSH1 0x14 SWAP1 SLOAD SWAP1 PUSH2 0x100 EXP SWAP1 DIV PUSH1 0xFF AND ISZERO ISZERO ISZERO ISZERO DUP2 MSTORE POP POP DUP2 MSTORE PUSH1 0x20 ADD SWAP1 PUSH1 0x1 ADD SWAP1 PUSH2 0x401 JUMP JUMPDEST POP POP POP POP SWAP1 POP JUMPDEST SWAP2 SWAP1 POP JUMP JUMPDEST PUSH1 0x60 PUSH1 0xA PUSH1 0x0 DUP4 PUSH20 0xFFFFFFFFFFFFFFFFFFFFFFFFFFFFFFFFFFFFFFFF AND PUSH20 0xFFFFFFFFFFFFFFFFFFFFFFFFFFFFFFFFFFFFFFFF AND DUP2 MSTORE PUSH1 0x20 ADD SWAP1 DUP2 MSTORE PUSH1 0x20 ADD PUSH1 0x0 KECCAK256 PUSH1 0x5 ADD DUP1 SLOAD DUP1 PUSH1 0x20 MUL PUSH1 0x20 ADD PUSH1 0x40 MLOAD SWAP1 DUP2 ADD PUSH1 0x40 MSTORE DUP1 SWAP3 SWAP2 SWAP1 DUP2 DUP2 MSTORE PUSH1 0x20 ADD PUSH1 0x0 SWAP1 JUMPDEST DUP3 DUP3 LT ISZERO PUSH2 0x6DB JUMPI DUP4 DUP3 SWAP1 PUSH1 0x0 MSTORE PUSH1 0x20 PUSH1 0x0 KECCAK256 SWAP1 PUSH1 0x2 MUL ADD PUSH1 0x40 MLOAD DUP1 PUSH1 0x60 ADD PUSH1 0x40 MSTORE SWAP1 DUP2 PUSH1 0x0 DUP3 ADD DUP1 SLOAD PUSH2 0x5D9 SWAP1 PUSH2 0x3D9D JUMP JUMPDEST DUP1 PUSH1 0x1F ADD PUSH1 0x20 DUP1 SWAP2 DIV MUL PUSH1 0x20 ADD PUSH1 0x40 MLOAD SWAP1 DUP2 ADD PUSH1 0x40 MSTORE DUP1 SWAP3 SWAP2 SWAP1 DUP2 DUP2 MSTORE PUSH1 0x20 ADD DUP3 DUP1 SLOAD PUSH2 0x605 SWAP1 PUSH2 0x3D9D JUMP JUMPDEST DUP1 ISZERO PUSH2 0x652 JUMPI DUP1 PUSH1 0x1F LT PUSH2 0x627 JUMPI PUSH2 0x100 DUP1 DUP4 SLOAD DIV MUL DUP4 MSTORE SWAP2 PUSH1 0x20 ADD SWAP2 PUSH2 0x652 JUMP JUMPDEST DUP3 ADD SWAP2 SWAP1 PUSH1 0x0 MSTORE PUSH1 0x20 PUSH1 0x0 KECCAK256 SWAP1 JUMPDEST DUP2 SLOAD DUP2 MSTORE SWAP1 PUSH1 0x1 ADD SWAP1 PUSH1 0x20 ADD DUP1 DUP4 GT PUSH2 0x635 JUMPI DUP3 SWAP1 SUB PUSH1 0x1F AND DUP3 ADD SWAP2 JUMPDEST POP POP POP POP POP DUP2 MSTORE PUSH1 0x20 ADD PUSH1 0x1 DUP3 ADD PUSH1 0x0 SWAP1 SLOAD SWAP1 PUSH2 0x100 EXP SWAP1 DIV PUSH20 0xFFFFFFFFFFFFFFFFFFFFFFFFFFFFFFFFFFFFFFFF AND PUSH20 0xFFFFFFFFFFFFFFFFFFFFFFFFFFFFFFFFFFFFFFFF AND PUSH20 0xFFFFFFFFFFFFFFFFFFFFFFFFFFFFFFFFFFFFFFFF AND DUP2 MSTORE PUSH1 0x20 ADD PUSH1 0x1 DUP3 ADD PUSH1 0x14 SWAP1 SLOAD SWAP1 PUSH2 0x100 EXP SWAP1 DIV PUSH1 0xFF AND ISZERO ISZERO ISZERO ISZERO DUP2 MSTORE POP POP DUP2 MSTORE PUSH1 0x20 ADD SWAP1 PUSH1 0x1 ADD SWAP1 PUSH2 0x5A6 JUMP JUMPDEST POP POP POP POP SWAP1 POP SWAP2 SWAP1 POP JUMP JUMPDEST PUSH1 0x0 PUSH1 0x1 ISZERO ISZERO PUSH1 0xC PUSH1 0x0 DUP5 PUSH20 0xFFFFFFFFFFFFFFFFFFFFFFFFFFFFFFFFFFFFFFFF AND PUSH20 0xFFFFFFFFFFFFFFFFFFFFFFFFFFFFFFFFFFFFFFFF AND DUP2 MSTORE PUSH1 0x20 ADD SWAP1 DUP2 MSTORE PUSH1 0x20 ADD PUSH1 0x0 KECCAK256 PUSH1 0x0 SWAP1 SLOAD SWAP1 PUSH2 0x100 EXP SWAP1 DIV PUSH1 0xFF AND ISZERO ISZERO SUB PUSH2 0x749 JUMPI PUSH1 0x1 SWAP1 POP PUSH2 0x74E JUMP JUMPDEST PUSH1 0x0 SWAP1 POP JUMPDEST SWAP2 SWAP1 POP JUMP JUMPDEST DUP3 PUSH1 0x0 DUP1 ADD SWAP1 DUP2 PUSH2 0x764 SWAP2 SWAP1 PUSH2 0x3F7A JUMP JUMPDEST POP DUP2 PUSH1 0x0 PUSH1 0x1 ADD PUSH1 0x0 PUSH2 0x100 EXP DUP2 SLOAD DUP2 PUSH20 0xFFFFFFFFFFFFFFFFFFFFFFFFFFFFFFFFFFFFFFFF MUL NOT AND SWAP1 DUP4 PUSH20 0xFFFFFFFFFFFFFFFFFFFFFFFFFFFFFFFFFFFFFFFF AND MUL OR SWAP1 SSTORE POP DUP1 PUSH1 0x0 PUSH1 0x1 ADD PUSH1 0x14 PUSH2 0x100 EXP DUP2 SLOAD DUP2 PUSH1 0xFF MUL NOT AND SWAP1 DUP4 ISZERO ISZERO MUL OR SWAP1 SSTORE POP PUSH1 0x1 ISZERO ISZERO DUP2 ISZERO ISZERO EQ PUSH2 0x99C JUMPI PUSH1 0x2 PUSH1 0x0 SWAP1 DUP1 PUSH1 0x1 DUP2 SLOAD ADD DUP1 DUP3 SSTORE DUP1 SWAP2 POP POP PUSH1 0x1 SWAP1 SUB SWAP1 PUSH1 0x0 MSTORE PUSH1 0x20 PUSH1 0x0 KECCAK256 SWAP1 PUSH1 0x2 MUL ADD PUSH1 0x0 SWAP1 SWAP2 SWAP1 SWAP2 SWAP1 SWAP2 POP PUSH1 0x0 DUP3 ADD DUP2 PUSH1 0x0 ADD SWAP1 DUP2 PUSH2 0x813 SWAP2 SWAP1 PUSH2 0x4062 JUMP JUMPDEST POP PUSH1 0x1 DUP3 ADD PUSH1 0x0 SWAP1 SLOAD SWAP1 PUSH2 0x100 EXP SWAP1 DIV PUSH20 0xFFFFFFFFFFFFFFFFFFFFFFFFFFFFFFFFFFFFFFFF AND DUP2 PUSH1 0x1 ADD PUSH1 0x0 PUSH2 0x100 EXP DUP2 SLOAD DUP2 PUSH20 0xFFFFFFFFFFFFFFFFFFFFFFFFFFFFFFFFFFFFFFFF MUL NOT AND SWAP1 DUP4 PUSH20 0xFFFFFFFFFFFFFFFFFFFFFFFFFFFFFFFFFFFFFFFF AND MUL OR SWAP1 SSTORE POP PUSH1 0x1 DUP3 ADD PUSH1 0x14 SWAP1 SLOAD SWAP1 PUSH2 0x100 EXP SWAP1 DIV PUSH1 0xFF AND DUP2 PUSH1 0x1 ADD PUSH1 0x14 PUSH2 0x100 EXP DUP2 SLOAD DUP2 PUSH1 0xFF MUL NOT AND SWAP1 DUP4 ISZERO ISZERO MUL OR SWAP1 SSTORE POP POP POP PUSH1 0x0 PUSH1 0x3 PUSH1 0x0 DUP5 PUSH20 0xFFFFFFFFFFFFFFFFFFFFFFFFFFFFFFFFFFFFFFFF AND PUSH20 0xFFFFFFFFFFFFFFFFFFFFFFFFFFFFFFFFFFFFFFFF AND DUP2 MSTORE PUSH1 0x20 ADD SWAP1 DUP2 MSTORE PUSH1 0x20 ADD PUSH1 0x0 KECCAK256 PUSH1 0x0 DUP3 ADD DUP2 PUSH1 0x0 ADD SWAP1 DUP2 PUSH2 0x8FF SWAP2 SWAP1 PUSH2 0x4062 JUMP JUMPDEST POP PUSH1 0x1 DUP3 ADD PUSH1 0x0 SWAP1 SLOAD SWAP1 PUSH2 0x100 EXP SWAP1 DIV PUSH20 0xFFFFFFFFFFFFFFFFFFFFFFFFFFFFFFFFFFFFFFFF AND DUP2 PUSH1 0x1 ADD PUSH1 0x0 PUSH2 0x100 EXP DUP2 SLOAD DUP2 PUSH20 0xFFFFFFFFFFFFFFFFFFFFFFFFFFFFFFFFFFFFFFFF MUL NOT AND SWAP1 DUP4 PUSH20 0xFFFFFFFFFFFFFFFFFFFFFFFFFFFFFFFFFFFFFFFF AND MUL OR SWAP1 SSTORE POP PUSH1 0x1 DUP3 ADD PUSH1 0x14 SWAP1 SLOAD SWAP1 PUSH2 0x100 EXP SWAP1 DIV PUSH1 0xFF AND DUP2 PUSH1 0x1 ADD PUSH1 0x14 PUSH2 0x100 EXP DUP2 SLOAD DUP2 PUSH1 0xFF MUL NOT AND SWAP1 DUP4 ISZERO ISZERO MUL OR SWAP1 SSTORE POP SWAP1 POP POP PUSH2 0xB62 JUMP JUMPDEST PUSH1 0x4 PUSH1 0x0 SWAP1 DUP1 PUSH1 0x1 DUP2 SLOAD ADD DUP1 DUP3 SSTORE DUP1 SWAP2 POP POP PUSH1 0x1 SWAP1 SUB SWAP1 PUSH1 0x0 MSTORE PUSH1 0x20 PUSH1 0x0 KECCAK256 SWAP1 PUSH1 0x2 MUL ADD PUSH1 0x0 SWAP1 SWAP2 SWAP1 SWAP2 SWAP1 SWAP2 POP PUSH1 0x0 DUP3 ADD DUP2 PUSH1 0x0 ADD SWAP1 DUP2 PUSH2 0x9DD SWAP2 SWAP1 PUSH2 0x4062 JUMP JUMPDEST POP PUSH1 0x1 DUP3 ADD PUSH1 0x0 SWAP1 SLOAD SWAP1 PUSH2 0x100 EXP SWAP1 DIV PUSH20 0xFFFFFFFFFFFFFFFFFFFFFFFFFFFFFFFFFFFFFFFF AND DUP2 PUSH1 0x1 ADD PUSH1 0x0 PUSH2 0x100 EXP DUP2 SLOAD DUP2 PUSH20 0xFFFFFFFFFFFFFFFFFFFFFFFFFFFFFFFFFFFFFFFF MUL NOT AND SWAP1 DUP4 PUSH20 0xFFFFFFFFFFFFFFFFFFFFFFFFFFFFFFFFFFFFFFFF AND MUL OR SWAP1 SSTORE POP PUSH1 0x1 DUP3 ADD PUSH1 0x14 SWAP1 SLOAD SWAP1 PUSH2 0x100 EXP SWAP1 DIV PUSH1 0xFF AND DUP2 PUSH1 0x1 ADD PUSH1 0x14 PUSH2 0x100 EXP DUP2 SLOAD DUP2 PUSH1 0xFF MUL NOT AND SWAP1 DUP4 ISZERO ISZERO MUL OR SWAP1 SSTORE POP POP POP PUSH1 0x0 PUSH1 0x5 PUSH1 0x0 DUP5 PUSH20 0xFFFFFFFFFFFFFFFFFFFFFFFFFFFFFFFFFFFFFFFF AND PUSH20 0xFFFFFFFFFFFFFFFFFFFFFFFFFFFFFFFFFFFFFFFF AND DUP2 MSTORE PUSH1 0x20 ADD SWAP1 DUP2 MSTORE PUSH1 0x20 ADD PUSH1 0x0 KECCAK256 PUSH1 0x0 DUP3 ADD DUP2 PUSH1 0x0 ADD SWAP1 DUP2 PUSH2 0xAC9 SWAP2 SWAP1 PUSH2 0x4062 JUMP JUMPDEST POP PUSH1 0x1 DUP3 ADD PUSH1 0x0 SWAP1 SLOAD SWAP1 PUSH2 0x100 EXP SWAP1 DIV PUSH20 0xFFFFFFFFFFFFFFFFFFFFFFFFFFFFFFFFFFFFFFFF AND DUP2 PUSH1 0x1 ADD PUSH1 0x0 PUSH2 0x100 EXP DUP2 SLOAD DUP2 PUSH20 0xFFFFFFFFFFFFFFFFFFFFFFFFFFFFFFFFFFFFFFFF MUL NOT AND SWAP1 DUP4 PUSH20 0xFFFFFFFFFFFFFFFFFFFFFFFFFFFFFFFFFFFFFFFF AND MUL OR SWAP1 SSTORE POP PUSH1 0x1 DUP3 ADD PUSH1 0x14 SWAP1 SLOAD SWAP1 PUSH2 0x100 EXP SWAP1 DIV PUSH1 0xFF AND DUP2 PUSH1 0x1 ADD PUSH1 0x14 PUSH2 0x100 EXP DUP2 SLOAD DUP2 PUSH1 0xFF MUL NOT AND SWAP1 DUP4 ISZERO ISZERO MUL OR SWAP1 SSTORE POP SWAP1 POP POP JUMPDEST POP POP POP JUMP JUMPDEST DUP5 PUSH1 0x10 PUSH1 0x0 ADD SWAP1 DUP2 PUSH2 0xB79 SWAP2 SWAP1 PUSH2 0x3F7A JUMP JUMPDEST POP DUP4 PUSH1 0x10 PUSH1 0x1 ADD SWAP1 DUP2 PUSH2 0xB8C SWAP2 SWAP1 PUSH2 0x3F7A JUMP JUMPDEST POP DUP3 PUSH1 0x10 PUSH1 0x2 ADD SWAP1 DUP2 PUSH2 0xB9F SWAP2 SWAP1 PUSH2 0x3F7A JUMP JUMPDEST POP DUP2 PUSH1 0x10 PUSH1 0x3 ADD PUSH1 0x0 PUSH2 0x100 EXP DUP2 SLOAD DUP2 PUSH20 0xFFFFFFFFFFFFFFFFFFFFFFFFFFFFFFFFFFFFFFFF MUL NOT AND SWAP1 DUP4 PUSH20 0xFFFFFFFFFFFFFFFFFFFFFFFFFFFFFFFFFFFFFFFF AND MUL OR SWAP1 SSTORE POP PUSH1 0x40 MLOAD PUSH1 0x20 ADD PUSH2 0xBF3 SWAP1 PUSH2 0x41A1 JUMP JUMPDEST PUSH1 0x40 MLOAD PUSH1 0x20 DUP2 DUP4 SUB SUB DUP2 MSTORE SWAP1 PUSH1 0x40 MSTORE DUP1 MLOAD SWAP1 PUSH1 0x20 ADD KECCAK256 DUP6 PUSH1 0x40 MLOAD PUSH1 0x20 ADD PUSH2 0xC1A SWAP2 SWAP1 PUSH2 0x41E7 JUMP JUMPDEST PUSH1 0x40 MLOAD PUSH1 0x20 DUP2 DUP4 SUB SUB DUP2 MSTORE SWAP1 PUSH1 0x40 MSTORE DUP1 MLOAD SWAP1 PUSH1 0x20 ADD KECCAK256 SUB PUSH2 0xC45 JUMPI PUSH1 0x1 PUSH1 0x10 PUSH1 0x4 ADD DUP2 SWAP1 SSTORE POP PUSH2 0xD77 JUMP JUMPDEST PUSH1 0x40 MLOAD PUSH1 0x20 ADD PUSH2 0xC54 SWAP1 PUSH2 0x424A JUMP JUMPDEST PUSH1 0x40 MLOAD PUSH1 0x20 DUP2 DUP4 SUB SUB DUP2 MSTORE SWAP1 PUSH1 0x40 MSTORE DUP1 MLOAD SWAP1 PUSH1 0x20 ADD KECCAK256 DUP6 PUSH1 0x40 MLOAD PUSH1 0x20 ADD PUSH2 0xC7B SWAP2 SWAP1 PUSH2 0x41E7 JUMP JUMPDEST PUSH1 0x40 MLOAD PUSH1 0x20 DUP2 DUP4 SUB SUB DUP2 MSTORE SWAP1 PUSH1 0x40 MSTORE DUP1 MLOAD SWAP1 PUSH1 0x20 ADD KECCAK256 SUB PUSH2 0xCA6 JUMPI PUSH1 0x2 PUSH1 0x10 PUSH1 0x4 ADD DUP2 SWAP1 SSTORE POP PUSH2 0xD76 JUMP JUMPDEST PUSH1 0x40 MLOAD PUSH1 0x20 ADD PUSH2 0xCB5 SWAP1 PUSH2 0x42AB JUMP JUMPDEST PUSH1 0x40 MLOAD PUSH1 0x20 DUP2 DUP4 SUB SUB DUP2 MSTORE SWAP1 PUSH1 0x40 MSTORE DUP1 MLOAD SWAP1 PUSH1 0x20 ADD KECCAK256 DUP6 PUSH1 0x40 MLOAD PUSH1 0x20 ADD PUSH2 0xCDC SWAP2 SWAP1 PUSH2 0x41E7 JUMP JUMPDEST PUSH1 0x40 MLOAD PUSH1 0x20 DUP2 DUP4 SUB SUB DUP2 MSTORE SWAP1 PUSH1 0x40 MSTORE DUP1 MLOAD SWAP1 PUSH1 0x20 ADD KECCAK256 SUB PUSH2 0xD07 JUMPI PUSH1 0x3 PUSH1 0x10 PUSH1 0x4 ADD DUP2 SWAP1 SSTORE POP PUSH2 0xD75 JUMP JUMPDEST PUSH1 0x40 MLOAD PUSH1 0x20 ADD PUSH2 0xD16 SWAP1 PUSH2 0x430C JUMP JUMPDEST PUSH1 0x40 MLOAD PUSH1 0x20 DUP2 DUP4 SUB SUB DUP2 MSTORE SWAP1 PUSH1 0x40 MSTORE DUP1 MLOAD SWAP1 PUSH1 0x20 ADD KECCAK256 DUP6 PUSH1 0x40 MLOAD PUSH1 0x20 ADD PUSH2 0xD3D SWAP2 SWAP1 PUSH2 0x41E7 JUMP JUMPDEST PUSH1 0x40 MLOAD PUSH1 0x20 DUP2 DUP4 SUB SUB DUP2 MSTORE SWAP1 PUSH1 0x40 MSTORE DUP1 MLOAD SWAP1 PUSH1 0x20 ADD KECCAK256 SUB PUSH2 0xD68 JUMPI PUSH1 0x4 PUSH1 0x10 PUSH1 0x4 ADD DUP2 SWAP1 SSTORE POP PUSH2 0xD74 JUMP JUMPDEST PUSH1 0x5 PUSH1 0x10 PUSH1 0x4 ADD DUP2 SWAP1 SSTORE POP JUMPDEST JUMPDEST JUMPDEST JUMPDEST PUSH1 0x1 ISZERO ISZERO DUP2 ISZERO ISZERO EQ DUP1 ISZERO PUSH2 0xDD5 JUMPI POP PUSH1 0x40 MLOAD PUSH1 0x20 ADD PUSH2 0xD95 SWAP1 PUSH2 0x41A1 JUMP JUMPDEST PUSH1 0x40 MLOAD PUSH1 0x20 DUP2 DUP4 SUB SUB DUP2 MSTORE SWAP1 PUSH1 0x40 MSTORE DUP1 MLOAD SWAP1 PUSH1 0x20 ADD KECCAK256 DUP6 PUSH1 0x40 MLOAD PUSH1 0x20 ADD PUSH2 0xDBC SWAP2 SWAP1 PUSH2 0x41E7 JUMP JUMPDEST PUSH1 0x40 MLOAD PUSH1 0x20 DUP2 DUP4 SUB SUB DUP2 MSTORE SWAP1 PUSH1 0x40 MSTORE DUP1 MLOAD SWAP1 PUSH1 0x20 ADD KECCAK256 EQ ISZERO JUMPDEST ISZERO PUSH2 0x115E JUMPI PUSH1 0x0 ISZERO ISZERO PUSH1 0xF PUSH1 0x0 DUP5 PUSH20 0xFFFFFFFFFFFFFFFFFFFFFFFFFFFFFFFFFFFFFFFF AND PUSH20 0xFFFFFFFFFFFFFFFFFFFFFFFFFFFFFFFFFFFFFFFF AND DUP2 MSTORE PUSH1 0x20 ADD SWAP1 DUP2 MSTORE PUSH1 0x20 ADD PUSH1 0x0 KECCAK256 PUSH1 0x0 SWAP1 SLOAD SWAP1 PUSH2 0x100 EXP SWAP1 DIV PUSH1 0xFF AND ISZERO ISZERO EQ PUSH2 0xE6D JUMPI PUSH1 0x40 MLOAD PUSH32 0x8C379A000000000000000000000000000000000000000000000000000000000 DUP2 MSTORE PUSH1 0x4 ADD PUSH2 0xE64 SWAP1 PUSH2 0x437E JUMP JUMPDEST PUSH1 0x40 MLOAD DUP1 SWAP2 SUB SWAP1 REVERT JUMPDEST PUSH1 0x0 ISZERO ISZERO PUSH1 0xC PUSH1 0x0 DUP5 PUSH20 0xFFFFFFFFFFFFFFFFFFFFFFFFFFFFFFFFFFFFFFFF AND PUSH20 0xFFFFFFFFFFFFFFFFFFFFFFFFFFFFFFFFFFFFFFFF AND DUP2 MSTORE PUSH1 0x20 ADD SWAP1 DUP2 MSTORE PUSH1 0x20 ADD PUSH1 0x0 KECCAK256 PUSH1 0x0 SWAP1 SLOAD SWAP1 PUSH2 0x100 EXP SWAP1 DIV PUSH1 0xFF AND ISZERO ISZERO EQ PUSH2 0xF00 JUMPI PUSH1 0x40 MLOAD PUSH32 0x8C379A000000000000000000000000000000000000000000000000000000000 DUP2 MSTORE PUSH1 0x4 ADD PUSH2 0xEF7 SWAP1 PUSH2 0x43EA JUMP JUMPDEST PUSH1 0x40 MLOAD DUP1 SWAP2 SUB SWAP1 REVERT JUMPDEST PUSH1 0xE PUSH1 0x10 SWAP1 DUP1 PUSH1 0x1 DUP2 SLOAD ADD DUP1 DUP3 SSTORE DUP1 SWAP2 POP POP PUSH1 0x1 SWAP1 SUB SWAP1 PUSH1 0x0 MSTORE PUSH1 0x20 PUSH1 0x0 KECCAK256 SWAP1 PUSH1 0x6 MUL ADD PUSH1 0x0 SWAP1 SWAP2 SWAP1 SWAP2 SWAP1 SWAP2 POP PUSH1 0x0 DUP3 ADD DUP2 PUSH1 0x0 ADD SWAP1 DUP2 PUSH2 0xF41 SWAP2 SWAP1 PUSH2 0x4062 JUMP JUMPDEST POP PUSH1 0x1 DUP3 ADD DUP2 PUSH1 0x1 ADD SWAP1 DUP2 PUSH2 0xF56 SWAP2 SWAP1 PUSH2 0x4062 JUMP JUMPDEST POP PUSH1 0x2 DUP3 ADD DUP2 PUSH1 0x2 ADD SWAP1 DUP2 PUSH2 0xF6B SWAP2 SWAP1 PUSH2 0x4062 JUMP JUMPDEST POP PUSH1 0x3 DUP3 ADD PUSH1 0x0 SWAP1 SLOAD SWAP1 PUSH2 0x100 EXP SWAP1 DIV PUSH20 0xFFFFFFFFFFFFFFFFFFFFFFFFFFFFFFFFFFFFFFFF AND DUP2 PUSH1 0x3 ADD PUSH1 0x0 PUSH2 0x100 EXP DUP2 SLOAD DUP2 PUSH20 0xFFFFFFFFFFFFFFFFFFFFFFFFFFFFFFFFFFFFFFFF MUL NOT AND SWAP1 DUP4 PUSH20 0xFFFFFFFFFFFFFFFFFFFFFFFFFFFFFFFFFFFFFFFF AND MUL OR SWAP1 SSTORE POP PUSH1 0x4 DUP3 ADD SLOAD DUP2 PUSH1 0x4 ADD SSTORE PUSH1 0x5 DUP3 ADD DUP2 PUSH1 0x5 ADD SWAP1 DUP1 SLOAD PUSH2 0xFF3 SWAP3 SWAP2 SWAP1 PUSH2 0x325A JUMP JUMPDEST POP POP POP PUSH1 0x10 PUSH1 0xD PUSH1 0x0 DUP5 PUSH20 0xFFFFFFFFFFFFFFFFFFFFFFFFFFFFFFFFFFFFFFFF AND PUSH20 0xFFFFFFFFFFFFFFFFFFFFFFFFFFFFFFFFFFFFFFFF AND DUP2 MSTORE PUSH1 0x20 ADD SWAP1 DUP2 MSTORE PUSH1 0x20 ADD PUSH1 0x0 KECCAK256 PUSH1 0x0 DUP3 ADD DUP2 PUSH1 0x0 ADD SWAP1 DUP2 PUSH2 0x104B SWAP2 SWAP1 PUSH2 0x4062 JUMP JUMPDEST POP PUSH1 0x1 DUP3 ADD DUP2 PUSH1 0x1 ADD SWAP1 DUP2 PUSH2 0x1060 SWAP2 SWAP1 PUSH2 0x4062 JUMP JUMPDEST POP PUSH1 0x2 DUP3 ADD DUP2 PUSH1 0x2 ADD SWAP1 DUP2 PUSH2 0x1075 SWAP2 SWAP1 PUSH2 0x4062 JUMP JUMPDEST POP PUSH1 0x3 DUP3 ADD PUSH1 0x0 SWAP1 SLOAD SWAP1 PUSH2 0x100 EXP SWAP1 DIV PUSH20 0xFFFFFFFFFFFFFFFFFFFFFFFFFFFFFFFFFFFFFFFF AND DUP2 PUSH1 0x3 ADD PUSH1 0x0 PUSH2 0x100 EXP DUP2 SLOAD DUP2 PUSH20 0xFFFFFFFFFFFFFFFFFFFFFFFFFFFFFFFFFFFFFFFF MUL NOT AND SWAP1 DUP4 PUSH20 0xFFFFFFFFFFFFFFFFFFFFFFFFFFFFFFFFFFFFFFFF AND MUL OR SWAP1 SSTORE POP PUSH1 0x4 DUP3 ADD SLOAD DUP2 PUSH1 0x4 ADD SSTORE PUSH1 0x5 DUP3 ADD DUP2 PUSH1 0x5 ADD SWAP1 DUP1 SLOAD PUSH2 0x10FD SWAP3 SWAP2 SWAP1 PUSH2 0x325A JUMP JUMPDEST POP SWAP1 POP POP PUSH1 0x1 PUSH1 0xF PUSH1 0x0 DUP5 PUSH20 0xFFFFFFFFFFFFFFFFFFFFFFFFFFFFFFFFFFFFFFFF AND PUSH20 0xFFFFFFFFFFFFFFFFFFFFFFFFFFFFFFFFFFFFFFFF AND DUP2 MSTORE PUSH1 0x20 ADD SWAP1 DUP2 MSTORE PUSH1 0x20 ADD PUSH1 0x0 KECCAK256 PUSH1 0x0 PUSH2 0x100 EXP DUP2 SLOAD DUP2 PUSH1 0xFF MUL NOT AND SWAP1 DUP4 ISZERO ISZERO MUL OR SWAP1 SSTORE POP PUSH2 0x1530 JUMP JUMPDEST PUSH1 0x40 MLOAD PUSH1 0x20 ADD PUSH2 0x116D SWAP1 PUSH2 0x41A1 JUMP JUMPDEST PUSH1 0x40 MLOAD PUSH1 0x20 DUP2 DUP4 SUB SUB DUP2 MSTORE SWAP1 PUSH1 0x40 MSTORE DUP1 MLOAD SWAP1 PUSH1 0x20 ADD KECCAK256 DUP6 PUSH1 0x40 MLOAD PUSH1 0x20 ADD PUSH2 0x1194 SWAP2 SWAP1 PUSH2 0x41E7 JUMP JUMPDEST PUSH1 0x40 MLOAD PUSH1 0x20 DUP2 DUP4 SUB SUB DUP2 MSTORE SWAP1 PUSH1 0x40 MSTORE DUP1 MLOAD SWAP1 PUSH1 0x20 ADD KECCAK256 EQ PUSH2 0x1243 JUMPI PUSH1 0x1 ISZERO ISZERO PUSH1 0xF PUSH1 0x0 DUP5 PUSH20 0xFFFFFFFFFFFFFFFFFFFFFFFFFFFFFFFFFFFFFFFF AND PUSH20 0xFFFFFFFFFFFFFFFFFFFFFFFFFFFFFFFFFFFFFFFF AND DUP2 MSTORE PUSH1 0x20 ADD SWAP1 DUP2 MSTORE PUSH1 0x20 ADD PUSH1 0x0 KECCAK256 PUSH1 0x0 SWAP1 SLOAD SWAP1 PUSH2 0x100 EXP SWAP1 DIV PUSH1 0xFF AND ISZERO ISZERO EQ PUSH2 0x1242 JUMPI PUSH1 0x40 MLOAD PUSH32 0x8C379A000000000000000000000000000000000000000000000000000000000 DUP2 MSTORE PUSH1 0x4 ADD PUSH2 0x1239 SWAP1 PUSH2 0x4456 JUMP JUMPDEST PUSH1 0x40 MLOAD DUP1 SWAP2 SUB SWAP1 REVERT JUMPDEST JUMPDEST PUSH1 0x0 ISZERO ISZERO PUSH1 0xC PUSH1 0x0 DUP5 PUSH20 0xFFFFFFFFFFFFFFFFFFFFFFFFFFFFFFFFFFFFFFFF AND PUSH20 0xFFFFFFFFFFFFFFFFFFFFFFFFFFFFFFFFFFFFFFFF AND DUP2 MSTORE PUSH1 0x20 ADD SWAP1 DUP2 MSTORE PUSH1 0x20 ADD PUSH1 0x0 KECCAK256 PUSH1 0x0 SWAP1 SLOAD SWAP1 PUSH2 0x100 EXP SWAP1 DIV PUSH1 0xFF AND ISZERO ISZERO EQ PUSH2 0x12D6 JUMPI PUSH1 0x40 MLOAD PUSH32 0x8C379A000000000000000000000000000000000000000000000000000000000 DUP2 MSTORE PUSH1 0x4 ADD PUSH2 0x12CD SWAP1 PUSH2 0x43EA JUMP JUMPDEST PUSH1 0x40 MLOAD DUP1 SWAP2 SUB SWAP1 REVERT JUMPDEST PUSH1 0xB PUSH1 0x10 SWAP1 DUP1 PUSH1 0x1 DUP2 SLOAD ADD DUP1 DUP3 SSTORE DUP1 SWAP2 POP POP PUSH1 0x1 SWAP1 SUB SWAP1 PUSH1 0x0 MSTORE PUSH1 0x20 PUSH1 0x0 KECCAK256 SWAP1 PUSH1 0x6 MUL ADD PUSH1 0x0 SWAP1 SWAP2 SWAP1 SWAP2 SWAP1 SWAP2 POP PUSH1 0x0 DUP3 ADD DUP2 PUSH1 0x0 ADD SWAP1 DUP2 PUSH2 0x1317 SWAP2 SWAP1 PUSH2 0x4062 JUMP JUMPDEST POP PUSH1 0x1 DUP3 ADD DUP2 PUSH1 0x1 ADD SWAP1 DUP2 PUSH2 0x132C SWAP2 SWAP1 PUSH2 0x4062 JUMP JUMPDEST POP PUSH1 0x2 DUP3 ADD DUP2 PUSH1 0x2 ADD SWAP1 DUP2 PUSH2 0x1341 SWAP2 SWAP1 PUSH2 0x4062 JUMP JUMPDEST POP PUSH1 0x3 DUP3 ADD PUSH1 0x0 SWAP1 SLOAD SWAP1 PUSH2 0x100 EXP SWAP1 DIV PUSH20 0xFFFFFFFFFFFFFFFFFFFFFFFFFFFFFFFFFFFFFFFF AND DUP2 PUSH1 0x3 ADD PUSH1 0x0 PUSH2 0x100 EXP DUP2 SLOAD DUP2 PUSH20 0xFFFFFFFFFFFFFFFFFFFFFFFFFFFFFFFFFFFFFFFF MUL NOT AND SWAP1 DUP4 PUSH20 0xFFFFFFFFFFFFFFFFFFFFFFFFFFFFFFFFFFFFFFFF AND MUL OR SWAP1 SSTORE POP PUSH1 0x4 DUP3 ADD SLOAD DUP2 PUSH1 0x4 ADD SSTORE PUSH1 0x5 DUP3 ADD DUP2 PUSH1 0x5 ADD SWAP1 DUP1 SLOAD PUSH2 0x13C9 SWAP3 SWAP2 SWAP1 PUSH2 0x325A JUMP JUMPDEST POP POP POP PUSH1 0x10 PUSH1 0xA PUSH1 0x0 DUP5 PUSH20 0xFFFFFFFFFFFFFFFFFFFFFFFFFFFFFFFFFFFFFFFF AND PUSH20 0xFFFFFFFFFFFFFFFFFFFFFFFFFFFFFFFFFFFFFFFF AND DUP2 MSTORE PUSH1 0x20 ADD SWAP1 DUP2 MSTORE PUSH1 0x20 ADD PUSH1 0x0 KECCAK256 PUSH1 0x0 DUP3 ADD DUP2 PUSH1 0x0 ADD SWAP1 DUP2 PUSH2 0x1421 SWAP2 SWAP1 PUSH2 0x4062 JUMP JUMPDEST POP PUSH1 0x1 DUP3 ADD DUP2 PUSH1 0x1 ADD SWAP1 DUP2 PUSH2 0x1436 SWAP2 SWAP1 PUSH2 0x4062 JUMP JUMPDEST POP PUSH1 0x2 DUP3 ADD DUP2 PUSH1 0x2 ADD SWAP1 DUP2 PUSH2 0x144B SWAP2 SWAP1 PUSH2 0x4062 JUMP JUMPDEST POP PUSH1 0x3 DUP3 ADD PUSH1 0x0 SWAP1 SLOAD SWAP1 PUSH2 0x100 EXP SWAP1 DIV PUSH20 0xFFFFFFFFFFFFFFFFFFFFFFFFFFFFFFFFFFFFFFFF AND DUP2 PUSH1 0x3 ADD PUSH1 0x0 PUSH2 0x100 EXP DUP2 SLOAD DUP2 PUSH20 0xFFFFFFFFFFFFFFFFFFFFFFFFFFFFFFFFFFFFFFFF MUL NOT AND SWAP1 DUP4 PUSH20 0xFFFFFFFFFFFFFFFFFFFFFFFFFFFFFFFFFFFFFFFF AND MUL OR SWAP1 SSTORE POP PUSH1 0x4 DUP3 ADD SLOAD DUP2 PUSH1 0x4 ADD SSTORE PUSH1 0x5 DUP3 ADD DUP2 PUSH1 0x5 ADD SWAP1 DUP1 SLOAD PUSH2 0x14D3 SWAP3 SWAP2 SWAP1 PUSH2 0x325A JUMP JUMPDEST POP SWAP1 POP POP PUSH1 0x1 PUSH1 0xC PUSH1 0x0 DUP5 PUSH20 0xFFFFFFFFFFFFFFFFFFFFFFFFFFFFFFFFFFFFFFFF AND PUSH20 0xFFFFFFFFFFFFFFFFFFFFFFFFFFFFFFFFFFFFFFFF AND DUP2 MSTORE PUSH1 0x20 ADD SWAP1 DUP2 MSTORE PUSH1 0x20 ADD PUSH1 0x0 KECCAK256 PUSH1 0x0 PUSH2 0x100 EXP DUP2 SLOAD DUP2 PUSH1 0xFF MUL NOT AND SWAP1 DUP4 ISZERO ISZERO MUL OR SWAP1 SSTORE POP JUMPDEST POP POP POP POP POP JUMP JUMPDEST PUSH1 0x0 PUSH1 0x5 PUSH1 0x0 DUP5 PUSH20 0xFFFFFFFFFFFFFFFFFFFFFFFFFFFFFFFFFFFFFFFF AND PUSH20 0xFFFFFFFFFFFFFFFFFFFFFFFFFFFFFFFFFFFFFFFF AND DUP2 MSTORE PUSH1 0x20 ADD SWAP1 DUP2 MSTORE PUSH1 0x20 ADD PUSH1 0x0 KECCAK256 PUSH1 0x40 MLOAD DUP1 PUSH1 0x60 ADD PUSH1 0x40 MSTORE SWAP1 DUP2 PUSH1 0x0 DUP3 ADD DUP1 SLOAD PUSH2 0x1593 SWAP1 PUSH2 0x3D9D JUMP JUMPDEST DUP1 PUSH1 0x1F ADD PUSH1 0x20 DUP1 SWAP2 DIV MUL PUSH1 0x20 ADD PUSH1 0x40 MLOAD SWAP1 DUP2 ADD PUSH1 0x40 MSTORE DUP1 SWAP3 SWAP2 SWAP1 DUP2 DUP2 MSTORE PUSH1 0x20 ADD DUP3 DUP1 SLOAD PUSH2 0x15BF SWAP1 PUSH2 0x3D9D JUMP JUMPDEST DUP1 ISZERO PUSH2 0x160C JUMPI DUP1 PUSH1 0x1F LT PUSH2 0x15E1 JUMPI PUSH2 0x100 DUP1 DUP4 SLOAD DIV MUL DUP4 MSTORE SWAP2 PUSH1 0x20 ADD SWAP2 PUSH2 0x160C JUMP JUMPDEST DUP3 ADD SWAP2 SWAP1 PUSH1 0x0 MSTORE PUSH1 0x20 PUSH1 0x0 KECCAK256 SWAP1 JUMPDEST DUP2 SLOAD DUP2 MSTORE SWAP1 PUSH1 0x1 ADD SWAP1 PUSH1 0x20 ADD DUP1 DUP4 GT PUSH2 0x15EF JUMPI DUP3 SWAP1 SUB PUSH1 0x1F AND DUP3 ADD SWAP2 JUMPDEST POP POP POP POP POP DUP2 MSTORE PUSH1 0x20 ADD PUSH1 0x1 DUP3 ADD PUSH1 0x0 SWAP1 SLOAD SWAP1 PUSH2 0x100 EXP SWAP1 DIV PUSH20 0xFFFFFFFFFFFFFFFFFFFFFFFFFFFFFFFFFFFFFFFF AND PUSH20 0xFFFFFFFFFFFFFFFFFFFFFFFFFFFFFFFFFFFFFFFF AND PUSH20 0xFFFFFFFFFFFFFFFFFFFFFFFFFFFFFFFFFFFFFFFF AND DUP2 MSTORE PUSH1 0x20 ADD PUSH1 0x1 DUP3 ADD PUSH1 0x14 SWAP1 SLOAD SWAP1 PUSH2 0x100 EXP SWAP1 DIV PUSH1 0xFF AND ISZERO ISZERO ISZERO ISZERO DUP2 MSTORE POP POP SWAP1 POP PUSH1 0x0 PUSH1 0xD PUSH1 0x0 DUP6 PUSH20 0xFFFFFFFFFFFFFFFFFFFFFFFFFFFFFFFFFFFFFFFF AND PUSH20 0xFFFFFFFFFFFFFFFFFFFFFFFFFFFFFFFFFFFFFFFF AND DUP2 MSTORE PUSH1 0x20 ADD SWAP1 DUP2 MSTORE PUSH1 0x20 ADD PUSH1 0x0 KECCAK256 PUSH1 0x4 ADD SLOAD SWAP1 POP PUSH1 0x0 PUSH1 0xA PUSH1 0x0 DUP6 PUSH20 0xFFFFFFFFFFFFFFFFFFFFFFFFFFFFFFFFFFFFFFFF AND PUSH20 0xFFFFFFFFFFFFFFFFFFFFFFFFFFFFFFFFFFFFFFFF AND DUP2 MSTORE PUSH1 0x20 ADD SWAP1 DUP2 MSTORE PUSH1 0x20 ADD PUSH1 0x0 KECCAK256 PUSH1 0x4 ADD SLOAD SWAP1 POP DUP2 DUP2 LT PUSH2 0x1758 JUMPI PUSH1 0x40 MLOAD PUSH32 0x8C379A000000000000000000000000000000000000000000000000000000000 DUP2 MSTORE PUSH1 0x4 ADD PUSH2 0x174F SWAP1 PUSH2 0x44E8 JUMP JUMPDEST PUSH1 0x40 MLOAD DUP1 SWAP2 SUB SWAP1 REVERT JUMPDEST PUSH1 0x2 DUP4 SWAP1 DUP1 PUSH1 0x1 DUP2 SLOAD ADD DUP1 DUP3 SSTORE DUP1 SWAP2 POP POP PUSH1 0x1 SWAP1 SUB SWAP1 PUSH1 0x0 MSTORE PUSH1 0x20 PUSH1 0x0 KECCAK256 SWAP1 PUSH1 0x2 MUL ADD PUSH1 0x0 SWAP1 SWAP2 SWAP1 SWAP2 SWAP1 SWAP2 POP PUSH1 0x0 DUP3 ADD MLOAD DUP2 PUSH1 0x0 ADD SWAP1 DUP2 PUSH2 0x1799 SWAP2 SWAP1 PUSH2 0x3F7A JUMP JUMPDEST POP PUSH1 0x20 DUP3 ADD MLOAD DUP2 PUSH1 0x1 ADD PUSH1 0x0 PUSH2 0x100 EXP DUP2 SLOAD DUP2 PUSH20 0xFFFFFFFFFFFFFFFFFFFFFFFFFFFFFFFFFFFFFFFF MUL NOT AND SWAP1 DUP4 PUSH20 0xFFFFFFFFFFFFFFFFFFFFFFFFFFFFFFFFFFFFFFFF AND MUL OR SWAP1 SSTORE POP PUSH1 0x40 DUP3 ADD MLOAD DUP2 PUSH1 0x1 ADD PUSH1 0x14 PUSH2 0x100 EXP DUP2 SLOAD DUP2 PUSH1 0xFF MUL NOT AND SWAP1 DUP4 ISZERO ISZERO MUL OR SWAP1 SSTORE POP POP POP DUP3 PUSH1 0x3 PUSH1 0x0 DUP8 PUSH20 0xFFFFFFFFFFFFFFFFFFFFFFFFFFFFFFFFFFFFFFFF AND PUSH20 0xFFFFFFFFFFFFFFFFFFFFFFFFFFFFFFFFFFFFFFFF AND DUP2 MSTORE PUSH1 0x20 ADD SWAP1 DUP2 MSTORE PUSH1 0x20 ADD PUSH1 0x0 KECCAK256 PUSH1 0x0 DUP3 ADD MLOAD DUP2 PUSH1 0x0 ADD SWAP1 DUP2 PUSH2 0x1858 SWAP2 SWAP1 PUSH2 0x3F7A JUMP JUMPDEST POP PUSH1 0x20 DUP3 ADD MLOAD DUP2 PUSH1 0x1 ADD PUSH1 0x0 PUSH2 0x100 EXP DUP2 SLOAD DUP2 PUSH20 0xFFFFFFFFFFFFFFFFFFFFFFFFFFFFFFFFFFFFFFFF MUL NOT AND SWAP1 DUP4 PUSH20 0xFFFFFFFFFFFFFFFFFFFFFFFFFFFFFFFFFFFFFFFF AND MUL OR SWAP1 SSTORE POP PUSH1 0x40 DUP3 ADD MLOAD DUP2 PUSH1 0x1 ADD PUSH1 0x14 PUSH2 0x100 EXP DUP2 SLOAD DUP2 PUSH1 0xFF MUL NOT AND SWAP1 DUP4 ISZERO ISZERO MUL OR SWAP1 SSTORE POP SWAP1 POP POP POP POP POP POP POP JUMP JUMPDEST JUMP JUMPDEST PUSH2 0x18D4 PUSH2 0x335B JUMP JUMPDEST PUSH1 0x1 ISZERO ISZERO DUP3 ISZERO ISZERO SUB PUSH2 0x1CA9 JUMPI PUSH1 0xD PUSH1 0x0 DUP5 PUSH20 0xFFFFFFFFFFFFFFFFFFFFFFFFFFFFFFFFFFFFFFFF AND PUSH20 0xFFFFFFFFFFFFFFFFFFFFFFFFFFFFFFFFFFFFFFFF AND DUP2 MSTORE PUSH1 0x20 ADD SWAP1 DUP2 MSTORE PUSH1 0x20 ADD PUSH1 0x0 KECCAK256 PUSH1 0x40 MLOAD DUP1 PUSH1 0xC0 ADD PUSH1 0x40 MSTORE SWAP1 DUP2 PUSH1 0x0 DUP3 ADD DUP1 SLOAD PUSH2 0x193A SWAP1 PUSH2 0x3D9D JUMP JUMPDEST DUP1 PUSH1 0x1F ADD PUSH1 0x20 DUP1 SWAP2 DIV MUL PUSH1 0x20 ADD PUSH1 0x40 MLOAD SWAP1 DUP2 ADD PUSH1 0x40 MSTORE DUP1 SWAP3 SWAP2 SWAP1 DUP2 DUP2 MSTORE PUSH1 0x20 ADD DUP3 DUP1 SLOAD PUSH2 0x1966 SWAP1 PUSH2 0x3D9D JUMP JUMPDEST DUP1 ISZERO PUSH2 0x19B3 JUMPI DUP1 PUSH1 0x1F LT PUSH2 0x1988 JUMPI PUSH2 0x100 DUP1 DUP4 SLOAD DIV MUL DUP4 MSTORE SWAP2 PUSH1 0x20 ADD SWAP2 PUSH2 0x19B3 JUMP JUMPDEST DUP3 ADD SWAP2 SWAP1 PUSH1 0x0 MSTORE PUSH1 0x20 PUSH1 0x0 KECCAK256 SWAP1 JUMPDEST DUP2 SLOAD DUP2 MSTORE SWAP1 PUSH1 0x1 ADD SWAP1 PUSH1 0x20 ADD DUP1 DUP4 GT PUSH2 0x1996 JUMPI DUP3 SWAP1 SUB PUSH1 0x1F AND DUP3 ADD SWAP2 JUMPDEST POP POP POP POP POP DUP2 MSTORE PUSH1 0x20 ADD PUSH1 0x1 DUP3 ADD DUP1 SLOAD PUSH2 0x19CC SWAP1 PUSH2 0x3D9D JUMP JUMPDEST DUP1 PUSH1 0x1F ADD PUSH1 0x20 DUP1 SWAP2 DIV MUL PUSH1 0x20 ADD PUSH1 0x40 MLOAD SWAP1 DUP2 ADD PUSH1 0x40 MSTORE DUP1 SWAP3 SWAP2 SWAP1 DUP2 DUP2 MSTORE PUSH1 0x20 ADD DUP3 DUP1 SLOAD PUSH2 0x19F8 SWAP1 PUSH2 0x3D9D JUMP JUMPDEST DUP1 ISZERO PUSH2 0x1A45 JUMPI DUP1 PUSH1 0x1F LT PUSH2 0x1A1A JUMPI PUSH2 0x100 DUP1 DUP4 SLOAD DIV MUL DUP4 MSTORE SWAP2 PUSH1 0x20 ADD SWAP2 PUSH2 0x1A45 JUMP JUMPDEST DUP3 ADD SWAP2 SWAP1 PUSH1 0x0 MSTORE PUSH1 0x20 PUSH1 0x0 KECCAK256 SWAP1 JUMPDEST DUP2 SLOAD DUP2 MSTORE SWAP1 PUSH1 0x1 ADD SWAP1 PUSH1 0x20 ADD DUP1 DUP4 GT PUSH2 0x1A28 JUMPI DUP3 SWAP1 SUB PUSH1 0x1F AND DUP3 ADD SWAP2 JUMPDEST POP POP POP POP POP DUP2 MSTORE PUSH1 0x20 ADD PUSH1 0x2 DUP3 ADD DUP1 SLOAD PUSH2 0x1A5E SWAP1 PUSH2 0x3D9D JUMP JUMPDEST DUP1 PUSH1 0x1F ADD PUSH1 0x20 DUP1 SWAP2 DIV MUL PUSH1 0x20 ADD PUSH1 0x40 MLOAD SWAP1 DUP2 ADD PUSH1 0x40 MSTORE DUP1 SWAP3 SWAP2 SWAP1 DUP2 DUP2 MSTORE PUSH1 0x20 ADD DUP3 DUP1 SLOAD PUSH2 0x1A8A SWAP1 PUSH2 0x3D9D JUMP JUMPDEST DUP1 ISZERO PUSH2 0x1AD7 JUMPI DUP1 PUSH1 0x1F LT PUSH2 0x1AAC JUMPI PUSH2 0x100 DUP1 DUP4 SLOAD DIV MUL DUP4 MSTORE SWAP2 PUSH1 0x20 ADD SWAP2 PUSH2 0x1AD7 JUMP JUMPDEST DUP3 ADD SWAP2 SWAP1 PUSH1 0x0 MSTORE PUSH1 0x20 PUSH1 0x0 KECCAK256 SWAP1 JUMPDEST DUP2 SLOAD DUP2 MSTORE SWAP1 PUSH1 0x1 ADD SWAP1 PUSH1 0x20 ADD DUP1 DUP4 GT PUSH2 0x1ABA JUMPI DUP3 SWAP1 SUB PUSH1 0x1F AND DUP3 ADD SWAP2 JUMPDEST POP POP POP POP POP DUP2 MSTORE PUSH1 0x20 ADD PUSH1 0x3 DUP3 ADD PUSH1 0x0 SWAP1 SLOAD SWAP1 PUSH2 0x100 EXP SWAP1 DIV PUSH20 0xFFFFFFFFFFFFFFFFFFFFFFFFFFFFFFFFFFFFFFFF AND PUSH20 0xFFFFFFFFFFFFFFFFFFFFFFFFFFFFFFFFFFFFFFFF AND PUSH20 0xFFFFFFFFFFFFFFFFFFFFFFFFFFFFFFFFFFFFFFFF AND DUP2 MSTORE PUSH1 0x20 ADD PUSH1 0x4 DUP3 ADD SLOAD DUP2 MSTORE PUSH1 0x20 ADD PUSH1 0x5 DUP3 ADD DUP1 SLOAD DUP1 PUSH1 0x20 MUL PUSH1 0x20 ADD PUSH1 0x40 MLOAD SWAP1 DUP2 ADD PUSH1 0x40 MSTORE DUP1 SWAP3 SWAP2 SWAP1 DUP2 DUP2 MSTORE PUSH1 0x20 ADD PUSH1 0x0 SWAP1 JUMPDEST DUP3 DUP3 LT ISZERO PUSH2 0x1C9A JUMPI DUP4 DUP3 SWAP1 PUSH1 0x0 MSTORE PUSH1 0x20 PUSH1 0x0 KECCAK256 SWAP1 PUSH1 0x2 MUL ADD PUSH1 0x40 MLOAD DUP1 PUSH1 0x60 ADD PUSH1 0x40 MSTORE SWAP1 DUP2 PUSH1 0x0 DUP3 ADD DUP1 SLOAD PUSH2 0x1B98 SWAP1 PUSH2 0x3D9D JUMP JUMPDEST DUP1 PUSH1 0x1F ADD PUSH1 0x20 DUP1 SWAP2 DIV MUL PUSH1 0x20 ADD PUSH1 0x40 MLOAD SWAP1 DUP2 ADD PUSH1 0x40 MSTORE DUP1 SWAP3 SWAP2 SWAP1 DUP2 DUP2 MSTORE PUSH1 0x20 ADD DUP3 DUP1 SLOAD PUSH2 0x1BC4 SWAP1 PUSH2 0x3D9D JUMP JUMPDEST DUP1 ISZERO PUSH2 0x1C11 JUMPI DUP1 PUSH1 0x1F LT PUSH2 0x1BE6 JUMPI PUSH2 0x100 DUP1 DUP4 SLOAD DIV MUL DUP4 MSTORE SWAP2 PUSH1 0x20 ADD SWAP2 PUSH2 0x1C11 JUMP JUMPDEST DUP3 ADD SWAP2 SWAP1 PUSH1 0x0 MSTORE PUSH1 0x20 PUSH1 0x0 KECCAK256 SWAP1 JUMPDEST DUP2 SLOAD DUP2 MSTORE SWAP1 PUSH1 0x1 ADD SWAP1 PUSH1 0x20 ADD DUP1 DUP4 GT PUSH2 0x1BF4 JUMPI DUP3 SWAP1 SUB PUSH1 0x1F AND DUP3 ADD SWAP2 JUMPDEST POP POP POP POP POP DUP2 MSTORE PUSH1 0x20 ADD PUSH1 0x1 DUP3 ADD PUSH1 0x0 SWAP1 SLOAD SWAP1 PUSH2 0x100 EXP SWAP1 DIV PUSH20 0xFFFFFFFFFFFFFFFFFFFFFFFFFFFFFFFFFFFFFFFF AND PUSH20 0xFFFFFFFFFFFFFFFFFFFFFFFFFFFFFFFFFFFFFFFF AND PUSH20 0xFFFFFFFFFFFFFFFFFFFFFFFFFFFFFFFFFFFFFFFF AND DUP2 MSTORE PUSH1 0x20 ADD PUSH1 0x1 DUP3 ADD PUSH1 0x14 SWAP1 SLOAD SWAP1 PUSH2 0x100 EXP SWAP1 DIV PUSH1 0xFF AND ISZERO ISZERO ISZERO ISZERO DUP2 MSTORE POP POP DUP2 MSTORE PUSH1 0x20 ADD SWAP1 PUSH1 0x1 ADD SWAP1 PUSH2 0x1B65 JUMP JUMPDEST POP POP POP POP DUP2 MSTORE POP POP SWAP1 POP PUSH2 0x206E JUMP JUMPDEST PUSH1 0xA PUSH1 0x0 DUP5 PUSH20 0xFFFFFFFFFFFFFFFFFFFFFFFFFFFFFFFFFFFFFFFF AND PUSH20 0xFFFFFFFFFFFFFFFFFFFFFFFFFFFFFFFFFFFFFFFF AND DUP2 MSTORE PUSH1 0x20 ADD SWAP1 DUP2 MSTORE PUSH1 0x20 ADD PUSH1 0x0 KECCAK256 PUSH1 0x40 MLOAD DUP1 PUSH1 0xC0 ADD PUSH1 0x40 MSTORE SWAP1 DUP2 PUSH1 0x0 DUP3 ADD DUP1 SLOAD PUSH2 0x1D03 SWAP1 PUSH2 0x3D9D JUMP JUMPDEST DUP1 PUSH1 0x1F ADD PUSH1 0x20 DUP1 SWAP2 DIV MUL PUSH1 0x20 ADD PUSH1 0x40 MLOAD SWAP1 DUP2 ADD PUSH1 0x40 MSTORE DUP1 SWAP3 SWAP2 SWAP1 DUP2 DUP2 MSTORE PUSH1 0x20 ADD DUP3 DUP1 SLOAD PUSH2 0x1D2F SWAP1 PUSH2 0x3D9D JUMP JUMPDEST DUP1 ISZERO PUSH2 0x1D7C JUMPI DUP1 PUSH1 0x1F LT PUSH2 0x1D51 JUMPI PUSH2 0x100 DUP1 DUP4 SLOAD DIV MUL DUP4 MSTORE SWAP2 PUSH1 0x20 ADD SWAP2 PUSH2 0x1D7C JUMP JUMPDEST DUP3 ADD SWAP2 SWAP1 PUSH1 0x0 MSTORE PUSH1 0x20 PUSH1 0x0 KECCAK256 SWAP1 JUMPDEST DUP2 SLOAD DUP2 MSTORE SWAP1 PUSH1 0x1 ADD SWAP1 PUSH1 0x20 ADD DUP1 DUP4 GT PUSH2 0x1D5F JUMPI DUP3 SWAP1 SUB PUSH1 0x1F AND DUP3 ADD SWAP2 JUMPDEST POP POP POP POP POP DUP2 MSTORE PUSH1 0x20 ADD PUSH1 0x1 DUP3 ADD DUP1 SLOAD PUSH2 0x1D95 SWAP1 PUSH2 0x3D9D JUMP JUMPDEST DUP1 PUSH1 0x1F ADD PUSH1 0x20 DUP1 SWAP2 DIV MUL PUSH1 0x20 ADD PUSH1 0x40 MLOAD SWAP1 DUP2 ADD PUSH1 0x40 MSTORE DUP1 SWAP3 SWAP2 SWAP1 DUP2 DUP2 MSTORE PUSH1 0x20 ADD DUP3 DUP1 SLOAD PUSH2 0x1DC1 SWAP1 PUSH2 0x3D9D JUMP JUMPDEST DUP1 ISZERO PUSH2 0x1E0E JUMPI DUP1 PUSH1 0x1F LT PUSH2 0x1DE3 JUMPI PUSH2 0x100 DUP1 DUP4 SLOAD DIV MUL DUP4 MSTORE SWAP2 PUSH1 0x20 ADD SWAP2 PUSH2 0x1E0E JUMP JUMPDEST DUP3 ADD SWAP2 SWAP1 PUSH1 0x0 MSTORE PUSH1 0x20 PUSH1 0x0 KECCAK256 SWAP1 JUMPDEST DUP2 SLOAD DUP2 MSTORE SWAP1 PUSH1 0x1 ADD SWAP1 PUSH1 0x20 ADD DUP1 DUP4 GT PUSH2 0x1DF1 JUMPI DUP3 SWAP1 SUB PUSH1 0x1F AND DUP3 ADD SWAP2 JUMPDEST POP POP POP POP POP DUP2 MSTORE PUSH1 0x20 ADD PUSH1 0x2 DUP3 ADD DUP1 SLOAD PUSH2 0x1E27 SWAP1 PUSH2 0x3D9D JUMP JUMPDEST DUP1 PUSH1 0x1F ADD PUSH1 0x20 DUP1 SWAP2 DIV MUL PUSH1 0x20 ADD PUSH1 0x40 MLOAD SWAP1 DUP2 ADD PUSH1 0x40 MSTORE DUP1 SWAP3 SWAP2 SWAP1 DUP2 DUP2 MSTORE PUSH1 0x20 ADD DUP3 DUP1 SLOAD PUSH2 0x1E53 SWAP1 PUSH2 0x3D9D JUMP JUMPDEST DUP1 ISZERO PUSH2 0x1EA0 JUMPI DUP1 PUSH1 0x1F LT PUSH2 0x1E75 JUMPI PUSH2 0x100 DUP1 DUP4 SLOAD DIV MUL DUP4 MSTORE SWAP2 PUSH1 0x20 ADD SWAP2 PUSH2 0x1EA0 JUMP JUMPDEST DUP3 ADD SWAP2 SWAP1 PUSH1 0x0 MSTORE PUSH1 0x20 PUSH1 0x0 KECCAK256 SWAP1 JUMPDEST DUP2 SLOAD DUP2 MSTORE SWAP1 PUSH1 0x1 ADD SWAP1 PUSH1 0x20 ADD DUP1 DUP4 GT PUSH2 0x1E83 JUMPI DUP3 SWAP1 SUB PUSH1 0x1F AND DUP3 ADD SWAP2 JUMPDEST POP POP POP POP POP DUP2 MSTORE PUSH1 0x20 ADD PUSH1 0x3 DUP3 ADD PUSH1 0x0 SWAP1 SLOAD SWAP1 PUSH2 0x100 EXP SWAP1 DIV PUSH20 0xFFFFFFFFFFFFFFFFFFFFFFFFFFFFFFFFFFFFFFFF AND PUSH20 0xFFFFFFFFFFFFFFFFFFFFFFFFFFFFFFFFFFFFFFFF AND PUSH20 0xFFFFFFFFFFFFFFFFFFFFFFFFFFFFFFFFFFFFFFFF AND DUP2 MSTORE PUSH1 0x20 ADD PUSH1 0x4 DUP3 ADD SLOAD DUP2 MSTORE PUSH1 0x20 ADD PUSH1 0x5 DUP3 ADD DUP1 SLOAD DUP1 PUSH1 0x20 MUL PUSH1 0x20 ADD PUSH1 0x40 MLOAD SWAP1 DUP2 ADD PUSH1 0x40 MSTORE DUP1 SWAP3 SWAP2 SWAP1 DUP2 DUP2 MSTORE PUSH1 0x20 ADD PUSH1 0x0 SWAP1 JUMPDEST DUP3 DUP3 LT ISZERO PUSH2 0x2063 JUMPI DUP4 DUP3 SWAP1 PUSH1 0x0 MSTORE PUSH1 0x20 PUSH1 0x0 KECCAK256 SWAP1 PUSH1 0x2 MUL ADD PUSH1 0x40 MLOAD DUP1 PUSH1 0x60 ADD PUSH1 0x40 MSTORE SWAP1 DUP2 PUSH1 0x0 DUP3 ADD DUP1 SLOAD PUSH2 0x1F61 SWAP1 PUSH2 0x3D9D JUMP JUMPDEST DUP1 PUSH1 0x1F ADD PUSH1 0x20 DUP1 SWAP2 DIV MUL PUSH1 0x20 ADD PUSH1 0x40 MLOAD SWAP1 DUP2 ADD PUSH1 0x40 MSTORE DUP1 SWAP3 SWAP2 SWAP1 DUP2 DUP2 MSTORE PUSH1 0x20 ADD DUP3 DUP1 SLOAD PUSH2 0x1F8D SWAP1 PUSH2 0x3D9D JUMP JUMPDEST DUP1 ISZERO PUSH2 0x1FDA JUMPI DUP1 PUSH1 0x1F LT PUSH2 0x1FAF JUMPI PUSH2 0x100 DUP1 DUP4 SLOAD DIV MUL DUP4 MSTORE SWAP2 PUSH1 0x20 ADD SWAP2 PUSH2 0x1FDA JUMP JUMPDEST DUP3 ADD SWAP2 SWAP1 PUSH1 0x0 MSTORE PUSH1 0x20 PUSH1 0x0 KECCAK256 SWAP1 JUMPDEST DUP2 SLOAD DUP2 MSTORE SWAP1 PUSH1 0x1 ADD SWAP1 PUSH1 0x20 ADD DUP1 DUP4 GT PUSH2 0x1FBD JUMPI DUP3 SWAP1 SUB PUSH1 0x1F AND DUP3 ADD SWAP2 JUMPDEST POP POP POP POP POP DUP2 MSTORE PUSH1 0x20 ADD PUSH1 0x1 DUP3 ADD PUSH1 0x0 SWAP1 SLOAD SWAP1 PUSH2 0x100 EXP SWAP1 DIV PUSH20 0xFFFFFFFFFFFFFFFFFFFFFFFFFFFFFFFFFFFFFFFF AND PUSH20 0xFFFFFFFFFFFFFFFFFFFFFFFFFFFFFFFFFFFFFFFF AND PUSH20 0xFFFFFFFFFFFFFFFFFFFFFFFFFFFFFFFFFFFFFFFF AND DUP2 MSTORE PUSH1 0x20 ADD PUSH1 0x1 DUP3 ADD PUSH1 0x14 SWAP1 SLOAD SWAP1 PUSH2 0x100 EXP SWAP1 DIV PUSH1 0xFF AND ISZERO ISZERO ISZERO ISZERO DUP2 MSTORE POP POP DUP2 MSTORE PUSH1 0x20 ADD SWAP1 PUSH1 0x1 ADD SWAP1 PUSH2 0x1F2E JUMP JUMPDEST POP POP POP POP DUP2 MSTORE POP POP SWAP1 POP JUMPDEST SWAP3 SWAP2 POP POP JUMP JUMPDEST PUSH1 0x0 PUSH1 0xD PUSH1 0x0 DUP5 PUSH20 0xFFFFFFFFFFFFFFFFFFFFFFFFFFFFFFFFFFFFFFFF AND PUSH20 0xFFFFFFFFFFFFFFFFFFFFFFFFFFFFFFFFFFFFFFFF AND DUP2 MSTORE PUSH1 0x20 ADD SWAP1 DUP2 MSTORE PUSH1 0x20 ADD PUSH1 0x0 KECCAK256 PUSH1 0x40 MLOAD DUP1 PUSH1 0xC0 ADD PUSH1 0x40 MSTORE SWAP1 DUP2 PUSH1 0x0 DUP3 ADD DUP1 SLOAD PUSH2 0x20D0 SWAP1 PUSH2 0x3D9D JUMP JUMPDEST DUP1 PUSH1 0x1F ADD PUSH1 0x20 DUP1 SWAP2 DIV MUL PUSH1 0x20 ADD PUSH1 0x40 MLOAD SWAP1 DUP2 ADD PUSH1 0x40 MSTORE DUP1 SWAP3 SWAP2 SWAP1 DUP2 DUP2 MSTORE PUSH1 0x20 ADD DUP3 DUP1 SLOAD PUSH2 0x20FC SWAP1 PUSH2 0x3D9D JUMP JUMPDEST DUP1 ISZERO PUSH2 0x2149 JUMPI DUP1 PUSH1 0x1F LT PUSH2 0x211E JUMPI PUSH2 0x100 DUP1 DUP4 SLOAD DIV MUL DUP4 MSTORE SWAP2 PUSH1 0x20 ADD SWAP2 PUSH2 0x2149 JUMP JUMPDEST DUP3 ADD SWAP2 SWAP1 PUSH1 0x0 MSTORE PUSH1 0x20 PUSH1 0x0 KECCAK256 SWAP1 JUMPDEST DUP2 SLOAD DUP2 MSTORE SWAP1 PUSH1 0x1 ADD SWAP1 PUSH1 0x20 ADD DUP1 DUP4 GT PUSH2 0x212C JUMPI DUP3 SWAP1 SUB PUSH1 0x1F AND DUP3 ADD SWAP2 JUMPDEST POP POP POP POP POP DUP2 MSTORE PUSH1 0x20 ADD PUSH1 0x1 DUP3 ADD DUP1 SLOAD PUSH2 0x2162 SWAP1 PUSH2 0x3D9D JUMP JUMPDEST DUP1 PUSH1 0x1F ADD PUSH1 0x20 DUP1 SWAP2 DIV MUL PUSH1 0x20 ADD PUSH1 0x40 MLOAD SWAP1 DUP2 ADD PUSH1 0x40 MSTORE DUP1 SWAP3 SWAP2 SWAP1 DUP2 DUP2 MSTORE PUSH1 0x20 ADD DUP3 DUP1 SLOAD PUSH2 0x218E SWAP1 PUSH2 0x3D9D JUMP JUMPDEST DUP1 ISZERO PUSH2 0x21DB JUMPI DUP1 PUSH1 0x1F LT PUSH2 0x21B0 JUMPI PUSH2 0x100 DUP1 DUP4 SLOAD DIV MUL DUP4 MSTORE SWAP2 PUSH1 0x20 ADD SWAP2 PUSH2 0x21DB JUMP JUMPDEST DUP3 ADD SWAP2 SWAP1 PUSH1 0x0 MSTORE PUSH1 0x20 PUSH1 0x0 KECCAK256 SWAP1 JUMPDEST DUP2 SLOAD DUP2 MSTORE SWAP1 PUSH1 0x1 ADD SWAP1 PUSH1 0x20 ADD DUP1 DUP4 GT PUSH2 0x21BE JUMPI DUP3 SWAP1 SUB PUSH1 0x1F AND DUP3 ADD SWAP2 JUMPDEST POP POP POP POP POP DUP2 MSTORE PUSH1 0x20 ADD PUSH1 0x2 DUP3 ADD DUP1 SLOAD PUSH2 0x21F4 SWAP1 PUSH2 0x3D9D JUMP JUMPDEST DUP1 PUSH1 0x1F ADD PUSH1 0x20 DUP1 SWAP2 DIV MUL PUSH1 0x20 ADD PUSH1 0x40 MLOAD SWAP1 DUP2 ADD PUSH1 0x40 MSTORE DUP1 SWAP3 SWAP2 SWAP1 DUP2 DUP2 MSTORE PUSH1 0x20 ADD DUP3 DUP1 SLOAD PUSH2 0x2220 SWAP1 PUSH2 0x3D9D JUMP JUMPDEST DUP1 ISZERO PUSH2 0x226D JUMPI DUP1 PUSH1 0x1F LT PUSH2 0x2242 JUMPI PUSH2 0x100 DUP1 DUP4 SLOAD DIV MUL DUP4 MSTORE SWAP2 PUSH1 0x20 ADD SWAP2 PUSH2 0x226D JUMP JUMPDEST DUP3 ADD SWAP2 SWAP1 PUSH1 0x0 MSTORE PUSH1 0x20 PUSH1 0x0 KECCAK256 SWAP1 JUMPDEST DUP2 SLOAD DUP2 MSTORE SWAP1 PUSH1 0x1 ADD SWAP1 PUSH1 0x20 ADD DUP1 DUP4 GT PUSH2 0x2250 JUMPI DUP3 SWAP1 SUB PUSH1 0x1F AND DUP3 ADD SWAP2 JUMPDEST POP POP POP POP POP DUP2 MSTORE PUSH1 0x20 ADD PUSH1 0x3 DUP3 ADD PUSH1 0x0 SWAP1 SLOAD SWAP1 PUSH2 0x100 EXP SWAP1 DIV PUSH20 0xFFFFFFFFFFFFFFFFFFFFFFFFFFFFFFFFFFFFFFFF AND PUSH20 0xFFFFFFFFFFFFFFFFFFFFFFFFFFFFFFFFFFFFFFFF AND PUSH20 0xFFFFFFFFFFFFFFFFFFFFFFFFFFFFFFFFFFFFFFFF AND DUP2 MSTORE PUSH1 0x20 ADD PUSH1 0x4 DUP3 ADD SLOAD DUP2 MSTORE PUSH1 0x20 ADD PUSH1 0x5 DUP3 ADD DUP1 SLOAD DUP1 PUSH1 0x20 MUL PUSH1 0x20 ADD PUSH1 0x40 MLOAD SWAP1 DUP2 ADD PUSH1 0x40 MSTORE DUP1 SWAP3 SWAP2 SWAP1 DUP2 DUP2 MSTORE PUSH1 0x20 ADD PUSH1 0x0 SWAP1 JUMPDEST DUP3 DUP3 LT ISZERO PUSH2 0x2430 JUMPI DUP4 DUP3 SWAP1 PUSH1 0x0 MSTORE PUSH1 0x20 PUSH1 0x0 KECCAK256 SWAP1 PUSH1 0x2 MUL ADD PUSH1 0x40 MLOAD DUP1 PUSH1 0x60 ADD PUSH1 0x40 MSTORE SWAP1 DUP2 PUSH1 0x0 DUP3 ADD DUP1 SLOAD PUSH2 0x232E SWAP1 PUSH2 0x3D9D JUMP JUMPDEST DUP1 PUSH1 0x1F ADD PUSH1 0x20 DUP1 SWAP2 DIV MUL PUSH1 0x20 ADD PUSH1 0x40 MLOAD SWAP1 DUP2 ADD PUSH1 0x40 MSTORE DUP1 SWAP3 SWAP2 SWAP1 DUP2 DUP2 MSTORE PUSH1 0x20 ADD DUP3 DUP1 SLOAD PUSH2 0x235A SWAP1 PUSH2 0x3D9D JUMP JUMPDEST DUP1 ISZERO PUSH2 0x23A7 JUMPI DUP1 PUSH1 0x1F LT PUSH2 0x237C JUMPI PUSH2 0x100 DUP1 DUP4 SLOAD DIV MUL DUP4 MSTORE SWAP2 PUSH1 0x20 ADD SWAP2 PUSH2 0x23A7 JUMP JUMPDEST DUP3 ADD SWAP2 SWAP1 PUSH1 0x0 MSTORE PUSH1 0x20 PUSH1 0x0 KECCAK256 SWAP1 JUMPDEST DUP2 SLOAD DUP2 MSTORE SWAP1 PUSH1 0x1 ADD SWAP1 PUSH1 0x20 ADD DUP1 DUP4 GT PUSH2 0x238A JUMPI DUP3 SWAP1 SUB PUSH1 0x1F AND DUP3 ADD SWAP2 JUMPDEST POP POP POP POP POP DUP2 MSTORE PUSH1 0x20 ADD PUSH1 0x1 DUP3 ADD PUSH1 0x0 SWAP1 SLOAD SWAP1 PUSH2 0x100 EXP SWAP1 DIV PUSH20 0xFFFFFFFFFFFFFFFFFFFFFFFFFFFFFFFFFFFFFFFF AND PUSH20 0xFFFFFFFFFFFFFFFFFFFFFFFFFFFFFFFFFFFFFFFF AND PUSH20 0xFFFFFFFFFFFFFFFFFFFFFFFFFFFFFFFFFFFFFFFF AND DUP2 MSTORE PUSH1 0x20 ADD PUSH1 0x1 DUP3 ADD PUSH1 0x14 SWAP1 SLOAD SWAP1 PUSH2 0x100 EXP SWAP1 DIV PUSH1 0xFF AND ISZERO ISZERO ISZERO ISZERO DUP2 MSTORE POP POP DUP2 MSTORE PUSH1 0x20 ADD SWAP1 PUSH1 0x1 ADD SWAP1 PUSH2 0x22FB JUMP JUMPDEST POP POP POP POP DUP2 MSTORE POP POP SWAP1 POP PUSH1 0x0 PUSH1 0xA PUSH1 0x0 DUP5 PUSH20 0xFFFFFFFFFFFFFFFFFFFFFFFFFFFFFFFFFFFFFFFF AND PUSH20 0xFFFFFFFFFFFFFFFFFFFFFFFFFFFFFFFFFFFFFFFF AND DUP2 MSTORE PUSH1 0x20 ADD SWAP1 DUP2 MSTORE PUSH1 0x20 ADD PUSH1 0x0 KECCAK256 PUSH1 0x40 MLOAD DUP1 PUSH1 0xC0 ADD PUSH1 0x40 MSTORE SWAP1 DUP2 PUSH1 0x0 DUP3 ADD DUP1 SLOAD PUSH2 0x2496 SWAP1 PUSH2 0x3D9D JUMP JUMPDEST DUP1 PUSH1 0x1F ADD PUSH1 0x20 DUP1 SWAP2 DIV MUL PUSH1 0x20 ADD PUSH1 0x40 MLOAD SWAP1 DUP2 ADD PUSH1 0x40 MSTORE DUP1 SWAP3 SWAP2 SWAP1 DUP2 DUP2 MSTORE PUSH1 0x20 ADD DUP3 DUP1 SLOAD PUSH2 0x24C2 SWAP1 PUSH2 0x3D9D JUMP JUMPDEST DUP1 ISZERO PUSH2 0x250F JUMPI DUP1 PUSH1 0x1F LT PUSH2 0x24E4 JUMPI PUSH2 0x100 DUP1 DUP4 SLOAD DIV MUL DUP4 MSTORE SWAP2 PUSH1 0x20 ADD SWAP2 PUSH2 0x250F JUMP JUMPDEST DUP3 ADD SWAP2 SWAP1 PUSH1 0x0 MSTORE PUSH1 0x20 PUSH1 0x0 KECCAK256 SWAP1 JUMPDEST DUP2 SLOAD DUP2 MSTORE SWAP1 PUSH1 0x1 ADD SWAP1 PUSH1 0x20 ADD DUP1 DUP4 GT PUSH2 0x24F2 JUMPI DUP3 SWAP1 SUB PUSH1 0x1F AND DUP3 ADD SWAP2 JUMPDEST POP POP POP POP POP DUP2 MSTORE PUSH1 0x20 ADD PUSH1 0x1 DUP3 ADD DUP1 SLOAD PUSH2 0x2528 SWAP1 PUSH2 0x3D9D JUMP JUMPDEST DUP1 PUSH1 0x1F ADD PUSH1 0x20 DUP1 SWAP2 DIV MUL PUSH1 0x20 ADD PUSH1 0x40 MLOAD SWAP1 DUP2 ADD PUSH1 0x40 MSTORE DUP1 SWAP3 SWAP2 SWAP1 DUP2 DUP2 MSTORE PUSH1 0x20 ADD DUP3 DUP1 SLOAD PUSH2 0x2554 SWAP1 PUSH2 0x3D9D JUMP JUMPDEST DUP1 ISZERO PUSH2 0x25A1 JUMPI DUP1 PUSH1 0x1F LT PUSH2 0x2576 JUMPI PUSH2 0x100 DUP1 DUP4 SLOAD DIV MUL DUP4 MSTORE SWAP2 PUSH1 0x20 ADD SWAP2 PUSH2 0x25A1 JUMP JUMPDEST DUP3 ADD SWAP2 SWAP1 PUSH1 0x0 MSTORE PUSH1 0x20 PUSH1 0x0 KECCAK256 SWAP1 JUMPDEST DUP2 SLOAD DUP2 MSTORE SWAP1 PUSH1 0x1 ADD SWAP1 PUSH1 0x20 ADD DUP1 DUP4 GT PUSH2 0x2584 JUMPI DUP3 SWAP1 SUB PUSH1 0x1F AND DUP3 ADD SWAP2 JUMPDEST POP POP POP POP POP DUP2 MSTORE PUSH1 0x20 ADD PUSH1 0x2 DUP3 ADD DUP1 SLOAD PUSH2 0x25BA SWAP1 PUSH2 0x3D9D JUMP JUMPDEST DUP1 PUSH1 0x1F ADD PUSH1 0x20 DUP1 SWAP2 DIV MUL PUSH1 0x20 ADD PUSH1 0x40 MLOAD SWAP1 DUP2 ADD PUSH1 0x40 MSTORE DUP1 SWAP3 SWAP2 SWAP1 DUP2 DUP2 MSTORE PUSH1 0x20 ADD DUP3 DUP1 SLOAD PUSH2 0x25E6 SWAP1 PUSH2 0x3D9D JUMP JUMPDEST DUP1 ISZERO PUSH2 0x2633 JUMPI DUP1 PUSH1 0x1F LT PUSH2 0x2608 JUMPI PUSH2 0x100 DUP1 DUP4 SLOAD DIV MUL DUP4 MSTORE SWAP2 PUSH1 0x20 ADD SWAP2 PUSH2 0x2633 JUMP JUMPDEST DUP3 ADD SWAP2 SWAP1 PUSH1 0x0 MSTORE PUSH1 0x20 PUSH1 0x0 KECCAK256 SWAP1 JUMPDEST DUP2 SLOAD DUP2 MSTORE SWAP1 PUSH1 0x1 ADD SWAP1 PUSH1 0x20 ADD DUP1 DUP4 GT PUSH2 0x2616 JUMPI DUP3 SWAP1 SUB PUSH1 0x1F AND DUP3 ADD SWAP2 JUMPDEST POP POP POP POP POP DUP2 MSTORE PUSH1 0x20 ADD PUSH1 0x3 DUP3 ADD PUSH1 0x0 SWAP1 SLOAD SWAP1 PUSH2 0x100 EXP SWAP1 DIV PUSH20 0xFFFFFFFFFFFFFFFFFFFFFFFFFFFFFFFFFFFFFFFF AND PUSH20 0xFFFFFFFFFFFFFFFFFFFFFFFFFFFFFFFFFFFFFFFF AND PUSH20 0xFFFFFFFFFFFFFFFFFFFFFFFFFFFFFFFFFFFFFFFF AND DUP2 MSTORE PUSH1 0x20 ADD PUSH1 0x4 DUP3 ADD SLOAD DUP2 MSTORE PUSH1 0x20 ADD PUSH1 0x5 DUP3 ADD DUP1 SLOAD DUP1 PUSH1 0x20 MUL PUSH1 0x20 ADD PUSH1 0x40 MLOAD SWAP1 DUP2 ADD PUSH1 0x40 MSTORE DUP1 SWAP3 SWAP2 SWAP1 DUP2 DUP2 MSTORE PUSH1 0x20 ADD PUSH1 0x0 SWAP1 JUMPDEST DUP3 DUP3 LT ISZERO PUSH2 0x27F6 JUMPI DUP4 DUP3 SWAP1 PUSH1 0x0 MSTORE PUSH1 0x20 PUSH1 0x0 KECCAK256 SWAP1 PUSH1 0x2 MUL ADD PUSH1 0x40 MLOAD DUP1 PUSH1 0x60 ADD PUSH1 0x40 MSTORE SWAP1 DUP2 PUSH1 0x0 DUP3 ADD DUP1 SLOAD PUSH2 0x26F4 SWAP1 PUSH2 0x3D9D JUMP JUMPDEST DUP1 PUSH1 0x1F ADD PUSH1 0x20 DUP1 SWAP2 DIV MUL PUSH1 0x20 ADD PUSH1 0x40 MLOAD SWAP1 DUP2 ADD PUSH1 0x40 MSTORE DUP1 SWAP3 SWAP2 SWAP1 DUP2 DUP2 MSTORE PUSH1 0x20 ADD DUP3 DUP1 SLOAD PUSH2 0x2720 SWAP1 PUSH2 0x3D9D JUMP JUMPDEST DUP1 ISZERO PUSH2 0x276D JUMPI DUP1 PUSH1 0x1F LT PUSH2 0x2742 JUMPI PUSH2 0x100 DUP1 DUP4 SLOAD DIV MUL DUP4 MSTORE SWAP2 PUSH1 0x20 ADD SWAP2 PUSH2 0x276D JUMP JUMPDEST DUP3 ADD SWAP2 SWAP1 PUSH1 0x0 MSTORE PUSH1 0x20 PUSH1 0x0 KECCAK256 SWAP1 JUMPDEST DUP2 SLOAD DUP2 MSTORE SWAP1 PUSH1 0x1 ADD SWAP1 PUSH1 0x20 ADD DUP1 DUP4 GT PUSH2 0x2750 JUMPI DUP3 SWAP1 SUB PUSH1 0x1F AND DUP3 ADD SWAP2 JUMPDEST POP POP POP POP POP DUP2 MSTORE PUSH1 0x20 ADD PUSH1 0x1 DUP3 ADD PUSH1 0x0 SWAP1 SLOAD SWAP1 PUSH2 0x100 EXP SWAP1 DIV PUSH20 0xFFFFFFFFFFFFFFFFFFFFFFFFFFFFFFFFFFFFFFFF AND PUSH20 0xFFFFFFFFFFFFFFFFFFFFFFFFFFFFFFFFFFFFFFFF AND PUSH20 0xFFFFFFFFFFFFFFFFFFFFFFFFFFFFFFFFFFFFFFFF AND DUP2 MSTORE PUSH1 0x20 ADD PUSH1 0x1 DUP3 ADD PUSH1 0x14 SWAP1 SLOAD SWAP1 PUSH2 0x100 EXP SWAP1 DIV PUSH1 0xFF AND ISZERO ISZERO ISZERO ISZERO DUP2 MSTORE POP POP DUP2 MSTORE PUSH1 0x20 ADD SWAP1 PUSH1 0x1 ADD SWAP1 PUSH2 0x26C1 JUMP JUMPDEST POP POP POP POP DUP2 MSTORE POP POP SWAP1 POP PUSH1 0x0 DUP3 PUSH1 0x0 ADD MLOAD SWAP1 POP PUSH1 0x0 DUP4 PUSH1 0x20 ADD MLOAD SWAP1 POP PUSH1 0x0 DUP5 PUSH1 0x40 ADD MLOAD SWAP1 POP PUSH1 0x0 DUP6 PUSH1 0x60 ADD MLOAD SWAP1 POP PUSH1 0x0 DUP7 PUSH1 0x80 ADD MLOAD SWAP1 POP PUSH1 0x0 DUP7 PUSH1 0x80 ADD MLOAD SWAP1 POP DUP2 DUP2 GT ISZERO PUSH2 0x2879 JUMPI PUSH1 0x40 MLOAD PUSH32 0x8C379A000000000000000000000000000000000000000000000000000000000 DUP2 MSTORE PUSH1 0x4 ADD PUSH2 0x2870 SWAP1 PUSH2 0x457A JUMP JUMPDEST PUSH1 0x40 MLOAD DUP1 SWAP2 SUB SWAP1 REVERT JUMPDEST PUSH2 0x2887 DUP7 DUP7 DUP7 DUP7 PUSH1 0x0 PUSH2 0xB67 JUMP JUMPDEST PUSH2 0x2890 DUP11 PUSH2 0x3059 JUMP JUMPDEST POP POP POP POP POP POP POP POP POP POP JUMP JUMPDEST PUSH1 0x60 PUSH1 0x1 ISZERO ISZERO DUP3 ISZERO ISZERO SUB PUSH2 0x2C81 JUMPI PUSH1 0xE DUP1 SLOAD DUP1 PUSH1 0x20 MUL PUSH1 0x20 ADD PUSH1 0x40 MLOAD SWAP1 DUP2 ADD PUSH1 0x40 MSTORE DUP1 SWAP3 SWAP2 SWAP1 DUP2 DUP2 MSTORE PUSH1 0x20 ADD PUSH1 0x0 SWAP1 JUMPDEST DUP3 DUP3 LT ISZERO PUSH2 0x2C76 JUMPI DUP4 DUP3 SWAP1 PUSH1 0x0 MSTORE PUSH1 0x20 PUSH1 0x0 KECCAK256 SWAP1 PUSH1 0x6 MUL ADD PUSH1 0x40 MLOAD DUP1 PUSH1 0xC0 ADD PUSH1 0x40 MSTORE SWAP1 DUP2 PUSH1 0x0 DUP3 ADD DUP1 SLOAD PUSH2 0x28FF SWAP1 PUSH2 0x3D9D JUMP JUMPDEST DUP1 PUSH1 0x1F ADD PUSH1 0x20 DUP1 SWAP2 DIV MUL PUSH1 0x20 ADD PUSH1 0x40 MLOAD SWAP1 DUP2 ADD PUSH1 0x40 MSTORE DUP1 SWAP3 SWAP2 SWAP1 DUP2 DUP2 MSTORE PUSH1 0x20 ADD DUP3 DUP1 SLOAD PUSH2 0x292B SWAP1 PUSH2 0x3D9D JUMP JUMPDEST DUP1 ISZERO PUSH2 0x2978 JUMPI DUP1 PUSH1 0x1F LT PUSH2 0x294D JUMPI PUSH2 0x100 DUP1 DUP4 SLOAD DIV MUL DUP4 MSTORE SWAP2 PUSH1 0x20 ADD SWAP2 PUSH2 0x2978 JUMP JUMPDEST DUP3 ADD SWAP2 SWAP1 PUSH1 0x0 MSTORE PUSH1 0x20 PUSH1 0x0 KECCAK256 SWAP1 JUMPDEST DUP2 SLOAD DUP2 MSTORE SWAP1 PUSH1 0x1 ADD SWAP1 PUSH1 0x20 ADD DUP1 DUP4 GT PUSH2 0x295B JUMPI DUP3 SWAP1 SUB PUSH1 0x1F AND DUP3 ADD SWAP2 JUMPDEST POP POP POP POP POP DUP2 MSTORE PUSH1 0x20 ADD PUSH1 0x1 DUP3 ADD DUP1 SLOAD PUSH2 0x2991 SWAP1 PUSH2 0x3D9D JUMP JUMPDEST DUP1 PUSH1 0x1F ADD PUSH1 0x20 DUP1 SWAP2 DIV MUL PUSH1 0x20 ADD PUSH1 0x40 MLOAD SWAP1 DUP2 ADD PUSH1 0x40 MSTORE DUP1 SWAP3 SWAP2 SWAP1 DUP2 DUP2 MSTORE PUSH1 0x20 ADD DUP3 DUP1 SLOAD PUSH2 0x29BD SWAP1 PUSH2 0x3D9D JUMP JUMPDEST DUP1 ISZERO PUSH2 0x2A0A JUMPI DUP1 PUSH1 0x1F LT PUSH2 0x29DF JUMPI PUSH2 0x100 DUP1 DUP4 SLOAD DIV MUL DUP4 MSTORE SWAP2 PUSH1 0x20 ADD SWAP2 PUSH2 0x2A0A JUMP JUMPDEST DUP3 ADD SWAP2 SWAP1 PUSH1 0x0 MSTORE PUSH1 0x20 PUSH1 0x0 KECCAK256 SWAP1 JUMPDEST DUP2 SLOAD DUP2 MSTORE SWAP1 PUSH1 0x1 ADD SWAP1 PUSH1 0x20 ADD DUP1 DUP4 GT PUSH2 0x29ED JUMPI DUP3 SWAP1 SUB PUSH1 0x1F AND DUP3 ADD SWAP2 JUMPDEST POP POP POP POP POP DUP2 MSTORE PUSH1 0x20 ADD PUSH1 0x2 DUP3 ADD DUP1 SLOAD PUSH2 0x2A23 SWAP1 PUSH2 0x3D9D JUMP JUMPDEST DUP1 PUSH1 0x1F ADD PUSH1 0x20 DUP1 SWAP2 DIV MUL PUSH1 0x20 ADD PUSH1 0x40 MLOAD SWAP1 DUP2 ADD PUSH1 0x40 MSTORE DUP1 SWAP3 SWAP2 SWAP1 DUP2 DUP2 MSTORE PUSH1 0x20 ADD DUP3 DUP1 SLOAD PUSH2 0x2A4F SWAP1 PUSH2 0x3D9D JUMP JUMPDEST DUP1 ISZERO PUSH2 0x2A9C JUMPI DUP1 PUSH1 0x1F LT PUSH2 0x2A71 JUMPI PUSH2 0x100 DUP1 DUP4 SLOAD DIV MUL DUP4 MSTORE SWAP2 PUSH1 0x20 ADD SWAP2 PUSH2 0x2A9C JUMP JUMPDEST DUP3 ADD SWAP2 SWAP1 PUSH1 0x0 MSTORE PUSH1 0x20 PUSH1 0x0 KECCAK256 SWAP1 JUMPDEST DUP2 SLOAD DUP2 MSTORE SWAP1 PUSH1 0x1 ADD SWAP1 PUSH1 0x20 ADD DUP1 DUP4 GT PUSH2 0x2A7F JUMPI DUP3 SWAP1 SUB PUSH1 0x1F AND DUP3 ADD SWAP2 JUMPDEST POP POP POP POP POP DUP2 MSTORE PUSH1 0x20 ADD PUSH1 0x3 DUP3 ADD PUSH1 0x0 SWAP1 SLOAD SWAP1 PUSH2 0x100 EXP SWAP1 DIV PUSH20 0xFFFFFFFFFFFFFFFFFFFFFFFFFFFFFFFFFFFFFFFF AND PUSH20 0xFFFFFFFFFFFFFFFFFFFFFFFFFFFFFFFFFFFFFFFF AND PUSH20 0xFFFFFFFFFFFFFFFFFFFFFFFFFFFFFFFFFFFFFFFF AND DUP2 MSTORE PUSH1 0x20 ADD PUSH1 0x4 DUP3 ADD SLOAD DUP2 MSTORE PUSH1 0x20 ADD PUSH1 0x5 DUP3 ADD DUP1 SLOAD DUP1 PUSH1 0x20 MUL PUSH1 0x20 ADD PUSH1 0x40 MLOAD SWAP1 DUP2 ADD PUSH1 0x40 MSTORE DUP1 SWAP3 SWAP2 SWAP1 DUP2 DUP2 MSTORE PUSH1 0x20 ADD PUSH1 0x0 SWAP1 JUMPDEST DUP3 DUP3 LT ISZERO PUSH2 0x2C5F JUMPI DUP4 DUP3 SWAP1 PUSH1 0x0 MSTORE PUSH1 0x20 PUSH1 0x0 KECCAK256 SWAP1 PUSH1 0x2 MUL ADD PUSH1 0x40 MLOAD DUP1 PUSH1 0x60 ADD PUSH1 0x40 MSTORE SWAP1 DUP2 PUSH1 0x0 DUP3 ADD DUP1 SLOAD PUSH2 0x2B5D SWAP1 PUSH2 0x3D9D JUMP JUMPDEST DUP1 PUSH1 0x1F ADD PUSH1 0x20 DUP1 SWAP2 DIV MUL PUSH1 0x20 ADD PUSH1 0x40 MLOAD SWAP1 DUP2 ADD PUSH1 0x40 MSTORE DUP1 SWAP3 SWAP2 SWAP1 DUP2 DUP2 MSTORE PUSH1 0x20 ADD DUP3 DUP1 SLOAD PUSH2 0x2B89 SWAP1 PUSH2 0x3D9D JUMP JUMPDEST DUP1 ISZERO PUSH2 0x2BD6 JUMPI DUP1 PUSH1 0x1F LT PUSH2 0x2BAB JUMPI PUSH2 0x100 DUP1 DUP4 SLOAD DIV MUL DUP4 MSTORE SWAP2 PUSH1 0x20 ADD SWAP2 PUSH2 0x2BD6 JUMP JUMPDEST DUP3 ADD SWAP2 SWAP1 PUSH1 0x0 MSTORE PUSH1 0x20 PUSH1 0x0 KECCAK256 SWAP1 JUMPDEST DUP2 SLOAD DUP2 MSTORE SWAP1 PUSH1 0x1 ADD SWAP1 PUSH1 0x20 ADD DUP1 DUP4 GT PUSH2 0x2BB9 JUMPI DUP3 SWAP1 SUB PUSH1 0x1F AND DUP3 ADD SWAP2 JUMPDEST POP POP POP POP POP DUP2 MSTORE PUSH1 0x20 ADD PUSH1 0x1 DUP3 ADD PUSH1 0x0 SWAP1 SLOAD SWAP1 PUSH2 0x100 EXP SWAP1 DIV PUSH20 0xFFFFFFFFFFFFFFFFFFFFFFFFFFFFFFFFFFFFFFFF AND PUSH20 0xFFFFFFFFFFFFFFFFFFFFFFFFFFFFFFFFFFFFFFFF AND PUSH20 0xFFFFFFFFFFFFFFFFFFFFFFFFFFFFFFFFFFFFFFFF AND DUP2 MSTORE PUSH1 0x20 ADD PUSH1 0x1 DUP3 ADD PUSH1 0x14 SWAP1 SLOAD SWAP1 PUSH2 0x100 EXP SWAP1 DIV PUSH1 0xFF AND ISZERO ISZERO ISZERO ISZERO DUP2 MSTORE POP POP DUP2 MSTORE PUSH1 0x20 ADD SWAP1 PUSH1 0x1 ADD SWAP1 PUSH2 0x2B2A JUMP JUMPDEST POP POP POP POP DUP2 MSTORE POP POP DUP2 MSTORE PUSH1 0x20 ADD SWAP1 PUSH1 0x1 ADD SWAP1 PUSH2 0x28CC JUMP JUMPDEST POP POP POP POP SWAP1 POP PUSH2 0x3054 JUMP JUMPDEST PUSH1 0xB DUP1 SLOAD DUP1 PUSH1 0x20 MUL PUSH1 0x20 ADD PUSH1 0x40 MLOAD SWAP1 DUP2 ADD PUSH1 0x40 MSTORE DUP1 SWAP3 SWAP2 SWAP1 DUP2 DUP2 MSTORE PUSH1 0x20 ADD PUSH1 0x0 SWAP1 JUMPDEST DUP3 DUP3 LT ISZERO PUSH2 0x304D JUMPI DUP4 DUP3 SWAP1 PUSH1 0x0 MSTORE PUSH1 0x20 PUSH1 0x0 KECCAK256 SWAP1 PUSH1 0x6 MUL ADD PUSH1 0x40 MLOAD DUP1 PUSH1 0xC0 ADD PUSH1 0x40 MSTORE SWAP1 DUP2 PUSH1 0x0 DUP3 ADD DUP1 SLOAD PUSH2 0x2CD6 SWAP1 PUSH2 0x3D9D JUMP JUMPDEST DUP1 PUSH1 0x1F ADD PUSH1 0x20 DUP1 SWAP2 DIV MUL PUSH1 0x20 ADD PUSH1 0x40 MLOAD SWAP1 DUP2 ADD PUSH1 0x40 MSTORE DUP1 SWAP3 SWAP2 SWAP1 DUP2 DUP2 MSTORE PUSH1 0x20 ADD DUP3 DUP1 SLOAD PUSH2 0x2D02 SWAP1 PUSH2 0x3D9D JUMP JUMPDEST DUP1 ISZERO PUSH2 0x2D4F JUMPI DUP1 PUSH1 0x1F LT PUSH2 0x2D24 JUMPI PUSH2 0x100 DUP1 DUP4 SLOAD DIV MUL DUP4 MSTORE SWAP2 PUSH1 0x20 ADD SWAP2 PUSH2 0x2D4F JUMP JUMPDEST DUP3 ADD SWAP2 SWAP1 PUSH1 0x0 MSTORE PUSH1 0x20 PUSH1 0x0 KECCAK256 SWAP1 JUMPDEST DUP2 SLOAD DUP2 MSTORE SWAP1 PUSH1 0x1 ADD SWAP1 PUSH1 0x20 ADD DUP1 DUP4 GT PUSH2 0x2D32 JUMPI DUP3 SWAP1 SUB PUSH1 0x1F AND DUP3 ADD SWAP2 JUMPDEST POP POP POP POP POP DUP2 MSTORE PUSH1 0x20 ADD PUSH1 0x1 DUP3 ADD DUP1 SLOAD PUSH2 0x2D68 SWAP1 PUSH2 0x3D9D JUMP JUMPDEST DUP1 PUSH1 0x1F ADD PUSH1 0x20 DUP1 SWAP2 DIV MUL PUSH1 0x20 ADD PUSH1 0x40 MLOAD SWAP1 DUP2 ADD PUSH1 0x40 MSTORE DUP1 SWAP3 SWAP2 SWAP1 DUP2 DUP2 MSTORE PUSH1 0x20 ADD DUP3 DUP1 SLOAD PUSH2 0x2D94 SWAP1 PUSH2 0x3D9D JUMP JUMPDEST DUP1 ISZERO PUSH2 0x2DE1 JUMPI DUP1 PUSH1 0x1F LT PUSH2 0x2DB6 JUMPI PUSH2 0x100 DUP1 DUP4 SLOAD DIV MUL DUP4 MSTORE SWAP2 PUSH1 0x20 ADD SWAP2 PUSH2 0x2DE1 JUMP JUMPDEST DUP3 ADD SWAP2 SWAP1 PUSH1 0x0 MSTORE PUSH1 0x20 PUSH1 0x0 KECCAK256 SWAP1 JUMPDEST DUP2 SLOAD DUP2 MSTORE SWAP1 PUSH1 0x1 ADD SWAP1 PUSH1 0x20 ADD DUP1 DUP4 GT PUSH2 0x2DC4 JUMPI DUP3 SWAP1 SUB PUSH1 0x1F AND DUP3 ADD SWAP2 JUMPDEST POP POP POP POP POP DUP2 MSTORE PUSH1 0x20 ADD PUSH1 0x2 DUP3 ADD DUP1 SLOAD PUSH2 0x2DFA SWAP1 PUSH2 0x3D9D JUMP JUMPDEST DUP1 PUSH1 0x1F ADD PUSH1 0x20 DUP1 SWAP2 DIV MUL PUSH1 0x20 ADD PUSH1 0x40 MLOAD SWAP1 DUP2 ADD PUSH1 0x40 MSTORE DUP1 SWAP3 SWAP2 SWAP1 DUP2 DUP2 MSTORE PUSH1 0x20 ADD DUP3 DUP1 SLOAD PUSH2 0x2E26 SWAP1 PUSH2 0x3D9D JUMP JUMPDEST DUP1 ISZERO PUSH2 0x2E73 JUMPI DUP1 PUSH1 0x1F LT PUSH2 0x2E48 JUMPI PUSH2 0x100 DUP1 DUP4 SLOAD DIV MUL DUP4 MSTORE SWAP2 PUSH1 0x20 ADD SWAP2 PUSH2 0x2E73 JUMP JUMPDEST DUP3 ADD SWAP2 SWAP1 PUSH1 0x0 MSTORE PUSH1 0x20 PUSH1 0x0 KECCAK256 SWAP1 JUMPDEST DUP2 SLOAD DUP2 MSTORE SWAP1 PUSH1 0x1 ADD SWAP1 PUSH1 0x20 ADD DUP1 DUP4 GT PUSH2 0x2E56 JUMPI DUP3 SWAP1 SUB PUSH1 0x1F AND DUP3 ADD SWAP2 JUMPDEST POP POP POP POP POP DUP2 MSTORE PUSH1 0x20 ADD PUSH1 0x3 DUP3 ADD PUSH1 0x0 SWAP1 SLOAD SWAP1 PUSH2 0x100 EXP SWAP1 DIV PUSH20 0xFFFFFFFFFFFFFFFFFFFFFFFFFFFFFFFFFFFFFFFF AND PUSH20 0xFFFFFFFFFFFFFFFFFFFFFFFFFFFFFFFFFFFFFFFF AND PUSH20 0xFFFFFFFFFFFFFFFFFFFFFFFFFFFFFFFFFFFFFFFF AND DUP2 MSTORE PUSH1 0x20 ADD PUSH1 0x4 DUP3 ADD SLOAD DUP2 MSTORE PUSH1 0x20 ADD PUSH1 0x5 DUP3 ADD DUP1 SLOAD DUP1 PUSH1 0x20 MUL PUSH1 0x20 ADD PUSH1 0x40 MLOAD SWAP1 DUP2 ADD PUSH1 0x40 MSTORE DUP1 SWAP3 SWAP2 SWAP1 DUP2 DUP2 MSTORE PUSH1 0x20 ADD PUSH1 0x0 SWAP1 JUMPDEST DUP3 DUP3 LT ISZERO PUSH2 0x3036 JUMPI DUP4 DUP3 SWAP1 PUSH1 0x0 MSTORE PUSH1 0x20 PUSH1 0x0 KECCAK256 SWAP1 PUSH1 0x2 MUL ADD PUSH1 0x40 MLOAD DUP1 PUSH1 0x60 ADD PUSH1 0x40 MSTORE SWAP1 DUP2 PUSH1 0x0 DUP3 ADD DUP1 SLOAD PUSH2 0x2F34 SWAP1 PUSH2 0x3D9D JUMP JUMPDEST DUP1 PUSH1 0x1F ADD PUSH1 0x20 DUP1 SWAP2 DIV MUL PUSH1 0x20 ADD PUSH1 0x40 MLOAD SWAP1 DUP2 ADD PUSH1 0x40 MSTORE DUP1 SWAP3 SWAP2 SWAP1 DUP2 DUP2 MSTORE PUSH1 0x20 ADD DUP3 DUP1 SLOAD PUSH2 0x2F60 SWAP1 PUSH2 0x3D9D JUMP JUMPDEST DUP1 ISZERO PUSH2 0x2FAD JUMPI DUP1 PUSH1 0x1F LT PUSH2 0x2F82 JUMPI PUSH2 0x100 DUP1 DUP4 SLOAD DIV MUL DUP4 MSTORE SWAP2 PUSH1 0x20 ADD SWAP2 PUSH2 0x2FAD JUMP JUMPDEST DUP3 ADD SWAP2 SWAP1 PUSH1 0x0 MSTORE PUSH1 0x20 PUSH1 0x0 KECCAK256 SWAP1 JUMPDEST DUP2 SLOAD DUP2 MSTORE SWAP1 PUSH1 0x1 ADD SWAP1 PUSH1 0x20 ADD DUP1 DUP4 GT PUSH2 0x2F90 JUMPI DUP3 SWAP1 SUB PUSH1 0x1F AND DUP3 ADD SWAP2 JUMPDEST POP POP POP POP POP DUP2 MSTORE PUSH1 0x20 ADD PUSH1 0x1 DUP3 ADD PUSH1 0x0 SWAP1 SLOAD SWAP1 PUSH2 0x100 EXP SWAP1 DIV PUSH20 0xFFFFFFFFFFFFFFFFFFFFFFFFFFFFFFFFFFFFFFFF AND PUSH20 0xFFFFFFFFFFFFFFFFFFFFFFFFFFFFFFFFFFFFFFFF AND PUSH20 0xFFFFFFFFFFFFFFFFFFFFFFFFFFFFFFFFFFFFFFFF AND DUP2 MSTORE PUSH1 0x20 ADD PUSH1 0x1 DUP3 ADD PUSH1 0x14 SWAP1 SLOAD SWAP1 PUSH2 0x100 EXP SWAP1 DIV PUSH1 0xFF AND ISZERO ISZERO ISZERO ISZERO DUP2 MSTORE POP POP DUP2 MSTORE PUSH1 0x20 ADD SWAP1 PUSH1 0x1 ADD SWAP1 PUSH2 0x2F01 JUMP JUMPDEST POP POP POP POP DUP2 MSTORE POP POP DUP2 MSTORE PUSH1 0x20 ADD SWAP1 PUSH1 0x1 ADD SWAP1 PUSH2 0x2CA3 JUMP JUMPDEST POP POP POP POP SWAP1 POP JUMPDEST SWAP2 SWAP1 POP JUMP JUMPDEST PUSH1 0x0 PUSH1 0x8 PUSH1 0x0 DUP4 PUSH20 0xFFFFFFFFFFFFFFFFFFFFFFFFFFFFFFFFFFFFFFFF AND PUSH20 0xFFFFFFFFFFFFFFFFFFFFFFFFFFFFFFFFFFFFFFFF AND DUP2 MSTORE PUSH1 0x20 ADD SWAP1 DUP2 MSTORE PUSH1 0x20 ADD PUSH1 0x0 KECCAK256 SLOAD SWAP1 POP PUSH1 0xE PUSH1 0x1 PUSH1 0xE DUP1 SLOAD SWAP1 POP PUSH2 0x30B1 SWAP2 SWAP1 PUSH2 0x45C9 JUMP JUMPDEST DUP2 SLOAD DUP2 LT PUSH2 0x30C2 JUMPI PUSH2 0x30C1 PUSH2 0x45FD JUMP JUMPDEST JUMPDEST SWAP1 PUSH1 0x0 MSTORE PUSH1 0x20 PUSH1 0x0 KECCAK256 SWAP1 PUSH1 0x6 MUL ADD PUSH1 0xE DUP3 DUP2 SLOAD DUP2 LT PUSH2 0x30E4 JUMPI PUSH2 0x30E3 PUSH2 0x45FD JUMP JUMPDEST JUMPDEST SWAP1 PUSH1 0x0 MSTORE PUSH1 0x20 PUSH1 0x0 KECCAK256 SWAP1 PUSH1 0x6 MUL ADD PUSH1 0x0 DUP3 ADD DUP2 PUSH1 0x0 ADD SWAP1 DUP2 PUSH2 0x3106 SWAP2 SWAP1 PUSH2 0x4062 JUMP JUMPDEST POP PUSH1 0x1 DUP3 ADD DUP2 PUSH1 0x1 ADD SWAP1 DUP2 PUSH2 0x311B SWAP2 SWAP1 PUSH2 0x4062 JUMP JUMPDEST POP PUSH1 0x2 DUP3 ADD DUP2 PUSH1 0x2 ADD SWAP1 DUP2 PUSH2 0x3130 SWAP2 SWAP1 PUSH2 0x4062 JUMP JUMPDEST POP PUSH1 0x3 DUP3 ADD PUSH1 0x0 SWAP1 SLOAD SWAP1 PUSH2 0x100 EXP SWAP1 DIV PUSH20 0xFFFFFFFFFFFFFFFFFFFFFFFFFFFFFFFFFFFFFFFF AND DUP2 PUSH1 0x3 ADD PUSH1 0x0 PUSH2 0x100 EXP DUP2 SLOAD DUP2 PUSH20 0xFFFFFFFFFFFFFFFFFFFFFFFFFFFFFFFFFFFFFFFF MUL NOT AND SWAP1 DUP4 PUSH20 0xFFFFFFFFFFFFFFFFFFFFFFFFFFFFFFFFFFFFFFFF AND MUL OR SWAP1 SSTORE POP PUSH1 0x4 DUP3 ADD SLOAD DUP2 PUSH1 0x4 ADD SSTORE PUSH1 0x5 DUP3 ADD DUP2 PUSH1 0x5 ADD SWAP1 DUP1 SLOAD PUSH2 0x31B8 SWAP3 SWAP2 SWAP1 PUSH2 0x325A JUMP JUMPDEST POP SWAP1 POP POP PUSH1 0xE DUP1 SLOAD DUP1 PUSH2 0x31CE JUMPI PUSH2 0x31CD PUSH2 0x462C JUMP JUMPDEST JUMPDEST PUSH1 0x1 SWAP1 SUB DUP2 DUP2 SWAP1 PUSH1 0x0 MSTORE PUSH1 0x20 PUSH1 0x0 KECCAK256 SWAP1 PUSH1 0x6 MUL ADD PUSH1 0x0 DUP1 DUP3 ADD PUSH1 0x0 PUSH2 0x31F3 SWAP2 SWAP1 PUSH2 0x33A7 JUMP JUMPDEST PUSH1 0x1 DUP3 ADD PUSH1 0x0 PUSH2 0x3203 SWAP2 SWAP1 PUSH2 0x33A7 JUMP JUMPDEST PUSH1 0x2 DUP3 ADD PUSH1 0x0 PUSH2 0x3213 SWAP2 SWAP1 PUSH2 0x33A7 JUMP JUMPDEST PUSH1 0x3 DUP3 ADD PUSH1 0x0 PUSH2 0x100 EXP DUP2 SLOAD SWAP1 PUSH20 0xFFFFFFFFFFFFFFFFFFFFFFFFFFFFFFFFFFFFFFFF MUL NOT AND SWAP1 SSTORE PUSH1 0x4 DUP3 ADD PUSH1 0x0 SWAP1 SSTORE PUSH1 0x5 DUP3 ADD PUSH1 0x0 PUSH2 0x3252 SWAP2 SWAP1 PUSH2 0x33E7 JUMP JUMPDEST POP POP SWAP1 SSTORE POP POP JUMP JUMPDEST DUP3 DUP1 SLOAD DUP3 DUP3 SSTORE SWAP1 PUSH1 0x0 MSTORE PUSH1 0x20 PUSH1 0x0 KECCAK256 SWAP1 PUSH1 0x2 MUL DUP2 ADD SWAP3 DUP3 ISZERO PUSH2 0x334A JUMPI PUSH1 0x0 MSTORE PUSH1 0x20 PUSH1 0x0 KECCAK256 SWAP2 PUSH1 0x2 MUL DUP3 ADD JUMPDEST DUP3 DUP2 GT ISZERO PUSH2 0x3349 JUMPI DUP3 DUP3 PUSH1 0x0 DUP3 ADD DUP2 PUSH1 0x0 ADD SWAP1 DUP2 PUSH2 0x32A3 SWAP2 SWAP1 PUSH2 0x4062 JUMP JUMPDEST POP PUSH1 0x1 DUP3 ADD PUSH1 0x0 SWAP1 SLOAD SWAP1 PUSH2 0x100 EXP SWAP1 DIV PUSH20 0xFFFFFFFFFFFFFFFFFFFFFFFFFFFFFFFFFFFFFFFF AND DUP2 PUSH1 0x1 ADD PUSH1 0x0 PUSH2 0x100 EXP DUP2 SLOAD DUP2 PUSH20 0xFFFFFFFFFFFFFFFFFFFFFFFFFFFFFFFFFFFFFFFF MUL NOT AND SWAP1 DUP4 PUSH20 0xFFFFFFFFFFFFFFFFFFFFFFFFFFFFFFFFFFFFFFFF AND MUL OR SWAP1 SSTORE POP PUSH1 0x1 DUP3 ADD PUSH1 0x14 SWAP1 SLOAD SWAP1 PUSH2 0x100 EXP SWAP1 DIV PUSH1 0xFF AND DUP2 PUSH1 0x1 ADD PUSH1 0x14 PUSH2 0x100 EXP DUP2 SLOAD DUP2 PUSH1 0xFF MUL NOT AND SWAP1 DUP4 ISZERO ISZERO MUL OR SWAP1 SSTORE POP POP POP SWAP2 PUSH1 0x2 ADD SWAP2 SWAP1 PUSH1 0x2 ADD SWAP1 PUSH2 0x3285 JUMP JUMPDEST JUMPDEST POP SWAP1 POP PUSH2 0x3357 SWAP2 SWAP1 PUSH2 0x340B JUMP JUMPDEST POP SWAP1 JUMP JUMPDEST PUSH1 0x40 MLOAD DUP1 PUSH1 0xC0 ADD PUSH1 0x40 MSTORE DUP1 PUSH1 0x60 DUP2 MSTORE PUSH1 0x20 ADD PUSH1 0x60 DUP2 MSTORE PUSH1 0x20 ADD PUSH1 0x60 DUP2 MSTORE PUSH1 0x20 ADD PUSH1 0x0 PUSH20 0xFFFFFFFFFFFFFFFFFFFFFFFFFFFFFFFFFFFFFFFF AND DUP2 MSTORE PUSH1 0x20 ADD PUSH1 0x0 DUP2 MSTORE PUSH1 0x20 ADD PUSH1 0x60 DUP2 MSTORE POP SWAP1 JUMP JUMPDEST POP DUP1 SLOAD PUSH2 0x33B3 SWAP1 PUSH2 0x3D9D JUMP JUMPDEST PUSH1 0x0 DUP3 SSTORE DUP1 PUSH1 0x1F LT PUSH2 0x33C5 JUMPI POP PUSH2 0x33E4 JUMP JUMPDEST PUSH1 0x1F ADD PUSH1 0x20 SWAP1 DIV SWAP1 PUSH1 0x0 MSTORE PUSH1 0x20 PUSH1 0x0 KECCAK256 SWAP1 DUP2 ADD SWAP1 PUSH2 0x33E3 SWAP2 SWAP1 PUSH2 0x346D JUMP JUMPDEST JUMPDEST POP JUMP JUMPDEST POP DUP1 SLOAD PUSH1 0x0 DUP3 SSTORE PUSH1 0x2 MUL SWAP1 PUSH1 0x0 MSTORE PUSH1 0x20 PUSH1 0x0 KECCAK256 SWAP1 DUP2 ADD SWAP1 PUSH2 0x3408 SWAP2 SWAP1 PUSH2 0x340B JUMP JUMPDEST POP JUMP JUMPDEST JUMPDEST DUP1 DUP3 GT ISZERO PUSH2 0x3469 JUMPI PUSH1 0x0 DUP1 DUP3 ADD PUSH1 0x0 PUSH2 0x3425 SWAP2 SWAP1 PUSH2 0x33A7 JUMP JUMPDEST PUSH1 0x1 DUP3 ADD PUSH1 0x0 PUSH2 0x100 EXP DUP2 SLOAD SWAP1 PUSH20 0xFFFFFFFFFFFFFFFFFFFFFFFFFFFFFFFFFFFFFFFF MUL NOT AND SWAP1 SSTORE PUSH1 0x1 DUP3 ADD PUSH1 0x14 PUSH2 0x100 EXP DUP2 SLOAD SWAP1 PUSH1 0xFF MUL NOT AND SWAP1 SSTORE POP PUSH1 0x2 ADD PUSH2 0x340C JUMP JUMPDEST POP SWAP1 JUMP JUMPDEST JUMPDEST DUP1 DUP3 GT ISZERO PUSH2 0x3486 JUMPI PUSH1 0x0 DUP2 PUSH1 0x0 SWAP1 SSTORE POP PUSH1 0x1 ADD PUSH2 0x346E JUMP JUMPDEST POP SWAP1 JUMP JUMPDEST PUSH1 0x0 PUSH1 0x40 MLOAD SWAP1 POP SWAP1 JUMP JUMPDEST PUSH1 0x0 DUP1 REVERT JUMPDEST PUSH1 0x0 DUP1 REVERT JUMPDEST PUSH1 0x0 DUP2 ISZERO ISZERO SWAP1 POP SWAP2 SWAP1 POP JUMP JUMPDEST PUSH2 0x34B3 DUP2 PUSH2 0x349E JUMP JUMPDEST DUP2 EQ PUSH2 0x34BE JUMPI PUSH1 0x0 DUP1 REVERT JUMPDEST POP JUMP JUMPDEST PUSH1 0x0 DUP2 CALLDATALOAD SWAP1 POP PUSH2 0x34D0 DUP2 PUSH2 0x34AA JUMP JUMPDEST SWAP3 SWAP2 POP POP JUMP JUMPDEST PUSH1 0x0 PUSH1 0x20 DUP3 DUP5 SUB SLT ISZERO PUSH2 0x34EC JUMPI PUSH2 0x34EB PUSH2 0x3494 JUMP JUMPDEST JUMPDEST PUSH1 0x0 PUSH2 0x34FA DUP5 DUP3 DUP6 ADD PUSH2 0x34C1 JUMP JUMPDEST SWAP2 POP POP SWAP3 SWAP2 POP POP JUMP JUMPDEST PUSH1 0x0 DUP2 MLOAD SWAP1 POP SWAP2 SWAP1 POP JUMP JUMPDEST PUSH1 0x0 DUP3 DUP3 MSTORE PUSH1 0x20 DUP3 ADD SWAP1 POP SWAP3 SWAP2 POP POP JUMP JUMPDEST PUSH1 0x0 DUP2 SWAP1 POP PUSH1 0x20 DUP3 ADD SWAP1 POP SWAP2 SWAP1 POP JUMP JUMPDEST PUSH1 0x0 DUP2 MLOAD SWAP1 POP SWAP2 SWAP1 POP JUMP JUMPDEST PUSH1 0x0 DUP3 DUP3 MSTORE PUSH1 0x20 DUP3 ADD SWAP1 POP SWAP3 SWAP2 POP POP JUMP JUMPDEST PUSH1 0x0 JUMPDEST DUP4 DUP2 LT ISZERO PUSH2 0x3569 JUMPI DUP1 DUP3 ADD MLOAD DUP2 DUP5 ADD MSTORE PUSH1 0x20 DUP2 ADD SWAP1 POP PUSH2 0x354E JUMP JUMPDEST PUSH1 0x0 DUP5 DUP5 ADD MSTORE POP POP POP POP JUMP JUMPDEST PUSH1 0x0 PUSH1 0x1F NOT PUSH1 0x1F DUP4 ADD AND SWAP1 POP SWAP2 SWAP1 POP JUMP JUMPDEST PUSH1 0x0 PUSH2 0x3591 DUP3 PUSH2 0x352F JUMP JUMPDEST PUSH2 0x359B DUP2 DUP6 PUSH2 0x353A JUMP JUMPDEST SWAP4 POP PUSH2 0x35AB DUP2 DUP6 PUSH1 0x20 DUP7 ADD PUSH2 0x354B JUMP JUMPDEST PUSH2 0x35B4 DUP2 PUSH2 0x3575 JUMP JUMPDEST DUP5 ADD SWAP2 POP POP SWAP3 SWAP2 POP POP JUMP JUMPDEST PUSH1 0x0 PUSH20 0xFFFFFFFFFFFFFFFFFFFFFFFFFFFFFFFFFFFFFFFF DUP3 AND SWAP1 POP SWAP2 SWAP1 POP JUMP JUMPDEST PUSH1 0x0 PUSH2 0x35EA DUP3 PUSH2 0x35BF JUMP JUMPDEST SWAP1 POP SWAP2 SWAP1 POP JUMP JUMPDEST PUSH2 0x35FA DUP2 PUSH2 0x35DF JUMP JUMPDEST DUP3 MSTORE POP POP JUMP JUMPDEST PUSH2 0x3609 DUP2 PUSH2 0x349E JUMP JUMPDEST DUP3 MSTORE POP POP JUMP JUMPDEST PUSH1 0x0 PUSH1 0x60 DUP4 ADD PUSH1 0x0 DUP4 ADD MLOAD DUP5 DUP3 SUB PUSH1 0x0 DUP7 ADD MSTORE PUSH2 0x362C DUP3 DUP3 PUSH2 0x3586 JUMP JUMPDEST SWAP2 POP POP PUSH1 0x20 DUP4 ADD MLOAD PUSH2 0x3641 PUSH1 0x20 DUP7 ADD DUP3 PUSH2 0x35F1 JUMP JUMPDEST POP PUSH1 0x40 DUP4 ADD MLOAD PUSH2 0x3654 PUSH1 0x40 DUP7 ADD DUP3 PUSH2 0x3600 JUMP JUMPDEST POP DUP1 SWAP2 POP POP SWAP3 SWAP2 POP POP JUMP JUMPDEST PUSH1 0x0 PUSH2 0x366B DUP4 DUP4 PUSH2 0x360F JUMP JUMPDEST SWAP1 POP SWAP3 SWAP2 POP POP JUMP JUMPDEST PUSH1 0x0 PUSH1 0x20 DUP3 ADD SWAP1 POP SWAP2 SWAP1 POP JUMP JUMPDEST PUSH1 0x0 PUSH2 0x368B DUP3 PUSH2 0x3503 JUMP JUMPDEST PUSH2 0x3695 DUP2 DUP6 PUSH2 0x350E JUMP JUMPDEST SWAP4 POP DUP4 PUSH1 0x20 DUP3 MUL DUP6 ADD PUSH2 0x36A7 DUP6 PUSH2 0x351F JUMP JUMPDEST DUP1 PUSH1 0x0 JUMPDEST DUP6 DUP2 LT ISZERO PUSH2 0x36E3 JUMPI DUP5 DUP5 SUB DUP10 MSTORE DUP2 MLOAD PUSH2 0x36C4 DUP6 DUP3 PUSH2 0x365F JUMP JUMPDEST SWAP5 POP PUSH2 0x36CF DUP4 PUSH2 0x3673 JUMP JUMPDEST SWAP3 POP PUSH1 0x20 DUP11 ADD SWAP10 POP POP PUSH1 0x1 DUP2 ADD SWAP1 POP PUSH2 0x36AB JUMP JUMPDEST POP DUP3 SWAP8 POP DUP8 SWAP6 POP POP POP POP POP POP SWAP3 SWAP2 POP POP JUMP JUMPDEST PUSH1 0x0 PUSH1 0x20 DUP3 ADD SWAP1 POP DUP2 DUP2 SUB PUSH1 0x0 DUP4 ADD MSTORE PUSH2 0x370F DUP2 DUP5 PUSH2 0x3680 JUMP JUMPDEST SWAP1 POP SWAP3 SWAP2 POP POP JUMP JUMPDEST PUSH2 0x3720 DUP2 PUSH2 0x35DF JUMP JUMPDEST DUP2 EQ PUSH2 0x372B JUMPI PUSH1 0x0 DUP1 REVERT JUMPDEST POP JUMP JUMPDEST PUSH1 0x0 DUP2 CALLDATALOAD SWAP1 POP PUSH2 0x373D DUP2 PUSH2 0x3717 JUMP JUMPDEST SWAP3 SWAP2 POP POP JUMP JUMPDEST PUSH1 0x0 PUSH1 0x20 DUP3 DUP5 SUB SLT ISZERO PUSH2 0x3759 JUMPI PUSH2 0x3758 PUSH2 0x3494 JUMP JUMPDEST JUMPDEST PUSH1 0x0 PUSH2 0x3767 DUP5 DUP3 DUP6 ADD PUSH2 0x372E JUMP JUMPDEST SWAP2 POP POP SWAP3 SWAP2 POP POP JUMP JUMPDEST PUSH2 0x3779 DUP2 PUSH2 0x349E JUMP JUMPDEST DUP3 MSTORE POP POP JUMP JUMPDEST PUSH1 0x0 PUSH1 0x20 DUP3 ADD SWAP1 POP PUSH2 0x3794 PUSH1 0x0 DUP4 ADD DUP5 PUSH2 0x3770 JUMP JUMPDEST SWAP3 SWAP2 POP POP JUMP JUMPDEST PUSH1 0x0 DUP1 REVERT JUMPDEST PUSH1 0x0 DUP1 REVERT JUMPDEST PUSH32 0x4E487B7100000000000000000000000000000000000000000000000000000000 PUSH1 0x0 MSTORE PUSH1 0x41 PUSH1 0x4 MSTORE PUSH1 0x24 PUSH1 0x0 REVERT JUMPDEST PUSH2 0x37DC DUP3 PUSH2 0x3575 JUMP JUMPDEST DUP2 ADD DUP2 DUP2 LT PUSH8 0xFFFFFFFFFFFFFFFF DUP3 GT OR ISZERO PUSH2 0x37FB JUMPI PUSH2 0x37FA PUSH2 0x37A4 JUMP JUMPDEST JUMPDEST DUP1 PUSH1 0x40 MSTORE POP POP POP JUMP JUMPDEST PUSH1 0x0 PUSH2 0x380E PUSH2 0x348A JUMP JUMPDEST SWAP1 POP PUSH2 0x381A DUP3 DUP3 PUSH2 0x37D3 JUMP JUMPDEST SWAP2 SWAP1 POP JUMP JUMPDEST PUSH1 0x0 PUSH8 0xFFFFFFFFFFFFFFFF DUP3 GT ISZERO PUSH2 0x383A JUMPI PUSH2 0x3839 PUSH2 0x37A4 JUMP JUMPDEST JUMPDEST PUSH2 0x3843 DUP3 PUSH2 0x3575 JUMP JUMPDEST SWAP1 POP PUSH1 0x20 DUP2 ADD SWAP1 POP SWAP2 SWAP1 POP JUMP JUMPDEST DUP3 DUP2 DUP4 CALLDATACOPY PUSH1 0x0 DUP4 DUP4 ADD MSTORE POP POP POP JUMP JUMPDEST PUSH1 0x0 PUSH2 0x3872 PUSH2 0x386D DUP5 PUSH2 0x381F JUMP JUMPDEST PUSH2 0x3804 JUMP JUMPDEST SWAP1 POP DUP3 DUP2 MSTORE PUSH1 0x20 DUP2 ADD DUP5 DUP5 DUP5 ADD GT ISZERO PUSH2 0x388E JUMPI PUSH2 0x388D PUSH2 0x379F JUMP JUMPDEST JUMPDEST PUSH2 0x3899 DUP5 DUP3 DUP6 PUSH2 0x3850 JUMP JUMPDEST POP SWAP4 SWAP3 POP POP POP JUMP JUMPDEST PUSH1 0x0 DUP3 PUSH1 0x1F DUP4 ADD SLT PUSH2 0x38B6 JUMPI PUSH2 0x38B5 PUSH2 0x379A JUMP JUMPDEST JUMPDEST DUP2 CALLDATALOAD PUSH2 0x38C6 DUP5 DUP3 PUSH1 0x20 DUP7 ADD PUSH2 0x385F JUMP JUMPDEST SWAP2 POP POP SWAP3 SWAP2 POP POP JUMP JUMPDEST PUSH1 0x0 DUP1 PUSH1 0x0 PUSH1 0x60 DUP5 DUP7 SUB SLT ISZERO PUSH2 0x38E8 JUMPI PUSH2 0x38E7 PUSH2 0x3494 JUMP JUMPDEST JUMPDEST PUSH1 0x0 DUP5 ADD CALLDATALOAD PUSH8 0xFFFFFFFFFFFFFFFF DUP2 GT ISZERO PUSH2 0x3906 JUMPI PUSH2 0x3905 PUSH2 0x3499 JUMP JUMPDEST JUMPDEST PUSH2 0x3912 DUP7 DUP3 DUP8 ADD PUSH2 0x38A1 JUMP JUMPDEST SWAP4 POP POP PUSH1 0x20 PUSH2 0x3923 DUP7 DUP3 DUP8 ADD PUSH2 0x372E JUMP JUMPDEST SWAP3 POP POP PUSH1 0x40 PUSH2 0x3934 DUP7 DUP3 DUP8 ADD PUSH2 0x34C1 JUMP JUMPDEST SWAP2 POP POP SWAP3 POP SWAP3 POP SWAP3 JUMP JUMPDEST PUSH1 0x0 DUP1 PUSH1 0x0 DUP1 PUSH1 0x0 PUSH1 0xA0 DUP7 DUP9 SUB SLT ISZERO PUSH2 0x395A JUMPI PUSH2 0x3959 PUSH2 0x3494 JUMP JUMPDEST JUMPDEST PUSH1 0x0 DUP7 ADD CALLDATALOAD PUSH8 0xFFFFFFFFFFFFFFFF DUP2 GT ISZERO PUSH2 0x3978 JUMPI PUSH2 0x3977 PUSH2 0x3499 JUMP JUMPDEST JUMPDEST PUSH2 0x3984 DUP9 DUP3 DUP10 ADD PUSH2 0x38A1 JUMP JUMPDEST SWAP6 POP POP PUSH1 0x20 DUP7 ADD CALLDATALOAD PUSH8 0xFFFFFFFFFFFFFFFF DUP2 GT ISZERO PUSH2 0x39A5 JUMPI PUSH2 0x39A4 PUSH2 0x3499 JUMP JUMPDEST JUMPDEST PUSH2 0x39B1 DUP9 DUP3 DUP10 ADD PUSH2 0x38A1 JUMP JUMPDEST SWAP5 POP POP PUSH1 0x40 DUP7 ADD CALLDATALOAD PUSH8 0xFFFFFFFFFFFFFFFF DUP2 GT ISZERO PUSH2 0x39D2 JUMPI PUSH2 0x39D1 PUSH2 0x3499 JUMP JUMPDEST JUMPDEST PUSH2 0x39DE DUP9 DUP3 DUP10 ADD PUSH2 0x38A1 JUMP JUMPDEST SWAP4 POP POP PUSH1 0x60 PUSH2 0x39EF DUP9 DUP3 DUP10 ADD PUSH2 0x372E JUMP JUMPDEST SWAP3 POP POP PUSH1 0x80 PUSH2 0x3A00 DUP9 DUP3 DUP10 ADD PUSH2 0x34C1 JUMP JUMPDEST SWAP2 POP POP SWAP3 SWAP6 POP SWAP3 SWAP6 SWAP1 SWAP4 POP JUMP JUMPDEST PUSH1 0x0 DUP1 PUSH1 0x40 DUP4 DUP6 SUB SLT ISZERO PUSH2 0x3A24 JUMPI PUSH2 0x3A23 PUSH2 0x3494 JUMP JUMPDEST JUMPDEST PUSH1 0x0 PUSH2 0x3A32 DUP6 DUP3 DUP7 ADD PUSH2 0x372E JUMP JUMPDEST SWAP3 POP POP PUSH1 0x20 PUSH2 0x3A43 DUP6 DUP3 DUP7 ADD PUSH2 0x372E JUMP JUMPDEST SWAP2 POP POP SWAP3 POP SWAP3 SWAP1 POP JUMP JUMPDEST PUSH1 0x0 DUP1 PUSH1 0x40 DUP4 DUP6 SUB SLT ISZERO PUSH2 0x3A64 JUMPI PUSH2 0x3A63 PUSH2 0x3494 JUMP JUMPDEST JUMPDEST PUSH1 0x0 PUSH2 0x3A72 DUP6 DUP3 DUP7 ADD PUSH2 0x372E JUMP JUMPDEST SWAP3 POP POP PUSH1 0x20 PUSH2 0x3A83 DUP6 DUP3 DUP7 ADD PUSH2 0x34C1 JUMP JUMPDEST SWAP2 POP POP SWAP3 POP SWAP3 SWAP1 POP JUMP JUMPDEST PUSH1 0x0 DUP2 SWAP1 POP SWAP2 SWAP1 POP JUMP JUMPDEST PUSH2 0x3AA0 DUP2 PUSH2 0x3A8D JUMP JUMPDEST DUP3 MSTORE POP POP JUMP JUMPDEST PUSH1 0x0 DUP3 DUP3 MSTORE PUSH1 0x20 DUP3 ADD SWAP1 POP SWAP3 SWAP2 POP POP JUMP JUMPDEST PUSH1 0x0 PUSH2 0x3AC2 DUP3 PUSH2 0x3503 JUMP JUMPDEST PUSH2 0x3ACC DUP2 DUP6 PUSH2 0x3AA6 JUMP JUMPDEST SWAP4 POP DUP4 PUSH1 0x20 DUP3 MUL DUP6 ADD PUSH2 0x3ADE DUP6 PUSH2 0x351F JUMP JUMPDEST DUP1 PUSH1 0x0 JUMPDEST DUP6 DUP2 LT ISZERO PUSH2 0x3B1A JUMPI DUP5 DUP5 SUB DUP10 MSTORE DUP2 MLOAD PUSH2 0x3AFB DUP6 DUP3 PUSH2 0x365F JUMP JUMPDEST SWAP5 POP PUSH2 0x3B06 DUP4 PUSH2 0x3673 JUMP JUMPDEST SWAP3 POP PUSH1 0x20 DUP11 ADD SWAP10 POP POP PUSH1 0x1 DUP2 ADD SWAP1 POP PUSH2 0x3AE2 JUMP JUMPDEST POP DUP3 SWAP8 POP DUP8 SWAP6 POP POP POP POP POP POP SWAP3 SWAP2 POP POP JUMP JUMPDEST PUSH1 0x0 PUSH1 0xC0 DUP4 ADD PUSH1 0x0 DUP4 ADD MLOAD DUP5 DUP3 SUB PUSH1 0x0 DUP7 ADD MSTORE PUSH2 0x3B49 DUP3 DUP3 PUSH2 0x3586 JUMP JUMPDEST SWAP2 POP POP PUSH1 0x20 DUP4 ADD MLOAD DUP5 DUP3 SUB PUSH1 0x20 DUP7 ADD MSTORE PUSH2 0x3B63 DUP3 DUP3 PUSH2 0x3586 JUMP JUMPDEST SWAP2 POP POP PUSH1 0x40 DUP4 ADD MLOAD DUP5 DUP3 SUB PUSH1 0x40 DUP7 ADD MSTORE PUSH2 0x3B7D DUP3 DUP3 PUSH2 0x3586 JUMP JUMPDEST SWAP2 POP POP PUSH1 0x60 DUP4 ADD MLOAD PUSH2 0x3B92 PUSH1 0x60 DUP7 ADD DUP3 PUSH2 0x35F1 JUMP JUMPDEST POP PUSH1 0x80 DUP4 ADD MLOAD PUSH2 0x3BA5 PUSH1 0x80 DUP7 ADD DUP3 PUSH2 0x3A97 JUMP JUMPDEST POP PUSH1 0xA0 DUP4 ADD MLOAD DUP5 DUP3 SUB PUSH1 0xA0 DUP7 ADD MSTORE PUSH2 0x3BBD DUP3 DUP3 PUSH2 0x3AB7 JUMP JUMPDEST SWAP2 POP POP DUP1 SWAP2 POP POP SWAP3 SWAP2 POP POP JUMP JUMPDEST PUSH1 0x0 PUSH1 0x20 DUP3 ADD SWAP1 POP DUP2 DUP2 SUB PUSH1 0x0 DUP4 ADD MSTORE PUSH2 0x3BE4 DUP2 DUP5 PUSH2 0x3B2C JUMP JUMPDEST SWAP1 POP SWAP3 SWAP2 POP POP JUMP JUMPDEST PUSH1 0x0 DUP2 MLOAD SWAP1 POP SWAP2 SWAP1 POP JUMP JUMPDEST PUSH1 0x0 DUP3 DUP3 MSTORE PUSH1 0x20 DUP3 ADD SWAP1 POP SWAP3 SWAP2 POP POP JUMP JUMPDEST PUSH1 0x0 DUP2 SWAP1 POP PUSH1 0x20 DUP3 ADD SWAP1 POP SWAP2 SWAP1 POP JUMP JUMPDEST PUSH1 0x0 PUSH1 0xC0 DUP4 ADD PUSH1 0x0 DUP4 ADD MLOAD DUP5 DUP3 SUB PUSH1 0x0 DUP7 ADD MSTORE PUSH2 0x3C35 DUP3 DUP3 PUSH2 0x3586 JUMP JUMPDEST SWAP2 POP POP PUSH1 0x20 DUP4 ADD MLOAD DUP5 DUP3 SUB PUSH1 0x20 DUP7 ADD MSTORE PUSH2 0x3C4F DUP3 DUP3 PUSH2 0x3586 JUMP JUMPDEST SWAP2 POP POP PUSH1 0x40 DUP4 ADD MLOAD DUP5 DUP3 SUB PUSH1 0x40 DUP7 ADD MSTORE PUSH2 0x3C69 DUP3 DUP3 PUSH2 0x3586 JUMP JUMPDEST SWAP2 POP POP PUSH1 0x60 DUP4 ADD MLOAD PUSH2 0x3C7E PUSH1 0x60 DUP7 ADD DUP3 PUSH2 0x35F1 JUMP JUMPDEST POP PUSH1 0x80 DUP4 ADD MLOAD PUSH2 0x3C91 PUSH1 0x80 DUP7 ADD DUP3 PUSH2 0x3A97 JUMP JUMPDEST POP PUSH1 0xA0 DUP4 ADD MLOAD DUP5 DUP3 SUB PUSH1 0xA0 DUP7 ADD MSTORE PUSH2 0x3CA9 DUP3 DUP3 PUSH2 0x3AB7 JUMP JUMPDEST SWAP2 POP POP DUP1 SWAP2 POP POP SWAP3 SWAP2 POP POP JUMP JUMPDEST PUSH1 0x0 PUSH2 0x3CC2 DUP4 DUP4 PUSH2 0x3C18 JUMP JUMPDEST SWAP1 POP SWAP3 SWAP2 POP POP JUMP JUMPDEST PUSH1 0x0 PUSH1 0x20 DUP3 ADD SWAP1 POP SWAP2 SWAP1 POP JUMP JUMPDEST PUSH1 0x0 PUSH2 0x3CE2 DUP3 PUSH2 0x3BEC JUMP JUMPDEST PUSH2 0x3CEC DUP2 DUP6 PUSH2 0x3BF7 JUMP JUMPDEST SWAP4 POP DUP4 PUSH1 0x20 DUP3 MUL DUP6 ADD PUSH2 0x3CFE DUP6 PUSH2 0x3C08 JUMP JUMPDEST DUP1 PUSH1 0x0 JUMPDEST DUP6 DUP2 LT ISZERO PUSH2 0x3D3A JUMPI DUP5 DUP5 SUB DUP10 MSTORE DUP2 MLOAD PUSH2 0x3D1B DUP6 DUP3 PUSH2 0x3CB6 JUMP JUMPDEST SWAP5 POP PUSH2 0x3D26 DUP4 PUSH2 0x3CCA JUMP JUMPDEST SWAP3 POP PUSH1 0x20 DUP11 ADD SWAP10 POP POP PUSH1 0x1 DUP2 ADD SWAP1 POP PUSH2 0x3D02 JUMP JUMPDEST POP DUP3 SWAP8 POP DUP8 SWAP6 POP POP POP POP POP POP SWAP3 SWAP2 POP POP JUMP JUMPDEST PUSH1 0x0 PUSH1 0x20 DUP3 ADD SWAP1 POP DUP2 DUP2 SUB PUSH1 0x0 DUP4 ADD MSTORE PUSH2 0x3D66 DUP2 DUP5 PUSH2 0x3CD7 JUMP JUMPDEST SWAP1 POP SWAP3 SWAP2 POP POP JUMP JUMPDEST PUSH32 0x4E487B7100000000000000000000000000000000000000000000000000000000 PUSH1 0x0 MSTORE PUSH1 0x22 PUSH1 0x4 MSTORE PUSH1 0x24 PUSH1 0x0 REVERT JUMPDEST PUSH1 0x0 PUSH1 0x2 DUP3 DIV SWAP1 POP PUSH1 0x1 DUP3 AND DUP1 PUSH2 0x3DB5 JUMPI PUSH1 0x7F DUP3 AND SWAP2 POP JUMPDEST PUSH1 0x20 DUP3 LT DUP2 SUB PUSH2 0x3DC8 JUMPI PUSH2 0x3DC7 PUSH2 0x3D6E JUMP JUMPDEST JUMPDEST POP SWAP2 SWAP1 POP JUMP JUMPDEST PUSH1 0x0 DUP2 SWAP1 POP DUP2 PUSH1 0x0 MSTORE PUSH1 0x20 PUSH1 0x0 KECCAK256 SWAP1 POP SWAP2 SWAP1 POP JUMP JUMPDEST PUSH1 0x0 PUSH1 0x20 PUSH1 0x1F DUP4 ADD DIV SWAP1 POP SWAP2 SWAP1 POP JUMP JUMPDEST PUSH1 0x0 DUP3 DUP3 SHL SWAP1 POP SWAP3 SWAP2 POP POP JUMP JUMPDEST PUSH1 0x0 PUSH1 0x8 DUP4 MUL PUSH2 0x3E30 PUSH32 0xFFFFFFFFFFFFFFFFFFFFFFFFFFFFFFFFFFFFFFFFFFFFFFFFFFFFFFFFFFFFFFFF DUP3 PUSH2 0x3DF3 JUMP JUMPDEST PUSH2 0x3E3A DUP7 DUP4 PUSH2 0x3DF3 JUMP JUMPDEST SWAP6 POP DUP1 NOT DUP5 AND SWAP4 POP DUP1 DUP7 AND DUP5 OR SWAP3 POP POP POP SWAP4 SWAP3 POP POP POP JUMP JUMPDEST PUSH1 0x0 DUP2 SWAP1 POP SWAP2 SWAP1 POP JUMP JUMPDEST PUSH1 0x0 PUSH2 0x3E77 PUSH2 0x3E72 PUSH2 0x3E6D DUP5 PUSH2 0x3A8D JUMP JUMPDEST PUSH2 0x3E52 JUMP JUMPDEST PUSH2 0x3A8D JUMP JUMPDEST SWAP1 POP SWAP2 SWAP1 POP JUMP JUMPDEST PUSH1 0x0 DUP2 SWAP1 POP SWAP2 SWAP1 POP JUMP JUMPDEST PUSH2 0x3E91 DUP4 PUSH2 0x3E5C JUMP JUMPDEST PUSH2 0x3EA5 PUSH2 0x3E9D DUP3 PUSH2 0x3E7E JUMP JUMPDEST DUP5 DUP5 SLOAD PUSH2 0x3E00 JUMP JUMPDEST DUP3 SSTORE POP POP POP POP JUMP JUMPDEST PUSH1 0x0 SWAP1 JUMP JUMPDEST PUSH2 0x3EBA PUSH2 0x3EAD JUMP JUMPDEST PUSH2 0x3EC5 DUP2 DUP5 DUP5 PUSH2 0x3E88 JUMP JUMPDEST POP POP POP JUMP JUMPDEST JUMPDEST DUP2 DUP2 LT ISZERO PUSH2 0x3EE9 JUMPI PUSH2 0x3EDE PUSH1 0x0 DUP3 PUSH2 0x3EB2 JUMP JUMPDEST PUSH1 0x1 DUP2 ADD SWAP1 POP PUSH2 0x3ECB JUMP JUMPDEST POP POP JUMP JUMPDEST PUSH1 0x1F DUP3 GT ISZERO PUSH2 0x3F2E JUMPI PUSH2 0x3EFF DUP2 PUSH2 0x3DCE JUMP JUMPDEST PUSH2 0x3F08 DUP5 PUSH2 0x3DE3 JUMP JUMPDEST DUP2 ADD PUSH1 0x20 DUP6 LT ISZERO PUSH2 0x3F17 JUMPI DUP2 SWAP1 POP JUMPDEST PUSH2 0x3F2B PUSH2 0x3F23 DUP6 PUSH2 0x3DE3 JUMP JUMPDEST DUP4 ADD DUP3 PUSH2 0x3ECA JUMP JUMPDEST POP POP JUMPDEST POP POP POP JUMP JUMPDEST PUSH1 0x0 DUP3 DUP3 SHR SWAP1 POP SWAP3 SWAP2 POP POP JUMP JUMPDEST PUSH1 0x0 PUSH2 0x3F51 PUSH1 0x0 NOT DUP5 PUSH1 0x8 MUL PUSH2 0x3F33 JUMP JUMPDEST NOT DUP1 DUP4 AND SWAP2 POP POP SWAP3 SWAP2 POP POP JUMP JUMPDEST PUSH1 0x0 PUSH2 0x3F6A DUP4 DUP4 PUSH2 0x3F40 JUMP JUMPDEST SWAP2 POP DUP3 PUSH1 0x2 MUL DUP3 OR SWAP1 POP SWAP3 SWAP2 POP POP JUMP JUMPDEST PUSH2 0x3F83 DUP3 PUSH2 0x352F JUMP JUMPDEST PUSH8 0xFFFFFFFFFFFFFFFF DUP2 GT ISZERO PUSH2 0x3F9C JUMPI PUSH2 0x3F9B PUSH2 0x37A4 JUMP JUMPDEST JUMPDEST PUSH2 0x3FA6 DUP3 SLOAD PUSH2 0x3D9D JUMP JUMPDEST PUSH2 0x3FB1 DUP3 DUP3 DUP6 PUSH2 0x3EED JUMP JUMPDEST PUSH1 0x0 PUSH1 0x20 SWAP1 POP PUSH1 0x1F DUP4 GT PUSH1 0x1 DUP2 EQ PUSH2 0x3FE4 JUMPI PUSH1 0x0 DUP5 ISZERO PUSH2 0x3FD2 JUMPI DUP3 DUP8 ADD MLOAD SWAP1 POP JUMPDEST PUSH2 0x3FDC DUP6 DUP3 PUSH2 0x3F5E JUMP JUMPDEST DUP7 SSTORE POP PUSH2 0x4044 JUMP JUMPDEST PUSH1 0x1F NOT DUP5 AND PUSH2 0x3FF2 DUP7 PUSH2 0x3DCE JUMP JUMPDEST PUSH1 0x0 JUMPDEST DUP3 DUP2 LT ISZERO PUSH2 0x401A JUMPI DUP5 DUP10 ADD MLOAD DUP3 SSTORE PUSH1 0x1 DUP3 ADD SWAP2 POP PUSH1 0x20 DUP6 ADD SWAP5 POP PUSH1 0x20 DUP2 ADD SWAP1 POP PUSH2 0x3FF5 JUMP JUMPDEST DUP7 DUP4 LT ISZERO PUSH2 0x4037 JUMPI DUP5 DUP10 ADD MLOAD PUSH2 0x4033 PUSH1 0x1F DUP10 AND DUP3 PUSH2 0x3F40 JUMP JUMPDEST DUP4 SSTORE POP JUMPDEST PUSH1 0x1 PUSH1 0x2 DUP9 MUL ADD DUP9 SSTORE POP POP POP JUMPDEST POP POP POP POP POP POP JUMP JUMPDEST PUSH1 0x0 DUP2 SLOAD SWAP1 POP PUSH2 0x405B DUP2 PUSH2 0x3D9D JUMP JUMPDEST SWAP1 POP SWAP2 SWAP1 POP JUMP JUMPDEST DUP2 DUP2 SUB PUSH2 0x4070 JUMPI POP POP PUSH2 0x4148 JUMP JUMPDEST PUSH2 0x4079 DUP3 PUSH2 0x404C JUMP JUMPDEST PUSH8 0xFFFFFFFFFFFFFFFF DUP2 GT ISZERO PUSH2 0x4092 JUMPI PUSH2 0x4091 PUSH2 0x37A4 JUMP JUMPDEST JUMPDEST PUSH2 0x409C DUP3 SLOAD PUSH2 0x3D9D JUMP JUMPDEST PUSH2 0x40A7 DUP3 DUP3 DUP6 PUSH2 0x3EED JUMP JUMPDEST PUSH1 0x0 PUSH1 0x1F DUP4 GT PUSH1 0x1 DUP2 EQ PUSH2 0x40D6 JUMPI PUSH1 0x0 DUP5 ISZERO PUSH2 0x40C4 JUMPI DUP3 DUP8 ADD SLOAD SWAP1 POP JUMPDEST PUSH2 0x40CE DUP6 DUP3 PUSH2 0x3F5E JUMP JUMPDEST DUP7 SSTORE POP PUSH2 0x4141 JUMP JUMPDEST PUSH1 0x1F NOT DUP5 AND PUSH2 0x40E4 DUP8 PUSH2 0x3DCE JUMP JUMPDEST SWAP7 POP PUSH2 0x40EF DUP7 PUSH2 0x3DCE JUMP JUMPDEST PUSH1 0x0 JUMPDEST DUP3 DUP2 LT ISZERO PUSH2 0x4117 JUMPI DUP5 DUP10 ADD SLOAD DUP3 SSTORE PUSH1 0x1 DUP3 ADD SWAP2 POP PUSH1 0x1 DUP6 ADD SWAP5 POP PUSH1 0x20 DUP2 ADD SWAP1 POP PUSH2 0x40F2 JUMP JUMPDEST DUP7 DUP4 LT ISZERO PUSH2 0x4134 JUMPI DUP5 DUP10 ADD SLOAD PUSH2 0x4130 PUSH1 0x1F DUP10 AND DUP3 PUSH2 0x3F40 JUMP JUMPDEST DUP4 SSTORE POP JUMPDEST PUSH1 0x1 PUSH1 0x2 DUP9 MUL ADD DUP9 SSTORE POP POP POP JUMPDEST POP POP POP POP POP POP JUMPDEST JUMP JUMPDEST PUSH1 0x0 DUP2 SWAP1 POP SWAP3 SWAP2 POP POP JUMP JUMPDEST PUSH32 0x4445414E00000000000000000000000000000000000000000000000000000000 PUSH1 0x0 DUP3 ADD MSTORE POP JUMP JUMPDEST PUSH1 0x0 PUSH2 0x418B PUSH1 0x4 DUP4 PUSH2 0x414A JUMP JUMPDEST SWAP2 POP PUSH2 0x4196 DUP3 PUSH2 0x4155 JUMP JUMPDEST PUSH1 0x4 DUP3 ADD SWAP1 POP SWAP2 SWAP1 POP JUMP JUMPDEST PUSH1 0x0 PUSH2 0x41AC DUP3 PUSH2 0x417E JUMP JUMPDEST SWAP2 POP DUP2 SWAP1 POP SWAP2 SWAP1 POP JUMP JUMPDEST PUSH1 0x0 PUSH2 0x41C1 DUP3 PUSH2 0x352F JUMP JUMPDEST PUSH2 0x41CB DUP2 DUP6 PUSH2 0x414A JUMP JUMPDEST SWAP4 POP PUSH2 0x41DB DUP2 DUP6 PUSH1 0x20 DUP7 ADD PUSH2 0x354B JUMP JUMPDEST DUP1 DUP5 ADD SWAP2 POP POP SWAP3 SWAP2 POP POP JUMP JUMPDEST PUSH1 0x0 PUSH2 0x41F3 DUP3 DUP5 PUSH2 0x41B6 JUMP JUMPDEST SWAP2 POP DUP2 SWAP1 POP SWAP3 SWAP2 POP POP JUMP JUMPDEST PUSH32 0x484F440000000000000000000000000000000000000000000000000000000000 PUSH1 0x0 DUP3 ADD MSTORE POP JUMP JUMPDEST PUSH1 0x0 PUSH2 0x4234 PUSH1 0x3 DUP4 PUSH2 0x414A JUMP JUMPDEST SWAP2 POP PUSH2 0x423F DUP3 PUSH2 0x41FE JUMP JUMPDEST PUSH1 0x3 DUP3 ADD SWAP1 POP SWAP2 SWAP1 POP JUMP JUMPDEST PUSH1 0x0 PUSH2 0x4255 DUP3 PUSH2 0x4227 JUMP JUMPDEST SWAP2 POP DUP2 SWAP1 POP SWAP2 SWAP1 POP JUMP JUMPDEST PUSH32 0x5354414646000000000000000000000000000000000000000000000000000000 PUSH1 0x0 DUP3 ADD MSTORE POP JUMP JUMPDEST PUSH1 0x0 PUSH2 0x4295 PUSH1 0x5 DUP4 PUSH2 0x414A JUMP JUMPDEST SWAP2 POP PUSH2 0x42A0 DUP3 PUSH2 0x425F JUMP JUMPDEST PUSH1 0x5 DUP3 ADD SWAP1 POP SWAP2 SWAP1 POP JUMP JUMPDEST PUSH1 0x0 PUSH2 0x42B6 DUP3 PUSH2 0x4288 JUMP JUMPDEST SWAP2 POP DUP2 SWAP1 POP SWAP2 SWAP1 POP JUMP JUMPDEST PUSH32 0x53545544454E5400000000000000000000000000000000000000000000000000 PUSH1 0x0 DUP3 ADD MSTORE POP JUMP JUMPDEST PUSH1 0x0 PUSH2 0x42F6 PUSH1 0x7 DUP4 PUSH2 0x414A JUMP JUMPDEST SWAP2 POP PUSH2 0x4301 DUP3 PUSH2 0x42C0 JUMP JUMPDEST PUSH1 0x7 DUP3 ADD SWAP1 POP SWAP2 SWAP1 POP JUMP JUMPDEST PUSH1 0x0 PUSH2 0x4317 DUP3 PUSH2 0x42E9 JUMP JUMPDEST SWAP2 POP DUP2 SWAP1 POP SWAP2 SWAP1 POP JUMP JUMPDEST PUSH1 0x0 DUP3 DUP3 MSTORE PUSH1 0x20 DUP3 ADD SWAP1 POP SWAP3 SWAP2 POP POP JUMP JUMPDEST PUSH32 0x4D656D6265722052657175657374656400000000000000000000000000000000 PUSH1 0x0 DUP3 ADD MSTORE POP JUMP JUMPDEST PUSH1 0x0 PUSH2 0x4368 PUSH1 0x10 DUP4 PUSH2 0x4321 JUMP JUMPDEST SWAP2 POP PUSH2 0x4373 DUP3 PUSH2 0x4332 JUMP JUMPDEST PUSH1 0x20 DUP3 ADD SWAP1 POP SWAP2 SWAP1 POP JUMP JUMPDEST PUSH1 0x0 PUSH1 0x20 DUP3 ADD SWAP1 POP DUP2 DUP2 SUB PUSH1 0x0 DUP4 ADD MSTORE PUSH2 0x4397 DUP2 PUSH2 0x435B JUMP JUMPDEST SWAP1 POP SWAP2 SWAP1 POP JUMP JUMPDEST PUSH32 0x4D656D6265722045786973740000000000000000000000000000000000000000 PUSH1 0x0 DUP3 ADD MSTORE POP JUMP JUMPDEST PUSH1 0x0 PUSH2 0x43D4 PUSH1 0xC DUP4 PUSH2 0x4321 JUMP JUMPDEST SWAP2 POP PUSH2 0x43DF DUP3 PUSH2 0x439E JUMP JUMPDEST PUSH1 0x20 DUP3 ADD SWAP1 POP SWAP2 SWAP1 POP JUMP JUMPDEST PUSH1 0x0 PUSH1 0x20 DUP3 ADD SWAP1 POP DUP2 DUP2 SUB PUSH1 0x0 DUP4 ADD MSTORE PUSH2 0x4403 DUP2 PUSH2 0x43C7 JUMP JUMPDEST SWAP1 POP SWAP2 SWAP1 POP JUMP JUMPDEST PUSH32 0x596F75206E65656420746F205265717565737420466972737400000000000000 PUSH1 0x0 DUP3 ADD MSTORE POP JUMP JUMPDEST PUSH1 0x0 PUSH2 0x4440 PUSH1 0x19 DUP4 PUSH2 0x4321 JUMP JUMPDEST SWAP2 POP PUSH2 0x444B DUP3 PUSH2 0x440A JUMP JUMPDEST PUSH1 0x20 DUP3 ADD SWAP1 POP SWAP2 SWAP1 POP JUMP JUMPDEST PUSH1 0x0 PUSH1 0x20 DUP3 ADD SWAP1 POP DUP2 DUP2 SUB PUSH1 0x0 DUP4 ADD MSTORE PUSH2 0x446F DUP2 PUSH2 0x4433 JUMP JUMPDEST SWAP1 POP SWAP2 SWAP1 POP JUMP JUMPDEST PUSH32 0x596F752063616E277420617070726F6F766520706F7374206F6620736F6D656F PUSH1 0x0 DUP3 ADD MSTORE PUSH32 0x6E652061626F7665207468616E20796F752E0000000000000000000000000000 PUSH1 0x20 DUP3 ADD MSTORE POP JUMP JUMPDEST PUSH1 0x0 PUSH2 0x44D2 PUSH1 0x32 DUP4 PUSH2 0x4321 JUMP JUMPDEST SWAP2 POP PUSH2 0x44DD DUP3 PUSH2 0x4476 JUMP JUMPDEST PUSH1 0x40 DUP3 ADD SWAP1 POP SWAP2 SWAP1 POP JUMP JUMPDEST PUSH1 0x0 PUSH1 0x20 DUP3 ADD SWAP1 POP DUP2 DUP2 SUB PUSH1 0x0 DUP4 ADD MSTORE PUSH2 0x4501 DUP2 PUSH2 0x44C5 JUMP JUMPDEST SWAP1 POP SWAP2 SWAP1 POP JUMP JUMPDEST PUSH32 0x596F752063616E277420617070726F6F766520736F6D656F6E652061626F7665 PUSH1 0x0 DUP3 ADD MSTORE PUSH32 0x207468616E20796F752E00000000000000000000000000000000000000000000 PUSH1 0x20 DUP3 ADD MSTORE POP JUMP JUMPDEST PUSH1 0x0 PUSH2 0x4564 PUSH1 0x2A DUP4 PUSH2 0x4321 JUMP JUMPDEST SWAP2 POP PUSH2 0x456F DUP3 PUSH2 0x4508 JUMP JUMPDEST PUSH1 0x40 DUP3 ADD SWAP1 POP SWAP2 SWAP1 POP JUMP JUMPDEST PUSH1 0x0 PUSH1 0x20 DUP3 ADD SWAP1 POP DUP2 DUP2 SUB PUSH1 0x0 DUP4 ADD MSTORE PUSH2 0x4593 DUP2 PUSH2 0x4557 JUMP JUMPDEST SWAP1 POP SWAP2 SWAP1 POP JUMP JUMPDEST PUSH32 0x4E487B7100000000000000000000000000000000000000000000000000000000 PUSH1 0x0 MSTORE PUSH1 0x11 PUSH1 0x4 MSTORE PUSH1 0x24 PUSH1 0x0 REVERT JUMPDEST PUSH1 0x0 PUSH2 0x45D4 DUP3 PUSH2 0x3A8D JUMP JUMPDEST SWAP2 POP PUSH2 0x45DF DUP4 PUSH2 0x3A8D JUMP JUMPDEST SWAP3 POP DUP3 DUP3 SUB SWAP1 POP DUP2 DUP2 GT ISZERO PUSH2 0x45F7 JUMPI PUSH2 0x45F6 PUSH2 0x459A JUMP JUMPDEST JUMPDEST SWAP3 SWAP2 POP POP JUMP JUMPDEST PUSH32 0x4E487B7100000000000000000000000000000000000000000000000000000000 PUSH1 0x0 MSTORE PUSH1 0x32 PUSH1 0x4 MSTORE PUSH1 0x24 PUSH1 0x0 REVERT JUMPDEST PUSH32 0x4E487B7100000000000000000000000000000000000000000000000000000000 PUSH1 0x0 MSTORE PUSH1 0x31 PUSH1 0x4 MSTORE PUSH1 0x24 PUSH1 0x0 REVERT INVALID LOG2 PUSH5 0x6970667358 0x22 SLT KECCAK256 0x2D JUMPDEST 0xF8 0xE7 0xE4 JUMP JUMP EXTCODESIZE SWAP1 PUSH23 0x99E359059DB9EA147B13C4D6C9D53781CA623A2665464 PUSH20 0x6F6C634300081000330000000000000000000000 "},"gasEstimates":{"creation":{"codeDepositCost":"3613000","executionCost":"14076","totalCost":"3627076"},"external":{"addOrRequestMember(string,string,string,address,bool)":"infinite","approoveRequest(address,address)":"infinite","approvePost(address,address)":"infinite","findMember(address,bool)":"infinite","getAllPosts(bool)":"infinite","getApprovedOrRequestedMember(bool)":"infinite","getPostsByUser(address)":"infinite","login(address)":"2974","postNews(string,address,bool)":"infinite","recieve()":"142"},"internal":{"removeRequest(address)":"infinite"}},"methodIdentifiers":{"addOrRequestMember(string,string,string,address,bool)":"4cd6f25e","approoveRequest(address,address)":"e070dd12","approvePost(address,address)":"529d3797","findMember(address,bool)":"bafa08c1","getAllPosts(bool)":"1e0f71fe","getApprovedOrRequestedMember(bool)":"e473f6cd","getPostsByUser(address)":"28538949","login(address)":"35a6861a","postNews(string,address,bool)":"39fec887","recieve()":"a9e10bf2"}},"storageLayout":{"storage":[{"astId":15,"contract":"Contract.sol:Contract","label":"instanceOfPost","offset":0,"slot":"0","type":"t_struct(PostStructure)12_storage"},{"astId":19,"contract":"Contract.sol:Contract","label":"allThePosts","offset":0,"slot":"2","type":"t_array(t_struct(PostStructure)12_storage)dyn_storage"},{"astId":24,"contract":"Contract.sol:Contract","label":"postOfUser","offset":0,"slot":"3","type":"t_mapping(t_address,t_struct(PostStructure)12_storage)"},{"astId":28,"contract":"Contract.sol:Contract","label":"allTheRequestedPosts","offset":0,"slot":"4","type":"t_array(t_struct(PostStructure)12_storage)dyn_storage"},{"astId":33,"contract":"Contract.sol:Contract","label":"postOfRequestingUser","offset":0,"slot":"5","type":"t_mapping(t_address,t_struct(PostStructure)12_storage)"},{"astId":190,"contract":"Contract.sol:Contract","label":"requestIndex","offset":0,"slot":"6","type":"t_uint256"},{"astId":193,"contract":"Contract.sol:Contract","label":"memberIndex","offset":0,"slot":"7","type":"t_uint256"},{"astId":197,"contract":"Contract.sol:Contract","label":"indexFromRequest","offset":0,"slot":"8","type":"t_mapping(t_address,t_uint256)"},{"astId":201,"contract":"Contract.sol:Contract","label":"indexFromApproove","offset":0,"slot":"9","type":"t_mapping(t_address,t_uint256)"},{"astId":206,"contract":"Contract.sol:Contract","label":"getMemberWithAddress","offset":0,"slot":"10","type":"t_mapping(t_address,t_struct(MemberStruct)187_storage)"},{"astId":210,"contract":"Contract.sol:Contract","label":"arrayOfMembers","offset":0,"slot":"11","type":"t_array(t_struct(MemberStruct)187_storage)dyn_storage"},{"astId":214,"contract":"Contract.sol:Contract","label":"memberExist","offset":0,"slot":"12","type":"t_mapping(t_address,t_bool)"},{"astId":219,"contract":"Contract.sol:Contract","label":"getRequestedMemberWithAddress","offset":0,"slot":"13","type":"t_mapping(t_address,t_struct(MemberStruct)187_storage)"},{"astId":223,"contract":"Contract.sol:Contract","label":"arrayOfRequestedMembers","offset":0,"slot":"14","type":"t_array(t_struct(MemberStruct)187_storage)dyn_storage"},{"astId":227,"contract":"Contract.sol:Contract","label":"memberRequested","offset":0,"slot":"15","type":"t_mapping(t_address,t_bool)"},{"astId":250,"contract":"Contract.sol:Contract","label":"instanceOfMemberStruct","offset":0,"slot":"16","type":"t_struct(MemberStruct)187_storage"}],"types":{"t_address":{"encoding":"inplace","label":"address","numberOfBytes":"20"},"t_array(t_struct(MemberStruct)187_storage)dyn_storage":{"base":"t_struct(MemberStruct)187_storage","encoding":"dynamic_array","label":"struct Contract.MemberStruct[]","numberOfBytes":"32"},"t_array(t_struct(PostStructure)12_storage)dyn_storage":{"base":"t_struct(PostStructure)12_storage","encoding":"dynamic_array","label":"struct Contract.PostStructure[]","numberOfBytes":"32"},"t_bool":{"encoding":"inplace","label":"bool","numberOfBytes":"1"},"t_mapping(t_address,t_bool)":{"encoding":"mapping","key":"t_address","label":"mapping(address => bool)","numberOfBytes":"32","value":"t_bool"},"t_mapping(t_address,t_struct(MemberStruct)187_storage)":{"encoding":"mapping","key":"t_address","label":"mapping(address => struct Contract.MemberStruct)","numberOfBytes":"32","value":"t_struct(MemberStruct)187_storage"},"t_mapping(t_address,t_struct(PostStructure)12_storage)":{"encoding":"mapping","key":"t_address","label":"mapping(address => struct Contract.PostStructure)","numberOfBytes":"32","value":"t_struct(PostStructure)12_storage"},"t_mapping(t_address,t_uint256)":{"encoding":"mapping","key":"t_address","label":"mapping(address => uint256)","numberOfBytes":"32","value":"t_uint256"},"t_string_storage":{"encoding":"bytes","label":"string","numberOfBytes":"32"},"t_struct(MemberStruct)187_storage":{"encoding":"inplace","label":"struct Contract.MemberStruct","members":[{"astId":174,"contract":"Contract.sol:Contract","label":"post","offset":0,"slot":"0","type":"t_string_storage"},{"astId":176,"contract":"Contract.sol:Contract","label":"dept","offset":0,"slot":"1","type":"t_string_storage"},{"astId":178,"contract":"Contract.sol:Contract","label":"name","offset":0,"slot":"2","type":"t_string_storage"},{"astId":180,"contract":"Contract.sol:Contract","label":"userAddress","offset":0,"slot":"3","type":"t_address"},{"astId":182,"contract":"Contract.sol:Contract","label":"power","offset":0,"slot":"4","type":"t_uint256"},{"astId":186,"contract":"Contract.sol:Contract","label":"allPostsByUser","offset":0,"slot":"5","type":"t_array(t_struct(PostStructure)12_storage)dyn_storage"}],"numberOfBytes":"192"},"t_struct(PostStructure)12_storage":{"encoding":"inplace","label":"struct Contract.PostStructure","members":[{"astId":7,"contract":"Contract.sol:Contract","label":"postHash","offset":0,"slot":"0","type":"t_string_storage"},{"astId":9,"contract":"Contract.sol:Contract","label":"postCreator","offset":0,"slot":"1","type":"t_address"},{"astId":11,"contract":"Contract.sol:Contract","label":"isRequest","offset":20,"slot":"1","type":"t_bool"}],"numberOfBytes":"64"},"t_uint256":{"encoding":"inplace","label":"uint256","numberOfBytes":"32"}}},"userdoc":{"kind":"user","methods":{},"version":1}}