{"abi":[{"inputs":[{"internalType":"string","name":"_post","type":"string"},{"internalType":"string","name":"_dept","type":"string"},{"internalType":"string","name":"_name","type":"string"},{"internalType":"address","name":"_userAddress","type":"address"},{"internalType":"bool","name":"request","type":"bool"}],"name":"addOrRequestMember","outputs":[],"stateMutability":"nonpayable","type":"function"},{"inputs":[{"internalType":"address","name":"_userAddress","type":"address"},{"internalType":"address","name":"approvingUserAddress","type":"address"}],"name":"approoveRequest","outputs":[],"stateMutability":"nonpayable","type":"function"},{"inputs":[{"internalType":"address","name":"_userAddress","type":"address"},{"internalType":"bool","name":"requestedMember","type":"bool"}],"name":"findMember","outputs":[{"components":[{"internalType":"string","name":"post","type":"string"},{"internalType":"string","name":"dept","type":"string"},{"internalType":"string","name":"name","type":"string"},{"internalType":"address","name":"userAddress","type":"address"},{"internalType":"uint256","name":"power","type":"uint256"},{"internalType":"string[]","name":"postedNews","type":"string[]"}],"internalType":"struct Contract.MemberStruct","name":"","type":"tuple"}],"stateMutability":"view","type":"function"},{"inputs":[{"internalType":"bool","name":"request","type":"bool"}],"name":"getApprovedOrRequestedMember","outputs":[{"components":[{"internalType":"string","name":"post","type":"string"},{"internalType":"string","name":"dept","type":"string"},{"internalType":"string","name":"name","type":"string"},{"internalType":"address","name":"userAddress","type":"address"},{"internalType":"uint256","name":"power","type":"uint256"},{"internalType":"string[]","name":"postedNews","type":"string[]"}],"internalType":"struct Contract.MemberStruct[]","name":"","type":"tuple[]"}],"stateMutability":"view","type":"function"},{"inputs":[{"internalType":"address","name":"userAddress","type":"address"}],"name":"login","outputs":[{"internalType":"bool","name":"","type":"bool"}],"stateMutability":"view","type":"function"},{"inputs":[],"name":"recieve","outputs":[],"stateMutability":"payable","type":"function"}],"devdoc":{"kind":"dev","methods":{},"version":1},"evm":{"assembly":"    /* \"Contract.sol\":64:5348  contract Contract {... */\n  mstore(0x40, 0x80)\n    /* \"Contract.sol\":372:373  0 */\n  0x00\n    /* \"Contract.sol\":349:373  uint256 requestIndex = 0 */\n  dup1\n  sstore\n    /* \"Contract.sol\":402:403  0 */\n  0x00\n    /* \"Contract.sol\":380:403  uint256 memberIndex = 0 */\n  0x01\n  sstore\n    /* \"Contract.sol\":64:5348  contract Contract {... */\n  callvalue\n  dup1\n  iszero\n  tag_1\n  jumpi\n  0x00\n  dup1\n  revert\ntag_1:\n  pop\n  dataSize(sub_0)\n  dup1\n  dataOffset(sub_0)\n  0x00\n  codecopy\n  0x00\n  return\nstop\n\nsub_0: assembly {\n        /* \"Contract.sol\":64:5348  contract Contract {... */\n      mstore(0x40, 0x80)\n      jumpi(tag_1, lt(calldatasize, 0x04))\n      shr(0xe0, calldataload(0x00))\n      dup1\n      0x35a6861a\n      eq\n      tag_2\n      jumpi\n      dup1\n      0x4cd6f25e\n      eq\n      tag_3\n      jumpi\n      dup1\n      0xa9e10bf2\n      eq\n      tag_4\n      jumpi\n      dup1\n      0xbafa08c1\n      eq\n      tag_5\n      jumpi\n      dup1\n      0xe070dd12\n      eq\n      tag_6\n      jumpi\n      dup1\n      0xe473f6cd\n      eq\n      tag_7\n      jumpi\n    tag_1:\n      0x00\n      dup1\n      revert\n        /* \"Contract.sol\":4847:5051  function login(address userAddress) public view returns (bool) {... */\n    tag_2:\n      callvalue\n      dup1\n      iszero\n      tag_8\n      jumpi\n      0x00\n      dup1\n      revert\n    tag_8:\n      pop\n      tag_9\n      0x04\n      dup1\n      calldatasize\n      sub\n      dup2\n      add\n      swap1\n      tag_10\n      swap2\n      swap1\n      tag_11\n      jump\t// in\n    tag_10:\n      tag_12\n      jump\t// in\n    tag_9:\n      mload(0x40)\n      tag_13\n      swap2\n      swap1\n      tag_14\n      jump\t// in\n    tag_13:\n      mload(0x40)\n      dup1\n      swap2\n      sub\n      swap1\n      return\n        /* \"Contract.sol\":1259:3486  function addOrRequestMember(... */\n    tag_3:\n      callvalue\n      dup1\n      iszero\n      tag_15\n      jumpi\n      0x00\n      dup1\n      revert\n    tag_15:\n      pop\n      tag_16\n      0x04\n      dup1\n      calldatasize\n      sub\n      dup2\n      add\n      swap1\n      tag_17\n      swap2\n      swap1\n      tag_18\n      jump\t// in\n    tag_17:\n      tag_19\n      jump\t// in\n    tag_16:\n      stop\n        /* \"Contract.sol\":89:127  function recieve() external payable {} */\n    tag_4:\n      tag_20\n      tag_21\n      jump\t// in\n    tag_20:\n      stop\n        /* \"Contract.sol\":3494:3830  function findMember(address _userAddress, bool requestedMember)... */\n    tag_5:\n      callvalue\n      dup1\n      iszero\n      tag_22\n      jumpi\n      0x00\n      dup1\n      revert\n    tag_22:\n      pop\n      tag_23\n      0x04\n      dup1\n      calldatasize\n      sub\n      dup2\n      add\n      swap1\n      tag_24\n      swap2\n      swap1\n      tag_25\n      jump\t// in\n    tag_24:\n      tag_26\n      jump\t// in\n    tag_23:\n      mload(0x40)\n      tag_27\n      swap2\n      swap1\n      tag_28\n      jump\t// in\n    tag_27:\n      mload(0x40)\n      dup1\n      swap2\n      sub\n      swap1\n      return\n        /* \"Contract.sol\":3838:4839  function approoveRequest(address _userAddress, address approvingUserAddress)... */\n    tag_6:\n      callvalue\n      dup1\n      iszero\n      tag_29\n      jumpi\n      0x00\n      dup1\n      revert\n    tag_29:\n      pop\n      tag_30\n      0x04\n      dup1\n      calldatasize\n      sub\n      dup2\n      add\n      swap1\n      tag_31\n      swap2\n      swap1\n      tag_32\n      jump\t// in\n    tag_31:\n      tag_33\n      jump\t// in\n    tag_30:\n      stop\n        /* \"Contract.sol\":880:1158  function getApprovedOrRequestedMember(bool request)... */\n    tag_7:\n      callvalue\n      dup1\n      iszero\n      tag_34\n      jumpi\n      0x00\n      dup1\n      revert\n    tag_34:\n      pop\n      tag_35\n      0x04\n      dup1\n      calldatasize\n      sub\n      dup2\n      add\n      swap1\n      tag_36\n      swap2\n      swap1\n      tag_37\n      jump\t// in\n    tag_36:\n      tag_38\n      jump\t// in\n    tag_35:\n      mload(0x40)\n      tag_39\n      swap2\n      swap1\n      tag_40\n      jump\t// in\n    tag_39:\n      mload(0x40)\n      dup1\n      swap2\n      sub\n      swap1\n      return\n        /* \"Contract.sol\":4847:5051  function login(address userAddress) public view returns (bool) {... */\n    tag_12:\n        /* \"Contract.sol\":4904:4908  bool */\n      0x00\n        /* \"Contract.sol\":4954:4958  true */\n      0x01\n        /* \"Contract.sol\":4926:4958  memberExist[userAddress] == true */\n      iszero\n      iszero\n        /* \"Contract.sol\":4926:4937  memberExist */\n      0x06\n        /* \"Contract.sol\":4926:4950  memberExist[userAddress] */\n      0x00\n        /* \"Contract.sol\":4938:4949  userAddress */\n      dup5\n        /* \"Contract.sol\":4926:4950  memberExist[userAddress] */\n      0xffffffffffffffffffffffffffffffffffffffff\n      and\n      0xffffffffffffffffffffffffffffffffffffffff\n      and\n      dup2\n      mstore\n      0x20\n      add\n      swap1\n      dup2\n      mstore\n      0x20\n      add\n      0x00\n      keccak256\n      0x00\n      swap1\n      sload\n      swap1\n      0x0100\n      exp\n      swap1\n      div\n      0xff\n      and\n        /* \"Contract.sol\":4926:4958  memberExist[userAddress] == true */\n      iszero\n      iszero\n      sub\n        /* \"Contract.sol\":4921:5044  if ((memberExist[userAddress] == true)) {... */\n      tag_42\n      jumpi\n        /* \"Contract.sol\":4983:4987  true */\n      0x01\n        /* \"Contract.sol\":4976:4987  return true */\n      swap1\n      pop\n      jump(tag_41)\n        /* \"Contract.sol\":4921:5044  if ((memberExist[userAddress] == true)) {... */\n    tag_42:\n        /* \"Contract.sol\":5027:5032  false */\n      0x00\n        /* \"Contract.sol\":5020:5032  return false */\n      swap1\n      pop\n        /* \"Contract.sol\":4847:5051  function login(address userAddress) public view returns (bool) {... */\n    tag_41:\n      swap2\n      swap1\n      pop\n      jump\t// out\n        /* \"Contract.sol\":1259:3486  function addOrRequestMember(... */\n    tag_19:\n        /* \"Contract.sol\":1529:1534  _post */\n      dup5\n        /* \"Contract.sol\":1499:1521  instanceOfMemberStruct */\n      0x0a\n        /* \"Contract.sol\":1499:1526  instanceOfMemberStruct.post */\n      0x00\n      add\n        /* \"Contract.sol\":1499:1534  instanceOfMemberStruct.post = _post */\n      swap1\n      dup2\n      tag_45\n      swap2\n      swap1\n      tag_46\n      jump\t// in\n    tag_45:\n      pop\n        /* \"Contract.sol\":1575:1580  _dept */\n      dup4\n        /* \"Contract.sol\":1545:1567  instanceOfMemberStruct */\n      0x0a\n        /* \"Contract.sol\":1545:1572  instanceOfMemberStruct.dept */\n      0x01\n      add\n        /* \"Contract.sol\":1545:1580  instanceOfMemberStruct.dept = _dept */\n      swap1\n      dup2\n      tag_47\n      swap2\n      swap1\n      tag_46\n      jump\t// in\n    tag_47:\n      pop\n        /* \"Contract.sol\":1621:1626  _name */\n      dup3\n        /* \"Contract.sol\":1591:1613  instanceOfMemberStruct */\n      0x0a\n        /* \"Contract.sol\":1591:1618  instanceOfMemberStruct.name */\n      0x02\n      add\n        /* \"Contract.sol\":1591:1626  instanceOfMemberStruct.name = _name */\n      swap1\n      dup2\n      tag_48\n      swap2\n      swap1\n      tag_46\n      jump\t// in\n    tag_48:\n      pop\n        /* \"Contract.sol\":1674:1686  _userAddress */\n      dup2\n        /* \"Contract.sol\":1637:1659  instanceOfMemberStruct */\n      0x0a\n        /* \"Contract.sol\":1637:1671  instanceOfMemberStruct.userAddress */\n      0x03\n      add\n      0x00\n        /* \"Contract.sol\":1637:1686  instanceOfMemberStruct.userAddress = _userAddress */\n      0x0100\n      exp\n      dup2\n      sload\n      dup2\n      0xffffffffffffffffffffffffffffffffffffffff\n      mul\n      not\n      and\n      swap1\n      dup4\n      0xffffffffffffffffffffffffffffffffffffffff\n      and\n      mul\n      or\n      swap1\n      sstore\n      pop\n        /* \"Contract.sol\":1778:1802  abi.encodePacked(\"DEAN\") */\n      add(0x20, mload(0x40))\n      tag_49\n      swap1\n      tag_50\n      jump\t// in\n    tag_49:\n      mload(0x40)\n      0x20\n      dup2\n      dup4\n      sub\n      sub\n      dup2\n      mstore\n      swap1\n      0x40\n      mstore\n        /* \"Contract.sol\":1768:1803  keccak256(abi.encodePacked(\"DEAN\")) */\n      dup1\n      mload\n      swap1\n      0x20\n      add\n      keccak256\n        /* \"Contract.sol\":1744:1749  _post */\n      dup6\n        /* \"Contract.sol\":1727:1750  abi.encodePacked(_post) */\n      add(0x20, mload(0x40))\n      tag_51\n      swap2\n      swap1\n      tag_52\n      jump\t// in\n    tag_51:\n      mload(0x40)\n      0x20\n      dup2\n      dup4\n      sub\n      sub\n      dup2\n      mstore\n      swap1\n      0x40\n      mstore\n        /* \"Contract.sol\":1717:1751  keccak256(abi.encodePacked(_post)) */\n      dup1\n      mload\n      swap1\n      0x20\n      add\n      keccak256\n        /* \"Contract.sol\":1717:1803  keccak256(abi.encodePacked(_post)) ==... */\n      sub\n        /* \"Contract.sol\":1699:2119  if (... */\n      tag_53\n      jumpi\n        /* \"Contract.sol\":1861:1862  1 */\n      0x01\n        /* \"Contract.sol\":1830:1852  instanceOfMemberStruct */\n      0x0a\n        /* \"Contract.sol\":1830:1858  instanceOfMemberStruct.power */\n      0x04\n      add\n        /* \"Contract.sol\":1830:1862  instanceOfMemberStruct.power = 1 */\n      dup2\n      swap1\n      sstore\n      pop\n        /* \"Contract.sol\":1699:2119  if (... */\n      jump(tag_54)\n    tag_53:\n        /* \"Contract.sol\":1959:1982  abi.encodePacked(\"HOD\") */\n      add(0x20, mload(0x40))\n      tag_55\n      swap1\n      tag_56\n      jump\t// in\n    tag_55:\n      mload(0x40)\n      0x20\n      dup2\n      dup4\n      sub\n      sub\n      dup2\n      mstore\n      swap1\n      0x40\n      mstore\n        /* \"Contract.sol\":1949:1983  keccak256(abi.encodePacked(\"HOD\")) */\n      dup1\n      mload\n      swap1\n      0x20\n      add\n      keccak256\n        /* \"Contract.sol\":1925:1930  _post */\n      dup6\n        /* \"Contract.sol\":1908:1931  abi.encodePacked(_post) */\n      add(0x20, mload(0x40))\n      tag_57\n      swap2\n      swap1\n      tag_52\n      jump\t// in\n    tag_57:\n      mload(0x40)\n      0x20\n      dup2\n      dup4\n      sub\n      sub\n      dup2\n      mstore\n      swap1\n      0x40\n      mstore\n        /* \"Contract.sol\":1898:1932  keccak256(abi.encodePacked(_post)) */\n      dup1\n      mload\n      swap1\n      0x20\n      add\n      keccak256\n        /* \"Contract.sol\":1898:1983  keccak256(abi.encodePacked(_post)) ==... */\n      sub\n        /* \"Contract.sol\":1880:2119  if (... */\n      tag_58\n      jumpi\n        /* \"Contract.sol\":2041:2042  2 */\n      0x02\n        /* \"Contract.sol\":2010:2032  instanceOfMemberStruct */\n      0x0a\n        /* \"Contract.sol\":2010:2038  instanceOfMemberStruct.power */\n      0x04\n      add\n        /* \"Contract.sol\":2010:2042  instanceOfMemberStruct.power = 2 */\n      dup2\n      swap1\n      sstore\n      pop\n        /* \"Contract.sol\":1880:2119  if (... */\n      jump(tag_59)\n    tag_58:\n        /* \"Contract.sol\":2106:2107  3 */\n      0x03\n        /* \"Contract.sol\":2075:2097  instanceOfMemberStruct */\n      0x0a\n        /* \"Contract.sol\":2075:2103  instanceOfMemberStruct.power */\n      0x04\n      add\n        /* \"Contract.sol\":2075:2107  instanceOfMemberStruct.power = 3 */\n      dup2\n      swap1\n      sstore\n      pop\n        /* \"Contract.sol\":1880:2119  if (... */\n    tag_59:\n        /* \"Contract.sol\":1699:2119  if (... */\n    tag_54:\n        /* \"Contract.sol\":2160:2164  true */\n      0x01\n        /* \"Contract.sol\":2149:2164  request == true */\n      iszero\n      iszero\n        /* \"Contract.sol\":2149:2156  request */\n      dup2\n        /* \"Contract.sol\":2149:2164  request == true */\n      iszero\n      iszero\n      eq\n        /* \"Contract.sol\":2149:2267  request == true &&... */\n      dup1\n      iszero\n      tag_60\n      jumpi\n      pop\n        /* \"Contract.sol\":2242:2266  abi.encodePacked(\"DEAN\") */\n      add(0x20, mload(0x40))\n      tag_61\n      swap1\n      tag_50\n      jump\t// in\n    tag_61:\n      mload(0x40)\n      0x20\n      dup2\n      dup4\n      sub\n      sub\n      dup2\n      mstore\n      swap1\n      0x40\n      mstore\n        /* \"Contract.sol\":2232:2267  keccak256(abi.encodePacked(\"DEAN\")) */\n      dup1\n      mload\n      swap1\n      0x20\n      add\n      keccak256\n        /* \"Contract.sol\":2208:2213  _post */\n      dup6\n        /* \"Contract.sol\":2191:2214  abi.encodePacked(_post) */\n      add(0x20, mload(0x40))\n      tag_62\n      swap2\n      swap1\n      tag_52\n      jump\t// in\n    tag_62:\n      mload(0x40)\n      0x20\n      dup2\n      dup4\n      sub\n      sub\n      dup2\n      mstore\n      swap1\n      0x40\n      mstore\n        /* \"Contract.sol\":2181:2215  keccak256(abi.encodePacked(_post)) */\n      dup1\n      mload\n      swap1\n      0x20\n      add\n      keccak256\n        /* \"Contract.sol\":2181:2267  keccak256(abi.encodePacked(_post)) !=... */\n      eq\n      iszero\n        /* \"Contract.sol\":2149:2267  request == true &&... */\n    tag_60:\n        /* \"Contract.sol\":2131:3479  if (... */\n      iszero\n      tag_63\n      jumpi\n        /* \"Contract.sol\":2376:2381  false */\n      0x00\n        /* \"Contract.sol\":2343:2381  memberRequested[_userAddress] == false */\n      iszero\n      iszero\n        /* \"Contract.sol\":2343:2358  memberRequested */\n      0x09\n        /* \"Contract.sol\":2343:2372  memberRequested[_userAddress] */\n      0x00\n        /* \"Contract.sol\":2359:2371  _userAddress */\n      dup5\n        /* \"Contract.sol\":2343:2372  memberRequested[_userAddress] */\n      0xffffffffffffffffffffffffffffffffffffffff\n      and\n      0xffffffffffffffffffffffffffffffffffffffff\n      and\n      dup2\n      mstore\n      0x20\n      add\n      swap1\n      dup2\n      mstore\n      0x20\n      add\n      0x00\n      keccak256\n      0x00\n      swap1\n      sload\n      swap1\n      0x0100\n      exp\n      swap1\n      div\n      0xff\n      and\n        /* \"Contract.sol\":2343:2381  memberRequested[_userAddress] == false */\n      iszero\n      iszero\n      eq\n        /* \"Contract.sol\":2335:2402  require(memberRequested[_userAddress] == false, \"Member Requested\") */\n      tag_64\n      jumpi\n      mload(0x40)\n      0x08c379a000000000000000000000000000000000000000000000000000000000\n      dup2\n      mstore\n      0x04\n      add\n      tag_65\n      swap1\n      tag_66\n      jump\t// in\n    tag_65:\n      mload(0x40)\n      dup1\n      swap2\n      sub\n      swap1\n      revert\n    tag_64:\n        /* \"Contract.sol\":2454:2459  false */\n      0x00\n        /* \"Contract.sol\":2425:2459  memberExist[_userAddress] == false */\n      iszero\n      iszero\n        /* \"Contract.sol\":2425:2436  memberExist */\n      0x06\n        /* \"Contract.sol\":2425:2450  memberExist[_userAddress] */\n      0x00\n        /* \"Contract.sol\":2437:2449  _userAddress */\n      dup5\n        /* \"Contract.sol\":2425:2450  memberExist[_userAddress] */\n      0xffffffffffffffffffffffffffffffffffffffff\n      and\n      0xffffffffffffffffffffffffffffffffffffffff\n      and\n      dup2\n      mstore\n      0x20\n      add\n      swap1\n      dup2\n      mstore\n      0x20\n      add\n      0x00\n      keccak256\n      0x00\n      swap1\n      sload\n      swap1\n      0x0100\n      exp\n      swap1\n      div\n      0xff\n      and\n        /* \"Contract.sol\":2425:2459  memberExist[_userAddress] == false */\n      iszero\n      iszero\n      eq\n        /* \"Contract.sol\":2417:2476  require(memberExist[_userAddress] == false, \"Member Exist\") */\n      tag_67\n      jumpi\n      mload(0x40)\n      0x08c379a000000000000000000000000000000000000000000000000000000000\n      dup2\n      mstore\n      0x04\n      add\n      tag_68\n      swap1\n      tag_69\n      jump\t// in\n    tag_68:\n      mload(0x40)\n      dup1\n      swap2\n      sub\n      swap1\n      revert\n    tag_67:\n        /* \"Contract.sol\":2555:2578  arrayOfRequestedMembers */\n      0x08\n        /* \"Contract.sol\":2584:2606  instanceOfMemberStruct */\n      0x0a\n        /* \"Contract.sol\":2555:2607  arrayOfRequestedMembers.push(instanceOfMemberStruct) */\n      swap1\n      dup1\n      0x01\n      dup2\n      sload\n      add\n      dup1\n      dup3\n      sstore\n      dup1\n      swap2\n      pop\n      pop\n      0x01\n      swap1\n      sub\n      swap1\n      0x00\n      mstore\n      keccak256(0x00, 0x20)\n      swap1\n      0x06\n      mul\n      add\n      0x00\n      swap1\n      swap2\n      swap1\n      swap2\n      swap1\n      swap2\n      pop\n      0x00\n      dup3\n      add\n      dup2\n      0x00\n      add\n      swap1\n      dup2\n      tag_71\n      swap2\n      swap1\n      tag_72\n      jump\t// in\n    tag_71:\n      pop\n      0x01\n      dup3\n      add\n      dup2\n      0x01\n      add\n      swap1\n      dup2\n      tag_73\n      swap2\n      swap1\n      tag_72\n      jump\t// in\n    tag_73:\n      pop\n      0x02\n      dup3\n      add\n      dup2\n      0x02\n      add\n      swap1\n      dup2\n      tag_74\n      swap2\n      swap1\n      tag_72\n      jump\t// in\n    tag_74:\n      pop\n      0x03\n      dup3\n      add\n      0x00\n      swap1\n      sload\n      swap1\n      0x0100\n      exp\n      swap1\n      div\n      0xffffffffffffffffffffffffffffffffffffffff\n      and\n      dup2\n      0x03\n      add\n      exp(0x0100, 0x00)\n      dup2\n      sload\n      dup2\n      0xffffffffffffffffffffffffffffffffffffffff\n      mul\n      not\n      and\n      swap1\n      dup4\n      0xffffffffffffffffffffffffffffffffffffffff\n      and\n      mul\n      or\n      swap1\n      sstore\n      pop\n      0x04\n      dup3\n      add\n      sload\n      dup2\n      0x04\n      add\n      sstore\n      0x05\n      dup3\n      add\n      dup2\n      0x05\n      add\n      swap1\n      dup1\n      sload\n      tag_75\n      swap3\n      swap2\n      swap1\n      tag_76\n      jump\t// in\n    tag_75:\n      pop\n      pop\n      pop\n        /* \"Contract.sol\":2700:2722  instanceOfMemberStruct */\n      0x0a\n        /* \"Contract.sol\":2622:2651  getRequestedMemberWithAddress */\n      0x07\n        /* \"Contract.sol\":2622:2697  getRequestedMemberWithAddress[... */\n      0x00\n        /* \"Contract.sol\":2670:2682  _userAddress */\n      dup5\n        /* \"Contract.sol\":2622:2697  getRequestedMemberWithAddress[... */\n      0xffffffffffffffffffffffffffffffffffffffff\n      and\n      0xffffffffffffffffffffffffffffffffffffffff\n      and\n      dup2\n      mstore\n      0x20\n      add\n      swap1\n      dup2\n      mstore\n      0x20\n      add\n      0x00\n      keccak256\n        /* \"Contract.sol\":2622:2722  getRequestedMemberWithAddress[... */\n      0x00\n      dup3\n      add\n      dup2\n      0x00\n      add\n      swap1\n      dup2\n      tag_77\n      swap2\n      swap1\n      tag_72\n      jump\t// in\n    tag_77:\n      pop\n      0x01\n      dup3\n      add\n      dup2\n      0x01\n      add\n      swap1\n      dup2\n      tag_78\n      swap2\n      swap1\n      tag_72\n      jump\t// in\n    tag_78:\n      pop\n      0x02\n      dup3\n      add\n      dup2\n      0x02\n      add\n      swap1\n      dup2\n      tag_79\n      swap2\n      swap1\n      tag_72\n      jump\t// in\n    tag_79:\n      pop\n      0x03\n      dup3\n      add\n      0x00\n      swap1\n      sload\n      swap1\n      0x0100\n      exp\n      swap1\n      div\n      0xffffffffffffffffffffffffffffffffffffffff\n      and\n      dup2\n      0x03\n      add\n      exp(0x0100, 0x00)\n      dup2\n      sload\n      dup2\n      0xffffffffffffffffffffffffffffffffffffffff\n      mul\n      not\n      and\n      swap1\n      dup4\n      0xffffffffffffffffffffffffffffffffffffffff\n      and\n      mul\n      or\n      swap1\n      sstore\n      pop\n      0x04\n      dup3\n      add\n      sload\n      dup2\n      0x04\n      add\n      sstore\n      0x05\n      dup3\n      add\n      dup2\n      0x05\n      add\n      swap1\n      dup1\n      sload\n      tag_80\n      swap3\n      swap2\n      swap1\n      tag_76\n      jump\t// in\n    tag_80:\n      pop\n      swap1\n      pop\n      pop\n        /* \"Contract.sol\":2769:2773  true */\n      0x01\n        /* \"Contract.sol\":2737:2752  memberRequested */\n      0x09\n        /* \"Contract.sol\":2737:2766  memberRequested[_userAddress] */\n      0x00\n        /* \"Contract.sol\":2753:2765  _userAddress */\n      dup5\n        /* \"Contract.sol\":2737:2766  memberRequested[_userAddress] */\n      0xffffffffffffffffffffffffffffffffffffffff\n      and\n      0xffffffffffffffffffffffffffffffffffffffff\n      and\n      dup2\n      mstore\n      0x20\n      add\n      swap1\n      dup2\n      mstore\n      0x20\n      add\n      0x00\n      keccak256\n      0x00\n        /* \"Contract.sol\":2737:2773  memberRequested[_userAddress] = true */\n      0x0100\n      exp\n      dup2\n      sload\n      dup2\n      0xff\n      mul\n      not\n      and\n      swap1\n      dup4\n      iszero\n      iszero\n      mul\n      or\n      swap1\n      sstore\n      pop\n        /* \"Contract.sol\":2131:3479  if (... */\n      jump(tag_81)\n    tag_63:\n        /* \"Contract.sol\":2893:2917  abi.encodePacked(\"DEAN\") */\n      add(0x20, mload(0x40))\n      tag_82\n      swap1\n      tag_50\n      jump\t// in\n    tag_82:\n      mload(0x40)\n      0x20\n      dup2\n      dup4\n      sub\n      sub\n      dup2\n      mstore\n      swap1\n      0x40\n      mstore\n        /* \"Contract.sol\":2883:2918  keccak256(abi.encodePacked(\"DEAN\")) */\n      dup1\n      mload\n      swap1\n      0x20\n      add\n      keccak256\n        /* \"Contract.sol\":2855:2860  _post */\n      dup6\n        /* \"Contract.sol\":2838:2861  abi.encodePacked(_post) */\n      add(0x20, mload(0x40))\n      tag_83\n      swap2\n      swap1\n      tag_52\n      jump\t// in\n    tag_83:\n      mload(0x40)\n      0x20\n      dup2\n      dup4\n      sub\n      sub\n      dup2\n      mstore\n      swap1\n      0x40\n      mstore\n        /* \"Contract.sol\":2828:2862  keccak256(abi.encodePacked(_post)) */\n      dup1\n      mload\n      swap1\n      0x20\n      add\n      keccak256\n        /* \"Contract.sol\":2828:2918  keccak256(abi.encodePacked(_post)) !=... */\n      eq\n        /* \"Contract.sol\":2806:3150  if (... */\n      tag_84\n      jumpi\n        /* \"Contract.sol\":3061:3065  true */\n      0x01\n        /* \"Contract.sol\":3028:3065  memberRequested[_userAddress] == true */\n      iszero\n      iszero\n        /* \"Contract.sol\":3028:3043  memberRequested */\n      0x09\n        /* \"Contract.sol\":3028:3057  memberRequested[_userAddress] */\n      0x00\n        /* \"Contract.sol\":3044:3056  _userAddress */\n      dup5\n        /* \"Contract.sol\":3028:3057  memberRequested[_userAddress] */\n      0xffffffffffffffffffffffffffffffffffffffff\n      and\n      0xffffffffffffffffffffffffffffffffffffffff\n      and\n      dup2\n      mstore\n      0x20\n      add\n      swap1\n      dup2\n      mstore\n      0x20\n      add\n      0x00\n      keccak256\n      0x00\n      swap1\n      sload\n      swap1\n      0x0100\n      exp\n      swap1\n      div\n      0xff\n      and\n        /* \"Contract.sol\":3028:3065  memberRequested[_userAddress] == true */\n      iszero\n      iszero\n      eq\n        /* \"Contract.sol\":2998:3134  require(... */\n      tag_85\n      jumpi\n      mload(0x40)\n      0x08c379a000000000000000000000000000000000000000000000000000000000\n      dup2\n      mstore\n      0x04\n      add\n      tag_86\n      swap1\n      tag_87\n      jump\t// in\n    tag_86:\n      mload(0x40)\n      dup1\n      swap2\n      sub\n      swap1\n      revert\n    tag_85:\n        /* \"Contract.sol\":2806:3150  if (... */\n    tag_84:\n        /* \"Contract.sol\":3203:3208  false */\n      0x00\n        /* \"Contract.sol\":3174:3208  memberExist[_userAddress] == false */\n      iszero\n      iszero\n        /* \"Contract.sol\":3174:3185  memberExist */\n      0x06\n        /* \"Contract.sol\":3174:3199  memberExist[_userAddress] */\n      0x00\n        /* \"Contract.sol\":3186:3198  _userAddress */\n      dup5\n        /* \"Contract.sol\":3174:3199  memberExist[_userAddress] */\n      0xffffffffffffffffffffffffffffffffffffffff\n      and\n      0xffffffffffffffffffffffffffffffffffffffff\n      and\n      dup2\n      mstore\n      0x20\n      add\n      swap1\n      dup2\n      mstore\n      0x20\n      add\n      0x00\n      keccak256\n      0x00\n      swap1\n      sload\n      swap1\n      0x0100\n      exp\n      swap1\n      div\n      0xff\n      and\n        /* \"Contract.sol\":3174:3208  memberExist[_userAddress] == false */\n      iszero\n      iszero\n      eq\n        /* \"Contract.sol\":3166:3225  require(memberExist[_userAddress] == false, \"Member Exist\") */\n      tag_88\n      jumpi\n      mload(0x40)\n      0x08c379a000000000000000000000000000000000000000000000000000000000\n      dup2\n      mstore\n      0x04\n      add\n      tag_89\n      swap1\n      tag_69\n      jump\t// in\n    tag_89:\n      mload(0x40)\n      dup1\n      swap2\n      sub\n      swap1\n      revert\n    tag_88:\n        /* \"Contract.sol\":3303:3317  arrayOfMembers */\n      0x05\n        /* \"Contract.sol\":3323:3345  instanceOfMemberStruct */\n      0x0a\n        /* \"Contract.sol\":3303:3346  arrayOfMembers.push(instanceOfMemberStruct) */\n      swap1\n      dup1\n      0x01\n      dup2\n      sload\n      add\n      dup1\n      dup3\n      sstore\n      dup1\n      swap2\n      pop\n      pop\n      0x01\n      swap1\n      sub\n      swap1\n      0x00\n      mstore\n      keccak256(0x00, 0x20)\n      swap1\n      0x06\n      mul\n      add\n      0x00\n      swap1\n      swap2\n      swap1\n      swap2\n      swap1\n      swap2\n      pop\n      0x00\n      dup3\n      add\n      dup2\n      0x00\n      add\n      swap1\n      dup2\n      tag_91\n      swap2\n      swap1\n      tag_72\n      jump\t// in\n    tag_91:\n      pop\n      0x01\n      dup3\n      add\n      dup2\n      0x01\n      add\n      swap1\n      dup2\n      tag_92\n      swap2\n      swap1\n      tag_72\n      jump\t// in\n    tag_92:\n      pop\n      0x02\n      dup3\n      add\n      dup2\n      0x02\n      add\n      swap1\n      dup2\n      tag_93\n      swap2\n      swap1\n      tag_72\n      jump\t// in\n    tag_93:\n      pop\n      0x03\n      dup3\n      add\n      0x00\n      swap1\n      sload\n      swap1\n      0x0100\n      exp\n      swap1\n      div\n      0xffffffffffffffffffffffffffffffffffffffff\n      and\n      dup2\n      0x03\n      add\n      exp(0x0100, 0x00)\n      dup2\n      sload\n      dup2\n      0xffffffffffffffffffffffffffffffffffffffff\n      mul\n      not\n      and\n      swap1\n      dup4\n      0xffffffffffffffffffffffffffffffffffffffff\n      and\n      mul\n      or\n      swap1\n      sstore\n      pop\n      0x04\n      dup3\n      add\n      sload\n      dup2\n      0x04\n      add\n      sstore\n      0x05\n      dup3\n      add\n      dup2\n      0x05\n      add\n      swap1\n      dup1\n      sload\n      tag_94\n      swap3\n      swap2\n      swap1\n      tag_76\n      jump\t// in\n    tag_94:\n      pop\n      pop\n      pop\n        /* \"Contract.sol\":3398:3420  instanceOfMemberStruct */\n      0x0a\n        /* \"Contract.sol\":3361:3381  getMemberWithAddress */\n      0x04\n        /* \"Contract.sol\":3361:3395  getMemberWithAddress[_userAddress] */\n      0x00\n        /* \"Contract.sol\":3382:3394  _userAddress */\n      dup5\n        /* \"Contract.sol\":3361:3395  getMemberWithAddress[_userAddress] */\n      0xffffffffffffffffffffffffffffffffffffffff\n      and\n      0xffffffffffffffffffffffffffffffffffffffff\n      and\n      dup2\n      mstore\n      0x20\n      add\n      swap1\n      dup2\n      mstore\n      0x20\n      add\n      0x00\n      keccak256\n        /* \"Contract.sol\":3361:3420  getMemberWithAddress[_userAddress] = instanceOfMemberStruct */\n      0x00\n      dup3\n      add\n      dup2\n      0x00\n      add\n      swap1\n      dup2\n      tag_95\n      swap2\n      swap1\n      tag_72\n      jump\t// in\n    tag_95:\n      pop\n      0x01\n      dup3\n      add\n      dup2\n      0x01\n      add\n      swap1\n      dup2\n      tag_96\n      swap2\n      swap1\n      tag_72\n      jump\t// in\n    tag_96:\n      pop\n      0x02\n      dup3\n      add\n      dup2\n      0x02\n      add\n      swap1\n      dup2\n      tag_97\n      swap2\n      swap1\n      tag_72\n      jump\t// in\n    tag_97:\n      pop\n      0x03\n      dup3\n      add\n      0x00\n      swap1\n      sload\n      swap1\n      0x0100\n      exp\n      swap1\n      div\n      0xffffffffffffffffffffffffffffffffffffffff\n      and\n      dup2\n      0x03\n      add\n      exp(0x0100, 0x00)\n      dup2\n      sload\n      dup2\n      0xffffffffffffffffffffffffffffffffffffffff\n      mul\n      not\n      and\n      swap1\n      dup4\n      0xffffffffffffffffffffffffffffffffffffffff\n      and\n      mul\n      or\n      swap1\n      sstore\n      pop\n      0x04\n      dup3\n      add\n      sload\n      dup2\n      0x04\n      add\n      sstore\n      0x05\n      dup3\n      add\n      dup2\n      0x05\n      add\n      swap1\n      dup1\n      sload\n      tag_98\n      swap3\n      swap2\n      swap1\n      tag_76\n      jump\t// in\n    tag_98:\n      pop\n      swap1\n      pop\n      pop\n        /* \"Contract.sol\":3463:3467  true */\n      0x01\n        /* \"Contract.sol\":3435:3446  memberExist */\n      0x06\n        /* \"Contract.sol\":3435:3460  memberExist[_userAddress] */\n      0x00\n        /* \"Contract.sol\":3447:3459  _userAddress */\n      dup5\n        /* \"Contract.sol\":3435:3460  memberExist[_userAddress] */\n      0xffffffffffffffffffffffffffffffffffffffff\n      and\n      0xffffffffffffffffffffffffffffffffffffffff\n      and\n      dup2\n      mstore\n      0x20\n      add\n      swap1\n      dup2\n      mstore\n      0x20\n      add\n      0x00\n      keccak256\n      0x00\n        /* \"Contract.sol\":3435:3467  memberExist[_userAddress] = true */\n      0x0100\n      exp\n      dup2\n      sload\n      dup2\n      0xff\n      mul\n      not\n      and\n      swap1\n      dup4\n      iszero\n      iszero\n      mul\n      or\n      swap1\n      sstore\n      pop\n        /* \"Contract.sol\":2131:3479  if (... */\n    tag_81:\n        /* \"Contract.sol\":1259:3486  function addOrRequestMember(... */\n      pop\n      pop\n      pop\n      pop\n      pop\n      jump\t// out\n        /* \"Contract.sol\":89:127  function recieve() external payable {} */\n    tag_21:\n      jump\t// out\n        /* \"Contract.sol\":3494:3830  function findMember(address _userAddress, bool requestedMember)... */\n    tag_26:\n        /* \"Contract.sol\":3606:3625  MemberStruct memory */\n      tag_100\n      tag_101\n      jump\t// in\n    tag_100:\n        /* \"Contract.sol\":3666:3670  true */\n      0x01\n        /* \"Contract.sol\":3647:3670  requestedMember == true */\n      iszero\n      iszero\n        /* \"Contract.sol\":3647:3662  requestedMember */\n      dup3\n        /* \"Contract.sol\":3647:3670  requestedMember == true */\n      iszero\n      iszero\n      sub\n        /* \"Contract.sol\":3643:3823  if (requestedMember == true) {... */\n      tag_103\n      jumpi\n        /* \"Contract.sol\":3694:3723  getRequestedMemberWithAddress */\n      0x07\n        /* \"Contract.sol\":3694:3737  getRequestedMemberWithAddress[_userAddress] */\n      0x00\n        /* \"Contract.sol\":3724:3736  _userAddress */\n      dup5\n        /* \"Contract.sol\":3694:3737  getRequestedMemberWithAddress[_userAddress] */\n      0xffffffffffffffffffffffffffffffffffffffff\n      and\n      0xffffffffffffffffffffffffffffffffffffffff\n      and\n      dup2\n      mstore\n      0x20\n      add\n      swap1\n      dup2\n      mstore\n      0x20\n      add\n      0x00\n      keccak256\n        /* \"Contract.sol\":3687:3737  return getRequestedMemberWithAddress[_userAddress] */\n      mload(0x40)\n      dup1\n      0xc0\n      add\n      0x40\n      mstore\n      swap1\n      dup2\n      0x00\n      dup3\n      add\n      dup1\n      sload\n      tag_104\n      swap1\n      tag_105\n      jump\t// in\n    tag_104:\n      dup1\n      0x1f\n      add\n      0x20\n      dup1\n      swap2\n      div\n      mul\n      0x20\n      add\n      mload(0x40)\n      swap1\n      dup2\n      add\n      0x40\n      mstore\n      dup1\n      swap3\n      swap2\n      swap1\n      dup2\n      dup2\n      mstore\n      0x20\n      add\n      dup3\n      dup1\n      sload\n      tag_106\n      swap1\n      tag_105\n      jump\t// in\n    tag_106:\n      dup1\n      iszero\n      tag_107\n      jumpi\n      dup1\n      0x1f\n      lt\n      tag_108\n      jumpi\n      0x0100\n      dup1\n      dup4\n      sload\n      div\n      mul\n      dup4\n      mstore\n      swap2\n      0x20\n      add\n      swap2\n      jump(tag_107)\n    tag_108:\n      dup3\n      add\n      swap2\n      swap1\n      0x00\n      mstore\n      keccak256(0x00, 0x20)\n      swap1\n    tag_109:\n      dup2\n      sload\n      dup2\n      mstore\n      swap1\n      0x01\n      add\n      swap1\n      0x20\n      add\n      dup1\n      dup4\n      gt\n      tag_109\n      jumpi\n      dup3\n      swap1\n      sub\n      0x1f\n      and\n      dup3\n      add\n      swap2\n    tag_107:\n      pop\n      pop\n      pop\n      pop\n      pop\n      dup2\n      mstore\n      0x20\n      add\n      0x01\n      dup3\n      add\n      dup1\n      sload\n      tag_110\n      swap1\n      tag_105\n      jump\t// in\n    tag_110:\n      dup1\n      0x1f\n      add\n      0x20\n      dup1\n      swap2\n      div\n      mul\n      0x20\n      add\n      mload(0x40)\n      swap1\n      dup2\n      add\n      0x40\n      mstore\n      dup1\n      swap3\n      swap2\n      swap1\n      dup2\n      dup2\n      mstore\n      0x20\n      add\n      dup3\n      dup1\n      sload\n      tag_111\n      swap1\n      tag_105\n      jump\t// in\n    tag_111:\n      dup1\n      iszero\n      tag_112\n      jumpi\n      dup1\n      0x1f\n      lt\n      tag_113\n      jumpi\n      0x0100\n      dup1\n      dup4\n      sload\n      div\n      mul\n      dup4\n      mstore\n      swap2\n      0x20\n      add\n      swap2\n      jump(tag_112)\n    tag_113:\n      dup3\n      add\n      swap2\n      swap1\n      0x00\n      mstore\n      keccak256(0x00, 0x20)\n      swap1\n    tag_114:\n      dup2\n      sload\n      dup2\n      mstore\n      swap1\n      0x01\n      add\n      swap1\n      0x20\n      add\n      dup1\n      dup4\n      gt\n      tag_114\n      jumpi\n      dup3\n      swap1\n      sub\n      0x1f\n      and\n      dup3\n      add\n      swap2\n    tag_112:\n      pop\n      pop\n      pop\n      pop\n      pop\n      dup2\n      mstore\n      0x20\n      add\n      0x02\n      dup3\n      add\n      dup1\n      sload\n      tag_115\n      swap1\n      tag_105\n      jump\t// in\n    tag_115:\n      dup1\n      0x1f\n      add\n      0x20\n      dup1\n      swap2\n      div\n      mul\n      0x20\n      add\n      mload(0x40)\n      swap1\n      dup2\n      add\n      0x40\n      mstore\n      dup1\n      swap3\n      swap2\n      swap1\n      dup2\n      dup2\n      mstore\n      0x20\n      add\n      dup3\n      dup1\n      sload\n      tag_116\n      swap1\n      tag_105\n      jump\t// in\n    tag_116:\n      dup1\n      iszero\n      tag_117\n      jumpi\n      dup1\n      0x1f\n      lt\n      tag_118\n      jumpi\n      0x0100\n      dup1\n      dup4\n      sload\n      div\n      mul\n      dup4\n      mstore\n      swap2\n      0x20\n      add\n      swap2\n      jump(tag_117)\n    tag_118:\n      dup3\n      add\n      swap2\n      swap1\n      0x00\n      mstore\n      keccak256(0x00, 0x20)\n      swap1\n    tag_119:\n      dup2\n      sload\n      dup2\n      mstore\n      swap1\n      0x01\n      add\n      swap1\n      0x20\n      add\n      dup1\n      dup4\n      gt\n      tag_119\n      jumpi\n      dup3\n      swap1\n      sub\n      0x1f\n      and\n      dup3\n      add\n      swap2\n    tag_117:\n      pop\n      pop\n      pop\n      pop\n      pop\n      dup2\n      mstore\n      0x20\n      add\n      0x03\n      dup3\n      add\n      0x00\n      swap1\n      sload\n      swap1\n      0x0100\n      exp\n      swap1\n      div\n      0xffffffffffffffffffffffffffffffffffffffff\n      and\n      0xffffffffffffffffffffffffffffffffffffffff\n      and\n      0xffffffffffffffffffffffffffffffffffffffff\n      and\n      dup2\n      mstore\n      0x20\n      add\n      0x04\n      dup3\n      add\n      sload\n      dup2\n      mstore\n      0x20\n      add\n      0x05\n      dup3\n      add\n      dup1\n      sload\n      dup1\n      0x20\n      mul\n      0x20\n      add\n      mload(0x40)\n      swap1\n      dup2\n      add\n      0x40\n      mstore\n      dup1\n      swap3\n      swap2\n      swap1\n      dup2\n      dup2\n      mstore\n      0x20\n      add\n      0x00\n      swap1\n    tag_120:\n      dup3\n      dup3\n      lt\n      iszero\n      tag_121\n      jumpi\n      dup4\n      dup3\n      swap1\n      0x00\n      mstore\n      keccak256(0x00, 0x20)\n      add\n      dup1\n      sload\n      tag_123\n      swap1\n      tag_105\n      jump\t// in\n    tag_123:\n      dup1\n      0x1f\n      add\n      0x20\n      dup1\n      swap2\n      div\n      mul\n      0x20\n      add\n      mload(0x40)\n      swap1\n      dup2\n      add\n      0x40\n      mstore\n      dup1\n      swap3\n      swap2\n      swap1\n      dup2\n      dup2\n      mstore\n      0x20\n      add\n      dup3\n      dup1\n      sload\n      tag_124\n      swap1\n      tag_105\n      jump\t// in\n    tag_124:\n      dup1\n      iszero\n      tag_125\n      jumpi\n      dup1\n      0x1f\n      lt\n      tag_126\n      jumpi\n      0x0100\n      dup1\n      dup4\n      sload\n      div\n      mul\n      dup4\n      mstore\n      swap2\n      0x20\n      add\n      swap2\n      jump(tag_125)\n    tag_126:\n      dup3\n      add\n      swap2\n      swap1\n      0x00\n      mstore\n      keccak256(0x00, 0x20)\n      swap1\n    tag_127:\n      dup2\n      sload\n      dup2\n      mstore\n      swap1\n      0x01\n      add\n      swap1\n      0x20\n      add\n      dup1\n      dup4\n      gt\n      tag_127\n      jumpi\n      dup3\n      swap1\n      sub\n      0x1f\n      and\n      dup3\n      add\n      swap2\n    tag_125:\n      pop\n      pop\n      pop\n      pop\n      pop\n      dup2\n      mstore\n      0x20\n      add\n      swap1\n      0x01\n      add\n      swap1\n      jump(tag_120)\n    tag_121:\n      pop\n      pop\n      pop\n      pop\n      dup2\n      mstore\n      pop\n      pop\n      swap1\n      pop\n      jump(tag_102)\n        /* \"Contract.sol\":3643:3823  if (requestedMember == true) {... */\n    tag_103:\n        /* \"Contract.sol\":3777:3797  getMemberWithAddress */\n      0x04\n        /* \"Contract.sol\":3777:3811  getMemberWithAddress[_userAddress] */\n      0x00\n        /* \"Contract.sol\":3798:3810  _userAddress */\n      dup5\n        /* \"Contract.sol\":3777:3811  getMemberWithAddress[_userAddress] */\n      0xffffffffffffffffffffffffffffffffffffffff\n      and\n      0xffffffffffffffffffffffffffffffffffffffff\n      and\n      dup2\n      mstore\n      0x20\n      add\n      swap1\n      dup2\n      mstore\n      0x20\n      add\n      0x00\n      keccak256\n        /* \"Contract.sol\":3770:3811  return getMemberWithAddress[_userAddress] */\n      mload(0x40)\n      dup1\n      0xc0\n      add\n      0x40\n      mstore\n      swap1\n      dup2\n      0x00\n      dup3\n      add\n      dup1\n      sload\n      tag_129\n      swap1\n      tag_105\n      jump\t// in\n    tag_129:\n      dup1\n      0x1f\n      add\n      0x20\n      dup1\n      swap2\n      div\n      mul\n      0x20\n      add\n      mload(0x40)\n      swap1\n      dup2\n      add\n      0x40\n      mstore\n      dup1\n      swap3\n      swap2\n      swap1\n      dup2\n      dup2\n      mstore\n      0x20\n      add\n      dup3\n      dup1\n      sload\n      tag_130\n      swap1\n      tag_105\n      jump\t// in\n    tag_130:\n      dup1\n      iszero\n      tag_131\n      jumpi\n      dup1\n      0x1f\n      lt\n      tag_132\n      jumpi\n      0x0100\n      dup1\n      dup4\n      sload\n      div\n      mul\n      dup4\n      mstore\n      swap2\n      0x20\n      add\n      swap2\n      jump(tag_131)\n    tag_132:\n      dup3\n      add\n      swap2\n      swap1\n      0x00\n      mstore\n      keccak256(0x00, 0x20)\n      swap1\n    tag_133:\n      dup2\n      sload\n      dup2\n      mstore\n      swap1\n      0x01\n      add\n      swap1\n      0x20\n      add\n      dup1\n      dup4\n      gt\n      tag_133\n      jumpi\n      dup3\n      swap1\n      sub\n      0x1f\n      and\n      dup3\n      add\n      swap2\n    tag_131:\n      pop\n      pop\n      pop\n      pop\n      pop\n      dup2\n      mstore\n      0x20\n      add\n      0x01\n      dup3\n      add\n      dup1\n      sload\n      tag_134\n      swap1\n      tag_105\n      jump\t// in\n    tag_134:\n      dup1\n      0x1f\n      add\n      0x20\n      dup1\n      swap2\n      div\n      mul\n      0x20\n      add\n      mload(0x40)\n      swap1\n      dup2\n      add\n      0x40\n      mstore\n      dup1\n      swap3\n      swap2\n      swap1\n      dup2\n      dup2\n      mstore\n      0x20\n      add\n      dup3\n      dup1\n      sload\n      tag_135\n      swap1\n      tag_105\n      jump\t// in\n    tag_135:\n      dup1\n      iszero\n      tag_136\n      jumpi\n      dup1\n      0x1f\n      lt\n      tag_137\n      jumpi\n      0x0100\n      dup1\n      dup4\n      sload\n      div\n      mul\n      dup4\n      mstore\n      swap2\n      0x20\n      add\n      swap2\n      jump(tag_136)\n    tag_137:\n      dup3\n      add\n      swap2\n      swap1\n      0x00\n      mstore\n      keccak256(0x00, 0x20)\n      swap1\n    tag_138:\n      dup2\n      sload\n      dup2\n      mstore\n      swap1\n      0x01\n      add\n      swap1\n      0x20\n      add\n      dup1\n      dup4\n      gt\n      tag_138\n      jumpi\n      dup3\n      swap1\n      sub\n      0x1f\n      and\n      dup3\n      add\n      swap2\n    tag_136:\n      pop\n      pop\n      pop\n      pop\n      pop\n      dup2\n      mstore\n      0x20\n      add\n      0x02\n      dup3\n      add\n      dup1\n      sload\n      tag_139\n      swap1\n      tag_105\n      jump\t// in\n    tag_139:\n      dup1\n      0x1f\n      add\n      0x20\n      dup1\n      swap2\n      div\n      mul\n      0x20\n      add\n      mload(0x40)\n      swap1\n      dup2\n      add\n      0x40\n      mstore\n      dup1\n      swap3\n      swap2\n      swap1\n      dup2\n      dup2\n      mstore\n      0x20\n      add\n      dup3\n      dup1\n      sload\n      tag_140\n      swap1\n      tag_105\n      jump\t// in\n    tag_140:\n      dup1\n      iszero\n      tag_141\n      jumpi\n      dup1\n      0x1f\n      lt\n      tag_142\n      jumpi\n      0x0100\n      dup1\n      dup4\n      sload\n      div\n      mul\n      dup4\n      mstore\n      swap2\n      0x20\n      add\n      swap2\n      jump(tag_141)\n    tag_142:\n      dup3\n      add\n      swap2\n      swap1\n      0x00\n      mstore\n      keccak256(0x00, 0x20)\n      swap1\n    tag_143:\n      dup2\n      sload\n      dup2\n      mstore\n      swap1\n      0x01\n      add\n      swap1\n      0x20\n      add\n      dup1\n      dup4\n      gt\n      tag_143\n      jumpi\n      dup3\n      swap1\n      sub\n      0x1f\n      and\n      dup3\n      add\n      swap2\n    tag_141:\n      pop\n      pop\n      pop\n      pop\n      pop\n      dup2\n      mstore\n      0x20\n      add\n      0x03\n      dup3\n      add\n      0x00\n      swap1\n      sload\n      swap1\n      0x0100\n      exp\n      swap1\n      div\n      0xffffffffffffffffffffffffffffffffffffffff\n      and\n      0xffffffffffffffffffffffffffffffffffffffff\n      and\n      0xffffffffffffffffffffffffffffffffffffffff\n      and\n      dup2\n      mstore\n      0x20\n      add\n      0x04\n      dup3\n      add\n      sload\n      dup2\n      mstore\n      0x20\n      add\n      0x05\n      dup3\n      add\n      dup1\n      sload\n      dup1\n      0x20\n      mul\n      0x20\n      add\n      mload(0x40)\n      swap1\n      dup2\n      add\n      0x40\n      mstore\n      dup1\n      swap3\n      swap2\n      swap1\n      dup2\n      dup2\n      mstore\n      0x20\n      add\n      0x00\n      swap1\n    tag_144:\n      dup3\n      dup3\n      lt\n      iszero\n      tag_145\n      jumpi\n      dup4\n      dup3\n      swap1\n      0x00\n      mstore\n      keccak256(0x00, 0x20)\n      add\n      dup1\n      sload\n      tag_147\n      swap1\n      tag_105\n      jump\t// in\n    tag_147:\n      dup1\n      0x1f\n      add\n      0x20\n      dup1\n      swap2\n      div\n      mul\n      0x20\n      add\n      mload(0x40)\n      swap1\n      dup2\n      add\n      0x40\n      mstore\n      dup1\n      swap3\n      swap2\n      swap1\n      dup2\n      dup2\n      mstore\n      0x20\n      add\n      dup3\n      dup1\n      sload\n      tag_148\n      swap1\n      tag_105\n      jump\t// in\n    tag_148:\n      dup1\n      iszero\n      tag_149\n      jumpi\n      dup1\n      0x1f\n      lt\n      tag_150\n      jumpi\n      0x0100\n      dup1\n      dup4\n      sload\n      div\n      mul\n      dup4\n      mstore\n      swap2\n      0x20\n      add\n      swap2\n      jump(tag_149)\n    tag_150:\n      dup3\n      add\n      swap2\n      swap1\n      0x00\n      mstore\n      keccak256(0x00, 0x20)\n      swap1\n    tag_151:\n      dup2\n      sload\n      dup2\n      mstore\n      swap1\n      0x01\n      add\n      swap1\n      0x20\n      add\n      dup1\n      dup4\n      gt\n      tag_151\n      jumpi\n      dup3\n      swap1\n      sub\n      0x1f\n      and\n      dup3\n      add\n      swap2\n    tag_149:\n      pop\n      pop\n      pop\n      pop\n      pop\n      dup2\n      mstore\n      0x20\n      add\n      swap1\n      0x01\n      add\n      swap1\n      jump(tag_144)\n    tag_145:\n      pop\n      pop\n      pop\n      pop\n      dup2\n      mstore\n      pop\n      pop\n      swap1\n      pop\n        /* \"Contract.sol\":3494:3830  function findMember(address _userAddress, bool requestedMember)... */\n    tag_102:\n      swap3\n      swap2\n      pop\n      pop\n      jump\t// out\n        /* \"Contract.sol\":3838:4839  function approoveRequest(address _userAddress, address approvingUserAddress)... */\n    tag_33:\n        /* \"Contract.sol\":3947:3985  MemberStruct memory memberTobeApproved */\n      0x00\n        /* \"Contract.sol\":3988:4017  getRequestedMemberWithAddress */\n      0x07\n        /* \"Contract.sol\":3988:4055  getRequestedMemberWithAddress[... */\n      0x00\n        /* \"Contract.sol\":4032:4044  _userAddress */\n      dup5\n        /* \"Contract.sol\":3988:4055  getRequestedMemberWithAddress[... */\n      0xffffffffffffffffffffffffffffffffffffffff\n      and\n      0xffffffffffffffffffffffffffffffffffffffff\n      and\n      dup2\n      mstore\n      0x20\n      add\n      swap1\n      dup2\n      mstore\n      0x20\n      add\n      0x00\n      keccak256\n        /* \"Contract.sol\":3947:4055  MemberStruct memory memberTobeApproved = getRequestedMemberWithAddress[... */\n      mload(0x40)\n      dup1\n      0xc0\n      add\n      0x40\n      mstore\n      swap1\n      dup2\n      0x00\n      dup3\n      add\n      dup1\n      sload\n      tag_153\n      swap1\n      tag_105\n      jump\t// in\n    tag_153:\n      dup1\n      0x1f\n      add\n      0x20\n      dup1\n      swap2\n      div\n      mul\n      0x20\n      add\n      mload(0x40)\n      swap1\n      dup2\n      add\n      0x40\n      mstore\n      dup1\n      swap3\n      swap2\n      swap1\n      dup2\n      dup2\n      mstore\n      0x20\n      add\n      dup3\n      dup1\n      sload\n      tag_154\n      swap1\n      tag_105\n      jump\t// in\n    tag_154:\n      dup1\n      iszero\n      tag_155\n      jumpi\n      dup1\n      0x1f\n      lt\n      tag_156\n      jumpi\n      0x0100\n      dup1\n      dup4\n      sload\n      div\n      mul\n      dup4\n      mstore\n      swap2\n      0x20\n      add\n      swap2\n      jump(tag_155)\n    tag_156:\n      dup3\n      add\n      swap2\n      swap1\n      0x00\n      mstore\n      keccak256(0x00, 0x20)\n      swap1\n    tag_157:\n      dup2\n      sload\n      dup2\n      mstore\n      swap1\n      0x01\n      add\n      swap1\n      0x20\n      add\n      dup1\n      dup4\n      gt\n      tag_157\n      jumpi\n      dup3\n      swap1\n      sub\n      0x1f\n      and\n      dup3\n      add\n      swap2\n    tag_155:\n      pop\n      pop\n      pop\n      pop\n      pop\n      dup2\n      mstore\n      0x20\n      add\n      0x01\n      dup3\n      add\n      dup1\n      sload\n      tag_158\n      swap1\n      tag_105\n      jump\t// in\n    tag_158:\n      dup1\n      0x1f\n      add\n      0x20\n      dup1\n      swap2\n      div\n      mul\n      0x20\n      add\n      mload(0x40)\n      swap1\n      dup2\n      add\n      0x40\n      mstore\n      dup1\n      swap3\n      swap2\n      swap1\n      dup2\n      dup2\n      mstore\n      0x20\n      add\n      dup3\n      dup1\n      sload\n      tag_159\n      swap1\n      tag_105\n      jump\t// in\n    tag_159:\n      dup1\n      iszero\n      tag_160\n      jumpi\n      dup1\n      0x1f\n      lt\n      tag_161\n      jumpi\n      0x0100\n      dup1\n      dup4\n      sload\n      div\n      mul\n      dup4\n      mstore\n      swap2\n      0x20\n      add\n      swap2\n      jump(tag_160)\n    tag_161:\n      dup3\n      add\n      swap2\n      swap1\n      0x00\n      mstore\n      keccak256(0x00, 0x20)\n      swap1\n    tag_162:\n      dup2\n      sload\n      dup2\n      mstore\n      swap1\n      0x01\n      add\n      swap1\n      0x20\n      add\n      dup1\n      dup4\n      gt\n      tag_162\n      jumpi\n      dup3\n      swap1\n      sub\n      0x1f\n      and\n      dup3\n      add\n      swap2\n    tag_160:\n      pop\n      pop\n      pop\n      pop\n      pop\n      dup2\n      mstore\n      0x20\n      add\n      0x02\n      dup3\n      add\n      dup1\n      sload\n      tag_163\n      swap1\n      tag_105\n      jump\t// in\n    tag_163:\n      dup1\n      0x1f\n      add\n      0x20\n      dup1\n      swap2\n      div\n      mul\n      0x20\n      add\n      mload(0x40)\n      swap1\n      dup2\n      add\n      0x40\n      mstore\n      dup1\n      swap3\n      swap2\n      swap1\n      dup2\n      dup2\n      mstore\n      0x20\n      add\n      dup3\n      dup1\n      sload\n      tag_164\n      swap1\n      tag_105\n      jump\t// in\n    tag_164:\n      dup1\n      iszero\n      tag_165\n      jumpi\n      dup1\n      0x1f\n      lt\n      tag_166\n      jumpi\n      0x0100\n      dup1\n      dup4\n      sload\n      div\n      mul\n      dup4\n      mstore\n      swap2\n      0x20\n      add\n      swap2\n      jump(tag_165)\n    tag_166:\n      dup3\n      add\n      swap2\n      swap1\n      0x00\n      mstore\n      keccak256(0x00, 0x20)\n      swap1\n    tag_167:\n      dup2\n      sload\n      dup2\n      mstore\n      swap1\n      0x01\n      add\n      swap1\n      0x20\n      add\n      dup1\n      dup4\n      gt\n      tag_167\n      jumpi\n      dup3\n      swap1\n      sub\n      0x1f\n      and\n      dup3\n      add\n      swap2\n    tag_165:\n      pop\n      pop\n      pop\n      pop\n      pop\n      dup2\n      mstore\n      0x20\n      add\n      0x03\n      dup3\n      add\n      0x00\n      swap1\n      sload\n      swap1\n      0x0100\n      exp\n      swap1\n      div\n      0xffffffffffffffffffffffffffffffffffffffff\n      and\n      0xffffffffffffffffffffffffffffffffffffffff\n      and\n      0xffffffffffffffffffffffffffffffffffffffff\n      and\n      dup2\n      mstore\n      0x20\n      add\n      0x04\n      dup3\n      add\n      sload\n      dup2\n      mstore\n      0x20\n      add\n      0x05\n      dup3\n      add\n      dup1\n      sload\n      dup1\n      0x20\n      mul\n      0x20\n      add\n      mload(0x40)\n      swap1\n      dup2\n      add\n      0x40\n      mstore\n      dup1\n      swap3\n      swap2\n      swap1\n      dup2\n      dup2\n      mstore\n      0x20\n      add\n      0x00\n      swap1\n    tag_168:\n      dup3\n      dup3\n      lt\n      iszero\n      tag_169\n      jumpi\n      dup4\n      dup3\n      swap1\n      0x00\n      mstore\n      keccak256(0x00, 0x20)\n      add\n      dup1\n      sload\n      tag_171\n      swap1\n      tag_105\n      jump\t// in\n    tag_171:\n      dup1\n      0x1f\n      add\n      0x20\n      dup1\n      swap2\n      div\n      mul\n      0x20\n      add\n      mload(0x40)\n      swap1\n      dup2\n      add\n      0x40\n      mstore\n      dup1\n      swap3\n      swap2\n      swap1\n      dup2\n      dup2\n      mstore\n      0x20\n      add\n      dup3\n      dup1\n      sload\n      tag_172\n      swap1\n      tag_105\n      jump\t// in\n    tag_172:\n      dup1\n      iszero\n      tag_173\n      jumpi\n      dup1\n      0x1f\n      lt\n      tag_174\n      jumpi\n      0x0100\n      dup1\n      dup4\n      sload\n      div\n      mul\n      dup4\n      mstore\n      swap2\n      0x20\n      add\n      swap2\n      jump(tag_173)\n    tag_174:\n      dup3\n      add\n      swap2\n      swap1\n      0x00\n      mstore\n      keccak256(0x00, 0x20)\n      swap1\n    tag_175:\n      dup2\n      sload\n      dup2\n      mstore\n      swap1\n      0x01\n      add\n      swap1\n      0x20\n      add\n      dup1\n      dup4\n      gt\n      tag_175\n      jumpi\n      dup3\n      swap1\n      sub\n      0x1f\n      and\n      dup3\n      add\n      swap2\n    tag_173:\n      pop\n      pop\n      pop\n      pop\n      pop\n      dup2\n      mstore\n      0x20\n      add\n      swap1\n      0x01\n      add\n      swap1\n      jump(tag_168)\n    tag_169:\n      pop\n      pop\n      pop\n      pop\n      dup2\n      mstore\n      pop\n      pop\n      swap1\n      pop\n        /* \"Contract.sol\":4066:4101  MemberStruct memory apprivingMember */\n      0x00\n        /* \"Contract.sol\":4104:4124  getMemberWithAddress */\n      0x04\n        /* \"Contract.sol\":4104:4170  getMemberWithAddress[... */\n      0x00\n        /* \"Contract.sol\":4139:4159  approvingUserAddress */\n      dup5\n        /* \"Contract.sol\":4104:4170  getMemberWithAddress[... */\n      0xffffffffffffffffffffffffffffffffffffffff\n      and\n      0xffffffffffffffffffffffffffffffffffffffff\n      and\n      dup2\n      mstore\n      0x20\n      add\n      swap1\n      dup2\n      mstore\n      0x20\n      add\n      0x00\n      keccak256\n        /* \"Contract.sol\":4066:4170  MemberStruct memory apprivingMember = getMemberWithAddress[... */\n      mload(0x40)\n      dup1\n      0xc0\n      add\n      0x40\n      mstore\n      swap1\n      dup2\n      0x00\n      dup3\n      add\n      dup1\n      sload\n      tag_176\n      swap1\n      tag_105\n      jump\t// in\n    tag_176:\n      dup1\n      0x1f\n      add\n      0x20\n      dup1\n      swap2\n      div\n      mul\n      0x20\n      add\n      mload(0x40)\n      swap1\n      dup2\n      add\n      0x40\n      mstore\n      dup1\n      swap3\n      swap2\n      swap1\n      dup2\n      dup2\n      mstore\n      0x20\n      add\n      dup3\n      dup1\n      sload\n      tag_177\n      swap1\n      tag_105\n      jump\t// in\n    tag_177:\n      dup1\n      iszero\n      tag_178\n      jumpi\n      dup1\n      0x1f\n      lt\n      tag_179\n      jumpi\n      0x0100\n      dup1\n      dup4\n      sload\n      div\n      mul\n      dup4\n      mstore\n      swap2\n      0x20\n      add\n      swap2\n      jump(tag_178)\n    tag_179:\n      dup3\n      add\n      swap2\n      swap1\n      0x00\n      mstore\n      keccak256(0x00, 0x20)\n      swap1\n    tag_180:\n      dup2\n      sload\n      dup2\n      mstore\n      swap1\n      0x01\n      add\n      swap1\n      0x20\n      add\n      dup1\n      dup4\n      gt\n      tag_180\n      jumpi\n      dup3\n      swap1\n      sub\n      0x1f\n      and\n      dup3\n      add\n      swap2\n    tag_178:\n      pop\n      pop\n      pop\n      pop\n      pop\n      dup2\n      mstore\n      0x20\n      add\n      0x01\n      dup3\n      add\n      dup1\n      sload\n      tag_181\n      swap1\n      tag_105\n      jump\t// in\n    tag_181:\n      dup1\n      0x1f\n      add\n      0x20\n      dup1\n      swap2\n      div\n      mul\n      0x20\n      add\n      mload(0x40)\n      swap1\n      dup2\n      add\n      0x40\n      mstore\n      dup1\n      swap3\n      swap2\n      swap1\n      dup2\n      dup2\n      mstore\n      0x20\n      add\n      dup3\n      dup1\n      sload\n      tag_182\n      swap1\n      tag_105\n      jump\t// in\n    tag_182:\n      dup1\n      iszero\n      tag_183\n      jumpi\n      dup1\n      0x1f\n      lt\n      tag_184\n      jumpi\n      0x0100\n      dup1\n      dup4\n      sload\n      div\n      mul\n      dup4\n      mstore\n      swap2\n      0x20\n      add\n      swap2\n      jump(tag_183)\n    tag_184:\n      dup3\n      add\n      swap2\n      swap1\n      0x00\n      mstore\n      keccak256(0x00, 0x20)\n      swap1\n    tag_185:\n      dup2\n      sload\n      dup2\n      mstore\n      swap1\n      0x01\n      add\n      swap1\n      0x20\n      add\n      dup1\n      dup4\n      gt\n      tag_185\n      jumpi\n      dup3\n      swap1\n      sub\n      0x1f\n      and\n      dup3\n      add\n      swap2\n    tag_183:\n      pop\n      pop\n      pop\n      pop\n      pop\n      dup2\n      mstore\n      0x20\n      add\n      0x02\n      dup3\n      add\n      dup1\n      sload\n      tag_186\n      swap1\n      tag_105\n      jump\t// in\n    tag_186:\n      dup1\n      0x1f\n      add\n      0x20\n      dup1\n      swap2\n      div\n      mul\n      0x20\n      add\n      mload(0x40)\n      swap1\n      dup2\n      add\n      0x40\n      mstore\n      dup1\n      swap3\n      swap2\n      swap1\n      dup2\n      dup2\n      mstore\n      0x20\n      add\n      dup3\n      dup1\n      sload\n      tag_187\n      swap1\n      tag_105\n      jump\t// in\n    tag_187:\n      dup1\n      iszero\n      tag_188\n      jumpi\n      dup1\n      0x1f\n      lt\n      tag_189\n      jumpi\n      0x0100\n      dup1\n      dup4\n      sload\n      div\n      mul\n      dup4\n      mstore\n      swap2\n      0x20\n      add\n      swap2\n      jump(tag_188)\n    tag_189:\n      dup3\n      add\n      swap2\n      swap1\n      0x00\n      mstore\n      keccak256(0x00, 0x20)\n      swap1\n    tag_190:\n      dup2\n      sload\n      dup2\n      mstore\n      swap1\n      0x01\n      add\n      swap1\n      0x20\n      add\n      dup1\n      dup4\n      gt\n      tag_190\n      jumpi\n      dup3\n      swap1\n      sub\n      0x1f\n      and\n      dup3\n      add\n      swap2\n    tag_188:\n      pop\n      pop\n      pop\n      pop\n      pop\n      dup2\n      mstore\n      0x20\n      add\n      0x03\n      dup3\n      add\n      0x00\n      swap1\n      sload\n      swap1\n      0x0100\n      exp\n      swap1\n      div\n      0xffffffffffffffffffffffffffffffffffffffff\n      and\n      0xffffffffffffffffffffffffffffffffffffffff\n      and\n      0xffffffffffffffffffffffffffffffffffffffff\n      and\n      dup2\n      mstore\n      0x20\n      add\n      0x04\n      dup3\n      add\n      sload\n      dup2\n      mstore\n      0x20\n      add\n      0x05\n      dup3\n      add\n      dup1\n      sload\n      dup1\n      0x20\n      mul\n      0x20\n      add\n      mload(0x40)\n      swap1\n      dup2\n      add\n      0x40\n      mstore\n      dup1\n      swap3\n      swap2\n      swap1\n      dup2\n      dup2\n      mstore\n      0x20\n      add\n      0x00\n      swap1\n    tag_191:\n      dup3\n      dup3\n      lt\n      iszero\n      tag_192\n      jumpi\n      dup4\n      dup3\n      swap1\n      0x00\n      mstore\n      keccak256(0x00, 0x20)\n      add\n      dup1\n      sload\n      tag_194\n      swap1\n      tag_105\n      jump\t// in\n    tag_194:\n      dup1\n      0x1f\n      add\n      0x20\n      dup1\n      swap2\n      div\n      mul\n      0x20\n      add\n      mload(0x40)\n      swap1\n      dup2\n      add\n      0x40\n      mstore\n      dup1\n      swap3\n      swap2\n      swap1\n      dup2\n      dup2\n      mstore\n      0x20\n      add\n      dup3\n      dup1\n      sload\n      tag_195\n      swap1\n      tag_105\n      jump\t// in\n    tag_195:\n      dup1\n      iszero\n      tag_196\n      jumpi\n      dup1\n      0x1f\n      lt\n      tag_197\n      jumpi\n      0x0100\n      dup1\n      dup4\n      sload\n      div\n      mul\n      dup4\n      mstore\n      swap2\n      0x20\n      add\n      swap2\n      jump(tag_196)\n    tag_197:\n      dup3\n      add\n      swap2\n      swap1\n      0x00\n      mstore\n      keccak256(0x00, 0x20)\n      swap1\n    tag_198:\n      dup2\n      sload\n      dup2\n      mstore\n      swap1\n      0x01\n      add\n      swap1\n      0x20\n      add\n      dup1\n      dup4\n      gt\n      tag_198\n      jumpi\n      dup3\n      swap1\n      sub\n      0x1f\n      and\n      dup3\n      add\n      swap2\n    tag_196:\n      pop\n      pop\n      pop\n      pop\n      pop\n      dup2\n      mstore\n      0x20\n      add\n      swap1\n      0x01\n      add\n      swap1\n      jump(tag_191)\n    tag_192:\n      pop\n      pop\n      pop\n      pop\n      dup2\n      mstore\n      pop\n      pop\n      swap1\n      pop\n        /* \"Contract.sol\":4181:4199  string memory post */\n      0x00\n        /* \"Contract.sol\":4202:4220  memberTobeApproved */\n      dup3\n        /* \"Contract.sol\":4202:4225  memberTobeApproved.post */\n      0x00\n      add\n      mload\n        /* \"Contract.sol\":4181:4225  string memory post = memberTobeApproved.post */\n      swap1\n      pop\n        /* \"Contract.sol\":4236:4254  string memory dept */\n      0x00\n        /* \"Contract.sol\":4257:4275  memberTobeApproved */\n      dup4\n        /* \"Contract.sol\":4257:4280  memberTobeApproved.dept */\n      0x20\n      add\n      mload\n        /* \"Contract.sol\":4236:4280  string memory dept = memberTobeApproved.dept */\n      swap1\n      pop\n        /* \"Contract.sol\":4291:4309  string memory name */\n      0x00\n        /* \"Contract.sol\":4312:4330  memberTobeApproved */\n      dup5\n        /* \"Contract.sol\":4312:4335  memberTobeApproved.name */\n      0x40\n      add\n      mload\n        /* \"Contract.sol\":4291:4335  string memory name = memberTobeApproved.name */\n      swap1\n      pop\n        /* \"Contract.sol\":4346:4365  address userAddress */\n      0x00\n        /* \"Contract.sol\":4368:4386  memberTobeApproved */\n      dup6\n        /* \"Contract.sol\":4368:4398  memberTobeApproved.userAddress */\n      0x60\n      add\n      mload\n        /* \"Contract.sol\":4346:4398  address userAddress = memberTobeApproved.userAddress */\n      swap1\n      pop\n        /* \"Contract.sol\":4409:4436  uint256 requestingUserPower */\n      0x00\n        /* \"Contract.sol\":4439:4457  memberTobeApproved */\n      dup7\n        /* \"Contract.sol\":4439:4463  memberTobeApproved.power */\n      0x80\n      add\n      mload\n        /* \"Contract.sol\":4409:4463  uint256 requestingUserPower = memberTobeApproved.power */\n      swap1\n      pop\n        /* \"Contract.sol\":4474:4500  uint256 approvingUserPower */\n      0x00\n        /* \"Contract.sol\":4503:4518  apprivingMember */\n      dup7\n        /* \"Contract.sol\":4503:4524  apprivingMember.power */\n      0x80\n      add\n      mload\n        /* \"Contract.sol\":4474:4524  uint256 approvingUserPower = apprivingMember.power */\n      swap1\n      pop\n        /* \"Contract.sol\":4581:4600  requestingUserPower */\n      dup2\n        /* \"Contract.sol\":4559:4577  approvingUserPower */\n      dup2\n        /* \"Contract.sol\":4559:4600  approvingUserPower <= requestingUserPower */\n      gt\n      iszero\n        /* \"Contract.sol\":4537:4670  require(... */\n      tag_199\n      jumpi\n      mload(0x40)\n      0x08c379a000000000000000000000000000000000000000000000000000000000\n      dup2\n      mstore\n      0x04\n      add\n      tag_200\n      swap1\n      tag_201\n      jump\t// in\n    tag_200:\n      mload(0x40)\n      dup1\n      swap2\n      sub\n      swap1\n      revert\n    tag_199:\n        /* \"Contract.sol\":4683:4739  addOrRequestMember(post, dept, name, userAddress, false) */\n      tag_202\n        /* \"Contract.sol\":4702:4706  post */\n      dup7\n        /* \"Contract.sol\":4708:4712  dept */\n      dup7\n        /* \"Contract.sol\":4714:4718  name */\n      dup7\n        /* \"Contract.sol\":4720:4731  userAddress */\n      dup7\n        /* \"Contract.sol\":4733:4738  false */\n      0x00\n        /* \"Contract.sol\":4683:4701  addOrRequestMember */\n      tag_19\n        /* \"Contract.sol\":4683:4739  addOrRequestMember(post, dept, name, userAddress, false) */\n      jump\t// in\n    tag_202:\n        /* \"Contract.sol\":4804:4831  removeRequest(_userAddress) */\n      tag_203\n        /* \"Contract.sol\":4818:4830  _userAddress */\n      dup11\n        /* \"Contract.sol\":4804:4817  removeRequest */\n      tag_204\n        /* \"Contract.sol\":4804:4831  removeRequest(_userAddress) */\n      jump\t// in\n    tag_203:\n        /* \"Contract.sol\":3936:4839  {... */\n      pop\n      pop\n      pop\n      pop\n      pop\n      pop\n      pop\n      pop\n        /* \"Contract.sol\":3838:4839  function approoveRequest(address _userAddress, address approvingUserAddress)... */\n      pop\n      pop\n      jump\t// out\n        /* \"Contract.sol\":880:1158  function getApprovedOrRequestedMember(bool request)... */\n    tag_38:\n        /* \"Contract.sol\":980:1001  MemberStruct[] memory */\n      0x60\n        /* \"Contract.sol\":1034:1038  true */\n      0x01\n        /* \"Contract.sol\":1023:1038  request == true */\n      iszero\n      iszero\n        /* \"Contract.sol\":1023:1030  request */\n      dup3\n        /* \"Contract.sol\":1023:1038  request == true */\n      iszero\n      iszero\n      sub\n        /* \"Contract.sol\":1019:1151  if (request == true) {... */\n      tag_206\n      jumpi\n        /* \"Contract.sol\":1062:1085  arrayOfRequestedMembers */\n      0x08\n        /* \"Contract.sol\":1055:1085  return arrayOfRequestedMembers */\n      dup1\n      sload\n      dup1\n      0x20\n      mul\n      0x20\n      add\n      mload(0x40)\n      swap1\n      dup2\n      add\n      0x40\n      mstore\n      dup1\n      swap3\n      swap2\n      swap1\n      dup2\n      dup2\n      mstore\n      0x20\n      add\n      0x00\n      swap1\n    tag_207:\n      dup3\n      dup3\n      lt\n      iszero\n      tag_208\n      jumpi\n      dup4\n      dup3\n      swap1\n      0x00\n      mstore\n      keccak256(0x00, 0x20)\n      swap1\n      0x06\n      mul\n      add\n      mload(0x40)\n      dup1\n      0xc0\n      add\n      0x40\n      mstore\n      swap1\n      dup2\n      0x00\n      dup3\n      add\n      dup1\n      sload\n      tag_210\n      swap1\n      tag_105\n      jump\t// in\n    tag_210:\n      dup1\n      0x1f\n      add\n      0x20\n      dup1\n      swap2\n      div\n      mul\n      0x20\n      add\n      mload(0x40)\n      swap1\n      dup2\n      add\n      0x40\n      mstore\n      dup1\n      swap3\n      swap2\n      swap1\n      dup2\n      dup2\n      mstore\n      0x20\n      add\n      dup3\n      dup1\n      sload\n      tag_211\n      swap1\n      tag_105\n      jump\t// in\n    tag_211:\n      dup1\n      iszero\n      tag_212\n      jumpi\n      dup1\n      0x1f\n      lt\n      tag_213\n      jumpi\n      0x0100\n      dup1\n      dup4\n      sload\n      div\n      mul\n      dup4\n      mstore\n      swap2\n      0x20\n      add\n      swap2\n      jump(tag_212)\n    tag_213:\n      dup3\n      add\n      swap2\n      swap1\n      0x00\n      mstore\n      keccak256(0x00, 0x20)\n      swap1\n    tag_214:\n      dup2\n      sload\n      dup2\n      mstore\n      swap1\n      0x01\n      add\n      swap1\n      0x20\n      add\n      dup1\n      dup4\n      gt\n      tag_214\n      jumpi\n      dup3\n      swap1\n      sub\n      0x1f\n      and\n      dup3\n      add\n      swap2\n    tag_212:\n      pop\n      pop\n      pop\n      pop\n      pop\n      dup2\n      mstore\n      0x20\n      add\n      0x01\n      dup3\n      add\n      dup1\n      sload\n      tag_215\n      swap1\n      tag_105\n      jump\t// in\n    tag_215:\n      dup1\n      0x1f\n      add\n      0x20\n      dup1\n      swap2\n      div\n      mul\n      0x20\n      add\n      mload(0x40)\n      swap1\n      dup2\n      add\n      0x40\n      mstore\n      dup1\n      swap3\n      swap2\n      swap1\n      dup2\n      dup2\n      mstore\n      0x20\n      add\n      dup3\n      dup1\n      sload\n      tag_216\n      swap1\n      tag_105\n      jump\t// in\n    tag_216:\n      dup1\n      iszero\n      tag_217\n      jumpi\n      dup1\n      0x1f\n      lt\n      tag_218\n      jumpi\n      0x0100\n      dup1\n      dup4\n      sload\n      div\n      mul\n      dup4\n      mstore\n      swap2\n      0x20\n      add\n      swap2\n      jump(tag_217)\n    tag_218:\n      dup3\n      add\n      swap2\n      swap1\n      0x00\n      mstore\n      keccak256(0x00, 0x20)\n      swap1\n    tag_219:\n      dup2\n      sload\n      dup2\n      mstore\n      swap1\n      0x01\n      add\n      swap1\n      0x20\n      add\n      dup1\n      dup4\n      gt\n      tag_219\n      jumpi\n      dup3\n      swap1\n      sub\n      0x1f\n      and\n      dup3\n      add\n      swap2\n    tag_217:\n      pop\n      pop\n      pop\n      pop\n      pop\n      dup2\n      mstore\n      0x20\n      add\n      0x02\n      dup3\n      add\n      dup1\n      sload\n      tag_220\n      swap1\n      tag_105\n      jump\t// in\n    tag_220:\n      dup1\n      0x1f\n      add\n      0x20\n      dup1\n      swap2\n      div\n      mul\n      0x20\n      add\n      mload(0x40)\n      swap1\n      dup2\n      add\n      0x40\n      mstore\n      dup1\n      swap3\n      swap2\n      swap1\n      dup2\n      dup2\n      mstore\n      0x20\n      add\n      dup3\n      dup1\n      sload\n      tag_221\n      swap1\n      tag_105\n      jump\t// in\n    tag_221:\n      dup1\n      iszero\n      tag_222\n      jumpi\n      dup1\n      0x1f\n      lt\n      tag_223\n      jumpi\n      0x0100\n      dup1\n      dup4\n      sload\n      div\n      mul\n      dup4\n      mstore\n      swap2\n      0x20\n      add\n      swap2\n      jump(tag_222)\n    tag_223:\n      dup3\n      add\n      swap2\n      swap1\n      0x00\n      mstore\n      keccak256(0x00, 0x20)\n      swap1\n    tag_224:\n      dup2\n      sload\n      dup2\n      mstore\n      swap1\n      0x01\n      add\n      swap1\n      0x20\n      add\n      dup1\n      dup4\n      gt\n      tag_224\n      jumpi\n      dup3\n      swap1\n      sub\n      0x1f\n      and\n      dup3\n      add\n      swap2\n    tag_222:\n      pop\n      pop\n      pop\n      pop\n      pop\n      dup2\n      mstore\n      0x20\n      add\n      0x03\n      dup3\n      add\n      0x00\n      swap1\n      sload\n      swap1\n      0x0100\n      exp\n      swap1\n      div\n      0xffffffffffffffffffffffffffffffffffffffff\n      and\n      0xffffffffffffffffffffffffffffffffffffffff\n      and\n      0xffffffffffffffffffffffffffffffffffffffff\n      and\n      dup2\n      mstore\n      0x20\n      add\n      0x04\n      dup3\n      add\n      sload\n      dup2\n      mstore\n      0x20\n      add\n      0x05\n      dup3\n      add\n      dup1\n      sload\n      dup1\n      0x20\n      mul\n      0x20\n      add\n      mload(0x40)\n      swap1\n      dup2\n      add\n      0x40\n      mstore\n      dup1\n      swap3\n      swap2\n      swap1\n      dup2\n      dup2\n      mstore\n      0x20\n      add\n      0x00\n      swap1\n    tag_225:\n      dup3\n      dup3\n      lt\n      iszero\n      tag_226\n      jumpi\n      dup4\n      dup3\n      swap1\n      0x00\n      mstore\n      keccak256(0x00, 0x20)\n      add\n      dup1\n      sload\n      tag_228\n      swap1\n      tag_105\n      jump\t// in\n    tag_228:\n      dup1\n      0x1f\n      add\n      0x20\n      dup1\n      swap2\n      div\n      mul\n      0x20\n      add\n      mload(0x40)\n      swap1\n      dup2\n      add\n      0x40\n      mstore\n      dup1\n      swap3\n      swap2\n      swap1\n      dup2\n      dup2\n      mstore\n      0x20\n      add\n      dup3\n      dup1\n      sload\n      tag_229\n      swap1\n      tag_105\n      jump\t// in\n    tag_229:\n      dup1\n      iszero\n      tag_230\n      jumpi\n      dup1\n      0x1f\n      lt\n      tag_231\n      jumpi\n      0x0100\n      dup1\n      dup4\n      sload\n      div\n      mul\n      dup4\n      mstore\n      swap2\n      0x20\n      add\n      swap2\n      jump(tag_230)\n    tag_231:\n      dup3\n      add\n      swap2\n      swap1\n      0x00\n      mstore\n      keccak256(0x00, 0x20)\n      swap1\n    tag_232:\n      dup2\n      sload\n      dup2\n      mstore\n      swap1\n      0x01\n      add\n      swap1\n      0x20\n      add\n      dup1\n      dup4\n      gt\n      tag_232\n      jumpi\n      dup3\n      swap1\n      sub\n      0x1f\n      and\n      dup3\n      add\n      swap2\n    tag_230:\n      pop\n      pop\n      pop\n      pop\n      pop\n      dup2\n      mstore\n      0x20\n      add\n      swap1\n      0x01\n      add\n      swap1\n      jump(tag_225)\n    tag_226:\n      pop\n      pop\n      pop\n      pop\n      dup2\n      mstore\n      pop\n      pop\n      dup2\n      mstore\n      0x20\n      add\n      swap1\n      0x01\n      add\n      swap1\n      jump(tag_207)\n    tag_208:\n      pop\n      pop\n      pop\n      pop\n      swap1\n      pop\n      jump(tag_205)\n        /* \"Contract.sol\":1019:1151  if (request == true) {... */\n    tag_206:\n        /* \"Contract.sol\":1125:1139  arrayOfMembers */\n      0x05\n        /* \"Contract.sol\":1118:1139  return arrayOfMembers */\n      dup1\n      sload\n      dup1\n      0x20\n      mul\n      0x20\n      add\n      mload(0x40)\n      swap1\n      dup2\n      add\n      0x40\n      mstore\n      dup1\n      swap3\n      swap2\n      swap1\n      dup2\n      dup2\n      mstore\n      0x20\n      add\n      0x00\n      swap1\n    tag_234:\n      dup3\n      dup3\n      lt\n      iszero\n      tag_235\n      jumpi\n      dup4\n      dup3\n      swap1\n      0x00\n      mstore\n      keccak256(0x00, 0x20)\n      swap1\n      0x06\n      mul\n      add\n      mload(0x40)\n      dup1\n      0xc0\n      add\n      0x40\n      mstore\n      swap1\n      dup2\n      0x00\n      dup3\n      add\n      dup1\n      sload\n      tag_237\n      swap1\n      tag_105\n      jump\t// in\n    tag_237:\n      dup1\n      0x1f\n      add\n      0x20\n      dup1\n      swap2\n      div\n      mul\n      0x20\n      add\n      mload(0x40)\n      swap1\n      dup2\n      add\n      0x40\n      mstore\n      dup1\n      swap3\n      swap2\n      swap1\n      dup2\n      dup2\n      mstore\n      0x20\n      add\n      dup3\n      dup1\n      sload\n      tag_238\n      swap1\n      tag_105\n      jump\t// in\n    tag_238:\n      dup1\n      iszero\n      tag_239\n      jumpi\n      dup1\n      0x1f\n      lt\n      tag_240\n      jumpi\n      0x0100\n      dup1\n      dup4\n      sload\n      div\n      mul\n      dup4\n      mstore\n      swap2\n      0x20\n      add\n      swap2\n      jump(tag_239)\n    tag_240:\n      dup3\n      add\n      swap2\n      swap1\n      0x00\n      mstore\n      keccak256(0x00, 0x20)\n      swap1\n    tag_241:\n      dup2\n      sload\n      dup2\n      mstore\n      swap1\n      0x01\n      add\n      swap1\n      0x20\n      add\n      dup1\n      dup4\n      gt\n      tag_241\n      jumpi\n      dup3\n      swap1\n      sub\n      0x1f\n      and\n      dup3\n      add\n      swap2\n    tag_239:\n      pop\n      pop\n      pop\n      pop\n      pop\n      dup2\n      mstore\n      0x20\n      add\n      0x01\n      dup3\n      add\n      dup1\n      sload\n      tag_242\n      swap1\n      tag_105\n      jump\t// in\n    tag_242:\n      dup1\n      0x1f\n      add\n      0x20\n      dup1\n      swap2\n      div\n      mul\n      0x20\n      add\n      mload(0x40)\n      swap1\n      dup2\n      add\n      0x40\n      mstore\n      dup1\n      swap3\n      swap2\n      swap1\n      dup2\n      dup2\n      mstore\n      0x20\n      add\n      dup3\n      dup1\n      sload\n      tag_243\n      swap1\n      tag_105\n      jump\t// in\n    tag_243:\n      dup1\n      iszero\n      tag_244\n      jumpi\n      dup1\n      0x1f\n      lt\n      tag_245\n      jumpi\n      0x0100\n      dup1\n      dup4\n      sload\n      div\n      mul\n      dup4\n      mstore\n      swap2\n      0x20\n      add\n      swap2\n      jump(tag_244)\n    tag_245:\n      dup3\n      add\n      swap2\n      swap1\n      0x00\n      mstore\n      keccak256(0x00, 0x20)\n      swap1\n    tag_246:\n      dup2\n      sload\n      dup2\n      mstore\n      swap1\n      0x01\n      add\n      swap1\n      0x20\n      add\n      dup1\n      dup4\n      gt\n      tag_246\n      jumpi\n      dup3\n      swap1\n      sub\n      0x1f\n      and\n      dup3\n      add\n      swap2\n    tag_244:\n      pop\n      pop\n      pop\n      pop\n      pop\n      dup2\n      mstore\n      0x20\n      add\n      0x02\n      dup3\n      add\n      dup1\n      sload\n      tag_247\n      swap1\n      tag_105\n      jump\t// in\n    tag_247:\n      dup1\n      0x1f\n      add\n      0x20\n      dup1\n      swap2\n      div\n      mul\n      0x20\n      add\n      mload(0x40)\n      swap1\n      dup2\n      add\n      0x40\n      mstore\n      dup1\n      swap3\n      swap2\n      swap1\n      dup2\n      dup2\n      mstore\n      0x20\n      add\n      dup3\n      dup1\n      sload\n      tag_248\n      swap1\n      tag_105\n      jump\t// in\n    tag_248:\n      dup1\n      iszero\n      tag_249\n      jumpi\n      dup1\n      0x1f\n      lt\n      tag_250\n      jumpi\n      0x0100\n      dup1\n      dup4\n      sload\n      div\n      mul\n      dup4\n      mstore\n      swap2\n      0x20\n      add\n      swap2\n      jump(tag_249)\n    tag_250:\n      dup3\n      add\n      swap2\n      swap1\n      0x00\n      mstore\n      keccak256(0x00, 0x20)\n      swap1\n    tag_251:\n      dup2\n      sload\n      dup2\n      mstore\n      swap1\n      0x01\n      add\n      swap1\n      0x20\n      add\n      dup1\n      dup4\n      gt\n      tag_251\n      jumpi\n      dup3\n      swap1\n      sub\n      0x1f\n      and\n      dup3\n      add\n      swap2\n    tag_249:\n      pop\n      pop\n      pop\n      pop\n      pop\n      dup2\n      mstore\n      0x20\n      add\n      0x03\n      dup3\n      add\n      0x00\n      swap1\n      sload\n      swap1\n      0x0100\n      exp\n      swap1\n      div\n      0xffffffffffffffffffffffffffffffffffffffff\n      and\n      0xffffffffffffffffffffffffffffffffffffffff\n      and\n      0xffffffffffffffffffffffffffffffffffffffff\n      and\n      dup2\n      mstore\n      0x20\n      add\n      0x04\n      dup3\n      add\n      sload\n      dup2\n      mstore\n      0x20\n      add\n      0x05\n      dup3\n      add\n      dup1\n      sload\n      dup1\n      0x20\n      mul\n      0x20\n      add\n      mload(0x40)\n      swap1\n      dup2\n      add\n      0x40\n      mstore\n      dup1\n      swap3\n      swap2\n      swap1\n      dup2\n      dup2\n      mstore\n      0x20\n      add\n      0x00\n      swap1\n    tag_252:\n      dup3\n      dup3\n      lt\n      iszero\n      tag_253\n      jumpi\n      dup4\n      dup3\n      swap1\n      0x00\n      mstore\n      keccak256(0x00, 0x20)\n      add\n      dup1\n      sload\n      tag_255\n      swap1\n      tag_105\n      jump\t// in\n    tag_255:\n      dup1\n      0x1f\n      add\n      0x20\n      dup1\n      swap2\n      div\n      mul\n      0x20\n      add\n      mload(0x40)\n      swap1\n      dup2\n      add\n      0x40\n      mstore\n      dup1\n      swap3\n      swap2\n      swap1\n      dup2\n      dup2\n      mstore\n      0x20\n      add\n      dup3\n      dup1\n      sload\n      tag_256\n      swap1\n      tag_105\n      jump\t// in\n    tag_256:\n      dup1\n      iszero\n      tag_257\n      jumpi\n      dup1\n      0x1f\n      lt\n      tag_258\n      jumpi\n      0x0100\n      dup1\n      dup4\n      sload\n      div\n      mul\n      dup4\n      mstore\n      swap2\n      0x20\n      add\n      swap2\n      jump(tag_257)\n    tag_258:\n      dup3\n      add\n      swap2\n      swap1\n      0x00\n      mstore\n      keccak256(0x00, 0x20)\n      swap1\n    tag_259:\n      dup2\n      sload\n      dup2\n      mstore\n      swap1\n      0x01\n      add\n      swap1\n      0x20\n      add\n      dup1\n      dup4\n      gt\n      tag_259\n      jumpi\n      dup3\n      swap1\n      sub\n      0x1f\n      and\n      dup3\n      add\n      swap2\n    tag_257:\n      pop\n      pop\n      pop\n      pop\n      pop\n      dup2\n      mstore\n      0x20\n      add\n      swap1\n      0x01\n      add\n      swap1\n      jump(tag_252)\n    tag_253:\n      pop\n      pop\n      pop\n      pop\n      dup2\n      mstore\n      pop\n      pop\n      dup2\n      mstore\n      0x20\n      add\n      swap1\n      0x01\n      add\n      swap1\n      jump(tag_234)\n    tag_235:\n      pop\n      pop\n      pop\n      pop\n      swap1\n      pop\n        /* \"Contract.sol\":880:1158  function getApprovedOrRequestedMember(bool request)... */\n    tag_205:\n      swap2\n      swap1\n      pop\n      jump\t// out\n        /* \"Contract.sol\":5059:5345  function removeRequest(address _userAddress) internal {... */\n    tag_204:\n        /* \"Contract.sol\":5124:5137  uint256 index */\n      0x00\n        /* \"Contract.sol\":5140:5156  indexFromRequest */\n      0x02\n        /* \"Contract.sol\":5140:5170  indexFromRequest[_userAddress] */\n      0x00\n        /* \"Contract.sol\":5157:5169  _userAddress */\n      dup4\n        /* \"Contract.sol\":5140:5170  indexFromRequest[_userAddress] */\n      0xffffffffffffffffffffffffffffffffffffffff\n      and\n      0xffffffffffffffffffffffffffffffffffffffff\n      and\n      dup2\n      mstore\n      0x20\n      add\n      swap1\n      dup2\n      mstore\n      0x20\n      add\n      0x00\n      keccak256\n      sload\n        /* \"Contract.sol\":5124:5170  uint256 index = indexFromRequest[_userAddress] */\n      swap1\n      pop\n        /* \"Contract.sol\":5214:5237  arrayOfRequestedMembers */\n      0x08\n        /* \"Contract.sol\":5285:5286  1 */\n      0x01\n        /* \"Contract.sol\":5252:5275  arrayOfRequestedMembers */\n      0x08\n        /* \"Contract.sol\":5252:5282  arrayOfRequestedMembers.length */\n      dup1\n      sload\n      swap1\n      pop\n        /* \"Contract.sol\":5252:5286  arrayOfRequestedMembers.length - 1 */\n      tag_261\n      swap2\n      swap1\n      tag_262\n      jump\t// in\n    tag_261:\n        /* \"Contract.sol\":5214:5297  arrayOfRequestedMembers[... */\n      dup2\n      sload\n      dup2\n      lt\n      tag_263\n      jumpi\n      tag_264\n      tag_265\n      jump\t// in\n    tag_264:\n    tag_263:\n      swap1\n      0x00\n      mstore\n      keccak256(0x00, 0x20)\n      swap1\n      0x06\n      mul\n      add\n        /* \"Contract.sol\":5181:5204  arrayOfRequestedMembers */\n      0x08\n        /* \"Contract.sol\":5205:5210  index */\n      dup3\n        /* \"Contract.sol\":5181:5211  arrayOfRequestedMembers[index] */\n      dup2\n      sload\n      dup2\n      lt\n      tag_267\n      jumpi\n      tag_268\n      tag_265\n      jump\t// in\n    tag_268:\n    tag_267:\n      swap1\n      0x00\n      mstore\n      keccak256(0x00, 0x20)\n      swap1\n      0x06\n      mul\n      add\n        /* \"Contract.sol\":5181:5297  arrayOfRequestedMembers[index] = arrayOfRequestedMembers[... */\n      0x00\n      dup3\n      add\n      dup2\n      0x00\n      add\n      swap1\n      dup2\n      tag_270\n      swap2\n      swap1\n      tag_72\n      jump\t// in\n    tag_270:\n      pop\n      0x01\n      dup3\n      add\n      dup2\n      0x01\n      add\n      swap1\n      dup2\n      tag_271\n      swap2\n      swap1\n      tag_72\n      jump\t// in\n    tag_271:\n      pop\n      0x02\n      dup3\n      add\n      dup2\n      0x02\n      add\n      swap1\n      dup2\n      tag_272\n      swap2\n      swap1\n      tag_72\n      jump\t// in\n    tag_272:\n      pop\n      0x03\n      dup3\n      add\n      0x00\n      swap1\n      sload\n      swap1\n      0x0100\n      exp\n      swap1\n      div\n      0xffffffffffffffffffffffffffffffffffffffff\n      and\n      dup2\n      0x03\n      add\n      exp(0x0100, 0x00)\n      dup2\n      sload\n      dup2\n      0xffffffffffffffffffffffffffffffffffffffff\n      mul\n      not\n      and\n      swap1\n      dup4\n      0xffffffffffffffffffffffffffffffffffffffff\n      and\n      mul\n      or\n      swap1\n      sstore\n      pop\n      0x04\n      dup3\n      add\n      sload\n      dup2\n      0x04\n      add\n      sstore\n      0x05\n      dup3\n      add\n      dup2\n      0x05\n      add\n      swap1\n      dup1\n      sload\n      tag_273\n      swap3\n      swap2\n      swap1\n      tag_76\n      jump\t// in\n    tag_273:\n      pop\n      swap1\n      pop\n      pop\n        /* \"Contract.sol\":5308:5331  arrayOfRequestedMembers */\n      0x08\n        /* \"Contract.sol\":5308:5337  arrayOfRequestedMembers.pop() */\n      dup1\n      sload\n      dup1\n      tag_274\n      jumpi\n      tag_275\n      tag_276\n      jump\t// in\n    tag_275:\n    tag_274:\n      0x01\n      swap1\n      sub\n      dup2\n      dup2\n      swap1\n      0x00\n      mstore\n      keccak256(0x00, 0x20)\n      swap1\n      0x06\n      mul\n      add\n      0x00\n      dup1\n      dup3\n      add\n      0x00\n      tag_278\n      swap2\n      swap1\n      tag_279\n      jump\t// in\n    tag_278:\n      0x01\n      dup3\n      add\n      0x00\n      tag_280\n      swap2\n      swap1\n      tag_279\n      jump\t// in\n    tag_280:\n      0x02\n      dup3\n      add\n      0x00\n      tag_281\n      swap2\n      swap1\n      tag_279\n      jump\t// in\n    tag_281:\n      0x03\n      dup3\n      add\n      exp(0x0100, 0x00)\n      dup2\n      sload\n      swap1\n      0xffffffffffffffffffffffffffffffffffffffff\n      mul\n      not\n      and\n      swap1\n      sstore\n      0x04\n      dup3\n      add\n      0x00\n      swap1\n      sstore\n      0x05\n      dup3\n      add\n      0x00\n      tag_282\n      swap2\n      swap1\n      tag_283\n      jump\t// in\n    tag_282:\n      pop\n      pop\n      swap1\n      sstore\n        /* \"Contract.sol\":5113:5345  {... */\n      pop\n        /* \"Contract.sol\":5059:5345  function removeRequest(address _userAddress) internal {... */\n      pop\n      jump\t// out\n    tag_76:\n      dup3\n      dup1\n      sload\n      dup3\n      dup3\n      sstore\n      swap1\n      0x00\n      mstore\n      keccak256(0x00, 0x20)\n      swap1\n      dup2\n      add\n      swap3\n      dup3\n      iszero\n      tag_284\n      jumpi\n      0x00\n      mstore\n      keccak256(0x00, 0x20)\n      swap2\n      dup3\n      add\n    tag_285:\n      dup3\n      dup2\n      gt\n      iszero\n      tag_286\n      jumpi\n      dup3\n      dup3\n      swap1\n      dup2\n      tag_287\n      swap2\n      swap1\n      tag_72\n      jump\t// in\n    tag_287:\n      pop\n      swap2\n      0x01\n      add\n      swap2\n      swap1\n      0x01\n      add\n      swap1\n      jump(tag_285)\n    tag_286:\n    tag_284:\n      pop\n      swap1\n      pop\n      tag_288\n      swap2\n      swap1\n      tag_289\n      jump\t// in\n    tag_288:\n      pop\n      swap1\n      jump\t// out\n    tag_101:\n      mload(0x40)\n      dup1\n      0xc0\n      add\n      0x40\n      mstore\n      dup1\n      0x60\n      dup2\n      mstore\n      0x20\n      add\n      0x60\n      dup2\n      mstore\n      0x20\n      add\n      0x60\n      dup2\n      mstore\n      0x20\n      add\n      and(0xffffffffffffffffffffffffffffffffffffffff, 0x00)\n      dup2\n      mstore\n      0x20\n      add\n      0x00\n      dup2\n      mstore\n      0x20\n      add\n      0x60\n      dup2\n      mstore\n      pop\n      swap1\n      jump\t// out\n    tag_279:\n      pop\n      dup1\n      sload\n      tag_290\n      swap1\n      tag_105\n      jump\t// in\n    tag_290:\n      0x00\n      dup3\n      sstore\n      dup1\n      0x1f\n      lt\n      tag_292\n      jumpi\n      pop\n      jump(tag_291)\n    tag_292:\n      0x1f\n      add\n      0x20\n      swap1\n      div\n      swap1\n      0x00\n      mstore\n      keccak256(0x00, 0x20)\n      swap1\n      dup2\n      add\n      swap1\n      tag_293\n      swap2\n      swap1\n      tag_294\n      jump\t// in\n    tag_293:\n    tag_291:\n      pop\n      jump\t// out\n    tag_283:\n      pop\n      dup1\n      sload\n      0x00\n      dup3\n      sstore\n      swap1\n      0x00\n      mstore\n      keccak256(0x00, 0x20)\n      swap1\n      dup2\n      add\n      swap1\n      tag_296\n      swap2\n      swap1\n      tag_289\n      jump\t// in\n    tag_296:\n      pop\n      jump\t// out\n    tag_289:\n    tag_297:\n      dup1\n      dup3\n      gt\n      iszero\n      tag_298\n      jumpi\n      0x00\n      dup2\n      dup2\n      tag_299\n      swap2\n      swap1\n      tag_279\n      jump\t// in\n    tag_299:\n      pop\n      0x01\n      add\n      jump(tag_297)\n    tag_298:\n      pop\n      swap1\n      jump\t// out\n    tag_294:\n    tag_300:\n      dup1\n      dup3\n      gt\n      iszero\n      tag_301\n      jumpi\n      0x00\n      dup2\n      0x00\n      swap1\n      sstore\n      pop\n      0x01\n      add\n      jump(tag_300)\n    tag_301:\n      pop\n      swap1\n      jump\t// out\n        /* \"#utility.yul\":7:82   */\n    tag_302:\n        /* \"#utility.yul\":40:46   */\n      0x00\n        /* \"#utility.yul\":73:75   */\n      0x40\n        /* \"#utility.yul\":67:76   */\n      mload\n        /* \"#utility.yul\":57:76   */\n      swap1\n      pop\n        /* \"#utility.yul\":7:82   */\n      swap1\n      jump\t// out\n        /* \"#utility.yul\":88:205   */\n    tag_303:\n        /* \"#utility.yul\":197:198   */\n      0x00\n        /* \"#utility.yul\":194:195   */\n      dup1\n        /* \"#utility.yul\":187:199   */\n      revert\n        /* \"#utility.yul\":211:328   */\n    tag_304:\n        /* \"#utility.yul\":320:321   */\n      0x00\n        /* \"#utility.yul\":317:318   */\n      dup1\n        /* \"#utility.yul\":310:322   */\n      revert\n        /* \"#utility.yul\":334:460   */\n    tag_305:\n        /* \"#utility.yul\":371:378   */\n      0x00\n        /* \"#utility.yul\":411:453   */\n      0xffffffffffffffffffffffffffffffffffffffff\n        /* \"#utility.yul\":404:409   */\n      dup3\n        /* \"#utility.yul\":400:454   */\n      and\n        /* \"#utility.yul\":389:454   */\n      swap1\n      pop\n        /* \"#utility.yul\":334:460   */\n      swap2\n      swap1\n      pop\n      jump\t// out\n        /* \"#utility.yul\":466:562   */\n    tag_306:\n        /* \"#utility.yul\":503:510   */\n      0x00\n        /* \"#utility.yul\":532:556   */\n      tag_383\n        /* \"#utility.yul\":550:555   */\n      dup3\n        /* \"#utility.yul\":532:556   */\n      tag_305\n      jump\t// in\n    tag_383:\n        /* \"#utility.yul\":521:556   */\n      swap1\n      pop\n        /* \"#utility.yul\":466:562   */\n      swap2\n      swap1\n      pop\n      jump\t// out\n        /* \"#utility.yul\":568:690   */\n    tag_307:\n        /* \"#utility.yul\":641:665   */\n      tag_385\n        /* \"#utility.yul\":659:664   */\n      dup2\n        /* \"#utility.yul\":641:665   */\n      tag_306\n      jump\t// in\n    tag_385:\n        /* \"#utility.yul\":634:639   */\n      dup2\n        /* \"#utility.yul\":631:666   */\n      eq\n        /* \"#utility.yul\":621:684   */\n      tag_386\n      jumpi\n        /* \"#utility.yul\":680:681   */\n      0x00\n        /* \"#utility.yul\":677:678   */\n      dup1\n        /* \"#utility.yul\":670:682   */\n      revert\n        /* \"#utility.yul\":621:684   */\n    tag_386:\n        /* \"#utility.yul\":568:690   */\n      pop\n      jump\t// out\n        /* \"#utility.yul\":696:835   */\n    tag_308:\n        /* \"#utility.yul\":742:747   */\n      0x00\n        /* \"#utility.yul\":780:786   */\n      dup2\n        /* \"#utility.yul\":767:787   */\n      calldataload\n        /* \"#utility.yul\":758:787   */\n      swap1\n      pop\n        /* \"#utility.yul\":796:829   */\n      tag_388\n        /* \"#utility.yul\":823:828   */\n      dup2\n        /* \"#utility.yul\":796:829   */\n      tag_307\n      jump\t// in\n    tag_388:\n        /* \"#utility.yul\":696:835   */\n      swap3\n      swap2\n      pop\n      pop\n      jump\t// out\n        /* \"#utility.yul\":841:1170   */\n    tag_11:\n        /* \"#utility.yul\":900:906   */\n      0x00\n        /* \"#utility.yul\":949:951   */\n      0x20\n        /* \"#utility.yul\":937:946   */\n      dup3\n        /* \"#utility.yul\":928:935   */\n      dup5\n        /* \"#utility.yul\":924:947   */\n      sub\n        /* \"#utility.yul\":920:952   */\n      slt\n        /* \"#utility.yul\":917:1036   */\n      iszero\n      tag_390\n      jumpi\n        /* \"#utility.yul\":955:1034   */\n      tag_391\n      tag_303\n      jump\t// in\n    tag_391:\n        /* \"#utility.yul\":917:1036   */\n    tag_390:\n        /* \"#utility.yul\":1075:1076   */\n      0x00\n        /* \"#utility.yul\":1100:1153   */\n      tag_392\n        /* \"#utility.yul\":1145:1152   */\n      dup5\n        /* \"#utility.yul\":1136:1142   */\n      dup3\n        /* \"#utility.yul\":1125:1134   */\n      dup6\n        /* \"#utility.yul\":1121:1143   */\n      add\n        /* \"#utility.yul\":1100:1153   */\n      tag_308\n      jump\t// in\n    tag_392:\n        /* \"#utility.yul\":1090:1153   */\n      swap2\n      pop\n        /* \"#utility.yul\":1046:1163   */\n      pop\n        /* \"#utility.yul\":841:1170   */\n      swap3\n      swap2\n      pop\n      pop\n      jump\t// out\n        /* \"#utility.yul\":1176:1266   */\n    tag_309:\n        /* \"#utility.yul\":1210:1217   */\n      0x00\n        /* \"#utility.yul\":1253:1258   */\n      dup2\n        /* \"#utility.yul\":1246:1259   */\n      iszero\n        /* \"#utility.yul\":1239:1260   */\n      iszero\n        /* \"#utility.yul\":1228:1260   */\n      swap1\n      pop\n        /* \"#utility.yul\":1176:1266   */\n      swap2\n      swap1\n      pop\n      jump\t// out\n        /* \"#utility.yul\":1272:1381   */\n    tag_310:\n        /* \"#utility.yul\":1353:1374   */\n      tag_395\n        /* \"#utility.yul\":1368:1373   */\n      dup2\n        /* \"#utility.yul\":1353:1374   */\n      tag_309\n      jump\t// in\n    tag_395:\n        /* \"#utility.yul\":1348:1351   */\n      dup3\n        /* \"#utility.yul\":1341:1375   */\n      mstore\n        /* \"#utility.yul\":1272:1381   */\n      pop\n      pop\n      jump\t// out\n        /* \"#utility.yul\":1387:1597   */\n    tag_14:\n        /* \"#utility.yul\":1474:1478   */\n      0x00\n        /* \"#utility.yul\":1512:1514   */\n      0x20\n        /* \"#utility.yul\":1501:1510   */\n      dup3\n        /* \"#utility.yul\":1497:1515   */\n      add\n        /* \"#utility.yul\":1489:1515   */\n      swap1\n      pop\n        /* \"#utility.yul\":1525:1590   */\n      tag_397\n        /* \"#utility.yul\":1587:1588   */\n      0x00\n        /* \"#utility.yul\":1576:1585   */\n      dup4\n        /* \"#utility.yul\":1572:1589   */\n      add\n        /* \"#utility.yul\":1563:1569   */\n      dup5\n        /* \"#utility.yul\":1525:1590   */\n      tag_310\n      jump\t// in\n    tag_397:\n        /* \"#utility.yul\":1387:1597   */\n      swap3\n      swap2\n      pop\n      pop\n      jump\t// out\n        /* \"#utility.yul\":1603:1720   */\n    tag_311:\n        /* \"#utility.yul\":1712:1713   */\n      0x00\n        /* \"#utility.yul\":1709:1710   */\n      dup1\n        /* \"#utility.yul\":1702:1714   */\n      revert\n        /* \"#utility.yul\":1726:1843   */\n    tag_312:\n        /* \"#utility.yul\":1835:1836   */\n      0x00\n        /* \"#utility.yul\":1832:1833   */\n      dup1\n        /* \"#utility.yul\":1825:1837   */\n      revert\n        /* \"#utility.yul\":1849:1951   */\n    tag_313:\n        /* \"#utility.yul\":1890:1896   */\n      0x00\n        /* \"#utility.yul\":1941:1943   */\n      0x1f\n        /* \"#utility.yul\":1937:1944   */\n      not\n        /* \"#utility.yul\":1932:1934   */\n      0x1f\n        /* \"#utility.yul\":1925:1930   */\n      dup4\n        /* \"#utility.yul\":1921:1935   */\n      add\n        /* \"#utility.yul\":1917:1945   */\n      and\n        /* \"#utility.yul\":1907:1945   */\n      swap1\n      pop\n        /* \"#utility.yul\":1849:1951   */\n      swap2\n      swap1\n      pop\n      jump\t// out\n        /* \"#utility.yul\":1957:2137   */\n    tag_314:\n        /* \"#utility.yul\":2005:2082   */\n      0x4e487b7100000000000000000000000000000000000000000000000000000000\n        /* \"#utility.yul\":2002:2003   */\n      0x00\n        /* \"#utility.yul\":1995:2083   */\n      mstore\n        /* \"#utility.yul\":2102:2106   */\n      0x41\n        /* \"#utility.yul\":2099:2100   */\n      0x04\n        /* \"#utility.yul\":2092:2107   */\n      mstore\n        /* \"#utility.yul\":2126:2130   */\n      0x24\n        /* \"#utility.yul\":2123:2124   */\n      0x00\n        /* \"#utility.yul\":2116:2131   */\n      revert\n        /* \"#utility.yul\":2143:2424   */\n    tag_315:\n        /* \"#utility.yul\":2226:2253   */\n      tag_403\n        /* \"#utility.yul\":2248:2252   */\n      dup3\n        /* \"#utility.yul\":2226:2253   */\n      tag_313\n      jump\t// in\n    tag_403:\n        /* \"#utility.yul\":2218:2224   */\n      dup2\n        /* \"#utility.yul\":2214:2254   */\n      add\n        /* \"#utility.yul\":2356:2362   */\n      dup2\n        /* \"#utility.yul\":2344:2354   */\n      dup2\n        /* \"#utility.yul\":2341:2363   */\n      lt\n        /* \"#utility.yul\":2320:2338   */\n      0xffffffffffffffff\n        /* \"#utility.yul\":2308:2318   */\n      dup3\n        /* \"#utility.yul\":2305:2339   */\n      gt\n        /* \"#utility.yul\":2302:2364   */\n      or\n        /* \"#utility.yul\":2299:2387   */\n      iszero\n      tag_404\n      jumpi\n        /* \"#utility.yul\":2367:2385   */\n      tag_405\n      tag_314\n      jump\t// in\n    tag_405:\n        /* \"#utility.yul\":2299:2387   */\n    tag_404:\n        /* \"#utility.yul\":2407:2417   */\n      dup1\n        /* \"#utility.yul\":2403:2405   */\n      0x40\n        /* \"#utility.yul\":2396:2418   */\n      mstore\n        /* \"#utility.yul\":2186:2424   */\n      pop\n        /* \"#utility.yul\":2143:2424   */\n      pop\n      pop\n      jump\t// out\n        /* \"#utility.yul\":2430:2559   */\n    tag_316:\n        /* \"#utility.yul\":2464:2470   */\n      0x00\n        /* \"#utility.yul\":2491:2511   */\n      tag_407\n      tag_302\n      jump\t// in\n    tag_407:\n        /* \"#utility.yul\":2481:2511   */\n      swap1\n      pop\n        /* \"#utility.yul\":2520:2553   */\n      tag_408\n        /* \"#utility.yul\":2548:2552   */\n      dup3\n        /* \"#utility.yul\":2540:2546   */\n      dup3\n        /* \"#utility.yul\":2520:2553   */\n      tag_315\n      jump\t// in\n    tag_408:\n        /* \"#utility.yul\":2430:2559   */\n      swap2\n      swap1\n      pop\n      jump\t// out\n        /* \"#utility.yul\":2565:2873   */\n    tag_317:\n        /* \"#utility.yul\":2627:2631   */\n      0x00\n        /* \"#utility.yul\":2717:2735   */\n      0xffffffffffffffff\n        /* \"#utility.yul\":2709:2715   */\n      dup3\n        /* \"#utility.yul\":2706:2736   */\n      gt\n        /* \"#utility.yul\":2703:2759   */\n      iszero\n      tag_410\n      jumpi\n        /* \"#utility.yul\":2739:2757   */\n      tag_411\n      tag_314\n      jump\t// in\n    tag_411:\n        /* \"#utility.yul\":2703:2759   */\n    tag_410:\n        /* \"#utility.yul\":2777:2806   */\n      tag_412\n        /* \"#utility.yul\":2799:2805   */\n      dup3\n        /* \"#utility.yul\":2777:2806   */\n      tag_313\n      jump\t// in\n    tag_412:\n        /* \"#utility.yul\":2769:2806   */\n      swap1\n      pop\n        /* \"#utility.yul\":2861:2865   */\n      0x20\n        /* \"#utility.yul\":2855:2859   */\n      dup2\n        /* \"#utility.yul\":2851:2866   */\n      add\n        /* \"#utility.yul\":2843:2866   */\n      swap1\n      pop\n        /* \"#utility.yul\":2565:2873   */\n      swap2\n      swap1\n      pop\n      jump\t// out\n        /* \"#utility.yul\":2879:3025   */\n    tag_318:\n        /* \"#utility.yul\":2976:2982   */\n      dup3\n        /* \"#utility.yul\":2971:2974   */\n      dup2\n        /* \"#utility.yul\":2966:2969   */\n      dup4\n        /* \"#utility.yul\":2953:2983   */\n      calldatacopy\n        /* \"#utility.yul\":3017:3018   */\n      0x00\n        /* \"#utility.yul\":3008:3014   */\n      dup4\n        /* \"#utility.yul\":3003:3006   */\n      dup4\n        /* \"#utility.yul\":2999:3015   */\n      add\n        /* \"#utility.yul\":2992:3019   */\n      mstore\n        /* \"#utility.yul\":2879:3025   */\n      pop\n      pop\n      pop\n      jump\t// out\n        /* \"#utility.yul\":3031:3456   */\n    tag_319:\n        /* \"#utility.yul\":3109:3114   */\n      0x00\n        /* \"#utility.yul\":3134:3200   */\n      tag_415\n        /* \"#utility.yul\":3150:3199   */\n      tag_416\n        /* \"#utility.yul\":3192:3198   */\n      dup5\n        /* \"#utility.yul\":3150:3199   */\n      tag_317\n      jump\t// in\n    tag_416:\n        /* \"#utility.yul\":3134:3200   */\n      tag_316\n      jump\t// in\n    tag_415:\n        /* \"#utility.yul\":3125:3200   */\n      swap1\n      pop\n        /* \"#utility.yul\":3223:3229   */\n      dup3\n        /* \"#utility.yul\":3216:3221   */\n      dup2\n        /* \"#utility.yul\":3209:3230   */\n      mstore\n        /* \"#utility.yul\":3261:3265   */\n      0x20\n        /* \"#utility.yul\":3254:3259   */\n      dup2\n        /* \"#utility.yul\":3250:3266   */\n      add\n        /* \"#utility.yul\":3299:3302   */\n      dup5\n        /* \"#utility.yul\":3290:3296   */\n      dup5\n        /* \"#utility.yul\":3285:3288   */\n      dup5\n        /* \"#utility.yul\":3281:3297   */\n      add\n        /* \"#utility.yul\":3278:3303   */\n      gt\n        /* \"#utility.yul\":3275:3387   */\n      iszero\n      tag_417\n      jumpi\n        /* \"#utility.yul\":3306:3385   */\n      tag_418\n      tag_312\n      jump\t// in\n    tag_418:\n        /* \"#utility.yul\":3275:3387   */\n    tag_417:\n        /* \"#utility.yul\":3396:3450   */\n      tag_419\n        /* \"#utility.yul\":3443:3449   */\n      dup5\n        /* \"#utility.yul\":3438:3441   */\n      dup3\n        /* \"#utility.yul\":3433:3436   */\n      dup6\n        /* \"#utility.yul\":3396:3450   */\n      tag_318\n      jump\t// in\n    tag_419:\n        /* \"#utility.yul\":3115:3456   */\n      pop\n        /* \"#utility.yul\":3031:3456   */\n      swap4\n      swap3\n      pop\n      pop\n      pop\n      jump\t// out\n        /* \"#utility.yul\":3476:3816   */\n    tag_320:\n        /* \"#utility.yul\":3532:3537   */\n      0x00\n        /* \"#utility.yul\":3581:3584   */\n      dup3\n        /* \"#utility.yul\":3574:3578   */\n      0x1f\n        /* \"#utility.yul\":3566:3572   */\n      dup4\n        /* \"#utility.yul\":3562:3579   */\n      add\n        /* \"#utility.yul\":3558:3585   */\n      slt\n        /* \"#utility.yul\":3548:3670   */\n      tag_421\n      jumpi\n        /* \"#utility.yul\":3589:3668   */\n      tag_422\n      tag_311\n      jump\t// in\n    tag_422:\n        /* \"#utility.yul\":3548:3670   */\n    tag_421:\n        /* \"#utility.yul\":3706:3712   */\n      dup2\n        /* \"#utility.yul\":3693:3713   */\n      calldataload\n        /* \"#utility.yul\":3731:3810   */\n      tag_423\n        /* \"#utility.yul\":3806:3809   */\n      dup5\n        /* \"#utility.yul\":3798:3804   */\n      dup3\n        /* \"#utility.yul\":3791:3795   */\n      0x20\n        /* \"#utility.yul\":3783:3789   */\n      dup7\n        /* \"#utility.yul\":3779:3796   */\n      add\n        /* \"#utility.yul\":3731:3810   */\n      tag_319\n      jump\t// in\n    tag_423:\n        /* \"#utility.yul\":3722:3810   */\n      swap2\n      pop\n        /* \"#utility.yul\":3538:3816   */\n      pop\n        /* \"#utility.yul\":3476:3816   */\n      swap3\n      swap2\n      pop\n      pop\n      jump\t// out\n        /* \"#utility.yul\":3822:3938   */\n    tag_321:\n        /* \"#utility.yul\":3892:3913   */\n      tag_425\n        /* \"#utility.yul\":3907:3912   */\n      dup2\n        /* \"#utility.yul\":3892:3913   */\n      tag_309\n      jump\t// in\n    tag_425:\n        /* \"#utility.yul\":3885:3890   */\n      dup2\n        /* \"#utility.yul\":3882:3914   */\n      eq\n        /* \"#utility.yul\":3872:3932   */\n      tag_426\n      jumpi\n        /* \"#utility.yul\":3928:3929   */\n      0x00\n        /* \"#utility.yul\":3925:3926   */\n      dup1\n        /* \"#utility.yul\":3918:3930   */\n      revert\n        /* \"#utility.yul\":3872:3932   */\n    tag_426:\n        /* \"#utility.yul\":3822:3938   */\n      pop\n      jump\t// out\n        /* \"#utility.yul\":3944:4077   */\n    tag_322:\n        /* \"#utility.yul\":3987:3992   */\n      0x00\n        /* \"#utility.yul\":4025:4031   */\n      dup2\n        /* \"#utility.yul\":4012:4032   */\n      calldataload\n        /* \"#utility.yul\":4003:4032   */\n      swap1\n      pop\n        /* \"#utility.yul\":4041:4071   */\n      tag_428\n        /* \"#utility.yul\":4065:4070   */\n      dup2\n        /* \"#utility.yul\":4041:4071   */\n      tag_321\n      jump\t// in\n    tag_428:\n        /* \"#utility.yul\":3944:4077   */\n      swap3\n      swap2\n      pop\n      pop\n      jump\t// out\n        /* \"#utility.yul\":4083:5528   */\n    tag_18:\n        /* \"#utility.yul\":4205:4211   */\n      0x00\n        /* \"#utility.yul\":4213:4219   */\n      dup1\n        /* \"#utility.yul\":4221:4227   */\n      0x00\n        /* \"#utility.yul\":4229:4235   */\n      dup1\n        /* \"#utility.yul\":4237:4243   */\n      0x00\n        /* \"#utility.yul\":4286:4289   */\n      0xa0\n        /* \"#utility.yul\":4274:4283   */\n      dup7\n        /* \"#utility.yul\":4265:4272   */\n      dup9\n        /* \"#utility.yul\":4261:4284   */\n      sub\n        /* \"#utility.yul\":4257:4290   */\n      slt\n        /* \"#utility.yul\":4254:4374   */\n      iszero\n      tag_430\n      jumpi\n        /* \"#utility.yul\":4293:4372   */\n      tag_431\n      tag_303\n      jump\t// in\n    tag_431:\n        /* \"#utility.yul\":4254:4374   */\n    tag_430:\n        /* \"#utility.yul\":4441:4442   */\n      0x00\n        /* \"#utility.yul\":4430:4439   */\n      dup7\n        /* \"#utility.yul\":4426:4443   */\n      add\n        /* \"#utility.yul\":4413:4444   */\n      calldataload\n        /* \"#utility.yul\":4471:4489   */\n      0xffffffffffffffff\n        /* \"#utility.yul\":4463:4469   */\n      dup2\n        /* \"#utility.yul\":4460:4490   */\n      gt\n        /* \"#utility.yul\":4457:4574   */\n      iszero\n      tag_432\n      jumpi\n        /* \"#utility.yul\":4493:4572   */\n      tag_433\n      tag_304\n      jump\t// in\n    tag_433:\n        /* \"#utility.yul\":4457:4574   */\n    tag_432:\n        /* \"#utility.yul\":4598:4661   */\n      tag_434\n        /* \"#utility.yul\":4653:4660   */\n      dup9\n        /* \"#utility.yul\":4644:4650   */\n      dup3\n        /* \"#utility.yul\":4633:4642   */\n      dup10\n        /* \"#utility.yul\":4629:4651   */\n      add\n        /* \"#utility.yul\":4598:4661   */\n      tag_320\n      jump\t// in\n    tag_434:\n        /* \"#utility.yul\":4588:4661   */\n      swap6\n      pop\n        /* \"#utility.yul\":4384:4671   */\n      pop\n        /* \"#utility.yul\":4738:4740   */\n      0x20\n        /* \"#utility.yul\":4727:4736   */\n      dup7\n        /* \"#utility.yul\":4723:4741   */\n      add\n        /* \"#utility.yul\":4710:4742   */\n      calldataload\n        /* \"#utility.yul\":4769:4787   */\n      0xffffffffffffffff\n        /* \"#utility.yul\":4761:4767   */\n      dup2\n        /* \"#utility.yul\":4758:4788   */\n      gt\n        /* \"#utility.yul\":4755:4872   */\n      iszero\n      tag_435\n      jumpi\n        /* \"#utility.yul\":4791:4870   */\n      tag_436\n      tag_304\n      jump\t// in\n    tag_436:\n        /* \"#utility.yul\":4755:4872   */\n    tag_435:\n        /* \"#utility.yul\":4896:4959   */\n      tag_437\n        /* \"#utility.yul\":4951:4958   */\n      dup9\n        /* \"#utility.yul\":4942:4948   */\n      dup3\n        /* \"#utility.yul\":4931:4940   */\n      dup10\n        /* \"#utility.yul\":4927:4949   */\n      add\n        /* \"#utility.yul\":4896:4959   */\n      tag_320\n      jump\t// in\n    tag_437:\n        /* \"#utility.yul\":4886:4959   */\n      swap5\n      pop\n        /* \"#utility.yul\":4681:4969   */\n      pop\n        /* \"#utility.yul\":5036:5038   */\n      0x40\n        /* \"#utility.yul\":5025:5034   */\n      dup7\n        /* \"#utility.yul\":5021:5039   */\n      add\n        /* \"#utility.yul\":5008:5040   */\n      calldataload\n        /* \"#utility.yul\":5067:5085   */\n      0xffffffffffffffff\n        /* \"#utility.yul\":5059:5065   */\n      dup2\n        /* \"#utility.yul\":5056:5086   */\n      gt\n        /* \"#utility.yul\":5053:5170   */\n      iszero\n      tag_438\n      jumpi\n        /* \"#utility.yul\":5089:5168   */\n      tag_439\n      tag_304\n      jump\t// in\n    tag_439:\n        /* \"#utility.yul\":5053:5170   */\n    tag_438:\n        /* \"#utility.yul\":5194:5257   */\n      tag_440\n        /* \"#utility.yul\":5249:5256   */\n      dup9\n        /* \"#utility.yul\":5240:5246   */\n      dup3\n        /* \"#utility.yul\":5229:5238   */\n      dup10\n        /* \"#utility.yul\":5225:5247   */\n      add\n        /* \"#utility.yul\":5194:5257   */\n      tag_320\n      jump\t// in\n    tag_440:\n        /* \"#utility.yul\":5184:5257   */\n      swap4\n      pop\n        /* \"#utility.yul\":4979:5267   */\n      pop\n        /* \"#utility.yul\":5306:5308   */\n      0x60\n        /* \"#utility.yul\":5332:5385   */\n      tag_441\n        /* \"#utility.yul\":5377:5384   */\n      dup9\n        /* \"#utility.yul\":5368:5374   */\n      dup3\n        /* \"#utility.yul\":5357:5366   */\n      dup10\n        /* \"#utility.yul\":5353:5375   */\n      add\n        /* \"#utility.yul\":5332:5385   */\n      tag_308\n      jump\t// in\n    tag_441:\n        /* \"#utility.yul\":5322:5385   */\n      swap3\n      pop\n        /* \"#utility.yul\":5277:5395   */\n      pop\n        /* \"#utility.yul\":5434:5437   */\n      0x80\n        /* \"#utility.yul\":5461:5511   */\n      tag_442\n        /* \"#utility.yul\":5503:5510   */\n      dup9\n        /* \"#utility.yul\":5494:5500   */\n      dup3\n        /* \"#utility.yul\":5483:5492   */\n      dup10\n        /* \"#utility.yul\":5479:5501   */\n      add\n        /* \"#utility.yul\":5461:5511   */\n      tag_322\n      jump\t// in\n    tag_442:\n        /* \"#utility.yul\":5451:5511   */\n      swap2\n      pop\n        /* \"#utility.yul\":5405:5521   */\n      pop\n        /* \"#utility.yul\":4083:5528   */\n      swap3\n      swap6\n      pop\n      swap3\n      swap6\n      swap1\n      swap4\n      pop\n      jump\t// out\n        /* \"#utility.yul\":5534:6002   */\n    tag_25:\n        /* \"#utility.yul\":5599:5605   */\n      0x00\n        /* \"#utility.yul\":5607:5613   */\n      dup1\n        /* \"#utility.yul\":5656:5658   */\n      0x40\n        /* \"#utility.yul\":5644:5653   */\n      dup4\n        /* \"#utility.yul\":5635:5642   */\n      dup6\n        /* \"#utility.yul\":5631:5654   */\n      sub\n        /* \"#utility.yul\":5627:5659   */\n      slt\n        /* \"#utility.yul\":5624:5743   */\n      iszero\n      tag_444\n      jumpi\n        /* \"#utility.yul\":5662:5741   */\n      tag_445\n      tag_303\n      jump\t// in\n    tag_445:\n        /* \"#utility.yul\":5624:5743   */\n    tag_444:\n        /* \"#utility.yul\":5782:5783   */\n      0x00\n        /* \"#utility.yul\":5807:5860   */\n      tag_446\n        /* \"#utility.yul\":5852:5859   */\n      dup6\n        /* \"#utility.yul\":5843:5849   */\n      dup3\n        /* \"#utility.yul\":5832:5841   */\n      dup7\n        /* \"#utility.yul\":5828:5850   */\n      add\n        /* \"#utility.yul\":5807:5860   */\n      tag_308\n      jump\t// in\n    tag_446:\n        /* \"#utility.yul\":5797:5860   */\n      swap3\n      pop\n        /* \"#utility.yul\":5753:5870   */\n      pop\n        /* \"#utility.yul\":5909:5911   */\n      0x20\n        /* \"#utility.yul\":5935:5985   */\n      tag_447\n        /* \"#utility.yul\":5977:5984   */\n      dup6\n        /* \"#utility.yul\":5968:5974   */\n      dup3\n        /* \"#utility.yul\":5957:5966   */\n      dup7\n        /* \"#utility.yul\":5953:5975   */\n      add\n        /* \"#utility.yul\":5935:5985   */\n      tag_322\n      jump\t// in\n    tag_447:\n        /* \"#utility.yul\":5925:5985   */\n      swap2\n      pop\n        /* \"#utility.yul\":5880:5995   */\n      pop\n        /* \"#utility.yul\":5534:6002   */\n      swap3\n      pop\n      swap3\n      swap1\n      pop\n      jump\t// out\n        /* \"#utility.yul\":6008:6107   */\n    tag_323:\n        /* \"#utility.yul\":6060:6066   */\n      0x00\n        /* \"#utility.yul\":6094:6099   */\n      dup2\n        /* \"#utility.yul\":6088:6100   */\n      mload\n        /* \"#utility.yul\":6078:6100   */\n      swap1\n      pop\n        /* \"#utility.yul\":6008:6107   */\n      swap2\n      swap1\n      pop\n      jump\t// out\n        /* \"#utility.yul\":6113:6272   */\n    tag_324:\n        /* \"#utility.yul\":6187:6198   */\n      0x00\n        /* \"#utility.yul\":6221:6227   */\n      dup3\n        /* \"#utility.yul\":6216:6219   */\n      dup3\n        /* \"#utility.yul\":6209:6228   */\n      mstore\n        /* \"#utility.yul\":6261:6265   */\n      0x20\n        /* \"#utility.yul\":6256:6259   */\n      dup3\n        /* \"#utility.yul\":6252:6266   */\n      add\n        /* \"#utility.yul\":6237:6266   */\n      swap1\n      pop\n        /* \"#utility.yul\":6113:6272   */\n      swap3\n      swap2\n      pop\n      pop\n      jump\t// out\n        /* \"#utility.yul\":6278:6524   */\n    tag_325:\n        /* \"#utility.yul\":6359:6360   */\n      0x00\n        /* \"#utility.yul\":6369:6482   */\n    tag_451:\n        /* \"#utility.yul\":6383:6389   */\n      dup4\n        /* \"#utility.yul\":6380:6381   */\n      dup2\n        /* \"#utility.yul\":6377:6390   */\n      lt\n        /* \"#utility.yul\":6369:6482   */\n      iszero\n      tag_453\n      jumpi\n        /* \"#utility.yul\":6468:6469   */\n      dup1\n        /* \"#utility.yul\":6463:6466   */\n      dup3\n        /* \"#utility.yul\":6459:6470   */\n      add\n        /* \"#utility.yul\":6453:6471   */\n      mload\n        /* \"#utility.yul\":6449:6450   */\n      dup2\n        /* \"#utility.yul\":6444:6447   */\n      dup5\n        /* \"#utility.yul\":6440:6451   */\n      add\n        /* \"#utility.yul\":6433:6472   */\n      mstore\n        /* \"#utility.yul\":6405:6407   */\n      0x20\n        /* \"#utility.yul\":6402:6403   */\n      dup2\n        /* \"#utility.yul\":6398:6408   */\n      add\n        /* \"#utility.yul\":6393:6408   */\n      swap1\n      pop\n        /* \"#utility.yul\":6369:6482   */\n      jump(tag_451)\n    tag_453:\n        /* \"#utility.yul\":6516:6517   */\n      0x00\n        /* \"#utility.yul\":6507:6513   */\n      dup5\n        /* \"#utility.yul\":6502:6505   */\n      dup5\n        /* \"#utility.yul\":6498:6514   */\n      add\n        /* \"#utility.yul\":6491:6518   */\n      mstore\n        /* \"#utility.yul\":6340:6524   */\n      pop\n        /* \"#utility.yul\":6278:6524   */\n      pop\n      pop\n      pop\n      jump\t// out\n        /* \"#utility.yul\":6530:6887   */\n    tag_326:\n        /* \"#utility.yul\":6608:6611   */\n      0x00\n        /* \"#utility.yul\":6636:6675   */\n      tag_455\n        /* \"#utility.yul\":6669:6674   */\n      dup3\n        /* \"#utility.yul\":6636:6675   */\n      tag_323\n      jump\t// in\n    tag_455:\n        /* \"#utility.yul\":6691:6752   */\n      tag_456\n        /* \"#utility.yul\":6745:6751   */\n      dup2\n        /* \"#utility.yul\":6740:6743   */\n      dup6\n        /* \"#utility.yul\":6691:6752   */\n      tag_324\n      jump\t// in\n    tag_456:\n        /* \"#utility.yul\":6684:6752   */\n      swap4\n      pop\n        /* \"#utility.yul\":6761:6826   */\n      tag_457\n        /* \"#utility.yul\":6819:6825   */\n      dup2\n        /* \"#utility.yul\":6814:6817   */\n      dup6\n        /* \"#utility.yul\":6807:6811   */\n      0x20\n        /* \"#utility.yul\":6800:6805   */\n      dup7\n        /* \"#utility.yul\":6796:6812   */\n      add\n        /* \"#utility.yul\":6761:6826   */\n      tag_325\n      jump\t// in\n    tag_457:\n        /* \"#utility.yul\":6851:6880   */\n      tag_458\n        /* \"#utility.yul\":6873:6879   */\n      dup2\n        /* \"#utility.yul\":6851:6880   */\n      tag_313\n      jump\t// in\n    tag_458:\n        /* \"#utility.yul\":6846:6849   */\n      dup5\n        /* \"#utility.yul\":6842:6881   */\n      add\n        /* \"#utility.yul\":6835:6881   */\n      swap2\n      pop\n        /* \"#utility.yul\":6612:6887   */\n      pop\n        /* \"#utility.yul\":6530:6887   */\n      swap3\n      swap2\n      pop\n      pop\n      jump\t// out\n        /* \"#utility.yul\":6893:7001   */\n    tag_327:\n        /* \"#utility.yul\":6970:6994   */\n      tag_460\n        /* \"#utility.yul\":6988:6993   */\n      dup2\n        /* \"#utility.yul\":6970:6994   */\n      tag_306\n      jump\t// in\n    tag_460:\n        /* \"#utility.yul\":6965:6968   */\n      dup3\n        /* \"#utility.yul\":6958:6995   */\n      mstore\n        /* \"#utility.yul\":6893:7001   */\n      pop\n      pop\n      jump\t// out\n        /* \"#utility.yul\":7007:7084   */\n    tag_328:\n        /* \"#utility.yul\":7044:7051   */\n      0x00\n        /* \"#utility.yul\":7073:7078   */\n      dup2\n        /* \"#utility.yul\":7062:7078   */\n      swap1\n      pop\n        /* \"#utility.yul\":7007:7084   */\n      swap2\n      swap1\n      pop\n      jump\t// out\n        /* \"#utility.yul\":7090:7198   */\n    tag_329:\n        /* \"#utility.yul\":7167:7191   */\n      tag_463\n        /* \"#utility.yul\":7185:7190   */\n      dup2\n        /* \"#utility.yul\":7167:7191   */\n      tag_328\n      jump\t// in\n    tag_463:\n        /* \"#utility.yul\":7162:7165   */\n      dup3\n        /* \"#utility.yul\":7155:7192   */\n      mstore\n        /* \"#utility.yul\":7090:7198   */\n      pop\n      pop\n      jump\t// out\n        /* \"#utility.yul\":7204:7328   */\n    tag_330:\n        /* \"#utility.yul\":7281:7287   */\n      0x00\n        /* \"#utility.yul\":7315:7320   */\n      dup2\n        /* \"#utility.yul\":7309:7321   */\n      mload\n        /* \"#utility.yul\":7299:7321   */\n      swap1\n      pop\n        /* \"#utility.yul\":7204:7328   */\n      swap2\n      swap1\n      pop\n      jump\t// out\n        /* \"#utility.yul\":7334:7518   */\n    tag_331:\n        /* \"#utility.yul\":7433:7444   */\n      0x00\n        /* \"#utility.yul\":7467:7473   */\n      dup3\n        /* \"#utility.yul\":7462:7465   */\n      dup3\n        /* \"#utility.yul\":7455:7474   */\n      mstore\n        /* \"#utility.yul\":7507:7511   */\n      0x20\n        /* \"#utility.yul\":7502:7505   */\n      dup3\n        /* \"#utility.yul\":7498:7512   */\n      add\n        /* \"#utility.yul\":7483:7512   */\n      swap1\n      pop\n        /* \"#utility.yul\":7334:7518   */\n      swap3\n      swap2\n      pop\n      pop\n      jump\t// out\n        /* \"#utility.yul\":7524:7666   */\n    tag_332:\n        /* \"#utility.yul\":7601:7605   */\n      0x00\n        /* \"#utility.yul\":7624:7627   */\n      dup2\n        /* \"#utility.yul\":7616:7627   */\n      swap1\n      pop\n        /* \"#utility.yul\":7654:7658   */\n      0x20\n        /* \"#utility.yul\":7649:7652   */\n      dup3\n        /* \"#utility.yul\":7645:7659   */\n      add\n        /* \"#utility.yul\":7637:7659   */\n      swap1\n      pop\n        /* \"#utility.yul\":7524:7666   */\n      swap2\n      swap1\n      pop\n      jump\t// out\n        /* \"#utility.yul\":7672:7868   */\n    tag_333:\n        /* \"#utility.yul\":7761:7771   */\n      0x00\n        /* \"#utility.yul\":7796:7862   */\n      tag_468\n        /* \"#utility.yul\":7858:7861   */\n      dup4\n        /* \"#utility.yul\":7850:7856   */\n      dup4\n        /* \"#utility.yul\":7796:7862   */\n      tag_326\n      jump\t// in\n    tag_468:\n        /* \"#utility.yul\":7782:7862   */\n      swap1\n      pop\n        /* \"#utility.yul\":7672:7868   */\n      swap3\n      swap2\n      pop\n      pop\n      jump\t// out\n        /* \"#utility.yul\":7874:7997   */\n    tag_334:\n        /* \"#utility.yul\":7954:7958   */\n      0x00\n        /* \"#utility.yul\":7986:7990   */\n      0x20\n        /* \"#utility.yul\":7981:7984   */\n      dup3\n        /* \"#utility.yul\":7977:7991   */\n      add\n        /* \"#utility.yul\":7969:7991   */\n      swap1\n      pop\n        /* \"#utility.yul\":7874:7997   */\n      swap2\n      swap1\n      pop\n      jump\t// out\n        /* \"#utility.yul\":8031:9002   */\n    tag_335:\n        /* \"#utility.yul\":8160:8163   */\n      0x00\n        /* \"#utility.yul\":8189:8253   */\n      tag_471\n        /* \"#utility.yul\":8247:8252   */\n      dup3\n        /* \"#utility.yul\":8189:8253   */\n      tag_330\n      jump\t// in\n    tag_471:\n        /* \"#utility.yul\":8269:8355   */\n      tag_472\n        /* \"#utility.yul\":8348:8354   */\n      dup2\n        /* \"#utility.yul\":8343:8346   */\n      dup6\n        /* \"#utility.yul\":8269:8355   */\n      tag_331\n      jump\t// in\n    tag_472:\n        /* \"#utility.yul\":8262:8355   */\n      swap4\n      pop\n        /* \"#utility.yul\":8381:8384   */\n      dup4\n        /* \"#utility.yul\":8426:8430   */\n      0x20\n        /* \"#utility.yul\":8418:8424   */\n      dup3\n        /* \"#utility.yul\":8414:8431   */\n      mul\n        /* \"#utility.yul\":8409:8412   */\n      dup6\n        /* \"#utility.yul\":8405:8432   */\n      add\n        /* \"#utility.yul\":8456:8522   */\n      tag_473\n        /* \"#utility.yul\":8516:8521   */\n      dup6\n        /* \"#utility.yul\":8456:8522   */\n      tag_332\n      jump\t// in\n    tag_473:\n        /* \"#utility.yul\":8545:8552   */\n      dup1\n        /* \"#utility.yul\":8576:8577   */\n      0x00\n        /* \"#utility.yul\":8561:8957   */\n    tag_474:\n        /* \"#utility.yul\":8586:8592   */\n      dup6\n        /* \"#utility.yul\":8583:8584   */\n      dup2\n        /* \"#utility.yul\":8580:8593   */\n      lt\n        /* \"#utility.yul\":8561:8957   */\n      iszero\n      tag_476\n      jumpi\n        /* \"#utility.yul\":8657:8666   */\n      dup5\n        /* \"#utility.yul\":8651:8655   */\n      dup5\n        /* \"#utility.yul\":8647:8667   */\n      sub\n        /* \"#utility.yul\":8642:8645   */\n      dup10\n        /* \"#utility.yul\":8635:8668   */\n      mstore\n        /* \"#utility.yul\":8708:8714   */\n      dup2\n        /* \"#utility.yul\":8702:8715   */\n      mload\n        /* \"#utility.yul\":8736:8820   */\n      tag_477\n        /* \"#utility.yul\":8815:8819   */\n      dup6\n        /* \"#utility.yul\":8800:8813   */\n      dup3\n        /* \"#utility.yul\":8736:8820   */\n      tag_333\n      jump\t// in\n    tag_477:\n        /* \"#utility.yul\":8728:8820   */\n      swap5\n      pop\n        /* \"#utility.yul\":8843:8913   */\n      tag_478\n        /* \"#utility.yul\":8906:8912   */\n      dup4\n        /* \"#utility.yul\":8843:8913   */\n      tag_334\n      jump\t// in\n    tag_478:\n        /* \"#utility.yul\":8833:8913   */\n      swap3\n      pop\n        /* \"#utility.yul\":8942:8946   */\n      0x20\n        /* \"#utility.yul\":8937:8940   */\n      dup11\n        /* \"#utility.yul\":8933:8947   */\n      add\n        /* \"#utility.yul\":8926:8947   */\n      swap10\n      pop\n        /* \"#utility.yul\":8621:8957   */\n      pop\n        /* \"#utility.yul\":8608:8609   */\n      0x01\n        /* \"#utility.yul\":8605:8606   */\n      dup2\n        /* \"#utility.yul\":8601:8610   */\n      add\n        /* \"#utility.yul\":8596:8610   */\n      swap1\n      pop\n        /* \"#utility.yul\":8561:8957   */\n      jump(tag_474)\n    tag_476:\n        /* \"#utility.yul\":8565:8579   */\n      pop\n        /* \"#utility.yul\":8973:8977   */\n      dup3\n        /* \"#utility.yul\":8966:8977   */\n      swap8\n      pop\n        /* \"#utility.yul\":8993:8996   */\n      dup8\n        /* \"#utility.yul\":8986:8996   */\n      swap6\n      pop\n        /* \"#utility.yul\":8165:9002   */\n      pop\n      pop\n      pop\n      pop\n      pop\n        /* \"#utility.yul\":8031:9002   */\n      swap3\n      swap2\n      pop\n      pop\n      jump\t// out\n        /* \"#utility.yul\":9076:10661   */\n    tag_336:\n        /* \"#utility.yul\":9201:9204   */\n      0x00\n        /* \"#utility.yul\":9237:9241   */\n      0xc0\n        /* \"#utility.yul\":9232:9235   */\n      dup4\n        /* \"#utility.yul\":9228:9242   */\n      add\n        /* \"#utility.yul\":9324:9328   */\n      0x00\n        /* \"#utility.yul\":9317:9322   */\n      dup4\n        /* \"#utility.yul\":9313:9329   */\n      add\n        /* \"#utility.yul\":9307:9330   */\n      mload\n        /* \"#utility.yul\":9377:9380   */\n      dup5\n        /* \"#utility.yul\":9371:9375   */\n      dup3\n        /* \"#utility.yul\":9367:9381   */\n      sub\n        /* \"#utility.yul\":9360:9364   */\n      0x00\n        /* \"#utility.yul\":9355:9358   */\n      dup7\n        /* \"#utility.yul\":9351:9365   */\n      add\n        /* \"#utility.yul\":9344:9382   */\n      mstore\n        /* \"#utility.yul\":9403:9476   */\n      tag_480\n        /* \"#utility.yul\":9471:9475   */\n      dup3\n        /* \"#utility.yul\":9457:9469   */\n      dup3\n        /* \"#utility.yul\":9403:9476   */\n      tag_326\n      jump\t// in\n    tag_480:\n        /* \"#utility.yul\":9395:9476   */\n      swap2\n      pop\n        /* \"#utility.yul\":9252:9487   */\n      pop\n        /* \"#utility.yul\":9569:9573   */\n      0x20\n        /* \"#utility.yul\":9562:9567   */\n      dup4\n        /* \"#utility.yul\":9558:9574   */\n      add\n        /* \"#utility.yul\":9552:9575   */\n      mload\n        /* \"#utility.yul\":9622:9625   */\n      dup5\n        /* \"#utility.yul\":9616:9620   */\n      dup3\n        /* \"#utility.yul\":9612:9626   */\n      sub\n        /* \"#utility.yul\":9605:9609   */\n      0x20\n        /* \"#utility.yul\":9600:9603   */\n      dup7\n        /* \"#utility.yul\":9596:9610   */\n      add\n        /* \"#utility.yul\":9589:9627   */\n      mstore\n        /* \"#utility.yul\":9648:9721   */\n      tag_481\n        /* \"#utility.yul\":9716:9720   */\n      dup3\n        /* \"#utility.yul\":9702:9714   */\n      dup3\n        /* \"#utility.yul\":9648:9721   */\n      tag_326\n      jump\t// in\n    tag_481:\n        /* \"#utility.yul\":9640:9721   */\n      swap2\n      pop\n        /* \"#utility.yul\":9497:9732   */\n      pop\n        /* \"#utility.yul\":9814:9818   */\n      0x40\n        /* \"#utility.yul\":9807:9812   */\n      dup4\n        /* \"#utility.yul\":9803:9819   */\n      add\n        /* \"#utility.yul\":9797:9820   */\n      mload\n        /* \"#utility.yul\":9867:9870   */\n      dup5\n        /* \"#utility.yul\":9861:9865   */\n      dup3\n        /* \"#utility.yul\":9857:9871   */\n      sub\n        /* \"#utility.yul\":9850:9854   */\n      0x40\n        /* \"#utility.yul\":9845:9848   */\n      dup7\n        /* \"#utility.yul\":9841:9855   */\n      add\n        /* \"#utility.yul\":9834:9872   */\n      mstore\n        /* \"#utility.yul\":9893:9966   */\n      tag_482\n        /* \"#utility.yul\":9961:9965   */\n      dup3\n        /* \"#utility.yul\":9947:9959   */\n      dup3\n        /* \"#utility.yul\":9893:9966   */\n      tag_326\n      jump\t// in\n    tag_482:\n        /* \"#utility.yul\":9885:9966   */\n      swap2\n      pop\n        /* \"#utility.yul\":9742:9977   */\n      pop\n        /* \"#utility.yul\":10066:10070   */\n      0x60\n        /* \"#utility.yul\":10059:10064   */\n      dup4\n        /* \"#utility.yul\":10055:10071   */\n      add\n        /* \"#utility.yul\":10049:10072   */\n      mload\n        /* \"#utility.yul\":10085:10148   */\n      tag_483\n        /* \"#utility.yul\":10142:10146   */\n      0x60\n        /* \"#utility.yul\":10137:10140   */\n      dup7\n        /* \"#utility.yul\":10133:10147   */\n      add\n        /* \"#utility.yul\":10119:10131   */\n      dup3\n        /* \"#utility.yul\":10085:10148   */\n      tag_327\n      jump\t// in\n    tag_483:\n        /* \"#utility.yul\":9987:10158   */\n      pop\n        /* \"#utility.yul\":10241:10245   */\n      0x80\n        /* \"#utility.yul\":10234:10239   */\n      dup4\n        /* \"#utility.yul\":10230:10246   */\n      add\n        /* \"#utility.yul\":10224:10247   */\n      mload\n        /* \"#utility.yul\":10260:10323   */\n      tag_484\n        /* \"#utility.yul\":10317:10321   */\n      0x80\n        /* \"#utility.yul\":10312:10315   */\n      dup7\n        /* \"#utility.yul\":10308:10322   */\n      add\n        /* \"#utility.yul\":10294:10306   */\n      dup3\n        /* \"#utility.yul\":10260:10323   */\n      tag_329\n      jump\t// in\n    tag_484:\n        /* \"#utility.yul\":10168:10333   */\n      pop\n        /* \"#utility.yul\":10421:10425   */\n      0xa0\n        /* \"#utility.yul\":10414:10419   */\n      dup4\n        /* \"#utility.yul\":10410:10426   */\n      add\n        /* \"#utility.yul\":10404:10427   */\n      mload\n        /* \"#utility.yul\":10474:10477   */\n      dup5\n        /* \"#utility.yul\":10468:10472   */\n      dup3\n        /* \"#utility.yul\":10464:10478   */\n      sub\n        /* \"#utility.yul\":10457:10461   */\n      0xa0\n        /* \"#utility.yul\":10452:10455   */\n      dup7\n        /* \"#utility.yul\":10448:10462   */\n      add\n        /* \"#utility.yul\":10441:10479   */\n      mstore\n        /* \"#utility.yul\":10500:10623   */\n      tag_485\n        /* \"#utility.yul\":10618:10622   */\n      dup3\n        /* \"#utility.yul\":10604:10616   */\n      dup3\n        /* \"#utility.yul\":10500:10623   */\n      tag_335\n      jump\t// in\n    tag_485:\n        /* \"#utility.yul\":10492:10623   */\n      swap2\n      pop\n        /* \"#utility.yul\":10343:10634   */\n      pop\n        /* \"#utility.yul\":10651:10655   */\n      dup1\n        /* \"#utility.yul\":10644:10655   */\n      swap2\n      pop\n        /* \"#utility.yul\":9206:10661   */\n      pop\n        /* \"#utility.yul\":9076:10661   */\n      swap3\n      swap2\n      pop\n      pop\n      jump\t// out\n        /* \"#utility.yul\":10667:11052   */\n    tag_28:\n        /* \"#utility.yul\":10816:10820   */\n      0x00\n        /* \"#utility.yul\":10854:10856   */\n      0x20\n        /* \"#utility.yul\":10843:10852   */\n      dup3\n        /* \"#utility.yul\":10839:10857   */\n      add\n        /* \"#utility.yul\":10831:10857   */\n      swap1\n      pop\n        /* \"#utility.yul\":10903:10912   */\n      dup2\n        /* \"#utility.yul\":10897:10901   */\n      dup2\n        /* \"#utility.yul\":10893:10913   */\n      sub\n        /* \"#utility.yul\":10889:10890   */\n      0x00\n        /* \"#utility.yul\":10878:10887   */\n      dup4\n        /* \"#utility.yul\":10874:10891   */\n      add\n        /* \"#utility.yul\":10867:10914   */\n      mstore\n        /* \"#utility.yul\":10931:11045   */\n      tag_487\n        /* \"#utility.yul\":11040:11044   */\n      dup2\n        /* \"#utility.yul\":11031:11037   */\n      dup5\n        /* \"#utility.yul\":10931:11045   */\n      tag_336\n      jump\t// in\n    tag_487:\n        /* \"#utility.yul\":10923:11045   */\n      swap1\n      pop\n        /* \"#utility.yul\":10667:11052   */\n      swap3\n      swap2\n      pop\n      pop\n      jump\t// out\n        /* \"#utility.yul\":11058:11532   */\n    tag_32:\n        /* \"#utility.yul\":11126:11132   */\n      0x00\n        /* \"#utility.yul\":11134:11140   */\n      dup1\n        /* \"#utility.yul\":11183:11185   */\n      0x40\n        /* \"#utility.yul\":11171:11180   */\n      dup4\n        /* \"#utility.yul\":11162:11169   */\n      dup6\n        /* \"#utility.yul\":11158:11181   */\n      sub\n        /* \"#utility.yul\":11154:11186   */\n      slt\n        /* \"#utility.yul\":11151:11270   */\n      iszero\n      tag_489\n      jumpi\n        /* \"#utility.yul\":11189:11268   */\n      tag_490\n      tag_303\n      jump\t// in\n    tag_490:\n        /* \"#utility.yul\":11151:11270   */\n    tag_489:\n        /* \"#utility.yul\":11309:11310   */\n      0x00\n        /* \"#utility.yul\":11334:11387   */\n      tag_491\n        /* \"#utility.yul\":11379:11386   */\n      dup6\n        /* \"#utility.yul\":11370:11376   */\n      dup3\n        /* \"#utility.yul\":11359:11368   */\n      dup7\n        /* \"#utility.yul\":11355:11377   */\n      add\n        /* \"#utility.yul\":11334:11387   */\n      tag_308\n      jump\t// in\n    tag_491:\n        /* \"#utility.yul\":11324:11387   */\n      swap3\n      pop\n        /* \"#utility.yul\":11280:11397   */\n      pop\n        /* \"#utility.yul\":11436:11438   */\n      0x20\n        /* \"#utility.yul\":11462:11515   */\n      tag_492\n        /* \"#utility.yul\":11507:11514   */\n      dup6\n        /* \"#utility.yul\":11498:11504   */\n      dup3\n        /* \"#utility.yul\":11487:11496   */\n      dup7\n        /* \"#utility.yul\":11483:11505   */\n      add\n        /* \"#utility.yul\":11462:11515   */\n      tag_308\n      jump\t// in\n    tag_492:\n        /* \"#utility.yul\":11452:11515   */\n      swap2\n      pop\n        /* \"#utility.yul\":11407:11525   */\n      pop\n        /* \"#utility.yul\":11058:11532   */\n      swap3\n      pop\n      swap3\n      swap1\n      pop\n      jump\t// out\n        /* \"#utility.yul\":11538:11861   */\n    tag_37:\n        /* \"#utility.yul\":11594:11600   */\n      0x00\n        /* \"#utility.yul\":11643:11645   */\n      0x20\n        /* \"#utility.yul\":11631:11640   */\n      dup3\n        /* \"#utility.yul\":11622:11629   */\n      dup5\n        /* \"#utility.yul\":11618:11641   */\n      sub\n        /* \"#utility.yul\":11614:11646   */\n      slt\n        /* \"#utility.yul\":11611:11730   */\n      iszero\n      tag_494\n      jumpi\n        /* \"#utility.yul\":11649:11728   */\n      tag_495\n      tag_303\n      jump\t// in\n    tag_495:\n        /* \"#utility.yul\":11611:11730   */\n    tag_494:\n        /* \"#utility.yul\":11769:11770   */\n      0x00\n        /* \"#utility.yul\":11794:11844   */\n      tag_496\n        /* \"#utility.yul\":11836:11843   */\n      dup5\n        /* \"#utility.yul\":11827:11833   */\n      dup3\n        /* \"#utility.yul\":11816:11825   */\n      dup6\n        /* \"#utility.yul\":11812:11834   */\n      add\n        /* \"#utility.yul\":11794:11844   */\n      tag_322\n      jump\t// in\n    tag_496:\n        /* \"#utility.yul\":11784:11844   */\n      swap2\n      pop\n        /* \"#utility.yul\":11740:11854   */\n      pop\n        /* \"#utility.yul\":11538:11861   */\n      swap3\n      swap2\n      pop\n      pop\n      jump\t// out\n        /* \"#utility.yul\":11867:12009   */\n    tag_337:\n        /* \"#utility.yul\":11962:11968   */\n      0x00\n        /* \"#utility.yul\":11996:12001   */\n      dup2\n        /* \"#utility.yul\":11990:12002   */\n      mload\n        /* \"#utility.yul\":11980:12002   */\n      swap1\n      pop\n        /* \"#utility.yul\":11867:12009   */\n      swap2\n      swap1\n      pop\n      jump\t// out\n        /* \"#utility.yul\":12015:12227   */\n    tag_338:\n        /* \"#utility.yul\":12142:12153   */\n      0x00\n        /* \"#utility.yul\":12176:12182   */\n      dup3\n        /* \"#utility.yul\":12171:12174   */\n      dup3\n        /* \"#utility.yul\":12164:12183   */\n      mstore\n        /* \"#utility.yul\":12216:12220   */\n      0x20\n        /* \"#utility.yul\":12211:12214   */\n      dup3\n        /* \"#utility.yul\":12207:12221   */\n      add\n        /* \"#utility.yul\":12192:12221   */\n      swap1\n      pop\n        /* \"#utility.yul\":12015:12227   */\n      swap3\n      swap2\n      pop\n      pop\n      jump\t// out\n        /* \"#utility.yul\":12233:12393   */\n    tag_339:\n        /* \"#utility.yul\":12328:12332   */\n      0x00\n        /* \"#utility.yul\":12351:12354   */\n      dup2\n        /* \"#utility.yul\":12343:12354   */\n      swap1\n      pop\n        /* \"#utility.yul\":12381:12385   */\n      0x20\n        /* \"#utility.yul\":12376:12379   */\n      dup3\n        /* \"#utility.yul\":12372:12386   */\n      add\n        /* \"#utility.yul\":12364:12386   */\n      swap1\n      pop\n        /* \"#utility.yul\":12233:12393   */\n      swap2\n      swap1\n      pop\n      jump\t// out\n        /* \"#utility.yul\":12467:14042   */\n    tag_340:\n        /* \"#utility.yul\":12582:12585   */\n      0x00\n        /* \"#utility.yul\":12618:12622   */\n      0xc0\n        /* \"#utility.yul\":12613:12616   */\n      dup4\n        /* \"#utility.yul\":12609:12623   */\n      add\n        /* \"#utility.yul\":12705:12709   */\n      0x00\n        /* \"#utility.yul\":12698:12703   */\n      dup4\n        /* \"#utility.yul\":12694:12710   */\n      add\n        /* \"#utility.yul\":12688:12711   */\n      mload\n        /* \"#utility.yul\":12758:12761   */\n      dup5\n        /* \"#utility.yul\":12752:12756   */\n      dup3\n        /* \"#utility.yul\":12748:12762   */\n      sub\n        /* \"#utility.yul\":12741:12745   */\n      0x00\n        /* \"#utility.yul\":12736:12739   */\n      dup7\n        /* \"#utility.yul\":12732:12746   */\n      add\n        /* \"#utility.yul\":12725:12763   */\n      mstore\n        /* \"#utility.yul\":12784:12857   */\n      tag_501\n        /* \"#utility.yul\":12852:12856   */\n      dup3\n        /* \"#utility.yul\":12838:12850   */\n      dup3\n        /* \"#utility.yul\":12784:12857   */\n      tag_326\n      jump\t// in\n    tag_501:\n        /* \"#utility.yul\":12776:12857   */\n      swap2\n      pop\n        /* \"#utility.yul\":12633:12868   */\n      pop\n        /* \"#utility.yul\":12950:12954   */\n      0x20\n        /* \"#utility.yul\":12943:12948   */\n      dup4\n        /* \"#utility.yul\":12939:12955   */\n      add\n        /* \"#utility.yul\":12933:12956   */\n      mload\n        /* \"#utility.yul\":13003:13006   */\n      dup5\n        /* \"#utility.yul\":12997:13001   */\n      dup3\n        /* \"#utility.yul\":12993:13007   */\n      sub\n        /* \"#utility.yul\":12986:12990   */\n      0x20\n        /* \"#utility.yul\":12981:12984   */\n      dup7\n        /* \"#utility.yul\":12977:12991   */\n      add\n        /* \"#utility.yul\":12970:13008   */\n      mstore\n        /* \"#utility.yul\":13029:13102   */\n      tag_502\n        /* \"#utility.yul\":13097:13101   */\n      dup3\n        /* \"#utility.yul\":13083:13095   */\n      dup3\n        /* \"#utility.yul\":13029:13102   */\n      tag_326\n      jump\t// in\n    tag_502:\n        /* \"#utility.yul\":13021:13102   */\n      swap2\n      pop\n        /* \"#utility.yul\":12878:13113   */\n      pop\n        /* \"#utility.yul\":13195:13199   */\n      0x40\n        /* \"#utility.yul\":13188:13193   */\n      dup4\n        /* \"#utility.yul\":13184:13200   */\n      add\n        /* \"#utility.yul\":13178:13201   */\n      mload\n        /* \"#utility.yul\":13248:13251   */\n      dup5\n        /* \"#utility.yul\":13242:13246   */\n      dup3\n        /* \"#utility.yul\":13238:13252   */\n      sub\n        /* \"#utility.yul\":13231:13235   */\n      0x40\n        /* \"#utility.yul\":13226:13229   */\n      dup7\n        /* \"#utility.yul\":13222:13236   */\n      add\n        /* \"#utility.yul\":13215:13253   */\n      mstore\n        /* \"#utility.yul\":13274:13347   */\n      tag_503\n        /* \"#utility.yul\":13342:13346   */\n      dup3\n        /* \"#utility.yul\":13328:13340   */\n      dup3\n        /* \"#utility.yul\":13274:13347   */\n      tag_326\n      jump\t// in\n    tag_503:\n        /* \"#utility.yul\":13266:13347   */\n      swap2\n      pop\n        /* \"#utility.yul\":13123:13358   */\n      pop\n        /* \"#utility.yul\":13447:13451   */\n      0x60\n        /* \"#utility.yul\":13440:13445   */\n      dup4\n        /* \"#utility.yul\":13436:13452   */\n      add\n        /* \"#utility.yul\":13430:13453   */\n      mload\n        /* \"#utility.yul\":13466:13529   */\n      tag_504\n        /* \"#utility.yul\":13523:13527   */\n      0x60\n        /* \"#utility.yul\":13518:13521   */\n      dup7\n        /* \"#utility.yul\":13514:13528   */\n      add\n        /* \"#utility.yul\":13500:13512   */\n      dup3\n        /* \"#utility.yul\":13466:13529   */\n      tag_327\n      jump\t// in\n    tag_504:\n        /* \"#utility.yul\":13368:13539   */\n      pop\n        /* \"#utility.yul\":13622:13626   */\n      0x80\n        /* \"#utility.yul\":13615:13620   */\n      dup4\n        /* \"#utility.yul\":13611:13627   */\n      add\n        /* \"#utility.yul\":13605:13628   */\n      mload\n        /* \"#utility.yul\":13641:13704   */\n      tag_505\n        /* \"#utility.yul\":13698:13702   */\n      0x80\n        /* \"#utility.yul\":13693:13696   */\n      dup7\n        /* \"#utility.yul\":13689:13703   */\n      add\n        /* \"#utility.yul\":13675:13687   */\n      dup3\n        /* \"#utility.yul\":13641:13704   */\n      tag_329\n      jump\t// in\n    tag_505:\n        /* \"#utility.yul\":13549:13714   */\n      pop\n        /* \"#utility.yul\":13802:13806   */\n      0xa0\n        /* \"#utility.yul\":13795:13800   */\n      dup4\n        /* \"#utility.yul\":13791:13807   */\n      add\n        /* \"#utility.yul\":13785:13808   */\n      mload\n        /* \"#utility.yul\":13855:13858   */\n      dup5\n        /* \"#utility.yul\":13849:13853   */\n      dup3\n        /* \"#utility.yul\":13845:13859   */\n      sub\n        /* \"#utility.yul\":13838:13842   */\n      0xa0\n        /* \"#utility.yul\":13833:13836   */\n      dup7\n        /* \"#utility.yul\":13829:13843   */\n      add\n        /* \"#utility.yul\":13822:13860   */\n      mstore\n        /* \"#utility.yul\":13881:14004   */\n      tag_506\n        /* \"#utility.yul\":13999:14003   */\n      dup3\n        /* \"#utility.yul\":13985:13997   */\n      dup3\n        /* \"#utility.yul\":13881:14004   */\n      tag_335\n      jump\t// in\n    tag_506:\n        /* \"#utility.yul\":13873:14004   */\n      swap2\n      pop\n        /* \"#utility.yul\":13724:14015   */\n      pop\n        /* \"#utility.yul\":14032:14036   */\n      dup1\n        /* \"#utility.yul\":14025:14036   */\n      swap2\n      pop\n        /* \"#utility.yul\":12587:14042   */\n      pop\n        /* \"#utility.yul\":12467:14042   */\n      swap3\n      swap2\n      pop\n      pop\n      jump\t// out\n        /* \"#utility.yul\":14048:14316   */\n    tag_341:\n        /* \"#utility.yul\":14173:14183   */\n      0x00\n        /* \"#utility.yul\":14208:14310   */\n      tag_508\n        /* \"#utility.yul\":14306:14309   */\n      dup4\n        /* \"#utility.yul\":14298:14304   */\n      dup4\n        /* \"#utility.yul\":14208:14310   */\n      tag_340\n      jump\t// in\n    tag_508:\n        /* \"#utility.yul\":14194:14310   */\n      swap1\n      pop\n        /* \"#utility.yul\":14048:14316   */\n      swap3\n      swap2\n      pop\n      pop\n      jump\t// out\n        /* \"#utility.yul\":14322:14463   */\n    tag_342:\n        /* \"#utility.yul\":14420:14424   */\n      0x00\n        /* \"#utility.yul\":14452:14456   */\n      0x20\n        /* \"#utility.yul\":14447:14450   */\n      dup3\n        /* \"#utility.yul\":14443:14457   */\n      add\n        /* \"#utility.yul\":14435:14457   */\n      swap1\n      pop\n        /* \"#utility.yul\":14322:14463   */\n      swap2\n      swap1\n      pop\n      jump\t// out\n        /* \"#utility.yul\":14541:15676   */\n    tag_343:\n        /* \"#utility.yul\":14716:14719   */\n      0x00\n        /* \"#utility.yul\":14745:14827   */\n      tag_511\n        /* \"#utility.yul\":14821:14826   */\n      dup3\n        /* \"#utility.yul\":14745:14827   */\n      tag_337\n      jump\t// in\n    tag_511:\n        /* \"#utility.yul\":14843:14957   */\n      tag_512\n        /* \"#utility.yul\":14950:14956   */\n      dup2\n        /* \"#utility.yul\":14945:14948   */\n      dup6\n        /* \"#utility.yul\":14843:14957   */\n      tag_338\n      jump\t// in\n    tag_512:\n        /* \"#utility.yul\":14836:14957   */\n      swap4\n      pop\n        /* \"#utility.yul\":14983:14986   */\n      dup4\n        /* \"#utility.yul\":15028:15032   */\n      0x20\n        /* \"#utility.yul\":15020:15026   */\n      dup3\n        /* \"#utility.yul\":15016:15033   */\n      mul\n        /* \"#utility.yul\":15011:15014   */\n      dup6\n        /* \"#utility.yul\":15007:15034   */\n      add\n        /* \"#utility.yul\":15058:15142   */\n      tag_513\n        /* \"#utility.yul\":15136:15141   */\n      dup6\n        /* \"#utility.yul\":15058:15142   */\n      tag_339\n      jump\t// in\n    tag_513:\n        /* \"#utility.yul\":15165:15172   */\n      dup1\n        /* \"#utility.yul\":15196:15197   */\n      0x00\n        /* \"#utility.yul\":15181:15631   */\n    tag_514:\n        /* \"#utility.yul\":15206:15212   */\n      dup6\n        /* \"#utility.yul\":15203:15204   */\n      dup2\n        /* \"#utility.yul\":15200:15213   */\n      lt\n        /* \"#utility.yul\":15181:15631   */\n      iszero\n      tag_516\n      jumpi\n        /* \"#utility.yul\":15277:15286   */\n      dup5\n        /* \"#utility.yul\":15271:15275   */\n      dup5\n        /* \"#utility.yul\":15267:15287   */\n      sub\n        /* \"#utility.yul\":15262:15265   */\n      dup10\n        /* \"#utility.yul\":15255:15288   */\n      mstore\n        /* \"#utility.yul\":15328:15334   */\n      dup2\n        /* \"#utility.yul\":15322:15335   */\n      mload\n        /* \"#utility.yul\":15356:15476   */\n      tag_517\n        /* \"#utility.yul\":15471:15475   */\n      dup6\n        /* \"#utility.yul\":15456:15469   */\n      dup3\n        /* \"#utility.yul\":15356:15476   */\n      tag_341\n      jump\t// in\n    tag_517:\n        /* \"#utility.yul\":15348:15476   */\n      swap5\n      pop\n        /* \"#utility.yul\":15499:15587   */\n      tag_518\n        /* \"#utility.yul\":15580:15586   */\n      dup4\n        /* \"#utility.yul\":15499:15587   */\n      tag_342\n      jump\t// in\n    tag_518:\n        /* \"#utility.yul\":15489:15587   */\n      swap3\n      pop\n        /* \"#utility.yul\":15616:15620   */\n      0x20\n        /* \"#utility.yul\":15611:15614   */\n      dup11\n        /* \"#utility.yul\":15607:15621   */\n      add\n        /* \"#utility.yul\":15600:15621   */\n      swap10\n      pop\n        /* \"#utility.yul\":15241:15631   */\n      pop\n        /* \"#utility.yul\":15228:15229   */\n      0x01\n        /* \"#utility.yul\":15225:15226   */\n      dup2\n        /* \"#utility.yul\":15221:15230   */\n      add\n        /* \"#utility.yul\":15216:15230   */\n      swap1\n      pop\n        /* \"#utility.yul\":15181:15631   */\n      jump(tag_514)\n    tag_516:\n        /* \"#utility.yul\":15185:15199   */\n      pop\n        /* \"#utility.yul\":15647:15651   */\n      dup3\n        /* \"#utility.yul\":15640:15651   */\n      swap8\n      pop\n        /* \"#utility.yul\":15667:15670   */\n      dup8\n        /* \"#utility.yul\":15660:15670   */\n      swap6\n      pop\n        /* \"#utility.yul\":14721:15676   */\n      pop\n      pop\n      pop\n      pop\n      pop\n        /* \"#utility.yul\":14541:15676   */\n      swap3\n      swap2\n      pop\n      pop\n      jump\t// out\n        /* \"#utility.yul\":15682:16167   */\n    tag_40:\n        /* \"#utility.yul\":15881:15885   */\n      0x00\n        /* \"#utility.yul\":15919:15921   */\n      0x20\n        /* \"#utility.yul\":15908:15917   */\n      dup3\n        /* \"#utility.yul\":15904:15922   */\n      add\n        /* \"#utility.yul\":15896:15922   */\n      swap1\n      pop\n        /* \"#utility.yul\":15968:15977   */\n      dup2\n        /* \"#utility.yul\":15962:15966   */\n      dup2\n        /* \"#utility.yul\":15958:15978   */\n      sub\n        /* \"#utility.yul\":15954:15955   */\n      0x00\n        /* \"#utility.yul\":15943:15952   */\n      dup4\n        /* \"#utility.yul\":15939:15956   */\n      add\n        /* \"#utility.yul\":15932:15979   */\n      mstore\n        /* \"#utility.yul\":15996:16160   */\n      tag_520\n        /* \"#utility.yul\":16155:16159   */\n      dup2\n        /* \"#utility.yul\":16146:16152   */\n      dup5\n        /* \"#utility.yul\":15996:16160   */\n      tag_343\n      jump\t// in\n    tag_520:\n        /* \"#utility.yul\":15988:16160   */\n      swap1\n      pop\n        /* \"#utility.yul\":15682:16167   */\n      swap3\n      swap2\n      pop\n      pop\n      jump\t// out\n        /* \"#utility.yul\":16173:16353   */\n    tag_344:\n        /* \"#utility.yul\":16221:16298   */\n      0x4e487b7100000000000000000000000000000000000000000000000000000000\n        /* \"#utility.yul\":16218:16219   */\n      0x00\n        /* \"#utility.yul\":16211:16299   */\n      mstore\n        /* \"#utility.yul\":16318:16322   */\n      0x22\n        /* \"#utility.yul\":16315:16316   */\n      0x04\n        /* \"#utility.yul\":16308:16323   */\n      mstore\n        /* \"#utility.yul\":16342:16346   */\n      0x24\n        /* \"#utility.yul\":16339:16340   */\n      0x00\n        /* \"#utility.yul\":16332:16347   */\n      revert\n        /* \"#utility.yul\":16359:16679   */\n    tag_105:\n        /* \"#utility.yul\":16403:16409   */\n      0x00\n        /* \"#utility.yul\":16440:16441   */\n      0x02\n        /* \"#utility.yul\":16434:16438   */\n      dup3\n        /* \"#utility.yul\":16430:16442   */\n      div\n        /* \"#utility.yul\":16420:16442   */\n      swap1\n      pop\n        /* \"#utility.yul\":16487:16488   */\n      0x01\n        /* \"#utility.yul\":16481:16485   */\n      dup3\n        /* \"#utility.yul\":16477:16489   */\n      and\n        /* \"#utility.yul\":16508:16526   */\n      dup1\n        /* \"#utility.yul\":16498:16579   */\n      tag_523\n      jumpi\n        /* \"#utility.yul\":16564:16568   */\n      0x7f\n        /* \"#utility.yul\":16556:16562   */\n      dup3\n        /* \"#utility.yul\":16552:16569   */\n      and\n        /* \"#utility.yul\":16542:16569   */\n      swap2\n      pop\n        /* \"#utility.yul\":16498:16579   */\n    tag_523:\n        /* \"#utility.yul\":16626:16628   */\n      0x20\n        /* \"#utility.yul\":16618:16624   */\n      dup3\n        /* \"#utility.yul\":16615:16629   */\n      lt\n        /* \"#utility.yul\":16595:16613   */\n      dup2\n        /* \"#utility.yul\":16592:16630   */\n      sub\n        /* \"#utility.yul\":16589:16673   */\n      tag_524\n      jumpi\n        /* \"#utility.yul\":16645:16663   */\n      tag_525\n      tag_344\n      jump\t// in\n    tag_525:\n        /* \"#utility.yul\":16589:16673   */\n    tag_524:\n        /* \"#utility.yul\":16410:16679   */\n      pop\n        /* \"#utility.yul\":16359:16679   */\n      swap2\n      swap1\n      pop\n      jump\t// out\n        /* \"#utility.yul\":16685:16826   */\n    tag_345:\n        /* \"#utility.yul\":16734:16738   */\n      0x00\n        /* \"#utility.yul\":16757:16760   */\n      dup2\n        /* \"#utility.yul\":16749:16760   */\n      swap1\n      pop\n        /* \"#utility.yul\":16780:16783   */\n      dup2\n        /* \"#utility.yul\":16777:16778   */\n      0x00\n        /* \"#utility.yul\":16770:16784   */\n      mstore\n        /* \"#utility.yul\":16814:16818   */\n      0x20\n        /* \"#utility.yul\":16811:16812   */\n      0x00\n        /* \"#utility.yul\":16801:16819   */\n      keccak256\n        /* \"#utility.yul\":16793:16819   */\n      swap1\n      pop\n        /* \"#utility.yul\":16685:16826   */\n      swap2\n      swap1\n      pop\n      jump\t// out\n        /* \"#utility.yul\":16832:16925   */\n    tag_346:\n        /* \"#utility.yul\":16869:16875   */\n      0x00\n        /* \"#utility.yul\":16916:16918   */\n      0x20\n        /* \"#utility.yul\":16911:16913   */\n      0x1f\n        /* \"#utility.yul\":16904:16909   */\n      dup4\n        /* \"#utility.yul\":16900:16914   */\n      add\n        /* \"#utility.yul\":16896:16919   */\n      div\n        /* \"#utility.yul\":16886:16919   */\n      swap1\n      pop\n        /* \"#utility.yul\":16832:16925   */\n      swap2\n      swap1\n      pop\n      jump\t// out\n        /* \"#utility.yul\":16931:17038   */\n    tag_347:\n        /* \"#utility.yul\":16975:16983   */\n      0x00\n        /* \"#utility.yul\":17025:17030   */\n      dup3\n        /* \"#utility.yul\":17019:17023   */\n      dup3\n        /* \"#utility.yul\":17015:17031   */\n      shl\n        /* \"#utility.yul\":16994:17031   */\n      swap1\n      pop\n        /* \"#utility.yul\":16931:17038   */\n      swap3\n      swap2\n      pop\n      pop\n      jump\t// out\n        /* \"#utility.yul\":17044:17437   */\n    tag_348:\n        /* \"#utility.yul\":17113:17119   */\n      0x00\n        /* \"#utility.yul\":17163:17164   */\n      0x08\n        /* \"#utility.yul\":17151:17161   */\n      dup4\n        /* \"#utility.yul\":17147:17165   */\n      mul\n        /* \"#utility.yul\":17186:17283   */\n      tag_530\n        /* \"#utility.yul\":17216:17282   */\n      0xffffffffffffffffffffffffffffffffffffffffffffffffffffffffffffffff\n        /* \"#utility.yul\":17205:17214   */\n      dup3\n        /* \"#utility.yul\":17186:17283   */\n      tag_347\n      jump\t// in\n    tag_530:\n        /* \"#utility.yul\":17304:17343   */\n      tag_531\n        /* \"#utility.yul\":17334:17342   */\n      dup7\n        /* \"#utility.yul\":17323:17332   */\n      dup4\n        /* \"#utility.yul\":17304:17343   */\n      tag_347\n      jump\t// in\n    tag_531:\n        /* \"#utility.yul\":17292:17343   */\n      swap6\n      pop\n        /* \"#utility.yul\":17376:17380   */\n      dup1\n        /* \"#utility.yul\":17372:17381   */\n      not\n        /* \"#utility.yul\":17365:17370   */\n      dup5\n        /* \"#utility.yul\":17361:17382   */\n      and\n        /* \"#utility.yul\":17352:17382   */\n      swap4\n      pop\n        /* \"#utility.yul\":17425:17429   */\n      dup1\n        /* \"#utility.yul\":17415:17423   */\n      dup7\n        /* \"#utility.yul\":17411:17430   */\n      and\n        /* \"#utility.yul\":17404:17409   */\n      dup5\n        /* \"#utility.yul\":17401:17431   */\n      or\n        /* \"#utility.yul\":17391:17431   */\n      swap3\n      pop\n        /* \"#utility.yul\":17120:17437   */\n      pop\n      pop\n        /* \"#utility.yul\":17044:17437   */\n      swap4\n      swap3\n      pop\n      pop\n      pop\n      jump\t// out\n        /* \"#utility.yul\":17443:17503   */\n    tag_349:\n        /* \"#utility.yul\":17471:17474   */\n      0x00\n        /* \"#utility.yul\":17492:17497   */\n      dup2\n        /* \"#utility.yul\":17485:17497   */\n      swap1\n      pop\n        /* \"#utility.yul\":17443:17503   */\n      swap2\n      swap1\n      pop\n      jump\t// out\n        /* \"#utility.yul\":17509:17651   */\n    tag_350:\n        /* \"#utility.yul\":17559:17568   */\n      0x00\n        /* \"#utility.yul\":17592:17645   */\n      tag_534\n        /* \"#utility.yul\":17610:17644   */\n      tag_535\n        /* \"#utility.yul\":17619:17643   */\n      tag_536\n        /* \"#utility.yul\":17637:17642   */\n      dup5\n        /* \"#utility.yul\":17619:17643   */\n      tag_328\n      jump\t// in\n    tag_536:\n        /* \"#utility.yul\":17610:17644   */\n      tag_349\n      jump\t// in\n    tag_535:\n        /* \"#utility.yul\":17592:17645   */\n      tag_328\n      jump\t// in\n    tag_534:\n        /* \"#utility.yul\":17579:17645   */\n      swap1\n      pop\n        /* \"#utility.yul\":17509:17651   */\n      swap2\n      swap1\n      pop\n      jump\t// out\n        /* \"#utility.yul\":17657:17732   */\n    tag_351:\n        /* \"#utility.yul\":17700:17703   */\n      0x00\n        /* \"#utility.yul\":17721:17726   */\n      dup2\n        /* \"#utility.yul\":17714:17726   */\n      swap1\n      pop\n        /* \"#utility.yul\":17657:17732   */\n      swap2\n      swap1\n      pop\n      jump\t// out\n        /* \"#utility.yul\":17738:18007   */\n    tag_352:\n        /* \"#utility.yul\":17848:17887   */\n      tag_539\n        /* \"#utility.yul\":17879:17886   */\n      dup4\n        /* \"#utility.yul\":17848:17887   */\n      tag_350\n      jump\t// in\n    tag_539:\n        /* \"#utility.yul\":17909:18000   */\n      tag_540\n        /* \"#utility.yul\":17958:17999   */\n      tag_541\n        /* \"#utility.yul\":17982:17998   */\n      dup3\n        /* \"#utility.yul\":17958:17999   */\n      tag_351\n      jump\t// in\n    tag_541:\n        /* \"#utility.yul\":17950:17956   */\n      dup5\n        /* \"#utility.yul\":17943:17947   */\n      dup5\n        /* \"#utility.yul\":17937:17948   */\n      sload\n        /* \"#utility.yul\":17909:18000   */\n      tag_348\n      jump\t// in\n    tag_540:\n        /* \"#utility.yul\":17903:17907   */\n      dup3\n        /* \"#utility.yul\":17896:18001   */\n      sstore\n        /* \"#utility.yul\":17814:18007   */\n      pop\n        /* \"#utility.yul\":17738:18007   */\n      pop\n      pop\n      pop\n      jump\t// out\n        /* \"#utility.yul\":18013:18086   */\n    tag_353:\n        /* \"#utility.yul\":18058:18061   */\n      0x00\n        /* \"#utility.yul\":18013:18086   */\n      swap1\n      jump\t// out\n        /* \"#utility.yul\":18092:18281   */\n    tag_354:\n        /* \"#utility.yul\":18169:18201   */\n      tag_544\n      tag_353\n      jump\t// in\n    tag_544:\n        /* \"#utility.yul\":18210:18275   */\n      tag_545\n        /* \"#utility.yul\":18268:18274   */\n      dup2\n        /* \"#utility.yul\":18260:18266   */\n      dup5\n        /* \"#utility.yul\":18254:18258   */\n      dup5\n        /* \"#utility.yul\":18210:18275   */\n      tag_352\n      jump\t// in\n    tag_545:\n        /* \"#utility.yul\":18145:18281   */\n      pop\n        /* \"#utility.yul\":18092:18281   */\n      pop\n      pop\n      jump\t// out\n        /* \"#utility.yul\":18287:18473   */\n    tag_355:\n        /* \"#utility.yul\":18347:18467   */\n    tag_547:\n        /* \"#utility.yul\":18364:18367   */\n      dup2\n        /* \"#utility.yul\":18357:18362   */\n      dup2\n        /* \"#utility.yul\":18354:18368   */\n      lt\n        /* \"#utility.yul\":18347:18467   */\n      iszero\n      tag_549\n      jumpi\n        /* \"#utility.yul\":18418:18457   */\n      tag_550\n        /* \"#utility.yul\":18455:18456   */\n      0x00\n        /* \"#utility.yul\":18448:18453   */\n      dup3\n        /* \"#utility.yul\":18418:18457   */\n      tag_354\n      jump\t// in\n    tag_550:\n        /* \"#utility.yul\":18391:18392   */\n      0x01\n        /* \"#utility.yul\":18384:18389   */\n      dup2\n        /* \"#utility.yul\":18380:18393   */\n      add\n        /* \"#utility.yul\":18371:18393   */\n      swap1\n      pop\n        /* \"#utility.yul\":18347:18467   */\n      jump(tag_547)\n    tag_549:\n        /* \"#utility.yul\":18287:18473   */\n      pop\n      pop\n      jump\t// out\n        /* \"#utility.yul\":18479:19022   */\n    tag_356:\n        /* \"#utility.yul\":18580:18582   */\n      0x1f\n        /* \"#utility.yul\":18575:18578   */\n      dup3\n        /* \"#utility.yul\":18572:18583   */\n      gt\n        /* \"#utility.yul\":18569:19015   */\n      iszero\n      tag_552\n      jumpi\n        /* \"#utility.yul\":18614:18652   */\n      tag_553\n        /* \"#utility.yul\":18646:18651   */\n      dup2\n        /* \"#utility.yul\":18614:18652   */\n      tag_345\n      jump\t// in\n    tag_553:\n        /* \"#utility.yul\":18698:18727   */\n      tag_554\n        /* \"#utility.yul\":18716:18726   */\n      dup5\n        /* \"#utility.yul\":18698:18727   */\n      tag_346\n      jump\t// in\n    tag_554:\n        /* \"#utility.yul\":18688:18696   */\n      dup2\n        /* \"#utility.yul\":18684:18728   */\n      add\n        /* \"#utility.yul\":18881:18883   */\n      0x20\n        /* \"#utility.yul\":18869:18879   */\n      dup6\n        /* \"#utility.yul\":18866:18884   */\n      lt\n        /* \"#utility.yul\":18863:18912   */\n      iszero\n      tag_555\n      jumpi\n        /* \"#utility.yul\":18902:18910   */\n      dup2\n        /* \"#utility.yul\":18887:18910   */\n      swap1\n      pop\n        /* \"#utility.yul\":18863:18912   */\n    tag_555:\n        /* \"#utility.yul\":18925:19005   */\n      tag_556\n        /* \"#utility.yul\":18981:19003   */\n      tag_557\n        /* \"#utility.yul\":18999:19002   */\n      dup6\n        /* \"#utility.yul\":18981:19003   */\n      tag_346\n      jump\t// in\n    tag_557:\n        /* \"#utility.yul\":18971:18979   */\n      dup4\n        /* \"#utility.yul\":18967:19004   */\n      add\n        /* \"#utility.yul\":18954:18965   */\n      dup3\n        /* \"#utility.yul\":18925:19005   */\n      tag_355\n      jump\t// in\n    tag_556:\n        /* \"#utility.yul\":18584:19015   */\n      pop\n      pop\n        /* \"#utility.yul\":18569:19015   */\n    tag_552:\n        /* \"#utility.yul\":18479:19022   */\n      pop\n      pop\n      pop\n      jump\t// out\n        /* \"#utility.yul\":19028:19145   */\n    tag_357:\n        /* \"#utility.yul\":19082:19090   */\n      0x00\n        /* \"#utility.yul\":19132:19137   */\n      dup3\n        /* \"#utility.yul\":19126:19130   */\n      dup3\n        /* \"#utility.yul\":19122:19138   */\n      shr\n        /* \"#utility.yul\":19101:19138   */\n      swap1\n      pop\n        /* \"#utility.yul\":19028:19145   */\n      swap3\n      swap2\n      pop\n      pop\n      jump\t// out\n        /* \"#utility.yul\":19151:19320   */\n    tag_358:\n        /* \"#utility.yul\":19195:19201   */\n      0x00\n        /* \"#utility.yul\":19228:19279   */\n      tag_560\n        /* \"#utility.yul\":19276:19277   */\n      0x00\n        /* \"#utility.yul\":19272:19278   */\n      not\n        /* \"#utility.yul\":19264:19269   */\n      dup5\n        /* \"#utility.yul\":19261:19262   */\n      0x08\n        /* \"#utility.yul\":19257:19270   */\n      mul\n        /* \"#utility.yul\":19228:19279   */\n      tag_357\n      jump\t// in\n    tag_560:\n        /* \"#utility.yul\":19224:19280   */\n      not\n        /* \"#utility.yul\":19309:19313   */\n      dup1\n        /* \"#utility.yul\":19303:19307   */\n      dup4\n        /* \"#utility.yul\":19299:19314   */\n      and\n        /* \"#utility.yul\":19289:19314   */\n      swap2\n      pop\n        /* \"#utility.yul\":19202:19320   */\n      pop\n        /* \"#utility.yul\":19151:19320   */\n      swap3\n      swap2\n      pop\n      pop\n      jump\t// out\n        /* \"#utility.yul\":19325:19620   */\n    tag_359:\n        /* \"#utility.yul\":19401:19405   */\n      0x00\n        /* \"#utility.yul\":19547:19576   */\n      tag_562\n        /* \"#utility.yul\":19572:19575   */\n      dup4\n        /* \"#utility.yul\":19566:19570   */\n      dup4\n        /* \"#utility.yul\":19547:19576   */\n      tag_358\n      jump\t// in\n    tag_562:\n        /* \"#utility.yul\":19539:19576   */\n      swap2\n      pop\n        /* \"#utility.yul\":19609:19612   */\n      dup3\n        /* \"#utility.yul\":19606:19607   */\n      0x02\n        /* \"#utility.yul\":19602:19613   */\n      mul\n        /* \"#utility.yul\":19596:19600   */\n      dup3\n        /* \"#utility.yul\":19593:19614   */\n      or\n        /* \"#utility.yul\":19585:19614   */\n      swap1\n      pop\n        /* \"#utility.yul\":19325:19620   */\n      swap3\n      swap2\n      pop\n      pop\n      jump\t// out\n        /* \"#utility.yul\":19625:21020   */\n    tag_46:\n        /* \"#utility.yul\":19742:19779   */\n      tag_564\n        /* \"#utility.yul\":19775:19778   */\n      dup3\n        /* \"#utility.yul\":19742:19779   */\n      tag_323\n      jump\t// in\n    tag_564:\n        /* \"#utility.yul\":19844:19862   */\n      0xffffffffffffffff\n        /* \"#utility.yul\":19836:19842   */\n      dup2\n        /* \"#utility.yul\":19833:19863   */\n      gt\n        /* \"#utility.yul\":19830:19886   */\n      iszero\n      tag_565\n      jumpi\n        /* \"#utility.yul\":19866:19884   */\n      tag_566\n      tag_314\n      jump\t// in\n    tag_566:\n        /* \"#utility.yul\":19830:19886   */\n    tag_565:\n        /* \"#utility.yul\":19910:19948   */\n      tag_567\n        /* \"#utility.yul\":19942:19946   */\n      dup3\n        /* \"#utility.yul\":19936:19947   */\n      sload\n        /* \"#utility.yul\":19910:19948   */\n      tag_105\n      jump\t// in\n    tag_567:\n        /* \"#utility.yul\":19995:20062   */\n      tag_568\n        /* \"#utility.yul\":20055:20061   */\n      dup3\n        /* \"#utility.yul\":20047:20053   */\n      dup3\n        /* \"#utility.yul\":20041:20045   */\n      dup6\n        /* \"#utility.yul\":19995:20062   */\n      tag_356\n      jump\t// in\n    tag_568:\n        /* \"#utility.yul\":20089:20090   */\n      0x00\n        /* \"#utility.yul\":20113:20117   */\n      0x20\n        /* \"#utility.yul\":20100:20117   */\n      swap1\n      pop\n        /* \"#utility.yul\":20145:20147   */\n      0x1f\n        /* \"#utility.yul\":20137:20143   */\n      dup4\n        /* \"#utility.yul\":20134:20148   */\n      gt\n        /* \"#utility.yul\":20162:20163   */\n      0x01\n        /* \"#utility.yul\":20157:20775   */\n      dup2\n      eq\n      tag_570\n      jumpi\n        /* \"#utility.yul\":20819:20820   */\n      0x00\n        /* \"#utility.yul\":20836:20842   */\n      dup5\n        /* \"#utility.yul\":20833:20910   */\n      iszero\n      tag_571\n      jumpi\n        /* \"#utility.yul\":20885:20894   */\n      dup3\n        /* \"#utility.yul\":20880:20883   */\n      dup8\n        /* \"#utility.yul\":20876:20895   */\n      add\n        /* \"#utility.yul\":20870:20896   */\n      mload\n        /* \"#utility.yul\":20861:20896   */\n      swap1\n      pop\n        /* \"#utility.yul\":20833:20910   */\n    tag_571:\n        /* \"#utility.yul\":20936:21003   */\n      tag_572\n        /* \"#utility.yul\":20996:21002   */\n      dup6\n        /* \"#utility.yul\":20989:20994   */\n      dup3\n        /* \"#utility.yul\":20936:21003   */\n      tag_359\n      jump\t// in\n    tag_572:\n        /* \"#utility.yul\":20930:20934   */\n      dup7\n        /* \"#utility.yul\":20923:21004   */\n      sstore\n        /* \"#utility.yul\":20792:21014   */\n      pop\n        /* \"#utility.yul\":20127:21014   */\n      jump(tag_569)\n        /* \"#utility.yul\":20157:20775   */\n    tag_570:\n        /* \"#utility.yul\":20209:20213   */\n      0x1f\n        /* \"#utility.yul\":20205:20214   */\n      not\n        /* \"#utility.yul\":20197:20203   */\n      dup5\n        /* \"#utility.yul\":20193:20215   */\n      and\n        /* \"#utility.yul\":20243:20280   */\n      tag_573\n        /* \"#utility.yul\":20275:20279   */\n      dup7\n        /* \"#utility.yul\":20243:20280   */\n      tag_345\n      jump\t// in\n    tag_573:\n        /* \"#utility.yul\":20302:20303   */\n      0x00\n        /* \"#utility.yul\":20316:20524   */\n    tag_574:\n        /* \"#utility.yul\":20330:20337   */\n      dup3\n        /* \"#utility.yul\":20327:20328   */\n      dup2\n        /* \"#utility.yul\":20324:20338   */\n      lt\n        /* \"#utility.yul\":20316:20524   */\n      iszero\n      tag_576\n      jumpi\n        /* \"#utility.yul\":20409:20418   */\n      dup5\n        /* \"#utility.yul\":20404:20407   */\n      dup10\n        /* \"#utility.yul\":20400:20419   */\n      add\n        /* \"#utility.yul\":20394:20420   */\n      mload\n        /* \"#utility.yul\":20386:20392   */\n      dup3\n        /* \"#utility.yul\":20379:20421   */\n      sstore\n        /* \"#utility.yul\":20460:20461   */\n      0x01\n        /* \"#utility.yul\":20452:20458   */\n      dup3\n        /* \"#utility.yul\":20448:20462   */\n      add\n        /* \"#utility.yul\":20438:20462   */\n      swap2\n      pop\n        /* \"#utility.yul\":20507:20509   */\n      0x20\n        /* \"#utility.yul\":20496:20505   */\n      dup6\n        /* \"#utility.yul\":20492:20510   */\n      add\n        /* \"#utility.yul\":20479:20510   */\n      swap5\n      pop\n        /* \"#utility.yul\":20353:20357   */\n      0x20\n        /* \"#utility.yul\":20350:20351   */\n      dup2\n        /* \"#utility.yul\":20346:20358   */\n      add\n        /* \"#utility.yul\":20341:20358   */\n      swap1\n      pop\n        /* \"#utility.yul\":20316:20524   */\n      jump(tag_574)\n    tag_576:\n        /* \"#utility.yul\":20552:20558   */\n      dup7\n        /* \"#utility.yul\":20543:20550   */\n      dup4\n        /* \"#utility.yul\":20540:20559   */\n      lt\n        /* \"#utility.yul\":20537:20716   */\n      iszero\n      tag_577\n      jumpi\n        /* \"#utility.yul\":20610:20619   */\n      dup5\n        /* \"#utility.yul\":20605:20608   */\n      dup10\n        /* \"#utility.yul\":20601:20620   */\n      add\n        /* \"#utility.yul\":20595:20621   */\n      mload\n        /* \"#utility.yul\":20653:20701   */\n      tag_578\n        /* \"#utility.yul\":20695:20699   */\n      0x1f\n        /* \"#utility.yul\":20687:20693   */\n      dup10\n        /* \"#utility.yul\":20683:20700   */\n      and\n        /* \"#utility.yul\":20672:20681   */\n      dup3\n        /* \"#utility.yul\":20653:20701   */\n      tag_358\n      jump\t// in\n    tag_578:\n        /* \"#utility.yul\":20645:20651   */\n      dup4\n        /* \"#utility.yul\":20638:20702   */\n      sstore\n        /* \"#utility.yul\":20560:20716   */\n      pop\n        /* \"#utility.yul\":20537:20716   */\n    tag_577:\n        /* \"#utility.yul\":20762:20763   */\n      0x01\n        /* \"#utility.yul\":20758:20759   */\n      0x02\n        /* \"#utility.yul\":20750:20756   */\n      dup9\n        /* \"#utility.yul\":20746:20760   */\n      mul\n        /* \"#utility.yul\":20742:20764   */\n      add\n        /* \"#utility.yul\":20736:20740   */\n      dup9\n        /* \"#utility.yul\":20729:20765   */\n      sstore\n        /* \"#utility.yul\":20164:20775   */\n      pop\n      pop\n      pop\n        /* \"#utility.yul\":20127:21014   */\n    tag_569:\n      pop\n        /* \"#utility.yul\":19717:21020   */\n      pop\n      pop\n      pop\n        /* \"#utility.yul\":19625:21020   */\n      pop\n      pop\n      jump\t// out\n        /* \"#utility.yul\":21026:21174   */\n    tag_360:\n        /* \"#utility.yul\":21128:21139   */\n      0x00\n        /* \"#utility.yul\":21165:21168   */\n      dup2\n        /* \"#utility.yul\":21150:21168   */\n      swap1\n      pop\n        /* \"#utility.yul\":21026:21174   */\n      swap3\n      swap2\n      pop\n      pop\n      jump\t// out\n        /* \"#utility.yul\":21180:21334   */\n    tag_361:\n        /* \"#utility.yul\":21320:21326   */\n      0x4445414e00000000000000000000000000000000000000000000000000000000\n        /* \"#utility.yul\":21316:21317   */\n      0x00\n        /* \"#utility.yul\":21308:21314   */\n      dup3\n        /* \"#utility.yul\":21304:21318   */\n      add\n        /* \"#utility.yul\":21297:21327   */\n      mstore\n        /* \"#utility.yul\":21180:21334   */\n      pop\n      jump\t// out\n        /* \"#utility.yul\":21340:21740   */\n    tag_362:\n        /* \"#utility.yul\":21500:21503   */\n      0x00\n        /* \"#utility.yul\":21521:21605   */\n      tag_582\n        /* \"#utility.yul\":21603:21604   */\n      0x04\n        /* \"#utility.yul\":21598:21601   */\n      dup4\n        /* \"#utility.yul\":21521:21605   */\n      tag_360\n      jump\t// in\n    tag_582:\n        /* \"#utility.yul\":21514:21605   */\n      swap2\n      pop\n        /* \"#utility.yul\":21614:21707   */\n      tag_583\n        /* \"#utility.yul\":21703:21706   */\n      dup3\n        /* \"#utility.yul\":21614:21707   */\n      tag_361\n      jump\t// in\n    tag_583:\n        /* \"#utility.yul\":21732:21733   */\n      0x04\n        /* \"#utility.yul\":21727:21730   */\n      dup3\n        /* \"#utility.yul\":21723:21734   */\n      add\n        /* \"#utility.yul\":21716:21734   */\n      swap1\n      pop\n        /* \"#utility.yul\":21340:21740   */\n      swap2\n      swap1\n      pop\n      jump\t// out\n        /* \"#utility.yul\":21746:22127   */\n    tag_50:\n        /* \"#utility.yul\":21931:21934   */\n      0x00\n        /* \"#utility.yul\":21953:22101   */\n      tag_585\n        /* \"#utility.yul\":22097:22100   */\n      dup3\n        /* \"#utility.yul\":21953:22101   */\n      tag_362\n      jump\t// in\n    tag_585:\n        /* \"#utility.yul\":21946:22101   */\n      swap2\n      pop\n        /* \"#utility.yul\":22118:22121   */\n      dup2\n        /* \"#utility.yul\":22111:22121   */\n      swap1\n      pop\n        /* \"#utility.yul\":21746:22127   */\n      swap2\n      swap1\n      pop\n      jump\t// out\n        /* \"#utility.yul\":22133:22523   */\n    tag_363:\n        /* \"#utility.yul\":22239:22242   */\n      0x00\n        /* \"#utility.yul\":22267:22306   */\n      tag_587\n        /* \"#utility.yul\":22300:22305   */\n      dup3\n        /* \"#utility.yul\":22267:22306   */\n      tag_323\n      jump\t// in\n    tag_587:\n        /* \"#utility.yul\":22322:22411   */\n      tag_588\n        /* \"#utility.yul\":22404:22410   */\n      dup2\n        /* \"#utility.yul\":22399:22402   */\n      dup6\n        /* \"#utility.yul\":22322:22411   */\n      tag_360\n      jump\t// in\n    tag_588:\n        /* \"#utility.yul\":22315:22411   */\n      swap4\n      pop\n        /* \"#utility.yul\":22420:22485   */\n      tag_589\n        /* \"#utility.yul\":22478:22484   */\n      dup2\n        /* \"#utility.yul\":22473:22476   */\n      dup6\n        /* \"#utility.yul\":22466:22470   */\n      0x20\n        /* \"#utility.yul\":22459:22464   */\n      dup7\n        /* \"#utility.yul\":22455:22471   */\n      add\n        /* \"#utility.yul\":22420:22485   */\n      tag_325\n      jump\t// in\n    tag_589:\n        /* \"#utility.yul\":22510:22516   */\n      dup1\n        /* \"#utility.yul\":22505:22508   */\n      dup5\n        /* \"#utility.yul\":22501:22517   */\n      add\n        /* \"#utility.yul\":22494:22517   */\n      swap2\n      pop\n        /* \"#utility.yul\":22243:22523   */\n      pop\n        /* \"#utility.yul\":22133:22523   */\n      swap3\n      swap2\n      pop\n      pop\n      jump\t// out\n        /* \"#utility.yul\":22529:22804   */\n    tag_52:\n        /* \"#utility.yul\":22661:22664   */\n      0x00\n        /* \"#utility.yul\":22683:22778   */\n      tag_591\n        /* \"#utility.yul\":22774:22777   */\n      dup3\n        /* \"#utility.yul\":22765:22771   */\n      dup5\n        /* \"#utility.yul\":22683:22778   */\n      tag_363\n      jump\t// in\n    tag_591:\n        /* \"#utility.yul\":22676:22778   */\n      swap2\n      pop\n        /* \"#utility.yul\":22795:22798   */\n      dup2\n        /* \"#utility.yul\":22788:22798   */\n      swap1\n      pop\n        /* \"#utility.yul\":22529:22804   */\n      swap3\n      swap2\n      pop\n      pop\n      jump\t// out\n        /* \"#utility.yul\":22810:22963   */\n    tag_364:\n        /* \"#utility.yul\":22950:22955   */\n      0x484f440000000000000000000000000000000000000000000000000000000000\n        /* \"#utility.yul\":22946:22947   */\n      0x00\n        /* \"#utility.yul\":22938:22944   */\n      dup3\n        /* \"#utility.yul\":22934:22948   */\n      add\n        /* \"#utility.yul\":22927:22956   */\n      mstore\n        /* \"#utility.yul\":22810:22963   */\n      pop\n      jump\t// out\n        /* \"#utility.yul\":22969:23369   */\n    tag_365:\n        /* \"#utility.yul\":23129:23132   */\n      0x00\n        /* \"#utility.yul\":23150:23234   */\n      tag_594\n        /* \"#utility.yul\":23232:23233   */\n      0x03\n        /* \"#utility.yul\":23227:23230   */\n      dup4\n        /* \"#utility.yul\":23150:23234   */\n      tag_360\n      jump\t// in\n    tag_594:\n        /* \"#utility.yul\":23143:23234   */\n      swap2\n      pop\n        /* \"#utility.yul\":23243:23336   */\n      tag_595\n        /* \"#utility.yul\":23332:23335   */\n      dup3\n        /* \"#utility.yul\":23243:23336   */\n      tag_364\n      jump\t// in\n    tag_595:\n        /* \"#utility.yul\":23361:23362   */\n      0x03\n        /* \"#utility.yul\":23356:23359   */\n      dup3\n        /* \"#utility.yul\":23352:23363   */\n      add\n        /* \"#utility.yul\":23345:23363   */\n      swap1\n      pop\n        /* \"#utility.yul\":22969:23369   */\n      swap2\n      swap1\n      pop\n      jump\t// out\n        /* \"#utility.yul\":23375:23756   */\n    tag_56:\n        /* \"#utility.yul\":23560:23563   */\n      0x00\n        /* \"#utility.yul\":23582:23730   */\n      tag_597\n        /* \"#utility.yul\":23726:23729   */\n      dup3\n        /* \"#utility.yul\":23582:23730   */\n      tag_365\n      jump\t// in\n    tag_597:\n        /* \"#utility.yul\":23575:23730   */\n      swap2\n      pop\n        /* \"#utility.yul\":23747:23750   */\n      dup2\n        /* \"#utility.yul\":23740:23750   */\n      swap1\n      pop\n        /* \"#utility.yul\":23375:23756   */\n      swap2\n      swap1\n      pop\n      jump\t// out\n        /* \"#utility.yul\":23762:23931   */\n    tag_366:\n        /* \"#utility.yul\":23846:23857   */\n      0x00\n        /* \"#utility.yul\":23880:23886   */\n      dup3\n        /* \"#utility.yul\":23875:23878   */\n      dup3\n        /* \"#utility.yul\":23868:23887   */\n      mstore\n        /* \"#utility.yul\":23920:23924   */\n      0x20\n        /* \"#utility.yul\":23915:23918   */\n      dup3\n        /* \"#utility.yul\":23911:23925   */\n      add\n        /* \"#utility.yul\":23896:23925   */\n      swap1\n      pop\n        /* \"#utility.yul\":23762:23931   */\n      swap3\n      swap2\n      pop\n      pop\n      jump\t// out\n        /* \"#utility.yul\":23937:24103   */\n    tag_367:\n        /* \"#utility.yul\":24077:24095   */\n      0x4d656d6265722052657175657374656400000000000000000000000000000000\n        /* \"#utility.yul\":24073:24074   */\n      0x00\n        /* \"#utility.yul\":24065:24071   */\n      dup3\n        /* \"#utility.yul\":24061:24075   */\n      add\n        /* \"#utility.yul\":24054:24096   */\n      mstore\n        /* \"#utility.yul\":23937:24103   */\n      pop\n      jump\t// out\n        /* \"#utility.yul\":24109:24475   */\n    tag_368:\n        /* \"#utility.yul\":24251:24254   */\n      0x00\n        /* \"#utility.yul\":24272:24339   */\n      tag_601\n        /* \"#utility.yul\":24336:24338   */\n      0x10\n        /* \"#utility.yul\":24331:24334   */\n      dup4\n        /* \"#utility.yul\":24272:24339   */\n      tag_366\n      jump\t// in\n    tag_601:\n        /* \"#utility.yul\":24265:24339   */\n      swap2\n      pop\n        /* \"#utility.yul\":24348:24441   */\n      tag_602\n        /* \"#utility.yul\":24437:24440   */\n      dup3\n        /* \"#utility.yul\":24348:24441   */\n      tag_367\n      jump\t// in\n    tag_602:\n        /* \"#utility.yul\":24466:24468   */\n      0x20\n        /* \"#utility.yul\":24461:24464   */\n      dup3\n        /* \"#utility.yul\":24457:24469   */\n      add\n        /* \"#utility.yul\":24450:24469   */\n      swap1\n      pop\n        /* \"#utility.yul\":24109:24475   */\n      swap2\n      swap1\n      pop\n      jump\t// out\n        /* \"#utility.yul\":24481:24900   */\n    tag_66:\n        /* \"#utility.yul\":24647:24651   */\n      0x00\n        /* \"#utility.yul\":24685:24687   */\n      0x20\n        /* \"#utility.yul\":24674:24683   */\n      dup3\n        /* \"#utility.yul\":24670:24688   */\n      add\n        /* \"#utility.yul\":24662:24688   */\n      swap1\n      pop\n        /* \"#utility.yul\":24734:24743   */\n      dup2\n        /* \"#utility.yul\":24728:24732   */\n      dup2\n        /* \"#utility.yul\":24724:24744   */\n      sub\n        /* \"#utility.yul\":24720:24721   */\n      0x00\n        /* \"#utility.yul\":24709:24718   */\n      dup4\n        /* \"#utility.yul\":24705:24722   */\n      add\n        /* \"#utility.yul\":24698:24745   */\n      mstore\n        /* \"#utility.yul\":24762:24893   */\n      tag_604\n        /* \"#utility.yul\":24888:24892   */\n      dup2\n        /* \"#utility.yul\":24762:24893   */\n      tag_368\n      jump\t// in\n    tag_604:\n        /* \"#utility.yul\":24754:24893   */\n      swap1\n      pop\n        /* \"#utility.yul\":24481:24900   */\n      swap2\n      swap1\n      pop\n      jump\t// out\n        /* \"#utility.yul\":24906:25068   */\n    tag_369:\n        /* \"#utility.yul\":25046:25060   */\n      0x4d656d6265722045786973740000000000000000000000000000000000000000\n        /* \"#utility.yul\":25042:25043   */\n      0x00\n        /* \"#utility.yul\":25034:25040   */\n      dup3\n        /* \"#utility.yul\":25030:25044   */\n      add\n        /* \"#utility.yul\":25023:25061   */\n      mstore\n        /* \"#utility.yul\":24906:25068   */\n      pop\n      jump\t// out\n        /* \"#utility.yul\":25074:25440   */\n    tag_370:\n        /* \"#utility.yul\":25216:25219   */\n      0x00\n        /* \"#utility.yul\":25237:25304   */\n      tag_607\n        /* \"#utility.yul\":25301:25303   */\n      0x0c\n        /* \"#utility.yul\":25296:25299   */\n      dup4\n        /* \"#utility.yul\":25237:25304   */\n      tag_366\n      jump\t// in\n    tag_607:\n        /* \"#utility.yul\":25230:25304   */\n      swap2\n      pop\n        /* \"#utility.yul\":25313:25406   */\n      tag_608\n        /* \"#utility.yul\":25402:25405   */\n      dup3\n        /* \"#utility.yul\":25313:25406   */\n      tag_369\n      jump\t// in\n    tag_608:\n        /* \"#utility.yul\":25431:25433   */\n      0x20\n        /* \"#utility.yul\":25426:25429   */\n      dup3\n        /* \"#utility.yul\":25422:25434   */\n      add\n        /* \"#utility.yul\":25415:25434   */\n      swap1\n      pop\n        /* \"#utility.yul\":25074:25440   */\n      swap2\n      swap1\n      pop\n      jump\t// out\n        /* \"#utility.yul\":25446:25865   */\n    tag_69:\n        /* \"#utility.yul\":25612:25616   */\n      0x00\n        /* \"#utility.yul\":25650:25652   */\n      0x20\n        /* \"#utility.yul\":25639:25648   */\n      dup3\n        /* \"#utility.yul\":25635:25653   */\n      add\n        /* \"#utility.yul\":25627:25653   */\n      swap1\n      pop\n        /* \"#utility.yul\":25699:25708   */\n      dup2\n        /* \"#utility.yul\":25693:25697   */\n      dup2\n        /* \"#utility.yul\":25689:25709   */\n      sub\n        /* \"#utility.yul\":25685:25686   */\n      0x00\n        /* \"#utility.yul\":25674:25683   */\n      dup4\n        /* \"#utility.yul\":25670:25687   */\n      add\n        /* \"#utility.yul\":25663:25710   */\n      mstore\n        /* \"#utility.yul\":25727:25858   */\n      tag_610\n        /* \"#utility.yul\":25853:25857   */\n      dup2\n        /* \"#utility.yul\":25727:25858   */\n      tag_370\n      jump\t// in\n    tag_610:\n        /* \"#utility.yul\":25719:25858   */\n      swap1\n      pop\n        /* \"#utility.yul\":25446:25865   */\n      swap2\n      swap1\n      pop\n      jump\t// out\n        /* \"#utility.yul\":25871:26020   */\n    tag_371:\n        /* \"#utility.yul\":25920:25926   */\n      0x00\n        /* \"#utility.yul\":25954:25959   */\n      dup2\n        /* \"#utility.yul\":25948:25960   */\n      sload\n        /* \"#utility.yul\":25938:25960   */\n      swap1\n      pop\n        /* \"#utility.yul\":25980:26013   */\n      tag_612\n        /* \"#utility.yul\":26006:26012   */\n      dup2\n        /* \"#utility.yul\":25980:26013   */\n      tag_105\n      jump\t// in\n    tag_612:\n        /* \"#utility.yul\":25970:26013   */\n      swap1\n      pop\n        /* \"#utility.yul\":25871:26020   */\n      swap2\n      swap1\n      pop\n      jump\t// out\n        /* \"#utility.yul\":26026:27477   */\n    tag_72:\n        /* \"#utility.yul\":26137:26140   */\n      dup2\n        /* \"#utility.yul\":26131:26135   */\n      dup2\n        /* \"#utility.yul\":26128:26141   */\n      sub\n        /* \"#utility.yul\":26125:26151   */\n      tag_614\n      jumpi\n        /* \"#utility.yul\":26144:26149   */\n      pop\n      pop\n      jump(tag_613)\n        /* \"#utility.yul\":26125:26151   */\n    tag_614:\n        /* \"#utility.yul\":26175:26209   */\n      tag_615\n        /* \"#utility.yul\":26205:26208   */\n      dup3\n        /* \"#utility.yul\":26175:26209   */\n      tag_371\n      jump\t// in\n    tag_615:\n        /* \"#utility.yul\":26274:26292   */\n      0xffffffffffffffff\n        /* \"#utility.yul\":26266:26272   */\n      dup2\n        /* \"#utility.yul\":26263:26293   */\n      gt\n        /* \"#utility.yul\":26260:26316   */\n      iszero\n      tag_616\n      jumpi\n        /* \"#utility.yul\":26296:26314   */\n      tag_617\n      tag_314\n      jump\t// in\n    tag_617:\n        /* \"#utility.yul\":26260:26316   */\n    tag_616:\n        /* \"#utility.yul\":26340:26378   */\n      tag_618\n        /* \"#utility.yul\":26372:26376   */\n      dup3\n        /* \"#utility.yul\":26366:26377   */\n      sload\n        /* \"#utility.yul\":26340:26378   */\n      tag_105\n      jump\t// in\n    tag_618:\n        /* \"#utility.yul\":26425:26492   */\n      tag_619\n        /* \"#utility.yul\":26485:26491   */\n      dup3\n        /* \"#utility.yul\":26477:26483   */\n      dup3\n        /* \"#utility.yul\":26471:26475   */\n      dup6\n        /* \"#utility.yul\":26425:26492   */\n      tag_356\n      jump\t// in\n    tag_619:\n        /* \"#utility.yul\":26519:26520   */\n      0x00\n        /* \"#utility.yul\":26548:26550   */\n      0x1f\n        /* \"#utility.yul\":26540:26546   */\n      dup4\n        /* \"#utility.yul\":26537:26551   */\n      gt\n        /* \"#utility.yul\":26565:26566   */\n      0x01\n        /* \"#utility.yul\":26560:27232   */\n      dup2\n      eq\n      tag_621\n      jumpi\n        /* \"#utility.yul\":27276:27277   */\n      0x00\n        /* \"#utility.yul\":27293:27299   */\n      dup5\n        /* \"#utility.yul\":27290:27367   */\n      iszero\n      tag_622\n      jumpi\n        /* \"#utility.yul\":27342:27351   */\n      dup3\n        /* \"#utility.yul\":27337:27340   */\n      dup8\n        /* \"#utility.yul\":27333:27352   */\n      add\n        /* \"#utility.yul\":27327:27353   */\n      sload\n        /* \"#utility.yul\":27318:27353   */\n      swap1\n      pop\n        /* \"#utility.yul\":27290:27367   */\n    tag_622:\n        /* \"#utility.yul\":27393:27460   */\n      tag_623\n        /* \"#utility.yul\":27453:27459   */\n      dup6\n        /* \"#utility.yul\":27446:27451   */\n      dup3\n        /* \"#utility.yul\":27393:27460   */\n      tag_359\n      jump\t// in\n    tag_623:\n        /* \"#utility.yul\":27387:27391   */\n      dup7\n        /* \"#utility.yul\":27380:27461   */\n      sstore\n        /* \"#utility.yul\":27249:27471   */\n      pop\n        /* \"#utility.yul\":26530:27471   */\n      jump(tag_620)\n        /* \"#utility.yul\":26560:27232   */\n    tag_621:\n        /* \"#utility.yul\":26612:26616   */\n      0x1f\n        /* \"#utility.yul\":26608:26617   */\n      not\n        /* \"#utility.yul\":26600:26606   */\n      dup5\n        /* \"#utility.yul\":26596:26618   */\n      and\n        /* \"#utility.yul\":26638:26674   */\n      tag_624\n        /* \"#utility.yul\":26670:26673   */\n      dup8\n        /* \"#utility.yul\":26638:26674   */\n      tag_345\n      jump\t// in\n    tag_624:\n        /* \"#utility.yul\":26631:26674   */\n      swap7\n      pop\n        /* \"#utility.yul\":26701:26738   */\n      tag_625\n        /* \"#utility.yul\":26733:26737   */\n      dup7\n        /* \"#utility.yul\":26701:26738   */\n      tag_345\n      jump\t// in\n    tag_625:\n        /* \"#utility.yul\":26760:26761   */\n      0x00\n        /* \"#utility.yul\":26774:26981   */\n    tag_626:\n        /* \"#utility.yul\":26788:26795   */\n      dup3\n        /* \"#utility.yul\":26785:26786   */\n      dup2\n        /* \"#utility.yul\":26782:26796   */\n      lt\n        /* \"#utility.yul\":26774:26981   */\n      iszero\n      tag_628\n      jumpi\n        /* \"#utility.yul\":26867:26876   */\n      dup5\n        /* \"#utility.yul\":26862:26865   */\n      dup10\n        /* \"#utility.yul\":26858:26877   */\n      add\n        /* \"#utility.yul\":26852:26878   */\n      sload\n        /* \"#utility.yul\":26844:26850   */\n      dup3\n        /* \"#utility.yul\":26837:26879   */\n      sstore\n        /* \"#utility.yul\":26918:26919   */\n      0x01\n        /* \"#utility.yul\":26910:26916   */\n      dup3\n        /* \"#utility.yul\":26906:26920   */\n      add\n        /* \"#utility.yul\":26896:26920   */\n      swap2\n      pop\n        /* \"#utility.yul\":26965:26966   */\n      0x01\n        /* \"#utility.yul\":26954:26963   */\n      dup6\n        /* \"#utility.yul\":26950:26967   */\n      add\n        /* \"#utility.yul\":26937:26967   */\n      swap5\n      pop\n        /* \"#utility.yul\":26811:26815   */\n      0x20\n        /* \"#utility.yul\":26808:26809   */\n      dup2\n        /* \"#utility.yul\":26804:26816   */\n      add\n        /* \"#utility.yul\":26799:26816   */\n      swap1\n      pop\n        /* \"#utility.yul\":26774:26981   */\n      jump(tag_626)\n    tag_628:\n        /* \"#utility.yul\":27009:27015   */\n      dup7\n        /* \"#utility.yul\":27000:27007   */\n      dup4\n        /* \"#utility.yul\":26997:27016   */\n      lt\n        /* \"#utility.yul\":26994:27173   */\n      iszero\n      tag_629\n      jumpi\n        /* \"#utility.yul\":27067:27076   */\n      dup5\n        /* \"#utility.yul\":27062:27065   */\n      dup10\n        /* \"#utility.yul\":27058:27077   */\n      add\n        /* \"#utility.yul\":27052:27078   */\n      sload\n        /* \"#utility.yul\":27110:27158   */\n      tag_630\n        /* \"#utility.yul\":27152:27156   */\n      0x1f\n        /* \"#utility.yul\":27144:27150   */\n      dup10\n        /* \"#utility.yul\":27140:27157   */\n      and\n        /* \"#utility.yul\":27129:27138   */\n      dup3\n        /* \"#utility.yul\":27110:27158   */\n      tag_358\n      jump\t// in\n    tag_630:\n        /* \"#utility.yul\":27102:27108   */\n      dup4\n        /* \"#utility.yul\":27095:27159   */\n      sstore\n        /* \"#utility.yul\":27017:27173   */\n      pop\n        /* \"#utility.yul\":26994:27173   */\n    tag_629:\n        /* \"#utility.yul\":27219:27220   */\n      0x01\n        /* \"#utility.yul\":27215:27216   */\n      0x02\n        /* \"#utility.yul\":27207:27213   */\n      dup9\n        /* \"#utility.yul\":27203:27217   */\n      mul\n        /* \"#utility.yul\":27199:27221   */\n      add\n        /* \"#utility.yul\":27193:27197   */\n      dup9\n        /* \"#utility.yul\":27186:27222   */\n      sstore\n        /* \"#utility.yul\":26567:27232   */\n      pop\n      pop\n      pop\n        /* \"#utility.yul\":26530:27471   */\n    tag_620:\n      pop\n        /* \"#utility.yul\":26115:27477   */\n      pop\n      pop\n      pop\n        /* \"#utility.yul\":26026:27477   */\n      pop\n      pop\n    tag_613:\n      jump\t// out\n        /* \"#utility.yul\":27483:27658   */\n    tag_372:\n        /* \"#utility.yul\":27623:27650   */\n      0x596f75206e65656420746f205265717565737420466972737400000000000000\n        /* \"#utility.yul\":27619:27620   */\n      0x00\n        /* \"#utility.yul\":27611:27617   */\n      dup3\n        /* \"#utility.yul\":27607:27621   */\n      add\n        /* \"#utility.yul\":27600:27651   */\n      mstore\n        /* \"#utility.yul\":27483:27658   */\n      pop\n      jump\t// out\n        /* \"#utility.yul\":27664:28030   */\n    tag_373:\n        /* \"#utility.yul\":27806:27809   */\n      0x00\n        /* \"#utility.yul\":27827:27894   */\n      tag_633\n        /* \"#utility.yul\":27891:27893   */\n      0x19\n        /* \"#utility.yul\":27886:27889   */\n      dup4\n        /* \"#utility.yul\":27827:27894   */\n      tag_366\n      jump\t// in\n    tag_633:\n        /* \"#utility.yul\":27820:27894   */\n      swap2\n      pop\n        /* \"#utility.yul\":27903:27996   */\n      tag_634\n        /* \"#utility.yul\":27992:27995   */\n      dup3\n        /* \"#utility.yul\":27903:27996   */\n      tag_372\n      jump\t// in\n    tag_634:\n        /* \"#utility.yul\":28021:28023   */\n      0x20\n        /* \"#utility.yul\":28016:28019   */\n      dup3\n        /* \"#utility.yul\":28012:28024   */\n      add\n        /* \"#utility.yul\":28005:28024   */\n      swap1\n      pop\n        /* \"#utility.yul\":27664:28030   */\n      swap2\n      swap1\n      pop\n      jump\t// out\n        /* \"#utility.yul\":28036:28455   */\n    tag_87:\n        /* \"#utility.yul\":28202:28206   */\n      0x00\n        /* \"#utility.yul\":28240:28242   */\n      0x20\n        /* \"#utility.yul\":28229:28238   */\n      dup3\n        /* \"#utility.yul\":28225:28243   */\n      add\n        /* \"#utility.yul\":28217:28243   */\n      swap1\n      pop\n        /* \"#utility.yul\":28289:28298   */\n      dup2\n        /* \"#utility.yul\":28283:28287   */\n      dup2\n        /* \"#utility.yul\":28279:28299   */\n      sub\n        /* \"#utility.yul\":28275:28276   */\n      0x00\n        /* \"#utility.yul\":28264:28273   */\n      dup4\n        /* \"#utility.yul\":28260:28277   */\n      add\n        /* \"#utility.yul\":28253:28300   */\n      mstore\n        /* \"#utility.yul\":28317:28448   */\n      tag_636\n        /* \"#utility.yul\":28443:28447   */\n      dup2\n        /* \"#utility.yul\":28317:28448   */\n      tag_373\n      jump\t// in\n    tag_636:\n        /* \"#utility.yul\":28309:28448   */\n      swap1\n      pop\n        /* \"#utility.yul\":28036:28455   */\n      swap2\n      swap1\n      pop\n      jump\t// out\n        /* \"#utility.yul\":28461:28690   */\n    tag_374:\n        /* \"#utility.yul\":28601:28635   */\n      0x596f752063616e277420617070726f6f766520736f6d656f6e652061626f7665\n        /* \"#utility.yul\":28597:28598   */\n      0x00\n        /* \"#utility.yul\":28589:28595   */\n      dup3\n        /* \"#utility.yul\":28585:28599   */\n      add\n        /* \"#utility.yul\":28578:28636   */\n      mstore\n        /* \"#utility.yul\":28670:28682   */\n      0x207468616e20796f752e00000000000000000000000000000000000000000000\n        /* \"#utility.yul\":28665:28667   */\n      0x20\n        /* \"#utility.yul\":28657:28663   */\n      dup3\n        /* \"#utility.yul\":28653:28668   */\n      add\n        /* \"#utility.yul\":28646:28683   */\n      mstore\n        /* \"#utility.yul\":28461:28690   */\n      pop\n      jump\t// out\n        /* \"#utility.yul\":28696:29062   */\n    tag_375:\n        /* \"#utility.yul\":28838:28841   */\n      0x00\n        /* \"#utility.yul\":28859:28926   */\n      tag_639\n        /* \"#utility.yul\":28923:28925   */\n      0x2a\n        /* \"#utility.yul\":28918:28921   */\n      dup4\n        /* \"#utility.yul\":28859:28926   */\n      tag_366\n      jump\t// in\n    tag_639:\n        /* \"#utility.yul\":28852:28926   */\n      swap2\n      pop\n        /* \"#utility.yul\":28935:29028   */\n      tag_640\n        /* \"#utility.yul\":29024:29027   */\n      dup3\n        /* \"#utility.yul\":28935:29028   */\n      tag_374\n      jump\t// in\n    tag_640:\n        /* \"#utility.yul\":29053:29055   */\n      0x40\n        /* \"#utility.yul\":29048:29051   */\n      dup3\n        /* \"#utility.yul\":29044:29056   */\n      add\n        /* \"#utility.yul\":29037:29056   */\n      swap1\n      pop\n        /* \"#utility.yul\":28696:29062   */\n      swap2\n      swap1\n      pop\n      jump\t// out\n        /* \"#utility.yul\":29068:29487   */\n    tag_201:\n        /* \"#utility.yul\":29234:29238   */\n      0x00\n        /* \"#utility.yul\":29272:29274   */\n      0x20\n        /* \"#utility.yul\":29261:29270   */\n      dup3\n        /* \"#utility.yul\":29257:29275   */\n      add\n        /* \"#utility.yul\":29249:29275   */\n      swap1\n      pop\n        /* \"#utility.yul\":29321:29330   */\n      dup2\n        /* \"#utility.yul\":29315:29319   */\n      dup2\n        /* \"#utility.yul\":29311:29331   */\n      sub\n        /* \"#utility.yul\":29307:29308   */\n      0x00\n        /* \"#utility.yul\":29296:29305   */\n      dup4\n        /* \"#utility.yul\":29292:29309   */\n      add\n        /* \"#utility.yul\":29285:29332   */\n      mstore\n        /* \"#utility.yul\":29349:29480   */\n      tag_642\n        /* \"#utility.yul\":29475:29479   */\n      dup2\n        /* \"#utility.yul\":29349:29480   */\n      tag_375\n      jump\t// in\n    tag_642:\n        /* \"#utility.yul\":29341:29480   */\n      swap1\n      pop\n        /* \"#utility.yul\":29068:29487   */\n      swap2\n      swap1\n      pop\n      jump\t// out\n        /* \"#utility.yul\":29493:29673   */\n    tag_376:\n        /* \"#utility.yul\":29541:29618   */\n      0x4e487b7100000000000000000000000000000000000000000000000000000000\n        /* \"#utility.yul\":29538:29539   */\n      0x00\n        /* \"#utility.yul\":29531:29619   */\n      mstore\n        /* \"#utility.yul\":29638:29642   */\n      0x11\n        /* \"#utility.yul\":29635:29636   */\n      0x04\n        /* \"#utility.yul\":29628:29643   */\n      mstore\n        /* \"#utility.yul\":29662:29666   */\n      0x24\n        /* \"#utility.yul\":29659:29660   */\n      0x00\n        /* \"#utility.yul\":29652:29667   */\n      revert\n        /* \"#utility.yul\":29679:29873   */\n    tag_262:\n        /* \"#utility.yul\":29719:29723   */\n      0x00\n        /* \"#utility.yul\":29739:29759   */\n      tag_645\n        /* \"#utility.yul\":29757:29758   */\n      dup3\n        /* \"#utility.yul\":29739:29759   */\n      tag_328\n      jump\t// in\n    tag_645:\n        /* \"#utility.yul\":29734:29759   */\n      swap2\n      pop\n        /* \"#utility.yul\":29773:29793   */\n      tag_646\n        /* \"#utility.yul\":29791:29792   */\n      dup4\n        /* \"#utility.yul\":29773:29793   */\n      tag_328\n      jump\t// in\n    tag_646:\n        /* \"#utility.yul\":29768:29793   */\n      swap3\n      pop\n        /* \"#utility.yul\":29817:29818   */\n      dup3\n        /* \"#utility.yul\":29814:29815   */\n      dup3\n        /* \"#utility.yul\":29810:29819   */\n      sub\n        /* \"#utility.yul\":29802:29819   */\n      swap1\n      pop\n        /* \"#utility.yul\":29841:29842   */\n      dup2\n        /* \"#utility.yul\":29835:29839   */\n      dup2\n        /* \"#utility.yul\":29832:29843   */\n      gt\n        /* \"#utility.yul\":29829:29866   */\n      iszero\n      tag_647\n      jumpi\n        /* \"#utility.yul\":29846:29864   */\n      tag_648\n      tag_376\n      jump\t// in\n    tag_648:\n        /* \"#utility.yul\":29829:29866   */\n    tag_647:\n        /* \"#utility.yul\":29679:29873   */\n      swap3\n      swap2\n      pop\n      pop\n      jump\t// out\n        /* \"#utility.yul\":29879:30059   */\n    tag_265:\n        /* \"#utility.yul\":29927:30004   */\n      0x4e487b7100000000000000000000000000000000000000000000000000000000\n        /* \"#utility.yul\":29924:29925   */\n      0x00\n        /* \"#utility.yul\":29917:30005   */\n      mstore\n        /* \"#utility.yul\":30024:30028   */\n      0x32\n        /* \"#utility.yul\":30021:30022   */\n      0x04\n        /* \"#utility.yul\":30014:30029   */\n      mstore\n        /* \"#utility.yul\":30048:30052   */\n      0x24\n        /* \"#utility.yul\":30045:30046   */\n      0x00\n        /* \"#utility.yul\":30038:30053   */\n      revert\n        /* \"#utility.yul\":30065:30245   */\n    tag_276:\n        /* \"#utility.yul\":30113:30190   */\n      0x4e487b7100000000000000000000000000000000000000000000000000000000\n        /* \"#utility.yul\":30110:30111   */\n      0x00\n        /* \"#utility.yul\":30103:30191   */\n      mstore\n        /* \"#utility.yul\":30210:30214   */\n      0x31\n        /* \"#utility.yul\":30207:30208   */\n      0x04\n        /* \"#utility.yul\":30200:30215   */\n      mstore\n        /* \"#utility.yul\":30234:30238   */\n      0x24\n        /* \"#utility.yul\":30231:30232   */\n      0x00\n        /* \"#utility.yul\":30224:30239   */\n      revert\n\n    auxdata: 0xa2646970667358221220efbd92cdaa323ae80e3b0f481bd9839b74db907c4a2fb66fd9b91c09f49a377064736f6c63430008100033\n}\n","bytecode":{"linkReferences":{},"object":"608060405260008055600060015534801561001957600080fd5b506131c8806100296000396000f3fe6080604052600436106100555760003560e01c806335a6861a1461005a5780634cd6f25e14610097578063a9e10bf2146100c0578063bafa08c1146100ca578063e070dd1214610107578063e473f6cd14610130575b600080fd5b34801561006657600080fd5b50610081600480360381019061007c91906122fd565b61016d565b60405161008e9190612345565b60405180910390f35b3480156100a357600080fd5b506100be60048036038101906100b991906124d2565b6101da565b005b6100c8610ae6565b005b3480156100d657600080fd5b506100f160048036038101906100ec91906125a1565b610ae8565b6040516100fe91906127e8565b60405180910390f35b34801561011357600080fd5b5061012e6004803603810190610129919061280a565b61117e565b005b34801561013c57600080fd5b506101576004803603810190610152919061284a565b611894565b60405161016491906129d7565b60405180910390f35b600060011515600660008473ffffffffffffffffffffffffffffffffffffffff1673ffffffffffffffffffffffffffffffffffffffff16815260200190815260200160002060009054906101000a900460ff161515036101d057600190506101d5565b600090505b919050565b84600a60000190816101ec9190612c05565b5083600a60010190816101ff9190612c05565b5082600a60020190816102129190612c05565b5081600a60030160006101000a81548173ffffffffffffffffffffffffffffffffffffffff021916908373ffffffffffffffffffffffffffffffffffffffff16021790555060405160200161026690612d2e565b604051602081830303815290604052805190602001208560405160200161028d9190612d74565b60405160208183030381529060405280519060200120036102b8576001600a60040181905550610326565b6040516020016102c790612dd7565b60405160208183030381529060405280519060200120856040516020016102ee9190612d74565b6040516020818303038152906040528051906020012003610319576002600a60040181905550610325565b6003600a600401819055505b5b60011515811515148015610384575060405160200161034490612d2e565b604051602081830303815290604052805190602001208560405160200161036b9190612d74565b6040516020818303038152906040528051906020012014155b1561070d5760001515600960008473ffffffffffffffffffffffffffffffffffffffff1673ffffffffffffffffffffffffffffffffffffffff16815260200190815260200160002060009054906101000a900460ff1615151461041c576040517f08c379a000000000000000000000000000000000000000000000000000000000815260040161041390612e49565b60405180910390fd5b60001515600660008473ffffffffffffffffffffffffffffffffffffffff1673ffffffffffffffffffffffffffffffffffffffff16815260200190815260200160002060009054906101000a900460ff161515146104af576040517f08c379a00000000000000000000000000000000000000000000000000000000081526004016104a690612eb5565b60405180910390fd5b6008600a9080600181540180825580915050600190039060005260206000209060060201600090919091909150600082018160000190816104f09190612eeb565b50600182018160010190816105059190612eeb565b506002820181600201908161051a9190612eeb565b506003820160009054906101000a900473ffffffffffffffffffffffffffffffffffffffff168160030160006101000a81548173ffffffffffffffffffffffffffffffffffffffff021916908373ffffffffffffffffffffffffffffffffffffffff1602179055506004820154816004015560058201816005019080546105a2929190612140565b505050600a600760008473ffffffffffffffffffffffffffffffffffffffff1673ffffffffffffffffffffffffffffffffffffffff168152602001908152602001600020600082018160000190816105fa9190612eeb565b506001820181600101908161060f9190612eeb565b50600282018160020190816106249190612eeb565b506003820160009054906101000a900473ffffffffffffffffffffffffffffffffffffffff168160030160006101000a81548173ffffffffffffffffffffffffffffffffffffffff021916908373ffffffffffffffffffffffffffffffffffffffff1602179055506004820154816004015560058201816005019080546106ac929190612140565b509050506001600960008473ffffffffffffffffffffffffffffffffffffffff1673ffffffffffffffffffffffffffffffffffffffff16815260200190815260200160002060006101000a81548160ff021916908315150217905550610adf565b60405160200161071c90612d2e565b60405160208183030381529060405280519060200120856040516020016107439190612d74565b60405160208183030381529060405280519060200120146107f25760011515600960008473ffffffffffffffffffffffffffffffffffffffff1673ffffffffffffffffffffffffffffffffffffffff16815260200190815260200160002060009054906101000a900460ff161515146107f1576040517f08c379a00000000000000000000000000000000000000000000000000000000081526004016107e89061301f565b60405180910390fd5b5b60001515600660008473ffffffffffffffffffffffffffffffffffffffff1673ffffffffffffffffffffffffffffffffffffffff16815260200190815260200160002060009054906101000a900460ff16151514610885576040517f08c379a000000000000000000000000000000000000000000000000000000000815260040161087c90612eb5565b60405180910390fd5b6005600a9080600181540180825580915050600190039060005260206000209060060201600090919091909150600082018160000190816108c69190612eeb565b50600182018160010190816108db9190612eeb565b50600282018160020190816108f09190612eeb565b506003820160009054906101000a900473ffffffffffffffffffffffffffffffffffffffff168160030160006101000a81548173ffffffffffffffffffffffffffffffffffffffff021916908373ffffffffffffffffffffffffffffffffffffffff160217905550600482015481600401556005820181600501908054610978929190612140565b505050600a600460008473ffffffffffffffffffffffffffffffffffffffff1673ffffffffffffffffffffffffffffffffffffffff168152602001908152602001600020600082018160000190816109d09190612eeb565b50600182018160010190816109e59190612eeb565b50600282018160020190816109fa9190612eeb565b506003820160009054906101000a900473ffffffffffffffffffffffffffffffffffffffff168160030160006101000a81548173ffffffffffffffffffffffffffffffffffffffff021916908373ffffffffffffffffffffffffffffffffffffffff160217905550600482015481600401556005820181600501908054610a82929190612140565b509050506001600660008473ffffffffffffffffffffffffffffffffffffffff1673ffffffffffffffffffffffffffffffffffffffff16815260200190815260200160002060006101000a81548160ff0219169083151502179055505b5050505050565b565b610af061219d565b6001151582151503610e3c57600760008473ffffffffffffffffffffffffffffffffffffffff1673ffffffffffffffffffffffffffffffffffffffff1681526020019081526020016000206040518060c0016040529081600082018054610b5690612a28565b80601f0160208091040260200160405190810160405280929190818152602001828054610b8290612a28565b8015610bcf5780601f10610ba457610100808354040283529160200191610bcf565b820191906000526020600020905b815481529060010190602001808311610bb257829003601f168201915b50505050508152602001600182018054610be890612a28565b80601f0160208091040260200160405190810160405280929190818152602001828054610c1490612a28565b8015610c615780601f10610c3657610100808354040283529160200191610c61565b820191906000526020600020905b815481529060010190602001808311610c4457829003601f168201915b50505050508152602001600282018054610c7a90612a28565b80601f0160208091040260200160405190810160405280929190818152602001828054610ca690612a28565b8015610cf35780601f10610cc857610100808354040283529160200191610cf3565b820191906000526020600020905b815481529060010190602001808311610cd657829003601f168201915b505050505081526020016003820160009054906101000a900473ffffffffffffffffffffffffffffffffffffffff1673ffffffffffffffffffffffffffffffffffffffff1673ffffffffffffffffffffffffffffffffffffffff1681526020016004820154815260200160058201805480602002602001604051908101604052809291908181526020016000905b82821015610e2d578382906000526020600020018054610da090612a28565b80601f0160208091040260200160405190810160405280929190818152602001828054610dcc90612a28565b8015610e195780601f10610dee57610100808354040283529160200191610e19565b820191906000526020600020905b815481529060010190602001808311610dfc57829003601f168201915b505050505081526020019060010190610d81565b50505050815250509050611178565b600460008473ffffffffffffffffffffffffffffffffffffffff1673ffffffffffffffffffffffffffffffffffffffff1681526020019081526020016000206040518060c0016040529081600082018054610e9690612a28565b80601f0160208091040260200160405190810160405280929190818152602001828054610ec290612a28565b8015610f0f5780601f10610ee457610100808354040283529160200191610f0f565b820191906000526020600020905b815481529060010190602001808311610ef257829003601f168201915b50505050508152602001600182018054610f2890612a28565b80601f0160208091040260200160405190810160405280929190818152602001828054610f5490612a28565b8015610fa15780601f10610f7657610100808354040283529160200191610fa1565b820191906000526020600020905b815481529060010190602001808311610f8457829003601f168201915b50505050508152602001600282018054610fba90612a28565b80601f0160208091040260200160405190810160405280929190818152602001828054610fe690612a28565b80156110335780601f1061100857610100808354040283529160200191611033565b820191906000526020600020905b81548152906001019060200180831161101657829003601f168201915b505050505081526020016003820160009054906101000a900473ffffffffffffffffffffffffffffffffffffffff1673ffffffffffffffffffffffffffffffffffffffff1673ffffffffffffffffffffffffffffffffffffffff1681526020016004820154815260200160058201805480602002602001604051908101604052809291908181526020016000905b8282101561116d5783829060005260206000200180546110e090612a28565b80601f016020809104026020016040519081016040528092919081815260200182805461110c90612a28565b80156111595780601f1061112e57610100808354040283529160200191611159565b820191906000526020600020905b81548152906001019060200180831161113c57829003601f168201915b5050505050815260200190600101906110c1565b505050508152505090505b92915050565b6000600760008473ffffffffffffffffffffffffffffffffffffffff1673ffffffffffffffffffffffffffffffffffffffff1681526020019081526020016000206040518060c00160405290816000820180546111da90612a28565b80601f016020809104026020016040519081016040528092919081815260200182805461120690612a28565b80156112535780601f1061122857610100808354040283529160200191611253565b820191906000526020600020905b81548152906001019060200180831161123657829003601f168201915b5050505050815260200160018201805461126c90612a28565b80601f016020809104026020016040519081016040528092919081815260200182805461129890612a28565b80156112e55780601f106112ba576101008083540402835291602001916112e5565b820191906000526020600020905b8154815290600101906020018083116112c857829003601f168201915b505050505081526020016002820180546112fe90612a28565b80601f016020809104026020016040519081016040528092919081815260200182805461132a90612a28565b80156113775780601f1061134c57610100808354040283529160200191611377565b820191906000526020600020905b81548152906001019060200180831161135a57829003601f168201915b505050505081526020016003820160009054906101000a900473ffffffffffffffffffffffffffffffffffffffff1673ffffffffffffffffffffffffffffffffffffffff1673ffffffffffffffffffffffffffffffffffffffff1681526020016004820154815260200160058201805480602002602001604051908101604052809291908181526020016000905b828210156114b157838290600052602060002001805461142490612a28565b80601f016020809104026020016040519081016040528092919081815260200182805461145090612a28565b801561149d5780601f106114725761010080835404028352916020019161149d565b820191906000526020600020905b81548152906001019060200180831161148057829003601f168201915b505050505081526020019060010190611405565b505050508152505090506000600460008473ffffffffffffffffffffffffffffffffffffffff1673ffffffffffffffffffffffffffffffffffffffff1681526020019081526020016000206040518060c001604052908160008201805461151790612a28565b80601f016020809104026020016040519081016040528092919081815260200182805461154390612a28565b80156115905780601f1061156557610100808354040283529160200191611590565b820191906000526020600020905b81548152906001019060200180831161157357829003601f168201915b505050505081526020016001820180546115a990612a28565b80601f01602080910402602001604051908101604052809291908181526020018280546115d590612a28565b80156116225780601f106115f757610100808354040283529160200191611622565b820191906000526020600020905b81548152906001019060200180831161160557829003601f168201915b5050505050815260200160028201805461163b90612a28565b80601f016020809104026020016040519081016040528092919081815260200182805461166790612a28565b80156116b45780601f10611689576101008083540402835291602001916116b4565b820191906000526020600020905b81548152906001019060200180831161169757829003601f168201915b505050505081526020016003820160009054906101000a900473ffffffffffffffffffffffffffffffffffffffff1673ffffffffffffffffffffffffffffffffffffffff1673ffffffffffffffffffffffffffffffffffffffff1681526020016004820154815260200160058201805480602002602001604051908101604052809291908181526020016000905b828210156117ee57838290600052602060002001805461176190612a28565b80601f016020809104026020016040519081016040528092919081815260200182805461178d90612a28565b80156117da5780601f106117af576101008083540402835291602001916117da565b820191906000526020600020905b8154815290600101906020018083116117bd57829003601f168201915b505050505081526020019060010190611742565b5050505081525050905060008260000151905060008360200151905060008460400151905060008560600151905060008660800151905060008660800151905081811115611871576040517f08c379a0000000000000000000000000000000000000000000000000000000008152600401611868906130b1565b60405180910390fd5b61187f8686868660006101da565b6118888a611f3f565b50505050505050505050565b60606001151582151503611bf0576008805480602002602001604051908101604052809291908181526020016000905b82821015611be557838290600052602060002090600602016040518060c00160405290816000820180546118f790612a28565b80601f016020809104026020016040519081016040528092919081815260200182805461192390612a28565b80156119705780601f1061194557610100808354040283529160200191611970565b820191906000526020600020905b81548152906001019060200180831161195357829003601f168201915b5050505050815260200160018201805461198990612a28565b80601f01602080910402602001604051908101604052809291908181526020018280546119b590612a28565b8015611a025780601f106119d757610100808354040283529160200191611a02565b820191906000526020600020905b8154815290600101906020018083116119e557829003601f168201915b50505050508152602001600282018054611a1b90612a28565b80601f0160208091040260200160405190810160405280929190818152602001828054611a4790612a28565b8015611a945780601f10611a6957610100808354040283529160200191611a94565b820191906000526020600020905b815481529060010190602001808311611a7757829003601f168201915b505050505081526020016003820160009054906101000a900473ffffffffffffffffffffffffffffffffffffffff1673ffffffffffffffffffffffffffffffffffffffff1673ffffffffffffffffffffffffffffffffffffffff1681526020016004820154815260200160058201805480602002602001604051908101604052809291908181526020016000905b82821015611bce578382906000526020600020018054611b4190612a28565b80601f0160208091040260200160405190810160405280929190818152602001828054611b6d90612a28565b8015611bba5780601f10611b8f57610100808354040283529160200191611bba565b820191906000526020600020905b815481529060010190602001808311611b9d57829003601f168201915b505050505081526020019060010190611b22565b5050505081525050815260200190600101906118c4565b505050509050611f3a565b6005805480602002602001604051908101604052809291908181526020016000905b82821015611f3357838290600052602060002090600602016040518060c0016040529081600082018054611c4590612a28565b80601f0160208091040260200160405190810160405280929190818152602001828054611c7190612a28565b8015611cbe5780601f10611c9357610100808354040283529160200191611cbe565b820191906000526020600020905b815481529060010190602001808311611ca157829003601f168201915b50505050508152602001600182018054611cd790612a28565b80601f0160208091040260200160405190810160405280929190818152602001828054611d0390612a28565b8015611d505780601f10611d2557610100808354040283529160200191611d50565b820191906000526020600020905b815481529060010190602001808311611d3357829003601f168201915b50505050508152602001600282018054611d6990612a28565b80601f0160208091040260200160405190810160405280929190818152602001828054611d9590612a28565b8015611de25780601f10611db757610100808354040283529160200191611de2565b820191906000526020600020905b815481529060010190602001808311611dc557829003601f168201915b505050505081526020016003820160009054906101000a900473ffffffffffffffffffffffffffffffffffffffff1673ffffffffffffffffffffffffffffffffffffffff1673ffffffffffffffffffffffffffffffffffffffff1681526020016004820154815260200160058201805480602002602001604051908101604052809291908181526020016000905b82821015611f1c578382906000526020600020018054611e8f90612a28565b80601f0160208091040260200160405190810160405280929190818152602001828054611ebb90612a28565b8015611f085780601f10611edd57610100808354040283529160200191611f08565b820191906000526020600020905b815481529060010190602001808311611eeb57829003601f168201915b505050505081526020019060010190611e70565b505050508152505081526020019060010190611c12565b5050505090505b919050565b6000600260008373ffffffffffffffffffffffffffffffffffffffff1673ffffffffffffffffffffffffffffffffffffffff16815260200190815260200160002054905060086001600880549050611f979190613100565b81548110611fa857611fa7613134565b5b906000526020600020906006020160088281548110611fca57611fc9613134565b5b906000526020600020906006020160008201816000019081611fec9190612eeb565b50600182018160010190816120019190612eeb565b50600282018160020190816120169190612eeb565b506003820160009054906101000a900473ffffffffffffffffffffffffffffffffffffffff168160030160006101000a81548173ffffffffffffffffffffffffffffffffffffffff021916908373ffffffffffffffffffffffffffffffffffffffff16021790555060048201548160040155600582018160050190805461209e929190612140565b5090505060088054806120b4576120b3613163565b5b6001900381819060005260206000209060060201600080820160006120d991906121e9565b6001820160006120e991906121e9565b6002820160006120f991906121e9565b6003820160006101000a81549073ffffffffffffffffffffffffffffffffffffffff021916905560048201600090556005820160006121389190612229565b505090555050565b82805482825590600052602060002090810192821561218c5760005260206000209182015b8281111561218b578282908161217b9190612eeb565b5091600101919060010190612165565b5b509050612199919061224a565b5090565b6040518060c00160405280606081526020016060815260200160608152602001600073ffffffffffffffffffffffffffffffffffffffff16815260200160008152602001606081525090565b5080546121f590612a28565b6000825580601f106122075750612226565b601f016020900490600052602060002090810190612225919061226e565b5b50565b5080546000825590600052602060002090810190612247919061224a565b50565b5b8082111561226a576000818161226191906121e9565b5060010161224b565b5090565b5b8082111561228757600081600090555060010161226f565b5090565b6000604051905090565b600080fd5b600080fd5b600073ffffffffffffffffffffffffffffffffffffffff82169050919050565b60006122ca8261229f565b9050919050565b6122da816122bf565b81146122e557600080fd5b50565b6000813590506122f7816122d1565b92915050565b60006020828403121561231357612312612295565b5b6000612321848285016122e8565b91505092915050565b60008115159050919050565b61233f8161232a565b82525050565b600060208201905061235a6000830184612336565b92915050565b600080fd5b600080fd5b6000601f19601f8301169050919050565b7f4e487b7100000000000000000000000000000000000000000000000000000000600052604160045260246000fd5b6123b38261236a565b810181811067ffffffffffffffff821117156123d2576123d161237b565b5b80604052505050565b60006123e561228b565b90506123f182826123aa565b919050565b600067ffffffffffffffff8211156124115761241061237b565b5b61241a8261236a565b9050602081019050919050565b82818337600083830152505050565b6000612449612444846123f6565b6123db565b90508281526020810184848401111561246557612464612365565b5b612470848285612427565b509392505050565b600082601f83011261248d5761248c612360565b5b813561249d848260208601612436565b91505092915050565b6124af8161232a565b81146124ba57600080fd5b50565b6000813590506124cc816124a6565b92915050565b600080600080600060a086880312156124ee576124ed612295565b5b600086013567ffffffffffffffff81111561250c5761250b61229a565b5b61251888828901612478565b955050602086013567ffffffffffffffff8111156125395761253861229a565b5b61254588828901612478565b945050604086013567ffffffffffffffff8111156125665761256561229a565b5b61257288828901612478565b9350506060612583888289016122e8565b9250506080612594888289016124bd565b9150509295509295909350565b600080604083850312156125b8576125b7612295565b5b60006125c6858286016122e8565b92505060206125d7858286016124bd565b9150509250929050565b600081519050919050565b600082825260208201905092915050565b60005b8381101561261b578082015181840152602081019050612600565b60008484015250505050565b6000612632826125e1565b61263c81856125ec565b935061264c8185602086016125fd565b6126558161236a565b840191505092915050565b612669816122bf565b82525050565b6000819050919050565b6126828161266f565b82525050565b600081519050919050565b600082825260208201905092915050565b6000819050602082019050919050565b60006126c08383612627565b905092915050565b6000602082019050919050565b60006126e082612688565b6126ea8185612693565b9350836020820285016126fc856126a4565b8060005b85811015612738578484038952815161271985826126b4565b9450612724836126c8565b925060208a01995050600181019050612700565b50829750879550505050505092915050565b600060c08301600083015184820360008601526127678282612627565b915050602083015184820360208601526127818282612627565b9150506040830151848203604086015261279b8282612627565b91505060608301516127b06060860182612660565b5060808301516127c36080860182612679565b5060a083015184820360a08601526127db82826126d5565b9150508091505092915050565b60006020820190508181036000830152612802818461274a565b905092915050565b6000806040838503121561282157612820612295565b5b600061282f858286016122e8565b9250506020612840858286016122e8565b9150509250929050565b6000602082840312156128605761285f612295565b5b600061286e848285016124bd565b91505092915050565b600081519050919050565b600082825260208201905092915050565b6000819050602082019050919050565b600060c08301600083015184820360008601526128c08282612627565b915050602083015184820360208601526128da8282612627565b915050604083015184820360408601526128f48282612627565b91505060608301516129096060860182612660565b50608083015161291c6080860182612679565b5060a083015184820360a086015261293482826126d5565b9150508091505092915050565b600061294d83836128a3565b905092915050565b6000602082019050919050565b600061296d82612877565b6129778185612882565b93508360208202850161298985612893565b8060005b858110156129c557848403895281516129a68582612941565b94506129b183612955565b925060208a0199505060018101905061298d565b50829750879550505050505092915050565b600060208201905081810360008301526129f18184612962565b905092915050565b7f4e487b7100000000000000000000000000000000000000000000000000000000600052602260045260246000fd5b60006002820490506001821680612a4057607f821691505b602082108103612a5357612a526129f9565b5b50919050565b60008190508160005260206000209050919050565b60006020601f8301049050919050565b600082821b905092915050565b600060088302612abb7fffffffffffffffffffffffffffffffffffffffffffffffffffffffffffffffff82612a7e565b612ac58683612a7e565b95508019841693508086168417925050509392505050565b6000819050919050565b6000612b02612afd612af88461266f565b612add565b61266f565b9050919050565b6000819050919050565b612b1c83612ae7565b612b30612b2882612b09565b848454612a8b565b825550505050565b600090565b612b45612b38565b612b50818484612b13565b505050565b5b81811015612b7457612b69600082612b3d565b600181019050612b56565b5050565b601f821115612bb957612b8a81612a59565b612b9384612a6e565b81016020851015612ba2578190505b612bb6612bae85612a6e565b830182612b55565b50505b505050565b600082821c905092915050565b6000612bdc60001984600802612bbe565b1980831691505092915050565b6000612bf58383612bcb565b9150826002028217905092915050565b612c0e826125e1565b67ffffffffffffffff811115612c2757612c2661237b565b5b612c318254612a28565b612c3c828285612b78565b600060209050601f831160018114612c6f5760008415612c5d578287015190505b612c678582612be9565b865550612ccf565b601f198416612c7d86612a59565b60005b82811015612ca557848901518255600182019150602085019450602081019050612c80565b86831015612cc25784890151612cbe601f891682612bcb565b8355505b6001600288020188555050505b505050505050565b600081905092915050565b7f4445414e00000000000000000000000000000000000000000000000000000000600082015250565b6000612d18600483612cd7565b9150612d2382612ce2565b600482019050919050565b6000612d3982612d0b565b9150819050919050565b6000612d4e826125e1565b612d588185612cd7565b9350612d688185602086016125fd565b80840191505092915050565b6000612d808284612d43565b915081905092915050565b7f484f440000000000000000000000000000000000000000000000000000000000600082015250565b6000612dc1600383612cd7565b9150612dcc82612d8b565b600382019050919050565b6000612de282612db4565b9150819050919050565b600082825260208201905092915050565b7f4d656d6265722052657175657374656400000000000000000000000000000000600082015250565b6000612e33601083612dec565b9150612e3e82612dfd565b602082019050919050565b60006020820190508181036000830152612e6281612e26565b9050919050565b7f4d656d6265722045786973740000000000000000000000000000000000000000600082015250565b6000612e9f600c83612dec565b9150612eaa82612e69565b602082019050919050565b60006020820190508181036000830152612ece81612e92565b9050919050565b600081549050612ee481612a28565b9050919050565b818103612ef9575050612fd1565b612f0282612ed5565b67ffffffffffffffff811115612f1b57612f1a61237b565b5b612f258254612a28565b612f30828285612b78565b6000601f831160018114612f5f5760008415612f4d578287015490505b612f578582612be9565b865550612fca565b601f198416612f6d87612a59565b9650612f7886612a59565b60005b82811015612fa057848901548255600182019150600185019450602081019050612f7b565b86831015612fbd5784890154612fb9601f891682612bcb565b8355505b6001600288020188555050505b5050505050505b565b7f596f75206e65656420746f205265717565737420466972737400000000000000600082015250565b6000613009601983612dec565b915061301482612fd3565b602082019050919050565b6000602082019050818103600083015261303881612ffc565b9050919050565b7f596f752063616e277420617070726f6f766520736f6d656f6e652061626f766560008201527f207468616e20796f752e00000000000000000000000000000000000000000000602082015250565b600061309b602a83612dec565b91506130a68261303f565b604082019050919050565b600060208201905081810360008301526130ca8161308e565b9050919050565b7f4e487b7100000000000000000000000000000000000000000000000000000000600052601160045260246000fd5b600061310b8261266f565b91506131168361266f565b925082820390508181111561312e5761312d6130d1565b5b92915050565b7f4e487b7100000000000000000000000000000000000000000000000000000000600052603260045260246000fd5b7f4e487b7100000000000000000000000000000000000000000000000000000000600052603160045260246000fdfea2646970667358221220efbd92cdaa323ae80e3b0f481bd9839b74db907c4a2fb66fd9b91c09f49a377064736f6c63430008100033","opcodes":"PUSH1 0x80 PUSH1 0x40 MSTORE PUSH1 0x0 DUP1 SSTORE PUSH1 0x0 PUSH1 0x1 SSTORE CALLVALUE DUP1 ISZERO PUSH2 0x19 JUMPI PUSH1 0x0 DUP1 REVERT JUMPDEST POP PUSH2 0x31C8 DUP1 PUSH2 0x29 PUSH1 0x0 CODECOPY PUSH1 0x0 RETURN INVALID PUSH1 0x80 PUSH1 0x40 MSTORE PUSH1 0x4 CALLDATASIZE LT PUSH2 0x55 JUMPI PUSH1 0x0 CALLDATALOAD PUSH1 0xE0 SHR DUP1 PUSH4 0x35A6861A EQ PUSH2 0x5A JUMPI DUP1 PUSH4 0x4CD6F25E EQ PUSH2 0x97 JUMPI DUP1 PUSH4 0xA9E10BF2 EQ PUSH2 0xC0 JUMPI DUP1 PUSH4 0xBAFA08C1 EQ PUSH2 0xCA JUMPI DUP1 PUSH4 0xE070DD12 EQ PUSH2 0x107 JUMPI DUP1 PUSH4 0xE473F6CD EQ PUSH2 0x130 JUMPI JUMPDEST PUSH1 0x0 DUP1 REVERT JUMPDEST CALLVALUE DUP1 ISZERO PUSH2 0x66 JUMPI PUSH1 0x0 DUP1 REVERT JUMPDEST POP PUSH2 0x81 PUSH1 0x4 DUP1 CALLDATASIZE SUB DUP2 ADD SWAP1 PUSH2 0x7C SWAP2 SWAP1 PUSH2 0x22FD JUMP JUMPDEST PUSH2 0x16D JUMP JUMPDEST PUSH1 0x40 MLOAD PUSH2 0x8E SWAP2 SWAP1 PUSH2 0x2345 JUMP JUMPDEST PUSH1 0x40 MLOAD DUP1 SWAP2 SUB SWAP1 RETURN JUMPDEST CALLVALUE DUP1 ISZERO PUSH2 0xA3 JUMPI PUSH1 0x0 DUP1 REVERT JUMPDEST POP PUSH2 0xBE PUSH1 0x4 DUP1 CALLDATASIZE SUB DUP2 ADD SWAP1 PUSH2 0xB9 SWAP2 SWAP1 PUSH2 0x24D2 JUMP JUMPDEST PUSH2 0x1DA JUMP JUMPDEST STOP JUMPDEST PUSH2 0xC8 PUSH2 0xAE6 JUMP JUMPDEST STOP JUMPDEST CALLVALUE DUP1 ISZERO PUSH2 0xD6 JUMPI PUSH1 0x0 DUP1 REVERT JUMPDEST POP PUSH2 0xF1 PUSH1 0x4 DUP1 CALLDATASIZE SUB DUP2 ADD SWAP1 PUSH2 0xEC SWAP2 SWAP1 PUSH2 0x25A1 JUMP JUMPDEST PUSH2 0xAE8 JUMP JUMPDEST PUSH1 0x40 MLOAD PUSH2 0xFE SWAP2 SWAP1 PUSH2 0x27E8 JUMP JUMPDEST PUSH1 0x40 MLOAD DUP1 SWAP2 SUB SWAP1 RETURN JUMPDEST CALLVALUE DUP1 ISZERO PUSH2 0x113 JUMPI PUSH1 0x0 DUP1 REVERT JUMPDEST POP PUSH2 0x12E PUSH1 0x4 DUP1 CALLDATASIZE SUB DUP2 ADD SWAP1 PUSH2 0x129 SWAP2 SWAP1 PUSH2 0x280A JUMP JUMPDEST PUSH2 0x117E JUMP JUMPDEST STOP JUMPDEST CALLVALUE DUP1 ISZERO PUSH2 0x13C JUMPI PUSH1 0x0 DUP1 REVERT JUMPDEST POP PUSH2 0x157 PUSH1 0x4 DUP1 CALLDATASIZE SUB DUP2 ADD SWAP1 PUSH2 0x152 SWAP2 SWAP1 PUSH2 0x284A JUMP JUMPDEST PUSH2 0x1894 JUMP JUMPDEST PUSH1 0x40 MLOAD PUSH2 0x164 SWAP2 SWAP1 PUSH2 0x29D7 JUMP JUMPDEST PUSH1 0x40 MLOAD DUP1 SWAP2 SUB SWAP1 RETURN JUMPDEST PUSH1 0x0 PUSH1 0x1 ISZERO ISZERO PUSH1 0x6 PUSH1 0x0 DUP5 PUSH20 0xFFFFFFFFFFFFFFFFFFFFFFFFFFFFFFFFFFFFFFFF AND PUSH20 0xFFFFFFFFFFFFFFFFFFFFFFFFFFFFFFFFFFFFFFFF AND DUP2 MSTORE PUSH1 0x20 ADD SWAP1 DUP2 MSTORE PUSH1 0x20 ADD PUSH1 0x0 KECCAK256 PUSH1 0x0 SWAP1 SLOAD SWAP1 PUSH2 0x100 EXP SWAP1 DIV PUSH1 0xFF AND ISZERO ISZERO SUB PUSH2 0x1D0 JUMPI PUSH1 0x1 SWAP1 POP PUSH2 0x1D5 JUMP JUMPDEST PUSH1 0x0 SWAP1 POP JUMPDEST SWAP2 SWAP1 POP JUMP JUMPDEST DUP5 PUSH1 0xA PUSH1 0x0 ADD SWAP1 DUP2 PUSH2 0x1EC SWAP2 SWAP1 PUSH2 0x2C05 JUMP JUMPDEST POP DUP4 PUSH1 0xA PUSH1 0x1 ADD SWAP1 DUP2 PUSH2 0x1FF SWAP2 SWAP1 PUSH2 0x2C05 JUMP JUMPDEST POP DUP3 PUSH1 0xA PUSH1 0x2 ADD SWAP1 DUP2 PUSH2 0x212 SWAP2 SWAP1 PUSH2 0x2C05 JUMP JUMPDEST POP DUP2 PUSH1 0xA PUSH1 0x3 ADD PUSH1 0x0 PUSH2 0x100 EXP DUP2 SLOAD DUP2 PUSH20 0xFFFFFFFFFFFFFFFFFFFFFFFFFFFFFFFFFFFFFFFF MUL NOT AND SWAP1 DUP4 PUSH20 0xFFFFFFFFFFFFFFFFFFFFFFFFFFFFFFFFFFFFFFFF AND MUL OR SWAP1 SSTORE POP PUSH1 0x40 MLOAD PUSH1 0x20 ADD PUSH2 0x266 SWAP1 PUSH2 0x2D2E JUMP JUMPDEST PUSH1 0x40 MLOAD PUSH1 0x20 DUP2 DUP4 SUB SUB DUP2 MSTORE SWAP1 PUSH1 0x40 MSTORE DUP1 MLOAD SWAP1 PUSH1 0x20 ADD KECCAK256 DUP6 PUSH1 0x40 MLOAD PUSH1 0x20 ADD PUSH2 0x28D SWAP2 SWAP1 PUSH2 0x2D74 JUMP JUMPDEST PUSH1 0x40 MLOAD PUSH1 0x20 DUP2 DUP4 SUB SUB DUP2 MSTORE SWAP1 PUSH1 0x40 MSTORE DUP1 MLOAD SWAP1 PUSH1 0x20 ADD KECCAK256 SUB PUSH2 0x2B8 JUMPI PUSH1 0x1 PUSH1 0xA PUSH1 0x4 ADD DUP2 SWAP1 SSTORE POP PUSH2 0x326 JUMP JUMPDEST PUSH1 0x40 MLOAD PUSH1 0x20 ADD PUSH2 0x2C7 SWAP1 PUSH2 0x2DD7 JUMP JUMPDEST PUSH1 0x40 MLOAD PUSH1 0x20 DUP2 DUP4 SUB SUB DUP2 MSTORE SWAP1 PUSH1 0x40 MSTORE DUP1 MLOAD SWAP1 PUSH1 0x20 ADD KECCAK256 DUP6 PUSH1 0x40 MLOAD PUSH1 0x20 ADD PUSH2 0x2EE SWAP2 SWAP1 PUSH2 0x2D74 JUMP JUMPDEST PUSH1 0x40 MLOAD PUSH1 0x20 DUP2 DUP4 SUB SUB DUP2 MSTORE SWAP1 PUSH1 0x40 MSTORE DUP1 MLOAD SWAP1 PUSH1 0x20 ADD KECCAK256 SUB PUSH2 0x319 JUMPI PUSH1 0x2 PUSH1 0xA PUSH1 0x4 ADD DUP2 SWAP1 SSTORE POP PUSH2 0x325 JUMP JUMPDEST PUSH1 0x3 PUSH1 0xA PUSH1 0x4 ADD DUP2 SWAP1 SSTORE POP JUMPDEST JUMPDEST PUSH1 0x1 ISZERO ISZERO DUP2 ISZERO ISZERO EQ DUP1 ISZERO PUSH2 0x384 JUMPI POP PUSH1 0x40 MLOAD PUSH1 0x20 ADD PUSH2 0x344 SWAP1 PUSH2 0x2D2E JUMP JUMPDEST PUSH1 0x40 MLOAD PUSH1 0x20 DUP2 DUP4 SUB SUB DUP2 MSTORE SWAP1 PUSH1 0x40 MSTORE DUP1 MLOAD SWAP1 PUSH1 0x20 ADD KECCAK256 DUP6 PUSH1 0x40 MLOAD PUSH1 0x20 ADD PUSH2 0x36B SWAP2 SWAP1 PUSH2 0x2D74 JUMP JUMPDEST PUSH1 0x40 MLOAD PUSH1 0x20 DUP2 DUP4 SUB SUB DUP2 MSTORE SWAP1 PUSH1 0x40 MSTORE DUP1 MLOAD SWAP1 PUSH1 0x20 ADD KECCAK256 EQ ISZERO JUMPDEST ISZERO PUSH2 0x70D JUMPI PUSH1 0x0 ISZERO ISZERO PUSH1 0x9 PUSH1 0x0 DUP5 PUSH20 0xFFFFFFFFFFFFFFFFFFFFFFFFFFFFFFFFFFFFFFFF AND PUSH20 0xFFFFFFFFFFFFFFFFFFFFFFFFFFFFFFFFFFFFFFFF AND DUP2 MSTORE PUSH1 0x20 ADD SWAP1 DUP2 MSTORE PUSH1 0x20 ADD PUSH1 0x0 KECCAK256 PUSH1 0x0 SWAP1 SLOAD SWAP1 PUSH2 0x100 EXP SWAP1 DIV PUSH1 0xFF AND ISZERO ISZERO EQ PUSH2 0x41C JUMPI PUSH1 0x40 MLOAD PUSH32 0x8C379A000000000000000000000000000000000000000000000000000000000 DUP2 MSTORE PUSH1 0x4 ADD PUSH2 0x413 SWAP1 PUSH2 0x2E49 JUMP JUMPDEST PUSH1 0x40 MLOAD DUP1 SWAP2 SUB SWAP1 REVERT JUMPDEST PUSH1 0x0 ISZERO ISZERO PUSH1 0x6 PUSH1 0x0 DUP5 PUSH20 0xFFFFFFFFFFFFFFFFFFFFFFFFFFFFFFFFFFFFFFFF AND PUSH20 0xFFFFFFFFFFFFFFFFFFFFFFFFFFFFFFFFFFFFFFFF AND DUP2 MSTORE PUSH1 0x20 ADD SWAP1 DUP2 MSTORE PUSH1 0x20 ADD PUSH1 0x0 KECCAK256 PUSH1 0x0 SWAP1 SLOAD SWAP1 PUSH2 0x100 EXP SWAP1 DIV PUSH1 0xFF AND ISZERO ISZERO EQ PUSH2 0x4AF JUMPI PUSH1 0x40 MLOAD PUSH32 0x8C379A000000000000000000000000000000000000000000000000000000000 DUP2 MSTORE PUSH1 0x4 ADD PUSH2 0x4A6 SWAP1 PUSH2 0x2EB5 JUMP JUMPDEST PUSH1 0x40 MLOAD DUP1 SWAP2 SUB SWAP1 REVERT JUMPDEST PUSH1 0x8 PUSH1 0xA SWAP1 DUP1 PUSH1 0x1 DUP2 SLOAD ADD DUP1 DUP3 SSTORE DUP1 SWAP2 POP POP PUSH1 0x1 SWAP1 SUB SWAP1 PUSH1 0x0 MSTORE PUSH1 0x20 PUSH1 0x0 KECCAK256 SWAP1 PUSH1 0x6 MUL ADD PUSH1 0x0 SWAP1 SWAP2 SWAP1 SWAP2 SWAP1 SWAP2 POP PUSH1 0x0 DUP3 ADD DUP2 PUSH1 0x0 ADD SWAP1 DUP2 PUSH2 0x4F0 SWAP2 SWAP1 PUSH2 0x2EEB JUMP JUMPDEST POP PUSH1 0x1 DUP3 ADD DUP2 PUSH1 0x1 ADD SWAP1 DUP2 PUSH2 0x505 SWAP2 SWAP1 PUSH2 0x2EEB JUMP JUMPDEST POP PUSH1 0x2 DUP3 ADD DUP2 PUSH1 0x2 ADD SWAP1 DUP2 PUSH2 0x51A SWAP2 SWAP1 PUSH2 0x2EEB JUMP JUMPDEST POP PUSH1 0x3 DUP3 ADD PUSH1 0x0 SWAP1 SLOAD SWAP1 PUSH2 0x100 EXP SWAP1 DIV PUSH20 0xFFFFFFFFFFFFFFFFFFFFFFFFFFFFFFFFFFFFFFFF AND DUP2 PUSH1 0x3 ADD PUSH1 0x0 PUSH2 0x100 EXP DUP2 SLOAD DUP2 PUSH20 0xFFFFFFFFFFFFFFFFFFFFFFFFFFFFFFFFFFFFFFFF MUL NOT AND SWAP1 DUP4 PUSH20 0xFFFFFFFFFFFFFFFFFFFFFFFFFFFFFFFFFFFFFFFF AND MUL OR SWAP1 SSTORE POP PUSH1 0x4 DUP3 ADD SLOAD DUP2 PUSH1 0x4 ADD SSTORE PUSH1 0x5 DUP3 ADD DUP2 PUSH1 0x5 ADD SWAP1 DUP1 SLOAD PUSH2 0x5A2 SWAP3 SWAP2 SWAP1 PUSH2 0x2140 JUMP JUMPDEST POP POP POP PUSH1 0xA PUSH1 0x7 PUSH1 0x0 DUP5 PUSH20 0xFFFFFFFFFFFFFFFFFFFFFFFFFFFFFFFFFFFFFFFF AND PUSH20 0xFFFFFFFFFFFFFFFFFFFFFFFFFFFFFFFFFFFFFFFF AND DUP2 MSTORE PUSH1 0x20 ADD SWAP1 DUP2 MSTORE PUSH1 0x20 ADD PUSH1 0x0 KECCAK256 PUSH1 0x0 DUP3 ADD DUP2 PUSH1 0x0 ADD SWAP1 DUP2 PUSH2 0x5FA SWAP2 SWAP1 PUSH2 0x2EEB JUMP JUMPDEST POP PUSH1 0x1 DUP3 ADD DUP2 PUSH1 0x1 ADD SWAP1 DUP2 PUSH2 0x60F SWAP2 SWAP1 PUSH2 0x2EEB JUMP JUMPDEST POP PUSH1 0x2 DUP3 ADD DUP2 PUSH1 0x2 ADD SWAP1 DUP2 PUSH2 0x624 SWAP2 SWAP1 PUSH2 0x2EEB JUMP JUMPDEST POP PUSH1 0x3 DUP3 ADD PUSH1 0x0 SWAP1 SLOAD SWAP1 PUSH2 0x100 EXP SWAP1 DIV PUSH20 0xFFFFFFFFFFFFFFFFFFFFFFFFFFFFFFFFFFFFFFFF AND DUP2 PUSH1 0x3 ADD PUSH1 0x0 PUSH2 0x100 EXP DUP2 SLOAD DUP2 PUSH20 0xFFFFFFFFFFFFFFFFFFFFFFFFFFFFFFFFFFFFFFFF MUL NOT AND SWAP1 DUP4 PUSH20 0xFFFFFFFFFFFFFFFFFFFFFFFFFFFFFFFFFFFFFFFF AND MUL OR SWAP1 SSTORE POP PUSH1 0x4 DUP3 ADD SLOAD DUP2 PUSH1 0x4 ADD SSTORE PUSH1 0x5 DUP3 ADD DUP2 PUSH1 0x5 ADD SWAP1 DUP1 SLOAD PUSH2 0x6AC SWAP3 SWAP2 SWAP1 PUSH2 0x2140 JUMP JUMPDEST POP SWAP1 POP POP PUSH1 0x1 PUSH1 0x9 PUSH1 0x0 DUP5 PUSH20 0xFFFFFFFFFFFFFFFFFFFFFFFFFFFFFFFFFFFFFFFF AND PUSH20 0xFFFFFFFFFFFFFFFFFFFFFFFFFFFFFFFFFFFFFFFF AND DUP2 MSTORE PUSH1 0x20 ADD SWAP1 DUP2 MSTORE PUSH1 0x20 ADD PUSH1 0x0 KECCAK256 PUSH1 0x0 PUSH2 0x100 EXP DUP2 SLOAD DUP2 PUSH1 0xFF MUL NOT AND SWAP1 DUP4 ISZERO ISZERO MUL OR SWAP1 SSTORE POP PUSH2 0xADF JUMP JUMPDEST PUSH1 0x40 MLOAD PUSH1 0x20 ADD PUSH2 0x71C SWAP1 PUSH2 0x2D2E JUMP JUMPDEST PUSH1 0x40 MLOAD PUSH1 0x20 DUP2 DUP4 SUB SUB DUP2 MSTORE SWAP1 PUSH1 0x40 MSTORE DUP1 MLOAD SWAP1 PUSH1 0x20 ADD KECCAK256 DUP6 PUSH1 0x40 MLOAD PUSH1 0x20 ADD PUSH2 0x743 SWAP2 SWAP1 PUSH2 0x2D74 JUMP JUMPDEST PUSH1 0x40 MLOAD PUSH1 0x20 DUP2 DUP4 SUB SUB DUP2 MSTORE SWAP1 PUSH1 0x40 MSTORE DUP1 MLOAD SWAP1 PUSH1 0x20 ADD KECCAK256 EQ PUSH2 0x7F2 JUMPI PUSH1 0x1 ISZERO ISZERO PUSH1 0x9 PUSH1 0x0 DUP5 PUSH20 0xFFFFFFFFFFFFFFFFFFFFFFFFFFFFFFFFFFFFFFFF AND PUSH20 0xFFFFFFFFFFFFFFFFFFFFFFFFFFFFFFFFFFFFFFFF AND DUP2 MSTORE PUSH1 0x20 ADD SWAP1 DUP2 MSTORE PUSH1 0x20 ADD PUSH1 0x0 KECCAK256 PUSH1 0x0 SWAP1 SLOAD SWAP1 PUSH2 0x100 EXP SWAP1 DIV PUSH1 0xFF AND ISZERO ISZERO EQ PUSH2 0x7F1 JUMPI PUSH1 0x40 MLOAD PUSH32 0x8C379A000000000000000000000000000000000000000000000000000000000 DUP2 MSTORE PUSH1 0x4 ADD PUSH2 0x7E8 SWAP1 PUSH2 0x301F JUMP JUMPDEST PUSH1 0x40 MLOAD DUP1 SWAP2 SUB SWAP1 REVERT JUMPDEST JUMPDEST PUSH1 0x0 ISZERO ISZERO PUSH1 0x6 PUSH1 0x0 DUP5 PUSH20 0xFFFFFFFFFFFFFFFFFFFFFFFFFFFFFFFFFFFFFFFF AND PUSH20 0xFFFFFFFFFFFFFFFFFFFFFFFFFFFFFFFFFFFFFFFF AND DUP2 MSTORE PUSH1 0x20 ADD SWAP1 DUP2 MSTORE PUSH1 0x20 ADD PUSH1 0x0 KECCAK256 PUSH1 0x0 SWAP1 SLOAD SWAP1 PUSH2 0x100 EXP SWAP1 DIV PUSH1 0xFF AND ISZERO ISZERO EQ PUSH2 0x885 JUMPI PUSH1 0x40 MLOAD PUSH32 0x8C379A000000000000000000000000000000000000000000000000000000000 DUP2 MSTORE PUSH1 0x4 ADD PUSH2 0x87C SWAP1 PUSH2 0x2EB5 JUMP JUMPDEST PUSH1 0x40 MLOAD DUP1 SWAP2 SUB SWAP1 REVERT JUMPDEST PUSH1 0x5 PUSH1 0xA SWAP1 DUP1 PUSH1 0x1 DUP2 SLOAD ADD DUP1 DUP3 SSTORE DUP1 SWAP2 POP POP PUSH1 0x1 SWAP1 SUB SWAP1 PUSH1 0x0 MSTORE PUSH1 0x20 PUSH1 0x0 KECCAK256 SWAP1 PUSH1 0x6 MUL ADD PUSH1 0x0 SWAP1 SWAP2 SWAP1 SWAP2 SWAP1 SWAP2 POP PUSH1 0x0 DUP3 ADD DUP2 PUSH1 0x0 ADD SWAP1 DUP2 PUSH2 0x8C6 SWAP2 SWAP1 PUSH2 0x2EEB JUMP JUMPDEST POP PUSH1 0x1 DUP3 ADD DUP2 PUSH1 0x1 ADD SWAP1 DUP2 PUSH2 0x8DB SWAP2 SWAP1 PUSH2 0x2EEB JUMP JUMPDEST POP PUSH1 0x2 DUP3 ADD DUP2 PUSH1 0x2 ADD SWAP1 DUP2 PUSH2 0x8F0 SWAP2 SWAP1 PUSH2 0x2EEB JUMP JUMPDEST POP PUSH1 0x3 DUP3 ADD PUSH1 0x0 SWAP1 SLOAD SWAP1 PUSH2 0x100 EXP SWAP1 DIV PUSH20 0xFFFFFFFFFFFFFFFFFFFFFFFFFFFFFFFFFFFFFFFF AND DUP2 PUSH1 0x3 ADD PUSH1 0x0 PUSH2 0x100 EXP DUP2 SLOAD DUP2 PUSH20 0xFFFFFFFFFFFFFFFFFFFFFFFFFFFFFFFFFFFFFFFF MUL NOT AND SWAP1 DUP4 PUSH20 0xFFFFFFFFFFFFFFFFFFFFFFFFFFFFFFFFFFFFFFFF AND MUL OR SWAP1 SSTORE POP PUSH1 0x4 DUP3 ADD SLOAD DUP2 PUSH1 0x4 ADD SSTORE PUSH1 0x5 DUP3 ADD DUP2 PUSH1 0x5 ADD SWAP1 DUP1 SLOAD PUSH2 0x978 SWAP3 SWAP2 SWAP1 PUSH2 0x2140 JUMP JUMPDEST POP POP POP PUSH1 0xA PUSH1 0x4 PUSH1 0x0 DUP5 PUSH20 0xFFFFFFFFFFFFFFFFFFFFFFFFFFFFFFFFFFFFFFFF AND PUSH20 0xFFFFFFFFFFFFFFFFFFFFFFFFFFFFFFFFFFFFFFFF AND DUP2 MSTORE PUSH1 0x20 ADD SWAP1 DUP2 MSTORE PUSH1 0x20 ADD PUSH1 0x0 KECCAK256 PUSH1 0x0 DUP3 ADD DUP2 PUSH1 0x0 ADD SWAP1 DUP2 PUSH2 0x9D0 SWAP2 SWAP1 PUSH2 0x2EEB JUMP JUMPDEST POP PUSH1 0x1 DUP3 ADD DUP2 PUSH1 0x1 ADD SWAP1 DUP2 PUSH2 0x9E5 SWAP2 SWAP1 PUSH2 0x2EEB JUMP JUMPDEST POP PUSH1 0x2 DUP3 ADD DUP2 PUSH1 0x2 ADD SWAP1 DUP2 PUSH2 0x9FA SWAP2 SWAP1 PUSH2 0x2EEB JUMP JUMPDEST POP PUSH1 0x3 DUP3 ADD PUSH1 0x0 SWAP1 SLOAD SWAP1 PUSH2 0x100 EXP SWAP1 DIV PUSH20 0xFFFFFFFFFFFFFFFFFFFFFFFFFFFFFFFFFFFFFFFF AND DUP2 PUSH1 0x3 ADD PUSH1 0x0 PUSH2 0x100 EXP DUP2 SLOAD DUP2 PUSH20 0xFFFFFFFFFFFFFFFFFFFFFFFFFFFFFFFFFFFFFFFF MUL NOT AND SWAP1 DUP4 PUSH20 0xFFFFFFFFFFFFFFFFFFFFFFFFFFFFFFFFFFFFFFFF AND MUL OR SWAP1 SSTORE POP PUSH1 0x4 DUP3 ADD SLOAD DUP2 PUSH1 0x4 ADD SSTORE PUSH1 0x5 DUP3 ADD DUP2 PUSH1 0x5 ADD SWAP1 DUP1 SLOAD PUSH2 0xA82 SWAP3 SWAP2 SWAP1 PUSH2 0x2140 JUMP JUMPDEST POP SWAP1 POP POP PUSH1 0x1 PUSH1 0x6 PUSH1 0x0 DUP5 PUSH20 0xFFFFFFFFFFFFFFFFFFFFFFFFFFFFFFFFFFFFFFFF AND PUSH20 0xFFFFFFFFFFFFFFFFFFFFFFFFFFFFFFFFFFFFFFFF AND DUP2 MSTORE PUSH1 0x20 ADD SWAP1 DUP2 MSTORE PUSH1 0x20 ADD PUSH1 0x0 KECCAK256 PUSH1 0x0 PUSH2 0x100 EXP DUP2 SLOAD DUP2 PUSH1 0xFF MUL NOT AND SWAP1 DUP4 ISZERO ISZERO MUL OR SWAP1 SSTORE POP JUMPDEST POP POP POP POP POP JUMP JUMPDEST JUMP JUMPDEST PUSH2 0xAF0 PUSH2 0x219D JUMP JUMPDEST PUSH1 0x1 ISZERO ISZERO DUP3 ISZERO ISZERO SUB PUSH2 0xE3C JUMPI PUSH1 0x7 PUSH1 0x0 DUP5 PUSH20 0xFFFFFFFFFFFFFFFFFFFFFFFFFFFFFFFFFFFFFFFF AND PUSH20 0xFFFFFFFFFFFFFFFFFFFFFFFFFFFFFFFFFFFFFFFF AND DUP2 MSTORE PUSH1 0x20 ADD SWAP1 DUP2 MSTORE PUSH1 0x20 ADD PUSH1 0x0 KECCAK256 PUSH1 0x40 MLOAD DUP1 PUSH1 0xC0 ADD PUSH1 0x40 MSTORE SWAP1 DUP2 PUSH1 0x0 DUP3 ADD DUP1 SLOAD PUSH2 0xB56 SWAP1 PUSH2 0x2A28 JUMP JUMPDEST DUP1 PUSH1 0x1F ADD PUSH1 0x20 DUP1 SWAP2 DIV MUL PUSH1 0x20 ADD PUSH1 0x40 MLOAD SWAP1 DUP2 ADD PUSH1 0x40 MSTORE DUP1 SWAP3 SWAP2 SWAP1 DUP2 DUP2 MSTORE PUSH1 0x20 ADD DUP3 DUP1 SLOAD PUSH2 0xB82 SWAP1 PUSH2 0x2A28 JUMP JUMPDEST DUP1 ISZERO PUSH2 0xBCF JUMPI DUP1 PUSH1 0x1F LT PUSH2 0xBA4 JUMPI PUSH2 0x100 DUP1 DUP4 SLOAD DIV MUL DUP4 MSTORE SWAP2 PUSH1 0x20 ADD SWAP2 PUSH2 0xBCF JUMP JUMPDEST DUP3 ADD SWAP2 SWAP1 PUSH1 0x0 MSTORE PUSH1 0x20 PUSH1 0x0 KECCAK256 SWAP1 JUMPDEST DUP2 SLOAD DUP2 MSTORE SWAP1 PUSH1 0x1 ADD SWAP1 PUSH1 0x20 ADD DUP1 DUP4 GT PUSH2 0xBB2 JUMPI DUP3 SWAP1 SUB PUSH1 0x1F AND DUP3 ADD SWAP2 JUMPDEST POP POP POP POP POP DUP2 MSTORE PUSH1 0x20 ADD PUSH1 0x1 DUP3 ADD DUP1 SLOAD PUSH2 0xBE8 SWAP1 PUSH2 0x2A28 JUMP JUMPDEST DUP1 PUSH1 0x1F ADD PUSH1 0x20 DUP1 SWAP2 DIV MUL PUSH1 0x20 ADD PUSH1 0x40 MLOAD SWAP1 DUP2 ADD PUSH1 0x40 MSTORE DUP1 SWAP3 SWAP2 SWAP1 DUP2 DUP2 MSTORE PUSH1 0x20 ADD DUP3 DUP1 SLOAD PUSH2 0xC14 SWAP1 PUSH2 0x2A28 JUMP JUMPDEST DUP1 ISZERO PUSH2 0xC61 JUMPI DUP1 PUSH1 0x1F LT PUSH2 0xC36 JUMPI PUSH2 0x100 DUP1 DUP4 SLOAD DIV MUL DUP4 MSTORE SWAP2 PUSH1 0x20 ADD SWAP2 PUSH2 0xC61 JUMP JUMPDEST DUP3 ADD SWAP2 SWAP1 PUSH1 0x0 MSTORE PUSH1 0x20 PUSH1 0x0 KECCAK256 SWAP1 JUMPDEST DUP2 SLOAD DUP2 MSTORE SWAP1 PUSH1 0x1 ADD SWAP1 PUSH1 0x20 ADD DUP1 DUP4 GT PUSH2 0xC44 JUMPI DUP3 SWAP1 SUB PUSH1 0x1F AND DUP3 ADD SWAP2 JUMPDEST POP POP POP POP POP DUP2 MSTORE PUSH1 0x20 ADD PUSH1 0x2 DUP3 ADD DUP1 SLOAD PUSH2 0xC7A SWAP1 PUSH2 0x2A28 JUMP JUMPDEST DUP1 PUSH1 0x1F ADD PUSH1 0x20 DUP1 SWAP2 DIV MUL PUSH1 0x20 ADD PUSH1 0x40 MLOAD SWAP1 DUP2 ADD PUSH1 0x40 MSTORE DUP1 SWAP3 SWAP2 SWAP1 DUP2 DUP2 MSTORE PUSH1 0x20 ADD DUP3 DUP1 SLOAD PUSH2 0xCA6 SWAP1 PUSH2 0x2A28 JUMP JUMPDEST DUP1 ISZERO PUSH2 0xCF3 JUMPI DUP1 PUSH1 0x1F LT PUSH2 0xCC8 JUMPI PUSH2 0x100 DUP1 DUP4 SLOAD DIV MUL DUP4 MSTORE SWAP2 PUSH1 0x20 ADD SWAP2 PUSH2 0xCF3 JUMP JUMPDEST DUP3 ADD SWAP2 SWAP1 PUSH1 0x0 MSTORE PUSH1 0x20 PUSH1 0x0 KECCAK256 SWAP1 JUMPDEST DUP2 SLOAD DUP2 MSTORE SWAP1 PUSH1 0x1 ADD SWAP1 PUSH1 0x20 ADD DUP1 DUP4 GT PUSH2 0xCD6 JUMPI DUP3 SWAP1 SUB PUSH1 0x1F AND DUP3 ADD SWAP2 JUMPDEST POP POP POP POP POP DUP2 MSTORE PUSH1 0x20 ADD PUSH1 0x3 DUP3 ADD PUSH1 0x0 SWAP1 SLOAD SWAP1 PUSH2 0x100 EXP SWAP1 DIV PUSH20 0xFFFFFFFFFFFFFFFFFFFFFFFFFFFFFFFFFFFFFFFF AND PUSH20 0xFFFFFFFFFFFFFFFFFFFFFFFFFFFFFFFFFFFFFFFF AND PUSH20 0xFFFFFFFFFFFFFFFFFFFFFFFFFFFFFFFFFFFFFFFF AND DUP2 MSTORE PUSH1 0x20 ADD PUSH1 0x4 DUP3 ADD SLOAD DUP2 MSTORE PUSH1 0x20 ADD PUSH1 0x5 DUP3 ADD DUP1 SLOAD DUP1 PUSH1 0x20 MUL PUSH1 0x20 ADD PUSH1 0x40 MLOAD SWAP1 DUP2 ADD PUSH1 0x40 MSTORE DUP1 SWAP3 SWAP2 SWAP1 DUP2 DUP2 MSTORE PUSH1 0x20 ADD PUSH1 0x0 SWAP1 JUMPDEST DUP3 DUP3 LT ISZERO PUSH2 0xE2D JUMPI DUP4 DUP3 SWAP1 PUSH1 0x0 MSTORE PUSH1 0x20 PUSH1 0x0 KECCAK256 ADD DUP1 SLOAD PUSH2 0xDA0 SWAP1 PUSH2 0x2A28 JUMP JUMPDEST DUP1 PUSH1 0x1F ADD PUSH1 0x20 DUP1 SWAP2 DIV MUL PUSH1 0x20 ADD PUSH1 0x40 MLOAD SWAP1 DUP2 ADD PUSH1 0x40 MSTORE DUP1 SWAP3 SWAP2 SWAP1 DUP2 DUP2 MSTORE PUSH1 0x20 ADD DUP3 DUP1 SLOAD PUSH2 0xDCC SWAP1 PUSH2 0x2A28 JUMP JUMPDEST DUP1 ISZERO PUSH2 0xE19 JUMPI DUP1 PUSH1 0x1F LT PUSH2 0xDEE JUMPI PUSH2 0x100 DUP1 DUP4 SLOAD DIV MUL DUP4 MSTORE SWAP2 PUSH1 0x20 ADD SWAP2 PUSH2 0xE19 JUMP JUMPDEST DUP3 ADD SWAP2 SWAP1 PUSH1 0x0 MSTORE PUSH1 0x20 PUSH1 0x0 KECCAK256 SWAP1 JUMPDEST DUP2 SLOAD DUP2 MSTORE SWAP1 PUSH1 0x1 ADD SWAP1 PUSH1 0x20 ADD DUP1 DUP4 GT PUSH2 0xDFC JUMPI DUP3 SWAP1 SUB PUSH1 0x1F AND DUP3 ADD SWAP2 JUMPDEST POP POP POP POP POP DUP2 MSTORE PUSH1 0x20 ADD SWAP1 PUSH1 0x1 ADD SWAP1 PUSH2 0xD81 JUMP JUMPDEST POP POP POP POP DUP2 MSTORE POP POP SWAP1 POP PUSH2 0x1178 JUMP JUMPDEST PUSH1 0x4 PUSH1 0x0 DUP5 PUSH20 0xFFFFFFFFFFFFFFFFFFFFFFFFFFFFFFFFFFFFFFFF AND PUSH20 0xFFFFFFFFFFFFFFFFFFFFFFFFFFFFFFFFFFFFFFFF AND DUP2 MSTORE PUSH1 0x20 ADD SWAP1 DUP2 MSTORE PUSH1 0x20 ADD PUSH1 0x0 KECCAK256 PUSH1 0x40 MLOAD DUP1 PUSH1 0xC0 ADD PUSH1 0x40 MSTORE SWAP1 DUP2 PUSH1 0x0 DUP3 ADD DUP1 SLOAD PUSH2 0xE96 SWAP1 PUSH2 0x2A28 JUMP JUMPDEST DUP1 PUSH1 0x1F ADD PUSH1 0x20 DUP1 SWAP2 DIV MUL PUSH1 0x20 ADD PUSH1 0x40 MLOAD SWAP1 DUP2 ADD PUSH1 0x40 MSTORE DUP1 SWAP3 SWAP2 SWAP1 DUP2 DUP2 MSTORE PUSH1 0x20 ADD DUP3 DUP1 SLOAD PUSH2 0xEC2 SWAP1 PUSH2 0x2A28 JUMP JUMPDEST DUP1 ISZERO PUSH2 0xF0F JUMPI DUP1 PUSH1 0x1F LT PUSH2 0xEE4 JUMPI PUSH2 0x100 DUP1 DUP4 SLOAD DIV MUL DUP4 MSTORE SWAP2 PUSH1 0x20 ADD SWAP2 PUSH2 0xF0F JUMP JUMPDEST DUP3 ADD SWAP2 SWAP1 PUSH1 0x0 MSTORE PUSH1 0x20 PUSH1 0x0 KECCAK256 SWAP1 JUMPDEST DUP2 SLOAD DUP2 MSTORE SWAP1 PUSH1 0x1 ADD SWAP1 PUSH1 0x20 ADD DUP1 DUP4 GT PUSH2 0xEF2 JUMPI DUP3 SWAP1 SUB PUSH1 0x1F AND DUP3 ADD SWAP2 JUMPDEST POP POP POP POP POP DUP2 MSTORE PUSH1 0x20 ADD PUSH1 0x1 DUP3 ADD DUP1 SLOAD PUSH2 0xF28 SWAP1 PUSH2 0x2A28 JUMP JUMPDEST DUP1 PUSH1 0x1F ADD PUSH1 0x20 DUP1 SWAP2 DIV MUL PUSH1 0x20 ADD PUSH1 0x40 MLOAD SWAP1 DUP2 ADD PUSH1 0x40 MSTORE DUP1 SWAP3 SWAP2 SWAP1 DUP2 DUP2 MSTORE PUSH1 0x20 ADD DUP3 DUP1 SLOAD PUSH2 0xF54 SWAP1 PUSH2 0x2A28 JUMP JUMPDEST DUP1 ISZERO PUSH2 0xFA1 JUMPI DUP1 PUSH1 0x1F LT PUSH2 0xF76 JUMPI PUSH2 0x100 DUP1 DUP4 SLOAD DIV MUL DUP4 MSTORE SWAP2 PUSH1 0x20 ADD SWAP2 PUSH2 0xFA1 JUMP JUMPDEST DUP3 ADD SWAP2 SWAP1 PUSH1 0x0 MSTORE PUSH1 0x20 PUSH1 0x0 KECCAK256 SWAP1 JUMPDEST DUP2 SLOAD DUP2 MSTORE SWAP1 PUSH1 0x1 ADD SWAP1 PUSH1 0x20 ADD DUP1 DUP4 GT PUSH2 0xF84 JUMPI DUP3 SWAP1 SUB PUSH1 0x1F AND DUP3 ADD SWAP2 JUMPDEST POP POP POP POP POP DUP2 MSTORE PUSH1 0x20 ADD PUSH1 0x2 DUP3 ADD DUP1 SLOAD PUSH2 0xFBA SWAP1 PUSH2 0x2A28 JUMP JUMPDEST DUP1 PUSH1 0x1F ADD PUSH1 0x20 DUP1 SWAP2 DIV MUL PUSH1 0x20 ADD PUSH1 0x40 MLOAD SWAP1 DUP2 ADD PUSH1 0x40 MSTORE DUP1 SWAP3 SWAP2 SWAP1 DUP2 DUP2 MSTORE PUSH1 0x20 ADD DUP3 DUP1 SLOAD PUSH2 0xFE6 SWAP1 PUSH2 0x2A28 JUMP JUMPDEST DUP1 ISZERO PUSH2 0x1033 JUMPI DUP1 PUSH1 0x1F LT PUSH2 0x1008 JUMPI PUSH2 0x100 DUP1 DUP4 SLOAD DIV MUL DUP4 MSTORE SWAP2 PUSH1 0x20 ADD SWAP2 PUSH2 0x1033 JUMP JUMPDEST DUP3 ADD SWAP2 SWAP1 PUSH1 0x0 MSTORE PUSH1 0x20 PUSH1 0x0 KECCAK256 SWAP1 JUMPDEST DUP2 SLOAD DUP2 MSTORE SWAP1 PUSH1 0x1 ADD SWAP1 PUSH1 0x20 ADD DUP1 DUP4 GT PUSH2 0x1016 JUMPI DUP3 SWAP1 SUB PUSH1 0x1F AND DUP3 ADD SWAP2 JUMPDEST POP POP POP POP POP DUP2 MSTORE PUSH1 0x20 ADD PUSH1 0x3 DUP3 ADD PUSH1 0x0 SWAP1 SLOAD SWAP1 PUSH2 0x100 EXP SWAP1 DIV PUSH20 0xFFFFFFFFFFFFFFFFFFFFFFFFFFFFFFFFFFFFFFFF AND PUSH20 0xFFFFFFFFFFFFFFFFFFFFFFFFFFFFFFFFFFFFFFFF AND PUSH20 0xFFFFFFFFFFFFFFFFFFFFFFFFFFFFFFFFFFFFFFFF AND DUP2 MSTORE PUSH1 0x20 ADD PUSH1 0x4 DUP3 ADD SLOAD DUP2 MSTORE PUSH1 0x20 ADD PUSH1 0x5 DUP3 ADD DUP1 SLOAD DUP1 PUSH1 0x20 MUL PUSH1 0x20 ADD PUSH1 0x40 MLOAD SWAP1 DUP2 ADD PUSH1 0x40 MSTORE DUP1 SWAP3 SWAP2 SWAP1 DUP2 DUP2 MSTORE PUSH1 0x20 ADD PUSH1 0x0 SWAP1 JUMPDEST DUP3 DUP3 LT ISZERO PUSH2 0x116D JUMPI DUP4 DUP3 SWAP1 PUSH1 0x0 MSTORE PUSH1 0x20 PUSH1 0x0 KECCAK256 ADD DUP1 SLOAD PUSH2 0x10E0 SWAP1 PUSH2 0x2A28 JUMP JUMPDEST DUP1 PUSH1 0x1F ADD PUSH1 0x20 DUP1 SWAP2 DIV MUL PUSH1 0x20 ADD PUSH1 0x40 MLOAD SWAP1 DUP2 ADD PUSH1 0x40 MSTORE DUP1 SWAP3 SWAP2 SWAP1 DUP2 DUP2 MSTORE PUSH1 0x20 ADD DUP3 DUP1 SLOAD PUSH2 0x110C SWAP1 PUSH2 0x2A28 JUMP JUMPDEST DUP1 ISZERO PUSH2 0x1159 JUMPI DUP1 PUSH1 0x1F LT PUSH2 0x112E JUMPI PUSH2 0x100 DUP1 DUP4 SLOAD DIV MUL DUP4 MSTORE SWAP2 PUSH1 0x20 ADD SWAP2 PUSH2 0x1159 JUMP JUMPDEST DUP3 ADD SWAP2 SWAP1 PUSH1 0x0 MSTORE PUSH1 0x20 PUSH1 0x0 KECCAK256 SWAP1 JUMPDEST DUP2 SLOAD DUP2 MSTORE SWAP1 PUSH1 0x1 ADD SWAP1 PUSH1 0x20 ADD DUP1 DUP4 GT PUSH2 0x113C JUMPI DUP3 SWAP1 SUB PUSH1 0x1F AND DUP3 ADD SWAP2 JUMPDEST POP POP POP POP POP DUP2 MSTORE PUSH1 0x20 ADD SWAP1 PUSH1 0x1 ADD SWAP1 PUSH2 0x10C1 JUMP JUMPDEST POP POP POP POP DUP2 MSTORE POP POP SWAP1 POP JUMPDEST SWAP3 SWAP2 POP POP JUMP JUMPDEST PUSH1 0x0 PUSH1 0x7 PUSH1 0x0 DUP5 PUSH20 0xFFFFFFFFFFFFFFFFFFFFFFFFFFFFFFFFFFFFFFFF AND PUSH20 0xFFFFFFFFFFFFFFFFFFFFFFFFFFFFFFFFFFFFFFFF AND DUP2 MSTORE PUSH1 0x20 ADD SWAP1 DUP2 MSTORE PUSH1 0x20 ADD PUSH1 0x0 KECCAK256 PUSH1 0x40 MLOAD DUP1 PUSH1 0xC0 ADD PUSH1 0x40 MSTORE SWAP1 DUP2 PUSH1 0x0 DUP3 ADD DUP1 SLOAD PUSH2 0x11DA SWAP1 PUSH2 0x2A28 JUMP JUMPDEST DUP1 PUSH1 0x1F ADD PUSH1 0x20 DUP1 SWAP2 DIV MUL PUSH1 0x20 ADD PUSH1 0x40 MLOAD SWAP1 DUP2 ADD PUSH1 0x40 MSTORE DUP1 SWAP3 SWAP2 SWAP1 DUP2 DUP2 MSTORE PUSH1 0x20 ADD DUP3 DUP1 SLOAD PUSH2 0x1206 SWAP1 PUSH2 0x2A28 JUMP JUMPDEST DUP1 ISZERO PUSH2 0x1253 JUMPI DUP1 PUSH1 0x1F LT PUSH2 0x1228 JUMPI PUSH2 0x100 DUP1 DUP4 SLOAD DIV MUL DUP4 MSTORE SWAP2 PUSH1 0x20 ADD SWAP2 PUSH2 0x1253 JUMP JUMPDEST DUP3 ADD SWAP2 SWAP1 PUSH1 0x0 MSTORE PUSH1 0x20 PUSH1 0x0 KECCAK256 SWAP1 JUMPDEST DUP2 SLOAD DUP2 MSTORE SWAP1 PUSH1 0x1 ADD SWAP1 PUSH1 0x20 ADD DUP1 DUP4 GT PUSH2 0x1236 JUMPI DUP3 SWAP1 SUB PUSH1 0x1F AND DUP3 ADD SWAP2 JUMPDEST POP POP POP POP POP DUP2 MSTORE PUSH1 0x20 ADD PUSH1 0x1 DUP3 ADD DUP1 SLOAD PUSH2 0x126C SWAP1 PUSH2 0x2A28 JUMP JUMPDEST DUP1 PUSH1 0x1F ADD PUSH1 0x20 DUP1 SWAP2 DIV MUL PUSH1 0x20 ADD PUSH1 0x40 MLOAD SWAP1 DUP2 ADD PUSH1 0x40 MSTORE DUP1 SWAP3 SWAP2 SWAP1 DUP2 DUP2 MSTORE PUSH1 0x20 ADD DUP3 DUP1 SLOAD PUSH2 0x1298 SWAP1 PUSH2 0x2A28 JUMP JUMPDEST DUP1 ISZERO PUSH2 0x12E5 JUMPI DUP1 PUSH1 0x1F LT PUSH2 0x12BA JUMPI PUSH2 0x100 DUP1 DUP4 SLOAD DIV MUL DUP4 MSTORE SWAP2 PUSH1 0x20 ADD SWAP2 PUSH2 0x12E5 JUMP JUMPDEST DUP3 ADD SWAP2 SWAP1 PUSH1 0x0 MSTORE PUSH1 0x20 PUSH1 0x0 KECCAK256 SWAP1 JUMPDEST DUP2 SLOAD DUP2 MSTORE SWAP1 PUSH1 0x1 ADD SWAP1 PUSH1 0x20 ADD DUP1 DUP4 GT PUSH2 0x12C8 JUMPI DUP3 SWAP1 SUB PUSH1 0x1F AND DUP3 ADD SWAP2 JUMPDEST POP POP POP POP POP DUP2 MSTORE PUSH1 0x20 ADD PUSH1 0x2 DUP3 ADD DUP1 SLOAD PUSH2 0x12FE SWAP1 PUSH2 0x2A28 JUMP JUMPDEST DUP1 PUSH1 0x1F ADD PUSH1 0x20 DUP1 SWAP2 DIV MUL PUSH1 0x20 ADD PUSH1 0x40 MLOAD SWAP1 DUP2 ADD PUSH1 0x40 MSTORE DUP1 SWAP3 SWAP2 SWAP1 DUP2 DUP2 MSTORE PUSH1 0x20 ADD DUP3 DUP1 SLOAD PUSH2 0x132A SWAP1 PUSH2 0x2A28 JUMP JUMPDEST DUP1 ISZERO PUSH2 0x1377 JUMPI DUP1 PUSH1 0x1F LT PUSH2 0x134C JUMPI PUSH2 0x100 DUP1 DUP4 SLOAD DIV MUL DUP4 MSTORE SWAP2 PUSH1 0x20 ADD SWAP2 PUSH2 0x1377 JUMP JUMPDEST DUP3 ADD SWAP2 SWAP1 PUSH1 0x0 MSTORE PUSH1 0x20 PUSH1 0x0 KECCAK256 SWAP1 JUMPDEST DUP2 SLOAD DUP2 MSTORE SWAP1 PUSH1 0x1 ADD SWAP1 PUSH1 0x20 ADD DUP1 DUP4 GT PUSH2 0x135A JUMPI DUP3 SWAP1 SUB PUSH1 0x1F AND DUP3 ADD SWAP2 JUMPDEST POP POP POP POP POP DUP2 MSTORE PUSH1 0x20 ADD PUSH1 0x3 DUP3 ADD PUSH1 0x0 SWAP1 SLOAD SWAP1 PUSH2 0x100 EXP SWAP1 DIV PUSH20 0xFFFFFFFFFFFFFFFFFFFFFFFFFFFFFFFFFFFFFFFF AND PUSH20 0xFFFFFFFFFFFFFFFFFFFFFFFFFFFFFFFFFFFFFFFF AND PUSH20 0xFFFFFFFFFFFFFFFFFFFFFFFFFFFFFFFFFFFFFFFF AND DUP2 MSTORE PUSH1 0x20 ADD PUSH1 0x4 DUP3 ADD SLOAD DUP2 MSTORE PUSH1 0x20 ADD PUSH1 0x5 DUP3 ADD DUP1 SLOAD DUP1 PUSH1 0x20 MUL PUSH1 0x20 ADD PUSH1 0x40 MLOAD SWAP1 DUP2 ADD PUSH1 0x40 MSTORE DUP1 SWAP3 SWAP2 SWAP1 DUP2 DUP2 MSTORE PUSH1 0x20 ADD PUSH1 0x0 SWAP1 JUMPDEST DUP3 DUP3 LT ISZERO PUSH2 0x14B1 JUMPI DUP4 DUP3 SWAP1 PUSH1 0x0 MSTORE PUSH1 0x20 PUSH1 0x0 KECCAK256 ADD DUP1 SLOAD PUSH2 0x1424 SWAP1 PUSH2 0x2A28 JUMP JUMPDEST DUP1 PUSH1 0x1F ADD PUSH1 0x20 DUP1 SWAP2 DIV MUL PUSH1 0x20 ADD PUSH1 0x40 MLOAD SWAP1 DUP2 ADD PUSH1 0x40 MSTORE DUP1 SWAP3 SWAP2 SWAP1 DUP2 DUP2 MSTORE PUSH1 0x20 ADD DUP3 DUP1 SLOAD PUSH2 0x1450 SWAP1 PUSH2 0x2A28 JUMP JUMPDEST DUP1 ISZERO PUSH2 0x149D JUMPI DUP1 PUSH1 0x1F LT PUSH2 0x1472 JUMPI PUSH2 0x100 DUP1 DUP4 SLOAD DIV MUL DUP4 MSTORE SWAP2 PUSH1 0x20 ADD SWAP2 PUSH2 0x149D JUMP JUMPDEST DUP3 ADD SWAP2 SWAP1 PUSH1 0x0 MSTORE PUSH1 0x20 PUSH1 0x0 KECCAK256 SWAP1 JUMPDEST DUP2 SLOAD DUP2 MSTORE SWAP1 PUSH1 0x1 ADD SWAP1 PUSH1 0x20 ADD DUP1 DUP4 GT PUSH2 0x1480 JUMPI DUP3 SWAP1 SUB PUSH1 0x1F AND DUP3 ADD SWAP2 JUMPDEST POP POP POP POP POP DUP2 MSTORE PUSH1 0x20 ADD SWAP1 PUSH1 0x1 ADD SWAP1 PUSH2 0x1405 JUMP JUMPDEST POP POP POP POP DUP2 MSTORE POP POP SWAP1 POP PUSH1 0x0 PUSH1 0x4 PUSH1 0x0 DUP5 PUSH20 0xFFFFFFFFFFFFFFFFFFFFFFFFFFFFFFFFFFFFFFFF AND PUSH20 0xFFFFFFFFFFFFFFFFFFFFFFFFFFFFFFFFFFFFFFFF AND DUP2 MSTORE PUSH1 0x20 ADD SWAP1 DUP2 MSTORE PUSH1 0x20 ADD PUSH1 0x0 KECCAK256 PUSH1 0x40 MLOAD DUP1 PUSH1 0xC0 ADD PUSH1 0x40 MSTORE SWAP1 DUP2 PUSH1 0x0 DUP3 ADD DUP1 SLOAD PUSH2 0x1517 SWAP1 PUSH2 0x2A28 JUMP JUMPDEST DUP1 PUSH1 0x1F ADD PUSH1 0x20 DUP1 SWAP2 DIV MUL PUSH1 0x20 ADD PUSH1 0x40 MLOAD SWAP1 DUP2 ADD PUSH1 0x40 MSTORE DUP1 SWAP3 SWAP2 SWAP1 DUP2 DUP2 MSTORE PUSH1 0x20 ADD DUP3 DUP1 SLOAD PUSH2 0x1543 SWAP1 PUSH2 0x2A28 JUMP JUMPDEST DUP1 ISZERO PUSH2 0x1590 JUMPI DUP1 PUSH1 0x1F LT PUSH2 0x1565 JUMPI PUSH2 0x100 DUP1 DUP4 SLOAD DIV MUL DUP4 MSTORE SWAP2 PUSH1 0x20 ADD SWAP2 PUSH2 0x1590 JUMP JUMPDEST DUP3 ADD SWAP2 SWAP1 PUSH1 0x0 MSTORE PUSH1 0x20 PUSH1 0x0 KECCAK256 SWAP1 JUMPDEST DUP2 SLOAD DUP2 MSTORE SWAP1 PUSH1 0x1 ADD SWAP1 PUSH1 0x20 ADD DUP1 DUP4 GT PUSH2 0x1573 JUMPI DUP3 SWAP1 SUB PUSH1 0x1F AND DUP3 ADD SWAP2 JUMPDEST POP POP POP POP POP DUP2 MSTORE PUSH1 0x20 ADD PUSH1 0x1 DUP3 ADD DUP1 SLOAD PUSH2 0x15A9 SWAP1 PUSH2 0x2A28 JUMP JUMPDEST DUP1 PUSH1 0x1F ADD PUSH1 0x20 DUP1 SWAP2 DIV MUL PUSH1 0x20 ADD PUSH1 0x40 MLOAD SWAP1 DUP2 ADD PUSH1 0x40 MSTORE DUP1 SWAP3 SWAP2 SWAP1 DUP2 DUP2 MSTORE PUSH1 0x20 ADD DUP3 DUP1 SLOAD PUSH2 0x15D5 SWAP1 PUSH2 0x2A28 JUMP JUMPDEST DUP1 ISZERO PUSH2 0x1622 JUMPI DUP1 PUSH1 0x1F LT PUSH2 0x15F7 JUMPI PUSH2 0x100 DUP1 DUP4 SLOAD DIV MUL DUP4 MSTORE SWAP2 PUSH1 0x20 ADD SWAP2 PUSH2 0x1622 JUMP JUMPDEST DUP3 ADD SWAP2 SWAP1 PUSH1 0x0 MSTORE PUSH1 0x20 PUSH1 0x0 KECCAK256 SWAP1 JUMPDEST DUP2 SLOAD DUP2 MSTORE SWAP1 PUSH1 0x1 ADD SWAP1 PUSH1 0x20 ADD DUP1 DUP4 GT PUSH2 0x1605 JUMPI DUP3 SWAP1 SUB PUSH1 0x1F AND DUP3 ADD SWAP2 JUMPDEST POP POP POP POP POP DUP2 MSTORE PUSH1 0x20 ADD PUSH1 0x2 DUP3 ADD DUP1 SLOAD PUSH2 0x163B SWAP1 PUSH2 0x2A28 JUMP JUMPDEST DUP1 PUSH1 0x1F ADD PUSH1 0x20 DUP1 SWAP2 DIV MUL PUSH1 0x20 ADD PUSH1 0x40 MLOAD SWAP1 DUP2 ADD PUSH1 0x40 MSTORE DUP1 SWAP3 SWAP2 SWAP1 DUP2 DUP2 MSTORE PUSH1 0x20 ADD DUP3 DUP1 SLOAD PUSH2 0x1667 SWAP1 PUSH2 0x2A28 JUMP JUMPDEST DUP1 ISZERO PUSH2 0x16B4 JUMPI DUP1 PUSH1 0x1F LT PUSH2 0x1689 JUMPI PUSH2 0x100 DUP1 DUP4 SLOAD DIV MUL DUP4 MSTORE SWAP2 PUSH1 0x20 ADD SWAP2 PUSH2 0x16B4 JUMP JUMPDEST DUP3 ADD SWAP2 SWAP1 PUSH1 0x0 MSTORE PUSH1 0x20 PUSH1 0x0 KECCAK256 SWAP1 JUMPDEST DUP2 SLOAD DUP2 MSTORE SWAP1 PUSH1 0x1 ADD SWAP1 PUSH1 0x20 ADD DUP1 DUP4 GT PUSH2 0x1697 JUMPI DUP3 SWAP1 SUB PUSH1 0x1F AND DUP3 ADD SWAP2 JUMPDEST POP POP POP POP POP DUP2 MSTORE PUSH1 0x20 ADD PUSH1 0x3 DUP3 ADD PUSH1 0x0 SWAP1 SLOAD SWAP1 PUSH2 0x100 EXP SWAP1 DIV PUSH20 0xFFFFFFFFFFFFFFFFFFFFFFFFFFFFFFFFFFFFFFFF AND PUSH20 0xFFFFFFFFFFFFFFFFFFFFFFFFFFFFFFFFFFFFFFFF AND PUSH20 0xFFFFFFFFFFFFFFFFFFFFFFFFFFFFFFFFFFFFFFFF AND DUP2 MSTORE PUSH1 0x20 ADD PUSH1 0x4 DUP3 ADD SLOAD DUP2 MSTORE PUSH1 0x20 ADD PUSH1 0x5 DUP3 ADD DUP1 SLOAD DUP1 PUSH1 0x20 MUL PUSH1 0x20 ADD PUSH1 0x40 MLOAD SWAP1 DUP2 ADD PUSH1 0x40 MSTORE DUP1 SWAP3 SWAP2 SWAP1 DUP2 DUP2 MSTORE PUSH1 0x20 ADD PUSH1 0x0 SWAP1 JUMPDEST DUP3 DUP3 LT ISZERO PUSH2 0x17EE JUMPI DUP4 DUP3 SWAP1 PUSH1 0x0 MSTORE PUSH1 0x20 PUSH1 0x0 KECCAK256 ADD DUP1 SLOAD PUSH2 0x1761 SWAP1 PUSH2 0x2A28 JUMP JUMPDEST DUP1 PUSH1 0x1F ADD PUSH1 0x20 DUP1 SWAP2 DIV MUL PUSH1 0x20 ADD PUSH1 0x40 MLOAD SWAP1 DUP2 ADD PUSH1 0x40 MSTORE DUP1 SWAP3 SWAP2 SWAP1 DUP2 DUP2 MSTORE PUSH1 0x20 ADD DUP3 DUP1 SLOAD PUSH2 0x178D SWAP1 PUSH2 0x2A28 JUMP JUMPDEST DUP1 ISZERO PUSH2 0x17DA JUMPI DUP1 PUSH1 0x1F LT PUSH2 0x17AF JUMPI PUSH2 0x100 DUP1 DUP4 SLOAD DIV MUL DUP4 MSTORE SWAP2 PUSH1 0x20 ADD SWAP2 PUSH2 0x17DA JUMP JUMPDEST DUP3 ADD SWAP2 SWAP1 PUSH1 0x0 MSTORE PUSH1 0x20 PUSH1 0x0 KECCAK256 SWAP1 JUMPDEST DUP2 SLOAD DUP2 MSTORE SWAP1 PUSH1 0x1 ADD SWAP1 PUSH1 0x20 ADD DUP1 DUP4 GT PUSH2 0x17BD JUMPI DUP3 SWAP1 SUB PUSH1 0x1F AND DUP3 ADD SWAP2 JUMPDEST POP POP POP POP POP DUP2 MSTORE PUSH1 0x20 ADD SWAP1 PUSH1 0x1 ADD SWAP1 PUSH2 0x1742 JUMP JUMPDEST POP POP POP POP DUP2 MSTORE POP POP SWAP1 POP PUSH1 0x0 DUP3 PUSH1 0x0 ADD MLOAD SWAP1 POP PUSH1 0x0 DUP4 PUSH1 0x20 ADD MLOAD SWAP1 POP PUSH1 0x0 DUP5 PUSH1 0x40 ADD MLOAD SWAP1 POP PUSH1 0x0 DUP6 PUSH1 0x60 ADD MLOAD SWAP1 POP PUSH1 0x0 DUP7 PUSH1 0x80 ADD MLOAD SWAP1 POP PUSH1 0x0 DUP7 PUSH1 0x80 ADD MLOAD SWAP1 POP DUP2 DUP2 GT ISZERO PUSH2 0x1871 JUMPI PUSH1 0x40 MLOAD PUSH32 0x8C379A000000000000000000000000000000000000000000000000000000000 DUP2 MSTORE PUSH1 0x4 ADD PUSH2 0x1868 SWAP1 PUSH2 0x30B1 JUMP JUMPDEST PUSH1 0x40 MLOAD DUP1 SWAP2 SUB SWAP1 REVERT JUMPDEST PUSH2 0x187F DUP7 DUP7 DUP7 DUP7 PUSH1 0x0 PUSH2 0x1DA JUMP JUMPDEST PUSH2 0x1888 DUP11 PUSH2 0x1F3F JUMP JUMPDEST POP POP POP POP POP POP POP POP POP POP JUMP JUMPDEST PUSH1 0x60 PUSH1 0x1 ISZERO ISZERO DUP3 ISZERO ISZERO SUB PUSH2 0x1BF0 JUMPI PUSH1 0x8 DUP1 SLOAD DUP1 PUSH1 0x20 MUL PUSH1 0x20 ADD PUSH1 0x40 MLOAD SWAP1 DUP2 ADD PUSH1 0x40 MSTORE DUP1 SWAP3 SWAP2 SWAP1 DUP2 DUP2 MSTORE PUSH1 0x20 ADD PUSH1 0x0 SWAP1 JUMPDEST DUP3 DUP3 LT ISZERO PUSH2 0x1BE5 JUMPI DUP4 DUP3 SWAP1 PUSH1 0x0 MSTORE PUSH1 0x20 PUSH1 0x0 KECCAK256 SWAP1 PUSH1 0x6 MUL ADD PUSH1 0x40 MLOAD DUP1 PUSH1 0xC0 ADD PUSH1 0x40 MSTORE SWAP1 DUP2 PUSH1 0x0 DUP3 ADD DUP1 SLOAD PUSH2 0x18F7 SWAP1 PUSH2 0x2A28 JUMP JUMPDEST DUP1 PUSH1 0x1F ADD PUSH1 0x20 DUP1 SWAP2 DIV MUL PUSH1 0x20 ADD PUSH1 0x40 MLOAD SWAP1 DUP2 ADD PUSH1 0x40 MSTORE DUP1 SWAP3 SWAP2 SWAP1 DUP2 DUP2 MSTORE PUSH1 0x20 ADD DUP3 DUP1 SLOAD PUSH2 0x1923 SWAP1 PUSH2 0x2A28 JUMP JUMPDEST DUP1 ISZERO PUSH2 0x1970 JUMPI DUP1 PUSH1 0x1F LT PUSH2 0x1945 JUMPI PUSH2 0x100 DUP1 DUP4 SLOAD DIV MUL DUP4 MSTORE SWAP2 PUSH1 0x20 ADD SWAP2 PUSH2 0x1970 JUMP JUMPDEST DUP3 ADD SWAP2 SWAP1 PUSH1 0x0 MSTORE PUSH1 0x20 PUSH1 0x0 KECCAK256 SWAP1 JUMPDEST DUP2 SLOAD DUP2 MSTORE SWAP1 PUSH1 0x1 ADD SWAP1 PUSH1 0x20 ADD DUP1 DUP4 GT PUSH2 0x1953 JUMPI DUP3 SWAP1 SUB PUSH1 0x1F AND DUP3 ADD SWAP2 JUMPDEST POP POP POP POP POP DUP2 MSTORE PUSH1 0x20 ADD PUSH1 0x1 DUP3 ADD DUP1 SLOAD PUSH2 0x1989 SWAP1 PUSH2 0x2A28 JUMP JUMPDEST DUP1 PUSH1 0x1F ADD PUSH1 0x20 DUP1 SWAP2 DIV MUL PUSH1 0x20 ADD PUSH1 0x40 MLOAD SWAP1 DUP2 ADD PUSH1 0x40 MSTORE DUP1 SWAP3 SWAP2 SWAP1 DUP2 DUP2 MSTORE PUSH1 0x20 ADD DUP3 DUP1 SLOAD PUSH2 0x19B5 SWAP1 PUSH2 0x2A28 JUMP JUMPDEST DUP1 ISZERO PUSH2 0x1A02 JUMPI DUP1 PUSH1 0x1F LT PUSH2 0x19D7 JUMPI PUSH2 0x100 DUP1 DUP4 SLOAD DIV MUL DUP4 MSTORE SWAP2 PUSH1 0x20 ADD SWAP2 PUSH2 0x1A02 JUMP JUMPDEST DUP3 ADD SWAP2 SWAP1 PUSH1 0x0 MSTORE PUSH1 0x20 PUSH1 0x0 KECCAK256 SWAP1 JUMPDEST DUP2 SLOAD DUP2 MSTORE SWAP1 PUSH1 0x1 ADD SWAP1 PUSH1 0x20 ADD DUP1 DUP4 GT PUSH2 0x19E5 JUMPI DUP3 SWAP1 SUB PUSH1 0x1F AND DUP3 ADD SWAP2 JUMPDEST POP POP POP POP POP DUP2 MSTORE PUSH1 0x20 ADD PUSH1 0x2 DUP3 ADD DUP1 SLOAD PUSH2 0x1A1B SWAP1 PUSH2 0x2A28 JUMP JUMPDEST DUP1 PUSH1 0x1F ADD PUSH1 0x20 DUP1 SWAP2 DIV MUL PUSH1 0x20 ADD PUSH1 0x40 MLOAD SWAP1 DUP2 ADD PUSH1 0x40 MSTORE DUP1 SWAP3 SWAP2 SWAP1 DUP2 DUP2 MSTORE PUSH1 0x20 ADD DUP3 DUP1 SLOAD PUSH2 0x1A47 SWAP1 PUSH2 0x2A28 JUMP JUMPDEST DUP1 ISZERO PUSH2 0x1A94 JUMPI DUP1 PUSH1 0x1F LT PUSH2 0x1A69 JUMPI PUSH2 0x100 DUP1 DUP4 SLOAD DIV MUL DUP4 MSTORE SWAP2 PUSH1 0x20 ADD SWAP2 PUSH2 0x1A94 JUMP JUMPDEST DUP3 ADD SWAP2 SWAP1 PUSH1 0x0 MSTORE PUSH1 0x20 PUSH1 0x0 KECCAK256 SWAP1 JUMPDEST DUP2 SLOAD DUP2 MSTORE SWAP1 PUSH1 0x1 ADD SWAP1 PUSH1 0x20 ADD DUP1 DUP4 GT PUSH2 0x1A77 JUMPI DUP3 SWAP1 SUB PUSH1 0x1F AND DUP3 ADD SWAP2 JUMPDEST POP POP POP POP POP DUP2 MSTORE PUSH1 0x20 ADD PUSH1 0x3 DUP3 ADD PUSH1 0x0 SWAP1 SLOAD SWAP1 PUSH2 0x100 EXP SWAP1 DIV PUSH20 0xFFFFFFFFFFFFFFFFFFFFFFFFFFFFFFFFFFFFFFFF AND PUSH20 0xFFFFFFFFFFFFFFFFFFFFFFFFFFFFFFFFFFFFFFFF AND PUSH20 0xFFFFFFFFFFFFFFFFFFFFFFFFFFFFFFFFFFFFFFFF AND DUP2 MSTORE PUSH1 0x20 ADD PUSH1 0x4 DUP3 ADD SLOAD DUP2 MSTORE PUSH1 0x20 ADD PUSH1 0x5 DUP3 ADD DUP1 SLOAD DUP1 PUSH1 0x20 MUL PUSH1 0x20 ADD PUSH1 0x40 MLOAD SWAP1 DUP2 ADD PUSH1 0x40 MSTORE DUP1 SWAP3 SWAP2 SWAP1 DUP2 DUP2 MSTORE PUSH1 0x20 ADD PUSH1 0x0 SWAP1 JUMPDEST DUP3 DUP3 LT ISZERO PUSH2 0x1BCE JUMPI DUP4 DUP3 SWAP1 PUSH1 0x0 MSTORE PUSH1 0x20 PUSH1 0x0 KECCAK256 ADD DUP1 SLOAD PUSH2 0x1B41 SWAP1 PUSH2 0x2A28 JUMP JUMPDEST DUP1 PUSH1 0x1F ADD PUSH1 0x20 DUP1 SWAP2 DIV MUL PUSH1 0x20 ADD PUSH1 0x40 MLOAD SWAP1 DUP2 ADD PUSH1 0x40 MSTORE DUP1 SWAP3 SWAP2 SWAP1 DUP2 DUP2 MSTORE PUSH1 0x20 ADD DUP3 DUP1 SLOAD PUSH2 0x1B6D SWAP1 PUSH2 0x2A28 JUMP JUMPDEST DUP1 ISZERO PUSH2 0x1BBA JUMPI DUP1 PUSH1 0x1F LT PUSH2 0x1B8F JUMPI PUSH2 0x100 DUP1 DUP4 SLOAD DIV MUL DUP4 MSTORE SWAP2 PUSH1 0x20 ADD SWAP2 PUSH2 0x1BBA JUMP JUMPDEST DUP3 ADD SWAP2 SWAP1 PUSH1 0x0 MSTORE PUSH1 0x20 PUSH1 0x0 KECCAK256 SWAP1 JUMPDEST DUP2 SLOAD DUP2 MSTORE SWAP1 PUSH1 0x1 ADD SWAP1 PUSH1 0x20 ADD DUP1 DUP4 GT PUSH2 0x1B9D JUMPI DUP3 SWAP1 SUB PUSH1 0x1F AND DUP3 ADD SWAP2 JUMPDEST POP POP POP POP POP DUP2 MSTORE PUSH1 0x20 ADD SWAP1 PUSH1 0x1 ADD SWAP1 PUSH2 0x1B22 JUMP JUMPDEST POP POP POP POP DUP2 MSTORE POP POP DUP2 MSTORE PUSH1 0x20 ADD SWAP1 PUSH1 0x1 ADD SWAP1 PUSH2 0x18C4 JUMP JUMPDEST POP POP POP POP SWAP1 POP PUSH2 0x1F3A JUMP JUMPDEST PUSH1 0x5 DUP1 SLOAD DUP1 PUSH1 0x20 MUL PUSH1 0x20 ADD PUSH1 0x40 MLOAD SWAP1 DUP2 ADD PUSH1 0x40 MSTORE DUP1 SWAP3 SWAP2 SWAP1 DUP2 DUP2 MSTORE PUSH1 0x20 ADD PUSH1 0x0 SWAP1 JUMPDEST DUP3 DUP3 LT ISZERO PUSH2 0x1F33 JUMPI DUP4 DUP3 SWAP1 PUSH1 0x0 MSTORE PUSH1 0x20 PUSH1 0x0 KECCAK256 SWAP1 PUSH1 0x6 MUL ADD PUSH1 0x40 MLOAD DUP1 PUSH1 0xC0 ADD PUSH1 0x40 MSTORE SWAP1 DUP2 PUSH1 0x0 DUP3 ADD DUP1 SLOAD PUSH2 0x1C45 SWAP1 PUSH2 0x2A28 JUMP JUMPDEST DUP1 PUSH1 0x1F ADD PUSH1 0x20 DUP1 SWAP2 DIV MUL PUSH1 0x20 ADD PUSH1 0x40 MLOAD SWAP1 DUP2 ADD PUSH1 0x40 MSTORE DUP1 SWAP3 SWAP2 SWAP1 DUP2 DUP2 MSTORE PUSH1 0x20 ADD DUP3 DUP1 SLOAD PUSH2 0x1C71 SWAP1 PUSH2 0x2A28 JUMP JUMPDEST DUP1 ISZERO PUSH2 0x1CBE JUMPI DUP1 PUSH1 0x1F LT PUSH2 0x1C93 JUMPI PUSH2 0x100 DUP1 DUP4 SLOAD DIV MUL DUP4 MSTORE SWAP2 PUSH1 0x20 ADD SWAP2 PUSH2 0x1CBE JUMP JUMPDEST DUP3 ADD SWAP2 SWAP1 PUSH1 0x0 MSTORE PUSH1 0x20 PUSH1 0x0 KECCAK256 SWAP1 JUMPDEST DUP2 SLOAD DUP2 MSTORE SWAP1 PUSH1 0x1 ADD SWAP1 PUSH1 0x20 ADD DUP1 DUP4 GT PUSH2 0x1CA1 JUMPI DUP3 SWAP1 SUB PUSH1 0x1F AND DUP3 ADD SWAP2 JUMPDEST POP POP POP POP POP DUP2 MSTORE PUSH1 0x20 ADD PUSH1 0x1 DUP3 ADD DUP1 SLOAD PUSH2 0x1CD7 SWAP1 PUSH2 0x2A28 JUMP JUMPDEST DUP1 PUSH1 0x1F ADD PUSH1 0x20 DUP1 SWAP2 DIV MUL PUSH1 0x20 ADD PUSH1 0x40 MLOAD SWAP1 DUP2 ADD PUSH1 0x40 MSTORE DUP1 SWAP3 SWAP2 SWAP1 DUP2 DUP2 MSTORE PUSH1 0x20 ADD DUP3 DUP1 SLOAD PUSH2 0x1D03 SWAP1 PUSH2 0x2A28 JUMP JUMPDEST DUP1 ISZERO PUSH2 0x1D50 JUMPI DUP1 PUSH1 0x1F LT PUSH2 0x1D25 JUMPI PUSH2 0x100 DUP1 DUP4 SLOAD DIV MUL DUP4 MSTORE SWAP2 PUSH1 0x20 ADD SWAP2 PUSH2 0x1D50 JUMP JUMPDEST DUP3 ADD SWAP2 SWAP1 PUSH1 0x0 MSTORE PUSH1 0x20 PUSH1 0x0 KECCAK256 SWAP1 JUMPDEST DUP2 SLOAD DUP2 MSTORE SWAP1 PUSH1 0x1 ADD SWAP1 PUSH1 0x20 ADD DUP1 DUP4 GT PUSH2 0x1D33 JUMPI DUP3 SWAP1 SUB PUSH1 0x1F AND DUP3 ADD SWAP2 JUMPDEST POP POP POP POP POP DUP2 MSTORE PUSH1 0x20 ADD PUSH1 0x2 DUP3 ADD DUP1 SLOAD PUSH2 0x1D69 SWAP1 PUSH2 0x2A28 JUMP JUMPDEST DUP1 PUSH1 0x1F ADD PUSH1 0x20 DUP1 SWAP2 DIV MUL PUSH1 0x20 ADD PUSH1 0x40 MLOAD SWAP1 DUP2 ADD PUSH1 0x40 MSTORE DUP1 SWAP3 SWAP2 SWAP1 DUP2 DUP2 MSTORE PUSH1 0x20 ADD DUP3 DUP1 SLOAD PUSH2 0x1D95 SWAP1 PUSH2 0x2A28 JUMP JUMPDEST DUP1 ISZERO PUSH2 0x1DE2 JUMPI DUP1 PUSH1 0x1F LT PUSH2 0x1DB7 JUMPI PUSH2 0x100 DUP1 DUP4 SLOAD DIV MUL DUP4 MSTORE SWAP2 PUSH1 0x20 ADD SWAP2 PUSH2 0x1DE2 JUMP JUMPDEST DUP3 ADD SWAP2 SWAP1 PUSH1 0x0 MSTORE PUSH1 0x20 PUSH1 0x0 KECCAK256 SWAP1 JUMPDEST DUP2 SLOAD DUP2 MSTORE SWAP1 PUSH1 0x1 ADD SWAP1 PUSH1 0x20 ADD DUP1 DUP4 GT PUSH2 0x1DC5 JUMPI DUP3 SWAP1 SUB PUSH1 0x1F AND DUP3 ADD SWAP2 JUMPDEST POP POP POP POP POP DUP2 MSTORE PUSH1 0x20 ADD PUSH1 0x3 DUP3 ADD PUSH1 0x0 SWAP1 SLOAD SWAP1 PUSH2 0x100 EXP SWAP1 DIV PUSH20 0xFFFFFFFFFFFFFFFFFFFFFFFFFFFFFFFFFFFFFFFF AND PUSH20 0xFFFFFFFFFFFFFFFFFFFFFFFFFFFFFFFFFFFFFFFF AND PUSH20 0xFFFFFFFFFFFFFFFFFFFFFFFFFFFFFFFFFFFFFFFF AND DUP2 MSTORE PUSH1 0x20 ADD PUSH1 0x4 DUP3 ADD SLOAD DUP2 MSTORE PUSH1 0x20 ADD PUSH1 0x5 DUP3 ADD DUP1 SLOAD DUP1 PUSH1 0x20 MUL PUSH1 0x20 ADD PUSH1 0x40 MLOAD SWAP1 DUP2 ADD PUSH1 0x40 MSTORE DUP1 SWAP3 SWAP2 SWAP1 DUP2 DUP2 MSTORE PUSH1 0x20 ADD PUSH1 0x0 SWAP1 JUMPDEST DUP3 DUP3 LT ISZERO PUSH2 0x1F1C JUMPI DUP4 DUP3 SWAP1 PUSH1 0x0 MSTORE PUSH1 0x20 PUSH1 0x0 KECCAK256 ADD DUP1 SLOAD PUSH2 0x1E8F SWAP1 PUSH2 0x2A28 JUMP JUMPDEST DUP1 PUSH1 0x1F ADD PUSH1 0x20 DUP1 SWAP2 DIV MUL PUSH1 0x20 ADD PUSH1 0x40 MLOAD SWAP1 DUP2 ADD PUSH1 0x40 MSTORE DUP1 SWAP3 SWAP2 SWAP1 DUP2 DUP2 MSTORE PUSH1 0x20 ADD DUP3 DUP1 SLOAD PUSH2 0x1EBB SWAP1 PUSH2 0x2A28 JUMP JUMPDEST DUP1 ISZERO PUSH2 0x1F08 JUMPI DUP1 PUSH1 0x1F LT PUSH2 0x1EDD JUMPI PUSH2 0x100 DUP1 DUP4 SLOAD DIV MUL DUP4 MSTORE SWAP2 PUSH1 0x20 ADD SWAP2 PUSH2 0x1F08 JUMP JUMPDEST DUP3 ADD SWAP2 SWAP1 PUSH1 0x0 MSTORE PUSH1 0x20 PUSH1 0x0 KECCAK256 SWAP1 JUMPDEST DUP2 SLOAD DUP2 MSTORE SWAP1 PUSH1 0x1 ADD SWAP1 PUSH1 0x20 ADD DUP1 DUP4 GT PUSH2 0x1EEB JUMPI DUP3 SWAP1 SUB PUSH1 0x1F AND DUP3 ADD SWAP2 JUMPDEST POP POP POP POP POP DUP2 MSTORE PUSH1 0x20 ADD SWAP1 PUSH1 0x1 ADD SWAP1 PUSH2 0x1E70 JUMP JUMPDEST POP POP POP POP DUP2 MSTORE POP POP DUP2 MSTORE PUSH1 0x20 ADD SWAP1 PUSH1 0x1 ADD SWAP1 PUSH2 0x1C12 JUMP JUMPDEST POP POP POP POP SWAP1 POP JUMPDEST SWAP2 SWAP1 POP JUMP JUMPDEST PUSH1 0x0 PUSH1 0x2 PUSH1 0x0 DUP4 PUSH20 0xFFFFFFFFFFFFFFFFFFFFFFFFFFFFFFFFFFFFFFFF AND PUSH20 0xFFFFFFFFFFFFFFFFFFFFFFFFFFFFFFFFFFFFFFFF AND DUP2 MSTORE PUSH1 0x20 ADD SWAP1 DUP2 MSTORE PUSH1 0x20 ADD PUSH1 0x0 KECCAK256 SLOAD SWAP1 POP PUSH1 0x8 PUSH1 0x1 PUSH1 0x8 DUP1 SLOAD SWAP1 POP PUSH2 0x1F97 SWAP2 SWAP1 PUSH2 0x3100 JUMP JUMPDEST DUP2 SLOAD DUP2 LT PUSH2 0x1FA8 JUMPI PUSH2 0x1FA7 PUSH2 0x3134 JUMP JUMPDEST JUMPDEST SWAP1 PUSH1 0x0 MSTORE PUSH1 0x20 PUSH1 0x0 KECCAK256 SWAP1 PUSH1 0x6 MUL ADD PUSH1 0x8 DUP3 DUP2 SLOAD DUP2 LT PUSH2 0x1FCA JUMPI PUSH2 0x1FC9 PUSH2 0x3134 JUMP JUMPDEST JUMPDEST SWAP1 PUSH1 0x0 MSTORE PUSH1 0x20 PUSH1 0x0 KECCAK256 SWAP1 PUSH1 0x6 MUL ADD PUSH1 0x0 DUP3 ADD DUP2 PUSH1 0x0 ADD SWAP1 DUP2 PUSH2 0x1FEC SWAP2 SWAP1 PUSH2 0x2EEB JUMP JUMPDEST POP PUSH1 0x1 DUP3 ADD DUP2 PUSH1 0x1 ADD SWAP1 DUP2 PUSH2 0x2001 SWAP2 SWAP1 PUSH2 0x2EEB JUMP JUMPDEST POP PUSH1 0x2 DUP3 ADD DUP2 PUSH1 0x2 ADD SWAP1 DUP2 PUSH2 0x2016 SWAP2 SWAP1 PUSH2 0x2EEB JUMP JUMPDEST POP PUSH1 0x3 DUP3 ADD PUSH1 0x0 SWAP1 SLOAD SWAP1 PUSH2 0x100 EXP SWAP1 DIV PUSH20 0xFFFFFFFFFFFFFFFFFFFFFFFFFFFFFFFFFFFFFFFF AND DUP2 PUSH1 0x3 ADD PUSH1 0x0 PUSH2 0x100 EXP DUP2 SLOAD DUP2 PUSH20 0xFFFFFFFFFFFFFFFFFFFFFFFFFFFFFFFFFFFFFFFF MUL NOT AND SWAP1 DUP4 PUSH20 0xFFFFFFFFFFFFFFFFFFFFFFFFFFFFFFFFFFFFFFFF AND MUL OR SWAP1 SSTORE POP PUSH1 0x4 DUP3 ADD SLOAD DUP2 PUSH1 0x4 ADD SSTORE PUSH1 0x5 DUP3 ADD DUP2 PUSH1 0x5 ADD SWAP1 DUP1 SLOAD PUSH2 0x209E SWAP3 SWAP2 SWAP1 PUSH2 0x2140 JUMP JUMPDEST POP SWAP1 POP POP PUSH1 0x8 DUP1 SLOAD DUP1 PUSH2 0x20B4 JUMPI PUSH2 0x20B3 PUSH2 0x3163 JUMP JUMPDEST JUMPDEST PUSH1 0x1 SWAP1 SUB DUP2 DUP2 SWAP1 PUSH1 0x0 MSTORE PUSH1 0x20 PUSH1 0x0 KECCAK256 SWAP1 PUSH1 0x6 MUL ADD PUSH1 0x0 DUP1 DUP3 ADD PUSH1 0x0 PUSH2 0x20D9 SWAP2 SWAP1 PUSH2 0x21E9 JUMP JUMPDEST PUSH1 0x1 DUP3 ADD PUSH1 0x0 PUSH2 0x20E9 SWAP2 SWAP1 PUSH2 0x21E9 JUMP JUMPDEST PUSH1 0x2 DUP3 ADD PUSH1 0x0 PUSH2 0x20F9 SWAP2 SWAP1 PUSH2 0x21E9 JUMP JUMPDEST PUSH1 0x3 DUP3 ADD PUSH1 0x0 PUSH2 0x100 EXP DUP2 SLOAD SWAP1 PUSH20 0xFFFFFFFFFFFFFFFFFFFFFFFFFFFFFFFFFFFFFFFF MUL NOT AND SWAP1 SSTORE PUSH1 0x4 DUP3 ADD PUSH1 0x0 SWAP1 SSTORE PUSH1 0x5 DUP3 ADD PUSH1 0x0 PUSH2 0x2138 SWAP2 SWAP1 PUSH2 0x2229 JUMP JUMPDEST POP POP SWAP1 SSTORE POP POP JUMP JUMPDEST DUP3 DUP1 SLOAD DUP3 DUP3 SSTORE SWAP1 PUSH1 0x0 MSTORE PUSH1 0x20 PUSH1 0x0 KECCAK256 SWAP1 DUP2 ADD SWAP3 DUP3 ISZERO PUSH2 0x218C JUMPI PUSH1 0x0 MSTORE PUSH1 0x20 PUSH1 0x0 KECCAK256 SWAP2 DUP3 ADD JUMPDEST DUP3 DUP2 GT ISZERO PUSH2 0x218B JUMPI DUP3 DUP3 SWAP1 DUP2 PUSH2 0x217B SWAP2 SWAP1 PUSH2 0x2EEB JUMP JUMPDEST POP SWAP2 PUSH1 0x1 ADD SWAP2 SWAP1 PUSH1 0x1 ADD SWAP1 PUSH2 0x2165 JUMP JUMPDEST JUMPDEST POP SWAP1 POP PUSH2 0x2199 SWAP2 SWAP1 PUSH2 0x224A JUMP JUMPDEST POP SWAP1 JUMP JUMPDEST PUSH1 0x40 MLOAD DUP1 PUSH1 0xC0 ADD PUSH1 0x40 MSTORE DUP1 PUSH1 0x60 DUP2 MSTORE PUSH1 0x20 ADD PUSH1 0x60 DUP2 MSTORE PUSH1 0x20 ADD PUSH1 0x60 DUP2 MSTORE PUSH1 0x20 ADD PUSH1 0x0 PUSH20 0xFFFFFFFFFFFFFFFFFFFFFFFFFFFFFFFFFFFFFFFF AND DUP2 MSTORE PUSH1 0x20 ADD PUSH1 0x0 DUP2 MSTORE PUSH1 0x20 ADD PUSH1 0x60 DUP2 MSTORE POP SWAP1 JUMP JUMPDEST POP DUP1 SLOAD PUSH2 0x21F5 SWAP1 PUSH2 0x2A28 JUMP JUMPDEST PUSH1 0x0 DUP3 SSTORE DUP1 PUSH1 0x1F LT PUSH2 0x2207 JUMPI POP PUSH2 0x2226 JUMP JUMPDEST PUSH1 0x1F ADD PUSH1 0x20 SWAP1 DIV SWAP1 PUSH1 0x0 MSTORE PUSH1 0x20 PUSH1 0x0 KECCAK256 SWAP1 DUP2 ADD SWAP1 PUSH2 0x2225 SWAP2 SWAP1 PUSH2 0x226E JUMP JUMPDEST JUMPDEST POP JUMP JUMPDEST POP DUP1 SLOAD PUSH1 0x0 DUP3 SSTORE SWAP1 PUSH1 0x0 MSTORE PUSH1 0x20 PUSH1 0x0 KECCAK256 SWAP1 DUP2 ADD SWAP1 PUSH2 0x2247 SWAP2 SWAP1 PUSH2 0x224A JUMP JUMPDEST POP JUMP JUMPDEST JUMPDEST DUP1 DUP3 GT ISZERO PUSH2 0x226A JUMPI PUSH1 0x0 DUP2 DUP2 PUSH2 0x2261 SWAP2 SWAP1 PUSH2 0x21E9 JUMP JUMPDEST POP PUSH1 0x1 ADD PUSH2 0x224B JUMP JUMPDEST POP SWAP1 JUMP JUMPDEST JUMPDEST DUP1 DUP3 GT ISZERO PUSH2 0x2287 JUMPI PUSH1 0x0 DUP2 PUSH1 0x0 SWAP1 SSTORE POP PUSH1 0x1 ADD PUSH2 0x226F JUMP JUMPDEST POP SWAP1 JUMP JUMPDEST PUSH1 0x0 PUSH1 0x40 MLOAD SWAP1 POP SWAP1 JUMP JUMPDEST PUSH1 0x0 DUP1 REVERT JUMPDEST PUSH1 0x0 DUP1 REVERT JUMPDEST PUSH1 0x0 PUSH20 0xFFFFFFFFFFFFFFFFFFFFFFFFFFFFFFFFFFFFFFFF DUP3 AND SWAP1 POP SWAP2 SWAP1 POP JUMP JUMPDEST PUSH1 0x0 PUSH2 0x22CA DUP3 PUSH2 0x229F JUMP JUMPDEST SWAP1 POP SWAP2 SWAP1 POP JUMP JUMPDEST PUSH2 0x22DA DUP2 PUSH2 0x22BF JUMP JUMPDEST DUP2 EQ PUSH2 0x22E5 JUMPI PUSH1 0x0 DUP1 REVERT JUMPDEST POP JUMP JUMPDEST PUSH1 0x0 DUP2 CALLDATALOAD SWAP1 POP PUSH2 0x22F7 DUP2 PUSH2 0x22D1 JUMP JUMPDEST SWAP3 SWAP2 POP POP JUMP JUMPDEST PUSH1 0x0 PUSH1 0x20 DUP3 DUP5 SUB SLT ISZERO PUSH2 0x2313 JUMPI PUSH2 0x2312 PUSH2 0x2295 JUMP JUMPDEST JUMPDEST PUSH1 0x0 PUSH2 0x2321 DUP5 DUP3 DUP6 ADD PUSH2 0x22E8 JUMP JUMPDEST SWAP2 POP POP SWAP3 SWAP2 POP POP JUMP JUMPDEST PUSH1 0x0 DUP2 ISZERO ISZERO SWAP1 POP SWAP2 SWAP1 POP JUMP JUMPDEST PUSH2 0x233F DUP2 PUSH2 0x232A JUMP JUMPDEST DUP3 MSTORE POP POP JUMP JUMPDEST PUSH1 0x0 PUSH1 0x20 DUP3 ADD SWAP1 POP PUSH2 0x235A PUSH1 0x0 DUP4 ADD DUP5 PUSH2 0x2336 JUMP JUMPDEST SWAP3 SWAP2 POP POP JUMP JUMPDEST PUSH1 0x0 DUP1 REVERT JUMPDEST PUSH1 0x0 DUP1 REVERT JUMPDEST PUSH1 0x0 PUSH1 0x1F NOT PUSH1 0x1F DUP4 ADD AND SWAP1 POP SWAP2 SWAP1 POP JUMP JUMPDEST PUSH32 0x4E487B7100000000000000000000000000000000000000000000000000000000 PUSH1 0x0 MSTORE PUSH1 0x41 PUSH1 0x4 MSTORE PUSH1 0x24 PUSH1 0x0 REVERT JUMPDEST PUSH2 0x23B3 DUP3 PUSH2 0x236A JUMP JUMPDEST DUP2 ADD DUP2 DUP2 LT PUSH8 0xFFFFFFFFFFFFFFFF DUP3 GT OR ISZERO PUSH2 0x23D2 JUMPI PUSH2 0x23D1 PUSH2 0x237B JUMP JUMPDEST JUMPDEST DUP1 PUSH1 0x40 MSTORE POP POP POP JUMP JUMPDEST PUSH1 0x0 PUSH2 0x23E5 PUSH2 0x228B JUMP JUMPDEST SWAP1 POP PUSH2 0x23F1 DUP3 DUP3 PUSH2 0x23AA JUMP JUMPDEST SWAP2 SWAP1 POP JUMP JUMPDEST PUSH1 0x0 PUSH8 0xFFFFFFFFFFFFFFFF DUP3 GT ISZERO PUSH2 0x2411 JUMPI PUSH2 0x2410 PUSH2 0x237B JUMP JUMPDEST JUMPDEST PUSH2 0x241A DUP3 PUSH2 0x236A JUMP JUMPDEST SWAP1 POP PUSH1 0x20 DUP2 ADD SWAP1 POP SWAP2 SWAP1 POP JUMP JUMPDEST DUP3 DUP2 DUP4 CALLDATACOPY PUSH1 0x0 DUP4 DUP4 ADD MSTORE POP POP POP JUMP JUMPDEST PUSH1 0x0 PUSH2 0x2449 PUSH2 0x2444 DUP5 PUSH2 0x23F6 JUMP JUMPDEST PUSH2 0x23DB JUMP JUMPDEST SWAP1 POP DUP3 DUP2 MSTORE PUSH1 0x20 DUP2 ADD DUP5 DUP5 DUP5 ADD GT ISZERO PUSH2 0x2465 JUMPI PUSH2 0x2464 PUSH2 0x2365 JUMP JUMPDEST JUMPDEST PUSH2 0x2470 DUP5 DUP3 DUP6 PUSH2 0x2427 JUMP JUMPDEST POP SWAP4 SWAP3 POP POP POP JUMP JUMPDEST PUSH1 0x0 DUP3 PUSH1 0x1F DUP4 ADD SLT PUSH2 0x248D JUMPI PUSH2 0x248C PUSH2 0x2360 JUMP JUMPDEST JUMPDEST DUP2 CALLDATALOAD PUSH2 0x249D DUP5 DUP3 PUSH1 0x20 DUP7 ADD PUSH2 0x2436 JUMP JUMPDEST SWAP2 POP POP SWAP3 SWAP2 POP POP JUMP JUMPDEST PUSH2 0x24AF DUP2 PUSH2 0x232A JUMP JUMPDEST DUP2 EQ PUSH2 0x24BA JUMPI PUSH1 0x0 DUP1 REVERT JUMPDEST POP JUMP JUMPDEST PUSH1 0x0 DUP2 CALLDATALOAD SWAP1 POP PUSH2 0x24CC DUP2 PUSH2 0x24A6 JUMP JUMPDEST SWAP3 SWAP2 POP POP JUMP JUMPDEST PUSH1 0x0 DUP1 PUSH1 0x0 DUP1 PUSH1 0x0 PUSH1 0xA0 DUP7 DUP9 SUB SLT ISZERO PUSH2 0x24EE JUMPI PUSH2 0x24ED PUSH2 0x2295 JUMP JUMPDEST JUMPDEST PUSH1 0x0 DUP7 ADD CALLDATALOAD PUSH8 0xFFFFFFFFFFFFFFFF DUP2 GT ISZERO PUSH2 0x250C JUMPI PUSH2 0x250B PUSH2 0x229A JUMP JUMPDEST JUMPDEST PUSH2 0x2518 DUP9 DUP3 DUP10 ADD PUSH2 0x2478 JUMP JUMPDEST SWAP6 POP POP PUSH1 0x20 DUP7 ADD CALLDATALOAD PUSH8 0xFFFFFFFFFFFFFFFF DUP2 GT ISZERO PUSH2 0x2539 JUMPI PUSH2 0x2538 PUSH2 0x229A JUMP JUMPDEST JUMPDEST PUSH2 0x2545 DUP9 DUP3 DUP10 ADD PUSH2 0x2478 JUMP JUMPDEST SWAP5 POP POP PUSH1 0x40 DUP7 ADD CALLDATALOAD PUSH8 0xFFFFFFFFFFFFFFFF DUP2 GT ISZERO PUSH2 0x2566 JUMPI PUSH2 0x2565 PUSH2 0x229A JUMP JUMPDEST JUMPDEST PUSH2 0x2572 DUP9 DUP3 DUP10 ADD PUSH2 0x2478 JUMP JUMPDEST SWAP4 POP POP PUSH1 0x60 PUSH2 0x2583 DUP9 DUP3 DUP10 ADD PUSH2 0x22E8 JUMP JUMPDEST SWAP3 POP POP PUSH1 0x80 PUSH2 0x2594 DUP9 DUP3 DUP10 ADD PUSH2 0x24BD JUMP JUMPDEST SWAP2 POP POP SWAP3 SWAP6 POP SWAP3 SWAP6 SWAP1 SWAP4 POP JUMP JUMPDEST PUSH1 0x0 DUP1 PUSH1 0x40 DUP4 DUP6 SUB SLT ISZERO PUSH2 0x25B8 JUMPI PUSH2 0x25B7 PUSH2 0x2295 JUMP JUMPDEST JUMPDEST PUSH1 0x0 PUSH2 0x25C6 DUP6 DUP3 DUP7 ADD PUSH2 0x22E8 JUMP JUMPDEST SWAP3 POP POP PUSH1 0x20 PUSH2 0x25D7 DUP6 DUP3 DUP7 ADD PUSH2 0x24BD JUMP JUMPDEST SWAP2 POP POP SWAP3 POP SWAP3 SWAP1 POP JUMP JUMPDEST PUSH1 0x0 DUP2 MLOAD SWAP1 POP SWAP2 SWAP1 POP JUMP JUMPDEST PUSH1 0x0 DUP3 DUP3 MSTORE PUSH1 0x20 DUP3 ADD SWAP1 POP SWAP3 SWAP2 POP POP JUMP JUMPDEST PUSH1 0x0 JUMPDEST DUP4 DUP2 LT ISZERO PUSH2 0x261B JUMPI DUP1 DUP3 ADD MLOAD DUP2 DUP5 ADD MSTORE PUSH1 0x20 DUP2 ADD SWAP1 POP PUSH2 0x2600 JUMP JUMPDEST PUSH1 0x0 DUP5 DUP5 ADD MSTORE POP POP POP POP JUMP JUMPDEST PUSH1 0x0 PUSH2 0x2632 DUP3 PUSH2 0x25E1 JUMP JUMPDEST PUSH2 0x263C DUP2 DUP6 PUSH2 0x25EC JUMP JUMPDEST SWAP4 POP PUSH2 0x264C DUP2 DUP6 PUSH1 0x20 DUP7 ADD PUSH2 0x25FD JUMP JUMPDEST PUSH2 0x2655 DUP2 PUSH2 0x236A JUMP JUMPDEST DUP5 ADD SWAP2 POP POP SWAP3 SWAP2 POP POP JUMP JUMPDEST PUSH2 0x2669 DUP2 PUSH2 0x22BF JUMP JUMPDEST DUP3 MSTORE POP POP JUMP JUMPDEST PUSH1 0x0 DUP2 SWAP1 POP SWAP2 SWAP1 POP JUMP JUMPDEST PUSH2 0x2682 DUP2 PUSH2 0x266F JUMP JUMPDEST DUP3 MSTORE POP POP JUMP JUMPDEST PUSH1 0x0 DUP2 MLOAD SWAP1 POP SWAP2 SWAP1 POP JUMP JUMPDEST PUSH1 0x0 DUP3 DUP3 MSTORE PUSH1 0x20 DUP3 ADD SWAP1 POP SWAP3 SWAP2 POP POP JUMP JUMPDEST PUSH1 0x0 DUP2 SWAP1 POP PUSH1 0x20 DUP3 ADD SWAP1 POP SWAP2 SWAP1 POP JUMP JUMPDEST PUSH1 0x0 PUSH2 0x26C0 DUP4 DUP4 PUSH2 0x2627 JUMP JUMPDEST SWAP1 POP SWAP3 SWAP2 POP POP JUMP JUMPDEST PUSH1 0x0 PUSH1 0x20 DUP3 ADD SWAP1 POP SWAP2 SWAP1 POP JUMP JUMPDEST PUSH1 0x0 PUSH2 0x26E0 DUP3 PUSH2 0x2688 JUMP JUMPDEST PUSH2 0x26EA DUP2 DUP6 PUSH2 0x2693 JUMP JUMPDEST SWAP4 POP DUP4 PUSH1 0x20 DUP3 MUL DUP6 ADD PUSH2 0x26FC DUP6 PUSH2 0x26A4 JUMP JUMPDEST DUP1 PUSH1 0x0 JUMPDEST DUP6 DUP2 LT ISZERO PUSH2 0x2738 JUMPI DUP5 DUP5 SUB DUP10 MSTORE DUP2 MLOAD PUSH2 0x2719 DUP6 DUP3 PUSH2 0x26B4 JUMP JUMPDEST SWAP5 POP PUSH2 0x2724 DUP4 PUSH2 0x26C8 JUMP JUMPDEST SWAP3 POP PUSH1 0x20 DUP11 ADD SWAP10 POP POP PUSH1 0x1 DUP2 ADD SWAP1 POP PUSH2 0x2700 JUMP JUMPDEST POP DUP3 SWAP8 POP DUP8 SWAP6 POP POP POP POP POP POP SWAP3 SWAP2 POP POP JUMP JUMPDEST PUSH1 0x0 PUSH1 0xC0 DUP4 ADD PUSH1 0x0 DUP4 ADD MLOAD DUP5 DUP3 SUB PUSH1 0x0 DUP7 ADD MSTORE PUSH2 0x2767 DUP3 DUP3 PUSH2 0x2627 JUMP JUMPDEST SWAP2 POP POP PUSH1 0x20 DUP4 ADD MLOAD DUP5 DUP3 SUB PUSH1 0x20 DUP7 ADD MSTORE PUSH2 0x2781 DUP3 DUP3 PUSH2 0x2627 JUMP JUMPDEST SWAP2 POP POP PUSH1 0x40 DUP4 ADD MLOAD DUP5 DUP3 SUB PUSH1 0x40 DUP7 ADD MSTORE PUSH2 0x279B DUP3 DUP3 PUSH2 0x2627 JUMP JUMPDEST SWAP2 POP POP PUSH1 0x60 DUP4 ADD MLOAD PUSH2 0x27B0 PUSH1 0x60 DUP7 ADD DUP3 PUSH2 0x2660 JUMP JUMPDEST POP PUSH1 0x80 DUP4 ADD MLOAD PUSH2 0x27C3 PUSH1 0x80 DUP7 ADD DUP3 PUSH2 0x2679 JUMP JUMPDEST POP PUSH1 0xA0 DUP4 ADD MLOAD DUP5 DUP3 SUB PUSH1 0xA0 DUP7 ADD MSTORE PUSH2 0x27DB DUP3 DUP3 PUSH2 0x26D5 JUMP JUMPDEST SWAP2 POP POP DUP1 SWAP2 POP POP SWAP3 SWAP2 POP POP JUMP JUMPDEST PUSH1 0x0 PUSH1 0x20 DUP3 ADD SWAP1 POP DUP2 DUP2 SUB PUSH1 0x0 DUP4 ADD MSTORE PUSH2 0x2802 DUP2 DUP5 PUSH2 0x274A JUMP JUMPDEST SWAP1 POP SWAP3 SWAP2 POP POP JUMP JUMPDEST PUSH1 0x0 DUP1 PUSH1 0x40 DUP4 DUP6 SUB SLT ISZERO PUSH2 0x2821 JUMPI PUSH2 0x2820 PUSH2 0x2295 JUMP JUMPDEST JUMPDEST PUSH1 0x0 PUSH2 0x282F DUP6 DUP3 DUP7 ADD PUSH2 0x22E8 JUMP JUMPDEST SWAP3 POP POP PUSH1 0x20 PUSH2 0x2840 DUP6 DUP3 DUP7 ADD PUSH2 0x22E8 JUMP JUMPDEST SWAP2 POP POP SWAP3 POP SWAP3 SWAP1 POP JUMP JUMPDEST PUSH1 0x0 PUSH1 0x20 DUP3 DUP5 SUB SLT ISZERO PUSH2 0x2860 JUMPI PUSH2 0x285F PUSH2 0x2295 JUMP JUMPDEST JUMPDEST PUSH1 0x0 PUSH2 0x286E DUP5 DUP3 DUP6 ADD PUSH2 0x24BD JUMP JUMPDEST SWAP2 POP POP SWAP3 SWAP2 POP POP JUMP JUMPDEST PUSH1 0x0 DUP2 MLOAD SWAP1 POP SWAP2 SWAP1 POP JUMP JUMPDEST PUSH1 0x0 DUP3 DUP3 MSTORE PUSH1 0x20 DUP3 ADD SWAP1 POP SWAP3 SWAP2 POP POP JUMP JUMPDEST PUSH1 0x0 DUP2 SWAP1 POP PUSH1 0x20 DUP3 ADD SWAP1 POP SWAP2 SWAP1 POP JUMP JUMPDEST PUSH1 0x0 PUSH1 0xC0 DUP4 ADD PUSH1 0x0 DUP4 ADD MLOAD DUP5 DUP3 SUB PUSH1 0x0 DUP7 ADD MSTORE PUSH2 0x28C0 DUP3 DUP3 PUSH2 0x2627 JUMP JUMPDEST SWAP2 POP POP PUSH1 0x20 DUP4 ADD MLOAD DUP5 DUP3 SUB PUSH1 0x20 DUP7 ADD MSTORE PUSH2 0x28DA DUP3 DUP3 PUSH2 0x2627 JUMP JUMPDEST SWAP2 POP POP PUSH1 0x40 DUP4 ADD MLOAD DUP5 DUP3 SUB PUSH1 0x40 DUP7 ADD MSTORE PUSH2 0x28F4 DUP3 DUP3 PUSH2 0x2627 JUMP JUMPDEST SWAP2 POP POP PUSH1 0x60 DUP4 ADD MLOAD PUSH2 0x2909 PUSH1 0x60 DUP7 ADD DUP3 PUSH2 0x2660 JUMP JUMPDEST POP PUSH1 0x80 DUP4 ADD MLOAD PUSH2 0x291C PUSH1 0x80 DUP7 ADD DUP3 PUSH2 0x2679 JUMP JUMPDEST POP PUSH1 0xA0 DUP4 ADD MLOAD DUP5 DUP3 SUB PUSH1 0xA0 DUP7 ADD MSTORE PUSH2 0x2934 DUP3 DUP3 PUSH2 0x26D5 JUMP JUMPDEST SWAP2 POP POP DUP1 SWAP2 POP POP SWAP3 SWAP2 POP POP JUMP JUMPDEST PUSH1 0x0 PUSH2 0x294D DUP4 DUP4 PUSH2 0x28A3 JUMP JUMPDEST SWAP1 POP SWAP3 SWAP2 POP POP JUMP JUMPDEST PUSH1 0x0 PUSH1 0x20 DUP3 ADD SWAP1 POP SWAP2 SWAP1 POP JUMP JUMPDEST PUSH1 0x0 PUSH2 0x296D DUP3 PUSH2 0x2877 JUMP JUMPDEST PUSH2 0x2977 DUP2 DUP6 PUSH2 0x2882 JUMP JUMPDEST SWAP4 POP DUP4 PUSH1 0x20 DUP3 MUL DUP6 ADD PUSH2 0x2989 DUP6 PUSH2 0x2893 JUMP JUMPDEST DUP1 PUSH1 0x0 JUMPDEST DUP6 DUP2 LT ISZERO PUSH2 0x29C5 JUMPI DUP5 DUP5 SUB DUP10 MSTORE DUP2 MLOAD PUSH2 0x29A6 DUP6 DUP3 PUSH2 0x2941 JUMP JUMPDEST SWAP5 POP PUSH2 0x29B1 DUP4 PUSH2 0x2955 JUMP JUMPDEST SWAP3 POP PUSH1 0x20 DUP11 ADD SWAP10 POP POP PUSH1 0x1 DUP2 ADD SWAP1 POP PUSH2 0x298D JUMP JUMPDEST POP DUP3 SWAP8 POP DUP8 SWAP6 POP POP POP POP POP POP SWAP3 SWAP2 POP POP JUMP JUMPDEST PUSH1 0x0 PUSH1 0x20 DUP3 ADD SWAP1 POP DUP2 DUP2 SUB PUSH1 0x0 DUP4 ADD MSTORE PUSH2 0x29F1 DUP2 DUP5 PUSH2 0x2962 JUMP JUMPDEST SWAP1 POP SWAP3 SWAP2 POP POP JUMP JUMPDEST PUSH32 0x4E487B7100000000000000000000000000000000000000000000000000000000 PUSH1 0x0 MSTORE PUSH1 0x22 PUSH1 0x4 MSTORE PUSH1 0x24 PUSH1 0x0 REVERT JUMPDEST PUSH1 0x0 PUSH1 0x2 DUP3 DIV SWAP1 POP PUSH1 0x1 DUP3 AND DUP1 PUSH2 0x2A40 JUMPI PUSH1 0x7F DUP3 AND SWAP2 POP JUMPDEST PUSH1 0x20 DUP3 LT DUP2 SUB PUSH2 0x2A53 JUMPI PUSH2 0x2A52 PUSH2 0x29F9 JUMP JUMPDEST JUMPDEST POP SWAP2 SWAP1 POP JUMP JUMPDEST PUSH1 0x0 DUP2 SWAP1 POP DUP2 PUSH1 0x0 MSTORE PUSH1 0x20 PUSH1 0x0 KECCAK256 SWAP1 POP SWAP2 SWAP1 POP JUMP JUMPDEST PUSH1 0x0 PUSH1 0x20 PUSH1 0x1F DUP4 ADD DIV SWAP1 POP SWAP2 SWAP1 POP JUMP JUMPDEST PUSH1 0x0 DUP3 DUP3 SHL SWAP1 POP SWAP3 SWAP2 POP POP JUMP JUMPDEST PUSH1 0x0 PUSH1 0x8 DUP4 MUL PUSH2 0x2ABB PUSH32 0xFFFFFFFFFFFFFFFFFFFFFFFFFFFFFFFFFFFFFFFFFFFFFFFFFFFFFFFFFFFFFFFF DUP3 PUSH2 0x2A7E JUMP JUMPDEST PUSH2 0x2AC5 DUP7 DUP4 PUSH2 0x2A7E JUMP JUMPDEST SWAP6 POP DUP1 NOT DUP5 AND SWAP4 POP DUP1 DUP7 AND DUP5 OR SWAP3 POP POP POP SWAP4 SWAP3 POP POP POP JUMP JUMPDEST PUSH1 0x0 DUP2 SWAP1 POP SWAP2 SWAP1 POP JUMP JUMPDEST PUSH1 0x0 PUSH2 0x2B02 PUSH2 0x2AFD PUSH2 0x2AF8 DUP5 PUSH2 0x266F JUMP JUMPDEST PUSH2 0x2ADD JUMP JUMPDEST PUSH2 0x266F JUMP JUMPDEST SWAP1 POP SWAP2 SWAP1 POP JUMP JUMPDEST PUSH1 0x0 DUP2 SWAP1 POP SWAP2 SWAP1 POP JUMP JUMPDEST PUSH2 0x2B1C DUP4 PUSH2 0x2AE7 JUMP JUMPDEST PUSH2 0x2B30 PUSH2 0x2B28 DUP3 PUSH2 0x2B09 JUMP JUMPDEST DUP5 DUP5 SLOAD PUSH2 0x2A8B JUMP JUMPDEST DUP3 SSTORE POP POP POP POP JUMP JUMPDEST PUSH1 0x0 SWAP1 JUMP JUMPDEST PUSH2 0x2B45 PUSH2 0x2B38 JUMP JUMPDEST PUSH2 0x2B50 DUP2 DUP5 DUP5 PUSH2 0x2B13 JUMP JUMPDEST POP POP POP JUMP JUMPDEST JUMPDEST DUP2 DUP2 LT ISZERO PUSH2 0x2B74 JUMPI PUSH2 0x2B69 PUSH1 0x0 DUP3 PUSH2 0x2B3D JUMP JUMPDEST PUSH1 0x1 DUP2 ADD SWAP1 POP PUSH2 0x2B56 JUMP JUMPDEST POP POP JUMP JUMPDEST PUSH1 0x1F DUP3 GT ISZERO PUSH2 0x2BB9 JUMPI PUSH2 0x2B8A DUP2 PUSH2 0x2A59 JUMP JUMPDEST PUSH2 0x2B93 DUP5 PUSH2 0x2A6E JUMP JUMPDEST DUP2 ADD PUSH1 0x20 DUP6 LT ISZERO PUSH2 0x2BA2 JUMPI DUP2 SWAP1 POP JUMPDEST PUSH2 0x2BB6 PUSH2 0x2BAE DUP6 PUSH2 0x2A6E JUMP JUMPDEST DUP4 ADD DUP3 PUSH2 0x2B55 JUMP JUMPDEST POP POP JUMPDEST POP POP POP JUMP JUMPDEST PUSH1 0x0 DUP3 DUP3 SHR SWAP1 POP SWAP3 SWAP2 POP POP JUMP JUMPDEST PUSH1 0x0 PUSH2 0x2BDC PUSH1 0x0 NOT DUP5 PUSH1 0x8 MUL PUSH2 0x2BBE JUMP JUMPDEST NOT DUP1 DUP4 AND SWAP2 POP POP SWAP3 SWAP2 POP POP JUMP JUMPDEST PUSH1 0x0 PUSH2 0x2BF5 DUP4 DUP4 PUSH2 0x2BCB JUMP JUMPDEST SWAP2 POP DUP3 PUSH1 0x2 MUL DUP3 OR SWAP1 POP SWAP3 SWAP2 POP POP JUMP JUMPDEST PUSH2 0x2C0E DUP3 PUSH2 0x25E1 JUMP JUMPDEST PUSH8 0xFFFFFFFFFFFFFFFF DUP2 GT ISZERO PUSH2 0x2C27 JUMPI PUSH2 0x2C26 PUSH2 0x237B JUMP JUMPDEST JUMPDEST PUSH2 0x2C31 DUP3 SLOAD PUSH2 0x2A28 JUMP JUMPDEST PUSH2 0x2C3C DUP3 DUP3 DUP6 PUSH2 0x2B78 JUMP JUMPDEST PUSH1 0x0 PUSH1 0x20 SWAP1 POP PUSH1 0x1F DUP4 GT PUSH1 0x1 DUP2 EQ PUSH2 0x2C6F JUMPI PUSH1 0x0 DUP5 ISZERO PUSH2 0x2C5D JUMPI DUP3 DUP8 ADD MLOAD SWAP1 POP JUMPDEST PUSH2 0x2C67 DUP6 DUP3 PUSH2 0x2BE9 JUMP JUMPDEST DUP7 SSTORE POP PUSH2 0x2CCF JUMP JUMPDEST PUSH1 0x1F NOT DUP5 AND PUSH2 0x2C7D DUP7 PUSH2 0x2A59 JUMP JUMPDEST PUSH1 0x0 JUMPDEST DUP3 DUP2 LT ISZERO PUSH2 0x2CA5 JUMPI DUP5 DUP10 ADD MLOAD DUP3 SSTORE PUSH1 0x1 DUP3 ADD SWAP2 POP PUSH1 0x20 DUP6 ADD SWAP5 POP PUSH1 0x20 DUP2 ADD SWAP1 POP PUSH2 0x2C80 JUMP JUMPDEST DUP7 DUP4 LT ISZERO PUSH2 0x2CC2 JUMPI DUP5 DUP10 ADD MLOAD PUSH2 0x2CBE PUSH1 0x1F DUP10 AND DUP3 PUSH2 0x2BCB JUMP JUMPDEST DUP4 SSTORE POP JUMPDEST PUSH1 0x1 PUSH1 0x2 DUP9 MUL ADD DUP9 SSTORE POP POP POP JUMPDEST POP POP POP POP POP POP JUMP JUMPDEST PUSH1 0x0 DUP2 SWAP1 POP SWAP3 SWAP2 POP POP JUMP JUMPDEST PUSH32 0x4445414E00000000000000000000000000000000000000000000000000000000 PUSH1 0x0 DUP3 ADD MSTORE POP JUMP JUMPDEST PUSH1 0x0 PUSH2 0x2D18 PUSH1 0x4 DUP4 PUSH2 0x2CD7 JUMP JUMPDEST SWAP2 POP PUSH2 0x2D23 DUP3 PUSH2 0x2CE2 JUMP JUMPDEST PUSH1 0x4 DUP3 ADD SWAP1 POP SWAP2 SWAP1 POP JUMP JUMPDEST PUSH1 0x0 PUSH2 0x2D39 DUP3 PUSH2 0x2D0B JUMP JUMPDEST SWAP2 POP DUP2 SWAP1 POP SWAP2 SWAP1 POP JUMP JUMPDEST PUSH1 0x0 PUSH2 0x2D4E DUP3 PUSH2 0x25E1 JUMP JUMPDEST PUSH2 0x2D58 DUP2 DUP6 PUSH2 0x2CD7 JUMP JUMPDEST SWAP4 POP PUSH2 0x2D68 DUP2 DUP6 PUSH1 0x20 DUP7 ADD PUSH2 0x25FD JUMP JUMPDEST DUP1 DUP5 ADD SWAP2 POP POP SWAP3 SWAP2 POP POP JUMP JUMPDEST PUSH1 0x0 PUSH2 0x2D80 DUP3 DUP5 PUSH2 0x2D43 JUMP JUMPDEST SWAP2 POP DUP2 SWAP1 POP SWAP3 SWAP2 POP POP JUMP JUMPDEST PUSH32 0x484F440000000000000000000000000000000000000000000000000000000000 PUSH1 0x0 DUP3 ADD MSTORE POP JUMP JUMPDEST PUSH1 0x0 PUSH2 0x2DC1 PUSH1 0x3 DUP4 PUSH2 0x2CD7 JUMP JUMPDEST SWAP2 POP PUSH2 0x2DCC DUP3 PUSH2 0x2D8B JUMP JUMPDEST PUSH1 0x3 DUP3 ADD SWAP1 POP SWAP2 SWAP1 POP JUMP JUMPDEST PUSH1 0x0 PUSH2 0x2DE2 DUP3 PUSH2 0x2DB4 JUMP JUMPDEST SWAP2 POP DUP2 SWAP1 POP SWAP2 SWAP1 POP JUMP JUMPDEST PUSH1 0x0 DUP3 DUP3 MSTORE PUSH1 0x20 DUP3 ADD SWAP1 POP SWAP3 SWAP2 POP POP JUMP JUMPDEST PUSH32 0x4D656D6265722052657175657374656400000000000000000000000000000000 PUSH1 0x0 DUP3 ADD MSTORE POP JUMP JUMPDEST PUSH1 0x0 PUSH2 0x2E33 PUSH1 0x10 DUP4 PUSH2 0x2DEC JUMP JUMPDEST SWAP2 POP PUSH2 0x2E3E DUP3 PUSH2 0x2DFD JUMP JUMPDEST PUSH1 0x20 DUP3 ADD SWAP1 POP SWAP2 SWAP1 POP JUMP JUMPDEST PUSH1 0x0 PUSH1 0x20 DUP3 ADD SWAP1 POP DUP2 DUP2 SUB PUSH1 0x0 DUP4 ADD MSTORE PUSH2 0x2E62 DUP2 PUSH2 0x2E26 JUMP JUMPDEST SWAP1 POP SWAP2 SWAP1 POP JUMP JUMPDEST PUSH32 0x4D656D6265722045786973740000000000000000000000000000000000000000 PUSH1 0x0 DUP3 ADD MSTORE POP JUMP JUMPDEST PUSH1 0x0 PUSH2 0x2E9F PUSH1 0xC DUP4 PUSH2 0x2DEC JUMP JUMPDEST SWAP2 POP PUSH2 0x2EAA DUP3 PUSH2 0x2E69 JUMP JUMPDEST PUSH1 0x20 DUP3 ADD SWAP1 POP SWAP2 SWAP1 POP JUMP JUMPDEST PUSH1 0x0 PUSH1 0x20 DUP3 ADD SWAP1 POP DUP2 DUP2 SUB PUSH1 0x0 DUP4 ADD MSTORE PUSH2 0x2ECE DUP2 PUSH2 0x2E92 JUMP JUMPDEST SWAP1 POP SWAP2 SWAP1 POP JUMP JUMPDEST PUSH1 0x0 DUP2 SLOAD SWAP1 POP PUSH2 0x2EE4 DUP2 PUSH2 0x2A28 JUMP JUMPDEST SWAP1 POP SWAP2 SWAP1 POP JUMP JUMPDEST DUP2 DUP2 SUB PUSH2 0x2EF9 JUMPI POP POP PUSH2 0x2FD1 JUMP JUMPDEST PUSH2 0x2F02 DUP3 PUSH2 0x2ED5 JUMP JUMPDEST PUSH8 0xFFFFFFFFFFFFFFFF DUP2 GT ISZERO PUSH2 0x2F1B JUMPI PUSH2 0x2F1A PUSH2 0x237B JUMP JUMPDEST JUMPDEST PUSH2 0x2F25 DUP3 SLOAD PUSH2 0x2A28 JUMP JUMPDEST PUSH2 0x2F30 DUP3 DUP3 DUP6 PUSH2 0x2B78 JUMP JUMPDEST PUSH1 0x0 PUSH1 0x1F DUP4 GT PUSH1 0x1 DUP2 EQ PUSH2 0x2F5F JUMPI PUSH1 0x0 DUP5 ISZERO PUSH2 0x2F4D JUMPI DUP3 DUP8 ADD SLOAD SWAP1 POP JUMPDEST PUSH2 0x2F57 DUP6 DUP3 PUSH2 0x2BE9 JUMP JUMPDEST DUP7 SSTORE POP PUSH2 0x2FCA JUMP JUMPDEST PUSH1 0x1F NOT DUP5 AND PUSH2 0x2F6D DUP8 PUSH2 0x2A59 JUMP JUMPDEST SWAP7 POP PUSH2 0x2F78 DUP7 PUSH2 0x2A59 JUMP JUMPDEST PUSH1 0x0 JUMPDEST DUP3 DUP2 LT ISZERO PUSH2 0x2FA0 JUMPI DUP5 DUP10 ADD SLOAD DUP3 SSTORE PUSH1 0x1 DUP3 ADD SWAP2 POP PUSH1 0x1 DUP6 ADD SWAP5 POP PUSH1 0x20 DUP2 ADD SWAP1 POP PUSH2 0x2F7B JUMP JUMPDEST DUP7 DUP4 LT ISZERO PUSH2 0x2FBD JUMPI DUP5 DUP10 ADD SLOAD PUSH2 0x2FB9 PUSH1 0x1F DUP10 AND DUP3 PUSH2 0x2BCB JUMP JUMPDEST DUP4 SSTORE POP JUMPDEST PUSH1 0x1 PUSH1 0x2 DUP9 MUL ADD DUP9 SSTORE POP POP POP JUMPDEST POP POP POP POP POP POP JUMPDEST JUMP JUMPDEST PUSH32 0x596F75206E65656420746F205265717565737420466972737400000000000000 PUSH1 0x0 DUP3 ADD MSTORE POP JUMP JUMPDEST PUSH1 0x0 PUSH2 0x3009 PUSH1 0x19 DUP4 PUSH2 0x2DEC JUMP JUMPDEST SWAP2 POP PUSH2 0x3014 DUP3 PUSH2 0x2FD3 JUMP JUMPDEST PUSH1 0x20 DUP3 ADD SWAP1 POP SWAP2 SWAP1 POP JUMP JUMPDEST PUSH1 0x0 PUSH1 0x20 DUP3 ADD SWAP1 POP DUP2 DUP2 SUB PUSH1 0x0 DUP4 ADD MSTORE PUSH2 0x3038 DUP2 PUSH2 0x2FFC JUMP JUMPDEST SWAP1 POP SWAP2 SWAP1 POP JUMP JUMPDEST PUSH32 0x596F752063616E277420617070726F6F766520736F6D656F6E652061626F7665 PUSH1 0x0 DUP3 ADD MSTORE PUSH32 0x207468616E20796F752E00000000000000000000000000000000000000000000 PUSH1 0x20 DUP3 ADD MSTORE POP JUMP JUMPDEST PUSH1 0x0 PUSH2 0x309B PUSH1 0x2A DUP4 PUSH2 0x2DEC JUMP JUMPDEST SWAP2 POP PUSH2 0x30A6 DUP3 PUSH2 0x303F JUMP JUMPDEST PUSH1 0x40 DUP3 ADD SWAP1 POP SWAP2 SWAP1 POP JUMP JUMPDEST PUSH1 0x0 PUSH1 0x20 DUP3 ADD SWAP1 POP DUP2 DUP2 SUB PUSH1 0x0 DUP4 ADD MSTORE PUSH2 0x30CA DUP2 PUSH2 0x308E JUMP JUMPDEST SWAP1 POP SWAP2 SWAP1 POP JUMP JUMPDEST PUSH32 0x4E487B7100000000000000000000000000000000000000000000000000000000 PUSH1 0x0 MSTORE PUSH1 0x11 PUSH1 0x4 MSTORE PUSH1 0x24 PUSH1 0x0 REVERT JUMPDEST PUSH1 0x0 PUSH2 0x310B DUP3 PUSH2 0x266F JUMP JUMPDEST SWAP2 POP PUSH2 0x3116 DUP4 PUSH2 0x266F JUMP JUMPDEST SWAP3 POP DUP3 DUP3 SUB SWAP1 POP DUP2 DUP2 GT ISZERO PUSH2 0x312E JUMPI PUSH2 0x312D PUSH2 0x30D1 JUMP JUMPDEST JUMPDEST SWAP3 SWAP2 POP POP JUMP JUMPDEST PUSH32 0x4E487B7100000000000000000000000000000000000000000000000000000000 PUSH1 0x0 MSTORE PUSH1 0x32 PUSH1 0x4 MSTORE PUSH1 0x24 PUSH1 0x0 REVERT JUMPDEST PUSH32 0x4E487B7100000000000000000000000000000000000000000000000000000000 PUSH1 0x0 MSTORE PUSH1 0x31 PUSH1 0x4 MSTORE PUSH1 0x24 PUSH1 0x0 REVERT INVALID LOG2 PUSH5 0x6970667358 0x22 SLT KECCAK256 0xEF 0xBD SWAP3 0xCD 0xAA ORIGIN GASPRICE 0xE8 0xE EXTCODESIZE 0xF BASEFEE SHL 0xD9 DUP4 SWAP12 PUSH21 0xDB907C4A2FB66FD9B91C09F49A377064736F6C6343 STOP ADDMOD LT STOP CALLER "},"gasEstimates":{"creation":{"codeDepositCost":"2548800","executionCost":"12767","totalCost":"2561567"},"external":{"addOrRequestMember(string,string,string,address,bool)":"infinite","approoveRequest(address,address)":"infinite","findMember(address,bool)":"infinite","getApprovedOrRequestedMember(bool)":"infinite","login(address)":"2907","recieve()":"142"},"internal":{"removeRequest(address)":"infinite"}},"methodIdentifiers":{"addOrRequestMember(string,string,string,address,bool)":"4cd6f25e","approoveRequest(address,address)":"e070dd12","findMember(address,bool)":"bafa08c1","getApprovedOrRequestedMember(bool)":"e473f6cd","login(address)":"35a6861a","recieve()":"a9e10bf2"}},"storageLayout":{"storage":[{"astId":22,"contract":"Contract.sol:Contract","label":"requestIndex","offset":0,"slot":"0","type":"t_uint256"},{"astId":25,"contract":"Contract.sol:Contract","label":"memberIndex","offset":0,"slot":"1","type":"t_uint256"},{"astId":29,"contract":"Contract.sol:Contract","label":"indexFromRequest","offset":0,"slot":"2","type":"t_mapping(t_address,t_uint256)"},{"astId":33,"contract":"Contract.sol:Contract","label":"indexFromApproove","offset":0,"slot":"3","type":"t_mapping(t_address,t_uint256)"},{"astId":38,"contract":"Contract.sol:Contract","label":"getMemberWithAddress","offset":0,"slot":"4","type":"t_mapping(t_address,t_struct(MemberStruct)19_storage)"},{"astId":42,"contract":"Contract.sol:Contract","label":"arrayOfMembers","offset":0,"slot":"5","type":"t_array(t_struct(MemberStruct)19_storage)dyn_storage"},{"astId":46,"contract":"Contract.sol:Contract","label":"memberExist","offset":0,"slot":"6","type":"t_mapping(t_address,t_bool)"},{"astId":51,"contract":"Contract.sol:Contract","label":"getRequestedMemberWithAddress","offset":0,"slot":"7","type":"t_mapping(t_address,t_struct(MemberStruct)19_storage)"},{"astId":55,"contract":"Contract.sol:Contract","label":"arrayOfRequestedMembers","offset":0,"slot":"8","type":"t_array(t_struct(MemberStruct)19_storage)dyn_storage"},{"astId":59,"contract":"Contract.sol:Contract","label":"memberRequested","offset":0,"slot":"9","type":"t_mapping(t_address,t_bool)"},{"astId":82,"contract":"Contract.sol:Contract","label":"instanceOfMemberStruct","offset":0,"slot":"10","type":"t_struct(MemberStruct)19_storage"}],"types":{"t_address":{"encoding":"inplace","label":"address","numberOfBytes":"20"},"t_array(t_string_storage)dyn_storage":{"base":"t_string_storage","encoding":"dynamic_array","label":"string[]","numberOfBytes":"32"},"t_array(t_struct(MemberStruct)19_storage)dyn_storage":{"base":"t_struct(MemberStruct)19_storage","encoding":"dynamic_array","label":"struct Contract.MemberStruct[]","numberOfBytes":"32"},"t_bool":{"encoding":"inplace","label":"bool","numberOfBytes":"1"},"t_mapping(t_address,t_bool)":{"encoding":"mapping","key":"t_address","label":"mapping(address => bool)","numberOfBytes":"32","value":"t_bool"},"t_mapping(t_address,t_struct(MemberStruct)19_storage)":{"encoding":"mapping","key":"t_address","label":"mapping(address => struct Contract.MemberStruct)","numberOfBytes":"32","value":"t_struct(MemberStruct)19_storage"},"t_mapping(t_address,t_uint256)":{"encoding":"mapping","key":"t_address","label":"mapping(address => uint256)","numberOfBytes":"32","value":"t_uint256"},"t_string_storage":{"encoding":"bytes","label":"string","numberOfBytes":"32"},"t_struct(MemberStruct)19_storage":{"encoding":"inplace","label":"struct Contract.MemberStruct","members":[{"astId":7,"contract":"Contract.sol:Contract","label":"post","offset":0,"slot":"0","type":"t_string_storage"},{"astId":9,"contract":"Contract.sol:Contract","label":"dept","offset":0,"slot":"1","type":"t_string_storage"},{"astId":11,"contract":"Contract.sol:Contract","label":"name","offset":0,"slot":"2","type":"t_string_storage"},{"astId":13,"contract":"Contract.sol:Contract","label":"userAddress","offset":0,"slot":"3","type":"t_address"},{"astId":15,"contract":"Contract.sol:Contract","label":"power","offset":0,"slot":"4","type":"t_uint256"},{"astId":18,"contract":"Contract.sol:Contract","label":"postedNews","offset":0,"slot":"5","type":"t_array(t_string_storage)dyn_storage"}],"numberOfBytes":"192"},"t_uint256":{"encoding":"inplace","label":"uint256","numberOfBytes":"32"}}},"userdoc":{"kind":"user","methods":{},"version":1}}