{"abi":[{"inputs":[{"internalType":"uint256","name":"postIdx","type":"uint256"}],"name":"approvePost","outputs":[],"stateMutability":"nonpayable","type":"function"},{"inputs":[{"internalType":"bool","name":"requestedPosts","type":"bool"}],"name":"getAllPosts","outputs":[{"components":[{"internalType":"string","name":"postHash","type":"string"},{"internalType":"address","name":"postCreator","type":"address"},{"internalType":"address[]","name":"sharedBy","type":"address[]"},{"internalType":"bool","name":"isRequest","type":"bool"},{"internalType":"uint256","name":"time","type":"uint256"},{"internalType":"uint256","name":"blockNumber","type":"uint256"}],"internalType":"struct PostNewsContract.PostStructure[]","name":"","type":"tuple[]"}],"stateMutability":"view","type":"function"},{"inputs":[{"internalType":"address","name":"_userAddress","type":"address"}],"name":"getPostsByUser","outputs":[{"components":[{"internalType":"string","name":"postHash","type":"string"},{"internalType":"address","name":"postCreator","type":"address"},{"internalType":"address[]","name":"sharedBy","type":"address[]"},{"internalType":"bool","name":"isRequest","type":"bool"},{"internalType":"uint256","name":"time","type":"uint256"},{"internalType":"uint256","name":"blockNumber","type":"uint256"}],"internalType":"struct PostNewsContract.PostStructure[]","name":"","type":"tuple[]"}],"stateMutability":"view","type":"function"},{"inputs":[{"internalType":"uint256","name":"postIndex","type":"uint256"}],"name":"getShares","outputs":[{"components":[{"internalType":"string","name":"postHash","type":"string"},{"internalType":"address","name":"postCreator","type":"address"},{"internalType":"address[]","name":"sharedBy","type":"address[]"},{"internalType":"bool","name":"isRequest","type":"bool"},{"internalType":"uint256","name":"time","type":"uint256"},{"internalType":"uint256","name":"blockNumber","type":"uint256"}],"internalType":"struct PostNewsContract.PostStructure","name":"","type":"tuple"}],"stateMutability":"view","type":"function"},{"inputs":[{"internalType":"string","name":"_postHash","type":"string"},{"internalType":"address","name":"_postCreator","type":"address"},{"internalType":"address","name":"_sharedBy","type":"address"},{"internalType":"bool","name":"_isRequest","type":"bool"}],"name":"postNews","outputs":[],"stateMutability":"nonpayable","type":"function"},{"inputs":[{"internalType":"uint256","name":"postIndex","type":"uint256"}],"name":"reshare","outputs":[],"stateMutability":"nonpayable","type":"function"}],"devdoc":{"kind":"dev","methods":{},"version":1},"evm":{"assembly":"    /* \"PostNewsContract.sol\":64:4645  contract PostNewsContract {... */\n  mstore(0x40, 0x80)\n    /* \"PostNewsContract.sol\":1136:1137  0 */\n  0x00\n    /* \"PostNewsContract.sol\":1109:1137  uint256 requestPostIndex = 0 */\n  0x0b\n  sstore\n    /* \"PostNewsContract.sol\":1172:1173  0 */\n  0x00\n    /* \"PostNewsContract.sol\":1144:1173  uint256 approvedPostIndex = 0 */\n  0x0c\n  sstore\n    /* \"PostNewsContract.sol\":64:4645  contract PostNewsContract {... */\n  callvalue\n  dup1\n  iszero\n  tag_1\n  jumpi\n  0x00\n  dup1\n  revert\ntag_1:\n  pop\n  dataSize(sub_0)\n  dup1\n  dataOffset(sub_0)\n  0x00\n  codecopy\n  0x00\n  return\nstop\n\nsub_0: assembly {\n        /* \"PostNewsContract.sol\":64:4645  contract PostNewsContract {... */\n      mstore(0x40, 0x80)\n      callvalue\n      dup1\n      iszero\n      tag_1\n      jumpi\n      0x00\n      dup1\n      revert\n    tag_1:\n      pop\n      jumpi(tag_2, lt(calldatasize, 0x04))\n      shr(0xe0, calldataload(0x00))\n      dup1\n      0x1e0f71fe\n      eq\n      tag_3\n      jumpi\n      dup1\n      0x28538949\n      eq\n      tag_4\n      jumpi\n      dup1\n      0x6f7267b7\n      eq\n      tag_5\n      jumpi\n      dup1\n      0x95caa166\n      eq\n      tag_6\n      jumpi\n      dup1\n      0xbc47873b\n      eq\n      tag_7\n      jumpi\n      dup1\n      0xbe4c3d26\n      eq\n      tag_8\n      jumpi\n    tag_2:\n      0x00\n      dup1\n      revert\n        /* \"PostNewsContract.sol\":3122:3384  function getAllPosts(bool requestedPosts)... */\n    tag_3:\n      tag_9\n      0x04\n      dup1\n      calldatasize\n      sub\n      dup2\n      add\n      swap1\n      tag_10\n      swap2\n      swap1\n      tag_11\n      jump\t// in\n    tag_10:\n      tag_12\n      jump\t// in\n    tag_9:\n      mload(0x40)\n      tag_13\n      swap2\n      swap1\n      tag_14\n      jump\t// in\n    tag_13:\n      mload(0x40)\n      dup1\n      swap2\n      sub\n      swap1\n      return\n        /* \"PostNewsContract.sol\":4030:4203  function getPostsByUser(address _userAddress)... */\n    tag_4:\n      tag_15\n      0x04\n      dup1\n      calldatasize\n      sub\n      dup2\n      add\n      swap1\n      tag_16\n      swap2\n      swap1\n      tag_17\n      jump\t// in\n    tag_16:\n      tag_18\n      jump\t// in\n    tag_15:\n      mload(0x40)\n      tag_19\n      swap2\n      swap1\n      tag_14\n      jump\t// in\n    tag_19:\n      mload(0x40)\n      dup1\n      swap2\n      sub\n      swap1\n      return\n        /* \"PostNewsContract.sol\":4444:4642  function getShares(uint256 postIndex)... */\n    tag_5:\n      tag_20\n      0x04\n      dup1\n      calldatasize\n      sub\n      dup2\n      add\n      swap1\n      tag_21\n      swap2\n      swap1\n      tag_22\n      jump\t// in\n    tag_21:\n      tag_23\n      jump\t// in\n    tag_20:\n      mload(0x40)\n      tag_24\n      swap2\n      swap1\n      tag_25\n      jump\t// in\n    tag_24:\n      mload(0x40)\n      dup1\n      swap2\n      sub\n      swap1\n      return\n        /* \"PostNewsContract.sol\":3392:4022  function approvePost(uint256 postIdx) public {... */\n    tag_6:\n      tag_26\n      0x04\n      dup1\n      calldatasize\n      sub\n      dup2\n      add\n      swap1\n      tag_27\n      swap2\n      swap1\n      tag_22\n      jump\t// in\n    tag_27:\n      tag_28\n      jump\t// in\n    tag_26:\n      stop\n        /* \"PostNewsContract.sol\":1182:3084  function postNews(... */\n    tag_7:\n      tag_29\n      0x04\n      dup1\n      calldatasize\n      sub\n      dup2\n      add\n      swap1\n      tag_30\n      swap2\n      swap1\n      tag_31\n      jump\t// in\n    tag_30:\n      tag_32\n      jump\t// in\n    tag_29:\n      stop\n        /* \"PostNewsContract.sol\":4262:4436  function reshare(uint256 postIndex) public {... */\n    tag_8:\n      tag_33\n      0x04\n      dup1\n      calldatasize\n      sub\n      dup2\n      add\n      swap1\n      tag_34\n      swap2\n      swap1\n      tag_22\n      jump\t// in\n    tag_34:\n      tag_35\n      jump\t// in\n    tag_33:\n      stop\n        /* \"PostNewsContract.sol\":3122:3384  function getAllPosts(bool requestedPosts)... */\n    tag_12:\n        /* \"PostNewsContract.sol\":3212:3234  PostStructure[] memory */\n      0x60\n        /* \"PostNewsContract.sol\":3256:3270  requestedPosts */\n      dup2\n        /* \"PostNewsContract.sol\":3252:3377  if (requestedPosts) {... */\n      iszero\n      tag_37\n      jumpi\n        /* \"PostNewsContract.sol\":3294:3314  allTheRequestedPosts */\n      0x08\n        /* \"PostNewsContract.sol\":3287:3314  return allTheRequestedPosts */\n      dup1\n      sload\n      dup1\n      0x20\n      mul\n      0x20\n      add\n      mload(0x40)\n      swap1\n      dup2\n      add\n      0x40\n      mstore\n      dup1\n      swap3\n      swap2\n      swap1\n      dup2\n      dup2\n      mstore\n      0x20\n      add\n      0x00\n      swap1\n    tag_38:\n      dup3\n      dup3\n      lt\n      iszero\n      tag_39\n      jumpi\n      dup4\n      dup3\n      swap1\n      0x00\n      mstore\n      keccak256(0x00, 0x20)\n      swap1\n      0x06\n      mul\n      add\n      mload(0x40)\n      dup1\n      0xc0\n      add\n      0x40\n      mstore\n      swap1\n      dup2\n      0x00\n      dup3\n      add\n      dup1\n      sload\n      tag_41\n      swap1\n      tag_42\n      jump\t// in\n    tag_41:\n      dup1\n      0x1f\n      add\n      0x20\n      dup1\n      swap2\n      div\n      mul\n      0x20\n      add\n      mload(0x40)\n      swap1\n      dup2\n      add\n      0x40\n      mstore\n      dup1\n      swap3\n      swap2\n      swap1\n      dup2\n      dup2\n      mstore\n      0x20\n      add\n      dup3\n      dup1\n      sload\n      tag_43\n      swap1\n      tag_42\n      jump\t// in\n    tag_43:\n      dup1\n      iszero\n      tag_44\n      jumpi\n      dup1\n      0x1f\n      lt\n      tag_45\n      jumpi\n      0x0100\n      dup1\n      dup4\n      sload\n      div\n      mul\n      dup4\n      mstore\n      swap2\n      0x20\n      add\n      swap2\n      jump(tag_44)\n    tag_45:\n      dup3\n      add\n      swap2\n      swap1\n      0x00\n      mstore\n      keccak256(0x00, 0x20)\n      swap1\n    tag_46:\n      dup2\n      sload\n      dup2\n      mstore\n      swap1\n      0x01\n      add\n      swap1\n      0x20\n      add\n      dup1\n      dup4\n      gt\n      tag_46\n      jumpi\n      dup3\n      swap1\n      sub\n      0x1f\n      and\n      dup3\n      add\n      swap2\n    tag_44:\n      pop\n      pop\n      pop\n      pop\n      pop\n      dup2\n      mstore\n      0x20\n      add\n      0x01\n      dup3\n      add\n      0x00\n      swap1\n      sload\n      swap1\n      0x0100\n      exp\n      swap1\n      div\n      0xffffffffffffffffffffffffffffffffffffffff\n      and\n      0xffffffffffffffffffffffffffffffffffffffff\n      and\n      0xffffffffffffffffffffffffffffffffffffffff\n      and\n      dup2\n      mstore\n      0x20\n      add\n      0x02\n      dup3\n      add\n      dup1\n      sload\n      dup1\n      0x20\n      mul\n      0x20\n      add\n      mload(0x40)\n      swap1\n      dup2\n      add\n      0x40\n      mstore\n      dup1\n      swap3\n      swap2\n      swap1\n      dup2\n      dup2\n      mstore\n      0x20\n      add\n      dup3\n      dup1\n      sload\n      dup1\n      iszero\n      tag_47\n      jumpi\n      0x20\n      mul\n      dup3\n      add\n      swap2\n      swap1\n      0x00\n      mstore\n      keccak256(0x00, 0x20)\n      swap1\n    tag_48:\n      dup2\n      0x00\n      swap1\n      sload\n      swap1\n      0x0100\n      exp\n      swap1\n      div\n      0xffffffffffffffffffffffffffffffffffffffff\n      and\n      0xffffffffffffffffffffffffffffffffffffffff\n      and\n      dup2\n      mstore\n      0x20\n      add\n      swap1\n      0x01\n      add\n      swap1\n      dup1\n      dup4\n      gt\n      tag_48\n      jumpi\n    tag_47:\n      pop\n      pop\n      pop\n      pop\n      pop\n      dup2\n      mstore\n      0x20\n      add\n      0x03\n      dup3\n      add\n      0x00\n      swap1\n      sload\n      swap1\n      0x0100\n      exp\n      swap1\n      div\n      0xff\n      and\n      iszero\n      iszero\n      iszero\n      iszero\n      dup2\n      mstore\n      0x20\n      add\n      0x04\n      dup3\n      add\n      sload\n      dup2\n      mstore\n      0x20\n      add\n      0x05\n      dup3\n      add\n      sload\n      dup2\n      mstore\n      pop\n      pop\n      dup2\n      mstore\n      0x20\n      add\n      swap1\n      0x01\n      add\n      swap1\n      jump(tag_38)\n    tag_39:\n      pop\n      pop\n      pop\n      pop\n      swap1\n      pop\n      jump(tag_36)\n        /* \"PostNewsContract.sol\":3252:3377  if (requestedPosts) {... */\n    tag_37:\n        /* \"PostNewsContract.sol\":3354:3365  allThePosts */\n      0x06\n        /* \"PostNewsContract.sol\":3347:3365  return allThePosts */\n      dup1\n      sload\n      dup1\n      0x20\n      mul\n      0x20\n      add\n      mload(0x40)\n      swap1\n      dup2\n      add\n      0x40\n      mstore\n      dup1\n      swap3\n      swap2\n      swap1\n      dup2\n      dup2\n      mstore\n      0x20\n      add\n      0x00\n      swap1\n    tag_50:\n      dup3\n      dup3\n      lt\n      iszero\n      tag_51\n      jumpi\n      dup4\n      dup3\n      swap1\n      0x00\n      mstore\n      keccak256(0x00, 0x20)\n      swap1\n      0x06\n      mul\n      add\n      mload(0x40)\n      dup1\n      0xc0\n      add\n      0x40\n      mstore\n      swap1\n      dup2\n      0x00\n      dup3\n      add\n      dup1\n      sload\n      tag_53\n      swap1\n      tag_42\n      jump\t// in\n    tag_53:\n      dup1\n      0x1f\n      add\n      0x20\n      dup1\n      swap2\n      div\n      mul\n      0x20\n      add\n      mload(0x40)\n      swap1\n      dup2\n      add\n      0x40\n      mstore\n      dup1\n      swap3\n      swap2\n      swap1\n      dup2\n      dup2\n      mstore\n      0x20\n      add\n      dup3\n      dup1\n      sload\n      tag_54\n      swap1\n      tag_42\n      jump\t// in\n    tag_54:\n      dup1\n      iszero\n      tag_55\n      jumpi\n      dup1\n      0x1f\n      lt\n      tag_56\n      jumpi\n      0x0100\n      dup1\n      dup4\n      sload\n      div\n      mul\n      dup4\n      mstore\n      swap2\n      0x20\n      add\n      swap2\n      jump(tag_55)\n    tag_56:\n      dup3\n      add\n      swap2\n      swap1\n      0x00\n      mstore\n      keccak256(0x00, 0x20)\n      swap1\n    tag_57:\n      dup2\n      sload\n      dup2\n      mstore\n      swap1\n      0x01\n      add\n      swap1\n      0x20\n      add\n      dup1\n      dup4\n      gt\n      tag_57\n      jumpi\n      dup3\n      swap1\n      sub\n      0x1f\n      and\n      dup3\n      add\n      swap2\n    tag_55:\n      pop\n      pop\n      pop\n      pop\n      pop\n      dup2\n      mstore\n      0x20\n      add\n      0x01\n      dup3\n      add\n      0x00\n      swap1\n      sload\n      swap1\n      0x0100\n      exp\n      swap1\n      div\n      0xffffffffffffffffffffffffffffffffffffffff\n      and\n      0xffffffffffffffffffffffffffffffffffffffff\n      and\n      0xffffffffffffffffffffffffffffffffffffffff\n      and\n      dup2\n      mstore\n      0x20\n      add\n      0x02\n      dup3\n      add\n      dup1\n      sload\n      dup1\n      0x20\n      mul\n      0x20\n      add\n      mload(0x40)\n      swap1\n      dup2\n      add\n      0x40\n      mstore\n      dup1\n      swap3\n      swap2\n      swap1\n      dup2\n      dup2\n      mstore\n      0x20\n      add\n      dup3\n      dup1\n      sload\n      dup1\n      iszero\n      tag_58\n      jumpi\n      0x20\n      mul\n      dup3\n      add\n      swap2\n      swap1\n      0x00\n      mstore\n      keccak256(0x00, 0x20)\n      swap1\n    tag_59:\n      dup2\n      0x00\n      swap1\n      sload\n      swap1\n      0x0100\n      exp\n      swap1\n      div\n      0xffffffffffffffffffffffffffffffffffffffff\n      and\n      0xffffffffffffffffffffffffffffffffffffffff\n      and\n      dup2\n      mstore\n      0x20\n      add\n      swap1\n      0x01\n      add\n      swap1\n      dup1\n      dup4\n      gt\n      tag_59\n      jumpi\n    tag_58:\n      pop\n      pop\n      pop\n      pop\n      pop\n      dup2\n      mstore\n      0x20\n      add\n      0x03\n      dup3\n      add\n      0x00\n      swap1\n      sload\n      swap1\n      0x0100\n      exp\n      swap1\n      div\n      0xff\n      and\n      iszero\n      iszero\n      iszero\n      iszero\n      dup2\n      mstore\n      0x20\n      add\n      0x04\n      dup3\n      add\n      sload\n      dup2\n      mstore\n      0x20\n      add\n      0x05\n      dup3\n      add\n      sload\n      dup2\n      mstore\n      pop\n      pop\n      dup2\n      mstore\n      0x20\n      add\n      swap1\n      0x01\n      add\n      swap1\n      jump(tag_50)\n    tag_51:\n      pop\n      pop\n      pop\n      pop\n      swap1\n      pop\n        /* \"PostNewsContract.sol\":3122:3384  function getAllPosts(bool requestedPosts)... */\n    tag_36:\n      swap2\n      swap1\n      pop\n      jump\t// out\n        /* \"PostNewsContract.sol\":4030:4203  function getPostsByUser(address _userAddress)... */\n    tag_18:\n        /* \"PostNewsContract.sol\":4124:4146  PostStructure[] memory */\n      0x60\n        /* \"PostNewsContract.sol\":4171:4181  postOfUser */\n      0x07\n        /* \"PostNewsContract.sol\":4171:4195  postOfUser[_userAddress] */\n      0x00\n        /* \"PostNewsContract.sol\":4182:4194  _userAddress */\n      dup4\n        /* \"PostNewsContract.sol\":4171:4195  postOfUser[_userAddress] */\n      0xffffffffffffffffffffffffffffffffffffffff\n      and\n      0xffffffffffffffffffffffffffffffffffffffff\n      and\n      dup2\n      mstore\n      0x20\n      add\n      swap1\n      dup2\n      mstore\n      0x20\n      add\n      0x00\n      keccak256\n        /* \"PostNewsContract.sol\":4164:4195  return postOfUser[_userAddress] */\n      dup1\n      sload\n      dup1\n      0x20\n      mul\n      0x20\n      add\n      mload(0x40)\n      swap1\n      dup2\n      add\n      0x40\n      mstore\n      dup1\n      swap3\n      swap2\n      swap1\n      dup2\n      dup2\n      mstore\n      0x20\n      add\n      0x00\n      swap1\n    tag_61:\n      dup3\n      dup3\n      lt\n      iszero\n      tag_62\n      jumpi\n      dup4\n      dup3\n      swap1\n      0x00\n      mstore\n      keccak256(0x00, 0x20)\n      swap1\n      0x06\n      mul\n      add\n      mload(0x40)\n      dup1\n      0xc0\n      add\n      0x40\n      mstore\n      swap1\n      dup2\n      0x00\n      dup3\n      add\n      dup1\n      sload\n      tag_64\n      swap1\n      tag_42\n      jump\t// in\n    tag_64:\n      dup1\n      0x1f\n      add\n      0x20\n      dup1\n      swap2\n      div\n      mul\n      0x20\n      add\n      mload(0x40)\n      swap1\n      dup2\n      add\n      0x40\n      mstore\n      dup1\n      swap3\n      swap2\n      swap1\n      dup2\n      dup2\n      mstore\n      0x20\n      add\n      dup3\n      dup1\n      sload\n      tag_65\n      swap1\n      tag_42\n      jump\t// in\n    tag_65:\n      dup1\n      iszero\n      tag_66\n      jumpi\n      dup1\n      0x1f\n      lt\n      tag_67\n      jumpi\n      0x0100\n      dup1\n      dup4\n      sload\n      div\n      mul\n      dup4\n      mstore\n      swap2\n      0x20\n      add\n      swap2\n      jump(tag_66)\n    tag_67:\n      dup3\n      add\n      swap2\n      swap1\n      0x00\n      mstore\n      keccak256(0x00, 0x20)\n      swap1\n    tag_68:\n      dup2\n      sload\n      dup2\n      mstore\n      swap1\n      0x01\n      add\n      swap1\n      0x20\n      add\n      dup1\n      dup4\n      gt\n      tag_68\n      jumpi\n      dup3\n      swap1\n      sub\n      0x1f\n      and\n      dup3\n      add\n      swap2\n    tag_66:\n      pop\n      pop\n      pop\n      pop\n      pop\n      dup2\n      mstore\n      0x20\n      add\n      0x01\n      dup3\n      add\n      0x00\n      swap1\n      sload\n      swap1\n      0x0100\n      exp\n      swap1\n      div\n      0xffffffffffffffffffffffffffffffffffffffff\n      and\n      0xffffffffffffffffffffffffffffffffffffffff\n      and\n      0xffffffffffffffffffffffffffffffffffffffff\n      and\n      dup2\n      mstore\n      0x20\n      add\n      0x02\n      dup3\n      add\n      dup1\n      sload\n      dup1\n      0x20\n      mul\n      0x20\n      add\n      mload(0x40)\n      swap1\n      dup2\n      add\n      0x40\n      mstore\n      dup1\n      swap3\n      swap2\n      swap1\n      dup2\n      dup2\n      mstore\n      0x20\n      add\n      dup3\n      dup1\n      sload\n      dup1\n      iszero\n      tag_69\n      jumpi\n      0x20\n      mul\n      dup3\n      add\n      swap2\n      swap1\n      0x00\n      mstore\n      keccak256(0x00, 0x20)\n      swap1\n    tag_70:\n      dup2\n      0x00\n      swap1\n      sload\n      swap1\n      0x0100\n      exp\n      swap1\n      div\n      0xffffffffffffffffffffffffffffffffffffffff\n      and\n      0xffffffffffffffffffffffffffffffffffffffff\n      and\n      dup2\n      mstore\n      0x20\n      add\n      swap1\n      0x01\n      add\n      swap1\n      dup1\n      dup4\n      gt\n      tag_70\n      jumpi\n    tag_69:\n      pop\n      pop\n      pop\n      pop\n      pop\n      dup2\n      mstore\n      0x20\n      add\n      0x03\n      dup3\n      add\n      0x00\n      swap1\n      sload\n      swap1\n      0x0100\n      exp\n      swap1\n      div\n      0xff\n      and\n      iszero\n      iszero\n      iszero\n      iszero\n      dup2\n      mstore\n      0x20\n      add\n      0x04\n      dup3\n      add\n      sload\n      dup2\n      mstore\n      0x20\n      add\n      0x05\n      dup3\n      add\n      sload\n      dup2\n      mstore\n      pop\n      pop\n      dup2\n      mstore\n      0x20\n      add\n      swap1\n      0x01\n      add\n      swap1\n      jump(tag_61)\n    tag_62:\n      pop\n      pop\n      pop\n      pop\n      swap1\n      pop\n        /* \"PostNewsContract.sol\":4030:4203  function getPostsByUser(address _userAddress)... */\n      swap2\n      swap1\n      pop\n      jump\t// out\n        /* \"PostNewsContract.sol\":4444:4642  function getShares(uint256 postIndex)... */\n    tag_23:\n        /* \"PostNewsContract.sol\":4530:4550  PostStructure memory */\n      tag_71\n      tag_72\n      jump\t// in\n    tag_71:\n        /* \"PostNewsContract.sol\":4568:4590  PostStructure memory p */\n      0x00\n        /* \"PostNewsContract.sol\":4593:4604  allThePosts */\n      0x06\n        /* \"PostNewsContract.sol\":4605:4614  postIndex */\n      dup4\n        /* \"PostNewsContract.sol\":4593:4615  allThePosts[postIndex] */\n      dup2\n      sload\n      dup2\n      lt\n      tag_74\n      jumpi\n      tag_75\n      tag_76\n      jump\t// in\n    tag_75:\n    tag_74:\n      swap1\n      0x00\n      mstore\n      keccak256(0x00, 0x20)\n      swap1\n      0x06\n      mul\n      add\n        /* \"PostNewsContract.sol\":4568:4615  PostStructure memory p = allThePosts[postIndex] */\n      mload(0x40)\n      dup1\n      0xc0\n      add\n      0x40\n      mstore\n      swap1\n      dup2\n      0x00\n      dup3\n      add\n      dup1\n      sload\n      tag_78\n      swap1\n      tag_42\n      jump\t// in\n    tag_78:\n      dup1\n      0x1f\n      add\n      0x20\n      dup1\n      swap2\n      div\n      mul\n      0x20\n      add\n      mload(0x40)\n      swap1\n      dup2\n      add\n      0x40\n      mstore\n      dup1\n      swap3\n      swap2\n      swap1\n      dup2\n      dup2\n      mstore\n      0x20\n      add\n      dup3\n      dup1\n      sload\n      tag_79\n      swap1\n      tag_42\n      jump\t// in\n    tag_79:\n      dup1\n      iszero\n      tag_80\n      jumpi\n      dup1\n      0x1f\n      lt\n      tag_81\n      jumpi\n      0x0100\n      dup1\n      dup4\n      sload\n      div\n      mul\n      dup4\n      mstore\n      swap2\n      0x20\n      add\n      swap2\n      jump(tag_80)\n    tag_81:\n      dup3\n      add\n      swap2\n      swap1\n      0x00\n      mstore\n      keccak256(0x00, 0x20)\n      swap1\n    tag_82:\n      dup2\n      sload\n      dup2\n      mstore\n      swap1\n      0x01\n      add\n      swap1\n      0x20\n      add\n      dup1\n      dup4\n      gt\n      tag_82\n      jumpi\n      dup3\n      swap1\n      sub\n      0x1f\n      and\n      dup3\n      add\n      swap2\n    tag_80:\n      pop\n      pop\n      pop\n      pop\n      pop\n      dup2\n      mstore\n      0x20\n      add\n      0x01\n      dup3\n      add\n      0x00\n      swap1\n      sload\n      swap1\n      0x0100\n      exp\n      swap1\n      div\n      0xffffffffffffffffffffffffffffffffffffffff\n      and\n      0xffffffffffffffffffffffffffffffffffffffff\n      and\n      0xffffffffffffffffffffffffffffffffffffffff\n      and\n      dup2\n      mstore\n      0x20\n      add\n      0x02\n      dup3\n      add\n      dup1\n      sload\n      dup1\n      0x20\n      mul\n      0x20\n      add\n      mload(0x40)\n      swap1\n      dup2\n      add\n      0x40\n      mstore\n      dup1\n      swap3\n      swap2\n      swap1\n      dup2\n      dup2\n      mstore\n      0x20\n      add\n      dup3\n      dup1\n      sload\n      dup1\n      iszero\n      tag_83\n      jumpi\n      0x20\n      mul\n      dup3\n      add\n      swap2\n      swap1\n      0x00\n      mstore\n      keccak256(0x00, 0x20)\n      swap1\n    tag_84:\n      dup2\n      0x00\n      swap1\n      sload\n      swap1\n      0x0100\n      exp\n      swap1\n      div\n      0xffffffffffffffffffffffffffffffffffffffff\n      and\n      0xffffffffffffffffffffffffffffffffffffffff\n      and\n      dup2\n      mstore\n      0x20\n      add\n      swap1\n      0x01\n      add\n      swap1\n      dup1\n      dup4\n      gt\n      tag_84\n      jumpi\n    tag_83:\n      pop\n      pop\n      pop\n      pop\n      pop\n      dup2\n      mstore\n      0x20\n      add\n      0x03\n      dup3\n      add\n      0x00\n      swap1\n      sload\n      swap1\n      0x0100\n      exp\n      swap1\n      div\n      0xff\n      and\n      iszero\n      iszero\n      iszero\n      iszero\n      dup2\n      mstore\n      0x20\n      add\n      0x04\n      dup3\n      add\n      sload\n      dup2\n      mstore\n      0x20\n      add\n      0x05\n      dup3\n      add\n      sload\n      dup2\n      mstore\n      pop\n      pop\n      swap1\n      pop\n        /* \"PostNewsContract.sol\":4633:4634  p */\n      dup1\n        /* \"PostNewsContract.sol\":4626:4634  return p */\n      swap2\n      pop\n      pop\n        /* \"PostNewsContract.sol\":4444:4642  function getShares(uint256 postIndex)... */\n      swap2\n      swap1\n      pop\n      jump\t// out\n        /* \"PostNewsContract.sol\":3392:4022  function approvePost(uint256 postIdx) public {... */\n    tag_28:\n        /* \"PostNewsContract.sol\":3474:3499  PostStructure memory post */\n      0x00\n        /* \"PostNewsContract.sol\":3502:3522  allTheRequestedPosts */\n      0x08\n        /* \"PostNewsContract.sol\":3523:3530  postIdx */\n      dup3\n        /* \"PostNewsContract.sol\":3502:3531  allTheRequestedPosts[postIdx] */\n      dup2\n      sload\n      dup2\n      lt\n      tag_86\n      jumpi\n      tag_87\n      tag_76\n      jump\t// in\n    tag_87:\n    tag_86:\n      swap1\n      0x00\n      mstore\n      keccak256(0x00, 0x20)\n      swap1\n      0x06\n      mul\n      add\n        /* \"PostNewsContract.sol\":3474:3531  PostStructure memory post = allTheRequestedPosts[postIdx] */\n      mload(0x40)\n      dup1\n      0xc0\n      add\n      0x40\n      mstore\n      swap1\n      dup2\n      0x00\n      dup3\n      add\n      dup1\n      sload\n      tag_89\n      swap1\n      tag_42\n      jump\t// in\n    tag_89:\n      dup1\n      0x1f\n      add\n      0x20\n      dup1\n      swap2\n      div\n      mul\n      0x20\n      add\n      mload(0x40)\n      swap1\n      dup2\n      add\n      0x40\n      mstore\n      dup1\n      swap3\n      swap2\n      swap1\n      dup2\n      dup2\n      mstore\n      0x20\n      add\n      dup3\n      dup1\n      sload\n      tag_90\n      swap1\n      tag_42\n      jump\t// in\n    tag_90:\n      dup1\n      iszero\n      tag_91\n      jumpi\n      dup1\n      0x1f\n      lt\n      tag_92\n      jumpi\n      0x0100\n      dup1\n      dup4\n      sload\n      div\n      mul\n      dup4\n      mstore\n      swap2\n      0x20\n      add\n      swap2\n      jump(tag_91)\n    tag_92:\n      dup3\n      add\n      swap2\n      swap1\n      0x00\n      mstore\n      keccak256(0x00, 0x20)\n      swap1\n    tag_93:\n      dup2\n      sload\n      dup2\n      mstore\n      swap1\n      0x01\n      add\n      swap1\n      0x20\n      add\n      dup1\n      dup4\n      gt\n      tag_93\n      jumpi\n      dup3\n      swap1\n      sub\n      0x1f\n      and\n      dup3\n      add\n      swap2\n    tag_91:\n      pop\n      pop\n      pop\n      pop\n      pop\n      dup2\n      mstore\n      0x20\n      add\n      0x01\n      dup3\n      add\n      0x00\n      swap1\n      sload\n      swap1\n      0x0100\n      exp\n      swap1\n      div\n      0xffffffffffffffffffffffffffffffffffffffff\n      and\n      0xffffffffffffffffffffffffffffffffffffffff\n      and\n      0xffffffffffffffffffffffffffffffffffffffff\n      and\n      dup2\n      mstore\n      0x20\n      add\n      0x02\n      dup3\n      add\n      dup1\n      sload\n      dup1\n      0x20\n      mul\n      0x20\n      add\n      mload(0x40)\n      swap1\n      dup2\n      add\n      0x40\n      mstore\n      dup1\n      swap3\n      swap2\n      swap1\n      dup2\n      dup2\n      mstore\n      0x20\n      add\n      dup3\n      dup1\n      sload\n      dup1\n      iszero\n      tag_94\n      jumpi\n      0x20\n      mul\n      dup3\n      add\n      swap2\n      swap1\n      0x00\n      mstore\n      keccak256(0x00, 0x20)\n      swap1\n    tag_95:\n      dup2\n      0x00\n      swap1\n      sload\n      swap1\n      0x0100\n      exp\n      swap1\n      div\n      0xffffffffffffffffffffffffffffffffffffffff\n      and\n      0xffffffffffffffffffffffffffffffffffffffff\n      and\n      dup2\n      mstore\n      0x20\n      add\n      swap1\n      0x01\n      add\n      swap1\n      dup1\n      dup4\n      gt\n      tag_95\n      jumpi\n    tag_94:\n      pop\n      pop\n      pop\n      pop\n      pop\n      dup2\n      mstore\n      0x20\n      add\n      0x03\n      dup3\n      add\n      0x00\n      swap1\n      sload\n      swap1\n      0x0100\n      exp\n      swap1\n      div\n      0xff\n      and\n      iszero\n      iszero\n      iszero\n      iszero\n      dup2\n      mstore\n      0x20\n      add\n      0x04\n      dup3\n      add\n      sload\n      dup2\n      mstore\n      0x20\n      add\n      0x05\n      dup3\n      add\n      sload\n      dup2\n      mstore\n      pop\n      pop\n      swap1\n      pop\n        /* \"PostNewsContract.sol\":3605:3610  false */\n      0x00\n        /* \"PostNewsContract.sol\":3588:3592  post */\n      dup2\n        /* \"PostNewsContract.sol\":3588:3602  post.isRequest */\n      0x60\n      add\n        /* \"PostNewsContract.sol\":3588:3610  post.isRequest = false */\n      swap1\n      iszero\n      iszero\n      swap1\n      dup2\n      iszero\n      iszero\n      dup2\n      mstore\n      pop\n      pop\n        /* \"PostNewsContract.sol\":3660:3671  allThePosts */\n      0x06\n        /* \"PostNewsContract.sol\":3677:3681  post */\n      dup2\n        /* \"PostNewsContract.sol\":3660:3682  allThePosts.push(post) */\n      swap1\n      dup1\n      0x01\n      dup2\n      sload\n      add\n      dup1\n      dup3\n      sstore\n      dup1\n      swap2\n      pop\n      pop\n      0x01\n      swap1\n      sub\n      swap1\n      0x00\n      mstore\n      keccak256(0x00, 0x20)\n      swap1\n      0x06\n      mul\n      add\n      0x00\n      swap1\n      swap2\n      swap1\n      swap2\n      swap1\n      swap2\n      pop\n      0x00\n      dup3\n      add\n      mload\n      dup2\n      0x00\n      add\n      swap1\n      dup2\n      tag_97\n      swap2\n      swap1\n      tag_98\n      jump\t// in\n    tag_97:\n      pop\n      0x20\n      dup3\n      add\n      mload\n      dup2\n      0x01\n      add\n      exp(0x0100, 0x00)\n      dup2\n      sload\n      dup2\n      0xffffffffffffffffffffffffffffffffffffffff\n      mul\n      not\n      and\n      swap1\n      dup4\n      0xffffffffffffffffffffffffffffffffffffffff\n      and\n      mul\n      or\n      swap1\n      sstore\n      pop\n      0x40\n      dup3\n      add\n      mload\n      dup2\n      0x02\n      add\n      swap1\n      dup1\n      mload\n      swap1\n      0x20\n      add\n      swap1\n      tag_99\n      swap3\n      swap2\n      swap1\n      tag_100\n      jump\t// in\n    tag_99:\n      pop\n      0x60\n      dup3\n      add\n      mload\n      dup2\n      0x03\n      add\n      exp(0x0100, 0x00)\n      dup2\n      sload\n      dup2\n      0xff\n      mul\n      not\n      and\n      swap1\n      dup4\n      iszero\n      iszero\n      mul\n      or\n      swap1\n      sstore\n      pop\n      0x80\n      dup3\n      add\n      mload\n      dup2\n      0x04\n      add\n      sstore\n      0xa0\n      dup3\n      add\n      mload\n      dup2\n      0x05\n      add\n      sstore\n      pop\n      pop\n        /* \"PostNewsContract.sol\":3693:3710  approvedPostIndex */\n      0x0c\n      0x00\n        /* \"PostNewsContract.sol\":3693:3712  approvedPostIndex++ */\n      dup2\n      sload\n      dup1\n      swap3\n      swap2\n      swap1\n      tag_101\n      swap1\n      tag_102\n      jump\t// in\n    tag_101:\n      swap2\n      swap1\n      pop\n      sstore\n      pop\n        /* \"PostNewsContract.sol\":3771:3781  postOfUser */\n      0x07\n        /* \"PostNewsContract.sol\":3771:3799  postOfUser[post.postCreator] */\n      0x00\n        /* \"PostNewsContract.sol\":3782:3786  post */\n      dup3\n        /* \"PostNewsContract.sol\":3782:3798  post.postCreator */\n      0x20\n      add\n      mload\n        /* \"PostNewsContract.sol\":3771:3799  postOfUser[post.postCreator] */\n      0xffffffffffffffffffffffffffffffffffffffff\n      and\n      0xffffffffffffffffffffffffffffffffffffffff\n      and\n      dup2\n      mstore\n      0x20\n      add\n      swap1\n      dup2\n      mstore\n      0x20\n      add\n      0x00\n      keccak256\n        /* \"PostNewsContract.sol\":3805:3809  post */\n      dup2\n        /* \"PostNewsContract.sol\":3771:3810  postOfUser[post.postCreator].push(post) */\n      swap1\n      dup1\n      0x01\n      dup2\n      sload\n      add\n      dup1\n      dup3\n      sstore\n      dup1\n      swap2\n      pop\n      pop\n      0x01\n      swap1\n      sub\n      swap1\n      0x00\n      mstore\n      keccak256(0x00, 0x20)\n      swap1\n      0x06\n      mul\n      add\n      0x00\n      swap1\n      swap2\n      swap1\n      swap2\n      swap1\n      swap2\n      pop\n      0x00\n      dup3\n      add\n      mload\n      dup2\n      0x00\n      add\n      swap1\n      dup2\n      tag_104\n      swap2\n      swap1\n      tag_98\n      jump\t// in\n    tag_104:\n      pop\n      0x20\n      dup3\n      add\n      mload\n      dup2\n      0x01\n      add\n      exp(0x0100, 0x00)\n      dup2\n      sload\n      dup2\n      0xffffffffffffffffffffffffffffffffffffffff\n      mul\n      not\n      and\n      swap1\n      dup4\n      0xffffffffffffffffffffffffffffffffffffffff\n      and\n      mul\n      or\n      swap1\n      sstore\n      pop\n      0x40\n      dup3\n      add\n      mload\n      dup2\n      0x02\n      add\n      swap1\n      dup1\n      mload\n      swap1\n      0x20\n      add\n      swap1\n      tag_105\n      swap3\n      swap2\n      swap1\n      tag_100\n      jump\t// in\n    tag_105:\n      pop\n      0x60\n      dup3\n      add\n      mload\n      dup2\n      0x03\n      add\n      exp(0x0100, 0x00)\n      dup2\n      sload\n      dup2\n      0xff\n      mul\n      not\n      and\n      swap1\n      dup4\n      iszero\n      iszero\n      mul\n      or\n      swap1\n      sstore\n      pop\n      0x80\n      dup3\n      add\n      mload\n      dup2\n      0x04\n      add\n      sstore\n      0xa0\n      dup3\n      add\n      mload\n      dup2\n      0x05\n      add\n      sstore\n      pop\n      pop\n        /* \"PostNewsContract.sol\":3900:3920  allTheRequestedPosts */\n      0x08\n        /* \"PostNewsContract.sol\":3965:3966  1 */\n      0x01\n        /* \"PostNewsContract.sol\":3935:3955  allTheRequestedPosts */\n      0x08\n        /* \"PostNewsContract.sol\":3935:3962  allTheRequestedPosts.length */\n      dup1\n      sload\n      swap1\n      pop\n        /* \"PostNewsContract.sol\":3935:3966  allTheRequestedPosts.length - 1 */\n      tag_106\n      swap2\n      swap1\n      tag_107\n      jump\t// in\n    tag_106:\n        /* \"PostNewsContract.sol\":3900:3977  allTheRequestedPosts[... */\n      dup2\n      sload\n      dup2\n      lt\n      tag_108\n      jumpi\n      tag_109\n      tag_76\n      jump\t// in\n    tag_109:\n    tag_108:\n      swap1\n      0x00\n      mstore\n      keccak256(0x00, 0x20)\n      swap1\n      0x06\n      mul\n      add\n        /* \"PostNewsContract.sol\":3868:3888  allTheRequestedPosts */\n      0x08\n        /* \"PostNewsContract.sol\":3889:3896  postIdx */\n      dup4\n        /* \"PostNewsContract.sol\":3868:3897  allTheRequestedPosts[postIdx] */\n      dup2\n      sload\n      dup2\n      lt\n      tag_111\n      jumpi\n      tag_112\n      tag_76\n      jump\t// in\n    tag_112:\n    tag_111:\n      swap1\n      0x00\n      mstore\n      keccak256(0x00, 0x20)\n      swap1\n      0x06\n      mul\n      add\n        /* \"PostNewsContract.sol\":3868:3977  allTheRequestedPosts[postIdx] = allTheRequestedPosts[... */\n      0x00\n      dup3\n      add\n      dup2\n      0x00\n      add\n      swap1\n      dup2\n      tag_114\n      swap2\n      swap1\n      tag_115\n      jump\t// in\n    tag_114:\n      pop\n      0x01\n      dup3\n      add\n      0x00\n      swap1\n      sload\n      swap1\n      0x0100\n      exp\n      swap1\n      div\n      0xffffffffffffffffffffffffffffffffffffffff\n      and\n      dup2\n      0x01\n      add\n      exp(0x0100, 0x00)\n      dup2\n      sload\n      dup2\n      0xffffffffffffffffffffffffffffffffffffffff\n      mul\n      not\n      and\n      swap1\n      dup4\n      0xffffffffffffffffffffffffffffffffffffffff\n      and\n      mul\n      or\n      swap1\n      sstore\n      pop\n      0x02\n      dup3\n      add\n      dup2\n      0x02\n      add\n      swap1\n      dup1\n      sload\n      tag_116\n      swap3\n      swap2\n      swap1\n      tag_117\n      jump\t// in\n    tag_116:\n      pop\n      0x03\n      dup3\n      add\n      0x00\n      swap1\n      sload\n      swap1\n      0x0100\n      exp\n      swap1\n      div\n      0xff\n      and\n      dup2\n      0x03\n      add\n      exp(0x0100, 0x00)\n      dup2\n      sload\n      dup2\n      0xff\n      mul\n      not\n      and\n      swap1\n      dup4\n      iszero\n      iszero\n      mul\n      or\n      swap1\n      sstore\n      pop\n      0x04\n      dup3\n      add\n      sload\n      dup2\n      0x04\n      add\n      sstore\n      0x05\n      dup3\n      add\n      sload\n      dup2\n      0x05\n      add\n      sstore\n      swap1\n      pop\n      pop\n        /* \"PostNewsContract.sol\":3988:4008  allTheRequestedPosts */\n      0x08\n        /* \"PostNewsContract.sol\":3988:4014  allTheRequestedPosts.pop() */\n      dup1\n      sload\n      dup1\n      tag_118\n      jumpi\n      tag_119\n      tag_120\n      jump\t// in\n    tag_119:\n    tag_118:\n      0x01\n      swap1\n      sub\n      dup2\n      dup2\n      swap1\n      0x00\n      mstore\n      keccak256(0x00, 0x20)\n      swap1\n      0x06\n      mul\n      add\n      0x00\n      dup1\n      dup3\n      add\n      0x00\n      tag_122\n      swap2\n      swap1\n      tag_123\n      jump\t// in\n    tag_122:\n      0x01\n      dup3\n      add\n      exp(0x0100, 0x00)\n      dup2\n      sload\n      swap1\n      0xffffffffffffffffffffffffffffffffffffffff\n      mul\n      not\n      and\n      swap1\n      sstore\n      0x02\n      dup3\n      add\n      0x00\n      tag_124\n      swap2\n      swap1\n      tag_125\n      jump\t// in\n    tag_124:\n      0x03\n      dup3\n      add\n      exp(0x0100, 0x00)\n      dup2\n      sload\n      swap1\n      0xff\n      mul\n      not\n      and\n      swap1\n      sstore\n      0x04\n      dup3\n      add\n      0x00\n      swap1\n      sstore\n      0x05\n      dup3\n      add\n      0x00\n      swap1\n      sstore\n      pop\n      pop\n      swap1\n      sstore\n        /* \"PostNewsContract.sol\":3437:4022  {... */\n      pop\n        /* \"PostNewsContract.sol\":3392:4022  function approvePost(uint256 postIdx) public {... */\n      pop\n      jump\t// out\n        /* \"PostNewsContract.sol\":1182:3084  function postNews(... */\n    tag_32:\n        /* \"PostNewsContract.sol\":1673:1682  _postHash */\n      dup4\n        /* \"PostNewsContract.sol\":1647:1661  instanceOfPost */\n      0x00\n        /* \"PostNewsContract.sol\":1647:1670  instanceOfPost.postHash */\n      dup1\n      add\n        /* \"PostNewsContract.sol\":1647:1682  instanceOfPost.postHash = _postHash */\n      swap1\n      dup2\n      tag_127\n      swap2\n      swap1\n      tag_98\n      jump\t// in\n    tag_127:\n      pop\n        /* \"PostNewsContract.sol\":1722:1734  _postCreator */\n      dup3\n        /* \"PostNewsContract.sol\":1693:1707  instanceOfPost */\n      0x00\n        /* \"PostNewsContract.sol\":1693:1719  instanceOfPost.postCreator */\n      0x01\n      add\n      0x00\n        /* \"PostNewsContract.sol\":1693:1734  instanceOfPost.postCreator = _postCreator */\n      0x0100\n      exp\n      dup2\n      sload\n      dup2\n      0xffffffffffffffffffffffffffffffffffffffff\n      mul\n      not\n      and\n      swap1\n      dup4\n      0xffffffffffffffffffffffffffffffffffffffff\n      and\n      mul\n      or\n      swap1\n      sstore\n      pop\n        /* \"PostNewsContract.sol\":1745:1759  instanceOfPost */\n      0x00\n        /* \"PostNewsContract.sol\":1745:1768  instanceOfPost.sharedBy */\n      0x02\n      add\n        /* \"PostNewsContract.sol\":1774:1783  _sharedBy */\n      dup3\n        /* \"PostNewsContract.sol\":1745:1784  instanceOfPost.sharedBy.push(_sharedBy) */\n      swap1\n      dup1\n      0x01\n      dup2\n      sload\n      add\n      dup1\n      dup3\n      sstore\n      dup1\n      swap2\n      pop\n      pop\n      0x01\n      swap1\n      sub\n      swap1\n      0x00\n      mstore\n      keccak256(0x00, 0x20)\n      add\n      0x00\n      swap1\n      swap2\n      swap1\n      swap2\n      swap1\n      swap2\n      0x0100\n      exp\n      dup2\n      sload\n      dup2\n      0xffffffffffffffffffffffffffffffffffffffff\n      mul\n      not\n      and\n      swap1\n      dup4\n      0xffffffffffffffffffffffffffffffffffffffff\n      and\n      mul\n      or\n      swap1\n      sstore\n      pop\n        /* \"PostNewsContract.sol\":1875:1885  _isRequest */\n      dup1\n        /* \"PostNewsContract.sol\":1848:1862  instanceOfPost */\n      0x00\n        /* \"PostNewsContract.sol\":1848:1872  instanceOfPost.isRequest */\n      0x03\n      add\n      0x00\n        /* \"PostNewsContract.sol\":1848:1885  instanceOfPost.isRequest = _isRequest */\n      0x0100\n      exp\n      dup2\n      sload\n      dup2\n      0xff\n      mul\n      not\n      and\n      swap1\n      dup4\n      iszero\n      iszero\n      mul\n      or\n      swap1\n      sstore\n      pop\n        /* \"PostNewsContract.sol\":1918:1933  block.timestamp */\n      timestamp\n        /* \"PostNewsContract.sol\":1896:1910  instanceOfPost */\n      0x00\n        /* \"PostNewsContract.sol\":1896:1915  instanceOfPost.time */\n      0x04\n      add\n        /* \"PostNewsContract.sol\":1896:1933  instanceOfPost.time = block.timestamp */\n      dup2\n      swap1\n      sstore\n      pop\n        /* \"PostNewsContract.sol\":1973:1985  block.number */\n      number\n        /* \"PostNewsContract.sol\":1944:1958  instanceOfPost */\n      0x00\n        /* \"PostNewsContract.sol\":1944:1970  instanceOfPost.blockNumber */\n      0x05\n      add\n        /* \"PostNewsContract.sol\":1944:1985  instanceOfPost.blockNumber = block.number */\n      dup2\n      swap1\n      sstore\n      pop\n        /* \"PostNewsContract.sol\":2058:2062  true */\n      0x01\n        /* \"PostNewsContract.sol\":2044:2062  _isRequest != true */\n      iszero\n      iszero\n        /* \"PostNewsContract.sol\":2044:2054  _isRequest */\n      dup2\n        /* \"PostNewsContract.sol\":2044:2062  _isRequest != true */\n      iszero\n      iszero\n      eq\n        /* \"PostNewsContract.sol\":2040:3077  if (_isRequest != true) {... */\n      tag_129\n      jumpi\n        /* \"PostNewsContract.sol\":2133:2144  allThePosts */\n      0x06\n        /* \"PostNewsContract.sol\":2150:2164  instanceOfPost */\n      0x00\n        /* \"PostNewsContract.sol\":2133:2165  allThePosts.push(instanceOfPost) */\n      swap1\n      dup1\n      0x01\n      dup2\n      sload\n      add\n      dup1\n      dup3\n      sstore\n      dup1\n      swap2\n      pop\n      pop\n      0x01\n      swap1\n      sub\n      swap1\n      0x00\n      mstore\n      keccak256(0x00, 0x20)\n      swap1\n      0x06\n      mul\n      add\n      0x00\n      swap1\n      swap2\n      swap1\n      swap2\n      swap1\n      swap2\n      pop\n      0x00\n      dup3\n      add\n      dup2\n      0x00\n      add\n      swap1\n      dup2\n      tag_131\n      swap2\n      swap1\n      tag_115\n      jump\t// in\n    tag_131:\n      pop\n      0x01\n      dup3\n      add\n      0x00\n      swap1\n      sload\n      swap1\n      0x0100\n      exp\n      swap1\n      div\n      0xffffffffffffffffffffffffffffffffffffffff\n      and\n      dup2\n      0x01\n      add\n      exp(0x0100, 0x00)\n      dup2\n      sload\n      dup2\n      0xffffffffffffffffffffffffffffffffffffffff\n      mul\n      not\n      and\n      swap1\n      dup4\n      0xffffffffffffffffffffffffffffffffffffffff\n      and\n      mul\n      or\n      swap1\n      sstore\n      pop\n      0x02\n      dup3\n      add\n      dup2\n      0x02\n      add\n      swap1\n      dup1\n      sload\n      tag_132\n      swap3\n      swap2\n      swap1\n      tag_117\n      jump\t// in\n    tag_132:\n      pop\n      0x03\n      dup3\n      add\n      0x00\n      swap1\n      sload\n      swap1\n      0x0100\n      exp\n      swap1\n      div\n      0xff\n      and\n      dup2\n      0x03\n      add\n      exp(0x0100, 0x00)\n      dup2\n      sload\n      dup2\n      0xff\n      mul\n      not\n      and\n      swap1\n      dup4\n      iszero\n      iszero\n      mul\n      or\n      swap1\n      sstore\n      pop\n      0x04\n      dup3\n      add\n      sload\n      dup2\n      0x04\n      add\n      sstore\n      0x05\n      dup3\n      add\n      sload\n      dup2\n      0x05\n      add\n      sstore\n      pop\n      pop\n        /* \"PostNewsContract.sol\":2258:2268  postOfUser */\n      0x07\n        /* \"PostNewsContract.sol\":2258:2282  postOfUser[_postCreator] */\n      0x00\n        /* \"PostNewsContract.sol\":2269:2281  _postCreator */\n      dup5\n        /* \"PostNewsContract.sol\":2258:2282  postOfUser[_postCreator] */\n      0xffffffffffffffffffffffffffffffffffffffff\n      and\n      0xffffffffffffffffffffffffffffffffffffffff\n      and\n      dup2\n      mstore\n      0x20\n      add\n      swap1\n      dup2\n      mstore\n      0x20\n      add\n      0x00\n      keccak256\n        /* \"PostNewsContract.sol\":2288:2302  instanceOfPost */\n      0x00\n        /* \"PostNewsContract.sol\":2258:2303  postOfUser[_postCreator].push(instanceOfPost) */\n      swap1\n      dup1\n      0x01\n      dup2\n      sload\n      add\n      dup1\n      dup3\n      sstore\n      dup1\n      swap2\n      pop\n      pop\n      0x01\n      swap1\n      sub\n      swap1\n      0x00\n      mstore\n      keccak256(0x00, 0x20)\n      swap1\n      0x06\n      mul\n      add\n      0x00\n      swap1\n      swap2\n      swap1\n      swap2\n      swap1\n      swap2\n      pop\n      0x00\n      dup3\n      add\n      dup2\n      0x00\n      add\n      swap1\n      dup2\n      tag_134\n      swap2\n      swap1\n      tag_115\n      jump\t// in\n    tag_134:\n      pop\n      0x01\n      dup3\n      add\n      0x00\n      swap1\n      sload\n      swap1\n      0x0100\n      exp\n      swap1\n      div\n      0xffffffffffffffffffffffffffffffffffffffff\n      and\n      dup2\n      0x01\n      add\n      exp(0x0100, 0x00)\n      dup2\n      sload\n      dup2\n      0xffffffffffffffffffffffffffffffffffffffff\n      mul\n      not\n      and\n      swap1\n      dup4\n      0xffffffffffffffffffffffffffffffffffffffff\n      and\n      mul\n      or\n      swap1\n      sstore\n      pop\n      0x02\n      dup3\n      add\n      dup2\n      0x02\n      add\n      swap1\n      dup1\n      sload\n      tag_135\n      swap3\n      swap2\n      swap1\n      tag_117\n      jump\t// in\n    tag_135:\n      pop\n      0x03\n      dup3\n      add\n      0x00\n      swap1\n      sload\n      swap1\n      0x0100\n      exp\n      swap1\n      div\n      0xff\n      and\n      dup2\n      0x03\n      add\n      exp(0x0100, 0x00)\n      dup2\n      sload\n      dup2\n      0xff\n      mul\n      not\n      and\n      swap1\n      dup4\n      iszero\n      iszero\n      mul\n      or\n      swap1\n      sstore\n      pop\n      0x04\n      dup3\n      add\n      sload\n      dup2\n      0x04\n      add\n      sstore\n      0x05\n      dup3\n      add\n      sload\n      dup2\n      0x05\n      add\n      sstore\n      pop\n      pop\n        /* \"PostNewsContract.sol\":2398:2412  instanceOfPost */\n      0x00\n        /* \"PostNewsContract.sol\":2365:2376  postFromIdx */\n      0x0a\n        /* \"PostNewsContract.sol\":2365:2395  postFromIdx[approvedPostIndex] */\n      0x00\n        /* \"PostNewsContract.sol\":2377:2394  approvedPostIndex */\n      sload(0x0c)\n        /* \"PostNewsContract.sol\":2365:2395  postFromIdx[approvedPostIndex] */\n      dup2\n      mstore\n      0x20\n      add\n      swap1\n      dup2\n      mstore\n      0x20\n      add\n      0x00\n      keccak256\n        /* \"PostNewsContract.sol\":2365:2412  postFromIdx[approvedPostIndex] = instanceOfPost */\n      0x00\n      dup3\n      add\n      dup2\n      0x00\n      add\n      swap1\n      dup2\n      tag_136\n      swap2\n      swap1\n      tag_115\n      jump\t// in\n    tag_136:\n      pop\n      0x01\n      dup3\n      add\n      0x00\n      swap1\n      sload\n      swap1\n      0x0100\n      exp\n      swap1\n      div\n      0xffffffffffffffffffffffffffffffffffffffff\n      and\n      dup2\n      0x01\n      add\n      exp(0x0100, 0x00)\n      dup2\n      sload\n      dup2\n      0xffffffffffffffffffffffffffffffffffffffff\n      mul\n      not\n      and\n      swap1\n      dup4\n      0xffffffffffffffffffffffffffffffffffffffff\n      and\n      mul\n      or\n      swap1\n      sstore\n      pop\n      0x02\n      dup3\n      add\n      dup2\n      0x02\n      add\n      swap1\n      dup1\n      sload\n      tag_137\n      swap3\n      swap2\n      swap1\n      tag_117\n      jump\t// in\n    tag_137:\n      pop\n      0x03\n      dup3\n      add\n      0x00\n      swap1\n      sload\n      swap1\n      0x0100\n      exp\n      swap1\n      div\n      0xff\n      and\n      dup2\n      0x03\n      add\n      exp(0x0100, 0x00)\n      dup2\n      sload\n      dup2\n      0xff\n      mul\n      not\n      and\n      swap1\n      dup4\n      iszero\n      iszero\n      mul\n      or\n      swap1\n      sstore\n      pop\n      0x04\n      dup3\n      add\n      sload\n      dup2\n      0x04\n      add\n      sstore\n      0x05\n      dup3\n      add\n      sload\n      dup2\n      0x05\n      add\n      sstore\n      swap1\n      pop\n      pop\n        /* \"PostNewsContract.sol\":2488:2505  approvedPostIndex */\n      0x0c\n      0x00\n        /* \"PostNewsContract.sol\":2488:2507  approvedPostIndex++ */\n      dup2\n      sload\n      dup1\n      swap3\n      swap2\n      swap1\n      tag_138\n      swap1\n      tag_102\n      jump\t// in\n    tag_138:\n      swap2\n      swap1\n      pop\n      sstore\n      pop\n        /* \"PostNewsContract.sol\":2040:3077  if (_isRequest != true) {... */\n      jump(tag_139)\n    tag_129:\n        /* \"PostNewsContract.sol\":2652:2672  allTheRequestedPosts */\n      0x08\n        /* \"PostNewsContract.sol\":2678:2692  instanceOfPost */\n      0x00\n        /* \"PostNewsContract.sol\":2652:2693  allTheRequestedPosts.push(instanceOfPost) */\n      swap1\n      dup1\n      0x01\n      dup2\n      sload\n      add\n      dup1\n      dup3\n      sstore\n      dup1\n      swap2\n      pop\n      pop\n      0x01\n      swap1\n      sub\n      swap1\n      0x00\n      mstore\n      keccak256(0x00, 0x20)\n      swap1\n      0x06\n      mul\n      add\n      0x00\n      swap1\n      swap2\n      swap1\n      swap2\n      swap1\n      swap2\n      pop\n      0x00\n      dup3\n      add\n      dup2\n      0x00\n      add\n      swap1\n      dup2\n      tag_141\n      swap2\n      swap1\n      tag_115\n      jump\t// in\n    tag_141:\n      pop\n      0x01\n      dup3\n      add\n      0x00\n      swap1\n      sload\n      swap1\n      0x0100\n      exp\n      swap1\n      div\n      0xffffffffffffffffffffffffffffffffffffffff\n      and\n      dup2\n      0x01\n      add\n      exp(0x0100, 0x00)\n      dup2\n      sload\n      dup2\n      0xffffffffffffffffffffffffffffffffffffffff\n      mul\n      not\n      and\n      swap1\n      dup4\n      0xffffffffffffffffffffffffffffffffffffffff\n      and\n      mul\n      or\n      swap1\n      sstore\n      pop\n      0x02\n      dup3\n      add\n      dup2\n      0x02\n      add\n      swap1\n      dup1\n      sload\n      tag_142\n      swap3\n      swap2\n      swap1\n      tag_117\n      jump\t// in\n    tag_142:\n      pop\n      0x03\n      dup3\n      add\n      0x00\n      swap1\n      sload\n      swap1\n      0x0100\n      exp\n      swap1\n      div\n      0xff\n      and\n      dup2\n      0x03\n      add\n      exp(0x0100, 0x00)\n      dup2\n      sload\n      dup2\n      0xff\n      mul\n      not\n      and\n      swap1\n      dup4\n      iszero\n      iszero\n      mul\n      or\n      swap1\n      sstore\n      pop\n      0x04\n      dup3\n      add\n      sload\n      dup2\n      0x04\n      add\n      sstore\n      0x05\n      dup3\n      add\n      sload\n      dup2\n      0x05\n      add\n      sstore\n      pop\n      pop\n        /* \"PostNewsContract.sol\":2796:2816  postOfRequestingUser */\n      0x09\n        /* \"PostNewsContract.sol\":2796:2830  postOfRequestingUser[_postCreator] */\n      0x00\n        /* \"PostNewsContract.sol\":2817:2829  _postCreator */\n      dup5\n        /* \"PostNewsContract.sol\":2796:2830  postOfRequestingUser[_postCreator] */\n      0xffffffffffffffffffffffffffffffffffffffff\n      and\n      0xffffffffffffffffffffffffffffffffffffffff\n      and\n      dup2\n      mstore\n      0x20\n      add\n      swap1\n      dup2\n      mstore\n      0x20\n      add\n      0x00\n      keccak256\n        /* \"PostNewsContract.sol\":2836:2850  instanceOfPost */\n      0x00\n        /* \"PostNewsContract.sol\":2796:2851  postOfRequestingUser[_postCreator].push(instanceOfPost) */\n      swap1\n      dup1\n      0x01\n      dup2\n      sload\n      add\n      dup1\n      dup3\n      sstore\n      dup1\n      swap2\n      pop\n      pop\n      0x01\n      swap1\n      sub\n      swap1\n      0x00\n      mstore\n      keccak256(0x00, 0x20)\n      swap1\n      0x06\n      mul\n      add\n      0x00\n      swap1\n      swap2\n      swap1\n      swap2\n      swap1\n      swap2\n      pop\n      0x00\n      dup3\n      add\n      dup2\n      0x00\n      add\n      swap1\n      dup2\n      tag_144\n      swap2\n      swap1\n      tag_115\n      jump\t// in\n    tag_144:\n      pop\n      0x01\n      dup3\n      add\n      0x00\n      swap1\n      sload\n      swap1\n      0x0100\n      exp\n      swap1\n      div\n      0xffffffffffffffffffffffffffffffffffffffff\n      and\n      dup2\n      0x01\n      add\n      exp(0x0100, 0x00)\n      dup2\n      sload\n      dup2\n      0xffffffffffffffffffffffffffffffffffffffff\n      mul\n      not\n      and\n      swap1\n      dup4\n      0xffffffffffffffffffffffffffffffffffffffff\n      and\n      mul\n      or\n      swap1\n      sstore\n      pop\n      0x02\n      dup3\n      add\n      dup2\n      0x02\n      add\n      swap1\n      dup1\n      sload\n      tag_145\n      swap3\n      swap2\n      swap1\n      tag_117\n      jump\t// in\n    tag_145:\n      pop\n      0x03\n      dup3\n      add\n      0x00\n      swap1\n      sload\n      swap1\n      0x0100\n      exp\n      swap1\n      div\n      0xff\n      and\n      dup2\n      0x03\n      add\n      exp(0x0100, 0x00)\n      dup2\n      sload\n      dup2\n      0xff\n      mul\n      not\n      and\n      swap1\n      dup4\n      iszero\n      iszero\n      mul\n      or\n      swap1\n      sstore\n      pop\n      0x04\n      dup3\n      add\n      sload\n      dup2\n      0x04\n      add\n      sstore\n      0x05\n      dup3\n      add\n      sload\n      dup2\n      0x05\n      add\n      sstore\n      pop\n      pop\n        /* \"PostNewsContract.sol\":2955:2969  instanceOfPost */\n      0x00\n        /* \"PostNewsContract.sol\":2923:2934  postFromIdx */\n      0x0a\n        /* \"PostNewsContract.sol\":2923:2952  postFromIdx[requestPostIndex] */\n      0x00\n        /* \"PostNewsContract.sol\":2935:2951  requestPostIndex */\n      sload(0x0b)\n        /* \"PostNewsContract.sol\":2923:2952  postFromIdx[requestPostIndex] */\n      dup2\n      mstore\n      0x20\n      add\n      swap1\n      dup2\n      mstore\n      0x20\n      add\n      0x00\n      keccak256\n        /* \"PostNewsContract.sol\":2923:2969  postFromIdx[requestPostIndex] = instanceOfPost */\n      0x00\n      dup3\n      add\n      dup2\n      0x00\n      add\n      swap1\n      dup2\n      tag_146\n      swap2\n      swap1\n      tag_115\n      jump\t// in\n    tag_146:\n      pop\n      0x01\n      dup3\n      add\n      0x00\n      swap1\n      sload\n      swap1\n      0x0100\n      exp\n      swap1\n      div\n      0xffffffffffffffffffffffffffffffffffffffff\n      and\n      dup2\n      0x01\n      add\n      exp(0x0100, 0x00)\n      dup2\n      sload\n      dup2\n      0xffffffffffffffffffffffffffffffffffffffff\n      mul\n      not\n      and\n      swap1\n      dup4\n      0xffffffffffffffffffffffffffffffffffffffff\n      and\n      mul\n      or\n      swap1\n      sstore\n      pop\n      0x02\n      dup3\n      add\n      dup2\n      0x02\n      add\n      swap1\n      dup1\n      sload\n      tag_147\n      swap3\n      swap2\n      swap1\n      tag_117\n      jump\t// in\n    tag_147:\n      pop\n      0x03\n      dup3\n      add\n      0x00\n      swap1\n      sload\n      swap1\n      0x0100\n      exp\n      swap1\n      div\n      0xff\n      and\n      dup2\n      0x03\n      add\n      exp(0x0100, 0x00)\n      dup2\n      sload\n      dup2\n      0xff\n      mul\n      not\n      and\n      swap1\n      dup4\n      iszero\n      iszero\n      mul\n      or\n      swap1\n      sstore\n      pop\n      0x04\n      dup3\n      add\n      sload\n      dup2\n      0x04\n      add\n      sstore\n      0x05\n      dup3\n      add\n      sload\n      dup2\n      0x05\n      add\n      sstore\n      swap1\n      pop\n      pop\n        /* \"PostNewsContract.sol\":3047:3063  requestPostIndex */\n      0x0b\n      0x00\n        /* \"PostNewsContract.sol\":3047:3065  requestPostIndex++ */\n      dup2\n      sload\n      dup1\n      swap3\n      swap2\n      swap1\n      tag_148\n      swap1\n      tag_102\n      jump\t// in\n    tag_148:\n      swap2\n      swap1\n      pop\n      sstore\n      pop\n        /* \"PostNewsContract.sol\":2040:3077  if (_isRequest != true) {... */\n    tag_139:\n        /* \"PostNewsContract.sol\":1182:3084  function postNews(... */\n      pop\n      pop\n      pop\n      pop\n      jump\t// out\n        /* \"PostNewsContract.sol\":4262:4436  function reshare(uint256 postIndex) public {... */\n    tag_35:\n        /* \"PostNewsContract.sol\":4316:4338  PostStructure memory p */\n      0x00\n        /* \"PostNewsContract.sol\":4341:4352  allThePosts */\n      0x06\n        /* \"PostNewsContract.sol\":4353:4362  postIndex */\n      dup3\n        /* \"PostNewsContract.sol\":4341:4363  allThePosts[postIndex] */\n      dup2\n      sload\n      dup2\n      lt\n      tag_150\n      jumpi\n      tag_151\n      tag_76\n      jump\t// in\n    tag_151:\n    tag_150:\n      swap1\n      0x00\n      mstore\n      keccak256(0x00, 0x20)\n      swap1\n      0x06\n      mul\n      add\n        /* \"PostNewsContract.sol\":4316:4363  PostStructure memory p = allThePosts[postIndex] */\n      mload(0x40)\n      dup1\n      0xc0\n      add\n      0x40\n      mstore\n      swap1\n      dup2\n      0x00\n      dup3\n      add\n      dup1\n      sload\n      tag_153\n      swap1\n      tag_42\n      jump\t// in\n    tag_153:\n      dup1\n      0x1f\n      add\n      0x20\n      dup1\n      swap2\n      div\n      mul\n      0x20\n      add\n      mload(0x40)\n      swap1\n      dup2\n      add\n      0x40\n      mstore\n      dup1\n      swap3\n      swap2\n      swap1\n      dup2\n      dup2\n      mstore\n      0x20\n      add\n      dup3\n      dup1\n      sload\n      tag_154\n      swap1\n      tag_42\n      jump\t// in\n    tag_154:\n      dup1\n      iszero\n      tag_155\n      jumpi\n      dup1\n      0x1f\n      lt\n      tag_156\n      jumpi\n      0x0100\n      dup1\n      dup4\n      sload\n      div\n      mul\n      dup4\n      mstore\n      swap2\n      0x20\n      add\n      swap2\n      jump(tag_155)\n    tag_156:\n      dup3\n      add\n      swap2\n      swap1\n      0x00\n      mstore\n      keccak256(0x00, 0x20)\n      swap1\n    tag_157:\n      dup2\n      sload\n      dup2\n      mstore\n      swap1\n      0x01\n      add\n      swap1\n      0x20\n      add\n      dup1\n      dup4\n      gt\n      tag_157\n      jumpi\n      dup3\n      swap1\n      sub\n      0x1f\n      and\n      dup3\n      add\n      swap2\n    tag_155:\n      pop\n      pop\n      pop\n      pop\n      pop\n      dup2\n      mstore\n      0x20\n      add\n      0x01\n      dup3\n      add\n      0x00\n      swap1\n      sload\n      swap1\n      0x0100\n      exp\n      swap1\n      div\n      0xffffffffffffffffffffffffffffffffffffffff\n      and\n      0xffffffffffffffffffffffffffffffffffffffff\n      and\n      0xffffffffffffffffffffffffffffffffffffffff\n      and\n      dup2\n      mstore\n      0x20\n      add\n      0x02\n      dup3\n      add\n      dup1\n      sload\n      dup1\n      0x20\n      mul\n      0x20\n      add\n      mload(0x40)\n      swap1\n      dup2\n      add\n      0x40\n      mstore\n      dup1\n      swap3\n      swap2\n      swap1\n      dup2\n      dup2\n      mstore\n      0x20\n      add\n      dup3\n      dup1\n      sload\n      dup1\n      iszero\n      tag_158\n      jumpi\n      0x20\n      mul\n      dup3\n      add\n      swap2\n      swap1\n      0x00\n      mstore\n      keccak256(0x00, 0x20)\n      swap1\n    tag_159:\n      dup2\n      0x00\n      swap1\n      sload\n      swap1\n      0x0100\n      exp\n      swap1\n      div\n      0xffffffffffffffffffffffffffffffffffffffff\n      and\n      0xffffffffffffffffffffffffffffffffffffffff\n      and\n      dup2\n      mstore\n      0x20\n      add\n      swap1\n      0x01\n      add\n      swap1\n      dup1\n      dup4\n      gt\n      tag_159\n      jumpi\n    tag_158:\n      pop\n      pop\n      pop\n      pop\n      pop\n      dup2\n      mstore\n      0x20\n      add\n      0x03\n      dup3\n      add\n      0x00\n      swap1\n      sload\n      swap1\n      0x0100\n      exp\n      swap1\n      div\n      0xff\n      and\n      iszero\n      iszero\n      iszero\n      iszero\n      dup2\n      mstore\n      0x20\n      add\n      0x04\n      dup3\n      add\n      sload\n      dup2\n      mstore\n      0x20\n      add\n      0x05\n      dup3\n      add\n      sload\n      dup2\n      mstore\n      pop\n      pop\n      swap1\n      pop\n        /* \"PostNewsContract.sol\":4374:4428  postNews(p.postHash, p.postCreator, msg.sender, false) */\n      tag_160\n        /* \"PostNewsContract.sol\":4383:4384  p */\n      dup2\n        /* \"PostNewsContract.sol\":4383:4393  p.postHash */\n      0x00\n      add\n      mload\n        /* \"PostNewsContract.sol\":4395:4396  p */\n      dup3\n        /* \"PostNewsContract.sol\":4395:4408  p.postCreator */\n      0x20\n      add\n      mload\n        /* \"PostNewsContract.sol\":4410:4420  msg.sender */\n      caller\n        /* \"PostNewsContract.sol\":4422:4427  false */\n      0x00\n        /* \"PostNewsContract.sol\":4374:4382  postNews */\n      tag_32\n        /* \"PostNewsContract.sol\":4374:4428  postNews(p.postHash, p.postCreator, msg.sender, false) */\n      jump\t// in\n    tag_160:\n        /* \"PostNewsContract.sol\":4305:4436  {... */\n      pop\n        /* \"PostNewsContract.sol\":4262:4436  function reshare(uint256 postIndex) public {... */\n      pop\n      jump\t// out\n    tag_72:\n      mload(0x40)\n      dup1\n      0xc0\n      add\n      0x40\n      mstore\n      dup1\n      0x60\n      dup2\n      mstore\n      0x20\n      add\n      and(0xffffffffffffffffffffffffffffffffffffffff, 0x00)\n      dup2\n      mstore\n      0x20\n      add\n      0x60\n      dup2\n      mstore\n      0x20\n      add\n      iszero(iszero(0x00))\n      dup2\n      mstore\n      0x20\n      add\n      0x00\n      dup2\n      mstore\n      0x20\n      add\n      0x00\n      dup2\n      mstore\n      pop\n      swap1\n      jump\t// out\n    tag_100:\n      dup3\n      dup1\n      sload\n      dup3\n      dup3\n      sstore\n      swap1\n      0x00\n      mstore\n      keccak256(0x00, 0x20)\n      swap1\n      dup2\n      add\n      swap3\n      dup3\n      iszero\n      tag_161\n      jumpi\n      swap2\n      0x20\n      mul\n      dup3\n      add\n    tag_162:\n      dup3\n      dup2\n      gt\n      iszero\n      tag_163\n      jumpi\n      dup3\n      mload\n      dup3\n      exp(0x0100, 0x00)\n      dup2\n      sload\n      dup2\n      0xffffffffffffffffffffffffffffffffffffffff\n      mul\n      not\n      and\n      swap1\n      dup4\n      0xffffffffffffffffffffffffffffffffffffffff\n      and\n      mul\n      or\n      swap1\n      sstore\n      pop\n      swap2\n      0x20\n      add\n      swap2\n      swap1\n      0x01\n      add\n      swap1\n      jump(tag_162)\n    tag_163:\n    tag_161:\n      pop\n      swap1\n      pop\n      tag_164\n      swap2\n      swap1\n      tag_165\n      jump\t// in\n    tag_164:\n      pop\n      swap1\n      jump\t// out\n    tag_117:\n      dup3\n      dup1\n      sload\n      dup3\n      dup3\n      sstore\n      swap1\n      0x00\n      mstore\n      keccak256(0x00, 0x20)\n      swap1\n      dup2\n      add\n      swap3\n      dup3\n      iszero\n      tag_166\n      jumpi\n      0x00\n      mstore\n      keccak256(0x00, 0x20)\n      swap2\n      dup3\n      add\n    tag_167:\n      dup3\n      dup2\n      gt\n      iszero\n      tag_168\n      jumpi\n      dup3\n      sload\n      dup3\n      sstore\n      swap2\n      0x01\n      add\n      swap2\n      swap1\n      0x01\n      add\n      swap1\n      jump(tag_167)\n    tag_168:\n    tag_166:\n      pop\n      swap1\n      pop\n      tag_169\n      swap2\n      swap1\n      tag_165\n      jump\t// in\n    tag_169:\n      pop\n      swap1\n      jump\t// out\n    tag_123:\n      pop\n      dup1\n      sload\n      tag_170\n      swap1\n      tag_42\n      jump\t// in\n    tag_170:\n      0x00\n      dup3\n      sstore\n      dup1\n      0x1f\n      lt\n      tag_172\n      jumpi\n      pop\n      jump(tag_171)\n    tag_172:\n      0x1f\n      add\n      0x20\n      swap1\n      div\n      swap1\n      0x00\n      mstore\n      keccak256(0x00, 0x20)\n      swap1\n      dup2\n      add\n      swap1\n      tag_173\n      swap2\n      swap1\n      tag_165\n      jump\t// in\n    tag_173:\n    tag_171:\n      pop\n      jump\t// out\n    tag_125:\n      pop\n      dup1\n      sload\n      0x00\n      dup3\n      sstore\n      swap1\n      0x00\n      mstore\n      keccak256(0x00, 0x20)\n      swap1\n      dup2\n      add\n      swap1\n      tag_175\n      swap2\n      swap1\n      tag_165\n      jump\t// in\n    tag_175:\n      pop\n      jump\t// out\n    tag_165:\n    tag_176:\n      dup1\n      dup3\n      gt\n      iszero\n      tag_177\n      jumpi\n      0x00\n      dup2\n      0x00\n      swap1\n      sstore\n      pop\n      0x01\n      add\n      jump(tag_176)\n    tag_177:\n      pop\n      swap1\n      jump\t// out\n        /* \"#utility.yul\":7:82   */\n    tag_178:\n        /* \"#utility.yul\":40:46   */\n      0x00\n        /* \"#utility.yul\":73:75   */\n      0x40\n        /* \"#utility.yul\":67:76   */\n      mload\n        /* \"#utility.yul\":57:76   */\n      swap1\n      pop\n        /* \"#utility.yul\":7:82   */\n      swap1\n      jump\t// out\n        /* \"#utility.yul\":88:205   */\n    tag_179:\n        /* \"#utility.yul\":197:198   */\n      0x00\n        /* \"#utility.yul\":194:195   */\n      dup1\n        /* \"#utility.yul\":187:199   */\n      revert\n        /* \"#utility.yul\":211:328   */\n    tag_180:\n        /* \"#utility.yul\":320:321   */\n      0x00\n        /* \"#utility.yul\":317:318   */\n      dup1\n        /* \"#utility.yul\":310:322   */\n      revert\n        /* \"#utility.yul\":334:424   */\n    tag_181:\n        /* \"#utility.yul\":368:375   */\n      0x00\n        /* \"#utility.yul\":411:416   */\n      dup2\n        /* \"#utility.yul\":404:417   */\n      iszero\n        /* \"#utility.yul\":397:418   */\n      iszero\n        /* \"#utility.yul\":386:418   */\n      swap1\n      pop\n        /* \"#utility.yul\":334:424   */\n      swap2\n      swap1\n      pop\n      jump\t// out\n        /* \"#utility.yul\":430:546   */\n    tag_182:\n        /* \"#utility.yul\":500:521   */\n      tag_246\n        /* \"#utility.yul\":515:520   */\n      dup2\n        /* \"#utility.yul\":500:521   */\n      tag_181\n      jump\t// in\n    tag_246:\n        /* \"#utility.yul\":493:498   */\n      dup2\n        /* \"#utility.yul\":490:522   */\n      eq\n        /* \"#utility.yul\":480:540   */\n      tag_247\n      jumpi\n        /* \"#utility.yul\":536:537   */\n      0x00\n        /* \"#utility.yul\":533:534   */\n      dup1\n        /* \"#utility.yul\":526:538   */\n      revert\n        /* \"#utility.yul\":480:540   */\n    tag_247:\n        /* \"#utility.yul\":430:546   */\n      pop\n      jump\t// out\n        /* \"#utility.yul\":552:685   */\n    tag_183:\n        /* \"#utility.yul\":595:600   */\n      0x00\n        /* \"#utility.yul\":633:639   */\n      dup2\n        /* \"#utility.yul\":620:640   */\n      calldataload\n        /* \"#utility.yul\":611:640   */\n      swap1\n      pop\n        /* \"#utility.yul\":649:679   */\n      tag_249\n        /* \"#utility.yul\":673:678   */\n      dup2\n        /* \"#utility.yul\":649:679   */\n      tag_182\n      jump\t// in\n    tag_249:\n        /* \"#utility.yul\":552:685   */\n      swap3\n      swap2\n      pop\n      pop\n      jump\t// out\n        /* \"#utility.yul\":691:1014   */\n    tag_11:\n        /* \"#utility.yul\":747:753   */\n      0x00\n        /* \"#utility.yul\":796:798   */\n      0x20\n        /* \"#utility.yul\":784:793   */\n      dup3\n        /* \"#utility.yul\":775:782   */\n      dup5\n        /* \"#utility.yul\":771:794   */\n      sub\n        /* \"#utility.yul\":767:799   */\n      slt\n        /* \"#utility.yul\":764:883   */\n      iszero\n      tag_251\n      jumpi\n        /* \"#utility.yul\":802:881   */\n      tag_252\n      tag_179\n      jump\t// in\n    tag_252:\n        /* \"#utility.yul\":764:883   */\n    tag_251:\n        /* \"#utility.yul\":922:923   */\n      0x00\n        /* \"#utility.yul\":947:997   */\n      tag_253\n        /* \"#utility.yul\":989:996   */\n      dup5\n        /* \"#utility.yul\":980:986   */\n      dup3\n        /* \"#utility.yul\":969:978   */\n      dup6\n        /* \"#utility.yul\":965:987   */\n      add\n        /* \"#utility.yul\":947:997   */\n      tag_183\n      jump\t// in\n    tag_253:\n        /* \"#utility.yul\":937:997   */\n      swap2\n      pop\n        /* \"#utility.yul\":893:1007   */\n      pop\n        /* \"#utility.yul\":691:1014   */\n      swap3\n      swap2\n      pop\n      pop\n      jump\t// out\n        /* \"#utility.yul\":1020:1163   */\n    tag_184:\n        /* \"#utility.yul\":1116:1122   */\n      0x00\n        /* \"#utility.yul\":1150:1155   */\n      dup2\n        /* \"#utility.yul\":1144:1156   */\n      mload\n        /* \"#utility.yul\":1134:1156   */\n      swap1\n      pop\n        /* \"#utility.yul\":1020:1163   */\n      swap2\n      swap1\n      pop\n      jump\t// out\n        /* \"#utility.yul\":1169:1382   */\n    tag_185:\n        /* \"#utility.yul\":1297:1308   */\n      0x00\n        /* \"#utility.yul\":1331:1337   */\n      dup3\n        /* \"#utility.yul\":1326:1329   */\n      dup3\n        /* \"#utility.yul\":1319:1338   */\n      mstore\n        /* \"#utility.yul\":1371:1375   */\n      0x20\n        /* \"#utility.yul\":1366:1369   */\n      dup3\n        /* \"#utility.yul\":1362:1376   */\n      add\n        /* \"#utility.yul\":1347:1376   */\n      swap1\n      pop\n        /* \"#utility.yul\":1169:1382   */\n      swap3\n      swap2\n      pop\n      pop\n      jump\t// out\n        /* \"#utility.yul\":1388:1549   */\n    tag_186:\n        /* \"#utility.yul\":1484:1488   */\n      0x00\n        /* \"#utility.yul\":1507:1510   */\n      dup2\n        /* \"#utility.yul\":1499:1510   */\n      swap1\n      pop\n        /* \"#utility.yul\":1537:1541   */\n      0x20\n        /* \"#utility.yul\":1532:1535   */\n      dup3\n        /* \"#utility.yul\":1528:1542   */\n      add\n        /* \"#utility.yul\":1520:1542   */\n      swap1\n      pop\n        /* \"#utility.yul\":1388:1549   */\n      swap2\n      swap1\n      pop\n      jump\t// out\n        /* \"#utility.yul\":1555:1654   */\n    tag_187:\n        /* \"#utility.yul\":1607:1613   */\n      0x00\n        /* \"#utility.yul\":1641:1646   */\n      dup2\n        /* \"#utility.yul\":1635:1647   */\n      mload\n        /* \"#utility.yul\":1625:1647   */\n      swap1\n      pop\n        /* \"#utility.yul\":1555:1654   */\n      swap2\n      swap1\n      pop\n      jump\t// out\n        /* \"#utility.yul\":1660:1819   */\n    tag_188:\n        /* \"#utility.yul\":1734:1745   */\n      0x00\n        /* \"#utility.yul\":1768:1774   */\n      dup3\n        /* \"#utility.yul\":1763:1766   */\n      dup3\n        /* \"#utility.yul\":1756:1775   */\n      mstore\n        /* \"#utility.yul\":1808:1812   */\n      0x20\n        /* \"#utility.yul\":1803:1806   */\n      dup3\n        /* \"#utility.yul\":1799:1813   */\n      add\n        /* \"#utility.yul\":1784:1813   */\n      swap1\n      pop\n        /* \"#utility.yul\":1660:1819   */\n      swap3\n      swap2\n      pop\n      pop\n      jump\t// out\n        /* \"#utility.yul\":1825:2071   */\n    tag_189:\n        /* \"#utility.yul\":1906:1907   */\n      0x00\n        /* \"#utility.yul\":1916:2029   */\n    tag_260:\n        /* \"#utility.yul\":1930:1936   */\n      dup4\n        /* \"#utility.yul\":1927:1928   */\n      dup2\n        /* \"#utility.yul\":1924:1937   */\n      lt\n        /* \"#utility.yul\":1916:2029   */\n      iszero\n      tag_262\n      jumpi\n        /* \"#utility.yul\":2015:2016   */\n      dup1\n        /* \"#utility.yul\":2010:2013   */\n      dup3\n        /* \"#utility.yul\":2006:2017   */\n      add\n        /* \"#utility.yul\":2000:2018   */\n      mload\n        /* \"#utility.yul\":1996:1997   */\n      dup2\n        /* \"#utility.yul\":1991:1994   */\n      dup5\n        /* \"#utility.yul\":1987:1998   */\n      add\n        /* \"#utility.yul\":1980:2019   */\n      mstore\n        /* \"#utility.yul\":1952:1954   */\n      0x20\n        /* \"#utility.yul\":1949:1950   */\n      dup2\n        /* \"#utility.yul\":1945:1955   */\n      add\n        /* \"#utility.yul\":1940:1955   */\n      swap1\n      pop\n        /* \"#utility.yul\":1916:2029   */\n      jump(tag_260)\n    tag_262:\n        /* \"#utility.yul\":2063:2064   */\n      0x00\n        /* \"#utility.yul\":2054:2060   */\n      dup5\n        /* \"#utility.yul\":2049:2052   */\n      dup5\n        /* \"#utility.yul\":2045:2061   */\n      add\n        /* \"#utility.yul\":2038:2065   */\n      mstore\n        /* \"#utility.yul\":1887:2071   */\n      pop\n        /* \"#utility.yul\":1825:2071   */\n      pop\n      pop\n      pop\n      jump\t// out\n        /* \"#utility.yul\":2077:2179   */\n    tag_190:\n        /* \"#utility.yul\":2118:2124   */\n      0x00\n        /* \"#utility.yul\":2169:2171   */\n      0x1f\n        /* \"#utility.yul\":2165:2172   */\n      not\n        /* \"#utility.yul\":2160:2162   */\n      0x1f\n        /* \"#utility.yul\":2153:2158   */\n      dup4\n        /* \"#utility.yul\":2149:2163   */\n      add\n        /* \"#utility.yul\":2145:2173   */\n      and\n        /* \"#utility.yul\":2135:2173   */\n      swap1\n      pop\n        /* \"#utility.yul\":2077:2179   */\n      swap2\n      swap1\n      pop\n      jump\t// out\n        /* \"#utility.yul\":2185:2542   */\n    tag_191:\n        /* \"#utility.yul\":2263:2266   */\n      0x00\n        /* \"#utility.yul\":2291:2330   */\n      tag_265\n        /* \"#utility.yul\":2324:2329   */\n      dup3\n        /* \"#utility.yul\":2291:2330   */\n      tag_187\n      jump\t// in\n    tag_265:\n        /* \"#utility.yul\":2346:2407   */\n      tag_266\n        /* \"#utility.yul\":2400:2406   */\n      dup2\n        /* \"#utility.yul\":2395:2398   */\n      dup6\n        /* \"#utility.yul\":2346:2407   */\n      tag_188\n      jump\t// in\n    tag_266:\n        /* \"#utility.yul\":2339:2407   */\n      swap4\n      pop\n        /* \"#utility.yul\":2416:2481   */\n      tag_267\n        /* \"#utility.yul\":2474:2480   */\n      dup2\n        /* \"#utility.yul\":2469:2472   */\n      dup6\n        /* \"#utility.yul\":2462:2466   */\n      0x20\n        /* \"#utility.yul\":2455:2460   */\n      dup7\n        /* \"#utility.yul\":2451:2467   */\n      add\n        /* \"#utility.yul\":2416:2481   */\n      tag_189\n      jump\t// in\n    tag_267:\n        /* \"#utility.yul\":2506:2535   */\n      tag_268\n        /* \"#utility.yul\":2528:2534   */\n      dup2\n        /* \"#utility.yul\":2506:2535   */\n      tag_190\n      jump\t// in\n    tag_268:\n        /* \"#utility.yul\":2501:2504   */\n      dup5\n        /* \"#utility.yul\":2497:2536   */\n      add\n        /* \"#utility.yul\":2490:2536   */\n      swap2\n      pop\n        /* \"#utility.yul\":2267:2542   */\n      pop\n        /* \"#utility.yul\":2185:2542   */\n      swap3\n      swap2\n      pop\n      pop\n      jump\t// out\n        /* \"#utility.yul\":2548:2674   */\n    tag_192:\n        /* \"#utility.yul\":2585:2592   */\n      0x00\n        /* \"#utility.yul\":2625:2667   */\n      0xffffffffffffffffffffffffffffffffffffffff\n        /* \"#utility.yul\":2618:2623   */\n      dup3\n        /* \"#utility.yul\":2614:2668   */\n      and\n        /* \"#utility.yul\":2603:2668   */\n      swap1\n      pop\n        /* \"#utility.yul\":2548:2674   */\n      swap2\n      swap1\n      pop\n      jump\t// out\n        /* \"#utility.yul\":2680:2776   */\n    tag_193:\n        /* \"#utility.yul\":2717:2724   */\n      0x00\n        /* \"#utility.yul\":2746:2770   */\n      tag_271\n        /* \"#utility.yul\":2764:2769   */\n      dup3\n        /* \"#utility.yul\":2746:2770   */\n      tag_192\n      jump\t// in\n    tag_271:\n        /* \"#utility.yul\":2735:2770   */\n      swap1\n      pop\n        /* \"#utility.yul\":2680:2776   */\n      swap2\n      swap1\n      pop\n      jump\t// out\n        /* \"#utility.yul\":2782:2890   */\n    tag_194:\n        /* \"#utility.yul\":2859:2883   */\n      tag_273\n        /* \"#utility.yul\":2877:2882   */\n      dup2\n        /* \"#utility.yul\":2859:2883   */\n      tag_193\n      jump\t// in\n    tag_273:\n        /* \"#utility.yul\":2854:2857   */\n      dup3\n        /* \"#utility.yul\":2847:2884   */\n      mstore\n        /* \"#utility.yul\":2782:2890   */\n      pop\n      pop\n      jump\t// out\n        /* \"#utility.yul\":2896:3010   */\n    tag_195:\n        /* \"#utility.yul\":2963:2969   */\n      0x00\n        /* \"#utility.yul\":2997:3002   */\n      dup2\n        /* \"#utility.yul\":2991:3003   */\n      mload\n        /* \"#utility.yul\":2981:3003   */\n      swap1\n      pop\n        /* \"#utility.yul\":2896:3010   */\n      swap2\n      swap1\n      pop\n      jump\t// out\n        /* \"#utility.yul\":3016:3190   */\n    tag_196:\n        /* \"#utility.yul\":3105:3116   */\n      0x00\n        /* \"#utility.yul\":3139:3145   */\n      dup3\n        /* \"#utility.yul\":3134:3137   */\n      dup3\n        /* \"#utility.yul\":3127:3146   */\n      mstore\n        /* \"#utility.yul\":3179:3183   */\n      0x20\n        /* \"#utility.yul\":3174:3177   */\n      dup3\n        /* \"#utility.yul\":3170:3184   */\n      add\n        /* \"#utility.yul\":3155:3184   */\n      swap1\n      pop\n        /* \"#utility.yul\":3016:3190   */\n      swap3\n      swap2\n      pop\n      pop\n      jump\t// out\n        /* \"#utility.yul\":3196:3328   */\n    tag_197:\n        /* \"#utility.yul\":3263:3267   */\n      0x00\n        /* \"#utility.yul\":3286:3289   */\n      dup2\n        /* \"#utility.yul\":3278:3289   */\n      swap1\n      pop\n        /* \"#utility.yul\":3316:3320   */\n      0x20\n        /* \"#utility.yul\":3311:3314   */\n      dup3\n        /* \"#utility.yul\":3307:3321   */\n      add\n        /* \"#utility.yul\":3299:3321   */\n      swap1\n      pop\n        /* \"#utility.yul\":3196:3328   */\n      swap2\n      swap1\n      pop\n      jump\t// out\n        /* \"#utility.yul\":3334:3513   */\n    tag_198:\n        /* \"#utility.yul\":3403:3413   */\n      0x00\n        /* \"#utility.yul\":3424:3470   */\n      tag_278\n        /* \"#utility.yul\":3466:3469   */\n      dup4\n        /* \"#utility.yul\":3458:3464   */\n      dup4\n        /* \"#utility.yul\":3424:3470   */\n      tag_194\n      jump\t// in\n    tag_278:\n        /* \"#utility.yul\":3502:3506   */\n      0x20\n        /* \"#utility.yul\":3497:3500   */\n      dup4\n        /* \"#utility.yul\":3493:3507   */\n      add\n        /* \"#utility.yul\":3479:3507   */\n      swap1\n      pop\n        /* \"#utility.yul\":3334:3513   */\n      swap3\n      swap2\n      pop\n      pop\n      jump\t// out\n        /* \"#utility.yul\":3519:3632   */\n    tag_199:\n        /* \"#utility.yul\":3589:3593   */\n      0x00\n        /* \"#utility.yul\":3621:3625   */\n      0x20\n        /* \"#utility.yul\":3616:3619   */\n      dup3\n        /* \"#utility.yul\":3612:3626   */\n      add\n        /* \"#utility.yul\":3604:3626   */\n      swap1\n      pop\n        /* \"#utility.yul\":3519:3632   */\n      swap2\n      swap1\n      pop\n      jump\t// out\n        /* \"#utility.yul\":3668:4380   */\n    tag_200:\n        /* \"#utility.yul\":3777:3780   */\n      0x00\n        /* \"#utility.yul\":3806:3860   */\n      tag_281\n        /* \"#utility.yul\":3854:3859   */\n      dup3\n        /* \"#utility.yul\":3806:3860   */\n      tag_195\n      jump\t// in\n    tag_281:\n        /* \"#utility.yul\":3876:3952   */\n      tag_282\n        /* \"#utility.yul\":3945:3951   */\n      dup2\n        /* \"#utility.yul\":3940:3943   */\n      dup6\n        /* \"#utility.yul\":3876:3952   */\n      tag_196\n      jump\t// in\n    tag_282:\n        /* \"#utility.yul\":3869:3952   */\n      swap4\n      pop\n        /* \"#utility.yul\":3976:4032   */\n      tag_283\n        /* \"#utility.yul\":4026:4031   */\n      dup4\n        /* \"#utility.yul\":3976:4032   */\n      tag_197\n      jump\t// in\n    tag_283:\n        /* \"#utility.yul\":4055:4062   */\n      dup1\n        /* \"#utility.yul\":4086:4087   */\n      0x00\n        /* \"#utility.yul\":4071:4355   */\n    tag_284:\n        /* \"#utility.yul\":4096:4102   */\n      dup4\n        /* \"#utility.yul\":4093:4094   */\n      dup2\n        /* \"#utility.yul\":4090:4103   */\n      lt\n        /* \"#utility.yul\":4071:4355   */\n      iszero\n      tag_286\n      jumpi\n        /* \"#utility.yul\":4172:4178   */\n      dup2\n        /* \"#utility.yul\":4166:4179   */\n      mload\n        /* \"#utility.yul\":4199:4262   */\n      tag_287\n        /* \"#utility.yul\":4258:4261   */\n      dup9\n        /* \"#utility.yul\":4243:4256   */\n      dup3\n        /* \"#utility.yul\":4199:4262   */\n      tag_198\n      jump\t// in\n    tag_287:\n        /* \"#utility.yul\":4192:4262   */\n      swap8\n      pop\n        /* \"#utility.yul\":4285:4345   */\n      tag_288\n        /* \"#utility.yul\":4338:4344   */\n      dup4\n        /* \"#utility.yul\":4285:4345   */\n      tag_199\n      jump\t// in\n    tag_288:\n        /* \"#utility.yul\":4275:4345   */\n      swap3\n      pop\n        /* \"#utility.yul\":4131:4355   */\n      pop\n        /* \"#utility.yul\":4118:4119   */\n      0x01\n        /* \"#utility.yul\":4115:4116   */\n      dup2\n        /* \"#utility.yul\":4111:4120   */\n      add\n        /* \"#utility.yul\":4106:4120   */\n      swap1\n      pop\n        /* \"#utility.yul\":4071:4355   */\n      jump(tag_284)\n    tag_286:\n        /* \"#utility.yul\":4075:4089   */\n      pop\n        /* \"#utility.yul\":4371:4374   */\n      dup6\n        /* \"#utility.yul\":4364:4374   */\n      swap4\n      pop\n        /* \"#utility.yul\":3782:4380   */\n      pop\n      pop\n      pop\n        /* \"#utility.yul\":3668:4380   */\n      swap3\n      swap2\n      pop\n      pop\n      jump\t// out\n        /* \"#utility.yul\":4386:4485   */\n    tag_201:\n        /* \"#utility.yul\":4457:4478   */\n      tag_290\n        /* \"#utility.yul\":4472:4477   */\n      dup2\n        /* \"#utility.yul\":4457:4478   */\n      tag_181\n      jump\t// in\n    tag_290:\n        /* \"#utility.yul\":4452:4455   */\n      dup3\n        /* \"#utility.yul\":4445:4479   */\n      mstore\n        /* \"#utility.yul\":4386:4485   */\n      pop\n      pop\n      jump\t// out\n        /* \"#utility.yul\":4491:4568   */\n    tag_202:\n        /* \"#utility.yul\":4528:4535   */\n      0x00\n        /* \"#utility.yul\":4557:4562   */\n      dup2\n        /* \"#utility.yul\":4546:4562   */\n      swap1\n      pop\n        /* \"#utility.yul\":4491:4568   */\n      swap2\n      swap1\n      pop\n      jump\t// out\n        /* \"#utility.yul\":4574:4682   */\n    tag_203:\n        /* \"#utility.yul\":4651:4675   */\n      tag_293\n        /* \"#utility.yul\":4669:4674   */\n      dup2\n        /* \"#utility.yul\":4651:4675   */\n      tag_202\n      jump\t// in\n    tag_293:\n        /* \"#utility.yul\":4646:4649   */\n      dup3\n        /* \"#utility.yul\":4639:4676   */\n      mstore\n        /* \"#utility.yul\":4574:4682   */\n      pop\n      pop\n      jump\t// out\n        /* \"#utility.yul\":4774:6196   */\n    tag_204:\n        /* \"#utility.yul\":4891:4894   */\n      0x00\n        /* \"#utility.yul\":4927:4931   */\n      0xc0\n        /* \"#utility.yul\":4922:4925   */\n      dup4\n        /* \"#utility.yul\":4918:4932   */\n      add\n        /* \"#utility.yul\":5018:5022   */\n      0x00\n        /* \"#utility.yul\":5011:5016   */\n      dup4\n        /* \"#utility.yul\":5007:5023   */\n      add\n        /* \"#utility.yul\":5001:5024   */\n      mload\n        /* \"#utility.yul\":5071:5074   */\n      dup5\n        /* \"#utility.yul\":5065:5069   */\n      dup3\n        /* \"#utility.yul\":5061:5075   */\n      sub\n        /* \"#utility.yul\":5054:5058   */\n      0x00\n        /* \"#utility.yul\":5049:5052   */\n      dup7\n        /* \"#utility.yul\":5045:5059   */\n      add\n        /* \"#utility.yul\":5038:5076   */\n      mstore\n        /* \"#utility.yul\":5097:5170   */\n      tag_295\n        /* \"#utility.yul\":5165:5169   */\n      dup3\n        /* \"#utility.yul\":5151:5163   */\n      dup3\n        /* \"#utility.yul\":5097:5170   */\n      tag_191\n      jump\t// in\n    tag_295:\n        /* \"#utility.yul\":5089:5170   */\n      swap2\n      pop\n        /* \"#utility.yul\":4942:5181   */\n      pop\n        /* \"#utility.yul\":5270:5274   */\n      0x20\n        /* \"#utility.yul\":5263:5268   */\n      dup4\n        /* \"#utility.yul\":5259:5275   */\n      add\n        /* \"#utility.yul\":5253:5276   */\n      mload\n        /* \"#utility.yul\":5289:5352   */\n      tag_296\n        /* \"#utility.yul\":5346:5350   */\n      0x20\n        /* \"#utility.yul\":5341:5344   */\n      dup7\n        /* \"#utility.yul\":5337:5351   */\n      add\n        /* \"#utility.yul\":5323:5335   */\n      dup3\n        /* \"#utility.yul\":5289:5352   */\n      tag_194\n      jump\t// in\n    tag_296:\n        /* \"#utility.yul\":5191:5362   */\n      pop\n        /* \"#utility.yul\":5448:5452   */\n      0x40\n        /* \"#utility.yul\":5441:5446   */\n      dup4\n        /* \"#utility.yul\":5437:5453   */\n      add\n        /* \"#utility.yul\":5431:5454   */\n      mload\n        /* \"#utility.yul\":5501:5504   */\n      dup5\n        /* \"#utility.yul\":5495:5499   */\n      dup3\n        /* \"#utility.yul\":5491:5505   */\n      sub\n        /* \"#utility.yul\":5484:5488   */\n      0x40\n        /* \"#utility.yul\":5479:5482   */\n      dup7\n        /* \"#utility.yul\":5475:5489   */\n      add\n        /* \"#utility.yul\":5468:5506   */\n      mstore\n        /* \"#utility.yul\":5527:5630   */\n      tag_297\n        /* \"#utility.yul\":5625:5629   */\n      dup3\n        /* \"#utility.yul\":5611:5623   */\n      dup3\n        /* \"#utility.yul\":5527:5630   */\n      tag_200\n      jump\t// in\n    tag_297:\n        /* \"#utility.yul\":5519:5630   */\n      swap2\n      pop\n        /* \"#utility.yul\":5372:5641   */\n      pop\n        /* \"#utility.yul\":5728:5732   */\n      0x60\n        /* \"#utility.yul\":5721:5726   */\n      dup4\n        /* \"#utility.yul\":5717:5733   */\n      add\n        /* \"#utility.yul\":5711:5734   */\n      mload\n        /* \"#utility.yul\":5747:5804   */\n      tag_298\n        /* \"#utility.yul\":5798:5802   */\n      0x60\n        /* \"#utility.yul\":5793:5796   */\n      dup7\n        /* \"#utility.yul\":5789:5803   */\n      add\n        /* \"#utility.yul\":5775:5787   */\n      dup3\n        /* \"#utility.yul\":5747:5804   */\n      tag_201\n      jump\t// in\n    tag_298:\n        /* \"#utility.yul\":5651:5814   */\n      pop\n        /* \"#utility.yul\":5896:5900   */\n      0x80\n        /* \"#utility.yul\":5889:5894   */\n      dup4\n        /* \"#utility.yul\":5885:5901   */\n      add\n        /* \"#utility.yul\":5879:5902   */\n      mload\n        /* \"#utility.yul\":5915:5978   */\n      tag_299\n        /* \"#utility.yul\":5972:5976   */\n      0x80\n        /* \"#utility.yul\":5967:5970   */\n      dup7\n        /* \"#utility.yul\":5963:5977   */\n      add\n        /* \"#utility.yul\":5949:5961   */\n      dup3\n        /* \"#utility.yul\":5915:5978   */\n      tag_203\n      jump\t// in\n    tag_299:\n        /* \"#utility.yul\":5824:5988   */\n      pop\n        /* \"#utility.yul\":6077:6081   */\n      0xa0\n        /* \"#utility.yul\":6070:6075   */\n      dup4\n        /* \"#utility.yul\":6066:6082   */\n      add\n        /* \"#utility.yul\":6060:6083   */\n      mload\n        /* \"#utility.yul\":6096:6159   */\n      tag_300\n        /* \"#utility.yul\":6153:6157   */\n      0xa0\n        /* \"#utility.yul\":6148:6151   */\n      dup7\n        /* \"#utility.yul\":6144:6158   */\n      add\n        /* \"#utility.yul\":6130:6142   */\n      dup3\n        /* \"#utility.yul\":6096:6159   */\n      tag_203\n      jump\t// in\n    tag_300:\n        /* \"#utility.yul\":5998:6169   */\n      pop\n        /* \"#utility.yul\":6186:6190   */\n      dup1\n        /* \"#utility.yul\":6179:6190   */\n      swap2\n      pop\n        /* \"#utility.yul\":4896:6196   */\n      pop\n        /* \"#utility.yul\":4774:6196   */\n      swap3\n      swap2\n      pop\n      pop\n      jump\t// out\n        /* \"#utility.yul\":6202:6474   */\n    tag_205:\n        /* \"#utility.yul\":6329:6339   */\n      0x00\n        /* \"#utility.yul\":6364:6468   */\n      tag_302\n        /* \"#utility.yul\":6464:6467   */\n      dup4\n        /* \"#utility.yul\":6456:6462   */\n      dup4\n        /* \"#utility.yul\":6364:6468   */\n      tag_204\n      jump\t// in\n    tag_302:\n        /* \"#utility.yul\":6350:6468   */\n      swap1\n      pop\n        /* \"#utility.yul\":6202:6474   */\n      swap3\n      swap2\n      pop\n      pop\n      jump\t// out\n        /* \"#utility.yul\":6480:6622   */\n    tag_206:\n        /* \"#utility.yul\":6579:6583   */\n      0x00\n        /* \"#utility.yul\":6611:6615   */\n      0x20\n        /* \"#utility.yul\":6606:6609   */\n      dup3\n        /* \"#utility.yul\":6602:6616   */\n      add\n        /* \"#utility.yul\":6594:6616   */\n      swap1\n      pop\n        /* \"#utility.yul\":6480:6622   */\n      swap2\n      swap1\n      pop\n      jump\t// out\n        /* \"#utility.yul\":6718:7861   */\n    tag_207:\n        /* \"#utility.yul\":6895:6898   */\n      0x00\n        /* \"#utility.yul\":6924:7007   */\n      tag_305\n        /* \"#utility.yul\":7001:7006   */\n      dup3\n        /* \"#utility.yul\":6924:7007   */\n      tag_184\n      jump\t// in\n    tag_305:\n        /* \"#utility.yul\":7023:7138   */\n      tag_306\n        /* \"#utility.yul\":7131:7137   */\n      dup2\n        /* \"#utility.yul\":7126:7129   */\n      dup6\n        /* \"#utility.yul\":7023:7138   */\n      tag_185\n      jump\t// in\n    tag_306:\n        /* \"#utility.yul\":7016:7138   */\n      swap4\n      pop\n        /* \"#utility.yul\":7164:7167   */\n      dup4\n        /* \"#utility.yul\":7209:7213   */\n      0x20\n        /* \"#utility.yul\":7201:7207   */\n      dup3\n        /* \"#utility.yul\":7197:7214   */\n      mul\n        /* \"#utility.yul\":7192:7195   */\n      dup6\n        /* \"#utility.yul\":7188:7215   */\n      add\n        /* \"#utility.yul\":7239:7324   */\n      tag_307\n        /* \"#utility.yul\":7318:7323   */\n      dup6\n        /* \"#utility.yul\":7239:7324   */\n      tag_186\n      jump\t// in\n    tag_307:\n        /* \"#utility.yul\":7347:7354   */\n      dup1\n        /* \"#utility.yul\":7378:7379   */\n      0x00\n        /* \"#utility.yul\":7363:7816   */\n    tag_308:\n        /* \"#utility.yul\":7388:7394   */\n      dup6\n        /* \"#utility.yul\":7385:7386   */\n      dup2\n        /* \"#utility.yul\":7382:7395   */\n      lt\n        /* \"#utility.yul\":7363:7816   */\n      iszero\n      tag_310\n      jumpi\n        /* \"#utility.yul\":7459:7468   */\n      dup5\n        /* \"#utility.yul\":7453:7457   */\n      dup5\n        /* \"#utility.yul\":7449:7469   */\n      sub\n        /* \"#utility.yul\":7444:7447   */\n      dup10\n        /* \"#utility.yul\":7437:7470   */\n      mstore\n        /* \"#utility.yul\":7510:7516   */\n      dup2\n        /* \"#utility.yul\":7504:7517   */\n      mload\n        /* \"#utility.yul\":7538:7660   */\n      tag_311\n        /* \"#utility.yul\":7655:7659   */\n      dup6\n        /* \"#utility.yul\":7640:7653   */\n      dup3\n        /* \"#utility.yul\":7538:7660   */\n      tag_205\n      jump\t// in\n    tag_311:\n        /* \"#utility.yul\":7530:7660   */\n      swap5\n      pop\n        /* \"#utility.yul\":7683:7772   */\n      tag_312\n        /* \"#utility.yul\":7765:7771   */\n      dup4\n        /* \"#utility.yul\":7683:7772   */\n      tag_206\n      jump\t// in\n    tag_312:\n        /* \"#utility.yul\":7673:7772   */\n      swap3\n      pop\n        /* \"#utility.yul\":7801:7805   */\n      0x20\n        /* \"#utility.yul\":7796:7799   */\n      dup11\n        /* \"#utility.yul\":7792:7806   */\n      add\n        /* \"#utility.yul\":7785:7806   */\n      swap10\n      pop\n        /* \"#utility.yul\":7423:7816   */\n      pop\n        /* \"#utility.yul\":7410:7411   */\n      0x01\n        /* \"#utility.yul\":7407:7408   */\n      dup2\n        /* \"#utility.yul\":7403:7412   */\n      add\n        /* \"#utility.yul\":7398:7412   */\n      swap1\n      pop\n        /* \"#utility.yul\":7363:7816   */\n      jump(tag_308)\n    tag_310:\n        /* \"#utility.yul\":7367:7381   */\n      pop\n        /* \"#utility.yul\":7832:7836   */\n      dup3\n        /* \"#utility.yul\":7825:7836   */\n      swap8\n      pop\n        /* \"#utility.yul\":7852:7855   */\n      dup8\n        /* \"#utility.yul\":7845:7855   */\n      swap6\n      pop\n        /* \"#utility.yul\":6900:7861   */\n      pop\n      pop\n      pop\n      pop\n      pop\n        /* \"#utility.yul\":6718:7861   */\n      swap3\n      swap2\n      pop\n      pop\n      jump\t// out\n        /* \"#utility.yul\":7867:8356   */\n    tag_14:\n        /* \"#utility.yul\":8068:8072   */\n      0x00\n        /* \"#utility.yul\":8106:8108   */\n      0x20\n        /* \"#utility.yul\":8095:8104   */\n      dup3\n        /* \"#utility.yul\":8091:8109   */\n      add\n        /* \"#utility.yul\":8083:8109   */\n      swap1\n      pop\n        /* \"#utility.yul\":8155:8164   */\n      dup2\n        /* \"#utility.yul\":8149:8153   */\n      dup2\n        /* \"#utility.yul\":8145:8165   */\n      sub\n        /* \"#utility.yul\":8141:8142   */\n      0x00\n        /* \"#utility.yul\":8130:8139   */\n      dup4\n        /* \"#utility.yul\":8126:8143   */\n      add\n        /* \"#utility.yul\":8119:8166   */\n      mstore\n        /* \"#utility.yul\":8183:8349   */\n      tag_314\n        /* \"#utility.yul\":8344:8348   */\n      dup2\n        /* \"#utility.yul\":8335:8341   */\n      dup5\n        /* \"#utility.yul\":8183:8349   */\n      tag_207\n      jump\t// in\n    tag_314:\n        /* \"#utility.yul\":8175:8349   */\n      swap1\n      pop\n        /* \"#utility.yul\":7867:8356   */\n      swap3\n      swap2\n      pop\n      pop\n      jump\t// out\n        /* \"#utility.yul\":8362:8484   */\n    tag_208:\n        /* \"#utility.yul\":8435:8459   */\n      tag_316\n        /* \"#utility.yul\":8453:8458   */\n      dup2\n        /* \"#utility.yul\":8435:8459   */\n      tag_193\n      jump\t// in\n    tag_316:\n        /* \"#utility.yul\":8428:8433   */\n      dup2\n        /* \"#utility.yul\":8425:8460   */\n      eq\n        /* \"#utility.yul\":8415:8478   */\n      tag_317\n      jumpi\n        /* \"#utility.yul\":8474:8475   */\n      0x00\n        /* \"#utility.yul\":8471:8472   */\n      dup1\n        /* \"#utility.yul\":8464:8476   */\n      revert\n        /* \"#utility.yul\":8415:8478   */\n    tag_317:\n        /* \"#utility.yul\":8362:8484   */\n      pop\n      jump\t// out\n        /* \"#utility.yul\":8490:8629   */\n    tag_209:\n        /* \"#utility.yul\":8536:8541   */\n      0x00\n        /* \"#utility.yul\":8574:8580   */\n      dup2\n        /* \"#utility.yul\":8561:8581   */\n      calldataload\n        /* \"#utility.yul\":8552:8581   */\n      swap1\n      pop\n        /* \"#utility.yul\":8590:8623   */\n      tag_319\n        /* \"#utility.yul\":8617:8622   */\n      dup2\n        /* \"#utility.yul\":8590:8623   */\n      tag_208\n      jump\t// in\n    tag_319:\n        /* \"#utility.yul\":8490:8629   */\n      swap3\n      swap2\n      pop\n      pop\n      jump\t// out\n        /* \"#utility.yul\":8635:8964   */\n    tag_17:\n        /* \"#utility.yul\":8694:8700   */\n      0x00\n        /* \"#utility.yul\":8743:8745   */\n      0x20\n        /* \"#utility.yul\":8731:8740   */\n      dup3\n        /* \"#utility.yul\":8722:8729   */\n      dup5\n        /* \"#utility.yul\":8718:8741   */\n      sub\n        /* \"#utility.yul\":8714:8746   */\n      slt\n        /* \"#utility.yul\":8711:8830   */\n      iszero\n      tag_321\n      jumpi\n        /* \"#utility.yul\":8749:8828   */\n      tag_322\n      tag_179\n      jump\t// in\n    tag_322:\n        /* \"#utility.yul\":8711:8830   */\n    tag_321:\n        /* \"#utility.yul\":8869:8870   */\n      0x00\n        /* \"#utility.yul\":8894:8947   */\n      tag_323\n        /* \"#utility.yul\":8939:8946   */\n      dup5\n        /* \"#utility.yul\":8930:8936   */\n      dup3\n        /* \"#utility.yul\":8919:8928   */\n      dup6\n        /* \"#utility.yul\":8915:8937   */\n      add\n        /* \"#utility.yul\":8894:8947   */\n      tag_209\n      jump\t// in\n    tag_323:\n        /* \"#utility.yul\":8884:8947   */\n      swap2\n      pop\n        /* \"#utility.yul\":8840:8957   */\n      pop\n        /* \"#utility.yul\":8635:8964   */\n      swap3\n      swap2\n      pop\n      pop\n      jump\t// out\n        /* \"#utility.yul\":8970:9092   */\n    tag_210:\n        /* \"#utility.yul\":9043:9067   */\n      tag_325\n        /* \"#utility.yul\":9061:9066   */\n      dup2\n        /* \"#utility.yul\":9043:9067   */\n      tag_202\n      jump\t// in\n    tag_325:\n        /* \"#utility.yul\":9036:9041   */\n      dup2\n        /* \"#utility.yul\":9033:9068   */\n      eq\n        /* \"#utility.yul\":9023:9086   */\n      tag_326\n      jumpi\n        /* \"#utility.yul\":9082:9083   */\n      0x00\n        /* \"#utility.yul\":9079:9080   */\n      dup1\n        /* \"#utility.yul\":9072:9084   */\n      revert\n        /* \"#utility.yul\":9023:9086   */\n    tag_326:\n        /* \"#utility.yul\":8970:9092   */\n      pop\n      jump\t// out\n        /* \"#utility.yul\":9098:9237   */\n    tag_211:\n        /* \"#utility.yul\":9144:9149   */\n      0x00\n        /* \"#utility.yul\":9182:9188   */\n      dup2\n        /* \"#utility.yul\":9169:9189   */\n      calldataload\n        /* \"#utility.yul\":9160:9189   */\n      swap1\n      pop\n        /* \"#utility.yul\":9198:9231   */\n      tag_328\n        /* \"#utility.yul\":9225:9230   */\n      dup2\n        /* \"#utility.yul\":9198:9231   */\n      tag_210\n      jump\t// in\n    tag_328:\n        /* \"#utility.yul\":9098:9237   */\n      swap3\n      swap2\n      pop\n      pop\n      jump\t// out\n        /* \"#utility.yul\":9243:9572   */\n    tag_22:\n        /* \"#utility.yul\":9302:9308   */\n      0x00\n        /* \"#utility.yul\":9351:9353   */\n      0x20\n        /* \"#utility.yul\":9339:9348   */\n      dup3\n        /* \"#utility.yul\":9330:9337   */\n      dup5\n        /* \"#utility.yul\":9326:9349   */\n      sub\n        /* \"#utility.yul\":9322:9354   */\n      slt\n        /* \"#utility.yul\":9319:9438   */\n      iszero\n      tag_330\n      jumpi\n        /* \"#utility.yul\":9357:9436   */\n      tag_331\n      tag_179\n      jump\t// in\n    tag_331:\n        /* \"#utility.yul\":9319:9438   */\n    tag_330:\n        /* \"#utility.yul\":9477:9478   */\n      0x00\n        /* \"#utility.yul\":9502:9555   */\n      tag_332\n        /* \"#utility.yul\":9547:9554   */\n      dup5\n        /* \"#utility.yul\":9538:9544   */\n      dup3\n        /* \"#utility.yul\":9527:9536   */\n      dup6\n        /* \"#utility.yul\":9523:9545   */\n      add\n        /* \"#utility.yul\":9502:9555   */\n      tag_211\n      jump\t// in\n    tag_332:\n        /* \"#utility.yul\":9492:9555   */\n      swap2\n      pop\n        /* \"#utility.yul\":9448:9565   */\n      pop\n        /* \"#utility.yul\":9243:9572   */\n      swap3\n      swap2\n      pop\n      pop\n      jump\t// out\n        /* \"#utility.yul\":9664:11096   */\n    tag_212:\n        /* \"#utility.yul\":9791:9794   */\n      0x00\n        /* \"#utility.yul\":9827:9831   */\n      0xc0\n        /* \"#utility.yul\":9822:9825   */\n      dup4\n        /* \"#utility.yul\":9818:9832   */\n      add\n        /* \"#utility.yul\":9918:9922   */\n      0x00\n        /* \"#utility.yul\":9911:9916   */\n      dup4\n        /* \"#utility.yul\":9907:9923   */\n      add\n        /* \"#utility.yul\":9901:9924   */\n      mload\n        /* \"#utility.yul\":9971:9974   */\n      dup5\n        /* \"#utility.yul\":9965:9969   */\n      dup3\n        /* \"#utility.yul\":9961:9975   */\n      sub\n        /* \"#utility.yul\":9954:9958   */\n      0x00\n        /* \"#utility.yul\":9949:9952   */\n      dup7\n        /* \"#utility.yul\":9945:9959   */\n      add\n        /* \"#utility.yul\":9938:9976   */\n      mstore\n        /* \"#utility.yul\":9997:10070   */\n      tag_334\n        /* \"#utility.yul\":10065:10069   */\n      dup3\n        /* \"#utility.yul\":10051:10063   */\n      dup3\n        /* \"#utility.yul\":9997:10070   */\n      tag_191\n      jump\t// in\n    tag_334:\n        /* \"#utility.yul\":9989:10070   */\n      swap2\n      pop\n        /* \"#utility.yul\":9842:10081   */\n      pop\n        /* \"#utility.yul\":10170:10174   */\n      0x20\n        /* \"#utility.yul\":10163:10168   */\n      dup4\n        /* \"#utility.yul\":10159:10175   */\n      add\n        /* \"#utility.yul\":10153:10176   */\n      mload\n        /* \"#utility.yul\":10189:10252   */\n      tag_335\n        /* \"#utility.yul\":10246:10250   */\n      0x20\n        /* \"#utility.yul\":10241:10244   */\n      dup7\n        /* \"#utility.yul\":10237:10251   */\n      add\n        /* \"#utility.yul\":10223:10235   */\n      dup3\n        /* \"#utility.yul\":10189:10252   */\n      tag_194\n      jump\t// in\n    tag_335:\n        /* \"#utility.yul\":10091:10262   */\n      pop\n        /* \"#utility.yul\":10348:10352   */\n      0x40\n        /* \"#utility.yul\":10341:10346   */\n      dup4\n        /* \"#utility.yul\":10337:10353   */\n      add\n        /* \"#utility.yul\":10331:10354   */\n      mload\n        /* \"#utility.yul\":10401:10404   */\n      dup5\n        /* \"#utility.yul\":10395:10399   */\n      dup3\n        /* \"#utility.yul\":10391:10405   */\n      sub\n        /* \"#utility.yul\":10384:10388   */\n      0x40\n        /* \"#utility.yul\":10379:10382   */\n      dup7\n        /* \"#utility.yul\":10375:10389   */\n      add\n        /* \"#utility.yul\":10368:10406   */\n      mstore\n        /* \"#utility.yul\":10427:10530   */\n      tag_336\n        /* \"#utility.yul\":10525:10529   */\n      dup3\n        /* \"#utility.yul\":10511:10523   */\n      dup3\n        /* \"#utility.yul\":10427:10530   */\n      tag_200\n      jump\t// in\n    tag_336:\n        /* \"#utility.yul\":10419:10530   */\n      swap2\n      pop\n        /* \"#utility.yul\":10272:10541   */\n      pop\n        /* \"#utility.yul\":10628:10632   */\n      0x60\n        /* \"#utility.yul\":10621:10626   */\n      dup4\n        /* \"#utility.yul\":10617:10633   */\n      add\n        /* \"#utility.yul\":10611:10634   */\n      mload\n        /* \"#utility.yul\":10647:10704   */\n      tag_337\n        /* \"#utility.yul\":10698:10702   */\n      0x60\n        /* \"#utility.yul\":10693:10696   */\n      dup7\n        /* \"#utility.yul\":10689:10703   */\n      add\n        /* \"#utility.yul\":10675:10687   */\n      dup3\n        /* \"#utility.yul\":10647:10704   */\n      tag_201\n      jump\t// in\n    tag_337:\n        /* \"#utility.yul\":10551:10714   */\n      pop\n        /* \"#utility.yul\":10796:10800   */\n      0x80\n        /* \"#utility.yul\":10789:10794   */\n      dup4\n        /* \"#utility.yul\":10785:10801   */\n      add\n        /* \"#utility.yul\":10779:10802   */\n      mload\n        /* \"#utility.yul\":10815:10878   */\n      tag_338\n        /* \"#utility.yul\":10872:10876   */\n      0x80\n        /* \"#utility.yul\":10867:10870   */\n      dup7\n        /* \"#utility.yul\":10863:10877   */\n      add\n        /* \"#utility.yul\":10849:10861   */\n      dup3\n        /* \"#utility.yul\":10815:10878   */\n      tag_203\n      jump\t// in\n    tag_338:\n        /* \"#utility.yul\":10724:10888   */\n      pop\n        /* \"#utility.yul\":10977:10981   */\n      0xa0\n        /* \"#utility.yul\":10970:10975   */\n      dup4\n        /* \"#utility.yul\":10966:10982   */\n      add\n        /* \"#utility.yul\":10960:10983   */\n      mload\n        /* \"#utility.yul\":10996:11059   */\n      tag_339\n        /* \"#utility.yul\":11053:11057   */\n      0xa0\n        /* \"#utility.yul\":11048:11051   */\n      dup7\n        /* \"#utility.yul\":11044:11058   */\n      add\n        /* \"#utility.yul\":11030:11042   */\n      dup3\n        /* \"#utility.yul\":10996:11059   */\n      tag_203\n      jump\t// in\n    tag_339:\n        /* \"#utility.yul\":10898:11069   */\n      pop\n        /* \"#utility.yul\":11086:11090   */\n      dup1\n        /* \"#utility.yul\":11079:11090   */\n      swap2\n      pop\n        /* \"#utility.yul\":9796:11096   */\n      pop\n        /* \"#utility.yul\":9664:11096   */\n      swap3\n      swap2\n      pop\n      pop\n      jump\t// out\n        /* \"#utility.yul\":11102:11491   */\n    tag_25:\n        /* \"#utility.yul\":11253:11257   */\n      0x00\n        /* \"#utility.yul\":11291:11293   */\n      0x20\n        /* \"#utility.yul\":11280:11289   */\n      dup3\n        /* \"#utility.yul\":11276:11294   */\n      add\n        /* \"#utility.yul\":11268:11294   */\n      swap1\n      pop\n        /* \"#utility.yul\":11340:11349   */\n      dup2\n        /* \"#utility.yul\":11334:11338   */\n      dup2\n        /* \"#utility.yul\":11330:11350   */\n      sub\n        /* \"#utility.yul\":11326:11327   */\n      0x00\n        /* \"#utility.yul\":11315:11324   */\n      dup4\n        /* \"#utility.yul\":11311:11328   */\n      add\n        /* \"#utility.yul\":11304:11351   */\n      mstore\n        /* \"#utility.yul\":11368:11484   */\n      tag_341\n        /* \"#utility.yul\":11479:11483   */\n      dup2\n        /* \"#utility.yul\":11470:11476   */\n      dup5\n        /* \"#utility.yul\":11368:11484   */\n      tag_212\n      jump\t// in\n    tag_341:\n        /* \"#utility.yul\":11360:11484   */\n      swap1\n      pop\n        /* \"#utility.yul\":11102:11491   */\n      swap3\n      swap2\n      pop\n      pop\n      jump\t// out\n        /* \"#utility.yul\":11497:11614   */\n    tag_213:\n        /* \"#utility.yul\":11606:11607   */\n      0x00\n        /* \"#utility.yul\":11603:11604   */\n      dup1\n        /* \"#utility.yul\":11596:11608   */\n      revert\n        /* \"#utility.yul\":11620:11737   */\n    tag_214:\n        /* \"#utility.yul\":11729:11730   */\n      0x00\n        /* \"#utility.yul\":11726:11727   */\n      dup1\n        /* \"#utility.yul\":11719:11731   */\n      revert\n        /* \"#utility.yul\":11743:11923   */\n    tag_215:\n        /* \"#utility.yul\":11791:11868   */\n      0x4e487b7100000000000000000000000000000000000000000000000000000000\n        /* \"#utility.yul\":11788:11789   */\n      0x00\n        /* \"#utility.yul\":11781:11869   */\n      mstore\n        /* \"#utility.yul\":11888:11892   */\n      0x41\n        /* \"#utility.yul\":11885:11886   */\n      0x04\n        /* \"#utility.yul\":11878:11893   */\n      mstore\n        /* \"#utility.yul\":11912:11916   */\n      0x24\n        /* \"#utility.yul\":11909:11910   */\n      0x00\n        /* \"#utility.yul\":11902:11917   */\n      revert\n        /* \"#utility.yul\":11929:12210   */\n    tag_216:\n        /* \"#utility.yul\":12012:12039   */\n      tag_346\n        /* \"#utility.yul\":12034:12038   */\n      dup3\n        /* \"#utility.yul\":12012:12039   */\n      tag_190\n      jump\t// in\n    tag_346:\n        /* \"#utility.yul\":12004:12010   */\n      dup2\n        /* \"#utility.yul\":12000:12040   */\n      add\n        /* \"#utility.yul\":12142:12148   */\n      dup2\n        /* \"#utility.yul\":12130:12140   */\n      dup2\n        /* \"#utility.yul\":12127:12149   */\n      lt\n        /* \"#utility.yul\":12106:12124   */\n      0xffffffffffffffff\n        /* \"#utility.yul\":12094:12104   */\n      dup3\n        /* \"#utility.yul\":12091:12125   */\n      gt\n        /* \"#utility.yul\":12088:12150   */\n      or\n        /* \"#utility.yul\":12085:12173   */\n      iszero\n      tag_347\n      jumpi\n        /* \"#utility.yul\":12153:12171   */\n      tag_348\n      tag_215\n      jump\t// in\n    tag_348:\n        /* \"#utility.yul\":12085:12173   */\n    tag_347:\n        /* \"#utility.yul\":12193:12203   */\n      dup1\n        /* \"#utility.yul\":12189:12191   */\n      0x40\n        /* \"#utility.yul\":12182:12204   */\n      mstore\n        /* \"#utility.yul\":11972:12210   */\n      pop\n        /* \"#utility.yul\":11929:12210   */\n      pop\n      pop\n      jump\t// out\n        /* \"#utility.yul\":12216:12345   */\n    tag_217:\n        /* \"#utility.yul\":12250:12256   */\n      0x00\n        /* \"#utility.yul\":12277:12297   */\n      tag_350\n      tag_178\n      jump\t// in\n    tag_350:\n        /* \"#utility.yul\":12267:12297   */\n      swap1\n      pop\n        /* \"#utility.yul\":12306:12339   */\n      tag_351\n        /* \"#utility.yul\":12334:12338   */\n      dup3\n        /* \"#utility.yul\":12326:12332   */\n      dup3\n        /* \"#utility.yul\":12306:12339   */\n      tag_216\n      jump\t// in\n    tag_351:\n        /* \"#utility.yul\":12216:12345   */\n      swap2\n      swap1\n      pop\n      jump\t// out\n        /* \"#utility.yul\":12351:12659   */\n    tag_218:\n        /* \"#utility.yul\":12413:12417   */\n      0x00\n        /* \"#utility.yul\":12503:12521   */\n      0xffffffffffffffff\n        /* \"#utility.yul\":12495:12501   */\n      dup3\n        /* \"#utility.yul\":12492:12522   */\n      gt\n        /* \"#utility.yul\":12489:12545   */\n      iszero\n      tag_353\n      jumpi\n        /* \"#utility.yul\":12525:12543   */\n      tag_354\n      tag_215\n      jump\t// in\n    tag_354:\n        /* \"#utility.yul\":12489:12545   */\n    tag_353:\n        /* \"#utility.yul\":12563:12592   */\n      tag_355\n        /* \"#utility.yul\":12585:12591   */\n      dup3\n        /* \"#utility.yul\":12563:12592   */\n      tag_190\n      jump\t// in\n    tag_355:\n        /* \"#utility.yul\":12555:12592   */\n      swap1\n      pop\n        /* \"#utility.yul\":12647:12651   */\n      0x20\n        /* \"#utility.yul\":12641:12645   */\n      dup2\n        /* \"#utility.yul\":12637:12652   */\n      add\n        /* \"#utility.yul\":12629:12652   */\n      swap1\n      pop\n        /* \"#utility.yul\":12351:12659   */\n      swap2\n      swap1\n      pop\n      jump\t// out\n        /* \"#utility.yul\":12665:12811   */\n    tag_219:\n        /* \"#utility.yul\":12762:12768   */\n      dup3\n        /* \"#utility.yul\":12757:12760   */\n      dup2\n        /* \"#utility.yul\":12752:12755   */\n      dup4\n        /* \"#utility.yul\":12739:12769   */\n      calldatacopy\n        /* \"#utility.yul\":12803:12804   */\n      0x00\n        /* \"#utility.yul\":12794:12800   */\n      dup4\n        /* \"#utility.yul\":12789:12792   */\n      dup4\n        /* \"#utility.yul\":12785:12801   */\n      add\n        /* \"#utility.yul\":12778:12805   */\n      mstore\n        /* \"#utility.yul\":12665:12811   */\n      pop\n      pop\n      pop\n      jump\t// out\n        /* \"#utility.yul\":12817:13242   */\n    tag_220:\n        /* \"#utility.yul\":12895:12900   */\n      0x00\n        /* \"#utility.yul\":12920:12986   */\n      tag_358\n        /* \"#utility.yul\":12936:12985   */\n      tag_359\n        /* \"#utility.yul\":12978:12984   */\n      dup5\n        /* \"#utility.yul\":12936:12985   */\n      tag_218\n      jump\t// in\n    tag_359:\n        /* \"#utility.yul\":12920:12986   */\n      tag_217\n      jump\t// in\n    tag_358:\n        /* \"#utility.yul\":12911:12986   */\n      swap1\n      pop\n        /* \"#utility.yul\":13009:13015   */\n      dup3\n        /* \"#utility.yul\":13002:13007   */\n      dup2\n        /* \"#utility.yul\":12995:13016   */\n      mstore\n        /* \"#utility.yul\":13047:13051   */\n      0x20\n        /* \"#utility.yul\":13040:13045   */\n      dup2\n        /* \"#utility.yul\":13036:13052   */\n      add\n        /* \"#utility.yul\":13085:13088   */\n      dup5\n        /* \"#utility.yul\":13076:13082   */\n      dup5\n        /* \"#utility.yul\":13071:13074   */\n      dup5\n        /* \"#utility.yul\":13067:13083   */\n      add\n        /* \"#utility.yul\":13064:13089   */\n      gt\n        /* \"#utility.yul\":13061:13173   */\n      iszero\n      tag_360\n      jumpi\n        /* \"#utility.yul\":13092:13171   */\n      tag_361\n      tag_214\n      jump\t// in\n    tag_361:\n        /* \"#utility.yul\":13061:13173   */\n    tag_360:\n        /* \"#utility.yul\":13182:13236   */\n      tag_362\n        /* \"#utility.yul\":13229:13235   */\n      dup5\n        /* \"#utility.yul\":13224:13227   */\n      dup3\n        /* \"#utility.yul\":13219:13222   */\n      dup6\n        /* \"#utility.yul\":13182:13236   */\n      tag_219\n      jump\t// in\n    tag_362:\n        /* \"#utility.yul\":12901:13242   */\n      pop\n        /* \"#utility.yul\":12817:13242   */\n      swap4\n      swap3\n      pop\n      pop\n      pop\n      jump\t// out\n        /* \"#utility.yul\":13262:13602   */\n    tag_221:\n        /* \"#utility.yul\":13318:13323   */\n      0x00\n        /* \"#utility.yul\":13367:13370   */\n      dup3\n        /* \"#utility.yul\":13360:13364   */\n      0x1f\n        /* \"#utility.yul\":13352:13358   */\n      dup4\n        /* \"#utility.yul\":13348:13365   */\n      add\n        /* \"#utility.yul\":13344:13371   */\n      slt\n        /* \"#utility.yul\":13334:13456   */\n      tag_364\n      jumpi\n        /* \"#utility.yul\":13375:13454   */\n      tag_365\n      tag_213\n      jump\t// in\n    tag_365:\n        /* \"#utility.yul\":13334:13456   */\n    tag_364:\n        /* \"#utility.yul\":13492:13498   */\n      dup2\n        /* \"#utility.yul\":13479:13499   */\n      calldataload\n        /* \"#utility.yul\":13517:13596   */\n      tag_366\n        /* \"#utility.yul\":13592:13595   */\n      dup5\n        /* \"#utility.yul\":13584:13590   */\n      dup3\n        /* \"#utility.yul\":13577:13581   */\n      0x20\n        /* \"#utility.yul\":13569:13575   */\n      dup7\n        /* \"#utility.yul\":13565:13582   */\n      add\n        /* \"#utility.yul\":13517:13596   */\n      tag_220\n      jump\t// in\n    tag_366:\n        /* \"#utility.yul\":13508:13596   */\n      swap2\n      pop\n        /* \"#utility.yul\":13324:13602   */\n      pop\n        /* \"#utility.yul\":13262:13602   */\n      swap3\n      swap2\n      pop\n      pop\n      jump\t// out\n        /* \"#utility.yul\":13608:14547   */\n    tag_31:\n        /* \"#utility.yul\":13701:13707   */\n      0x00\n        /* \"#utility.yul\":13709:13715   */\n      dup1\n        /* \"#utility.yul\":13717:13723   */\n      0x00\n        /* \"#utility.yul\":13725:13731   */\n      dup1\n        /* \"#utility.yul\":13774:13777   */\n      0x80\n        /* \"#utility.yul\":13762:13771   */\n      dup6\n        /* \"#utility.yul\":13753:13760   */\n      dup8\n        /* \"#utility.yul\":13749:13772   */\n      sub\n        /* \"#utility.yul\":13745:13778   */\n      slt\n        /* \"#utility.yul\":13742:13862   */\n      iszero\n      tag_368\n      jumpi\n        /* \"#utility.yul\":13781:13860   */\n      tag_369\n      tag_179\n      jump\t// in\n    tag_369:\n        /* \"#utility.yul\":13742:13862   */\n    tag_368:\n        /* \"#utility.yul\":13929:13930   */\n      0x00\n        /* \"#utility.yul\":13918:13927   */\n      dup6\n        /* \"#utility.yul\":13914:13931   */\n      add\n        /* \"#utility.yul\":13901:13932   */\n      calldataload\n        /* \"#utility.yul\":13959:13977   */\n      0xffffffffffffffff\n        /* \"#utility.yul\":13951:13957   */\n      dup2\n        /* \"#utility.yul\":13948:13978   */\n      gt\n        /* \"#utility.yul\":13945:14062   */\n      iszero\n      tag_370\n      jumpi\n        /* \"#utility.yul\":13981:14060   */\n      tag_371\n      tag_180\n      jump\t// in\n    tag_371:\n        /* \"#utility.yul\":13945:14062   */\n    tag_370:\n        /* \"#utility.yul\":14086:14149   */\n      tag_372\n        /* \"#utility.yul\":14141:14148   */\n      dup8\n        /* \"#utility.yul\":14132:14138   */\n      dup3\n        /* \"#utility.yul\":14121:14130   */\n      dup9\n        /* \"#utility.yul\":14117:14139   */\n      add\n        /* \"#utility.yul\":14086:14149   */\n      tag_221\n      jump\t// in\n    tag_372:\n        /* \"#utility.yul\":14076:14149   */\n      swap5\n      pop\n        /* \"#utility.yul\":13872:14159   */\n      pop\n        /* \"#utility.yul\":14198:14200   */\n      0x20\n        /* \"#utility.yul\":14224:14277   */\n      tag_373\n        /* \"#utility.yul\":14269:14276   */\n      dup8\n        /* \"#utility.yul\":14260:14266   */\n      dup3\n        /* \"#utility.yul\":14249:14258   */\n      dup9\n        /* \"#utility.yul\":14245:14267   */\n      add\n        /* \"#utility.yul\":14224:14277   */\n      tag_209\n      jump\t// in\n    tag_373:\n        /* \"#utility.yul\":14214:14277   */\n      swap4\n      pop\n        /* \"#utility.yul\":14169:14287   */\n      pop\n        /* \"#utility.yul\":14326:14328   */\n      0x40\n        /* \"#utility.yul\":14352:14405   */\n      tag_374\n        /* \"#utility.yul\":14397:14404   */\n      dup8\n        /* \"#utility.yul\":14388:14394   */\n      dup3\n        /* \"#utility.yul\":14377:14386   */\n      dup9\n        /* \"#utility.yul\":14373:14395   */\n      add\n        /* \"#utility.yul\":14352:14405   */\n      tag_209\n      jump\t// in\n    tag_374:\n        /* \"#utility.yul\":14342:14405   */\n      swap3\n      pop\n        /* \"#utility.yul\":14297:14415   */\n      pop\n        /* \"#utility.yul\":14454:14456   */\n      0x60\n        /* \"#utility.yul\":14480:14530   */\n      tag_375\n        /* \"#utility.yul\":14522:14529   */\n      dup8\n        /* \"#utility.yul\":14513:14519   */\n      dup3\n        /* \"#utility.yul\":14502:14511   */\n      dup9\n        /* \"#utility.yul\":14498:14520   */\n      add\n        /* \"#utility.yul\":14480:14530   */\n      tag_183\n      jump\t// in\n    tag_375:\n        /* \"#utility.yul\":14470:14530   */\n      swap2\n      pop\n        /* \"#utility.yul\":14425:14540   */\n      pop\n        /* \"#utility.yul\":13608:14547   */\n      swap3\n      swap6\n      swap2\n      swap5\n      pop\n      swap3\n      pop\n      jump\t// out\n        /* \"#utility.yul\":14553:14733   */\n    tag_222:\n        /* \"#utility.yul\":14601:14678   */\n      0x4e487b7100000000000000000000000000000000000000000000000000000000\n        /* \"#utility.yul\":14598:14599   */\n      0x00\n        /* \"#utility.yul\":14591:14679   */\n      mstore\n        /* \"#utility.yul\":14698:14702   */\n      0x22\n        /* \"#utility.yul\":14695:14696   */\n      0x04\n        /* \"#utility.yul\":14688:14703   */\n      mstore\n        /* \"#utility.yul\":14722:14726   */\n      0x24\n        /* \"#utility.yul\":14719:14720   */\n      0x00\n        /* \"#utility.yul\":14712:14727   */\n      revert\n        /* \"#utility.yul\":14739:15059   */\n    tag_42:\n        /* \"#utility.yul\":14783:14789   */\n      0x00\n        /* \"#utility.yul\":14820:14821   */\n      0x02\n        /* \"#utility.yul\":14814:14818   */\n      dup3\n        /* \"#utility.yul\":14810:14822   */\n      div\n        /* \"#utility.yul\":14800:14822   */\n      swap1\n      pop\n        /* \"#utility.yul\":14867:14868   */\n      0x01\n        /* \"#utility.yul\":14861:14865   */\n      dup3\n        /* \"#utility.yul\":14857:14869   */\n      and\n        /* \"#utility.yul\":14888:14906   */\n      dup1\n        /* \"#utility.yul\":14878:14959   */\n      tag_378\n      jumpi\n        /* \"#utility.yul\":14944:14948   */\n      0x7f\n        /* \"#utility.yul\":14936:14942   */\n      dup3\n        /* \"#utility.yul\":14932:14949   */\n      and\n        /* \"#utility.yul\":14922:14949   */\n      swap2\n      pop\n        /* \"#utility.yul\":14878:14959   */\n    tag_378:\n        /* \"#utility.yul\":15006:15008   */\n      0x20\n        /* \"#utility.yul\":14998:15004   */\n      dup3\n        /* \"#utility.yul\":14995:15009   */\n      lt\n        /* \"#utility.yul\":14975:14993   */\n      dup2\n        /* \"#utility.yul\":14972:15010   */\n      sub\n        /* \"#utility.yul\":14969:15053   */\n      tag_379\n      jumpi\n        /* \"#utility.yul\":15025:15043   */\n      tag_380\n      tag_222\n      jump\t// in\n    tag_380:\n        /* \"#utility.yul\":14969:15053   */\n    tag_379:\n        /* \"#utility.yul\":14790:15059   */\n      pop\n        /* \"#utility.yul\":14739:15059   */\n      swap2\n      swap1\n      pop\n      jump\t// out\n        /* \"#utility.yul\":15065:15245   */\n    tag_76:\n        /* \"#utility.yul\":15113:15190   */\n      0x4e487b7100000000000000000000000000000000000000000000000000000000\n        /* \"#utility.yul\":15110:15111   */\n      0x00\n        /* \"#utility.yul\":15103:15191   */\n      mstore\n        /* \"#utility.yul\":15210:15214   */\n      0x32\n        /* \"#utility.yul\":15207:15208   */\n      0x04\n        /* \"#utility.yul\":15200:15215   */\n      mstore\n        /* \"#utility.yul\":15234:15238   */\n      0x24\n        /* \"#utility.yul\":15231:15232   */\n      0x00\n        /* \"#utility.yul\":15224:15239   */\n      revert\n        /* \"#utility.yul\":15251:15392   */\n    tag_223:\n        /* \"#utility.yul\":15300:15304   */\n      0x00\n        /* \"#utility.yul\":15323:15326   */\n      dup2\n        /* \"#utility.yul\":15315:15326   */\n      swap1\n      pop\n        /* \"#utility.yul\":15346:15349   */\n      dup2\n        /* \"#utility.yul\":15343:15344   */\n      0x00\n        /* \"#utility.yul\":15336:15350   */\n      mstore\n        /* \"#utility.yul\":15380:15384   */\n      0x20\n        /* \"#utility.yul\":15377:15378   */\n      0x00\n        /* \"#utility.yul\":15367:15385   */\n      keccak256\n        /* \"#utility.yul\":15359:15385   */\n      swap1\n      pop\n        /* \"#utility.yul\":15251:15392   */\n      swap2\n      swap1\n      pop\n      jump\t// out\n        /* \"#utility.yul\":15398:15491   */\n    tag_224:\n        /* \"#utility.yul\":15435:15441   */\n      0x00\n        /* \"#utility.yul\":15482:15484   */\n      0x20\n        /* \"#utility.yul\":15477:15479   */\n      0x1f\n        /* \"#utility.yul\":15470:15475   */\n      dup4\n        /* \"#utility.yul\":15466:15480   */\n      add\n        /* \"#utility.yul\":15462:15485   */\n      div\n        /* \"#utility.yul\":15452:15485   */\n      swap1\n      pop\n        /* \"#utility.yul\":15398:15491   */\n      swap2\n      swap1\n      pop\n      jump\t// out\n        /* \"#utility.yul\":15497:15604   */\n    tag_225:\n        /* \"#utility.yul\":15541:15549   */\n      0x00\n        /* \"#utility.yul\":15591:15596   */\n      dup3\n        /* \"#utility.yul\":15585:15589   */\n      dup3\n        /* \"#utility.yul\":15581:15597   */\n      shl\n        /* \"#utility.yul\":15560:15597   */\n      swap1\n      pop\n        /* \"#utility.yul\":15497:15604   */\n      swap3\n      swap2\n      pop\n      pop\n      jump\t// out\n        /* \"#utility.yul\":15610:16003   */\n    tag_226:\n        /* \"#utility.yul\":15679:15685   */\n      0x00\n        /* \"#utility.yul\":15729:15730   */\n      0x08\n        /* \"#utility.yul\":15717:15727   */\n      dup4\n        /* \"#utility.yul\":15713:15731   */\n      mul\n        /* \"#utility.yul\":15752:15849   */\n      tag_386\n        /* \"#utility.yul\":15782:15848   */\n      0xffffffffffffffffffffffffffffffffffffffffffffffffffffffffffffffff\n        /* \"#utility.yul\":15771:15780   */\n      dup3\n        /* \"#utility.yul\":15752:15849   */\n      tag_225\n      jump\t// in\n    tag_386:\n        /* \"#utility.yul\":15870:15909   */\n      tag_387\n        /* \"#utility.yul\":15900:15908   */\n      dup7\n        /* \"#utility.yul\":15889:15898   */\n      dup4\n        /* \"#utility.yul\":15870:15909   */\n      tag_225\n      jump\t// in\n    tag_387:\n        /* \"#utility.yul\":15858:15909   */\n      swap6\n      pop\n        /* \"#utility.yul\":15942:15946   */\n      dup1\n        /* \"#utility.yul\":15938:15947   */\n      not\n        /* \"#utility.yul\":15931:15936   */\n      dup5\n        /* \"#utility.yul\":15927:15948   */\n      and\n        /* \"#utility.yul\":15918:15948   */\n      swap4\n      pop\n        /* \"#utility.yul\":15991:15995   */\n      dup1\n        /* \"#utility.yul\":15981:15989   */\n      dup7\n        /* \"#utility.yul\":15977:15996   */\n      and\n        /* \"#utility.yul\":15970:15975   */\n      dup5\n        /* \"#utility.yul\":15967:15997   */\n      or\n        /* \"#utility.yul\":15957:15997   */\n      swap3\n      pop\n        /* \"#utility.yul\":15686:16003   */\n      pop\n      pop\n        /* \"#utility.yul\":15610:16003   */\n      swap4\n      swap3\n      pop\n      pop\n      pop\n      jump\t// out\n        /* \"#utility.yul\":16009:16069   */\n    tag_227:\n        /* \"#utility.yul\":16037:16040   */\n      0x00\n        /* \"#utility.yul\":16058:16063   */\n      dup2\n        /* \"#utility.yul\":16051:16063   */\n      swap1\n      pop\n        /* \"#utility.yul\":16009:16069   */\n      swap2\n      swap1\n      pop\n      jump\t// out\n        /* \"#utility.yul\":16075:16217   */\n    tag_228:\n        /* \"#utility.yul\":16125:16134   */\n      0x00\n        /* \"#utility.yul\":16158:16211   */\n      tag_390\n        /* \"#utility.yul\":16176:16210   */\n      tag_391\n        /* \"#utility.yul\":16185:16209   */\n      tag_392\n        /* \"#utility.yul\":16203:16208   */\n      dup5\n        /* \"#utility.yul\":16185:16209   */\n      tag_202\n      jump\t// in\n    tag_392:\n        /* \"#utility.yul\":16176:16210   */\n      tag_227\n      jump\t// in\n    tag_391:\n        /* \"#utility.yul\":16158:16211   */\n      tag_202\n      jump\t// in\n    tag_390:\n        /* \"#utility.yul\":16145:16211   */\n      swap1\n      pop\n        /* \"#utility.yul\":16075:16217   */\n      swap2\n      swap1\n      pop\n      jump\t// out\n        /* \"#utility.yul\":16223:16298   */\n    tag_229:\n        /* \"#utility.yul\":16266:16269   */\n      0x00\n        /* \"#utility.yul\":16287:16292   */\n      dup2\n        /* \"#utility.yul\":16280:16292   */\n      swap1\n      pop\n        /* \"#utility.yul\":16223:16298   */\n      swap2\n      swap1\n      pop\n      jump\t// out\n        /* \"#utility.yul\":16304:16573   */\n    tag_230:\n        /* \"#utility.yul\":16414:16453   */\n      tag_395\n        /* \"#utility.yul\":16445:16452   */\n      dup4\n        /* \"#utility.yul\":16414:16453   */\n      tag_228\n      jump\t// in\n    tag_395:\n        /* \"#utility.yul\":16475:16566   */\n      tag_396\n        /* \"#utility.yul\":16524:16565   */\n      tag_397\n        /* \"#utility.yul\":16548:16564   */\n      dup3\n        /* \"#utility.yul\":16524:16565   */\n      tag_229\n      jump\t// in\n    tag_397:\n        /* \"#utility.yul\":16516:16522   */\n      dup5\n        /* \"#utility.yul\":16509:16513   */\n      dup5\n        /* \"#utility.yul\":16503:16514   */\n      sload\n        /* \"#utility.yul\":16475:16566   */\n      tag_226\n      jump\t// in\n    tag_396:\n        /* \"#utility.yul\":16469:16473   */\n      dup3\n        /* \"#utility.yul\":16462:16567   */\n      sstore\n        /* \"#utility.yul\":16380:16573   */\n      pop\n        /* \"#utility.yul\":16304:16573   */\n      pop\n      pop\n      pop\n      jump\t// out\n        /* \"#utility.yul\":16579:16652   */\n    tag_231:\n        /* \"#utility.yul\":16624:16627   */\n      0x00\n        /* \"#utility.yul\":16579:16652   */\n      swap1\n      jump\t// out\n        /* \"#utility.yul\":16658:16847   */\n    tag_232:\n        /* \"#utility.yul\":16735:16767   */\n      tag_400\n      tag_231\n      jump\t// in\n    tag_400:\n        /* \"#utility.yul\":16776:16841   */\n      tag_401\n        /* \"#utility.yul\":16834:16840   */\n      dup2\n        /* \"#utility.yul\":16826:16832   */\n      dup5\n        /* \"#utility.yul\":16820:16824   */\n      dup5\n        /* \"#utility.yul\":16776:16841   */\n      tag_230\n      jump\t// in\n    tag_401:\n        /* \"#utility.yul\":16711:16847   */\n      pop\n        /* \"#utility.yul\":16658:16847   */\n      pop\n      pop\n      jump\t// out\n        /* \"#utility.yul\":16853:17039   */\n    tag_233:\n        /* \"#utility.yul\":16913:17033   */\n    tag_403:\n        /* \"#utility.yul\":16930:16933   */\n      dup2\n        /* \"#utility.yul\":16923:16928   */\n      dup2\n        /* \"#utility.yul\":16920:16934   */\n      lt\n        /* \"#utility.yul\":16913:17033   */\n      iszero\n      tag_405\n      jumpi\n        /* \"#utility.yul\":16984:17023   */\n      tag_406\n        /* \"#utility.yul\":17021:17022   */\n      0x00\n        /* \"#utility.yul\":17014:17019   */\n      dup3\n        /* \"#utility.yul\":16984:17023   */\n      tag_232\n      jump\t// in\n    tag_406:\n        /* \"#utility.yul\":16957:16958   */\n      0x01\n        /* \"#utility.yul\":16950:16955   */\n      dup2\n        /* \"#utility.yul\":16946:16959   */\n      add\n        /* \"#utility.yul\":16937:16959   */\n      swap1\n      pop\n        /* \"#utility.yul\":16913:17033   */\n      jump(tag_403)\n    tag_405:\n        /* \"#utility.yul\":16853:17039   */\n      pop\n      pop\n      jump\t// out\n        /* \"#utility.yul\":17045:17588   */\n    tag_234:\n        /* \"#utility.yul\":17146:17148   */\n      0x1f\n        /* \"#utility.yul\":17141:17144   */\n      dup3\n        /* \"#utility.yul\":17138:17149   */\n      gt\n        /* \"#utility.yul\":17135:17581   */\n      iszero\n      tag_408\n      jumpi\n        /* \"#utility.yul\":17180:17218   */\n      tag_409\n        /* \"#utility.yul\":17212:17217   */\n      dup2\n        /* \"#utility.yul\":17180:17218   */\n      tag_223\n      jump\t// in\n    tag_409:\n        /* \"#utility.yul\":17264:17293   */\n      tag_410\n        /* \"#utility.yul\":17282:17292   */\n      dup5\n        /* \"#utility.yul\":17264:17293   */\n      tag_224\n      jump\t// in\n    tag_410:\n        /* \"#utility.yul\":17254:17262   */\n      dup2\n        /* \"#utility.yul\":17250:17294   */\n      add\n        /* \"#utility.yul\":17447:17449   */\n      0x20\n        /* \"#utility.yul\":17435:17445   */\n      dup6\n        /* \"#utility.yul\":17432:17450   */\n      lt\n        /* \"#utility.yul\":17429:17478   */\n      iszero\n      tag_411\n      jumpi\n        /* \"#utility.yul\":17468:17476   */\n      dup2\n        /* \"#utility.yul\":17453:17476   */\n      swap1\n      pop\n        /* \"#utility.yul\":17429:17478   */\n    tag_411:\n        /* \"#utility.yul\":17491:17571   */\n      tag_412\n        /* \"#utility.yul\":17547:17569   */\n      tag_413\n        /* \"#utility.yul\":17565:17568   */\n      dup6\n        /* \"#utility.yul\":17547:17569   */\n      tag_224\n      jump\t// in\n    tag_413:\n        /* \"#utility.yul\":17537:17545   */\n      dup4\n        /* \"#utility.yul\":17533:17570   */\n      add\n        /* \"#utility.yul\":17520:17531   */\n      dup3\n        /* \"#utility.yul\":17491:17571   */\n      tag_233\n      jump\t// in\n    tag_412:\n        /* \"#utility.yul\":17150:17581   */\n      pop\n      pop\n        /* \"#utility.yul\":17135:17581   */\n    tag_408:\n        /* \"#utility.yul\":17045:17588   */\n      pop\n      pop\n      pop\n      jump\t// out\n        /* \"#utility.yul\":17594:17711   */\n    tag_235:\n        /* \"#utility.yul\":17648:17656   */\n      0x00\n        /* \"#utility.yul\":17698:17703   */\n      dup3\n        /* \"#utility.yul\":17692:17696   */\n      dup3\n        /* \"#utility.yul\":17688:17704   */\n      shr\n        /* \"#utility.yul\":17667:17704   */\n      swap1\n      pop\n        /* \"#utility.yul\":17594:17711   */\n      swap3\n      swap2\n      pop\n      pop\n      jump\t// out\n        /* \"#utility.yul\":17717:17886   */\n    tag_236:\n        /* \"#utility.yul\":17761:17767   */\n      0x00\n        /* \"#utility.yul\":17794:17845   */\n      tag_416\n        /* \"#utility.yul\":17842:17843   */\n      0x00\n        /* \"#utility.yul\":17838:17844   */\n      not\n        /* \"#utility.yul\":17830:17835   */\n      dup5\n        /* \"#utility.yul\":17827:17828   */\n      0x08\n        /* \"#utility.yul\":17823:17836   */\n      mul\n        /* \"#utility.yul\":17794:17845   */\n      tag_235\n      jump\t// in\n    tag_416:\n        /* \"#utility.yul\":17790:17846   */\n      not\n        /* \"#utility.yul\":17875:17879   */\n      dup1\n        /* \"#utility.yul\":17869:17873   */\n      dup4\n        /* \"#utility.yul\":17865:17880   */\n      and\n        /* \"#utility.yul\":17855:17880   */\n      swap2\n      pop\n        /* \"#utility.yul\":17768:17886   */\n      pop\n        /* \"#utility.yul\":17717:17886   */\n      swap3\n      swap2\n      pop\n      pop\n      jump\t// out\n        /* \"#utility.yul\":17891:18186   */\n    tag_237:\n        /* \"#utility.yul\":17967:17971   */\n      0x00\n        /* \"#utility.yul\":18113:18142   */\n      tag_418\n        /* \"#utility.yul\":18138:18141   */\n      dup4\n        /* \"#utility.yul\":18132:18136   */\n      dup4\n        /* \"#utility.yul\":18113:18142   */\n      tag_236\n      jump\t// in\n    tag_418:\n        /* \"#utility.yul\":18105:18142   */\n      swap2\n      pop\n        /* \"#utility.yul\":18175:18178   */\n      dup3\n        /* \"#utility.yul\":18172:18173   */\n      0x02\n        /* \"#utility.yul\":18168:18179   */\n      mul\n        /* \"#utility.yul\":18162:18166   */\n      dup3\n        /* \"#utility.yul\":18159:18180   */\n      or\n        /* \"#utility.yul\":18151:18180   */\n      swap1\n      pop\n        /* \"#utility.yul\":17891:18186   */\n      swap3\n      swap2\n      pop\n      pop\n      jump\t// out\n        /* \"#utility.yul\":18191:19586   */\n    tag_98:\n        /* \"#utility.yul\":18308:18345   */\n      tag_420\n        /* \"#utility.yul\":18341:18344   */\n      dup3\n        /* \"#utility.yul\":18308:18345   */\n      tag_187\n      jump\t// in\n    tag_420:\n        /* \"#utility.yul\":18410:18428   */\n      0xffffffffffffffff\n        /* \"#utility.yul\":18402:18408   */\n      dup2\n        /* \"#utility.yul\":18399:18429   */\n      gt\n        /* \"#utility.yul\":18396:18452   */\n      iszero\n      tag_421\n      jumpi\n        /* \"#utility.yul\":18432:18450   */\n      tag_422\n      tag_215\n      jump\t// in\n    tag_422:\n        /* \"#utility.yul\":18396:18452   */\n    tag_421:\n        /* \"#utility.yul\":18476:18514   */\n      tag_423\n        /* \"#utility.yul\":18508:18512   */\n      dup3\n        /* \"#utility.yul\":18502:18513   */\n      sload\n        /* \"#utility.yul\":18476:18514   */\n      tag_42\n      jump\t// in\n    tag_423:\n        /* \"#utility.yul\":18561:18628   */\n      tag_424\n        /* \"#utility.yul\":18621:18627   */\n      dup3\n        /* \"#utility.yul\":18613:18619   */\n      dup3\n        /* \"#utility.yul\":18607:18611   */\n      dup6\n        /* \"#utility.yul\":18561:18628   */\n      tag_234\n      jump\t// in\n    tag_424:\n        /* \"#utility.yul\":18655:18656   */\n      0x00\n        /* \"#utility.yul\":18679:18683   */\n      0x20\n        /* \"#utility.yul\":18666:18683   */\n      swap1\n      pop\n        /* \"#utility.yul\":18711:18713   */\n      0x1f\n        /* \"#utility.yul\":18703:18709   */\n      dup4\n        /* \"#utility.yul\":18700:18714   */\n      gt\n        /* \"#utility.yul\":18728:18729   */\n      0x01\n        /* \"#utility.yul\":18723:19341   */\n      dup2\n      eq\n      tag_426\n      jumpi\n        /* \"#utility.yul\":19385:19386   */\n      0x00\n        /* \"#utility.yul\":19402:19408   */\n      dup5\n        /* \"#utility.yul\":19399:19476   */\n      iszero\n      tag_427\n      jumpi\n        /* \"#utility.yul\":19451:19460   */\n      dup3\n        /* \"#utility.yul\":19446:19449   */\n      dup8\n        /* \"#utility.yul\":19442:19461   */\n      add\n        /* \"#utility.yul\":19436:19462   */\n      mload\n        /* \"#utility.yul\":19427:19462   */\n      swap1\n      pop\n        /* \"#utility.yul\":19399:19476   */\n    tag_427:\n        /* \"#utility.yul\":19502:19569   */\n      tag_428\n        /* \"#utility.yul\":19562:19568   */\n      dup6\n        /* \"#utility.yul\":19555:19560   */\n      dup3\n        /* \"#utility.yul\":19502:19569   */\n      tag_237\n      jump\t// in\n    tag_428:\n        /* \"#utility.yul\":19496:19500   */\n      dup7\n        /* \"#utility.yul\":19489:19570   */\n      sstore\n        /* \"#utility.yul\":19358:19580   */\n      pop\n        /* \"#utility.yul\":18693:19580   */\n      jump(tag_425)\n        /* \"#utility.yul\":18723:19341   */\n    tag_426:\n        /* \"#utility.yul\":18775:18779   */\n      0x1f\n        /* \"#utility.yul\":18771:18780   */\n      not\n        /* \"#utility.yul\":18763:18769   */\n      dup5\n        /* \"#utility.yul\":18759:18781   */\n      and\n        /* \"#utility.yul\":18809:18846   */\n      tag_429\n        /* \"#utility.yul\":18841:18845   */\n      dup7\n        /* \"#utility.yul\":18809:18846   */\n      tag_223\n      jump\t// in\n    tag_429:\n        /* \"#utility.yul\":18868:18869   */\n      0x00\n        /* \"#utility.yul\":18882:19090   */\n    tag_430:\n        /* \"#utility.yul\":18896:18903   */\n      dup3\n        /* \"#utility.yul\":18893:18894   */\n      dup2\n        /* \"#utility.yul\":18890:18904   */\n      lt\n        /* \"#utility.yul\":18882:19090   */\n      iszero\n      tag_432\n      jumpi\n        /* \"#utility.yul\":18975:18984   */\n      dup5\n        /* \"#utility.yul\":18970:18973   */\n      dup10\n        /* \"#utility.yul\":18966:18985   */\n      add\n        /* \"#utility.yul\":18960:18986   */\n      mload\n        /* \"#utility.yul\":18952:18958   */\n      dup3\n        /* \"#utility.yul\":18945:18987   */\n      sstore\n        /* \"#utility.yul\":19026:19027   */\n      0x01\n        /* \"#utility.yul\":19018:19024   */\n      dup3\n        /* \"#utility.yul\":19014:19028   */\n      add\n        /* \"#utility.yul\":19004:19028   */\n      swap2\n      pop\n        /* \"#utility.yul\":19073:19075   */\n      0x20\n        /* \"#utility.yul\":19062:19071   */\n      dup6\n        /* \"#utility.yul\":19058:19076   */\n      add\n        /* \"#utility.yul\":19045:19076   */\n      swap5\n      pop\n        /* \"#utility.yul\":18919:18923   */\n      0x20\n        /* \"#utility.yul\":18916:18917   */\n      dup2\n        /* \"#utility.yul\":18912:18924   */\n      add\n        /* \"#utility.yul\":18907:18924   */\n      swap1\n      pop\n        /* \"#utility.yul\":18882:19090   */\n      jump(tag_430)\n    tag_432:\n        /* \"#utility.yul\":19118:19124   */\n      dup7\n        /* \"#utility.yul\":19109:19116   */\n      dup4\n        /* \"#utility.yul\":19106:19125   */\n      lt\n        /* \"#utility.yul\":19103:19282   */\n      iszero\n      tag_433\n      jumpi\n        /* \"#utility.yul\":19176:19185   */\n      dup5\n        /* \"#utility.yul\":19171:19174   */\n      dup10\n        /* \"#utility.yul\":19167:19186   */\n      add\n        /* \"#utility.yul\":19161:19187   */\n      mload\n        /* \"#utility.yul\":19219:19267   */\n      tag_434\n        /* \"#utility.yul\":19261:19265   */\n      0x1f\n        /* \"#utility.yul\":19253:19259   */\n      dup10\n        /* \"#utility.yul\":19249:19266   */\n      and\n        /* \"#utility.yul\":19238:19247   */\n      dup3\n        /* \"#utility.yul\":19219:19267   */\n      tag_236\n      jump\t// in\n    tag_434:\n        /* \"#utility.yul\":19211:19217   */\n      dup4\n        /* \"#utility.yul\":19204:19268   */\n      sstore\n        /* \"#utility.yul\":19126:19282   */\n      pop\n        /* \"#utility.yul\":19103:19282   */\n    tag_433:\n        /* \"#utility.yul\":19328:19329   */\n      0x01\n        /* \"#utility.yul\":19324:19325   */\n      0x02\n        /* \"#utility.yul\":19316:19322   */\n      dup9\n        /* \"#utility.yul\":19312:19326   */\n      mul\n        /* \"#utility.yul\":19308:19330   */\n      add\n        /* \"#utility.yul\":19302:19306   */\n      dup9\n        /* \"#utility.yul\":19295:19331   */\n      sstore\n        /* \"#utility.yul\":18730:19341   */\n      pop\n      pop\n      pop\n        /* \"#utility.yul\":18693:19580   */\n    tag_425:\n      pop\n        /* \"#utility.yul\":18283:19586   */\n      pop\n      pop\n      pop\n        /* \"#utility.yul\":18191:19586   */\n      pop\n      pop\n      jump\t// out\n        /* \"#utility.yul\":19592:19772   */\n    tag_238:\n        /* \"#utility.yul\":19640:19717   */\n      0x4e487b7100000000000000000000000000000000000000000000000000000000\n        /* \"#utility.yul\":19637:19638   */\n      0x00\n        /* \"#utility.yul\":19630:19718   */\n      mstore\n        /* \"#utility.yul\":19737:19741   */\n      0x11\n        /* \"#utility.yul\":19734:19735   */\n      0x04\n        /* \"#utility.yul\":19727:19742   */\n      mstore\n        /* \"#utility.yul\":19761:19765   */\n      0x24\n        /* \"#utility.yul\":19758:19759   */\n      0x00\n        /* \"#utility.yul\":19751:19766   */\n      revert\n        /* \"#utility.yul\":19778:20011   */\n    tag_102:\n        /* \"#utility.yul\":19817:19820   */\n      0x00\n        /* \"#utility.yul\":19840:19864   */\n      tag_437\n        /* \"#utility.yul\":19858:19863   */\n      dup3\n        /* \"#utility.yul\":19840:19864   */\n      tag_202\n      jump\t// in\n    tag_437:\n        /* \"#utility.yul\":19831:19864   */\n      swap2\n      pop\n        /* \"#utility.yul\":19886:19952   */\n      0xffffffffffffffffffffffffffffffffffffffffffffffffffffffffffffffff\n        /* \"#utility.yul\":19879:19884   */\n      dup3\n        /* \"#utility.yul\":19876:19953   */\n      sub\n        /* \"#utility.yul\":19873:19976   */\n      tag_438\n      jumpi\n        /* \"#utility.yul\":19956:19974   */\n      tag_439\n      tag_238\n      jump\t// in\n    tag_439:\n        /* \"#utility.yul\":19873:19976   */\n    tag_438:\n        /* \"#utility.yul\":20003:20004   */\n      0x01\n        /* \"#utility.yul\":19996:20001   */\n      dup3\n        /* \"#utility.yul\":19992:20005   */\n      add\n        /* \"#utility.yul\":19985:20005   */\n      swap1\n      pop\n        /* \"#utility.yul\":19778:20011   */\n      swap2\n      swap1\n      pop\n      jump\t// out\n        /* \"#utility.yul\":20017:20211   */\n    tag_107:\n        /* \"#utility.yul\":20057:20061   */\n      0x00\n        /* \"#utility.yul\":20077:20097   */\n      tag_441\n        /* \"#utility.yul\":20095:20096   */\n      dup3\n        /* \"#utility.yul\":20077:20097   */\n      tag_202\n      jump\t// in\n    tag_441:\n        /* \"#utility.yul\":20072:20097   */\n      swap2\n      pop\n        /* \"#utility.yul\":20111:20131   */\n      tag_442\n        /* \"#utility.yul\":20129:20130   */\n      dup4\n        /* \"#utility.yul\":20111:20131   */\n      tag_202\n      jump\t// in\n    tag_442:\n        /* \"#utility.yul\":20106:20131   */\n      swap3\n      pop\n        /* \"#utility.yul\":20155:20156   */\n      dup3\n        /* \"#utility.yul\":20152:20153   */\n      dup3\n        /* \"#utility.yul\":20148:20157   */\n      sub\n        /* \"#utility.yul\":20140:20157   */\n      swap1\n      pop\n        /* \"#utility.yul\":20179:20180   */\n      dup2\n        /* \"#utility.yul\":20173:20177   */\n      dup2\n        /* \"#utility.yul\":20170:20181   */\n      gt\n        /* \"#utility.yul\":20167:20204   */\n      iszero\n      tag_443\n      jumpi\n        /* \"#utility.yul\":20184:20202   */\n      tag_444\n      tag_238\n      jump\t// in\n    tag_444:\n        /* \"#utility.yul\":20167:20204   */\n    tag_443:\n        /* \"#utility.yul\":20017:20211   */\n      swap3\n      swap2\n      pop\n      pop\n      jump\t// out\n        /* \"#utility.yul\":20217:20366   */\n    tag_239:\n        /* \"#utility.yul\":20266:20272   */\n      0x00\n        /* \"#utility.yul\":20300:20305   */\n      dup2\n        /* \"#utility.yul\":20294:20306   */\n      sload\n        /* \"#utility.yul\":20284:20306   */\n      swap1\n      pop\n        /* \"#utility.yul\":20326:20359   */\n      tag_446\n        /* \"#utility.yul\":20352:20358   */\n      dup2\n        /* \"#utility.yul\":20326:20359   */\n      tag_42\n      jump\t// in\n    tag_446:\n        /* \"#utility.yul\":20316:20359   */\n      swap1\n      pop\n        /* \"#utility.yul\":20217:20366   */\n      swap2\n      swap1\n      pop\n      jump\t// out\n        /* \"#utility.yul\":20372:21823   */\n    tag_115:\n        /* \"#utility.yul\":20483:20486   */\n      dup2\n        /* \"#utility.yul\":20477:20481   */\n      dup2\n        /* \"#utility.yul\":20474:20487   */\n      sub\n        /* \"#utility.yul\":20471:20497   */\n      tag_448\n      jumpi\n        /* \"#utility.yul\":20490:20495   */\n      pop\n      pop\n      jump(tag_447)\n        /* \"#utility.yul\":20471:20497   */\n    tag_448:\n        /* \"#utility.yul\":20521:20555   */\n      tag_449\n        /* \"#utility.yul\":20551:20554   */\n      dup3\n        /* \"#utility.yul\":20521:20555   */\n      tag_239\n      jump\t// in\n    tag_449:\n        /* \"#utility.yul\":20620:20638   */\n      0xffffffffffffffff\n        /* \"#utility.yul\":20612:20618   */\n      dup2\n        /* \"#utility.yul\":20609:20639   */\n      gt\n        /* \"#utility.yul\":20606:20662   */\n      iszero\n      tag_450\n      jumpi\n        /* \"#utility.yul\":20642:20660   */\n      tag_451\n      tag_215\n      jump\t// in\n    tag_451:\n        /* \"#utility.yul\":20606:20662   */\n    tag_450:\n        /* \"#utility.yul\":20686:20724   */\n      tag_452\n        /* \"#utility.yul\":20718:20722   */\n      dup3\n        /* \"#utility.yul\":20712:20723   */\n      sload\n        /* \"#utility.yul\":20686:20724   */\n      tag_42\n      jump\t// in\n    tag_452:\n        /* \"#utility.yul\":20771:20838   */\n      tag_453\n        /* \"#utility.yul\":20831:20837   */\n      dup3\n        /* \"#utility.yul\":20823:20829   */\n      dup3\n        /* \"#utility.yul\":20817:20821   */\n      dup6\n        /* \"#utility.yul\":20771:20838   */\n      tag_234\n      jump\t// in\n    tag_453:\n        /* \"#utility.yul\":20865:20866   */\n      0x00\n        /* \"#utility.yul\":20894:20896   */\n      0x1f\n        /* \"#utility.yul\":20886:20892   */\n      dup4\n        /* \"#utility.yul\":20883:20897   */\n      gt\n        /* \"#utility.yul\":20911:20912   */\n      0x01\n        /* \"#utility.yul\":20906:21578   */\n      dup2\n      eq\n      tag_455\n      jumpi\n        /* \"#utility.yul\":21622:21623   */\n      0x00\n        /* \"#utility.yul\":21639:21645   */\n      dup5\n        /* \"#utility.yul\":21636:21713   */\n      iszero\n      tag_456\n      jumpi\n        /* \"#utility.yul\":21688:21697   */\n      dup3\n        /* \"#utility.yul\":21683:21686   */\n      dup8\n        /* \"#utility.yul\":21679:21698   */\n      add\n        /* \"#utility.yul\":21673:21699   */\n      sload\n        /* \"#utility.yul\":21664:21699   */\n      swap1\n      pop\n        /* \"#utility.yul\":21636:21713   */\n    tag_456:\n        /* \"#utility.yul\":21739:21806   */\n      tag_457\n        /* \"#utility.yul\":21799:21805   */\n      dup6\n        /* \"#utility.yul\":21792:21797   */\n      dup3\n        /* \"#utility.yul\":21739:21806   */\n      tag_237\n      jump\t// in\n    tag_457:\n        /* \"#utility.yul\":21733:21737   */\n      dup7\n        /* \"#utility.yul\":21726:21807   */\n      sstore\n        /* \"#utility.yul\":21595:21817   */\n      pop\n        /* \"#utility.yul\":20876:21817   */\n      jump(tag_454)\n        /* \"#utility.yul\":20906:21578   */\n    tag_455:\n        /* \"#utility.yul\":20958:20962   */\n      0x1f\n        /* \"#utility.yul\":20954:20963   */\n      not\n        /* \"#utility.yul\":20946:20952   */\n      dup5\n        /* \"#utility.yul\":20942:20964   */\n      and\n        /* \"#utility.yul\":20984:21020   */\n      tag_458\n        /* \"#utility.yul\":21016:21019   */\n      dup8\n        /* \"#utility.yul\":20984:21020   */\n      tag_223\n      jump\t// in\n    tag_458:\n        /* \"#utility.yul\":20977:21020   */\n      swap7\n      pop\n        /* \"#utility.yul\":21047:21084   */\n      tag_459\n        /* \"#utility.yul\":21079:21083   */\n      dup7\n        /* \"#utility.yul\":21047:21084   */\n      tag_223\n      jump\t// in\n    tag_459:\n        /* \"#utility.yul\":21106:21107   */\n      0x00\n        /* \"#utility.yul\":21120:21327   */\n    tag_460:\n        /* \"#utility.yul\":21134:21141   */\n      dup3\n        /* \"#utility.yul\":21131:21132   */\n      dup2\n        /* \"#utility.yul\":21128:21142   */\n      lt\n        /* \"#utility.yul\":21120:21327   */\n      iszero\n      tag_462\n      jumpi\n        /* \"#utility.yul\":21213:21222   */\n      dup5\n        /* \"#utility.yul\":21208:21211   */\n      dup10\n        /* \"#utility.yul\":21204:21223   */\n      add\n        /* \"#utility.yul\":21198:21224   */\n      sload\n        /* \"#utility.yul\":21190:21196   */\n      dup3\n        /* \"#utility.yul\":21183:21225   */\n      sstore\n        /* \"#utility.yul\":21264:21265   */\n      0x01\n        /* \"#utility.yul\":21256:21262   */\n      dup3\n        /* \"#utility.yul\":21252:21266   */\n      add\n        /* \"#utility.yul\":21242:21266   */\n      swap2\n      pop\n        /* \"#utility.yul\":21311:21312   */\n      0x01\n        /* \"#utility.yul\":21300:21309   */\n      dup6\n        /* \"#utility.yul\":21296:21313   */\n      add\n        /* \"#utility.yul\":21283:21313   */\n      swap5\n      pop\n        /* \"#utility.yul\":21157:21161   */\n      0x20\n        /* \"#utility.yul\":21154:21155   */\n      dup2\n        /* \"#utility.yul\":21150:21162   */\n      add\n        /* \"#utility.yul\":21145:21162   */\n      swap1\n      pop\n        /* \"#utility.yul\":21120:21327   */\n      jump(tag_460)\n    tag_462:\n        /* \"#utility.yul\":21355:21361   */\n      dup7\n        /* \"#utility.yul\":21346:21353   */\n      dup4\n        /* \"#utility.yul\":21343:21362   */\n      lt\n        /* \"#utility.yul\":21340:21519   */\n      iszero\n      tag_463\n      jumpi\n        /* \"#utility.yul\":21413:21422   */\n      dup5\n        /* \"#utility.yul\":21408:21411   */\n      dup10\n        /* \"#utility.yul\":21404:21423   */\n      add\n        /* \"#utility.yul\":21398:21424   */\n      sload\n        /* \"#utility.yul\":21456:21504   */\n      tag_464\n        /* \"#utility.yul\":21498:21502   */\n      0x1f\n        /* \"#utility.yul\":21490:21496   */\n      dup10\n        /* \"#utility.yul\":21486:21503   */\n      and\n        /* \"#utility.yul\":21475:21484   */\n      dup3\n        /* \"#utility.yul\":21456:21504   */\n      tag_236\n      jump\t// in\n    tag_464:\n        /* \"#utility.yul\":21448:21454   */\n      dup4\n        /* \"#utility.yul\":21441:21505   */\n      sstore\n        /* \"#utility.yul\":21363:21519   */\n      pop\n        /* \"#utility.yul\":21340:21519   */\n    tag_463:\n        /* \"#utility.yul\":21565:21566   */\n      0x01\n        /* \"#utility.yul\":21561:21562   */\n      0x02\n        /* \"#utility.yul\":21553:21559   */\n      dup9\n        /* \"#utility.yul\":21549:21563   */\n      mul\n        /* \"#utility.yul\":21545:21567   */\n      add\n        /* \"#utility.yul\":21539:21543   */\n      dup9\n        /* \"#utility.yul\":21532:21568   */\n      sstore\n        /* \"#utility.yul\":20913:21578   */\n      pop\n      pop\n      pop\n        /* \"#utility.yul\":20876:21817   */\n    tag_454:\n      pop\n        /* \"#utility.yul\":20461:21823   */\n      pop\n      pop\n      pop\n        /* \"#utility.yul\":20372:21823   */\n      pop\n      pop\n    tag_447:\n      jump\t// out\n        /* \"#utility.yul\":21829:22009   */\n    tag_120:\n        /* \"#utility.yul\":21877:21954   */\n      0x4e487b7100000000000000000000000000000000000000000000000000000000\n        /* \"#utility.yul\":21874:21875   */\n      0x00\n        /* \"#utility.yul\":21867:21955   */\n      mstore\n        /* \"#utility.yul\":21974:21978   */\n      0x31\n        /* \"#utility.yul\":21971:21972   */\n      0x04\n        /* \"#utility.yul\":21964:21979   */\n      mstore\n        /* \"#utility.yul\":21998:22002   */\n      0x24\n        /* \"#utility.yul\":21995:21996   */\n      0x00\n        /* \"#utility.yul\":21988:22003   */\n      revert\n\n    auxdata: 0xa26469706673582212206f9e3b5c7d9c53e10d267c7c6994493828f8ca648c5735ccd0866c09b72ee19a64736f6c63430008100033\n}\n","bytecode":{"linkReferences":{},"object":"60806040526000600b556000600c5534801561001a57600080fd5b5061263e8061002a6000396000f3fe608060405234801561001057600080fd5b50600436106100625760003560e01c80631e0f71fe1461006757806328538949146100975780636f7267b7146100c757806395caa166146100f7578063bc47873b14610113578063be4c3d261461012f575b600080fd5b610081600480360381019061007c9190611abe565b61014b565b60405161008e9190611de5565b60405180910390f35b6100b160048036038101906100ac9190611e33565b61055c565b6040516100be9190611de5565b60405180910390f35b6100e160048036038101906100dc9190611e8c565b61079f565b6040516100ee9190611f49565b60405180910390f35b610111600480360381019061010c9190611e8c565b610986565b005b61012d600480360381019061012891906120a0565b610f44565b005b61014960048036038101906101449190611e8c565b6116db565b005b60608115610357576008805480602002602001604051908101604052809291908181526020016000905b8282101561034c57838290600052602060002090600602016040518060c00160405290816000820180546101a890612152565b80601f01602080910402602001604051908101604052809291908181526020018280546101d490612152565b80156102215780601f106101f657610100808354040283529160200191610221565b820191906000526020600020905b81548152906001019060200180831161020457829003601f168201915b505050505081526020016001820160009054906101000a900473ffffffffffffffffffffffffffffffffffffffff1673ffffffffffffffffffffffffffffffffffffffff1673ffffffffffffffffffffffffffffffffffffffff1681526020016002820180548060200260200160405190810160405280929190818152602001828054801561030557602002820191906000526020600020905b8160009054906101000a900473ffffffffffffffffffffffffffffffffffffffff1673ffffffffffffffffffffffffffffffffffffffff16815260200190600101908083116102bb575b505050505081526020016003820160009054906101000a900460ff161515151581526020016004820154815260200160058201548152505081526020019060010190610175565b505050509050610557565b6006805480602002602001604051908101604052809291908181526020016000905b8282101561055057838290600052602060002090600602016040518060c00160405290816000820180546103ac90612152565b80601f01602080910402602001604051908101604052809291908181526020018280546103d890612152565b80156104255780601f106103fa57610100808354040283529160200191610425565b820191906000526020600020905b81548152906001019060200180831161040857829003601f168201915b505050505081526020016001820160009054906101000a900473ffffffffffffffffffffffffffffffffffffffff1673ffffffffffffffffffffffffffffffffffffffff1673ffffffffffffffffffffffffffffffffffffffff1681526020016002820180548060200260200160405190810160405280929190818152602001828054801561050957602002820191906000526020600020905b8160009054906101000a900473ffffffffffffffffffffffffffffffffffffffff1673ffffffffffffffffffffffffffffffffffffffff16815260200190600101908083116104bf575b505050505081526020016003820160009054906101000a900460ff161515151581526020016004820154815260200160058201548152505081526020019060010190610379565b5050505090505b919050565b6060600760008373ffffffffffffffffffffffffffffffffffffffff1673ffffffffffffffffffffffffffffffffffffffff168152602001908152602001600020805480602002602001604051908101604052809291908181526020016000905b8282101561079457838290600052602060002090600602016040518060c00160405290816000820180546105f090612152565b80601f016020809104026020016040519081016040528092919081815260200182805461061c90612152565b80156106695780601f1061063e57610100808354040283529160200191610669565b820191906000526020600020905b81548152906001019060200180831161064c57829003601f168201915b505050505081526020016001820160009054906101000a900473ffffffffffffffffffffffffffffffffffffffff1673ffffffffffffffffffffffffffffffffffffffff1673ffffffffffffffffffffffffffffffffffffffff1681526020016002820180548060200260200160405190810160405280929190818152602001828054801561074d57602002820191906000526020600020905b8160009054906101000a900473ffffffffffffffffffffffffffffffffffffffff1673ffffffffffffffffffffffffffffffffffffffff1681526020019060010190808311610703575b505050505081526020016003820160009054906101000a900460ff1615151515815260200160048201548152602001600582015481525050815260200190600101906105bd565b505050509050919050565b6107a76118ca565b6000600683815481106107bd576107bc612183565b5b90600052602060002090600602016040518060c00160405290816000820180546107e690612152565b80601f016020809104026020016040519081016040528092919081815260200182805461081290612152565b801561085f5780601f106108345761010080835404028352916020019161085f565b820191906000526020600020905b81548152906001019060200180831161084257829003601f168201915b505050505081526020016001820160009054906101000a900473ffffffffffffffffffffffffffffffffffffffff1673ffffffffffffffffffffffffffffffffffffffff1673ffffffffffffffffffffffffffffffffffffffff1681526020016002820180548060200260200160405190810160405280929190818152602001828054801561094357602002820191906000526020600020905b8160009054906101000a900473ffffffffffffffffffffffffffffffffffffffff1673ffffffffffffffffffffffffffffffffffffffff16815260200190600101908083116108f9575b505050505081526020016003820160009054906101000a900460ff1615151515815260200160048201548152602001600582015481525050905080915050919050565b60006008828154811061099c5761099b612183565b5b90600052602060002090600602016040518060c00160405290816000820180546109c590612152565b80601f01602080910402602001604051908101604052809291908181526020018280546109f190612152565b8015610a3e5780601f10610a1357610100808354040283529160200191610a3e565b820191906000526020600020905b815481529060010190602001808311610a2157829003601f168201915b505050505081526020016001820160009054906101000a900473ffffffffffffffffffffffffffffffffffffffff1673ffffffffffffffffffffffffffffffffffffffff1673ffffffffffffffffffffffffffffffffffffffff16815260200160028201805480602002602001604051908101604052809291908181526020018280548015610b2257602002820191906000526020600020905b8160009054906101000a900473ffffffffffffffffffffffffffffffffffffffff1673ffffffffffffffffffffffffffffffffffffffff1681526020019060010190808311610ad8575b505050505081526020016003820160009054906101000a900460ff16151515158152602001600482015481526020016005820154815250509050600081606001901515908115158152505060068190806001815401808255809150506001900390600052602060002090600602016000909190919091506000820151816000019081610bae919061235e565b5060208201518160010160006101000a81548173ffffffffffffffffffffffffffffffffffffffff021916908373ffffffffffffffffffffffffffffffffffffffff1602179055506040820151816002019080519060200190610c12929190611918565b5060608201518160030160006101000a81548160ff0219169083151502179055506080820151816004015560a082015181600501555050600c6000815480929190610c5c9061245f565b919050555060076000826020015173ffffffffffffffffffffffffffffffffffffffff1673ffffffffffffffffffffffffffffffffffffffff1681526020019081526020016000208190806001815401808255809150506001900390600052602060002090600602016000909190919091506000820151816000019081610ce3919061235e565b5060208201518160010160006101000a81548173ffffffffffffffffffffffffffffffffffffffff021916908373ffffffffffffffffffffffffffffffffffffffff1602179055506040820151816002019080519060200190610d47929190611918565b5060608201518160030160006101000a81548160ff0219169083151502179055506080820151816004015560a08201518160050155505060086001600880549050610d9291906124a7565b81548110610da357610da2612183565b5b906000526020600020906006020160088381548110610dc557610dc4612183565b5b906000526020600020906006020160008201816000019081610de791906124f1565b506001820160009054906101000a900473ffffffffffffffffffffffffffffffffffffffff168160010160006101000a81548173ffffffffffffffffffffffffffffffffffffffff021916908373ffffffffffffffffffffffffffffffffffffffff1602179055506002820181600201908054610e659291906119a2565b506003820160009054906101000a900460ff168160030160006101000a81548160ff02191690831515021790555060048201548160040155600582015481600501559050506008805480610ebc57610ebb6125d9565b5b600190038181906000526020600020906006020160008082016000610ee191906119f4565b6001820160006101000a81549073ffffffffffffffffffffffffffffffffffffffff0219169055600282016000610f189190611a34565b6003820160006101000a81549060ff021916905560048201600090556005820160009055505090555050565b83600080019081610f55919061235e565b5082600060010160006101000a81548173ffffffffffffffffffffffffffffffffffffffff021916908373ffffffffffffffffffffffffffffffffffffffff1602179055506000600201829080600181540180825580915050600190039060005260206000200160009091909190916101000a81548173ffffffffffffffffffffffffffffffffffffffff021916908373ffffffffffffffffffffffffffffffffffffffff16021790555080600060030160006101000a81548160ff0219169083151502179055504260006004018190555043600060050181905550600115158115151461138b576006600090806001815401808255809150506001900390600052602060002090600602016000909190919091506000820181600001908161107e91906124f1565b506001820160009054906101000a900473ffffffffffffffffffffffffffffffffffffffff168160010160006101000a81548173ffffffffffffffffffffffffffffffffffffffff021916908373ffffffffffffffffffffffffffffffffffffffff16021790555060028201816002019080546110fc9291906119a2565b506003820160009054906101000a900460ff168160030160006101000a81548160ff02191690831515021790555060048201548160040155600582015481600501555050600760008473ffffffffffffffffffffffffffffffffffffffff1673ffffffffffffffffffffffffffffffffffffffff16815260200190815260200160002060009080600181540180825580915050600190039060005260206000209060060201600090919091909150600082018160000190816111be91906124f1565b506001820160009054906101000a900473ffffffffffffffffffffffffffffffffffffffff168160010160006101000a81548173ffffffffffffffffffffffffffffffffffffffff021916908373ffffffffffffffffffffffffffffffffffffffff160217905550600282018160020190805461123c9291906119a2565b506003820160009054906101000a900460ff168160030160006101000a81548160ff021916908315150217905550600482015481600401556005820154816005015550506000600a6000600c548152602001908152602001600020600082018160000190816112ab91906124f1565b506001820160009054906101000a900473ffffffffffffffffffffffffffffffffffffffff168160010160006101000a81548173ffffffffffffffffffffffffffffffffffffffff021916908373ffffffffffffffffffffffffffffffffffffffff16021790555060028201816002019080546113299291906119a2565b506003820160009054906101000a900460ff168160030160006101000a81548160ff0219169083151502179055506004820154816004015560058201548160050155905050600c60008154809291906113819061245f565b91905055506116d5565b600860009080600181540180825580915050600190039060005260206000209060060201600090919091909150600082018160000190816113cc91906124f1565b506001820160009054906101000a900473ffffffffffffffffffffffffffffffffffffffff168160010160006101000a81548173ffffffffffffffffffffffffffffffffffffffff021916908373ffffffffffffffffffffffffffffffffffffffff160217905550600282018160020190805461144a9291906119a2565b506003820160009054906101000a900460ff168160030160006101000a81548160ff02191690831515021790555060048201548160040155600582015481600501555050600960008473ffffffffffffffffffffffffffffffffffffffff1673ffffffffffffffffffffffffffffffffffffffff168152602001908152602001600020600090806001815401808255809150506001900390600052602060002090600602016000909190919091506000820181600001908161150c91906124f1565b506001820160009054906101000a900473ffffffffffffffffffffffffffffffffffffffff168160010160006101000a81548173ffffffffffffffffffffffffffffffffffffffff021916908373ffffffffffffffffffffffffffffffffffffffff160217905550600282018160020190805461158a9291906119a2565b506003820160009054906101000a900460ff168160030160006101000a81548160ff021916908315150217905550600482015481600401556005820154816005015550506000600a6000600b548152602001908152602001600020600082018160000190816115f991906124f1565b506001820160009054906101000a900473ffffffffffffffffffffffffffffffffffffffff168160010160006101000a81548173ffffffffffffffffffffffffffffffffffffffff021916908373ffffffffffffffffffffffffffffffffffffffff16021790555060028201816002019080546116779291906119a2565b506003820160009054906101000a900460ff168160030160006101000a81548160ff0219169083151502179055506004820154816004015560058201548160050155905050600b60008154809291906116cf9061245f565b91905055505b50505050565b6000600682815481106116f1576116f0612183565b5b90600052602060002090600602016040518060c001604052908160008201805461171a90612152565b80601f016020809104026020016040519081016040528092919081815260200182805461174690612152565b80156117935780601f1061176857610100808354040283529160200191611793565b820191906000526020600020905b81548152906001019060200180831161177657829003601f168201915b505050505081526020016001820160009054906101000a900473ffffffffffffffffffffffffffffffffffffffff1673ffffffffffffffffffffffffffffffffffffffff1673ffffffffffffffffffffffffffffffffffffffff1681526020016002820180548060200260200160405190810160405280929190818152602001828054801561187757602002820191906000526020600020905b8160009054906101000a900473ffffffffffffffffffffffffffffffffffffffff1673ffffffffffffffffffffffffffffffffffffffff168152602001906001019080831161182d575b505050505081526020016003820160009054906101000a900460ff161515151581526020016004820154815260200160058201548152505090506118c681600001518260200151336000610f44565b5050565b6040518060c0016040528060608152602001600073ffffffffffffffffffffffffffffffffffffffff1681526020016060815260200160001515815260200160008152602001600081525090565b828054828255906000526020600020908101928215611991579160200282015b828111156119905782518260006101000a81548173ffffffffffffffffffffffffffffffffffffffff021916908373ffffffffffffffffffffffffffffffffffffffff16021790555091602001919060010190611938565b5b50905061199e9190611a55565b5090565b8280548282559060005260206000209081019282156119e35760005260206000209182015b828111156119e25782548255916001019190600101906119c7565b5b5090506119f09190611a55565b5090565b508054611a0090612152565b6000825580601f10611a125750611a31565b601f016020900490600052602060002090810190611a309190611a55565b5b50565b5080546000825590600052602060002090810190611a529190611a55565b50565b5b80821115611a6e576000816000905550600101611a56565b5090565b6000604051905090565b600080fd5b600080fd5b60008115159050919050565b611a9b81611a86565b8114611aa657600080fd5b50565b600081359050611ab881611a92565b92915050565b600060208284031215611ad457611ad3611a7c565b5b6000611ae284828501611aa9565b91505092915050565b600081519050919050565b600082825260208201905092915050565b6000819050602082019050919050565b600081519050919050565b600082825260208201905092915050565b60005b83811015611b51578082015181840152602081019050611b36565b60008484015250505050565b6000601f19601f8301169050919050565b6000611b7982611b17565b611b838185611b22565b9350611b93818560208601611b33565b611b9c81611b5d565b840191505092915050565b600073ffffffffffffffffffffffffffffffffffffffff82169050919050565b6000611bd282611ba7565b9050919050565b611be281611bc7565b82525050565b600081519050919050565b600082825260208201905092915050565b6000819050602082019050919050565b6000611c208383611bd9565b60208301905092915050565b6000602082019050919050565b6000611c4482611be8565b611c4e8185611bf3565b9350611c5983611c04565b8060005b83811015611c8a578151611c718882611c14565b9750611c7c83611c2c565b925050600181019050611c5d565b5085935050505092915050565b611ca081611a86565b82525050565b6000819050919050565b611cb981611ca6565b82525050565b600060c0830160008301518482036000860152611cdc8282611b6e565b9150506020830151611cf16020860182611bd9565b5060408301518482036040860152611d098282611c39565b9150506060830151611d1e6060860182611c97565b506080830151611d316080860182611cb0565b5060a0830151611d4460a0860182611cb0565b508091505092915050565b6000611d5b8383611cbf565b905092915050565b6000602082019050919050565b6000611d7b82611aeb565b611d858185611af6565b935083602082028501611d9785611b07565b8060005b85811015611dd35784840389528151611db48582611d4f565b9450611dbf83611d63565b925060208a01995050600181019050611d9b565b50829750879550505050505092915050565b60006020820190508181036000830152611dff8184611d70565b905092915050565b611e1081611bc7565b8114611e1b57600080fd5b50565b600081359050611e2d81611e07565b92915050565b600060208284031215611e4957611e48611a7c565b5b6000611e5784828501611e1e565b91505092915050565b611e6981611ca6565b8114611e7457600080fd5b50565b600081359050611e8681611e60565b92915050565b600060208284031215611ea257611ea1611a7c565b5b6000611eb084828501611e77565b91505092915050565b600060c0830160008301518482036000860152611ed68282611b6e565b9150506020830151611eeb6020860182611bd9565b5060408301518482036040860152611f038282611c39565b9150506060830151611f186060860182611c97565b506080830151611f2b6080860182611cb0565b5060a0830151611f3e60a0860182611cb0565b508091505092915050565b60006020820190508181036000830152611f638184611eb9565b905092915050565b600080fd5b600080fd5b7f4e487b7100000000000000000000000000000000000000000000000000000000600052604160045260246000fd5b611fad82611b5d565b810181811067ffffffffffffffff82111715611fcc57611fcb611f75565b5b80604052505050565b6000611fdf611a72565b9050611feb8282611fa4565b919050565b600067ffffffffffffffff82111561200b5761200a611f75565b5b61201482611b5d565b9050602081019050919050565b82818337600083830152505050565b600061204361203e84611ff0565b611fd5565b90508281526020810184848401111561205f5761205e611f70565b5b61206a848285612021565b509392505050565b600082601f83011261208757612086611f6b565b5b8135612097848260208601612030565b91505092915050565b600080600080608085870312156120ba576120b9611a7c565b5b600085013567ffffffffffffffff8111156120d8576120d7611a81565b5b6120e487828801612072565b94505060206120f587828801611e1e565b935050604061210687828801611e1e565b925050606061211787828801611aa9565b91505092959194509250565b7f4e487b7100000000000000000000000000000000000000000000000000000000600052602260045260246000fd5b6000600282049050600182168061216a57607f821691505b60208210810361217d5761217c612123565b5b50919050565b7f4e487b7100000000000000000000000000000000000000000000000000000000600052603260045260246000fd5b60008190508160005260206000209050919050565b60006020601f8301049050919050565b600082821b905092915050565b6000600883026122147fffffffffffffffffffffffffffffffffffffffffffffffffffffffffffffffff826121d7565b61221e86836121d7565b95508019841693508086168417925050509392505050565b6000819050919050565b600061225b61225661225184611ca6565b612236565b611ca6565b9050919050565b6000819050919050565b61227583612240565b61228961228182612262565b8484546121e4565b825550505050565b600090565b61229e612291565b6122a981848461226c565b505050565b5b818110156122cd576122c2600082612296565b6001810190506122af565b5050565b601f821115612312576122e3816121b2565b6122ec846121c7565b810160208510156122fb578190505b61230f612307856121c7565b8301826122ae565b50505b505050565b600082821c905092915050565b600061233560001984600802612317565b1980831691505092915050565b600061234e8383612324565b9150826002028217905092915050565b61236782611b17565b67ffffffffffffffff8111156123805761237f611f75565b5b61238a8254612152565b6123958282856122d1565b600060209050601f8311600181146123c857600084156123b6578287015190505b6123c08582612342565b865550612428565b601f1984166123d6866121b2565b60005b828110156123fe578489015182556001820191506020850194506020810190506123d9565b8683101561241b5784890151612417601f891682612324565b8355505b6001600288020188555050505b505050505050565b7f4e487b7100000000000000000000000000000000000000000000000000000000600052601160045260246000fd5b600061246a82611ca6565b91507fffffffffffffffffffffffffffffffffffffffffffffffffffffffffffffffff820361249c5761249b612430565b5b600182019050919050565b60006124b282611ca6565b91506124bd83611ca6565b92508282039050818111156124d5576124d4612430565b5b92915050565b6000815490506124ea81612152565b9050919050565b8181036124ff5750506125d7565b612508826124db565b67ffffffffffffffff81111561252157612520611f75565b5b61252b8254612152565b6125368282856122d1565b6000601f8311600181146125655760008415612553578287015490505b61255d8582612342565b8655506125d0565b601f198416612573876121b2565b965061257e866121b2565b60005b828110156125a657848901548255600182019150600185019450602081019050612581565b868310156125c357848901546125bf601f891682612324565b8355505b6001600288020188555050505b5050505050505b565b7f4e487b7100000000000000000000000000000000000000000000000000000000600052603160045260246000fdfea26469706673582212206f9e3b5c7d9c53e10d267c7c6994493828f8ca648c5735ccd0866c09b72ee19a64736f6c63430008100033","opcodes":"PUSH1 0x80 PUSH1 0x40 MSTORE PUSH1 0x0 PUSH1 0xB SSTORE PUSH1 0x0 PUSH1 0xC SSTORE CALLVALUE DUP1 ISZERO PUSH2 0x1A JUMPI PUSH1 0x0 DUP1 REVERT JUMPDEST POP PUSH2 0x263E DUP1 PUSH2 0x2A PUSH1 0x0 CODECOPY PUSH1 0x0 RETURN INVALID PUSH1 0x80 PUSH1 0x40 MSTORE CALLVALUE DUP1 ISZERO PUSH2 0x10 JUMPI PUSH1 0x0 DUP1 REVERT JUMPDEST POP PUSH1 0x4 CALLDATASIZE LT PUSH2 0x62 JUMPI PUSH1 0x0 CALLDATALOAD PUSH1 0xE0 SHR DUP1 PUSH4 0x1E0F71FE EQ PUSH2 0x67 JUMPI DUP1 PUSH4 0x28538949 EQ PUSH2 0x97 JUMPI DUP1 PUSH4 0x6F7267B7 EQ PUSH2 0xC7 JUMPI DUP1 PUSH4 0x95CAA166 EQ PUSH2 0xF7 JUMPI DUP1 PUSH4 0xBC47873B EQ PUSH2 0x113 JUMPI DUP1 PUSH4 0xBE4C3D26 EQ PUSH2 0x12F JUMPI JUMPDEST PUSH1 0x0 DUP1 REVERT JUMPDEST PUSH2 0x81 PUSH1 0x4 DUP1 CALLDATASIZE SUB DUP2 ADD SWAP1 PUSH2 0x7C SWAP2 SWAP1 PUSH2 0x1ABE JUMP JUMPDEST PUSH2 0x14B JUMP JUMPDEST PUSH1 0x40 MLOAD PUSH2 0x8E SWAP2 SWAP1 PUSH2 0x1DE5 JUMP JUMPDEST PUSH1 0x40 MLOAD DUP1 SWAP2 SUB SWAP1 RETURN JUMPDEST PUSH2 0xB1 PUSH1 0x4 DUP1 CALLDATASIZE SUB DUP2 ADD SWAP1 PUSH2 0xAC SWAP2 SWAP1 PUSH2 0x1E33 JUMP JUMPDEST PUSH2 0x55C JUMP JUMPDEST PUSH1 0x40 MLOAD PUSH2 0xBE SWAP2 SWAP1 PUSH2 0x1DE5 JUMP JUMPDEST PUSH1 0x40 MLOAD DUP1 SWAP2 SUB SWAP1 RETURN JUMPDEST PUSH2 0xE1 PUSH1 0x4 DUP1 CALLDATASIZE SUB DUP2 ADD SWAP1 PUSH2 0xDC SWAP2 SWAP1 PUSH2 0x1E8C JUMP JUMPDEST PUSH2 0x79F JUMP JUMPDEST PUSH1 0x40 MLOAD PUSH2 0xEE SWAP2 SWAP1 PUSH2 0x1F49 JUMP JUMPDEST PUSH1 0x40 MLOAD DUP1 SWAP2 SUB SWAP1 RETURN JUMPDEST PUSH2 0x111 PUSH1 0x4 DUP1 CALLDATASIZE SUB DUP2 ADD SWAP1 PUSH2 0x10C SWAP2 SWAP1 PUSH2 0x1E8C JUMP JUMPDEST PUSH2 0x986 JUMP JUMPDEST STOP JUMPDEST PUSH2 0x12D PUSH1 0x4 DUP1 CALLDATASIZE SUB DUP2 ADD SWAP1 PUSH2 0x128 SWAP2 SWAP1 PUSH2 0x20A0 JUMP JUMPDEST PUSH2 0xF44 JUMP JUMPDEST STOP JUMPDEST PUSH2 0x149 PUSH1 0x4 DUP1 CALLDATASIZE SUB DUP2 ADD SWAP1 PUSH2 0x144 SWAP2 SWAP1 PUSH2 0x1E8C JUMP JUMPDEST PUSH2 0x16DB JUMP JUMPDEST STOP JUMPDEST PUSH1 0x60 DUP2 ISZERO PUSH2 0x357 JUMPI PUSH1 0x8 DUP1 SLOAD DUP1 PUSH1 0x20 MUL PUSH1 0x20 ADD PUSH1 0x40 MLOAD SWAP1 DUP2 ADD PUSH1 0x40 MSTORE DUP1 SWAP3 SWAP2 SWAP1 DUP2 DUP2 MSTORE PUSH1 0x20 ADD PUSH1 0x0 SWAP1 JUMPDEST DUP3 DUP3 LT ISZERO PUSH2 0x34C JUMPI DUP4 DUP3 SWAP1 PUSH1 0x0 MSTORE PUSH1 0x20 PUSH1 0x0 KECCAK256 SWAP1 PUSH1 0x6 MUL ADD PUSH1 0x40 MLOAD DUP1 PUSH1 0xC0 ADD PUSH1 0x40 MSTORE SWAP1 DUP2 PUSH1 0x0 DUP3 ADD DUP1 SLOAD PUSH2 0x1A8 SWAP1 PUSH2 0x2152 JUMP JUMPDEST DUP1 PUSH1 0x1F ADD PUSH1 0x20 DUP1 SWAP2 DIV MUL PUSH1 0x20 ADD PUSH1 0x40 MLOAD SWAP1 DUP2 ADD PUSH1 0x40 MSTORE DUP1 SWAP3 SWAP2 SWAP1 DUP2 DUP2 MSTORE PUSH1 0x20 ADD DUP3 DUP1 SLOAD PUSH2 0x1D4 SWAP1 PUSH2 0x2152 JUMP JUMPDEST DUP1 ISZERO PUSH2 0x221 JUMPI DUP1 PUSH1 0x1F LT PUSH2 0x1F6 JUMPI PUSH2 0x100 DUP1 DUP4 SLOAD DIV MUL DUP4 MSTORE SWAP2 PUSH1 0x20 ADD SWAP2 PUSH2 0x221 JUMP JUMPDEST DUP3 ADD SWAP2 SWAP1 PUSH1 0x0 MSTORE PUSH1 0x20 PUSH1 0x0 KECCAK256 SWAP1 JUMPDEST DUP2 SLOAD DUP2 MSTORE SWAP1 PUSH1 0x1 ADD SWAP1 PUSH1 0x20 ADD DUP1 DUP4 GT PUSH2 0x204 JUMPI DUP3 SWAP1 SUB PUSH1 0x1F AND DUP3 ADD SWAP2 JUMPDEST POP POP POP POP POP DUP2 MSTORE PUSH1 0x20 ADD PUSH1 0x1 DUP3 ADD PUSH1 0x0 SWAP1 SLOAD SWAP1 PUSH2 0x100 EXP SWAP1 DIV PUSH20 0xFFFFFFFFFFFFFFFFFFFFFFFFFFFFFFFFFFFFFFFF AND PUSH20 0xFFFFFFFFFFFFFFFFFFFFFFFFFFFFFFFFFFFFFFFF AND PUSH20 0xFFFFFFFFFFFFFFFFFFFFFFFFFFFFFFFFFFFFFFFF AND DUP2 MSTORE PUSH1 0x20 ADD PUSH1 0x2 DUP3 ADD DUP1 SLOAD DUP1 PUSH1 0x20 MUL PUSH1 0x20 ADD PUSH1 0x40 MLOAD SWAP1 DUP2 ADD PUSH1 0x40 MSTORE DUP1 SWAP3 SWAP2 SWAP1 DUP2 DUP2 MSTORE PUSH1 0x20 ADD DUP3 DUP1 SLOAD DUP1 ISZERO PUSH2 0x305 JUMPI PUSH1 0x20 MUL DUP3 ADD SWAP2 SWAP1 PUSH1 0x0 MSTORE PUSH1 0x20 PUSH1 0x0 KECCAK256 SWAP1 JUMPDEST DUP2 PUSH1 0x0 SWAP1 SLOAD SWAP1 PUSH2 0x100 EXP SWAP1 DIV PUSH20 0xFFFFFFFFFFFFFFFFFFFFFFFFFFFFFFFFFFFFFFFF AND PUSH20 0xFFFFFFFFFFFFFFFFFFFFFFFFFFFFFFFFFFFFFFFF AND DUP2 MSTORE PUSH1 0x20 ADD SWAP1 PUSH1 0x1 ADD SWAP1 DUP1 DUP4 GT PUSH2 0x2BB JUMPI JUMPDEST POP POP POP POP POP DUP2 MSTORE PUSH1 0x20 ADD PUSH1 0x3 DUP3 ADD PUSH1 0x0 SWAP1 SLOAD SWAP1 PUSH2 0x100 EXP SWAP1 DIV PUSH1 0xFF AND ISZERO ISZERO ISZERO ISZERO DUP2 MSTORE PUSH1 0x20 ADD PUSH1 0x4 DUP3 ADD SLOAD DUP2 MSTORE PUSH1 0x20 ADD PUSH1 0x5 DUP3 ADD SLOAD DUP2 MSTORE POP POP DUP2 MSTORE PUSH1 0x20 ADD SWAP1 PUSH1 0x1 ADD SWAP1 PUSH2 0x175 JUMP JUMPDEST POP POP POP POP SWAP1 POP PUSH2 0x557 JUMP JUMPDEST PUSH1 0x6 DUP1 SLOAD DUP1 PUSH1 0x20 MUL PUSH1 0x20 ADD PUSH1 0x40 MLOAD SWAP1 DUP2 ADD PUSH1 0x40 MSTORE DUP1 SWAP3 SWAP2 SWAP1 DUP2 DUP2 MSTORE PUSH1 0x20 ADD PUSH1 0x0 SWAP1 JUMPDEST DUP3 DUP3 LT ISZERO PUSH2 0x550 JUMPI DUP4 DUP3 SWAP1 PUSH1 0x0 MSTORE PUSH1 0x20 PUSH1 0x0 KECCAK256 SWAP1 PUSH1 0x6 MUL ADD PUSH1 0x40 MLOAD DUP1 PUSH1 0xC0 ADD PUSH1 0x40 MSTORE SWAP1 DUP2 PUSH1 0x0 DUP3 ADD DUP1 SLOAD PUSH2 0x3AC SWAP1 PUSH2 0x2152 JUMP JUMPDEST DUP1 PUSH1 0x1F ADD PUSH1 0x20 DUP1 SWAP2 DIV MUL PUSH1 0x20 ADD PUSH1 0x40 MLOAD SWAP1 DUP2 ADD PUSH1 0x40 MSTORE DUP1 SWAP3 SWAP2 SWAP1 DUP2 DUP2 MSTORE PUSH1 0x20 ADD DUP3 DUP1 SLOAD PUSH2 0x3D8 SWAP1 PUSH2 0x2152 JUMP JUMPDEST DUP1 ISZERO PUSH2 0x425 JUMPI DUP1 PUSH1 0x1F LT PUSH2 0x3FA JUMPI PUSH2 0x100 DUP1 DUP4 SLOAD DIV MUL DUP4 MSTORE SWAP2 PUSH1 0x20 ADD SWAP2 PUSH2 0x425 JUMP JUMPDEST DUP3 ADD SWAP2 SWAP1 PUSH1 0x0 MSTORE PUSH1 0x20 PUSH1 0x0 KECCAK256 SWAP1 JUMPDEST DUP2 SLOAD DUP2 MSTORE SWAP1 PUSH1 0x1 ADD SWAP1 PUSH1 0x20 ADD DUP1 DUP4 GT PUSH2 0x408 JUMPI DUP3 SWAP1 SUB PUSH1 0x1F AND DUP3 ADD SWAP2 JUMPDEST POP POP POP POP POP DUP2 MSTORE PUSH1 0x20 ADD PUSH1 0x1 DUP3 ADD PUSH1 0x0 SWAP1 SLOAD SWAP1 PUSH2 0x100 EXP SWAP1 DIV PUSH20 0xFFFFFFFFFFFFFFFFFFFFFFFFFFFFFFFFFFFFFFFF AND PUSH20 0xFFFFFFFFFFFFFFFFFFFFFFFFFFFFFFFFFFFFFFFF AND PUSH20 0xFFFFFFFFFFFFFFFFFFFFFFFFFFFFFFFFFFFFFFFF AND DUP2 MSTORE PUSH1 0x20 ADD PUSH1 0x2 DUP3 ADD DUP1 SLOAD DUP1 PUSH1 0x20 MUL PUSH1 0x20 ADD PUSH1 0x40 MLOAD SWAP1 DUP2 ADD PUSH1 0x40 MSTORE DUP1 SWAP3 SWAP2 SWAP1 DUP2 DUP2 MSTORE PUSH1 0x20 ADD DUP3 DUP1 SLOAD DUP1 ISZERO PUSH2 0x509 JUMPI PUSH1 0x20 MUL DUP3 ADD SWAP2 SWAP1 PUSH1 0x0 MSTORE PUSH1 0x20 PUSH1 0x0 KECCAK256 SWAP1 JUMPDEST DUP2 PUSH1 0x0 SWAP1 SLOAD SWAP1 PUSH2 0x100 EXP SWAP1 DIV PUSH20 0xFFFFFFFFFFFFFFFFFFFFFFFFFFFFFFFFFFFFFFFF AND PUSH20 0xFFFFFFFFFFFFFFFFFFFFFFFFFFFFFFFFFFFFFFFF AND DUP2 MSTORE PUSH1 0x20 ADD SWAP1 PUSH1 0x1 ADD SWAP1 DUP1 DUP4 GT PUSH2 0x4BF JUMPI JUMPDEST POP POP POP POP POP DUP2 MSTORE PUSH1 0x20 ADD PUSH1 0x3 DUP3 ADD PUSH1 0x0 SWAP1 SLOAD SWAP1 PUSH2 0x100 EXP SWAP1 DIV PUSH1 0xFF AND ISZERO ISZERO ISZERO ISZERO DUP2 MSTORE PUSH1 0x20 ADD PUSH1 0x4 DUP3 ADD SLOAD DUP2 MSTORE PUSH1 0x20 ADD PUSH1 0x5 DUP3 ADD SLOAD DUP2 MSTORE POP POP DUP2 MSTORE PUSH1 0x20 ADD SWAP1 PUSH1 0x1 ADD SWAP1 PUSH2 0x379 JUMP JUMPDEST POP POP POP POP SWAP1 POP JUMPDEST SWAP2 SWAP1 POP JUMP JUMPDEST PUSH1 0x60 PUSH1 0x7 PUSH1 0x0 DUP4 PUSH20 0xFFFFFFFFFFFFFFFFFFFFFFFFFFFFFFFFFFFFFFFF AND PUSH20 0xFFFFFFFFFFFFFFFFFFFFFFFFFFFFFFFFFFFFFFFF AND DUP2 MSTORE PUSH1 0x20 ADD SWAP1 DUP2 MSTORE PUSH1 0x20 ADD PUSH1 0x0 KECCAK256 DUP1 SLOAD DUP1 PUSH1 0x20 MUL PUSH1 0x20 ADD PUSH1 0x40 MLOAD SWAP1 DUP2 ADD PUSH1 0x40 MSTORE DUP1 SWAP3 SWAP2 SWAP1 DUP2 DUP2 MSTORE PUSH1 0x20 ADD PUSH1 0x0 SWAP1 JUMPDEST DUP3 DUP3 LT ISZERO PUSH2 0x794 JUMPI DUP4 DUP3 SWAP1 PUSH1 0x0 MSTORE PUSH1 0x20 PUSH1 0x0 KECCAK256 SWAP1 PUSH1 0x6 MUL ADD PUSH1 0x40 MLOAD DUP1 PUSH1 0xC0 ADD PUSH1 0x40 MSTORE SWAP1 DUP2 PUSH1 0x0 DUP3 ADD DUP1 SLOAD PUSH2 0x5F0 SWAP1 PUSH2 0x2152 JUMP JUMPDEST DUP1 PUSH1 0x1F ADD PUSH1 0x20 DUP1 SWAP2 DIV MUL PUSH1 0x20 ADD PUSH1 0x40 MLOAD SWAP1 DUP2 ADD PUSH1 0x40 MSTORE DUP1 SWAP3 SWAP2 SWAP1 DUP2 DUP2 MSTORE PUSH1 0x20 ADD DUP3 DUP1 SLOAD PUSH2 0x61C SWAP1 PUSH2 0x2152 JUMP JUMPDEST DUP1 ISZERO PUSH2 0x669 JUMPI DUP1 PUSH1 0x1F LT PUSH2 0x63E JUMPI PUSH2 0x100 DUP1 DUP4 SLOAD DIV MUL DUP4 MSTORE SWAP2 PUSH1 0x20 ADD SWAP2 PUSH2 0x669 JUMP JUMPDEST DUP3 ADD SWAP2 SWAP1 PUSH1 0x0 MSTORE PUSH1 0x20 PUSH1 0x0 KECCAK256 SWAP1 JUMPDEST DUP2 SLOAD DUP2 MSTORE SWAP1 PUSH1 0x1 ADD SWAP1 PUSH1 0x20 ADD DUP1 DUP4 GT PUSH2 0x64C JUMPI DUP3 SWAP1 SUB PUSH1 0x1F AND DUP3 ADD SWAP2 JUMPDEST POP POP POP POP POP DUP2 MSTORE PUSH1 0x20 ADD PUSH1 0x1 DUP3 ADD PUSH1 0x0 SWAP1 SLOAD SWAP1 PUSH2 0x100 EXP SWAP1 DIV PUSH20 0xFFFFFFFFFFFFFFFFFFFFFFFFFFFFFFFFFFFFFFFF AND PUSH20 0xFFFFFFFFFFFFFFFFFFFFFFFFFFFFFFFFFFFFFFFF AND PUSH20 0xFFFFFFFFFFFFFFFFFFFFFFFFFFFFFFFFFFFFFFFF AND DUP2 MSTORE PUSH1 0x20 ADD PUSH1 0x2 DUP3 ADD DUP1 SLOAD DUP1 PUSH1 0x20 MUL PUSH1 0x20 ADD PUSH1 0x40 MLOAD SWAP1 DUP2 ADD PUSH1 0x40 MSTORE DUP1 SWAP3 SWAP2 SWAP1 DUP2 DUP2 MSTORE PUSH1 0x20 ADD DUP3 DUP1 SLOAD DUP1 ISZERO PUSH2 0x74D JUMPI PUSH1 0x20 MUL DUP3 ADD SWAP2 SWAP1 PUSH1 0x0 MSTORE PUSH1 0x20 PUSH1 0x0 KECCAK256 SWAP1 JUMPDEST DUP2 PUSH1 0x0 SWAP1 SLOAD SWAP1 PUSH2 0x100 EXP SWAP1 DIV PUSH20 0xFFFFFFFFFFFFFFFFFFFFFFFFFFFFFFFFFFFFFFFF AND PUSH20 0xFFFFFFFFFFFFFFFFFFFFFFFFFFFFFFFFFFFFFFFF AND DUP2 MSTORE PUSH1 0x20 ADD SWAP1 PUSH1 0x1 ADD SWAP1 DUP1 DUP4 GT PUSH2 0x703 JUMPI JUMPDEST POP POP POP POP POP DUP2 MSTORE PUSH1 0x20 ADD PUSH1 0x3 DUP3 ADD PUSH1 0x0 SWAP1 SLOAD SWAP1 PUSH2 0x100 EXP SWAP1 DIV PUSH1 0xFF AND ISZERO ISZERO ISZERO ISZERO DUP2 MSTORE PUSH1 0x20 ADD PUSH1 0x4 DUP3 ADD SLOAD DUP2 MSTORE PUSH1 0x20 ADD PUSH1 0x5 DUP3 ADD SLOAD DUP2 MSTORE POP POP DUP2 MSTORE PUSH1 0x20 ADD SWAP1 PUSH1 0x1 ADD SWAP1 PUSH2 0x5BD JUMP JUMPDEST POP POP POP POP SWAP1 POP SWAP2 SWAP1 POP JUMP JUMPDEST PUSH2 0x7A7 PUSH2 0x18CA JUMP JUMPDEST PUSH1 0x0 PUSH1 0x6 DUP4 DUP2 SLOAD DUP2 LT PUSH2 0x7BD JUMPI PUSH2 0x7BC PUSH2 0x2183 JUMP JUMPDEST JUMPDEST SWAP1 PUSH1 0x0 MSTORE PUSH1 0x20 PUSH1 0x0 KECCAK256 SWAP1 PUSH1 0x6 MUL ADD PUSH1 0x40 MLOAD DUP1 PUSH1 0xC0 ADD PUSH1 0x40 MSTORE SWAP1 DUP2 PUSH1 0x0 DUP3 ADD DUP1 SLOAD PUSH2 0x7E6 SWAP1 PUSH2 0x2152 JUMP JUMPDEST DUP1 PUSH1 0x1F ADD PUSH1 0x20 DUP1 SWAP2 DIV MUL PUSH1 0x20 ADD PUSH1 0x40 MLOAD SWAP1 DUP2 ADD PUSH1 0x40 MSTORE DUP1 SWAP3 SWAP2 SWAP1 DUP2 DUP2 MSTORE PUSH1 0x20 ADD DUP3 DUP1 SLOAD PUSH2 0x812 SWAP1 PUSH2 0x2152 JUMP JUMPDEST DUP1 ISZERO PUSH2 0x85F JUMPI DUP1 PUSH1 0x1F LT PUSH2 0x834 JUMPI PUSH2 0x100 DUP1 DUP4 SLOAD DIV MUL DUP4 MSTORE SWAP2 PUSH1 0x20 ADD SWAP2 PUSH2 0x85F JUMP JUMPDEST DUP3 ADD SWAP2 SWAP1 PUSH1 0x0 MSTORE PUSH1 0x20 PUSH1 0x0 KECCAK256 SWAP1 JUMPDEST DUP2 SLOAD DUP2 MSTORE SWAP1 PUSH1 0x1 ADD SWAP1 PUSH1 0x20 ADD DUP1 DUP4 GT PUSH2 0x842 JUMPI DUP3 SWAP1 SUB PUSH1 0x1F AND DUP3 ADD SWAP2 JUMPDEST POP POP POP POP POP DUP2 MSTORE PUSH1 0x20 ADD PUSH1 0x1 DUP3 ADD PUSH1 0x0 SWAP1 SLOAD SWAP1 PUSH2 0x100 EXP SWAP1 DIV PUSH20 0xFFFFFFFFFFFFFFFFFFFFFFFFFFFFFFFFFFFFFFFF AND PUSH20 0xFFFFFFFFFFFFFFFFFFFFFFFFFFFFFFFFFFFFFFFF AND PUSH20 0xFFFFFFFFFFFFFFFFFFFFFFFFFFFFFFFFFFFFFFFF AND DUP2 MSTORE PUSH1 0x20 ADD PUSH1 0x2 DUP3 ADD DUP1 SLOAD DUP1 PUSH1 0x20 MUL PUSH1 0x20 ADD PUSH1 0x40 MLOAD SWAP1 DUP2 ADD PUSH1 0x40 MSTORE DUP1 SWAP3 SWAP2 SWAP1 DUP2 DUP2 MSTORE PUSH1 0x20 ADD DUP3 DUP1 SLOAD DUP1 ISZERO PUSH2 0x943 JUMPI PUSH1 0x20 MUL DUP3 ADD SWAP2 SWAP1 PUSH1 0x0 MSTORE PUSH1 0x20 PUSH1 0x0 KECCAK256 SWAP1 JUMPDEST DUP2 PUSH1 0x0 SWAP1 SLOAD SWAP1 PUSH2 0x100 EXP SWAP1 DIV PUSH20 0xFFFFFFFFFFFFFFFFFFFFFFFFFFFFFFFFFFFFFFFF AND PUSH20 0xFFFFFFFFFFFFFFFFFFFFFFFFFFFFFFFFFFFFFFFF AND DUP2 MSTORE PUSH1 0x20 ADD SWAP1 PUSH1 0x1 ADD SWAP1 DUP1 DUP4 GT PUSH2 0x8F9 JUMPI JUMPDEST POP POP POP POP POP DUP2 MSTORE PUSH1 0x20 ADD PUSH1 0x3 DUP3 ADD PUSH1 0x0 SWAP1 SLOAD SWAP1 PUSH2 0x100 EXP SWAP1 DIV PUSH1 0xFF AND ISZERO ISZERO ISZERO ISZERO DUP2 MSTORE PUSH1 0x20 ADD PUSH1 0x4 DUP3 ADD SLOAD DUP2 MSTORE PUSH1 0x20 ADD PUSH1 0x5 DUP3 ADD SLOAD DUP2 MSTORE POP POP SWAP1 POP DUP1 SWAP2 POP POP SWAP2 SWAP1 POP JUMP JUMPDEST PUSH1 0x0 PUSH1 0x8 DUP3 DUP2 SLOAD DUP2 LT PUSH2 0x99C JUMPI PUSH2 0x99B PUSH2 0x2183 JUMP JUMPDEST JUMPDEST SWAP1 PUSH1 0x0 MSTORE PUSH1 0x20 PUSH1 0x0 KECCAK256 SWAP1 PUSH1 0x6 MUL ADD PUSH1 0x40 MLOAD DUP1 PUSH1 0xC0 ADD PUSH1 0x40 MSTORE SWAP1 DUP2 PUSH1 0x0 DUP3 ADD DUP1 SLOAD PUSH2 0x9C5 SWAP1 PUSH2 0x2152 JUMP JUMPDEST DUP1 PUSH1 0x1F ADD PUSH1 0x20 DUP1 SWAP2 DIV MUL PUSH1 0x20 ADD PUSH1 0x40 MLOAD SWAP1 DUP2 ADD PUSH1 0x40 MSTORE DUP1 SWAP3 SWAP2 SWAP1 DUP2 DUP2 MSTORE PUSH1 0x20 ADD DUP3 DUP1 SLOAD PUSH2 0x9F1 SWAP1 PUSH2 0x2152 JUMP JUMPDEST DUP1 ISZERO PUSH2 0xA3E JUMPI DUP1 PUSH1 0x1F LT PUSH2 0xA13 JUMPI PUSH2 0x100 DUP1 DUP4 SLOAD DIV MUL DUP4 MSTORE SWAP2 PUSH1 0x20 ADD SWAP2 PUSH2 0xA3E JUMP JUMPDEST DUP3 ADD SWAP2 SWAP1 PUSH1 0x0 MSTORE PUSH1 0x20 PUSH1 0x0 KECCAK256 SWAP1 JUMPDEST DUP2 SLOAD DUP2 MSTORE SWAP1 PUSH1 0x1 ADD SWAP1 PUSH1 0x20 ADD DUP1 DUP4 GT PUSH2 0xA21 JUMPI DUP3 SWAP1 SUB PUSH1 0x1F AND DUP3 ADD SWAP2 JUMPDEST POP POP POP POP POP DUP2 MSTORE PUSH1 0x20 ADD PUSH1 0x1 DUP3 ADD PUSH1 0x0 SWAP1 SLOAD SWAP1 PUSH2 0x100 EXP SWAP1 DIV PUSH20 0xFFFFFFFFFFFFFFFFFFFFFFFFFFFFFFFFFFFFFFFF AND PUSH20 0xFFFFFFFFFFFFFFFFFFFFFFFFFFFFFFFFFFFFFFFF AND PUSH20 0xFFFFFFFFFFFFFFFFFFFFFFFFFFFFFFFFFFFFFFFF AND DUP2 MSTORE PUSH1 0x20 ADD PUSH1 0x2 DUP3 ADD DUP1 SLOAD DUP1 PUSH1 0x20 MUL PUSH1 0x20 ADD PUSH1 0x40 MLOAD SWAP1 DUP2 ADD PUSH1 0x40 MSTORE DUP1 SWAP3 SWAP2 SWAP1 DUP2 DUP2 MSTORE PUSH1 0x20 ADD DUP3 DUP1 SLOAD DUP1 ISZERO PUSH2 0xB22 JUMPI PUSH1 0x20 MUL DUP3 ADD SWAP2 SWAP1 PUSH1 0x0 MSTORE PUSH1 0x20 PUSH1 0x0 KECCAK256 SWAP1 JUMPDEST DUP2 PUSH1 0x0 SWAP1 SLOAD SWAP1 PUSH2 0x100 EXP SWAP1 DIV PUSH20 0xFFFFFFFFFFFFFFFFFFFFFFFFFFFFFFFFFFFFFFFF AND PUSH20 0xFFFFFFFFFFFFFFFFFFFFFFFFFFFFFFFFFFFFFFFF AND DUP2 MSTORE PUSH1 0x20 ADD SWAP1 PUSH1 0x1 ADD SWAP1 DUP1 DUP4 GT PUSH2 0xAD8 JUMPI JUMPDEST POP POP POP POP POP DUP2 MSTORE PUSH1 0x20 ADD PUSH1 0x3 DUP3 ADD PUSH1 0x0 SWAP1 SLOAD SWAP1 PUSH2 0x100 EXP SWAP1 DIV PUSH1 0xFF AND ISZERO ISZERO ISZERO ISZERO DUP2 MSTORE PUSH1 0x20 ADD PUSH1 0x4 DUP3 ADD SLOAD DUP2 MSTORE PUSH1 0x20 ADD PUSH1 0x5 DUP3 ADD SLOAD DUP2 MSTORE POP POP SWAP1 POP PUSH1 0x0 DUP2 PUSH1 0x60 ADD SWAP1 ISZERO ISZERO SWAP1 DUP2 ISZERO ISZERO DUP2 MSTORE POP POP PUSH1 0x6 DUP2 SWAP1 DUP1 PUSH1 0x1 DUP2 SLOAD ADD DUP1 DUP3 SSTORE DUP1 SWAP2 POP POP PUSH1 0x1 SWAP1 SUB SWAP1 PUSH1 0x0 MSTORE PUSH1 0x20 PUSH1 0x0 KECCAK256 SWAP1 PUSH1 0x6 MUL ADD PUSH1 0x0 SWAP1 SWAP2 SWAP1 SWAP2 SWAP1 SWAP2 POP PUSH1 0x0 DUP3 ADD MLOAD DUP2 PUSH1 0x0 ADD SWAP1 DUP2 PUSH2 0xBAE SWAP2 SWAP1 PUSH2 0x235E JUMP JUMPDEST POP PUSH1 0x20 DUP3 ADD MLOAD DUP2 PUSH1 0x1 ADD PUSH1 0x0 PUSH2 0x100 EXP DUP2 SLOAD DUP2 PUSH20 0xFFFFFFFFFFFFFFFFFFFFFFFFFFFFFFFFFFFFFFFF MUL NOT AND SWAP1 DUP4 PUSH20 0xFFFFFFFFFFFFFFFFFFFFFFFFFFFFFFFFFFFFFFFF AND MUL OR SWAP1 SSTORE POP PUSH1 0x40 DUP3 ADD MLOAD DUP2 PUSH1 0x2 ADD SWAP1 DUP1 MLOAD SWAP1 PUSH1 0x20 ADD SWAP1 PUSH2 0xC12 SWAP3 SWAP2 SWAP1 PUSH2 0x1918 JUMP JUMPDEST POP PUSH1 0x60 DUP3 ADD MLOAD DUP2 PUSH1 0x3 ADD PUSH1 0x0 PUSH2 0x100 EXP DUP2 SLOAD DUP2 PUSH1 0xFF MUL NOT AND SWAP1 DUP4 ISZERO ISZERO MUL OR SWAP1 SSTORE POP PUSH1 0x80 DUP3 ADD MLOAD DUP2 PUSH1 0x4 ADD SSTORE PUSH1 0xA0 DUP3 ADD MLOAD DUP2 PUSH1 0x5 ADD SSTORE POP POP PUSH1 0xC PUSH1 0x0 DUP2 SLOAD DUP1 SWAP3 SWAP2 SWAP1 PUSH2 0xC5C SWAP1 PUSH2 0x245F JUMP JUMPDEST SWAP2 SWAP1 POP SSTORE POP PUSH1 0x7 PUSH1 0x0 DUP3 PUSH1 0x20 ADD MLOAD PUSH20 0xFFFFFFFFFFFFFFFFFFFFFFFFFFFFFFFFFFFFFFFF AND PUSH20 0xFFFFFFFFFFFFFFFFFFFFFFFFFFFFFFFFFFFFFFFF AND DUP2 MSTORE PUSH1 0x20 ADD SWAP1 DUP2 MSTORE PUSH1 0x20 ADD PUSH1 0x0 KECCAK256 DUP2 SWAP1 DUP1 PUSH1 0x1 DUP2 SLOAD ADD DUP1 DUP3 SSTORE DUP1 SWAP2 POP POP PUSH1 0x1 SWAP1 SUB SWAP1 PUSH1 0x0 MSTORE PUSH1 0x20 PUSH1 0x0 KECCAK256 SWAP1 PUSH1 0x6 MUL ADD PUSH1 0x0 SWAP1 SWAP2 SWAP1 SWAP2 SWAP1 SWAP2 POP PUSH1 0x0 DUP3 ADD MLOAD DUP2 PUSH1 0x0 ADD SWAP1 DUP2 PUSH2 0xCE3 SWAP2 SWAP1 PUSH2 0x235E JUMP JUMPDEST POP PUSH1 0x20 DUP3 ADD MLOAD DUP2 PUSH1 0x1 ADD PUSH1 0x0 PUSH2 0x100 EXP DUP2 SLOAD DUP2 PUSH20 0xFFFFFFFFFFFFFFFFFFFFFFFFFFFFFFFFFFFFFFFF MUL NOT AND SWAP1 DUP4 PUSH20 0xFFFFFFFFFFFFFFFFFFFFFFFFFFFFFFFFFFFFFFFF AND MUL OR SWAP1 SSTORE POP PUSH1 0x40 DUP3 ADD MLOAD DUP2 PUSH1 0x2 ADD SWAP1 DUP1 MLOAD SWAP1 PUSH1 0x20 ADD SWAP1 PUSH2 0xD47 SWAP3 SWAP2 SWAP1 PUSH2 0x1918 JUMP JUMPDEST POP PUSH1 0x60 DUP3 ADD MLOAD DUP2 PUSH1 0x3 ADD PUSH1 0x0 PUSH2 0x100 EXP DUP2 SLOAD DUP2 PUSH1 0xFF MUL NOT AND SWAP1 DUP4 ISZERO ISZERO MUL OR SWAP1 SSTORE POP PUSH1 0x80 DUP3 ADD MLOAD DUP2 PUSH1 0x4 ADD SSTORE PUSH1 0xA0 DUP3 ADD MLOAD DUP2 PUSH1 0x5 ADD SSTORE POP POP PUSH1 0x8 PUSH1 0x1 PUSH1 0x8 DUP1 SLOAD SWAP1 POP PUSH2 0xD92 SWAP2 SWAP1 PUSH2 0x24A7 JUMP JUMPDEST DUP2 SLOAD DUP2 LT PUSH2 0xDA3 JUMPI PUSH2 0xDA2 PUSH2 0x2183 JUMP JUMPDEST JUMPDEST SWAP1 PUSH1 0x0 MSTORE PUSH1 0x20 PUSH1 0x0 KECCAK256 SWAP1 PUSH1 0x6 MUL ADD PUSH1 0x8 DUP4 DUP2 SLOAD DUP2 LT PUSH2 0xDC5 JUMPI PUSH2 0xDC4 PUSH2 0x2183 JUMP JUMPDEST JUMPDEST SWAP1 PUSH1 0x0 MSTORE PUSH1 0x20 PUSH1 0x0 KECCAK256 SWAP1 PUSH1 0x6 MUL ADD PUSH1 0x0 DUP3 ADD DUP2 PUSH1 0x0 ADD SWAP1 DUP2 PUSH2 0xDE7 SWAP2 SWAP1 PUSH2 0x24F1 JUMP JUMPDEST POP PUSH1 0x1 DUP3 ADD PUSH1 0x0 SWAP1 SLOAD SWAP1 PUSH2 0x100 EXP SWAP1 DIV PUSH20 0xFFFFFFFFFFFFFFFFFFFFFFFFFFFFFFFFFFFFFFFF AND DUP2 PUSH1 0x1 ADD PUSH1 0x0 PUSH2 0x100 EXP DUP2 SLOAD DUP2 PUSH20 0xFFFFFFFFFFFFFFFFFFFFFFFFFFFFFFFFFFFFFFFF MUL NOT AND SWAP1 DUP4 PUSH20 0xFFFFFFFFFFFFFFFFFFFFFFFFFFFFFFFFFFFFFFFF AND MUL OR SWAP1 SSTORE POP PUSH1 0x2 DUP3 ADD DUP2 PUSH1 0x2 ADD SWAP1 DUP1 SLOAD PUSH2 0xE65 SWAP3 SWAP2 SWAP1 PUSH2 0x19A2 JUMP JUMPDEST POP PUSH1 0x3 DUP3 ADD PUSH1 0x0 SWAP1 SLOAD SWAP1 PUSH2 0x100 EXP SWAP1 DIV PUSH1 0xFF AND DUP2 PUSH1 0x3 ADD PUSH1 0x0 PUSH2 0x100 EXP DUP2 SLOAD DUP2 PUSH1 0xFF MUL NOT AND SWAP1 DUP4 ISZERO ISZERO MUL OR SWAP1 SSTORE POP PUSH1 0x4 DUP3 ADD SLOAD DUP2 PUSH1 0x4 ADD SSTORE PUSH1 0x5 DUP3 ADD SLOAD DUP2 PUSH1 0x5 ADD SSTORE SWAP1 POP POP PUSH1 0x8 DUP1 SLOAD DUP1 PUSH2 0xEBC JUMPI PUSH2 0xEBB PUSH2 0x25D9 JUMP JUMPDEST JUMPDEST PUSH1 0x1 SWAP1 SUB DUP2 DUP2 SWAP1 PUSH1 0x0 MSTORE PUSH1 0x20 PUSH1 0x0 KECCAK256 SWAP1 PUSH1 0x6 MUL ADD PUSH1 0x0 DUP1 DUP3 ADD PUSH1 0x0 PUSH2 0xEE1 SWAP2 SWAP1 PUSH2 0x19F4 JUMP JUMPDEST PUSH1 0x1 DUP3 ADD PUSH1 0x0 PUSH2 0x100 EXP DUP2 SLOAD SWAP1 PUSH20 0xFFFFFFFFFFFFFFFFFFFFFFFFFFFFFFFFFFFFFFFF MUL NOT AND SWAP1 SSTORE PUSH1 0x2 DUP3 ADD PUSH1 0x0 PUSH2 0xF18 SWAP2 SWAP1 PUSH2 0x1A34 JUMP JUMPDEST PUSH1 0x3 DUP3 ADD PUSH1 0x0 PUSH2 0x100 EXP DUP2 SLOAD SWAP1 PUSH1 0xFF MUL NOT AND SWAP1 SSTORE PUSH1 0x4 DUP3 ADD PUSH1 0x0 SWAP1 SSTORE PUSH1 0x5 DUP3 ADD PUSH1 0x0 SWAP1 SSTORE POP POP SWAP1 SSTORE POP POP JUMP JUMPDEST DUP4 PUSH1 0x0 DUP1 ADD SWAP1 DUP2 PUSH2 0xF55 SWAP2 SWAP1 PUSH2 0x235E JUMP JUMPDEST POP DUP3 PUSH1 0x0 PUSH1 0x1 ADD PUSH1 0x0 PUSH2 0x100 EXP DUP2 SLOAD DUP2 PUSH20 0xFFFFFFFFFFFFFFFFFFFFFFFFFFFFFFFFFFFFFFFF MUL NOT AND SWAP1 DUP4 PUSH20 0xFFFFFFFFFFFFFFFFFFFFFFFFFFFFFFFFFFFFFFFF AND MUL OR SWAP1 SSTORE POP PUSH1 0x0 PUSH1 0x2 ADD DUP3 SWAP1 DUP1 PUSH1 0x1 DUP2 SLOAD ADD DUP1 DUP3 SSTORE DUP1 SWAP2 POP POP PUSH1 0x1 SWAP1 SUB SWAP1 PUSH1 0x0 MSTORE PUSH1 0x20 PUSH1 0x0 KECCAK256 ADD PUSH1 0x0 SWAP1 SWAP2 SWAP1 SWAP2 SWAP1 SWAP2 PUSH2 0x100 EXP DUP2 SLOAD DUP2 PUSH20 0xFFFFFFFFFFFFFFFFFFFFFFFFFFFFFFFFFFFFFFFF MUL NOT AND SWAP1 DUP4 PUSH20 0xFFFFFFFFFFFFFFFFFFFFFFFFFFFFFFFFFFFFFFFF AND MUL OR SWAP1 SSTORE POP DUP1 PUSH1 0x0 PUSH1 0x3 ADD PUSH1 0x0 PUSH2 0x100 EXP DUP2 SLOAD DUP2 PUSH1 0xFF MUL NOT AND SWAP1 DUP4 ISZERO ISZERO MUL OR SWAP1 SSTORE POP TIMESTAMP PUSH1 0x0 PUSH1 0x4 ADD DUP2 SWAP1 SSTORE POP NUMBER PUSH1 0x0 PUSH1 0x5 ADD DUP2 SWAP1 SSTORE POP PUSH1 0x1 ISZERO ISZERO DUP2 ISZERO ISZERO EQ PUSH2 0x138B JUMPI PUSH1 0x6 PUSH1 0x0 SWAP1 DUP1 PUSH1 0x1 DUP2 SLOAD ADD DUP1 DUP3 SSTORE DUP1 SWAP2 POP POP PUSH1 0x1 SWAP1 SUB SWAP1 PUSH1 0x0 MSTORE PUSH1 0x20 PUSH1 0x0 KECCAK256 SWAP1 PUSH1 0x6 MUL ADD PUSH1 0x0 SWAP1 SWAP2 SWAP1 SWAP2 SWAP1 SWAP2 POP PUSH1 0x0 DUP3 ADD DUP2 PUSH1 0x0 ADD SWAP1 DUP2 PUSH2 0x107E SWAP2 SWAP1 PUSH2 0x24F1 JUMP JUMPDEST POP PUSH1 0x1 DUP3 ADD PUSH1 0x0 SWAP1 SLOAD SWAP1 PUSH2 0x100 EXP SWAP1 DIV PUSH20 0xFFFFFFFFFFFFFFFFFFFFFFFFFFFFFFFFFFFFFFFF AND DUP2 PUSH1 0x1 ADD PUSH1 0x0 PUSH2 0x100 EXP DUP2 SLOAD DUP2 PUSH20 0xFFFFFFFFFFFFFFFFFFFFFFFFFFFFFFFFFFFFFFFF MUL NOT AND SWAP1 DUP4 PUSH20 0xFFFFFFFFFFFFFFFFFFFFFFFFFFFFFFFFFFFFFFFF AND MUL OR SWAP1 SSTORE POP PUSH1 0x2 DUP3 ADD DUP2 PUSH1 0x2 ADD SWAP1 DUP1 SLOAD PUSH2 0x10FC SWAP3 SWAP2 SWAP1 PUSH2 0x19A2 JUMP JUMPDEST POP PUSH1 0x3 DUP3 ADD PUSH1 0x0 SWAP1 SLOAD SWAP1 PUSH2 0x100 EXP SWAP1 DIV PUSH1 0xFF AND DUP2 PUSH1 0x3 ADD PUSH1 0x0 PUSH2 0x100 EXP DUP2 SLOAD DUP2 PUSH1 0xFF MUL NOT AND SWAP1 DUP4 ISZERO ISZERO MUL OR SWAP1 SSTORE POP PUSH1 0x4 DUP3 ADD SLOAD DUP2 PUSH1 0x4 ADD SSTORE PUSH1 0x5 DUP3 ADD SLOAD DUP2 PUSH1 0x5 ADD SSTORE POP POP PUSH1 0x7 PUSH1 0x0 DUP5 PUSH20 0xFFFFFFFFFFFFFFFFFFFFFFFFFFFFFFFFFFFFFFFF AND PUSH20 0xFFFFFFFFFFFFFFFFFFFFFFFFFFFFFFFFFFFFFFFF AND DUP2 MSTORE PUSH1 0x20 ADD SWAP1 DUP2 MSTORE PUSH1 0x20 ADD PUSH1 0x0 KECCAK256 PUSH1 0x0 SWAP1 DUP1 PUSH1 0x1 DUP2 SLOAD ADD DUP1 DUP3 SSTORE DUP1 SWAP2 POP POP PUSH1 0x1 SWAP1 SUB SWAP1 PUSH1 0x0 MSTORE PUSH1 0x20 PUSH1 0x0 KECCAK256 SWAP1 PUSH1 0x6 MUL ADD PUSH1 0x0 SWAP1 SWAP2 SWAP1 SWAP2 SWAP1 SWAP2 POP PUSH1 0x0 DUP3 ADD DUP2 PUSH1 0x0 ADD SWAP1 DUP2 PUSH2 0x11BE SWAP2 SWAP1 PUSH2 0x24F1 JUMP JUMPDEST POP PUSH1 0x1 DUP3 ADD PUSH1 0x0 SWAP1 SLOAD SWAP1 PUSH2 0x100 EXP SWAP1 DIV PUSH20 0xFFFFFFFFFFFFFFFFFFFFFFFFFFFFFFFFFFFFFFFF AND DUP2 PUSH1 0x1 ADD PUSH1 0x0 PUSH2 0x100 EXP DUP2 SLOAD DUP2 PUSH20 0xFFFFFFFFFFFFFFFFFFFFFFFFFFFFFFFFFFFFFFFF MUL NOT AND SWAP1 DUP4 PUSH20 0xFFFFFFFFFFFFFFFFFFFFFFFFFFFFFFFFFFFFFFFF AND MUL OR SWAP1 SSTORE POP PUSH1 0x2 DUP3 ADD DUP2 PUSH1 0x2 ADD SWAP1 DUP1 SLOAD PUSH2 0x123C SWAP3 SWAP2 SWAP1 PUSH2 0x19A2 JUMP JUMPDEST POP PUSH1 0x3 DUP3 ADD PUSH1 0x0 SWAP1 SLOAD SWAP1 PUSH2 0x100 EXP SWAP1 DIV PUSH1 0xFF AND DUP2 PUSH1 0x3 ADD PUSH1 0x0 PUSH2 0x100 EXP DUP2 SLOAD DUP2 PUSH1 0xFF MUL NOT AND SWAP1 DUP4 ISZERO ISZERO MUL OR SWAP1 SSTORE POP PUSH1 0x4 DUP3 ADD SLOAD DUP2 PUSH1 0x4 ADD SSTORE PUSH1 0x5 DUP3 ADD SLOAD DUP2 PUSH1 0x5 ADD SSTORE POP POP PUSH1 0x0 PUSH1 0xA PUSH1 0x0 PUSH1 0xC SLOAD DUP2 MSTORE PUSH1 0x20 ADD SWAP1 DUP2 MSTORE PUSH1 0x20 ADD PUSH1 0x0 KECCAK256 PUSH1 0x0 DUP3 ADD DUP2 PUSH1 0x0 ADD SWAP1 DUP2 PUSH2 0x12AB SWAP2 SWAP1 PUSH2 0x24F1 JUMP JUMPDEST POP PUSH1 0x1 DUP3 ADD PUSH1 0x0 SWAP1 SLOAD SWAP1 PUSH2 0x100 EXP SWAP1 DIV PUSH20 0xFFFFFFFFFFFFFFFFFFFFFFFFFFFFFFFFFFFFFFFF AND DUP2 PUSH1 0x1 ADD PUSH1 0x0 PUSH2 0x100 EXP DUP2 SLOAD DUP2 PUSH20 0xFFFFFFFFFFFFFFFFFFFFFFFFFFFFFFFFFFFFFFFF MUL NOT AND SWAP1 DUP4 PUSH20 0xFFFFFFFFFFFFFFFFFFFFFFFFFFFFFFFFFFFFFFFF AND MUL OR SWAP1 SSTORE POP PUSH1 0x2 DUP3 ADD DUP2 PUSH1 0x2 ADD SWAP1 DUP1 SLOAD PUSH2 0x1329 SWAP3 SWAP2 SWAP1 PUSH2 0x19A2 JUMP JUMPDEST POP PUSH1 0x3 DUP3 ADD PUSH1 0x0 SWAP1 SLOAD SWAP1 PUSH2 0x100 EXP SWAP1 DIV PUSH1 0xFF AND DUP2 PUSH1 0x3 ADD PUSH1 0x0 PUSH2 0x100 EXP DUP2 SLOAD DUP2 PUSH1 0xFF MUL NOT AND SWAP1 DUP4 ISZERO ISZERO MUL OR SWAP1 SSTORE POP PUSH1 0x4 DUP3 ADD SLOAD DUP2 PUSH1 0x4 ADD SSTORE PUSH1 0x5 DUP3 ADD SLOAD DUP2 PUSH1 0x5 ADD SSTORE SWAP1 POP POP PUSH1 0xC PUSH1 0x0 DUP2 SLOAD DUP1 SWAP3 SWAP2 SWAP1 PUSH2 0x1381 SWAP1 PUSH2 0x245F JUMP JUMPDEST SWAP2 SWAP1 POP SSTORE POP PUSH2 0x16D5 JUMP JUMPDEST PUSH1 0x8 PUSH1 0x0 SWAP1 DUP1 PUSH1 0x1 DUP2 SLOAD ADD DUP1 DUP3 SSTORE DUP1 SWAP2 POP POP PUSH1 0x1 SWAP1 SUB SWAP1 PUSH1 0x0 MSTORE PUSH1 0x20 PUSH1 0x0 KECCAK256 SWAP1 PUSH1 0x6 MUL ADD PUSH1 0x0 SWAP1 SWAP2 SWAP1 SWAP2 SWAP1 SWAP2 POP PUSH1 0x0 DUP3 ADD DUP2 PUSH1 0x0 ADD SWAP1 DUP2 PUSH2 0x13CC SWAP2 SWAP1 PUSH2 0x24F1 JUMP JUMPDEST POP PUSH1 0x1 DUP3 ADD PUSH1 0x0 SWAP1 SLOAD SWAP1 PUSH2 0x100 EXP SWAP1 DIV PUSH20 0xFFFFFFFFFFFFFFFFFFFFFFFFFFFFFFFFFFFFFFFF AND DUP2 PUSH1 0x1 ADD PUSH1 0x0 PUSH2 0x100 EXP DUP2 SLOAD DUP2 PUSH20 0xFFFFFFFFFFFFFFFFFFFFFFFFFFFFFFFFFFFFFFFF MUL NOT AND SWAP1 DUP4 PUSH20 0xFFFFFFFFFFFFFFFFFFFFFFFFFFFFFFFFFFFFFFFF AND MUL OR SWAP1 SSTORE POP PUSH1 0x2 DUP3 ADD DUP2 PUSH1 0x2 ADD SWAP1 DUP1 SLOAD PUSH2 0x144A SWAP3 SWAP2 SWAP1 PUSH2 0x19A2 JUMP JUMPDEST POP PUSH1 0x3 DUP3 ADD PUSH1 0x0 SWAP1 SLOAD SWAP1 PUSH2 0x100 EXP SWAP1 DIV PUSH1 0xFF AND DUP2 PUSH1 0x3 ADD PUSH1 0x0 PUSH2 0x100 EXP DUP2 SLOAD DUP2 PUSH1 0xFF MUL NOT AND SWAP1 DUP4 ISZERO ISZERO MUL OR SWAP1 SSTORE POP PUSH1 0x4 DUP3 ADD SLOAD DUP2 PUSH1 0x4 ADD SSTORE PUSH1 0x5 DUP3 ADD SLOAD DUP2 PUSH1 0x5 ADD SSTORE POP POP PUSH1 0x9 PUSH1 0x0 DUP5 PUSH20 0xFFFFFFFFFFFFFFFFFFFFFFFFFFFFFFFFFFFFFFFF AND PUSH20 0xFFFFFFFFFFFFFFFFFFFFFFFFFFFFFFFFFFFFFFFF AND DUP2 MSTORE PUSH1 0x20 ADD SWAP1 DUP2 MSTORE PUSH1 0x20 ADD PUSH1 0x0 KECCAK256 PUSH1 0x0 SWAP1 DUP1 PUSH1 0x1 DUP2 SLOAD ADD DUP1 DUP3 SSTORE DUP1 SWAP2 POP POP PUSH1 0x1 SWAP1 SUB SWAP1 PUSH1 0x0 MSTORE PUSH1 0x20 PUSH1 0x0 KECCAK256 SWAP1 PUSH1 0x6 MUL ADD PUSH1 0x0 SWAP1 SWAP2 SWAP1 SWAP2 SWAP1 SWAP2 POP PUSH1 0x0 DUP3 ADD DUP2 PUSH1 0x0 ADD SWAP1 DUP2 PUSH2 0x150C SWAP2 SWAP1 PUSH2 0x24F1 JUMP JUMPDEST POP PUSH1 0x1 DUP3 ADD PUSH1 0x0 SWAP1 SLOAD SWAP1 PUSH2 0x100 EXP SWAP1 DIV PUSH20 0xFFFFFFFFFFFFFFFFFFFFFFFFFFFFFFFFFFFFFFFF AND DUP2 PUSH1 0x1 ADD PUSH1 0x0 PUSH2 0x100 EXP DUP2 SLOAD DUP2 PUSH20 0xFFFFFFFFFFFFFFFFFFFFFFFFFFFFFFFFFFFFFFFF MUL NOT AND SWAP1 DUP4 PUSH20 0xFFFFFFFFFFFFFFFFFFFFFFFFFFFFFFFFFFFFFFFF AND MUL OR SWAP1 SSTORE POP PUSH1 0x2 DUP3 ADD DUP2 PUSH1 0x2 ADD SWAP1 DUP1 SLOAD PUSH2 0x158A SWAP3 SWAP2 SWAP1 PUSH2 0x19A2 JUMP JUMPDEST POP PUSH1 0x3 DUP3 ADD PUSH1 0x0 SWAP1 SLOAD SWAP1 PUSH2 0x100 EXP SWAP1 DIV PUSH1 0xFF AND DUP2 PUSH1 0x3 ADD PUSH1 0x0 PUSH2 0x100 EXP DUP2 SLOAD DUP2 PUSH1 0xFF MUL NOT AND SWAP1 DUP4 ISZERO ISZERO MUL OR SWAP1 SSTORE POP PUSH1 0x4 DUP3 ADD SLOAD DUP2 PUSH1 0x4 ADD SSTORE PUSH1 0x5 DUP3 ADD SLOAD DUP2 PUSH1 0x5 ADD SSTORE POP POP PUSH1 0x0 PUSH1 0xA PUSH1 0x0 PUSH1 0xB SLOAD DUP2 MSTORE PUSH1 0x20 ADD SWAP1 DUP2 MSTORE PUSH1 0x20 ADD PUSH1 0x0 KECCAK256 PUSH1 0x0 DUP3 ADD DUP2 PUSH1 0x0 ADD SWAP1 DUP2 PUSH2 0x15F9 SWAP2 SWAP1 PUSH2 0x24F1 JUMP JUMPDEST POP PUSH1 0x1 DUP3 ADD PUSH1 0x0 SWAP1 SLOAD SWAP1 PUSH2 0x100 EXP SWAP1 DIV PUSH20 0xFFFFFFFFFFFFFFFFFFFFFFFFFFFFFFFFFFFFFFFF AND DUP2 PUSH1 0x1 ADD PUSH1 0x0 PUSH2 0x100 EXP DUP2 SLOAD DUP2 PUSH20 0xFFFFFFFFFFFFFFFFFFFFFFFFFFFFFFFFFFFFFFFF MUL NOT AND SWAP1 DUP4 PUSH20 0xFFFFFFFFFFFFFFFFFFFFFFFFFFFFFFFFFFFFFFFF AND MUL OR SWAP1 SSTORE POP PUSH1 0x2 DUP3 ADD DUP2 PUSH1 0x2 ADD SWAP1 DUP1 SLOAD PUSH2 0x1677 SWAP3 SWAP2 SWAP1 PUSH2 0x19A2 JUMP JUMPDEST POP PUSH1 0x3 DUP3 ADD PUSH1 0x0 SWAP1 SLOAD SWAP1 PUSH2 0x100 EXP SWAP1 DIV PUSH1 0xFF AND DUP2 PUSH1 0x3 ADD PUSH1 0x0 PUSH2 0x100 EXP DUP2 SLOAD DUP2 PUSH1 0xFF MUL NOT AND SWAP1 DUP4 ISZERO ISZERO MUL OR SWAP1 SSTORE POP PUSH1 0x4 DUP3 ADD SLOAD DUP2 PUSH1 0x4 ADD SSTORE PUSH1 0x5 DUP3 ADD SLOAD DUP2 PUSH1 0x5 ADD SSTORE SWAP1 POP POP PUSH1 0xB PUSH1 0x0 DUP2 SLOAD DUP1 SWAP3 SWAP2 SWAP1 PUSH2 0x16CF SWAP1 PUSH2 0x245F JUMP JUMPDEST SWAP2 SWAP1 POP SSTORE POP JUMPDEST POP POP POP POP JUMP JUMPDEST PUSH1 0x0 PUSH1 0x6 DUP3 DUP2 SLOAD DUP2 LT PUSH2 0x16F1 JUMPI PUSH2 0x16F0 PUSH2 0x2183 JUMP JUMPDEST JUMPDEST SWAP1 PUSH1 0x0 MSTORE PUSH1 0x20 PUSH1 0x0 KECCAK256 SWAP1 PUSH1 0x6 MUL ADD PUSH1 0x40 MLOAD DUP1 PUSH1 0xC0 ADD PUSH1 0x40 MSTORE SWAP1 DUP2 PUSH1 0x0 DUP3 ADD DUP1 SLOAD PUSH2 0x171A SWAP1 PUSH2 0x2152 JUMP JUMPDEST DUP1 PUSH1 0x1F ADD PUSH1 0x20 DUP1 SWAP2 DIV MUL PUSH1 0x20 ADD PUSH1 0x40 MLOAD SWAP1 DUP2 ADD PUSH1 0x40 MSTORE DUP1 SWAP3 SWAP2 SWAP1 DUP2 DUP2 MSTORE PUSH1 0x20 ADD DUP3 DUP1 SLOAD PUSH2 0x1746 SWAP1 PUSH2 0x2152 JUMP JUMPDEST DUP1 ISZERO PUSH2 0x1793 JUMPI DUP1 PUSH1 0x1F LT PUSH2 0x1768 JUMPI PUSH2 0x100 DUP1 DUP4 SLOAD DIV MUL DUP4 MSTORE SWAP2 PUSH1 0x20 ADD SWAP2 PUSH2 0x1793 JUMP JUMPDEST DUP3 ADD SWAP2 SWAP1 PUSH1 0x0 MSTORE PUSH1 0x20 PUSH1 0x0 KECCAK256 SWAP1 JUMPDEST DUP2 SLOAD DUP2 MSTORE SWAP1 PUSH1 0x1 ADD SWAP1 PUSH1 0x20 ADD DUP1 DUP4 GT PUSH2 0x1776 JUMPI DUP3 SWAP1 SUB PUSH1 0x1F AND DUP3 ADD SWAP2 JUMPDEST POP POP POP POP POP DUP2 MSTORE PUSH1 0x20 ADD PUSH1 0x1 DUP3 ADD PUSH1 0x0 SWAP1 SLOAD SWAP1 PUSH2 0x100 EXP SWAP1 DIV PUSH20 0xFFFFFFFFFFFFFFFFFFFFFFFFFFFFFFFFFFFFFFFF AND PUSH20 0xFFFFFFFFFFFFFFFFFFFFFFFFFFFFFFFFFFFFFFFF AND PUSH20 0xFFFFFFFFFFFFFFFFFFFFFFFFFFFFFFFFFFFFFFFF AND DUP2 MSTORE PUSH1 0x20 ADD PUSH1 0x2 DUP3 ADD DUP1 SLOAD DUP1 PUSH1 0x20 MUL PUSH1 0x20 ADD PUSH1 0x40 MLOAD SWAP1 DUP2 ADD PUSH1 0x40 MSTORE DUP1 SWAP3 SWAP2 SWAP1 DUP2 DUP2 MSTORE PUSH1 0x20 ADD DUP3 DUP1 SLOAD DUP1 ISZERO PUSH2 0x1877 JUMPI PUSH1 0x20 MUL DUP3 ADD SWAP2 SWAP1 PUSH1 0x0 MSTORE PUSH1 0x20 PUSH1 0x0 KECCAK256 SWAP1 JUMPDEST DUP2 PUSH1 0x0 SWAP1 SLOAD SWAP1 PUSH2 0x100 EXP SWAP1 DIV PUSH20 0xFFFFFFFFFFFFFFFFFFFFFFFFFFFFFFFFFFFFFFFF AND PUSH20 0xFFFFFFFFFFFFFFFFFFFFFFFFFFFFFFFFFFFFFFFF AND DUP2 MSTORE PUSH1 0x20 ADD SWAP1 PUSH1 0x1 ADD SWAP1 DUP1 DUP4 GT PUSH2 0x182D JUMPI JUMPDEST POP POP POP POP POP DUP2 MSTORE PUSH1 0x20 ADD PUSH1 0x3 DUP3 ADD PUSH1 0x0 SWAP1 SLOAD SWAP1 PUSH2 0x100 EXP SWAP1 DIV PUSH1 0xFF AND ISZERO ISZERO ISZERO ISZERO DUP2 MSTORE PUSH1 0x20 ADD PUSH1 0x4 DUP3 ADD SLOAD DUP2 MSTORE PUSH1 0x20 ADD PUSH1 0x5 DUP3 ADD SLOAD DUP2 MSTORE POP POP SWAP1 POP PUSH2 0x18C6 DUP2 PUSH1 0x0 ADD MLOAD DUP3 PUSH1 0x20 ADD MLOAD CALLER PUSH1 0x0 PUSH2 0xF44 JUMP JUMPDEST POP POP JUMP JUMPDEST PUSH1 0x40 MLOAD DUP1 PUSH1 0xC0 ADD PUSH1 0x40 MSTORE DUP1 PUSH1 0x60 DUP2 MSTORE PUSH1 0x20 ADD PUSH1 0x0 PUSH20 0xFFFFFFFFFFFFFFFFFFFFFFFFFFFFFFFFFFFFFFFF AND DUP2 MSTORE PUSH1 0x20 ADD PUSH1 0x60 DUP2 MSTORE PUSH1 0x20 ADD PUSH1 0x0 ISZERO ISZERO DUP2 MSTORE PUSH1 0x20 ADD PUSH1 0x0 DUP2 MSTORE PUSH1 0x20 ADD PUSH1 0x0 DUP2 MSTORE POP SWAP1 JUMP JUMPDEST DUP3 DUP1 SLOAD DUP3 DUP3 SSTORE SWAP1 PUSH1 0x0 MSTORE PUSH1 0x20 PUSH1 0x0 KECCAK256 SWAP1 DUP2 ADD SWAP3 DUP3 ISZERO PUSH2 0x1991 JUMPI SWAP2 PUSH1 0x20 MUL DUP3 ADD JUMPDEST DUP3 DUP2 GT ISZERO PUSH2 0x1990 JUMPI DUP3 MLOAD DUP3 PUSH1 0x0 PUSH2 0x100 EXP DUP2 SLOAD DUP2 PUSH20 0xFFFFFFFFFFFFFFFFFFFFFFFFFFFFFFFFFFFFFFFF MUL NOT AND SWAP1 DUP4 PUSH20 0xFFFFFFFFFFFFFFFFFFFFFFFFFFFFFFFFFFFFFFFF AND MUL OR SWAP1 SSTORE POP SWAP2 PUSH1 0x20 ADD SWAP2 SWAP1 PUSH1 0x1 ADD SWAP1 PUSH2 0x1938 JUMP JUMPDEST JUMPDEST POP SWAP1 POP PUSH2 0x199E SWAP2 SWAP1 PUSH2 0x1A55 JUMP JUMPDEST POP SWAP1 JUMP JUMPDEST DUP3 DUP1 SLOAD DUP3 DUP3 SSTORE SWAP1 PUSH1 0x0 MSTORE PUSH1 0x20 PUSH1 0x0 KECCAK256 SWAP1 DUP2 ADD SWAP3 DUP3 ISZERO PUSH2 0x19E3 JUMPI PUSH1 0x0 MSTORE PUSH1 0x20 PUSH1 0x0 KECCAK256 SWAP2 DUP3 ADD JUMPDEST DUP3 DUP2 GT ISZERO PUSH2 0x19E2 JUMPI DUP3 SLOAD DUP3 SSTORE SWAP2 PUSH1 0x1 ADD SWAP2 SWAP1 PUSH1 0x1 ADD SWAP1 PUSH2 0x19C7 JUMP JUMPDEST JUMPDEST POP SWAP1 POP PUSH2 0x19F0 SWAP2 SWAP1 PUSH2 0x1A55 JUMP JUMPDEST POP SWAP1 JUMP JUMPDEST POP DUP1 SLOAD PUSH2 0x1A00 SWAP1 PUSH2 0x2152 JUMP JUMPDEST PUSH1 0x0 DUP3 SSTORE DUP1 PUSH1 0x1F LT PUSH2 0x1A12 JUMPI POP PUSH2 0x1A31 JUMP JUMPDEST PUSH1 0x1F ADD PUSH1 0x20 SWAP1 DIV SWAP1 PUSH1 0x0 MSTORE PUSH1 0x20 PUSH1 0x0 KECCAK256 SWAP1 DUP2 ADD SWAP1 PUSH2 0x1A30 SWAP2 SWAP1 PUSH2 0x1A55 JUMP JUMPDEST JUMPDEST POP JUMP JUMPDEST POP DUP1 SLOAD PUSH1 0x0 DUP3 SSTORE SWAP1 PUSH1 0x0 MSTORE PUSH1 0x20 PUSH1 0x0 KECCAK256 SWAP1 DUP2 ADD SWAP1 PUSH2 0x1A52 SWAP2 SWAP1 PUSH2 0x1A55 JUMP JUMPDEST POP JUMP JUMPDEST JUMPDEST DUP1 DUP3 GT ISZERO PUSH2 0x1A6E JUMPI PUSH1 0x0 DUP2 PUSH1 0x0 SWAP1 SSTORE POP PUSH1 0x1 ADD PUSH2 0x1A56 JUMP JUMPDEST POP SWAP1 JUMP JUMPDEST PUSH1 0x0 PUSH1 0x40 MLOAD SWAP1 POP SWAP1 JUMP JUMPDEST PUSH1 0x0 DUP1 REVERT JUMPDEST PUSH1 0x0 DUP1 REVERT JUMPDEST PUSH1 0x0 DUP2 ISZERO ISZERO SWAP1 POP SWAP2 SWAP1 POP JUMP JUMPDEST PUSH2 0x1A9B DUP2 PUSH2 0x1A86 JUMP JUMPDEST DUP2 EQ PUSH2 0x1AA6 JUMPI PUSH1 0x0 DUP1 REVERT JUMPDEST POP JUMP JUMPDEST PUSH1 0x0 DUP2 CALLDATALOAD SWAP1 POP PUSH2 0x1AB8 DUP2 PUSH2 0x1A92 JUMP JUMPDEST SWAP3 SWAP2 POP POP JUMP JUMPDEST PUSH1 0x0 PUSH1 0x20 DUP3 DUP5 SUB SLT ISZERO PUSH2 0x1AD4 JUMPI PUSH2 0x1AD3 PUSH2 0x1A7C JUMP JUMPDEST JUMPDEST PUSH1 0x0 PUSH2 0x1AE2 DUP5 DUP3 DUP6 ADD PUSH2 0x1AA9 JUMP JUMPDEST SWAP2 POP POP SWAP3 SWAP2 POP POP JUMP JUMPDEST PUSH1 0x0 DUP2 MLOAD SWAP1 POP SWAP2 SWAP1 POP JUMP JUMPDEST PUSH1 0x0 DUP3 DUP3 MSTORE PUSH1 0x20 DUP3 ADD SWAP1 POP SWAP3 SWAP2 POP POP JUMP JUMPDEST PUSH1 0x0 DUP2 SWAP1 POP PUSH1 0x20 DUP3 ADD SWAP1 POP SWAP2 SWAP1 POP JUMP JUMPDEST PUSH1 0x0 DUP2 MLOAD SWAP1 POP SWAP2 SWAP1 POP JUMP JUMPDEST PUSH1 0x0 DUP3 DUP3 MSTORE PUSH1 0x20 DUP3 ADD SWAP1 POP SWAP3 SWAP2 POP POP JUMP JUMPDEST PUSH1 0x0 JUMPDEST DUP4 DUP2 LT ISZERO PUSH2 0x1B51 JUMPI DUP1 DUP3 ADD MLOAD DUP2 DUP5 ADD MSTORE PUSH1 0x20 DUP2 ADD SWAP1 POP PUSH2 0x1B36 JUMP JUMPDEST PUSH1 0x0 DUP5 DUP5 ADD MSTORE POP POP POP POP JUMP JUMPDEST PUSH1 0x0 PUSH1 0x1F NOT PUSH1 0x1F DUP4 ADD AND SWAP1 POP SWAP2 SWAP1 POP JUMP JUMPDEST PUSH1 0x0 PUSH2 0x1B79 DUP3 PUSH2 0x1B17 JUMP JUMPDEST PUSH2 0x1B83 DUP2 DUP6 PUSH2 0x1B22 JUMP JUMPDEST SWAP4 POP PUSH2 0x1B93 DUP2 DUP6 PUSH1 0x20 DUP7 ADD PUSH2 0x1B33 JUMP JUMPDEST PUSH2 0x1B9C DUP2 PUSH2 0x1B5D JUMP JUMPDEST DUP5 ADD SWAP2 POP POP SWAP3 SWAP2 POP POP JUMP JUMPDEST PUSH1 0x0 PUSH20 0xFFFFFFFFFFFFFFFFFFFFFFFFFFFFFFFFFFFFFFFF DUP3 AND SWAP1 POP SWAP2 SWAP1 POP JUMP JUMPDEST PUSH1 0x0 PUSH2 0x1BD2 DUP3 PUSH2 0x1BA7 JUMP JUMPDEST SWAP1 POP SWAP2 SWAP1 POP JUMP JUMPDEST PUSH2 0x1BE2 DUP2 PUSH2 0x1BC7 JUMP JUMPDEST DUP3 MSTORE POP POP JUMP JUMPDEST PUSH1 0x0 DUP2 MLOAD SWAP1 POP SWAP2 SWAP1 POP JUMP JUMPDEST PUSH1 0x0 DUP3 DUP3 MSTORE PUSH1 0x20 DUP3 ADD SWAP1 POP SWAP3 SWAP2 POP POP JUMP JUMPDEST PUSH1 0x0 DUP2 SWAP1 POP PUSH1 0x20 DUP3 ADD SWAP1 POP SWAP2 SWAP1 POP JUMP JUMPDEST PUSH1 0x0 PUSH2 0x1C20 DUP4 DUP4 PUSH2 0x1BD9 JUMP JUMPDEST PUSH1 0x20 DUP4 ADD SWAP1 POP SWAP3 SWAP2 POP POP JUMP JUMPDEST PUSH1 0x0 PUSH1 0x20 DUP3 ADD SWAP1 POP SWAP2 SWAP1 POP JUMP JUMPDEST PUSH1 0x0 PUSH2 0x1C44 DUP3 PUSH2 0x1BE8 JUMP JUMPDEST PUSH2 0x1C4E DUP2 DUP6 PUSH2 0x1BF3 JUMP JUMPDEST SWAP4 POP PUSH2 0x1C59 DUP4 PUSH2 0x1C04 JUMP JUMPDEST DUP1 PUSH1 0x0 JUMPDEST DUP4 DUP2 LT ISZERO PUSH2 0x1C8A JUMPI DUP2 MLOAD PUSH2 0x1C71 DUP9 DUP3 PUSH2 0x1C14 JUMP JUMPDEST SWAP8 POP PUSH2 0x1C7C DUP4 PUSH2 0x1C2C JUMP JUMPDEST SWAP3 POP POP PUSH1 0x1 DUP2 ADD SWAP1 POP PUSH2 0x1C5D JUMP JUMPDEST POP DUP6 SWAP4 POP POP POP POP SWAP3 SWAP2 POP POP JUMP JUMPDEST PUSH2 0x1CA0 DUP2 PUSH2 0x1A86 JUMP JUMPDEST DUP3 MSTORE POP POP JUMP JUMPDEST PUSH1 0x0 DUP2 SWAP1 POP SWAP2 SWAP1 POP JUMP JUMPDEST PUSH2 0x1CB9 DUP2 PUSH2 0x1CA6 JUMP JUMPDEST DUP3 MSTORE POP POP JUMP JUMPDEST PUSH1 0x0 PUSH1 0xC0 DUP4 ADD PUSH1 0x0 DUP4 ADD MLOAD DUP5 DUP3 SUB PUSH1 0x0 DUP7 ADD MSTORE PUSH2 0x1CDC DUP3 DUP3 PUSH2 0x1B6E JUMP JUMPDEST SWAP2 POP POP PUSH1 0x20 DUP4 ADD MLOAD PUSH2 0x1CF1 PUSH1 0x20 DUP7 ADD DUP3 PUSH2 0x1BD9 JUMP JUMPDEST POP PUSH1 0x40 DUP4 ADD MLOAD DUP5 DUP3 SUB PUSH1 0x40 DUP7 ADD MSTORE PUSH2 0x1D09 DUP3 DUP3 PUSH2 0x1C39 JUMP JUMPDEST SWAP2 POP POP PUSH1 0x60 DUP4 ADD MLOAD PUSH2 0x1D1E PUSH1 0x60 DUP7 ADD DUP3 PUSH2 0x1C97 JUMP JUMPDEST POP PUSH1 0x80 DUP4 ADD MLOAD PUSH2 0x1D31 PUSH1 0x80 DUP7 ADD DUP3 PUSH2 0x1CB0 JUMP JUMPDEST POP PUSH1 0xA0 DUP4 ADD MLOAD PUSH2 0x1D44 PUSH1 0xA0 DUP7 ADD DUP3 PUSH2 0x1CB0 JUMP JUMPDEST POP DUP1 SWAP2 POP POP SWAP3 SWAP2 POP POP JUMP JUMPDEST PUSH1 0x0 PUSH2 0x1D5B DUP4 DUP4 PUSH2 0x1CBF JUMP JUMPDEST SWAP1 POP SWAP3 SWAP2 POP POP JUMP JUMPDEST PUSH1 0x0 PUSH1 0x20 DUP3 ADD SWAP1 POP SWAP2 SWAP1 POP JUMP JUMPDEST PUSH1 0x0 PUSH2 0x1D7B DUP3 PUSH2 0x1AEB JUMP JUMPDEST PUSH2 0x1D85 DUP2 DUP6 PUSH2 0x1AF6 JUMP JUMPDEST SWAP4 POP DUP4 PUSH1 0x20 DUP3 MUL DUP6 ADD PUSH2 0x1D97 DUP6 PUSH2 0x1B07 JUMP JUMPDEST DUP1 PUSH1 0x0 JUMPDEST DUP6 DUP2 LT ISZERO PUSH2 0x1DD3 JUMPI DUP5 DUP5 SUB DUP10 MSTORE DUP2 MLOAD PUSH2 0x1DB4 DUP6 DUP3 PUSH2 0x1D4F JUMP JUMPDEST SWAP5 POP PUSH2 0x1DBF DUP4 PUSH2 0x1D63 JUMP JUMPDEST SWAP3 POP PUSH1 0x20 DUP11 ADD SWAP10 POP POP PUSH1 0x1 DUP2 ADD SWAP1 POP PUSH2 0x1D9B JUMP JUMPDEST POP DUP3 SWAP8 POP DUP8 SWAP6 POP POP POP POP POP POP SWAP3 SWAP2 POP POP JUMP JUMPDEST PUSH1 0x0 PUSH1 0x20 DUP3 ADD SWAP1 POP DUP2 DUP2 SUB PUSH1 0x0 DUP4 ADD MSTORE PUSH2 0x1DFF DUP2 DUP5 PUSH2 0x1D70 JUMP JUMPDEST SWAP1 POP SWAP3 SWAP2 POP POP JUMP JUMPDEST PUSH2 0x1E10 DUP2 PUSH2 0x1BC7 JUMP JUMPDEST DUP2 EQ PUSH2 0x1E1B JUMPI PUSH1 0x0 DUP1 REVERT JUMPDEST POP JUMP JUMPDEST PUSH1 0x0 DUP2 CALLDATALOAD SWAP1 POP PUSH2 0x1E2D DUP2 PUSH2 0x1E07 JUMP JUMPDEST SWAP3 SWAP2 POP POP JUMP JUMPDEST PUSH1 0x0 PUSH1 0x20 DUP3 DUP5 SUB SLT ISZERO PUSH2 0x1E49 JUMPI PUSH2 0x1E48 PUSH2 0x1A7C JUMP JUMPDEST JUMPDEST PUSH1 0x0 PUSH2 0x1E57 DUP5 DUP3 DUP6 ADD PUSH2 0x1E1E JUMP JUMPDEST SWAP2 POP POP SWAP3 SWAP2 POP POP JUMP JUMPDEST PUSH2 0x1E69 DUP2 PUSH2 0x1CA6 JUMP JUMPDEST DUP2 EQ PUSH2 0x1E74 JUMPI PUSH1 0x0 DUP1 REVERT JUMPDEST POP JUMP JUMPDEST PUSH1 0x0 DUP2 CALLDATALOAD SWAP1 POP PUSH2 0x1E86 DUP2 PUSH2 0x1E60 JUMP JUMPDEST SWAP3 SWAP2 POP POP JUMP JUMPDEST PUSH1 0x0 PUSH1 0x20 DUP3 DUP5 SUB SLT ISZERO PUSH2 0x1EA2 JUMPI PUSH2 0x1EA1 PUSH2 0x1A7C JUMP JUMPDEST JUMPDEST PUSH1 0x0 PUSH2 0x1EB0 DUP5 DUP3 DUP6 ADD PUSH2 0x1E77 JUMP JUMPDEST SWAP2 POP POP SWAP3 SWAP2 POP POP JUMP JUMPDEST PUSH1 0x0 PUSH1 0xC0 DUP4 ADD PUSH1 0x0 DUP4 ADD MLOAD DUP5 DUP3 SUB PUSH1 0x0 DUP7 ADD MSTORE PUSH2 0x1ED6 DUP3 DUP3 PUSH2 0x1B6E JUMP JUMPDEST SWAP2 POP POP PUSH1 0x20 DUP4 ADD MLOAD PUSH2 0x1EEB PUSH1 0x20 DUP7 ADD DUP3 PUSH2 0x1BD9 JUMP JUMPDEST POP PUSH1 0x40 DUP4 ADD MLOAD DUP5 DUP3 SUB PUSH1 0x40 DUP7 ADD MSTORE PUSH2 0x1F03 DUP3 DUP3 PUSH2 0x1C39 JUMP JUMPDEST SWAP2 POP POP PUSH1 0x60 DUP4 ADD MLOAD PUSH2 0x1F18 PUSH1 0x60 DUP7 ADD DUP3 PUSH2 0x1C97 JUMP JUMPDEST POP PUSH1 0x80 DUP4 ADD MLOAD PUSH2 0x1F2B PUSH1 0x80 DUP7 ADD DUP3 PUSH2 0x1CB0 JUMP JUMPDEST POP PUSH1 0xA0 DUP4 ADD MLOAD PUSH2 0x1F3E PUSH1 0xA0 DUP7 ADD DUP3 PUSH2 0x1CB0 JUMP JUMPDEST POP DUP1 SWAP2 POP POP SWAP3 SWAP2 POP POP JUMP JUMPDEST PUSH1 0x0 PUSH1 0x20 DUP3 ADD SWAP1 POP DUP2 DUP2 SUB PUSH1 0x0 DUP4 ADD MSTORE PUSH2 0x1F63 DUP2 DUP5 PUSH2 0x1EB9 JUMP JUMPDEST SWAP1 POP SWAP3 SWAP2 POP POP JUMP JUMPDEST PUSH1 0x0 DUP1 REVERT JUMPDEST PUSH1 0x0 DUP1 REVERT JUMPDEST PUSH32 0x4E487B7100000000000000000000000000000000000000000000000000000000 PUSH1 0x0 MSTORE PUSH1 0x41 PUSH1 0x4 MSTORE PUSH1 0x24 PUSH1 0x0 REVERT JUMPDEST PUSH2 0x1FAD DUP3 PUSH2 0x1B5D JUMP JUMPDEST DUP2 ADD DUP2 DUP2 LT PUSH8 0xFFFFFFFFFFFFFFFF DUP3 GT OR ISZERO PUSH2 0x1FCC JUMPI PUSH2 0x1FCB PUSH2 0x1F75 JUMP JUMPDEST JUMPDEST DUP1 PUSH1 0x40 MSTORE POP POP POP JUMP JUMPDEST PUSH1 0x0 PUSH2 0x1FDF PUSH2 0x1A72 JUMP JUMPDEST SWAP1 POP PUSH2 0x1FEB DUP3 DUP3 PUSH2 0x1FA4 JUMP JUMPDEST SWAP2 SWAP1 POP JUMP JUMPDEST PUSH1 0x0 PUSH8 0xFFFFFFFFFFFFFFFF DUP3 GT ISZERO PUSH2 0x200B JUMPI PUSH2 0x200A PUSH2 0x1F75 JUMP JUMPDEST JUMPDEST PUSH2 0x2014 DUP3 PUSH2 0x1B5D JUMP JUMPDEST SWAP1 POP PUSH1 0x20 DUP2 ADD SWAP1 POP SWAP2 SWAP1 POP JUMP JUMPDEST DUP3 DUP2 DUP4 CALLDATACOPY PUSH1 0x0 DUP4 DUP4 ADD MSTORE POP POP POP JUMP JUMPDEST PUSH1 0x0 PUSH2 0x2043 PUSH2 0x203E DUP5 PUSH2 0x1FF0 JUMP JUMPDEST PUSH2 0x1FD5 JUMP JUMPDEST SWAP1 POP DUP3 DUP2 MSTORE PUSH1 0x20 DUP2 ADD DUP5 DUP5 DUP5 ADD GT ISZERO PUSH2 0x205F JUMPI PUSH2 0x205E PUSH2 0x1F70 JUMP JUMPDEST JUMPDEST PUSH2 0x206A DUP5 DUP3 DUP6 PUSH2 0x2021 JUMP JUMPDEST POP SWAP4 SWAP3 POP POP POP JUMP JUMPDEST PUSH1 0x0 DUP3 PUSH1 0x1F DUP4 ADD SLT PUSH2 0x2087 JUMPI PUSH2 0x2086 PUSH2 0x1F6B JUMP JUMPDEST JUMPDEST DUP2 CALLDATALOAD PUSH2 0x2097 DUP5 DUP3 PUSH1 0x20 DUP7 ADD PUSH2 0x2030 JUMP JUMPDEST SWAP2 POP POP SWAP3 SWAP2 POP POP JUMP JUMPDEST PUSH1 0x0 DUP1 PUSH1 0x0 DUP1 PUSH1 0x80 DUP6 DUP8 SUB SLT ISZERO PUSH2 0x20BA JUMPI PUSH2 0x20B9 PUSH2 0x1A7C JUMP JUMPDEST JUMPDEST PUSH1 0x0 DUP6 ADD CALLDATALOAD PUSH8 0xFFFFFFFFFFFFFFFF DUP2 GT ISZERO PUSH2 0x20D8 JUMPI PUSH2 0x20D7 PUSH2 0x1A81 JUMP JUMPDEST JUMPDEST PUSH2 0x20E4 DUP8 DUP3 DUP9 ADD PUSH2 0x2072 JUMP JUMPDEST SWAP5 POP POP PUSH1 0x20 PUSH2 0x20F5 DUP8 DUP3 DUP9 ADD PUSH2 0x1E1E JUMP JUMPDEST SWAP4 POP POP PUSH1 0x40 PUSH2 0x2106 DUP8 DUP3 DUP9 ADD PUSH2 0x1E1E JUMP JUMPDEST SWAP3 POP POP PUSH1 0x60 PUSH2 0x2117 DUP8 DUP3 DUP9 ADD PUSH2 0x1AA9 JUMP JUMPDEST SWAP2 POP POP SWAP3 SWAP6 SWAP2 SWAP5 POP SWAP3 POP JUMP JUMPDEST PUSH32 0x4E487B7100000000000000000000000000000000000000000000000000000000 PUSH1 0x0 MSTORE PUSH1 0x22 PUSH1 0x4 MSTORE PUSH1 0x24 PUSH1 0x0 REVERT JUMPDEST PUSH1 0x0 PUSH1 0x2 DUP3 DIV SWAP1 POP PUSH1 0x1 DUP3 AND DUP1 PUSH2 0x216A JUMPI PUSH1 0x7F DUP3 AND SWAP2 POP JUMPDEST PUSH1 0x20 DUP3 LT DUP2 SUB PUSH2 0x217D JUMPI PUSH2 0x217C PUSH2 0x2123 JUMP JUMPDEST JUMPDEST POP SWAP2 SWAP1 POP JUMP JUMPDEST PUSH32 0x4E487B7100000000000000000000000000000000000000000000000000000000 PUSH1 0x0 MSTORE PUSH1 0x32 PUSH1 0x4 MSTORE PUSH1 0x24 PUSH1 0x0 REVERT JUMPDEST PUSH1 0x0 DUP2 SWAP1 POP DUP2 PUSH1 0x0 MSTORE PUSH1 0x20 PUSH1 0x0 KECCAK256 SWAP1 POP SWAP2 SWAP1 POP JUMP JUMPDEST PUSH1 0x0 PUSH1 0x20 PUSH1 0x1F DUP4 ADD DIV SWAP1 POP SWAP2 SWAP1 POP JUMP JUMPDEST PUSH1 0x0 DUP3 DUP3 SHL SWAP1 POP SWAP3 SWAP2 POP POP JUMP JUMPDEST PUSH1 0x0 PUSH1 0x8 DUP4 MUL PUSH2 0x2214 PUSH32 0xFFFFFFFFFFFFFFFFFFFFFFFFFFFFFFFFFFFFFFFFFFFFFFFFFFFFFFFFFFFFFFFF DUP3 PUSH2 0x21D7 JUMP JUMPDEST PUSH2 0x221E DUP7 DUP4 PUSH2 0x21D7 JUMP JUMPDEST SWAP6 POP DUP1 NOT DUP5 AND SWAP4 POP DUP1 DUP7 AND DUP5 OR SWAP3 POP POP POP SWAP4 SWAP3 POP POP POP JUMP JUMPDEST PUSH1 0x0 DUP2 SWAP1 POP SWAP2 SWAP1 POP JUMP JUMPDEST PUSH1 0x0 PUSH2 0x225B PUSH2 0x2256 PUSH2 0x2251 DUP5 PUSH2 0x1CA6 JUMP JUMPDEST PUSH2 0x2236 JUMP JUMPDEST PUSH2 0x1CA6 JUMP JUMPDEST SWAP1 POP SWAP2 SWAP1 POP JUMP JUMPDEST PUSH1 0x0 DUP2 SWAP1 POP SWAP2 SWAP1 POP JUMP JUMPDEST PUSH2 0x2275 DUP4 PUSH2 0x2240 JUMP JUMPDEST PUSH2 0x2289 PUSH2 0x2281 DUP3 PUSH2 0x2262 JUMP JUMPDEST DUP5 DUP5 SLOAD PUSH2 0x21E4 JUMP JUMPDEST DUP3 SSTORE POP POP POP POP JUMP JUMPDEST PUSH1 0x0 SWAP1 JUMP JUMPDEST PUSH2 0x229E PUSH2 0x2291 JUMP JUMPDEST PUSH2 0x22A9 DUP2 DUP5 DUP5 PUSH2 0x226C JUMP JUMPDEST POP POP POP JUMP JUMPDEST JUMPDEST DUP2 DUP2 LT ISZERO PUSH2 0x22CD JUMPI PUSH2 0x22C2 PUSH1 0x0 DUP3 PUSH2 0x2296 JUMP JUMPDEST PUSH1 0x1 DUP2 ADD SWAP1 POP PUSH2 0x22AF JUMP JUMPDEST POP POP JUMP JUMPDEST PUSH1 0x1F DUP3 GT ISZERO PUSH2 0x2312 JUMPI PUSH2 0x22E3 DUP2 PUSH2 0x21B2 JUMP JUMPDEST PUSH2 0x22EC DUP5 PUSH2 0x21C7 JUMP JUMPDEST DUP2 ADD PUSH1 0x20 DUP6 LT ISZERO PUSH2 0x22FB JUMPI DUP2 SWAP1 POP JUMPDEST PUSH2 0x230F PUSH2 0x2307 DUP6 PUSH2 0x21C7 JUMP JUMPDEST DUP4 ADD DUP3 PUSH2 0x22AE JUMP JUMPDEST POP POP JUMPDEST POP POP POP JUMP JUMPDEST PUSH1 0x0 DUP3 DUP3 SHR SWAP1 POP SWAP3 SWAP2 POP POP JUMP JUMPDEST PUSH1 0x0 PUSH2 0x2335 PUSH1 0x0 NOT DUP5 PUSH1 0x8 MUL PUSH2 0x2317 JUMP JUMPDEST NOT DUP1 DUP4 AND SWAP2 POP POP SWAP3 SWAP2 POP POP JUMP JUMPDEST PUSH1 0x0 PUSH2 0x234E DUP4 DUP4 PUSH2 0x2324 JUMP JUMPDEST SWAP2 POP DUP3 PUSH1 0x2 MUL DUP3 OR SWAP1 POP SWAP3 SWAP2 POP POP JUMP JUMPDEST PUSH2 0x2367 DUP3 PUSH2 0x1B17 JUMP JUMPDEST PUSH8 0xFFFFFFFFFFFFFFFF DUP2 GT ISZERO PUSH2 0x2380 JUMPI PUSH2 0x237F PUSH2 0x1F75 JUMP JUMPDEST JUMPDEST PUSH2 0x238A DUP3 SLOAD PUSH2 0x2152 JUMP JUMPDEST PUSH2 0x2395 DUP3 DUP3 DUP6 PUSH2 0x22D1 JUMP JUMPDEST PUSH1 0x0 PUSH1 0x20 SWAP1 POP PUSH1 0x1F DUP4 GT PUSH1 0x1 DUP2 EQ PUSH2 0x23C8 JUMPI PUSH1 0x0 DUP5 ISZERO PUSH2 0x23B6 JUMPI DUP3 DUP8 ADD MLOAD SWAP1 POP JUMPDEST PUSH2 0x23C0 DUP6 DUP3 PUSH2 0x2342 JUMP JUMPDEST DUP7 SSTORE POP PUSH2 0x2428 JUMP JUMPDEST PUSH1 0x1F NOT DUP5 AND PUSH2 0x23D6 DUP7 PUSH2 0x21B2 JUMP JUMPDEST PUSH1 0x0 JUMPDEST DUP3 DUP2 LT ISZERO PUSH2 0x23FE JUMPI DUP5 DUP10 ADD MLOAD DUP3 SSTORE PUSH1 0x1 DUP3 ADD SWAP2 POP PUSH1 0x20 DUP6 ADD SWAP5 POP PUSH1 0x20 DUP2 ADD SWAP1 POP PUSH2 0x23D9 JUMP JUMPDEST DUP7 DUP4 LT ISZERO PUSH2 0x241B JUMPI DUP5 DUP10 ADD MLOAD PUSH2 0x2417 PUSH1 0x1F DUP10 AND DUP3 PUSH2 0x2324 JUMP JUMPDEST DUP4 SSTORE POP JUMPDEST PUSH1 0x1 PUSH1 0x2 DUP9 MUL ADD DUP9 SSTORE POP POP POP JUMPDEST POP POP POP POP POP POP JUMP JUMPDEST PUSH32 0x4E487B7100000000000000000000000000000000000000000000000000000000 PUSH1 0x0 MSTORE PUSH1 0x11 PUSH1 0x4 MSTORE PUSH1 0x24 PUSH1 0x0 REVERT JUMPDEST PUSH1 0x0 PUSH2 0x246A DUP3 PUSH2 0x1CA6 JUMP JUMPDEST SWAP2 POP PUSH32 0xFFFFFFFFFFFFFFFFFFFFFFFFFFFFFFFFFFFFFFFFFFFFFFFFFFFFFFFFFFFFFFFF DUP3 SUB PUSH2 0x249C JUMPI PUSH2 0x249B PUSH2 0x2430 JUMP JUMPDEST JUMPDEST PUSH1 0x1 DUP3 ADD SWAP1 POP SWAP2 SWAP1 POP JUMP JUMPDEST PUSH1 0x0 PUSH2 0x24B2 DUP3 PUSH2 0x1CA6 JUMP JUMPDEST SWAP2 POP PUSH2 0x24BD DUP4 PUSH2 0x1CA6 JUMP JUMPDEST SWAP3 POP DUP3 DUP3 SUB SWAP1 POP DUP2 DUP2 GT ISZERO PUSH2 0x24D5 JUMPI PUSH2 0x24D4 PUSH2 0x2430 JUMP JUMPDEST JUMPDEST SWAP3 SWAP2 POP POP JUMP JUMPDEST PUSH1 0x0 DUP2 SLOAD SWAP1 POP PUSH2 0x24EA DUP2 PUSH2 0x2152 JUMP JUMPDEST SWAP1 POP SWAP2 SWAP1 POP JUMP JUMPDEST DUP2 DUP2 SUB PUSH2 0x24FF JUMPI POP POP PUSH2 0x25D7 JUMP JUMPDEST PUSH2 0x2508 DUP3 PUSH2 0x24DB JUMP JUMPDEST PUSH8 0xFFFFFFFFFFFFFFFF DUP2 GT ISZERO PUSH2 0x2521 JUMPI PUSH2 0x2520 PUSH2 0x1F75 JUMP JUMPDEST JUMPDEST PUSH2 0x252B DUP3 SLOAD PUSH2 0x2152 JUMP JUMPDEST PUSH2 0x2536 DUP3 DUP3 DUP6 PUSH2 0x22D1 JUMP JUMPDEST PUSH1 0x0 PUSH1 0x1F DUP4 GT PUSH1 0x1 DUP2 EQ PUSH2 0x2565 JUMPI PUSH1 0x0 DUP5 ISZERO PUSH2 0x2553 JUMPI DUP3 DUP8 ADD SLOAD SWAP1 POP JUMPDEST PUSH2 0x255D DUP6 DUP3 PUSH2 0x2342 JUMP JUMPDEST DUP7 SSTORE POP PUSH2 0x25D0 JUMP JUMPDEST PUSH1 0x1F NOT DUP5 AND PUSH2 0x2573 DUP8 PUSH2 0x21B2 JUMP JUMPDEST SWAP7 POP PUSH2 0x257E DUP7 PUSH2 0x21B2 JUMP JUMPDEST PUSH1 0x0 JUMPDEST DUP3 DUP2 LT ISZERO PUSH2 0x25A6 JUMPI DUP5 DUP10 ADD SLOAD DUP3 SSTORE PUSH1 0x1 DUP3 ADD SWAP2 POP PUSH1 0x1 DUP6 ADD SWAP5 POP PUSH1 0x20 DUP2 ADD SWAP1 POP PUSH2 0x2581 JUMP JUMPDEST DUP7 DUP4 LT ISZERO PUSH2 0x25C3 JUMPI DUP5 DUP10 ADD SLOAD PUSH2 0x25BF PUSH1 0x1F DUP10 AND DUP3 PUSH2 0x2324 JUMP JUMPDEST DUP4 SSTORE POP JUMPDEST PUSH1 0x1 PUSH1 0x2 DUP9 MUL ADD DUP9 SSTORE POP POP POP JUMPDEST POP POP POP POP POP POP JUMPDEST JUMP JUMPDEST PUSH32 0x4E487B7100000000000000000000000000000000000000000000000000000000 PUSH1 0x0 MSTORE PUSH1 0x31 PUSH1 0x4 MSTORE PUSH1 0x24 PUSH1 0x0 REVERT INVALID LOG2 PUSH5 0x6970667358 0x22 SLT KECCAK256 PUSH16 0x9E3B5C7D9C53E10D267C7C6994493828 0xF8 0xCA PUSH5 0x8C5735CCD0 DUP7 PUSH13 0x9B72EE19A64736F6C63430008 LT STOP CALLER "},"gasEstimates":{"creation":{"codeDepositCost":"1958000","executionCost":"12081","totalCost":"1970081"},"external":{"approvePost(uint256)":"infinite","getAllPosts(bool)":"infinite","getPostsByUser(address)":"infinite","getShares(uint256)":"infinite","postNews(string,address,address,bool)":"infinite","reshare(uint256)":"infinite"}},"methodIdentifiers":{"approvePost(uint256)":"95caa166","getAllPosts(bool)":"1e0f71fe","getPostsByUser(address)":"28538949","getShares(uint256)":"6f7267b7","postNews(string,address,address,bool)":"bc47873b","reshare(uint256)":"be4c3d26"}},"storageLayout":{"storage":[{"astId":18,"contract":"PostNewsContract.sol:PostNewsContract","label":"instanceOfPost","offset":0,"slot":"0","type":"t_struct(PostStructure)15_storage"},{"astId":22,"contract":"PostNewsContract.sol:PostNewsContract","label":"allThePosts","offset":0,"slot":"6","type":"t_array(t_struct(PostStructure)15_storage)dyn_storage"},{"astId":28,"contract":"PostNewsContract.sol:PostNewsContract","label":"postOfUser","offset":0,"slot":"7","type":"t_mapping(t_address,t_array(t_struct(PostStructure)15_storage)dyn_storage)"},{"astId":32,"contract":"PostNewsContract.sol:PostNewsContract","label":"allTheRequestedPosts","offset":0,"slot":"8","type":"t_array(t_struct(PostStructure)15_storage)dyn_storage"},{"astId":38,"contract":"PostNewsContract.sol:PostNewsContract","label":"postOfRequestingUser","offset":0,"slot":"9","type":"t_mapping(t_address,t_array(t_struct(PostStructure)15_storage)dyn_storage)"},{"astId":43,"contract":"PostNewsContract.sol:PostNewsContract","label":"postFromIdx","offset":0,"slot":"10","type":"t_mapping(t_uint256,t_struct(PostStructure)15_storage)"},{"astId":46,"contract":"PostNewsContract.sol:PostNewsContract","label":"requestPostIndex","offset":0,"slot":"11","type":"t_uint256"},{"astId":49,"contract":"PostNewsContract.sol:PostNewsContract","label":"approvedPostIndex","offset":0,"slot":"12","type":"t_uint256"}],"types":{"t_address":{"encoding":"inplace","label":"address","numberOfBytes":"20"},"t_array(t_address)dyn_storage":{"base":"t_address","encoding":"dynamic_array","label":"address[]","numberOfBytes":"32"},"t_array(t_struct(PostStructure)15_storage)dyn_storage":{"base":"t_struct(PostStructure)15_storage","encoding":"dynamic_array","label":"struct PostNewsContract.PostStructure[]","numberOfBytes":"32"},"t_bool":{"encoding":"inplace","label":"bool","numberOfBytes":"1"},"t_mapping(t_address,t_array(t_struct(PostStructure)15_storage)dyn_storage)":{"encoding":"mapping","key":"t_address","label":"mapping(address => struct PostNewsContract.PostStructure[])","numberOfBytes":"32","value":"t_array(t_struct(PostStructure)15_storage)dyn_storage"},"t_mapping(t_uint256,t_struct(PostStructure)15_storage)":{"encoding":"mapping","key":"t_uint256","label":"mapping(uint256 => struct PostNewsContract.PostStructure)","numberOfBytes":"32","value":"t_struct(PostStructure)15_storage"},"t_string_storage":{"encoding":"bytes","label":"string","numberOfBytes":"32"},"t_struct(PostStructure)15_storage":{"encoding":"inplace","label":"struct PostNewsContract.PostStructure","members":[{"astId":3,"contract":"PostNewsContract.sol:PostNewsContract","label":"postHash","offset":0,"slot":"0","type":"t_string_storage"},{"astId":5,"contract":"PostNewsContract.sol:PostNewsContract","label":"postCreator","offset":0,"slot":"1","type":"t_address"},{"astId":8,"contract":"PostNewsContract.sol:PostNewsContract","label":"sharedBy","offset":0,"slot":"2","type":"t_array(t_address)dyn_storage"},{"astId":10,"contract":"PostNewsContract.sol:PostNewsContract","label":"isRequest","offset":0,"slot":"3","type":"t_bool"},{"astId":12,"contract":"PostNewsContract.sol:PostNewsContract","label":"time","offset":0,"slot":"4","type":"t_uint256"},{"astId":14,"contract":"PostNewsContract.sol:PostNewsContract","label":"blockNumber","offset":0,"slot":"5","type":"t_uint256"}],"numberOfBytes":"192"},"t_uint256":{"encoding":"inplace","label":"uint256","numberOfBytes":"32"}}},"userdoc":{"kind":"user","methods":{},"version":1}}