{
  "abi": [
    {
      "inputs": [
        {
          "internalType": "string",
          "name": "_post",
          "type": "string"
        },
        {
          "internalType": "string",
          "name": "_dept",
          "type": "string"
        },
        {
          "internalType": "string",
          "name": "_name",
          "type": "string"
        },
        {
          "internalType": "address",
          "name": "_userAddress",
          "type": "address"
        },
        {
          "internalType": "bool",
          "name": "request",
          "type": "bool"
        }
      ],
      "name": "addOrRequestMember",
      "outputs": [],
      "stateMutability": "nonpayable",
      "type": "function"
    },
    {
      "inputs": [
        {
          "internalType": "address",
          "name": "_postCreator",
          "type": "address"
        },
        {
          "internalType": "string",
          "name": "_postData",
          "type": "string"
        }
      ],
      "name": "addPost",
      "outputs": [],
      "stateMutability": "nonpayable",
      "type": "function"
    },
    {
      "inputs": [
        {
          "internalType": "address",
          "name": "_userAddress",
          "type": "address"
        },
        {
          "internalType": "address",
          "name": "approvingUserAddress",
          "type": "address"
        }
      ],
      "name": "approoveRequest",
      "outputs": [],
      "stateMutability": "nonpayable",
      "type": "function"
    },
    {
      "inputs": [
        {
          "internalType": "address",
          "name": "_userAddress",
          "type": "address"
        },
        {
          "internalType": "bool",
          "name": "requestedMember",
          "type": "bool"
        }
      ],
      "name": "findMember",
      "outputs": [
        {
          "components": [
            {
              "internalType": "string",
              "name": "post",
              "type": "string"
            },
            {
              "internalType": "string",
              "name": "dept",
              "type": "string"
            },
            {
              "internalType": "string",
              "name": "name",
              "type": "string"
            },
            {
              "internalType": "address",
              "name": "userAddress",
              "type": "address"
            },
            {
              "internalType": "uint256",
              "name": "power",
              "type": "uint256"
            },
            {
              "components": [
                {
                  "internalType": "address",
                  "name": "postCreator",
                  "type": "address"
                },
                {
                  "internalType": "string",
                  "name": "postData",
                  "type": "string"
                }
              ],
              "internalType": "struct Contract.PostStructure[]",
              "name": "allPostsByUser",
              "type": "tuple[]"
            }
          ],
          "internalType": "struct Contract.MemberStruct",
          "name": "",
          "type": "tuple"
        }
      ],
      "stateMutability": "view",
      "type": "function"
    },
    {
      "inputs": [],
      "name": "getAllPosts",
      "outputs": [
        {
          "components": [
            {
              "internalType": "address",
              "name": "postCreator",
              "type": "address"
            },
            {
              "internalType": "string",
              "name": "postData",
              "type": "string"
            }
          ],
          "internalType": "struct Contract.PostStructure[]",
          "name": "",
          "type": "tuple[]"
        }
      ],
      "stateMutability": "view",
      "type": "function"
    },
    {
      "inputs": [
        {
          "internalType": "bool",
          "name": "request",
          "type": "bool"
        }
      ],
      "name": "getApprovedOrRequestedMember",
      "outputs": [
        {
          "components": [
            {
              "internalType": "string",
              "name": "post",
              "type": "string"
            },
            {
              "internalType": "string",
              "name": "dept",
              "type": "string"
            },
            {
              "internalType": "string",
              "name": "name",
              "type": "string"
            },
            {
              "internalType": "address",
              "name": "userAddress",
              "type": "address"
            },
            {
              "internalType": "uint256",
              "name": "power",
              "type": "uint256"
            },
            {
              "components": [
                {
                  "internalType": "address",
                  "name": "postCreator",
                  "type": "address"
                },
                {
                  "internalType": "string",
                  "name": "postData",
                  "type": "string"
                }
              ],
              "internalType": "struct Contract.PostStructure[]",
              "name": "allPostsByUser",
              "type": "tuple[]"
            }
          ],
          "internalType": "struct Contract.MemberStruct[]",
          "name": "",
          "type": "tuple[]"
        }
      ],
      "stateMutability": "view",
      "type": "function"
    },
    {
      "inputs": [
        {
          "internalType": "address",
          "name": "_userAddress",
          "type": "address"
        }
      ],
      "name": "getPostsByUser",
      "outputs": [
        {
          "components": [
            {
              "internalType": "address",
              "name": "postCreator",
              "type": "address"
            },
            {
              "internalType": "string",
              "name": "postData",
              "type": "string"
            }
          ],
          "internalType": "struct Contract.PostStructure[]",
          "name": "",
          "type": "tuple[]"
        }
      ],
      "stateMutability": "view",
      "type": "function"
    },
    {
      "inputs": [
        {
          "internalType": "address",
          "name": "userAddress",
          "type": "address"
        }
      ],
      "name": "login",
      "outputs": [
        {
          "internalType": "bool",
          "name": "",
          "type": "bool"
        }
      ],
      "stateMutability": "view",
      "type": "function"
    },
    {
      "inputs": [],
      "name": "recieve",
      "outputs": [],
      "stateMutability": "payable",
      "type": "function"
    }
  ],
  "devdoc": {
    "kind": "dev",
    "methods": {},
    "version": 1
  },
  "evm": {
    "assembly": "    /* \"Contract.sol\":64:9153  contract Contract {... */\n  mstore(0x40, 0x80)\n    /* \"Contract.sol\":1530:1531  0 */\n  0x00\n    /* \"Contract.sol\":1507:1531  uint256 requestIndex = 0 */\n  0x03\n  sstore\n    /* \"Contract.sol\":1560:1561  0 */\n  0x00\n    /* \"Contract.sol\":1538:1561  uint256 memberIndex = 0 */\n  0x04\n  sstore\n    /* \"Contract.sol\":64:9153  contract Contract {... */\n  callvalue\n  dup1\n  iszero\n  tag_1\n  jumpi\n  0x00\n  dup1\n  revert\ntag_1:\n  pop\n  dataSize(sub_0)\n  dup1\n  dataOffset(sub_0)\n  0x00\n  codecopy\n  0x00\n  return\nstop\n\nsub_0: assembly {\n        /* \"Contract.sol\":64:9153  contract Contract {... */\n      mstore(0x40, 0x80)\n      jumpi(tag_1, lt(calldatasize, 0x04))\n      shr(0xe0, calldataload(0x00))\n      dup1\n      0xa9e10bf2\n      gt\n      tag_11\n      jumpi\n      dup1\n      0xa9e10bf2\n      eq\n      tag_6\n      jumpi\n      dup1\n      0xbafa08c1\n      eq\n      tag_7\n      jumpi\n      dup1\n      0xe070dd12\n      eq\n      tag_8\n      jumpi\n      dup1\n      0xe473f6cd\n      eq\n      tag_9\n      jumpi\n      dup1\n      0xff869240\n      eq\n      tag_10\n      jumpi\n      jump(tag_1)\n    tag_11:\n      dup1\n      0x28538949\n      eq\n      tag_2\n      jumpi\n      dup1\n      0x30561100\n      eq\n      tag_3\n      jumpi\n      dup1\n      0x35a6861a\n      eq\n      tag_4\n      jumpi\n      dup1\n      0x4cd6f25e\n      eq\n      tag_5\n      jumpi\n    tag_1:\n      0x00\n      dup1\n      revert\n        /* \"Contract.sol\":1080:1278  function getPostsByUser(address _userAddress)... */\n    tag_2:\n      callvalue\n      dup1\n      iszero\n      tag_12\n      jumpi\n      0x00\n      dup1\n      revert\n    tag_12:\n      pop\n      tag_13\n      0x04\n      dup1\n      calldatasize\n      sub\n      dup2\n      add\n      swap1\n      tag_14\n      swap2\n      swap1\n      tag_15\n      jump\t// in\n    tag_14:\n      tag_16\n      jump\t// in\n    tag_13:\n      mload(0x40)\n      tag_17\n      swap2\n      swap1\n      tag_18\n      jump\t// in\n    tag_17:\n      mload(0x40)\n      dup1\n      swap2\n      sub\n      swap1\n      return\n        /* \"Contract.sol\":1326:1434  function getAllPosts() public view returns (PostStructure[] memory) {... */\n    tag_3:\n      callvalue\n      dup1\n      iszero\n      tag_19\n      jumpi\n      0x00\n      dup1\n      revert\n    tag_19:\n      pop\n      tag_20\n      tag_21\n      jump\t// in\n    tag_20:\n      mload(0x40)\n      tag_22\n      swap2\n      swap1\n      tag_18\n      jump\t// in\n    tag_22:\n      mload(0x40)\n      dup1\n      swap2\n      sub\n      swap1\n      return\n        /* \"Contract.sol\":6539:6743  function login(address userAddress) public view returns (bool) {... */\n    tag_4:\n      callvalue\n      dup1\n      iszero\n      tag_23\n      jumpi\n      0x00\n      dup1\n      revert\n    tag_23:\n      pop\n      tag_24\n      0x04\n      dup1\n      calldatasize\n      sub\n      dup2\n      add\n      swap1\n      tag_25\n      swap2\n      swap1\n      tag_15\n      jump\t// in\n    tag_25:\n      tag_26\n      jump\t// in\n    tag_24:\n      mload(0x40)\n      tag_27\n      swap2\n      swap1\n      tag_28\n      jump\t// in\n    tag_27:\n      mload(0x40)\n      dup1\n      swap2\n      sub\n      swap1\n      return\n        /* \"Contract.sol\":2671:4910  function addOrRequestMember(... */\n    tag_5:\n      callvalue\n      dup1\n      iszero\n      tag_29\n      jumpi\n      0x00\n      dup1\n      revert\n    tag_29:\n      pop\n      tag_30\n      0x04\n      dup1\n      calldatasize\n      sub\n      dup2\n      add\n      swap1\n      tag_31\n      swap2\n      swap1\n      tag_32\n      jump\t// in\n    tag_31:\n      tag_33\n      jump\t// in\n    tag_30:\n      stop\n        /* \"Contract.sol\":89:127  function recieve() external payable {} */\n    tag_6:\n      tag_34\n      tag_35\n      jump\t// in\n    tag_34:\n      stop\n        /* \"Contract.sol\":5030:5366  function findMember(address _userAddress, bool requestedMember)... */\n    tag_7:\n      callvalue\n      dup1\n      iszero\n      tag_36\n      jumpi\n      0x00\n      dup1\n      revert\n    tag_36:\n      pop\n      tag_37\n      0x04\n      dup1\n      calldatasize\n      sub\n      dup2\n      add\n      swap1\n      tag_38\n      swap2\n      swap1\n      tag_39\n      jump\t// in\n    tag_38:\n      tag_40\n      jump\t// in\n    tag_37:\n      mload(0x40)\n      tag_41\n      swap2\n      swap1\n      tag_42\n      jump\t// in\n    tag_41:\n      mload(0x40)\n      dup1\n      swap2\n      sub\n      swap1\n      return\n        /* \"Contract.sol\":5411:6412  function approoveRequest(address _userAddress, address approvingUserAddress)... */\n    tag_8:\n      callvalue\n      dup1\n      iszero\n      tag_43\n      jumpi\n      0x00\n      dup1\n      revert\n    tag_43:\n      pop\n      tag_44\n      0x04\n      dup1\n      calldatasize\n      sub\n      dup2\n      add\n      swap1\n      tag_45\n      swap2\n      swap1\n      tag_46\n      jump\t// in\n    tag_45:\n      tag_47\n      jump\t// in\n    tag_44:\n      stop\n        /* \"Contract.sol\":2196:2474  function getApprovedOrRequestedMember(bool request)... */\n    tag_9:\n      callvalue\n      dup1\n      iszero\n      tag_48\n      jumpi\n      0x00\n      dup1\n      revert\n    tag_48:\n      pop\n      tag_49\n      0x04\n      dup1\n      calldatasize\n      sub\n      dup2\n      add\n      swap1\n      tag_50\n      swap2\n      swap1\n      tag_51\n      jump\t// in\n    tag_50:\n      tag_52\n      jump\t// in\n    tag_49:\n      mload(0x40)\n      tag_53\n      swap2\n      swap1\n      tag_54\n      jump\t// in\n    tag_53:\n      mload(0x40)\n      dup1\n      swap2\n      sub\n      swap1\n      return\n        /* \"Contract.sol\":715:1019  function addPost(address _postCreator, string memory _postData) public {... */\n    tag_10:\n      callvalue\n      dup1\n      iszero\n      tag_55\n      jumpi\n      0x00\n      dup1\n      revert\n    tag_55:\n      pop\n      tag_56\n      0x04\n      dup1\n      calldatasize\n      sub\n      dup2\n      add\n      swap1\n      tag_57\n      swap2\n      swap1\n      tag_58\n      jump\t// in\n    tag_57:\n      tag_59\n      jump\t// in\n    tag_56:\n      stop\n        /* \"Contract.sol\":1080:1278  function getPostsByUser(address _userAddress)... */\n    tag_16:\n        /* \"Contract.sol\":1174:1196  PostStructure[] memory */\n      0x60\n        /* \"Contract.sol\":1221:1241  getMemberWithAddress */\n      0x07\n        /* \"Contract.sol\":1221:1255  getMemberWithAddress[_userAddress] */\n      0x00\n        /* \"Contract.sol\":1242:1254  _userAddress */\n      dup4\n        /* \"Contract.sol\":1221:1255  getMemberWithAddress[_userAddress] */\n      0xffffffffffffffffffffffffffffffffffffffff\n      and\n      0xffffffffffffffffffffffffffffffffffffffff\n      and\n      dup2\n      mstore\n      0x20\n      add\n      swap1\n      dup2\n      mstore\n      0x20\n      add\n      0x00\n      keccak256\n        /* \"Contract.sol\":1221:1270  getMemberWithAddress[_userAddress].allPostsByUser */\n      0x05\n      add\n        /* \"Contract.sol\":1214:1270  return getMemberWithAddress[_userAddress].allPostsByUser */\n      dup1\n      sload\n      dup1\n      0x20\n      mul\n      0x20\n      add\n      mload(0x40)\n      swap1\n      dup2\n      add\n      0x40\n      mstore\n      dup1\n      swap3\n      swap2\n      swap1\n      dup2\n      dup2\n      mstore\n      0x20\n      add\n      0x00\n      swap1\n    tag_61:\n      dup3\n      dup3\n      lt\n      iszero\n      tag_62\n      jumpi\n      dup4\n      dup3\n      swap1\n      0x00\n      mstore\n      keccak256(0x00, 0x20)\n      swap1\n      0x02\n      mul\n      add\n      mload(0x40)\n      dup1\n      0x40\n      add\n      0x40\n      mstore\n      swap1\n      dup2\n      0x00\n      dup3\n      add\n      0x00\n      swap1\n      sload\n      swap1\n      0x0100\n      exp\n      swap1\n      div\n      0xffffffffffffffffffffffffffffffffffffffff\n      and\n      0xffffffffffffffffffffffffffffffffffffffff\n      and\n      0xffffffffffffffffffffffffffffffffffffffff\n      and\n      dup2\n      mstore\n      0x20\n      add\n      0x01\n      dup3\n      add\n      dup1\n      sload\n      tag_64\n      swap1\n      tag_65\n      jump\t// in\n    tag_64:\n      dup1\n      0x1f\n      add\n      0x20\n      dup1\n      swap2\n      div\n      mul\n      0x20\n      add\n      mload(0x40)\n      swap1\n      dup2\n      add\n      0x40\n      mstore\n      dup1\n      swap3\n      swap2\n      swap1\n      dup2\n      dup2\n      mstore\n      0x20\n      add\n      dup3\n      dup1\n      sload\n      tag_66\n      swap1\n      tag_65\n      jump\t// in\n    tag_66:\n      dup1\n      iszero\n      tag_67\n      jumpi\n      dup1\n      0x1f\n      lt\n      tag_68\n      jumpi\n      0x0100\n      dup1\n      dup4\n      sload\n      div\n      mul\n      dup4\n      mstore\n      swap2\n      0x20\n      add\n      swap2\n      jump(tag_67)\n    tag_68:\n      dup3\n      add\n      swap2\n      swap1\n      0x00\n      mstore\n      keccak256(0x00, 0x20)\n      swap1\n    tag_69:\n      dup2\n      sload\n      dup2\n      mstore\n      swap1\n      0x01\n      add\n      swap1\n      0x20\n      add\n      dup1\n      dup4\n      gt\n      tag_69\n      jumpi\n      dup3\n      swap1\n      sub\n      0x1f\n      and\n      dup3\n      add\n      swap2\n    tag_67:\n      pop\n      pop\n      pop\n      pop\n      pop\n      dup2\n      mstore\n      pop\n      pop\n      dup2\n      mstore\n      0x20\n      add\n      swap1\n      0x01\n      add\n      swap1\n      jump(tag_61)\n    tag_62:\n      pop\n      pop\n      pop\n      pop\n      swap1\n      pop\n        /* \"Contract.sol\":1080:1278  function getPostsByUser(address _userAddress)... */\n      swap2\n      swap1\n      pop\n      jump\t// out\n        /* \"Contract.sol\":1326:1434  function getAllPosts() public view returns (PostStructure[] memory) {... */\n    tag_21:\n        /* \"Contract.sol\":1370:1392  PostStructure[] memory */\n      0x60\n        /* \"Contract.sol\":1412:1426  postedByAnyone */\n      0x02\n        /* \"Contract.sol\":1405:1426  return postedByAnyone */\n      dup1\n      sload\n      dup1\n      0x20\n      mul\n      0x20\n      add\n      mload(0x40)\n      swap1\n      dup2\n      add\n      0x40\n      mstore\n      dup1\n      swap3\n      swap2\n      swap1\n      dup2\n      dup2\n      mstore\n      0x20\n      add\n      0x00\n      swap1\n    tag_71:\n      dup3\n      dup3\n      lt\n      iszero\n      tag_72\n      jumpi\n      dup4\n      dup3\n      swap1\n      0x00\n      mstore\n      keccak256(0x00, 0x20)\n      swap1\n      0x02\n      mul\n      add\n      mload(0x40)\n      dup1\n      0x40\n      add\n      0x40\n      mstore\n      swap1\n      dup2\n      0x00\n      dup3\n      add\n      0x00\n      swap1\n      sload\n      swap1\n      0x0100\n      exp\n      swap1\n      div\n      0xffffffffffffffffffffffffffffffffffffffff\n      and\n      0xffffffffffffffffffffffffffffffffffffffff\n      and\n      0xffffffffffffffffffffffffffffffffffffffff\n      and\n      dup2\n      mstore\n      0x20\n      add\n      0x01\n      dup3\n      add\n      dup1\n      sload\n      tag_74\n      swap1\n      tag_65\n      jump\t// in\n    tag_74:\n      dup1\n      0x1f\n      add\n      0x20\n      dup1\n      swap2\n      div\n      mul\n      0x20\n      add\n      mload(0x40)\n      swap1\n      dup2\n      add\n      0x40\n      mstore\n      dup1\n      swap3\n      swap2\n      swap1\n      dup2\n      dup2\n      mstore\n      0x20\n      add\n      dup3\n      dup1\n      sload\n      tag_75\n      swap1\n      tag_65\n      jump\t// in\n    tag_75:\n      dup1\n      iszero\n      tag_76\n      jumpi\n      dup1\n      0x1f\n      lt\n      tag_77\n      jumpi\n      0x0100\n      dup1\n      dup4\n      sload\n      div\n      mul\n      dup4\n      mstore\n      swap2\n      0x20\n      add\n      swap2\n      jump(tag_76)\n    tag_77:\n      dup3\n      add\n      swap2\n      swap1\n      0x00\n      mstore\n      keccak256(0x00, 0x20)\n      swap1\n    tag_78:\n      dup2\n      sload\n      dup2\n      mstore\n      swap1\n      0x01\n      add\n      swap1\n      0x20\n      add\n      dup1\n      dup4\n      gt\n      tag_78\n      jumpi\n      dup3\n      swap1\n      sub\n      0x1f\n      and\n      dup3\n      add\n      swap2\n    tag_76:\n      pop\n      pop\n      pop\n      pop\n      pop\n      dup2\n      mstore\n      pop\n      pop\n      dup2\n      mstore\n      0x20\n      add\n      swap1\n      0x01\n      add\n      swap1\n      jump(tag_71)\n    tag_72:\n      pop\n      pop\n      pop\n      pop\n      swap1\n      pop\n        /* \"Contract.sol\":1326:1434  function getAllPosts() public view returns (PostStructure[] memory) {... */\n      swap1\n      jump\t// out\n        /* \"Contract.sol\":6539:6743  function login(address userAddress) public view returns (bool) {... */\n    tag_26:\n        /* \"Contract.sol\":6596:6600  bool */\n      0x00\n        /* \"Contract.sol\":6646:6650  true */\n      0x01\n        /* \"Contract.sol\":6618:6650  memberExist[userAddress] == true */\n      iszero\n      iszero\n        /* \"Contract.sol\":6618:6629  memberExist */\n      0x09\n        /* \"Contract.sol\":6618:6642  memberExist[userAddress] */\n      0x00\n        /* \"Contract.sol\":6630:6641  userAddress */\n      dup5\n        /* \"Contract.sol\":6618:6642  memberExist[userAddress] */\n      0xffffffffffffffffffffffffffffffffffffffff\n      and\n      0xffffffffffffffffffffffffffffffffffffffff\n      and\n      dup2\n      mstore\n      0x20\n      add\n      swap1\n      dup2\n      mstore\n      0x20\n      add\n      0x00\n      keccak256\n      0x00\n      swap1\n      sload\n      swap1\n      0x0100\n      exp\n      swap1\n      div\n      0xff\n      and\n        /* \"Contract.sol\":6618:6650  memberExist[userAddress] == true */\n      iszero\n      iszero\n      sub\n        /* \"Contract.sol\":6613:6736  if ((memberExist[userAddress] == true)) {... */\n      tag_80\n      jumpi\n        /* \"Contract.sol\":6675:6679  true */\n      0x01\n        /* \"Contract.sol\":6668:6679  return true */\n      swap1\n      pop\n      jump(tag_79)\n        /* \"Contract.sol\":6613:6736  if ((memberExist[userAddress] == true)) {... */\n    tag_80:\n        /* \"Contract.sol\":6719:6724  false */\n      0x00\n        /* \"Contract.sol\":6712:6724  return false */\n      swap1\n      pop\n        /* \"Contract.sol\":6539:6743  function login(address userAddress) public view returns (bool) {... */\n    tag_79:\n      swap2\n      swap1\n      pop\n      jump\t// out\n        /* \"Contract.sol\":2671:4910  function addOrRequestMember(... */\n    tag_33:\n        /* \"Contract.sol\":2953:2958  _post */\n      dup5\n        /* \"Contract.sol\":2923:2945  instanceOfMemberStruct */\n      0x0d\n        /* \"Contract.sol\":2923:2950  instanceOfMemberStruct.post */\n      0x00\n      add\n        /* \"Contract.sol\":2923:2958  instanceOfMemberStruct.post = _post */\n      swap1\n      dup2\n      tag_83\n      swap2\n      swap1\n      tag_84\n      jump\t// in\n    tag_83:\n      pop\n        /* \"Contract.sol\":2999:3004  _dept */\n      dup4\n        /* \"Contract.sol\":2969:2991  instanceOfMemberStruct */\n      0x0d\n        /* \"Contract.sol\":2969:2996  instanceOfMemberStruct.dept */\n      0x01\n      add\n        /* \"Contract.sol\":2969:3004  instanceOfMemberStruct.dept = _dept */\n      swap1\n      dup2\n      tag_85\n      swap2\n      swap1\n      tag_84\n      jump\t// in\n    tag_85:\n      pop\n        /* \"Contract.sol\":3045:3050  _name */\n      dup3\n        /* \"Contract.sol\":3015:3037  instanceOfMemberStruct */\n      0x0d\n        /* \"Contract.sol\":3015:3042  instanceOfMemberStruct.name */\n      0x02\n      add\n        /* \"Contract.sol\":3015:3050  instanceOfMemberStruct.name = _name */\n      swap1\n      dup2\n      tag_86\n      swap2\n      swap1\n      tag_84\n      jump\t// in\n    tag_86:\n      pop\n        /* \"Contract.sol\":3098:3110  _userAddress */\n      dup2\n        /* \"Contract.sol\":3061:3083  instanceOfMemberStruct */\n      0x0d\n        /* \"Contract.sol\":3061:3095  instanceOfMemberStruct.userAddress */\n      0x03\n      add\n      0x00\n        /* \"Contract.sol\":3061:3110  instanceOfMemberStruct.userAddress = _userAddress */\n      0x0100\n      exp\n      dup2\n      sload\n      dup2\n      0xffffffffffffffffffffffffffffffffffffffff\n      mul\n      not\n      and\n      swap1\n      dup4\n      0xffffffffffffffffffffffffffffffffffffffff\n      and\n      mul\n      or\n      swap1\n      sstore\n      pop\n        /* \"Contract.sol\":3202:3226  abi.encodePacked(\"DEAN\") */\n      add(0x20, mload(0x40))\n      tag_87\n      swap1\n      tag_88\n      jump\t// in\n    tag_87:\n      mload(0x40)\n      0x20\n      dup2\n      dup4\n      sub\n      sub\n      dup2\n      mstore\n      swap1\n      0x40\n      mstore\n        /* \"Contract.sol\":3192:3227  keccak256(abi.encodePacked(\"DEAN\")) */\n      dup1\n      mload\n      swap1\n      0x20\n      add\n      keccak256\n        /* \"Contract.sol\":3168:3173  _post */\n      dup6\n        /* \"Contract.sol\":3151:3174  abi.encodePacked(_post) */\n      add(0x20, mload(0x40))\n      tag_89\n      swap2\n      swap1\n      tag_90\n      jump\t// in\n    tag_89:\n      mload(0x40)\n      0x20\n      dup2\n      dup4\n      sub\n      sub\n      dup2\n      mstore\n      swap1\n      0x40\n      mstore\n        /* \"Contract.sol\":3141:3175  keccak256(abi.encodePacked(_post)) */\n      dup1\n      mload\n      swap1\n      0x20\n      add\n      keccak256\n        /* \"Contract.sol\":3141:3227  keccak256(abi.encodePacked(_post)) ==... */\n      sub\n        /* \"Contract.sol\":3123:3543  if (... */\n      tag_91\n      jumpi\n        /* \"Contract.sol\":3285:3286  1 */\n      0x01\n        /* \"Contract.sol\":3254:3276  instanceOfMemberStruct */\n      0x0d\n        /* \"Contract.sol\":3254:3282  instanceOfMemberStruct.power */\n      0x04\n      add\n        /* \"Contract.sol\":3254:3286  instanceOfMemberStruct.power = 1 */\n      dup2\n      swap1\n      sstore\n      pop\n        /* \"Contract.sol\":3123:3543  if (... */\n      jump(tag_92)\n    tag_91:\n        /* \"Contract.sol\":3383:3406  abi.encodePacked(\"HOD\") */\n      add(0x20, mload(0x40))\n      tag_93\n      swap1\n      tag_94\n      jump\t// in\n    tag_93:\n      mload(0x40)\n      0x20\n      dup2\n      dup4\n      sub\n      sub\n      dup2\n      mstore\n      swap1\n      0x40\n      mstore\n        /* \"Contract.sol\":3373:3407  keccak256(abi.encodePacked(\"HOD\")) */\n      dup1\n      mload\n      swap1\n      0x20\n      add\n      keccak256\n        /* \"Contract.sol\":3349:3354  _post */\n      dup6\n        /* \"Contract.sol\":3332:3355  abi.encodePacked(_post) */\n      add(0x20, mload(0x40))\n      tag_95\n      swap2\n      swap1\n      tag_90\n      jump\t// in\n    tag_95:\n      mload(0x40)\n      0x20\n      dup2\n      dup4\n      sub\n      sub\n      dup2\n      mstore\n      swap1\n      0x40\n      mstore\n        /* \"Contract.sol\":3322:3356  keccak256(abi.encodePacked(_post)) */\n      dup1\n      mload\n      swap1\n      0x20\n      add\n      keccak256\n        /* \"Contract.sol\":3322:3407  keccak256(abi.encodePacked(_post)) ==... */\n      sub\n        /* \"Contract.sol\":3304:3543  if (... */\n      tag_96\n      jumpi\n        /* \"Contract.sol\":3465:3466  2 */\n      0x02\n        /* \"Contract.sol\":3434:3456  instanceOfMemberStruct */\n      0x0d\n        /* \"Contract.sol\":3434:3462  instanceOfMemberStruct.power */\n      0x04\n      add\n        /* \"Contract.sol\":3434:3466  instanceOfMemberStruct.power = 2 */\n      dup2\n      swap1\n      sstore\n      pop\n        /* \"Contract.sol\":3304:3543  if (... */\n      jump(tag_97)\n    tag_96:\n        /* \"Contract.sol\":3530:3531  3 */\n      0x03\n        /* \"Contract.sol\":3499:3521  instanceOfMemberStruct */\n      0x0d\n        /* \"Contract.sol\":3499:3527  instanceOfMemberStruct.power */\n      0x04\n      add\n        /* \"Contract.sol\":3499:3531  instanceOfMemberStruct.power = 3 */\n      dup2\n      swap1\n      sstore\n      pop\n        /* \"Contract.sol\":3304:3543  if (... */\n    tag_97:\n        /* \"Contract.sol\":3123:3543  if (... */\n    tag_92:\n        /* \"Contract.sol\":3584:3588  true */\n      0x01\n        /* \"Contract.sol\":3573:3588  request == true */\n      iszero\n      iszero\n        /* \"Contract.sol\":3573:3580  request */\n      dup2\n        /* \"Contract.sol\":3573:3588  request == true */\n      iszero\n      iszero\n      eq\n        /* \"Contract.sol\":3573:3691  request == true &&... */\n      dup1\n      iszero\n      tag_98\n      jumpi\n      pop\n        /* \"Contract.sol\":3666:3690  abi.encodePacked(\"DEAN\") */\n      add(0x20, mload(0x40))\n      tag_99\n      swap1\n      tag_88\n      jump\t// in\n    tag_99:\n      mload(0x40)\n      0x20\n      dup2\n      dup4\n      sub\n      sub\n      dup2\n      mstore\n      swap1\n      0x40\n      mstore\n        /* \"Contract.sol\":3656:3691  keccak256(abi.encodePacked(\"DEAN\")) */\n      dup1\n      mload\n      swap1\n      0x20\n      add\n      keccak256\n        /* \"Contract.sol\":3632:3637  _post */\n      dup6\n        /* \"Contract.sol\":3615:3638  abi.encodePacked(_post) */\n      add(0x20, mload(0x40))\n      tag_100\n      swap2\n      swap1\n      tag_90\n      jump\t// in\n    tag_100:\n      mload(0x40)\n      0x20\n      dup2\n      dup4\n      sub\n      sub\n      dup2\n      mstore\n      swap1\n      0x40\n      mstore\n        /* \"Contract.sol\":3605:3639  keccak256(abi.encodePacked(_post)) */\n      dup1\n      mload\n      swap1\n      0x20\n      add\n      keccak256\n        /* \"Contract.sol\":3605:3691  keccak256(abi.encodePacked(_post)) !=... */\n      eq\n      iszero\n        /* \"Contract.sol\":3573:3691  request == true &&... */\n    tag_98:\n        /* \"Contract.sol\":3555:4903  if (... */\n      iszero\n      tag_101\n      jumpi\n        /* \"Contract.sol\":3800:3805  false */\n      0x00\n        /* \"Contract.sol\":3767:3805  memberRequested[_userAddress] == false */\n      iszero\n      iszero\n        /* \"Contract.sol\":3767:3782  memberRequested */\n      0x0c\n        /* \"Contract.sol\":3767:3796  memberRequested[_userAddress] */\n      0x00\n        /* \"Contract.sol\":3783:3795  _userAddress */\n      dup5\n        /* \"Contract.sol\":3767:3796  memberRequested[_userAddress] */\n      0xffffffffffffffffffffffffffffffffffffffff\n      and\n      0xffffffffffffffffffffffffffffffffffffffff\n      and\n      dup2\n      mstore\n      0x20\n      add\n      swap1\n      dup2\n      mstore\n      0x20\n      add\n      0x00\n      keccak256\n      0x00\n      swap1\n      sload\n      swap1\n      0x0100\n      exp\n      swap1\n      div\n      0xff\n      and\n        /* \"Contract.sol\":3767:3805  memberRequested[_userAddress] == false */\n      iszero\n      iszero\n      eq\n        /* \"Contract.sol\":3759:3826  require(memberRequested[_userAddress] == false, \"Member Requested\") */\n      tag_102\n      jumpi\n      mload(0x40)\n      0x08c379a000000000000000000000000000000000000000000000000000000000\n      dup2\n      mstore\n      0x04\n      add\n      tag_103\n      swap1\n      tag_104\n      jump\t// in\n    tag_103:\n      mload(0x40)\n      dup1\n      swap2\n      sub\n      swap1\n      revert\n    tag_102:\n        /* \"Contract.sol\":3878:3883  false */\n      0x00\n        /* \"Contract.sol\":3849:3883  memberExist[_userAddress] == false */\n      iszero\n      iszero\n        /* \"Contract.sol\":3849:3860  memberExist */\n      0x09\n        /* \"Contract.sol\":3849:3874  memberExist[_userAddress] */\n      0x00\n        /* \"Contract.sol\":3861:3873  _userAddress */\n      dup5\n        /* \"Contract.sol\":3849:3874  memberExist[_userAddress] */\n      0xffffffffffffffffffffffffffffffffffffffff\n      and\n      0xffffffffffffffffffffffffffffffffffffffff\n      and\n      dup2\n      mstore\n      0x20\n      add\n      swap1\n      dup2\n      mstore\n      0x20\n      add\n      0x00\n      keccak256\n      0x00\n      swap1\n      sload\n      swap1\n      0x0100\n      exp\n      swap1\n      div\n      0xff\n      and\n        /* \"Contract.sol\":3849:3883  memberExist[_userAddress] == false */\n      iszero\n      iszero\n      eq\n        /* \"Contract.sol\":3841:3900  require(memberExist[_userAddress] == false, \"Member Exist\") */\n      tag_105\n      jumpi\n      mload(0x40)\n      0x08c379a000000000000000000000000000000000000000000000000000000000\n      dup2\n      mstore\n      0x04\n      add\n      tag_106\n      swap1\n      tag_107\n      jump\t// in\n    tag_106:\n      mload(0x40)\n      dup1\n      swap2\n      sub\n      swap1\n      revert\n    tag_105:\n        /* \"Contract.sol\":3979:4002  arrayOfRequestedMembers */\n      0x0b\n        /* \"Contract.sol\":4008:4030  instanceOfMemberStruct */\n      0x0d\n        /* \"Contract.sol\":3979:4031  arrayOfRequestedMembers.push(instanceOfMemberStruct) */\n      swap1\n      dup1\n      0x01\n      dup2\n      sload\n      add\n      dup1\n      dup3\n      sstore\n      dup1\n      swap2\n      pop\n      pop\n      0x01\n      swap1\n      sub\n      swap1\n      0x00\n      mstore\n      keccak256(0x00, 0x20)\n      swap1\n      0x06\n      mul\n      add\n      0x00\n      swap1\n      swap2\n      swap1\n      swap2\n      swap1\n      swap2\n      pop\n      0x00\n      dup3\n      add\n      dup2\n      0x00\n      add\n      swap1\n      dup2\n      tag_109\n      swap2\n      swap1\n      tag_110\n      jump\t// in\n    tag_109:\n      pop\n      0x01\n      dup3\n      add\n      dup2\n      0x01\n      add\n      swap1\n      dup2\n      tag_111\n      swap2\n      swap1\n      tag_110\n      jump\t// in\n    tag_111:\n      pop\n      0x02\n      dup3\n      add\n      dup2\n      0x02\n      add\n      swap1\n      dup2\n      tag_112\n      swap2\n      swap1\n      tag_110\n      jump\t// in\n    tag_112:\n      pop\n      0x03\n      dup3\n      add\n      0x00\n      swap1\n      sload\n      swap1\n      0x0100\n      exp\n      swap1\n      div\n      0xffffffffffffffffffffffffffffffffffffffff\n      and\n      dup2\n      0x03\n      add\n      exp(0x0100, 0x00)\n      dup2\n      sload\n      dup2\n      0xffffffffffffffffffffffffffffffffffffffff\n      mul\n      not\n      and\n      swap1\n      dup4\n      0xffffffffffffffffffffffffffffffffffffffff\n      and\n      mul\n      or\n      swap1\n      sstore\n      pop\n      0x04\n      dup3\n      add\n      sload\n      dup2\n      0x04\n      add\n      sstore\n      0x05\n      dup3\n      add\n      dup2\n      0x05\n      add\n      swap1\n      dup1\n      sload\n      tag_113\n      swap3\n      swap2\n      swap1\n      tag_114\n      jump\t// in\n    tag_113:\n      pop\n      pop\n      pop\n        /* \"Contract.sol\":4124:4146  instanceOfMemberStruct */\n      0x0d\n        /* \"Contract.sol\":4046:4075  getRequestedMemberWithAddress */\n      0x0a\n        /* \"Contract.sol\":4046:4121  getRequestedMemberWithAddress[... */\n      0x00\n        /* \"Contract.sol\":4094:4106  _userAddress */\n      dup5\n        /* \"Contract.sol\":4046:4121  getRequestedMemberWithAddress[... */\n      0xffffffffffffffffffffffffffffffffffffffff\n      and\n      0xffffffffffffffffffffffffffffffffffffffff\n      and\n      dup2\n      mstore\n      0x20\n      add\n      swap1\n      dup2\n      mstore\n      0x20\n      add\n      0x00\n      keccak256\n        /* \"Contract.sol\":4046:4146  getRequestedMemberWithAddress[... */\n      0x00\n      dup3\n      add\n      dup2\n      0x00\n      add\n      swap1\n      dup2\n      tag_115\n      swap2\n      swap1\n      tag_110\n      jump\t// in\n    tag_115:\n      pop\n      0x01\n      dup3\n      add\n      dup2\n      0x01\n      add\n      swap1\n      dup2\n      tag_116\n      swap2\n      swap1\n      tag_110\n      jump\t// in\n    tag_116:\n      pop\n      0x02\n      dup3\n      add\n      dup2\n      0x02\n      add\n      swap1\n      dup2\n      tag_117\n      swap2\n      swap1\n      tag_110\n      jump\t// in\n    tag_117:\n      pop\n      0x03\n      dup3\n      add\n      0x00\n      swap1\n      sload\n      swap1\n      0x0100\n      exp\n      swap1\n      div\n      0xffffffffffffffffffffffffffffffffffffffff\n      and\n      dup2\n      0x03\n      add\n      exp(0x0100, 0x00)\n      dup2\n      sload\n      dup2\n      0xffffffffffffffffffffffffffffffffffffffff\n      mul\n      not\n      and\n      swap1\n      dup4\n      0xffffffffffffffffffffffffffffffffffffffff\n      and\n      mul\n      or\n      swap1\n      sstore\n      pop\n      0x04\n      dup3\n      add\n      sload\n      dup2\n      0x04\n      add\n      sstore\n      0x05\n      dup3\n      add\n      dup2\n      0x05\n      add\n      swap1\n      dup1\n      sload\n      tag_118\n      swap3\n      swap2\n      swap1\n      tag_114\n      jump\t// in\n    tag_118:\n      pop\n      swap1\n      pop\n      pop\n        /* \"Contract.sol\":4193:4197  true */\n      0x01\n        /* \"Contract.sol\":4161:4176  memberRequested */\n      0x0c\n        /* \"Contract.sol\":4161:4190  memberRequested[_userAddress] */\n      0x00\n        /* \"Contract.sol\":4177:4189  _userAddress */\n      dup5\n        /* \"Contract.sol\":4161:4190  memberRequested[_userAddress] */\n      0xffffffffffffffffffffffffffffffffffffffff\n      and\n      0xffffffffffffffffffffffffffffffffffffffff\n      and\n      dup2\n      mstore\n      0x20\n      add\n      swap1\n      dup2\n      mstore\n      0x20\n      add\n      0x00\n      keccak256\n      0x00\n        /* \"Contract.sol\":4161:4197  memberRequested[_userAddress] = true */\n      0x0100\n      exp\n      dup2\n      sload\n      dup2\n      0xff\n      mul\n      not\n      and\n      swap1\n      dup4\n      iszero\n      iszero\n      mul\n      or\n      swap1\n      sstore\n      pop\n        /* \"Contract.sol\":3555:4903  if (... */\n      jump(tag_119)\n    tag_101:\n        /* \"Contract.sol\":4317:4341  abi.encodePacked(\"DEAN\") */\n      add(0x20, mload(0x40))\n      tag_120\n      swap1\n      tag_88\n      jump\t// in\n    tag_120:\n      mload(0x40)\n      0x20\n      dup2\n      dup4\n      sub\n      sub\n      dup2\n      mstore\n      swap1\n      0x40\n      mstore\n        /* \"Contract.sol\":4307:4342  keccak256(abi.encodePacked(\"DEAN\")) */\n      dup1\n      mload\n      swap1\n      0x20\n      add\n      keccak256\n        /* \"Contract.sol\":4279:4284  _post */\n      dup6\n        /* \"Contract.sol\":4262:4285  abi.encodePacked(_post) */\n      add(0x20, mload(0x40))\n      tag_121\n      swap2\n      swap1\n      tag_90\n      jump\t// in\n    tag_121:\n      mload(0x40)\n      0x20\n      dup2\n      dup4\n      sub\n      sub\n      dup2\n      mstore\n      swap1\n      0x40\n      mstore\n        /* \"Contract.sol\":4252:4286  keccak256(abi.encodePacked(_post)) */\n      dup1\n      mload\n      swap1\n      0x20\n      add\n      keccak256\n        /* \"Contract.sol\":4252:4342  keccak256(abi.encodePacked(_post)) !=... */\n      eq\n        /* \"Contract.sol\":4230:4574  if (... */\n      tag_122\n      jumpi\n        /* \"Contract.sol\":4485:4489  true */\n      0x01\n        /* \"Contract.sol\":4452:4489  memberRequested[_userAddress] == true */\n      iszero\n      iszero\n        /* \"Contract.sol\":4452:4467  memberRequested */\n      0x0c\n        /* \"Contract.sol\":4452:4481  memberRequested[_userAddress] */\n      0x00\n        /* \"Contract.sol\":4468:4480  _userAddress */\n      dup5\n        /* \"Contract.sol\":4452:4481  memberRequested[_userAddress] */\n      0xffffffffffffffffffffffffffffffffffffffff\n      and\n      0xffffffffffffffffffffffffffffffffffffffff\n      and\n      dup2\n      mstore\n      0x20\n      add\n      swap1\n      dup2\n      mstore\n      0x20\n      add\n      0x00\n      keccak256\n      0x00\n      swap1\n      sload\n      swap1\n      0x0100\n      exp\n      swap1\n      div\n      0xff\n      and\n        /* \"Contract.sol\":4452:4489  memberRequested[_userAddress] == true */\n      iszero\n      iszero\n      eq\n        /* \"Contract.sol\":4422:4558  require(... */\n      tag_123\n      jumpi\n      mload(0x40)\n      0x08c379a000000000000000000000000000000000000000000000000000000000\n      dup2\n      mstore\n      0x04\n      add\n      tag_124\n      swap1\n      tag_125\n      jump\t// in\n    tag_124:\n      mload(0x40)\n      dup1\n      swap2\n      sub\n      swap1\n      revert\n    tag_123:\n        /* \"Contract.sol\":4230:4574  if (... */\n    tag_122:\n        /* \"Contract.sol\":4627:4632  false */\n      0x00\n        /* \"Contract.sol\":4598:4632  memberExist[_userAddress] == false */\n      iszero\n      iszero\n        /* \"Contract.sol\":4598:4609  memberExist */\n      0x09\n        /* \"Contract.sol\":4598:4623  memberExist[_userAddress] */\n      0x00\n        /* \"Contract.sol\":4610:4622  _userAddress */\n      dup5\n        /* \"Contract.sol\":4598:4623  memberExist[_userAddress] */\n      0xffffffffffffffffffffffffffffffffffffffff\n      and\n      0xffffffffffffffffffffffffffffffffffffffff\n      and\n      dup2\n      mstore\n      0x20\n      add\n      swap1\n      dup2\n      mstore\n      0x20\n      add\n      0x00\n      keccak256\n      0x00\n      swap1\n      sload\n      swap1\n      0x0100\n      exp\n      swap1\n      div\n      0xff\n      and\n        /* \"Contract.sol\":4598:4632  memberExist[_userAddress] == false */\n      iszero\n      iszero\n      eq\n        /* \"Contract.sol\":4590:4649  require(memberExist[_userAddress] == false, \"Member Exist\") */\n      tag_126\n      jumpi\n      mload(0x40)\n      0x08c379a000000000000000000000000000000000000000000000000000000000\n      dup2\n      mstore\n      0x04\n      add\n      tag_127\n      swap1\n      tag_107\n      jump\t// in\n    tag_127:\n      mload(0x40)\n      dup1\n      swap2\n      sub\n      swap1\n      revert\n    tag_126:\n        /* \"Contract.sol\":4727:4741  arrayOfMembers */\n      0x08\n        /* \"Contract.sol\":4747:4769  instanceOfMemberStruct */\n      0x0d\n        /* \"Contract.sol\":4727:4770  arrayOfMembers.push(instanceOfMemberStruct) */\n      swap1\n      dup1\n      0x01\n      dup2\n      sload\n      add\n      dup1\n      dup3\n      sstore\n      dup1\n      swap2\n      pop\n      pop\n      0x01\n      swap1\n      sub\n      swap1\n      0x00\n      mstore\n      keccak256(0x00, 0x20)\n      swap1\n      0x06\n      mul\n      add\n      0x00\n      swap1\n      swap2\n      swap1\n      swap2\n      swap1\n      swap2\n      pop\n      0x00\n      dup3\n      add\n      dup2\n      0x00\n      add\n      swap1\n      dup2\n      tag_129\n      swap2\n      swap1\n      tag_110\n      jump\t// in\n    tag_129:\n      pop\n      0x01\n      dup3\n      add\n      dup2\n      0x01\n      add\n      swap1\n      dup2\n      tag_130\n      swap2\n      swap1\n      tag_110\n      jump\t// in\n    tag_130:\n      pop\n      0x02\n      dup3\n      add\n      dup2\n      0x02\n      add\n      swap1\n      dup2\n      tag_131\n      swap2\n      swap1\n      tag_110\n      jump\t// in\n    tag_131:\n      pop\n      0x03\n      dup3\n      add\n      0x00\n      swap1\n      sload\n      swap1\n      0x0100\n      exp\n      swap1\n      div\n      0xffffffffffffffffffffffffffffffffffffffff\n      and\n      dup2\n      0x03\n      add\n      exp(0x0100, 0x00)\n      dup2\n      sload\n      dup2\n      0xffffffffffffffffffffffffffffffffffffffff\n      mul\n      not\n      and\n      swap1\n      dup4\n      0xffffffffffffffffffffffffffffffffffffffff\n      and\n      mul\n      or\n      swap1\n      sstore\n      pop\n      0x04\n      dup3\n      add\n      sload\n      dup2\n      0x04\n      add\n      sstore\n      0x05\n      dup3\n      add\n      dup2\n      0x05\n      add\n      swap1\n      dup1\n      sload\n      tag_132\n      swap3\n      swap2\n      swap1\n      tag_114\n      jump\t// in\n    tag_132:\n      pop\n      pop\n      pop\n        /* \"Contract.sol\":4822:4844  instanceOfMemberStruct */\n      0x0d\n        /* \"Contract.sol\":4785:4805  getMemberWithAddress */\n      0x07\n        /* \"Contract.sol\":4785:4819  getMemberWithAddress[_userAddress] */\n      0x00\n        /* \"Contract.sol\":4806:4818  _userAddress */\n      dup5\n        /* \"Contract.sol\":4785:4819  getMemberWithAddress[_userAddress] */\n      0xffffffffffffffffffffffffffffffffffffffff\n      and\n      0xffffffffffffffffffffffffffffffffffffffff\n      and\n      dup2\n      mstore\n      0x20\n      add\n      swap1\n      dup2\n      mstore\n      0x20\n      add\n      0x00\n      keccak256\n        /* \"Contract.sol\":4785:4844  getMemberWithAddress[_userAddress] = instanceOfMemberStruct */\n      0x00\n      dup3\n      add\n      dup2\n      0x00\n      add\n      swap1\n      dup2\n      tag_133\n      swap2\n      swap1\n      tag_110\n      jump\t// in\n    tag_133:\n      pop\n      0x01\n      dup3\n      add\n      dup2\n      0x01\n      add\n      swap1\n      dup2\n      tag_134\n      swap2\n      swap1\n      tag_110\n      jump\t// in\n    tag_134:\n      pop\n      0x02\n      dup3\n      add\n      dup2\n      0x02\n      add\n      swap1\n      dup2\n      tag_135\n      swap2\n      swap1\n      tag_110\n      jump\t// in\n    tag_135:\n      pop\n      0x03\n      dup3\n      add\n      0x00\n      swap1\n      sload\n      swap1\n      0x0100\n      exp\n      swap1\n      div\n      0xffffffffffffffffffffffffffffffffffffffff\n      and\n      dup2\n      0x03\n      add\n      exp(0x0100, 0x00)\n      dup2\n      sload\n      dup2\n      0xffffffffffffffffffffffffffffffffffffffff\n      mul\n      not\n      and\n      swap1\n      dup4\n      0xffffffffffffffffffffffffffffffffffffffff\n      and\n      mul\n      or\n      swap1\n      sstore\n      pop\n      0x04\n      dup3\n      add\n      sload\n      dup2\n      0x04\n      add\n      sstore\n      0x05\n      dup3\n      add\n      dup2\n      0x05\n      add\n      swap1\n      dup1\n      sload\n      tag_136\n      swap3\n      swap2\n      swap1\n      tag_114\n      jump\t// in\n    tag_136:\n      pop\n      swap1\n      pop\n      pop\n        /* \"Contract.sol\":4887:4891  true */\n      0x01\n        /* \"Contract.sol\":4859:4870  memberExist */\n      0x09\n        /* \"Contract.sol\":4859:4884  memberExist[_userAddress] */\n      0x00\n        /* \"Contract.sol\":4871:4883  _userAddress */\n      dup5\n        /* \"Contract.sol\":4859:4884  memberExist[_userAddress] */\n      0xffffffffffffffffffffffffffffffffffffffff\n      and\n      0xffffffffffffffffffffffffffffffffffffffff\n      and\n      dup2\n      mstore\n      0x20\n      add\n      swap1\n      dup2\n      mstore\n      0x20\n      add\n      0x00\n      keccak256\n      0x00\n        /* \"Contract.sol\":4859:4891  memberExist[_userAddress] = true */\n      0x0100\n      exp\n      dup2\n      sload\n      dup2\n      0xff\n      mul\n      not\n      and\n      swap1\n      dup4\n      iszero\n      iszero\n      mul\n      or\n      swap1\n      sstore\n      pop\n        /* \"Contract.sol\":3555:4903  if (... */\n    tag_119:\n        /* \"Contract.sol\":2671:4910  function addOrRequestMember(... */\n      pop\n      pop\n      pop\n      pop\n      pop\n      jump\t// out\n        /* \"Contract.sol\":89:127  function recieve() external payable {} */\n    tag_35:\n      jump\t// out\n        /* \"Contract.sol\":5030:5366  function findMember(address _userAddress, bool requestedMember)... */\n    tag_40:\n        /* \"Contract.sol\":5142:5161  MemberStruct memory */\n      tag_138\n      tag_139\n      jump\t// in\n    tag_138:\n        /* \"Contract.sol\":5202:5206  true */\n      0x01\n        /* \"Contract.sol\":5183:5206  requestedMember == true */\n      iszero\n      iszero\n        /* \"Contract.sol\":5183:5198  requestedMember */\n      dup3\n        /* \"Contract.sol\":5183:5206  requestedMember == true */\n      iszero\n      iszero\n      sub\n        /* \"Contract.sol\":5179:5359  if (requestedMember == true) {... */\n      tag_141\n      jumpi\n        /* \"Contract.sol\":5230:5259  getRequestedMemberWithAddress */\n      0x0a\n        /* \"Contract.sol\":5230:5273  getRequestedMemberWithAddress[_userAddress] */\n      0x00\n        /* \"Contract.sol\":5260:5272  _userAddress */\n      dup5\n        /* \"Contract.sol\":5230:5273  getRequestedMemberWithAddress[_userAddress] */\n      0xffffffffffffffffffffffffffffffffffffffff\n      and\n      0xffffffffffffffffffffffffffffffffffffffff\n      and\n      dup2\n      mstore\n      0x20\n      add\n      swap1\n      dup2\n      mstore\n      0x20\n      add\n      0x00\n      keccak256\n        /* \"Contract.sol\":5223:5273  return getRequestedMemberWithAddress[_userAddress] */\n      mload(0x40)\n      dup1\n      0xc0\n      add\n      0x40\n      mstore\n      swap1\n      dup2\n      0x00\n      dup3\n      add\n      dup1\n      sload\n      tag_142\n      swap1\n      tag_65\n      jump\t// in\n    tag_142:\n      dup1\n      0x1f\n      add\n      0x20\n      dup1\n      swap2\n      div\n      mul\n      0x20\n      add\n      mload(0x40)\n      swap1\n      dup2\n      add\n      0x40\n      mstore\n      dup1\n      swap3\n      swap2\n      swap1\n      dup2\n      dup2\n      mstore\n      0x20\n      add\n      dup3\n      dup1\n      sload\n      tag_143\n      swap1\n      tag_65\n      jump\t// in\n    tag_143:\n      dup1\n      iszero\n      tag_144\n      jumpi\n      dup1\n      0x1f\n      lt\n      tag_145\n      jumpi\n      0x0100\n      dup1\n      dup4\n      sload\n      div\n      mul\n      dup4\n      mstore\n      swap2\n      0x20\n      add\n      swap2\n      jump(tag_144)\n    tag_145:\n      dup3\n      add\n      swap2\n      swap1\n      0x00\n      mstore\n      keccak256(0x00, 0x20)\n      swap1\n    tag_146:\n      dup2\n      sload\n      dup2\n      mstore\n      swap1\n      0x01\n      add\n      swap1\n      0x20\n      add\n      dup1\n      dup4\n      gt\n      tag_146\n      jumpi\n      dup3\n      swap1\n      sub\n      0x1f\n      and\n      dup3\n      add\n      swap2\n    tag_144:\n      pop\n      pop\n      pop\n      pop\n      pop\n      dup2\n      mstore\n      0x20\n      add\n      0x01\n      dup3\n      add\n      dup1\n      sload\n      tag_147\n      swap1\n      tag_65\n      jump\t// in\n    tag_147:\n      dup1\n      0x1f\n      add\n      0x20\n      dup1\n      swap2\n      div\n      mul\n      0x20\n      add\n      mload(0x40)\n      swap1\n      dup2\n      add\n      0x40\n      mstore\n      dup1\n      swap3\n      swap2\n      swap1\n      dup2\n      dup2\n      mstore\n      0x20\n      add\n      dup3\n      dup1\n      sload\n      tag_148\n      swap1\n      tag_65\n      jump\t// in\n    tag_148:\n      dup1\n      iszero\n      tag_149\n      jumpi\n      dup1\n      0x1f\n      lt\n      tag_150\n      jumpi\n      0x0100\n      dup1\n      dup4\n      sload\n      div\n      mul\n      dup4\n      mstore\n      swap2\n      0x20\n      add\n      swap2\n      jump(tag_149)\n    tag_150:\n      dup3\n      add\n      swap2\n      swap1\n      0x00\n      mstore\n      keccak256(0x00, 0x20)\n      swap1\n    tag_151:\n      dup2\n      sload\n      dup2\n      mstore\n      swap1\n      0x01\n      add\n      swap1\n      0x20\n      add\n      dup1\n      dup4\n      gt\n      tag_151\n      jumpi\n      dup3\n      swap1\n      sub\n      0x1f\n      and\n      dup3\n      add\n      swap2\n    tag_149:\n      pop\n      pop\n      pop\n      pop\n      pop\n      dup2\n      mstore\n      0x20\n      add\n      0x02\n      dup3\n      add\n      dup1\n      sload\n      tag_152\n      swap1\n      tag_65\n      jump\t// in\n    tag_152:\n      dup1\n      0x1f\n      add\n      0x20\n      dup1\n      swap2\n      div\n      mul\n      0x20\n      add\n      mload(0x40)\n      swap1\n      dup2\n      add\n      0x40\n      mstore\n      dup1\n      swap3\n      swap2\n      swap1\n      dup2\n      dup2\n      mstore\n      0x20\n      add\n      dup3\n      dup1\n      sload\n      tag_153\n      swap1\n      tag_65\n      jump\t// in\n    tag_153:\n      dup1\n      iszero\n      tag_154\n      jumpi\n      dup1\n      0x1f\n      lt\n      tag_155\n      jumpi\n      0x0100\n      dup1\n      dup4\n      sload\n      div\n      mul\n      dup4\n      mstore\n      swap2\n      0x20\n      add\n      swap2\n      jump(tag_154)\n    tag_155:\n      dup3\n      add\n      swap2\n      swap1\n      0x00\n      mstore\n      keccak256(0x00, 0x20)\n      swap1\n    tag_156:\n      dup2\n      sload\n      dup2\n      mstore\n      swap1\n      0x01\n      add\n      swap1\n      0x20\n      add\n      dup1\n      dup4\n      gt\n      tag_156\n      jumpi\n      dup3\n      swap1\n      sub\n      0x1f\n      and\n      dup3\n      add\n      swap2\n    tag_154:\n      pop\n      pop\n      pop\n      pop\n      pop\n      dup2\n      mstore\n      0x20\n      add\n      0x03\n      dup3\n      add\n      0x00\n      swap1\n      sload\n      swap1\n      0x0100\n      exp\n      swap1\n      div\n      0xffffffffffffffffffffffffffffffffffffffff\n      and\n      0xffffffffffffffffffffffffffffffffffffffff\n      and\n      0xffffffffffffffffffffffffffffffffffffffff\n      and\n      dup2\n      mstore\n      0x20\n      add\n      0x04\n      dup3\n      add\n      sload\n      dup2\n      mstore\n      0x20\n      add\n      0x05\n      dup3\n      add\n      dup1\n      sload\n      dup1\n      0x20\n      mul\n      0x20\n      add\n      mload(0x40)\n      swap1\n      dup2\n      add\n      0x40\n      mstore\n      dup1\n      swap3\n      swap2\n      swap1\n      dup2\n      dup2\n      mstore\n      0x20\n      add\n      0x00\n      swap1\n    tag_157:\n      dup3\n      dup3\n      lt\n      iszero\n      tag_158\n      jumpi\n      dup4\n      dup3\n      swap1\n      0x00\n      mstore\n      keccak256(0x00, 0x20)\n      swap1\n      0x02\n      mul\n      add\n      mload(0x40)\n      dup1\n      0x40\n      add\n      0x40\n      mstore\n      swap1\n      dup2\n      0x00\n      dup3\n      add\n      0x00\n      swap1\n      sload\n      swap1\n      0x0100\n      exp\n      swap1\n      div\n      0xffffffffffffffffffffffffffffffffffffffff\n      and\n      0xffffffffffffffffffffffffffffffffffffffff\n      and\n      0xffffffffffffffffffffffffffffffffffffffff\n      and\n      dup2\n      mstore\n      0x20\n      add\n      0x01\n      dup3\n      add\n      dup1\n      sload\n      tag_160\n      swap1\n      tag_65\n      jump\t// in\n    tag_160:\n      dup1\n      0x1f\n      add\n      0x20\n      dup1\n      swap2\n      div\n      mul\n      0x20\n      add\n      mload(0x40)\n      swap1\n      dup2\n      add\n      0x40\n      mstore\n      dup1\n      swap3\n      swap2\n      swap1\n      dup2\n      dup2\n      mstore\n      0x20\n      add\n      dup3\n      dup1\n      sload\n      tag_161\n      swap1\n      tag_65\n      jump\t// in\n    tag_161:\n      dup1\n      iszero\n      tag_162\n      jumpi\n      dup1\n      0x1f\n      lt\n      tag_163\n      jumpi\n      0x0100\n      dup1\n      dup4\n      sload\n      div\n      mul\n      dup4\n      mstore\n      swap2\n      0x20\n      add\n      swap2\n      jump(tag_162)\n    tag_163:\n      dup3\n      add\n      swap2\n      swap1\n      0x00\n      mstore\n      keccak256(0x00, 0x20)\n      swap1\n    tag_164:\n      dup2\n      sload\n      dup2\n      mstore\n      swap1\n      0x01\n      add\n      swap1\n      0x20\n      add\n      dup1\n      dup4\n      gt\n      tag_164\n      jumpi\n      dup3\n      swap1\n      sub\n      0x1f\n      and\n      dup3\n      add\n      swap2\n    tag_162:\n      pop\n      pop\n      pop\n      pop\n      pop\n      dup2\n      mstore\n      pop\n      pop\n      dup2\n      mstore\n      0x20\n      add\n      swap1\n      0x01\n      add\n      swap1\n      jump(tag_157)\n    tag_158:\n      pop\n      pop\n      pop\n      pop\n      dup2\n      mstore\n      pop\n      pop\n      swap1\n      pop\n      jump(tag_140)\n        /* \"Contract.sol\":5179:5359  if (requestedMember == true) {... */\n    tag_141:\n        /* \"Contract.sol\":5313:5333  getMemberWithAddress */\n      0x07\n        /* \"Contract.sol\":5313:5347  getMemberWithAddress[_userAddress] */\n      0x00\n        /* \"Contract.sol\":5334:5346  _userAddress */\n      dup5\n        /* \"Contract.sol\":5313:5347  getMemberWithAddress[_userAddress] */\n      0xffffffffffffffffffffffffffffffffffffffff\n      and\n      0xffffffffffffffffffffffffffffffffffffffff\n      and\n      dup2\n      mstore\n      0x20\n      add\n      swap1\n      dup2\n      mstore\n      0x20\n      add\n      0x00\n      keccak256\n        /* \"Contract.sol\":5306:5347  return getMemberWithAddress[_userAddress] */\n      mload(0x40)\n      dup1\n      0xc0\n      add\n      0x40\n      mstore\n      swap1\n      dup2\n      0x00\n      dup3\n      add\n      dup1\n      sload\n      tag_166\n      swap1\n      tag_65\n      jump\t// in\n    tag_166:\n      dup1\n      0x1f\n      add\n      0x20\n      dup1\n      swap2\n      div\n      mul\n      0x20\n      add\n      mload(0x40)\n      swap1\n      dup2\n      add\n      0x40\n      mstore\n      dup1\n      swap3\n      swap2\n      swap1\n      dup2\n      dup2\n      mstore\n      0x20\n      add\n      dup3\n      dup1\n      sload\n      tag_167\n      swap1\n      tag_65\n      jump\t// in\n    tag_167:\n      dup1\n      iszero\n      tag_168\n      jumpi\n      dup1\n      0x1f\n      lt\n      tag_169\n      jumpi\n      0x0100\n      dup1\n      dup4\n      sload\n      div\n      mul\n      dup4\n      mstore\n      swap2\n      0x20\n      add\n      swap2\n      jump(tag_168)\n    tag_169:\n      dup3\n      add\n      swap2\n      swap1\n      0x00\n      mstore\n      keccak256(0x00, 0x20)\n      swap1\n    tag_170:\n      dup2\n      sload\n      dup2\n      mstore\n      swap1\n      0x01\n      add\n      swap1\n      0x20\n      add\n      dup1\n      dup4\n      gt\n      tag_170\n      jumpi\n      dup3\n      swap1\n      sub\n      0x1f\n      and\n      dup3\n      add\n      swap2\n    tag_168:\n      pop\n      pop\n      pop\n      pop\n      pop\n      dup2\n      mstore\n      0x20\n      add\n      0x01\n      dup3\n      add\n      dup1\n      sload\n      tag_171\n      swap1\n      tag_65\n      jump\t// in\n    tag_171:\n      dup1\n      0x1f\n      add\n      0x20\n      dup1\n      swap2\n      div\n      mul\n      0x20\n      add\n      mload(0x40)\n      swap1\n      dup2\n      add\n      0x40\n      mstore\n      dup1\n      swap3\n      swap2\n      swap1\n      dup2\n      dup2\n      mstore\n      0x20\n      add\n      dup3\n      dup1\n      sload\n      tag_172\n      swap1\n      tag_65\n      jump\t// in\n    tag_172:\n      dup1\n      iszero\n      tag_173\n      jumpi\n      dup1\n      0x1f\n      lt\n      tag_174\n      jumpi\n      0x0100\n      dup1\n      dup4\n      sload\n      div\n      mul\n      dup4\n      mstore\n      swap2\n      0x20\n      add\n      swap2\n      jump(tag_173)\n    tag_174:\n      dup3\n      add\n      swap2\n      swap1\n      0x00\n      mstore\n      keccak256(0x00, 0x20)\n      swap1\n    tag_175:\n      dup2\n      sload\n      dup2\n      mstore\n      swap1\n      0x01\n      add\n      swap1\n      0x20\n      add\n      dup1\n      dup4\n      gt\n      tag_175\n      jumpi\n      dup3\n      swap1\n      sub\n      0x1f\n      and\n      dup3\n      add\n      swap2\n    tag_173:\n      pop\n      pop\n      pop\n      pop\n      pop\n      dup2\n      mstore\n      0x20\n      add\n      0x02\n      dup3\n      add\n      dup1\n      sload\n      tag_176\n      swap1\n      tag_65\n      jump\t// in\n    tag_176:\n      dup1\n      0x1f\n      add\n      0x20\n      dup1\n      swap2\n      div\n      mul\n      0x20\n      add\n      mload(0x40)\n      swap1\n      dup2\n      add\n      0x40\n      mstore\n      dup1\n      swap3\n      swap2\n      swap1\n      dup2\n      dup2\n      mstore\n      0x20\n      add\n      dup3\n      dup1\n      sload\n      tag_177\n      swap1\n      tag_65\n      jump\t// in\n    tag_177:\n      dup1\n      iszero\n      tag_178\n      jumpi\n      dup1\n      0x1f\n      lt\n      tag_179\n      jumpi\n      0x0100\n      dup1\n      dup4\n      sload\n      div\n      mul\n      dup4\n      mstore\n      swap2\n      0x20\n      add\n      swap2\n      jump(tag_178)\n    tag_179:\n      dup3\n      add\n      swap2\n      swap1\n      0x00\n      mstore\n      keccak256(0x00, 0x20)\n      swap1\n    tag_180:\n      dup2\n      sload\n      dup2\n      mstore\n      swap1\n      0x01\n      add\n      swap1\n      0x20\n      add\n      dup1\n      dup4\n      gt\n      tag_180\n      jumpi\n      dup3\n      swap1\n      sub\n      0x1f\n      and\n      dup3\n      add\n      swap2\n    tag_178:\n      pop\n      pop\n      pop\n      pop\n      pop\n      dup2\n      mstore\n      0x20\n      add\n      0x03\n      dup3\n      add\n      0x00\n      swap1\n      sload\n      swap1\n      0x0100\n      exp\n      swap1\n      div\n      0xffffffffffffffffffffffffffffffffffffffff\n      and\n      0xffffffffffffffffffffffffffffffffffffffff\n      and\n      0xffffffffffffffffffffffffffffffffffffffff\n      and\n      dup2\n      mstore\n      0x20\n      add\n      0x04\n      dup3\n      add\n      sload\n      dup2\n      mstore\n      0x20\n      add\n      0x05\n      dup3\n      add\n      dup1\n      sload\n      dup1\n      0x20\n      mul\n      0x20\n      add\n      mload(0x40)\n      swap1\n      dup2\n      add\n      0x40\n      mstore\n      dup1\n      swap3\n      swap2\n      swap1\n      dup2\n      dup2\n      mstore\n      0x20\n      add\n      0x00\n      swap1\n    tag_181:\n      dup3\n      dup3\n      lt\n      iszero\n      tag_182\n      jumpi\n      dup4\n      dup3\n      swap1\n      0x00\n      mstore\n      keccak256(0x00, 0x20)\n      swap1\n      0x02\n      mul\n      add\n      mload(0x40)\n      dup1\n      0x40\n      add\n      0x40\n      mstore\n      swap1\n      dup2\n      0x00\n      dup3\n      add\n      0x00\n      swap1\n      sload\n      swap1\n      0x0100\n      exp\n      swap1\n      div\n      0xffffffffffffffffffffffffffffffffffffffff\n      and\n      0xffffffffffffffffffffffffffffffffffffffff\n      and\n      0xffffffffffffffffffffffffffffffffffffffff\n      and\n      dup2\n      mstore\n      0x20\n      add\n      0x01\n      dup3\n      add\n      dup1\n      sload\n      tag_184\n      swap1\n      tag_65\n      jump\t// in\n    tag_184:\n      dup1\n      0x1f\n      add\n      0x20\n      dup1\n      swap2\n      div\n      mul\n      0x20\n      add\n      mload(0x40)\n      swap1\n      dup2\n      add\n      0x40\n      mstore\n      dup1\n      swap3\n      swap2\n      swap1\n      dup2\n      dup2\n      mstore\n      0x20\n      add\n      dup3\n      dup1\n      sload\n      tag_185\n      swap1\n      tag_65\n      jump\t// in\n    tag_185:\n      dup1\n      iszero\n      tag_186\n      jumpi\n      dup1\n      0x1f\n      lt\n      tag_187\n      jumpi\n      0x0100\n      dup1\n      dup4\n      sload\n      div\n      mul\n      dup4\n      mstore\n      swap2\n      0x20\n      add\n      swap2\n      jump(tag_186)\n    tag_187:\n      dup3\n      add\n      swap2\n      swap1\n      0x00\n      mstore\n      keccak256(0x00, 0x20)\n      swap1\n    tag_188:\n      dup2\n      sload\n      dup2\n      mstore\n      swap1\n      0x01\n      add\n      swap1\n      0x20\n      add\n      dup1\n      dup4\n      gt\n      tag_188\n      jumpi\n      dup3\n      swap1\n      sub\n      0x1f\n      and\n      dup3\n      add\n      swap2\n    tag_186:\n      pop\n      pop\n      pop\n      pop\n      pop\n      dup2\n      mstore\n      pop\n      pop\n      dup2\n      mstore\n      0x20\n      add\n      swap1\n      0x01\n      add\n      swap1\n      jump(tag_181)\n    tag_182:\n      pop\n      pop\n      pop\n      pop\n      dup2\n      mstore\n      pop\n      pop\n      swap1\n      pop\n        /* \"Contract.sol\":5030:5366  function findMember(address _userAddress, bool requestedMember)... */\n    tag_140:\n      swap3\n      swap2\n      pop\n      pop\n      jump\t// out\n        /* \"Contract.sol\":5411:6412  function approoveRequest(address _userAddress, address approvingUserAddress)... */\n    tag_47:\n        /* \"Contract.sol\":5520:5558  MemberStruct memory memberTobeApproved */\n      0x00\n        /* \"Contract.sol\":5561:5590  getRequestedMemberWithAddress */\n      0x0a\n        /* \"Contract.sol\":5561:5628  getRequestedMemberWithAddress[... */\n      0x00\n        /* \"Contract.sol\":5605:5617  _userAddress */\n      dup5\n        /* \"Contract.sol\":5561:5628  getRequestedMemberWithAddress[... */\n      0xffffffffffffffffffffffffffffffffffffffff\n      and\n      0xffffffffffffffffffffffffffffffffffffffff\n      and\n      dup2\n      mstore\n      0x20\n      add\n      swap1\n      dup2\n      mstore\n      0x20\n      add\n      0x00\n      keccak256\n        /* \"Contract.sol\":5520:5628  MemberStruct memory memberTobeApproved = getRequestedMemberWithAddress[... */\n      mload(0x40)\n      dup1\n      0xc0\n      add\n      0x40\n      mstore\n      swap1\n      dup2\n      0x00\n      dup3\n      add\n      dup1\n      sload\n      tag_190\n      swap1\n      tag_65\n      jump\t// in\n    tag_190:\n      dup1\n      0x1f\n      add\n      0x20\n      dup1\n      swap2\n      div\n      mul\n      0x20\n      add\n      mload(0x40)\n      swap1\n      dup2\n      add\n      0x40\n      mstore\n      dup1\n      swap3\n      swap2\n      swap1\n      dup2\n      dup2\n      mstore\n      0x20\n      add\n      dup3\n      dup1\n      sload\n      tag_191\n      swap1\n      tag_65\n      jump\t// in\n    tag_191:\n      dup1\n      iszero\n      tag_192\n      jumpi\n      dup1\n      0x1f\n      lt\n      tag_193\n      jumpi\n      0x0100\n      dup1\n      dup4\n      sload\n      div\n      mul\n      dup4\n      mstore\n      swap2\n      0x20\n      add\n      swap2\n      jump(tag_192)\n    tag_193:\n      dup3\n      add\n      swap2\n      swap1\n      0x00\n      mstore\n      keccak256(0x00, 0x20)\n      swap1\n    tag_194:\n      dup2\n      sload\n      dup2\n      mstore\n      swap1\n      0x01\n      add\n      swap1\n      0x20\n      add\n      dup1\n      dup4\n      gt\n      tag_194\n      jumpi\n      dup3\n      swap1\n      sub\n      0x1f\n      and\n      dup3\n      add\n      swap2\n    tag_192:\n      pop\n      pop\n      pop\n      pop\n      pop\n      dup2\n      mstore\n      0x20\n      add\n      0x01\n      dup3\n      add\n      dup1\n      sload\n      tag_195\n      swap1\n      tag_65\n      jump\t// in\n    tag_195:\n      dup1\n      0x1f\n      add\n      0x20\n      dup1\n      swap2\n      div\n      mul\n      0x20\n      add\n      mload(0x40)\n      swap1\n      dup2\n      add\n      0x40\n      mstore\n      dup1\n      swap3\n      swap2\n      swap1\n      dup2\n      dup2\n      mstore\n      0x20\n      add\n      dup3\n      dup1\n      sload\n      tag_196\n      swap1\n      tag_65\n      jump\t// in\n    tag_196:\n      dup1\n      iszero\n      tag_197\n      jumpi\n      dup1\n      0x1f\n      lt\n      tag_198\n      jumpi\n      0x0100\n      dup1\n      dup4\n      sload\n      div\n      mul\n      dup4\n      mstore\n      swap2\n      0x20\n      add\n      swap2\n      jump(tag_197)\n    tag_198:\n      dup3\n      add\n      swap2\n      swap1\n      0x00\n      mstore\n      keccak256(0x00, 0x20)\n      swap1\n    tag_199:\n      dup2\n      sload\n      dup2\n      mstore\n      swap1\n      0x01\n      add\n      swap1\n      0x20\n      add\n      dup1\n      dup4\n      gt\n      tag_199\n      jumpi\n      dup3\n      swap1\n      sub\n      0x1f\n      and\n      dup3\n      add\n      swap2\n    tag_197:\n      pop\n      pop\n      pop\n      pop\n      pop\n      dup2\n      mstore\n      0x20\n      add\n      0x02\n      dup3\n      add\n      dup1\n      sload\n      tag_200\n      swap1\n      tag_65\n      jump\t// in\n    tag_200:\n      dup1\n      0x1f\n      add\n      0x20\n      dup1\n      swap2\n      div\n      mul\n      0x20\n      add\n      mload(0x40)\n      swap1\n      dup2\n      add\n      0x40\n      mstore\n      dup1\n      swap3\n      swap2\n      swap1\n      dup2\n      dup2\n      mstore\n      0x20\n      add\n      dup3\n      dup1\n      sload\n      tag_201\n      swap1\n      tag_65\n      jump\t// in\n    tag_201:\n      dup1\n      iszero\n      tag_202\n      jumpi\n      dup1\n      0x1f\n      lt\n      tag_203\n      jumpi\n      0x0100\n      dup1\n      dup4\n      sload\n      div\n      mul\n      dup4\n      mstore\n      swap2\n      0x20\n      add\n      swap2\n      jump(tag_202)\n    tag_203:\n      dup3\n      add\n      swap2\n      swap1\n      0x00\n      mstore\n      keccak256(0x00, 0x20)\n      swap1\n    tag_204:\n      dup2\n      sload\n      dup2\n      mstore\n      swap1\n      0x01\n      add\n      swap1\n      0x20\n      add\n      dup1\n      dup4\n      gt\n      tag_204\n      jumpi\n      dup3\n      swap1\n      sub\n      0x1f\n      and\n      dup3\n      add\n      swap2\n    tag_202:\n      pop\n      pop\n      pop\n      pop\n      pop\n      dup2\n      mstore\n      0x20\n      add\n      0x03\n      dup3\n      add\n      0x00\n      swap1\n      sload\n      swap1\n      0x0100\n      exp\n      swap1\n      div\n      0xffffffffffffffffffffffffffffffffffffffff\n      and\n      0xffffffffffffffffffffffffffffffffffffffff\n      and\n      0xffffffffffffffffffffffffffffffffffffffff\n      and\n      dup2\n      mstore\n      0x20\n      add\n      0x04\n      dup3\n      add\n      sload\n      dup2\n      mstore\n      0x20\n      add\n      0x05\n      dup3\n      add\n      dup1\n      sload\n      dup1\n      0x20\n      mul\n      0x20\n      add\n      mload(0x40)\n      swap1\n      dup2\n      add\n      0x40\n      mstore\n      dup1\n      swap3\n      swap2\n      swap1\n      dup2\n      dup2\n      mstore\n      0x20\n      add\n      0x00\n      swap1\n    tag_205:\n      dup3\n      dup3\n      lt\n      iszero\n      tag_206\n      jumpi\n      dup4\n      dup3\n      swap1\n      0x00\n      mstore\n      keccak256(0x00, 0x20)\n      swap1\n      0x02\n      mul\n      add\n      mload(0x40)\n      dup1\n      0x40\n      add\n      0x40\n      mstore\n      swap1\n      dup2\n      0x00\n      dup3\n      add\n      0x00\n      swap1\n      sload\n      swap1\n      0x0100\n      exp\n      swap1\n      div\n      0xffffffffffffffffffffffffffffffffffffffff\n      and\n      0xffffffffffffffffffffffffffffffffffffffff\n      and\n      0xffffffffffffffffffffffffffffffffffffffff\n      and\n      dup2\n      mstore\n      0x20\n      add\n      0x01\n      dup3\n      add\n      dup1\n      sload\n      tag_208\n      swap1\n      tag_65\n      jump\t// in\n    tag_208:\n      dup1\n      0x1f\n      add\n      0x20\n      dup1\n      swap2\n      div\n      mul\n      0x20\n      add\n      mload(0x40)\n      swap1\n      dup2\n      add\n      0x40\n      mstore\n      dup1\n      swap3\n      swap2\n      swap1\n      dup2\n      dup2\n      mstore\n      0x20\n      add\n      dup3\n      dup1\n      sload\n      tag_209\n      swap1\n      tag_65\n      jump\t// in\n    tag_209:\n      dup1\n      iszero\n      tag_210\n      jumpi\n      dup1\n      0x1f\n      lt\n      tag_211\n      jumpi\n      0x0100\n      dup1\n      dup4\n      sload\n      div\n      mul\n      dup4\n      mstore\n      swap2\n      0x20\n      add\n      swap2\n      jump(tag_210)\n    tag_211:\n      dup3\n      add\n      swap2\n      swap1\n      0x00\n      mstore\n      keccak256(0x00, 0x20)\n      swap1\n    tag_212:\n      dup2\n      sload\n      dup2\n      mstore\n      swap1\n      0x01\n      add\n      swap1\n      0x20\n      add\n      dup1\n      dup4\n      gt\n      tag_212\n      jumpi\n      dup3\n      swap1\n      sub\n      0x1f\n      and\n      dup3\n      add\n      swap2\n    tag_210:\n      pop\n      pop\n      pop\n      pop\n      pop\n      dup2\n      mstore\n      pop\n      pop\n      dup2\n      mstore\n      0x20\n      add\n      swap1\n      0x01\n      add\n      swap1\n      jump(tag_205)\n    tag_206:\n      pop\n      pop\n      pop\n      pop\n      dup2\n      mstore\n      pop\n      pop\n      swap1\n      pop\n        /* \"Contract.sol\":5639:5674  MemberStruct memory apprivingMember */\n      0x00\n        /* \"Contract.sol\":5677:5697  getMemberWithAddress */\n      0x07\n        /* \"Contract.sol\":5677:5743  getMemberWithAddress[... */\n      0x00\n        /* \"Contract.sol\":5712:5732  approvingUserAddress */\n      dup5\n        /* \"Contract.sol\":5677:5743  getMemberWithAddress[... */\n      0xffffffffffffffffffffffffffffffffffffffff\n      and\n      0xffffffffffffffffffffffffffffffffffffffff\n      and\n      dup2\n      mstore\n      0x20\n      add\n      swap1\n      dup2\n      mstore\n      0x20\n      add\n      0x00\n      keccak256\n        /* \"Contract.sol\":5639:5743  MemberStruct memory apprivingMember = getMemberWithAddress[... */\n      mload(0x40)\n      dup1\n      0xc0\n      add\n      0x40\n      mstore\n      swap1\n      dup2\n      0x00\n      dup3\n      add\n      dup1\n      sload\n      tag_213\n      swap1\n      tag_65\n      jump\t// in\n    tag_213:\n      dup1\n      0x1f\n      add\n      0x20\n      dup1\n      swap2\n      div\n      mul\n      0x20\n      add\n      mload(0x40)\n      swap1\n      dup2\n      add\n      0x40\n      mstore\n      dup1\n      swap3\n      swap2\n      swap1\n      dup2\n      dup2\n      mstore\n      0x20\n      add\n      dup3\n      dup1\n      sload\n      tag_214\n      swap1\n      tag_65\n      jump\t// in\n    tag_214:\n      dup1\n      iszero\n      tag_215\n      jumpi\n      dup1\n      0x1f\n      lt\n      tag_216\n      jumpi\n      0x0100\n      dup1\n      dup4\n      sload\n      div\n      mul\n      dup4\n      mstore\n      swap2\n      0x20\n      add\n      swap2\n      jump(tag_215)\n    tag_216:\n      dup3\n      add\n      swap2\n      swap1\n      0x00\n      mstore\n      keccak256(0x00, 0x20)\n      swap1\n    tag_217:\n      dup2\n      sload\n      dup2\n      mstore\n      swap1\n      0x01\n      add\n      swap1\n      0x20\n      add\n      dup1\n      dup4\n      gt\n      tag_217\n      jumpi\n      dup3\n      swap1\n      sub\n      0x1f\n      and\n      dup3\n      add\n      swap2\n    tag_215:\n      pop\n      pop\n      pop\n      pop\n      pop\n      dup2\n      mstore\n      0x20\n      add\n      0x01\n      dup3\n      add\n      dup1\n      sload\n      tag_218\n      swap1\n      tag_65\n      jump\t// in\n    tag_218:\n      dup1\n      0x1f\n      add\n      0x20\n      dup1\n      swap2\n      div\n      mul\n      0x20\n      add\n      mload(0x40)\n      swap1\n      dup2\n      add\n      0x40\n      mstore\n      dup1\n      swap3\n      swap2\n      swap1\n      dup2\n      dup2\n      mstore\n      0x20\n      add\n      dup3\n      dup1\n      sload\n      tag_219\n      swap1\n      tag_65\n      jump\t// in\n    tag_219:\n      dup1\n      iszero\n      tag_220\n      jumpi\n      dup1\n      0x1f\n      lt\n      tag_221\n      jumpi\n      0x0100\n      dup1\n      dup4\n      sload\n      div\n      mul\n      dup4\n      mstore\n      swap2\n      0x20\n      add\n      swap2\n      jump(tag_220)\n    tag_221:\n      dup3\n      add\n      swap2\n      swap1\n      0x00\n      mstore\n      keccak256(0x00, 0x20)\n      swap1\n    tag_222:\n      dup2\n      sload\n      dup2\n      mstore\n      swap1\n      0x01\n      add\n      swap1\n      0x20\n      add\n      dup1\n      dup4\n      gt\n      tag_222\n      jumpi\n      dup3\n      swap1\n      sub\n      0x1f\n      and\n      dup3\n      add\n      swap2\n    tag_220:\n      pop\n      pop\n      pop\n      pop\n      pop\n      dup2\n      mstore\n      0x20\n      add\n      0x02\n      dup3\n      add\n      dup1\n      sload\n      tag_223\n      swap1\n      tag_65\n      jump\t// in\n    tag_223:\n      dup1\n      0x1f\n      add\n      0x20\n      dup1\n      swap2\n      div\n      mul\n      0x20\n      add\n      mload(0x40)\n      swap1\n      dup2\n      add\n      0x40\n      mstore\n      dup1\n      swap3\n      swap2\n      swap1\n      dup2\n      dup2\n      mstore\n      0x20\n      add\n      dup3\n      dup1\n      sload\n      tag_224\n      swap1\n      tag_65\n      jump\t// in\n    tag_224:\n      dup1\n      iszero\n      tag_225\n      jumpi\n      dup1\n      0x1f\n      lt\n      tag_226\n      jumpi\n      0x0100\n      dup1\n      dup4\n      sload\n      div\n      mul\n      dup4\n      mstore\n      swap2\n      0x20\n      add\n      swap2\n      jump(tag_225)\n    tag_226:\n      dup3\n      add\n      swap2\n      swap1\n      0x00\n      mstore\n      keccak256(0x00, 0x20)\n      swap1\n    tag_227:\n      dup2\n      sload\n      dup2\n      mstore\n      swap1\n      0x01\n      add\n      swap1\n      0x20\n      add\n      dup1\n      dup4\n      gt\n      tag_227\n      jumpi\n      dup3\n      swap1\n      sub\n      0x1f\n      and\n      dup3\n      add\n      swap2\n    tag_225:\n      pop\n      pop\n      pop\n      pop\n      pop\n      dup2\n      mstore\n      0x20\n      add\n      0x03\n      dup3\n      add\n      0x00\n      swap1\n      sload\n      swap1\n      0x0100\n      exp\n      swap1\n      div\n      0xffffffffffffffffffffffffffffffffffffffff\n      and\n      0xffffffffffffffffffffffffffffffffffffffff\n      and\n      0xffffffffffffffffffffffffffffffffffffffff\n      and\n      dup2\n      mstore\n      0x20\n      add\n      0x04\n      dup3\n      add\n      sload\n      dup2\n      mstore\n      0x20\n      add\n      0x05\n      dup3\n      add\n      dup1\n      sload\n      dup1\n      0x20\n      mul\n      0x20\n      add\n      mload(0x40)\n      swap1\n      dup2\n      add\n      0x40\n      mstore\n      dup1\n      swap3\n      swap2\n      swap1\n      dup2\n      dup2\n      mstore\n      0x20\n      add\n      0x00\n      swap1\n    tag_228:\n      dup3\n      dup3\n      lt\n      iszero\n      tag_229\n      jumpi\n      dup4\n      dup3\n      swap1\n      0x00\n      mstore\n      keccak256(0x00, 0x20)\n      swap1\n      0x02\n      mul\n      add\n      mload(0x40)\n      dup1\n      0x40\n      add\n      0x40\n      mstore\n      swap1\n      dup2\n      0x00\n      dup3\n      add\n      0x00\n      swap1\n      sload\n      swap1\n      0x0100\n      exp\n      swap1\n      div\n      0xffffffffffffffffffffffffffffffffffffffff\n      and\n      0xffffffffffffffffffffffffffffffffffffffff\n      and\n      0xffffffffffffffffffffffffffffffffffffffff\n      and\n      dup2\n      mstore\n      0x20\n      add\n      0x01\n      dup3\n      add\n      dup1\n      sload\n      tag_231\n      swap1\n      tag_65\n      jump\t// in\n    tag_231:\n      dup1\n      0x1f\n      add\n      0x20\n      dup1\n      swap2\n      div\n      mul\n      0x20\n      add\n      mload(0x40)\n      swap1\n      dup2\n      add\n      0x40\n      mstore\n      dup1\n      swap3\n      swap2\n      swap1\n      dup2\n      dup2\n      mstore\n      0x20\n      add\n      dup3\n      dup1\n      sload\n      tag_232\n      swap1\n      tag_65\n      jump\t// in\n    tag_232:\n      dup1\n      iszero\n      tag_233\n      jumpi\n      dup1\n      0x1f\n      lt\n      tag_234\n      jumpi\n      0x0100\n      dup1\n      dup4\n      sload\n      div\n      mul\n      dup4\n      mstore\n      swap2\n      0x20\n      add\n      swap2\n      jump(tag_233)\n    tag_234:\n      dup3\n      add\n      swap2\n      swap1\n      0x00\n      mstore\n      keccak256(0x00, 0x20)\n      swap1\n    tag_235:\n      dup2\n      sload\n      dup2\n      mstore\n      swap1\n      0x01\n      add\n      swap1\n      0x20\n      add\n      dup1\n      dup4\n      gt\n      tag_235\n      jumpi\n      dup3\n      swap1\n      sub\n      0x1f\n      and\n      dup3\n      add\n      swap2\n    tag_233:\n      pop\n      pop\n      pop\n      pop\n      pop\n      dup2\n      mstore\n      pop\n      pop\n      dup2\n      mstore\n      0x20\n      add\n      swap1\n      0x01\n      add\n      swap1\n      jump(tag_228)\n    tag_229:\n      pop\n      pop\n      pop\n      pop\n      dup2\n      mstore\n      pop\n      pop\n      swap1\n      pop\n        /* \"Contract.sol\":5754:5772  string memory post */\n      0x00\n        /* \"Contract.sol\":5775:5793  memberTobeApproved */\n      dup3\n        /* \"Contract.sol\":5775:5798  memberTobeApproved.post */\n      0x00\n      add\n      mload\n        /* \"Contract.sol\":5754:5798  string memory post = memberTobeApproved.post */\n      swap1\n      pop\n        /* \"Contract.sol\":5809:5827  string memory dept */\n      0x00\n        /* \"Contract.sol\":5830:5848  memberTobeApproved */\n      dup4\n        /* \"Contract.sol\":5830:5853  memberTobeApproved.dept */\n      0x20\n      add\n      mload\n        /* \"Contract.sol\":5809:5853  string memory dept = memberTobeApproved.dept */\n      swap1\n      pop\n        /* \"Contract.sol\":5864:5882  string memory name */\n      0x00\n        /* \"Contract.sol\":5885:5903  memberTobeApproved */\n      dup5\n        /* \"Contract.sol\":5885:5908  memberTobeApproved.name */\n      0x40\n      add\n      mload\n        /* \"Contract.sol\":5864:5908  string memory name = memberTobeApproved.name */\n      swap1\n      pop\n        /* \"Contract.sol\":5919:5938  address userAddress */\n      0x00\n        /* \"Contract.sol\":5941:5959  memberTobeApproved */\n      dup6\n        /* \"Contract.sol\":5941:5971  memberTobeApproved.userAddress */\n      0x60\n      add\n      mload\n        /* \"Contract.sol\":5919:5971  address userAddress = memberTobeApproved.userAddress */\n      swap1\n      pop\n        /* \"Contract.sol\":5982:6009  uint256 requestingUserPower */\n      0x00\n        /* \"Contract.sol\":6012:6030  memberTobeApproved */\n      dup7\n        /* \"Contract.sol\":6012:6036  memberTobeApproved.power */\n      0x80\n      add\n      mload\n        /* \"Contract.sol\":5982:6036  uint256 requestingUserPower = memberTobeApproved.power */\n      swap1\n      pop\n        /* \"Contract.sol\":6047:6073  uint256 approvingUserPower */\n      0x00\n        /* \"Contract.sol\":6076:6091  apprivingMember */\n      dup7\n        /* \"Contract.sol\":6076:6097  apprivingMember.power */\n      0x80\n      add\n      mload\n        /* \"Contract.sol\":6047:6097  uint256 approvingUserPower = apprivingMember.power */\n      swap1\n      pop\n        /* \"Contract.sol\":6154:6173  requestingUserPower */\n      dup2\n        /* \"Contract.sol\":6132:6150  approvingUserPower */\n      dup2\n        /* \"Contract.sol\":6132:6173  approvingUserPower <= requestingUserPower */\n      gt\n      iszero\n        /* \"Contract.sol\":6110:6243  require(... */\n      tag_236\n      jumpi\n      mload(0x40)\n      0x08c379a000000000000000000000000000000000000000000000000000000000\n      dup2\n      mstore\n      0x04\n      add\n      tag_237\n      swap1\n      tag_238\n      jump\t// in\n    tag_237:\n      mload(0x40)\n      dup1\n      swap2\n      sub\n      swap1\n      revert\n    tag_236:\n        /* \"Contract.sol\":6256:6312  addOrRequestMember(post, dept, name, userAddress, false) */\n      tag_239\n        /* \"Contract.sol\":6275:6279  post */\n      dup7\n        /* \"Contract.sol\":6281:6285  dept */\n      dup7\n        /* \"Contract.sol\":6287:6291  name */\n      dup7\n        /* \"Contract.sol\":6293:6304  userAddress */\n      dup7\n        /* \"Contract.sol\":6306:6311  false */\n      0x00\n        /* \"Contract.sol\":6256:6274  addOrRequestMember */\n      tag_33\n        /* \"Contract.sol\":6256:6312  addOrRequestMember(post, dept, name, userAddress, false) */\n      jump\t// in\n    tag_239:\n        /* \"Contract.sol\":6377:6404  removeRequest(_userAddress) */\n      tag_240\n        /* \"Contract.sol\":6391:6403  _userAddress */\n      dup11\n        /* \"Contract.sol\":6377:6390  removeRequest */\n      tag_241\n        /* \"Contract.sol\":6377:6404  removeRequest(_userAddress) */\n      jump\t// in\n    tag_240:\n        /* \"Contract.sol\":5509:6412  {... */\n      pop\n      pop\n      pop\n      pop\n      pop\n      pop\n      pop\n      pop\n        /* \"Contract.sol\":5411:6412  function approoveRequest(address _userAddress, address approvingUserAddress)... */\n      pop\n      pop\n      jump\t// out\n        /* \"Contract.sol\":2196:2474  function getApprovedOrRequestedMember(bool request)... */\n    tag_52:\n        /* \"Contract.sol\":2296:2317  MemberStruct[] memory */\n      0x60\n        /* \"Contract.sol\":2350:2354  true */\n      0x01\n        /* \"Contract.sol\":2339:2354  request == true */\n      iszero\n      iszero\n        /* \"Contract.sol\":2339:2346  request */\n      dup3\n        /* \"Contract.sol\":2339:2354  request == true */\n      iszero\n      iszero\n      sub\n        /* \"Contract.sol\":2335:2467  if (request == true) {... */\n      tag_243\n      jumpi\n        /* \"Contract.sol\":2378:2401  arrayOfRequestedMembers */\n      0x0b\n        /* \"Contract.sol\":2371:2401  return arrayOfRequestedMembers */\n      dup1\n      sload\n      dup1\n      0x20\n      mul\n      0x20\n      add\n      mload(0x40)\n      swap1\n      dup2\n      add\n      0x40\n      mstore\n      dup1\n      swap3\n      swap2\n      swap1\n      dup2\n      dup2\n      mstore\n      0x20\n      add\n      0x00\n      swap1\n    tag_244:\n      dup3\n      dup3\n      lt\n      iszero\n      tag_245\n      jumpi\n      dup4\n      dup3\n      swap1\n      0x00\n      mstore\n      keccak256(0x00, 0x20)\n      swap1\n      0x06\n      mul\n      add\n      mload(0x40)\n      dup1\n      0xc0\n      add\n      0x40\n      mstore\n      swap1\n      dup2\n      0x00\n      dup3\n      add\n      dup1\n      sload\n      tag_247\n      swap1\n      tag_65\n      jump\t// in\n    tag_247:\n      dup1\n      0x1f\n      add\n      0x20\n      dup1\n      swap2\n      div\n      mul\n      0x20\n      add\n      mload(0x40)\n      swap1\n      dup2\n      add\n      0x40\n      mstore\n      dup1\n      swap3\n      swap2\n      swap1\n      dup2\n      dup2\n      mstore\n      0x20\n      add\n      dup3\n      dup1\n      sload\n      tag_248\n      swap1\n      tag_65\n      jump\t// in\n    tag_248:\n      dup1\n      iszero\n      tag_249\n      jumpi\n      dup1\n      0x1f\n      lt\n      tag_250\n      jumpi\n      0x0100\n      dup1\n      dup4\n      sload\n      div\n      mul\n      dup4\n      mstore\n      swap2\n      0x20\n      add\n      swap2\n      jump(tag_249)\n    tag_250:\n      dup3\n      add\n      swap2\n      swap1\n      0x00\n      mstore\n      keccak256(0x00, 0x20)\n      swap1\n    tag_251:\n      dup2\n      sload\n      dup2\n      mstore\n      swap1\n      0x01\n      add\n      swap1\n      0x20\n      add\n      dup1\n      dup4\n      gt\n      tag_251\n      jumpi\n      dup3\n      swap1\n      sub\n      0x1f\n      and\n      dup3\n      add\n      swap2\n    tag_249:\n      pop\n      pop\n      pop\n      pop\n      pop\n      dup2\n      mstore\n      0x20\n      add\n      0x01\n      dup3\n      add\n      dup1\n      sload\n      tag_252\n      swap1\n      tag_65\n      jump\t// in\n    tag_252:\n      dup1\n      0x1f\n      add\n      0x20\n      dup1\n      swap2\n      div\n      mul\n      0x20\n      add\n      mload(0x40)\n      swap1\n      dup2\n      add\n      0x40\n      mstore\n      dup1\n      swap3\n      swap2\n      swap1\n      dup2\n      dup2\n      mstore\n      0x20\n      add\n      dup3\n      dup1\n      sload\n      tag_253\n      swap1\n      tag_65\n      jump\t// in\n    tag_253:\n      dup1\n      iszero\n      tag_254\n      jumpi\n      dup1\n      0x1f\n      lt\n      tag_255\n      jumpi\n      0x0100\n      dup1\n      dup4\n      sload\n      div\n      mul\n      dup4\n      mstore\n      swap2\n      0x20\n      add\n      swap2\n      jump(tag_254)\n    tag_255:\n      dup3\n      add\n      swap2\n      swap1\n      0x00\n      mstore\n      keccak256(0x00, 0x20)\n      swap1\n    tag_256:\n      dup2\n      sload\n      dup2\n      mstore\n      swap1\n      0x01\n      add\n      swap1\n      0x20\n      add\n      dup1\n      dup4\n      gt\n      tag_256\n      jumpi\n      dup3\n      swap1\n      sub\n      0x1f\n      and\n      dup3\n      add\n      swap2\n    tag_254:\n      pop\n      pop\n      pop\n      pop\n      pop\n      dup2\n      mstore\n      0x20\n      add\n      0x02\n      dup3\n      add\n      dup1\n      sload\n      tag_257\n      swap1\n      tag_65\n      jump\t// in\n    tag_257:\n      dup1\n      0x1f\n      add\n      0x20\n      dup1\n      swap2\n      div\n      mul\n      0x20\n      add\n      mload(0x40)\n      swap1\n      dup2\n      add\n      0x40\n      mstore\n      dup1\n      swap3\n      swap2\n      swap1\n      dup2\n      dup2\n      mstore\n      0x20\n      add\n      dup3\n      dup1\n      sload\n      tag_258\n      swap1\n      tag_65\n      jump\t// in\n    tag_258:\n      dup1\n      iszero\n      tag_259\n      jumpi\n      dup1\n      0x1f\n      lt\n      tag_260\n      jumpi\n      0x0100\n      dup1\n      dup4\n      sload\n      div\n      mul\n      dup4\n      mstore\n      swap2\n      0x20\n      add\n      swap2\n      jump(tag_259)\n    tag_260:\n      dup3\n      add\n      swap2\n      swap1\n      0x00\n      mstore\n      keccak256(0x00, 0x20)\n      swap1\n    tag_261:\n      dup2\n      sload\n      dup2\n      mstore\n      swap1\n      0x01\n      add\n      swap1\n      0x20\n      add\n      dup1\n      dup4\n      gt\n      tag_261\n      jumpi\n      dup3\n      swap1\n      sub\n      0x1f\n      and\n      dup3\n      add\n      swap2\n    tag_259:\n      pop\n      pop\n      pop\n      pop\n      pop\n      dup2\n      mstore\n      0x20\n      add\n      0x03\n      dup3\n      add\n      0x00\n      swap1\n      sload\n      swap1\n      0x0100\n      exp\n      swap1\n      div\n      0xffffffffffffffffffffffffffffffffffffffff\n      and\n      0xffffffffffffffffffffffffffffffffffffffff\n      and\n      0xffffffffffffffffffffffffffffffffffffffff\n      and\n      dup2\n      mstore\n      0x20\n      add\n      0x04\n      dup3\n      add\n      sload\n      dup2\n      mstore\n      0x20\n      add\n      0x05\n      dup3\n      add\n      dup1\n      sload\n      dup1\n      0x20\n      mul\n      0x20\n      add\n      mload(0x40)\n      swap1\n      dup2\n      add\n      0x40\n      mstore\n      dup1\n      swap3\n      swap2\n      swap1\n      dup2\n      dup2\n      mstore\n      0x20\n      add\n      0x00\n      swap1\n    tag_262:\n      dup3\n      dup3\n      lt\n      iszero\n      tag_263\n      jumpi\n      dup4\n      dup3\n      swap1\n      0x00\n      mstore\n      keccak256(0x00, 0x20)\n      swap1\n      0x02\n      mul\n      add\n      mload(0x40)\n      dup1\n      0x40\n      add\n      0x40\n      mstore\n      swap1\n      dup2\n      0x00\n      dup3\n      add\n      0x00\n      swap1\n      sload\n      swap1\n      0x0100\n      exp\n      swap1\n      div\n      0xffffffffffffffffffffffffffffffffffffffff\n      and\n      0xffffffffffffffffffffffffffffffffffffffff\n      and\n      0xffffffffffffffffffffffffffffffffffffffff\n      and\n      dup2\n      mstore\n      0x20\n      add\n      0x01\n      dup3\n      add\n      dup1\n      sload\n      tag_265\n      swap1\n      tag_65\n      jump\t// in\n    tag_265:\n      dup1\n      0x1f\n      add\n      0x20\n      dup1\n      swap2\n      div\n      mul\n      0x20\n      add\n      mload(0x40)\n      swap1\n      dup2\n      add\n      0x40\n      mstore\n      dup1\n      swap3\n      swap2\n      swap1\n      dup2\n      dup2\n      mstore\n      0x20\n      add\n      dup3\n      dup1\n      sload\n      tag_266\n      swap1\n      tag_65\n      jump\t// in\n    tag_266:\n      dup1\n      iszero\n      tag_267\n      jumpi\n      dup1\n      0x1f\n      lt\n      tag_268\n      jumpi\n      0x0100\n      dup1\n      dup4\n      sload\n      div\n      mul\n      dup4\n      mstore\n      swap2\n      0x20\n      add\n      swap2\n      jump(tag_267)\n    tag_268:\n      dup3\n      add\n      swap2\n      swap1\n      0x00\n      mstore\n      keccak256(0x00, 0x20)\n      swap1\n    tag_269:\n      dup2\n      sload\n      dup2\n      mstore\n      swap1\n      0x01\n      add\n      swap1\n      0x20\n      add\n      dup1\n      dup4\n      gt\n      tag_269\n      jumpi\n      dup3\n      swap1\n      sub\n      0x1f\n      and\n      dup3\n      add\n      swap2\n    tag_267:\n      pop\n      pop\n      pop\n      pop\n      pop\n      dup2\n      mstore\n      pop\n      pop\n      dup2\n      mstore\n      0x20\n      add\n      swap1\n      0x01\n      add\n      swap1\n      jump(tag_262)\n    tag_263:\n      pop\n      pop\n      pop\n      pop\n      dup2\n      mstore\n      pop\n      pop\n      dup2\n      mstore\n      0x20\n      add\n      swap1\n      0x01\n      add\n      swap1\n      jump(tag_244)\n    tag_245:\n      pop\n      pop\n      pop\n      pop\n      swap1\n      pop\n      jump(tag_242)\n        /* \"Contract.sol\":2335:2467  if (request == true) {... */\n    tag_243:\n        /* \"Contract.sol\":2441:2455  arrayOfMembers */\n      0x08\n        /* \"Contract.sol\":2434:2455  return arrayOfMembers */\n      dup1\n      sload\n      dup1\n      0x20\n      mul\n      0x20\n      add\n      mload(0x40)\n      swap1\n      dup2\n      add\n      0x40\n      mstore\n      dup1\n      swap3\n      swap2\n      swap1\n      dup2\n      dup2\n      mstore\n      0x20\n      add\n      0x00\n      swap1\n    tag_271:\n      dup3\n      dup3\n      lt\n      iszero\n      tag_272\n      jumpi\n      dup4\n      dup3\n      swap1\n      0x00\n      mstore\n      keccak256(0x00, 0x20)\n      swap1\n      0x06\n      mul\n      add\n      mload(0x40)\n      dup1\n      0xc0\n      add\n      0x40\n      mstore\n      swap1\n      dup2\n      0x00\n      dup3\n      add\n      dup1\n      sload\n      tag_274\n      swap1\n      tag_65\n      jump\t// in\n    tag_274:\n      dup1\n      0x1f\n      add\n      0x20\n      dup1\n      swap2\n      div\n      mul\n      0x20\n      add\n      mload(0x40)\n      swap1\n      dup2\n      add\n      0x40\n      mstore\n      dup1\n      swap3\n      swap2\n      swap1\n      dup2\n      dup2\n      mstore\n      0x20\n      add\n      dup3\n      dup1\n      sload\n      tag_275\n      swap1\n      tag_65\n      jump\t// in\n    tag_275:\n      dup1\n      iszero\n      tag_276\n      jumpi\n      dup1\n      0x1f\n      lt\n      tag_277\n      jumpi\n      0x0100\n      dup1\n      dup4\n      sload\n      div\n      mul\n      dup4\n      mstore\n      swap2\n      0x20\n      add\n      swap2\n      jump(tag_276)\n    tag_277:\n      dup3\n      add\n      swap2\n      swap1\n      0x00\n      mstore\n      keccak256(0x00, 0x20)\n      swap1\n    tag_278:\n      dup2\n      sload\n      dup2\n      mstore\n      swap1\n      0x01\n      add\n      swap1\n      0x20\n      add\n      dup1\n      dup4\n      gt\n      tag_278\n      jumpi\n      dup3\n      swap1\n      sub\n      0x1f\n      and\n      dup3\n      add\n      swap2\n    tag_276:\n      pop\n      pop\n      pop\n      pop\n      pop\n      dup2\n      mstore\n      0x20\n      add\n      0x01\n      dup3\n      add\n      dup1\n      sload\n      tag_279\n      swap1\n      tag_65\n      jump\t// in\n    tag_279:\n      dup1\n      0x1f\n      add\n      0x20\n      dup1\n      swap2\n      div\n      mul\n      0x20\n      add\n      mload(0x40)\n      swap1\n      dup2\n      add\n      0x40\n      mstore\n      dup1\n      swap3\n      swap2\n      swap1\n      dup2\n      dup2\n      mstore\n      0x20\n      add\n      dup3\n      dup1\n      sload\n      tag_280\n      swap1\n      tag_65\n      jump\t// in\n    tag_280:\n      dup1\n      iszero\n      tag_281\n      jumpi\n      dup1\n      0x1f\n      lt\n      tag_282\n      jumpi\n      0x0100\n      dup1\n      dup4\n      sload\n      div\n      mul\n      dup4\n      mstore\n      swap2\n      0x20\n      add\n      swap2\n      jump(tag_281)\n    tag_282:\n      dup3\n      add\n      swap2\n      swap1\n      0x00\n      mstore\n      keccak256(0x00, 0x20)\n      swap1\n    tag_283:\n      dup2\n      sload\n      dup2\n      mstore\n      swap1\n      0x01\n      add\n      swap1\n      0x20\n      add\n      dup1\n      dup4\n      gt\n      tag_283\n      jumpi\n      dup3\n      swap1\n      sub\n      0x1f\n      and\n      dup3\n      add\n      swap2\n    tag_281:\n      pop\n      pop\n      pop\n      pop\n      pop\n      dup2\n      mstore\n      0x20\n      add\n      0x02\n      dup3\n      add\n      dup1\n      sload\n      tag_284\n      swap1\n      tag_65\n      jump\t// in\n    tag_284:\n      dup1\n      0x1f\n      add\n      0x20\n      dup1\n      swap2\n      div\n      mul\n      0x20\n      add\n      mload(0x40)\n      swap1\n      dup2\n      add\n      0x40\n      mstore\n      dup1\n      swap3\n      swap2\n      swap1\n      dup2\n      dup2\n      mstore\n      0x20\n      add\n      dup3\n      dup1\n      sload\n      tag_285\n      swap1\n      tag_65\n      jump\t// in\n    tag_285:\n      dup1\n      iszero\n      tag_286\n      jumpi\n      dup1\n      0x1f\n      lt\n      tag_287\n      jumpi\n      0x0100\n      dup1\n      dup4\n      sload\n      div\n      mul\n      dup4\n      mstore\n      swap2\n      0x20\n      add\n      swap2\n      jump(tag_286)\n    tag_287:\n      dup3\n      add\n      swap2\n      swap1\n      0x00\n      mstore\n      keccak256(0x00, 0x20)\n      swap1\n    tag_288:\n      dup2\n      sload\n      dup2\n      mstore\n      swap1\n      0x01\n      add\n      swap1\n      0x20\n      add\n      dup1\n      dup4\n      gt\n      tag_288\n      jumpi\n      dup3\n      swap1\n      sub\n      0x1f\n      and\n      dup3\n      add\n      swap2\n    tag_286:\n      pop\n      pop\n      pop\n      pop\n      pop\n      dup2\n      mstore\n      0x20\n      add\n      0x03\n      dup3\n      add\n      0x00\n      swap1\n      sload\n      swap1\n      0x0100\n      exp\n      swap1\n      div\n      0xffffffffffffffffffffffffffffffffffffffff\n      and\n      0xffffffffffffffffffffffffffffffffffffffff\n      and\n      0xffffffffffffffffffffffffffffffffffffffff\n      and\n      dup2\n      mstore\n      0x20\n      add\n      0x04\n      dup3\n      add\n      sload\n      dup2\n      mstore\n      0x20\n      add\n      0x05\n      dup3\n      add\n      dup1\n      sload\n      dup1\n      0x20\n      mul\n      0x20\n      add\n      mload(0x40)\n      swap1\n      dup2\n      add\n      0x40\n      mstore\n      dup1\n      swap3\n      swap2\n      swap1\n      dup2\n      dup2\n      mstore\n      0x20\n      add\n      0x00\n      swap1\n    tag_289:\n      dup3\n      dup3\n      lt\n      iszero\n      tag_290\n      jumpi\n      dup4\n      dup3\n      swap1\n      0x00\n      mstore\n      keccak256(0x00, 0x20)\n      swap1\n      0x02\n      mul\n      add\n      mload(0x40)\n      dup1\n      0x40\n      add\n      0x40\n      mstore\n      swap1\n      dup2\n      0x00\n      dup3\n      add\n      0x00\n      swap1\n      sload\n      swap1\n      0x0100\n      exp\n      swap1\n      div\n      0xffffffffffffffffffffffffffffffffffffffff\n      and\n      0xffffffffffffffffffffffffffffffffffffffff\n      and\n      0xffffffffffffffffffffffffffffffffffffffff\n      and\n      dup2\n      mstore\n      0x20\n      add\n      0x01\n      dup3\n      add\n      dup1\n      sload\n      tag_292\n      swap1\n      tag_65\n      jump\t// in\n    tag_292:\n      dup1\n      0x1f\n      add\n      0x20\n      dup1\n      swap2\n      div\n      mul\n      0x20\n      add\n      mload(0x40)\n      swap1\n      dup2\n      add\n      0x40\n      mstore\n      dup1\n      swap3\n      swap2\n      swap1\n      dup2\n      dup2\n      mstore\n      0x20\n      add\n      dup3\n      dup1\n      sload\n      tag_293\n      swap1\n      tag_65\n      jump\t// in\n    tag_293:\n      dup1\n      iszero\n      tag_294\n      jumpi\n      dup1\n      0x1f\n      lt\n      tag_295\n      jumpi\n      0x0100\n      dup1\n      dup4\n      sload\n      div\n      mul\n      dup4\n      mstore\n      swap2\n      0x20\n      add\n      swap2\n      jump(tag_294)\n    tag_295:\n      dup3\n      add\n      swap2\n      swap1\n      0x00\n      mstore\n      keccak256(0x00, 0x20)\n      swap1\n    tag_296:\n      dup2\n      sload\n      dup2\n      mstore\n      swap1\n      0x01\n      add\n      swap1\n      0x20\n      add\n      dup1\n      dup4\n      gt\n      tag_296\n      jumpi\n      dup3\n      swap1\n      sub\n      0x1f\n      and\n      dup3\n      add\n      swap2\n    tag_294:\n      pop\n      pop\n      pop\n      pop\n      pop\n      dup2\n      mstore\n      pop\n      pop\n      dup2\n      mstore\n      0x20\n      add\n      swap1\n      0x01\n      add\n      swap1\n      jump(tag_289)\n    tag_290:\n      pop\n      pop\n      pop\n      pop\n      dup2\n      mstore\n      pop\n      pop\n      dup2\n      mstore\n      0x20\n      add\n      swap1\n      0x01\n      add\n      swap1\n      jump(tag_271)\n    tag_272:\n      pop\n      pop\n      pop\n      pop\n      swap1\n      pop\n        /* \"Contract.sol\":2196:2474  function getApprovedOrRequestedMember(bool request)... */\n    tag_242:\n      swap2\n      swap1\n      pop\n      jump\t// out\n        /* \"Contract.sol\":715:1019  function addPost(address _postCreator, string memory _postData) public {... */\n    tag_59:\n        /* \"Contract.sol\":826:838  _postCreator */\n      dup2\n        /* \"Contract.sol\":797:811  instanceOfPost */\n      0x00\n        /* \"Contract.sol\":797:823  instanceOfPost.postCreator */\n      dup1\n      add\n      0x00\n        /* \"Contract.sol\":797:838  instanceOfPost.postCreator = _postCreator */\n      0x0100\n      exp\n      dup2\n      sload\n      dup2\n      0xffffffffffffffffffffffffffffffffffffffff\n      mul\n      not\n      and\n      swap1\n      dup4\n      0xffffffffffffffffffffffffffffffffffffffff\n      and\n      mul\n      or\n      swap1\n      sstore\n      pop\n        /* \"Contract.sol\":875:884  _postData */\n      dup1\n        /* \"Contract.sol\":849:863  instanceOfPost */\n      0x00\n        /* \"Contract.sol\":849:872  instanceOfPost.postData */\n      0x01\n      add\n        /* \"Contract.sol\":849:884  instanceOfPost.postData = _postData */\n      swap1\n      dup2\n      tag_298\n      swap2\n      swap1\n      tag_84\n      jump\t// in\n    tag_298:\n      pop\n        /* \"Contract.sol\":895:915  getMemberWithAddress */\n      0x07\n        /* \"Contract.sol\":895:929  getMemberWithAddress[_postCreator] */\n      0x00\n        /* \"Contract.sol\":916:928  _postCreator */\n      dup4\n        /* \"Contract.sol\":895:929  getMemberWithAddress[_postCreator] */\n      0xffffffffffffffffffffffffffffffffffffffff\n      and\n      0xffffffffffffffffffffffffffffffffffffffff\n      and\n      dup2\n      mstore\n      0x20\n      add\n      swap1\n      dup2\n      mstore\n      0x20\n      add\n      0x00\n      keccak256\n        /* \"Contract.sol\":895:944  getMemberWithAddress[_postCreator].allPostsByUser */\n      0x05\n      add\n        /* \"Contract.sol\":950:964  instanceOfPost */\n      0x00\n        /* \"Contract.sol\":895:965  getMemberWithAddress[_postCreator].allPostsByUser.push(instanceOfPost) */\n      swap1\n      dup1\n      0x01\n      dup2\n      sload\n      add\n      dup1\n      dup3\n      sstore\n      dup1\n      swap2\n      pop\n      pop\n      0x01\n      swap1\n      sub\n      swap1\n      0x00\n      mstore\n      keccak256(0x00, 0x20)\n      swap1\n      0x02\n      mul\n      add\n      0x00\n      swap1\n      swap2\n      swap1\n      swap2\n      swap1\n      swap2\n      pop\n      0x00\n      dup3\n      add\n      0x00\n      swap1\n      sload\n      swap1\n      0x0100\n      exp\n      swap1\n      div\n      0xffffffffffffffffffffffffffffffffffffffff\n      and\n      dup2\n      0x00\n      add\n      exp(0x0100, 0x00)\n      dup2\n      sload\n      dup2\n      0xffffffffffffffffffffffffffffffffffffffff\n      mul\n      not\n      and\n      swap1\n      dup4\n      0xffffffffffffffffffffffffffffffffffffffff\n      and\n      mul\n      or\n      swap1\n      sstore\n      pop\n      0x01\n      dup3\n      add\n      dup2\n      0x01\n      add\n      swap1\n      dup2\n      tag_300\n      swap2\n      swap1\n      tag_110\n      jump\t// in\n    tag_300:\n      pop\n      pop\n      pop\n        /* \"Contract.sol\":976:990  postedByAnyone */\n      0x02\n        /* \"Contract.sol\":996:1010  instanceOfPost */\n      0x00\n        /* \"Contract.sol\":976:1011  postedByAnyone.push(instanceOfPost) */\n      swap1\n      dup1\n      0x01\n      dup2\n      sload\n      add\n      dup1\n      dup3\n      sstore\n      dup1\n      swap2\n      pop\n      pop\n      0x01\n      swap1\n      sub\n      swap1\n      0x00\n      mstore\n      keccak256(0x00, 0x20)\n      swap1\n      0x02\n      mul\n      add\n      0x00\n      swap1\n      swap2\n      swap1\n      swap2\n      swap1\n      swap2\n      pop\n      0x00\n      dup3\n      add\n      0x00\n      swap1\n      sload\n      swap1\n      0x0100\n      exp\n      swap1\n      div\n      0xffffffffffffffffffffffffffffffffffffffff\n      and\n      dup2\n      0x00\n      add\n      exp(0x0100, 0x00)\n      dup2\n      sload\n      dup2\n      0xffffffffffffffffffffffffffffffffffffffff\n      mul\n      not\n      and\n      swap1\n      dup4\n      0xffffffffffffffffffffffffffffffffffffffff\n      and\n      mul\n      or\n      swap1\n      sstore\n      pop\n      0x01\n      dup3\n      add\n      dup2\n      0x01\n      add\n      swap1\n      dup2\n      tag_302\n      swap2\n      swap1\n      tag_110\n      jump\t// in\n    tag_302:\n      pop\n      pop\n      pop\n        /* \"Contract.sol\":715:1019  function addPost(address _postCreator, string memory _postData) public {... */\n      pop\n      pop\n      jump\t// out\n        /* \"Contract.sol\":6899:7185  function removeRequest(address _userAddress) internal {... */\n    tag_241:\n        /* \"Contract.sol\":6964:6977  uint256 index */\n      0x00\n        /* \"Contract.sol\":6980:6996  indexFromRequest */\n      0x05\n        /* \"Contract.sol\":6980:7010  indexFromRequest[_userAddress] */\n      0x00\n        /* \"Contract.sol\":6997:7009  _userAddress */\n      dup4\n        /* \"Contract.sol\":6980:7010  indexFromRequest[_userAddress] */\n      0xffffffffffffffffffffffffffffffffffffffff\n      and\n      0xffffffffffffffffffffffffffffffffffffffff\n      and\n      dup2\n      mstore\n      0x20\n      add\n      swap1\n      dup2\n      mstore\n      0x20\n      add\n      0x00\n      keccak256\n      sload\n        /* \"Contract.sol\":6964:7010  uint256 index = indexFromRequest[_userAddress] */\n      swap1\n      pop\n        /* \"Contract.sol\":7054:7077  arrayOfRequestedMembers */\n      0x0b\n        /* \"Contract.sol\":7125:7126  1 */\n      0x01\n        /* \"Contract.sol\":7092:7115  arrayOfRequestedMembers */\n      0x0b\n        /* \"Contract.sol\":7092:7122  arrayOfRequestedMembers.length */\n      dup1\n      sload\n      swap1\n      pop\n        /* \"Contract.sol\":7092:7126  arrayOfRequestedMembers.length - 1 */\n      tag_304\n      swap2\n      swap1\n      tag_305\n      jump\t// in\n    tag_304:\n        /* \"Contract.sol\":7054:7137  arrayOfRequestedMembers[... */\n      dup2\n      sload\n      dup2\n      lt\n      tag_306\n      jumpi\n      tag_307\n      tag_308\n      jump\t// in\n    tag_307:\n    tag_306:\n      swap1\n      0x00\n      mstore\n      keccak256(0x00, 0x20)\n      swap1\n      0x06\n      mul\n      add\n        /* \"Contract.sol\":7021:7044  arrayOfRequestedMembers */\n      0x0b\n        /* \"Contract.sol\":7045:7050  index */\n      dup3\n        /* \"Contract.sol\":7021:7051  arrayOfRequestedMembers[index] */\n      dup2\n      sload\n      dup2\n      lt\n      tag_310\n      jumpi\n      tag_311\n      tag_308\n      jump\t// in\n    tag_311:\n    tag_310:\n      swap1\n      0x00\n      mstore\n      keccak256(0x00, 0x20)\n      swap1\n      0x06\n      mul\n      add\n        /* \"Contract.sol\":7021:7137  arrayOfRequestedMembers[index] = arrayOfRequestedMembers[... */\n      0x00\n      dup3\n      add\n      dup2\n      0x00\n      add\n      swap1\n      dup2\n      tag_313\n      swap2\n      swap1\n      tag_110\n      jump\t// in\n    tag_313:\n      pop\n      0x01\n      dup3\n      add\n      dup2\n      0x01\n      add\n      swap1\n      dup2\n      tag_314\n      swap2\n      swap1\n      tag_110\n      jump\t// in\n    tag_314:\n      pop\n      0x02\n      dup3\n      add\n      dup2\n      0x02\n      add\n      swap1\n      dup2\n      tag_315\n      swap2\n      swap1\n      tag_110\n      jump\t// in\n    tag_315:\n      pop\n      0x03\n      dup3\n      add\n      0x00\n      swap1\n      sload\n      swap1\n      0x0100\n      exp\n      swap1\n      div\n      0xffffffffffffffffffffffffffffffffffffffff\n      and\n      dup2\n      0x03\n      add\n      exp(0x0100, 0x00)\n      dup2\n      sload\n      dup2\n      0xffffffffffffffffffffffffffffffffffffffff\n      mul\n      not\n      and\n      swap1\n      dup4\n      0xffffffffffffffffffffffffffffffffffffffff\n      and\n      mul\n      or\n      swap1\n      sstore\n      pop\n      0x04\n      dup3\n      add\n      sload\n      dup2\n      0x04\n      add\n      sstore\n      0x05\n      dup3\n      add\n      dup2\n      0x05\n      add\n      swap1\n      dup1\n      sload\n      tag_316\n      swap3\n      swap2\n      swap1\n      tag_114\n      jump\t// in\n    tag_316:\n      pop\n      swap1\n      pop\n      pop\n        /* \"Contract.sol\":7148:7171  arrayOfRequestedMembers */\n      0x0b\n        /* \"Contract.sol\":7148:7177  arrayOfRequestedMembers.pop() */\n      dup1\n      sload\n      dup1\n      tag_317\n      jumpi\n      tag_318\n      tag_319\n      jump\t// in\n    tag_318:\n    tag_317:\n      0x01\n      swap1\n      sub\n      dup2\n      dup2\n      swap1\n      0x00\n      mstore\n      keccak256(0x00, 0x20)\n      swap1\n      0x06\n      mul\n      add\n      0x00\n      dup1\n      dup3\n      add\n      0x00\n      tag_321\n      swap2\n      swap1\n      tag_322\n      jump\t// in\n    tag_321:\n      0x01\n      dup3\n      add\n      0x00\n      tag_323\n      swap2\n      swap1\n      tag_322\n      jump\t// in\n    tag_323:\n      0x02\n      dup3\n      add\n      0x00\n      tag_324\n      swap2\n      swap1\n      tag_322\n      jump\t// in\n    tag_324:\n      0x03\n      dup3\n      add\n      exp(0x0100, 0x00)\n      dup2\n      sload\n      swap1\n      0xffffffffffffffffffffffffffffffffffffffff\n      mul\n      not\n      and\n      swap1\n      sstore\n      0x04\n      dup3\n      add\n      0x00\n      swap1\n      sstore\n      0x05\n      dup3\n      add\n      0x00\n      tag_325\n      swap2\n      swap1\n      tag_326\n      jump\t// in\n    tag_325:\n      pop\n      pop\n      swap1\n      sstore\n        /* \"Contract.sol\":6953:7185  {... */\n      pop\n        /* \"Contract.sol\":6899:7185  function removeRequest(address _userAddress) internal {... */\n      pop\n      jump\t// out\n    tag_114:\n      dup3\n      dup1\n      sload\n      dup3\n      dup3\n      sstore\n      swap1\n      0x00\n      mstore\n      keccak256(0x00, 0x20)\n      swap1\n      0x02\n      mul\n      dup2\n      add\n      swap3\n      dup3\n      iszero\n      tag_327\n      jumpi\n      0x00\n      mstore\n      keccak256(0x00, 0x20)\n      swap2\n      0x02\n      mul\n      dup3\n      add\n    tag_328:\n      dup3\n      dup2\n      gt\n      iszero\n      tag_329\n      jumpi\n      dup3\n      dup3\n      0x00\n      dup3\n      add\n      0x00\n      swap1\n      sload\n      swap1\n      0x0100\n      exp\n      swap1\n      div\n      0xffffffffffffffffffffffffffffffffffffffff\n      and\n      dup2\n      0x00\n      add\n      exp(0x0100, 0x00)\n      dup2\n      sload\n      dup2\n      0xffffffffffffffffffffffffffffffffffffffff\n      mul\n      not\n      and\n      swap1\n      dup4\n      0xffffffffffffffffffffffffffffffffffffffff\n      and\n      mul\n      or\n      swap1\n      sstore\n      pop\n      0x01\n      dup3\n      add\n      dup2\n      0x01\n      add\n      swap1\n      dup2\n      tag_330\n      swap2\n      swap1\n      tag_110\n      jump\t// in\n    tag_330:\n      pop\n      pop\n      pop\n      swap2\n      0x02\n      add\n      swap2\n      swap1\n      0x02\n      add\n      swap1\n      jump(tag_328)\n    tag_329:\n    tag_327:\n      pop\n      swap1\n      pop\n      tag_331\n      swap2\n      swap1\n      tag_332\n      jump\t// in\n    tag_331:\n      pop\n      swap1\n      jump\t// out\n    tag_139:\n      mload(0x40)\n      dup1\n      0xc0\n      add\n      0x40\n      mstore\n      dup1\n      0x60\n      dup2\n      mstore\n      0x20\n      add\n      0x60\n      dup2\n      mstore\n      0x20\n      add\n      0x60\n      dup2\n      mstore\n      0x20\n      add\n      and(0xffffffffffffffffffffffffffffffffffffffff, 0x00)\n      dup2\n      mstore\n      0x20\n      add\n      0x00\n      dup2\n      mstore\n      0x20\n      add\n      0x60\n      dup2\n      mstore\n      pop\n      swap1\n      jump\t// out\n    tag_322:\n      pop\n      dup1\n      sload\n      tag_333\n      swap1\n      tag_65\n      jump\t// in\n    tag_333:\n      0x00\n      dup3\n      sstore\n      dup1\n      0x1f\n      lt\n      tag_335\n      jumpi\n      pop\n      jump(tag_334)\n    tag_335:\n      0x1f\n      add\n      0x20\n      swap1\n      div\n      swap1\n      0x00\n      mstore\n      keccak256(0x00, 0x20)\n      swap1\n      dup2\n      add\n      swap1\n      tag_336\n      swap2\n      swap1\n      tag_337\n      jump\t// in\n    tag_336:\n    tag_334:\n      pop\n      jump\t// out\n    tag_326:\n      pop\n      dup1\n      sload\n      0x00\n      dup3\n      sstore\n      0x02\n      mul\n      swap1\n      0x00\n      mstore\n      keccak256(0x00, 0x20)\n      swap1\n      dup2\n      add\n      swap1\n      tag_339\n      swap2\n      swap1\n      tag_332\n      jump\t// in\n    tag_339:\n      pop\n      jump\t// out\n    tag_332:\n    tag_340:\n      dup1\n      dup3\n      gt\n      iszero\n      tag_341\n      jumpi\n      0x00\n      dup1\n      dup3\n      add\n      exp(0x0100, 0x00)\n      dup2\n      sload\n      swap1\n      0xffffffffffffffffffffffffffffffffffffffff\n      mul\n      not\n      and\n      swap1\n      sstore\n      0x01\n      dup3\n      add\n      0x00\n      tag_342\n      swap2\n      swap1\n      tag_322\n      jump\t// in\n    tag_342:\n      pop\n      0x02\n      add\n      jump(tag_340)\n    tag_341:\n      pop\n      swap1\n      jump\t// out\n    tag_337:\n    tag_343:\n      dup1\n      dup3\n      gt\n      iszero\n      tag_344\n      jumpi\n      0x00\n      dup2\n      0x00\n      swap1\n      sstore\n      pop\n      0x01\n      add\n      jump(tag_343)\n    tag_344:\n      pop\n      swap1\n      jump\t// out\n        /* \"#utility.yul\":7:82   */\n    tag_345:\n        /* \"#utility.yul\":40:46   */\n      0x00\n        /* \"#utility.yul\":73:75   */\n      0x40\n        /* \"#utility.yul\":67:76   */\n      mload\n        /* \"#utility.yul\":57:76   */\n      swap1\n      pop\n        /* \"#utility.yul\":7:82   */\n      swap1\n      jump\t// out\n        /* \"#utility.yul\":88:205   */\n    tag_346:\n        /* \"#utility.yul\":197:198   */\n      0x00\n        /* \"#utility.yul\":194:195   */\n      dup1\n        /* \"#utility.yul\":187:199   */\n      revert\n        /* \"#utility.yul\":211:328   */\n    tag_347:\n        /* \"#utility.yul\":320:321   */\n      0x00\n        /* \"#utility.yul\":317:318   */\n      dup1\n        /* \"#utility.yul\":310:322   */\n      revert\n        /* \"#utility.yul\":334:460   */\n    tag_348:\n        /* \"#utility.yul\":371:378   */\n      0x00\n        /* \"#utility.yul\":411:453   */\n      0xffffffffffffffffffffffffffffffffffffffff\n        /* \"#utility.yul\":404:409   */\n      dup3\n        /* \"#utility.yul\":400:454   */\n      and\n        /* \"#utility.yul\":389:454   */\n      swap1\n      pop\n        /* \"#utility.yul\":334:460   */\n      swap2\n      swap1\n      pop\n      jump\t// out\n        /* \"#utility.yul\":466:562   */\n    tag_349:\n        /* \"#utility.yul\":503:510   */\n      0x00\n        /* \"#utility.yul\":532:556   */\n      tag_429\n        /* \"#utility.yul\":550:555   */\n      dup3\n        /* \"#utility.yul\":532:556   */\n      tag_348\n      jump\t// in\n    tag_429:\n        /* \"#utility.yul\":521:556   */\n      swap1\n      pop\n        /* \"#utility.yul\":466:562   */\n      swap2\n      swap1\n      pop\n      jump\t// out\n        /* \"#utility.yul\":568:690   */\n    tag_350:\n        /* \"#utility.yul\":641:665   */\n      tag_431\n        /* \"#utility.yul\":659:664   */\n      dup2\n        /* \"#utility.yul\":641:665   */\n      tag_349\n      jump\t// in\n    tag_431:\n        /* \"#utility.yul\":634:639   */\n      dup2\n        /* \"#utility.yul\":631:666   */\n      eq\n        /* \"#utility.yul\":621:684   */\n      tag_432\n      jumpi\n        /* \"#utility.yul\":680:681   */\n      0x00\n        /* \"#utility.yul\":677:678   */\n      dup1\n        /* \"#utility.yul\":670:682   */\n      revert\n        /* \"#utility.yul\":621:684   */\n    tag_432:\n        /* \"#utility.yul\":568:690   */\n      pop\n      jump\t// out\n        /* \"#utility.yul\":696:835   */\n    tag_351:\n        /* \"#utility.yul\":742:747   */\n      0x00\n        /* \"#utility.yul\":780:786   */\n      dup2\n        /* \"#utility.yul\":767:787   */\n      calldataload\n        /* \"#utility.yul\":758:787   */\n      swap1\n      pop\n        /* \"#utility.yul\":796:829   */\n      tag_434\n        /* \"#utility.yul\":823:828   */\n      dup2\n        /* \"#utility.yul\":796:829   */\n      tag_350\n      jump\t// in\n    tag_434:\n        /* \"#utility.yul\":696:835   */\n      swap3\n      swap2\n      pop\n      pop\n      jump\t// out\n        /* \"#utility.yul\":841:1170   */\n    tag_15:\n        /* \"#utility.yul\":900:906   */\n      0x00\n        /* \"#utility.yul\":949:951   */\n      0x20\n        /* \"#utility.yul\":937:946   */\n      dup3\n        /* \"#utility.yul\":928:935   */\n      dup5\n        /* \"#utility.yul\":924:947   */\n      sub\n        /* \"#utility.yul\":920:952   */\n      slt\n        /* \"#utility.yul\":917:1036   */\n      iszero\n      tag_436\n      jumpi\n        /* \"#utility.yul\":955:1034   */\n      tag_437\n      tag_346\n      jump\t// in\n    tag_437:\n        /* \"#utility.yul\":917:1036   */\n    tag_436:\n        /* \"#utility.yul\":1075:1076   */\n      0x00\n        /* \"#utility.yul\":1100:1153   */\n      tag_438\n        /* \"#utility.yul\":1145:1152   */\n      dup5\n        /* \"#utility.yul\":1136:1142   */\n      dup3\n        /* \"#utility.yul\":1125:1134   */\n      dup6\n        /* \"#utility.yul\":1121:1143   */\n      add\n        /* \"#utility.yul\":1100:1153   */\n      tag_351\n      jump\t// in\n    tag_438:\n        /* \"#utility.yul\":1090:1153   */\n      swap2\n      pop\n        /* \"#utility.yul\":1046:1163   */\n      pop\n        /* \"#utility.yul\":841:1170   */\n      swap3\n      swap2\n      pop\n      pop\n      jump\t// out\n        /* \"#utility.yul\":1176:1319   */\n    tag_352:\n        /* \"#utility.yul\":1272:1278   */\n      0x00\n        /* \"#utility.yul\":1306:1311   */\n      dup2\n        /* \"#utility.yul\":1300:1312   */\n      mload\n        /* \"#utility.yul\":1290:1312   */\n      swap1\n      pop\n        /* \"#utility.yul\":1176:1319   */\n      swap2\n      swap1\n      pop\n      jump\t// out\n        /* \"#utility.yul\":1325:1538   */\n    tag_353:\n        /* \"#utility.yul\":1453:1464   */\n      0x00\n        /* \"#utility.yul\":1487:1493   */\n      dup3\n        /* \"#utility.yul\":1482:1485   */\n      dup3\n        /* \"#utility.yul\":1475:1494   */\n      mstore\n        /* \"#utility.yul\":1527:1531   */\n      0x20\n        /* \"#utility.yul\":1522:1525   */\n      dup3\n        /* \"#utility.yul\":1518:1532   */\n      add\n        /* \"#utility.yul\":1503:1532   */\n      swap1\n      pop\n        /* \"#utility.yul\":1325:1538   */\n      swap3\n      swap2\n      pop\n      pop\n      jump\t// out\n        /* \"#utility.yul\":1544:1705   */\n    tag_354:\n        /* \"#utility.yul\":1640:1644   */\n      0x00\n        /* \"#utility.yul\":1663:1666   */\n      dup2\n        /* \"#utility.yul\":1655:1666   */\n      swap1\n      pop\n        /* \"#utility.yul\":1693:1697   */\n      0x20\n        /* \"#utility.yul\":1688:1691   */\n      dup3\n        /* \"#utility.yul\":1684:1698   */\n      add\n        /* \"#utility.yul\":1676:1698   */\n      swap1\n      pop\n        /* \"#utility.yul\":1544:1705   */\n      swap2\n      swap1\n      pop\n      jump\t// out\n        /* \"#utility.yul\":1711:1819   */\n    tag_355:\n        /* \"#utility.yul\":1788:1812   */\n      tag_443\n        /* \"#utility.yul\":1806:1811   */\n      dup2\n        /* \"#utility.yul\":1788:1812   */\n      tag_349\n      jump\t// in\n    tag_443:\n        /* \"#utility.yul\":1783:1786   */\n      dup3\n        /* \"#utility.yul\":1776:1813   */\n      mstore\n        /* \"#utility.yul\":1711:1819   */\n      pop\n      pop\n      jump\t// out\n        /* \"#utility.yul\":1825:1924   */\n    tag_356:\n        /* \"#utility.yul\":1877:1883   */\n      0x00\n        /* \"#utility.yul\":1911:1916   */\n      dup2\n        /* \"#utility.yul\":1905:1917   */\n      mload\n        /* \"#utility.yul\":1895:1917   */\n      swap1\n      pop\n        /* \"#utility.yul\":1825:1924   */\n      swap2\n      swap1\n      pop\n      jump\t// out\n        /* \"#utility.yul\":1930:2089   */\n    tag_357:\n        /* \"#utility.yul\":2004:2015   */\n      0x00\n        /* \"#utility.yul\":2038:2044   */\n      dup3\n        /* \"#utility.yul\":2033:2036   */\n      dup3\n        /* \"#utility.yul\":2026:2045   */\n      mstore\n        /* \"#utility.yul\":2078:2082   */\n      0x20\n        /* \"#utility.yul\":2073:2076   */\n      dup3\n        /* \"#utility.yul\":2069:2083   */\n      add\n        /* \"#utility.yul\":2054:2083   */\n      swap1\n      pop\n        /* \"#utility.yul\":1930:2089   */\n      swap3\n      swap2\n      pop\n      pop\n      jump\t// out\n        /* \"#utility.yul\":2095:2341   */\n    tag_358:\n        /* \"#utility.yul\":2176:2177   */\n      0x00\n        /* \"#utility.yul\":2186:2299   */\n    tag_447:\n        /* \"#utility.yul\":2200:2206   */\n      dup4\n        /* \"#utility.yul\":2197:2198   */\n      dup2\n        /* \"#utility.yul\":2194:2207   */\n      lt\n        /* \"#utility.yul\":2186:2299   */\n      iszero\n      tag_449\n      jumpi\n        /* \"#utility.yul\":2285:2286   */\n      dup1\n        /* \"#utility.yul\":2280:2283   */\n      dup3\n        /* \"#utility.yul\":2276:2287   */\n      add\n        /* \"#utility.yul\":2270:2288   */\n      mload\n        /* \"#utility.yul\":2266:2267   */\n      dup2\n        /* \"#utility.yul\":2261:2264   */\n      dup5\n        /* \"#utility.yul\":2257:2268   */\n      add\n        /* \"#utility.yul\":2250:2289   */\n      mstore\n        /* \"#utility.yul\":2222:2224   */\n      0x20\n        /* \"#utility.yul\":2219:2220   */\n      dup2\n        /* \"#utility.yul\":2215:2225   */\n      add\n        /* \"#utility.yul\":2210:2225   */\n      swap1\n      pop\n        /* \"#utility.yul\":2186:2299   */\n      jump(tag_447)\n    tag_449:\n        /* \"#utility.yul\":2333:2334   */\n      0x00\n        /* \"#utility.yul\":2324:2330   */\n      dup5\n        /* \"#utility.yul\":2319:2322   */\n      dup5\n        /* \"#utility.yul\":2315:2331   */\n      add\n        /* \"#utility.yul\":2308:2335   */\n      mstore\n        /* \"#utility.yul\":2157:2341   */\n      pop\n        /* \"#utility.yul\":2095:2341   */\n      pop\n      pop\n      pop\n      jump\t// out\n        /* \"#utility.yul\":2347:2449   */\n    tag_359:\n        /* \"#utility.yul\":2388:2394   */\n      0x00\n        /* \"#utility.yul\":2439:2441   */\n      0x1f\n        /* \"#utility.yul\":2435:2442   */\n      not\n        /* \"#utility.yul\":2430:2432   */\n      0x1f\n        /* \"#utility.yul\":2423:2428   */\n      dup4\n        /* \"#utility.yul\":2419:2433   */\n      add\n        /* \"#utility.yul\":2415:2443   */\n      and\n        /* \"#utility.yul\":2405:2443   */\n      swap1\n      pop\n        /* \"#utility.yul\":2347:2449   */\n      swap2\n      swap1\n      pop\n      jump\t// out\n        /* \"#utility.yul\":2455:2812   */\n    tag_360:\n        /* \"#utility.yul\":2533:2536   */\n      0x00\n        /* \"#utility.yul\":2561:2600   */\n      tag_452\n        /* \"#utility.yul\":2594:2599   */\n      dup3\n        /* \"#utility.yul\":2561:2600   */\n      tag_356\n      jump\t// in\n    tag_452:\n        /* \"#utility.yul\":2616:2677   */\n      tag_453\n        /* \"#utility.yul\":2670:2676   */\n      dup2\n        /* \"#utility.yul\":2665:2668   */\n      dup6\n        /* \"#utility.yul\":2616:2677   */\n      tag_357\n      jump\t// in\n    tag_453:\n        /* \"#utility.yul\":2609:2677   */\n      swap4\n      pop\n        /* \"#utility.yul\":2686:2751   */\n      tag_454\n        /* \"#utility.yul\":2744:2750   */\n      dup2\n        /* \"#utility.yul\":2739:2742   */\n      dup6\n        /* \"#utility.yul\":2732:2736   */\n      0x20\n        /* \"#utility.yul\":2725:2730   */\n      dup7\n        /* \"#utility.yul\":2721:2737   */\n      add\n        /* \"#utility.yul\":2686:2751   */\n      tag_358\n      jump\t// in\n    tag_454:\n        /* \"#utility.yul\":2776:2805   */\n      tag_455\n        /* \"#utility.yul\":2798:2804   */\n      dup2\n        /* \"#utility.yul\":2776:2805   */\n      tag_359\n      jump\t// in\n    tag_455:\n        /* \"#utility.yul\":2771:2774   */\n      dup5\n        /* \"#utility.yul\":2767:2806   */\n      add\n        /* \"#utility.yul\":2760:2806   */\n      swap2\n      pop\n        /* \"#utility.yul\":2537:2812   */\n      pop\n        /* \"#utility.yul\":2455:2812   */\n      swap3\n      swap2\n      pop\n      pop\n      jump\t// out\n        /* \"#utility.yul\":2888:3503   */\n    tag_361:\n        /* \"#utility.yul\":3005:3008   */\n      0x00\n        /* \"#utility.yul\":3041:3045   */\n      0x40\n        /* \"#utility.yul\":3036:3039   */\n      dup4\n        /* \"#utility.yul\":3032:3046   */\n      add\n        /* \"#utility.yul\":3135:3139   */\n      0x00\n        /* \"#utility.yul\":3128:3133   */\n      dup4\n        /* \"#utility.yul\":3124:3140   */\n      add\n        /* \"#utility.yul\":3118:3141   */\n      mload\n        /* \"#utility.yul\":3154:3217   */\n      tag_457\n        /* \"#utility.yul\":3211:3215   */\n      0x00\n        /* \"#utility.yul\":3206:3209   */\n      dup7\n        /* \"#utility.yul\":3202:3216   */\n      add\n        /* \"#utility.yul\":3188:3200   */\n      dup3\n        /* \"#utility.yul\":3154:3217   */\n      tag_355\n      jump\t// in\n    tag_457:\n        /* \"#utility.yul\":3056:3227   */\n      pop\n        /* \"#utility.yul\":3313:3317   */\n      0x20\n        /* \"#utility.yul\":3306:3311   */\n      dup4\n        /* \"#utility.yul\":3302:3318   */\n      add\n        /* \"#utility.yul\":3296:3319   */\n      mload\n        /* \"#utility.yul\":3366:3369   */\n      dup5\n        /* \"#utility.yul\":3360:3364   */\n      dup3\n        /* \"#utility.yul\":3356:3370   */\n      sub\n        /* \"#utility.yul\":3349:3353   */\n      0x20\n        /* \"#utility.yul\":3344:3347   */\n      dup7\n        /* \"#utility.yul\":3340:3354   */\n      add\n        /* \"#utility.yul\":3333:3371   */\n      mstore\n        /* \"#utility.yul\":3392:3465   */\n      tag_458\n        /* \"#utility.yul\":3460:3464   */\n      dup3\n        /* \"#utility.yul\":3446:3458   */\n      dup3\n        /* \"#utility.yul\":3392:3465   */\n      tag_360\n      jump\t// in\n    tag_458:\n        /* \"#utility.yul\":3384:3465   */\n      swap2\n      pop\n        /* \"#utility.yul\":3237:3476   */\n      pop\n        /* \"#utility.yul\":3493:3497   */\n      dup1\n        /* \"#utility.yul\":3486:3497   */\n      swap2\n      pop\n        /* \"#utility.yul\":3010:3503   */\n      pop\n        /* \"#utility.yul\":2888:3503   */\n      swap3\n      swap2\n      pop\n      pop\n      jump\t// out\n        /* \"#utility.yul\":3509:3781   */\n    tag_362:\n        /* \"#utility.yul\":3636:3646   */\n      0x00\n        /* \"#utility.yul\":3671:3775   */\n      tag_460\n        /* \"#utility.yul\":3771:3774   */\n      dup4\n        /* \"#utility.yul\":3763:3769   */\n      dup4\n        /* \"#utility.yul\":3671:3775   */\n      tag_361\n      jump\t// in\n    tag_460:\n        /* \"#utility.yul\":3657:3775   */\n      swap1\n      pop\n        /* \"#utility.yul\":3509:3781   */\n      swap3\n      swap2\n      pop\n      pop\n      jump\t// out\n        /* \"#utility.yul\":3787:3929   */\n    tag_363:\n        /* \"#utility.yul\":3886:3890   */\n      0x00\n        /* \"#utility.yul\":3918:3922   */\n      0x20\n        /* \"#utility.yul\":3913:3916   */\n      dup3\n        /* \"#utility.yul\":3909:3923   */\n      add\n        /* \"#utility.yul\":3901:3923   */\n      swap1\n      pop\n        /* \"#utility.yul\":3787:3929   */\n      swap2\n      swap1\n      pop\n      jump\t// out\n        /* \"#utility.yul\":4009:5152   */\n    tag_364:\n        /* \"#utility.yul\":4186:4189   */\n      0x00\n        /* \"#utility.yul\":4215:4298   */\n      tag_463\n        /* \"#utility.yul\":4292:4297   */\n      dup3\n        /* \"#utility.yul\":4215:4298   */\n      tag_352\n      jump\t// in\n    tag_463:\n        /* \"#utility.yul\":4314:4429   */\n      tag_464\n        /* \"#utility.yul\":4422:4428   */\n      dup2\n        /* \"#utility.yul\":4417:4420   */\n      dup6\n        /* \"#utility.yul\":4314:4429   */\n      tag_353\n      jump\t// in\n    tag_464:\n        /* \"#utility.yul\":4307:4429   */\n      swap4\n      pop\n        /* \"#utility.yul\":4455:4458   */\n      dup4\n        /* \"#utility.yul\":4500:4504   */\n      0x20\n        /* \"#utility.yul\":4492:4498   */\n      dup3\n        /* \"#utility.yul\":4488:4505   */\n      mul\n        /* \"#utility.yul\":4483:4486   */\n      dup6\n        /* \"#utility.yul\":4479:4506   */\n      add\n        /* \"#utility.yul\":4530:4615   */\n      tag_465\n        /* \"#utility.yul\":4609:4614   */\n      dup6\n        /* \"#utility.yul\":4530:4615   */\n      tag_354\n      jump\t// in\n    tag_465:\n        /* \"#utility.yul\":4638:4645   */\n      dup1\n        /* \"#utility.yul\":4669:4670   */\n      0x00\n        /* \"#utility.yul\":4654:5107   */\n    tag_466:\n        /* \"#utility.yul\":4679:4685   */\n      dup6\n        /* \"#utility.yul\":4676:4677   */\n      dup2\n        /* \"#utility.yul\":4673:4686   */\n      lt\n        /* \"#utility.yul\":4654:5107   */\n      iszero\n      tag_468\n      jumpi\n        /* \"#utility.yul\":4750:4759   */\n      dup5\n        /* \"#utility.yul\":4744:4748   */\n      dup5\n        /* \"#utility.yul\":4740:4760   */\n      sub\n        /* \"#utility.yul\":4735:4738   */\n      dup10\n        /* \"#utility.yul\":4728:4761   */\n      mstore\n        /* \"#utility.yul\":4801:4807   */\n      dup2\n        /* \"#utility.yul\":4795:4808   */\n      mload\n        /* \"#utility.yul\":4829:4951   */\n      tag_469\n        /* \"#utility.yul\":4946:4950   */\n      dup6\n        /* \"#utility.yul\":4931:4944   */\n      dup3\n        /* \"#utility.yul\":4829:4951   */\n      tag_362\n      jump\t// in\n    tag_469:\n        /* \"#utility.yul\":4821:4951   */\n      swap5\n      pop\n        /* \"#utility.yul\":4974:5063   */\n      tag_470\n        /* \"#utility.yul\":5056:5062   */\n      dup4\n        /* \"#utility.yul\":4974:5063   */\n      tag_363\n      jump\t// in\n    tag_470:\n        /* \"#utility.yul\":4964:5063   */\n      swap3\n      pop\n        /* \"#utility.yul\":5092:5096   */\n      0x20\n        /* \"#utility.yul\":5087:5090   */\n      dup11\n        /* \"#utility.yul\":5083:5097   */\n      add\n        /* \"#utility.yul\":5076:5097   */\n      swap10\n      pop\n        /* \"#utility.yul\":4714:5107   */\n      pop\n        /* \"#utility.yul\":4701:4702   */\n      0x01\n        /* \"#utility.yul\":4698:4699   */\n      dup2\n        /* \"#utility.yul\":4694:4703   */\n      add\n        /* \"#utility.yul\":4689:4703   */\n      swap1\n      pop\n        /* \"#utility.yul\":4654:5107   */\n      jump(tag_466)\n    tag_468:\n        /* \"#utility.yul\":4658:4672   */\n      pop\n        /* \"#utility.yul\":5123:5127   */\n      dup3\n        /* \"#utility.yul\":5116:5127   */\n      swap8\n      pop\n        /* \"#utility.yul\":5143:5146   */\n      dup8\n        /* \"#utility.yul\":5136:5146   */\n      swap6\n      pop\n        /* \"#utility.yul\":4191:5152   */\n      pop\n      pop\n      pop\n      pop\n      pop\n        /* \"#utility.yul\":4009:5152   */\n      swap3\n      swap2\n      pop\n      pop\n      jump\t// out\n        /* \"#utility.yul\":5158:5647   */\n    tag_18:\n        /* \"#utility.yul\":5359:5363   */\n      0x00\n        /* \"#utility.yul\":5397:5399   */\n      0x20\n        /* \"#utility.yul\":5386:5395   */\n      dup3\n        /* \"#utility.yul\":5382:5400   */\n      add\n        /* \"#utility.yul\":5374:5400   */\n      swap1\n      pop\n        /* \"#utility.yul\":5446:5455   */\n      dup2\n        /* \"#utility.yul\":5440:5444   */\n      dup2\n        /* \"#utility.yul\":5436:5456   */\n      sub\n        /* \"#utility.yul\":5432:5433   */\n      0x00\n        /* \"#utility.yul\":5421:5430   */\n      dup4\n        /* \"#utility.yul\":5417:5434   */\n      add\n        /* \"#utility.yul\":5410:5457   */\n      mstore\n        /* \"#utility.yul\":5474:5640   */\n      tag_472\n        /* \"#utility.yul\":5635:5639   */\n      dup2\n        /* \"#utility.yul\":5626:5632   */\n      dup5\n        /* \"#utility.yul\":5474:5640   */\n      tag_364\n      jump\t// in\n    tag_472:\n        /* \"#utility.yul\":5466:5640   */\n      swap1\n      pop\n        /* \"#utility.yul\":5158:5647   */\n      swap3\n      swap2\n      pop\n      pop\n      jump\t// out\n        /* \"#utility.yul\":5653:5743   */\n    tag_365:\n        /* \"#utility.yul\":5687:5694   */\n      0x00\n        /* \"#utility.yul\":5730:5735   */\n      dup2\n        /* \"#utility.yul\":5723:5736   */\n      iszero\n        /* \"#utility.yul\":5716:5737   */\n      iszero\n        /* \"#utility.yul\":5705:5737   */\n      swap1\n      pop\n        /* \"#utility.yul\":5653:5743   */\n      swap2\n      swap1\n      pop\n      jump\t// out\n        /* \"#utility.yul\":5749:5858   */\n    tag_366:\n        /* \"#utility.yul\":5830:5851   */\n      tag_475\n        /* \"#utility.yul\":5845:5850   */\n      dup2\n        /* \"#utility.yul\":5830:5851   */\n      tag_365\n      jump\t// in\n    tag_475:\n        /* \"#utility.yul\":5825:5828   */\n      dup3\n        /* \"#utility.yul\":5818:5852   */\n      mstore\n        /* \"#utility.yul\":5749:5858   */\n      pop\n      pop\n      jump\t// out\n        /* \"#utility.yul\":5864:6074   */\n    tag_28:\n        /* \"#utility.yul\":5951:5955   */\n      0x00\n        /* \"#utility.yul\":5989:5991   */\n      0x20\n        /* \"#utility.yul\":5978:5987   */\n      dup3\n        /* \"#utility.yul\":5974:5992   */\n      add\n        /* \"#utility.yul\":5966:5992   */\n      swap1\n      pop\n        /* \"#utility.yul\":6002:6067   */\n      tag_477\n        /* \"#utility.yul\":6064:6065   */\n      0x00\n        /* \"#utility.yul\":6053:6062   */\n      dup4\n        /* \"#utility.yul\":6049:6066   */\n      add\n        /* \"#utility.yul\":6040:6046   */\n      dup5\n        /* \"#utility.yul\":6002:6067   */\n      tag_366\n      jump\t// in\n    tag_477:\n        /* \"#utility.yul\":5864:6074   */\n      swap3\n      swap2\n      pop\n      pop\n      jump\t// out\n        /* \"#utility.yul\":6080:6197   */\n    tag_367:\n        /* \"#utility.yul\":6189:6190   */\n      0x00\n        /* \"#utility.yul\":6186:6187   */\n      dup1\n        /* \"#utility.yul\":6179:6191   */\n      revert\n        /* \"#utility.yul\":6203:6320   */\n    tag_368:\n        /* \"#utility.yul\":6312:6313   */\n      0x00\n        /* \"#utility.yul\":6309:6310   */\n      dup1\n        /* \"#utility.yul\":6302:6314   */\n      revert\n        /* \"#utility.yul\":6326:6506   */\n    tag_369:\n        /* \"#utility.yul\":6374:6451   */\n      0x4e487b7100000000000000000000000000000000000000000000000000000000\n        /* \"#utility.yul\":6371:6372   */\n      0x00\n        /* \"#utility.yul\":6364:6452   */\n      mstore\n        /* \"#utility.yul\":6471:6475   */\n      0x41\n        /* \"#utility.yul\":6468:6469   */\n      0x04\n        /* \"#utility.yul\":6461:6476   */\n      mstore\n        /* \"#utility.yul\":6495:6499   */\n      0x24\n        /* \"#utility.yul\":6492:6493   */\n      0x00\n        /* \"#utility.yul\":6485:6500   */\n      revert\n        /* \"#utility.yul\":6512:6793   */\n    tag_370:\n        /* \"#utility.yul\":6595:6622   */\n      tag_482\n        /* \"#utility.yul\":6617:6621   */\n      dup3\n        /* \"#utility.yul\":6595:6622   */\n      tag_359\n      jump\t// in\n    tag_482:\n        /* \"#utility.yul\":6587:6593   */\n      dup2\n        /* \"#utility.yul\":6583:6623   */\n      add\n        /* \"#utility.yul\":6725:6731   */\n      dup2\n        /* \"#utility.yul\":6713:6723   */\n      dup2\n        /* \"#utility.yul\":6710:6732   */\n      lt\n        /* \"#utility.yul\":6689:6707   */\n      0xffffffffffffffff\n        /* \"#utility.yul\":6677:6687   */\n      dup3\n        /* \"#utility.yul\":6674:6708   */\n      gt\n        /* \"#utility.yul\":6671:6733   */\n      or\n        /* \"#utility.yul\":6668:6756   */\n      iszero\n      tag_483\n      jumpi\n        /* \"#utility.yul\":6736:6754   */\n      tag_484\n      tag_369\n      jump\t// in\n    tag_484:\n        /* \"#utility.yul\":6668:6756   */\n    tag_483:\n        /* \"#utility.yul\":6776:6786   */\n      dup1\n        /* \"#utility.yul\":6772:6774   */\n      0x40\n        /* \"#utility.yul\":6765:6787   */\n      mstore\n        /* \"#utility.yul\":6555:6793   */\n      pop\n        /* \"#utility.yul\":6512:6793   */\n      pop\n      pop\n      jump\t// out\n        /* \"#utility.yul\":6799:6928   */\n    tag_371:\n        /* \"#utility.yul\":6833:6839   */\n      0x00\n        /* \"#utility.yul\":6860:6880   */\n      tag_486\n      tag_345\n      jump\t// in\n    tag_486:\n        /* \"#utility.yul\":6850:6880   */\n      swap1\n      pop\n        /* \"#utility.yul\":6889:6922   */\n      tag_487\n        /* \"#utility.yul\":6917:6921   */\n      dup3\n        /* \"#utility.yul\":6909:6915   */\n      dup3\n        /* \"#utility.yul\":6889:6922   */\n      tag_370\n      jump\t// in\n    tag_487:\n        /* \"#utility.yul\":6799:6928   */\n      swap2\n      swap1\n      pop\n      jump\t// out\n        /* \"#utility.yul\":6934:7242   */\n    tag_372:\n        /* \"#utility.yul\":6996:7000   */\n      0x00\n        /* \"#utility.yul\":7086:7104   */\n      0xffffffffffffffff\n        /* \"#utility.yul\":7078:7084   */\n      dup3\n        /* \"#utility.yul\":7075:7105   */\n      gt\n        /* \"#utility.yul\":7072:7128   */\n      iszero\n      tag_489\n      jumpi\n        /* \"#utility.yul\":7108:7126   */\n      tag_490\n      tag_369\n      jump\t// in\n    tag_490:\n        /* \"#utility.yul\":7072:7128   */\n    tag_489:\n        /* \"#utility.yul\":7146:7175   */\n      tag_491\n        /* \"#utility.yul\":7168:7174   */\n      dup3\n        /* \"#utility.yul\":7146:7175   */\n      tag_359\n      jump\t// in\n    tag_491:\n        /* \"#utility.yul\":7138:7175   */\n      swap1\n      pop\n        /* \"#utility.yul\":7230:7234   */\n      0x20\n        /* \"#utility.yul\":7224:7228   */\n      dup2\n        /* \"#utility.yul\":7220:7235   */\n      add\n        /* \"#utility.yul\":7212:7235   */\n      swap1\n      pop\n        /* \"#utility.yul\":6934:7242   */\n      swap2\n      swap1\n      pop\n      jump\t// out\n        /* \"#utility.yul\":7248:7394   */\n    tag_373:\n        /* \"#utility.yul\":7345:7351   */\n      dup3\n        /* \"#utility.yul\":7340:7343   */\n      dup2\n        /* \"#utility.yul\":7335:7338   */\n      dup4\n        /* \"#utility.yul\":7322:7352   */\n      calldatacopy\n        /* \"#utility.yul\":7386:7387   */\n      0x00\n        /* \"#utility.yul\":7377:7383   */\n      dup4\n        /* \"#utility.yul\":7372:7375   */\n      dup4\n        /* \"#utility.yul\":7368:7384   */\n      add\n        /* \"#utility.yul\":7361:7388   */\n      mstore\n        /* \"#utility.yul\":7248:7394   */\n      pop\n      pop\n      pop\n      jump\t// out\n        /* \"#utility.yul\":7400:7825   */\n    tag_374:\n        /* \"#utility.yul\":7478:7483   */\n      0x00\n        /* \"#utility.yul\":7503:7569   */\n      tag_494\n        /* \"#utility.yul\":7519:7568   */\n      tag_495\n        /* \"#utility.yul\":7561:7567   */\n      dup5\n        /* \"#utility.yul\":7519:7568   */\n      tag_372\n      jump\t// in\n    tag_495:\n        /* \"#utility.yul\":7503:7569   */\n      tag_371\n      jump\t// in\n    tag_494:\n        /* \"#utility.yul\":7494:7569   */\n      swap1\n      pop\n        /* \"#utility.yul\":7592:7598   */\n      dup3\n        /* \"#utility.yul\":7585:7590   */\n      dup2\n        /* \"#utility.yul\":7578:7599   */\n      mstore\n        /* \"#utility.yul\":7630:7634   */\n      0x20\n        /* \"#utility.yul\":7623:7628   */\n      dup2\n        /* \"#utility.yul\":7619:7635   */\n      add\n        /* \"#utility.yul\":7668:7671   */\n      dup5\n        /* \"#utility.yul\":7659:7665   */\n      dup5\n        /* \"#utility.yul\":7654:7657   */\n      dup5\n        /* \"#utility.yul\":7650:7666   */\n      add\n        /* \"#utility.yul\":7647:7672   */\n      gt\n        /* \"#utility.yul\":7644:7756   */\n      iszero\n      tag_496\n      jumpi\n        /* \"#utility.yul\":7675:7754   */\n      tag_497\n      tag_368\n      jump\t// in\n    tag_497:\n        /* \"#utility.yul\":7644:7756   */\n    tag_496:\n        /* \"#utility.yul\":7765:7819   */\n      tag_498\n        /* \"#utility.yul\":7812:7818   */\n      dup5\n        /* \"#utility.yul\":7807:7810   */\n      dup3\n        /* \"#utility.yul\":7802:7805   */\n      dup6\n        /* \"#utility.yul\":7765:7819   */\n      tag_373\n      jump\t// in\n    tag_498:\n        /* \"#utility.yul\":7484:7825   */\n      pop\n        /* \"#utility.yul\":7400:7825   */\n      swap4\n      swap3\n      pop\n      pop\n      pop\n      jump\t// out\n        /* \"#utility.yul\":7845:8185   */\n    tag_375:\n        /* \"#utility.yul\":7901:7906   */\n      0x00\n        /* \"#utility.yul\":7950:7953   */\n      dup3\n        /* \"#utility.yul\":7943:7947   */\n      0x1f\n        /* \"#utility.yul\":7935:7941   */\n      dup4\n        /* \"#utility.yul\":7931:7948   */\n      add\n        /* \"#utility.yul\":7927:7954   */\n      slt\n        /* \"#utility.yul\":7917:8039   */\n      tag_500\n      jumpi\n        /* \"#utility.yul\":7958:8037   */\n      tag_501\n      tag_367\n      jump\t// in\n    tag_501:\n        /* \"#utility.yul\":7917:8039   */\n    tag_500:\n        /* \"#utility.yul\":8075:8081   */\n      dup2\n        /* \"#utility.yul\":8062:8082   */\n      calldataload\n        /* \"#utility.yul\":8100:8179   */\n      tag_502\n        /* \"#utility.yul\":8175:8178   */\n      dup5\n        /* \"#utility.yul\":8167:8173   */\n      dup3\n        /* \"#utility.yul\":8160:8164   */\n      0x20\n        /* \"#utility.yul\":8152:8158   */\n      dup7\n        /* \"#utility.yul\":8148:8165   */\n      add\n        /* \"#utility.yul\":8100:8179   */\n      tag_374\n      jump\t// in\n    tag_502:\n        /* \"#utility.yul\":8091:8179   */\n      swap2\n      pop\n        /* \"#utility.yul\":7907:8185   */\n      pop\n        /* \"#utility.yul\":7845:8185   */\n      swap3\n      swap2\n      pop\n      pop\n      jump\t// out\n        /* \"#utility.yul\":8191:8307   */\n    tag_376:\n        /* \"#utility.yul\":8261:8282   */\n      tag_504\n        /* \"#utility.yul\":8276:8281   */\n      dup2\n        /* \"#utility.yul\":8261:8282   */\n      tag_365\n      jump\t// in\n    tag_504:\n        /* \"#utility.yul\":8254:8259   */\n      dup2\n        /* \"#utility.yul\":8251:8283   */\n      eq\n        /* \"#utility.yul\":8241:8301   */\n      tag_505\n      jumpi\n        /* \"#utility.yul\":8297:8298   */\n      0x00\n        /* \"#utility.yul\":8294:8295   */\n      dup1\n        /* \"#utility.yul\":8287:8299   */\n      revert\n        /* \"#utility.yul\":8241:8301   */\n    tag_505:\n        /* \"#utility.yul\":8191:8307   */\n      pop\n      jump\t// out\n        /* \"#utility.yul\":8313:8446   */\n    tag_377:\n        /* \"#utility.yul\":8356:8361   */\n      0x00\n        /* \"#utility.yul\":8394:8400   */\n      dup2\n        /* \"#utility.yul\":8381:8401   */\n      calldataload\n        /* \"#utility.yul\":8372:8401   */\n      swap1\n      pop\n        /* \"#utility.yul\":8410:8440   */\n      tag_507\n        /* \"#utility.yul\":8434:8439   */\n      dup2\n        /* \"#utility.yul\":8410:8440   */\n      tag_376\n      jump\t// in\n    tag_507:\n        /* \"#utility.yul\":8313:8446   */\n      swap3\n      swap2\n      pop\n      pop\n      jump\t// out\n        /* \"#utility.yul\":8452:9897   */\n    tag_32:\n        /* \"#utility.yul\":8574:8580   */\n      0x00\n        /* \"#utility.yul\":8582:8588   */\n      dup1\n        /* \"#utility.yul\":8590:8596   */\n      0x00\n        /* \"#utility.yul\":8598:8604   */\n      dup1\n        /* \"#utility.yul\":8606:8612   */\n      0x00\n        /* \"#utility.yul\":8655:8658   */\n      0xa0\n        /* \"#utility.yul\":8643:8652   */\n      dup7\n        /* \"#utility.yul\":8634:8641   */\n      dup9\n        /* \"#utility.yul\":8630:8653   */\n      sub\n        /* \"#utility.yul\":8626:8659   */\n      slt\n        /* \"#utility.yul\":8623:8743   */\n      iszero\n      tag_509\n      jumpi\n        /* \"#utility.yul\":8662:8741   */\n      tag_510\n      tag_346\n      jump\t// in\n    tag_510:\n        /* \"#utility.yul\":8623:8743   */\n    tag_509:\n        /* \"#utility.yul\":8810:8811   */\n      0x00\n        /* \"#utility.yul\":8799:8808   */\n      dup7\n        /* \"#utility.yul\":8795:8812   */\n      add\n        /* \"#utility.yul\":8782:8813   */\n      calldataload\n        /* \"#utility.yul\":8840:8858   */\n      0xffffffffffffffff\n        /* \"#utility.yul\":8832:8838   */\n      dup2\n        /* \"#utility.yul\":8829:8859   */\n      gt\n        /* \"#utility.yul\":8826:8943   */\n      iszero\n      tag_511\n      jumpi\n        /* \"#utility.yul\":8862:8941   */\n      tag_512\n      tag_347\n      jump\t// in\n    tag_512:\n        /* \"#utility.yul\":8826:8943   */\n    tag_511:\n        /* \"#utility.yul\":8967:9030   */\n      tag_513\n        /* \"#utility.yul\":9022:9029   */\n      dup9\n        /* \"#utility.yul\":9013:9019   */\n      dup3\n        /* \"#utility.yul\":9002:9011   */\n      dup10\n        /* \"#utility.yul\":8998:9020   */\n      add\n        /* \"#utility.yul\":8967:9030   */\n      tag_375\n      jump\t// in\n    tag_513:\n        /* \"#utility.yul\":8957:9030   */\n      swap6\n      pop\n        /* \"#utility.yul\":8753:9040   */\n      pop\n        /* \"#utility.yul\":9107:9109   */\n      0x20\n        /* \"#utility.yul\":9096:9105   */\n      dup7\n        /* \"#utility.yul\":9092:9110   */\n      add\n        /* \"#utility.yul\":9079:9111   */\n      calldataload\n        /* \"#utility.yul\":9138:9156   */\n      0xffffffffffffffff\n        /* \"#utility.yul\":9130:9136   */\n      dup2\n        /* \"#utility.yul\":9127:9157   */\n      gt\n        /* \"#utility.yul\":9124:9241   */\n      iszero\n      tag_514\n      jumpi\n        /* \"#utility.yul\":9160:9239   */\n      tag_515\n      tag_347\n      jump\t// in\n    tag_515:\n        /* \"#utility.yul\":9124:9241   */\n    tag_514:\n        /* \"#utility.yul\":9265:9328   */\n      tag_516\n        /* \"#utility.yul\":9320:9327   */\n      dup9\n        /* \"#utility.yul\":9311:9317   */\n      dup3\n        /* \"#utility.yul\":9300:9309   */\n      dup10\n        /* \"#utility.yul\":9296:9318   */\n      add\n        /* \"#utility.yul\":9265:9328   */\n      tag_375\n      jump\t// in\n    tag_516:\n        /* \"#utility.yul\":9255:9328   */\n      swap5\n      pop\n        /* \"#utility.yul\":9050:9338   */\n      pop\n        /* \"#utility.yul\":9405:9407   */\n      0x40\n        /* \"#utility.yul\":9394:9403   */\n      dup7\n        /* \"#utility.yul\":9390:9408   */\n      add\n        /* \"#utility.yul\":9377:9409   */\n      calldataload\n        /* \"#utility.yul\":9436:9454   */\n      0xffffffffffffffff\n        /* \"#utility.yul\":9428:9434   */\n      dup2\n        /* \"#utility.yul\":9425:9455   */\n      gt\n        /* \"#utility.yul\":9422:9539   */\n      iszero\n      tag_517\n      jumpi\n        /* \"#utility.yul\":9458:9537   */\n      tag_518\n      tag_347\n      jump\t// in\n    tag_518:\n        /* \"#utility.yul\":9422:9539   */\n    tag_517:\n        /* \"#utility.yul\":9563:9626   */\n      tag_519\n        /* \"#utility.yul\":9618:9625   */\n      dup9\n        /* \"#utility.yul\":9609:9615   */\n      dup3\n        /* \"#utility.yul\":9598:9607   */\n      dup10\n        /* \"#utility.yul\":9594:9616   */\n      add\n        /* \"#utility.yul\":9563:9626   */\n      tag_375\n      jump\t// in\n    tag_519:\n        /* \"#utility.yul\":9553:9626   */\n      swap4\n      pop\n        /* \"#utility.yul\":9348:9636   */\n      pop\n        /* \"#utility.yul\":9675:9677   */\n      0x60\n        /* \"#utility.yul\":9701:9754   */\n      tag_520\n        /* \"#utility.yul\":9746:9753   */\n      dup9\n        /* \"#utility.yul\":9737:9743   */\n      dup3\n        /* \"#utility.yul\":9726:9735   */\n      dup10\n        /* \"#utility.yul\":9722:9744   */\n      add\n        /* \"#utility.yul\":9701:9754   */\n      tag_351\n      jump\t// in\n    tag_520:\n        /* \"#utility.yul\":9691:9754   */\n      swap3\n      pop\n        /* \"#utility.yul\":9646:9764   */\n      pop\n        /* \"#utility.yul\":9803:9806   */\n      0x80\n        /* \"#utility.yul\":9830:9880   */\n      tag_521\n        /* \"#utility.yul\":9872:9879   */\n      dup9\n        /* \"#utility.yul\":9863:9869   */\n      dup3\n        /* \"#utility.yul\":9852:9861   */\n      dup10\n        /* \"#utility.yul\":9848:9870   */\n      add\n        /* \"#utility.yul\":9830:9880   */\n      tag_377\n      jump\t// in\n    tag_521:\n        /* \"#utility.yul\":9820:9880   */\n      swap2\n      pop\n        /* \"#utility.yul\":9774:9890   */\n      pop\n        /* \"#utility.yul\":8452:9897   */\n      swap3\n      swap6\n      pop\n      swap3\n      swap6\n      swap1\n      swap4\n      pop\n      jump\t// out\n        /* \"#utility.yul\":9903:10371   */\n    tag_39:\n        /* \"#utility.yul\":9968:9974   */\n      0x00\n        /* \"#utility.yul\":9976:9982   */\n      dup1\n        /* \"#utility.yul\":10025:10027   */\n      0x40\n        /* \"#utility.yul\":10013:10022   */\n      dup4\n        /* \"#utility.yul\":10004:10011   */\n      dup6\n        /* \"#utility.yul\":10000:10023   */\n      sub\n        /* \"#utility.yul\":9996:10028   */\n      slt\n        /* \"#utility.yul\":9993:10112   */\n      iszero\n      tag_523\n      jumpi\n        /* \"#utility.yul\":10031:10110   */\n      tag_524\n      tag_346\n      jump\t// in\n    tag_524:\n        /* \"#utility.yul\":9993:10112   */\n    tag_523:\n        /* \"#utility.yul\":10151:10152   */\n      0x00\n        /* \"#utility.yul\":10176:10229   */\n      tag_525\n        /* \"#utility.yul\":10221:10228   */\n      dup6\n        /* \"#utility.yul\":10212:10218   */\n      dup3\n        /* \"#utility.yul\":10201:10210   */\n      dup7\n        /* \"#utility.yul\":10197:10219   */\n      add\n        /* \"#utility.yul\":10176:10229   */\n      tag_351\n      jump\t// in\n    tag_525:\n        /* \"#utility.yul\":10166:10229   */\n      swap3\n      pop\n        /* \"#utility.yul\":10122:10239   */\n      pop\n        /* \"#utility.yul\":10278:10280   */\n      0x20\n        /* \"#utility.yul\":10304:10354   */\n      tag_526\n        /* \"#utility.yul\":10346:10353   */\n      dup6\n        /* \"#utility.yul\":10337:10343   */\n      dup3\n        /* \"#utility.yul\":10326:10335   */\n      dup7\n        /* \"#utility.yul\":10322:10344   */\n      add\n        /* \"#utility.yul\":10304:10354   */\n      tag_377\n      jump\t// in\n    tag_526:\n        /* \"#utility.yul\":10294:10354   */\n      swap2\n      pop\n        /* \"#utility.yul\":10249:10364   */\n      pop\n        /* \"#utility.yul\":9903:10371   */\n      swap3\n      pop\n      swap3\n      swap1\n      pop\n      jump\t// out\n        /* \"#utility.yul\":10377:10454   */\n    tag_378:\n        /* \"#utility.yul\":10414:10421   */\n      0x00\n        /* \"#utility.yul\":10443:10448   */\n      dup2\n        /* \"#utility.yul\":10432:10448   */\n      swap1\n      pop\n        /* \"#utility.yul\":10377:10454   */\n      swap2\n      swap1\n      pop\n      jump\t// out\n        /* \"#utility.yul\":10460:10568   */\n    tag_379:\n        /* \"#utility.yul\":10537:10561   */\n      tag_529\n        /* \"#utility.yul\":10555:10560   */\n      dup2\n        /* \"#utility.yul\":10537:10561   */\n      tag_378\n      jump\t// in\n    tag_529:\n        /* \"#utility.yul\":10532:10535   */\n      dup3\n        /* \"#utility.yul\":10525:10562   */\n      mstore\n        /* \"#utility.yul\":10460:10568   */\n      pop\n      pop\n      jump\t// out\n        /* \"#utility.yul\":10574:10777   */\n    tag_380:\n        /* \"#utility.yul\":10692:10703   */\n      0x00\n        /* \"#utility.yul\":10726:10732   */\n      dup3\n        /* \"#utility.yul\":10721:10724   */\n      dup3\n        /* \"#utility.yul\":10714:10733   */\n      mstore\n        /* \"#utility.yul\":10766:10770   */\n      0x20\n        /* \"#utility.yul\":10761:10764   */\n      dup3\n        /* \"#utility.yul\":10757:10771   */\n      add\n        /* \"#utility.yul\":10742:10771   */\n      swap1\n      pop\n        /* \"#utility.yul\":10574:10777   */\n      swap3\n      swap2\n      pop\n      pop\n      jump\t// out\n        /* \"#utility.yul\":10857:11980   */\n    tag_381:\n        /* \"#utility.yul\":11024:11027   */\n      0x00\n        /* \"#utility.yul\":11053:11136   */\n      tag_532\n        /* \"#utility.yul\":11130:11135   */\n      dup3\n        /* \"#utility.yul\":11053:11136   */\n      tag_352\n      jump\t// in\n    tag_532:\n        /* \"#utility.yul\":11152:11257   */\n      tag_533\n        /* \"#utility.yul\":11250:11256   */\n      dup2\n        /* \"#utility.yul\":11245:11248   */\n      dup6\n        /* \"#utility.yul\":11152:11257   */\n      tag_380\n      jump\t// in\n    tag_533:\n        /* \"#utility.yul\":11145:11257   */\n      swap4\n      pop\n        /* \"#utility.yul\":11283:11286   */\n      dup4\n        /* \"#utility.yul\":11328:11332   */\n      0x20\n        /* \"#utility.yul\":11320:11326   */\n      dup3\n        /* \"#utility.yul\":11316:11333   */\n      mul\n        /* \"#utility.yul\":11311:11314   */\n      dup6\n        /* \"#utility.yul\":11307:11334   */\n      add\n        /* \"#utility.yul\":11358:11443   */\n      tag_534\n        /* \"#utility.yul\":11437:11442   */\n      dup6\n        /* \"#utility.yul\":11358:11443   */\n      tag_354\n      jump\t// in\n    tag_534:\n        /* \"#utility.yul\":11466:11473   */\n      dup1\n        /* \"#utility.yul\":11497:11498   */\n      0x00\n        /* \"#utility.yul\":11482:11935   */\n    tag_535:\n        /* \"#utility.yul\":11507:11513   */\n      dup6\n        /* \"#utility.yul\":11504:11505   */\n      dup2\n        /* \"#utility.yul\":11501:11514   */\n      lt\n        /* \"#utility.yul\":11482:11935   */\n      iszero\n      tag_537\n      jumpi\n        /* \"#utility.yul\":11578:11587   */\n      dup5\n        /* \"#utility.yul\":11572:11576   */\n      dup5\n        /* \"#utility.yul\":11568:11588   */\n      sub\n        /* \"#utility.yul\":11563:11566   */\n      dup10\n        /* \"#utility.yul\":11556:11589   */\n      mstore\n        /* \"#utility.yul\":11629:11635   */\n      dup2\n        /* \"#utility.yul\":11623:11636   */\n      mload\n        /* \"#utility.yul\":11657:11779   */\n      tag_538\n        /* \"#utility.yul\":11774:11778   */\n      dup6\n        /* \"#utility.yul\":11759:11772   */\n      dup3\n        /* \"#utility.yul\":11657:11779   */\n      tag_362\n      jump\t// in\n    tag_538:\n        /* \"#utility.yul\":11649:11779   */\n      swap5\n      pop\n        /* \"#utility.yul\":11802:11891   */\n      tag_539\n        /* \"#utility.yul\":11884:11890   */\n      dup4\n        /* \"#utility.yul\":11802:11891   */\n      tag_363\n      jump\t// in\n    tag_539:\n        /* \"#utility.yul\":11792:11891   */\n      swap3\n      pop\n        /* \"#utility.yul\":11920:11924   */\n      0x20\n        /* \"#utility.yul\":11915:11918   */\n      dup11\n        /* \"#utility.yul\":11911:11925   */\n      add\n        /* \"#utility.yul\":11904:11925   */\n      swap10\n      pop\n        /* \"#utility.yul\":11542:11935   */\n      pop\n        /* \"#utility.yul\":11529:11530   */\n      0x01\n        /* \"#utility.yul\":11526:11527   */\n      dup2\n        /* \"#utility.yul\":11522:11531   */\n      add\n        /* \"#utility.yul\":11517:11531   */\n      swap1\n      pop\n        /* \"#utility.yul\":11482:11935   */\n      jump(tag_535)\n    tag_537:\n        /* \"#utility.yul\":11486:11500   */\n      pop\n        /* \"#utility.yul\":11951:11955   */\n      dup3\n        /* \"#utility.yul\":11944:11955   */\n      swap8\n      pop\n        /* \"#utility.yul\":11971:11974   */\n      dup8\n        /* \"#utility.yul\":11964:11974   */\n      swap6\n      pop\n        /* \"#utility.yul\":11029:11980   */\n      pop\n      pop\n      pop\n      pop\n      pop\n        /* \"#utility.yul\":10857:11980   */\n      swap3\n      swap2\n      pop\n      pop\n      jump\t// out\n        /* \"#utility.yul\":12054:13681   */\n    tag_382:\n        /* \"#utility.yul\":12179:12182   */\n      0x00\n        /* \"#utility.yul\":12215:12219   */\n      0xc0\n        /* \"#utility.yul\":12210:12213   */\n      dup4\n        /* \"#utility.yul\":12206:12220   */\n      add\n        /* \"#utility.yul\":12302:12306   */\n      0x00\n        /* \"#utility.yul\":12295:12300   */\n      dup4\n        /* \"#utility.yul\":12291:12307   */\n      add\n        /* \"#utility.yul\":12285:12308   */\n      mload\n        /* \"#utility.yul\":12355:12358   */\n      dup5\n        /* \"#utility.yul\":12349:12353   */\n      dup3\n        /* \"#utility.yul\":12345:12359   */\n      sub\n        /* \"#utility.yul\":12338:12342   */\n      0x00\n        /* \"#utility.yul\":12333:12336   */\n      dup7\n        /* \"#utility.yul\":12329:12343   */\n      add\n        /* \"#utility.yul\":12322:12360   */\n      mstore\n        /* \"#utility.yul\":12381:12454   */\n      tag_541\n        /* \"#utility.yul\":12449:12453   */\n      dup3\n        /* \"#utility.yul\":12435:12447   */\n      dup3\n        /* \"#utility.yul\":12381:12454   */\n      tag_360\n      jump\t// in\n    tag_541:\n        /* \"#utility.yul\":12373:12454   */\n      swap2\n      pop\n        /* \"#utility.yul\":12230:12465   */\n      pop\n        /* \"#utility.yul\":12547:12551   */\n      0x20\n        /* \"#utility.yul\":12540:12545   */\n      dup4\n        /* \"#utility.yul\":12536:12552   */\n      add\n        /* \"#utility.yul\":12530:12553   */\n      mload\n        /* \"#utility.yul\":12600:12603   */\n      dup5\n        /* \"#utility.yul\":12594:12598   */\n      dup3\n        /* \"#utility.yul\":12590:12604   */\n      sub\n        /* \"#utility.yul\":12583:12587   */\n      0x20\n        /* \"#utility.yul\":12578:12581   */\n      dup7\n        /* \"#utility.yul\":12574:12588   */\n      add\n        /* \"#utility.yul\":12567:12605   */\n      mstore\n        /* \"#utility.yul\":12626:12699   */\n      tag_542\n        /* \"#utility.yul\":12694:12698   */\n      dup3\n        /* \"#utility.yul\":12680:12692   */\n      dup3\n        /* \"#utility.yul\":12626:12699   */\n      tag_360\n      jump\t// in\n    tag_542:\n        /* \"#utility.yul\":12618:12699   */\n      swap2\n      pop\n        /* \"#utility.yul\":12475:12710   */\n      pop\n        /* \"#utility.yul\":12792:12796   */\n      0x40\n        /* \"#utility.yul\":12785:12790   */\n      dup4\n        /* \"#utility.yul\":12781:12797   */\n      add\n        /* \"#utility.yul\":12775:12798   */\n      mload\n        /* \"#utility.yul\":12845:12848   */\n      dup5\n        /* \"#utility.yul\":12839:12843   */\n      dup3\n        /* \"#utility.yul\":12835:12849   */\n      sub\n        /* \"#utility.yul\":12828:12832   */\n      0x40\n        /* \"#utility.yul\":12823:12826   */\n      dup7\n        /* \"#utility.yul\":12819:12833   */\n      add\n        /* \"#utility.yul\":12812:12850   */\n      mstore\n        /* \"#utility.yul\":12871:12944   */\n      tag_543\n        /* \"#utility.yul\":12939:12943   */\n      dup3\n        /* \"#utility.yul\":12925:12937   */\n      dup3\n        /* \"#utility.yul\":12871:12944   */\n      tag_360\n      jump\t// in\n    tag_543:\n        /* \"#utility.yul\":12863:12944   */\n      swap2\n      pop\n        /* \"#utility.yul\":12720:12955   */\n      pop\n        /* \"#utility.yul\":13044:13048   */\n      0x60\n        /* \"#utility.yul\":13037:13042   */\n      dup4\n        /* \"#utility.yul\":13033:13049   */\n      add\n        /* \"#utility.yul\":13027:13050   */\n      mload\n        /* \"#utility.yul\":13063:13126   */\n      tag_544\n        /* \"#utility.yul\":13120:13124   */\n      0x60\n        /* \"#utility.yul\":13115:13118   */\n      dup7\n        /* \"#utility.yul\":13111:13125   */\n      add\n        /* \"#utility.yul\":13097:13109   */\n      dup3\n        /* \"#utility.yul\":13063:13126   */\n      tag_355\n      jump\t// in\n    tag_544:\n        /* \"#utility.yul\":12965:13136   */\n      pop\n        /* \"#utility.yul\":13219:13223   */\n      0x80\n        /* \"#utility.yul\":13212:13217   */\n      dup4\n        /* \"#utility.yul\":13208:13224   */\n      add\n        /* \"#utility.yul\":13202:13225   */\n      mload\n        /* \"#utility.yul\":13238:13301   */\n      tag_545\n        /* \"#utility.yul\":13295:13299   */\n      0x80\n        /* \"#utility.yul\":13290:13293   */\n      dup7\n        /* \"#utility.yul\":13286:13300   */\n      add\n        /* \"#utility.yul\":13272:13284   */\n      dup3\n        /* \"#utility.yul\":13238:13301   */\n      tag_379\n      jump\t// in\n    tag_545:\n        /* \"#utility.yul\":13146:13311   */\n      pop\n        /* \"#utility.yul\":13403:13407   */\n      0xa0\n        /* \"#utility.yul\":13396:13401   */\n      dup4\n        /* \"#utility.yul\":13392:13408   */\n      add\n        /* \"#utility.yul\":13386:13409   */\n      mload\n        /* \"#utility.yul\":13456:13459   */\n      dup5\n        /* \"#utility.yul\":13450:13454   */\n      dup3\n        /* \"#utility.yul\":13446:13460   */\n      sub\n        /* \"#utility.yul\":13439:13443   */\n      0xa0\n        /* \"#utility.yul\":13434:13437   */\n      dup7\n        /* \"#utility.yul\":13430:13444   */\n      add\n        /* \"#utility.yul\":13423:13461   */\n      mstore\n        /* \"#utility.yul\":13482:13643   */\n      tag_546\n        /* \"#utility.yul\":13638:13642   */\n      dup3\n        /* \"#utility.yul\":13624:13636   */\n      dup3\n        /* \"#utility.yul\":13482:13643   */\n      tag_381\n      jump\t// in\n    tag_546:\n        /* \"#utility.yul\":13474:13643   */\n      swap2\n      pop\n        /* \"#utility.yul\":13321:13654   */\n      pop\n        /* \"#utility.yul\":13671:13675   */\n      dup1\n        /* \"#utility.yul\":13664:13675   */\n      swap2\n      pop\n        /* \"#utility.yul\":12184:13681   */\n      pop\n        /* \"#utility.yul\":12054:13681   */\n      swap3\n      swap2\n      pop\n      pop\n      jump\t// out\n        /* \"#utility.yul\":13687:14072   */\n    tag_42:\n        /* \"#utility.yul\":13836:13840   */\n      0x00\n        /* \"#utility.yul\":13874:13876   */\n      0x20\n        /* \"#utility.yul\":13863:13872   */\n      dup3\n        /* \"#utility.yul\":13859:13877   */\n      add\n        /* \"#utility.yul\":13851:13877   */\n      swap1\n      pop\n        /* \"#utility.yul\":13923:13932   */\n      dup2\n        /* \"#utility.yul\":13917:13921   */\n      dup2\n        /* \"#utility.yul\":13913:13933   */\n      sub\n        /* \"#utility.yul\":13909:13910   */\n      0x00\n        /* \"#utility.yul\":13898:13907   */\n      dup4\n        /* \"#utility.yul\":13894:13911   */\n      add\n        /* \"#utility.yul\":13887:13934   */\n      mstore\n        /* \"#utility.yul\":13951:14065   */\n      tag_548\n        /* \"#utility.yul\":14060:14064   */\n      dup2\n        /* \"#utility.yul\":14051:14057   */\n      dup5\n        /* \"#utility.yul\":13951:14065   */\n      tag_382\n      jump\t// in\n    tag_548:\n        /* \"#utility.yul\":13943:14065   */\n      swap1\n      pop\n        /* \"#utility.yul\":13687:14072   */\n      swap3\n      swap2\n      pop\n      pop\n      jump\t// out\n        /* \"#utility.yul\":14078:14552   */\n    tag_46:\n        /* \"#utility.yul\":14146:14152   */\n      0x00\n        /* \"#utility.yul\":14154:14160   */\n      dup1\n        /* \"#utility.yul\":14203:14205   */\n      0x40\n        /* \"#utility.yul\":14191:14200   */\n      dup4\n        /* \"#utility.yul\":14182:14189   */\n      dup6\n        /* \"#utility.yul\":14178:14201   */\n      sub\n        /* \"#utility.yul\":14174:14206   */\n      slt\n        /* \"#utility.yul\":14171:14290   */\n      iszero\n      tag_550\n      jumpi\n        /* \"#utility.yul\":14209:14288   */\n      tag_551\n      tag_346\n      jump\t// in\n    tag_551:\n        /* \"#utility.yul\":14171:14290   */\n    tag_550:\n        /* \"#utility.yul\":14329:14330   */\n      0x00\n        /* \"#utility.yul\":14354:14407   */\n      tag_552\n        /* \"#utility.yul\":14399:14406   */\n      dup6\n        /* \"#utility.yul\":14390:14396   */\n      dup3\n        /* \"#utility.yul\":14379:14388   */\n      dup7\n        /* \"#utility.yul\":14375:14397   */\n      add\n        /* \"#utility.yul\":14354:14407   */\n      tag_351\n      jump\t// in\n    tag_552:\n        /* \"#utility.yul\":14344:14407   */\n      swap3\n      pop\n        /* \"#utility.yul\":14300:14417   */\n      pop\n        /* \"#utility.yul\":14456:14458   */\n      0x20\n        /* \"#utility.yul\":14482:14535   */\n      tag_553\n        /* \"#utility.yul\":14527:14534   */\n      dup6\n        /* \"#utility.yul\":14518:14524   */\n      dup3\n        /* \"#utility.yul\":14507:14516   */\n      dup7\n        /* \"#utility.yul\":14503:14525   */\n      add\n        /* \"#utility.yul\":14482:14535   */\n      tag_351\n      jump\t// in\n    tag_553:\n        /* \"#utility.yul\":14472:14535   */\n      swap2\n      pop\n        /* \"#utility.yul\":14427:14545   */\n      pop\n        /* \"#utility.yul\":14078:14552   */\n      swap3\n      pop\n      swap3\n      swap1\n      pop\n      jump\t// out\n        /* \"#utility.yul\":14558:14881   */\n    tag_51:\n        /* \"#utility.yul\":14614:14620   */\n      0x00\n        /* \"#utility.yul\":14663:14665   */\n      0x20\n        /* \"#utility.yul\":14651:14660   */\n      dup3\n        /* \"#utility.yul\":14642:14649   */\n      dup5\n        /* \"#utility.yul\":14638:14661   */\n      sub\n        /* \"#utility.yul\":14634:14666   */\n      slt\n        /* \"#utility.yul\":14631:14750   */\n      iszero\n      tag_555\n      jumpi\n        /* \"#utility.yul\":14669:14748   */\n      tag_556\n      tag_346\n      jump\t// in\n    tag_556:\n        /* \"#utility.yul\":14631:14750   */\n    tag_555:\n        /* \"#utility.yul\":14789:14790   */\n      0x00\n        /* \"#utility.yul\":14814:14864   */\n      tag_557\n        /* \"#utility.yul\":14856:14863   */\n      dup5\n        /* \"#utility.yul\":14847:14853   */\n      dup3\n        /* \"#utility.yul\":14836:14845   */\n      dup6\n        /* \"#utility.yul\":14832:14854   */\n      add\n        /* \"#utility.yul\":14814:14864   */\n      tag_377\n      jump\t// in\n    tag_557:\n        /* \"#utility.yul\":14804:14864   */\n      swap2\n      pop\n        /* \"#utility.yul\":14760:14874   */\n      pop\n        /* \"#utility.yul\":14558:14881   */\n      swap3\n      swap2\n      pop\n      pop\n      jump\t// out\n        /* \"#utility.yul\":14887:15029   */\n    tag_383:\n        /* \"#utility.yul\":14982:14988   */\n      0x00\n        /* \"#utility.yul\":15016:15021   */\n      dup2\n        /* \"#utility.yul\":15010:15022   */\n      mload\n        /* \"#utility.yul\":15000:15022   */\n      swap1\n      pop\n        /* \"#utility.yul\":14887:15029   */\n      swap2\n      swap1\n      pop\n      jump\t// out\n        /* \"#utility.yul\":15035:15247   */\n    tag_384:\n        /* \"#utility.yul\":15162:15173   */\n      0x00\n        /* \"#utility.yul\":15196:15202   */\n      dup3\n        /* \"#utility.yul\":15191:15194   */\n      dup3\n        /* \"#utility.yul\":15184:15203   */\n      mstore\n        /* \"#utility.yul\":15236:15240   */\n      0x20\n        /* \"#utility.yul\":15231:15234   */\n      dup3\n        /* \"#utility.yul\":15227:15241   */\n      add\n        /* \"#utility.yul\":15212:15241   */\n      swap1\n      pop\n        /* \"#utility.yul\":15035:15247   */\n      swap3\n      swap2\n      pop\n      pop\n      jump\t// out\n        /* \"#utility.yul\":15253:15413   */\n    tag_385:\n        /* \"#utility.yul\":15348:15352   */\n      0x00\n        /* \"#utility.yul\":15371:15374   */\n      dup2\n        /* \"#utility.yul\":15363:15374   */\n      swap1\n      pop\n        /* \"#utility.yul\":15401:15405   */\n      0x20\n        /* \"#utility.yul\":15396:15399   */\n      dup3\n        /* \"#utility.yul\":15392:15406   */\n      add\n        /* \"#utility.yul\":15384:15406   */\n      swap1\n      pop\n        /* \"#utility.yul\":15253:15413   */\n      swap2\n      swap1\n      pop\n      jump\t// out\n        /* \"#utility.yul\":15487:17104   */\n    tag_386:\n        /* \"#utility.yul\":15602:15605   */\n      0x00\n        /* \"#utility.yul\":15638:15642   */\n      0xc0\n        /* \"#utility.yul\":15633:15636   */\n      dup4\n        /* \"#utility.yul\":15629:15643   */\n      add\n        /* \"#utility.yul\":15725:15729   */\n      0x00\n        /* \"#utility.yul\":15718:15723   */\n      dup4\n        /* \"#utility.yul\":15714:15730   */\n      add\n        /* \"#utility.yul\":15708:15731   */\n      mload\n        /* \"#utility.yul\":15778:15781   */\n      dup5\n        /* \"#utility.yul\":15772:15776   */\n      dup3\n        /* \"#utility.yul\":15768:15782   */\n      sub\n        /* \"#utility.yul\":15761:15765   */\n      0x00\n        /* \"#utility.yul\":15756:15759   */\n      dup7\n        /* \"#utility.yul\":15752:15766   */\n      add\n        /* \"#utility.yul\":15745:15783   */\n      mstore\n        /* \"#utility.yul\":15804:15877   */\n      tag_562\n        /* \"#utility.yul\":15872:15876   */\n      dup3\n        /* \"#utility.yul\":15858:15870   */\n      dup3\n        /* \"#utility.yul\":15804:15877   */\n      tag_360\n      jump\t// in\n    tag_562:\n        /* \"#utility.yul\":15796:15877   */\n      swap2\n      pop\n        /* \"#utility.yul\":15653:15888   */\n      pop\n        /* \"#utility.yul\":15970:15974   */\n      0x20\n        /* \"#utility.yul\":15963:15968   */\n      dup4\n        /* \"#utility.yul\":15959:15975   */\n      add\n        /* \"#utility.yul\":15953:15976   */\n      mload\n        /* \"#utility.yul\":16023:16026   */\n      dup5\n        /* \"#utility.yul\":16017:16021   */\n      dup3\n        /* \"#utility.yul\":16013:16027   */\n      sub\n        /* \"#utility.yul\":16006:16010   */\n      0x20\n        /* \"#utility.yul\":16001:16004   */\n      dup7\n        /* \"#utility.yul\":15997:16011   */\n      add\n        /* \"#utility.yul\":15990:16028   */\n      mstore\n        /* \"#utility.yul\":16049:16122   */\n      tag_563\n        /* \"#utility.yul\":16117:16121   */\n      dup3\n        /* \"#utility.yul\":16103:16115   */\n      dup3\n        /* \"#utility.yul\":16049:16122   */\n      tag_360\n      jump\t// in\n    tag_563:\n        /* \"#utility.yul\":16041:16122   */\n      swap2\n      pop\n        /* \"#utility.yul\":15898:16133   */\n      pop\n        /* \"#utility.yul\":16215:16219   */\n      0x40\n        /* \"#utility.yul\":16208:16213   */\n      dup4\n        /* \"#utility.yul\":16204:16220   */\n      add\n        /* \"#utility.yul\":16198:16221   */\n      mload\n        /* \"#utility.yul\":16268:16271   */\n      dup5\n        /* \"#utility.yul\":16262:16266   */\n      dup3\n        /* \"#utility.yul\":16258:16272   */\n      sub\n        /* \"#utility.yul\":16251:16255   */\n      0x40\n        /* \"#utility.yul\":16246:16249   */\n      dup7\n        /* \"#utility.yul\":16242:16256   */\n      add\n        /* \"#utility.yul\":16235:16273   */\n      mstore\n        /* \"#utility.yul\":16294:16367   */\n      tag_564\n        /* \"#utility.yul\":16362:16366   */\n      dup3\n        /* \"#utility.yul\":16348:16360   */\n      dup3\n        /* \"#utility.yul\":16294:16367   */\n      tag_360\n      jump\t// in\n    tag_564:\n        /* \"#utility.yul\":16286:16367   */\n      swap2\n      pop\n        /* \"#utility.yul\":16143:16378   */\n      pop\n        /* \"#utility.yul\":16467:16471   */\n      0x60\n        /* \"#utility.yul\":16460:16465   */\n      dup4\n        /* \"#utility.yul\":16456:16472   */\n      add\n        /* \"#utility.yul\":16450:16473   */\n      mload\n        /* \"#utility.yul\":16486:16549   */\n      tag_565\n        /* \"#utility.yul\":16543:16547   */\n      0x60\n        /* \"#utility.yul\":16538:16541   */\n      dup7\n        /* \"#utility.yul\":16534:16548   */\n      add\n        /* \"#utility.yul\":16520:16532   */\n      dup3\n        /* \"#utility.yul\":16486:16549   */\n      tag_355\n      jump\t// in\n    tag_565:\n        /* \"#utility.yul\":16388:16559   */\n      pop\n        /* \"#utility.yul\":16642:16646   */\n      0x80\n        /* \"#utility.yul\":16635:16640   */\n      dup4\n        /* \"#utility.yul\":16631:16647   */\n      add\n        /* \"#utility.yul\":16625:16648   */\n      mload\n        /* \"#utility.yul\":16661:16724   */\n      tag_566\n        /* \"#utility.yul\":16718:16722   */\n      0x80\n        /* \"#utility.yul\":16713:16716   */\n      dup7\n        /* \"#utility.yul\":16709:16723   */\n      add\n        /* \"#utility.yul\":16695:16707   */\n      dup3\n        /* \"#utility.yul\":16661:16724   */\n      tag_379\n      jump\t// in\n    tag_566:\n        /* \"#utility.yul\":16569:16734   */\n      pop\n        /* \"#utility.yul\":16826:16830   */\n      0xa0\n        /* \"#utility.yul\":16819:16824   */\n      dup4\n        /* \"#utility.yul\":16815:16831   */\n      add\n        /* \"#utility.yul\":16809:16832   */\n      mload\n        /* \"#utility.yul\":16879:16882   */\n      dup5\n        /* \"#utility.yul\":16873:16877   */\n      dup3\n        /* \"#utility.yul\":16869:16883   */\n      sub\n        /* \"#utility.yul\":16862:16866   */\n      0xa0\n        /* \"#utility.yul\":16857:16860   */\n      dup7\n        /* \"#utility.yul\":16853:16867   */\n      add\n        /* \"#utility.yul\":16846:16884   */\n      mstore\n        /* \"#utility.yul\":16905:17066   */\n      tag_567\n        /* \"#utility.yul\":17061:17065   */\n      dup3\n        /* \"#utility.yul\":17047:17059   */\n      dup3\n        /* \"#utility.yul\":16905:17066   */\n      tag_381\n      jump\t// in\n    tag_567:\n        /* \"#utility.yul\":16897:17066   */\n      swap2\n      pop\n        /* \"#utility.yul\":16744:17077   */\n      pop\n        /* \"#utility.yul\":17094:17098   */\n      dup1\n        /* \"#utility.yul\":17087:17098   */\n      swap2\n      pop\n        /* \"#utility.yul\":15607:17104   */\n      pop\n        /* \"#utility.yul\":15487:17104   */\n      swap3\n      swap2\n      pop\n      pop\n      jump\t// out\n        /* \"#utility.yul\":17110:17378   */\n    tag_387:\n        /* \"#utility.yul\":17235:17245   */\n      0x00\n        /* \"#utility.yul\":17270:17372   */\n      tag_569\n        /* \"#utility.yul\":17368:17371   */\n      dup4\n        /* \"#utility.yul\":17360:17366   */\n      dup4\n        /* \"#utility.yul\":17270:17372   */\n      tag_386\n      jump\t// in\n    tag_569:\n        /* \"#utility.yul\":17256:17372   */\n      swap1\n      pop\n        /* \"#utility.yul\":17110:17378   */\n      swap3\n      swap2\n      pop\n      pop\n      jump\t// out\n        /* \"#utility.yul\":17384:17525   */\n    tag_388:\n        /* \"#utility.yul\":17482:17486   */\n      0x00\n        /* \"#utility.yul\":17514:17518   */\n      0x20\n        /* \"#utility.yul\":17509:17512   */\n      dup3\n        /* \"#utility.yul\":17505:17519   */\n      add\n        /* \"#utility.yul\":17497:17519   */\n      swap1\n      pop\n        /* \"#utility.yul\":17384:17525   */\n      swap2\n      swap1\n      pop\n      jump\t// out\n        /* \"#utility.yul\":17603:18738   */\n    tag_389:\n        /* \"#utility.yul\":17778:17781   */\n      0x00\n        /* \"#utility.yul\":17807:17889   */\n      tag_572\n        /* \"#utility.yul\":17883:17888   */\n      dup3\n        /* \"#utility.yul\":17807:17889   */\n      tag_383\n      jump\t// in\n    tag_572:\n        /* \"#utility.yul\":17905:18019   */\n      tag_573\n        /* \"#utility.yul\":18012:18018   */\n      dup2\n        /* \"#utility.yul\":18007:18010   */\n      dup6\n        /* \"#utility.yul\":17905:18019   */\n      tag_384\n      jump\t// in\n    tag_573:\n        /* \"#utility.yul\":17898:18019   */\n      swap4\n      pop\n        /* \"#utility.yul\":18045:18048   */\n      dup4\n        /* \"#utility.yul\":18090:18094   */\n      0x20\n        /* \"#utility.yul\":18082:18088   */\n      dup3\n        /* \"#utility.yul\":18078:18095   */\n      mul\n        /* \"#utility.yul\":18073:18076   */\n      dup6\n        /* \"#utility.yul\":18069:18096   */\n      add\n        /* \"#utility.yul\":18120:18204   */\n      tag_574\n        /* \"#utility.yul\":18198:18203   */\n      dup6\n        /* \"#utility.yul\":18120:18204   */\n      tag_385\n      jump\t// in\n    tag_574:\n        /* \"#utility.yul\":18227:18234   */\n      dup1\n        /* \"#utility.yul\":18258:18259   */\n      0x00\n        /* \"#utility.yul\":18243:18693   */\n    tag_575:\n        /* \"#utility.yul\":18268:18274   */\n      dup6\n        /* \"#utility.yul\":18265:18266   */\n      dup2\n        /* \"#utility.yul\":18262:18275   */\n      lt\n        /* \"#utility.yul\":18243:18693   */\n      iszero\n      tag_577\n      jumpi\n        /* \"#utility.yul\":18339:18348   */\n      dup5\n        /* \"#utility.yul\":18333:18337   */\n      dup5\n        /* \"#utility.yul\":18329:18349   */\n      sub\n        /* \"#utility.yul\":18324:18327   */\n      dup10\n        /* \"#utility.yul\":18317:18350   */\n      mstore\n        /* \"#utility.yul\":18390:18396   */\n      dup2\n        /* \"#utility.yul\":18384:18397   */\n      mload\n        /* \"#utility.yul\":18418:18538   */\n      tag_578\n        /* \"#utility.yul\":18533:18537   */\n      dup6\n        /* \"#utility.yul\":18518:18531   */\n      dup3\n        /* \"#utility.yul\":18418:18538   */\n      tag_387\n      jump\t// in\n    tag_578:\n        /* \"#utility.yul\":18410:18538   */\n      swap5\n      pop\n        /* \"#utility.yul\":18561:18649   */\n      tag_579\n        /* \"#utility.yul\":18642:18648   */\n      dup4\n        /* \"#utility.yul\":18561:18649   */\n      tag_388\n      jump\t// in\n    tag_579:\n        /* \"#utility.yul\":18551:18649   */\n      swap3\n      pop\n        /* \"#utility.yul\":18678:18682   */\n      0x20\n        /* \"#utility.yul\":18673:18676   */\n      dup11\n        /* \"#utility.yul\":18669:18683   */\n      add\n        /* \"#utility.yul\":18662:18683   */\n      swap10\n      pop\n        /* \"#utility.yul\":18303:18693   */\n      pop\n        /* \"#utility.yul\":18290:18291   */\n      0x01\n        /* \"#utility.yul\":18287:18288   */\n      dup2\n        /* \"#utility.yul\":18283:18292   */\n      add\n        /* \"#utility.yul\":18278:18292   */\n      swap1\n      pop\n        /* \"#utility.yul\":18243:18693   */\n      jump(tag_575)\n    tag_577:\n        /* \"#utility.yul\":18247:18261   */\n      pop\n        /* \"#utility.yul\":18709:18713   */\n      dup3\n        /* \"#utility.yul\":18702:18713   */\n      swap8\n      pop\n        /* \"#utility.yul\":18729:18732   */\n      dup8\n        /* \"#utility.yul\":18722:18732   */\n      swap6\n      pop\n        /* \"#utility.yul\":17783:18738   */\n      pop\n      pop\n      pop\n      pop\n      pop\n        /* \"#utility.yul\":17603:18738   */\n      swap3\n      swap2\n      pop\n      pop\n      jump\t// out\n        /* \"#utility.yul\":18744:19229   */\n    tag_54:\n        /* \"#utility.yul\":18943:18947   */\n      0x00\n        /* \"#utility.yul\":18981:18983   */\n      0x20\n        /* \"#utility.yul\":18970:18979   */\n      dup3\n        /* \"#utility.yul\":18966:18984   */\n      add\n        /* \"#utility.yul\":18958:18984   */\n      swap1\n      pop\n        /* \"#utility.yul\":19030:19039   */\n      dup2\n        /* \"#utility.yul\":19024:19028   */\n      dup2\n        /* \"#utility.yul\":19020:19040   */\n      sub\n        /* \"#utility.yul\":19016:19017   */\n      0x00\n        /* \"#utility.yul\":19005:19014   */\n      dup4\n        /* \"#utility.yul\":19001:19018   */\n      add\n        /* \"#utility.yul\":18994:19041   */\n      mstore\n        /* \"#utility.yul\":19058:19222   */\n      tag_581\n        /* \"#utility.yul\":19217:19221   */\n      dup2\n        /* \"#utility.yul\":19208:19214   */\n      dup5\n        /* \"#utility.yul\":19058:19222   */\n      tag_389\n      jump\t// in\n    tag_581:\n        /* \"#utility.yul\":19050:19222   */\n      swap1\n      pop\n        /* \"#utility.yul\":18744:19229   */\n      swap3\n      swap2\n      pop\n      pop\n      jump\t// out\n        /* \"#utility.yul\":19235:19889   */\n    tag_58:\n        /* \"#utility.yul\":19313:19319   */\n      0x00\n        /* \"#utility.yul\":19321:19327   */\n      dup1\n        /* \"#utility.yul\":19370:19372   */\n      0x40\n        /* \"#utility.yul\":19358:19367   */\n      dup4\n        /* \"#utility.yul\":19349:19356   */\n      dup6\n        /* \"#utility.yul\":19345:19368   */\n      sub\n        /* \"#utility.yul\":19341:19373   */\n      slt\n        /* \"#utility.yul\":19338:19457   */\n      iszero\n      tag_583\n      jumpi\n        /* \"#utility.yul\":19376:19455   */\n      tag_584\n      tag_346\n      jump\t// in\n    tag_584:\n        /* \"#utility.yul\":19338:19457   */\n    tag_583:\n        /* \"#utility.yul\":19496:19497   */\n      0x00\n        /* \"#utility.yul\":19521:19574   */\n      tag_585\n        /* \"#utility.yul\":19566:19573   */\n      dup6\n        /* \"#utility.yul\":19557:19563   */\n      dup3\n        /* \"#utility.yul\":19546:19555   */\n      dup7\n        /* \"#utility.yul\":19542:19564   */\n      add\n        /* \"#utility.yul\":19521:19574   */\n      tag_351\n      jump\t// in\n    tag_585:\n        /* \"#utility.yul\":19511:19574   */\n      swap3\n      pop\n        /* \"#utility.yul\":19467:19584   */\n      pop\n        /* \"#utility.yul\":19651:19653   */\n      0x20\n        /* \"#utility.yul\":19640:19649   */\n      dup4\n        /* \"#utility.yul\":19636:19654   */\n      add\n        /* \"#utility.yul\":19623:19655   */\n      calldataload\n        /* \"#utility.yul\":19682:19700   */\n      0xffffffffffffffff\n        /* \"#utility.yul\":19674:19680   */\n      dup2\n        /* \"#utility.yul\":19671:19701   */\n      gt\n        /* \"#utility.yul\":19668:19785   */\n      iszero\n      tag_586\n      jumpi\n        /* \"#utility.yul\":19704:19783   */\n      tag_587\n      tag_347\n      jump\t// in\n    tag_587:\n        /* \"#utility.yul\":19668:19785   */\n    tag_586:\n        /* \"#utility.yul\":19809:19872   */\n      tag_588\n        /* \"#utility.yul\":19864:19871   */\n      dup6\n        /* \"#utility.yul\":19855:19861   */\n      dup3\n        /* \"#utility.yul\":19844:19853   */\n      dup7\n        /* \"#utility.yul\":19840:19862   */\n      add\n        /* \"#utility.yul\":19809:19872   */\n      tag_375\n      jump\t// in\n    tag_588:\n        /* \"#utility.yul\":19799:19872   */\n      swap2\n      pop\n        /* \"#utility.yul\":19594:19882   */\n      pop\n        /* \"#utility.yul\":19235:19889   */\n      swap3\n      pop\n      swap3\n      swap1\n      pop\n      jump\t// out\n        /* \"#utility.yul\":19895:20075   */\n    tag_390:\n        /* \"#utility.yul\":19943:20020   */\n      0x4e487b7100000000000000000000000000000000000000000000000000000000\n        /* \"#utility.yul\":19940:19941   */\n      0x00\n        /* \"#utility.yul\":19933:20021   */\n      mstore\n        /* \"#utility.yul\":20040:20044   */\n      0x22\n        /* \"#utility.yul\":20037:20038   */\n      0x04\n        /* \"#utility.yul\":20030:20045   */\n      mstore\n        /* \"#utility.yul\":20064:20068   */\n      0x24\n        /* \"#utility.yul\":20061:20062   */\n      0x00\n        /* \"#utility.yul\":20054:20069   */\n      revert\n        /* \"#utility.yul\":20081:20401   */\n    tag_65:\n        /* \"#utility.yul\":20125:20131   */\n      0x00\n        /* \"#utility.yul\":20162:20163   */\n      0x02\n        /* \"#utility.yul\":20156:20160   */\n      dup3\n        /* \"#utility.yul\":20152:20164   */\n      div\n        /* \"#utility.yul\":20142:20164   */\n      swap1\n      pop\n        /* \"#utility.yul\":20209:20210   */\n      0x01\n        /* \"#utility.yul\":20203:20207   */\n      dup3\n        /* \"#utility.yul\":20199:20211   */\n      and\n        /* \"#utility.yul\":20230:20248   */\n      dup1\n        /* \"#utility.yul\":20220:20301   */\n      tag_591\n      jumpi\n        /* \"#utility.yul\":20286:20290   */\n      0x7f\n        /* \"#utility.yul\":20278:20284   */\n      dup3\n        /* \"#utility.yul\":20274:20291   */\n      and\n        /* \"#utility.yul\":20264:20291   */\n      swap2\n      pop\n        /* \"#utility.yul\":20220:20301   */\n    tag_591:\n        /* \"#utility.yul\":20348:20350   */\n      0x20\n        /* \"#utility.yul\":20340:20346   */\n      dup3\n        /* \"#utility.yul\":20337:20351   */\n      lt\n        /* \"#utility.yul\":20317:20335   */\n      dup2\n        /* \"#utility.yul\":20314:20352   */\n      sub\n        /* \"#utility.yul\":20311:20395   */\n      tag_592\n      jumpi\n        /* \"#utility.yul\":20367:20385   */\n      tag_593\n      tag_390\n      jump\t// in\n    tag_593:\n        /* \"#utility.yul\":20311:20395   */\n    tag_592:\n        /* \"#utility.yul\":20132:20401   */\n      pop\n        /* \"#utility.yul\":20081:20401   */\n      swap2\n      swap1\n      pop\n      jump\t// out\n        /* \"#utility.yul\":20407:20548   */\n    tag_391:\n        /* \"#utility.yul\":20456:20460   */\n      0x00\n        /* \"#utility.yul\":20479:20482   */\n      dup2\n        /* \"#utility.yul\":20471:20482   */\n      swap1\n      pop\n        /* \"#utility.yul\":20502:20505   */\n      dup2\n        /* \"#utility.yul\":20499:20500   */\n      0x00\n        /* \"#utility.yul\":20492:20506   */\n      mstore\n        /* \"#utility.yul\":20536:20540   */\n      0x20\n        /* \"#utility.yul\":20533:20534   */\n      0x00\n        /* \"#utility.yul\":20523:20541   */\n      keccak256\n        /* \"#utility.yul\":20515:20541   */\n      swap1\n      pop\n        /* \"#utility.yul\":20407:20548   */\n      swap2\n      swap1\n      pop\n      jump\t// out\n        /* \"#utility.yul\":20554:20647   */\n    tag_392:\n        /* \"#utility.yul\":20591:20597   */\n      0x00\n        /* \"#utility.yul\":20638:20640   */\n      0x20\n        /* \"#utility.yul\":20633:20635   */\n      0x1f\n        /* \"#utility.yul\":20626:20631   */\n      dup4\n        /* \"#utility.yul\":20622:20636   */\n      add\n        /* \"#utility.yul\":20618:20641   */\n      div\n        /* \"#utility.yul\":20608:20641   */\n      swap1\n      pop\n        /* \"#utility.yul\":20554:20647   */\n      swap2\n      swap1\n      pop\n      jump\t// out\n        /* \"#utility.yul\":20653:20760   */\n    tag_393:\n        /* \"#utility.yul\":20697:20705   */\n      0x00\n        /* \"#utility.yul\":20747:20752   */\n      dup3\n        /* \"#utility.yul\":20741:20745   */\n      dup3\n        /* \"#utility.yul\":20737:20753   */\n      shl\n        /* \"#utility.yul\":20716:20753   */\n      swap1\n      pop\n        /* \"#utility.yul\":20653:20760   */\n      swap3\n      swap2\n      pop\n      pop\n      jump\t// out\n        /* \"#utility.yul\":20766:21159   */\n    tag_394:\n        /* \"#utility.yul\":20835:20841   */\n      0x00\n        /* \"#utility.yul\":20885:20886   */\n      0x08\n        /* \"#utility.yul\":20873:20883   */\n      dup4\n        /* \"#utility.yul\":20869:20887   */\n      mul\n        /* \"#utility.yul\":20908:21005   */\n      tag_598\n        /* \"#utility.yul\":20938:21004   */\n      0xffffffffffffffffffffffffffffffffffffffffffffffffffffffffffffffff\n        /* \"#utility.yul\":20927:20936   */\n      dup3\n        /* \"#utility.yul\":20908:21005   */\n      tag_393\n      jump\t// in\n    tag_598:\n        /* \"#utility.yul\":21026:21065   */\n      tag_599\n        /* \"#utility.yul\":21056:21064   */\n      dup7\n        /* \"#utility.yul\":21045:21054   */\n      dup4\n        /* \"#utility.yul\":21026:21065   */\n      tag_393\n      jump\t// in\n    tag_599:\n        /* \"#utility.yul\":21014:21065   */\n      swap6\n      pop\n        /* \"#utility.yul\":21098:21102   */\n      dup1\n        /* \"#utility.yul\":21094:21103   */\n      not\n        /* \"#utility.yul\":21087:21092   */\n      dup5\n        /* \"#utility.yul\":21083:21104   */\n      and\n        /* \"#utility.yul\":21074:21104   */\n      swap4\n      pop\n        /* \"#utility.yul\":21147:21151   */\n      dup1\n        /* \"#utility.yul\":21137:21145   */\n      dup7\n        /* \"#utility.yul\":21133:21152   */\n      and\n        /* \"#utility.yul\":21126:21131   */\n      dup5\n        /* \"#utility.yul\":21123:21153   */\n      or\n        /* \"#utility.yul\":21113:21153   */\n      swap3\n      pop\n        /* \"#utility.yul\":20842:21159   */\n      pop\n      pop\n        /* \"#utility.yul\":20766:21159   */\n      swap4\n      swap3\n      pop\n      pop\n      pop\n      jump\t// out\n        /* \"#utility.yul\":21165:21225   */\n    tag_395:\n        /* \"#utility.yul\":21193:21196   */\n      0x00\n        /* \"#utility.yul\":21214:21219   */\n      dup2\n        /* \"#utility.yul\":21207:21219   */\n      swap1\n      pop\n        /* \"#utility.yul\":21165:21225   */\n      swap2\n      swap1\n      pop\n      jump\t// out\n        /* \"#utility.yul\":21231:21373   */\n    tag_396:\n        /* \"#utility.yul\":21281:21290   */\n      0x00\n        /* \"#utility.yul\":21314:21367   */\n      tag_602\n        /* \"#utility.yul\":21332:21366   */\n      tag_603\n        /* \"#utility.yul\":21341:21365   */\n      tag_604\n        /* \"#utility.yul\":21359:21364   */\n      dup5\n        /* \"#utility.yul\":21341:21365   */\n      tag_378\n      jump\t// in\n    tag_604:\n        /* \"#utility.yul\":21332:21366   */\n      tag_395\n      jump\t// in\n    tag_603:\n        /* \"#utility.yul\":21314:21367   */\n      tag_378\n      jump\t// in\n    tag_602:\n        /* \"#utility.yul\":21301:21367   */\n      swap1\n      pop\n        /* \"#utility.yul\":21231:21373   */\n      swap2\n      swap1\n      pop\n      jump\t// out\n        /* \"#utility.yul\":21379:21454   */\n    tag_397:\n        /* \"#utility.yul\":21422:21425   */\n      0x00\n        /* \"#utility.yul\":21443:21448   */\n      dup2\n        /* \"#utility.yul\":21436:21448   */\n      swap1\n      pop\n        /* \"#utility.yul\":21379:21454   */\n      swap2\n      swap1\n      pop\n      jump\t// out\n        /* \"#utility.yul\":21460:21729   */\n    tag_398:\n        /* \"#utility.yul\":21570:21609   */\n      tag_607\n        /* \"#utility.yul\":21601:21608   */\n      dup4\n        /* \"#utility.yul\":21570:21609   */\n      tag_396\n      jump\t// in\n    tag_607:\n        /* \"#utility.yul\":21631:21722   */\n      tag_608\n        /* \"#utility.yul\":21680:21721   */\n      tag_609\n        /* \"#utility.yul\":21704:21720   */\n      dup3\n        /* \"#utility.yul\":21680:21721   */\n      tag_397\n      jump\t// in\n    tag_609:\n        /* \"#utility.yul\":21672:21678   */\n      dup5\n        /* \"#utility.yul\":21665:21669   */\n      dup5\n        /* \"#utility.yul\":21659:21670   */\n      sload\n        /* \"#utility.yul\":21631:21722   */\n      tag_394\n      jump\t// in\n    tag_608:\n        /* \"#utility.yul\":21625:21629   */\n      dup3\n        /* \"#utility.yul\":21618:21723   */\n      sstore\n        /* \"#utility.yul\":21536:21729   */\n      pop\n        /* \"#utility.yul\":21460:21729   */\n      pop\n      pop\n      pop\n      jump\t// out\n        /* \"#utility.yul\":21735:21808   */\n    tag_399:\n        /* \"#utility.yul\":21780:21783   */\n      0x00\n        /* \"#utility.yul\":21735:21808   */\n      swap1\n      jump\t// out\n        /* \"#utility.yul\":21814:22003   */\n    tag_400:\n        /* \"#utility.yul\":21891:21923   */\n      tag_612\n      tag_399\n      jump\t// in\n    tag_612:\n        /* \"#utility.yul\":21932:21997   */\n      tag_613\n        /* \"#utility.yul\":21990:21996   */\n      dup2\n        /* \"#utility.yul\":21982:21988   */\n      dup5\n        /* \"#utility.yul\":21976:21980   */\n      dup5\n        /* \"#utility.yul\":21932:21997   */\n      tag_398\n      jump\t// in\n    tag_613:\n        /* \"#utility.yul\":21867:22003   */\n      pop\n        /* \"#utility.yul\":21814:22003   */\n      pop\n      pop\n      jump\t// out\n        /* \"#utility.yul\":22009:22195   */\n    tag_401:\n        /* \"#utility.yul\":22069:22189   */\n    tag_615:\n        /* \"#utility.yul\":22086:22089   */\n      dup2\n        /* \"#utility.yul\":22079:22084   */\n      dup2\n        /* \"#utility.yul\":22076:22090   */\n      lt\n        /* \"#utility.yul\":22069:22189   */\n      iszero\n      tag_617\n      jumpi\n        /* \"#utility.yul\":22140:22179   */\n      tag_618\n        /* \"#utility.yul\":22177:22178   */\n      0x00\n        /* \"#utility.yul\":22170:22175   */\n      dup3\n        /* \"#utility.yul\":22140:22179   */\n      tag_400\n      jump\t// in\n    tag_618:\n        /* \"#utility.yul\":22113:22114   */\n      0x01\n        /* \"#utility.yul\":22106:22111   */\n      dup2\n        /* \"#utility.yul\":22102:22115   */\n      add\n        /* \"#utility.yul\":22093:22115   */\n      swap1\n      pop\n        /* \"#utility.yul\":22069:22189   */\n      jump(tag_615)\n    tag_617:\n        /* \"#utility.yul\":22009:22195   */\n      pop\n      pop\n      jump\t// out\n        /* \"#utility.yul\":22201:22744   */\n    tag_402:\n        /* \"#utility.yul\":22302:22304   */\n      0x1f\n        /* \"#utility.yul\":22297:22300   */\n      dup3\n        /* \"#utility.yul\":22294:22305   */\n      gt\n        /* \"#utility.yul\":22291:22737   */\n      iszero\n      tag_620\n      jumpi\n        /* \"#utility.yul\":22336:22374   */\n      tag_621\n        /* \"#utility.yul\":22368:22373   */\n      dup2\n        /* \"#utility.yul\":22336:22374   */\n      tag_391\n      jump\t// in\n    tag_621:\n        /* \"#utility.yul\":22420:22449   */\n      tag_622\n        /* \"#utility.yul\":22438:22448   */\n      dup5\n        /* \"#utility.yul\":22420:22449   */\n      tag_392\n      jump\t// in\n    tag_622:\n        /* \"#utility.yul\":22410:22418   */\n      dup2\n        /* \"#utility.yul\":22406:22450   */\n      add\n        /* \"#utility.yul\":22603:22605   */\n      0x20\n        /* \"#utility.yul\":22591:22601   */\n      dup6\n        /* \"#utility.yul\":22588:22606   */\n      lt\n        /* \"#utility.yul\":22585:22634   */\n      iszero\n      tag_623\n      jumpi\n        /* \"#utility.yul\":22624:22632   */\n      dup2\n        /* \"#utility.yul\":22609:22632   */\n      swap1\n      pop\n        /* \"#utility.yul\":22585:22634   */\n    tag_623:\n        /* \"#utility.yul\":22647:22727   */\n      tag_624\n        /* \"#utility.yul\":22703:22725   */\n      tag_625\n        /* \"#utility.yul\":22721:22724   */\n      dup6\n        /* \"#utility.yul\":22703:22725   */\n      tag_392\n      jump\t// in\n    tag_625:\n        /* \"#utility.yul\":22693:22701   */\n      dup4\n        /* \"#utility.yul\":22689:22726   */\n      add\n        /* \"#utility.yul\":22676:22687   */\n      dup3\n        /* \"#utility.yul\":22647:22727   */\n      tag_401\n      jump\t// in\n    tag_624:\n        /* \"#utility.yul\":22306:22737   */\n      pop\n      pop\n        /* \"#utility.yul\":22291:22737   */\n    tag_620:\n        /* \"#utility.yul\":22201:22744   */\n      pop\n      pop\n      pop\n      jump\t// out\n        /* \"#utility.yul\":22750:22867   */\n    tag_403:\n        /* \"#utility.yul\":22804:22812   */\n      0x00\n        /* \"#utility.yul\":22854:22859   */\n      dup3\n        /* \"#utility.yul\":22848:22852   */\n      dup3\n        /* \"#utility.yul\":22844:22860   */\n      shr\n        /* \"#utility.yul\":22823:22860   */\n      swap1\n      pop\n        /* \"#utility.yul\":22750:22867   */\n      swap3\n      swap2\n      pop\n      pop\n      jump\t// out\n        /* \"#utility.yul\":22873:23042   */\n    tag_404:\n        /* \"#utility.yul\":22917:22923   */\n      0x00\n        /* \"#utility.yul\":22950:23001   */\n      tag_628\n        /* \"#utility.yul\":22998:22999   */\n      0x00\n        /* \"#utility.yul\":22994:23000   */\n      not\n        /* \"#utility.yul\":22986:22991   */\n      dup5\n        /* \"#utility.yul\":22983:22984   */\n      0x08\n        /* \"#utility.yul\":22979:22992   */\n      mul\n        /* \"#utility.yul\":22950:23001   */\n      tag_403\n      jump\t// in\n    tag_628:\n        /* \"#utility.yul\":22946:23002   */\n      not\n        /* \"#utility.yul\":23031:23035   */\n      dup1\n        /* \"#utility.yul\":23025:23029   */\n      dup4\n        /* \"#utility.yul\":23021:23036   */\n      and\n        /* \"#utility.yul\":23011:23036   */\n      swap2\n      pop\n        /* \"#utility.yul\":22924:23042   */\n      pop\n        /* \"#utility.yul\":22873:23042   */\n      swap3\n      swap2\n      pop\n      pop\n      jump\t// out\n        /* \"#utility.yul\":23047:23342   */\n    tag_405:\n        /* \"#utility.yul\":23123:23127   */\n      0x00\n        /* \"#utility.yul\":23269:23298   */\n      tag_630\n        /* \"#utility.yul\":23294:23297   */\n      dup4\n        /* \"#utility.yul\":23288:23292   */\n      dup4\n        /* \"#utility.yul\":23269:23298   */\n      tag_404\n      jump\t// in\n    tag_630:\n        /* \"#utility.yul\":23261:23298   */\n      swap2\n      pop\n        /* \"#utility.yul\":23331:23334   */\n      dup3\n        /* \"#utility.yul\":23328:23329   */\n      0x02\n        /* \"#utility.yul\":23324:23335   */\n      mul\n        /* \"#utility.yul\":23318:23322   */\n      dup3\n        /* \"#utility.yul\":23315:23336   */\n      or\n        /* \"#utility.yul\":23307:23336   */\n      swap1\n      pop\n        /* \"#utility.yul\":23047:23342   */\n      swap3\n      swap2\n      pop\n      pop\n      jump\t// out\n        /* \"#utility.yul\":23347:24742   */\n    tag_84:\n        /* \"#utility.yul\":23464:23501   */\n      tag_632\n        /* \"#utility.yul\":23497:23500   */\n      dup3\n        /* \"#utility.yul\":23464:23501   */\n      tag_356\n      jump\t// in\n    tag_632:\n        /* \"#utility.yul\":23566:23584   */\n      0xffffffffffffffff\n        /* \"#utility.yul\":23558:23564   */\n      dup2\n        /* \"#utility.yul\":23555:23585   */\n      gt\n        /* \"#utility.yul\":23552:23608   */\n      iszero\n      tag_633\n      jumpi\n        /* \"#utility.yul\":23588:23606   */\n      tag_634\n      tag_369\n      jump\t// in\n    tag_634:\n        /* \"#utility.yul\":23552:23608   */\n    tag_633:\n        /* \"#utility.yul\":23632:23670   */\n      tag_635\n        /* \"#utility.yul\":23664:23668   */\n      dup3\n        /* \"#utility.yul\":23658:23669   */\n      sload\n        /* \"#utility.yul\":23632:23670   */\n      tag_65\n      jump\t// in\n    tag_635:\n        /* \"#utility.yul\":23717:23784   */\n      tag_636\n        /* \"#utility.yul\":23777:23783   */\n      dup3\n        /* \"#utility.yul\":23769:23775   */\n      dup3\n        /* \"#utility.yul\":23763:23767   */\n      dup6\n        /* \"#utility.yul\":23717:23784   */\n      tag_402\n      jump\t// in\n    tag_636:\n        /* \"#utility.yul\":23811:23812   */\n      0x00\n        /* \"#utility.yul\":23835:23839   */\n      0x20\n        /* \"#utility.yul\":23822:23839   */\n      swap1\n      pop\n        /* \"#utility.yul\":23867:23869   */\n      0x1f\n        /* \"#utility.yul\":23859:23865   */\n      dup4\n        /* \"#utility.yul\":23856:23870   */\n      gt\n        /* \"#utility.yul\":23884:23885   */\n      0x01\n        /* \"#utility.yul\":23879:24497   */\n      dup2\n      eq\n      tag_638\n      jumpi\n        /* \"#utility.yul\":24541:24542   */\n      0x00\n        /* \"#utility.yul\":24558:24564   */\n      dup5\n        /* \"#utility.yul\":24555:24632   */\n      iszero\n      tag_639\n      jumpi\n        /* \"#utility.yul\":24607:24616   */\n      dup3\n        /* \"#utility.yul\":24602:24605   */\n      dup8\n        /* \"#utility.yul\":24598:24617   */\n      add\n        /* \"#utility.yul\":24592:24618   */\n      mload\n        /* \"#utility.yul\":24583:24618   */\n      swap1\n      pop\n        /* \"#utility.yul\":24555:24632   */\n    tag_639:\n        /* \"#utility.yul\":24658:24725   */\n      tag_640\n        /* \"#utility.yul\":24718:24724   */\n      dup6\n        /* \"#utility.yul\":24711:24716   */\n      dup3\n        /* \"#utility.yul\":24658:24725   */\n      tag_405\n      jump\t// in\n    tag_640:\n        /* \"#utility.yul\":24652:24656   */\n      dup7\n        /* \"#utility.yul\":24645:24726   */\n      sstore\n        /* \"#utility.yul\":24514:24736   */\n      pop\n        /* \"#utility.yul\":23849:24736   */\n      jump(tag_637)\n        /* \"#utility.yul\":23879:24497   */\n    tag_638:\n        /* \"#utility.yul\":23931:23935   */\n      0x1f\n        /* \"#utility.yul\":23927:23936   */\n      not\n        /* \"#utility.yul\":23919:23925   */\n      dup5\n        /* \"#utility.yul\":23915:23937   */\n      and\n        /* \"#utility.yul\":23965:24002   */\n      tag_641\n        /* \"#utility.yul\":23997:24001   */\n      dup7\n        /* \"#utility.yul\":23965:24002   */\n      tag_391\n      jump\t// in\n    tag_641:\n        /* \"#utility.yul\":24024:24025   */\n      0x00\n        /* \"#utility.yul\":24038:24246   */\n    tag_642:\n        /* \"#utility.yul\":24052:24059   */\n      dup3\n        /* \"#utility.yul\":24049:24050   */\n      dup2\n        /* \"#utility.yul\":24046:24060   */\n      lt\n        /* \"#utility.yul\":24038:24246   */\n      iszero\n      tag_644\n      jumpi\n        /* \"#utility.yul\":24131:24140   */\n      dup5\n        /* \"#utility.yul\":24126:24129   */\n      dup10\n        /* \"#utility.yul\":24122:24141   */\n      add\n        /* \"#utility.yul\":24116:24142   */\n      mload\n        /* \"#utility.yul\":24108:24114   */\n      dup3\n        /* \"#utility.yul\":24101:24143   */\n      sstore\n        /* \"#utility.yul\":24182:24183   */\n      0x01\n        /* \"#utility.yul\":24174:24180   */\n      dup3\n        /* \"#utility.yul\":24170:24184   */\n      add\n        /* \"#utility.yul\":24160:24184   */\n      swap2\n      pop\n        /* \"#utility.yul\":24229:24231   */\n      0x20\n        /* \"#utility.yul\":24218:24227   */\n      dup6\n        /* \"#utility.yul\":24214:24232   */\n      add\n        /* \"#utility.yul\":24201:24232   */\n      swap5\n      pop\n        /* \"#utility.yul\":24075:24079   */\n      0x20\n        /* \"#utility.yul\":24072:24073   */\n      dup2\n        /* \"#utility.yul\":24068:24080   */\n      add\n        /* \"#utility.yul\":24063:24080   */\n      swap1\n      pop\n        /* \"#utility.yul\":24038:24246   */\n      jump(tag_642)\n    tag_644:\n        /* \"#utility.yul\":24274:24280   */\n      dup7\n        /* \"#utility.yul\":24265:24272   */\n      dup4\n        /* \"#utility.yul\":24262:24281   */\n      lt\n        /* \"#utility.yul\":24259:24438   */\n      iszero\n      tag_645\n      jumpi\n        /* \"#utility.yul\":24332:24341   */\n      dup5\n        /* \"#utility.yul\":24327:24330   */\n      dup10\n        /* \"#utility.yul\":24323:24342   */\n      add\n        /* \"#utility.yul\":24317:24343   */\n      mload\n        /* \"#utility.yul\":24375:24423   */\n      tag_646\n        /* \"#utility.yul\":24417:24421   */\n      0x1f\n        /* \"#utility.yul\":24409:24415   */\n      dup10\n        /* \"#utility.yul\":24405:24422   */\n      and\n        /* \"#utility.yul\":24394:24403   */\n      dup3\n        /* \"#utility.yul\":24375:24423   */\n      tag_404\n      jump\t// in\n    tag_646:\n        /* \"#utility.yul\":24367:24373   */\n      dup4\n        /* \"#utility.yul\":24360:24424   */\n      sstore\n        /* \"#utility.yul\":24282:24438   */\n      pop\n        /* \"#utility.yul\":24259:24438   */\n    tag_645:\n        /* \"#utility.yul\":24484:24485   */\n      0x01\n        /* \"#utility.yul\":24480:24481   */\n      0x02\n        /* \"#utility.yul\":24472:24478   */\n      dup9\n        /* \"#utility.yul\":24468:24482   */\n      mul\n        /* \"#utility.yul\":24464:24486   */\n      add\n        /* \"#utility.yul\":24458:24462   */\n      dup9\n        /* \"#utility.yul\":24451:24487   */\n      sstore\n        /* \"#utility.yul\":23886:24497   */\n      pop\n      pop\n      pop\n        /* \"#utility.yul\":23849:24736   */\n    tag_637:\n      pop\n        /* \"#utility.yul\":23439:24742   */\n      pop\n      pop\n      pop\n        /* \"#utility.yul\":23347:24742   */\n      pop\n      pop\n      jump\t// out\n        /* \"#utility.yul\":24748:24896   */\n    tag_406:\n        /* \"#utility.yul\":24850:24861   */\n      0x00\n        /* \"#utility.yul\":24887:24890   */\n      dup2\n        /* \"#utility.yul\":24872:24890   */\n      swap1\n      pop\n        /* \"#utility.yul\":24748:24896   */\n      swap3\n      swap2\n      pop\n      pop\n      jump\t// out\n        /* \"#utility.yul\":24902:25056   */\n    tag_407:\n        /* \"#utility.yul\":25042:25048   */\n      0x4445414e00000000000000000000000000000000000000000000000000000000\n        /* \"#utility.yul\":25038:25039   */\n      0x00\n        /* \"#utility.yul\":25030:25036   */\n      dup3\n        /* \"#utility.yul\":25026:25040   */\n      add\n        /* \"#utility.yul\":25019:25049   */\n      mstore\n        /* \"#utility.yul\":24902:25056   */\n      pop\n      jump\t// out\n        /* \"#utility.yul\":25062:25462   */\n    tag_408:\n        /* \"#utility.yul\":25222:25225   */\n      0x00\n        /* \"#utility.yul\":25243:25327   */\n      tag_650\n        /* \"#utility.yul\":25325:25326   */\n      0x04\n        /* \"#utility.yul\":25320:25323   */\n      dup4\n        /* \"#utility.yul\":25243:25327   */\n      tag_406\n      jump\t// in\n    tag_650:\n        /* \"#utility.yul\":25236:25327   */\n      swap2\n      pop\n        /* \"#utility.yul\":25336:25429   */\n      tag_651\n        /* \"#utility.yul\":25425:25428   */\n      dup3\n        /* \"#utility.yul\":25336:25429   */\n      tag_407\n      jump\t// in\n    tag_651:\n        /* \"#utility.yul\":25454:25455   */\n      0x04\n        /* \"#utility.yul\":25449:25452   */\n      dup3\n        /* \"#utility.yul\":25445:25456   */\n      add\n        /* \"#utility.yul\":25438:25456   */\n      swap1\n      pop\n        /* \"#utility.yul\":25062:25462   */\n      swap2\n      swap1\n      pop\n      jump\t// out\n        /* \"#utility.yul\":25468:25849   */\n    tag_88:\n        /* \"#utility.yul\":25653:25656   */\n      0x00\n        /* \"#utility.yul\":25675:25823   */\n      tag_653\n        /* \"#utility.yul\":25819:25822   */\n      dup3\n        /* \"#utility.yul\":25675:25823   */\n      tag_408\n      jump\t// in\n    tag_653:\n        /* \"#utility.yul\":25668:25823   */\n      swap2\n      pop\n        /* \"#utility.yul\":25840:25843   */\n      dup2\n        /* \"#utility.yul\":25833:25843   */\n      swap1\n      pop\n        /* \"#utility.yul\":25468:25849   */\n      swap2\n      swap1\n      pop\n      jump\t// out\n        /* \"#utility.yul\":25855:26245   */\n    tag_409:\n        /* \"#utility.yul\":25961:25964   */\n      0x00\n        /* \"#utility.yul\":25989:26028   */\n      tag_655\n        /* \"#utility.yul\":26022:26027   */\n      dup3\n        /* \"#utility.yul\":25989:26028   */\n      tag_356\n      jump\t// in\n    tag_655:\n        /* \"#utility.yul\":26044:26133   */\n      tag_656\n        /* \"#utility.yul\":26126:26132   */\n      dup2\n        /* \"#utility.yul\":26121:26124   */\n      dup6\n        /* \"#utility.yul\":26044:26133   */\n      tag_406\n      jump\t// in\n    tag_656:\n        /* \"#utility.yul\":26037:26133   */\n      swap4\n      pop\n        /* \"#utility.yul\":26142:26207   */\n      tag_657\n        /* \"#utility.yul\":26200:26206   */\n      dup2\n        /* \"#utility.yul\":26195:26198   */\n      dup6\n        /* \"#utility.yul\":26188:26192   */\n      0x20\n        /* \"#utility.yul\":26181:26186   */\n      dup7\n        /* \"#utility.yul\":26177:26193   */\n      add\n        /* \"#utility.yul\":26142:26207   */\n      tag_358\n      jump\t// in\n    tag_657:\n        /* \"#utility.yul\":26232:26238   */\n      dup1\n        /* \"#utility.yul\":26227:26230   */\n      dup5\n        /* \"#utility.yul\":26223:26239   */\n      add\n        /* \"#utility.yul\":26216:26239   */\n      swap2\n      pop\n        /* \"#utility.yul\":25965:26245   */\n      pop\n        /* \"#utility.yul\":25855:26245   */\n      swap3\n      swap2\n      pop\n      pop\n      jump\t// out\n        /* \"#utility.yul\":26251:26526   */\n    tag_90:\n        /* \"#utility.yul\":26383:26386   */\n      0x00\n        /* \"#utility.yul\":26405:26500   */\n      tag_659\n        /* \"#utility.yul\":26496:26499   */\n      dup3\n        /* \"#utility.yul\":26487:26493   */\n      dup5\n        /* \"#utility.yul\":26405:26500   */\n      tag_409\n      jump\t// in\n    tag_659:\n        /* \"#utility.yul\":26398:26500   */\n      swap2\n      pop\n        /* \"#utility.yul\":26517:26520   */\n      dup2\n        /* \"#utility.yul\":26510:26520   */\n      swap1\n      pop\n        /* \"#utility.yul\":26251:26526   */\n      swap3\n      swap2\n      pop\n      pop\n      jump\t// out\n        /* \"#utility.yul\":26532:26685   */\n    tag_410:\n        /* \"#utility.yul\":26672:26677   */\n      0x484f440000000000000000000000000000000000000000000000000000000000\n        /* \"#utility.yul\":26668:26669   */\n      0x00\n        /* \"#utility.yul\":26660:26666   */\n      dup3\n        /* \"#utility.yul\":26656:26670   */\n      add\n        /* \"#utility.yul\":26649:26678   */\n      mstore\n        /* \"#utility.yul\":26532:26685   */\n      pop\n      jump\t// out\n        /* \"#utility.yul\":26691:27091   */\n    tag_411:\n        /* \"#utility.yul\":26851:26854   */\n      0x00\n        /* \"#utility.yul\":26872:26956   */\n      tag_662\n        /* \"#utility.yul\":26954:26955   */\n      0x03\n        /* \"#utility.yul\":26949:26952   */\n      dup4\n        /* \"#utility.yul\":26872:26956   */\n      tag_406\n      jump\t// in\n    tag_662:\n        /* \"#utility.yul\":26865:26956   */\n      swap2\n      pop\n        /* \"#utility.yul\":26965:27058   */\n      tag_663\n        /* \"#utility.yul\":27054:27057   */\n      dup3\n        /* \"#utility.yul\":26965:27058   */\n      tag_410\n      jump\t// in\n    tag_663:\n        /* \"#utility.yul\":27083:27084   */\n      0x03\n        /* \"#utility.yul\":27078:27081   */\n      dup3\n        /* \"#utility.yul\":27074:27085   */\n      add\n        /* \"#utility.yul\":27067:27085   */\n      swap1\n      pop\n        /* \"#utility.yul\":26691:27091   */\n      swap2\n      swap1\n      pop\n      jump\t// out\n        /* \"#utility.yul\":27097:27478   */\n    tag_94:\n        /* \"#utility.yul\":27282:27285   */\n      0x00\n        /* \"#utility.yul\":27304:27452   */\n      tag_665\n        /* \"#utility.yul\":27448:27451   */\n      dup3\n        /* \"#utility.yul\":27304:27452   */\n      tag_411\n      jump\t// in\n    tag_665:\n        /* \"#utility.yul\":27297:27452   */\n      swap2\n      pop\n        /* \"#utility.yul\":27469:27472   */\n      dup2\n        /* \"#utility.yul\":27462:27472   */\n      swap1\n      pop\n        /* \"#utility.yul\":27097:27478   */\n      swap2\n      swap1\n      pop\n      jump\t// out\n        /* \"#utility.yul\":27484:27653   */\n    tag_412:\n        /* \"#utility.yul\":27568:27579   */\n      0x00\n        /* \"#utility.yul\":27602:27608   */\n      dup3\n        /* \"#utility.yul\":27597:27600   */\n      dup3\n        /* \"#utility.yul\":27590:27609   */\n      mstore\n        /* \"#utility.yul\":27642:27646   */\n      0x20\n        /* \"#utility.yul\":27637:27640   */\n      dup3\n        /* \"#utility.yul\":27633:27647   */\n      add\n        /* \"#utility.yul\":27618:27647   */\n      swap1\n      pop\n        /* \"#utility.yul\":27484:27653   */\n      swap3\n      swap2\n      pop\n      pop\n      jump\t// out\n        /* \"#utility.yul\":27659:27825   */\n    tag_413:\n        /* \"#utility.yul\":27799:27817   */\n      0x4d656d6265722052657175657374656400000000000000000000000000000000\n        /* \"#utility.yul\":27795:27796   */\n      0x00\n        /* \"#utility.yul\":27787:27793   */\n      dup3\n        /* \"#utility.yul\":27783:27797   */\n      add\n        /* \"#utility.yul\":27776:27818   */\n      mstore\n        /* \"#utility.yul\":27659:27825   */\n      pop\n      jump\t// out\n        /* \"#utility.yul\":27831:28197   */\n    tag_414:\n        /* \"#utility.yul\":27973:27976   */\n      0x00\n        /* \"#utility.yul\":27994:28061   */\n      tag_669\n        /* \"#utility.yul\":28058:28060   */\n      0x10\n        /* \"#utility.yul\":28053:28056   */\n      dup4\n        /* \"#utility.yul\":27994:28061   */\n      tag_412\n      jump\t// in\n    tag_669:\n        /* \"#utility.yul\":27987:28061   */\n      swap2\n      pop\n        /* \"#utility.yul\":28070:28163   */\n      tag_670\n        /* \"#utility.yul\":28159:28162   */\n      dup3\n        /* \"#utility.yul\":28070:28163   */\n      tag_413\n      jump\t// in\n    tag_670:\n        /* \"#utility.yul\":28188:28190   */\n      0x20\n        /* \"#utility.yul\":28183:28186   */\n      dup3\n        /* \"#utility.yul\":28179:28191   */\n      add\n        /* \"#utility.yul\":28172:28191   */\n      swap1\n      pop\n        /* \"#utility.yul\":27831:28197   */\n      swap2\n      swap1\n      pop\n      jump\t// out\n        /* \"#utility.yul\":28203:28622   */\n    tag_104:\n        /* \"#utility.yul\":28369:28373   */\n      0x00\n        /* \"#utility.yul\":28407:28409   */\n      0x20\n        /* \"#utility.yul\":28396:28405   */\n      dup3\n        /* \"#utility.yul\":28392:28410   */\n      add\n        /* \"#utility.yul\":28384:28410   */\n      swap1\n      pop\n        /* \"#utility.yul\":28456:28465   */\n      dup2\n        /* \"#utility.yul\":28450:28454   */\n      dup2\n        /* \"#utility.yul\":28446:28466   */\n      sub\n        /* \"#utility.yul\":28442:28443   */\n      0x00\n        /* \"#utility.yul\":28431:28440   */\n      dup4\n        /* \"#utility.yul\":28427:28444   */\n      add\n        /* \"#utility.yul\":28420:28467   */\n      mstore\n        /* \"#utility.yul\":28484:28615   */\n      tag_672\n        /* \"#utility.yul\":28610:28614   */\n      dup2\n        /* \"#utility.yul\":28484:28615   */\n      tag_414\n      jump\t// in\n    tag_672:\n        /* \"#utility.yul\":28476:28615   */\n      swap1\n      pop\n        /* \"#utility.yul\":28203:28622   */\n      swap2\n      swap1\n      pop\n      jump\t// out\n        /* \"#utility.yul\":28628:28790   */\n    tag_415:\n        /* \"#utility.yul\":28768:28782   */\n      0x4d656d6265722045786973740000000000000000000000000000000000000000\n        /* \"#utility.yul\":28764:28765   */\n      0x00\n        /* \"#utility.yul\":28756:28762   */\n      dup3\n        /* \"#utility.yul\":28752:28766   */\n      add\n        /* \"#utility.yul\":28745:28783   */\n      mstore\n        /* \"#utility.yul\":28628:28790   */\n      pop\n      jump\t// out\n        /* \"#utility.yul\":28796:29162   */\n    tag_416:\n        /* \"#utility.yul\":28938:28941   */\n      0x00\n        /* \"#utility.yul\":28959:29026   */\n      tag_675\n        /* \"#utility.yul\":29023:29025   */\n      0x0c\n        /* \"#utility.yul\":29018:29021   */\n      dup4\n        /* \"#utility.yul\":28959:29026   */\n      tag_412\n      jump\t// in\n    tag_675:\n        /* \"#utility.yul\":28952:29026   */\n      swap2\n      pop\n        /* \"#utility.yul\":29035:29128   */\n      tag_676\n        /* \"#utility.yul\":29124:29127   */\n      dup3\n        /* \"#utility.yul\":29035:29128   */\n      tag_415\n      jump\t// in\n    tag_676:\n        /* \"#utility.yul\":29153:29155   */\n      0x20\n        /* \"#utility.yul\":29148:29151   */\n      dup3\n        /* \"#utility.yul\":29144:29156   */\n      add\n        /* \"#utility.yul\":29137:29156   */\n      swap1\n      pop\n        /* \"#utility.yul\":28796:29162   */\n      swap2\n      swap1\n      pop\n      jump\t// out\n        /* \"#utility.yul\":29168:29587   */\n    tag_107:\n        /* \"#utility.yul\":29334:29338   */\n      0x00\n        /* \"#utility.yul\":29372:29374   */\n      0x20\n        /* \"#utility.yul\":29361:29370   */\n      dup3\n        /* \"#utility.yul\":29357:29375   */\n      add\n        /* \"#utility.yul\":29349:29375   */\n      swap1\n      pop\n        /* \"#utility.yul\":29421:29430   */\n      dup2\n        /* \"#utility.yul\":29415:29419   */\n      dup2\n        /* \"#utility.yul\":29411:29431   */\n      sub\n        /* \"#utility.yul\":29407:29408   */\n      0x00\n        /* \"#utility.yul\":29396:29405   */\n      dup4\n        /* \"#utility.yul\":29392:29409   */\n      add\n        /* \"#utility.yul\":29385:29432   */\n      mstore\n        /* \"#utility.yul\":29449:29580   */\n      tag_678\n        /* \"#utility.yul\":29575:29579   */\n      dup2\n        /* \"#utility.yul\":29449:29580   */\n      tag_416\n      jump\t// in\n    tag_678:\n        /* \"#utility.yul\":29441:29580   */\n      swap1\n      pop\n        /* \"#utility.yul\":29168:29587   */\n      swap2\n      swap1\n      pop\n      jump\t// out\n        /* \"#utility.yul\":29593:29742   */\n    tag_417:\n        /* \"#utility.yul\":29642:29648   */\n      0x00\n        /* \"#utility.yul\":29676:29681   */\n      dup2\n        /* \"#utility.yul\":29670:29682   */\n      sload\n        /* \"#utility.yul\":29660:29682   */\n      swap1\n      pop\n        /* \"#utility.yul\":29702:29735   */\n      tag_680\n        /* \"#utility.yul\":29728:29734   */\n      dup2\n        /* \"#utility.yul\":29702:29735   */\n      tag_65\n      jump\t// in\n    tag_680:\n        /* \"#utility.yul\":29692:29735   */\n      swap1\n      pop\n        /* \"#utility.yul\":29593:29742   */\n      swap2\n      swap1\n      pop\n      jump\t// out\n        /* \"#utility.yul\":29748:31199   */\n    tag_110:\n        /* \"#utility.yul\":29859:29862   */\n      dup2\n        /* \"#utility.yul\":29853:29857   */\n      dup2\n        /* \"#utility.yul\":29850:29863   */\n      sub\n        /* \"#utility.yul\":29847:29873   */\n      tag_682\n      jumpi\n        /* \"#utility.yul\":29866:29871   */\n      pop\n      pop\n      jump(tag_681)\n        /* \"#utility.yul\":29847:29873   */\n    tag_682:\n        /* \"#utility.yul\":29897:29931   */\n      tag_683\n        /* \"#utility.yul\":29927:29930   */\n      dup3\n        /* \"#utility.yul\":29897:29931   */\n      tag_417\n      jump\t// in\n    tag_683:\n        /* \"#utility.yul\":29996:30014   */\n      0xffffffffffffffff\n        /* \"#utility.yul\":29988:29994   */\n      dup2\n        /* \"#utility.yul\":29985:30015   */\n      gt\n        /* \"#utility.yul\":29982:30038   */\n      iszero\n      tag_684\n      jumpi\n        /* \"#utility.yul\":30018:30036   */\n      tag_685\n      tag_369\n      jump\t// in\n    tag_685:\n        /* \"#utility.yul\":29982:30038   */\n    tag_684:\n        /* \"#utility.yul\":30062:30100   */\n      tag_686\n        /* \"#utility.yul\":30094:30098   */\n      dup3\n        /* \"#utility.yul\":30088:30099   */\n      sload\n        /* \"#utility.yul\":30062:30100   */\n      tag_65\n      jump\t// in\n    tag_686:\n        /* \"#utility.yul\":30147:30214   */\n      tag_687\n        /* \"#utility.yul\":30207:30213   */\n      dup3\n        /* \"#utility.yul\":30199:30205   */\n      dup3\n        /* \"#utility.yul\":30193:30197   */\n      dup6\n        /* \"#utility.yul\":30147:30214   */\n      tag_402\n      jump\t// in\n    tag_687:\n        /* \"#utility.yul\":30241:30242   */\n      0x00\n        /* \"#utility.yul\":30270:30272   */\n      0x1f\n        /* \"#utility.yul\":30262:30268   */\n      dup4\n        /* \"#utility.yul\":30259:30273   */\n      gt\n        /* \"#utility.yul\":30287:30288   */\n      0x01\n        /* \"#utility.yul\":30282:30954   */\n      dup2\n      eq\n      tag_689\n      jumpi\n        /* \"#utility.yul\":30998:30999   */\n      0x00\n        /* \"#utility.yul\":31015:31021   */\n      dup5\n        /* \"#utility.yul\":31012:31089   */\n      iszero\n      tag_690\n      jumpi\n        /* \"#utility.yul\":31064:31073   */\n      dup3\n        /* \"#utility.yul\":31059:31062   */\n      dup8\n        /* \"#utility.yul\":31055:31074   */\n      add\n        /* \"#utility.yul\":31049:31075   */\n      sload\n        /* \"#utility.yul\":31040:31075   */\n      swap1\n      pop\n        /* \"#utility.yul\":31012:31089   */\n    tag_690:\n        /* \"#utility.yul\":31115:31182   */\n      tag_691\n        /* \"#utility.yul\":31175:31181   */\n      dup6\n        /* \"#utility.yul\":31168:31173   */\n      dup3\n        /* \"#utility.yul\":31115:31182   */\n      tag_405\n      jump\t// in\n    tag_691:\n        /* \"#utility.yul\":31109:31113   */\n      dup7\n        /* \"#utility.yul\":31102:31183   */\n      sstore\n        /* \"#utility.yul\":30971:31193   */\n      pop\n        /* \"#utility.yul\":30252:31193   */\n      jump(tag_688)\n        /* \"#utility.yul\":30282:30954   */\n    tag_689:\n        /* \"#utility.yul\":30334:30338   */\n      0x1f\n        /* \"#utility.yul\":30330:30339   */\n      not\n        /* \"#utility.yul\":30322:30328   */\n      dup5\n        /* \"#utility.yul\":30318:30340   */\n      and\n        /* \"#utility.yul\":30360:30396   */\n      tag_692\n        /* \"#utility.yul\":30392:30395   */\n      dup8\n        /* \"#utility.yul\":30360:30396   */\n      tag_391\n      jump\t// in\n    tag_692:\n        /* \"#utility.yul\":30353:30396   */\n      swap7\n      pop\n        /* \"#utility.yul\":30423:30460   */\n      tag_693\n        /* \"#utility.yul\":30455:30459   */\n      dup7\n        /* \"#utility.yul\":30423:30460   */\n      tag_391\n      jump\t// in\n    tag_693:\n        /* \"#utility.yul\":30482:30483   */\n      0x00\n        /* \"#utility.yul\":30496:30703   */\n    tag_694:\n        /* \"#utility.yul\":30510:30517   */\n      dup3\n        /* \"#utility.yul\":30507:30508   */\n      dup2\n        /* \"#utility.yul\":30504:30518   */\n      lt\n        /* \"#utility.yul\":30496:30703   */\n      iszero\n      tag_696\n      jumpi\n        /* \"#utility.yul\":30589:30598   */\n      dup5\n        /* \"#utility.yul\":30584:30587   */\n      dup10\n        /* \"#utility.yul\":30580:30599   */\n      add\n        /* \"#utility.yul\":30574:30600   */\n      sload\n        /* \"#utility.yul\":30566:30572   */\n      dup3\n        /* \"#utility.yul\":30559:30601   */\n      sstore\n        /* \"#utility.yul\":30640:30641   */\n      0x01\n        /* \"#utility.yul\":30632:30638   */\n      dup3\n        /* \"#utility.yul\":30628:30642   */\n      add\n        /* \"#utility.yul\":30618:30642   */\n      swap2\n      pop\n        /* \"#utility.yul\":30687:30688   */\n      0x01\n        /* \"#utility.yul\":30676:30685   */\n      dup6\n        /* \"#utility.yul\":30672:30689   */\n      add\n        /* \"#utility.yul\":30659:30689   */\n      swap5\n      pop\n        /* \"#utility.yul\":30533:30537   */\n      0x20\n        /* \"#utility.yul\":30530:30531   */\n      dup2\n        /* \"#utility.yul\":30526:30538   */\n      add\n        /* \"#utility.yul\":30521:30538   */\n      swap1\n      pop\n        /* \"#utility.yul\":30496:30703   */\n      jump(tag_694)\n    tag_696:\n        /* \"#utility.yul\":30731:30737   */\n      dup7\n        /* \"#utility.yul\":30722:30729   */\n      dup4\n        /* \"#utility.yul\":30719:30738   */\n      lt\n        /* \"#utility.yul\":30716:30895   */\n      iszero\n      tag_697\n      jumpi\n        /* \"#utility.yul\":30789:30798   */\n      dup5\n        /* \"#utility.yul\":30784:30787   */\n      dup10\n        /* \"#utility.yul\":30780:30799   */\n      add\n        /* \"#utility.yul\":30774:30800   */\n      sload\n        /* \"#utility.yul\":30832:30880   */\n      tag_698\n        /* \"#utility.yul\":30874:30878   */\n      0x1f\n        /* \"#utility.yul\":30866:30872   */\n      dup10\n        /* \"#utility.yul\":30862:30879   */\n      and\n        /* \"#utility.yul\":30851:30860   */\n      dup3\n        /* \"#utility.yul\":30832:30880   */\n      tag_404\n      jump\t// in\n    tag_698:\n        /* \"#utility.yul\":30824:30830   */\n      dup4\n        /* \"#utility.yul\":30817:30881   */\n      sstore\n        /* \"#utility.yul\":30739:30895   */\n      pop\n        /* \"#utility.yul\":30716:30895   */\n    tag_697:\n        /* \"#utility.yul\":30941:30942   */\n      0x01\n        /* \"#utility.yul\":30937:30938   */\n      0x02\n        /* \"#utility.yul\":30929:30935   */\n      dup9\n        /* \"#utility.yul\":30925:30939   */\n      mul\n        /* \"#utility.yul\":30921:30943   */\n      add\n        /* \"#utility.yul\":30915:30919   */\n      dup9\n        /* \"#utility.yul\":30908:30944   */\n      sstore\n        /* \"#utility.yul\":30289:30954   */\n      pop\n      pop\n      pop\n        /* \"#utility.yul\":30252:31193   */\n    tag_688:\n      pop\n        /* \"#utility.yul\":29837:31199   */\n      pop\n      pop\n      pop\n        /* \"#utility.yul\":29748:31199   */\n      pop\n      pop\n    tag_681:\n      jump\t// out\n        /* \"#utility.yul\":31205:31380   */\n    tag_418:\n        /* \"#utility.yul\":31345:31372   */\n      0x596f75206e65656420746f205265717565737420466972737400000000000000\n        /* \"#utility.yul\":31341:31342   */\n      0x00\n        /* \"#utility.yul\":31333:31339   */\n      dup3\n        /* \"#utility.yul\":31329:31343   */\n      add\n        /* \"#utility.yul\":31322:31373   */\n      mstore\n        /* \"#utility.yul\":31205:31380   */\n      pop\n      jump\t// out\n        /* \"#utility.yul\":31386:31752   */\n    tag_419:\n        /* \"#utility.yul\":31528:31531   */\n      0x00\n        /* \"#utility.yul\":31549:31616   */\n      tag_701\n        /* \"#utility.yul\":31613:31615   */\n      0x19\n        /* \"#utility.yul\":31608:31611   */\n      dup4\n        /* \"#utility.yul\":31549:31616   */\n      tag_412\n      jump\t// in\n    tag_701:\n        /* \"#utility.yul\":31542:31616   */\n      swap2\n      pop\n        /* \"#utility.yul\":31625:31718   */\n      tag_702\n        /* \"#utility.yul\":31714:31717   */\n      dup3\n        /* \"#utility.yul\":31625:31718   */\n      tag_418\n      jump\t// in\n    tag_702:\n        /* \"#utility.yul\":31743:31745   */\n      0x20\n        /* \"#utility.yul\":31738:31741   */\n      dup3\n        /* \"#utility.yul\":31734:31746   */\n      add\n        /* \"#utility.yul\":31727:31746   */\n      swap1\n      pop\n        /* \"#utility.yul\":31386:31752   */\n      swap2\n      swap1\n      pop\n      jump\t// out\n        /* \"#utility.yul\":31758:32177   */\n    tag_125:\n        /* \"#utility.yul\":31924:31928   */\n      0x00\n        /* \"#utility.yul\":31962:31964   */\n      0x20\n        /* \"#utility.yul\":31951:31960   */\n      dup3\n        /* \"#utility.yul\":31947:31965   */\n      add\n        /* \"#utility.yul\":31939:31965   */\n      swap1\n      pop\n        /* \"#utility.yul\":32011:32020   */\n      dup2\n        /* \"#utility.yul\":32005:32009   */\n      dup2\n        /* \"#utility.yul\":32001:32021   */\n      sub\n        /* \"#utility.yul\":31997:31998   */\n      0x00\n        /* \"#utility.yul\":31986:31995   */\n      dup4\n        /* \"#utility.yul\":31982:31999   */\n      add\n        /* \"#utility.yul\":31975:32022   */\n      mstore\n        /* \"#utility.yul\":32039:32170   */\n      tag_704\n        /* \"#utility.yul\":32165:32169   */\n      dup2\n        /* \"#utility.yul\":32039:32170   */\n      tag_419\n      jump\t// in\n    tag_704:\n        /* \"#utility.yul\":32031:32170   */\n      swap1\n      pop\n        /* \"#utility.yul\":31758:32177   */\n      swap2\n      swap1\n      pop\n      jump\t// out\n        /* \"#utility.yul\":32183:32412   */\n    tag_420:\n        /* \"#utility.yul\":32323:32357   */\n      0x596f752063616e277420617070726f6f766520736f6d656f6e652061626f7665\n        /* \"#utility.yul\":32319:32320   */\n      0x00\n        /* \"#utility.yul\":32311:32317   */\n      dup3\n        /* \"#utility.yul\":32307:32321   */\n      add\n        /* \"#utility.yul\":32300:32358   */\n      mstore\n        /* \"#utility.yul\":32392:32404   */\n      0x207468616e20796f752e00000000000000000000000000000000000000000000\n        /* \"#utility.yul\":32387:32389   */\n      0x20\n        /* \"#utility.yul\":32379:32385   */\n      dup3\n        /* \"#utility.yul\":32375:32390   */\n      add\n        /* \"#utility.yul\":32368:32405   */\n      mstore\n        /* \"#utility.yul\":32183:32412   */\n      pop\n      jump\t// out\n        /* \"#utility.yul\":32418:32784   */\n    tag_421:\n        /* \"#utility.yul\":32560:32563   */\n      0x00\n        /* \"#utility.yul\":32581:32648   */\n      tag_707\n        /* \"#utility.yul\":32645:32647   */\n      0x2a\n        /* \"#utility.yul\":32640:32643   */\n      dup4\n        /* \"#utility.yul\":32581:32648   */\n      tag_412\n      jump\t// in\n    tag_707:\n        /* \"#utility.yul\":32574:32648   */\n      swap2\n      pop\n        /* \"#utility.yul\":32657:32750   */\n      tag_708\n        /* \"#utility.yul\":32746:32749   */\n      dup3\n        /* \"#utility.yul\":32657:32750   */\n      tag_420\n      jump\t// in\n    tag_708:\n        /* \"#utility.yul\":32775:32777   */\n      0x40\n        /* \"#utility.yul\":32770:32773   */\n      dup3\n        /* \"#utility.yul\":32766:32778   */\n      add\n        /* \"#utility.yul\":32759:32778   */\n      swap1\n      pop\n        /* \"#utility.yul\":32418:32784   */\n      swap2\n      swap1\n      pop\n      jump\t// out\n        /* \"#utility.yul\":32790:33209   */\n    tag_238:\n        /* \"#utility.yul\":32956:32960   */\n      0x00\n        /* \"#utility.yul\":32994:32996   */\n      0x20\n        /* \"#utility.yul\":32983:32992   */\n      dup3\n        /* \"#utility.yul\":32979:32997   */\n      add\n        /* \"#utility.yul\":32971:32997   */\n      swap1\n      pop\n        /* \"#utility.yul\":33043:33052   */\n      dup2\n        /* \"#utility.yul\":33037:33041   */\n      dup2\n        /* \"#utility.yul\":33033:33053   */\n      sub\n        /* \"#utility.yul\":33029:33030   */\n      0x00\n        /* \"#utility.yul\":33018:33027   */\n      dup4\n        /* \"#utility.yul\":33014:33031   */\n      add\n        /* \"#utility.yul\":33007:33054   */\n      mstore\n        /* \"#utility.yul\":33071:33202   */\n      tag_710\n        /* \"#utility.yul\":33197:33201   */\n      dup2\n        /* \"#utility.yul\":33071:33202   */\n      tag_421\n      jump\t// in\n    tag_710:\n        /* \"#utility.yul\":33063:33202   */\n      swap1\n      pop\n        /* \"#utility.yul\":32790:33209   */\n      swap2\n      swap1\n      pop\n      jump\t// out\n        /* \"#utility.yul\":33215:33395   */\n    tag_422:\n        /* \"#utility.yul\":33263:33340   */\n      0x4e487b7100000000000000000000000000000000000000000000000000000000\n        /* \"#utility.yul\":33260:33261   */\n      0x00\n        /* \"#utility.yul\":33253:33341   */\n      mstore\n        /* \"#utility.yul\":33360:33364   */\n      0x11\n        /* \"#utility.yul\":33357:33358   */\n      0x04\n        /* \"#utility.yul\":33350:33365   */\n      mstore\n        /* \"#utility.yul\":33384:33388   */\n      0x24\n        /* \"#utility.yul\":33381:33382   */\n      0x00\n        /* \"#utility.yul\":33374:33389   */\n      revert\n        /* \"#utility.yul\":33401:33595   */\n    tag_305:\n        /* \"#utility.yul\":33441:33445   */\n      0x00\n        /* \"#utility.yul\":33461:33481   */\n      tag_713\n        /* \"#utility.yul\":33479:33480   */\n      dup3\n        /* \"#utility.yul\":33461:33481   */\n      tag_378\n      jump\t// in\n    tag_713:\n        /* \"#utility.yul\":33456:33481   */\n      swap2\n      pop\n        /* \"#utility.yul\":33495:33515   */\n      tag_714\n        /* \"#utility.yul\":33513:33514   */\n      dup4\n        /* \"#utility.yul\":33495:33515   */\n      tag_378\n      jump\t// in\n    tag_714:\n        /* \"#utility.yul\":33490:33515   */\n      swap3\n      pop\n        /* \"#utility.yul\":33539:33540   */\n      dup3\n        /* \"#utility.yul\":33536:33537   */\n      dup3\n        /* \"#utility.yul\":33532:33541   */\n      sub\n        /* \"#utility.yul\":33524:33541   */\n      swap1\n      pop\n        /* \"#utility.yul\":33563:33564   */\n      dup2\n        /* \"#utility.yul\":33557:33561   */\n      dup2\n        /* \"#utility.yul\":33554:33565   */\n      gt\n        /* \"#utility.yul\":33551:33588   */\n      iszero\n      tag_715\n      jumpi\n        /* \"#utility.yul\":33568:33586   */\n      tag_716\n      tag_422\n      jump\t// in\n    tag_716:\n        /* \"#utility.yul\":33551:33588   */\n    tag_715:\n        /* \"#utility.yul\":33401:33595   */\n      swap3\n      swap2\n      pop\n      pop\n      jump\t// out\n        /* \"#utility.yul\":33601:33781   */\n    tag_308:\n        /* \"#utility.yul\":33649:33726   */\n      0x4e487b7100000000000000000000000000000000000000000000000000000000\n        /* \"#utility.yul\":33646:33647   */\n      0x00\n        /* \"#utility.yul\":33639:33727   */\n      mstore\n        /* \"#utility.yul\":33746:33750   */\n      0x32\n        /* \"#utility.yul\":33743:33744   */\n      0x04\n        /* \"#utility.yul\":33736:33751   */\n      mstore\n        /* \"#utility.yul\":33770:33774   */\n      0x24\n        /* \"#utility.yul\":33767:33768   */\n      0x00\n        /* \"#utility.yul\":33760:33775   */\n      revert\n        /* \"#utility.yul\":33787:33967   */\n    tag_319:\n        /* \"#utility.yul\":33835:33912   */\n      0x4e487b7100000000000000000000000000000000000000000000000000000000\n        /* \"#utility.yul\":33832:33833   */\n      0x00\n        /* \"#utility.yul\":33825:33913   */\n      mstore\n        /* \"#utility.yul\":33932:33936   */\n      0x31\n        /* \"#utility.yul\":33929:33930   */\n      0x04\n        /* \"#utility.yul\":33922:33937   */\n      mstore\n        /* \"#utility.yul\":33956:33960   */\n      0x24\n        /* \"#utility.yul\":33953:33954   */\n      0x00\n        /* \"#utility.yul\":33946:33961   */\n      revert\n\n    auxdata: 0xa264697066735822122063af42a1bc83de35a5861fb5574125a40863de2986df1b4d3a115880ee9831d264736f6c63430008100033\n}\n",
    "bytecode": {
      "linkReferences": {},
      "object": "60806040526000600355600060045534801561001a57600080fd5b50613bc38061002a6000396000f3fe6080604052600436106100865760003560e01c8063a9e10bf211610059578063a9e10bf214610159578063bafa08c114610163578063e070dd12146101a0578063e473f6cd146101c9578063ff8692401461020657610086565b8063285389491461008b57806330561100146100c857806335a6861a146100f35780634cd6f25e14610130575b600080fd5b34801561009757600080fd5b506100b260048036038101906100ad9190612bb7565b61022f565b6040516100bf9190612d82565b60405180910390f35b3480156100d457600080fd5b506100dd6103b8565b6040516100ea9190612d82565b60405180910390f35b3480156100ff57600080fd5b5061011a60048036038101906101159190612bb7565b6104ff565b6040516101279190612dbf565b60405180910390f35b34801561013c57600080fd5b5061015760048036038101906101529190612f3b565b61056c565b005b610161610e78565b005b34801561016f57600080fd5b5061018a6004803603810190610185919061300a565b610e7a565b6040516101979190613187565b60405180910390f35b3480156101ac57600080fd5b506101c760048036038101906101c291906131a9565b6115ec565b005b3480156101d557600080fd5b506101f060048036038101906101eb91906131e9565b611dde565b6040516101fd9190613376565b60405180910390f35b34801561021257600080fd5b5061022d60048036038101906102289190613398565b612565565b005b6060600760008373ffffffffffffffffffffffffffffffffffffffff1673ffffffffffffffffffffffffffffffffffffffff168152602001908152602001600020600501805480602002602001604051908101604052809291908181526020016000905b828210156103ad57838290600052602060002090600202016040518060400160405290816000820160009054906101000a900473ffffffffffffffffffffffffffffffffffffffff1673ffffffffffffffffffffffffffffffffffffffff1673ffffffffffffffffffffffffffffffffffffffff16815260200160018201805461031c90613423565b80601f016020809104026020016040519081016040528092919081815260200182805461034890613423565b80156103955780601f1061036a57610100808354040283529160200191610395565b820191906000526020600020905b81548152906001019060200180831161037857829003601f168201915b50505050508152505081526020019060010190610293565b505050509050919050565b60606002805480602002602001604051908101604052809291908181526020016000905b828210156104f657838290600052602060002090600202016040518060400160405290816000820160009054906101000a900473ffffffffffffffffffffffffffffffffffffffff1673ffffffffffffffffffffffffffffffffffffffff1673ffffffffffffffffffffffffffffffffffffffff16815260200160018201805461046590613423565b80601f016020809104026020016040519081016040528092919081815260200182805461049190613423565b80156104de5780601f106104b3576101008083540402835291602001916104de565b820191906000526020600020905b8154815290600101906020018083116104c157829003601f168201915b505050505081525050815260200190600101906103dc565b50505050905090565b600060011515600960008473ffffffffffffffffffffffffffffffffffffffff1673ffffffffffffffffffffffffffffffffffffffff16815260200190815260200160002060009054906101000a900460ff161515036105625760019050610567565b600090505b919050565b84600d600001908161057e9190613600565b5083600d60010190816105919190613600565b5082600d60020190816105a49190613600565b5081600d60030160006101000a81548173ffffffffffffffffffffffffffffffffffffffff021916908373ffffffffffffffffffffffffffffffffffffffff1602179055506040516020016105f890613729565b604051602081830303815290604052805190602001208560405160200161061f919061376f565b604051602081830303815290604052805190602001200361064a576001600d600401819055506106b8565b604051602001610659906137d2565b6040516020818303038152906040528051906020012085604051602001610680919061376f565b60405160208183030381529060405280519060200120036106ab576002600d600401819055506106b7565b6003600d600401819055505b5b6001151581151514801561071657506040516020016106d690613729565b60405160208183030381529060405280519060200120856040516020016106fd919061376f565b6040516020818303038152906040528051906020012014155b15610a9f5760001515600c60008473ffffffffffffffffffffffffffffffffffffffff1673ffffffffffffffffffffffffffffffffffffffff16815260200190815260200160002060009054906101000a900460ff161515146107ae576040517f08c379a00000000000000000000000000000000000000000000000000000000081526004016107a590613844565b60405180910390fd5b60001515600960008473ffffffffffffffffffffffffffffffffffffffff1673ffffffffffffffffffffffffffffffffffffffff16815260200190815260200160002060009054906101000a900460ff16151514610841576040517f08c379a0000000000000000000000000000000000000000000000000000000008152600401610838906138b0565b60405180910390fd5b600b600d90806001815401808255809150506001900390600052602060002090600602016000909190919091506000820181600001908161088291906138e6565b506001820181600101908161089791906138e6565b50600282018160020190816108ac91906138e6565b506003820160009054906101000a900473ffffffffffffffffffffffffffffffffffffffff168160030160006101000a81548173ffffffffffffffffffffffffffffffffffffffff021916908373ffffffffffffffffffffffffffffffffffffffff160217905550600482015481600401556005820181600501908054610934929190612956565b505050600d600a60008473ffffffffffffffffffffffffffffffffffffffff1673ffffffffffffffffffffffffffffffffffffffff1681526020019081526020016000206000820181600001908161098c91906138e6565b50600182018160010190816109a191906138e6565b50600282018160020190816109b691906138e6565b506003820160009054906101000a900473ffffffffffffffffffffffffffffffffffffffff168160030160006101000a81548173ffffffffffffffffffffffffffffffffffffffff021916908373ffffffffffffffffffffffffffffffffffffffff160217905550600482015481600401556005820181600501908054610a3e929190612956565b509050506001600c60008473ffffffffffffffffffffffffffffffffffffffff1673ffffffffffffffffffffffffffffffffffffffff16815260200190815260200160002060006101000a81548160ff021916908315150217905550610e71565b604051602001610aae90613729565b6040516020818303038152906040528051906020012085604051602001610ad5919061376f565b6040516020818303038152906040528051906020012014610b845760011515600c60008473ffffffffffffffffffffffffffffffffffffffff1673ffffffffffffffffffffffffffffffffffffffff16815260200190815260200160002060009054906101000a900460ff16151514610b83576040517f08c379a0000000000000000000000000000000000000000000000000000000008152600401610b7a90613a1a565b60405180910390fd5b5b60001515600960008473ffffffffffffffffffffffffffffffffffffffff1673ffffffffffffffffffffffffffffffffffffffff16815260200190815260200160002060009054906101000a900460ff16151514610c17576040517f08c379a0000000000000000000000000000000000000000000000000000000008152600401610c0e906138b0565b60405180910390fd5b6008600d908060018154018082558091505060019003906000526020600020906006020160009091909190915060008201816000019081610c5891906138e6565b5060018201816001019081610c6d91906138e6565b5060028201816002019081610c8291906138e6565b506003820160009054906101000a900473ffffffffffffffffffffffffffffffffffffffff168160030160006101000a81548173ffffffffffffffffffffffffffffffffffffffff021916908373ffffffffffffffffffffffffffffffffffffffff160217905550600482015481600401556005820181600501908054610d0a929190612956565b505050600d600760008473ffffffffffffffffffffffffffffffffffffffff1673ffffffffffffffffffffffffffffffffffffffff16815260200190815260200160002060008201816000019081610d6291906138e6565b5060018201816001019081610d7791906138e6565b5060028201816002019081610d8c91906138e6565b506003820160009054906101000a900473ffffffffffffffffffffffffffffffffffffffff168160030160006101000a81548173ffffffffffffffffffffffffffffffffffffffff021916908373ffffffffffffffffffffffffffffffffffffffff160217905550600482015481600401556005820181600501908054610e14929190612956565b509050506001600960008473ffffffffffffffffffffffffffffffffffffffff1673ffffffffffffffffffffffffffffffffffffffff16815260200190815260200160002060006101000a81548160ff0219169083151502179055505b5050505050565b565b610e82612a2a565b600115158215150361123c57600a60008473ffffffffffffffffffffffffffffffffffffffff1673ffffffffffffffffffffffffffffffffffffffff1681526020019081526020016000206040518060c0016040529081600082018054610ee890613423565b80601f0160208091040260200160405190810160405280929190818152602001828054610f1490613423565b8015610f615780601f10610f3657610100808354040283529160200191610f61565b820191906000526020600020905b815481529060010190602001808311610f4457829003601f168201915b50505050508152602001600182018054610f7a90613423565b80601f0160208091040260200160405190810160405280929190818152602001828054610fa690613423565b8015610ff35780601f10610fc857610100808354040283529160200191610ff3565b820191906000526020600020905b815481529060010190602001808311610fd657829003601f168201915b5050505050815260200160028201805461100c90613423565b80601f016020809104026020016040519081016040528092919081815260200182805461103890613423565b80156110855780601f1061105a57610100808354040283529160200191611085565b820191906000526020600020905b81548152906001019060200180831161106857829003601f168201915b505050505081526020016003820160009054906101000a900473ffffffffffffffffffffffffffffffffffffffff1673ffffffffffffffffffffffffffffffffffffffff1673ffffffffffffffffffffffffffffffffffffffff1681526020016004820154815260200160058201805480602002602001604051908101604052809291908181526020016000905b8282101561122d57838290600052602060002090600202016040518060400160405290816000820160009054906101000a900473ffffffffffffffffffffffffffffffffffffffff1673ffffffffffffffffffffffffffffffffffffffff1673ffffffffffffffffffffffffffffffffffffffff16815260200160018201805461119c90613423565b80601f01602080910402602001604051908101604052809291908181526020018280546111c890613423565b80156112155780601f106111ea57610100808354040283529160200191611215565b820191906000526020600020905b8154815290600101906020018083116111f857829003601f168201915b50505050508152505081526020019060010190611113565b505050508152505090506115e6565b600760008473ffffffffffffffffffffffffffffffffffffffff1673ffffffffffffffffffffffffffffffffffffffff1681526020019081526020016000206040518060c001604052908160008201805461129690613423565b80601f01602080910402602001604051908101604052809291908181526020018280546112c290613423565b801561130f5780601f106112e45761010080835404028352916020019161130f565b820191906000526020600020905b8154815290600101906020018083116112f257829003601f168201915b5050505050815260200160018201805461132890613423565b80601f016020809104026020016040519081016040528092919081815260200182805461135490613423565b80156113a15780601f10611376576101008083540402835291602001916113a1565b820191906000526020600020905b81548152906001019060200180831161138457829003601f168201915b505050505081526020016002820180546113ba90613423565b80601f01602080910402602001604051908101604052809291908181526020018280546113e690613423565b80156114335780601f1061140857610100808354040283529160200191611433565b820191906000526020600020905b81548152906001019060200180831161141657829003601f168201915b505050505081526020016003820160009054906101000a900473ffffffffffffffffffffffffffffffffffffffff1673ffffffffffffffffffffffffffffffffffffffff1673ffffffffffffffffffffffffffffffffffffffff1681526020016004820154815260200160058201805480602002602001604051908101604052809291908181526020016000905b828210156115db57838290600052602060002090600202016040518060400160405290816000820160009054906101000a900473ffffffffffffffffffffffffffffffffffffffff1673ffffffffffffffffffffffffffffffffffffffff1673ffffffffffffffffffffffffffffffffffffffff16815260200160018201805461154a90613423565b80601f016020809104026020016040519081016040528092919081815260200182805461157690613423565b80156115c35780601f10611598576101008083540402835291602001916115c3565b820191906000526020600020905b8154815290600101906020018083116115a657829003601f168201915b505050505081525050815260200190600101906114c1565b505050508152505090505b92915050565b6000600a60008473ffffffffffffffffffffffffffffffffffffffff1673ffffffffffffffffffffffffffffffffffffffff1681526020019081526020016000206040518060c001604052908160008201805461164890613423565b80601f016020809104026020016040519081016040528092919081815260200182805461167490613423565b80156116c15780601f10611696576101008083540402835291602001916116c1565b820191906000526020600020905b8154815290600101906020018083116116a457829003601f168201915b505050505081526020016001820180546116da90613423565b80601f016020809104026020016040519081016040528092919081815260200182805461170690613423565b80156117535780601f1061172857610100808354040283529160200191611753565b820191906000526020600020905b81548152906001019060200180831161173657829003601f168201915b5050505050815260200160028201805461176c90613423565b80601f016020809104026020016040519081016040528092919081815260200182805461179890613423565b80156117e55780601f106117ba576101008083540402835291602001916117e5565b820191906000526020600020905b8154815290600101906020018083116117c857829003601f168201915b505050505081526020016003820160009054906101000a900473ffffffffffffffffffffffffffffffffffffffff1673ffffffffffffffffffffffffffffffffffffffff1673ffffffffffffffffffffffffffffffffffffffff1681526020016004820154815260200160058201805480602002602001604051908101604052809291908181526020016000905b8282101561198d57838290600052602060002090600202016040518060400160405290816000820160009054906101000a900473ffffffffffffffffffffffffffffffffffffffff1673ffffffffffffffffffffffffffffffffffffffff1673ffffffffffffffffffffffffffffffffffffffff1681526020016001820180546118fc90613423565b80601f016020809104026020016040519081016040528092919081815260200182805461192890613423565b80156119755780601f1061194a57610100808354040283529160200191611975565b820191906000526020600020905b81548152906001019060200180831161195857829003601f168201915b50505050508152505081526020019060010190611873565b505050508152505090506000600760008473ffffffffffffffffffffffffffffffffffffffff1673ffffffffffffffffffffffffffffffffffffffff1681526020019081526020016000206040518060c00160405290816000820180546119f390613423565b80601f0160208091040260200160405190810160405280929190818152602001828054611a1f90613423565b8015611a6c5780601f10611a4157610100808354040283529160200191611a6c565b820191906000526020600020905b815481529060010190602001808311611a4f57829003601f168201915b50505050508152602001600182018054611a8590613423565b80601f0160208091040260200160405190810160405280929190818152602001828054611ab190613423565b8015611afe5780601f10611ad357610100808354040283529160200191611afe565b820191906000526020600020905b815481529060010190602001808311611ae157829003601f168201915b50505050508152602001600282018054611b1790613423565b80601f0160208091040260200160405190810160405280929190818152602001828054611b4390613423565b8015611b905780601f10611b6557610100808354040283529160200191611b90565b820191906000526020600020905b815481529060010190602001808311611b7357829003601f168201915b505050505081526020016003820160009054906101000a900473ffffffffffffffffffffffffffffffffffffffff1673ffffffffffffffffffffffffffffffffffffffff1673ffffffffffffffffffffffffffffffffffffffff1681526020016004820154815260200160058201805480602002602001604051908101604052809291908181526020016000905b82821015611d3857838290600052602060002090600202016040518060400160405290816000820160009054906101000a900473ffffffffffffffffffffffffffffffffffffffff1673ffffffffffffffffffffffffffffffffffffffff1673ffffffffffffffffffffffffffffffffffffffff168152602001600182018054611ca790613423565b80601f0160208091040260200160405190810160405280929190818152602001828054611cd390613423565b8015611d205780601f10611cf557610100808354040283529160200191611d20565b820191906000526020600020905b815481529060010190602001808311611d0357829003601f168201915b50505050508152505081526020019060010190611c1e565b5050505081525050905060008260000151905060008360200151905060008460400151905060008560600151905060008660800151905060008660800151905081811115611dbb576040517f08c379a0000000000000000000000000000000000000000000000000000000008152600401611db290613aac565b60405180910390fd5b611dc986868686600061056c565b611dd28a612755565b50505050505050505050565b606060011515821515036121a857600b805480602002602001604051908101604052809291908181526020016000905b8282101561219d57838290600052602060002090600602016040518060c0016040529081600082018054611e4190613423565b80601f0160208091040260200160405190810160405280929190818152602001828054611e6d90613423565b8015611eba5780601f10611e8f57610100808354040283529160200191611eba565b820191906000526020600020905b815481529060010190602001808311611e9d57829003601f168201915b50505050508152602001600182018054611ed390613423565b80601f0160208091040260200160405190810160405280929190818152602001828054611eff90613423565b8015611f4c5780601f10611f2157610100808354040283529160200191611f4c565b820191906000526020600020905b815481529060010190602001808311611f2f57829003601f168201915b50505050508152602001600282018054611f6590613423565b80601f0160208091040260200160405190810160405280929190818152602001828054611f9190613423565b8015611fde5780601f10611fb357610100808354040283529160200191611fde565b820191906000526020600020905b815481529060010190602001808311611fc157829003601f168201915b505050505081526020016003820160009054906101000a900473ffffffffffffffffffffffffffffffffffffffff1673ffffffffffffffffffffffffffffffffffffffff1673ffffffffffffffffffffffffffffffffffffffff1681526020016004820154815260200160058201805480602002602001604051908101604052809291908181526020016000905b8282101561218657838290600052602060002090600202016040518060400160405290816000820160009054906101000a900473ffffffffffffffffffffffffffffffffffffffff1673ffffffffffffffffffffffffffffffffffffffff1673ffffffffffffffffffffffffffffffffffffffff1681526020016001820180546120f590613423565b80601f016020809104026020016040519081016040528092919081815260200182805461212190613423565b801561216e5780601f106121435761010080835404028352916020019161216e565b820191906000526020600020905b81548152906001019060200180831161215157829003601f168201915b5050505050815250508152602001906001019061206c565b505050508152505081526020019060010190611e0e565b505050509050612560565b6008805480602002602001604051908101604052809291908181526020016000905b8282101561255957838290600052602060002090600602016040518060c00160405290816000820180546121fd90613423565b80601f016020809104026020016040519081016040528092919081815260200182805461222990613423565b80156122765780601f1061224b57610100808354040283529160200191612276565b820191906000526020600020905b81548152906001019060200180831161225957829003601f168201915b5050505050815260200160018201805461228f90613423565b80601f01602080910402602001604051908101604052809291908181526020018280546122bb90613423565b80156123085780601f106122dd57610100808354040283529160200191612308565b820191906000526020600020905b8154815290600101906020018083116122eb57829003601f168201915b5050505050815260200160028201805461232190613423565b80601f016020809104026020016040519081016040528092919081815260200182805461234d90613423565b801561239a5780601f1061236f5761010080835404028352916020019161239a565b820191906000526020600020905b81548152906001019060200180831161237d57829003601f168201915b505050505081526020016003820160009054906101000a900473ffffffffffffffffffffffffffffffffffffffff1673ffffffffffffffffffffffffffffffffffffffff1673ffffffffffffffffffffffffffffffffffffffff1681526020016004820154815260200160058201805480602002602001604051908101604052809291908181526020016000905b8282101561254257838290600052602060002090600202016040518060400160405290816000820160009054906101000a900473ffffffffffffffffffffffffffffffffffffffff1673ffffffffffffffffffffffffffffffffffffffff1673ffffffffffffffffffffffffffffffffffffffff1681526020016001820180546124b190613423565b80601f01602080910402602001604051908101604052809291908181526020018280546124dd90613423565b801561252a5780601f106124ff5761010080835404028352916020019161252a565b820191906000526020600020905b81548152906001019060200180831161250d57829003601f168201915b50505050508152505081526020019060010190612428565b5050505081525050815260200190600101906121ca565b5050505090505b919050565b816000800160006101000a81548173ffffffffffffffffffffffffffffffffffffffff021916908373ffffffffffffffffffffffffffffffffffffffff16021790555080600060010190816125ba9190613600565b50600760008373ffffffffffffffffffffffffffffffffffffffff1673ffffffffffffffffffffffffffffffffffffffff168152602001908152602001600020600501600090806001815401808255809150506001900390600052602060002090600202016000909190919091506000820160009054906101000a900473ffffffffffffffffffffffffffffffffffffffff168160000160006101000a81548173ffffffffffffffffffffffffffffffffffffffff021916908373ffffffffffffffffffffffffffffffffffffffff160217905550600182018160010190816126a391906138e6565b5050506002600090806001815401808255809150506001900390600052602060002090600202016000909190919091506000820160009054906101000a900473ffffffffffffffffffffffffffffffffffffffff168160000160006101000a81548173ffffffffffffffffffffffffffffffffffffffff021916908373ffffffffffffffffffffffffffffffffffffffff1602179055506001820181600101908161274e91906138e6565b5050505050565b6000600560008373ffffffffffffffffffffffffffffffffffffffff1673ffffffffffffffffffffffffffffffffffffffff168152602001908152602001600020549050600b6001600b805490506127ad9190613afb565b815481106127be576127bd613b2f565b5b9060005260206000209060060201600b82815481106127e0576127df613b2f565b5b90600052602060002090600602016000820181600001908161280291906138e6565b506001820181600101908161281791906138e6565b506002820181600201908161282c91906138e6565b506003820160009054906101000a900473ffffffffffffffffffffffffffffffffffffffff168160030160006101000a81548173ffffffffffffffffffffffffffffffffffffffff021916908373ffffffffffffffffffffffffffffffffffffffff1602179055506004820154816004015560058201816005019080546128b4929190612956565b50905050600b8054806128ca576128c9613b5e565b5b6001900381819060005260206000209060060201600080820160006128ef9190612a76565b6001820160006128ff9190612a76565b60028201600061290f9190612a76565b6003820160006101000a81549073ffffffffffffffffffffffffffffffffffffffff0219169055600482016000905560058201600061294e9190612ab6565b505090555050565b828054828255906000526020600020906002028101928215612a195760005260206000209160020282015b82811115612a185782826000820160009054906101000a900473ffffffffffffffffffffffffffffffffffffffff168160000160006101000a81548173ffffffffffffffffffffffffffffffffffffffff021916908373ffffffffffffffffffffffffffffffffffffffff16021790555060018201816001019081612a0691906138e6565b50505091600201919060020190612981565b5b509050612a269190612ada565b5090565b6040518060c00160405280606081526020016060815260200160608152602001600073ffffffffffffffffffffffffffffffffffffffff16815260200160008152602001606081525090565b508054612a8290613423565b6000825580601f10612a945750612ab3565b601f016020900490600052602060002090810190612ab29190612b28565b5b50565b5080546000825560020290600052602060002090810190612ad79190612ada565b50565b5b80821115612b2457600080820160006101000a81549073ffffffffffffffffffffffffffffffffffffffff0219169055600182016000612b1b9190612a76565b50600201612adb565b5090565b5b80821115612b41576000816000905550600101612b29565b5090565b6000604051905090565b600080fd5b600080fd5b600073ffffffffffffffffffffffffffffffffffffffff82169050919050565b6000612b8482612b59565b9050919050565b612b9481612b79565b8114612b9f57600080fd5b50565b600081359050612bb181612b8b565b92915050565b600060208284031215612bcd57612bcc612b4f565b5b6000612bdb84828501612ba2565b91505092915050565b600081519050919050565b600082825260208201905092915050565b6000819050602082019050919050565b612c1981612b79565b82525050565b600081519050919050565b600082825260208201905092915050565b60005b83811015612c59578082015181840152602081019050612c3e565b60008484015250505050565b6000601f19601f8301169050919050565b6000612c8182612c1f565b612c8b8185612c2a565b9350612c9b818560208601612c3b565b612ca481612c65565b840191505092915050565b6000604083016000830151612cc76000860182612c10565b5060208301518482036020860152612cdf8282612c76565b9150508091505092915050565b6000612cf88383612caf565b905092915050565b6000602082019050919050565b6000612d1882612be4565b612d228185612bef565b935083602082028501612d3485612c00565b8060005b85811015612d705784840389528151612d518582612cec565b9450612d5c83612d00565b925060208a01995050600181019050612d38565b50829750879550505050505092915050565b60006020820190508181036000830152612d9c8184612d0d565b905092915050565b60008115159050919050565b612db981612da4565b82525050565b6000602082019050612dd46000830184612db0565b92915050565b600080fd5b600080fd5b7f4e487b7100000000000000000000000000000000000000000000000000000000600052604160045260246000fd5b612e1c82612c65565b810181811067ffffffffffffffff82111715612e3b57612e3a612de4565b5b80604052505050565b6000612e4e612b45565b9050612e5a8282612e13565b919050565b600067ffffffffffffffff821115612e7a57612e79612de4565b5b612e8382612c65565b9050602081019050919050565b82818337600083830152505050565b6000612eb2612ead84612e5f565b612e44565b905082815260208101848484011115612ece57612ecd612ddf565b5b612ed9848285612e90565b509392505050565b600082601f830112612ef657612ef5612dda565b5b8135612f06848260208601612e9f565b91505092915050565b612f1881612da4565b8114612f2357600080fd5b50565b600081359050612f3581612f0f565b92915050565b600080600080600060a08688031215612f5757612f56612b4f565b5b600086013567ffffffffffffffff811115612f7557612f74612b54565b5b612f8188828901612ee1565b955050602086013567ffffffffffffffff811115612fa257612fa1612b54565b5b612fae88828901612ee1565b945050604086013567ffffffffffffffff811115612fcf57612fce612b54565b5b612fdb88828901612ee1565b9350506060612fec88828901612ba2565b9250506080612ffd88828901612f26565b9150509295509295909350565b6000806040838503121561302157613020612b4f565b5b600061302f85828601612ba2565b925050602061304085828601612f26565b9150509250929050565b6000819050919050565b61305d8161304a565b82525050565b600082825260208201905092915050565b600061307f82612be4565b6130898185613063565b93508360208202850161309b85612c00565b8060005b858110156130d757848403895281516130b88582612cec565b94506130c383612d00565b925060208a0199505060018101905061309f565b50829750879550505050505092915050565b600060c08301600083015184820360008601526131068282612c76565b915050602083015184820360208601526131208282612c76565b9150506040830151848203604086015261313a8282612c76565b915050606083015161314f6060860182612c10565b5060808301516131626080860182613054565b5060a083015184820360a086015261317a8282613074565b9150508091505092915050565b600060208201905081810360008301526131a181846130e9565b905092915050565b600080604083850312156131c0576131bf612b4f565b5b60006131ce85828601612ba2565b92505060206131df85828601612ba2565b9150509250929050565b6000602082840312156131ff576131fe612b4f565b5b600061320d84828501612f26565b91505092915050565b600081519050919050565b600082825260208201905092915050565b6000819050602082019050919050565b600060c083016000830151848203600086015261325f8282612c76565b915050602083015184820360208601526132798282612c76565b915050604083015184820360408601526132938282612c76565b91505060608301516132a86060860182612c10565b5060808301516132bb6080860182613054565b5060a083015184820360a08601526132d38282613074565b9150508091505092915050565b60006132ec8383613242565b905092915050565b6000602082019050919050565b600061330c82613216565b6133168185613221565b93508360208202850161332885613232565b8060005b85811015613364578484038952815161334585826132e0565b9450613350836132f4565b925060208a0199505060018101905061332c565b50829750879550505050505092915050565b600060208201905081810360008301526133908184613301565b905092915050565b600080604083850312156133af576133ae612b4f565b5b60006133bd85828601612ba2565b925050602083013567ffffffffffffffff8111156133de576133dd612b54565b5b6133ea85828601612ee1565b9150509250929050565b7f4e487b7100000000000000000000000000000000000000000000000000000000600052602260045260246000fd5b6000600282049050600182168061343b57607f821691505b60208210810361344e5761344d6133f4565b5b50919050565b60008190508160005260206000209050919050565b60006020601f8301049050919050565b600082821b905092915050565b6000600883026134b67fffffffffffffffffffffffffffffffffffffffffffffffffffffffffffffffff82613479565b6134c08683613479565b95508019841693508086168417925050509392505050565b6000819050919050565b60006134fd6134f86134f38461304a565b6134d8565b61304a565b9050919050565b6000819050919050565b613517836134e2565b61352b61352382613504565b848454613486565b825550505050565b600090565b613540613533565b61354b81848461350e565b505050565b5b8181101561356f57613564600082613538565b600181019050613551565b5050565b601f8211156135b45761358581613454565b61358e84613469565b8101602085101561359d578190505b6135b16135a985613469565b830182613550565b50505b505050565b600082821c905092915050565b60006135d7600019846008026135b9565b1980831691505092915050565b60006135f083836135c6565b9150826002028217905092915050565b61360982612c1f565b67ffffffffffffffff81111561362257613621612de4565b5b61362c8254613423565b613637828285613573565b600060209050601f83116001811461366a5760008415613658578287015190505b61366285826135e4565b8655506136ca565b601f19841661367886613454565b60005b828110156136a05784890151825560018201915060208501945060208101905061367b565b868310156136bd57848901516136b9601f8916826135c6565b8355505b6001600288020188555050505b505050505050565b600081905092915050565b7f4445414e00000000000000000000000000000000000000000000000000000000600082015250565b60006137136004836136d2565b915061371e826136dd565b600482019050919050565b600061373482613706565b9150819050919050565b600061374982612c1f565b61375381856136d2565b9350613763818560208601612c3b565b80840191505092915050565b600061377b828461373e565b915081905092915050565b7f484f440000000000000000000000000000000000000000000000000000000000600082015250565b60006137bc6003836136d2565b91506137c782613786565b600382019050919050565b60006137dd826137af565b9150819050919050565b600082825260208201905092915050565b7f4d656d6265722052657175657374656400000000000000000000000000000000600082015250565b600061382e6010836137e7565b9150613839826137f8565b602082019050919050565b6000602082019050818103600083015261385d81613821565b9050919050565b7f4d656d6265722045786973740000000000000000000000000000000000000000600082015250565b600061389a600c836137e7565b91506138a582613864565b602082019050919050565b600060208201905081810360008301526138c98161388d565b9050919050565b6000815490506138df81613423565b9050919050565b8181036138f45750506139cc565b6138fd826138d0565b67ffffffffffffffff81111561391657613915612de4565b5b6139208254613423565b61392b828285613573565b6000601f83116001811461395a5760008415613948578287015490505b61395285826135e4565b8655506139c5565b601f19841661396887613454565b965061397386613454565b60005b8281101561399b57848901548255600182019150600185019450602081019050613976565b868310156139b857848901546139b4601f8916826135c6565b8355505b6001600288020188555050505b5050505050505b565b7f596f75206e65656420746f205265717565737420466972737400000000000000600082015250565b6000613a046019836137e7565b9150613a0f826139ce565b602082019050919050565b60006020820190508181036000830152613a33816139f7565b9050919050565b7f596f752063616e277420617070726f6f766520736f6d656f6e652061626f766560008201527f207468616e20796f752e00000000000000000000000000000000000000000000602082015250565b6000613a96602a836137e7565b9150613aa182613a3a565b604082019050919050565b60006020820190508181036000830152613ac581613a89565b9050919050565b7f4e487b7100000000000000000000000000000000000000000000000000000000600052601160045260246000fd5b6000613b068261304a565b9150613b118361304a565b9250828203905081811115613b2957613b28613acc565b5b92915050565b7f4e487b7100000000000000000000000000000000000000000000000000000000600052603260045260246000fd5b7f4e487b7100000000000000000000000000000000000000000000000000000000600052603160045260246000fdfea264697066735822122063af42a1bc83de35a5861fb5574125a40863de2986df1b4d3a115880ee9831d264736f6c63430008100033",
      "opcodes": "PUSH1 0x80 PUSH1 0x40 MSTORE PUSH1 0x0 PUSH1 0x3 SSTORE PUSH1 0x0 PUSH1 0x4 SSTORE CALLVALUE DUP1 ISZERO PUSH2 0x1A JUMPI PUSH1 0x0 DUP1 REVERT JUMPDEST POP PUSH2 0x3BC3 DUP1 PUSH2 0x2A PUSH1 0x0 CODECOPY PUSH1 0x0 RETURN INVALID PUSH1 0x80 PUSH1 0x40 MSTORE PUSH1 0x4 CALLDATASIZE LT PUSH2 0x86 JUMPI PUSH1 0x0 CALLDATALOAD PUSH1 0xE0 SHR DUP1 PUSH4 0xA9E10BF2 GT PUSH2 0x59 JUMPI DUP1 PUSH4 0xA9E10BF2 EQ PUSH2 0x159 JUMPI DUP1 PUSH4 0xBAFA08C1 EQ PUSH2 0x163 JUMPI DUP1 PUSH4 0xE070DD12 EQ PUSH2 0x1A0 JUMPI DUP1 PUSH4 0xE473F6CD EQ PUSH2 0x1C9 JUMPI DUP1 PUSH4 0xFF869240 EQ PUSH2 0x206 JUMPI PUSH2 0x86 JUMP JUMPDEST DUP1 PUSH4 0x28538949 EQ PUSH2 0x8B JUMPI DUP1 PUSH4 0x30561100 EQ PUSH2 0xC8 JUMPI DUP1 PUSH4 0x35A6861A EQ PUSH2 0xF3 JUMPI DUP1 PUSH4 0x4CD6F25E EQ PUSH2 0x130 JUMPI JUMPDEST PUSH1 0x0 DUP1 REVERT JUMPDEST CALLVALUE DUP1 ISZERO PUSH2 0x97 JUMPI PUSH1 0x0 DUP1 REVERT JUMPDEST POP PUSH2 0xB2 PUSH1 0x4 DUP1 CALLDATASIZE SUB DUP2 ADD SWAP1 PUSH2 0xAD SWAP2 SWAP1 PUSH2 0x2BB7 JUMP JUMPDEST PUSH2 0x22F JUMP JUMPDEST PUSH1 0x40 MLOAD PUSH2 0xBF SWAP2 SWAP1 PUSH2 0x2D82 JUMP JUMPDEST PUSH1 0x40 MLOAD DUP1 SWAP2 SUB SWAP1 RETURN JUMPDEST CALLVALUE DUP1 ISZERO PUSH2 0xD4 JUMPI PUSH1 0x0 DUP1 REVERT JUMPDEST POP PUSH2 0xDD PUSH2 0x3B8 JUMP JUMPDEST PUSH1 0x40 MLOAD PUSH2 0xEA SWAP2 SWAP1 PUSH2 0x2D82 JUMP JUMPDEST PUSH1 0x40 MLOAD DUP1 SWAP2 SUB SWAP1 RETURN JUMPDEST CALLVALUE DUP1 ISZERO PUSH2 0xFF JUMPI PUSH1 0x0 DUP1 REVERT JUMPDEST POP PUSH2 0x11A PUSH1 0x4 DUP1 CALLDATASIZE SUB DUP2 ADD SWAP1 PUSH2 0x115 SWAP2 SWAP1 PUSH2 0x2BB7 JUMP JUMPDEST PUSH2 0x4FF JUMP JUMPDEST PUSH1 0x40 MLOAD PUSH2 0x127 SWAP2 SWAP1 PUSH2 0x2DBF JUMP JUMPDEST PUSH1 0x40 MLOAD DUP1 SWAP2 SUB SWAP1 RETURN JUMPDEST CALLVALUE DUP1 ISZERO PUSH2 0x13C JUMPI PUSH1 0x0 DUP1 REVERT JUMPDEST POP PUSH2 0x157 PUSH1 0x4 DUP1 CALLDATASIZE SUB DUP2 ADD SWAP1 PUSH2 0x152 SWAP2 SWAP1 PUSH2 0x2F3B JUMP JUMPDEST PUSH2 0x56C JUMP JUMPDEST STOP JUMPDEST PUSH2 0x161 PUSH2 0xE78 JUMP JUMPDEST STOP JUMPDEST CALLVALUE DUP1 ISZERO PUSH2 0x16F JUMPI PUSH1 0x0 DUP1 REVERT JUMPDEST POP PUSH2 0x18A PUSH1 0x4 DUP1 CALLDATASIZE SUB DUP2 ADD SWAP1 PUSH2 0x185 SWAP2 SWAP1 PUSH2 0x300A JUMP JUMPDEST PUSH2 0xE7A JUMP JUMPDEST PUSH1 0x40 MLOAD PUSH2 0x197 SWAP2 SWAP1 PUSH2 0x3187 JUMP JUMPDEST PUSH1 0x40 MLOAD DUP1 SWAP2 SUB SWAP1 RETURN JUMPDEST CALLVALUE DUP1 ISZERO PUSH2 0x1AC JUMPI PUSH1 0x0 DUP1 REVERT JUMPDEST POP PUSH2 0x1C7 PUSH1 0x4 DUP1 CALLDATASIZE SUB DUP2 ADD SWAP1 PUSH2 0x1C2 SWAP2 SWAP1 PUSH2 0x31A9 JUMP JUMPDEST PUSH2 0x15EC JUMP JUMPDEST STOP JUMPDEST CALLVALUE DUP1 ISZERO PUSH2 0x1D5 JUMPI PUSH1 0x0 DUP1 REVERT JUMPDEST POP PUSH2 0x1F0 PUSH1 0x4 DUP1 CALLDATASIZE SUB DUP2 ADD SWAP1 PUSH2 0x1EB SWAP2 SWAP1 PUSH2 0x31E9 JUMP JUMPDEST PUSH2 0x1DDE JUMP JUMPDEST PUSH1 0x40 MLOAD PUSH2 0x1FD SWAP2 SWAP1 PUSH2 0x3376 JUMP JUMPDEST PUSH1 0x40 MLOAD DUP1 SWAP2 SUB SWAP1 RETURN JUMPDEST CALLVALUE DUP1 ISZERO PUSH2 0x212 JUMPI PUSH1 0x0 DUP1 REVERT JUMPDEST POP PUSH2 0x22D PUSH1 0x4 DUP1 CALLDATASIZE SUB DUP2 ADD SWAP1 PUSH2 0x228 SWAP2 SWAP1 PUSH2 0x3398 JUMP JUMPDEST PUSH2 0x2565 JUMP JUMPDEST STOP JUMPDEST PUSH1 0x60 PUSH1 0x7 PUSH1 0x0 DUP4 PUSH20 0xFFFFFFFFFFFFFFFFFFFFFFFFFFFFFFFFFFFFFFFF AND PUSH20 0xFFFFFFFFFFFFFFFFFFFFFFFFFFFFFFFFFFFFFFFF AND DUP2 MSTORE PUSH1 0x20 ADD SWAP1 DUP2 MSTORE PUSH1 0x20 ADD PUSH1 0x0 KECCAK256 PUSH1 0x5 ADD DUP1 SLOAD DUP1 PUSH1 0x20 MUL PUSH1 0x20 ADD PUSH1 0x40 MLOAD SWAP1 DUP2 ADD PUSH1 0x40 MSTORE DUP1 SWAP3 SWAP2 SWAP1 DUP2 DUP2 MSTORE PUSH1 0x20 ADD PUSH1 0x0 SWAP1 JUMPDEST DUP3 DUP3 LT ISZERO PUSH2 0x3AD JUMPI DUP4 DUP3 SWAP1 PUSH1 0x0 MSTORE PUSH1 0x20 PUSH1 0x0 KECCAK256 SWAP1 PUSH1 0x2 MUL ADD PUSH1 0x40 MLOAD DUP1 PUSH1 0x40 ADD PUSH1 0x40 MSTORE SWAP1 DUP2 PUSH1 0x0 DUP3 ADD PUSH1 0x0 SWAP1 SLOAD SWAP1 PUSH2 0x100 EXP SWAP1 DIV PUSH20 0xFFFFFFFFFFFFFFFFFFFFFFFFFFFFFFFFFFFFFFFF AND PUSH20 0xFFFFFFFFFFFFFFFFFFFFFFFFFFFFFFFFFFFFFFFF AND PUSH20 0xFFFFFFFFFFFFFFFFFFFFFFFFFFFFFFFFFFFFFFFF AND DUP2 MSTORE PUSH1 0x20 ADD PUSH1 0x1 DUP3 ADD DUP1 SLOAD PUSH2 0x31C SWAP1 PUSH2 0x3423 JUMP JUMPDEST DUP1 PUSH1 0x1F ADD PUSH1 0x20 DUP1 SWAP2 DIV MUL PUSH1 0x20 ADD PUSH1 0x40 MLOAD SWAP1 DUP2 ADD PUSH1 0x40 MSTORE DUP1 SWAP3 SWAP2 SWAP1 DUP2 DUP2 MSTORE PUSH1 0x20 ADD DUP3 DUP1 SLOAD PUSH2 0x348 SWAP1 PUSH2 0x3423 JUMP JUMPDEST DUP1 ISZERO PUSH2 0x395 JUMPI DUP1 PUSH1 0x1F LT PUSH2 0x36A JUMPI PUSH2 0x100 DUP1 DUP4 SLOAD DIV MUL DUP4 MSTORE SWAP2 PUSH1 0x20 ADD SWAP2 PUSH2 0x395 JUMP JUMPDEST DUP3 ADD SWAP2 SWAP1 PUSH1 0x0 MSTORE PUSH1 0x20 PUSH1 0x0 KECCAK256 SWAP1 JUMPDEST DUP2 SLOAD DUP2 MSTORE SWAP1 PUSH1 0x1 ADD SWAP1 PUSH1 0x20 ADD DUP1 DUP4 GT PUSH2 0x378 JUMPI DUP3 SWAP1 SUB PUSH1 0x1F AND DUP3 ADD SWAP2 JUMPDEST POP POP POP POP POP DUP2 MSTORE POP POP DUP2 MSTORE PUSH1 0x20 ADD SWAP1 PUSH1 0x1 ADD SWAP1 PUSH2 0x293 JUMP JUMPDEST POP POP POP POP SWAP1 POP SWAP2 SWAP1 POP JUMP JUMPDEST PUSH1 0x60 PUSH1 0x2 DUP1 SLOAD DUP1 PUSH1 0x20 MUL PUSH1 0x20 ADD PUSH1 0x40 MLOAD SWAP1 DUP2 ADD PUSH1 0x40 MSTORE DUP1 SWAP3 SWAP2 SWAP1 DUP2 DUP2 MSTORE PUSH1 0x20 ADD PUSH1 0x0 SWAP1 JUMPDEST DUP3 DUP3 LT ISZERO PUSH2 0x4F6 JUMPI DUP4 DUP3 SWAP1 PUSH1 0x0 MSTORE PUSH1 0x20 PUSH1 0x0 KECCAK256 SWAP1 PUSH1 0x2 MUL ADD PUSH1 0x40 MLOAD DUP1 PUSH1 0x40 ADD PUSH1 0x40 MSTORE SWAP1 DUP2 PUSH1 0x0 DUP3 ADD PUSH1 0x0 SWAP1 SLOAD SWAP1 PUSH2 0x100 EXP SWAP1 DIV PUSH20 0xFFFFFFFFFFFFFFFFFFFFFFFFFFFFFFFFFFFFFFFF AND PUSH20 0xFFFFFFFFFFFFFFFFFFFFFFFFFFFFFFFFFFFFFFFF AND PUSH20 0xFFFFFFFFFFFFFFFFFFFFFFFFFFFFFFFFFFFFFFFF AND DUP2 MSTORE PUSH1 0x20 ADD PUSH1 0x1 DUP3 ADD DUP1 SLOAD PUSH2 0x465 SWAP1 PUSH2 0x3423 JUMP JUMPDEST DUP1 PUSH1 0x1F ADD PUSH1 0x20 DUP1 SWAP2 DIV MUL PUSH1 0x20 ADD PUSH1 0x40 MLOAD SWAP1 DUP2 ADD PUSH1 0x40 MSTORE DUP1 SWAP3 SWAP2 SWAP1 DUP2 DUP2 MSTORE PUSH1 0x20 ADD DUP3 DUP1 SLOAD PUSH2 0x491 SWAP1 PUSH2 0x3423 JUMP JUMPDEST DUP1 ISZERO PUSH2 0x4DE JUMPI DUP1 PUSH1 0x1F LT PUSH2 0x4B3 JUMPI PUSH2 0x100 DUP1 DUP4 SLOAD DIV MUL DUP4 MSTORE SWAP2 PUSH1 0x20 ADD SWAP2 PUSH2 0x4DE JUMP JUMPDEST DUP3 ADD SWAP2 SWAP1 PUSH1 0x0 MSTORE PUSH1 0x20 PUSH1 0x0 KECCAK256 SWAP1 JUMPDEST DUP2 SLOAD DUP2 MSTORE SWAP1 PUSH1 0x1 ADD SWAP1 PUSH1 0x20 ADD DUP1 DUP4 GT PUSH2 0x4C1 JUMPI DUP3 SWAP1 SUB PUSH1 0x1F AND DUP3 ADD SWAP2 JUMPDEST POP POP POP POP POP DUP2 MSTORE POP POP DUP2 MSTORE PUSH1 0x20 ADD SWAP1 PUSH1 0x1 ADD SWAP1 PUSH2 0x3DC JUMP JUMPDEST POP POP POP POP SWAP1 POP SWAP1 JUMP JUMPDEST PUSH1 0x0 PUSH1 0x1 ISZERO ISZERO PUSH1 0x9 PUSH1 0x0 DUP5 PUSH20 0xFFFFFFFFFFFFFFFFFFFFFFFFFFFFFFFFFFFFFFFF AND PUSH20 0xFFFFFFFFFFFFFFFFFFFFFFFFFFFFFFFFFFFFFFFF AND DUP2 MSTORE PUSH1 0x20 ADD SWAP1 DUP2 MSTORE PUSH1 0x20 ADD PUSH1 0x0 KECCAK256 PUSH1 0x0 SWAP1 SLOAD SWAP1 PUSH2 0x100 EXP SWAP1 DIV PUSH1 0xFF AND ISZERO ISZERO SUB PUSH2 0x562 JUMPI PUSH1 0x1 SWAP1 POP PUSH2 0x567 JUMP JUMPDEST PUSH1 0x0 SWAP1 POP JUMPDEST SWAP2 SWAP1 POP JUMP JUMPDEST DUP5 PUSH1 0xD PUSH1 0x0 ADD SWAP1 DUP2 PUSH2 0x57E SWAP2 SWAP1 PUSH2 0x3600 JUMP JUMPDEST POP DUP4 PUSH1 0xD PUSH1 0x1 ADD SWAP1 DUP2 PUSH2 0x591 SWAP2 SWAP1 PUSH2 0x3600 JUMP JUMPDEST POP DUP3 PUSH1 0xD PUSH1 0x2 ADD SWAP1 DUP2 PUSH2 0x5A4 SWAP2 SWAP1 PUSH2 0x3600 JUMP JUMPDEST POP DUP2 PUSH1 0xD PUSH1 0x3 ADD PUSH1 0x0 PUSH2 0x100 EXP DUP2 SLOAD DUP2 PUSH20 0xFFFFFFFFFFFFFFFFFFFFFFFFFFFFFFFFFFFFFFFF MUL NOT AND SWAP1 DUP4 PUSH20 0xFFFFFFFFFFFFFFFFFFFFFFFFFFFFFFFFFFFFFFFF AND MUL OR SWAP1 SSTORE POP PUSH1 0x40 MLOAD PUSH1 0x20 ADD PUSH2 0x5F8 SWAP1 PUSH2 0x3729 JUMP JUMPDEST PUSH1 0x40 MLOAD PUSH1 0x20 DUP2 DUP4 SUB SUB DUP2 MSTORE SWAP1 PUSH1 0x40 MSTORE DUP1 MLOAD SWAP1 PUSH1 0x20 ADD KECCAK256 DUP6 PUSH1 0x40 MLOAD PUSH1 0x20 ADD PUSH2 0x61F SWAP2 SWAP1 PUSH2 0x376F JUMP JUMPDEST PUSH1 0x40 MLOAD PUSH1 0x20 DUP2 DUP4 SUB SUB DUP2 MSTORE SWAP1 PUSH1 0x40 MSTORE DUP1 MLOAD SWAP1 PUSH1 0x20 ADD KECCAK256 SUB PUSH2 0x64A JUMPI PUSH1 0x1 PUSH1 0xD PUSH1 0x4 ADD DUP2 SWAP1 SSTORE POP PUSH2 0x6B8 JUMP JUMPDEST PUSH1 0x40 MLOAD PUSH1 0x20 ADD PUSH2 0x659 SWAP1 PUSH2 0x37D2 JUMP JUMPDEST PUSH1 0x40 MLOAD PUSH1 0x20 DUP2 DUP4 SUB SUB DUP2 MSTORE SWAP1 PUSH1 0x40 MSTORE DUP1 MLOAD SWAP1 PUSH1 0x20 ADD KECCAK256 DUP6 PUSH1 0x40 MLOAD PUSH1 0x20 ADD PUSH2 0x680 SWAP2 SWAP1 PUSH2 0x376F JUMP JUMPDEST PUSH1 0x40 MLOAD PUSH1 0x20 DUP2 DUP4 SUB SUB DUP2 MSTORE SWAP1 PUSH1 0x40 MSTORE DUP1 MLOAD SWAP1 PUSH1 0x20 ADD KECCAK256 SUB PUSH2 0x6AB JUMPI PUSH1 0x2 PUSH1 0xD PUSH1 0x4 ADD DUP2 SWAP1 SSTORE POP PUSH2 0x6B7 JUMP JUMPDEST PUSH1 0x3 PUSH1 0xD PUSH1 0x4 ADD DUP2 SWAP1 SSTORE POP JUMPDEST JUMPDEST PUSH1 0x1 ISZERO ISZERO DUP2 ISZERO ISZERO EQ DUP1 ISZERO PUSH2 0x716 JUMPI POP PUSH1 0x40 MLOAD PUSH1 0x20 ADD PUSH2 0x6D6 SWAP1 PUSH2 0x3729 JUMP JUMPDEST PUSH1 0x40 MLOAD PUSH1 0x20 DUP2 DUP4 SUB SUB DUP2 MSTORE SWAP1 PUSH1 0x40 MSTORE DUP1 MLOAD SWAP1 PUSH1 0x20 ADD KECCAK256 DUP6 PUSH1 0x40 MLOAD PUSH1 0x20 ADD PUSH2 0x6FD SWAP2 SWAP1 PUSH2 0x376F JUMP JUMPDEST PUSH1 0x40 MLOAD PUSH1 0x20 DUP2 DUP4 SUB SUB DUP2 MSTORE SWAP1 PUSH1 0x40 MSTORE DUP1 MLOAD SWAP1 PUSH1 0x20 ADD KECCAK256 EQ ISZERO JUMPDEST ISZERO PUSH2 0xA9F JUMPI PUSH1 0x0 ISZERO ISZERO PUSH1 0xC PUSH1 0x0 DUP5 PUSH20 0xFFFFFFFFFFFFFFFFFFFFFFFFFFFFFFFFFFFFFFFF AND PUSH20 0xFFFFFFFFFFFFFFFFFFFFFFFFFFFFFFFFFFFFFFFF AND DUP2 MSTORE PUSH1 0x20 ADD SWAP1 DUP2 MSTORE PUSH1 0x20 ADD PUSH1 0x0 KECCAK256 PUSH1 0x0 SWAP1 SLOAD SWAP1 PUSH2 0x100 EXP SWAP1 DIV PUSH1 0xFF AND ISZERO ISZERO EQ PUSH2 0x7AE JUMPI PUSH1 0x40 MLOAD PUSH32 0x8C379A000000000000000000000000000000000000000000000000000000000 DUP2 MSTORE PUSH1 0x4 ADD PUSH2 0x7A5 SWAP1 PUSH2 0x3844 JUMP JUMPDEST PUSH1 0x40 MLOAD DUP1 SWAP2 SUB SWAP1 REVERT JUMPDEST PUSH1 0x0 ISZERO ISZERO PUSH1 0x9 PUSH1 0x0 DUP5 PUSH20 0xFFFFFFFFFFFFFFFFFFFFFFFFFFFFFFFFFFFFFFFF AND PUSH20 0xFFFFFFFFFFFFFFFFFFFFFFFFFFFFFFFFFFFFFFFF AND DUP2 MSTORE PUSH1 0x20 ADD SWAP1 DUP2 MSTORE PUSH1 0x20 ADD PUSH1 0x0 KECCAK256 PUSH1 0x0 SWAP1 SLOAD SWAP1 PUSH2 0x100 EXP SWAP1 DIV PUSH1 0xFF AND ISZERO ISZERO EQ PUSH2 0x841 JUMPI PUSH1 0x40 MLOAD PUSH32 0x8C379A000000000000000000000000000000000000000000000000000000000 DUP2 MSTORE PUSH1 0x4 ADD PUSH2 0x838 SWAP1 PUSH2 0x38B0 JUMP JUMPDEST PUSH1 0x40 MLOAD DUP1 SWAP2 SUB SWAP1 REVERT JUMPDEST PUSH1 0xB PUSH1 0xD SWAP1 DUP1 PUSH1 0x1 DUP2 SLOAD ADD DUP1 DUP3 SSTORE DUP1 SWAP2 POP POP PUSH1 0x1 SWAP1 SUB SWAP1 PUSH1 0x0 MSTORE PUSH1 0x20 PUSH1 0x0 KECCAK256 SWAP1 PUSH1 0x6 MUL ADD PUSH1 0x0 SWAP1 SWAP2 SWAP1 SWAP2 SWAP1 SWAP2 POP PUSH1 0x0 DUP3 ADD DUP2 PUSH1 0x0 ADD SWAP1 DUP2 PUSH2 0x882 SWAP2 SWAP1 PUSH2 0x38E6 JUMP JUMPDEST POP PUSH1 0x1 DUP3 ADD DUP2 PUSH1 0x1 ADD SWAP1 DUP2 PUSH2 0x897 SWAP2 SWAP1 PUSH2 0x38E6 JUMP JUMPDEST POP PUSH1 0x2 DUP3 ADD DUP2 PUSH1 0x2 ADD SWAP1 DUP2 PUSH2 0x8AC SWAP2 SWAP1 PUSH2 0x38E6 JUMP JUMPDEST POP PUSH1 0x3 DUP3 ADD PUSH1 0x0 SWAP1 SLOAD SWAP1 PUSH2 0x100 EXP SWAP1 DIV PUSH20 0xFFFFFFFFFFFFFFFFFFFFFFFFFFFFFFFFFFFFFFFF AND DUP2 PUSH1 0x3 ADD PUSH1 0x0 PUSH2 0x100 EXP DUP2 SLOAD DUP2 PUSH20 0xFFFFFFFFFFFFFFFFFFFFFFFFFFFFFFFFFFFFFFFF MUL NOT AND SWAP1 DUP4 PUSH20 0xFFFFFFFFFFFFFFFFFFFFFFFFFFFFFFFFFFFFFFFF AND MUL OR SWAP1 SSTORE POP PUSH1 0x4 DUP3 ADD SLOAD DUP2 PUSH1 0x4 ADD SSTORE PUSH1 0x5 DUP3 ADD DUP2 PUSH1 0x5 ADD SWAP1 DUP1 SLOAD PUSH2 0x934 SWAP3 SWAP2 SWAP1 PUSH2 0x2956 JUMP JUMPDEST POP POP POP PUSH1 0xD PUSH1 0xA PUSH1 0x0 DUP5 PUSH20 0xFFFFFFFFFFFFFFFFFFFFFFFFFFFFFFFFFFFFFFFF AND PUSH20 0xFFFFFFFFFFFFFFFFFFFFFFFFFFFFFFFFFFFFFFFF AND DUP2 MSTORE PUSH1 0x20 ADD SWAP1 DUP2 MSTORE PUSH1 0x20 ADD PUSH1 0x0 KECCAK256 PUSH1 0x0 DUP3 ADD DUP2 PUSH1 0x0 ADD SWAP1 DUP2 PUSH2 0x98C SWAP2 SWAP1 PUSH2 0x38E6 JUMP JUMPDEST POP PUSH1 0x1 DUP3 ADD DUP2 PUSH1 0x1 ADD SWAP1 DUP2 PUSH2 0x9A1 SWAP2 SWAP1 PUSH2 0x38E6 JUMP JUMPDEST POP PUSH1 0x2 DUP3 ADD DUP2 PUSH1 0x2 ADD SWAP1 DUP2 PUSH2 0x9B6 SWAP2 SWAP1 PUSH2 0x38E6 JUMP JUMPDEST POP PUSH1 0x3 DUP3 ADD PUSH1 0x0 SWAP1 SLOAD SWAP1 PUSH2 0x100 EXP SWAP1 DIV PUSH20 0xFFFFFFFFFFFFFFFFFFFFFFFFFFFFFFFFFFFFFFFF AND DUP2 PUSH1 0x3 ADD PUSH1 0x0 PUSH2 0x100 EXP DUP2 SLOAD DUP2 PUSH20 0xFFFFFFFFFFFFFFFFFFFFFFFFFFFFFFFFFFFFFFFF MUL NOT AND SWAP1 DUP4 PUSH20 0xFFFFFFFFFFFFFFFFFFFFFFFFFFFFFFFFFFFFFFFF AND MUL OR SWAP1 SSTORE POP PUSH1 0x4 DUP3 ADD SLOAD DUP2 PUSH1 0x4 ADD SSTORE PUSH1 0x5 DUP3 ADD DUP2 PUSH1 0x5 ADD SWAP1 DUP1 SLOAD PUSH2 0xA3E SWAP3 SWAP2 SWAP1 PUSH2 0x2956 JUMP JUMPDEST POP SWAP1 POP POP PUSH1 0x1 PUSH1 0xC PUSH1 0x0 DUP5 PUSH20 0xFFFFFFFFFFFFFFFFFFFFFFFFFFFFFFFFFFFFFFFF AND PUSH20 0xFFFFFFFFFFFFFFFFFFFFFFFFFFFFFFFFFFFFFFFF AND DUP2 MSTORE PUSH1 0x20 ADD SWAP1 DUP2 MSTORE PUSH1 0x20 ADD PUSH1 0x0 KECCAK256 PUSH1 0x0 PUSH2 0x100 EXP DUP2 SLOAD DUP2 PUSH1 0xFF MUL NOT AND SWAP1 DUP4 ISZERO ISZERO MUL OR SWAP1 SSTORE POP PUSH2 0xE71 JUMP JUMPDEST PUSH1 0x40 MLOAD PUSH1 0x20 ADD PUSH2 0xAAE SWAP1 PUSH2 0x3729 JUMP JUMPDEST PUSH1 0x40 MLOAD PUSH1 0x20 DUP2 DUP4 SUB SUB DUP2 MSTORE SWAP1 PUSH1 0x40 MSTORE DUP1 MLOAD SWAP1 PUSH1 0x20 ADD KECCAK256 DUP6 PUSH1 0x40 MLOAD PUSH1 0x20 ADD PUSH2 0xAD5 SWAP2 SWAP1 PUSH2 0x376F JUMP JUMPDEST PUSH1 0x40 MLOAD PUSH1 0x20 DUP2 DUP4 SUB SUB DUP2 MSTORE SWAP1 PUSH1 0x40 MSTORE DUP1 MLOAD SWAP1 PUSH1 0x20 ADD KECCAK256 EQ PUSH2 0xB84 JUMPI PUSH1 0x1 ISZERO ISZERO PUSH1 0xC PUSH1 0x0 DUP5 PUSH20 0xFFFFFFFFFFFFFFFFFFFFFFFFFFFFFFFFFFFFFFFF AND PUSH20 0xFFFFFFFFFFFFFFFFFFFFFFFFFFFFFFFFFFFFFFFF AND DUP2 MSTORE PUSH1 0x20 ADD SWAP1 DUP2 MSTORE PUSH1 0x20 ADD PUSH1 0x0 KECCAK256 PUSH1 0x0 SWAP1 SLOAD SWAP1 PUSH2 0x100 EXP SWAP1 DIV PUSH1 0xFF AND ISZERO ISZERO EQ PUSH2 0xB83 JUMPI PUSH1 0x40 MLOAD PUSH32 0x8C379A000000000000000000000000000000000000000000000000000000000 DUP2 MSTORE PUSH1 0x4 ADD PUSH2 0xB7A SWAP1 PUSH2 0x3A1A JUMP JUMPDEST PUSH1 0x40 MLOAD DUP1 SWAP2 SUB SWAP1 REVERT JUMPDEST JUMPDEST PUSH1 0x0 ISZERO ISZERO PUSH1 0x9 PUSH1 0x0 DUP5 PUSH20 0xFFFFFFFFFFFFFFFFFFFFFFFFFFFFFFFFFFFFFFFF AND PUSH20 0xFFFFFFFFFFFFFFFFFFFFFFFFFFFFFFFFFFFFFFFF AND DUP2 MSTORE PUSH1 0x20 ADD SWAP1 DUP2 MSTORE PUSH1 0x20 ADD PUSH1 0x0 KECCAK256 PUSH1 0x0 SWAP1 SLOAD SWAP1 PUSH2 0x100 EXP SWAP1 DIV PUSH1 0xFF AND ISZERO ISZERO EQ PUSH2 0xC17 JUMPI PUSH1 0x40 MLOAD PUSH32 0x8C379A000000000000000000000000000000000000000000000000000000000 DUP2 MSTORE PUSH1 0x4 ADD PUSH2 0xC0E SWAP1 PUSH2 0x38B0 JUMP JUMPDEST PUSH1 0x40 MLOAD DUP1 SWAP2 SUB SWAP1 REVERT JUMPDEST PUSH1 0x8 PUSH1 0xD SWAP1 DUP1 PUSH1 0x1 DUP2 SLOAD ADD DUP1 DUP3 SSTORE DUP1 SWAP2 POP POP PUSH1 0x1 SWAP1 SUB SWAP1 PUSH1 0x0 MSTORE PUSH1 0x20 PUSH1 0x0 KECCAK256 SWAP1 PUSH1 0x6 MUL ADD PUSH1 0x0 SWAP1 SWAP2 SWAP1 SWAP2 SWAP1 SWAP2 POP PUSH1 0x0 DUP3 ADD DUP2 PUSH1 0x0 ADD SWAP1 DUP2 PUSH2 0xC58 SWAP2 SWAP1 PUSH2 0x38E6 JUMP JUMPDEST POP PUSH1 0x1 DUP3 ADD DUP2 PUSH1 0x1 ADD SWAP1 DUP2 PUSH2 0xC6D SWAP2 SWAP1 PUSH2 0x38E6 JUMP JUMPDEST POP PUSH1 0x2 DUP3 ADD DUP2 PUSH1 0x2 ADD SWAP1 DUP2 PUSH2 0xC82 SWAP2 SWAP1 PUSH2 0x38E6 JUMP JUMPDEST POP PUSH1 0x3 DUP3 ADD PUSH1 0x0 SWAP1 SLOAD SWAP1 PUSH2 0x100 EXP SWAP1 DIV PUSH20 0xFFFFFFFFFFFFFFFFFFFFFFFFFFFFFFFFFFFFFFFF AND DUP2 PUSH1 0x3 ADD PUSH1 0x0 PUSH2 0x100 EXP DUP2 SLOAD DUP2 PUSH20 0xFFFFFFFFFFFFFFFFFFFFFFFFFFFFFFFFFFFFFFFF MUL NOT AND SWAP1 DUP4 PUSH20 0xFFFFFFFFFFFFFFFFFFFFFFFFFFFFFFFFFFFFFFFF AND MUL OR SWAP1 SSTORE POP PUSH1 0x4 DUP3 ADD SLOAD DUP2 PUSH1 0x4 ADD SSTORE PUSH1 0x5 DUP3 ADD DUP2 PUSH1 0x5 ADD SWAP1 DUP1 SLOAD PUSH2 0xD0A SWAP3 SWAP2 SWAP1 PUSH2 0x2956 JUMP JUMPDEST POP POP POP PUSH1 0xD PUSH1 0x7 PUSH1 0x0 DUP5 PUSH20 0xFFFFFFFFFFFFFFFFFFFFFFFFFFFFFFFFFFFFFFFF AND PUSH20 0xFFFFFFFFFFFFFFFFFFFFFFFFFFFFFFFFFFFFFFFF AND DUP2 MSTORE PUSH1 0x20 ADD SWAP1 DUP2 MSTORE PUSH1 0x20 ADD PUSH1 0x0 KECCAK256 PUSH1 0x0 DUP3 ADD DUP2 PUSH1 0x0 ADD SWAP1 DUP2 PUSH2 0xD62 SWAP2 SWAP1 PUSH2 0x38E6 JUMP JUMPDEST POP PUSH1 0x1 DUP3 ADD DUP2 PUSH1 0x1 ADD SWAP1 DUP2 PUSH2 0xD77 SWAP2 SWAP1 PUSH2 0x38E6 JUMP JUMPDEST POP PUSH1 0x2 DUP3 ADD DUP2 PUSH1 0x2 ADD SWAP1 DUP2 PUSH2 0xD8C SWAP2 SWAP1 PUSH2 0x38E6 JUMP JUMPDEST POP PUSH1 0x3 DUP3 ADD PUSH1 0x0 SWAP1 SLOAD SWAP1 PUSH2 0x100 EXP SWAP1 DIV PUSH20 0xFFFFFFFFFFFFFFFFFFFFFFFFFFFFFFFFFFFFFFFF AND DUP2 PUSH1 0x3 ADD PUSH1 0x0 PUSH2 0x100 EXP DUP2 SLOAD DUP2 PUSH20 0xFFFFFFFFFFFFFFFFFFFFFFFFFFFFFFFFFFFFFFFF MUL NOT AND SWAP1 DUP4 PUSH20 0xFFFFFFFFFFFFFFFFFFFFFFFFFFFFFFFFFFFFFFFF AND MUL OR SWAP1 SSTORE POP PUSH1 0x4 DUP3 ADD SLOAD DUP2 PUSH1 0x4 ADD SSTORE PUSH1 0x5 DUP3 ADD DUP2 PUSH1 0x5 ADD SWAP1 DUP1 SLOAD PUSH2 0xE14 SWAP3 SWAP2 SWAP1 PUSH2 0x2956 JUMP JUMPDEST POP SWAP1 POP POP PUSH1 0x1 PUSH1 0x9 PUSH1 0x0 DUP5 PUSH20 0xFFFFFFFFFFFFFFFFFFFFFFFFFFFFFFFFFFFFFFFF AND PUSH20 0xFFFFFFFFFFFFFFFFFFFFFFFFFFFFFFFFFFFFFFFF AND DUP2 MSTORE PUSH1 0x20 ADD SWAP1 DUP2 MSTORE PUSH1 0x20 ADD PUSH1 0x0 KECCAK256 PUSH1 0x0 PUSH2 0x100 EXP DUP2 SLOAD DUP2 PUSH1 0xFF MUL NOT AND SWAP1 DUP4 ISZERO ISZERO MUL OR SWAP1 SSTORE POP JUMPDEST POP POP POP POP POP JUMP JUMPDEST JUMP JUMPDEST PUSH2 0xE82 PUSH2 0x2A2A JUMP JUMPDEST PUSH1 0x1 ISZERO ISZERO DUP3 ISZERO ISZERO SUB PUSH2 0x123C JUMPI PUSH1 0xA PUSH1 0x0 DUP5 PUSH20 0xFFFFFFFFFFFFFFFFFFFFFFFFFFFFFFFFFFFFFFFF AND PUSH20 0xFFFFFFFFFFFFFFFFFFFFFFFFFFFFFFFFFFFFFFFF AND DUP2 MSTORE PUSH1 0x20 ADD SWAP1 DUP2 MSTORE PUSH1 0x20 ADD PUSH1 0x0 KECCAK256 PUSH1 0x40 MLOAD DUP1 PUSH1 0xC0 ADD PUSH1 0x40 MSTORE SWAP1 DUP2 PUSH1 0x0 DUP3 ADD DUP1 SLOAD PUSH2 0xEE8 SWAP1 PUSH2 0x3423 JUMP JUMPDEST DUP1 PUSH1 0x1F ADD PUSH1 0x20 DUP1 SWAP2 DIV MUL PUSH1 0x20 ADD PUSH1 0x40 MLOAD SWAP1 DUP2 ADD PUSH1 0x40 MSTORE DUP1 SWAP3 SWAP2 SWAP1 DUP2 DUP2 MSTORE PUSH1 0x20 ADD DUP3 DUP1 SLOAD PUSH2 0xF14 SWAP1 PUSH2 0x3423 JUMP JUMPDEST DUP1 ISZERO PUSH2 0xF61 JUMPI DUP1 PUSH1 0x1F LT PUSH2 0xF36 JUMPI PUSH2 0x100 DUP1 DUP4 SLOAD DIV MUL DUP4 MSTORE SWAP2 PUSH1 0x20 ADD SWAP2 PUSH2 0xF61 JUMP JUMPDEST DUP3 ADD SWAP2 SWAP1 PUSH1 0x0 MSTORE PUSH1 0x20 PUSH1 0x0 KECCAK256 SWAP1 JUMPDEST DUP2 SLOAD DUP2 MSTORE SWAP1 PUSH1 0x1 ADD SWAP1 PUSH1 0x20 ADD DUP1 DUP4 GT PUSH2 0xF44 JUMPI DUP3 SWAP1 SUB PUSH1 0x1F AND DUP3 ADD SWAP2 JUMPDEST POP POP POP POP POP DUP2 MSTORE PUSH1 0x20 ADD PUSH1 0x1 DUP3 ADD DUP1 SLOAD PUSH2 0xF7A SWAP1 PUSH2 0x3423 JUMP JUMPDEST DUP1 PUSH1 0x1F ADD PUSH1 0x20 DUP1 SWAP2 DIV MUL PUSH1 0x20 ADD PUSH1 0x40 MLOAD SWAP1 DUP2 ADD PUSH1 0x40 MSTORE DUP1 SWAP3 SWAP2 SWAP1 DUP2 DUP2 MSTORE PUSH1 0x20 ADD DUP3 DUP1 SLOAD PUSH2 0xFA6 SWAP1 PUSH2 0x3423 JUMP JUMPDEST DUP1 ISZERO PUSH2 0xFF3 JUMPI DUP1 PUSH1 0x1F LT PUSH2 0xFC8 JUMPI PUSH2 0x100 DUP1 DUP4 SLOAD DIV MUL DUP4 MSTORE SWAP2 PUSH1 0x20 ADD SWAP2 PUSH2 0xFF3 JUMP JUMPDEST DUP3 ADD SWAP2 SWAP1 PUSH1 0x0 MSTORE PUSH1 0x20 PUSH1 0x0 KECCAK256 SWAP1 JUMPDEST DUP2 SLOAD DUP2 MSTORE SWAP1 PUSH1 0x1 ADD SWAP1 PUSH1 0x20 ADD DUP1 DUP4 GT PUSH2 0xFD6 JUMPI DUP3 SWAP1 SUB PUSH1 0x1F AND DUP3 ADD SWAP2 JUMPDEST POP POP POP POP POP DUP2 MSTORE PUSH1 0x20 ADD PUSH1 0x2 DUP3 ADD DUP1 SLOAD PUSH2 0x100C SWAP1 PUSH2 0x3423 JUMP JUMPDEST DUP1 PUSH1 0x1F ADD PUSH1 0x20 DUP1 SWAP2 DIV MUL PUSH1 0x20 ADD PUSH1 0x40 MLOAD SWAP1 DUP2 ADD PUSH1 0x40 MSTORE DUP1 SWAP3 SWAP2 SWAP1 DUP2 DUP2 MSTORE PUSH1 0x20 ADD DUP3 DUP1 SLOAD PUSH2 0x1038 SWAP1 PUSH2 0x3423 JUMP JUMPDEST DUP1 ISZERO PUSH2 0x1085 JUMPI DUP1 PUSH1 0x1F LT PUSH2 0x105A JUMPI PUSH2 0x100 DUP1 DUP4 SLOAD DIV MUL DUP4 MSTORE SWAP2 PUSH1 0x20 ADD SWAP2 PUSH2 0x1085 JUMP JUMPDEST DUP3 ADD SWAP2 SWAP1 PUSH1 0x0 MSTORE PUSH1 0x20 PUSH1 0x0 KECCAK256 SWAP1 JUMPDEST DUP2 SLOAD DUP2 MSTORE SWAP1 PUSH1 0x1 ADD SWAP1 PUSH1 0x20 ADD DUP1 DUP4 GT PUSH2 0x1068 JUMPI DUP3 SWAP1 SUB PUSH1 0x1F AND DUP3 ADD SWAP2 JUMPDEST POP POP POP POP POP DUP2 MSTORE PUSH1 0x20 ADD PUSH1 0x3 DUP3 ADD PUSH1 0x0 SWAP1 SLOAD SWAP1 PUSH2 0x100 EXP SWAP1 DIV PUSH20 0xFFFFFFFFFFFFFFFFFFFFFFFFFFFFFFFFFFFFFFFF AND PUSH20 0xFFFFFFFFFFFFFFFFFFFFFFFFFFFFFFFFFFFFFFFF AND PUSH20 0xFFFFFFFFFFFFFFFFFFFFFFFFFFFFFFFFFFFFFFFF AND DUP2 MSTORE PUSH1 0x20 ADD PUSH1 0x4 DUP3 ADD SLOAD DUP2 MSTORE PUSH1 0x20 ADD PUSH1 0x5 DUP3 ADD DUP1 SLOAD DUP1 PUSH1 0x20 MUL PUSH1 0x20 ADD PUSH1 0x40 MLOAD SWAP1 DUP2 ADD PUSH1 0x40 MSTORE DUP1 SWAP3 SWAP2 SWAP1 DUP2 DUP2 MSTORE PUSH1 0x20 ADD PUSH1 0x0 SWAP1 JUMPDEST DUP3 DUP3 LT ISZERO PUSH2 0x122D JUMPI DUP4 DUP3 SWAP1 PUSH1 0x0 MSTORE PUSH1 0x20 PUSH1 0x0 KECCAK256 SWAP1 PUSH1 0x2 MUL ADD PUSH1 0x40 MLOAD DUP1 PUSH1 0x40 ADD PUSH1 0x40 MSTORE SWAP1 DUP2 PUSH1 0x0 DUP3 ADD PUSH1 0x0 SWAP1 SLOAD SWAP1 PUSH2 0x100 EXP SWAP1 DIV PUSH20 0xFFFFFFFFFFFFFFFFFFFFFFFFFFFFFFFFFFFFFFFF AND PUSH20 0xFFFFFFFFFFFFFFFFFFFFFFFFFFFFFFFFFFFFFFFF AND PUSH20 0xFFFFFFFFFFFFFFFFFFFFFFFFFFFFFFFFFFFFFFFF AND DUP2 MSTORE PUSH1 0x20 ADD PUSH1 0x1 DUP3 ADD DUP1 SLOAD PUSH2 0x119C SWAP1 PUSH2 0x3423 JUMP JUMPDEST DUP1 PUSH1 0x1F ADD PUSH1 0x20 DUP1 SWAP2 DIV MUL PUSH1 0x20 ADD PUSH1 0x40 MLOAD SWAP1 DUP2 ADD PUSH1 0x40 MSTORE DUP1 SWAP3 SWAP2 SWAP1 DUP2 DUP2 MSTORE PUSH1 0x20 ADD DUP3 DUP1 SLOAD PUSH2 0x11C8 SWAP1 PUSH2 0x3423 JUMP JUMPDEST DUP1 ISZERO PUSH2 0x1215 JUMPI DUP1 PUSH1 0x1F LT PUSH2 0x11EA JUMPI PUSH2 0x100 DUP1 DUP4 SLOAD DIV MUL DUP4 MSTORE SWAP2 PUSH1 0x20 ADD SWAP2 PUSH2 0x1215 JUMP JUMPDEST DUP3 ADD SWAP2 SWAP1 PUSH1 0x0 MSTORE PUSH1 0x20 PUSH1 0x0 KECCAK256 SWAP1 JUMPDEST DUP2 SLOAD DUP2 MSTORE SWAP1 PUSH1 0x1 ADD SWAP1 PUSH1 0x20 ADD DUP1 DUP4 GT PUSH2 0x11F8 JUMPI DUP3 SWAP1 SUB PUSH1 0x1F AND DUP3 ADD SWAP2 JUMPDEST POP POP POP POP POP DUP2 MSTORE POP POP DUP2 MSTORE PUSH1 0x20 ADD SWAP1 PUSH1 0x1 ADD SWAP1 PUSH2 0x1113 JUMP JUMPDEST POP POP POP POP DUP2 MSTORE POP POP SWAP1 POP PUSH2 0x15E6 JUMP JUMPDEST PUSH1 0x7 PUSH1 0x0 DUP5 PUSH20 0xFFFFFFFFFFFFFFFFFFFFFFFFFFFFFFFFFFFFFFFF AND PUSH20 0xFFFFFFFFFFFFFFFFFFFFFFFFFFFFFFFFFFFFFFFF AND DUP2 MSTORE PUSH1 0x20 ADD SWAP1 DUP2 MSTORE PUSH1 0x20 ADD PUSH1 0x0 KECCAK256 PUSH1 0x40 MLOAD DUP1 PUSH1 0xC0 ADD PUSH1 0x40 MSTORE SWAP1 DUP2 PUSH1 0x0 DUP3 ADD DUP1 SLOAD PUSH2 0x1296 SWAP1 PUSH2 0x3423 JUMP JUMPDEST DUP1 PUSH1 0x1F ADD PUSH1 0x20 DUP1 SWAP2 DIV MUL PUSH1 0x20 ADD PUSH1 0x40 MLOAD SWAP1 DUP2 ADD PUSH1 0x40 MSTORE DUP1 SWAP3 SWAP2 SWAP1 DUP2 DUP2 MSTORE PUSH1 0x20 ADD DUP3 DUP1 SLOAD PUSH2 0x12C2 SWAP1 PUSH2 0x3423 JUMP JUMPDEST DUP1 ISZERO PUSH2 0x130F JUMPI DUP1 PUSH1 0x1F LT PUSH2 0x12E4 JUMPI PUSH2 0x100 DUP1 DUP4 SLOAD DIV MUL DUP4 MSTORE SWAP2 PUSH1 0x20 ADD SWAP2 PUSH2 0x130F JUMP JUMPDEST DUP3 ADD SWAP2 SWAP1 PUSH1 0x0 MSTORE PUSH1 0x20 PUSH1 0x0 KECCAK256 SWAP1 JUMPDEST DUP2 SLOAD DUP2 MSTORE SWAP1 PUSH1 0x1 ADD SWAP1 PUSH1 0x20 ADD DUP1 DUP4 GT PUSH2 0x12F2 JUMPI DUP3 SWAP1 SUB PUSH1 0x1F AND DUP3 ADD SWAP2 JUMPDEST POP POP POP POP POP DUP2 MSTORE PUSH1 0x20 ADD PUSH1 0x1 DUP3 ADD DUP1 SLOAD PUSH2 0x1328 SWAP1 PUSH2 0x3423 JUMP JUMPDEST DUP1 PUSH1 0x1F ADD PUSH1 0x20 DUP1 SWAP2 DIV MUL PUSH1 0x20 ADD PUSH1 0x40 MLOAD SWAP1 DUP2 ADD PUSH1 0x40 MSTORE DUP1 SWAP3 SWAP2 SWAP1 DUP2 DUP2 MSTORE PUSH1 0x20 ADD DUP3 DUP1 SLOAD PUSH2 0x1354 SWAP1 PUSH2 0x3423 JUMP JUMPDEST DUP1 ISZERO PUSH2 0x13A1 JUMPI DUP1 PUSH1 0x1F LT PUSH2 0x1376 JUMPI PUSH2 0x100 DUP1 DUP4 SLOAD DIV MUL DUP4 MSTORE SWAP2 PUSH1 0x20 ADD SWAP2 PUSH2 0x13A1 JUMP JUMPDEST DUP3 ADD SWAP2 SWAP1 PUSH1 0x0 MSTORE PUSH1 0x20 PUSH1 0x0 KECCAK256 SWAP1 JUMPDEST DUP2 SLOAD DUP2 MSTORE SWAP1 PUSH1 0x1 ADD SWAP1 PUSH1 0x20 ADD DUP1 DUP4 GT PUSH2 0x1384 JUMPI DUP3 SWAP1 SUB PUSH1 0x1F AND DUP3 ADD SWAP2 JUMPDEST POP POP POP POP POP DUP2 MSTORE PUSH1 0x20 ADD PUSH1 0x2 DUP3 ADD DUP1 SLOAD PUSH2 0x13BA SWAP1 PUSH2 0x3423 JUMP JUMPDEST DUP1 PUSH1 0x1F ADD PUSH1 0x20 DUP1 SWAP2 DIV MUL PUSH1 0x20 ADD PUSH1 0x40 MLOAD SWAP1 DUP2 ADD PUSH1 0x40 MSTORE DUP1 SWAP3 SWAP2 SWAP1 DUP2 DUP2 MSTORE PUSH1 0x20 ADD DUP3 DUP1 SLOAD PUSH2 0x13E6 SWAP1 PUSH2 0x3423 JUMP JUMPDEST DUP1 ISZERO PUSH2 0x1433 JUMPI DUP1 PUSH1 0x1F LT PUSH2 0x1408 JUMPI PUSH2 0x100 DUP1 DUP4 SLOAD DIV MUL DUP4 MSTORE SWAP2 PUSH1 0x20 ADD SWAP2 PUSH2 0x1433 JUMP JUMPDEST DUP3 ADD SWAP2 SWAP1 PUSH1 0x0 MSTORE PUSH1 0x20 PUSH1 0x0 KECCAK256 SWAP1 JUMPDEST DUP2 SLOAD DUP2 MSTORE SWAP1 PUSH1 0x1 ADD SWAP1 PUSH1 0x20 ADD DUP1 DUP4 GT PUSH2 0x1416 JUMPI DUP3 SWAP1 SUB PUSH1 0x1F AND DUP3 ADD SWAP2 JUMPDEST POP POP POP POP POP DUP2 MSTORE PUSH1 0x20 ADD PUSH1 0x3 DUP3 ADD PUSH1 0x0 SWAP1 SLOAD SWAP1 PUSH2 0x100 EXP SWAP1 DIV PUSH20 0xFFFFFFFFFFFFFFFFFFFFFFFFFFFFFFFFFFFFFFFF AND PUSH20 0xFFFFFFFFFFFFFFFFFFFFFFFFFFFFFFFFFFFFFFFF AND PUSH20 0xFFFFFFFFFFFFFFFFFFFFFFFFFFFFFFFFFFFFFFFF AND DUP2 MSTORE PUSH1 0x20 ADD PUSH1 0x4 DUP3 ADD SLOAD DUP2 MSTORE PUSH1 0x20 ADD PUSH1 0x5 DUP3 ADD DUP1 SLOAD DUP1 PUSH1 0x20 MUL PUSH1 0x20 ADD PUSH1 0x40 MLOAD SWAP1 DUP2 ADD PUSH1 0x40 MSTORE DUP1 SWAP3 SWAP2 SWAP1 DUP2 DUP2 MSTORE PUSH1 0x20 ADD PUSH1 0x0 SWAP1 JUMPDEST DUP3 DUP3 LT ISZERO PUSH2 0x15DB JUMPI DUP4 DUP3 SWAP1 PUSH1 0x0 MSTORE PUSH1 0x20 PUSH1 0x0 KECCAK256 SWAP1 PUSH1 0x2 MUL ADD PUSH1 0x40 MLOAD DUP1 PUSH1 0x40 ADD PUSH1 0x40 MSTORE SWAP1 DUP2 PUSH1 0x0 DUP3 ADD PUSH1 0x0 SWAP1 SLOAD SWAP1 PUSH2 0x100 EXP SWAP1 DIV PUSH20 0xFFFFFFFFFFFFFFFFFFFFFFFFFFFFFFFFFFFFFFFF AND PUSH20 0xFFFFFFFFFFFFFFFFFFFFFFFFFFFFFFFFFFFFFFFF AND PUSH20 0xFFFFFFFFFFFFFFFFFFFFFFFFFFFFFFFFFFFFFFFF AND DUP2 MSTORE PUSH1 0x20 ADD PUSH1 0x1 DUP3 ADD DUP1 SLOAD PUSH2 0x154A SWAP1 PUSH2 0x3423 JUMP JUMPDEST DUP1 PUSH1 0x1F ADD PUSH1 0x20 DUP1 SWAP2 DIV MUL PUSH1 0x20 ADD PUSH1 0x40 MLOAD SWAP1 DUP2 ADD PUSH1 0x40 MSTORE DUP1 SWAP3 SWAP2 SWAP1 DUP2 DUP2 MSTORE PUSH1 0x20 ADD DUP3 DUP1 SLOAD PUSH2 0x1576 SWAP1 PUSH2 0x3423 JUMP JUMPDEST DUP1 ISZERO PUSH2 0x15C3 JUMPI DUP1 PUSH1 0x1F LT PUSH2 0x1598 JUMPI PUSH2 0x100 DUP1 DUP4 SLOAD DIV MUL DUP4 MSTORE SWAP2 PUSH1 0x20 ADD SWAP2 PUSH2 0x15C3 JUMP JUMPDEST DUP3 ADD SWAP2 SWAP1 PUSH1 0x0 MSTORE PUSH1 0x20 PUSH1 0x0 KECCAK256 SWAP1 JUMPDEST DUP2 SLOAD DUP2 MSTORE SWAP1 PUSH1 0x1 ADD SWAP1 PUSH1 0x20 ADD DUP1 DUP4 GT PUSH2 0x15A6 JUMPI DUP3 SWAP1 SUB PUSH1 0x1F AND DUP3 ADD SWAP2 JUMPDEST POP POP POP POP POP DUP2 MSTORE POP POP DUP2 MSTORE PUSH1 0x20 ADD SWAP1 PUSH1 0x1 ADD SWAP1 PUSH2 0x14C1 JUMP JUMPDEST POP POP POP POP DUP2 MSTORE POP POP SWAP1 POP JUMPDEST SWAP3 SWAP2 POP POP JUMP JUMPDEST PUSH1 0x0 PUSH1 0xA PUSH1 0x0 DUP5 PUSH20 0xFFFFFFFFFFFFFFFFFFFFFFFFFFFFFFFFFFFFFFFF AND PUSH20 0xFFFFFFFFFFFFFFFFFFFFFFFFFFFFFFFFFFFFFFFF AND DUP2 MSTORE PUSH1 0x20 ADD SWAP1 DUP2 MSTORE PUSH1 0x20 ADD PUSH1 0x0 KECCAK256 PUSH1 0x40 MLOAD DUP1 PUSH1 0xC0 ADD PUSH1 0x40 MSTORE SWAP1 DUP2 PUSH1 0x0 DUP3 ADD DUP1 SLOAD PUSH2 0x1648 SWAP1 PUSH2 0x3423 JUMP JUMPDEST DUP1 PUSH1 0x1F ADD PUSH1 0x20 DUP1 SWAP2 DIV MUL PUSH1 0x20 ADD PUSH1 0x40 MLOAD SWAP1 DUP2 ADD PUSH1 0x40 MSTORE DUP1 SWAP3 SWAP2 SWAP1 DUP2 DUP2 MSTORE PUSH1 0x20 ADD DUP3 DUP1 SLOAD PUSH2 0x1674 SWAP1 PUSH2 0x3423 JUMP JUMPDEST DUP1 ISZERO PUSH2 0x16C1 JUMPI DUP1 PUSH1 0x1F LT PUSH2 0x1696 JUMPI PUSH2 0x100 DUP1 DUP4 SLOAD DIV MUL DUP4 MSTORE SWAP2 PUSH1 0x20 ADD SWAP2 PUSH2 0x16C1 JUMP JUMPDEST DUP3 ADD SWAP2 SWAP1 PUSH1 0x0 MSTORE PUSH1 0x20 PUSH1 0x0 KECCAK256 SWAP1 JUMPDEST DUP2 SLOAD DUP2 MSTORE SWAP1 PUSH1 0x1 ADD SWAP1 PUSH1 0x20 ADD DUP1 DUP4 GT PUSH2 0x16A4 JUMPI DUP3 SWAP1 SUB PUSH1 0x1F AND DUP3 ADD SWAP2 JUMPDEST POP POP POP POP POP DUP2 MSTORE PUSH1 0x20 ADD PUSH1 0x1 DUP3 ADD DUP1 SLOAD PUSH2 0x16DA SWAP1 PUSH2 0x3423 JUMP JUMPDEST DUP1 PUSH1 0x1F ADD PUSH1 0x20 DUP1 SWAP2 DIV MUL PUSH1 0x20 ADD PUSH1 0x40 MLOAD SWAP1 DUP2 ADD PUSH1 0x40 MSTORE DUP1 SWAP3 SWAP2 SWAP1 DUP2 DUP2 MSTORE PUSH1 0x20 ADD DUP3 DUP1 SLOAD PUSH2 0x1706 SWAP1 PUSH2 0x3423 JUMP JUMPDEST DUP1 ISZERO PUSH2 0x1753 JUMPI DUP1 PUSH1 0x1F LT PUSH2 0x1728 JUMPI PUSH2 0x100 DUP1 DUP4 SLOAD DIV MUL DUP4 MSTORE SWAP2 PUSH1 0x20 ADD SWAP2 PUSH2 0x1753 JUMP JUMPDEST DUP3 ADD SWAP2 SWAP1 PUSH1 0x0 MSTORE PUSH1 0x20 PUSH1 0x0 KECCAK256 SWAP1 JUMPDEST DUP2 SLOAD DUP2 MSTORE SWAP1 PUSH1 0x1 ADD SWAP1 PUSH1 0x20 ADD DUP1 DUP4 GT PUSH2 0x1736 JUMPI DUP3 SWAP1 SUB PUSH1 0x1F AND DUP3 ADD SWAP2 JUMPDEST POP POP POP POP POP DUP2 MSTORE PUSH1 0x20 ADD PUSH1 0x2 DUP3 ADD DUP1 SLOAD PUSH2 0x176C SWAP1 PUSH2 0x3423 JUMP JUMPDEST DUP1 PUSH1 0x1F ADD PUSH1 0x20 DUP1 SWAP2 DIV MUL PUSH1 0x20 ADD PUSH1 0x40 MLOAD SWAP1 DUP2 ADD PUSH1 0x40 MSTORE DUP1 SWAP3 SWAP2 SWAP1 DUP2 DUP2 MSTORE PUSH1 0x20 ADD DUP3 DUP1 SLOAD PUSH2 0x1798 SWAP1 PUSH2 0x3423 JUMP JUMPDEST DUP1 ISZERO PUSH2 0x17E5 JUMPI DUP1 PUSH1 0x1F LT PUSH2 0x17BA JUMPI PUSH2 0x100 DUP1 DUP4 SLOAD DIV MUL DUP4 MSTORE SWAP2 PUSH1 0x20 ADD SWAP2 PUSH2 0x17E5 JUMP JUMPDEST DUP3 ADD SWAP2 SWAP1 PUSH1 0x0 MSTORE PUSH1 0x20 PUSH1 0x0 KECCAK256 SWAP1 JUMPDEST DUP2 SLOAD DUP2 MSTORE SWAP1 PUSH1 0x1 ADD SWAP1 PUSH1 0x20 ADD DUP1 DUP4 GT PUSH2 0x17C8 JUMPI DUP3 SWAP1 SUB PUSH1 0x1F AND DUP3 ADD SWAP2 JUMPDEST POP POP POP POP POP DUP2 MSTORE PUSH1 0x20 ADD PUSH1 0x3 DUP3 ADD PUSH1 0x0 SWAP1 SLOAD SWAP1 PUSH2 0x100 EXP SWAP1 DIV PUSH20 0xFFFFFFFFFFFFFFFFFFFFFFFFFFFFFFFFFFFFFFFF AND PUSH20 0xFFFFFFFFFFFFFFFFFFFFFFFFFFFFFFFFFFFFFFFF AND PUSH20 0xFFFFFFFFFFFFFFFFFFFFFFFFFFFFFFFFFFFFFFFF AND DUP2 MSTORE PUSH1 0x20 ADD PUSH1 0x4 DUP3 ADD SLOAD DUP2 MSTORE PUSH1 0x20 ADD PUSH1 0x5 DUP3 ADD DUP1 SLOAD DUP1 PUSH1 0x20 MUL PUSH1 0x20 ADD PUSH1 0x40 MLOAD SWAP1 DUP2 ADD PUSH1 0x40 MSTORE DUP1 SWAP3 SWAP2 SWAP1 DUP2 DUP2 MSTORE PUSH1 0x20 ADD PUSH1 0x0 SWAP1 JUMPDEST DUP3 DUP3 LT ISZERO PUSH2 0x198D JUMPI DUP4 DUP3 SWAP1 PUSH1 0x0 MSTORE PUSH1 0x20 PUSH1 0x0 KECCAK256 SWAP1 PUSH1 0x2 MUL ADD PUSH1 0x40 MLOAD DUP1 PUSH1 0x40 ADD PUSH1 0x40 MSTORE SWAP1 DUP2 PUSH1 0x0 DUP3 ADD PUSH1 0x0 SWAP1 SLOAD SWAP1 PUSH2 0x100 EXP SWAP1 DIV PUSH20 0xFFFFFFFFFFFFFFFFFFFFFFFFFFFFFFFFFFFFFFFF AND PUSH20 0xFFFFFFFFFFFFFFFFFFFFFFFFFFFFFFFFFFFFFFFF AND PUSH20 0xFFFFFFFFFFFFFFFFFFFFFFFFFFFFFFFFFFFFFFFF AND DUP2 MSTORE PUSH1 0x20 ADD PUSH1 0x1 DUP3 ADD DUP1 SLOAD PUSH2 0x18FC SWAP1 PUSH2 0x3423 JUMP JUMPDEST DUP1 PUSH1 0x1F ADD PUSH1 0x20 DUP1 SWAP2 DIV MUL PUSH1 0x20 ADD PUSH1 0x40 MLOAD SWAP1 DUP2 ADD PUSH1 0x40 MSTORE DUP1 SWAP3 SWAP2 SWAP1 DUP2 DUP2 MSTORE PUSH1 0x20 ADD DUP3 DUP1 SLOAD PUSH2 0x1928 SWAP1 PUSH2 0x3423 JUMP JUMPDEST DUP1 ISZERO PUSH2 0x1975 JUMPI DUP1 PUSH1 0x1F LT PUSH2 0x194A JUMPI PUSH2 0x100 DUP1 DUP4 SLOAD DIV MUL DUP4 MSTORE SWAP2 PUSH1 0x20 ADD SWAP2 PUSH2 0x1975 JUMP JUMPDEST DUP3 ADD SWAP2 SWAP1 PUSH1 0x0 MSTORE PUSH1 0x20 PUSH1 0x0 KECCAK256 SWAP1 JUMPDEST DUP2 SLOAD DUP2 MSTORE SWAP1 PUSH1 0x1 ADD SWAP1 PUSH1 0x20 ADD DUP1 DUP4 GT PUSH2 0x1958 JUMPI DUP3 SWAP1 SUB PUSH1 0x1F AND DUP3 ADD SWAP2 JUMPDEST POP POP POP POP POP DUP2 MSTORE POP POP DUP2 MSTORE PUSH1 0x20 ADD SWAP1 PUSH1 0x1 ADD SWAP1 PUSH2 0x1873 JUMP JUMPDEST POP POP POP POP DUP2 MSTORE POP POP SWAP1 POP PUSH1 0x0 PUSH1 0x7 PUSH1 0x0 DUP5 PUSH20 0xFFFFFFFFFFFFFFFFFFFFFFFFFFFFFFFFFFFFFFFF AND PUSH20 0xFFFFFFFFFFFFFFFFFFFFFFFFFFFFFFFFFFFFFFFF AND DUP2 MSTORE PUSH1 0x20 ADD SWAP1 DUP2 MSTORE PUSH1 0x20 ADD PUSH1 0x0 KECCAK256 PUSH1 0x40 MLOAD DUP1 PUSH1 0xC0 ADD PUSH1 0x40 MSTORE SWAP1 DUP2 PUSH1 0x0 DUP3 ADD DUP1 SLOAD PUSH2 0x19F3 SWAP1 PUSH2 0x3423 JUMP JUMPDEST DUP1 PUSH1 0x1F ADD PUSH1 0x20 DUP1 SWAP2 DIV MUL PUSH1 0x20 ADD PUSH1 0x40 MLOAD SWAP1 DUP2 ADD PUSH1 0x40 MSTORE DUP1 SWAP3 SWAP2 SWAP1 DUP2 DUP2 MSTORE PUSH1 0x20 ADD DUP3 DUP1 SLOAD PUSH2 0x1A1F SWAP1 PUSH2 0x3423 JUMP JUMPDEST DUP1 ISZERO PUSH2 0x1A6C JUMPI DUP1 PUSH1 0x1F LT PUSH2 0x1A41 JUMPI PUSH2 0x100 DUP1 DUP4 SLOAD DIV MUL DUP4 MSTORE SWAP2 PUSH1 0x20 ADD SWAP2 PUSH2 0x1A6C JUMP JUMPDEST DUP3 ADD SWAP2 SWAP1 PUSH1 0x0 MSTORE PUSH1 0x20 PUSH1 0x0 KECCAK256 SWAP1 JUMPDEST DUP2 SLOAD DUP2 MSTORE SWAP1 PUSH1 0x1 ADD SWAP1 PUSH1 0x20 ADD DUP1 DUP4 GT PUSH2 0x1A4F JUMPI DUP3 SWAP1 SUB PUSH1 0x1F AND DUP3 ADD SWAP2 JUMPDEST POP POP POP POP POP DUP2 MSTORE PUSH1 0x20 ADD PUSH1 0x1 DUP3 ADD DUP1 SLOAD PUSH2 0x1A85 SWAP1 PUSH2 0x3423 JUMP JUMPDEST DUP1 PUSH1 0x1F ADD PUSH1 0x20 DUP1 SWAP2 DIV MUL PUSH1 0x20 ADD PUSH1 0x40 MLOAD SWAP1 DUP2 ADD PUSH1 0x40 MSTORE DUP1 SWAP3 SWAP2 SWAP1 DUP2 DUP2 MSTORE PUSH1 0x20 ADD DUP3 DUP1 SLOAD PUSH2 0x1AB1 SWAP1 PUSH2 0x3423 JUMP JUMPDEST DUP1 ISZERO PUSH2 0x1AFE JUMPI DUP1 PUSH1 0x1F LT PUSH2 0x1AD3 JUMPI PUSH2 0x100 DUP1 DUP4 SLOAD DIV MUL DUP4 MSTORE SWAP2 PUSH1 0x20 ADD SWAP2 PUSH2 0x1AFE JUMP JUMPDEST DUP3 ADD SWAP2 SWAP1 PUSH1 0x0 MSTORE PUSH1 0x20 PUSH1 0x0 KECCAK256 SWAP1 JUMPDEST DUP2 SLOAD DUP2 MSTORE SWAP1 PUSH1 0x1 ADD SWAP1 PUSH1 0x20 ADD DUP1 DUP4 GT PUSH2 0x1AE1 JUMPI DUP3 SWAP1 SUB PUSH1 0x1F AND DUP3 ADD SWAP2 JUMPDEST POP POP POP POP POP DUP2 MSTORE PUSH1 0x20 ADD PUSH1 0x2 DUP3 ADD DUP1 SLOAD PUSH2 0x1B17 SWAP1 PUSH2 0x3423 JUMP JUMPDEST DUP1 PUSH1 0x1F ADD PUSH1 0x20 DUP1 SWAP2 DIV MUL PUSH1 0x20 ADD PUSH1 0x40 MLOAD SWAP1 DUP2 ADD PUSH1 0x40 MSTORE DUP1 SWAP3 SWAP2 SWAP1 DUP2 DUP2 MSTORE PUSH1 0x20 ADD DUP3 DUP1 SLOAD PUSH2 0x1B43 SWAP1 PUSH2 0x3423 JUMP JUMPDEST DUP1 ISZERO PUSH2 0x1B90 JUMPI DUP1 PUSH1 0x1F LT PUSH2 0x1B65 JUMPI PUSH2 0x100 DUP1 DUP4 SLOAD DIV MUL DUP4 MSTORE SWAP2 PUSH1 0x20 ADD SWAP2 PUSH2 0x1B90 JUMP JUMPDEST DUP3 ADD SWAP2 SWAP1 PUSH1 0x0 MSTORE PUSH1 0x20 PUSH1 0x0 KECCAK256 SWAP1 JUMPDEST DUP2 SLOAD DUP2 MSTORE SWAP1 PUSH1 0x1 ADD SWAP1 PUSH1 0x20 ADD DUP1 DUP4 GT PUSH2 0x1B73 JUMPI DUP3 SWAP1 SUB PUSH1 0x1F AND DUP3 ADD SWAP2 JUMPDEST POP POP POP POP POP DUP2 MSTORE PUSH1 0x20 ADD PUSH1 0x3 DUP3 ADD PUSH1 0x0 SWAP1 SLOAD SWAP1 PUSH2 0x100 EXP SWAP1 DIV PUSH20 0xFFFFFFFFFFFFFFFFFFFFFFFFFFFFFFFFFFFFFFFF AND PUSH20 0xFFFFFFFFFFFFFFFFFFFFFFFFFFFFFFFFFFFFFFFF AND PUSH20 0xFFFFFFFFFFFFFFFFFFFFFFFFFFFFFFFFFFFFFFFF AND DUP2 MSTORE PUSH1 0x20 ADD PUSH1 0x4 DUP3 ADD SLOAD DUP2 MSTORE PUSH1 0x20 ADD PUSH1 0x5 DUP3 ADD DUP1 SLOAD DUP1 PUSH1 0x20 MUL PUSH1 0x20 ADD PUSH1 0x40 MLOAD SWAP1 DUP2 ADD PUSH1 0x40 MSTORE DUP1 SWAP3 SWAP2 SWAP1 DUP2 DUP2 MSTORE PUSH1 0x20 ADD PUSH1 0x0 SWAP1 JUMPDEST DUP3 DUP3 LT ISZERO PUSH2 0x1D38 JUMPI DUP4 DUP3 SWAP1 PUSH1 0x0 MSTORE PUSH1 0x20 PUSH1 0x0 KECCAK256 SWAP1 PUSH1 0x2 MUL ADD PUSH1 0x40 MLOAD DUP1 PUSH1 0x40 ADD PUSH1 0x40 MSTORE SWAP1 DUP2 PUSH1 0x0 DUP3 ADD PUSH1 0x0 SWAP1 SLOAD SWAP1 PUSH2 0x100 EXP SWAP1 DIV PUSH20 0xFFFFFFFFFFFFFFFFFFFFFFFFFFFFFFFFFFFFFFFF AND PUSH20 0xFFFFFFFFFFFFFFFFFFFFFFFFFFFFFFFFFFFFFFFF AND PUSH20 0xFFFFFFFFFFFFFFFFFFFFFFFFFFFFFFFFFFFFFFFF AND DUP2 MSTORE PUSH1 0x20 ADD PUSH1 0x1 DUP3 ADD DUP1 SLOAD PUSH2 0x1CA7 SWAP1 PUSH2 0x3423 JUMP JUMPDEST DUP1 PUSH1 0x1F ADD PUSH1 0x20 DUP1 SWAP2 DIV MUL PUSH1 0x20 ADD PUSH1 0x40 MLOAD SWAP1 DUP2 ADD PUSH1 0x40 MSTORE DUP1 SWAP3 SWAP2 SWAP1 DUP2 DUP2 MSTORE PUSH1 0x20 ADD DUP3 DUP1 SLOAD PUSH2 0x1CD3 SWAP1 PUSH2 0x3423 JUMP JUMPDEST DUP1 ISZERO PUSH2 0x1D20 JUMPI DUP1 PUSH1 0x1F LT PUSH2 0x1CF5 JUMPI PUSH2 0x100 DUP1 DUP4 SLOAD DIV MUL DUP4 MSTORE SWAP2 PUSH1 0x20 ADD SWAP2 PUSH2 0x1D20 JUMP JUMPDEST DUP3 ADD SWAP2 SWAP1 PUSH1 0x0 MSTORE PUSH1 0x20 PUSH1 0x0 KECCAK256 SWAP1 JUMPDEST DUP2 SLOAD DUP2 MSTORE SWAP1 PUSH1 0x1 ADD SWAP1 PUSH1 0x20 ADD DUP1 DUP4 GT PUSH2 0x1D03 JUMPI DUP3 SWAP1 SUB PUSH1 0x1F AND DUP3 ADD SWAP2 JUMPDEST POP POP POP POP POP DUP2 MSTORE POP POP DUP2 MSTORE PUSH1 0x20 ADD SWAP1 PUSH1 0x1 ADD SWAP1 PUSH2 0x1C1E JUMP JUMPDEST POP POP POP POP DUP2 MSTORE POP POP SWAP1 POP PUSH1 0x0 DUP3 PUSH1 0x0 ADD MLOAD SWAP1 POP PUSH1 0x0 DUP4 PUSH1 0x20 ADD MLOAD SWAP1 POP PUSH1 0x0 DUP5 PUSH1 0x40 ADD MLOAD SWAP1 POP PUSH1 0x0 DUP6 PUSH1 0x60 ADD MLOAD SWAP1 POP PUSH1 0x0 DUP7 PUSH1 0x80 ADD MLOAD SWAP1 POP PUSH1 0x0 DUP7 PUSH1 0x80 ADD MLOAD SWAP1 POP DUP2 DUP2 GT ISZERO PUSH2 0x1DBB JUMPI PUSH1 0x40 MLOAD PUSH32 0x8C379A000000000000000000000000000000000000000000000000000000000 DUP2 MSTORE PUSH1 0x4 ADD PUSH2 0x1DB2 SWAP1 PUSH2 0x3AAC JUMP JUMPDEST PUSH1 0x40 MLOAD DUP1 SWAP2 SUB SWAP1 REVERT JUMPDEST PUSH2 0x1DC9 DUP7 DUP7 DUP7 DUP7 PUSH1 0x0 PUSH2 0x56C JUMP JUMPDEST PUSH2 0x1DD2 DUP11 PUSH2 0x2755 JUMP JUMPDEST POP POP POP POP POP POP POP POP POP POP JUMP JUMPDEST PUSH1 0x60 PUSH1 0x1 ISZERO ISZERO DUP3 ISZERO ISZERO SUB PUSH2 0x21A8 JUMPI PUSH1 0xB DUP1 SLOAD DUP1 PUSH1 0x20 MUL PUSH1 0x20 ADD PUSH1 0x40 MLOAD SWAP1 DUP2 ADD PUSH1 0x40 MSTORE DUP1 SWAP3 SWAP2 SWAP1 DUP2 DUP2 MSTORE PUSH1 0x20 ADD PUSH1 0x0 SWAP1 JUMPDEST DUP3 DUP3 LT ISZERO PUSH2 0x219D JUMPI DUP4 DUP3 SWAP1 PUSH1 0x0 MSTORE PUSH1 0x20 PUSH1 0x0 KECCAK256 SWAP1 PUSH1 0x6 MUL ADD PUSH1 0x40 MLOAD DUP1 PUSH1 0xC0 ADD PUSH1 0x40 MSTORE SWAP1 DUP2 PUSH1 0x0 DUP3 ADD DUP1 SLOAD PUSH2 0x1E41 SWAP1 PUSH2 0x3423 JUMP JUMPDEST DUP1 PUSH1 0x1F ADD PUSH1 0x20 DUP1 SWAP2 DIV MUL PUSH1 0x20 ADD PUSH1 0x40 MLOAD SWAP1 DUP2 ADD PUSH1 0x40 MSTORE DUP1 SWAP3 SWAP2 SWAP1 DUP2 DUP2 MSTORE PUSH1 0x20 ADD DUP3 DUP1 SLOAD PUSH2 0x1E6D SWAP1 PUSH2 0x3423 JUMP JUMPDEST DUP1 ISZERO PUSH2 0x1EBA JUMPI DUP1 PUSH1 0x1F LT PUSH2 0x1E8F JUMPI PUSH2 0x100 DUP1 DUP4 SLOAD DIV MUL DUP4 MSTORE SWAP2 PUSH1 0x20 ADD SWAP2 PUSH2 0x1EBA JUMP JUMPDEST DUP3 ADD SWAP2 SWAP1 PUSH1 0x0 MSTORE PUSH1 0x20 PUSH1 0x0 KECCAK256 SWAP1 JUMPDEST DUP2 SLOAD DUP2 MSTORE SWAP1 PUSH1 0x1 ADD SWAP1 PUSH1 0x20 ADD DUP1 DUP4 GT PUSH2 0x1E9D JUMPI DUP3 SWAP1 SUB PUSH1 0x1F AND DUP3 ADD SWAP2 JUMPDEST POP POP POP POP POP DUP2 MSTORE PUSH1 0x20 ADD PUSH1 0x1 DUP3 ADD DUP1 SLOAD PUSH2 0x1ED3 SWAP1 PUSH2 0x3423 JUMP JUMPDEST DUP1 PUSH1 0x1F ADD PUSH1 0x20 DUP1 SWAP2 DIV MUL PUSH1 0x20 ADD PUSH1 0x40 MLOAD SWAP1 DUP2 ADD PUSH1 0x40 MSTORE DUP1 SWAP3 SWAP2 SWAP1 DUP2 DUP2 MSTORE PUSH1 0x20 ADD DUP3 DUP1 SLOAD PUSH2 0x1EFF SWAP1 PUSH2 0x3423 JUMP JUMPDEST DUP1 ISZERO PUSH2 0x1F4C JUMPI DUP1 PUSH1 0x1F LT PUSH2 0x1F21 JUMPI PUSH2 0x100 DUP1 DUP4 SLOAD DIV MUL DUP4 MSTORE SWAP2 PUSH1 0x20 ADD SWAP2 PUSH2 0x1F4C JUMP JUMPDEST DUP3 ADD SWAP2 SWAP1 PUSH1 0x0 MSTORE PUSH1 0x20 PUSH1 0x0 KECCAK256 SWAP1 JUMPDEST DUP2 SLOAD DUP2 MSTORE SWAP1 PUSH1 0x1 ADD SWAP1 PUSH1 0x20 ADD DUP1 DUP4 GT PUSH2 0x1F2F JUMPI DUP3 SWAP1 SUB PUSH1 0x1F AND DUP3 ADD SWAP2 JUMPDEST POP POP POP POP POP DUP2 MSTORE PUSH1 0x20 ADD PUSH1 0x2 DUP3 ADD DUP1 SLOAD PUSH2 0x1F65 SWAP1 PUSH2 0x3423 JUMP JUMPDEST DUP1 PUSH1 0x1F ADD PUSH1 0x20 DUP1 SWAP2 DIV MUL PUSH1 0x20 ADD PUSH1 0x40 MLOAD SWAP1 DUP2 ADD PUSH1 0x40 MSTORE DUP1 SWAP3 SWAP2 SWAP1 DUP2 DUP2 MSTORE PUSH1 0x20 ADD DUP3 DUP1 SLOAD PUSH2 0x1F91 SWAP1 PUSH2 0x3423 JUMP JUMPDEST DUP1 ISZERO PUSH2 0x1FDE JUMPI DUP1 PUSH1 0x1F LT PUSH2 0x1FB3 JUMPI PUSH2 0x100 DUP1 DUP4 SLOAD DIV MUL DUP4 MSTORE SWAP2 PUSH1 0x20 ADD SWAP2 PUSH2 0x1FDE JUMP JUMPDEST DUP3 ADD SWAP2 SWAP1 PUSH1 0x0 MSTORE PUSH1 0x20 PUSH1 0x0 KECCAK256 SWAP1 JUMPDEST DUP2 SLOAD DUP2 MSTORE SWAP1 PUSH1 0x1 ADD SWAP1 PUSH1 0x20 ADD DUP1 DUP4 GT PUSH2 0x1FC1 JUMPI DUP3 SWAP1 SUB PUSH1 0x1F AND DUP3 ADD SWAP2 JUMPDEST POP POP POP POP POP DUP2 MSTORE PUSH1 0x20 ADD PUSH1 0x3 DUP3 ADD PUSH1 0x0 SWAP1 SLOAD SWAP1 PUSH2 0x100 EXP SWAP1 DIV PUSH20 0xFFFFFFFFFFFFFFFFFFFFFFFFFFFFFFFFFFFFFFFF AND PUSH20 0xFFFFFFFFFFFFFFFFFFFFFFFFFFFFFFFFFFFFFFFF AND PUSH20 0xFFFFFFFFFFFFFFFFFFFFFFFFFFFFFFFFFFFFFFFF AND DUP2 MSTORE PUSH1 0x20 ADD PUSH1 0x4 DUP3 ADD SLOAD DUP2 MSTORE PUSH1 0x20 ADD PUSH1 0x5 DUP3 ADD DUP1 SLOAD DUP1 PUSH1 0x20 MUL PUSH1 0x20 ADD PUSH1 0x40 MLOAD SWAP1 DUP2 ADD PUSH1 0x40 MSTORE DUP1 SWAP3 SWAP2 SWAP1 DUP2 DUP2 MSTORE PUSH1 0x20 ADD PUSH1 0x0 SWAP1 JUMPDEST DUP3 DUP3 LT ISZERO PUSH2 0x2186 JUMPI DUP4 DUP3 SWAP1 PUSH1 0x0 MSTORE PUSH1 0x20 PUSH1 0x0 KECCAK256 SWAP1 PUSH1 0x2 MUL ADD PUSH1 0x40 MLOAD DUP1 PUSH1 0x40 ADD PUSH1 0x40 MSTORE SWAP1 DUP2 PUSH1 0x0 DUP3 ADD PUSH1 0x0 SWAP1 SLOAD SWAP1 PUSH2 0x100 EXP SWAP1 DIV PUSH20 0xFFFFFFFFFFFFFFFFFFFFFFFFFFFFFFFFFFFFFFFF AND PUSH20 0xFFFFFFFFFFFFFFFFFFFFFFFFFFFFFFFFFFFFFFFF AND PUSH20 0xFFFFFFFFFFFFFFFFFFFFFFFFFFFFFFFFFFFFFFFF AND DUP2 MSTORE PUSH1 0x20 ADD PUSH1 0x1 DUP3 ADD DUP1 SLOAD PUSH2 0x20F5 SWAP1 PUSH2 0x3423 JUMP JUMPDEST DUP1 PUSH1 0x1F ADD PUSH1 0x20 DUP1 SWAP2 DIV MUL PUSH1 0x20 ADD PUSH1 0x40 MLOAD SWAP1 DUP2 ADD PUSH1 0x40 MSTORE DUP1 SWAP3 SWAP2 SWAP1 DUP2 DUP2 MSTORE PUSH1 0x20 ADD DUP3 DUP1 SLOAD PUSH2 0x2121 SWAP1 PUSH2 0x3423 JUMP JUMPDEST DUP1 ISZERO PUSH2 0x216E JUMPI DUP1 PUSH1 0x1F LT PUSH2 0x2143 JUMPI PUSH2 0x100 DUP1 DUP4 SLOAD DIV MUL DUP4 MSTORE SWAP2 PUSH1 0x20 ADD SWAP2 PUSH2 0x216E JUMP JUMPDEST DUP3 ADD SWAP2 SWAP1 PUSH1 0x0 MSTORE PUSH1 0x20 PUSH1 0x0 KECCAK256 SWAP1 JUMPDEST DUP2 SLOAD DUP2 MSTORE SWAP1 PUSH1 0x1 ADD SWAP1 PUSH1 0x20 ADD DUP1 DUP4 GT PUSH2 0x2151 JUMPI DUP3 SWAP1 SUB PUSH1 0x1F AND DUP3 ADD SWAP2 JUMPDEST POP POP POP POP POP DUP2 MSTORE POP POP DUP2 MSTORE PUSH1 0x20 ADD SWAP1 PUSH1 0x1 ADD SWAP1 PUSH2 0x206C JUMP JUMPDEST POP POP POP POP DUP2 MSTORE POP POP DUP2 MSTORE PUSH1 0x20 ADD SWAP1 PUSH1 0x1 ADD SWAP1 PUSH2 0x1E0E JUMP JUMPDEST POP POP POP POP SWAP1 POP PUSH2 0x2560 JUMP JUMPDEST PUSH1 0x8 DUP1 SLOAD DUP1 PUSH1 0x20 MUL PUSH1 0x20 ADD PUSH1 0x40 MLOAD SWAP1 DUP2 ADD PUSH1 0x40 MSTORE DUP1 SWAP3 SWAP2 SWAP1 DUP2 DUP2 MSTORE PUSH1 0x20 ADD PUSH1 0x0 SWAP1 JUMPDEST DUP3 DUP3 LT ISZERO PUSH2 0x2559 JUMPI DUP4 DUP3 SWAP1 PUSH1 0x0 MSTORE PUSH1 0x20 PUSH1 0x0 KECCAK256 SWAP1 PUSH1 0x6 MUL ADD PUSH1 0x40 MLOAD DUP1 PUSH1 0xC0 ADD PUSH1 0x40 MSTORE SWAP1 DUP2 PUSH1 0x0 DUP3 ADD DUP1 SLOAD PUSH2 0x21FD SWAP1 PUSH2 0x3423 JUMP JUMPDEST DUP1 PUSH1 0x1F ADD PUSH1 0x20 DUP1 SWAP2 DIV MUL PUSH1 0x20 ADD PUSH1 0x40 MLOAD SWAP1 DUP2 ADD PUSH1 0x40 MSTORE DUP1 SWAP3 SWAP2 SWAP1 DUP2 DUP2 MSTORE PUSH1 0x20 ADD DUP3 DUP1 SLOAD PUSH2 0x2229 SWAP1 PUSH2 0x3423 JUMP JUMPDEST DUP1 ISZERO PUSH2 0x2276 JUMPI DUP1 PUSH1 0x1F LT PUSH2 0x224B JUMPI PUSH2 0x100 DUP1 DUP4 SLOAD DIV MUL DUP4 MSTORE SWAP2 PUSH1 0x20 ADD SWAP2 PUSH2 0x2276 JUMP JUMPDEST DUP3 ADD SWAP2 SWAP1 PUSH1 0x0 MSTORE PUSH1 0x20 PUSH1 0x0 KECCAK256 SWAP1 JUMPDEST DUP2 SLOAD DUP2 MSTORE SWAP1 PUSH1 0x1 ADD SWAP1 PUSH1 0x20 ADD DUP1 DUP4 GT PUSH2 0x2259 JUMPI DUP3 SWAP1 SUB PUSH1 0x1F AND DUP3 ADD SWAP2 JUMPDEST POP POP POP POP POP DUP2 MSTORE PUSH1 0x20 ADD PUSH1 0x1 DUP3 ADD DUP1 SLOAD PUSH2 0x228F SWAP1 PUSH2 0x3423 JUMP JUMPDEST DUP1 PUSH1 0x1F ADD PUSH1 0x20 DUP1 SWAP2 DIV MUL PUSH1 0x20 ADD PUSH1 0x40 MLOAD SWAP1 DUP2 ADD PUSH1 0x40 MSTORE DUP1 SWAP3 SWAP2 SWAP1 DUP2 DUP2 MSTORE PUSH1 0x20 ADD DUP3 DUP1 SLOAD PUSH2 0x22BB SWAP1 PUSH2 0x3423 JUMP JUMPDEST DUP1 ISZERO PUSH2 0x2308 JUMPI DUP1 PUSH1 0x1F LT PUSH2 0x22DD JUMPI PUSH2 0x100 DUP1 DUP4 SLOAD DIV MUL DUP4 MSTORE SWAP2 PUSH1 0x20 ADD SWAP2 PUSH2 0x2308 JUMP JUMPDEST DUP3 ADD SWAP2 SWAP1 PUSH1 0x0 MSTORE PUSH1 0x20 PUSH1 0x0 KECCAK256 SWAP1 JUMPDEST DUP2 SLOAD DUP2 MSTORE SWAP1 PUSH1 0x1 ADD SWAP1 PUSH1 0x20 ADD DUP1 DUP4 GT PUSH2 0x22EB JUMPI DUP3 SWAP1 SUB PUSH1 0x1F AND DUP3 ADD SWAP2 JUMPDEST POP POP POP POP POP DUP2 MSTORE PUSH1 0x20 ADD PUSH1 0x2 DUP3 ADD DUP1 SLOAD PUSH2 0x2321 SWAP1 PUSH2 0x3423 JUMP JUMPDEST DUP1 PUSH1 0x1F ADD PUSH1 0x20 DUP1 SWAP2 DIV MUL PUSH1 0x20 ADD PUSH1 0x40 MLOAD SWAP1 DUP2 ADD PUSH1 0x40 MSTORE DUP1 SWAP3 SWAP2 SWAP1 DUP2 DUP2 MSTORE PUSH1 0x20 ADD DUP3 DUP1 SLOAD PUSH2 0x234D SWAP1 PUSH2 0x3423 JUMP JUMPDEST DUP1 ISZERO PUSH2 0x239A JUMPI DUP1 PUSH1 0x1F LT PUSH2 0x236F JUMPI PUSH2 0x100 DUP1 DUP4 SLOAD DIV MUL DUP4 MSTORE SWAP2 PUSH1 0x20 ADD SWAP2 PUSH2 0x239A JUMP JUMPDEST DUP3 ADD SWAP2 SWAP1 PUSH1 0x0 MSTORE PUSH1 0x20 PUSH1 0x0 KECCAK256 SWAP1 JUMPDEST DUP2 SLOAD DUP2 MSTORE SWAP1 PUSH1 0x1 ADD SWAP1 PUSH1 0x20 ADD DUP1 DUP4 GT PUSH2 0x237D JUMPI DUP3 SWAP1 SUB PUSH1 0x1F AND DUP3 ADD SWAP2 JUMPDEST POP POP POP POP POP DUP2 MSTORE PUSH1 0x20 ADD PUSH1 0x3 DUP3 ADD PUSH1 0x0 SWAP1 SLOAD SWAP1 PUSH2 0x100 EXP SWAP1 DIV PUSH20 0xFFFFFFFFFFFFFFFFFFFFFFFFFFFFFFFFFFFFFFFF AND PUSH20 0xFFFFFFFFFFFFFFFFFFFFFFFFFFFFFFFFFFFFFFFF AND PUSH20 0xFFFFFFFFFFFFFFFFFFFFFFFFFFFFFFFFFFFFFFFF AND DUP2 MSTORE PUSH1 0x20 ADD PUSH1 0x4 DUP3 ADD SLOAD DUP2 MSTORE PUSH1 0x20 ADD PUSH1 0x5 DUP3 ADD DUP1 SLOAD DUP1 PUSH1 0x20 MUL PUSH1 0x20 ADD PUSH1 0x40 MLOAD SWAP1 DUP2 ADD PUSH1 0x40 MSTORE DUP1 SWAP3 SWAP2 SWAP1 DUP2 DUP2 MSTORE PUSH1 0x20 ADD PUSH1 0x0 SWAP1 JUMPDEST DUP3 DUP3 LT ISZERO PUSH2 0x2542 JUMPI DUP4 DUP3 SWAP1 PUSH1 0x0 MSTORE PUSH1 0x20 PUSH1 0x0 KECCAK256 SWAP1 PUSH1 0x2 MUL ADD PUSH1 0x40 MLOAD DUP1 PUSH1 0x40 ADD PUSH1 0x40 MSTORE SWAP1 DUP2 PUSH1 0x0 DUP3 ADD PUSH1 0x0 SWAP1 SLOAD SWAP1 PUSH2 0x100 EXP SWAP1 DIV PUSH20 0xFFFFFFFFFFFFFFFFFFFFFFFFFFFFFFFFFFFFFFFF AND PUSH20 0xFFFFFFFFFFFFFFFFFFFFFFFFFFFFFFFFFFFFFFFF AND PUSH20 0xFFFFFFFFFFFFFFFFFFFFFFFFFFFFFFFFFFFFFFFF AND DUP2 MSTORE PUSH1 0x20 ADD PUSH1 0x1 DUP3 ADD DUP1 SLOAD PUSH2 0x24B1 SWAP1 PUSH2 0x3423 JUMP JUMPDEST DUP1 PUSH1 0x1F ADD PUSH1 0x20 DUP1 SWAP2 DIV MUL PUSH1 0x20 ADD PUSH1 0x40 MLOAD SWAP1 DUP2 ADD PUSH1 0x40 MSTORE DUP1 SWAP3 SWAP2 SWAP1 DUP2 DUP2 MSTORE PUSH1 0x20 ADD DUP3 DUP1 SLOAD PUSH2 0x24DD SWAP1 PUSH2 0x3423 JUMP JUMPDEST DUP1 ISZERO PUSH2 0x252A JUMPI DUP1 PUSH1 0x1F LT PUSH2 0x24FF JUMPI PUSH2 0x100 DUP1 DUP4 SLOAD DIV MUL DUP4 MSTORE SWAP2 PUSH1 0x20 ADD SWAP2 PUSH2 0x252A JUMP JUMPDEST DUP3 ADD SWAP2 SWAP1 PUSH1 0x0 MSTORE PUSH1 0x20 PUSH1 0x0 KECCAK256 SWAP1 JUMPDEST DUP2 SLOAD DUP2 MSTORE SWAP1 PUSH1 0x1 ADD SWAP1 PUSH1 0x20 ADD DUP1 DUP4 GT PUSH2 0x250D JUMPI DUP3 SWAP1 SUB PUSH1 0x1F AND DUP3 ADD SWAP2 JUMPDEST POP POP POP POP POP DUP2 MSTORE POP POP DUP2 MSTORE PUSH1 0x20 ADD SWAP1 PUSH1 0x1 ADD SWAP1 PUSH2 0x2428 JUMP JUMPDEST POP POP POP POP DUP2 MSTORE POP POP DUP2 MSTORE PUSH1 0x20 ADD SWAP1 PUSH1 0x1 ADD SWAP1 PUSH2 0x21CA JUMP JUMPDEST POP POP POP POP SWAP1 POP JUMPDEST SWAP2 SWAP1 POP JUMP JUMPDEST DUP2 PUSH1 0x0 DUP1 ADD PUSH1 0x0 PUSH2 0x100 EXP DUP2 SLOAD DUP2 PUSH20 0xFFFFFFFFFFFFFFFFFFFFFFFFFFFFFFFFFFFFFFFF MUL NOT AND SWAP1 DUP4 PUSH20 0xFFFFFFFFFFFFFFFFFFFFFFFFFFFFFFFFFFFFFFFF AND MUL OR SWAP1 SSTORE POP DUP1 PUSH1 0x0 PUSH1 0x1 ADD SWAP1 DUP2 PUSH2 0x25BA SWAP2 SWAP1 PUSH2 0x3600 JUMP JUMPDEST POP PUSH1 0x7 PUSH1 0x0 DUP4 PUSH20 0xFFFFFFFFFFFFFFFFFFFFFFFFFFFFFFFFFFFFFFFF AND PUSH20 0xFFFFFFFFFFFFFFFFFFFFFFFFFFFFFFFFFFFFFFFF AND DUP2 MSTORE PUSH1 0x20 ADD SWAP1 DUP2 MSTORE PUSH1 0x20 ADD PUSH1 0x0 KECCAK256 PUSH1 0x5 ADD PUSH1 0x0 SWAP1 DUP1 PUSH1 0x1 DUP2 SLOAD ADD DUP1 DUP3 SSTORE DUP1 SWAP2 POP POP PUSH1 0x1 SWAP1 SUB SWAP1 PUSH1 0x0 MSTORE PUSH1 0x20 PUSH1 0x0 KECCAK256 SWAP1 PUSH1 0x2 MUL ADD PUSH1 0x0 SWAP1 SWAP2 SWAP1 SWAP2 SWAP1 SWAP2 POP PUSH1 0x0 DUP3 ADD PUSH1 0x0 SWAP1 SLOAD SWAP1 PUSH2 0x100 EXP SWAP1 DIV PUSH20 0xFFFFFFFFFFFFFFFFFFFFFFFFFFFFFFFFFFFFFFFF AND DUP2 PUSH1 0x0 ADD PUSH1 0x0 PUSH2 0x100 EXP DUP2 SLOAD DUP2 PUSH20 0xFFFFFFFFFFFFFFFFFFFFFFFFFFFFFFFFFFFFFFFF MUL NOT AND SWAP1 DUP4 PUSH20 0xFFFFFFFFFFFFFFFFFFFFFFFFFFFFFFFFFFFFFFFF AND MUL OR SWAP1 SSTORE POP PUSH1 0x1 DUP3 ADD DUP2 PUSH1 0x1 ADD SWAP1 DUP2 PUSH2 0x26A3 SWAP2 SWAP1 PUSH2 0x38E6 JUMP JUMPDEST POP POP POP PUSH1 0x2 PUSH1 0x0 SWAP1 DUP1 PUSH1 0x1 DUP2 SLOAD ADD DUP1 DUP3 SSTORE DUP1 SWAP2 POP POP PUSH1 0x1 SWAP1 SUB SWAP1 PUSH1 0x0 MSTORE PUSH1 0x20 PUSH1 0x0 KECCAK256 SWAP1 PUSH1 0x2 MUL ADD PUSH1 0x0 SWAP1 SWAP2 SWAP1 SWAP2 SWAP1 SWAP2 POP PUSH1 0x0 DUP3 ADD PUSH1 0x0 SWAP1 SLOAD SWAP1 PUSH2 0x100 EXP SWAP1 DIV PUSH20 0xFFFFFFFFFFFFFFFFFFFFFFFFFFFFFFFFFFFFFFFF AND DUP2 PUSH1 0x0 ADD PUSH1 0x0 PUSH2 0x100 EXP DUP2 SLOAD DUP2 PUSH20 0xFFFFFFFFFFFFFFFFFFFFFFFFFFFFFFFFFFFFFFFF MUL NOT AND SWAP1 DUP4 PUSH20 0xFFFFFFFFFFFFFFFFFFFFFFFFFFFFFFFFFFFFFFFF AND MUL OR SWAP1 SSTORE POP PUSH1 0x1 DUP3 ADD DUP2 PUSH1 0x1 ADD SWAP1 DUP2 PUSH2 0x274E SWAP2 SWAP1 PUSH2 0x38E6 JUMP JUMPDEST POP POP POP POP POP JUMP JUMPDEST PUSH1 0x0 PUSH1 0x5 PUSH1 0x0 DUP4 PUSH20 0xFFFFFFFFFFFFFFFFFFFFFFFFFFFFFFFFFFFFFFFF AND PUSH20 0xFFFFFFFFFFFFFFFFFFFFFFFFFFFFFFFFFFFFFFFF AND DUP2 MSTORE PUSH1 0x20 ADD SWAP1 DUP2 MSTORE PUSH1 0x20 ADD PUSH1 0x0 KECCAK256 SLOAD SWAP1 POP PUSH1 0xB PUSH1 0x1 PUSH1 0xB DUP1 SLOAD SWAP1 POP PUSH2 0x27AD SWAP2 SWAP1 PUSH2 0x3AFB JUMP JUMPDEST DUP2 SLOAD DUP2 LT PUSH2 0x27BE JUMPI PUSH2 0x27BD PUSH2 0x3B2F JUMP JUMPDEST JUMPDEST SWAP1 PUSH1 0x0 MSTORE PUSH1 0x20 PUSH1 0x0 KECCAK256 SWAP1 PUSH1 0x6 MUL ADD PUSH1 0xB DUP3 DUP2 SLOAD DUP2 LT PUSH2 0x27E0 JUMPI PUSH2 0x27DF PUSH2 0x3B2F JUMP JUMPDEST JUMPDEST SWAP1 PUSH1 0x0 MSTORE PUSH1 0x20 PUSH1 0x0 KECCAK256 SWAP1 PUSH1 0x6 MUL ADD PUSH1 0x0 DUP3 ADD DUP2 PUSH1 0x0 ADD SWAP1 DUP2 PUSH2 0x2802 SWAP2 SWAP1 PUSH2 0x38E6 JUMP JUMPDEST POP PUSH1 0x1 DUP3 ADD DUP2 PUSH1 0x1 ADD SWAP1 DUP2 PUSH2 0x2817 SWAP2 SWAP1 PUSH2 0x38E6 JUMP JUMPDEST POP PUSH1 0x2 DUP3 ADD DUP2 PUSH1 0x2 ADD SWAP1 DUP2 PUSH2 0x282C SWAP2 SWAP1 PUSH2 0x38E6 JUMP JUMPDEST POP PUSH1 0x3 DUP3 ADD PUSH1 0x0 SWAP1 SLOAD SWAP1 PUSH2 0x100 EXP SWAP1 DIV PUSH20 0xFFFFFFFFFFFFFFFFFFFFFFFFFFFFFFFFFFFFFFFF AND DUP2 PUSH1 0x3 ADD PUSH1 0x0 PUSH2 0x100 EXP DUP2 SLOAD DUP2 PUSH20 0xFFFFFFFFFFFFFFFFFFFFFFFFFFFFFFFFFFFFFFFF MUL NOT AND SWAP1 DUP4 PUSH20 0xFFFFFFFFFFFFFFFFFFFFFFFFFFFFFFFFFFFFFFFF AND MUL OR SWAP1 SSTORE POP PUSH1 0x4 DUP3 ADD SLOAD DUP2 PUSH1 0x4 ADD SSTORE PUSH1 0x5 DUP3 ADD DUP2 PUSH1 0x5 ADD SWAP1 DUP1 SLOAD PUSH2 0x28B4 SWAP3 SWAP2 SWAP1 PUSH2 0x2956 JUMP JUMPDEST POP SWAP1 POP POP PUSH1 0xB DUP1 SLOAD DUP1 PUSH2 0x28CA JUMPI PUSH2 0x28C9 PUSH2 0x3B5E JUMP JUMPDEST JUMPDEST PUSH1 0x1 SWAP1 SUB DUP2 DUP2 SWAP1 PUSH1 0x0 MSTORE PUSH1 0x20 PUSH1 0x0 KECCAK256 SWAP1 PUSH1 0x6 MUL ADD PUSH1 0x0 DUP1 DUP3 ADD PUSH1 0x0 PUSH2 0x28EF SWAP2 SWAP1 PUSH2 0x2A76 JUMP JUMPDEST PUSH1 0x1 DUP3 ADD PUSH1 0x0 PUSH2 0x28FF SWAP2 SWAP1 PUSH2 0x2A76 JUMP JUMPDEST PUSH1 0x2 DUP3 ADD PUSH1 0x0 PUSH2 0x290F SWAP2 SWAP1 PUSH2 0x2A76 JUMP JUMPDEST PUSH1 0x3 DUP3 ADD PUSH1 0x0 PUSH2 0x100 EXP DUP2 SLOAD SWAP1 PUSH20 0xFFFFFFFFFFFFFFFFFFFFFFFFFFFFFFFFFFFFFFFF MUL NOT AND SWAP1 SSTORE PUSH1 0x4 DUP3 ADD PUSH1 0x0 SWAP1 SSTORE PUSH1 0x5 DUP3 ADD PUSH1 0x0 PUSH2 0x294E SWAP2 SWAP1 PUSH2 0x2AB6 JUMP JUMPDEST POP POP SWAP1 SSTORE POP POP JUMP JUMPDEST DUP3 DUP1 SLOAD DUP3 DUP3 SSTORE SWAP1 PUSH1 0x0 MSTORE PUSH1 0x20 PUSH1 0x0 KECCAK256 SWAP1 PUSH1 0x2 MUL DUP2 ADD SWAP3 DUP3 ISZERO PUSH2 0x2A19 JUMPI PUSH1 0x0 MSTORE PUSH1 0x20 PUSH1 0x0 KECCAK256 SWAP2 PUSH1 0x2 MUL DUP3 ADD JUMPDEST DUP3 DUP2 GT ISZERO PUSH2 0x2A18 JUMPI DUP3 DUP3 PUSH1 0x0 DUP3 ADD PUSH1 0x0 SWAP1 SLOAD SWAP1 PUSH2 0x100 EXP SWAP1 DIV PUSH20 0xFFFFFFFFFFFFFFFFFFFFFFFFFFFFFFFFFFFFFFFF AND DUP2 PUSH1 0x0 ADD PUSH1 0x0 PUSH2 0x100 EXP DUP2 SLOAD DUP2 PUSH20 0xFFFFFFFFFFFFFFFFFFFFFFFFFFFFFFFFFFFFFFFF MUL NOT AND SWAP1 DUP4 PUSH20 0xFFFFFFFFFFFFFFFFFFFFFFFFFFFFFFFFFFFFFFFF AND MUL OR SWAP1 SSTORE POP PUSH1 0x1 DUP3 ADD DUP2 PUSH1 0x1 ADD SWAP1 DUP2 PUSH2 0x2A06 SWAP2 SWAP1 PUSH2 0x38E6 JUMP JUMPDEST POP POP POP SWAP2 PUSH1 0x2 ADD SWAP2 SWAP1 PUSH1 0x2 ADD SWAP1 PUSH2 0x2981 JUMP JUMPDEST JUMPDEST POP SWAP1 POP PUSH2 0x2A26 SWAP2 SWAP1 PUSH2 0x2ADA JUMP JUMPDEST POP SWAP1 JUMP JUMPDEST PUSH1 0x40 MLOAD DUP1 PUSH1 0xC0 ADD PUSH1 0x40 MSTORE DUP1 PUSH1 0x60 DUP2 MSTORE PUSH1 0x20 ADD PUSH1 0x60 DUP2 MSTORE PUSH1 0x20 ADD PUSH1 0x60 DUP2 MSTORE PUSH1 0x20 ADD PUSH1 0x0 PUSH20 0xFFFFFFFFFFFFFFFFFFFFFFFFFFFFFFFFFFFFFFFF AND DUP2 MSTORE PUSH1 0x20 ADD PUSH1 0x0 DUP2 MSTORE PUSH1 0x20 ADD PUSH1 0x60 DUP2 MSTORE POP SWAP1 JUMP JUMPDEST POP DUP1 SLOAD PUSH2 0x2A82 SWAP1 PUSH2 0x3423 JUMP JUMPDEST PUSH1 0x0 DUP3 SSTORE DUP1 PUSH1 0x1F LT PUSH2 0x2A94 JUMPI POP PUSH2 0x2AB3 JUMP JUMPDEST PUSH1 0x1F ADD PUSH1 0x20 SWAP1 DIV SWAP1 PUSH1 0x0 MSTORE PUSH1 0x20 PUSH1 0x0 KECCAK256 SWAP1 DUP2 ADD SWAP1 PUSH2 0x2AB2 SWAP2 SWAP1 PUSH2 0x2B28 JUMP JUMPDEST JUMPDEST POP JUMP JUMPDEST POP DUP1 SLOAD PUSH1 0x0 DUP3 SSTORE PUSH1 0x2 MUL SWAP1 PUSH1 0x0 MSTORE PUSH1 0x20 PUSH1 0x0 KECCAK256 SWAP1 DUP2 ADD SWAP1 PUSH2 0x2AD7 SWAP2 SWAP1 PUSH2 0x2ADA JUMP JUMPDEST POP JUMP JUMPDEST JUMPDEST DUP1 DUP3 GT ISZERO PUSH2 0x2B24 JUMPI PUSH1 0x0 DUP1 DUP3 ADD PUSH1 0x0 PUSH2 0x100 EXP DUP2 SLOAD SWAP1 PUSH20 0xFFFFFFFFFFFFFFFFFFFFFFFFFFFFFFFFFFFFFFFF MUL NOT AND SWAP1 SSTORE PUSH1 0x1 DUP3 ADD PUSH1 0x0 PUSH2 0x2B1B SWAP2 SWAP1 PUSH2 0x2A76 JUMP JUMPDEST POP PUSH1 0x2 ADD PUSH2 0x2ADB JUMP JUMPDEST POP SWAP1 JUMP JUMPDEST JUMPDEST DUP1 DUP3 GT ISZERO PUSH2 0x2B41 JUMPI PUSH1 0x0 DUP2 PUSH1 0x0 SWAP1 SSTORE POP PUSH1 0x1 ADD PUSH2 0x2B29 JUMP JUMPDEST POP SWAP1 JUMP JUMPDEST PUSH1 0x0 PUSH1 0x40 MLOAD SWAP1 POP SWAP1 JUMP JUMPDEST PUSH1 0x0 DUP1 REVERT JUMPDEST PUSH1 0x0 DUP1 REVERT JUMPDEST PUSH1 0x0 PUSH20 0xFFFFFFFFFFFFFFFFFFFFFFFFFFFFFFFFFFFFFFFF DUP3 AND SWAP1 POP SWAP2 SWAP1 POP JUMP JUMPDEST PUSH1 0x0 PUSH2 0x2B84 DUP3 PUSH2 0x2B59 JUMP JUMPDEST SWAP1 POP SWAP2 SWAP1 POP JUMP JUMPDEST PUSH2 0x2B94 DUP2 PUSH2 0x2B79 JUMP JUMPDEST DUP2 EQ PUSH2 0x2B9F JUMPI PUSH1 0x0 DUP1 REVERT JUMPDEST POP JUMP JUMPDEST PUSH1 0x0 DUP2 CALLDATALOAD SWAP1 POP PUSH2 0x2BB1 DUP2 PUSH2 0x2B8B JUMP JUMPDEST SWAP3 SWAP2 POP POP JUMP JUMPDEST PUSH1 0x0 PUSH1 0x20 DUP3 DUP5 SUB SLT ISZERO PUSH2 0x2BCD JUMPI PUSH2 0x2BCC PUSH2 0x2B4F JUMP JUMPDEST JUMPDEST PUSH1 0x0 PUSH2 0x2BDB DUP5 DUP3 DUP6 ADD PUSH2 0x2BA2 JUMP JUMPDEST SWAP2 POP POP SWAP3 SWAP2 POP POP JUMP JUMPDEST PUSH1 0x0 DUP2 MLOAD SWAP1 POP SWAP2 SWAP1 POP JUMP JUMPDEST PUSH1 0x0 DUP3 DUP3 MSTORE PUSH1 0x20 DUP3 ADD SWAP1 POP SWAP3 SWAP2 POP POP JUMP JUMPDEST PUSH1 0x0 DUP2 SWAP1 POP PUSH1 0x20 DUP3 ADD SWAP1 POP SWAP2 SWAP1 POP JUMP JUMPDEST PUSH2 0x2C19 DUP2 PUSH2 0x2B79 JUMP JUMPDEST DUP3 MSTORE POP POP JUMP JUMPDEST PUSH1 0x0 DUP2 MLOAD SWAP1 POP SWAP2 SWAP1 POP JUMP JUMPDEST PUSH1 0x0 DUP3 DUP3 MSTORE PUSH1 0x20 DUP3 ADD SWAP1 POP SWAP3 SWAP2 POP POP JUMP JUMPDEST PUSH1 0x0 JUMPDEST DUP4 DUP2 LT ISZERO PUSH2 0x2C59 JUMPI DUP1 DUP3 ADD MLOAD DUP2 DUP5 ADD MSTORE PUSH1 0x20 DUP2 ADD SWAP1 POP PUSH2 0x2C3E JUMP JUMPDEST PUSH1 0x0 DUP5 DUP5 ADD MSTORE POP POP POP POP JUMP JUMPDEST PUSH1 0x0 PUSH1 0x1F NOT PUSH1 0x1F DUP4 ADD AND SWAP1 POP SWAP2 SWAP1 POP JUMP JUMPDEST PUSH1 0x0 PUSH2 0x2C81 DUP3 PUSH2 0x2C1F JUMP JUMPDEST PUSH2 0x2C8B DUP2 DUP6 PUSH2 0x2C2A JUMP JUMPDEST SWAP4 POP PUSH2 0x2C9B DUP2 DUP6 PUSH1 0x20 DUP7 ADD PUSH2 0x2C3B JUMP JUMPDEST PUSH2 0x2CA4 DUP2 PUSH2 0x2C65 JUMP JUMPDEST DUP5 ADD SWAP2 POP POP SWAP3 SWAP2 POP POP JUMP JUMPDEST PUSH1 0x0 PUSH1 0x40 DUP4 ADD PUSH1 0x0 DUP4 ADD MLOAD PUSH2 0x2CC7 PUSH1 0x0 DUP7 ADD DUP3 PUSH2 0x2C10 JUMP JUMPDEST POP PUSH1 0x20 DUP4 ADD MLOAD DUP5 DUP3 SUB PUSH1 0x20 DUP7 ADD MSTORE PUSH2 0x2CDF DUP3 DUP3 PUSH2 0x2C76 JUMP JUMPDEST SWAP2 POP POP DUP1 SWAP2 POP POP SWAP3 SWAP2 POP POP JUMP JUMPDEST PUSH1 0x0 PUSH2 0x2CF8 DUP4 DUP4 PUSH2 0x2CAF JUMP JUMPDEST SWAP1 POP SWAP3 SWAP2 POP POP JUMP JUMPDEST PUSH1 0x0 PUSH1 0x20 DUP3 ADD SWAP1 POP SWAP2 SWAP1 POP JUMP JUMPDEST PUSH1 0x0 PUSH2 0x2D18 DUP3 PUSH2 0x2BE4 JUMP JUMPDEST PUSH2 0x2D22 DUP2 DUP6 PUSH2 0x2BEF JUMP JUMPDEST SWAP4 POP DUP4 PUSH1 0x20 DUP3 MUL DUP6 ADD PUSH2 0x2D34 DUP6 PUSH2 0x2C00 JUMP JUMPDEST DUP1 PUSH1 0x0 JUMPDEST DUP6 DUP2 LT ISZERO PUSH2 0x2D70 JUMPI DUP5 DUP5 SUB DUP10 MSTORE DUP2 MLOAD PUSH2 0x2D51 DUP6 DUP3 PUSH2 0x2CEC JUMP JUMPDEST SWAP5 POP PUSH2 0x2D5C DUP4 PUSH2 0x2D00 JUMP JUMPDEST SWAP3 POP PUSH1 0x20 DUP11 ADD SWAP10 POP POP PUSH1 0x1 DUP2 ADD SWAP1 POP PUSH2 0x2D38 JUMP JUMPDEST POP DUP3 SWAP8 POP DUP8 SWAP6 POP POP POP POP POP POP SWAP3 SWAP2 POP POP JUMP JUMPDEST PUSH1 0x0 PUSH1 0x20 DUP3 ADD SWAP1 POP DUP2 DUP2 SUB PUSH1 0x0 DUP4 ADD MSTORE PUSH2 0x2D9C DUP2 DUP5 PUSH2 0x2D0D JUMP JUMPDEST SWAP1 POP SWAP3 SWAP2 POP POP JUMP JUMPDEST PUSH1 0x0 DUP2 ISZERO ISZERO SWAP1 POP SWAP2 SWAP1 POP JUMP JUMPDEST PUSH2 0x2DB9 DUP2 PUSH2 0x2DA4 JUMP JUMPDEST DUP3 MSTORE POP POP JUMP JUMPDEST PUSH1 0x0 PUSH1 0x20 DUP3 ADD SWAP1 POP PUSH2 0x2DD4 PUSH1 0x0 DUP4 ADD DUP5 PUSH2 0x2DB0 JUMP JUMPDEST SWAP3 SWAP2 POP POP JUMP JUMPDEST PUSH1 0x0 DUP1 REVERT JUMPDEST PUSH1 0x0 DUP1 REVERT JUMPDEST PUSH32 0x4E487B7100000000000000000000000000000000000000000000000000000000 PUSH1 0x0 MSTORE PUSH1 0x41 PUSH1 0x4 MSTORE PUSH1 0x24 PUSH1 0x0 REVERT JUMPDEST PUSH2 0x2E1C DUP3 PUSH2 0x2C65 JUMP JUMPDEST DUP2 ADD DUP2 DUP2 LT PUSH8 0xFFFFFFFFFFFFFFFF DUP3 GT OR ISZERO PUSH2 0x2E3B JUMPI PUSH2 0x2E3A PUSH2 0x2DE4 JUMP JUMPDEST JUMPDEST DUP1 PUSH1 0x40 MSTORE POP POP POP JUMP JUMPDEST PUSH1 0x0 PUSH2 0x2E4E PUSH2 0x2B45 JUMP JUMPDEST SWAP1 POP PUSH2 0x2E5A DUP3 DUP3 PUSH2 0x2E13 JUMP JUMPDEST SWAP2 SWAP1 POP JUMP JUMPDEST PUSH1 0x0 PUSH8 0xFFFFFFFFFFFFFFFF DUP3 GT ISZERO PUSH2 0x2E7A JUMPI PUSH2 0x2E79 PUSH2 0x2DE4 JUMP JUMPDEST JUMPDEST PUSH2 0x2E83 DUP3 PUSH2 0x2C65 JUMP JUMPDEST SWAP1 POP PUSH1 0x20 DUP2 ADD SWAP1 POP SWAP2 SWAP1 POP JUMP JUMPDEST DUP3 DUP2 DUP4 CALLDATACOPY PUSH1 0x0 DUP4 DUP4 ADD MSTORE POP POP POP JUMP JUMPDEST PUSH1 0x0 PUSH2 0x2EB2 PUSH2 0x2EAD DUP5 PUSH2 0x2E5F JUMP JUMPDEST PUSH2 0x2E44 JUMP JUMPDEST SWAP1 POP DUP3 DUP2 MSTORE PUSH1 0x20 DUP2 ADD DUP5 DUP5 DUP5 ADD GT ISZERO PUSH2 0x2ECE JUMPI PUSH2 0x2ECD PUSH2 0x2DDF JUMP JUMPDEST JUMPDEST PUSH2 0x2ED9 DUP5 DUP3 DUP6 PUSH2 0x2E90 JUMP JUMPDEST POP SWAP4 SWAP3 POP POP POP JUMP JUMPDEST PUSH1 0x0 DUP3 PUSH1 0x1F DUP4 ADD SLT PUSH2 0x2EF6 JUMPI PUSH2 0x2EF5 PUSH2 0x2DDA JUMP JUMPDEST JUMPDEST DUP2 CALLDATALOAD PUSH2 0x2F06 DUP5 DUP3 PUSH1 0x20 DUP7 ADD PUSH2 0x2E9F JUMP JUMPDEST SWAP2 POP POP SWAP3 SWAP2 POP POP JUMP JUMPDEST PUSH2 0x2F18 DUP2 PUSH2 0x2DA4 JUMP JUMPDEST DUP2 EQ PUSH2 0x2F23 JUMPI PUSH1 0x0 DUP1 REVERT JUMPDEST POP JUMP JUMPDEST PUSH1 0x0 DUP2 CALLDATALOAD SWAP1 POP PUSH2 0x2F35 DUP2 PUSH2 0x2F0F JUMP JUMPDEST SWAP3 SWAP2 POP POP JUMP JUMPDEST PUSH1 0x0 DUP1 PUSH1 0x0 DUP1 PUSH1 0x0 PUSH1 0xA0 DUP7 DUP9 SUB SLT ISZERO PUSH2 0x2F57 JUMPI PUSH2 0x2F56 PUSH2 0x2B4F JUMP JUMPDEST JUMPDEST PUSH1 0x0 DUP7 ADD CALLDATALOAD PUSH8 0xFFFFFFFFFFFFFFFF DUP2 GT ISZERO PUSH2 0x2F75 JUMPI PUSH2 0x2F74 PUSH2 0x2B54 JUMP JUMPDEST JUMPDEST PUSH2 0x2F81 DUP9 DUP3 DUP10 ADD PUSH2 0x2EE1 JUMP JUMPDEST SWAP6 POP POP PUSH1 0x20 DUP7 ADD CALLDATALOAD PUSH8 0xFFFFFFFFFFFFFFFF DUP2 GT ISZERO PUSH2 0x2FA2 JUMPI PUSH2 0x2FA1 PUSH2 0x2B54 JUMP JUMPDEST JUMPDEST PUSH2 0x2FAE DUP9 DUP3 DUP10 ADD PUSH2 0x2EE1 JUMP JUMPDEST SWAP5 POP POP PUSH1 0x40 DUP7 ADD CALLDATALOAD PUSH8 0xFFFFFFFFFFFFFFFF DUP2 GT ISZERO PUSH2 0x2FCF JUMPI PUSH2 0x2FCE PUSH2 0x2B54 JUMP JUMPDEST JUMPDEST PUSH2 0x2FDB DUP9 DUP3 DUP10 ADD PUSH2 0x2EE1 JUMP JUMPDEST SWAP4 POP POP PUSH1 0x60 PUSH2 0x2FEC DUP9 DUP3 DUP10 ADD PUSH2 0x2BA2 JUMP JUMPDEST SWAP3 POP POP PUSH1 0x80 PUSH2 0x2FFD DUP9 DUP3 DUP10 ADD PUSH2 0x2F26 JUMP JUMPDEST SWAP2 POP POP SWAP3 SWAP6 POP SWAP3 SWAP6 SWAP1 SWAP4 POP JUMP JUMPDEST PUSH1 0x0 DUP1 PUSH1 0x40 DUP4 DUP6 SUB SLT ISZERO PUSH2 0x3021 JUMPI PUSH2 0x3020 PUSH2 0x2B4F JUMP JUMPDEST JUMPDEST PUSH1 0x0 PUSH2 0x302F DUP6 DUP3 DUP7 ADD PUSH2 0x2BA2 JUMP JUMPDEST SWAP3 POP POP PUSH1 0x20 PUSH2 0x3040 DUP6 DUP3 DUP7 ADD PUSH2 0x2F26 JUMP JUMPDEST SWAP2 POP POP SWAP3 POP SWAP3 SWAP1 POP JUMP JUMPDEST PUSH1 0x0 DUP2 SWAP1 POP SWAP2 SWAP1 POP JUMP JUMPDEST PUSH2 0x305D DUP2 PUSH2 0x304A JUMP JUMPDEST DUP3 MSTORE POP POP JUMP JUMPDEST PUSH1 0x0 DUP3 DUP3 MSTORE PUSH1 0x20 DUP3 ADD SWAP1 POP SWAP3 SWAP2 POP POP JUMP JUMPDEST PUSH1 0x0 PUSH2 0x307F DUP3 PUSH2 0x2BE4 JUMP JUMPDEST PUSH2 0x3089 DUP2 DUP6 PUSH2 0x3063 JUMP JUMPDEST SWAP4 POP DUP4 PUSH1 0x20 DUP3 MUL DUP6 ADD PUSH2 0x309B DUP6 PUSH2 0x2C00 JUMP JUMPDEST DUP1 PUSH1 0x0 JUMPDEST DUP6 DUP2 LT ISZERO PUSH2 0x30D7 JUMPI DUP5 DUP5 SUB DUP10 MSTORE DUP2 MLOAD PUSH2 0x30B8 DUP6 DUP3 PUSH2 0x2CEC JUMP JUMPDEST SWAP5 POP PUSH2 0x30C3 DUP4 PUSH2 0x2D00 JUMP JUMPDEST SWAP3 POP PUSH1 0x20 DUP11 ADD SWAP10 POP POP PUSH1 0x1 DUP2 ADD SWAP1 POP PUSH2 0x309F JUMP JUMPDEST POP DUP3 SWAP8 POP DUP8 SWAP6 POP POP POP POP POP POP SWAP3 SWAP2 POP POP JUMP JUMPDEST PUSH1 0x0 PUSH1 0xC0 DUP4 ADD PUSH1 0x0 DUP4 ADD MLOAD DUP5 DUP3 SUB PUSH1 0x0 DUP7 ADD MSTORE PUSH2 0x3106 DUP3 DUP3 PUSH2 0x2C76 JUMP JUMPDEST SWAP2 POP POP PUSH1 0x20 DUP4 ADD MLOAD DUP5 DUP3 SUB PUSH1 0x20 DUP7 ADD MSTORE PUSH2 0x3120 DUP3 DUP3 PUSH2 0x2C76 JUMP JUMPDEST SWAP2 POP POP PUSH1 0x40 DUP4 ADD MLOAD DUP5 DUP3 SUB PUSH1 0x40 DUP7 ADD MSTORE PUSH2 0x313A DUP3 DUP3 PUSH2 0x2C76 JUMP JUMPDEST SWAP2 POP POP PUSH1 0x60 DUP4 ADD MLOAD PUSH2 0x314F PUSH1 0x60 DUP7 ADD DUP3 PUSH2 0x2C10 JUMP JUMPDEST POP PUSH1 0x80 DUP4 ADD MLOAD PUSH2 0x3162 PUSH1 0x80 DUP7 ADD DUP3 PUSH2 0x3054 JUMP JUMPDEST POP PUSH1 0xA0 DUP4 ADD MLOAD DUP5 DUP3 SUB PUSH1 0xA0 DUP7 ADD MSTORE PUSH2 0x317A DUP3 DUP3 PUSH2 0x3074 JUMP JUMPDEST SWAP2 POP POP DUP1 SWAP2 POP POP SWAP3 SWAP2 POP POP JUMP JUMPDEST PUSH1 0x0 PUSH1 0x20 DUP3 ADD SWAP1 POP DUP2 DUP2 SUB PUSH1 0x0 DUP4 ADD MSTORE PUSH2 0x31A1 DUP2 DUP5 PUSH2 0x30E9 JUMP JUMPDEST SWAP1 POP SWAP3 SWAP2 POP POP JUMP JUMPDEST PUSH1 0x0 DUP1 PUSH1 0x40 DUP4 DUP6 SUB SLT ISZERO PUSH2 0x31C0 JUMPI PUSH2 0x31BF PUSH2 0x2B4F JUMP JUMPDEST JUMPDEST PUSH1 0x0 PUSH2 0x31CE DUP6 DUP3 DUP7 ADD PUSH2 0x2BA2 JUMP JUMPDEST SWAP3 POP POP PUSH1 0x20 PUSH2 0x31DF DUP6 DUP3 DUP7 ADD PUSH2 0x2BA2 JUMP JUMPDEST SWAP2 POP POP SWAP3 POP SWAP3 SWAP1 POP JUMP JUMPDEST PUSH1 0x0 PUSH1 0x20 DUP3 DUP5 SUB SLT ISZERO PUSH2 0x31FF JUMPI PUSH2 0x31FE PUSH2 0x2B4F JUMP JUMPDEST JUMPDEST PUSH1 0x0 PUSH2 0x320D DUP5 DUP3 DUP6 ADD PUSH2 0x2F26 JUMP JUMPDEST SWAP2 POP POP SWAP3 SWAP2 POP POP JUMP JUMPDEST PUSH1 0x0 DUP2 MLOAD SWAP1 POP SWAP2 SWAP1 POP JUMP JUMPDEST PUSH1 0x0 DUP3 DUP3 MSTORE PUSH1 0x20 DUP3 ADD SWAP1 POP SWAP3 SWAP2 POP POP JUMP JUMPDEST PUSH1 0x0 DUP2 SWAP1 POP PUSH1 0x20 DUP3 ADD SWAP1 POP SWAP2 SWAP1 POP JUMP JUMPDEST PUSH1 0x0 PUSH1 0xC0 DUP4 ADD PUSH1 0x0 DUP4 ADD MLOAD DUP5 DUP3 SUB PUSH1 0x0 DUP7 ADD MSTORE PUSH2 0x325F DUP3 DUP3 PUSH2 0x2C76 JUMP JUMPDEST SWAP2 POP POP PUSH1 0x20 DUP4 ADD MLOAD DUP5 DUP3 SUB PUSH1 0x20 DUP7 ADD MSTORE PUSH2 0x3279 DUP3 DUP3 PUSH2 0x2C76 JUMP JUMPDEST SWAP2 POP POP PUSH1 0x40 DUP4 ADD MLOAD DUP5 DUP3 SUB PUSH1 0x40 DUP7 ADD MSTORE PUSH2 0x3293 DUP3 DUP3 PUSH2 0x2C76 JUMP JUMPDEST SWAP2 POP POP PUSH1 0x60 DUP4 ADD MLOAD PUSH2 0x32A8 PUSH1 0x60 DUP7 ADD DUP3 PUSH2 0x2C10 JUMP JUMPDEST POP PUSH1 0x80 DUP4 ADD MLOAD PUSH2 0x32BB PUSH1 0x80 DUP7 ADD DUP3 PUSH2 0x3054 JUMP JUMPDEST POP PUSH1 0xA0 DUP4 ADD MLOAD DUP5 DUP3 SUB PUSH1 0xA0 DUP7 ADD MSTORE PUSH2 0x32D3 DUP3 DUP3 PUSH2 0x3074 JUMP JUMPDEST SWAP2 POP POP DUP1 SWAP2 POP POP SWAP3 SWAP2 POP POP JUMP JUMPDEST PUSH1 0x0 PUSH2 0x32EC DUP4 DUP4 PUSH2 0x3242 JUMP JUMPDEST SWAP1 POP SWAP3 SWAP2 POP POP JUMP JUMPDEST PUSH1 0x0 PUSH1 0x20 DUP3 ADD SWAP1 POP SWAP2 SWAP1 POP JUMP JUMPDEST PUSH1 0x0 PUSH2 0x330C DUP3 PUSH2 0x3216 JUMP JUMPDEST PUSH2 0x3316 DUP2 DUP6 PUSH2 0x3221 JUMP JUMPDEST SWAP4 POP DUP4 PUSH1 0x20 DUP3 MUL DUP6 ADD PUSH2 0x3328 DUP6 PUSH2 0x3232 JUMP JUMPDEST DUP1 PUSH1 0x0 JUMPDEST DUP6 DUP2 LT ISZERO PUSH2 0x3364 JUMPI DUP5 DUP5 SUB DUP10 MSTORE DUP2 MLOAD PUSH2 0x3345 DUP6 DUP3 PUSH2 0x32E0 JUMP JUMPDEST SWAP5 POP PUSH2 0x3350 DUP4 PUSH2 0x32F4 JUMP JUMPDEST SWAP3 POP PUSH1 0x20 DUP11 ADD SWAP10 POP POP PUSH1 0x1 DUP2 ADD SWAP1 POP PUSH2 0x332C JUMP JUMPDEST POP DUP3 SWAP8 POP DUP8 SWAP6 POP POP POP POP POP POP SWAP3 SWAP2 POP POP JUMP JUMPDEST PUSH1 0x0 PUSH1 0x20 DUP3 ADD SWAP1 POP DUP2 DUP2 SUB PUSH1 0x0 DUP4 ADD MSTORE PUSH2 0x3390 DUP2 DUP5 PUSH2 0x3301 JUMP JUMPDEST SWAP1 POP SWAP3 SWAP2 POP POP JUMP JUMPDEST PUSH1 0x0 DUP1 PUSH1 0x40 DUP4 DUP6 SUB SLT ISZERO PUSH2 0x33AF JUMPI PUSH2 0x33AE PUSH2 0x2B4F JUMP JUMPDEST JUMPDEST PUSH1 0x0 PUSH2 0x33BD DUP6 DUP3 DUP7 ADD PUSH2 0x2BA2 JUMP JUMPDEST SWAP3 POP POP PUSH1 0x20 DUP4 ADD CALLDATALOAD PUSH8 0xFFFFFFFFFFFFFFFF DUP2 GT ISZERO PUSH2 0x33DE JUMPI PUSH2 0x33DD PUSH2 0x2B54 JUMP JUMPDEST JUMPDEST PUSH2 0x33EA DUP6 DUP3 DUP7 ADD PUSH2 0x2EE1 JUMP JUMPDEST SWAP2 POP POP SWAP3 POP SWAP3 SWAP1 POP JUMP JUMPDEST PUSH32 0x4E487B7100000000000000000000000000000000000000000000000000000000 PUSH1 0x0 MSTORE PUSH1 0x22 PUSH1 0x4 MSTORE PUSH1 0x24 PUSH1 0x0 REVERT JUMPDEST PUSH1 0x0 PUSH1 0x2 DUP3 DIV SWAP1 POP PUSH1 0x1 DUP3 AND DUP1 PUSH2 0x343B JUMPI PUSH1 0x7F DUP3 AND SWAP2 POP JUMPDEST PUSH1 0x20 DUP3 LT DUP2 SUB PUSH2 0x344E JUMPI PUSH2 0x344D PUSH2 0x33F4 JUMP JUMPDEST JUMPDEST POP SWAP2 SWAP1 POP JUMP JUMPDEST PUSH1 0x0 DUP2 SWAP1 POP DUP2 PUSH1 0x0 MSTORE PUSH1 0x20 PUSH1 0x0 KECCAK256 SWAP1 POP SWAP2 SWAP1 POP JUMP JUMPDEST PUSH1 0x0 PUSH1 0x20 PUSH1 0x1F DUP4 ADD DIV SWAP1 POP SWAP2 SWAP1 POP JUMP JUMPDEST PUSH1 0x0 DUP3 DUP3 SHL SWAP1 POP SWAP3 SWAP2 POP POP JUMP JUMPDEST PUSH1 0x0 PUSH1 0x8 DUP4 MUL PUSH2 0x34B6 PUSH32 0xFFFFFFFFFFFFFFFFFFFFFFFFFFFFFFFFFFFFFFFFFFFFFFFFFFFFFFFFFFFFFFFF DUP3 PUSH2 0x3479 JUMP JUMPDEST PUSH2 0x34C0 DUP7 DUP4 PUSH2 0x3479 JUMP JUMPDEST SWAP6 POP DUP1 NOT DUP5 AND SWAP4 POP DUP1 DUP7 AND DUP5 OR SWAP3 POP POP POP SWAP4 SWAP3 POP POP POP JUMP JUMPDEST PUSH1 0x0 DUP2 SWAP1 POP SWAP2 SWAP1 POP JUMP JUMPDEST PUSH1 0x0 PUSH2 0x34FD PUSH2 0x34F8 PUSH2 0x34F3 DUP5 PUSH2 0x304A JUMP JUMPDEST PUSH2 0x34D8 JUMP JUMPDEST PUSH2 0x304A JUMP JUMPDEST SWAP1 POP SWAP2 SWAP1 POP JUMP JUMPDEST PUSH1 0x0 DUP2 SWAP1 POP SWAP2 SWAP1 POP JUMP JUMPDEST PUSH2 0x3517 DUP4 PUSH2 0x34E2 JUMP JUMPDEST PUSH2 0x352B PUSH2 0x3523 DUP3 PUSH2 0x3504 JUMP JUMPDEST DUP5 DUP5 SLOAD PUSH2 0x3486 JUMP JUMPDEST DUP3 SSTORE POP POP POP POP JUMP JUMPDEST PUSH1 0x0 SWAP1 JUMP JUMPDEST PUSH2 0x3540 PUSH2 0x3533 JUMP JUMPDEST PUSH2 0x354B DUP2 DUP5 DUP5 PUSH2 0x350E JUMP JUMPDEST POP POP POP JUMP JUMPDEST JUMPDEST DUP2 DUP2 LT ISZERO PUSH2 0x356F JUMPI PUSH2 0x3564 PUSH1 0x0 DUP3 PUSH2 0x3538 JUMP JUMPDEST PUSH1 0x1 DUP2 ADD SWAP1 POP PUSH2 0x3551 JUMP JUMPDEST POP POP JUMP JUMPDEST PUSH1 0x1F DUP3 GT ISZERO PUSH2 0x35B4 JUMPI PUSH2 0x3585 DUP2 PUSH2 0x3454 JUMP JUMPDEST PUSH2 0x358E DUP5 PUSH2 0x3469 JUMP JUMPDEST DUP2 ADD PUSH1 0x20 DUP6 LT ISZERO PUSH2 0x359D JUMPI DUP2 SWAP1 POP JUMPDEST PUSH2 0x35B1 PUSH2 0x35A9 DUP6 PUSH2 0x3469 JUMP JUMPDEST DUP4 ADD DUP3 PUSH2 0x3550 JUMP JUMPDEST POP POP JUMPDEST POP POP POP JUMP JUMPDEST PUSH1 0x0 DUP3 DUP3 SHR SWAP1 POP SWAP3 SWAP2 POP POP JUMP JUMPDEST PUSH1 0x0 PUSH2 0x35D7 PUSH1 0x0 NOT DUP5 PUSH1 0x8 MUL PUSH2 0x35B9 JUMP JUMPDEST NOT DUP1 DUP4 AND SWAP2 POP POP SWAP3 SWAP2 POP POP JUMP JUMPDEST PUSH1 0x0 PUSH2 0x35F0 DUP4 DUP4 PUSH2 0x35C6 JUMP JUMPDEST SWAP2 POP DUP3 PUSH1 0x2 MUL DUP3 OR SWAP1 POP SWAP3 SWAP2 POP POP JUMP JUMPDEST PUSH2 0x3609 DUP3 PUSH2 0x2C1F JUMP JUMPDEST PUSH8 0xFFFFFFFFFFFFFFFF DUP2 GT ISZERO PUSH2 0x3622 JUMPI PUSH2 0x3621 PUSH2 0x2DE4 JUMP JUMPDEST JUMPDEST PUSH2 0x362C DUP3 SLOAD PUSH2 0x3423 JUMP JUMPDEST PUSH2 0x3637 DUP3 DUP3 DUP6 PUSH2 0x3573 JUMP JUMPDEST PUSH1 0x0 PUSH1 0x20 SWAP1 POP PUSH1 0x1F DUP4 GT PUSH1 0x1 DUP2 EQ PUSH2 0x366A JUMPI PUSH1 0x0 DUP5 ISZERO PUSH2 0x3658 JUMPI DUP3 DUP8 ADD MLOAD SWAP1 POP JUMPDEST PUSH2 0x3662 DUP6 DUP3 PUSH2 0x35E4 JUMP JUMPDEST DUP7 SSTORE POP PUSH2 0x36CA JUMP JUMPDEST PUSH1 0x1F NOT DUP5 AND PUSH2 0x3678 DUP7 PUSH2 0x3454 JUMP JUMPDEST PUSH1 0x0 JUMPDEST DUP3 DUP2 LT ISZERO PUSH2 0x36A0 JUMPI DUP5 DUP10 ADD MLOAD DUP3 SSTORE PUSH1 0x1 DUP3 ADD SWAP2 POP PUSH1 0x20 DUP6 ADD SWAP5 POP PUSH1 0x20 DUP2 ADD SWAP1 POP PUSH2 0x367B JUMP JUMPDEST DUP7 DUP4 LT ISZERO PUSH2 0x36BD JUMPI DUP5 DUP10 ADD MLOAD PUSH2 0x36B9 PUSH1 0x1F DUP10 AND DUP3 PUSH2 0x35C6 JUMP JUMPDEST DUP4 SSTORE POP JUMPDEST PUSH1 0x1 PUSH1 0x2 DUP9 MUL ADD DUP9 SSTORE POP POP POP JUMPDEST POP POP POP POP POP POP JUMP JUMPDEST PUSH1 0x0 DUP2 SWAP1 POP SWAP3 SWAP2 POP POP JUMP JUMPDEST PUSH32 0x4445414E00000000000000000000000000000000000000000000000000000000 PUSH1 0x0 DUP3 ADD MSTORE POP JUMP JUMPDEST PUSH1 0x0 PUSH2 0x3713 PUSH1 0x4 DUP4 PUSH2 0x36D2 JUMP JUMPDEST SWAP2 POP PUSH2 0x371E DUP3 PUSH2 0x36DD JUMP JUMPDEST PUSH1 0x4 DUP3 ADD SWAP1 POP SWAP2 SWAP1 POP JUMP JUMPDEST PUSH1 0x0 PUSH2 0x3734 DUP3 PUSH2 0x3706 JUMP JUMPDEST SWAP2 POP DUP2 SWAP1 POP SWAP2 SWAP1 POP JUMP JUMPDEST PUSH1 0x0 PUSH2 0x3749 DUP3 PUSH2 0x2C1F JUMP JUMPDEST PUSH2 0x3753 DUP2 DUP6 PUSH2 0x36D2 JUMP JUMPDEST SWAP4 POP PUSH2 0x3763 DUP2 DUP6 PUSH1 0x20 DUP7 ADD PUSH2 0x2C3B JUMP JUMPDEST DUP1 DUP5 ADD SWAP2 POP POP SWAP3 SWAP2 POP POP JUMP JUMPDEST PUSH1 0x0 PUSH2 0x377B DUP3 DUP5 PUSH2 0x373E JUMP JUMPDEST SWAP2 POP DUP2 SWAP1 POP SWAP3 SWAP2 POP POP JUMP JUMPDEST PUSH32 0x484F440000000000000000000000000000000000000000000000000000000000 PUSH1 0x0 DUP3 ADD MSTORE POP JUMP JUMPDEST PUSH1 0x0 PUSH2 0x37BC PUSH1 0x3 DUP4 PUSH2 0x36D2 JUMP JUMPDEST SWAP2 POP PUSH2 0x37C7 DUP3 PUSH2 0x3786 JUMP JUMPDEST PUSH1 0x3 DUP3 ADD SWAP1 POP SWAP2 SWAP1 POP JUMP JUMPDEST PUSH1 0x0 PUSH2 0x37DD DUP3 PUSH2 0x37AF JUMP JUMPDEST SWAP2 POP DUP2 SWAP1 POP SWAP2 SWAP1 POP JUMP JUMPDEST PUSH1 0x0 DUP3 DUP3 MSTORE PUSH1 0x20 DUP3 ADD SWAP1 POP SWAP3 SWAP2 POP POP JUMP JUMPDEST PUSH32 0x4D656D6265722052657175657374656400000000000000000000000000000000 PUSH1 0x0 DUP3 ADD MSTORE POP JUMP JUMPDEST PUSH1 0x0 PUSH2 0x382E PUSH1 0x10 DUP4 PUSH2 0x37E7 JUMP JUMPDEST SWAP2 POP PUSH2 0x3839 DUP3 PUSH2 0x37F8 JUMP JUMPDEST PUSH1 0x20 DUP3 ADD SWAP1 POP SWAP2 SWAP1 POP JUMP JUMPDEST PUSH1 0x0 PUSH1 0x20 DUP3 ADD SWAP1 POP DUP2 DUP2 SUB PUSH1 0x0 DUP4 ADD MSTORE PUSH2 0x385D DUP2 PUSH2 0x3821 JUMP JUMPDEST SWAP1 POP SWAP2 SWAP1 POP JUMP JUMPDEST PUSH32 0x4D656D6265722045786973740000000000000000000000000000000000000000 PUSH1 0x0 DUP3 ADD MSTORE POP JUMP JUMPDEST PUSH1 0x0 PUSH2 0x389A PUSH1 0xC DUP4 PUSH2 0x37E7 JUMP JUMPDEST SWAP2 POP PUSH2 0x38A5 DUP3 PUSH2 0x3864 JUMP JUMPDEST PUSH1 0x20 DUP3 ADD SWAP1 POP SWAP2 SWAP1 POP JUMP JUMPDEST PUSH1 0x0 PUSH1 0x20 DUP3 ADD SWAP1 POP DUP2 DUP2 SUB PUSH1 0x0 DUP4 ADD MSTORE PUSH2 0x38C9 DUP2 PUSH2 0x388D JUMP JUMPDEST SWAP1 POP SWAP2 SWAP1 POP JUMP JUMPDEST PUSH1 0x0 DUP2 SLOAD SWAP1 POP PUSH2 0x38DF DUP2 PUSH2 0x3423 JUMP JUMPDEST SWAP1 POP SWAP2 SWAP1 POP JUMP JUMPDEST DUP2 DUP2 SUB PUSH2 0x38F4 JUMPI POP POP PUSH2 0x39CC JUMP JUMPDEST PUSH2 0x38FD DUP3 PUSH2 0x38D0 JUMP JUMPDEST PUSH8 0xFFFFFFFFFFFFFFFF DUP2 GT ISZERO PUSH2 0x3916 JUMPI PUSH2 0x3915 PUSH2 0x2DE4 JUMP JUMPDEST JUMPDEST PUSH2 0x3920 DUP3 SLOAD PUSH2 0x3423 JUMP JUMPDEST PUSH2 0x392B DUP3 DUP3 DUP6 PUSH2 0x3573 JUMP JUMPDEST PUSH1 0x0 PUSH1 0x1F DUP4 GT PUSH1 0x1 DUP2 EQ PUSH2 0x395A JUMPI PUSH1 0x0 DUP5 ISZERO PUSH2 0x3948 JUMPI DUP3 DUP8 ADD SLOAD SWAP1 POP JUMPDEST PUSH2 0x3952 DUP6 DUP3 PUSH2 0x35E4 JUMP JUMPDEST DUP7 SSTORE POP PUSH2 0x39C5 JUMP JUMPDEST PUSH1 0x1F NOT DUP5 AND PUSH2 0x3968 DUP8 PUSH2 0x3454 JUMP JUMPDEST SWAP7 POP PUSH2 0x3973 DUP7 PUSH2 0x3454 JUMP JUMPDEST PUSH1 0x0 JUMPDEST DUP3 DUP2 LT ISZERO PUSH2 0x399B JUMPI DUP5 DUP10 ADD SLOAD DUP3 SSTORE PUSH1 0x1 DUP3 ADD SWAP2 POP PUSH1 0x1 DUP6 ADD SWAP5 POP PUSH1 0x20 DUP2 ADD SWAP1 POP PUSH2 0x3976 JUMP JUMPDEST DUP7 DUP4 LT ISZERO PUSH2 0x39B8 JUMPI DUP5 DUP10 ADD SLOAD PUSH2 0x39B4 PUSH1 0x1F DUP10 AND DUP3 PUSH2 0x35C6 JUMP JUMPDEST DUP4 SSTORE POP JUMPDEST PUSH1 0x1 PUSH1 0x2 DUP9 MUL ADD DUP9 SSTORE POP POP POP JUMPDEST POP POP POP POP POP POP JUMPDEST JUMP JUMPDEST PUSH32 0x596F75206E65656420746F205265717565737420466972737400000000000000 PUSH1 0x0 DUP3 ADD MSTORE POP JUMP JUMPDEST PUSH1 0x0 PUSH2 0x3A04 PUSH1 0x19 DUP4 PUSH2 0x37E7 JUMP JUMPDEST SWAP2 POP PUSH2 0x3A0F DUP3 PUSH2 0x39CE JUMP JUMPDEST PUSH1 0x20 DUP3 ADD SWAP1 POP SWAP2 SWAP1 POP JUMP JUMPDEST PUSH1 0x0 PUSH1 0x20 DUP3 ADD SWAP1 POP DUP2 DUP2 SUB PUSH1 0x0 DUP4 ADD MSTORE PUSH2 0x3A33 DUP2 PUSH2 0x39F7 JUMP JUMPDEST SWAP1 POP SWAP2 SWAP1 POP JUMP JUMPDEST PUSH32 0x596F752063616E277420617070726F6F766520736F6D656F6E652061626F7665 PUSH1 0x0 DUP3 ADD MSTORE PUSH32 0x207468616E20796F752E00000000000000000000000000000000000000000000 PUSH1 0x20 DUP3 ADD MSTORE POP JUMP JUMPDEST PUSH1 0x0 PUSH2 0x3A96 PUSH1 0x2A DUP4 PUSH2 0x37E7 JUMP JUMPDEST SWAP2 POP PUSH2 0x3AA1 DUP3 PUSH2 0x3A3A JUMP JUMPDEST PUSH1 0x40 DUP3 ADD SWAP1 POP SWAP2 SWAP1 POP JUMP JUMPDEST PUSH1 0x0 PUSH1 0x20 DUP3 ADD SWAP1 POP DUP2 DUP2 SUB PUSH1 0x0 DUP4 ADD MSTORE PUSH2 0x3AC5 DUP2 PUSH2 0x3A89 JUMP JUMPDEST SWAP1 POP SWAP2 SWAP1 POP JUMP JUMPDEST PUSH32 0x4E487B7100000000000000000000000000000000000000000000000000000000 PUSH1 0x0 MSTORE PUSH1 0x11 PUSH1 0x4 MSTORE PUSH1 0x24 PUSH1 0x0 REVERT JUMPDEST PUSH1 0x0 PUSH2 0x3B06 DUP3 PUSH2 0x304A JUMP JUMPDEST SWAP2 POP PUSH2 0x3B11 DUP4 PUSH2 0x304A JUMP JUMPDEST SWAP3 POP DUP3 DUP3 SUB SWAP1 POP DUP2 DUP2 GT ISZERO PUSH2 0x3B29 JUMPI PUSH2 0x3B28 PUSH2 0x3ACC JUMP JUMPDEST JUMPDEST SWAP3 SWAP2 POP POP JUMP JUMPDEST PUSH32 0x4E487B7100000000000000000000000000000000000000000000000000000000 PUSH1 0x0 MSTORE PUSH1 0x32 PUSH1 0x4 MSTORE PUSH1 0x24 PUSH1 0x0 REVERT JUMPDEST PUSH32 0x4E487B7100000000000000000000000000000000000000000000000000000000 PUSH1 0x0 MSTORE PUSH1 0x31 PUSH1 0x4 MSTORE PUSH1 0x24 PUSH1 0x0 REVERT INVALID LOG2 PUSH5 0x6970667358 0x22 SLT KECCAK256 PUSH4 0xAF42A1BC DUP4 0xDE CALLDATALOAD 0xA5 DUP7 0x1F 0xB5 JUMPI COINBASE 0x25 LOG4 ADDMOD PUSH4 0xDE2986DF SHL 0x4D GASPRICE GT PC DUP1 0xEE SWAP9 BALANCE 0xD2 PUSH5 0x736F6C6343 STOP ADDMOD LT STOP CALLER "
    },
    "gasEstimates": {
      "creation": {
        "codeDepositCost": "3059800",
        "executionCost": "13385",
        "totalCost": "3073185"
      },
      "external": {
        "addOrRequestMember(string,string,string,address,bool)": "infinite",
        "addPost(address,string)": "infinite",
        "approoveRequest(address,address)": "infinite",
        "findMember(address,bool)": "infinite",
        "getAllPosts()": "infinite",
        "getApprovedOrRequestedMember(bool)": "infinite",
        "getPostsByUser(address)": "infinite",
        "login(address)": "2974",
        "recieve()": "120"
      },
      "internal": {
        "removeRequest(address)": "infinite"
      }
    },
    "methodIdentifiers": {
      "addOrRequestMember(string,string,string,address,bool)": "4cd6f25e",
      "addPost(address,string)": "ff869240",
      "approoveRequest(address,address)": "e070dd12",
      "findMember(address,bool)": "bafa08c1",
      "getAllPosts()": "30561100",
      "getApprovedOrRequestedMember(bool)": "e473f6cd",
      "getPostsByUser(address)": "28538949",
      "login(address)": "35a6861a",
      "recieve()": "a9e10bf2"
    }
  },
  "storageLayout": {
    "storage": [
      {
        "astId": 28,
        "contract": "Contract.sol:Contract",
        "label": "instanceOfPost",
        "offset": 0,
        "slot": "0",
        "type": "t_struct(PostStructure)10_storage"
      },
      {
        "astId": 32,
        "contract": "Contract.sol:Contract",
        "label": "postedByAnyone",
        "offset": 0,
        "slot": "2",
        "type": "t_array(t_struct(PostStructure)10_storage)dyn_storage"
      },
      {
        "astId": 94,
        "contract": "Contract.sol:Contract",
        "label": "requestIndex",
        "offset": 0,
        "slot": "3",
        "type": "t_uint256"
      },
      {
        "astId": 97,
        "contract": "Contract.sol:Contract",
        "label": "memberIndex",
        "offset": 0,
        "slot": "4",
        "type": "t_uint256"
      },
      {
        "astId": 101,
        "contract": "Contract.sol:Contract",
        "label": "indexFromRequest",
        "offset": 0,
        "slot": "5",
        "type": "t_mapping(t_address,t_uint256)"
      },
      {
        "astId": 105,
        "contract": "Contract.sol:Contract",
        "label": "indexFromApproove",
        "offset": 0,
        "slot": "6",
        "type": "t_mapping(t_address,t_uint256)"
      },
      {
        "astId": 110,
        "contract": "Contract.sol:Contract",
        "label": "getMemberWithAddress",
        "offset": 0,
        "slot": "7",
        "type": "t_mapping(t_address,t_struct(MemberStruct)25_storage)"
      },
      {
        "astId": 114,
        "contract": "Contract.sol:Contract",
        "label": "arrayOfMembers",
        "offset": 0,
        "slot": "8",
        "type": "t_array(t_struct(MemberStruct)25_storage)dyn_storage"
      },
      {
        "astId": 118,
        "contract": "Contract.sol:Contract",
        "label": "memberExist",
        "offset": 0,
        "slot": "9",
        "type": "t_mapping(t_address,t_bool)"
      },
      {
        "astId": 123,
        "contract": "Contract.sol:Contract",
        "label": "getRequestedMemberWithAddress",
        "offset": 0,
        "slot": "10",
        "type": "t_mapping(t_address,t_struct(MemberStruct)25_storage)"
      },
      {
        "astId": 127,
        "contract": "Contract.sol:Contract",
        "label": "arrayOfRequestedMembers",
        "offset": 0,
        "slot": "11",
        "type": "t_array(t_struct(MemberStruct)25_storage)dyn_storage"
      },
      {
        "astId": 131,
        "contract": "Contract.sol:Contract",
        "label": "memberRequested",
        "offset": 0,
        "slot": "12",
        "type": "t_mapping(t_address,t_bool)"
      },
      {
        "astId": 154,
        "contract": "Contract.sol:Contract",
        "label": "instanceOfMemberStruct",
        "offset": 0,
        "slot": "13",
        "type": "t_struct(MemberStruct)25_storage"
      }
    ],
    "types": {
      "t_address": {
        "encoding": "inplace",
        "label": "address",
        "numberOfBytes": "20"
      },
      "t_array(t_struct(MemberStruct)25_storage)dyn_storage": {
        "base": "t_struct(MemberStruct)25_storage",
        "encoding": "dynamic_array",
        "label": "struct Contract.MemberStruct[]",
        "numberOfBytes": "32"
      },
      "t_array(t_struct(PostStructure)10_storage)dyn_storage": {
        "base": "t_struct(PostStructure)10_storage",
        "encoding": "dynamic_array",
        "label": "struct Contract.PostStructure[]",
        "numberOfBytes": "32"
      },
      "t_bool": {
        "encoding": "inplace",
        "label": "bool",
        "numberOfBytes": "1"
      },
      "t_mapping(t_address,t_bool)": {
        "encoding": "mapping",
        "key": "t_address",
        "label": "mapping(address => bool)",
        "numberOfBytes": "32",
        "value": "t_bool"
      },
      "t_mapping(t_address,t_struct(MemberStruct)25_storage)": {
        "encoding": "mapping",
        "key": "t_address",
        "label": "mapping(address => struct Contract.MemberStruct)",
        "numberOfBytes": "32",
        "value": "t_struct(MemberStruct)25_storage"
      },
      "t_mapping(t_address,t_uint256)": {
        "encoding": "mapping",
        "key": "t_address",
        "label": "mapping(address => uint256)",
        "numberOfBytes": "32",
        "value": "t_uint256"
      },
      "t_string_storage": {
        "encoding": "bytes",
        "label": "string",
        "numberOfBytes": "32"
      },
      "t_struct(MemberStruct)25_storage": {
        "encoding": "inplace",
        "label": "struct Contract.MemberStruct",
        "members": [
          {
            "astId": 12,
            "contract": "Contract.sol:Contract",
            "label": "post",
            "offset": 0,
            "slot": "0",
            "type": "t_string_storage"
          },
          {
            "astId": 14,
            "contract": "Contract.sol:Contract",
            "label": "dept",
            "offset": 0,
            "slot": "1",
            "type": "t_string_storage"
          },
          {
            "astId": 16,
            "contract": "Contract.sol:Contract",
            "label": "name",
            "offset": 0,
            "slot": "2",
            "type": "t_string_storage"
          },
          {
            "astId": 18,
            "contract": "Contract.sol:Contract",
            "label": "userAddress",
            "offset": 0,
            "slot": "3",
            "type": "t_address"
          },
          {
            "astId": 20,
            "contract": "Contract.sol:Contract",
            "label": "power",
            "offset": 0,
            "slot": "4",
            "type": "t_uint256"
          },
          {
            "astId": 24,
            "contract": "Contract.sol:Contract",
            "label": "allPostsByUser",
            "offset": 0,
            "slot": "5",
            "type": "t_array(t_struct(PostStructure)10_storage)dyn_storage"
          }
        ],
        "numberOfBytes": "192"
      },
      "t_struct(PostStructure)10_storage": {
        "encoding": "inplace",
        "label": "struct Contract.PostStructure",
        "members": [
          {
            "astId": 7,
            "contract": "Contract.sol:Contract",
            "label": "postCreator",
            "offset": 0,
            "slot": "0",
            "type": "t_address"
          },
          {
            "astId": 9,
            "contract": "Contract.sol:Contract",
            "label": "postData",
            "offset": 0,
            "slot": "1",
            "type": "t_string_storage"
          }
        ],
        "numberOfBytes": "64"
      },
      "t_uint256": {
        "encoding": "inplace",
        "label": "uint256",
        "numberOfBytes": "32"
      }
    }
  },
  "userdoc": {
    "kind": "user",
    "methods": {},
    "version": 1
  }
}